Component: ARM Compiler 5.05 update 2 (build 169) Tool: armlink [4d0f33]

==============================================================================

Section Cross References

    cli.o(i.cli_init) refers to memmovea.o(.text) for __aeabi_memcpy4
    cli.o(i.cli_init) refers to nrf_cli.o(i.nrf_cli_init) for nrf_cli_init
    cli.o(i.cli_init) refers to app_error.o(i.app_error_handler_bare) for app_error_handler_bare
    cli.o(i.cli_init) refers to cli.o(.constdata) for .constdata
    cli.o(i.cli_missing_param_help) refers to nrf_cli.o(i.nrf_cli_fprintf) for nrf_cli_fprintf
    cli.o(i.cli_process) refers to nrf_cli.o(i.nrf_cli_process) for nrf_cli_process
    cli.o(i.cli_process) refers to cli.o(.constdata) for .constdata
    cli.o(i.cli_start) refers to nrf_cli.o(i.nrf_cli_start) for nrf_cli_start
    cli.o(i.cli_start) refers to app_error.o(i.app_error_handler_bare) for app_error_handler_bare
    cli.o(i.cli_start) refers to cli.o(.constdata) for .constdata
    cli.o(i.cli_unknown_param_help) refers to nrf_cli.o(i.nrf_cli_fprintf) for nrf_cli_fprintf
    cli.o(i.erase_cmd) refers to cli.o(i.nrf_cli_help_requested) for nrf_cli_help_requested
    cli.o(i.erase_cmd) refers to nrf_cli.o(i.nrf_cli_help_print) for nrf_cli_help_print
    cli.o(i.erase_cmd) refers to cli.o(i.cli_missing_param_help) for cli_missing_param_help
    cli.o(i.erase_cmd) refers to strtol.o(.text) for strtol
    cli.o(i.erase_cmd) refers to nrf_fstorage.o(i.nrf_fstorage_erase) for nrf_fstorage_erase
    cli.o(i.erase_cmd) refers to nrf_strerror.o(i.nrf_strerror_get) for nrf_strerror_get
    cli.o(i.erase_cmd) refers to nrf_cli.o(i.nrf_cli_fprintf) for nrf_cli_fprintf
==============================================================================

Removing Unused input sections from the image.

    Removing cli.o(.rev16_text), (4 bytes).
    Removing cli.o(.revsh_text), (4 bytes).
    Removing cli.o(.rrx_text), (6 bytes).
    Removing cli.o(.emb_text), (154 bytes).
    Removing main.o(.rev16_text), (4 bytes).
    Removing main.o(.revsh_text), (4 bytes).
    Removing main.o(.rrx_text), (6 bytes).
    Removing boards.o(.rev16_text), (4 bytes).
    Removing boards.o(.revsh_text), (4 bytes).
    Removing boards.o(.rrx_text), (6 bytes).
    Removing boards.o(i.bsp_board_button_idx_to_pin), (12 bytes).
    Removing boards.o(i.bsp_board_button_state_get), (32 bytes).
    Removing boards.o(i.bsp_board_buttons_init), (36 bytes).
    Removing boards.o(i.bsp_board_led_idx_to_pin), (12 bytes).
    Removing boards.o(i.bsp_board_led_invert), (36 bytes).
    Removing boards.o(i.bsp_board_led_off), (16 bytes).
    Removing boards.o(i.bsp_board_led_on), (16 bytes).
    Removing boards.o(i.bsp_board_led_state_get), (32 bytes).
==============================================================================

Image Symbol Table

    Local Symbols

    Symbol Name                              Value     Ov Type        Size  Object(Section)

    ../clib/../cmprslib/zerorunl2.c          0x00000000   Number         0  __dczerorl2.o ABSOLUTE
    ../clib/microlib/ctype/ctype.c           0x00000000   Number         0  isalnum_o.o ABSOLUTE
    ../clib/microlib/ctype/ctype.c           0x00000000   Number         0  isalpha_o.o ABSOLUTE
    ../clib/microlib/ctype/ctype.c           0x00000000   Number         0  isblank_o.o ABSOLUTE
    ../clib/microlib/ctype/ctype.c           0x00000000   Number         0  islower_o.o ABSOLUTE
    ../clib/microlib/ctype/ctype.c           0x00000000   Number         0  iscntrl_o.o ABSOLUTE
    ../clib/microlib/ctype/ctype.c           0x00000000   Number         0  isdigit_o.o ABSOLUTE
    ../clib/microlib/ctype/ctype.c           0x00000000   Number         0  isgraph_o.o ABSOLUTE
    ../clib/microlib/ctype/ctype.c           0x00000000   Number         0  isprint_o.o ABSOLUTE
    ../clib/microlib/ctype/ctype.c           0x00000000   Number         0  ispunct_o.o ABSOLUTE
    ../clib/microlib/ctype/ctype.c           0x00000000   Number         0  isspace_o.o ABSOLUTE
    ../clib/microlib/ctype/ctype.c           0x00000000   Number         0  isupper_o.o ABSOLUTE
    ../clib/microlib/ctype/ctype.c           0x00000000   Number         0  isxdigit_o.o ABSOLUTE
    ../clib/microlib/ctype/ctype.c           0x00000000   Number         0  ctype_o.o ABSOLUTE
    ../clib/microlib/division.c              0x00000000   Number         0  uidiv.o ABSOLUTE
    ../clib/microlib/division.c              0x00000000   Number         0  uldiv.o ABSOLUTE
    ../clib/microlib/errno.c                 0x00000000   Number         0  errno.o ABSOLUTE
    ../clib/microlib/init/entry.s            0x00000000   Number         0  entry11a.o ABSOLUTE
    ../clib/microlib/init/entry.s            0x00000000   Number         0  entry9b.o ABSOLUTE
    ../clib/microlib/init/entry.s            0x00000000   Number         0  entry9a.o ABSOLUTE
    ../clib/microlib/init/entry.s            0x00000000   Number         0  entry8a.o ABSOLUTE
    ../clib/microlib/init/entry.s            0x00000000   Number         0  entry7b.o ABSOLUTE
    ../clib/microlib/init/entry.s            0x00000000   Number         0  entry7a.o ABSOLUTE
    ../clib/microlib/init/entry.s            0x00000000   Number         0  entry5.o ABSOLUTE
    ../clib/microlib/init/entry.s            0x00000000   Number         0  entry2.o ABSOLUTE
    ../clib/microlib/init/entry.s            0x00000000   Number         0  entry.o ABSOLUTE
    ../clib/microlib/init/entry.s            0x00000000   Number         0  entry10b.o ABSOLUTE
    ../clib/microlib/init/entry.s            0x00000000   Number         0  entry8b.o ABSOLUTE
    ../clib/microlib/init/entry.s            0x00000000   Number         0  entry10a.o ABSOLUTE
    ../clib/microlib/init/entry.s            0x00000000   Number         0  entry11b.o ABSOLUTE
    ../clib/microlib/longlong.c              0x00000000   Number         0  llshl.o ABSOLUTE
    ../clib/microlib/longlong.c              0x00000000   Number         0  llushr.o ABSOLUTE
    ../clib/microlib/longlong.c              0x00000000   Number         0  llsshr.o ABSOLUTE
    ../clib/microlib/printf/printf.c         0x00000000   Number         0  printf8.o ABSOLUTE
    ../clib/microlib/printf/printf.c         0x00000000   Number         0  printfa.o ABSOLUTE
    ../clib/microlib/printf/printf.c         0x00000000   Number         0  printf0.o ABSOLUTE
    ../clib/microlib/printf/printf.c         0x00000000   Number         0  printf7.o ABSOLUTE
    ../clib/microlib/printf/printf.c         0x00000000   Number         0  printf6.o ABSOLUTE
    ../clib/microlib/printf/printf.c         0x00000000   Number         0  printf5.o ABSOLUTE
    ../clib/microlib/printf/printf.c         0x00000000   Number         0  printf4.o ABSOLUTE
    ../clib/microlib/printf/printf.c         0x00000000   Number         0  printf3.o ABSOLUTE
    ../clib/microlib/printf/printf.c         0x00000000   Number         0  printf2.o ABSOLUTE
    ../clib/microlib/printf/printf.c         0x00000000   Number         0  printf1.o ABSOLUTE
    ../clib/microlib/printf/printf.c         0x00000000   Number         0  printfb.o ABSOLUTE
    ../clib/microlib/printf/stubs.s          0x00000000   Number         0  stubs.o ABSOLUTE
    ../clib/microlib/stdio/fputc.c           0x00000000   Number         0  fputc.o ABSOLUTE
    ../clib/microlib/stdio/semi.s            0x00000000   Number         0  semi.o ABSOLUTE
    ../clib/microlib/stdio/streams.c         0x00000000   Number         0  stdout.o ABSOLUTE
    ../clib/microlib/stdlib/qsort.c          0x00000000   Number         0  qsort.o ABSOLUTE
    ../clib/microlib/string/memcpy.c         0x00000000   Number         0  memcpyb.o ABSOLUTE
    ../clib/microlib/string/memcpy.c         0x00000000   Number         0  memmovea.o ABSOLUTE
    ../clib/microlib/string/memcpy.c         0x00000000   Number         0  memcpya.o ABSOLUTE
    ../clib/microlib/string/memcpy.c         0x00000000   Number         0  memmoveb.o ABSOLUTE
    ../clib/microlib/string/memset.c         0x00000000   Number         0  memseta.o ABSOLUTE
    ../clib/microlib/string/strcmp.c         0x00000000   Number         0  strcmp.o ABSOLUTE
    ../clib/microlib/string/strcpy.c         0x00000000   Number         0  strcpy.o ABSOLUTE
    ../clib/microlib/string/strlen.c         0x00000000   Number         0  strlen.o ABSOLUTE
    ../clib/microlib/string/strncmp.c        0x00000000   Number         0  strncmp.o ABSOLUTE
    ../clib/microlib/stubs.s                 0x00000000   Number         0  iusefp.o ABSOLUTE
    ../clib/microlib/stubs.s                 0x00000000   Number         0  iusesemip.o ABSOLUTE
    ../clib/scanf.c                          0x00000000   Number         0  strtol.o ABSOLUTE
    ../clib/scanf.c                          0x00000000   Number         0  _strtoul.o ABSOLUTE
    ../clib/scanf.c                          0x00000000   Number         0  _chval.o ABSOLUTE
    ../fplib/microlib/fpadd.c                0x00000000   Number         0  dadd.o ABSOLUTE
    ../fplib/microlib/fpdiv.c                0x00000000   Number         0  ddiv.o ABSOLUTE
    ../fplib/microlib/fpepilogue.c           0x00000000   Number         0  depilogue.o ABSOLUTE
    ../fplib/microlib/fpfix.c                0x00000000   Number         0  dfixul.o ABSOLUTE
    ../fplib/microlib/fpmul.c                0x00000000   Number         0  dmul.o ABSOLUTE
    ..\..\..\..\..\..\components\boards\boards.c 0x00000000   Number         0  boards.o ABSOLUTE
    ..\..\..\..\..\..\components\drivers_nrf\common\nrf_drv_common.c 0x00000000   Number         0  nrf_drv_common.o ABSOLUTE
    ..\..\..\..\..\..\components\drivers_nrf\uart\nrf_drv_uart.c 0x00000000   Number         0  nrf_drv_uart.o ABSOLUTE
    ..\..\..\..\..\..\components\libraries\atomic_fifo\nrf_atfifo.c 0x00000000   Number         0  nrf_atfifo.o ABSOLUTE
    ..\..\..\..\..\..\components\libraries\balloc\nrf_balloc.c 0x00000000   Number         0  nrf_balloc.o ABSOLUTE
    ..\..\..\..\..\..\components\libraries\cli\nrf_cli.c 0x00000000   Number         0  nrf_cli.o ABSOLUTE
    ..\..\..\..\..\..\components\libraries\cli\uart\nrf_cli_uart.c 0x00000000   Number         0  nrf_cli_uart.o ABSOLUTE
    ..\..\..\..\..\..\components\libraries\experimental_log\src\nrf_log_backend_serial.c 0x00000000   Number         0  nrf_log_backend_serial.o ABSOLUTE
    ..\..\..\..\..\..\components\libraries\experimental_log\src\nrf_log_backend_uart.c 0x00000000   Number         0  nrf_log_backend_uart.o ABSOLUTE
    ..\..\..\..\..\..\components\libraries\experimental_log\src\nrf_log_default_backends.c 0x00000000   Number         0  nrf_log_default_backends.o ABSOLUTE
    ..\..\..\..\..\..\components\libraries\experimental_log\src\nrf_log_frontend.c 0x00000000   Number         0  nrf_log_frontend.o ABSOLUTE
    ..\..\..\..\..\..\components\libraries\experimental_log\src\nrf_log_str_formatter.c 0x00000000   Number         0  nrf_log_str_formatter.o ABSOLUTE
    ..\..\..\..\..\..\components\libraries\experimental_memobj\nrf_memobj.c 0x00000000   Number         0  nrf_memobj.o ABSOLUTE
    ..\..\..\..\..\..\components\libraries\experimental_ringbuf\nrf_ringbuf.c 0x00000000   Number         0  nrf_ringbuf.o ABSOLUTE
    ..\..\..\..\..\..\components\libraries\experimental_section_vars\nrf_section_iter.c 0x00000000   Number         0  nrf_section_iter.o ABSOLUTE
    ..\..\..\..\..\..\components\libraries\fstorage\nrf_fstorage.c 0x00000000   Number         0  nrf_fstorage.o ABSOLUTE
    ..\..\..\..\..\..\components\libraries\fstorage\nrf_fstorage_sd.c 0x00000000   Number         0  nrf_fstorage_sd.o ABSOLUTE
    ..\..\..\..\..\..\components\libraries\pwr_mgmt\nrf_pwr_mgmt.c 0x00000000   Number         0  nrf_pwr_mgmt.o ABSOLUTE
    ..\..\..\..\..\..\components\libraries\queue\nrf_queue.c 0x00000000   Number         0  nrf_queue.o ABSOLUTE
    ..\..\..\..\..\..\components\libraries\scheduler\app_scheduler.c 0x00000000   Number         0  app_scheduler.o ABSOLUTE
    ..\..\..\..\..\..\components\libraries\strerror\nrf_strerror.c 0x00000000   Number         0  nrf_strerror.o ABSOLUTE
    ..\..\..\..\..\..\components\libraries\timer\app_timer.c 0x00000000   Number         0  app_timer.o ABSOLUTE
    ..\..\..\..\..\..\components\libraries\util\app_error.c 0x00000000   Number         0  app_error.o ABSOLUTE
    ..\..\..\..\..\..\components\libraries\util\app_error_weak.c 0x00000000   Number         0  app_error_weak.o ABSOLUTE
    ..\..\..\..\..\..\components\libraries\util\app_util_platform.c 0x00000000   Number         0  app_util_platform.o ABSOLUTE
    ..\..\..\..\..\..\components\libraries\util\nrf_assert.c 0x00000000   Number         0  nrf_assert.o ABSOLUTE
    ..\..\..\..\..\..\components\softdevice\common\nrf_sdh.c 0x00000000   Number         0  nrf_sdh.o ABSOLUTE
    ..\..\..\..\..\..\components\softdevice\common\nrf_sdh_ble.c 0x00000000   Number         0  nrf_sdh_ble.o ABSOLUTE
    ..\..\..\..\..\..\components\softdevice\common\nrf_sdh_soc.c 0x00000000   Number         0  nrf_sdh_soc.o ABSOLUTE
    ..\..\..\..\..\..\external\fprintf\nrf_fprintf.c 0x00000000   Number         0  nrf_fprintf.o ABSOLUTE
    ..\..\..\..\..\..\external\fprintf\nrf_fprintf_format.c 0x00000000   Number         0  nrf_fprintf_format.o ABSOLUTE
    ..\..\..\cli.c                           0x00000000   Number         0  cli.o ABSOLUTE
    ..\..\..\main.c                          0x00000000   Number         0  main.o ABSOLUTE
    ..\\..\\..\\..\\..\\..\\components\\boards\\boards.c 0x00000000   Number         0  boards.o ABSOLUTE
    ..\\..\\..\\..\\..\\..\\components\\drivers_nrf\\common\\nrf_drv_common.c 0x00000000   Number         0  nrf_drv_common.o ABSOLUTE
    ..\\..\\..\\..\\..\\..\\components\\drivers_nrf\\uart\\nrf_drv_uart.c 0x00000000   Number         0  nrf_drv_uart.o ABSOLUTE
    ..\\..\\..\\..\\..\\..\\components\\libraries\\atomic_fifo\\nrf_atfifo.c 0x00000000   Number         0  nrf_atfifo.o ABSOLUTE
    ..\\..\\..\\..\\..\\..\\components\\libraries\\balloc\\nrf_balloc.c 0x00000000   Number         0  nrf_balloc.o ABSOLUTE
    ..\\..\\..\\..\\..\\..\\components\\libraries\\cli\\nrf_cli.c 0x00000000   Number         0  nrf_cli.o ABSOLUTE
    ..\\..\\..\\..\\..\\..\\components\\libraries\\cli\\uart\\nrf_cli_uart.c 0x00000000   Number         0  nrf_cli_uart.o ABSOLUTE
    ..\\..\\..\\..\\..\\..\\components\\libraries\\experimental_log\\src\\nrf_log_backend_serial.c 0x00000000   Number         0  nrf_log_backend_serial.o ABSOLUTE
    ..\\..\\..\\..\\..\\..\\components\\libraries\\experimental_log\\src\\nrf_log_backend_uart.c 0x00000000   Number         0  nrf_log_backend_uart.o ABSOLUTE
    ..\\..\\..\\..\\..\\..\\components\\libraries\\experimental_log\\src\\nrf_log_default_backends.c 0x00000000   Number         0  nrf_log_default_backends.o ABSOLUTE
    ..\\..\\..\\..\\..\\..\\components\\libraries\\experimental_log\\src\\nrf_log_frontend.c 0x00000000   Number         0  nrf_log_frontend.o ABSOLUTE
    ..\\..\\..\\..\\..\\..\\components\\libraries\\experimental_log\\src\\nrf_log_str_formatter.c 0x00000000   Number         0  nrf_log_str_formatter.o ABSOLUTE
    ..\\..\\..\\..\\..\\..\\components\\libraries\\experimental_memobj\\nrf_memobj.c 0x00000000   Number         0  nrf_memobj.o ABSOLUTE
    ..\\..\\..\\..\\..\\..\\components\\libraries\\experimental_ringbuf\\nrf_ringbuf.c 0x00000000   Number         0  nrf_ringbuf.o ABSOLUTE
    ..\\..\\..\\..\\..\\..\\components\\libraries\\experimental_section_vars\\nrf_section_iter.c 0x00000000   Number         0  nrf_section_iter.o ABSOLUTE
    ..\\..\\..\\..\\..\\..\\components\\libraries\\fstorage\\nrf_fstorage_sd.c 0x00000000   Number         0  nrf_fstorage_sd.o ABSOLUTE
    ..\\..\\..\\..\\..\\..\\components\\libraries\\pwr_mgmt\\nrf_pwr_mgmt.c 0x00000000   Number         0  nrf_pwr_mgmt.o ABSOLUTE
    ..\\..\\..\\..\\..\\..\\components\\libraries\\queue\\nrf_queue.c 0x00000000   Number         0  nrf_queue.o ABSOLUTE
    ..\\..\\..\\..\\..\\..\\components\\libraries\\scheduler\\app_scheduler.c 0x00000000   Number         0  app_scheduler.o ABSOLUTE
    ..\\..\\..\\..\\..\\..\\components\\libraries\\strerror\\nrf_strerror.c 0x00000000   Number         0  nrf_strerror.o ABSOLUTE
    ..\\..\\..\\..\\..\\..\\components\\libraries\\timer\\app_timer.c 0x00000000   Number         0  app_timer.o ABSOLUTE
    ..\\..\\..\\..\\..\\..\\components\\libraries\\util\\app_error.c 0x00000000   Number         0  app_error.o ABSOLUTE
    ..\\..\\..\\..\\..\\..\\components\\libraries\\util\\app_error_weak.c 0x00000000   Number         0  app_error_weak.o ABSOLUTE
    ..\\..\\..\\..\\..\\..\\components\\libraries\\util\\app_util_platform.c 0x00000000   Number         0  app_util_platform.o ABSOLUTE
    ..\\..\\..\\..\\..\\..\\components\\libraries\\util\\nrf_assert.c 0x00000000   Number         0  nrf_assert.o ABSOLUTE
    ..\\..\\..\\..\\..\\..\\components\\softdevice\\common\\nrf_sdh.c 0x00000000   Number         0  nrf_sdh.o ABSOLUTE
    ..\\..\\..\\..\\..\\..\\components\\softdevice\\common\\nrf_sdh_ble.c 0x00000000   Number         0  nrf_sdh_ble.o ABSOLUTE
    ..\\..\\..\\..\\..\\..\\components\\softdevice\\common\\nrf_sdh_soc.c 0x00000000   Number         0  nrf_sdh_soc.o ABSOLUTE
    ..\\..\\..\\..\\..\\..\\external\\fprintf\\nrf_fprintf.c 0x00000000   Number         0  nrf_fprintf.o ABSOLUTE
    ..\\..\\..\\..\\..\\..\\external\\fprintf\\nrf_fprintf_format.c 0x00000000   Number         0  nrf_fprintf_format.o ABSOLUTE
    ..\\..\\..\\cli.c                        0x00000000   Number         0  cli.o ABSOLUTE
    ..\\..\\..\\main.c                       0x00000000   Number         0  main.o ABSOLUTE
    RTE\Device\nRF52832_xxAA\arm_startup_nrf52.s 0x00000000   Number         0  arm_startup_nrf52.o ABSOLUTE
    RTE\Device\nRF52832_xxAA\system_nrf52.c  0x00000000   Number         0  system_nrf52.o ABSOLUTE
    RTE\\Device\\nRF52832_xxAA\\system_nrf52.c 0x00000000   Number         0  system_nrf52.o ABSOLUTE
    cdrcmple.s                               0x00000000   Number         0  cdrcmple.o ABSOLUTE
    dc.s                                     0x00000000   Number         0  dc.o ABSOLUTE
    handlers.s                               0x00000000   Number         0  handlers.o ABSOLUTE
    init.s                                   0x00000000   Number         0  init.o ABSOLUTE
    RESET                                    0x00023000   Section      512  arm_startup_nrf52.o(RESET)
    .ARM.Collect$$$$00000000                 0x00023200   Section        0  entry.o(.ARM.Collect$$$$00000000)
    .ARM.Collect$$$$00000001                 0x00023200   Section        4  entry2.o(.ARM.Collect$$$$00000001)
    .ARM.Collect$$$$00000004                 0x00023204   Section        4  entry5.o(.ARM.Collect$$$$00000004)
    .ARM.Collect$$$$00000008                 0x00023208   Section        0  entry7b.o(.ARM.Collect$$$$00000008)
    .ARM.Collect$$$$0000000A                 0x00023208   Section        0  entry8b.o(.ARM.Collect$$$$0000000A)
    .ARM.Collect$$$$0000000B                 0x00023208   Section        8  entry9a.o(.ARM.Collect$$$$0000000B)
    .ARM.Collect$$$$0000000D                 0x00023210   Section        0  entry10a.o(.ARM.Collect$$$$0000000D)
    .ARM.Collect$$$$0000000F                 0x00023210   Section        0  entry11a.o(.ARM.Collect$$$$0000000F)
    .ARM.Collect$$$$00002712                 0x00023210   Section        4  entry2.o(.ARM.Collect$$$$00002712)
    __lit__00000000                          0x00023210   Data           4  entry2.o(.ARM.Collect$$$$00002712)
    .emb_text                                0x00023214   Section      200  nrf_atfifo.o(.emb_text)
    $v0                                      0x00023214   Number         0  nrf_atfifo.o(.emb_text)
    .emb_text                                0x000232dc   Section      154  nrf_fstorage_sd.o(.emb_text)
    $v0                                      0x000232dc   Number         0  nrf_fstorage_sd.o(.emb_text)
    .emb_text                                0x00023378   Section      154  nrf_memobj.o(.emb_text)
    $v0                                      0x00023378   Number         0  nrf_memobj.o(.emb_text)
    .emb_text                                0x00023414   Section      154  nrf_ringbuf.o(.emb_text)
    $v0                                      0x00023414   Number         0  nrf_ringbuf.o(.emb_text)
    .emb_text                                0x000234b0   Section      154  nrf_log_frontend.o(.emb_text)
    $v0                                      0x000234b0   Number         0  nrf_log_frontend.o(.emb_text)
    .text                                    0x0002354c   Section       36  arm_startup_nrf52.o(.text)
    $v0                                      0x0002354c   Number         0  arm_startup_nrf52.o(.text)
    .text                                    0x00023570   Section        0  ctype_o.o(.text)
    .text                                    0x00023578   Section        0  qsort.o(.text)
    .text                                    0x00023614   Section        0  memmovea.o(.text)
    .text                                    0x00023654   Section        0  memseta.o(.text)
    .text                                    0x00023678   Section        0  strlen.o(.text)
    .text                                    0x00023686   Section        0  strcmp.o(.text)
    .text                                    0x000236a2   Section        0  strcpy.o(.text)
    .text                                    0x000236b4   Section        0  strncmp.o(.text)
    .text                                    0x000236d2   Section        0  strtol.o(.text)
    .text                                    0x00023742   Section        0  uldiv.o(.text)
    .text                                    0x000237a4   Section        0  _strtoul.o(.text)
    .text                                    0x00023844   Section       36  init.o(.text)
    .text                                    0x00023868   Section        0  semi.o(.text)
    .text                                    0x00023868   Section        0  llshl.o(.text)
    .text                                    0x00023886   Section        0  llushr.o(.text)
    .text                                    0x000238a6   Section        0  _chval.o(.text)
    .text                                    0x000238c2   Section        0  iusesemip.o(.text)
    .text                                    0x000238c2   Section        0  __dczerorl2.o(.text)
    i.NVIC_ClearPendingIRQ                   0x00023918   Section        0  app_timer.o(i.NVIC_ClearPendingIRQ)
    NVIC_ClearPendingIRQ                     0x00023919   Thumb Code    22  app_timer.o(i.NVIC_ClearPendingIRQ)
    i.NVIC_EnableIRQ                         0x0002392e   Section        0  app_timer.o(i.NVIC_EnableIRQ)
    NVIC_EnableIRQ                           0x0002392f   Thumb Code    22  app_timer.o(i.NVIC_EnableIRQ)
    i.NVIC_SetPendingIRQ                     0x00023944   Section        0  app_timer.o(i.NVIC_SetPendingIRQ)
    NVIC_SetPendingIRQ                       0x00023945   Thumb Code    22  app_timer.o(i.NVIC_SetPendingIRQ)
    i.NVIC_SetPriority                       0x0002395a   Section        0  app_timer.o(i.NVIC_SetPriority)
    NVIC_SetPriority                         0x0002395b   Thumb Code    32  app_timer.o(i.NVIC_SetPriority)
    i.RTC1_IRQHandler                        0x0002397c   Section        0  app_timer.o(i.RTC1_IRQHandler)
    i.SWI0_EGU0_IRQHandler                   0x000239a0   Section        0  app_timer.o(i.SWI0_EGU0_IRQHandler)
    i.SWI2_EGU2_IRQHandler                   0x000239a4   Section        0  nrf_sdh.o(i.SWI2_EGU2_IRQHandler)
    i.SystemInit                             0x000239a8   Section        0  system_nrf52.o(i.SystemInit)
    i.UARTE0_UART0_IRQHandler                0x00023cc4   Section        0  nrf_drv_uart.o(i.UARTE0_UART0_IRQHandler)
    i.__0printf$5                            0x00023ce0   Section        0  printf5.o(i.__0printf$5)
    i.__aeabi_errno_addr                     0x00023d00   Section        0  errno.o(i.__aeabi_errno_addr)
    i.__scatterload_copy                     0x00023d08   Section       14  handlers.o(i.__scatterload_copy)
    i.__scatterload_null                     0x00023d16   Section        2  handlers.o(i.__scatterload_null)
    i.__scatterload_zeroinit                 0x00023d18   Section       14  handlers.o(i.__scatterload_zeroinit)
    i.__sd_nvic_app_accessible_irq           0x00023d28   Section        0  nrf_sdh.o(i.__sd_nvic_app_accessible_irq)
    __sd_nvic_app_accessible_irq             0x00023d29   Thumb Code    32  nrf_sdh.o(i.__sd_nvic_app_accessible_irq)
    i.__sd_nvic_is_app_accessible_priority   0x00023d4c   Section        0  nrf_sdh.o(i.__sd_nvic_is_app_accessible_priority)
    __sd_nvic_is_app_accessible_priority     0x00023d4d   Thumb Code    22  nrf_sdh.o(i.__sd_nvic_is_app_accessible_priority)
    i._printf_core                           0x00023d64   Section        0  printf5.o(i._printf_core)
    _printf_core                             0x00023d65   Thumb Code   658  printf5.o(i._printf_core)
    i.addr_is_aligned32                      0x00024024   Section        0  nrf_fstorage.o(i.addr_is_aligned32)
    addr_is_aligned32                        0x00024025   Thumb Code    12  nrf_fstorage.o(i.addr_is_aligned32)
    i.addr_within_bounds                     0x00024030   Section        0  nrf_fstorage.o(i.addr_within_bounds)
    addr_within_bounds                       0x00024031   Thumb Code    24  nrf_fstorage.o(i.addr_within_bounds)
    i.app_error_fault_handler                0x00024048   Section        0  app_error_weak.o(i.app_error_fault_handler)
    i.app_error_handler_bare                 0x000240cc   Section        0  app_error.o(i.app_error_handler_bare)
    i.app_timer_create                       0x000240e4   Section        0  app_timer.o(i.app_timer_create)
    i.app_timer_init                         0x00024108   Section        0  app_timer.o(i.app_timer_init)
    i.app_timer_start                        0x0002415c   Section        0  app_timer.o(i.app_timer_start)
    i.app_timer_stop                         0x000241e4   Section        0  app_timer.o(i.app_timer_stop)
    i.app_util_critical_region_enter         0x00024204   Section        0  app_util_platform.o(i.app_util_critical_region_enter)
    i.app_util_critical_region_exit          0x0002424c   Section        0  app_util_platform.o(i.app_util_critical_region_exit)
    i.apply_config                           0x00024280   Section        0  nrf_drv_uart.o(i.apply_config)
    apply_config                             0x00024281   Thumb Code   180  nrf_drv_uart.o(i.apply_config)
    i.buf_prealloc                           0x00024338   Section        0  nrf_log_frontend.o(i.buf_prealloc)
    buf_prealloc                             0x00024339   Thumb Code    96  nrf_log_frontend.o(i.buf_prealloc)
    i.buffer_add                             0x0002439c   Section        0  nrf_fprintf_format.o(i.buffer_add)
    buffer_add                               0x0002439d   Thumb Code    30  nrf_fprintf_format.o(i.buffer_add)
    i.buffer_is_empty                        0x000243bc   Section        0  nrf_log_frontend.o(i.buffer_is_empty)
    i.char_backspace                         0x000243d0   Section        0  nrf_cli.o(i.char_backspace)
    char_backspace                           0x000243d1   Thumb Code   170  nrf_cli.o(i.char_backspace)
    i.char_delete                            0x00024488   Section        0  nrf_cli.o(i.char_delete)
    char_delete                              0x00024489   Thumb Code   138  nrf_cli.o(i.char_delete)
    i.char_insert                            0x0002451c   Section        0  nrf_cli.o(i.char_insert)
    char_insert                              0x0002451d   Thumb Code   310  nrf_cli.o(i.char_insert)
    i.cli_clear_eos                          0x0002465c   Section        0  nrf_cli.o(i.cli_clear_eos)
    cli_clear_eos                            0x0002465d   Thumb Code    10  nrf_cli.o(i.cli_clear_eos)
    i.cli_cursor_restore                     0x00024670   Section        0  nrf_cli.o(i.cli_cursor_restore)
    cli_cursor_restore                       0x00024671   Thumb Code    10  nrf_cli.o(i.cli_cursor_restore)
    i.cli_cursor_save                        0x00024684   Section        0  nrf_cli.o(i.cli_cursor_save)
    cli_cursor_save                          0x00024685   Thumb Code    10  nrf_cli.o(i.cli_cursor_save)
    i.cli_execute                            0x00024698   Section        0  nrf_cli.o(i.cli_execute)
    cli_execute                              0x00024699   Thumb Code   410  nrf_cli.o(i.cli_execute)
    i.cli_init                               0x00024898   Section        0  cli.o(i.cli_init)
    i.cli_log_entry_process                  0x000248d8   Section        0  nrf_cli.o(i.cli_log_entry_process)
    cli_log_entry_process                    0x000248d9   Thumb Code   320  nrf_cli.o(i.cli_log_entry_process)
    i.cli_missing_param_help                 0x00024a48   Section        0  cli.o(i.cli_missing_param_help)
    cli_missing_param_help                   0x00024a49   Thumb Code    16  cli.o(i.cli_missing_param_help)
    i.cli_process                            0x00024a88   Section        0  cli.o(i.cli_process)
    i.cli_read                               0x00024a94   Section        0  nrf_cli.o(i.cli_read)
    cli_read                                 0x00024a95   Thumb Code    14  nrf_cli.o(i.cli_read)
    i.cli_start                              0x00024aa4   Section        0  cli.o(i.cli_start)
    i.cli_state_collect                      0x00024ac0   Section        0  nrf_cli.o(i.cli_state_collect)
    cli_state_collect                        0x00024ac1   Thumb Code   446  nrf_cli.o(i.cli_state_collect)
    i.cli_state_set                          0x00024c80   Section        0  nrf_cli.o(i.cli_state_set)
    cli_state_set                            0x00024c81   Thumb Code    34  nrf_cli.o(i.cli_state_set)
    i.cli_strlen                             0x00024ca8   Section        0  nrf_cli.o(i.cli_strlen)
    cli_strlen                               0x00024ca9   Thumb Code    10  nrf_cli.o(i.cli_strlen)
    i.cli_tab_handle                         0x00024cb4   Section        0  nrf_cli.o(i.cli_tab_handle)
    cli_tab_handle                           0x00024cb5   Thumb Code   720  nrf_cli.o(i.cli_tab_handle)
    i.cli_transport_evt_handler              0x00024fc0   Section        0  nrf_cli.o(i.cli_transport_evt_handler)
    cli_transport_evt_handler                0x00024fc1   Thumb Code    14  nrf_cli.o(i.cli_transport_evt_handler)
    i.cli_uart_enable                        0x00024fd0   Section        0  nrf_cli_uart.o(i.cli_uart_enable)
    cli_uart_enable                          0x00024fd1   Thumb Code   104  nrf_cli_uart.o(i.cli_uart_enable)
    i.cli_uart_init                          0x0002503c   Section        0  nrf_cli_uart.o(i.cli_uart_init)
    cli_uart_init                            0x0002503d   Thumb Code    70  nrf_cli_uart.o(i.cli_uart_init)
    i.cli_uart_read                          0x00025088   Section        0  nrf_cli_uart.o(i.cli_uart_read)
    cli_uart_read                            0x00025089   Thumb Code    10  nrf_cli_uart.o(i.cli_uart_read)
    i.cli_uart_uninit                        0x00025092   Section        0  nrf_cli_uart.o(i.cli_uart_uninit)
    cli_uart_uninit                          0x00025093   Thumb Code    22  nrf_cli_uart.o(i.cli_uart_uninit)
    i.cli_uart_write                         0x000250a8   Section        0  nrf_cli_uart.o(i.cli_uart_write)
    cli_uart_write                           0x000250a9   Thumb Code    80  nrf_cli_uart.o(i.cli_uart_write)
    i.cli_unknown_param_help                 0x000250f8   Section        0  cli.o(i.cli_unknown_param_help)
    cli_unknown_param_help                   0x000250f9   Thumb Code    18  cli.o(i.cli_unknown_param_help)
    i.cli_write                              0x00025140   Section        0  nrf_cli.o(i.cli_write)
    cli_write                                0x00025141   Thumb Code    82  nrf_cli.o(i.cli_write)
    i.cmd_get                                0x00025194   Section        0  nrf_cli.o(i.cmd_get)
    cmd_get                                  0x00025195   Thumb Code   124  nrf_cli.o(i.cmd_get)
    i.cmd_trim                               0x0002521c   Section        0  nrf_cli.o(i.cmd_trim)
    cmd_trim                                 0x0002521d   Thumb Code   154  nrf_cli.o(i.cmd_trim)
    i.compare_reg_update                     0x000252b8   Section        0  app_timer.o(i.compare_reg_update)
    compare_reg_update                       0x000252b9   Thumb Code   160  app_timer.o(i.compare_reg_update)
    i.completion_insert                      0x00025364   Section        0  nrf_cli.o(i.completion_insert)
    completion_insert                        0x00025365   Thumb Code   142  nrf_cli.o(i.completion_insert)
    i.cursor_down_move                       0x000253f8   Section        0  nrf_cli.o(i.cursor_down_move)
    cursor_down_move                         0x000253f9   Thumb Code    16  nrf_cli.o(i.cursor_down_move)
    i.cursor_end_position_move               0x00025410   Section        0  nrf_cli.o(i.cursor_end_position_move)
    cursor_end_position_move                 0x00025411   Thumb Code    82  nrf_cli.o(i.cursor_end_position_move)
    i.cursor_home_position_move              0x00025462   Section        0  nrf_cli.o(i.cursor_home_position_move)
    cursor_home_position_move                0x00025463   Thumb Code    84  nrf_cli.o(i.cursor_home_position_move)
    i.cursor_in_empty_line                   0x000254b6   Section        0  nrf_cli.o(i.cursor_in_empty_line)
    cursor_in_empty_line                     0x000254b7   Thumb Code    38  nrf_cli.o(i.cursor_in_empty_line)
    i.cursor_left_move                       0x000254dc   Section        0  nrf_cli.o(i.cursor_left_move)
    cursor_left_move                         0x000254dd   Thumb Code    16  nrf_cli.o(i.cursor_left_move)
    i.cursor_next_line_move                  0x000254f4   Section        0  nrf_cli.o(i.cursor_next_line_move)
    cursor_next_line_move                    0x000254f5   Thumb Code    10  nrf_cli.o(i.cursor_next_line_move)
    i.cursor_position_get                    0x00025508   Section        0  nrf_cli.o(i.cursor_position_get)
    cursor_position_get                      0x00025509   Thumb Code   292  nrf_cli.o(i.cursor_position_get)
    i.cursor_position_synchronize            0x00025630   Section        0  nrf_cli.o(i.cursor_position_synchronize)
    cursor_position_synchronize              0x00025631   Thumb Code   106  nrf_cli.o(i.cursor_position_synchronize)
    i.cursor_right_move                      0x0002569c   Section        0  nrf_cli.o(i.cursor_right_move)
    cursor_right_move                        0x0002569d   Thumb Code    16  nrf_cli.o(i.cursor_right_move)
    i.cursor_up_move                         0x000256b4   Section        0  nrf_cli.o(i.cursor_up_move)
    cursor_up_move                           0x000256b5   Thumb Code    16  nrf_cli.o(i.cursor_up_move)
    i.elapsed_ticks_acquire                  0x000256cc   Section        0  app_timer.o(i.elapsed_ticks_acquire)
    elapsed_ticks_acquire                    0x000256cd   Thumb Code    58  app_timer.o(i.elapsed_ticks_acquire)
    i.erase                                  0x0002570c   Section        0  nrf_fstorage_sd.o(i.erase)
    erase                                    0x0002570d   Thumb Code    72  nrf_fstorage_sd.o(i.erase)
    i.erase_cmd                              0x00025758   Section        0  cli.o(i.erase_cmd)
    erase_cmd                                0x00025759   Thumb Code   104  cli.o(i.erase_cmd)
    i.event_send                             0x000257e8   Section        0  nrf_fstorage_sd.o(i.event_send)
    event_send                               0x000257e9   Thumb Code    78  nrf_fstorage_sd.o(i.event_send)
    i.flasharea_cmd                          0x00025838   Section        0  cli.o(i.flasharea_cmd)
    flasharea_cmd                            0x00025839   Thumb Code    58  cli.o(i.flasharea_cmd)
    i.flasharea_cmd_print                    0x00025880   Section        0  cli.o(i.flasharea_cmd_print)
    flasharea_cmd_print                      0x00025881   Thumb Code    44  cli.o(i.flasharea_cmd_print)
    i.flasharea_cmd_set                      0x000258c8   Section        0  cli.o(i.flasharea_cmd_set)
    flasharea_cmd_set                        0x000258c9   Thumb Code    86  cli.o(i.flasharea_cmd_set)
    i.format_offset_string_print             0x0002594c   Section        0  nrf_cli.o(i.format_offset_string_print)
    format_offset_string_print               0x0002594d   Thumb Code   242  nrf_cli.o(i.format_offset_string_print)
    i.fputc                                  0x00025a3e   Section        0  fputc.o(i.fputc)
    i.fstorage_evt_handler                   0x00025a50   Section        0  main.o(i.fstorage_evt_handler)
    fstorage_evt_handler                     0x00025a51   Thumb Code    74  main.o(i.fstorage_evt_handler)
    i.fstorage_read                          0x00025b10   Section        0  cli.o(i.fstorage_read)
    fstorage_read                            0x00025b11   Thumb Code   120  cli.o(i.fstorage_read)
    i.full_line_cmd                          0x00025bc0   Section        0  nrf_cli.o(i.full_line_cmd)
    full_line_cmd                            0x00025bc1   Thumb Code    38  nrf_cli.o(i.full_line_cmd)
    i.history_handle                         0x00025be8   Section        0  nrf_cli.o(i.history_handle)
    history_handle                           0x00025be9   Thumb Code   318  nrf_cli.o(i.history_handle)
    i.history_list_element_add               0x00025d2c   Section        0  nrf_cli.o(i.history_list_element_add)
    history_list_element_add                 0x00025d2d   Thumb Code   120  nrf_cli.o(i.history_list_element_add)
    i.history_list_element_oldest_remove     0x00025da4   Section        0  nrf_cli.o(i.history_list_element_oldest_remove)
    history_list_element_oldest_remove       0x00025da5   Thumb Code   104  nrf_cli.o(i.history_list_element_oldest_remove)
    i.history_save                           0x00025e0c   Section        0  nrf_cli.o(i.history_save)
    history_save                             0x00025e0d   Thumb Code   134  nrf_cli.o(i.history_save)
    i.init                                   0x00025e94   Section        0  nrf_fstorage_sd.o(i.init)
    init                                     0x00025e95   Thumb Code    48  nrf_fstorage_sd.o(i.init)
    i.int_print                              0x00025ecc   Section        0  nrf_fprintf_format.o(i.int_print)
    int_print                                0x00025ecd   Thumb Code   166  nrf_fprintf_format.o(i.int_print)
    i.interrupts_enable                      0x00025f74   Section        0  nrf_drv_uart.o(i.interrupts_enable)
    interrupts_enable                        0x00025f75   Thumb Code   106  nrf_drv_uart.o(i.interrupts_enable)
    i.is_busy                                0x00025fec   Section        0  nrf_fstorage_sd.o(i.is_busy)
    is_busy                                  0x00025fed   Thumb Code    12  nrf_fstorage_sd.o(i.is_busy)
    i.list_insertions_handler                0x00025ffc   Section        0  app_timer.o(i.list_insertions_handler)
    list_insertions_handler                  0x00025ffd   Thumb Code   234  app_timer.o(i.list_insertions_handler)
    i.log_cmd                                0x000260f4   Section        0  nrf_log_frontend.o(i.log_cmd)
    log_cmd                                  0x000260f5   Thumb Code    52  nrf_log_frontend.o(i.log_cmd)
    i.log_ctrl                               0x0002614c   Section        0  nrf_log_frontend.o(i.log_ctrl)
    log_ctrl                                 0x0002614d   Thumb Code   314  nrf_log_frontend.o(i.log_ctrl)
    i.log_go                                 0x00026324   Section        0  nrf_log_frontend.o(i.log_go)
    log_go                                   0x00026325   Thumb Code     8  nrf_log_frontend.o(i.log_go)
    i.log_halt                               0x0002632c   Section        0  nrf_log_frontend.o(i.log_halt)
    log_halt                                 0x0002632d   Thumb Code     8  nrf_log_frontend.o(i.log_halt)
    i.log_skip                               0x00026334   Section        0  nrf_log_frontend.o(i.log_skip)
    log_skip                                 0x00026335   Thumb Code   138  nrf_log_frontend.o(i.log_skip)
    i.log_status                             0x000263c8   Section        0  nrf_log_frontend.o(i.log_status)
    log_status                               0x000263c9   Thumb Code   152  nrf_log_frontend.o(i.log_status)
    i.main                                   0x000264f0   Section        0  main.o(i.main)
    i.make_argv                              0x0002681c   Section        0  nrf_cli.o(i.make_argv)
    make_argv                                0x0002681d   Thumb Code   346  nrf_cli.o(i.make_argv)
    i.memobj_op                              0x00026976   Section        0  nrf_memobj.o(i.memobj_op)
    memobj_op                                0x00026977   Thumb Code   118  nrf_memobj.o(i.memobj_op)
    i.module_id_filter_set                   0x000269ec   Section        0  nrf_log_frontend.o(i.module_id_filter_set)
    module_id_filter_set                     0x000269ed   Thumb Code    38  nrf_log_frontend.o(i.module_id_filter_set)
    i.module_idx_get                         0x00026a14   Section        0  nrf_log_frontend.o(i.module_idx_get)
    module_idx_get                           0x00026a15   Thumb Code    48  nrf_log_frontend.o(i.module_idx_get)
    i.module_name_get                        0x00026a48   Section        0  nrf_log_frontend.o(i.module_name_get)
    module_name_get                          0x00026a49   Thumb Code    24  nrf_log_frontend.o(i.module_name_get)
    i.multiline_console_data_check           0x00026a64   Section        0  nrf_cli.o(i.multiline_console_data_check)
    multiline_console_data_check             0x00026a65   Thumb Code    80  nrf_cli.o(i.multiline_console_data_check)
    i.nrf_atfifo_clear                       0x00026ab4   Section        0  nrf_atfifo.o(i.nrf_atfifo_clear)
    i.nrf_atfifo_init                        0x00026ac4   Section        0  nrf_atfifo.o(i.nrf_atfifo_init)
    i.nrf_atfifo_item_alloc                  0x00026aea   Section        0  nrf_atfifo.o(i.nrf_atfifo_item_alloc)
    i.nrf_atfifo_item_free                   0x00026b00   Section        0  nrf_atfifo.o(i.nrf_atfifo_item_free)
    i.nrf_atfifo_item_get                    0x00026b16   Section        0  nrf_atfifo.o(i.nrf_atfifo_item_get)
    i.nrf_atfifo_item_put                    0x00026b2c   Section        0  nrf_atfifo.o(i.nrf_atfifo_item_put)
    i.nrf_atomic_flag_clear                  0x00026b42   Section        0  nrf_ringbuf.o(i.nrf_atomic_flag_clear)
    nrf_atomic_flag_clear                    0x00026b43   Thumb Code    14  nrf_ringbuf.o(i.nrf_atomic_flag_clear)
    i.nrf_atomic_flag_set                    0x00026b50   Section        0  nrf_log_frontend.o(i.nrf_atomic_flag_set)
    nrf_atomic_flag_set                      0x00026b51   Thumb Code    14  nrf_log_frontend.o(i.nrf_atomic_flag_set)
    i.nrf_atomic_flag_set_fetch              0x00026b5e   Section        0  nrf_ringbuf.o(i.nrf_atomic_flag_set_fetch)
    nrf_atomic_flag_set_fetch                0x00026b5f   Thumb Code    12  nrf_ringbuf.o(i.nrf_atomic_flag_set_fetch)
    i.nrf_balloc_alloc                       0x00026b6a   Section        0  nrf_balloc.o(i.nrf_balloc_alloc)
    i.nrf_balloc_free                        0x00026bae   Section        0  nrf_balloc.o(i.nrf_balloc_free)
    i.nrf_balloc_init                        0x00026bde   Section        0  nrf_balloc.o(i.nrf_balloc_init)
    i.nrf_cli_build_in_cmd_common_executed   0x00026c10   Section        0  nrf_cli.o(i.nrf_cli_build_in_cmd_common_executed)
    nrf_cli_build_in_cmd_common_executed     0x00026c11   Thumb Code    48  nrf_cli.o(i.nrf_cli_build_in_cmd_common_executed)
    i.nrf_cli_cmd_clear                      0x00026c5c   Section        0  nrf_cli.o(i.nrf_cli_cmd_clear)
    nrf_cli_cmd_clear                        0x00026c5d   Thumb Code    60  nrf_cli.o(i.nrf_cli_cmd_clear)
    i.nrf_cli_cmd_cli_stats                  0x00026ca0   Section        0  nrf_cli.o(i.nrf_cli_cmd_cli_stats)
    i.nrf_cli_cmd_cli_stats_get              0x00026cf8   Section        0  nrf_cli.o(i.nrf_cli_cmd_cli_stats_get)
    i.nrf_cli_cmd_cli_stats_reset            0x00026d84   Section        0  nrf_cli.o(i.nrf_cli_cmd_cli_stats_reset)
    i.nrf_cli_cmd_colors                     0x00026db4   Section        0  nrf_cli.o(i.nrf_cli_cmd_colors)
    nrf_cli_cmd_colors                       0x00026db5   Thumb Code    68  nrf_cli.o(i.nrf_cli_cmd_colors)
    i.nrf_cli_cmd_colors_off                 0x00026e08   Section        0  nrf_cli.o(i.nrf_cli_cmd_colors_off)
    nrf_cli_cmd_colors_off                   0x00026e09   Thumb Code    42  nrf_cli.o(i.nrf_cli_cmd_colors_off)
    i.nrf_cli_cmd_colors_on                  0x00026e32   Section        0  nrf_cli.o(i.nrf_cli_cmd_colors_on)
    nrf_cli_cmd_colors_on                    0x00026e33   Thumb Code    42  nrf_cli.o(i.nrf_cli_cmd_colors_on)
    i.nrf_cli_cmd_echo                       0x00026e5c   Section        0  nrf_cli.o(i.nrf_cli_cmd_echo)
    nrf_cli_cmd_echo                         0x00026e5d   Thumb Code    88  nrf_cli.o(i.nrf_cli_cmd_echo)
    i.nrf_cli_cmd_echo_off                   0x00026ee0   Section        0  nrf_cli.o(i.nrf_cli_cmd_echo_off)
    nrf_cli_cmd_echo_off                     0x00026ee1   Thumb Code    42  nrf_cli.o(i.nrf_cli_cmd_echo_off)
    i.nrf_cli_cmd_echo_on                    0x00026f0a   Section        0  nrf_cli.o(i.nrf_cli_cmd_echo_on)
    nrf_cli_cmd_echo_on                      0x00026f0b   Thumb Code    42  nrf_cli.o(i.nrf_cli_cmd_echo_on)
    i.nrf_cli_cmd_history                    0x00026f34   Section        0  nrf_cli.o(i.nrf_cli_cmd_history)
    nrf_cli_cmd_history                      0x00026f35   Thumb Code   108  nrf_cli.o(i.nrf_cli_cmd_history)
    i.nrf_cli_cmd_resize                     0x00026fac   Section        0  nrf_cli.o(i.nrf_cli_cmd_resize)
    nrf_cli_cmd_resize                       0x00026fad   Thumb Code    98  nrf_cli.o(i.nrf_cli_cmd_resize)
    i.nrf_cli_cmd_resize_default             0x00027060   Section        0  nrf_cli.o(i.nrf_cli_cmd_resize_default)
    nrf_cli_cmd_resize_default               0x00027061   Thumb Code    50  nrf_cli.o(i.nrf_cli_cmd_resize_default)
    i.nrf_cli_fprintf                        0x0002709c   Section        0  nrf_cli.o(i.nrf_cli_fprintf)
    i.nrf_cli_help_print                     0x000270ec   Section        0  nrf_cli.o(i.nrf_cli_help_print)
    i.nrf_cli_help_requested                 0x00027374   Section        0  cli.o(i.nrf_cli_help_requested)
    nrf_cli_help_requested                   0x00027375   Thumb Code    12  cli.o(i.nrf_cli_help_requested)
    i.nrf_cli_init                           0x00027380   Section        0  nrf_cli.o(i.nrf_cli_init)
    i.nrf_cli_instance_init                  0x000273b0   Section        0  nrf_cli.o(i.nrf_cli_instance_init)
    nrf_cli_instance_init                    0x000273b1   Thumb Code   158  nrf_cli.o(i.nrf_cli_instance_init)
    i.nrf_cli_print_stream                   0x00027464   Section        0  nrf_cli.o(i.nrf_cli_print_stream)
    i.nrf_cli_process                        0x0002746c   Section        0  nrf_cli.o(i.nrf_cli_process)
    i.nrf_cli_start                          0x000274bc   Section        0  nrf_cli.o(i.nrf_cli_start)
    i.nrf_delay_us                           0x00027504   Section        0  app_timer.o(i.nrf_delay_us)
    nrf_delay_us                             0x00027505   Thumb Code   132  app_timer.o(i.nrf_delay_us)
    i.nrf_delay_us                           0x00027590   Section        0  nrf_cli.o(i.nrf_delay_us)
    nrf_delay_us                             0x00027591   Thumb Code   132  nrf_cli.o(i.nrf_delay_us)
    i.nrf_drv_common_irq_disable             0x0002761c   Section        0  nrf_drv_uart.o(i.nrf_drv_common_irq_disable)
    nrf_drv_common_irq_disable               0x0002761d   Thumb Code    22  nrf_drv_uart.o(i.nrf_drv_common_irq_disable)
    i.nrf_drv_common_irq_enable              0x00027632   Section        0  nrf_drv_common.o(i.nrf_drv_common_irq_enable)
    i.nrf_drv_get_IRQn                       0x0002766a   Section        0  nrf_drv_uart.o(i.nrf_drv_get_IRQn)
    nrf_drv_get_IRQn                         0x0002766b   Thumb Code     6  nrf_drv_uart.o(i.nrf_drv_get_IRQn)
    i.nrf_drv_is_in_RAM                      0x00027670   Section        0  nrf_drv_uart.o(i.nrf_drv_is_in_RAM)
    nrf_drv_is_in_RAM                        0x00027671   Thumb Code    16  nrf_drv_uart.o(i.nrf_drv_is_in_RAM)
    i.nrf_drv_uart_init                      0x00027680   Section        0  nrf_drv_uart.o(i.nrf_drv_uart_init)
    i.nrf_drv_uart_rx                        0x000276e8   Section        0  nrf_drv_uart.o(i.nrf_drv_uart_rx)
    i.nrf_drv_uart_rx_abort                  0x00027798   Section        0  nrf_drv_uart.o(i.nrf_drv_uart_rx_abort)
    i.nrf_drv_uart_rx_for_uart               0x000277c0   Section        0  nrf_drv_uart.o(i.nrf_drv_uart_rx_for_uart)
    nrf_drv_uart_rx_for_uart                 0x000277c1   Thumb Code   162  nrf_drv_uart.o(i.nrf_drv_uart_rx_for_uart)
    i.nrf_drv_uart_rx_for_uarte              0x00027868   Section        0  nrf_drv_uart.o(i.nrf_drv_uart_rx_for_uarte)
    nrf_drv_uart_rx_for_uarte                0x00027869   Thumb Code   172  nrf_drv_uart.o(i.nrf_drv_uart_rx_for_uarte)
    i.nrf_drv_uart_tx                        0x00027918   Section        0  nrf_drv_uart.o(i.nrf_drv_uart_tx)
    i.nrf_drv_uart_tx_in_progress            0x00027a24   Section        0  nrf_drv_uart.o(i.nrf_drv_uart_tx_in_progress)
    i.nrf_drv_uart_uninit                    0x00027a3c   Section        0  nrf_drv_uart.o(i.nrf_drv_uart_uninit)
    i.nrf_fprintf                            0x00027a90   Section        0  nrf_fprintf.o(i.nrf_fprintf)
    i.nrf_fprintf_buffer_flush               0x00027aaa   Section        0  nrf_fprintf.o(i.nrf_fprintf_buffer_flush)
    i.nrf_fprintf_fmt                        0x00027ac2   Section        0  nrf_fprintf_format.o(i.nrf_fprintf_fmt)
    i.nrf_fstorage_erase                     0x00027c9c   Section        0  nrf_fstorage.o(i.nrf_fstorage_erase)
    i.nrf_fstorage_init                      0x00027cea   Section        0  nrf_fstorage.o(i.nrf_fstorage_init)
    i.nrf_fstorage_is_busy                   0x00027cfc   Section        0  nrf_fstorage.o(i.nrf_fstorage_is_busy)
    i.nrf_fstorage_read                      0x00027d4c   Section        0  nrf_fstorage.o(i.nrf_fstorage_read)
    i.nrf_fstorage_sdh_req_handler           0x00027d9c   Section        0  nrf_fstorage_sd.o(i.nrf_fstorage_sdh_req_handler)
    i.nrf_fstorage_sdh_state_handler         0x00027db4   Section        0  nrf_fstorage_sd.o(i.nrf_fstorage_sdh_state_handler)
    i.nrf_fstorage_sys_evt_handler           0x00027dd4   Section        0  nrf_fstorage_sd.o(i.nrf_fstorage_sys_evt_handler)
    i.nrf_fstorage_write                     0x00027e78   Section        0  nrf_fstorage.o(i.nrf_fstorage_write)
    i.nrf_gpio_cfg                           0x00027ede   Section        0  nrf_drv_uart.o(i.nrf_gpio_cfg)
    nrf_gpio_cfg                             0x00027edf   Thumb Code    36  nrf_drv_uart.o(i.nrf_gpio_cfg)
    i.nrf_gpio_cfg_default                   0x00027f02   Section        0  nrf_drv_uart.o(i.nrf_gpio_cfg_default)
    nrf_gpio_cfg_default                     0x00027f03   Thumb Code    18  nrf_drv_uart.o(i.nrf_gpio_cfg_default)
    i.nrf_gpio_cfg_input                     0x00027f14   Section        0  nrf_drv_uart.o(i.nrf_gpio_cfg_input)
    nrf_gpio_cfg_input                       0x00027f15   Thumb Code    18  nrf_drv_uart.o(i.nrf_gpio_cfg_input)
    i.nrf_gpio_cfg_output                    0x00027f26   Section        0  nrf_drv_uart.o(i.nrf_gpio_cfg_output)
    nrf_gpio_cfg_output                      0x00027f27   Thumb Code    20  nrf_drv_uart.o(i.nrf_gpio_cfg_output)
    i.nrf_log_backend_add                    0x00027f3c   Section        0  nrf_log_frontend.o(i.nrf_log_backend_add)
    i.nrf_log_backend_cli_flush              0x00027fbc   Section        0  nrf_cli.o(i.nrf_log_backend_cli_flush)
    nrf_log_backend_cli_flush                0x00027fbd   Thumb Code     2  nrf_cli.o(i.nrf_log_backend_cli_flush)
    i.nrf_log_backend_cli_panic_set          0x00027fbe   Section        0  nrf_cli.o(i.nrf_log_backend_cli_panic_set)
    nrf_log_backend_cli_panic_set            0x00027fbf   Thumb Code    28  nrf_cli.o(i.nrf_log_backend_cli_panic_set)
    i.nrf_log_backend_cli_put                0x00027fda   Section        0  nrf_cli.o(i.nrf_log_backend_cli_put)
    nrf_log_backend_cli_put                  0x00027fdb   Thumb Code    82  nrf_cli.o(i.nrf_log_backend_cli_put)
    i.nrf_log_color_id_get                   0x0002802c   Section        0  nrf_log_frontend.o(i.nrf_log_color_id_get)
    i.nrf_log_frontend_dequeue               0x0002805c   Section        0  nrf_log_frontend.o(i.nrf_log_frontend_dequeue)
    i.nrf_log_frontend_std_0                 0x00028274   Section        0  nrf_log_frontend.o(i.nrf_log_frontend_std_0)
    i.nrf_log_frontend_std_1                 0x0002827c   Section        0  nrf_log_frontend.o(i.nrf_log_frontend_std_1)
    i.nrf_log_frontend_std_2                 0x0002828a   Section        0  nrf_log_frontend.o(i.nrf_log_frontend_std_2)
    i.nrf_log_hexdump_entry_process          0x0002829c   Section        0  nrf_log_str_formatter.o(i.nrf_log_hexdump_entry_process)
    i.nrf_log_init                           0x00028348   Section        0  nrf_log_frontend.o(i.nrf_log_init)
    i.nrf_log_module_cnt_get                 0x000283d8   Section        0  nrf_log_frontend.o(i.nrf_log_module_cnt_get)
    i.nrf_log_module_filter_get              0x000283ec   Section        0  nrf_log_frontend.o(i.nrf_log_module_filter_get)
    i.nrf_log_module_filter_set              0x00028438   Section        0  nrf_log_frontend.o(i.nrf_log_module_filter_set)
    i.nrf_log_module_name_get                0x0002847c   Section        0  nrf_log_frontend.o(i.nrf_log_module_name_get)
    i.nrf_log_panic                          0x00028498   Section        0  nrf_log_frontend.o(i.nrf_log_panic)
    i.nrf_log_std_entry_process              0x000284c0   Section        0  nrf_log_str_formatter.o(i.nrf_log_std_entry_process)
    i.nrf_memobj_alloc                       0x00028576   Section        0  nrf_memobj.o(i.nrf_memobj_alloc)
    i.nrf_memobj_free                        0x000285d6   Section        0  nrf_memobj.o(i.nrf_memobj_free)
    i.nrf_memobj_get                         0x00028608   Section        0  nrf_memobj.o(i.nrf_memobj_get)
    i.nrf_memobj_pool_init                   0x00028616   Section        0  nrf_memobj.o(i.nrf_memobj_pool_init)
    i.nrf_memobj_put                         0x0002861a   Section        0  nrf_memobj.o(i.nrf_memobj_put)
    i.nrf_memobj_read                        0x0002863c   Section        0  nrf_memobj.o(i.nrf_memobj_read)
    i.nrf_memobj_write                       0x00028648   Section        0  nrf_memobj.o(i.nrf_memobj_write)
    i.nrf_queue_generic_pop                  0x00028654   Section        0  nrf_queue.o(i.nrf_queue_generic_pop)
    i.nrf_queue_is_empty                     0x000286e2   Section        0  nrf_queue.o(i.nrf_queue_is_empty)
    i.nrf_queue_is_full                      0x000286f4   Section        0  nrf_queue.o(i.nrf_queue_is_full)
    i.nrf_queue_max_utilization_get          0x00028712   Section        0  nrf_queue.o(i.nrf_queue_max_utilization_get)
    i.nrf_queue_max_utilization_reset        0x00028718   Section        0  nrf_queue.o(i.nrf_queue_max_utilization_reset)
    i.nrf_queue_next_idx                     0x00028720   Section        0  nrf_queue.o(i.nrf_queue_next_idx)
    nrf_queue_next_idx                       0x00028721   Thumb Code    14  nrf_queue.o(i.nrf_queue_next_idx)
    i.nrf_queue_push                         0x0002872e   Section        0  nrf_queue.o(i.nrf_queue_push)
    i.nrf_ringbuf_alloc                      0x000287e0   Section        0  nrf_ringbuf.o(i.nrf_ringbuf_alloc)
    i.nrf_ringbuf_cpy_get                    0x0002884e   Section        0  nrf_ringbuf.o(i.nrf_ringbuf_cpy_get)
    i.nrf_ringbuf_cpy_put                    0x000288ca   Section        0  nrf_ringbuf.o(i.nrf_ringbuf_cpy_put)
    i.nrf_ringbuf_free                       0x0002893c   Section        0  nrf_ringbuf.o(i.nrf_ringbuf_free)
    i.nrf_ringbuf_get                        0x00028962   Section        0  nrf_ringbuf.o(i.nrf_ringbuf_get)
    i.nrf_ringbuf_init                       0x000289d2   Section        0  nrf_ringbuf.o(i.nrf_ringbuf_init)
    i.nrf_ringbuf_put                        0x000289ee   Section        0  nrf_ringbuf.o(i.nrf_ringbuf_put)
    i.nrf_sdh_ble_app_ram_start_get          0x00028a24   Section        0  nrf_sdh_ble.o(i.nrf_sdh_ble_app_ram_start_get)
    i.nrf_sdh_ble_default_cfg_set            0x00028a38   Section        0  nrf_sdh_ble.o(i.nrf_sdh_ble_default_cfg_set)
    i.nrf_sdh_ble_enable                     0x00028b50   Section        0  nrf_sdh_ble.o(i.nrf_sdh_ble_enable)
    i.nrf_sdh_ble_evts_poll                  0x00028c30   Section        0  nrf_sdh_ble.o(i.nrf_sdh_ble_evts_poll)
    nrf_sdh_ble_evts_poll                    0x00028c31   Thumb Code    74  nrf_sdh_ble.o(i.nrf_sdh_ble_evts_poll)
    i.nrf_sdh_disable_request                0x00028c80   Section        0  nrf_sdh.o(i.nrf_sdh_disable_request)
    i.nrf_sdh_enable_request                 0x00028cbc   Section        0  nrf_sdh.o(i.nrf_sdh_enable_request)
    i.nrf_sdh_evts_poll                      0x00028d28   Section        0  nrf_sdh.o(i.nrf_sdh_evts_poll)
    i.nrf_sdh_is_enabled                     0x00028d4c   Section        0  nrf_sdh.o(i.nrf_sdh_is_enabled)
    i.nrf_sdh_request_continue               0x00028d58   Section        0  nrf_sdh.o(i.nrf_sdh_request_continue)
    i.nrf_sdh_soc_evts_poll                  0x00028d74   Section        0  nrf_sdh_soc.o(i.nrf_sdh_soc_evts_poll)
    nrf_sdh_soc_evts_poll                    0x00028d75   Thumb Code    56  nrf_sdh_soc.o(i.nrf_sdh_soc_evts_poll)
    i.nrf_section_iter_init                  0x00028db0   Section        0  nrf_section_iter.o(i.nrf_section_iter_init)
    i.nrf_section_iter_item_set              0x00028dba   Section        0  nrf_section_iter.o(i.nrf_section_iter_item_set)
    nrf_section_iter_item_set                0x00028dbb   Thumb Code    36  nrf_section_iter.o(i.nrf_section_iter_item_set)
    i.nrf_section_iter_next                  0x00028dde   Section        0  nrf_section_iter.o(i.nrf_section_iter_next)
    i.nrf_strerror_find                      0x00028e00   Section        0  nrf_strerror.o(i.nrf_strerror_find)
    i.nrf_strerror_get                       0x00028e38   Section        0  nrf_strerror.o(i.nrf_strerror_get)
    i.nrf_uart_event_check                   0x00028e4c   Section        0  nrf_drv_uart.o(i.nrf_uart_event_check)
    nrf_uart_event_check                     0x00028e4d   Thumb Code    10  nrf_drv_uart.o(i.nrf_uart_event_check)
    i.nrf_uart_event_clear                   0x00028e56   Section        0  nrf_drv_uart.o(i.nrf_uart_event_clear)
    nrf_uart_event_clear                     0x00028e57   Thumb Code    12  nrf_drv_uart.o(i.nrf_uart_event_clear)
    i.nrf_uart_int_enable_check              0x00028e62   Section        0  nrf_drv_uart.o(i.nrf_uart_int_enable_check)
    nrf_uart_int_enable_check                0x00028e63   Thumb Code    12  nrf_drv_uart.o(i.nrf_uart_int_enable_check)
    i.nrf_uarte_event_check                  0x00028e6e   Section        0  nrf_drv_uart.o(i.nrf_uarte_event_check)
    nrf_uarte_event_check                    0x00028e6f   Thumb Code    10  nrf_drv_uart.o(i.nrf_uarte_event_check)
    i.nrf_uarte_event_clear                  0x00028e78   Section        0  nrf_drv_uart.o(i.nrf_uarte_event_clear)
    nrf_uarte_event_clear                    0x00028e79   Thumb Code    12  nrf_drv_uart.o(i.nrf_uarte_event_clear)
    i.option_print                           0x00028e84   Section        0  nrf_cli.o(i.option_print)
    option_print                             0x00028e85   Thumb Code   128  nrf_cli.o(i.option_print)
    i.pins_to_default                        0x00028f14   Section        0  nrf_drv_uart.o(i.pins_to_default)
    pins_to_default                          0x00028f15   Thumb Code   114  nrf_drv_uart.o(i.pins_to_default)
    i.postfix_process                        0x00028f8c   Section        0  nrf_log_str_formatter.o(i.postfix_process)
    postfix_process                          0x00028f8d   Thumb Code    48  nrf_log_str_formatter.o(i.postfix_process)
    i.prefix_process                         0x00028fc8   Section        0  nrf_log_str_formatter.o(i.prefix_process)
    prefix_process                           0x00028fc9   Thumb Code    72  nrf_log_str_formatter.o(i.prefix_process)
    i.print_flash_info                       0x00029024   Section        0  main.o(i.print_flash_info)
    print_flash_info                         0x00029025   Thumb Code    94  main.o(i.print_flash_info)
    i.queue_process                          0x000290f8   Section        0  nrf_fstorage_sd.o(i.queue_process)
    queue_process                            0x000290f9   Thumb Code   140  nrf_fstorage_sd.o(i.queue_process)
    i.queue_start                            0x00029190   Section        0  nrf_fstorage_sd.o(i.queue_start)
    queue_start                              0x00029191   Thumb Code    36  nrf_fstorage_sd.o(i.queue_start)
    i.queue_utilization_get                  0x000291b8   Section        0  nrf_queue.o(i.queue_utilization_get)
    queue_utilization_get                    0x000291b9   Thumb Code    24  nrf_queue.o(i.queue_utilization_get)
    i.ram_end_address_get                    0x000291d0   Section        0  nrf_sdh_ble.o(i.ram_end_address_get)
    ram_end_address_get                      0x000291d1   Thumb Code    16  nrf_sdh_ble.o(i.ram_end_address_get)
    i.read                                   0x000291e0   Section        0  nrf_fstorage_sd.o(i.read)
    read                                     0x000291e1   Thumb Code    14  nrf_fstorage_sd.o(i.read)
    i.read_cmd                               0x000291f0   Section        0  cli.o(i.read_cmd)
    read_cmd                                 0x000291f1   Thumb Code    58  cli.o(i.read_cmd)
    i.read_cmd_hex                           0x00029234   Section        0  cli.o(i.read_cmd_hex)
    read_cmd_hex                             0x00029235   Thumb Code    82  cli.o(i.read_cmd_hex)
    i.read_cmd_str                           0x00029294   Section        0  cli.o(i.read_cmd_str)
    read_cmd_str                             0x00029295   Thumb Code    82  cli.o(i.read_cmd_str)
    i.rmap                                   0x000292f4   Section        0  nrf_fstorage_sd.o(i.rmap)
    rmap                                     0x000292f5   Thumb Code     4  nrf_fstorage_sd.o(i.rmap)
    i.rtc1_stop                              0x000292f8   Section        0  app_timer.o(i.rtc1_stop)
    rtc1_stop                                0x000292f9   Thumb Code    52  app_timer.o(i.rtc1_stop)
    i.rx_byte                                0x00029334   Section        0  nrf_drv_uart.o(i.rx_byte)
    rx_byte                                  0x00029335   Thumb Code    50  nrf_drv_uart.o(i.rx_byte)
    i.rx_done_event                          0x00029366   Section        0  nrf_drv_uart.o(i.rx_done_event)
    rx_done_event                            0x00029367   Thumb Code    24  nrf_drv_uart.o(i.rx_done_event)
    i.rx_enable                              0x0002937e   Section        0  nrf_drv_uart.o(i.rx_enable)
    rx_enable                                0x0002937f   Thumb Code    32  nrf_drv_uart.o(i.rx_enable)
    i.rx_try                                 0x0002939e   Section        0  nrf_cli_uart.o(i.rx_try)
    rx_try                                   0x0002939f   Thumb Code    60  nrf_cli_uart.o(i.rx_try)
    i.sd_nvic_SetPriority                    0x000293da   Section        0  nrf_sdh.o(i.sd_nvic_SetPriority)
    sd_nvic_SetPriority                      0x000293db   Thumb Code    66  nrf_sdh.o(i.sd_nvic_SetPriority)
    i.sdh_request_observer_notify            0x0002941c   Section        0  nrf_sdh.o(i.sdh_request_observer_notify)
    sdh_request_observer_notify              0x0002941d   Thumb Code    44  nrf_sdh.o(i.sdh_request_observer_notify)
    i.sdh_state_observer_notify              0x0002944c   Section        0  nrf_sdh.o(i.sdh_state_observer_notify)
    sdh_state_observer_notify                0x0002944d   Thumb Code    38  nrf_sdh.o(i.sdh_state_observer_notify)
    i.severity_lvl_get                       0x00029478   Section        0  nrf_log_frontend.o(i.severity_lvl_get)
    severity_lvl_get                         0x00029479   Thumb Code    28  nrf_log_frontend.o(i.severity_lvl_get)
    i.softdevice_evt_irq_disable             0x0002949c   Section        0  nrf_sdh.o(i.softdevice_evt_irq_disable)
    softdevice_evt_irq_disable               0x0002949d   Thumb Code    52  nrf_sdh.o(i.softdevice_evt_irq_disable)
    i.softdevices_evt_irq_enable             0x000294d4   Section        0  nrf_sdh.o(i.softdevices_evt_irq_enable)
    softdevices_evt_irq_enable               0x000294d5   Thumb Code    72  nrf_sdh.o(i.softdevices_evt_irq_enable)
    i.std_n                                  0x00029524   Section        0  nrf_log_frontend.o(i.std_n)
    std_n                                    0x00029525   Thumb Code   140  nrf_log_frontend.o(i.std_n)
    i.string_cmp                             0x000295b4   Section        0  nrf_cli.o(i.string_cmp)
    string_cmp                               0x000295b5   Thumb Code     8  nrf_cli.o(i.string_cmp)
    i.terminal_size_get                      0x000295bc   Section        0  nrf_cli.o(i.terminal_size_get)
    terminal_size_get                        0x000295bd   Thumb Code    96  nrf_cli.o(i.terminal_size_get)
    i.timer_handler                          0x0002961c   Section        0  nrf_cli_uart.o(i.timer_handler)
    timer_handler                            0x0002961d   Thumb Code     6  nrf_cli_uart.o(i.timer_handler)
    i.timer_list_handler                     0x00029624   Section        0  app_timer.o(i.timer_list_handler)
    timer_list_handler                       0x00029625   Thumb Code   122  app_timer.o(i.timer_list_handler)
    i.timer_list_insert                      0x000296a4   Section        0  app_timer.o(i.timer_list_insert)
    timer_list_insert                        0x000296a5   Thumb Code    56  app_timer.o(i.timer_list_insert)
    i.timer_list_remove                      0x000296e0   Section        0  app_timer.o(i.timer_list_remove)
    timer_list_remove                        0x000296e1   Thumb Code    88  app_timer.o(i.timer_list_remove)
    i.timer_stop_op_schedule                 0x00029740   Section        0  app_timer.o(i.timer_stop_op_schedule)
    timer_stop_op_schedule                   0x00029741   Thumb Code    68  app_timer.o(i.timer_stop_op_schedule)
    i.timer_timeouts_check                   0x00029788   Section        0  app_timer.o(i.timer_timeouts_check)
    timer_timeouts_check                     0x00029789   Thumb Code   106  app_timer.o(i.timer_timeouts_check)
    i.tx_byte                                0x000297fc   Section        0  nrf_drv_uart.o(i.tx_byte)
    tx_byte                                  0x000297fd   Thumb Code    32  nrf_drv_uart.o(i.tx_byte)
    i.tx_done_event                          0x0002981c   Section        0  nrf_drv_uart.o(i.tx_done_event)
    tx_done_event                            0x0002981d   Thumb Code    28  nrf_drv_uart.o(i.tx_done_event)
    i.uart_event_handler                     0x00029838   Section        0  nrf_cli_uart.o(i.uart_event_handler)
    uart_event_handler                       0x00029839   Thumb Code   110  nrf_cli_uart.o(i.uart_event_handler)
    i.uart_irq_handler                       0x000298a6   Section        0  nrf_drv_uart.o(i.uart_irq_handler)
    uart_irq_handler                         0x000298a7   Thumb Code   286  nrf_drv_uart.o(i.uart_irq_handler)
    i.uarte_irq_handler                      0x000299c4   Section        0  nrf_drv_uart.o(i.uarte_irq_handler)
    uarte_irq_handler                        0x000299c5   Thumb Code   240  nrf_drv_uart.o(i.uarte_irq_handler)
    i.uninit                                 0x00029ab4   Section        0  nrf_fstorage_sd.o(i.uninit)
    uninit                                   0x00029ab5   Thumb Code    22  nrf_fstorage_sd.o(i.uninit)
    i.unsigned_print                         0x00029ad4   Section        0  nrf_fprintf_format.o(i.unsigned_print)
    unsigned_print                           0x00029ad5   Thumb Code   176  nrf_fprintf_format.o(i.unsigned_print)
    i.user_op_alloc                          0x00029b88   Section        0  app_timer.o(i.user_op_alloc)
    user_op_alloc                            0x00029b89   Thumb Code    42  app_timer.o(i.user_op_alloc)
    i.vt100_bgcolor_set                      0x00029bb8   Section        0  nrf_cli.o(i.vt100_bgcolor_set)
    vt100_bgcolor_set                        0x00029bb9   Thumb Code    48  nrf_cli.o(i.vt100_bgcolor_set)
    i.vt100_color_set                        0x00029bf4   Section        0  nrf_cli.o(i.vt100_color_set)
    vt100_color_set                          0x00029bf5   Thumb Code    64  nrf_cli.o(i.vt100_color_set)
    i.wait_for_flash_ready                   0x00029c44   Section        0  main.o(i.wait_for_flash_ready)
    i.wmap                                   0x00029c58   Section        0  nrf_fstorage_sd.o(i.wmap)
    wmap                                     0x00029c59   Thumb Code     4  nrf_fstorage_sd.o(i.wmap)
    i.write                                  0x00029c5c   Section        0  nrf_fstorage_sd.o(i.write)
    write                                    0x00029c5d   Thumb Code    74  nrf_fstorage_sd.o(i.write)
    i.write_cmd                              0x00029cac   Section        0  cli.o(i.write_cmd)
    write_cmd                                0x00029cad   Thumb Code   172  cli.o(i.write_cmd)
    .constdata                               0x00029d8c   Section        4  cli.o(.constdata)
    cli_uart_timer                           0x00029d8c   Data           4  cli.o(.constdata)
    .constdata                               0x00029d90   Section       12  cli.o(.constdata)
    cli_uart_tx_ringbuf                      0x00029d90   Data          12  cli.o(.constdata)
    .constdata                               0x00029d9c   Section       12  cli.o(.constdata)
    cli_uart_rx_ringbuf                      0x00029d9c   Data          12  cli.o(.constdata)
    .constdata                               0x00029da8   Section        8  cli.o(.constdata)
    cli_uart_uart                            0x00029da8   Data           8  cli.o(.constdata)
    .constdata                               0x00029db0   Section       24  cli.o(.constdata)
    cli_uart                                 0x00029db0   Data          24  cli.o(.constdata)
    .constdata                               0x00029dc8   Section       20  cli.o(.constdata)
    m_cli_uart_log_backend_queue             0x00029dc8   Data          20  cli.o(.constdata)
    .constdata                               0x00029ddc   Section       20  cli.o(.constdata)
    m_cli_uart_cmd_hist_memobj               0x00029ddc   Data          20  cli.o(.constdata)
    .constdata                               0x00029df0   Section       60  cli.o(.constdata)
    m_cli_uart                               0x00029df0   Data          28  cli.o(.constdata)
    .constdata                               0x00029e2c   Section        8  cli.o(.constdata)
    m_read_cmd                               0x00029e2c   Data           8  cli.o(.constdata)
    .constdata                               0x00029e34   Section       48  cli.o(.constdata)
    m_read_cmd_raw                           0x00029e34   Data          48  cli.o(.constdata)
    .constdata                               0x00029e64   Section        8  cli.o(.constdata)
    m_flasharea_cmd                          0x00029e64   Data           8  cli.o(.constdata)
    .constdata                               0x00029e6c   Section       48  cli.o(.constdata)
    m_flasharea_cmd_raw                      0x00029e6c   Data          48  cli.o(.constdata)
    .constdata                               0x00029e9c   Section       16  cli.o(.constdata)
    .constdata                               0x00029eac   Section       16  cli.o(.constdata)
    .constdata                               0x00029ebc   Section       16  cli.o(.constdata)
    .constdata                               0x00029ecc   Section       16  cli.o(.constdata)
    .constdata                               0x00029edc   Section      104  nrf_cli.o(.constdata)
    cmd                                      0x00029edc   Data           3  nrf_cli.o(.constdata)
    cmd                                      0x00029edf   Data           3  nrf_cli.o(.constdata)
    cmd                                      0x00029ee2   Data           3  nrf_cli.o(.constdata)
    opt_sep                                  0x00029ee5   Data           3  nrf_cli.o(.constdata)
    cmd                                      0x00029ee8   Data           4  nrf_cli.o(.constdata)
    cmd                                      0x00029eec   Data           4  nrf_cli.o(.constdata)
    cmd_bspace                               0x00029ef0   Data           4  nrf_cli.o(.constdata)
    cmd                                      0x00029ef4   Data           4  nrf_cli.o(.constdata)
    cmd_sep                                  0x00029ef8   Data           4  nrf_cli.o(.constdata)
    cmd                                      0x00029efc   Data           4  nrf_cli.o(.constdata)
    cmd_get_terminal_size                    0x00029f00   Data           5  nrf_cli.o(.constdata)
    cmd                                      0x00029f05   Data           5  nrf_cli.o(.constdata)
    cmd                                      0x00029f0a   Data           6  nrf_cli.o(.constdata)
    m_nrf_cli_uknown_parameter               0x00029f10   Data          21  nrf_cli.o(.constdata)
    m_nrf_cli_command_not_found              0x00029f25   Data          20  nrf_cli.o(.constdata)
    help                                     0x00029f39   Data          11  nrf_cli.o(.constdata)
    .constdata                               0x00029f44   Section       12  nrf_cli.o(.constdata)
    .constdata                               0x00029f50   Section       16  nrf_cli.o(.constdata)
    .constdata                               0x00029f60   Section        8  nrf_cli.o(.constdata)
    m_sub_colors                             0x00029f60   Data           8  nrf_cli.o(.constdata)
    .constdata                               0x00029f68   Section       48  nrf_cli.o(.constdata)
    m_sub_colors_raw                         0x00029f68   Data          48  nrf_cli.o(.constdata)
    .constdata                               0x00029f98   Section       16  nrf_cli.o(.constdata)
    .constdata                               0x00029fa8   Section        8  nrf_cli.o(.constdata)
    m_sub_echo                               0x00029fa8   Data           8  nrf_cli.o(.constdata)
    .constdata                               0x00029fb0   Section       48  nrf_cli.o(.constdata)
    m_sub_echo_raw                           0x00029fb0   Data          48  nrf_cli.o(.constdata)
    .constdata                               0x00029fe0   Section       16  nrf_cli.o(.constdata)
    .constdata                               0x00029ff0   Section       16  nrf_cli.o(.constdata)
    .constdata                               0x0002a000   Section        8  nrf_cli.o(.constdata)
    m_sub_resize                             0x0002a000   Data           8  nrf_cli.o(.constdata)
    .constdata                               0x0002a008   Section       32  nrf_cli.o(.constdata)
    m_sub_resize_raw                         0x0002a008   Data          32  nrf_cli.o(.constdata)
    .constdata                               0x0002a028   Section       16  nrf_cli.o(.constdata)
    .constdata                               0x0002a038   Section        8  nrf_cli.o(.constdata)
    m_sub_cli_stats                          0x0002a038   Data           8  nrf_cli.o(.constdata)
    .constdata                               0x0002a040   Section       48  nrf_cli.o(.constdata)
    m_sub_cli_stats_raw                      0x0002a040   Data          48  nrf_cli.o(.constdata)
    .constdata                               0x0002a070   Section       16  nrf_cli.o(.constdata)
    .constdata                               0x0002a080   Section       20  nrf_cli_uart.o(.constdata)
    .constdata                               0x0002a094   Section       16  nrf_fprintf_format.o(.constdata)
    _aV2C                                    0x0002a094   Data          16  nrf_fprintf_format.o(.constdata)
    .constdata                               0x0002a0a4   Section       16  nrf_fstorage_sd.o(.constdata)
    m_fifo                                   0x0002a0a4   Data           4  nrf_fstorage_sd.o(.constdata)
    m_flash_info                             0x0002a0a8   Data          12  nrf_fstorage_sd.o(.constdata)
    .constdata                               0x0002a0b4   Section       32  nrf_fstorage_sd.o(.constdata)
    .constdata                               0x0002a0d4   Section      260  nrf_strerror.o(.constdata)
    m_unknown_str                            0x0002a0d4   Data          19  nrf_strerror.o(.constdata)
    nrf_strerror_array                       0x0002a0e8   Data         240  nrf_strerror.o(.constdata)
    .constdata                               0x0002a1d8   Section       28  nrf_log_frontend.o(.constdata)
    m_module_name                            0x0002a1d8   Data           8  nrf_log_frontend.o(.constdata)
    mempool                                  0x0002a1e0   Data          20  nrf_log_frontend.o(.constdata)
    .constdata                               0x0002a1f4   Section        8  nrf_log_frontend.o(.constdata)
    m_severity_lvl                           0x0002a1f4   Data           8  nrf_log_frontend.o(.constdata)
    .constdata                               0x0002a1fc   Section        8  nrf_log_frontend.o(.constdata)
    m_sub_log_stat                           0x0002a1fc   Data           8  nrf_log_frontend.o(.constdata)
    .constdata                               0x0002a204   Section       96  nrf_log_frontend.o(.constdata)
    m_sub_log_stat_raw                       0x0002a204   Data          96  nrf_log_frontend.o(.constdata)
    .constdata                               0x0002a264   Section       16  nrf_log_frontend.o(.constdata)
    .constdata                               0x0002a274   Section       16  nrf_sdh.o(.constdata)
    sdh_req_observers_array                  0x0002a274   Data          16  nrf_sdh.o(.constdata)
    .constdata                               0x0002a284   Section       40  nrf_sdh.o(.constdata)
    sdh_req_observers                        0x0002a288   Data          12  nrf_sdh.o(.constdata)
    sdh_state_observers                      0x0002a294   Data          12  nrf_sdh.o(.constdata)
    sdh_stack_observers                      0x0002a2a0   Data          12  nrf_sdh.o(.constdata)
    .constdata                               0x0002a2ac   Section       16  nrf_sdh.o(.constdata)
    sdh_state_observers_array                0x0002a2ac   Data          16  nrf_sdh.o(.constdata)
    .constdata                               0x0002a2bc   Section       16  nrf_sdh.o(.constdata)
    sdh_stack_observers_array                0x0002a2bc   Data          16  nrf_sdh.o(.constdata)
    .constdata                               0x0002a2cc   Section       32  nrf_sdh_ble.o(.constdata)
    sdh_ble_observers_array                  0x0002a2cc   Data          32  nrf_sdh_ble.o(.constdata)
    .constdata                               0x0002a2ec   Section       16  nrf_sdh_ble.o(.constdata)
    sdh_ble_observers                        0x0002a2f0   Data          12  nrf_sdh_ble.o(.constdata)
    .constdata                               0x0002a2fc   Section       16  nrf_sdh_soc.o(.constdata)
    sdh_soc_observers_array                  0x0002a2fc   Data          16  nrf_sdh_soc.o(.constdata)
    .constdata                               0x0002a30c   Section       12  nrf_sdh_soc.o(.constdata)
    sdh_soc_observers                        0x0002a30c   Data          12  nrf_sdh_soc.o(.constdata)
    .constdata                               0x0002a318   Section      129  ctype_o.o(.constdata)
    .constdata                               0x0002a39c   Section        4  ctype_o.o(.constdata)
    table                                    0x0002a39c   Data           4  ctype_o.o(.constdata)
    .conststring                             0x0002a3a0   Section       21  cli.o(.conststring)
    .conststring                             0x0002a3b8   Section      284  cli.o(.conststring)
    .conststring                             0x0002a4d4   Section      238  cli.o(.conststring)
    .conststring                             0x0002a5c4   Section       60  cli.o(.conststring)
    .conststring                             0x0002a600   Section      148  cli.o(.conststring)
    .conststring                             0x0002a694   Section      146  cli.o(.conststring)
    .conststring                             0x0002a728   Section      109  cli.o(.conststring)
    .conststring                             0x0002a798   Section      134  main.o(.conststring)
    .conststring                             0x0002a820   Section       22  nrf_cli.o(.conststring)
    .conststring                             0x0002a838   Section       55  nrf_cli.o(.conststring)
    .conststring                             0x0002a870   Section       31  nrf_cli.o(.conststring)
    .conststring                             0x0002a890   Section       92  nrf_cli.o(.conststring)
    .conststring                             0x0002a8ec   Section       25  nrf_cli.o(.conststring)
    .conststring                             0x0002a908   Section       28  nrf_cli.o(.conststring)
    .conststring                             0x0002a924   Section       80  nrf_cli.o(.conststring)
    .conststring                             0x0002a974   Section      163  nrf_cli.o(.conststring)
    .conststring                             0x0002aa18   Section       86  nrf_cli.o(.conststring)
    .conststring                             0x0002aa70   Section       26  nrf_cli.o(.conststring)
    .conststring                             0x0002aa8c   Section        3  nrf_cli.o(.conststring)
    .conststring                             0x0002aa90   Section      775  nrf_strerror.o(.conststring)
    .conststring                             0x0002ad98   Section       38  nrf_log_frontend.o(.conststring)
    .conststring                             0x0002adc0   Section      321  nrf_log_frontend.o(.conststring)
    .conststring                             0x0002af04   Section       36  nrf_log_frontend.o(.conststring)
    .conststring                             0x0002af28   Section       72  nrf_log_str_formatter.o(.conststring)
    .conststring                             0x0002af70   Section      392  nrf_sdh_ble.o(.conststring)
    .conststrlit                             0x0002b0f8   Section        5  nrf_drv_uart.o(.conststrlit)
    .conststrlit                             0x0002b100   Section        7  nrf_balloc.o(.conststrlit)
    .conststrlit                             0x0002b108   Section        9  nrf_cli_uart.o(.conststrlit)
    .conststrlit                             0x0002b114   Section        4  nrf_log_frontend.o(.conststrlit)
    .conststrlit                             0x0002b118   Section        8  nrf_sdh.o(.conststrlit)
    .conststrlit                             0x0002b120   Section       12  nrf_sdh_ble.o(.conststrlit)
    .conststrlit                             0x0002b12c   Section       12  nrf_sdh_soc.o(.conststrlit)
    cli_command                              0x0002b158   Section       32  cli.o(cli_command)
    __tagsym$$used                           0x0002b158   Number         0  cli.o(cli_command)
    __tagsym$$used                           0x0002b160   Number         0  cli.o(cli_command)
    __tagsym$$used                           0x0002b168   Number         0  cli.o(cli_command)
    __tagsym$$used                           0x0002b170   Number         0  cli.o(cli_command)
    cli_command                              0x0002b178   Section       48  nrf_cli.o(cli_command)
    __tagsym$$used                           0x0002b178   Number         0  nrf_cli.o(cli_command)
    __tagsym$$used                           0x0002b180   Number         0  nrf_cli.o(cli_command)
    __tagsym$$used                           0x0002b188   Number         0  nrf_cli.o(cli_command)
    __tagsym$$used                           0x0002b190   Number         0  nrf_cli.o(cli_command)
    __tagsym$$used                           0x0002b198   Number         0  nrf_cli.o(cli_command)
    __tagsym$$used                           0x0002b1a0   Number         0  nrf_cli.o(cli_command)
    cli_command                              0x0002b1a8   Section        8  nrf_log_frontend.o(cli_command)
    __tagsym$$used                           0x0002b1a8   Number         0  nrf_log_frontend.o(cli_command)
    log_const_data                           0x0002b1b0   Section        8  nrf_drv_uart.o(log_const_data)
    __tagsym$$used                           0x0002b1b0   Number         0  nrf_drv_uart.o(log_const_data)
    log_const_data                           0x0002b1b8   Section        8  nrf_balloc.o(log_const_data)
    __tagsym$$used                           0x0002b1b8   Number         0  nrf_balloc.o(log_const_data)
    log_const_data                           0x0002b1c0   Section        8  nrf_cli_uart.o(log_const_data)
    __tagsym$$used                           0x0002b1c0   Number         0  nrf_cli_uart.o(log_const_data)
    log_const_data                           0x0002b1c8   Section        8  nrf_log_frontend.o(log_const_data)
    __tagsym$$used                           0x0002b1c8   Number         0  nrf_log_frontend.o(log_const_data)
    log_const_data                           0x0002b1d0   Section        8  nrf_sdh.o(log_const_data)
    __tagsym$$used                           0x0002b1d0   Number         0  nrf_sdh.o(log_const_data)
    log_const_data                           0x0002b1d8   Section        8  nrf_sdh_ble.o(log_const_data)
    __tagsym$$used                           0x0002b1d8   Number         0  nrf_sdh_ble.o(log_const_data)
    log_const_data                           0x0002b1e0   Section        8  nrf_sdh_soc.o(log_const_data)
    __tagsym$$used                           0x0002b1e0   Number         0  nrf_sdh_soc.o(log_const_data)
    sdh_req_observers0                       0x0002b1e8   Section        8  nrf_fstorage_sd.o(sdh_req_observers0)
    __tagsym$$used                           0x0002b1e8   Number         0  nrf_fstorage_sd.o(sdh_req_observers0)
    sdh_soc_observers0                       0x0002b1f0   Section        8  nrf_fstorage_sd.o(sdh_soc_observers0)
    __tagsym$$used                           0x0002b1f0   Number         0  nrf_fstorage_sd.o(sdh_soc_observers0)
    m_sys_obs                                0x0002b1f0   Data           8  nrf_fstorage_sd.o(sdh_soc_observers0)
    sdh_stack_observers0                     0x0002b1f8   Section        8  nrf_sdh_ble.o(sdh_stack_observers0)
    __tagsym$$used                           0x0002b1f8   Number         0  nrf_sdh_ble.o(sdh_stack_observers0)
    m_nrf_sdh_ble_evts_poll                  0x0002b1f8   Data           8  nrf_sdh_ble.o(sdh_stack_observers0)
    sdh_stack_observers0                     0x0002b200   Section        8  nrf_sdh_soc.o(sdh_stack_observers0)
    __tagsym$$used                           0x0002b200   Number         0  nrf_sdh_soc.o(sdh_stack_observers0)
    m_nrf_sdh_soc_evts_poll                  0x0002b200   Data           8  nrf_sdh_soc.o(sdh_stack_observers0)
    sdh_state_observers0                     0x0002b208   Section        8  nrf_fstorage_sd.o(sdh_state_observers0)
    __tagsym$$used                           0x0002b208   Number         0  nrf_fstorage_sd.o(sdh_state_observers0)
    m_state_obs                              0x0002b208   Data           8  nrf_fstorage_sd.o(sdh_state_observers0)
    .data                                    0x200020e0   Section       24  cli.o(.data)
    m_cli_uart_fprintf_ctx                   0x200020e0   Data          24  cli.o(.data)
    .data                                    0x200020f8   Section       24  cli.o(.data)
    m_cli_uart_log_backend                   0x200020f8   Data          24  cli.o(.data)
    .data                                    0x20002110   Section        8  cli.o(.data)
    m_cli_uart_cmd_hist_memobj_nrf_balloc_pool_stack 0x20002110   Data           8  cli.o(.data)
    .data                                    0x20002118   Section        8  cli.o(.data)
    m_cli_uart_cmd_hist_memobj_nrf_balloc_cb 0x20002118   Data           8  cli.o(.data)
    .data                                    0x20002120   Section       16  main.o(.data)
    m_data                                   0x20002120   Data           4  main.o(.data)
    m_hello_world                            0x20002124   Data          12  main.o(.data)
    .data                                    0x20002130   Section       20  app_timer.o(.data)
    m_ticks_elapsed_q_read_ind               0x20002130   Data           1  app_timer.o(.data)
    m_ticks_elapsed_q_write_ind              0x20002131   Data           1  app_timer.o(.data)
    m_rtc1_running                           0x20002132   Data           1  app_timer.o(.data)
    m_rtc1_reset                             0x20002133   Data           1  app_timer.o(.data)
    mp_timer_id_head                         0x20002134   Data           4  app_timer.o(.data)
    m_ticks_latest                           0x20002138   Data           4  app_timer.o(.data)
    m_ticks_elapsed                          0x2000213c   Data           8  app_timer.o(.data)
    .data                                    0x20002144   Section        4  nrf_cli.o(.data)
    tab                                      0x20002144   Data           4  nrf_cli.o(.data)
    .data                                    0x20002148   Section        8  nrf_fstorage_sd.o(.data)
    m_p_cur_op                               0x20002148   Data           4  nrf_fstorage_sd.o(.data)
    m_iget_ctx                               0x2000214c   Data           4  nrf_fstorage_sd.o(.data)
    .data                                    0x20002150   Section       40  nrf_log_frontend.o(.data)
    m_severity_lvls                          0x20002150   Data          20  nrf_log_frontend.o(.data)
    m_severity_lvls_sorted                   0x20002164   Data          20  nrf_log_frontend.o(.data)
    .data                                    0x20002178   Section        8  nrf_log_frontend.o(.data)
    mempool_nrf_balloc_pool_stack            0x20002178   Data           8  nrf_log_frontend.o(.data)
    .data                                    0x20002180   Section        8  nrf_log_frontend.o(.data)
    mempool_nrf_balloc_cb                    0x20002180   Data           8  nrf_log_frontend.o(.data)
    .data                                    0x20002188   Section       56  nrf_log_str_formatter.o(.data)
    severity_names                           0x20002188   Data          20  nrf_log_str_formatter.o(.data)
    m_colors                                 0x2000219c   Data          36  nrf_log_str_formatter.o(.data)
    .data                                    0x200021c0   Section        3  nrf_sdh.o(.data)
    m_nrf_sdh_enabled                        0x200021c0   Data           1  nrf_sdh.o(.data)
    m_nrf_sdh_suspended                      0x200021c1   Data           1  nrf_sdh.o(.data)
    m_nrf_sdh_continue                       0x200021c2   Data           1  nrf_sdh.o(.data)
    .data                                    0x200021c4   Section        4  nrf_sdh_ble.o(.data)
    .data                                    0x200021c8   Section        4  system_nrf52.o(.data)
    __tagsym$$used                           0x200021c8   Number         0  system_nrf52.o(.data)
    .data                                    0x200021cc   Section        4  stdout.o(.data)
    .data                                    0x200021d0   Section        4  errno.o(.data)
    _errno                                   0x200021d0   Data           4  errno.o(.data)
    cli_sorted_cmd_ptrs                      0x200021d4   Section       16  cli.o(cli_sorted_cmd_ptrs)
    __tagsym$$used                           0x200021d4   Number         0  cli.o(cli_sorted_cmd_ptrs)
    __tagsym$$used                           0x200021d8   Number         0  cli.o(cli_sorted_cmd_ptrs)
    __tagsym$$used                           0x200021dc   Number         0  cli.o(cli_sorted_cmd_ptrs)
    __tagsym$$used                           0x200021e0   Number         0  cli.o(cli_sorted_cmd_ptrs)
    cli_sorted_cmd_ptrs                      0x200021e4   Section       24  nrf_cli.o(cli_sorted_cmd_ptrs)
    __tagsym$$used                           0x200021e4   Number         0  nrf_cli.o(cli_sorted_cmd_ptrs)
    __tagsym$$used                           0x200021e8   Number         0  nrf_cli.o(cli_sorted_cmd_ptrs)
    __tagsym$$used                           0x200021ec   Number         0  nrf_cli.o(cli_sorted_cmd_ptrs)
    __tagsym$$used                           0x200021f0   Number         0  nrf_cli.o(cli_sorted_cmd_ptrs)
    __tagsym$$used                           0x200021f4   Number         0  nrf_cli.o(cli_sorted_cmd_ptrs)
    __tagsym$$used                           0x200021f8   Number         0  nrf_cli.o(cli_sorted_cmd_ptrs)
    cli_sorted_cmd_ptrs                      0x200021fc   Section        4  nrf_log_frontend.o(cli_sorted_cmd_ptrs)
    __tagsym$$used                           0x200021fc   Number         0  nrf_log_frontend.o(cli_sorted_cmd_ptrs)
    fs_data                                  0x20002200   Section       20  main.o(fs_data)
    __tagsym$$used                           0x20002200   Number         0  main.o(fs_data)
    log_dynamic_data                         0x20002214   Section       12  nrf_drv_uart.o(log_dynamic_data)
    __tagsym$$used                           0x20002214   Number         0  nrf_drv_uart.o(log_dynamic_data)
    log_dynamic_data                         0x20002220   Section       12  nrf_balloc.o(log_dynamic_data)
    __tagsym$$used                           0x20002220   Number         0  nrf_balloc.o(log_dynamic_data)
    log_dynamic_data                         0x2000222c   Section       12  nrf_cli_uart.o(log_dynamic_data)
    __tagsym$$used                           0x2000222c   Number         0  nrf_cli_uart.o(log_dynamic_data)
    log_dynamic_data                         0x20002238   Section       12  nrf_log_frontend.o(log_dynamic_data)
    __tagsym$$used                           0x20002238   Number         0  nrf_log_frontend.o(log_dynamic_data)
    log_dynamic_data                         0x20002244   Section       12  nrf_sdh.o(log_dynamic_data)
    __tagsym$$used                           0x20002244   Number         0  nrf_sdh.o(log_dynamic_data)
    log_dynamic_data                         0x20002250   Section       12  nrf_sdh_ble.o(log_dynamic_data)
    __tagsym$$used                           0x20002250   Number         0  nrf_sdh_ble.o(log_dynamic_data)
    log_dynamic_data                         0x2000225c   Section       12  nrf_sdh_soc.o(log_dynamic_data)
    __tagsym$$used                           0x2000225c   Number         0  nrf_sdh_soc.o(log_dynamic_data)
    .bss                                     0x20002268   Section       32  cli.o(.bss)
    cli_uart_timer_data                      0x20002268   Data          32  cli.o(.bss)
    .bss                                     0x20002288   Section      256  cli.o(.bss)
    m_data                                   0x20002288   Data         256  cli.o(.bss)
    .bss                                     0x20002388   Section       64  cli.o(.bss)
    cli_uart_tx_ringbuf_buf                  0x20002388   Data          64  cli.o(.bss)
    .bss                                     0x200023c8   Section       24  cli.o(.bss)
    cli_uart_tx_ringbuf_cb                   0x200023c8   Data          24  cli.o(.bss)
    .bss                                     0x200023e0   Section       16  cli.o(.bss)
    cli_uart_rx_ringbuf_buf                  0x200023e0   Data          16  cli.o(.bss)
    .bss                                     0x200023f0   Section       24  cli.o(.bss)
    cli_uart_rx_ringbuf_cb                   0x200023f0   Data          24  cli.o(.bss)
    .bss                                     0x20002408   Section       44  cli.o(.bss)
    cli_uart_cb                              0x20002408   Data          44  cli.o(.bss)
    .bss                                     0x20002434   Section      320  cli.o(.bss)
    m_cli_uart_ctx                           0x20002434   Data         320  cli.o(.bss)
    .bss                                     0x20002574   Section       20  cli.o(.bss)
    m_cli_uart_log_backend_queue_nrf_queue_buffer 0x20002574   Data          20  cli.o(.bss)
    .bss                                     0x20002588   Section       12  cli.o(.bss)
    m_cli_uart_log_backend_queue_nrf_queue_cb 0x20002588   Data          12  cli.o(.bss)
    .bss                                     0x20002594   Section      384  cli.o(.bss)
    m_cli_uart_cmd_hist_memobj_nrf_balloc_pool_mem 0x20002594   Data         384  cli.o(.bss)
    .bss                                     0x20002714   Section       32  nrf_drv_uart.o(.bss)
    m_cb                                     0x20002714   Data          32  nrf_drv_uart.o(.bss)
    .bss                                     0x20002734   Section      268  app_timer.o(.bss)
    m_op_queue                               0x20002734   Data         268  app_timer.o(.bss)
    .bss                                     0x20002840   Section       12  app_util_platform.o(.bss)
    .bss                                     0x2000284c   Section      160  nrf_fstorage_sd.o(.bss)
    m_fifo_data                              0x2000284c   Data         140  nrf_fstorage_sd.o(.bss)
    m_flags                                  0x200028d8   Data          20  nrf_fstorage_sd.o(.bss)
    .bss                                     0x200028ec   Section       16  nrf_fstorage_sd.o(.bss)
    m_fifo_inst                              0x200028ec   Data          16  nrf_fstorage_sd.o(.bss)
    .bss                                     0x200028fc   Section      192  nrf_log_frontend.o(.bss)
    mempool_nrf_balloc_pool_mem              0x200028fc   Data         192  nrf_log_frontend.o(.bss)
    .bss                                     0x200029bc   Section     1056  nrf_log_frontend.o(.bss)
    m_log_data                               0x200029bc   Data        1056  nrf_log_frontend.o(.bss)
    STACK                                    0x20002de0   Section     8192  arm_startup_nrf52.o(STACK)

    Global Symbols

    Symbol Name                              Value     Ov Type        Size  Object(Section)

    BuildAttributes$$THM_ISAv4$E$P$D$K$B$S$7EM$VFPi3$EXTD16$VFPS$VFMA$PE$A:L22UL41UL21$X:L11$S22US41US21$IEEE1$IW$USESV6$~STKCKD$USESV7$~SHL$OSPACE$ROPI$EBA8$MICROLIB$REQ8$PRES8$EABIv2 0x00000000   Number         0  anon$$obj.o ABSOLUTE
    __ARM_use_no_argv                        0x00000000   Number         0  main.o ABSOLUTE
    _printf_a                                0x00000000   Number         0  stubs.o ABSOLUTE
    _printf_c                                0x00000000   Number         0  stubs.o ABSOLUTE
    _printf_charcount                        0x00000000   Number         0  stubs.o ABSOLUTE
    _printf_d                                0x00000000   Number         0  stubs.o ABSOLUTE
    _printf_e                                0x00000000   Number         0  stubs.o ABSOLUTE
    _printf_f                                0x00000000   Number         0  stubs.o ABSOLUTE
    _printf_flags                            0x00000000   Number         0  stubs.o ABSOLUTE
    _printf_fp_dec                           0x00000000   Number         0  stubs.o ABSOLUTE
    _printf_fp_hex                           0x00000000   Number         0  stubs.o ABSOLUTE
    _printf_g                                0x00000000   Number         0  stubs.o ABSOLUTE
    _printf_i                                0x00000000   Number         0  stubs.o ABSOLUTE
    _printf_int_dec                          0x00000000   Number         0  stubs.o ABSOLUTE
    _printf_l                                0x00000000   Number         0  stubs.o ABSOLUTE
    _printf_lc                               0x00000000   Number         0  stubs.o ABSOLUTE
    _printf_ll                               0x00000000   Number         0  stubs.o ABSOLUTE
    _printf_lld                              0x00000000   Number         0  stubs.o ABSOLUTE
    _printf_lli                              0x00000000   Number         0  stubs.o ABSOLUTE
    _printf_llo                              0x00000000   Number         0  stubs.o ABSOLUTE
    _printf_llu                              0x00000000   Number         0  stubs.o ABSOLUTE
    _printf_llx                              0x00000000   Number         0  stubs.o ABSOLUTE
    _printf_longlong_dec                     0x00000000   Number         0  stubs.o ABSOLUTE
    _printf_longlong_hex                     0x00000000   Number         0  stubs.o ABSOLUTE
    _printf_longlong_oct                     0x00000000   Number         0  stubs.o ABSOLUTE
    _printf_ls                               0x00000000   Number         0  stubs.o ABSOLUTE
    _printf_mbtowc                           0x00000000   Number         0  stubs.o ABSOLUTE
    _printf_n                                0x00000000   Number         0  stubs.o ABSOLUTE
    _printf_o                                0x00000000   Number         0  stubs.o ABSOLUTE
    _printf_p                                0x00000000   Number         0  stubs.o ABSOLUTE
    _printf_percent                          0x00000000   Number         0  stubs.o ABSOLUTE
    _printf_pre_padding                      0x00000000   Number         0  stubs.o ABSOLUTE
    _printf_return_value                     0x00000000   Number         0  stubs.o ABSOLUTE
    _printf_s                                0x00000000   Number         0  stubs.o ABSOLUTE
    _printf_sizespec                         0x00000000   Number         0  stubs.o ABSOLUTE
    _printf_str                              0x00000000   Number         0  stubs.o ABSOLUTE
    _printf_truncate_signed                  0x00000000   Number         0  stubs.o ABSOLUTE
    _printf_truncate_unsigned                0x00000000   Number         0  stubs.o ABSOLUTE
    _printf_u                                0x00000000   Number         0  stubs.o ABSOLUTE
    _printf_wc                               0x00000000   Number         0  stubs.o ABSOLUTE
    _printf_wctomb                           0x00000000   Number         0  stubs.o ABSOLUTE
    _printf_widthprec                        0x00000000   Number         0  stubs.o ABSOLUTE
    _printf_x                                0x00000000   Number         0  stubs.o ABSOLUTE
    __cpp_initialize__aeabi_                  - Undefined Weak Reference
    __cxa_finalize                            - Undefined Weak Reference
    _clock_init                               - Undefined Weak Reference
    _microlib_exit                            - Undefined Weak Reference
    sdh_ble_observers0$$Base                  - Undefined Reference
    sdh_ble_observers0$$Limit                 - Undefined Reference
    sdh_ble_observers1$$Base                  - Undefined Reference
    sdh_ble_observers1$$Limit                 - Undefined Reference
    sdh_ble_observers2$$Base                  - Undefined Reference
    sdh_ble_observers2$$Limit                 - Undefined Reference
    sdh_ble_observers3$$Base                  - Undefined Reference
    sdh_ble_observers3$$Limit                 - Undefined Reference
    sdh_req_observers1$$Base                  - Undefined Reference
    sdh_req_observers1$$Limit                 - Undefined Reference
    sdh_soc_observers1$$Base                  - Undefined Reference
    sdh_soc_observers1$$Limit                 - Undefined Reference
    sdh_stack_observers1$$Base                - Undefined Reference
    sdh_stack_observers1$$Limit               - Undefined Reference
    sdh_state_observers1$$Base                - Undefined Reference
    sdh_state_observers1$$Limit               - Undefined Reference
    __Vectors_Size                           0x00000200   Number         0  arm_startup_nrf52.o ABSOLUTE
    __Vectors                                0x00023000   Data           4  arm_startup_nrf52.o(RESET)
    __Vectors_End                            0x00023200   Data           0  arm_startup_nrf52.o(RESET)
    __main                                   0x00023201   Thumb Code     0  entry.o(.ARM.Collect$$$$00000000)
    _main_stk                                0x00023201   Thumb Code     0  entry2.o(.ARM.Collect$$$$00000001)
    _main_scatterload                        0x00023205   Thumb Code     0  entry5.o(.ARM.Collect$$$$00000004)
    __main_after_scatterload                 0x00023209   Thumb Code     0  entry5.o(.ARM.Collect$$$$00000004)
    _main_clock                              0x00023209   Thumb Code     0  entry7b.o(.ARM.Collect$$$$00000008)
    _main_cpp_init                           0x00023209   Thumb Code     0  entry8b.o(.ARM.Collect$$$$0000000A)
    _main_init                               0x00023209   Thumb Code     0  entry9a.o(.ARM.Collect$$$$0000000B)
    __rt_final_cpp                           0x00023211   Thumb Code     0  entry10a.o(.ARM.Collect$$$$0000000D)
    __rt_final_exit                          0x00023211   Thumb Code     0  entry11a.o(.ARM.Collect$$$$0000000F)
    __asm___12_nrf_atfifo_c_51f461e1__nrf_atfifo_wspace_req 0x00023215   Thumb Code    56  nrf_atfifo.o(.emb_text)
    __asm___12_nrf_atfifo_c_51f461e1__nrf_atfifo_wspace_close 0x0002324d   Thumb Code    18  nrf_atfifo.o(.emb_text)
    __asm___12_nrf_atfifo_c_51f461e1__nrf_atfifo_rspace_req 0x0002325f   Thumb Code    58  nrf_atfifo.o(.emb_text)
    __asm___12_nrf_atfifo_c_51f461e1__nrf_atfifo_rspace_close 0x00023299   Thumb Code    18  nrf_atfifo.o(.emb_text)
    __asm___12_nrf_atfifo_c_51f461e1__nrf_atfifo_space_clear 0x000232ab   Thumb Code    50  nrf_atfifo.o(.emb_text)
    __asm___17_nrf_fstorage_sd_c_6e7dbfe9__nrf_atomic_internal_mov 0x000232dd   Thumb Code    24  nrf_fstorage_sd.o(.emb_text)
    __asm___17_nrf_fstorage_sd_c_6e7dbfe9__nrf_atomic_internal_orr 0x000232f5   Thumb Code    26  nrf_fstorage_sd.o(.emb_text)
    __asm___17_nrf_fstorage_sd_c_6e7dbfe9__nrf_atomic_internal_and 0x0002330f   Thumb Code    26  nrf_fstorage_sd.o(.emb_text)
    __asm___17_nrf_fstorage_sd_c_6e7dbfe9__nrf_atomic_internal_eor 0x00023329   Thumb Code    26  nrf_fstorage_sd.o(.emb_text)
    __asm___17_nrf_fstorage_sd_c_6e7dbfe9__nrf_atomic_internal_add 0x00023343   Thumb Code    26  nrf_fstorage_sd.o(.emb_text)
    __asm___17_nrf_fstorage_sd_c_6e7dbfe9__nrf_atomic_internal_sub 0x0002335d   Thumb Code    26  nrf_fstorage_sd.o(.emb_text)
    __asm___12_nrf_memobj_c_9bb9f865__nrf_atomic_internal_mov 0x00023379   Thumb Code    24  nrf_memobj.o(.emb_text)
    __asm___12_nrf_memobj_c_9bb9f865__nrf_atomic_internal_orr 0x00023391   Thumb Code    26  nrf_memobj.o(.emb_text)
    __asm___12_nrf_memobj_c_9bb9f865__nrf_atomic_internal_and 0x000233ab   Thumb Code    26  nrf_memobj.o(.emb_text)
    __asm___12_nrf_memobj_c_9bb9f865__nrf_atomic_internal_eor 0x000233c5   Thumb Code    26  nrf_memobj.o(.emb_text)
    __asm___12_nrf_memobj_c_9bb9f865__nrf_atomic_internal_add 0x000233df   Thumb Code    26  nrf_memobj.o(.emb_text)
    __asm___12_nrf_memobj_c_9bb9f865__nrf_atomic_internal_sub 0x000233f9   Thumb Code    26  nrf_memobj.o(.emb_text)
    __asm___13_nrf_ringbuf_c_bac3c598__nrf_atomic_internal_mov 0x00023415   Thumb Code    24  nrf_ringbuf.o(.emb_text)
    __asm___13_nrf_ringbuf_c_bac3c598__nrf_atomic_internal_orr 0x0002342d   Thumb Code    26  nrf_ringbuf.o(.emb_text)
    __asm___13_nrf_ringbuf_c_bac3c598__nrf_atomic_internal_and 0x00023447   Thumb Code    26  nrf_ringbuf.o(.emb_text)
    __asm___13_nrf_ringbuf_c_bac3c598__nrf_atomic_internal_eor 0x00023461   Thumb Code    26  nrf_ringbuf.o(.emb_text)
    __asm___13_nrf_ringbuf_c_bac3c598__nrf_atomic_internal_add 0x0002347b   Thumb Code    26  nrf_ringbuf.o(.emb_text)
    __asm___13_nrf_ringbuf_c_bac3c598__nrf_atomic_internal_sub 0x00023495   Thumb Code    26  nrf_ringbuf.o(.emb_text)
    __asm___18_nrf_log_frontend_c_bc460776__nrf_atomic_internal_mov 0x000234b1   Thumb Code    24  nrf_log_frontend.o(.emb_text)
    __asm___18_nrf_log_frontend_c_bc460776__nrf_atomic_internal_orr 0x000234c9   Thumb Code    26  nrf_log_frontend.o(.emb_text)
    __asm___18_nrf_log_frontend_c_bc460776__nrf_atomic_internal_and 0x000234e3   Thumb Code    26  nrf_log_frontend.o(.emb_text)
    __asm___18_nrf_log_frontend_c_bc460776__nrf_atomic_internal_eor 0x000234fd   Thumb Code    26  nrf_log_frontend.o(.emb_text)
    __asm___18_nrf_log_frontend_c_bc460776__nrf_atomic_internal_add 0x00023517   Thumb Code    26  nrf_log_frontend.o(.emb_text)
    __asm___18_nrf_log_frontend_c_bc460776__nrf_atomic_internal_sub 0x00023531   Thumb Code    26  nrf_log_frontend.o(.emb_text)
    Reset_Handler                            0x0002354d   Thumb Code     8  arm_startup_nrf52.o(.text)
    NMI_Handler                              0x00023555   Thumb Code     2  arm_startup_nrf52.o(.text)
    HardFault_Handler                        0x00023557   Thumb Code     2  arm_startup_nrf52.o(.text)
    MemoryManagement_Handler                 0x00023559   Thumb Code     2  arm_startup_nrf52.o(.text)
    BusFault_Handler                         0x0002355b   Thumb Code     2  arm_startup_nrf52.o(.text)
    UsageFault_Handler                       0x0002355d   Thumb Code     2  arm_startup_nrf52.o(.text)
    SVC_Handler                              0x0002355f   Thumb Code     2  arm_startup_nrf52.o(.text)
    DebugMon_Handler                         0x00023561   Thumb Code     2  arm_startup_nrf52.o(.text)
    PendSV_Handler                           0x00023563   Thumb Code     2  arm_startup_nrf52.o(.text)
    SysTick_Handler                          0x00023565   Thumb Code     2  arm_startup_nrf52.o(.text)
    CCM_AAR_IRQHandler                       0x00023567   Thumb Code     0  arm_startup_nrf52.o(.text)
    COMP_LPCOMP_IRQHandler                   0x00023567   Thumb Code     0  arm_startup_nrf52.o(.text)
    ECB_IRQHandler                           0x00023567   Thumb Code     0  arm_startup_nrf52.o(.text)
    FPU_IRQHandler                           0x00023567   Thumb Code     0  arm_startup_nrf52.o(.text)
    GPIOTE_IRQHandler                        0x00023567   Thumb Code     0  arm_startup_nrf52.o(.text)
    I2S_IRQHandler                           0x00023567   Thumb Code     0  arm_startup_nrf52.o(.text)
    MWU_IRQHandler                           0x00023567   Thumb Code     0  arm_startup_nrf52.o(.text)
    NFCT_IRQHandler                          0x00023567   Thumb Code     0  arm_startup_nrf52.o(.text)
    PDM_IRQHandler                           0x00023567   Thumb Code     0  arm_startup_nrf52.o(.text)
    POWER_CLOCK_IRQHandler                   0x00023567   Thumb Code     0  arm_startup_nrf52.o(.text)
    PWM0_IRQHandler                          0x00023567   Thumb Code     0  arm_startup_nrf52.o(.text)
    PWM1_IRQHandler                          0x00023567   Thumb Code     0  arm_startup_nrf52.o(.text)
    PWM2_IRQHandler                          0x00023567   Thumb Code     0  arm_startup_nrf52.o(.text)
    QDEC_IRQHandler                          0x00023567   Thumb Code     0  arm_startup_nrf52.o(.text)
    RADIO_IRQHandler                         0x00023567   Thumb Code     0  arm_startup_nrf52.o(.text)
    RNG_IRQHandler                           0x00023567   Thumb Code     0  arm_startup_nrf52.o(.text)
    RTC0_IRQHandler                          0x00023567   Thumb Code     0  arm_startup_nrf52.o(.text)
    RTC2_IRQHandler                          0x00023567   Thumb Code     0  arm_startup_nrf52.o(.text)
    SAADC_IRQHandler                         0x00023567   Thumb Code     0  arm_startup_nrf52.o(.text)
    SPIM0_SPIS0_TWIM0_TWIS0_SPI0_TWI0_IRQHandler 0x00023567   Thumb Code     0  arm_startup_nrf52.o(.text)
    SPIM1_SPIS1_TWIM1_TWIS1_SPI1_TWI1_IRQHandler 0x00023567   Thumb Code     0  arm_startup_nrf52.o(.text)
    SPIM2_SPIS2_SPI2_IRQHandler              0x00023567   Thumb Code     0  arm_startup_nrf52.o(.text)
    SWI1_EGU1_IRQHandler                     0x00023567   Thumb Code     0  arm_startup_nrf52.o(.text)
    SWI3_EGU3_IRQHandler                     0x00023567   Thumb Code     0  arm_startup_nrf52.o(.text)
    SWI4_EGU4_IRQHandler                     0x00023567   Thumb Code     0  arm_startup_nrf52.o(.text)
    SWI5_EGU5_IRQHandler                     0x00023567   Thumb Code     0  arm_startup_nrf52.o(.text)
    TEMP_IRQHandler                          0x00023567   Thumb Code     0  arm_startup_nrf52.o(.text)
    TIMER0_IRQHandler                        0x00023567   Thumb Code     0  arm_startup_nrf52.o(.text)
    TIMER1_IRQHandler                        0x00023567   Thumb Code     0  arm_startup_nrf52.o(.text)
    TIMER2_IRQHandler                        0x00023567   Thumb Code     0  arm_startup_nrf52.o(.text)
    TIMER3_IRQHandler                        0x00023567   Thumb Code     0  arm_startup_nrf52.o(.text)
    TIMER4_IRQHandler                        0x00023567   Thumb Code     0  arm_startup_nrf52.o(.text)
    WDT_IRQHandler                           0x00023567   Thumb Code     0  arm_startup_nrf52.o(.text)
    __rt_ctype_table                         0x00023571   Thumb Code     4  ctype_o.o(.text)
    qsort                                    0x00023579   Thumb Code   156  qsort.o(.text)
    ___aeabi_memcpy8$move                    0x00023615   Thumb Code     0  memmovea.o(.text)
    __aeabi_memcpy                           0x00023615   Thumb Code    64  memmovea.o(.text)
    __aeabi_memcpy4                          0x00023615   Thumb Code     0  memmovea.o(.text)
    __aeabi_memmove                          0x00023615   Thumb Code     0  memmovea.o(.text)
    __aeabi_memmove4                         0x00023615   Thumb Code     0  memmovea.o(.text)
    __aeabi_memmove8                         0x00023615   Thumb Code     0  memmovea.o(.text)
    __aeabi_memset                           0x00023655   Thumb Code    14  memseta.o(.text)
    __aeabi_memset4                          0x00023655   Thumb Code     0  memseta.o(.text)
    __aeabi_memset8                          0x00023655   Thumb Code     0  memseta.o(.text)
    __aeabi_memclr                           0x00023663   Thumb Code     4  memseta.o(.text)
    __aeabi_memclr4                          0x00023663   Thumb Code     0  memseta.o(.text)
    __aeabi_memclr8                          0x00023663   Thumb Code     0  memseta.o(.text)
    _memset$wrapper                          0x00023667   Thumb Code    18  memseta.o(.text)
    strlen                                   0x00023679   Thumb Code    14  strlen.o(.text)
    strcmp                                   0x00023687   Thumb Code    28  strcmp.o(.text)
    strcpy                                   0x000236a3   Thumb Code    18  strcpy.o(.text)
    strncmp                                  0x000236b5   Thumb Code    30  strncmp.o(.text)
    strtol                                   0x000236d3   Thumb Code   112  strtol.o(.text)
    __aeabi_uldivmod                         0x00023743   Thumb Code    98  uldiv.o(.text)
    _strtoul                                 0x000237a5   Thumb Code   158  _strtoul.o(.text)
    __scatterload                            0x00023845   Thumb Code    28  init.o(.text)
    __scatterload_rt2                        0x00023845   Thumb Code     0  init.o(.text)
    __aeabi_llsl                             0x00023869   Thumb Code    30  llshl.o(.text)
    __semihosting_library_function           0x00023869   Thumb Code     0  semi.o(.text)
    _ll_shift_l                              0x00023869   Thumb Code     0  llshl.o(.text)
    __aeabi_llsr                             0x00023887   Thumb Code    32  llushr.o(.text)
    _ll_ushift_r                             0x00023887   Thumb Code     0  llushr.o(.text)
    _chval                                   0x000238a7   Thumb Code    28  _chval.o(.text)
    __I$use$semihosting$fputc                0x000238c3   Thumb Code     0  iusesemip.o(.text)
    __decompress                             0x000238c3   Thumb Code     0  __dczerorl2.o(.text)
    __decompress1                            0x000238c3   Thumb Code    86  __dczerorl2.o(.text)
    RTC1_IRQHandler                          0x0002397d   Thumb Code    32  app_timer.o(i.RTC1_IRQHandler)
    SWI0_EGU0_IRQHandler                     0x000239a1   Thumb Code     4  app_timer.o(i.SWI0_EGU0_IRQHandler)
    SWI2_EGU2_IRQHandler                     0x000239a5   Thumb Code     4  nrf_sdh.o(i.SWI2_EGU2_IRQHandler)
    SystemInit                               0x000239a9   Thumb Code   726  system_nrf52.o(i.SystemInit)
    UARTE0_UART0_IRQHandler                  0x00023cc5   Thumb Code    20  nrf_drv_uart.o(i.UARTE0_UART0_IRQHandler)
    __0printf$5                              0x00023ce1   Thumb Code    22  printf5.o(i.__0printf$5)
    __1printf$5                              0x00023ce1   Thumb Code     0  printf5.o(i.__0printf$5)
    __2printf                                0x00023ce1   Thumb Code     0  printf5.o(i.__0printf$5)
    __aeabi_errno_addr                       0x00023d01   Thumb Code     4  errno.o(i.__aeabi_errno_addr)
    __rt_errno_addr                          0x00023d01   Thumb Code     0  errno.o(i.__aeabi_errno_addr)
    __scatterload_copy                       0x00023d09   Thumb Code    14  handlers.o(i.__scatterload_copy)
    __scatterload_null                       0x00023d17   Thumb Code     2  handlers.o(i.__scatterload_null)
    __scatterload_zeroinit                   0x00023d19   Thumb Code    14  handlers.o(i.__scatterload_zeroinit)
    app_error_fault_handler                  0x00024049   Thumb Code    90  app_error_weak.o(i.app_error_fault_handler)
    app_error_handler_bare                   0x000240cd   Thumb Code    22  app_error.o(i.app_error_handler_bare)
    app_timer_create                         0x000240e5   Thumb Code    32  app_timer.o(i.app_timer_create)
    app_timer_init                           0x00024109   Thumb Code    70  app_timer.o(i.app_timer_init)
    app_timer_start                          0x0002415d   Thumb Code   128  app_timer.o(i.app_timer_start)
    app_timer_stop                           0x000241e5   Thumb Code    26  app_timer.o(i.app_timer_stop)
    app_util_critical_region_enter           0x00024205   Thumb Code    64  app_util_platform.o(i.app_util_critical_region_enter)
    app_util_critical_region_exit            0x0002424d   Thumb Code    46  app_util_platform.o(i.app_util_critical_region_exit)
    buffer_is_empty                          0x000243bd   Thumb Code    16  nrf_log_frontend.o(i.buffer_is_empty)
    cli_init                                 0x00024899   Thumb Code    58  cli.o(i.cli_init)
    cli_process                              0x00024a89   Thumb Code     6  cli.o(i.cli_process)
    cli_start                                0x00024aa5   Thumb Code    22  cli.o(i.cli_start)
    fputc                                    0x00025a3f   Thumb Code    18  fputc.o(i.fputc)
    main                                     0x000264f1   Thumb Code   474  main.o(i.main)
    nrf_atfifo_clear                         0x00026ab5   Thumb Code    16  nrf_atfifo.o(i.nrf_atfifo_clear)
    nrf_atfifo_init                          0x00026ac5   Thumb Code    38  nrf_atfifo.o(i.nrf_atfifo_init)
    nrf_atfifo_item_alloc                    0x00026aeb   Thumb Code    22  nrf_atfifo.o(i.nrf_atfifo_item_alloc)
    nrf_atfifo_item_free                     0x00026b01   Thumb Code    22  nrf_atfifo.o(i.nrf_atfifo_item_free)
    nrf_atfifo_item_get                      0x00026b17   Thumb Code    22  nrf_atfifo.o(i.nrf_atfifo_item_get)
    nrf_atfifo_item_put                      0x00026b2d   Thumb Code    22  nrf_atfifo.o(i.nrf_atfifo_item_put)
    nrf_balloc_alloc                         0x00026b6b   Thumb Code    68  nrf_balloc.o(i.nrf_balloc_alloc)
    nrf_balloc_free                          0x00026baf   Thumb Code    48  nrf_balloc.o(i.nrf_balloc_free)
    nrf_balloc_init                          0x00026bdf   Thumb Code    48  nrf_balloc.o(i.nrf_balloc_init)
    nrf_cli_cmd_cli_stats                    0x00026ca1   Thumb Code    70  nrf_cli.o(i.nrf_cli_cmd_cli_stats)
    nrf_cli_cmd_cli_stats_get                0x00026cf9   Thumb Code    78  nrf_cli.o(i.nrf_cli_cmd_cli_stats_get)
    nrf_cli_cmd_cli_stats_reset              0x00026d85   Thumb Code    46  nrf_cli.o(i.nrf_cli_cmd_cli_stats_reset)
    nrf_cli_fprintf                          0x0002709d   Thumb Code    80  nrf_cli.o(i.nrf_cli_fprintf)
    nrf_cli_help_print                       0x000270ed   Thumb Code   562  nrf_cli.o(i.nrf_cli_help_print)
    nrf_cli_init                             0x00027381   Thumb Code    48  nrf_cli.o(i.nrf_cli_init)
    nrf_cli_print_stream                     0x00027465   Thumb Code     6  nrf_cli.o(i.nrf_cli_print_stream)
    nrf_cli_process                          0x0002746d   Thumb Code    76  nrf_cli.o(i.nrf_cli_process)
    nrf_cli_start                            0x000274bd   Thumb Code    66  nrf_cli.o(i.nrf_cli_start)
    nrf_drv_common_irq_enable                0x00027633   Thumb Code    56  nrf_drv_common.o(i.nrf_drv_common_irq_enable)
    nrf_drv_uart_init                        0x00027681   Thumb Code    98  nrf_drv_uart.o(i.nrf_drv_uart_init)
    nrf_drv_uart_rx                          0x000276e9   Thumb Code   170  nrf_drv_uart.o(i.nrf_drv_uart_rx)
    nrf_drv_uart_rx_abort                    0x00027799   Thumb Code    34  nrf_drv_uart.o(i.nrf_drv_uart_rx_abort)
    nrf_drv_uart_tx                          0x00027919   Thumb Code   262  nrf_drv_uart.o(i.nrf_drv_uart_tx)
    nrf_drv_uart_tx_in_progress              0x00027a25   Thumb Code    18  nrf_drv_uart.o(i.nrf_drv_uart_tx_in_progress)
    nrf_drv_uart_uninit                      0x00027a3d   Thumb Code    74  nrf_drv_uart.o(i.nrf_drv_uart_uninit)
    nrf_fprintf                              0x00027a91   Thumb Code    26  nrf_fprintf.o(i.nrf_fprintf)
    nrf_fprintf_buffer_flush                 0x00027aab   Thumb Code    24  nrf_fprintf.o(i.nrf_fprintf_buffer_flush)
    nrf_fprintf_fmt                          0x00027ac3   Thumb Code   474  nrf_fprintf_format.o(i.nrf_fprintf_fmt)
    nrf_fstorage_erase                       0x00027c9d   Thumb Code    78  nrf_fstorage.o(i.nrf_fstorage_erase)
    nrf_fstorage_init                        0x00027ceb   Thumb Code    16  nrf_fstorage.o(i.nrf_fstorage_init)
    nrf_fstorage_is_busy                     0x00027cfd   Thumb Code    70  nrf_fstorage.o(i.nrf_fstorage_is_busy)
    nrf_fstorage_read                        0x00027d4d   Thumb Code    80  nrf_fstorage.o(i.nrf_fstorage_read)
    nrf_fstorage_sdh_req_handler             0x00027d9d   Thumb Code    18  nrf_fstorage_sd.o(i.nrf_fstorage_sdh_req_handler)
    nrf_fstorage_sdh_state_handler           0x00027db5   Thumb Code    28  nrf_fstorage_sd.o(i.nrf_fstorage_sdh_state_handler)
    nrf_fstorage_sys_evt_handler             0x00027dd5   Thumb Code   150  nrf_fstorage_sd.o(i.nrf_fstorage_sys_evt_handler)
    nrf_fstorage_write                       0x00027e79   Thumb Code   102  nrf_fstorage.o(i.nrf_fstorage_write)
    nrf_log_backend_add                      0x00027f3d   Thumb Code   124  nrf_log_frontend.o(i.nrf_log_backend_add)
    nrf_log_color_id_get                     0x0002802d   Thumb Code    42  nrf_log_frontend.o(i.nrf_log_color_id_get)
    nrf_log_frontend_dequeue                 0x0002805d   Thumb Code   522  nrf_log_frontend.o(i.nrf_log_frontend_dequeue)
    nrf_log_frontend_std_0                   0x00028275   Thumb Code     8  nrf_log_frontend.o(i.nrf_log_frontend_std_0)
    nrf_log_frontend_std_1                   0x0002827d   Thumb Code    14  nrf_log_frontend.o(i.nrf_log_frontend_std_1)
    nrf_log_frontend_std_2                   0x0002828b   Thumb Code    16  nrf_log_frontend.o(i.nrf_log_frontend_std_2)
    nrf_log_hexdump_entry_process            0x0002829d   Thumb Code   146  nrf_log_str_formatter.o(i.nrf_log_hexdump_entry_process)
    nrf_log_init                             0x00028349   Thumb Code   124  nrf_log_frontend.o(i.nrf_log_init)
    nrf_log_module_cnt_get                   0x000283d9   Thumb Code    10  nrf_log_frontend.o(i.nrf_log_module_cnt_get)
    nrf_log_module_filter_get                0x000283ed   Thumb Code    66  nrf_log_frontend.o(i.nrf_log_module_filter_get)
    nrf_log_module_filter_set                0x00028439   Thumb Code    64  nrf_log_frontend.o(i.nrf_log_module_filter_set)
    nrf_log_module_name_get                  0x0002847d   Thumb Code    24  nrf_log_frontend.o(i.nrf_log_module_name_get)
    nrf_log_panic                            0x00028499   Thumb Code    34  nrf_log_frontend.o(i.nrf_log_panic)
    nrf_log_std_entry_process                0x000284c1   Thumb Code   182  nrf_log_str_formatter.o(i.nrf_log_std_entry_process)
    nrf_memobj_alloc                         0x00028577   Thumb Code    96  nrf_memobj.o(i.nrf_memobj_alloc)
    nrf_memobj_free                          0x000285d7   Thumb Code    50  nrf_memobj.o(i.nrf_memobj_free)
    nrf_memobj_get                           0x00028609   Thumb Code    14  nrf_memobj.o(i.nrf_memobj_get)
    nrf_memobj_pool_init                     0x00028617   Thumb Code     4  nrf_memobj.o(i.nrf_memobj_pool_init)
    nrf_memobj_put                           0x0002861b   Thumb Code    34  nrf_memobj.o(i.nrf_memobj_put)
    nrf_memobj_read                          0x0002863d   Thumb Code    12  nrf_memobj.o(i.nrf_memobj_read)
    nrf_memobj_write                         0x00028649   Thumb Code    12  nrf_memobj.o(i.nrf_memobj_write)
    nrf_queue_generic_pop                    0x00028655   Thumb Code   142  nrf_queue.o(i.nrf_queue_generic_pop)
    nrf_queue_is_empty                       0x000286e3   Thumb Code    18  nrf_queue.o(i.nrf_queue_is_empty)
    nrf_queue_is_full                        0x000286f5   Thumb Code    30  nrf_queue.o(i.nrf_queue_is_full)
    nrf_queue_max_utilization_get            0x00028713   Thumb Code     6  nrf_queue.o(i.nrf_queue_max_utilization_get)
    nrf_queue_max_utilization_reset          0x00028719   Thumb Code     8  nrf_queue.o(i.nrf_queue_max_utilization_reset)
    nrf_queue_push                           0x0002872f   Thumb Code   178  nrf_queue.o(i.nrf_queue_push)
    nrf_ringbuf_alloc                        0x000287e1   Thumb Code   110  nrf_ringbuf.o(i.nrf_ringbuf_alloc)
    nrf_ringbuf_cpy_get                      0x0002884f   Thumb Code   124  nrf_ringbuf.o(i.nrf_ringbuf_cpy_get)
    nrf_ringbuf_cpy_put                      0x000288cb   Thumb Code   114  nrf_ringbuf.o(i.nrf_ringbuf_cpy_put)
    nrf_ringbuf_free                         0x0002893d   Thumb Code    38  nrf_ringbuf.o(i.nrf_ringbuf_free)
    nrf_ringbuf_get                          0x00028963   Thumb Code   112  nrf_ringbuf.o(i.nrf_ringbuf_get)
    nrf_ringbuf_init                         0x000289d3   Thumb Code    28  nrf_ringbuf.o(i.nrf_ringbuf_init)
    nrf_ringbuf_put                          0x000289ef   Thumb Code    52  nrf_ringbuf.o(i.nrf_ringbuf_put)
    nrf_sdh_ble_app_ram_start_get            0x00028a25   Thumb Code    16  nrf_sdh_ble.o(i.nrf_sdh_ble_app_ram_start_get)
    nrf_sdh_ble_default_cfg_set              0x00028a39   Thumb Code   256  nrf_sdh_ble.o(i.nrf_sdh_ble_default_cfg_set)
    nrf_sdh_ble_enable                       0x00028b51   Thumb Code    84  nrf_sdh_ble.o(i.nrf_sdh_ble_enable)
    nrf_sdh_disable_request                  0x00028c81   Thumb Code    54  nrf_sdh.o(i.nrf_sdh_disable_request)
    nrf_sdh_enable_request                   0x00028cbd   Thumb Code    96  nrf_sdh.o(i.nrf_sdh_enable_request)
    nrf_sdh_evts_poll                        0x00028d29   Thumb Code    32  nrf_sdh.o(i.nrf_sdh_evts_poll)
    nrf_sdh_is_enabled                       0x00028d4d   Thumb Code     6  nrf_sdh.o(i.nrf_sdh_is_enabled)
    nrf_sdh_request_continue                 0x00028d59   Thumb Code    22  nrf_sdh.o(i.nrf_sdh_request_continue)
    nrf_section_iter_init                    0x00028db1   Thumb Code    10  nrf_section_iter.o(i.nrf_section_iter_init)
    nrf_section_iter_next                    0x00028ddf   Thumb Code    32  nrf_section_iter.o(i.nrf_section_iter_next)
    nrf_strerror_find                        0x00028e01   Thumb Code    52  nrf_strerror.o(i.nrf_strerror_find)
    nrf_strerror_get                         0x00028e39   Thumb Code    14  nrf_strerror.o(i.nrf_strerror_get)
    wait_for_flash_ready                     0x00029c45   Thumb Code    20  main.o(i.wait_for_flash_ready)
    nrf_cli_read_raw                         0x00029e9c   Data          16  cli.o(.constdata)
    nrf_cli_write_raw                        0x00029eac   Data          16  cli.o(.constdata)
    nrf_cli_erase_raw                        0x00029ebc   Data          16  cli.o(.constdata)
    nrf_cli_flasharea_raw                    0x00029ecc   Data          16  cli.o(.constdata)
    nrf_log_backend_cli_api                  0x00029f44   Data          12  nrf_cli.o(.constdata)
    nrf_cli_clear_raw                        0x00029f50   Data          16  nrf_cli.o(.constdata)
    nrf_cli_colors_raw                       0x00029f98   Data          16  nrf_cli.o(.constdata)
    nrf_cli_echo_raw                         0x00029fe0   Data          16  nrf_cli.o(.constdata)
    nrf_cli_history_raw                      0x00029ff0   Data          16  nrf_cli.o(.constdata)
    nrf_cli_resize_raw                       0x0002a028   Data          16  nrf_cli.o(.constdata)
    nrf_cli_cli_stats_raw                    0x0002a070   Data          16  nrf_cli.o(.constdata)
    nrf_cli_uart_transport_api               0x0002a080   Data          20  nrf_cli_uart.o(.constdata)
    nrf_fstorage_sd                          0x0002a0b4   Data          32  nrf_fstorage_sd.o(.constdata)
    nrf_cli_log_raw                          0x0002a264   Data          16  nrf_log_frontend.o(.constdata)
    m_ram_start                              0x0002a2ec   Data           4  nrf_sdh_ble.o(.constdata)
    __ctype_table                            0x0002a318   Data         129  ctype_o.o(.constdata)
    Region$$Table$$Base                      0x0002b138   Number         0  anon$$obj.o(Region$$Table)
    Region$$Table$$Limit                     0x0002b158   Number         0  anon$$obj.o(Region$$Table)
    cli_command$$Base                        0x0002b158   Number         0  cli.o(cli_command)
    nrf_cli_read_const                       0x0002b158   Data           8  cli.o(cli_command)
    nrf_cli_write_const                      0x0002b160   Data           8  cli.o(cli_command)
    nrf_cli_erase_const                      0x0002b168   Data           8  cli.o(cli_command)
    nrf_cli_flasharea_const                  0x0002b170   Data           8  cli.o(cli_command)
    nrf_cli_clear_const                      0x0002b178   Data           8  nrf_cli.o(cli_command)
    nrf_cli_colors_const                     0x0002b180   Data           8  nrf_cli.o(cli_command)
    nrf_cli_echo_const                       0x0002b188   Data           8  nrf_cli.o(cli_command)
    nrf_cli_history_const                    0x0002b190   Data           8  nrf_cli.o(cli_command)
    nrf_cli_resize_const                     0x0002b198   Data           8  nrf_cli.o(cli_command)
    nrf_cli_cli_stats_const                  0x0002b1a0   Data           8  nrf_cli.o(cli_command)
    nrf_cli_log_const                        0x0002b1a8   Data           8  nrf_log_frontend.o(cli_command)
    cli_command$$Limit                       0x0002b1b0   Number         0  nrf_log_frontend.o(cli_command)
    log_const_data$$Base                     0x0002b1b0   Number         0  nrf_drv_uart.o(log_const_data)
    m_nrf_log_uart_logs_data_const           0x0002b1b0   Data           8  nrf_drv_uart.o(log_const_data)
    m_nrf_log_balloc_logs_data_const         0x0002b1b8   Data           8  nrf_balloc.o(log_const_data)
    m_nrf_log_cli_uart_logs_data_const       0x0002b1c0   Data           8  nrf_cli_uart.o(log_const_data)
    m_nrf_log_app_logs_data_const            0x0002b1c8   Data           8  nrf_log_frontend.o(log_const_data)
    m_nrf_log_nrf_sdh_logs_data_const        0x0002b1d0   Data           8  nrf_sdh.o(log_const_data)
    m_nrf_log_nrf_sdh_ble_logs_data_const    0x0002b1d8   Data           8  nrf_sdh_ble.o(log_const_data)
    m_nrf_log_nrf_sdh_soc_logs_data_const    0x0002b1e0   Data           8  nrf_sdh_soc.o(log_const_data)
    log_const_data$$Limit                    0x0002b1e8   Number         0  nrf_sdh_soc.o(log_const_data)
    m_req_obs                                0x0002b1e8   Data           8  nrf_fstorage_sd.o(sdh_req_observers0)
    sdh_req_observers0$$Base                 0x0002b1e8   Number         0  nrf_fstorage_sd.o(sdh_req_observers0)
    sdh_req_observers0$$Limit                0x0002b1f0   Number         0  nrf_fstorage_sd.o(sdh_req_observers0)
    sdh_soc_observers0$$Base                 0x0002b1f0   Number         0  nrf_fstorage_sd.o(sdh_soc_observers0)
    sdh_soc_observers0$$Limit                0x0002b1f8   Number         0  nrf_fstorage_sd.o(sdh_soc_observers0)
    sdh_stack_observers0$$Base               0x0002b1f8   Number         0  nrf_sdh_ble.o(sdh_stack_observers0)
    sdh_stack_observers0$$Limit              0x0002b208   Number         0  nrf_sdh_soc.o(sdh_stack_observers0)
    sdh_state_observers0$$Base               0x0002b208   Number         0  nrf_fstorage_sd.o(sdh_state_observers0)
    sdh_state_observers0$$Limit              0x0002b210   Number         0  nrf_fstorage_sd.o(sdh_state_observers0)
    Image$$RW_IRAM1$$Base                    0x200020e0   Number         0  anon$$obj.o ABSOLUTE
    data                                     0x200021c4   Data           4  nrf_sdh_ble.o(.data)
    SystemCoreClock                          0x200021c8   Data           4  system_nrf52.o(.data)
    __stdout                                 0x200021cc   Data           4  stdout.o(.data)
    cli_sorted_cmd_ptrs$$Base                0x200021d4   Number         0  cli.o(cli_sorted_cmd_ptrs)
    read_str_ptr                             0x200021d4   Data           4  cli.o(cli_sorted_cmd_ptrs)
    write_str_ptr                            0x200021d8   Data           4  cli.o(cli_sorted_cmd_ptrs)
    erase_str_ptr                            0x200021dc   Data           4  cli.o(cli_sorted_cmd_ptrs)
    flasharea_str_ptr                        0x200021e0   Data           4  cli.o(cli_sorted_cmd_ptrs)
    clear_str_ptr                            0x200021e4   Data           4  nrf_cli.o(cli_sorted_cmd_ptrs)
    colors_str_ptr                           0x200021e8   Data           4  nrf_cli.o(cli_sorted_cmd_ptrs)
    echo_str_ptr                             0x200021ec   Data           4  nrf_cli.o(cli_sorted_cmd_ptrs)
    history_str_ptr                          0x200021f0   Data           4  nrf_cli.o(cli_sorted_cmd_ptrs)
    resize_str_ptr                           0x200021f4   Data           4  nrf_cli.o(cli_sorted_cmd_ptrs)
    cli_stats_str_ptr                        0x200021f8   Data           4  nrf_cli.o(cli_sorted_cmd_ptrs)
    log_str_ptr                              0x200021fc   Data           4  nrf_log_frontend.o(cli_sorted_cmd_ptrs)
    fs_data$$Base                            0x20002200   Number         0  main.o(fs_data)
    fstorage                                 0x20002200   Data          20  main.o(fs_data)
    fs_data$$Limit                           0x20002214   Number         0  main.o(fs_data)
    log_dynamic_data$$Base                   0x20002214   Number         0  nrf_drv_uart.o(log_dynamic_data)
    m_nrf_log_uart_logs_data_dynamic         0x20002214   Data          12  nrf_drv_uart.o(log_dynamic_data)
    m_nrf_log_balloc_logs_data_dynamic       0x20002220   Data          12  nrf_balloc.o(log_dynamic_data)
    m_nrf_log_cli_uart_logs_data_dynamic     0x2000222c   Data          12  nrf_cli_uart.o(log_dynamic_data)
    m_nrf_log_app_logs_data_dynamic          0x20002238   Data          12  nrf_log_frontend.o(log_dynamic_data)
    m_nrf_log_nrf_sdh_logs_data_dynamic      0x20002244   Data          12  nrf_sdh.o(log_dynamic_data)
    m_nrf_log_nrf_sdh_ble_logs_data_dynamic  0x20002250   Data          12  nrf_sdh_ble.o(log_dynamic_data)
    m_nrf_log_nrf_sdh_soc_logs_data_dynamic  0x2000225c   Data          12  nrf_sdh_soc.o(log_dynamic_data)
    nrf_nvic_state                           0x20002840   Data          12  app_util_platform.o(.bss)
    __initial_sp                             0x20004de0   Data           0  arm_startup_nrf52.o(STACK)



==============================================================================

Memory Map of the image

  Image Entry point : 0x00023201

  Load Region LR_IROM1 (Base: 0x00023000, Size: 0x00008398, Max: 0x0005d000, ABSOLUTE, COMPRESSED[0x0000828c])

    Execution Region ER_IROM1 (Base: 0x00023000, Size: 0x00008210, Max: 0x0005d000, ABSOLUTE)

    Base Addr    Size         Type   Attr      Idx    E Section Name        Object

    0x00023000   0x00000200   Data   RO         3090    RESET               arm_startup_nrf52.o
    0x00023200   0x00000000   Code   RO         3131  * .ARM.Collect$$$$00000000  mc_w.l(entry.o)
    0x00023200   0x00000004   Code   RO         3445    .ARM.Collect$$$$00000001  mc_w.l(entry2.o)
    0x00023204   0x00000004   Code   RO         3448    .ARM.Collect$$$$00000004  mc_w.l(entry5.o)
    0x00023208   0x00000000   Code   RO         3450    .ARM.Collect$$$$00000008  mc_w.l(entry7b.o)
    0x00023208   0x00000000   Code   RO         3452    .ARM.Collect$$$$0000000A  mc_w.l(entry8b.o)
    0x00023208   0x00000008   Code   RO         3453    .ARM.Collect$$$$0000000B  mc_w.l(entry9a.o)
    0x00023210   0x00000000   Code   RO         3455    .ARM.Collect$$$$0000000D  mc_w.l(entry10a.o)
    0x00023210   0x00000000   Code   RO         3457    .ARM.Collect$$$$0000000F  mc_w.l(entry11a.o)
    0x00023210   0x00000004   Code   RO         3446    .ARM.Collect$$$$00002712  mc_w.l(entry2.o)
    0x00023214   0x000000c8   Code   RO         1214    .emb_text           nrf_atfifo.o
    0x000232dc   0x0000009a   Code   RO         1973    .emb_text           nrf_fstorage_sd.o
    0x00023376   0x00000002   PAD
    0x00023378   0x0000009a   Code   RO         2090    .emb_text           nrf_memobj.o
    0x00023412   0x00000002   PAD
    0x00023414   0x0000009a   Code   RO         2306    .emb_text           nrf_ringbuf.o
    0x000234ae   0x00000002   PAD
    0x000234b0   0x0000009a   Code   RO         2587    .emb_text           nrf_log_frontend.o
    0x0002354a   0x00000002   PAD
    0x0002354c   0x00000024   Code   RO         3091    .text               arm_startup_nrf52.o
    0x00023570   0x00000008   Code   RO         3134    .text               mc_w.l(ctype_o.o)
    0x00023578   0x0000009c   Code   RO         3162    .text               mc_w.l(qsort.o)
    0x00023614   0x00000040   Code   RO         3166    .text               mc_w.l(memmovea.o)
    0x00023654   0x00000024   Code   RO         3168    .text               mc_w.l(memseta.o)
    0x00023678   0x0000000e   Code   RO         3170    .text               mc_w.l(strlen.o)
    0x00023686   0x0000001c   Code   RO         3172    .text               mc_w.l(strcmp.o)
    0x000236a2   0x00000012   Code   RO         3174    .text               mc_w.l(strcpy.o)
    0x000236b4   0x0000001e   Code   RO         3176    .text               mc_w.l(strncmp.o)
    0x000236d2   0x00000070   Code   RO         3443    .text               mc_w.l(strtol.o)
    0x00023742   0x00000062   Code   RO         3464    .text               mc_w.l(uldiv.o)
    0x000237a4   0x0000009e   Code   RO         3473    .text               mc_w.l(_strtoul.o)
    0x00023842   0x00000002   PAD
    0x00023844   0x00000024   Code   RO         3486    .text               mc_w.l(init.o)
    0x00023868   0x00000000   Code   RO         3488    .text               mc_w.l(semi.o)
    0x00023868   0x0000001e   Code   RO         3489    .text               mc_w.l(llshl.o)
    0x00023886   0x00000020   Code   RO         3491    .text               mc_w.l(llushr.o)
    0x000238a6   0x0000001c   Code   RO         3495    .text               mc_w.l(_chval.o)
    0x000238c2   0x00000000   Code   RO         3497    .text               mc_w.l(iusesemip.o)
    0x000238c2   0x00000056   Code   RO         3508    .text               mc_w.l(__dczerorl2.o)
    0x00023918   0x00000016   Code   RO          950    i.NVIC_ClearPendingIRQ  app_timer.o
    0x0002392e   0x00000016   Code   RO          951    i.NVIC_EnableIRQ    app_timer.o
    0x00023944   0x00000016   Code   RO          952    i.NVIC_SetPendingIRQ  app_timer.o
    0x0002395a   0x00000020   Code   RO          953    i.NVIC_SetPriority  app_timer.o
    0x0002397a   0x00000002   PAD
    0x0002397c   0x00000024   Code   RO          954    i.RTC1_IRQHandler   app_timer.o
    0x000239a0   0x00000004   Code   RO          955    i.SWI0_EGU0_IRQHandler  app_timer.o
    0x000239a4   0x00000004   Code   RO         2875    i.SWI2_EGU2_IRQHandler  nrf_sdh.o
    0x000239a8   0x0000031c   Code   RO         3099    i.SystemInit        system_nrf52.o
    0x00023cc4   0x0000001c   Code   RO          599    i.UARTE0_UART0_IRQHandler  nrf_drv_uart.o
    0x00023ce0   0x00000020   Code   RO         3315    i.__0printf$5       mc_w.l(printf5.o)
    0x00023d00   0x00000008   Code   RO         3466    i.__aeabi_errno_addr  mc_w.l(errno.o)
    0x00023d08   0x0000000e   Code   RO         3502    i.__scatterload_copy  mc_w.l(handlers.o)
    0x00023d16   0x00000002   Code   RO         3503    i.__scatterload_null  mc_w.l(handlers.o)
    0x00023d18   0x0000000e   Code   RO         3504    i.__scatterload_zeroinit  mc_w.l(handlers.o)
    0x00023d26   0x00000002   PAD
    0x00023d28   0x00000024   Code   RO         2876    i.__sd_nvic_app_accessible_irq  nrf_sdh.o
    0x00023d4c   0x00000016   Code   RO         2877    i.__sd_nvic_is_app_accessible_priority  nrf_sdh.o
    0x00023d62   0x00000002   PAD
    0x00023d64   0x000002c0   Code   RO         3322    i._printf_core      mc_w.l(printf5.o)
    0x00024024   0x0000000c   Code   RO         1905    i.addr_is_aligned32  nrf_fstorage.o
    0x00024030   0x00000018   Code   RO         1906    i.addr_within_bounds  nrf_fstorage.o
    0x00024048   0x00000084   Code   RO          889    i.app_error_fault_handler  app_error_weak.o
    0x000240cc   0x00000016   Code   RO          850    i.app_error_handler_bare  app_error.o
    0x000240e2   0x00000002   PAD
    0x000240e4   0x00000024   Code   RO          958    i.app_timer_create  app_timer.o
    0x00024108   0x00000054   Code   RO          959    i.app_timer_init    app_timer.o
    0x0002415c   0x00000088   Code   RO          962    i.app_timer_start   app_timer.o
    0x000241e4   0x00000020   Code   RO          963    i.app_timer_stop    app_timer.o
    0x00024204   0x00000048   Code   RO         1119    i.app_util_critical_region_enter  app_util_platform.o
    0x0002424c   0x00000034   Code   RO         1120    i.app_util_critical_region_exit  app_util_platform.o
    0x00024280   0x000000b8   Code   RO          600    i.apply_config      nrf_drv_uart.o
    0x00024338   0x00000064   Code   RO         2588    i.buf_prealloc      nrf_log_frontend.o
    0x0002439c   0x0000001e   Code   RO         1868    i.buffer_add        nrf_fprintf_format.o
    0x000243ba   0x00000002   PAD
    0x000243bc   0x00000014   Code   RO         2589    i.buffer_is_empty   nrf_log_frontend.o
    0x000243d0   0x000000b8   Code   RO         1328    i.char_backspace    nrf_cli.o
    0x00024488   0x00000094   Code   RO         1329    i.char_delete       nrf_cli.o
    0x0002451c   0x00000140   Code   RO         1330    i.char_insert       nrf_cli.o
    0x0002465c   0x00000014   Code   RO         1331    i.cli_clear_eos     nrf_cli.o
    0x00024670   0x00000014   Code   RO         1332    i.cli_cursor_restore  nrf_cli.o
    0x00024684   0x00000014   Code   RO         1333    i.cli_cursor_save   nrf_cli.o
    0x00024698   0x00000200   Code   RO         1334    i.cli_execute       nrf_cli.o
    0x00024898   0x00000040   Code   RO            5    i.cli_init          cli.o
    0x000248d8   0x00000170   Code   RO         1335    i.cli_log_entry_process  nrf_cli.o
    0x00024a48   0x00000040   Code   RO            6    i.cli_missing_param_help  cli.o
    0x00024a88   0x0000000c   Code   RO            7    i.cli_process       cli.o
    0x00024a94   0x0000000e   Code   RO         1336    i.cli_read          nrf_cli.o
    0x00024aa2   0x00000002   PAD
    0x00024aa4   0x0000001c   Code   RO            8    i.cli_start         cli.o
    0x00024ac0   0x000001be   Code   RO         1337    i.cli_state_collect  nrf_cli.o
    0x00024c7e   0x00000002   PAD
    0x00024c80   0x00000028   Code   RO         1338    i.cli_state_set     nrf_cli.o
    0x00024ca8   0x0000000a   Code   RO         1339    i.cli_strlen        nrf_cli.o
    0x00024cb2   0x00000002   PAD
    0x00024cb4   0x0000030c   Code   RO         1340    i.cli_tab_handle    nrf_cli.o
    0x00024fc0   0x0000000e   Code   RO         1341    i.cli_transport_evt_handler  nrf_cli.o
    0x00024fce   0x00000002   PAD
    0x00024fd0   0x0000006c   Code   RO         1761    i.cli_uart_enable   nrf_cli_uart.o
    0x0002503c   0x0000004c   Code   RO         1762    i.cli_uart_init     nrf_cli_uart.o
    0x00025088   0x0000000a   Code   RO         1763    i.cli_uart_read     nrf_cli_uart.o
    0x00025092   0x00000016   Code   RO         1764    i.cli_uart_uninit   nrf_cli_uart.o
    0x000250a8   0x00000050   Code   RO         1765    i.cli_uart_write    nrf_cli_uart.o
    0x000250f8   0x00000048   Code   RO            9    i.cli_unknown_param_help  cli.o
    0x00025140   0x00000052   Code   RO         1342    i.cli_write         nrf_cli.o
    0x00025192   0x00000002   PAD
    0x00025194   0x00000088   Code   RO         1343    i.cmd_get           nrf_cli.o
    0x0002521c   0x0000009a   Code   RO         1344    i.cmd_trim          nrf_cli.o
    0x000252b6   0x00000002   PAD
    0x000252b8   0x000000ac   Code   RO          965    i.compare_reg_update  app_timer.o
    0x00025364   0x00000094   Code   RO         1345    i.completion_insert  nrf_cli.o
    0x000253f8   0x00000018   Code   RO         1346    i.cursor_down_move  nrf_cli.o
    0x00025410   0x00000052   Code   RO         1347    i.cursor_end_position_move  nrf_cli.o
    0x00025462   0x00000054   Code   RO         1348    i.cursor_home_position_move  nrf_cli.o
    0x000254b6   0x00000026   Code   RO         1349    i.cursor_in_empty_line  nrf_cli.o
    0x000254dc   0x00000018   Code   RO         1350    i.cursor_left_move  nrf_cli.o
    0x000254f4   0x00000014   Code   RO         1351    i.cursor_next_line_move  nrf_cli.o
    0x00025508   0x00000128   Code   RO         1352    i.cursor_position_get  nrf_cli.o
    0x00025630   0x0000006a   Code   RO         1353    i.cursor_position_synchronize  nrf_cli.o
    0x0002569a   0x00000002   PAD
    0x0002569c   0x00000018   Code   RO         1354    i.cursor_right_move  nrf_cli.o
    0x000256b4   0x00000018   Code   RO         1355    i.cursor_up_move    nrf_cli.o
    0x000256cc   0x00000040   Code   RO          966    i.elapsed_ticks_acquire  app_timer.o
    0x0002570c   0x0000004c   Code   RO         1974    i.erase             nrf_fstorage_sd.o
    0x00025758   0x00000090   Code   RO           10    i.erase_cmd         cli.o
    0x000257e8   0x0000004e   Code   RO         1975    i.event_send        nrf_fstorage_sd.o
    0x00025836   0x00000002   PAD
    0x00025838   0x00000048   Code   RO           11    i.flasharea_cmd     cli.o
    0x00025880   0x00000048   Code   RO           12    i.flasharea_cmd_print  cli.o
    0x000258c8   0x00000084   Code   RO           13    i.flasharea_cmd_set  cli.o
    0x0002594c   0x000000f2   Code   RO         1356    i.format_offset_string_print  nrf_cli.o
    0x00025a3e   0x00000012   Code   RO         3459    i.fputc             mc_w.l(fputc.o)
    0x00025a50   0x000000c0   Code   RO          343    i.fstorage_evt_handler  main.o
    0x00025b10   0x000000b0   Code   RO           14    i.fstorage_read     cli.o
    0x00025bc0   0x00000026   Code   RO         1357    i.full_line_cmd     nrf_cli.o
    0x00025be6   0x00000002   PAD
    0x00025be8   0x00000144   Code   RO         1358    i.history_handle    nrf_cli.o
    0x00025d2c   0x00000078   Code   RO         1359    i.history_list_element_add  nrf_cli.o
    0x00025da4   0x00000068   Code   RO         1360    i.history_list_element_oldest_remove  nrf_cli.o
    0x00025e0c   0x00000086   Code   RO         1361    i.history_save      nrf_cli.o
    0x00025e92   0x00000002   PAD
    0x00025e94   0x00000038   Code   RO         1976    i.init              nrf_fstorage_sd.o
    0x00025ecc   0x000000a6   Code   RO         1869    i.int_print         nrf_fprintf_format.o
    0x00025f72   0x00000002   PAD
    0x00025f74   0x00000078   Code   RO          601    i.interrupts_enable  nrf_drv_uart.o
    0x00025fec   0x00000010   Code   RO         1977    i.is_busy           nrf_fstorage_sd.o
    0x00025ffc   0x000000f8   Code   RO          967    i.list_insertions_handler  app_timer.o
    0x000260f4   0x00000058   Code   RO         2591    i.log_cmd           nrf_log_frontend.o
    0x0002614c   0x000001d8   Code   RO         2592    i.log_ctrl          nrf_log_frontend.o
    0x00026324   0x00000008   Code   RO         2593    i.log_go            nrf_log_frontend.o
    0x0002632c   0x00000008   Code   RO         2594    i.log_halt          nrf_log_frontend.o
    0x00026334   0x00000094   Code   RO         2595    i.log_skip          nrf_log_frontend.o
    0x000263c8   0x00000128   Code   RO         2596    i.log_status        nrf_log_frontend.o
    0x000264f0   0x0000032c   Code   RO          344    i.main              main.o
    0x0002681c   0x0000015a   Code   RO         1362    i.make_argv         nrf_cli.o
    0x00026976   0x00000076   Code   RO         2091    i.memobj_op         nrf_memobj.o
    0x000269ec   0x00000026   Code   RO         2597    i.module_id_filter_set  nrf_log_frontend.o
    0x00026a12   0x00000002   PAD
    0x00026a14   0x00000034   Code   RO         2598    i.module_idx_get    nrf_log_frontend.o
    0x00026a48   0x0000001c   Code   RO         2599    i.module_name_get   nrf_log_frontend.o
    0x00026a64   0x00000050   Code   RO         1363    i.multiline_console_data_check  nrf_cli.o
    0x00026ab4   0x00000010   Code   RO         1216    i.nrf_atfifo_clear  nrf_atfifo.o
    0x00026ac4   0x00000026   Code   RO         1218    i.nrf_atfifo_init   nrf_atfifo.o
    0x00026aea   0x00000016   Code   RO         1219    i.nrf_atfifo_item_alloc  nrf_atfifo.o
    0x00026b00   0x00000016   Code   RO         1220    i.nrf_atfifo_item_free  nrf_atfifo.o
    0x00026b16   0x00000016   Code   RO         1221    i.nrf_atfifo_item_get  nrf_atfifo.o
    0x00026b2c   0x00000016   Code   RO         1222    i.nrf_atfifo_item_put  nrf_atfifo.o
    0x00026b42   0x0000000e   Code   RO         2307    i.nrf_atomic_flag_clear  nrf_ringbuf.o
    0x00026b50   0x0000000e   Code   RO         2600    i.nrf_atomic_flag_set  nrf_log_frontend.o
    0x00026b5e   0x0000000c   Code   RO         2308    i.nrf_atomic_flag_set_fetch  nrf_ringbuf.o
    0x00026b6a   0x00000044   Code   RO         1287    i.nrf_balloc_alloc  nrf_balloc.o
    0x00026bae   0x00000030   Code   RO         1288    i.nrf_balloc_free   nrf_balloc.o
    0x00026bde   0x00000030   Code   RO         1289    i.nrf_balloc_init   nrf_balloc.o
    0x00026c0e   0x00000002   PAD
    0x00026c10   0x0000004c   Code   RO         1364    i.nrf_cli_build_in_cmd_common_executed  nrf_cli.o
    0x00026c5c   0x00000044   Code   RO         1365    i.nrf_cli_cmd_clear  nrf_cli.o
    0x00026ca0   0x00000058   Code   RO         1366    i.nrf_cli_cmd_cli_stats  nrf_cli.o
    0x00026cf8   0x0000008c   Code   RO         1367    i.nrf_cli_cmd_cli_stats_get  nrf_cli.o
    0x00026d84   0x0000002e   Code   RO         1368    i.nrf_cli_cmd_cli_stats_reset  nrf_cli.o
    0x00026db2   0x00000002   PAD
    0x00026db4   0x00000054   Code   RO         1369    i.nrf_cli_cmd_colors  nrf_cli.o
    0x00026e08   0x0000002a   Code   RO         1370    i.nrf_cli_cmd_colors_off  nrf_cli.o
    0x00026e32   0x0000002a   Code   RO         1371    i.nrf_cli_cmd_colors_on  nrf_cli.o
    0x00026e5c   0x00000084   Code   RO         1372    i.nrf_cli_cmd_echo  nrf_cli.o
    0x00026ee0   0x0000002a   Code   RO         1373    i.nrf_cli_cmd_echo_off  nrf_cli.o
    0x00026f0a   0x0000002a   Code   RO         1374    i.nrf_cli_cmd_echo_on  nrf_cli.o
    0x00026f34   0x00000078   Code   RO         1375    i.nrf_cli_cmd_history  nrf_cli.o
    0x00026fac   0x000000b4   Code   RO         1376    i.nrf_cli_cmd_resize  nrf_cli.o
    0x00027060   0x0000003c   Code   RO         1377    i.nrf_cli_cmd_resize_default  nrf_cli.o
    0x0002709c   0x00000050   Code   RO         1378    i.nrf_cli_fprintf   nrf_cli.o
    0x000270ec   0x00000288   Code   RO         1379    i.nrf_cli_help_print  nrf_cli.o
    0x00027374   0x0000000c   Code   RO           15    i.nrf_cli_help_requested  cli.o
    0x00027380   0x00000030   Code   RO         1380    i.nrf_cli_init      nrf_cli.o
    0x000273b0   0x000000b4   Code   RO         1381    i.nrf_cli_instance_init  nrf_cli.o
    0x00027464   0x00000006   Code   RO         1382    i.nrf_cli_print_stream  nrf_cli.o
    0x0002746a   0x00000002   PAD
    0x0002746c   0x00000050   Code   RO         1383    i.nrf_cli_process   nrf_cli.o
    0x000274bc   0x00000048   Code   RO         1384    i.nrf_cli_start     nrf_cli.o
    0x00027504   0x0000008c   Code   RO          968    i.nrf_delay_us      app_timer.o
    0x00027590   0x0000008c   Code   RO         1388    i.nrf_delay_us      nrf_cli.o
    0x0002761c   0x00000016   Code   RO          602    i.nrf_drv_common_irq_disable  nrf_drv_uart.o
    0x00027632   0x00000038   Code   RO          558    i.nrf_drv_common_irq_enable  nrf_drv_common.o
    0x0002766a   0x00000006   Code   RO          603    i.nrf_drv_get_IRQn  nrf_drv_uart.o
    0x00027670   0x00000010   Code   RO          604    i.nrf_drv_is_in_RAM  nrf_drv_uart.o
    0x00027680   0x00000068   Code   RO          606    i.nrf_drv_uart_init  nrf_drv_uart.o
    0x000276e8   0x000000b0   Code   RO          607    i.nrf_drv_uart_rx   nrf_drv_uart.o
    0x00027798   0x00000028   Code   RO          608    i.nrf_drv_uart_rx_abort  nrf_drv_uart.o
    0x000277c0   0x000000a8   Code   RO          611    i.nrf_drv_uart_rx_for_uart  nrf_drv_uart.o
    0x00027868   0x000000b0   Code   RO          612    i.nrf_drv_uart_rx_for_uarte  nrf_drv_uart.o
    0x00027918   0x0000010c   Code   RO          614    i.nrf_drv_uart_tx   nrf_drv_uart.o
    0x00027a24   0x00000018   Code   RO          616    i.nrf_drv_uart_tx_in_progress  nrf_drv_uart.o
    0x00027a3c   0x00000054   Code   RO          617    i.nrf_drv_uart_uninit  nrf_drv_uart.o
    0x00027a90   0x0000001a   Code   RO         1838    i.nrf_fprintf       nrf_fprintf.o
    0x00027aaa   0x00000018   Code   RO         1839    i.nrf_fprintf_buffer_flush  nrf_fprintf.o
    0x00027ac2   0x000001da   Code   RO         1870    i.nrf_fprintf_fmt   nrf_fprintf_format.o
    0x00027c9c   0x0000004e   Code   RO         1907    i.nrf_fstorage_erase  nrf_fstorage.o
    0x00027cea   0x00000010   Code   RO         1908    i.nrf_fstorage_init  nrf_fstorage.o
    0x00027cfa   0x00000002   PAD
    0x00027cfc   0x00000050   Code   RO         1909    i.nrf_fstorage_is_busy  nrf_fstorage.o
    0x00027d4c   0x00000050   Code   RO         1910    i.nrf_fstorage_read  nrf_fstorage.o
    0x00027d9c   0x00000018   Code   RO         1978    i.nrf_fstorage_sdh_req_handler  nrf_fstorage_sd.o
    0x00027db4   0x00000020   Code   RO         1979    i.nrf_fstorage_sdh_state_handler  nrf_fstorage_sd.o
    0x00027dd4   0x000000a4   Code   RO         1980    i.nrf_fstorage_sys_evt_handler  nrf_fstorage_sd.o
    0x00027e78   0x00000066   Code   RO         1914    i.nrf_fstorage_write  nrf_fstorage.o
    0x00027ede   0x00000024   Code   RO          618    i.nrf_gpio_cfg      nrf_drv_uart.o
    0x00027f02   0x00000012   Code   RO          619    i.nrf_gpio_cfg_default  nrf_drv_uart.o
    0x00027f14   0x00000012   Code   RO          620    i.nrf_gpio_cfg_input  nrf_drv_uart.o
    0x00027f26   0x00000014   Code   RO          621    i.nrf_gpio_cfg_output  nrf_drv_uart.o
    0x00027f3a   0x00000002   PAD
    0x00027f3c   0x00000080   Code   RO         2601    i.nrf_log_backend_add  nrf_log_frontend.o
    0x00027fbc   0x00000002   Code   RO         1389    i.nrf_log_backend_cli_flush  nrf_cli.o
    0x00027fbe   0x0000001c   Code   RO         1390    i.nrf_log_backend_cli_panic_set  nrf_cli.o
    0x00027fda   0x00000052   Code   RO         1391    i.nrf_log_backend_cli_put  nrf_cli.o
    0x0002802c   0x00000030   Code   RO         2603    i.nrf_log_color_id_get  nrf_log_frontend.o
    0x0002805c   0x00000218   Code   RO         2604    i.nrf_log_frontend_dequeue  nrf_log_frontend.o
    0x00028274   0x00000008   Code   RO         2606    i.nrf_log_frontend_std_0  nrf_log_frontend.o
    0x0002827c   0x0000000e   Code   RO         2607    i.nrf_log_frontend_std_1  nrf_log_frontend.o
    0x0002828a   0x00000010   Code   RO         2608    i.nrf_log_frontend_std_2  nrf_log_frontend.o
    0x0002829a   0x00000002   PAD
    0x0002829c   0x000000ac   Code   RO         2832    i.nrf_log_hexdump_entry_process  nrf_log_str_formatter.o
    0x00028348   0x00000090   Code   RO         2613    i.nrf_log_init      nrf_log_frontend.o
    0x000283d8   0x00000014   Code   RO         2614    i.nrf_log_module_cnt_get  nrf_log_frontend.o
    0x000283ec   0x0000004c   Code   RO         2615    i.nrf_log_module_filter_get  nrf_log_frontend.o
    0x00028438   0x00000044   Code   RO         2616    i.nrf_log_module_filter_set  nrf_log_frontend.o
    0x0002847c   0x0000001c   Code   RO         2617    i.nrf_log_module_name_get  nrf_log_frontend.o
    0x00028498   0x00000028   Code   RO         2618    i.nrf_log_panic     nrf_log_frontend.o
    0x000284c0   0x000000b6   Code   RO         2833    i.nrf_log_std_entry_process  nrf_log_str_formatter.o
    0x00028576   0x00000060   Code   RO         2092    i.nrf_memobj_alloc  nrf_memobj.o
    0x000285d6   0x00000032   Code   RO         2093    i.nrf_memobj_free   nrf_memobj.o
    0x00028608   0x0000000e   Code   RO         2094    i.nrf_memobj_get    nrf_memobj.o
    0x00028616   0x00000004   Code   RO         2095    i.nrf_memobj_pool_init  nrf_memobj.o
    0x0002861a   0x00000022   Code   RO         2096    i.nrf_memobj_put    nrf_memobj.o
    0x0002863c   0x0000000c   Code   RO         2097    i.nrf_memobj_read   nrf_memobj.o
    0x00028648   0x0000000c   Code   RO         2098    i.nrf_memobj_write  nrf_memobj.o
    0x00028654   0x0000008e   Code   RO         2194    i.nrf_queue_generic_pop  nrf_queue.o
    0x000286e2   0x00000012   Code   RO         2196    i.nrf_queue_is_empty  nrf_queue.o
    0x000286f4   0x0000001e   Code   RO         2197    i.nrf_queue_is_full  nrf_queue.o
    0x00028712   0x00000006   Code   RO         2198    i.nrf_queue_max_utilization_get  nrf_queue.o
    0x00028718   0x00000008   Code   RO         2199    i.nrf_queue_max_utilization_reset  nrf_queue.o
    0x00028720   0x0000000e   Code   RO         2200    i.nrf_queue_next_idx  nrf_queue.o
    0x0002872e   0x000000b2   Code   RO         2202    i.nrf_queue_push    nrf_queue.o
    0x000287e0   0x0000006e   Code   RO         2309    i.nrf_ringbuf_alloc  nrf_ringbuf.o
    0x0002884e   0x0000007c   Code   RO         2310    i.nrf_ringbuf_cpy_get  nrf_ringbuf.o
    0x000288ca   0x00000072   Code   RO         2311    i.nrf_ringbuf_cpy_put  nrf_ringbuf.o
    0x0002893c   0x00000026   Code   RO         2312    i.nrf_ringbuf_free  nrf_ringbuf.o
    0x00028962   0x00000070   Code   RO         2313    i.nrf_ringbuf_get   nrf_ringbuf.o
    0x000289d2   0x0000001c   Code   RO         2314    i.nrf_ringbuf_init  nrf_ringbuf.o
    0x000289ee   0x00000034   Code   RO         2315    i.nrf_ringbuf_put   nrf_ringbuf.o
    0x00028a22   0x00000002   PAD
    0x00028a24   0x00000014   Code   RO         3003    i.nrf_sdh_ble_app_ram_start_get  nrf_sdh_ble.o
    0x00028a38   0x00000118   Code   RO         3004    i.nrf_sdh_ble_default_cfg_set  nrf_sdh_ble.o
    0x00028b50   0x000000e0   Code   RO         3005    i.nrf_sdh_ble_enable  nrf_sdh_ble.o
    0x00028c30   0x00000050   Code   RO         3006    i.nrf_sdh_ble_evts_poll  nrf_sdh_ble.o
    0x00028c80   0x0000003c   Code   RO         2878    i.nrf_sdh_disable_request  nrf_sdh.o
    0x00028cbc   0x0000006c   Code   RO         2879    i.nrf_sdh_enable_request  nrf_sdh.o
    0x00028d28   0x00000024   Code   RO         2880    i.nrf_sdh_evts_poll  nrf_sdh.o
    0x00028d4c   0x0000000c   Code   RO         2881    i.nrf_sdh_is_enabled  nrf_sdh.o
    0x00028d58   0x0000001c   Code   RO         2883    i.nrf_sdh_request_continue  nrf_sdh.o
    0x00028d74   0x0000003c   Code   RO         3059    i.nrf_sdh_soc_evts_poll  nrf_sdh_soc.o
    0x00028db0   0x0000000a   Code   RO         2386    i.nrf_section_iter_init  nrf_section_iter.o
    0x00028dba   0x00000024   Code   RO         2387    i.nrf_section_iter_item_set  nrf_section_iter.o
    0x00028dde   0x00000020   Code   RO         2388    i.nrf_section_iter_next  nrf_section_iter.o
    0x00028dfe   0x00000002   PAD
    0x00028e00   0x00000038   Code   RO         2421    i.nrf_strerror_find  nrf_strerror.o
    0x00028e38   0x00000014   Code   RO         2422    i.nrf_strerror_get  nrf_strerror.o
    0x00028e4c   0x0000000a   Code   RO          622    i.nrf_uart_event_check  nrf_drv_uart.o
    0x00028e56   0x0000000c   Code   RO          623    i.nrf_uart_event_clear  nrf_drv_uart.o
    0x00028e62   0x0000000c   Code   RO          624    i.nrf_uart_int_enable_check  nrf_drv_uart.o
    0x00028e6e   0x0000000a   Code   RO          625    i.nrf_uarte_event_check  nrf_drv_uart.o
    0x00028e78   0x0000000c   Code   RO          626    i.nrf_uarte_event_clear  nrf_drv_uart.o
    0x00028e84   0x00000090   Code   RO         1392    i.option_print      nrf_cli.o
    0x00028f14   0x00000078   Code   RO          627    i.pins_to_default   nrf_drv_uart.o
    0x00028f8c   0x0000003c   Code   RO         2834    i.postfix_process   nrf_log_str_formatter.o
    0x00028fc8   0x0000005c   Code   RO         2835    i.prefix_process    nrf_log_str_formatter.o
    0x00029024   0x000000d4   Code   RO          345    i.print_flash_info  main.o
    0x000290f8   0x00000098   Code   RO         1981    i.queue_process     nrf_fstorage_sd.o
    0x00029190   0x00000028   Code   RO         1982    i.queue_start       nrf_fstorage_sd.o
    0x000291b8   0x00000018   Code   RO         2208    i.queue_utilization_get  nrf_queue.o
    0x000291d0   0x00000010   Code   RO         3007    i.ram_end_address_get  nrf_sdh_ble.o
    0x000291e0   0x0000000e   Code   RO         1983    i.read              nrf_fstorage_sd.o
    0x000291ee   0x00000002   PAD
    0x000291f0   0x00000044   Code   RO           16    i.read_cmd          cli.o
    0x00029234   0x00000060   Code   RO           17    i.read_cmd_hex      cli.o
    0x00029294   0x00000060   Code   RO           18    i.read_cmd_str      cli.o
    0x000292f4   0x00000004   Code   RO         1984    i.rmap              nrf_fstorage_sd.o
    0x000292f8   0x0000003c   Code   RO          969    i.rtc1_stop         app_timer.o
    0x00029334   0x00000032   Code   RO          628    i.rx_byte           nrf_drv_uart.o
    0x00029366   0x00000018   Code   RO          629    i.rx_done_event     nrf_drv_uart.o
    0x0002937e   0x00000020   Code   RO          630    i.rx_enable         nrf_drv_uart.o
    0x0002939e   0x0000003c   Code   RO         1766    i.rx_try            nrf_cli_uart.o
    0x000293da   0x00000042   Code   RO         2886    i.sd_nvic_SetPriority  nrf_sdh.o
    0x0002941c   0x00000030   Code   RO         2887    i.sdh_request_observer_notify  nrf_sdh.o
    0x0002944c   0x0000002c   Code   RO         2888    i.sdh_state_observer_notify  nrf_sdh.o
    0x00029478   0x00000024   Code   RO         2620    i.severity_lvl_get  nrf_log_frontend.o
    0x0002949c   0x00000038   Code   RO         2889    i.softdevice_evt_irq_disable  nrf_sdh.o
    0x000294d4   0x00000050   Code   RO         2890    i.softdevices_evt_irq_enable  nrf_sdh.o
    0x00029524   0x00000090   Code   RO         2621    i.std_n             nrf_log_frontend.o
    0x000295b4   0x00000008   Code   RO         1393    i.string_cmp        nrf_cli.o
    0x000295bc   0x00000060   Code   RO         1394    i.terminal_size_get  nrf_cli.o
    0x0002961c   0x00000006   Code   RO         1767    i.timer_handler     nrf_cli_uart.o
    0x00029622   0x00000002   PAD
    0x00029624   0x00000080   Code   RO          970    i.timer_list_handler  app_timer.o
    0x000296a4   0x0000003c   Code   RO          971    i.timer_list_insert  app_timer.o
    0x000296e0   0x00000060   Code   RO          972    i.timer_list_remove  app_timer.o
    0x00029740   0x00000048   Code   RO          973    i.timer_stop_op_schedule  app_timer.o
    0x00029788   0x00000074   Code   RO          974    i.timer_timeouts_check  app_timer.o
    0x000297fc   0x00000020   Code   RO          631    i.tx_byte           nrf_drv_uart.o
    0x0002981c   0x0000001c   Code   RO          632    i.tx_done_event     nrf_drv_uart.o
    0x00029838   0x0000006e   Code   RO         1768    i.uart_event_handler  nrf_cli_uart.o
    0x000298a6   0x0000011e   Code   RO          633    i.uart_irq_handler  nrf_drv_uart.o
    0x000299c4   0x000000f0   Code   RO          634    i.uarte_irq_handler  nrf_drv_uart.o
    0x00029ab4   0x00000020   Code   RO         1985    i.uninit            nrf_fstorage_sd.o
    0x00029ad4   0x000000b4   Code   RO         1871    i.unsigned_print    nrf_fprintf_format.o
    0x00029b88   0x00000030   Code   RO          975    i.user_op_alloc     app_timer.o
    0x00029bb8   0x0000003c   Code   RO         1395    i.vt100_bgcolor_set  nrf_cli.o
    0x00029bf4   0x00000050   Code   RO         1396    i.vt100_color_set   nrf_cli.o
    0x00029c44   0x00000014   Code   RO          346    i.wait_for_flash_ready  main.o
    0x00029c58   0x00000004   Code   RO         1986    i.wmap              nrf_fstorage_sd.o
    0x00029c5c   0x00000050   Code   RO         1987    i.write             nrf_fstorage_sd.o
    0x00029cac   0x000000e0   Code   RO           19    i.write_cmd         cli.o
    0x00029d8c   0x00000004   Data   RO           31    .constdata          cli.o
    0x00029d90   0x0000000c   Data   RO           32    .constdata          cli.o
    0x00029d9c   0x0000000c   Data   RO           33    .constdata          cli.o
    0x00029da8   0x00000008   Data   RO           34    .constdata          cli.o
    0x00029db0   0x00000018   Data   RO           35    .constdata          cli.o
    0x00029dc8   0x00000014   Data   RO           36    .constdata          cli.o
    0x00029ddc   0x00000014   Data   RO           37    .constdata          cli.o
    0x00029df0   0x0000003c   Data   RO           38    .constdata          cli.o
    0x00029e2c   0x00000008   Data   RO           39    .constdata          cli.o
    0x00029e34   0x00000030   Data   RO           40    .constdata          cli.o
    0x00029e64   0x00000008   Data   RO           41    .constdata          cli.o
    0x00029e6c   0x00000030   Data   RO           42    .constdata          cli.o
    0x00029e9c   0x00000010   Data   RO           43    .constdata          cli.o
    0x00029eac   0x00000010   Data   RO           44    .constdata          cli.o
    0x00029ebc   0x00000010   Data   RO           45    .constdata          cli.o
    0x00029ecc   0x00000010   Data   RO           46    .constdata          cli.o
    0x00029edc   0x00000068   Data   RO         1397    .constdata          nrf_cli.o
    0x00029f44   0x0000000c   Data   RO         1398    .constdata          nrf_cli.o
    0x00029f50   0x00000010   Data   RO         1399    .constdata          nrf_cli.o
    0x00029f60   0x00000008   Data   RO         1400    .constdata          nrf_cli.o
    0x00029f68   0x00000030   Data   RO         1401    .constdata          nrf_cli.o
    0x00029f98   0x00000010   Data   RO         1402    .constdata          nrf_cli.o
    0x00029fa8   0x00000008   Data   RO         1403    .constdata          nrf_cli.o
    0x00029fb0   0x00000030   Data   RO         1404    .constdata          nrf_cli.o
    0x00029fe0   0x00000010   Data   RO         1405    .constdata          nrf_cli.o
    0x00029ff0   0x00000010   Data   RO         1406    .constdata          nrf_cli.o
    0x0002a000   0x00000008   Data   RO         1407    .constdata          nrf_cli.o
    0x0002a008   0x00000020   Data   RO         1408    .constdata          nrf_cli.o
    0x0002a028   0x00000010   Data   RO         1409    .constdata          nrf_cli.o
    0x0002a038   0x00000008   Data   RO         1410    .constdata          nrf_cli.o
    0x0002a040   0x00000030   Data   RO         1411    .constdata          nrf_cli.o
    0x0002a070   0x00000010   Data   RO         1412    .constdata          nrf_cli.o
    0x0002a080   0x00000014   Data   RO         1769    .constdata          nrf_cli_uart.o
    0x0002a094   0x00000010   Data   RO         1872    .constdata          nrf_fprintf_format.o
    0x0002a0a4   0x00000010   Data   RO         1990    .constdata          nrf_fstorage_sd.o
    0x0002a0b4   0x00000020   Data   RO         1991    .constdata          nrf_fstorage_sd.o
    0x0002a0d4   0x00000104   Data   RO         2423    .constdata          nrf_strerror.o
    0x0002a1d8   0x0000001c   Data   RO         2624    .constdata          nrf_log_frontend.o
    0x0002a1f4   0x00000008   Data   RO         2625    .constdata          nrf_log_frontend.o
    0x0002a1fc   0x00000008   Data   RO         2626    .constdata          nrf_log_frontend.o
    0x0002a204   0x00000060   Data   RO         2627    .constdata          nrf_log_frontend.o
    0x0002a264   0x00000010   Data   RO         2628    .constdata          nrf_log_frontend.o
    0x0002a274   0x00000010   Data   RO         2891    .constdata          nrf_sdh.o
    0x0002a284   0x00000028   Data   RO         2892    .constdata          nrf_sdh.o
    0x0002a2ac   0x00000010   Data   RO         2893    .constdata          nrf_sdh.o
    0x0002a2bc   0x00000010   Data   RO         2894    .constdata          nrf_sdh.o
    0x0002a2cc   0x00000020   Data   RO         3008    .constdata          nrf_sdh_ble.o
    0x0002a2ec   0x00000010   Data   RO         3009    .constdata          nrf_sdh_ble.o
    0x0002a2fc   0x00000010   Data   RO         3060    .constdata          nrf_sdh_soc.o
    0x0002a30c   0x0000000c   Data   RO         3061    .constdata          nrf_sdh_soc.o
    0x0002a318   0x00000081   Data   RO         3135    .constdata          mc_w.l(ctype_o.o)
    0x0002a399   0x00000003   PAD
    0x0002a39c   0x00000004   Data   RO         3136    .constdata          mc_w.l(ctype_o.o)
    0x0002a3a0   0x00000015   Data   RO           47    .conststring        cli.o
    0x0002a3b5   0x00000003   PAD
    0x0002a3b8   0x0000011c   Data   RO           48    .conststring        cli.o
    0x0002a4d4   0x000000ee   Data   RO           49    .conststring        cli.o
    0x0002a5c2   0x00000002   PAD
    0x0002a5c4   0x0000003c   Data   RO           50    .conststring        cli.o
    0x0002a600   0x00000094   Data   RO           51    .conststring        cli.o
    0x0002a694   0x00000092   Data   RO           52    .conststring        cli.o
    0x0002a726   0x00000002   PAD
    0x0002a728   0x0000006d   Data   RO           53    .conststring        cli.o
    0x0002a795   0x00000003   PAD
    0x0002a798   0x00000086   Data   RO          347    .conststring        main.o
    0x0002a81e   0x00000002   PAD
    0x0002a820   0x00000016   Data   RO         1413    .conststring        nrf_cli.o
    0x0002a836   0x00000002   PAD
    0x0002a838   0x00000037   Data   RO         1414    .conststring        nrf_cli.o
    0x0002a86f   0x00000001   PAD
    0x0002a870   0x0000001f   Data   RO         1415    .conststring        nrf_cli.o
    0x0002a88f   0x00000001   PAD
    0x0002a890   0x0000005c   Data   RO         1416    .conststring        nrf_cli.o
    0x0002a8ec   0x00000019   Data   RO         1417    .conststring        nrf_cli.o
    0x0002a905   0x00000003   PAD
    0x0002a908   0x0000001c   Data   RO         1418    .conststring        nrf_cli.o
    0x0002a924   0x00000050   Data   RO         1419    .conststring        nrf_cli.o
    0x0002a974   0x000000a3   Data   RO         1420    .conststring        nrf_cli.o
    0x0002aa17   0x00000001   PAD
    0x0002aa18   0x00000056   Data   RO         1421    .conststring        nrf_cli.o
    0x0002aa6e   0x00000002   PAD
    0x0002aa70   0x0000001a   Data   RO         1422    .conststring        nrf_cli.o
    0x0002aa8a   0x00000002   PAD
    0x0002aa8c   0x00000003   Data   RO         1423    .conststring        nrf_cli.o
    0x0002aa8f   0x00000001   PAD
    0x0002aa90   0x00000307   Data   RO         2424    .conststring        nrf_strerror.o
    0x0002ad97   0x00000001   PAD
    0x0002ad98   0x00000026   Data   RO         2630    .conststring        nrf_log_frontend.o
    0x0002adbe   0x00000002   PAD
    0x0002adc0   0x00000141   Data   RO         2631    .conststring        nrf_log_frontend.o
    0x0002af01   0x00000003   PAD
    0x0002af04   0x00000024   Data   RO         2632    .conststring        nrf_log_frontend.o
    0x0002af28   0x00000048   Data   RO         2836    .conststring        nrf_log_str_formatter.o
    0x0002af70   0x00000188   Data   RO         3010    .conststring        nrf_sdh_ble.o
    0x0002b0f8   0x00000005   Data   RO          636    .conststrlit        nrf_drv_uart.o
    0x0002b0fd   0x00000003   PAD
    0x0002b100   0x00000007   Data   RO         1290    .conststrlit        nrf_balloc.o
    0x0002b107   0x00000001   PAD
    0x0002b108   0x00000009   Data   RO         1770    .conststrlit        nrf_cli_uart.o
    0x0002b111   0x00000003   PAD
    0x0002b114   0x00000004   Data   RO         2633    .conststrlit        nrf_log_frontend.o
    0x0002b118   0x00000008   Data   RO         2895    .conststrlit        nrf_sdh.o
    0x0002b120   0x0000000c   Data   RO         3011    .conststrlit        nrf_sdh_ble.o
    0x0002b12c   0x0000000c   Data   RO         3062    .conststrlit        nrf_sdh_soc.o
    0x0002b138   0x00000020   Data   RO         3500    Region$$Table       anon$$obj.o
    0x0002b158   0x00000020   Data   RO           58    cli_command         cli.o
    0x0002b178   0x00000030   Data   RO         1425    cli_command         nrf_cli.o
    0x0002b1a8   0x00000008   Data   RO         2638    cli_command         nrf_log_frontend.o
    0x0002b1b0   0x00000008   Data   RO          637    log_const_data      nrf_drv_uart.o
    0x0002b1b8   0x00000008   Data   RO         1291    log_const_data      nrf_balloc.o
    0x0002b1c0   0x00000008   Data   RO         1771    log_const_data      nrf_cli_uart.o
    0x0002b1c8   0x00000008   Data   RO         2640    log_const_data      nrf_log_frontend.o
    0x0002b1d0   0x00000008   Data   RO         2897    log_const_data      nrf_sdh.o
    0x0002b1d8   0x00000008   Data   RO         3013    log_const_data      nrf_sdh_ble.o
    0x0002b1e0   0x00000008   Data   RO         3063    log_const_data      nrf_sdh_soc.o
    0x0002b1e8   0x00000008   Data   RO         1993    sdh_req_observers0  nrf_fstorage_sd.o
    0x0002b1f0   0x00000008   Data   RO         1994    sdh_soc_observers0  nrf_fstorage_sd.o
    0x0002b1f8   0x00000008   Data   RO         3015    sdh_stack_observers0  nrf_sdh_ble.o
    0x0002b200   0x00000008   Data   RO         3065    sdh_stack_observers0  nrf_sdh_soc.o
    0x0002b208   0x00000008   Data   RO         1995    sdh_state_observers0  nrf_fstorage_sd.o


    Execution Region RW_IRAM1 (Base: 0x200020e0, Size: 0x00002d00, Max: 0x0000df20, ABSOLUTE, COMPRESSED[0x0000007c])

    Base Addr    Size         Type   Attr      Idx    E Section Name        Object

    0x200020e0   0x00000018   Data   RW           54    .data               cli.o
    0x200020f8   0x00000018   Data   RW           55    .data               cli.o
    0x20002110   0x00000008   Data   RW           56    .data               cli.o
    0x20002118   0x00000008   Data   RW           57    .data               cli.o
    0x20002120   0x00000010   Data   RW          348    .data               main.o
    0x20002130   0x00000014   Data   RW          977    .data               app_timer.o
    0x20002144   0x00000004   Data   RW         1424    .data               nrf_cli.o
    0x20002148   0x00000008   Data   RW         1992    .data               nrf_fstorage_sd.o
    0x20002150   0x00000028   Data   RW         2635    .data               nrf_log_frontend.o
    0x20002178   0x00000008   Data   RW         2636    .data               nrf_log_frontend.o
    0x20002180   0x00000008   Data   RW         2637    .data               nrf_log_frontend.o
    0x20002188   0x00000038   Data   RW         2837    .data               nrf_log_str_formatter.o
    0x200021c0   0x00000003   Data   RW         2896    .data               nrf_sdh.o
    0x200021c3   0x00000001   PAD
    0x200021c4   0x00000004   Data   RW         3012    .data               nrf_sdh_ble.o
    0x200021c8   0x00000004   Data   RW         3100    .data               system_nrf52.o
    0x200021cc   0x00000004   Data   RW         3461    .data               mc_w.l(stdout.o)
    0x200021d0   0x00000004   Data   RW         3469    .data               mc_w.l(errno.o)
    0x200021d4   0x00000010   Data   RW           59    cli_sorted_cmd_ptrs  cli.o
    0x200021e4   0x00000018   Data   RW         1426    cli_sorted_cmd_ptrs  nrf_cli.o
    0x200021fc   0x00000004   Data   RW         2639    cli_sorted_cmd_ptrs  nrf_log_frontend.o
    0x20002200   0x00000014   Data   RW          349    fs_data             main.o
    0x20002214   0x0000000c   Data   RW          638    log_dynamic_data    nrf_drv_uart.o
    0x20002220   0x0000000c   Data   RW         1292    log_dynamic_data    nrf_balloc.o
    0x2000222c   0x0000000c   Data   RW         1772    log_dynamic_data    nrf_cli_uart.o
    0x20002238   0x0000000c   Data   RW         2641    log_dynamic_data    nrf_log_frontend.o
    0x20002244   0x0000000c   Data   RW         2898    log_dynamic_data    nrf_sdh.o
    0x20002250   0x0000000c   Data   RW         3014    log_dynamic_data    nrf_sdh_ble.o
    0x2000225c   0x0000000c   Data   RW         3064    log_dynamic_data    nrf_sdh_soc.o
    0x20002268   0x00000020   Zero   RW           20    .bss                cli.o
    0x20002288   0x00000100   Zero   RW           21    .bss                cli.o
    0x20002388   0x00000040   Zero   RW           22    .bss                cli.o
    0x200023c8   0x00000018   Zero   RW           23    .bss                cli.o
    0x200023e0   0x00000010   Zero   RW           24    .bss                cli.o
    0x200023f0   0x00000018   Zero   RW           25    .bss                cli.o
    0x20002408   0x0000002c   Zero   RW           26    .bss                cli.o
    0x20002434   0x00000140   Zero   RW           27    .bss                cli.o
    0x20002574   0x00000014   Zero   RW           28    .bss                cli.o
    0x20002588   0x0000000c   Zero   RW           29    .bss                cli.o
    0x20002594   0x00000180   Zero   RW           30    .bss                cli.o
    0x20002714   0x00000020   Zero   RW          635    .bss                nrf_drv_uart.o
    0x20002734   0x0000010c   Zero   RW          976    .bss                app_timer.o
    0x20002840   0x0000000c   Zero   RW         1125    .bss                app_util_platform.o
    0x2000284c   0x000000a0   Zero   RW         1988    .bss                nrf_fstorage_sd.o
    0x200028ec   0x00000010   Zero   RW         1989    .bss                nrf_fstorage_sd.o
    0x200028fc   0x000000c0   Zero   RW         2622    .bss                nrf_log_frontend.o
    0x200029bc   0x00000420   Zero   RW         2623    .bss                nrf_log_frontend.o
    0x20002ddc   0x00000004   PAD
    0x20002de0   0x00002000   Zero   RW         3088    STACK               arm_startup_nrf52.o


==============================================================================

Image component sizes


      Code (inc. data)   RO Data    RW Data    ZI Data      Debug   Object Name

        22          0          0          0          0       2029   app_error.o
       132         42          0          0          0      30441   app_error_weak.o
      1630        122          0         20        268      46883   app_timer.o
       124         14          0          0         12       8914   app_util_platform.o
        36          8        512          0       8192        896   arm_startup_nrf52.o
      1332        394       1374         80       1196      86074   cli.o
      1236        574        134         36          0      56019   main.o
       342          0          0          0          0       7634   nrf_atfifo.o
       164          0         15         12          0       3693   nrf_balloc.o
      8442        812       1079         28          0      68496   nrf_cli.o
       472         10         37         12          0      22547   nrf_cli_uart.o
        56          0          0          0          0      27503   nrf_drv_common.o
      2376         82         13         12         32      78011   nrf_drv_uart.o
        50          0          0          0          0       1869   nrf_fprintf.o
       850          4         16          0          0       5242   nrf_fprintf_format.o
       392         10          0          0          0       6652   nrf_fstorage.o
       926         72         72          8        176      19787   nrf_fstorage_sd.o
      2732        454        571         72       1248      46873   nrf_log_frontend.o
       506         66         72         56          0       5288   nrf_log_str_formatter.o
       494          0          0          0          0      12683   nrf_memobj.o
       420          0          0          0          0       7068   nrf_queue.o
       758          0          0          0          0      13066   nrf_ringbuf.o
       600         60        104         15          0      42644   nrf_sdh.o
       620        174        468         16          0       6114   nrf_sdh_ble.o
        60          4         56         12          0       2480   nrf_sdh_soc.o
        78          0          0          0          0       2600   nrf_section_iter.o
        76         10       1035          0          0       2587   nrf_strerror.o
       796         70          0          4          0       2931   system_nrf52.o

    ----------------------------------------------------------------------
     25782       2982       5628        384      11128     617024   Object Totals
         0          0         32          0          0          0   (incl. Generated)
        60          0         38          1          4          0   (incl. Padding)

    ----------------------------------------------------------------------

      Code (inc. data)   RO Data    RW Data    ZI Data      Debug   Library Member Name

        86          0          0          0          0          0   __dczerorl2.o
        28          0          0          0          0         68   _chval.o
       158          0          0          0          0         92   _strtoul.o
         8          4        133          0          0         68   ctype_o.o
         0          0          0          0          0          0   entry.o
         0          0          0          0          0          0   entry10a.o
         0          0          0          0          0          0   entry11a.o
         8          4          0          0          0          0   entry2.o
         4          0          0          0          0          0   entry5.o
         0          0          0          0          0          0   entry7b.o
         0          0          0          0          0          0   entry8b.o
         8          4          0          0          0          0   entry9a.o
         8          4          0          4          0         68   errno.o
        18          0          0          0          0         80   fputc.o
        30          0          0          0          0          0   handlers.o
        36          8          0          0          0         68   init.o
         0          0          0          0          0          0   iusesemip.o
        30          0          0          0          0         68   llshl.o
        32          0          0          0          0         68   llushr.o
        64          0          0          0          0         76   memmovea.o
        36          0          0          0          0        108   memseta.o
       736         56          0          0          0        184   printf5.o
       156          0          0          0          0         88   qsort.o
         0          0          0          0          0          0   semi.o
         0          0          0          4          0          0   stdout.o
        28          0          0          0          0         76   strcmp.o
        18          0          0          0          0         68   strcpy.o
        14          0          0          0          0         68   strlen.o
        30          0          0          0          0         80   strncmp.o
       112          0          0          0          0         88   strtol.o
        98          0          0          0          0         92   uldiv.o

    ----------------------------------------------------------------------
      1750         80        136          8          0       1508   Library Totals
         4          0          3          0          0          0   (incl. Padding)

    ----------------------------------------------------------------------

      Code (inc. data)   RO Data    RW Data    ZI Data      Debug   Library Name

      1746         80        133          8          0       1508   mc_w.l

    ----------------------------------------------------------------------
      1750         80        136          8          0       1508   Library Totals

    ----------------------------------------------------------------------

==============================================================================


      Code (inc. data)   RO Data    RW Data    ZI Data      Debug   

     27532       3062       5764        392      11128     591588   Grand Totals
     27532       3062       5764        124      11128     591588   ELF Image Totals (compressed)
     27532       3062       5764        124          0          0   ROM Totals

==============================================================================

    Total RO  Size (Code + RO Data)                33296 (  32.52kB)
    Total RW  Size (RW Data + ZI Data)             11520 (  11.25kB)
    Total ROM Size (Code + RO Data + RW Data)      33420 (  32.64kB)

==============================================================================

