:020000040000FA
:10000000984A02201D06000025060000E9030000B2
:10001000290600002B0600002D060000000000004D
:100020000000000000000000000000002F0600009B
:100030003106000000000000330600003506000015
:10004000E70B000037060000B50E00004D0C000065
:100050003706000037060000F907000037060000E9
:10006000370600003706000037060000370600009C
:10007000370600003706000037060000370600008C
:1000800037060000290C0000370600003706000084
:10009000A90C0000370600003706000037060000F4
:1000A000370600003706000037060000370600005C
:1000B00037060000370600000000000000000000C6
:1000C000370600003706000037060000370600003C
:1000D000370600003706000037060000D10E00008A
:1000E00037060000F50B0000370600000000000096
:1000F0000000000037060000000000003706000086
:1001000000000000000000000000000000000000EF
:1001100000000000000000000000000000000000DF
:1001200000000000000000000000000000000000CF
:1001300000000000000000000000000000000000BF
:1001400000000000000000000000000000000000AF
:10015000000000000000000000000000000000009F
:10016000000000000000000000000000000000008F
:10017000000000000000000000000000000000007F
:10018000000000000000000000000000000000006F
:10019000000000000000000000000000000000005F
:1001A000000000000000000000000000000000004F
:1001B000000000000000000000000000000000003F
:1001C000000000000000000000000000000000002F
:1001D000000000000000000000000000000000001F
:1001E000000000000000000000000000000000000F
:1001F00000000000000000000000000000000000FF
:10020000DFF80CD000F0C8FA004800473564000061
:10021000984A022030B4044654E8000F0D4644E8E2
:100220000053002BF8D1156030BC704730B4044641
:1002300054E8000F40EA010544E80053002BF7D1D1
:10024000156030BC704730B4044654E8000F00EA33
:10025000010544E80053002BF7D1156030BC70470E
:1002600030B4044654E8000F80EA010544E8005326
:10027000002BF7D1156030BC704730B4044654E809
:10028000000F00EB010544E80053002BF7D1156087
:1002900030BC704730B4044654E8000FA0EB0105B1
:1002A00044E80053002BF7D1156030BC70470000C4
:1002B00030B4044654E8000F0D4644E80053002BC8
:1002C000F8D1156030BC704730B4044654E8000FD4
:1002D00040EA010544E80053002BF7D1156030BC1B
:1002E000704730B4044654E8000F00EA010544E8C2
:1002F0000053002BF7D1156030BC704730B4044672
:1003000054E8000F80EA010544E80053002BF7D1C0
:10031000156030BC704730B4044654E8000F00EB61
:10032000010544E80053002BF7D1156030BC70473D
:1003300030B4044654E8000FA0EB010544E8005334
:10034000002BF7D1156030BC7047000030B4044674
:1003500054E8000F0D4644E80053002BF8D1156017
:1003600030BC704730B4044654E8000F40EA010541
:1003700044E80053002BF7D1156030BC704730B40F
:10038000044654E8000F00EA010544E80053002B3E
:10039000F7D1156030BC704730B4044654E8000F04
:1003A00080EA010544E80053002BF7D1156030BC0A
:1003B000704730B4044654E8000F00EB010544E8F0
:1003C0000053002BF7D1156030BC704730B40446A1
:1003D00054E8000FA0EB010544E80053002BF7D1CF
:1003E000156030BC70470000094B1EF0040F1CBFA5
:1003F000EFF309801847EFF308800649064A884260
:1004000001D8904202D88D464FF0000018470000F6
:10041000BD090000984A0220982A022030B450E812
:10042000012F93B2C48923448489A34228BF1B1B94
:100430000489A34202BFBFF32F8F002007E0C3EA65
:10044000020340E80134002CE9D14FF001000A60BA
:1004500030BC704750E8012FC2EA024240E8012157
:100460000029F7D1704730B450E8022F1FFAA2F3E9
:10047000C488A34202BFBFF32F8F00200DE0C489C0
:1004800023448489A34228BF1B1BC2EA034340E8DC
:100490000234002CE8D14FF001000A6030BC7047F4
:1004A00050E8022FC2EA224240E802210029F7D197
:1004B0007047034653E8022FD988B2EB324F4FF012
:1004C000000017BF92B241EA014142EA014104E053
:1004D0005A68B2EB324F08BF012043E80212002AEB
:1004E000E8D1704730B4044654E8000F0D4644E8A4
:1004F0000053002BF8D1156030BC704730B404466F
:1005000054E8000F40EA010544E80053002BF7D1FE
:10051000156030BC704730B4044654E8000F00EA60
:10052000010544E80053002BF7D1156030BC70473B
:1005300030B4044654E8000F80EA010544E8005353
:10054000002BF7D1156030BC704730B4044654E836
:10055000000F00EB010544E80053002BF7D11560B4
:1005600030BC704730B4044654E8000FA0EB0105DE
:1005700044E80053002BF7D1156030BC70470000F1
:1005800030B4044654E8000F0D4644E80053002BF5
:10059000F8D1156030BC704730B4044654E8000F01
:1005A00040EA010544E80053002BF7D1156030BC48
:1005B000704730B4044654E8000F00EA010544E8EF
:1005C0000053002BF7D1156030BC704730B404469F
:1005D00054E8000F80EA010544E80053002BF7D1EE
:1005E000156030BC704730B4044654E8000F00EB8F
:1005F000010544E80053002BF7D1156030BC70476B
:1006000030B4044654E8000FA0EB010544E8005361
:10061000002BF7D1156030BC7047000006488047BA
:1006200006480047FEE7FEE7FEE7FEE7FEE7FEE7D7
:10063000FEE7FEE7FEE7FEE7AD0C0000010200006A
:100640002DE9F05F0546002092469B468846064607
:10065000814640241BE0284641464746224600F09A
:100660008AF853465A46C01A914110D3114618468B
:10067000224600F071F82D1A67EB01084F4622461A
:100680000120002100F068F817EB00094E41201E00
:10069000A4F10104DFDC484631462A464346BDE862
:1006A000F09F00000048704768C100000649074AF3
:1006B0000868504343F2390210440860400870470C
:1006C0000149086070470000A00100206D4EC6413E
:1006D00040EA01039B0703D009E008C9121F08C0C4
:1006E000042AFAD203E011F8013B00F8013B521E44
:1006F000F9D27047D2B201E000F8012B491EFBD2BB
:1007000070470022F6E710B513460A46044619461C
:10071000FFF7F0FF204610BD10B5044604E00B784B
:1007200000F8013B03B1491C521EF8D2204610BD0F
:10073000421C10F8011B0029FBD1801A704730B50C
:1007400004460020034600E05B1C934203D2E05CB9
:10075000CD5C401BF8D030BD202A04DB203A00FAE3
:1007600002F1002070479140C2F1200320FA03F308
:10077000194390407047202A04DB203A21FA02F006
:100780000021704721FA02F3D040C2F120029140CB
:100790000843194670470000064C074D06E0E06824
:1007A00040F0010394E8070098471034AC42F6D3B8
:1007B000FFF72AFD6CCE00008CCE000030B58C18FF
:1007C00010F8012B12F00F0301D110F8013B1209B0
:1007D00006D110F8012B03E010F8015B01F8015B72
:1007E0005B1EF9D101E001F8013B521EFBD1A14291
:1007F000E6D3002030BD00002DE9F04F00268FB079
:10080000DFF8B081B14602964FF480750124374677
:100810000396284608F052FD38B1D8F80403204268
:1008200003D0284608F040FD26432D1D64007F1CA0
:10083000ADB2082FEDD34FF4BE74204608F03EFD54
:1008400048B1204608F030FD46F0004602AA0221D9
:10085000002008F0EFFC584C16F0FF0F15D00127D0
:10086000002537420DD008EB8501D1F81005D1F8ED
:100870001015C0F3052054F82520C1F3014102B141
:1008800090477F006D1C082DEBD3002E7DDA0020F1
:10089000CDF82890411E0DF1080B08AACDF82C9038
:1008A00042F82010401C91460228F9D300252E461C
:1008B000A01910F8607F90F9000027F0C008401CD4
:1008C00049D008A9404606F095FA88B34FEA971A2E
:1008D000404602F08BFF54F820701FB1BAF1030FAD
:1008E00003D00FE0BAF1030F35D10AA84FEAD802BE
:1008F00008F00703815C4FF0010C0CFA03FC41EA9D
:100900000C01815406A8CDF8188008F0C5FB0699A3
:1009100000EB8100D0F8000702A9C0F30140069067
:10092000404606F067FA0028069802D0022802D056
:1009300011E003280FD1BAF1030F08D1069802285D
:1009400032D00221404608F05AFB6D1CEDB217B1BF
:1009500051464046B847761C042EA9D3002D20D01E
:1009600004AA0221002008F065FC00205A4604A9D0
:1009700052F8206051F82030B34217D000200AAE60
:100980004FEA090351F8207000E00AE042F82070B5
:1009900056F8207043F82070401C0228F2D3002D36
:1009A00084D10FB0BDE8F08F0321CBE7401C0228B3
:1009B000DED3F6E700600040382102201CB58146F6
:1009C00008F018FF08F05EFD0028FBD130484D46C6
:1009D0000768304E012430A13088D9F8182004EB84
:1009E000004008F045FED5E90201CDE9000130885C
:1009F000D5E9002304EB00402DA108F051FEE86981
:100A00000090D5E90423308837A104EB004008F0BA
:100A10003EFE1F48001D0068800705D530883C4910
:100A200004EB004008F020FEDFF8E880002500BF5E
:100A300004FA05F0384208D058F825202AB1308849
:100A400035A104EB004008F013FE6D1C1A2DEFD306
:100A5000380608D50E480C300268308831A104EB06
:100A6000004008F005FE380408D509481030026837
:100A7000308834A104EB004008F0FAFD0448C83087
:100A80000068C00700D000BE484600F069F80000CA
:100A900028ED00E0F801002048415244204641552D
:100AA0004C54206174203078253038580000000004
:100AB000202052303A2020307825303858202052DB
:100AC000313A2020307825303858202052323A20D0
:100AD00020307825303858202052333A2020307882
:100AE000253038580000000020205231323A2030A2
:100AF000782530385820204C523A20203078253044
:100B0000385820205053523A203078253038580039
:100B100044C40000D000002043617573653A20256D
:100B2000732E00004D656D4D616E616765204661F5
:100B3000756C7420416464726573733A2030782553
:100B400030385800427573204661756C74204164DA
:100B500064726573733A203078253038580000008D
:100B6000BFF34F8F05480168054A01F4E061114366
:100B70000160BFF34F8F00BFFDE700000CED00E008
:100B80000400FA0500F01F02012191404009800095
:100B900000F1E020C0F88012704700F01F02012130
:100BA00091404009800000F1E020C0F8001170473A
:100BB00000F01F02012191404009800000F1E02077
:100BC000C0F8001270474907090E002806DA00F045
:100BD0000F0000F1E02080F8141D704700F1E020C4
:100BE00080F80014704710B506F028FBBDE81040EF
:100BF00006F0E6BC10B50A4C4FF48071204608F0B0
:100C0000E1FE00280AD0074800214171C4F8001114
:100C100002688168BDE810400020104710BD000048
:100C200000900240A021022007480021C0F8401196
:100C3000C0F84411C0F84811C0F84C11C0F80011B8
:100C4000C0F804110AF0C8BA00100140F8B5144801
:100C5000124C05464FF48C7108F0C8FE00281BD0DA
:100C60000026C5F81861D5F818010090206820B951
:100C70000C494FF4267001F055FEA07FFF2801D0EB
:100C800008F0B1FA66772672D4E9002101B004F1C8
:100C90000800BDE8F0401047F8BD0000AC2102207C
:100CA000003000409CC200000AF0E8B930B54FF0B7
:100CB00080500022D0F830110123082902D1D0F849
:100CC000344114B1082909D00BE04FF08041C1F83C
:100CD0000C21C1F8102168490A6005E0D0F83441C0
:100CE00014B1082957D059E064490968644C21605F
:100CF0006249091D0968241D21606049083109689D
:100D0000241D21605D490C310968241D21605B4967
:100D100010310968241D2160584914310968241DC7
:100D20002160564918310968554C203421605349D7
:100D30001C310968241D2160504920310968241D97
:100D400021604E4924310968241D21604B49283116
:100D50000968241D216049492C310968241D21603E
:100D6000464930310968464C4034216043493431AA
:100D70000968241D2160414938310968241D21601A
:100D80003E493C310968241D21603C4940310968D5
:100D9000241D216005E0D0F8344114B1082904D0A5
:100DA00006E0394C3749216005E0D0F8344114B1F0
:100DB000082904D006E0354CFB21216005E0D0F87D
:100DC000344114B1082908D00AE090F8584230485C
:100DD000016864F30301016005E0D0F8344114B107
:100DE000082905D00EE02B494FF40070086002E09E
:100DF000D0F8340130B928480168C90702D06FF033
:100E0000010101602548016841F470010160BFF3F0
:100E10004F8FBFF36F8F4FF01021D1F800020028E1
:100E200003DBD1F80402002822DA1D4C23601D48A0
:100E30000368002BFCD01223C1F800320568002D96
:100E4000FCD0C1F8043201680029FCD0226001689E
:100E50000029FCD0BFF34F8F10487C380168124A3C
:100E600001F4E06111430160BFF34F8F00BFFDE764
:100E70000F490E48086030BD3805004004040010DA
:100E800020C50040488103008C56004018F5004002
:100E9000E40E0040409602400004004088ED00E06F
:100EA00004E5014000E401400400FA050090D0038D
:100EB0009C0100200448017F04480029024901D018
:100EC0000AF0D9BA0AF048BAD02102200020004026
:100ED0002DE9F05F5448D0F8045300242E464FF01B
:100EE000010913E096FAA6F0B0FA80F7B80000F511
:100EF0008070804608F08CFF28B1404608F090FFD3
:100F000009FA07F0044309FA07F08643002EE9D1F5
:100F100007F012FB002869D0444AD078F0BBA00249
:100F200064D5434940F2A978C1F80080081D0368E0
:100F300013F0FF0C02D0036803EA0C0C40F2AA7A0B
:100F4000C1F800A0036813F0FF0301D00668334026
:100F500040F2AB7BC1F800B0066816F0FF0601D086
:100F600007683E4040F2AC770F60076817EA0C074D
:100F700009D0D2F810C04CEA070CC2F810C0C1F872
:100F800000800760076840F2AD770F6007681F4078
:100F900009D0136943EA0743136100E026E0C1F872
:100FA00000A00760036840F2AE730B600368334033
:100FB0000BD0DE0701D044F40004DE0601D544F076
:100FC0000104C1F800B003600068106930F001113D
:100FD00002D005F080710C4310F0011F06D06905A6
:100FE00004D520F0011044F480641061C4F3C056AD
:100FF00024F400044F46DFF83C8009E094FAA4F0A2
:10100000B0FA80F558F82500804707FA05F08443C8
:10101000002CF3D10AF0DAFB002E03D0BDE8F05F1C
:1010200003F022BEBDE8F09F007002409000002057
:1010300000780240FCBD00000FB41CB50A46521EE9
:10104000CDE9000207A9054B6A46069800F018F89A
:10105000009A002111701CBC5DF814FBE314000021
:1010600002E008C8121F08C1002AFAD17047704771
:10107000002001E001C1121F002AFBD170470000CF
:101080002DE9FF4F8DB00F460546002606E02528C6
:101090000BD0DDE90F1290476D1C761C28780028D4
:1010A000F5D111B03046BDE8F08F0024A246A1462C
:1010B0000122EC4900E0044315F8013F203B02FA0D
:1010C00003F00842F7D128782A2810D06FF02F02B9
:1010D0002878A0F13001092914D80AEB8A0102EB23
:1010E000410144F0020400EB010A6D1CF0E701CF5E
:1010F0005FEA000A03D544F40054CAF1000A44F040
:1011000002046D1C28782E2817D115F8010F44F021
:1011100004042A280ED06FF02F022878A0F13001A5
:1011200009290AD809EB890102EB410100EB010909
:101130006D1CF2E757F8049B6D1C28786C280FD0C3
:1011400006DC4C2817D068280DD06A2814D104E09A
:10115000742810D07A280FD10DE044F400140AE06E
:1011600044F4801401E044F440146978814202D1CF
:1011700004F580146D1C6D1C2A786E2A1FD00CDCBF
:10118000632A31D004DC002A8BD0582A11D1A3E085
:10119000642A68D0692A0CD165E0732A2ED004DC59
:1011A0006F2A73D0702A04D19BE0752A6FD0782AF9
:1011B0006ED01046DDE90F129047761C50E1C4F363
:1011C0000250022806D0032809D0042801CF09D0F4
:1011D000066045E101CFF117C0E9006140E101CFB0
:1011E00006803DE106703BE117F8040B8DF8000026
:1011F00000208DF80100EB46012003E057F804BB06
:101200004FF0FF3061074FF0000102D40DE008F10C
:101210000101884649450FDA8045F8DB1BF80810C4
:101220000029F4D108E008F1010188468142FADB87
:101230001BF808100029F6D1DDE90F23AAEB0800FE
:101240008146214600F036F9304400EB080604E000
:10125000DDE90F121BF8010B9047B8F10108F7D236
:1012600021464846F7E00A21C4F302534FF0000B31
:101270000891022B04D001CFC117032B09D00AE03B
:10128000FF1D27F00707F7E8020108E032E01FE042
:1012900020E000B2C117042B01D140B2C117031ED8
:1012A00071F1000307DA4FF0000CD0EB0C006CEB8F
:1012B00001012D2302E0230504D52B238DF82430D2
:1012C000012303E0E30701D02023F7E7984658E025
:1012D0000A2110E010210EE010204FF0000B0890C2
:1012E0000CE010214FF0000B44F004044FF008090B
:1012F000089103E008214FF0000B0891C4F302535A
:10130000022B04D001CF0021032B06D006E0FF1DE5
:1013100027F00707F7E8020103E080B2042B00D1B1
:10132000C0B24FF0000823072BD5702A07D0DDF894
:1013300020C08CF0100C5CEA0B0C05D00EE04023B2
:101340008DF82430012308E050EA010306D0302351
:101350008DF824308DF8252002239846DDF820C032
:101360008CF0080C5CEA0B0C0BD150EA010301D1A4
:10137000630706D530238DF824304FF00108A9F11A
:101380000109582A04D038A20B9208AA0A920BE04D
:101390003AA2F9E75B46089AFFF752F90B9B9B5C70
:1013A0000A9A521E0A92137050EA0102F2D10A9868
:1013B000ADEB000000F1200B600702D524F480346F
:1013C00001E04FF00109D94502DDA9EB0B0000E077
:1013D000002000EB0B0141440890AAEB010AE00356
:1013E00006D4DDE90F232146504600F063F8064499
:1013F0004FF0000908E009A911F80900DDE90F1212
:10140000904709F10109761CC145F4DBE0030CD5D6
:10141000DDE90F232146504600F04CF8064404E075
:10142000DDE90F1230209047761C0899481E08907D
:101430000029F5DC08E00A980A990078491C0A910D
:10144000DDE90F129047761CBBF10001ABF1010BF7
:10145000F1DC21465046DDE90F2300F019F806447F
:101460006D1C1BE609280100303132333435363724
:1014700038396162636465660000000030313233E0
:101480003435363738394142434445460000000080
:101490002DE9F041044600251E461746880404D471
:1014A00005E039462020B0476D1C641EF9D528465A
:1014B000BDE8F0812DE9F041044600251E46904626
:1014C000C80301D5302700E02027880404D505E0B3
:1014D00041463846B0476D1C641EF9D52846BDE824
:1014E000F0814A68002A06D00A68531C0B6010700D
:1014F0004868401E48607047022001F037BE000077
:1015000070B50A4D686818B909A1902001F00AFA6F
:10151000002406E06868012110F8340005F002FF9D
:10152000641C28788442F5D3002070BDA4000020FC
:101530002E2E5C2E2E5C2E2E5C2E2E5C2E2E5C2EE5
:101540002E5C636F6D706F6E656E74735C6C696238
:101550007261726965735C627574746F6E5C6170E0
:10156000705F627574746F6E2E630000F8B5154677
:101570000C460646052A01D20720F8BD05F0D6FF25
:1015800018B905F0A5FF0028F7D1104900204E60DA
:101590000C70C1E902500E4D08610DE006EBC4006D
:1015A0006968009181788DF801100078094A6946D0
:1015B00005F018FF0028E0D1641EE4B2EED2BDE8C9
:1015C000F840054A0021024800F0B2B8A40000200B
:1015D0009CBE000055600000914000002DE9FC41D8
:1015E00014468846074608F005F900BF07F04AFF91
:1015F0000028FBD16FF48040194D38184FF00106D8
:101600001ED0012813D02888424606EB004015A1C1
:1016100008F02EF819480068C00700D000BE224626
:1016200002B041463846BDE8F04100F04FB8288886
:10163000238806EB004012A1626808F020F8E9E771
:10164000A06808F0F5F9034621886068CDE900013B
:10165000288812A106EB0040A26808F021F8D9E71B
:1016600010020020554E4B4E4F574E204641554CD0
:10167000542061742030782530385800F0ED00E0B7
:10168000415353455254494F4E204641494C4544DD
:101690002061742025733A25750000004552524F91
:1016A00052202575205B25735D2061742025733AD7
:1016B000257500000EB5ADF80010CDE901206A4691
:1016C000002144F20100FFF789FF0EBD08B5012398
:1016D0008DF800309DF80030144B186059609A6006
:1016E0006FF48041401807D001280FD1DA60D86824
:1016F00000889861D86807E01A61186980685861A5
:1017000018690088986118694068D8611868586835
:101710009868D868186958699869D86972B600BF1E
:101720009DF800000028FBD162B608BD48240220C5
:10173000074B9B7823B12AB120B10068037C1BB111
:1017400008207047072070474174426100207047AD
:101750006824022070B508F04BFE104800240B21CD
:10176000047044700E4D817014206C602C706C708D
:10177000FFF708FA07211420FFF725FA1420FFF7D6
:101780000CFA0848046007211120FFF71CFA0548ED
:10179000001F0068A860002070BD000068240220BF
:1017A000B8000020081501402DE9F843DFF87090DB
:1017B00099F802305BB350B3052902D20720BDE887
:1017C000F88343691BB3437C012B22D000270446D6
:1017D000002588461646284600F0E2FF68460AF0D3
:1017E000ADF9C0B1012101700E4944600968C0E93A
:1017F0000218C0E904769DF8000089F80100002075
:1018000000F0FCFF1420FFF7D3F92846D7E70820A3
:10181000D5E70F46DBE70425002000F0EFFFF4E7F3
:1018200068240220041501400649897839B130B195
:10183000416921B100210174022109F0ADBC0820E9
:10184000704700006824022070B5054606484468C9
:1018500007E02946204602F009F8204600F080F90A
:101860000446002CF5D170BD4000002070B50A4838
:1018700045680EE02E7A002405E02146284600F057
:1018800021FE641CE4B2B442F7D3284600F068F9A4
:101890000546002DEED170BD400000202DE9F0413D
:1018A0000E4840F29C57456814E02E7A00240BE065
:1018B00000222146284600F069FE18B108A13846EA
:1018C00001F030F8641CE4B2B442F1D3284600F0D1
:1018D00047F90546002DE8D1BDE8F0814000002021
:1018E0002E2E5C2E2E5C2E2E5C2E2E5C2E2E5C2E32
:1018F0002E5C636F6D706F6E656E74735C6C696285
:101900007261726965735C757362645C6170705F4B
:10191000757362642E63000070B50646094806259B
:1019200044680AE03146204601F0A0FF054606283B
:1019300005D1204600F014F90446002CF2D12846C7
:1019400070BD000040000020F8B5040004D138A1AB
:101950004FF4787000F0E6FF606820B934A140F2DF
:10196000E13000F0DFFF6068006820B930A140F28C
:10197000E23000F0D7FF2068006820B12CA140F2CF
:10198000E33000F0CFFF06F06FFF10B906F076FFEE
:1019900020B927A140F2E73000F0C4FF00250FE096
:1019A000002705E0007800F0B3FB08B11120F8BD76
:1019B0003946781CC7B2304600F082F80028F1D1D1
:1019C0002946681CC5B2204600F0A2F80600E7D1FF
:1019D00000250DE0002703E00078214600F09EFB83
:1019E0003946781CC7B2304600F06AF80028F3D1B7
:1019F0002946681CC5B2204600F08AF80600E9D1E5
:101A0000194D40F20D4607E0A04203D108A130462F
:101A100000F088FF2868056828680028F4D113487A
:101A20002C60694640690090204601F01FFFF8BD18
:101A30002E2E5C2E2E5C2E2E5C2E2E5C2E2E5C2EE0
:101A40002E5C636F6D706F6E656E74735C6C696233
:101A50007261726965735C757362645C6170705FFA
:101A6000757362642E63000044000020B8BC00005F
:101A70002DE9F0410E461D461746194601F02EFF8E
:101A8000020014D0002421462B680EE0101990F8B3
:101A900001C0B44507D18F4203D101782960BDE868
:101AA000F081491CC9B200780444A342EED800205A
:101AB000F5E7000001484068704700004000002042
:101AC00070B50D46040004D106494FF4827000F051
:101AD00029FF6078A84201D8002070BDA07820447A
:101AE000284470BDD0C1000070B50D46040004D17B
:101AF00006494FF4827000F015FF6078A84201D8C3
:101B0000002070BDA0782044284470BDD0C10000E2
:101B100070B50D46040003D10649D12000F002FF44
:101B2000207AA84201D8002070BD05EB4500093499
:101B3000204470BDD0C1000070B50D46040003D133
:101B40000649D12000F0EEFE207AA84201D80020FC
:101B500070BD05EB45000934204470BDD0C10000C4
:101B600010B5040004D1044940F2D91000F0DAFEA7
:101B70002068006810BD00000824000010B50400B3
:101B800004D104A140F2D91000F0CCFE2068006816
:101B900010BD00002E2E5C2E2E5C2E2E5C2E2E5C98
:101BA0002E2E5C2E2E5C636F6D706F6E656E74737F
:101BB0005C6C69627261726965735C757362645CA6
:101BC0006170705F757362642E680000024840782F
:101BD000002800D0012070474000002070B50400AC
:101BE00004D11CA140F2754000F09CFE606820B951
:101BF00018A140F2764000F095FE6068006820B9B8
:101C000014A140F2774000F08DFE06F02DFE10B9D1
:101C100006F034FE20B90FA140F2794000F082FEB8
:101C20002068406820B10BA140F27C4000F07AFEB1
:101C3000164D40F2834608E0A04203D105A130468C
:101C400000F070FE286805682D1D28680028F3D173
:101C50002C6070BD2E2E5C2E2E5C2E2E5C2E2E5CEB
:101C60002E2E5C2E2E5C636F6D706F6E656E7473BE
:101C70005C6C69627261726965735C757362645CE5
:101C80006170705F757362642E630000480000200D
:101C900010B5040004D111A140F28E4000F042FEC4
:101CA00006F0E2FD10B906F0E9FD20B90BA14FF4F2
:101CB000926000F037FE17480BE0A14207D121687F
:101CC00049680160206800214160084610BD08682D
:101CD000001D01680029F0D1052010BD2E2E5C2EBC
:101CE0002E5C2E2E5C2E2E5C2E2E5C2E2E5C636FB8
:101CF0006D706F6E656E74735C6C6962726172692F
:101D000065735C757362645C6170705F7573626447
:101D10002E63000048000020F8B50D46464E0146EF
:101D20002A780624307801270B2A61D2DFE802F0F6
:101D300060060A0C602048252D363F00032009F07C
:101D400079FC55E0002453E03B480021001D6A4621
:101D5000FEF7C7FA28B139480760BFF36F8FBFF3AA
:101D60004F8F30780028EDD135A140F29F3009E047
:101D7000084600F0A1F804463AE00028E2D030A17D
:101D800040F2AA3000F0CEFDDCE7012804D02CA1FF
:101D90004FF46C7000F0C6FD002005E03748006885
:101DA00010F0010F0AD0022009F044FCCAE7022813
:101DB00004D223A14FF4717000F0B4FD0120F3E7C9
:101DC000A87830B1802804D01DA140F2CD3000F0B9
:101DD000A9FD1949E87808310A6832B100230B607F
:101DE00049689047040005D000E00E2406F0A0FDED
:101DF0002046F8BD09F016FC10B106F05CFDF7E7CF
:101E0000A8780028F4D11E480078082810D11C4872
:101E1000001D007800070BD119480830007810F039
:101E2000F00F05D116480C30007810F0F00FDFD01D
:101E300006F03EFDDCE70000540000205C7002402C
:101E40002E2E5C2E2E5C2E2E5C2E2E5C2E2E5C2ECC
:101E50002E5C636F6D706F6E656E74735C6C69621F
:101E60007261726965735C757362645C6170705FE6
:101E7000757362645F636F72652E6300380400409F
:101E8000E00F00F0024A0146D2E9000210470000CC
:101E90007020022070B50C46054606F003FDA842EE
:101EA00001D0102070BD0348D4E90012C0E902122D
:101EB000002070BD540000207FB5054605208DF838
:101EC000000006240DF1010006F00AFD9DF8010056
:101ED00010F01F0006D001280FD0022826D00328BA
:101EE00033D106E06946284608F0CAFB04460628B6
:101EF0002AD16846FFF710FD25E09DF8050003A9EB
:101F000000F020FB050008D06A469DF80C1000F098
:101F1000D5FA0446062802D016E0102415E06A46D9
:101F20009DF80C10284608F00FFD0CE09DF8050008
:101F3000010705D0694600F07BF80446062803D166
:101F4000684608F03FFC044624B106F0F1FC04B0FA
:101F5000204670BD09F066FB10B106F0ACFCF6E758
:101F600006F0A6FCF3E70000FEB5C08814460E4656
:101F7000A04201D2054600E01546844207D28020E7
:101F800006F05EF9B4FBF0F100FB114068B10020EF
:101F90000096CDE90150002000F002FC6946802047
:101FA00000F0EEF8040002D006E00120F0E7054959
:101FB0008020FFF76FFF0446002000F01FFC204642
:101FC000FEBD0000E8BC000008B1402101600148EE
:101FD00070470000D420022010B506F057FC20B155
:101FE00004A140F2B32000F09DFCBDE8104005F0D4
:101FF0009DBF00002E2E5C2E2E5C2E2E5C2E2E5CA5
:102000002E2E5C2E2E5C636F6D706F6E656E74731A
:102010005C6C69627261726965735C757362645C41
:102020006170705F757362642E63000005F0C0BF5D
:1020300010B50C46010600F00F02092A08D200F084
:1020400009F8006820B12146BDE8104001F00EBC3F
:10205000102010BD10B5010600F00F0408D5092CA2
:1020600004D309A14FF4937000F05CFC144808E01D
:10207000092C04D304A14FF4967000F053FC1048CF
:10208000483000EBC40010BD2E2E5C2E2E5C2E2E90
:102090005C2E2E5C2E2E5C2E2E5C636F6D706F6E30
:1020A000656E74735C6C69627261726965735C758C
:1020B0007362645C6170705F757362642E630000AC
:1020C0002820022010B5044600F00F00082805D291
:1020D000204605F0FDFF204606F026F92046BDE823
:1020E000104005F0F9BF000070B50C46054606F03B
:1020F00043F818B105480078022801D0082070BDC7
:1021000021462846BDE8704006F03EB84000002059
:1021100010B5FFF79FFF006810BD000070B50D46B9
:102120000646FFF797FF0446056015B1686800682A
:1021300008E00EB1802E04D103A14FF4A87000F086
:10214000F1FB0020606070BD2E2E5C2E2E5C2E2ECA
:102150005C2E2E5C2E2E5C2E2E5C636F6D706F6E6F
:10216000656E74735C6C69627261726965735C75CB
:102170007362645C6170705F757362642E630000EB
:1021800070B50C46054605F0F7FF18B10548007814
:10219000022801D0082070BD21462846BDE87040C5
:1021A00006F02AB94000002038B50B4D04466946B8
:1021B000E86904F0E5FC00280CD02168016069465C
:1021C000E86904F0FEFC014604480268002A01D0D8
:1021D0002046904738BD0000B8BC0000B82002205F
:1021E00070B5794C0546606820B978A14FF43C7011
:1021F00000F098FB01F032FF072804D273A140F2EF
:10220000F72000F08FFB2878062872D005DC12D268
:10221000DFE800F0667FA0838DA9822822D006DC4B
:102220000B2867D0802838D0812804D10AE0832881
:102230003ED0842845D0BDE8704064A140F2C5304E
:1022400000F070BB6F48FFF71DFE6E48FFF7FCFA09
:10225000092009F06BFC012006F06EFBFFF706FB7E
:10226000012073E0FFF702FB06F0B2FB002008F04C
:102270006BFE6448401CFFF7E7FA6248401CFFF71A
:1022800001FE0A2009F052FC207800F06FFA0028C5
:102290003ED0BDE8704004F0B3BE2078052803D0DE
:1022A000062803D0072833D102204FE008204DE054
:1022B000207803282CD106F0D5FB002828D0042054
:1022C00044E02078032805D106F0CCFB10B10420AF
:1022D00008F03AFE06F07EFC002819D0062035E012
:1022E00068886080002009F021FCA46840F2F5169F
:1022F0000CE045E03CE02946204601F0B7FA1CB965
:1023000041A1304600F00EFB20684468002CF2D159
:1023100070BDFFF7ABFA022000E0052008F014FEC4
:10232000032009F003FC2846FFF7ACFD23E003205F
:1023300009F0FCFB3348801CFFF7A4FD3148801CEA
:10234000FFF782FA20780628AED10720BDE870405A
:1023500008F0FABD032008F0F7FD022009F0E6FBC3
:102360002846FFF771FA2846BDE87040FFF78ABD9E
:102370000B2009F0DBFB2846BDE87040FFF764BA8C
:10238000A878FFF767FE0446006820B90FA14FF454
:102390006D7000F0C7FA606820B90CA140F2B5304A
:1023A00000F0C0FAD4E90002294690470028AFD0D7
:1023B000A8780107ACD000F00F010829A8D2BDE829
:1023C000704005F08FBF0000400000202E2E5C2ED4
:1023D0002E5C2E2E5C2E2E5C2E2E5C2E2E5C636FC1
:1023E0006D706F6E656E74735C6C69627261726938
:1023F00065735C757362645C6170705F7573626451
:102400002E630000C9BC00002E2E5C2E2E5C2E2EEA
:102410005C2E2E5C2E2E5C2E2E5C636F6D706F6EAC
:10242000656E74735C6C69627261726965735C7508
:102430007362645C6170705F757362642E68000023
:10244000FFF7B2BE38B5074C6946E06904F0AEFB51
:10245000002806D0FFF7C4FE6946E06904F09BFB44
:10246000012038BDB8BC000010B520B104A140F275
:102470009B1000F057FABDE810400F48FFF794BEDC
:102480002E2E5C2E2E5C2E2E5C2E2E5C2E2E5C2E86
:102490002E5C636F6D706F6E656E74735C6C6962D9
:1024A0007261726965735C757362645C6170705FA0
:1024B000757362642E630000B8BC0000114601F021
:1024C000D5B9000070B5044640680D46C2680AB12F
:1024D00020469047207AA84204D20CA140F2332033
:1024E00000F020FA29462046FFF712FB0546467801
:1024F000002408E021462846FFF7E2FA007805F0BC
:10250000B7FD641CE4B2B442F4D370BD2E2E5C2E31
:102510002E5C2E2E5C2E2E5C2E2E5C2E2E5C636F7F
:102520006D706F6E656E74735C6C696272617269F6
:1025300065735C757362645C6170705F757362640F
:102540002E6300002DE9F04180460F480E46456895
:1025500016E02F7A00240DE021462846FFF7D8FA2E
:102560000178414504D106B134702846BDE8F081B8
:10257000641CE4B2BC42EFD32846FFF7F1FA0546EB
:10258000002DE6D10020F1E74000002070B50446A0
:10259000406815460E4683681BB1204698470628BA
:1025A00009D1207AB04204D20E494FF4057000F0F0
:1025B000B9F90DB1072070BD31462046FFF7A8FAE2
:1025C00005464678002408E021462846FFF778FAB9
:1025D0000078FFF777FD641CE4B2B442F4D3002026
:1025E00070BD00000C250000034600205A681269E7
:1025F000002A01D018461047704700002DE9F84323
:10260000274D0446042384222449E86904F0A5FAEE
:1026100010B10320BDE8F88304F090FD214806F0D6
:10262000DBF80028F6D12048B4B194E80E0014304D
:1026300080E80E001D4900200870486088601A4834
:1026400048217C38FEF75DF8174848213438FEF7FA
:1026500058F8174E002411E005F120010EC9E6E7F5
:10266000002703E000783146FFF758FD3946781C13
:10267000C7B24046FFF724FA0028F3D12146641C74
:10268000E4B23046FFF744FA5FEA0008E8D1686830
:1026900000906946304601F0E9F8BBE7A41F02202C
:1026A000B8BC000041240000A4200220400000200B
:1026B00028BD00000148408870470000400000200D
:1026C00010B506F0D1F820B909A140F2BA2000F007
:1026D00029F915480168C1F3400121B1BDE8104056
:1026E0001248FFF761BD016811F0010FF2D110BD72
:1026F0002E2E5C2E2E5C2E2E5C2E2E5C2E2E5C2E14
:102700002E5C636F6D706F6E656E74735C6C696266
:102710007261726965735C757362645C6170705F2D
:10272000757362642E63000038040040BDBC000075
:10273000034808B5806800906846FFF735FD08BD7E
:10274000B8BC0000074918B1052803D30020704722
:1027500008687047044A105C0028FAD051F820003D
:10276000704700006C000020B4BD0000092808D2AA
:10277000DFE800F00707050707050505050001204C
:10278000704700207047092808D2DFE800F00707EB
:10279000050707070707050001207047002070475D
:1027A00010B507F06FFC012803D004A11D2000F034
:1027B000B9F8BDE8104000F04FB800002E2E5C2E96
:1027C0002E5C2E2E5C2E2E5C2E2E5C2E2E5C636FCD
:1027D0006D706F6E656E74735C6C69627261726944
:1027E00065735C7574696C5C6170705F7574696C3D
:1027F0005F706C6174666F726D2E630010B507F0C8
:1028000041FC012803D004A12B2000F08BF8BDE887
:10281000104000F029B800002E2E5C2E2E5C2E2ECB
:102820005C2E2E5C2E2E5C2E2E5C636F6D706F6E98
:10283000656E74735C6C69627261726965735C75F4
:1028400074696C5C6170705F7574696C5F706C61E9
:1028500074666F726D2E630072B602480168491C7F
:1028600001607047CC00002003490868401E0860E2
:1028700000D162B670470000CC00002070B505465C
:1028800008680C46411C04D006F0B7FC206806F02E
:10289000ACFB6068411C02D0002106F09DFB28794A
:1028A0001F4901EB40102968007F0028A069C1F88A
:1028B000240523D0607D227D29681043C1F86C0572
:1028C000D4E900122868C0F80C15C0F8142522E0DD
:1028D000A068411C02D0002106F07EFBE068411C8C
:1028E00004D006F08AFCE06806F07FFBD4E902120F
:1028F0002868C0F80825C0F8101570BD607D217DDE
:102900002A680843C2F86C05D4E900122868C0F8A8
:102910001425C0F80C15207D0128D9D070BD000009
:10292000D02102201CB56A46ADF8000001910021BB
:1029300044F20200FEF752FE1CBD102802D31038EC
:10294000C0B2704740F080007047000010B504002E
:1029500003D103499C20FFF7E5FFA06910BD0000EB
:1029600084C80000FEB516460D46040003D10C498C
:102970001220FFF7D7FFA0692169416061690160FA
:10298000C0E902564DB10021009101910291C16848
:10299000029182686946204690470020FEBD0000F3
:1029A00084C8000019B1012906D0062070470AB179
:1029B000002010700020704712B1001D1060F9E770
:1029C00007207047FEB50D46060003D10F49482089
:1029D000FFF7A8FF1DB90D494920FFF7A3FFB46910
:1029E000686861684143A868FDF78BFEA06858B12C
:1029F0000748C16840690091CDE90150E068029044
:102A0000A2686946304690470020FEBD84C8000099
:102A1000E8BE00003EB5050003D10B492F20FFF7AB
:102A200081FFAC69A06848B1084A07CA8DE8070071
:102A3000E0680290A268694628469047002020601E
:102A40006060A060E0603EBD84C80000E8BE000099
:102A50003EB50D46040003D10C496220FFF762FF2A
:102A60001DB90A496320FFF75DFFA069816859B16C
:102A7000074A9169126ACDE900150292C168029174
:102A8000826869462046904700203EBD84C8000009
:102A9000E8BE000070B50E4D0E7A0C4628788642CE
:102AA00003D30CA11920FFF73DFF207828B101289E
:102AB00003D0022801D0032808D16A6806EB46003B
:102AC00002EB8000617801720021817270BD00000C
:102AD000300000202E2E5C2E2E5C2E2E5C2E2E5CC6
:102AE0002E2E5C2E2E5C65787465726E616C5C6651
:102AF000617466735C706F72745C6469736B696F28
:102B00005F626C6B6465762E630000002DE9FE4FFA
:102B1000846A0E468346A0684FF48052B2FBF0F1FF
:102B20003368B2FBF0F2B3FBF1F501FB1531571A34
:102B300000FB01F57168B94200D20F4600FB07F8AF
:102B4000D6F808905FEA887004D038494FF4E570F1
:102B5000FFF7E8FEDBF8281048464A194FF0000A54
:102B60004FEA98034FF0010912F13802D0F80080C3
:102B7000D2F800C0C44510D0BCF1FF3F01D04FF0E7
:102B8000010AD1F808C0B5FBFCF809FA08FCD1F835
:102B900034804CEA080CC1F834C050F804CB42F839
:102BA00004CB5B1E05F10405E0D1BAF1000F01D0A2
:102BB00084F82E907068C01B7060306838443060B4
:102BC000B068A16807FB0100B06094F82E00B8B1AE
:102BD000A0684FF48051B1FBF0F109FA01F0616B8C
:102BE000401E0843606310B194F82D0018B1E068EE
:102BF00008B1706830B15846BDE8FE4F00F0FEB92C
:102C0000606BF0E70A49C86A496B009004F1140050
:102C1000CDE901012069029084F80090E2686946DC
:102C2000584690470020BDE8FE8F0000D4C8000041
:102C300024BF000010B5040004D1044940F2BD20B7
:102C4000FFF770FEA06A001D10BD0000D4C8000090
:102C50002DE9F04786B092468946040003D13E49EB
:102C6000F920FFF75FFE2169A56A04F1180011F051
:102C7000FF0F4ED14FF48056B6FBF1F201FB12610B
:102C8000F1BB364F396819B1112006B0BDE8F087A5
:102C90002246334904F032FE0028F6D131490022A1
:102CA000D1E90001CDE900011146684604F038FD84
:102CB0000028EAD199208DF80000002211466846CC
:102CC00004F02EFD0028E0D180469F20CDF814802E
:102CD0008DF8000004208DF8010005AA41466846E1
:102CE00004F01EFD0028D0D105A806F071FE38B111
:102CF0008168B1420DD121694068B0FBF1F000E07C
:102D000007E030B1B6FBF1F2B0FBF2F302FB1302C5
:102D10000AB10620B9E7C5E901015FEA0900C5E982
:102D2000030A4FF0010129704FF0FF312963217D23
:102D300001F0010185F82D103C600BD0CDF8088022
:102D4000CDF80C80CDF8108028690490EA6802A9BB
:102D500020469047002098E7D4C8000038010020A2
:102D600089A1000024BF000070B514460E4605007E
:102D700004D115494FF42170FFF7D4FD2846AD6A00
:102D80001EB1012E1AD0062070BD2978012901D06C
:102D9000112070BD95F82D1059B1696B49B100F043
:102DA0002DF90028F5D1012104B1217085F82C10EE
:102DB00070BD0CB100202070002070BD14B1001D4A
:102DC0002060F9E7072070BDD4C80000F0B4816A24
:102DD0004C698B680D6B04FB03F0070B88692618A0
:102DE00006FB03F24FEA123CBD4239D3654537D8A2
:102DF0004FF48052BD4213D1B2FBF3F5B4FBF5F6AC
:102E0000B2FBF3F205FB1645541B5D43A04200D212
:102E1000044603FB04F24B19C86903F1380114E0BE
:102E2000654515D1B2FBF3F7B2FBF3F2B6FBF7FC45
:102E30006A4307FB1C66141B5C43B04200D2064683
:102E4000C86903FB06F220443831F0BCFDF740BCF2
:102E5000B2FBF3F06843001B5843CB691844F3E717
:102E6000F0BC70472DE9F0410E46050004D11E4923
:102E70004FF4CB70FFF756FD26B91B4940F297106F
:102E8000FFF750FD1948AC6A0068A84202D12078CB
:102E9000012802D01120BDE8F081D6E90110326886
:102EA0002262C4E90910C8CE04F1140888E8C800F9
:102EB000022304F120062370A3685A43594304F007
:102EC00077FD070002D0012020700AE00020B060EA
:102ED0007060E06828B92078012802D0284608F000
:102EE0005EFE3846D7E70000D4C800003801002055
:102EF000FEB5050004D1134940F26D10FFF712FD35
:102F0000114EAC6A3068A84202D12078012801D065
:102F10001120FEBDE06848B10C4A07CA8DE80700E1
:102F200020690290E268694628469047002525708E
:102F300004F08CFD41F238012046FDF7E2FB002051
:102F40003560FEBDD4C800003801002044BF000039
:102F500070B50E46050004D1264940F23F20FFF728
:102F6000E1FC26B923494FF41070FFF7DBFC22483F
:102F7000AC6A0068A84202D12078012801D0112053
:102F800070BD96E8070004F1200304F1140C83E8F7
:102F9000070096E80E008CE80E00A26804F12001FC
:102FA0005043226B000B824203D12846FFF7AEFD4F
:102FB00010E094F82D1019B1284600F01FF809E030
:102FC00003212063217002034FF4805104F1380083
:102FD00004F0EEFC060002D00120207007E0E0685B
:102FE00028B92078012802D0284608F0D8FD3046BC
:102FF00070BD0000D4C800003801002030B4836ADE
:1030000093F82E20196B42B1090304201870002098
:1030100083F82E0030BC04F031BC586B90FAA0F05D
:10302000B0FA80F4986800FB04F202EB013203F17D
:10303000380104FB001005211970996830BC04F0B8
:1030400043BD000010B5040003D103499620FFF7EB
:1030500069FCE06910BD000020C90000FEB51646FD
:103060000D46040003D10D491020FFF75BFCE06919
:10307000216941602269A169B1FBF2F10160C0E9F7
:1030800002564DB10021009101910291C168029157
:1030900082686946204690470020FEBD20C9000096
:1030A00019B1012906D0062070470AB1002010701E
:1030B0000020704712B1001D1060F9E7072070472B
:1030C000022200F001B80000FEB516460C460500CD
:1030D00003D114494620FFF725FC1CB911494720AC
:1030E000FFF720FCEF69686921687A68022E01FB0E
:1030F000020014D0A16863685A43FDF7E9FAB86882
:1031000058B10020009002908DF800600194F8689A
:103110000290BA686946284690470020FEBD0146E5
:10312000A068E8E720C900003EB5050003D10B49BF
:103130002D20FFF7F7FBEC69A06848B1084A07CAE1
:103140008DE80700E0680290A2686946284690472B
:10315000002020606060A060E0603EBD20C90000EB
:1031600074BF00000322FFF7AFBF000038B504466C
:10317000042803D30BA13620FFF7D4FB1548005DCC
:103180000090684605F054FFD0F80425009B01210B
:10319000994021EA0203C0F808351140C0F80C1527
:1031A00038BD00002E2E5C2E2E5C2E2E5C2E2E5C4A
:1031B0002E2E5C2E2E5C636F6D706F6E656E747359
:1031C0005C626F617264735C626F617264732E63C0
:1031D0000000000068BC000010B50446042803D3BA
:1031E00005A11E20FFF79EFB0F480121005DBDE8F1
:1031F000104006F00CB800002E2E5C2E2E5C2E2EF9
:103200005C2E2E5C2E2E5C2E2E5C636F6D706F6EAE
:10321000656E74735C626F617264735C626F61721D
:1032200064732E630000000068BC000010B5044603
:10323000042803D305A11820FFF774FB0F480021D1
:10324000005DBDE8104005F0E2BF00002E2E5C2EB0
:103250002E5C2E2E5C2E2E5C2E2E5C2E2E5C636F32
:103260006D706F6E656E74735C626F617264735CB7
:10327000626F617264732E630000000068BC00001E
:1032800038B50446042803D30AA11120FFF74AFBEE
:103290001448005D0090684605F0CAFED0F80405A9
:1032A0000099C84010F0010000D0012080F001001A
:1032B00038BD00002E2E5C2E2E5C2E2E5C2E2E5C39
:1032C0002E2E5C2E2E5C636F6D706F6E656E747348
:1032D0005C626F617264735C626F617264732E63AF
:1032E0000000000068BC00007CB50024084E2546A4
:1032F0000122305D009500231146019505F018FE6E
:10330000641C042CF4D3BDE87C4000F003B800003A
:1033100068BC000010B500242046FFF75DFF641C68
:10332000042CF9D310BD10B500242046FFF77EFF12
:10333000641C042CF9D310BD10B50246064B4FF0A7
:10334000FF3000215C5C944201D1084610BD491C4D
:103350000429F7D310BD00006CBC00002DE9F04734
:103360000D468146FFF7E8FF0446042836D2DFF811
:1033700074801B481C4EA8F10C0725B3012D0ED0FC
:10338000022D2BD104EB440030444578002D25D08C
:10339000B968002922D02846BDE8F047084704EB69
:1033A0004401755C0E44717849B10E4A4FF40041F6
:1033B000093A8068FEF7F8F908B987F80390B17800
:1033C00008F80410E2E78068FEF72EFA04EB4401E7
:1033D000314418F804008D78A842D7D0BDE8F087B2
:1033E00070BC00002C000020781F022008B50E28B9
:1033F00009D00F280AD0102804D1064804216A46B3
:10340000FCF714FF08BD03480121F8E70148022139
:10341000F5E700001000002070B50023042810D24A
:103420000D4D00EB4004012A02D101290CD00022ED
:10343000094E00EB4000304461B1012906D0022959
:1034400006D00723184670BD0E30C2B22A55F9E7E0
:103450004270F7E78270F5E7781F022070B50646E4
:103460001E480024C0E90161B00720D500250122D3
:1034700011462846FFF7D0FF6D1C0446042D02D2EA
:10348000002CF4D013E094B940F266620421144891
:10349000FEF76CF804000AD1FEF732F8040006D1FA
:1034A0000F48104A0021001FFEF742F90446F007BA
:1034B00001D0FFF719FF74B909480B4A00210C38F5
:1034C000FEF736F9040006D10548084A01210838FC
:1034D000FEF72EF90446204670BD000020000020B3
:1034E0007CBC00003D37000085620000F91400003C
:1034F0002DE9F05F6A4C054600266078B34618B1A6
:1035000084F801B002F0A6FE664F4FF47A694FF4DA
:10351000C87A4FF00108182D62D2DFE805F0AC0C34
:103520000C31404D62676B746B74BE7D7D7D7D7D1B
:10353000ACAFB2B5BEBE0020FFF7A2FE00284FF030
:10354000000008D0FFF748FE022D02D14FF4E160E1
:1035500008E0484606E0FFF769FE022D01D1C820C9
:1035600000E05046410CC0034FF4FA72801841F15C
:103570000001257052000023FDF762F801462AE0A1
:103580000020FFF77DFE00284FF0000004D0FFF779
:1035900023FE4FF44870E5E7FFF748FEDFE7002021
:1035A000FFF76EFE00284FF0000002D0FFF714FE78
:1035B000CFE7FFF73BFED4E70020FFF761FE0028CE
:1035C0004FF0000002D0FFF707FE01E0FFF72EFEEC
:1035D000257041F69A1100223868FEF7E5F8064694
:1035E00046E00020FFF7C2FD257008E0002051E012
:1035F00025703DE084F801800120FFF7B7FD00222F
:1036000040F6CD41E8E784F801800120FFF7AEFDE8
:1036100000224FF48041DFE77868FEF705F906469F
:10362000D5F1110000D02EB10220FFF7D5FD84F8AE
:1036300002B01DE0012816D980B2C8214843C11745
:10364000C90341EA5041C0034FF4FA72801841F1B6
:10365000000152000023FCF7F3FF014600227868C6
:10366000FEF7A2F806460220FFF7E0FD84F802808C
:103670003046BDE8F09F02F0EDFDB9E702F0EAFD4B
:10368000B4E702F0E7FD04E002F0E4FD0020FFF7FC
:10369000CDFD0120FFF7CAFDAAE7FFF744FEA7E72B
:1036A0002000002070BC00002DE9F041C71C0E4630
:1036B00001250020FFF774F8124C20683060D4E92F
:1036C0000001401AA168091AFE1C06E002F060FE23
:1036D000D4E90001401AA168091A491C8E42F5D8A4
:1036E000A1682068084004EB8000C16841F0030134
:1036F000C1602068384420600020FFF77FF828462A
:10370000BDE8F0817426022030B482680468531C3E
:103710008360A154D0E901128A4202D330BC05F083
:10372000B1BA30BC70470000034803C8814201D1E0
:103730000120704700207047742602200078022183
:10374000FFF70CBE3EB5054603F0DCF903F0D6F8F2
:103750000446284601F055F905461F212046FCF78E
:10376000D0FF0849D1E901010094CDE90101694682
:103770002846FEF705FD002802D1022184F82C100E
:103780003EBD0000B8BE000005494FF0FF320828DA
:1037900041F8202002D3084480F8582070470000E8
:1037A00038210220F0B54FF0FF3512B10023082672
:1037B00001E008230C260C4C05E000BF54F82370F0
:1037C0007F1C04D05B1CB342F8D32846F0BD2618FA
:1037D0005DB286F8305044F82310002AF5D1E11884
:1037E00081F85800F1E7000038210220024908441E
:1037F00090F93000704700003821022010B50446CF
:103800000020E070401EE062204602F041FF08B157
:10381000042010BD04F22E2002F017FDA0F52A416D
:10382000553901D0032010BD94F83000E92805D0A7
:10383000EB2814D194F83200902810D104F16600DE
:1038400002F0F8FC0749B1EB002F06D004F182002A
:1038500002F0F0FC0449884201D1002010BD022092
:1038600010BD0000004641544641543370B50D462A
:10387000040003D10BA1C120FFF754F8606818B908
:1038800008A1C220FFF74EF86068006818B905A1CA
:10389000C320FFF747F86068294602682046BDE864
:1038A000704010472E2E5C2E2E5C2E2E5C2E2E5C31
:1038B0002E2E5C2E2E5C636F6D706F6E656E747352
:1038C0005C6C69627261726965735C757362645C79
:1038D0006170705F757362642E63000070B50D4691
:1038E000040003D10B49F120FFF71CF8606818B9F8
:1038F0000849F220FFF716F86068406818B90549D2
:10390000F320FFF70FF86068294642682046BDE8BB
:10391000704010470C25000070B5084C050009D018
:1039200010342168002907D00868206049682846BB
:103930008847F6E70834F4E770BD00002421022030
:103940004269891E921E8A4201D800207047826A0D
:10395000408901FB00207047F8B50646507C1446AC
:103960000D4618B9607B696A884203D3304607F078
:1039700054FAF8BD04F1080007F0F5FD206624288C
:1039800000D32420206670B3002784F86470802060
:1039900084F86500062084F86600122084F8670029
:1039A000202084F86800617B286A6A4650F821006C
:1039B0000121009703F060FA0098D0B10168082255
:1039C00004F16C00FCF7A8FE00981022416804F195
:1039D0007400FCF7A1FE00980422816804F18400C1
:1039E000FCF79AFE0EE0FFE70021304600F002FBF4
:1039F000F8BDE76627676767A767E767C4F8807061
:103A0000C4F88470032304F164013046226E07F089
:103A10001DFCF8BD2DE9F0478046907B14460E460C
:103A200002F10F050A280CD3607B716A884208D224
:103A300004F10800814607F096FD38B1207B0006AE
:103A40000AD44046BDE8F04707F0E7B94046BDE874
:103A5000F047012100F0CEBA607B316A51F8207046
:103A600084F83000D5F80200697900BA20F0FF0030
:103A700008436063484607F076FDA063384603F0CC
:103A8000D3F94068E0632146304603F05AF82064D9
:103A9000B5F8070045BA484607F065FD0246E06BF9
:103AA00000FB05F18A4201D2012200E0002284F8E5
:103AB0003120A26B8A4202D900FB152060642246A5
:103AC00031464046BDE8F04700F040B82DE9F041EE
:103AD0008046907B14460E4602F10F05062803D35C
:103AE000607B716A884204D34046BDE8F04107F02C
:103AF00094B9316A51F8207084F830006888697888
:103B000040BA01F01F0140EA0140606304F108007F
:103B100007F029FDA063384603F086F94068E063AA
:103B20002146304603F00DF820642879E16BA26B42
:103B300001FB00F3934202D201FB10206064224695
:103B400031464046BDE8F041AFF300800EB5537BEF
:103B5000086A50F82300002382F84830D364012318
:103B600082F85030536B0093136C01938969D26CC7
:103B700011440291694603F095F90EBD70B50646F1
:103B8000907B14460D460A2803D3607B696A8842FD
:103B900004D33046BDE8704007F03FB904F1080097
:103BA00007F0E1FC2066082800D308202066A8B1B1
:103BB000617B286A50F8210003F036F90168491E3C
:103BC00009BA6166406804F1640100BAA066304633
:103BD000226EBDE87040032307F038BB3046BDE8D5
:103BE0007040002100F006BA70B50546907B14467F
:103BF000062803D3607B496A884204D32846BDE87F
:103C0000704007F00AB904F1080007F0ACFC206628
:103C1000122800D31220206698B104F1640012210A
:103C20000646FCF76EFDF02084F864000B2084F853
:103C30006B0031462846226EBDE87040032307F032
:103C400005BB2846BDE87040002100F0D3B92DE93E
:103C5000F0478046907B14460E4602F10F050A2875
:103C60000CD3607B716A884208D204F10800814657
:103C700007F079FC38B1207B00060AD54046BDE844
:103C8000F04707F0CAB84046BDE8F047012100F010
:103C9000B1B9607B316A51F8207084F83000D5F8F2
:103CA0000200697900BA20F0FF00084360634846CB
:103CB00007F059FCA063384603F0B6F84068E063AB
:103CC0002146304602F03DFF2064B5F8070045BAB2
:103CD000484607F048FC0246E06B00FB05F18A42CB
:103CE00001D2012200E0002284F83120A26B8A4236
:103CF00002D900FB15206064224631464046BDE8EB
:103D0000F04700F03BB82DE9F0418046907B144627
:103D10000E4602F10F05062803D3607B716A8842C4
:103D200004D34046BDE8F04107F077B8316A51F856
:103D3000207084F83000688840BA606304F108009D
:103D400007F011FCA063384603F06EF84068E063AA
:103D50002146304602F0F5FE20642879E16BA26B23
:103D600001FB00F3934202D201FB10206064224663
:103D700031464046BDE8F041AFF3008070B50D46D6
:103D800002F1380114460EC95A43914200D80A463E
:103D9000A969E36C1944062307F073FA00280ED1D1
:103DA000002184F8511014F8502F012142F0010233
:103DB00004F80829EB6962685A406260217070BD9E
:103DC0002DE9F05F26484168F1B3DFF898B00E683E
:103DD0008146DBF8004087688078E11B21F07F4551
:103DE000ED1CB0B9DFF880804FF48030C8F8440390
:103DF000C8F804031120FCF7C5FE1120FCF7CDFE26
:103E00004FF0010AC8F800A02F2003F0B3F889F89A
:103E100002A0B54200D23546124BE8193C3320F0DF
:103E20007F401860DBF800105A46091B21F07F41E3
:103E3000001B20F07F40C91C81420FD91068186018
:103E40002F2003F097F800E004E0BDE8F05F1120B8
:103E5000FCF7AEBEBDE8F05F06F0CABABDE8F09F61
:103E6000B800002004150140001001402DE9F04188
:103E700005680F00804606D002F03EF8022809D2FD
:103E80000120BDE8F081EE6816B16869B04207D83C
:103E9000012605E0411CF4D069698142F1D83E4613
:103EA00034466869641CA04202D80224022E0AD358
:103EB0002146404602F020F838B10128E1D0411CEB
:103EC000DFD0B442EDD10020DBE74FF0FF363246C1
:103ED0002146284606F0E3F830B957B12246394664
:103EE000284606F0DCF820B101280FD00124204636
:103EF000C7E7EC60D5E90401891E884201D2401E63
:103F00002861287940F001002871F0E73446EEE797
:103F10002DE9F0410E4620300D6804460B22202189
:103F200002F04AFB0020014608232A5C401C202A9C
:103F300012D92F2A0BD05C2A09D02E2A01D09942FF
:103F400014D30B2B37D02E2A35D10CE0401C2B5C20
:103F50002F2BFBD05C2BF9D02844306059B320784C
:103F6000E52834D035E008210B23DEE7A2F18107F4
:103F70001E2F02D95F3F1C2F13D82F5C401CA7F1C6
:103F8000400CBCF13F0F04D3A7F1800CBCF17D0FB6
:103F900011D2A3F1010C61450DD26254491C675442
:103FA00013E010A700E07F1C97F800C0BCF1000FE1
:103FB00004D09445F7D10620BDE8F081A2F1610755
:103FC000192F01D8203AD2B26254491CADE705201E
:103FD0002070202A01D8042000E00020E072002098
:103FE000EAE70000222A2B2C3A3B3C3D3E3F5B5D3A
:103FF0007C7F0000FEB50F46054602F083FD02F00F
:104000007DFC0446284600F0F3FC064604F11F0040
:104010000D210546FCF775FB0DA00F490068C4F89B
:104020001F006068C4F82300606CC4F8270084F89F
:104030002B70D1E904010095CDE9010169463046B4
:10404000FEF79EF8002802D1082184F82C10FEBD4E
:104050005553425300000000B8BE0000EFF3058046
:10406000C005C00D10D0103840B2002806DA00F0AC
:104070000F0000F1E02090F8140D03E000F1E020C3
:1040800090F80004400970470F20704720BF704728
:104090002DE9F04100260125144C22E060682269D8
:1040A00000EBC607387805FA00F1114217D08A43B1
:1040B000226103F0FBF902463878E36805FA00F163
:1040C000194002FA00F3994209D17978012901D007
:1040D000012100E0002151407A6802B19047761C2E
:1040E000F6B220788642D9D3BDE8F081A400002042
:1040F0002DE9F04104460021056800F008F9002888
:1041000026D12846A16902F0C3FA02001FD1E06956
:10411000017899B1C17A01F03F01A171C17A090713
:104120000FD404F120010B2610F8013B11F8017B9C
:10413000DB1B761E04D0002BF6D002E0042206E042
:104140002BB10021204600F005F80200D9D010461E
:10415000BDE8F0812DE9F0470546076904688069EC
:104160008946203710B1B7F5001F02D30420BDE8FF
:10417000F087F90560D1401CA86169694FF000081B
:1041800029B16089401E10EA572F05D054E02089DC
:10419000B0EB571F1DD94FE0284601F0ADFE064693
:1041A00001281BD9701C33D06069B0423ED8B9F1E8
:1041B000000F0ED028466969FFF758FE06000BD0A5
:1041C000012E0BD0701C23D0204606F02DFFF8B92D
:1041D00006E0C5F81880C9E70720C8E70220C6E74F
:1041E0004FF40072002104F1300002F0E5F94FF0C5
:1041F000000831462046FFF7A3FB4FF00109E062BB
:104200000DE000BF84F80390204606F00DFF08B1D2
:104210000120ACE7E06A08F10108401CE062618916
:104220004145EFD8E16AA1EB0800E0623146204643
:104230006E61FFF785FBA861C7F3080020443030AA
:104240002F61E861002092E770B504460E46042015
:10425000256821E0284602F01BFA10BBE2691178BC
:10426000B1B1D27AE52902F03F02A2710AD02E291B
:1042700008D00F2A06D022F0200108290AD00021F8
:10428000B14210D000212046FFF764FF20B108E0C2
:10429000042006E00121F3E7A1690029DAD1002812
:1042A00001D00021A16170BD70B5044600210668EF
:1042B00000F02DF80DE03046A16902F0E9F950B99F
:1042C000E0690078E52809D040B101212046FFF7D8
:1042D00041FF0028EFD0042807D007E03046A1694D
:1042E00002F0D6F9050003D00FE0072005460CE0E8
:1042F00020220021E06902F05FF90B2204F1200185
:10430000E06902F04FF90120F070284670BD2DE9F8
:10431000F04107680E460546B1F5001F36D2F0069B
:1043200034D12E61AC6824B93878032805D37C6A6F
:104330001CB178894FEA402812E03889B0EB561F4B
:1043400024D9786A12E0284601F0D6FD0446401CC4
:104350001AD0022C1AD37869A04217D9A6EB080606
:1043600046452146EFD23846FFF7EAFAC5E905404F
:1043700060B100EB5620A861C6F308003844303025
:10438000E8610020BDE8F0810120FBE70220F9E7A9
:104390002DE9F041234C0546606818B922A133206D
:1043A000FEF7C0FA207885420DD2606805EB45071C
:1043B00050F827603EB100EB8700417AC90705D06D
:1043C000416829B106E00320BDE8F081407AFBE7AF
:1043D00023494160012181723068DFF888800068DC
:1043E00018B92149CA20FEF79DFA30682A4641468D
:1043F00003683046984710B110E040688047606815
:1044000000EB8700817A0029F7D1616801EB870111
:10441000097A19B9417A21F001014172606800EB13
:104420008700D3E7300000202E2E5C2E2E5C2E2E2F
:104430005C2E2E5C2E2E5C2E2E5C65787465726E62
:10444000616C5C66617466735C706F72745C6469E5
:10445000736B696F5F626C6B6465762E630000003E
:104460008D400000952A00008CC10000F8B51F4C5B
:104470000646154660680F4618B91DA1EA20FEF7EA
:1044800051FA2078864201D30420F8BD06EB460697
:104490002FB1012F15D0022F1CD00120F8BD012013
:1044A0008DF8000060686A46002150F8260002F08E
:1044B000CDFC08B1112815D19DF800000028F1D1DC
:1044C00010E0606850F8260070B102F09BFC0068B4
:1044D000286007E0606850F8260028B102F092FCDE
:1044E000808828800020F8BD0320F8BD300000201F
:1044F0002E2E5C2E2E5C2E2E5C2E2E5C2E2E5C2EF6
:104500002E5C65787465726E616C5C66617466734E
:104510005C706F72745C6469736B696F5F626C6B03
:104520006465762E630000002DE9FE432A4D0446A3
:104530001E4668681746884618B928A19820FEF7D5
:10454000F1F9287884420ED26EB1686804EB440415
:1045500050F8241021B100EB84014A7AD20704D02C
:104560000320BDE8FE830420FBE7CDE900760122AD
:10457000CDF808808A7250F824606F4630688068F1
:1045800018B92449EC20FEF7CDF93068406918B914
:104590002049ED20FEF7C6F930684169304688476A
:1045A00000680099884214D93068394682683046DC
:1045B000904710B10DE040688047686800EB8400C8
:1045C000817A0029F7D1686800EB8400007A00281E
:1045D000C7D00120C5E70000300000202E2E5C2E41
:1045E0002E5C2E2E5C2E2E5C2E2E5C2E2E5C657884
:1045F0007465726E616C5C66617466735C706F7218
:10460000745C6469736B696F5F626C6B6465762E52
:10461000630000008CC1000070B50A4D0446686854
:1046200018B909A18D20FEF77DF92878844201D3BD
:10463000012070BD696804EB440001EB8000407A02
:1046400070BD0000300000202E2E5C2E2E5C2E2E21
:104650005C2E2E5C2E2E5C2E2E5C65787465726E40
:10466000616C5C66617466735C706F72745C6469C3
:10467000736B696F5F626C6B6465762E630000001C
:1046800070B5214C0546606818B920A16020FEF77E
:1046900049F9207885420CD2616805EB450551F84F
:1046A000250030B101EB85014A7AD20703D0487A60
:1046B00070BD032070BD0022114602F0C7FB606888
:1046C00050F825603068406818B91E49D720FEF7B9
:1046D00029F930684168304688471128EFD010B179
:1046E00007E040688047606800EB8500817A002918
:1046F000F7D1606800EB8500017A19B9417A41F081
:1047000001014172407A70BD300000202E2E5C2ED7
:104710002E5C2E2E5C2E2E5C2E2E5C2E2E5C657852
:104720007465726E616C5C66617466735C706F72E6
:10473000745C6469736B696F5F626C6B6465762E21
:10474000630000008CC100002DE9FE432D4D04469E
:104750001E4668681746884618B92BA1BF20FEF789
:10476000E1F8287884420ED26EB1686804EB440404
:1047700050F8241021B100EB84014A7AD20704D00A
:104780000320BDE8FE830420FBE74A7A520701D5E7
:104790000220F6E7CDE900760122CDF808808A7282
:1047A00050F824606F463068C06820B924494FF43F
:1047B0008470FEF7B7F83068406920B9204940F2AC
:1047C0000910FEF7AFF83068416930468847006845
:1047D0000099884214D930683946C26830469047FB
:1047E00010B10DE040688047686800EB8400817A72
:1047F0000029F7D1686800EB8400007A0028C0D057
:104800000120BEE7300000202E2E5C2E2E5C2E2EC6
:104810005C2E2E5C2E2E5C2E2E5C65787465726E7E
:10482000616C5C66617466735C706F72745C646901
:10483000736B696F5F626C6B6465762E630000005A
:104840008CC1000070B50C46050004D104A14FF4E2
:104850009170FEF767F810484560047070BD000065
:104860002E2E5C2E2E5C2E2E5C2E2E5C2E2E5C2E82
:104870002E5C65787465726E616C5C6661746673DB
:104880005C706F72745C6469736B696F5F626C6B90
:104890006465762E63000000300000200E4910B5DC
:1048A0000A784C780023A24212D0521CD2B20A706D
:1048B000022A00D10B70084A0B780C3252F82320E0
:1048C00002608868104420F07F408860012010BD9D
:1048D0000360002010BD0000B800002070B50E4637
:1048E000054602F00FF902F009F8F17800240129D9
:1048F0000ED0032918D090F82C00022918D0801E61
:10490000082838D2DFE800F01F372337293735343D
:1049100090F82C0006282CD0082801D0012828D196
:104920002846FEF70FFF16E0012180F82C1008E062
:10493000062803D128460B2106F04EFA284606F039
:1049400048FA002070BD284606F0A4F803E00021D4
:104950002846FFF74FFB04460BE00020FDF720FF41
:10496000284606F0DDF904460020FDF747FF00E089
:104970000624204670BD034940F2AC60FDF7D2FF2B
:10498000F6E7000024C3000010B50446010600F05D
:104990000F00092804D306A140F2AE20FDF7C2FFA4
:1049A0006FEA0460C10F204661F31F1010BD0000C4
:1049B0002E2E5C2E2E5C2E2E5C2E2E5C2E2E5C2E31
:1049C0002E5C636F6D706F6E656E74735C6472697C
:1049D000766572735F6E72665C757362645C6E722C
:1049E000665F6472765F757362642E630000000018
:1049F00010B50021FDF7A0F80021FDF775F800784B
:104A000010BD10B50021FDF797F80121FDF76CF8F6
:104A1000007810BD70B50546000605F00F0402D5FC
:104A2000092C09D301E0092C08D307A140F29B20EF
:104A3000FDF778FF280601D5134801E012489038A9
:104A400000EB041070BD00002E2E5C2E2E5C2E2E6E
:104A50005C2E2E5C2E2E5C2E2E5C636F6D706F6E46
:104A6000656E74735C647269766572735F6E72668C
:104A70005C757362645C6E72665F6472765F757398
:104A800062642E63000000008022022010B50446FC
:104A9000010600F00F00092804D3034940F27E20EC
:104AA000FDF740FF204610BD8CB7000070470000A6
:104AB0000C4910B50020C8708020FFF7ABFF817B48
:104AC0000124032902D0006800280AD18020FFF7C2
:104AD0005BFF8440E1430348BDE810400C3002F026
:104AE00082B810BD90000020812005F065B88220BA
:104AF00005F062B8832005F05FB8842005F05CB84B
:104B0000852005F059B8862005F056B8872005F0B5
:104B100053B8882005F0A4B838B5144D0020E870CB
:104B2000FFF778FF817B0124032902D0006868B178
:104B300008E00020FFF728FF84400C48E1430C30D8
:104B400002F051F8BDE8384003F0B5BE0020FFF791
:104B50001BFF84400548E1430C3002F044F8044850
:104B6000C068009069686846884738BD900000209A
:104B7000C8BD0000012005F0B5B8022005F0B2B8AC
:104B8000032005F0AFB8042005F0ACB8052005F00F
:104B9000A9B8062005F0A6B8072005F0A3B80000C4
:104BA00038B5104D00200824E8702046FFF732FF8A
:104BB000817B032914D00068002811D12046FFF71B
:104BC000E3FE01218140C94305F10C0002F00BF81E
:104BD0000548406900908DF802406968684688473A
:104BE00038BD000090000020C8BD000070B5154819
:104BF00004680460BFF36F8FBFF34F8FBFF36F8FF5
:104C0000BFF34F8F03F098FC38B10F48016921F0D2
:104C1000011201F001111443016101266CB194FAF3
:104C2000A4F0B0FA80F52846FDF787FE06FA05F1F4
:104C30008C43294606F036FFF0E7BDE8704006F0E9
:104C4000C5BD00006C7402409000002010B5054CFA
:104C5000A078FFF799FE0146A078BDE8104006F065
:104C600021BF000090000020F8B51E48D0F80012C7
:104C700021F00401C0F800121B4800681B4DC6B2A9
:104C8000A878FFF781FE012404FA00F12889EA6878
:104C9000C04380B21043014202D0A87806F080FEE3
:104CA00006F08000A8700020FFF76EFE04FA00F600
:104CB0008020FFF769FE04FA00F006430B48F14339
:104CC0000C3001F090FF8020FFF75EFE8440A86862
:104CD00004430748AC60006A0090696868468847EA
:104CE000F8BD000000700240807402409000002077
:104CF000C8BD000038B5002000900B480068ADF832
:104D000002008820FFF740FE012505FA00F4082084
:104D1000FFF73AFE054985402C43886804438C60C0
:104D200049686846884738BD2075024090000020D9
:104D300070B50B4804680460BFF36F8FBFF34F8FEB
:104D4000012609E094FAA4F0B0FA80F52846FDF7B0
:104D5000F4FD06FA05F08443002CF3D170BD000089
:104D600068740240F8B51C480568284605F064F8E8
:104D7000BFF36F8FBFF34F8F184E194CE80506D560
:104D800001206070706A0090616868468847A805D5
:104D90004FF0000705D56770B06A009061686846FB
:104DA0008847680516D56078002813D005F04EF8BE
:104DB00020B10CA140F2AB40FDF7B4FD677019497A
:104DC00001200860582005F049F8F06A00906168F9
:104DD00068468847F8BD000000740240C8BD000066
:104DE000900000202E2E5C2E2E5C2E2E5C2E2E5C33
:104DF0002E2E5C2E2E5C636F6D706F6E656E7473FD
:104E00005C647269766572735F6E72665C757362FC
:104E1000645C6E72665F6472765F757362642E6343
:104E20000000000008750240054908B500204870E0
:104E3000887004484068009049686846884708BD03
:104E400090000020C8BD000038B5044600F008FC02
:104E5000002807D16946204606F088FE002801D1C7
:104E60000021216038BD00002DE9FF4F91B01D46A3
:104E700014464FF4007611A8DDF8788001F0CCF8E4
:104E8000002803DA0B2015B0BDE8F08FFE4951F879
:104E9000201009B100220A70C0B20690FFF778FA1C
:104EA000C10701D00320EEE7400701D50A20EAE759
:104EB0000CAA03210698FFF7D9FA38B90C9828B143
:104EC000B0F5004F02D8411E084201D001200C90DD
:104ED000B24624B154453AD3B4F1807F37D8601E2E
:104EE000044234D1B8FBFAFBB4FBFAF75FEA4B207B
:104EF0002C4610907DD009AA01210698FFF7B6FA3A
:104F0000002877D1129800076FEAA0104FEA906945
:104F1000099848456DD3A0EB090086460990802882
:104F200067D3802F13D812984FF6F5728007129826
:104F300040F6F57307D500F0070002287ED01298DE
:104F4000C0077BD001E0C00701D002269AE0132001
:104F500099E73D000ED100204FEA5E4C0125CB4978
:104F600001E06D00401C31F81080B8F1000F01D055
:104F7000E045F6D9BEFBF5F00AEB8001C91DB1FB97
:104F8000FAF82021039100210E91904231D9C049B5
:104F900088422ED82BE000BFDFF8F0C200204FEA95
:104FA0001E310125ACF10E0C01E06D00401C3CF8F7
:104FB0001080B8F1000F01D08845F6D9BEFBF5F09E
:104FC000984203D9042101EB400006E0012600EBE2
:104FD00040000321401C01EB50005044401EB0FB38
:104FE000FAF8012081030390B1FBFAF00E900399C7
:104FF00001E05AE034E109EB010000EB0801049004
:105000000E9808440C9900EB010C491EACF1010C00
:105010002CEA010CACEB0001032E1AD008EB0108BE
:1050200000EB0511A1EB090171453ED803990E98DB
:10503000AEEB0101A1EB0801081A00E028E0B0FB8B
:10504000F5F00790032E0ED0022E13D0012E2AD099
:105050002DE0DDF80CC08C44CDF80CC0DDF810C09C
:1050600061440491DCE7904221D8F7B96F087FF4DE
:1050700070AF1AE0904211D93FB94020B0EB450F14
:1050800003D36F003D0099D186E71298800707D5BA
:1050900003265EE76F00802FF4D906E0984206D819
:1050A000002FF7D001E0984201D90E20EBE65246DE
:1050B0000021204601F080FA0B2276A1204601F063
:1050C00071FA514604F10B0005F0DFFC657303989B
:1050D00081B204F10E0005F0D8FC01202074032EEB
:1050E0000ED0514604F1110005F0CFFC0999B1F53D
:1050F000803F07D289B204F1130005F0C6FC05E039
:105100000021EFE704F1200005F0B7FCF8206075FE
:105110003F2104F1180005F0B8FCFF2104F11A004A
:1051200005F0B3FC494604F11C0005F0A6FC5C49FF
:105130008027032E24D004F1270005F09EFC1FFADF
:1051400088F104F1160005F0A0FC84F824702920F1
:1051500084F82600132253A104F12B0001F022FA57
:1051600004F5FF704AF655210B9005F08EFC0123E3
:105170004A4621460698FFF7E7FA002870D121E059
:1051800004F1430005F079FC414604F1240005F0E8
:1051900074FC022104F12C0005F06FFC012104F1E4
:1051A000300005F072FC062104F1320005F06DFCC0
:1051B000292084F8407084F8420013223EA104F1B3
:1051C0004700CBE7032E32D1012309F10602214625
:1051D0000698FFF7B9FA52460021204601F0ECF993
:1051E0003A49204605F049FC394904F5F27005F0CA
:1051F00044FC079904F5F470491E05F03EFC0221B9
:1052000004F5F67005F039FC4AF655210B9805F0C7
:105210003CFC012309F1070221460698FFF794FAA6
:10522000012309F1010221460698FFF78DFA0021BA
:105230002046109A01F0C0F96FF00701032E02D04A
:10524000012E0ED00EE0204605F017FC4FF0FF3186
:10525000201D05F012FC6FF0704104F1080002E01F
:105260003AE01C49204605F008FC474658465F4591
:1052700000D83846804603462146049A0698FFF730
:1052800063FA48BB524628E03C000020AABC00005C
:10529000F5FFFF0FEBFE904D53444F53352E30007A
:1052A000000021484E4F204E414D452020202046F1
:1052B00041542020202020004E4F204E414D4520BB
:1052C0002020204641543332202020005252614198
:1052D00072724161F8FFFF0058E00021204601F0A2
:1052E0006BF90498B7EB080740440490BED1032E35
:1052F00000D00E9D58465D4501D9074600E02F4677
:105300003B462146049A0698FFF71EFAF0BB049824
:10531000ED1B38440490EDD1032E05D00998B0F56B
:10532000803F03D3062604E00C2602E0022E38D08C
:1053300001261298000736D452460021204601F07B
:105340003BF94AF655210B9805F09FFB04F5DF75F4
:105350000020287001216970A970E8702E710999E8
:1053600009EB010043F6C161B0FBF1F0FE21697168
:105370003F2141EA9001A971E871494605F1080011
:1053800005F07BFB05F10C00099900E013E005F046
:1053900074FB0123002221460698FFF7D5F950B986
:1053A00001E00426C5E7002211460698FFF75EF8E3
:1053B00000283FF478AD012065E5000017B581B005
:1053C000144602980090684600F026FE002802DA93
:1053D0000B2004B010BD0B4A002352F8201001B17D
:1053E0000B700199002900D00B7042F8201001D0F9
:1053F000012C01D00020ECE7002201A902A800F056
:105400001BFCE6E73C0000202DE9F7438CB00500CB
:105410000BD002F03F06324669460DA800F00CFCA6
:1054200004004FF0000804D0BFE009200FB0BDE831
:10543000F0830098019001A80D9900F023FD04006D
:1054400004D19DF82F00000600D5062416F01C0F8D
:105450004CD04CB1042C03D101A8FEF725FF044623
:1054600046F008065CB1A0E09DF80A0010F0110FAC
:1054700001D0072499E0700701D5082495E0300792
:1054800043D54D4F089839460E3005F0F6FA089886
:105490003946163005F0F1FA08992020C8720899AB
:1054A000009800F0B4FE074600220899009805F025
:1054B000D0FA089800211C3005F0DFFA009901208D
:1054C000C87007B3D1F82C900022394601A804F027
:1054D00055FF040069D14946009801F0D9F804004D
:1054E0000098A7F10107C7600BD05EE0C4BB9DF830
:1054F0000A00C10601D5042457E0B10701D5C00751
:10550000B7D1300701D546F040060098C16A29623C
:1055100008996962089900F07AFEA86008981C3022
:1055200000F088FEE860009828604FF40072C088A0
:10553000A8802E7485F81180C5F81C8005F128001C
:1055400000218146C5F8148001F036F8B0062ED54A
:10555000EE6866B36E610098A968408947020FE063
:1055600023E0284600F0C8FC0146012800D80224A8
:10557000481C02D0F61B1CB104E00124F61B01E01C
:10558000BE42EED8A96184B9F00510D00098FEF7AC
:10559000D7F970B100EB5622EA6100980123494621
:1055A0004078FEF7C1FF10B10124C5F80080204605
:1055B0003CE70224F9E700000000214813B582B05F
:1055C000040006D00022694603A800F035FB18B19C
:1055D00020E0092004B010BD009921602046039905
:1055E00000F050FC90B994F82B00000607D4A07985
:1055F000C00612D5E169009800F009FEA06000988D
:10560000C188A18020460021FEF781FE042804D035
:105610000028DFD000212160DCE70520FAE738B55B
:105620000C460546694606F0A1FA002813D101464A
:1056300028468CB1FEF708FE042801D000280AD1C4
:105640002146284600F0B7FC00212846FEF782FDDF
:10565000042800D1002038BDFEF759FE38BD0000F7
:10566000F8B50446694606F081FA00280ED1217C7F
:105670004A060BD508060ED50098E269012340784A
:1056800004F12801FFF760F808B10120F8BD207C83
:1056900000F07F002074154E216A009800F0F8FF9A
:1056A0000028F3D1656A2946E87A40F02000E872C4
:1056B000A268206805F0CDF905F11C00E16805F04D
:1056C000DCF9314605F1160005F0D7F9002105F1A6
:1056D000120005F0DAF900980121C17005F060FCB4
:1056E000217C01F0BF012174F8BD000000002148B9
:1056F00070B52648264CADF50E7D0078012520B109
:10570000208824A105EB00403CE0FAF7CFFF0346D8
:105710002EA210218AA8FBF78FFC2088132646EAC8
:1057200000408AAA2CA103F0A3FF00BF03F0AAFE49
:105730000028FBD10A228AA96846FFF765FE02000D
:105740000DD020882CA105EB004003F091FF00BF95
:1057500003F098FE0028FBD10DF50E7D70BD684664
:10576000FFF772FB0200208809D005EB00402BA157
:1057700003F07EFF03F086FE0028FBD1ECE746EA4B
:1057800000402DA103F070FFE6E700000C000020B0
:1057900010020020556E61626C6520746F206F707E
:1057A0006572617465206F6E2066696C65737973CC
:1057B00074656D207768696C652055534220697364
:1057C00020636F6E6E656374656400002530387801
:1057D0002E747874000000004372656174696E670E
:1057E0002072616E646F6D2066696C653A20257366
:1057F000202E2E2E000000000D0A556E61626C6591
:1058000020746F206F70656E206F72206372656107
:1058100074652066696C653A202575000D0A556E21
:1058200061626C6520746F20636C6F7365206669BC
:105830006C653A2025750000646F6E650D0A0000E6
:1058400070B54FF40C711B48FAF75BFF01211A4841
:10585000FEF7F8FF194C032619A1208806EB00403B
:1058600003F002FF0020FEF793FD012500282088A9
:1058700003D005EB00401AA116E006EB00401FA183
:1058800003F0F2FE012222A10A48FFF797FD020071
:105890000DD020880D2A05EB004004D01DA103F097
:1058A000E7FE002070BD20A103F0DEFEF9E7012035
:1058B00070BD00001C040220140000201002002013
:1058C000496E697469616C697A696E67206469738D
:1058D0006B2030202851535049292E2E2E000000D5
:1058E0004469736B20696E697469616C697A61746B
:1058F000696F6E206661696C65642E004D6F756E10
:1059000074696E6720766F6C756D652E2E2E0000A3
:10591000000000004D6F756E74206661696C6564EF
:105920003A202575000000004D6F756E7420666189
:10593000696C65642E2046696C6573797374656D56
:10594000206E6F7420666F756E642E20506C6561DA
:10595000736520666F726D61742064657669636536
:105960002E0000002DE9F0412B482C4C94B001781A
:105970002088012639B106EB004029A103F074FE0E
:1059800014B0BDE8F081032101EB004032A103F027
:105990006BFE37A107A8FFF711FE020004D0208894
:1059A00034A106EB00400DE0002513270DF10D0892
:1059B00001A907A8FFF733FE020006D0208835A111
:1059C00006EB004003F054FEDAE79DF80D0098B1B5
:1059D0009DF80C00C00607D52088424647EA0040E3
:1059E00033A103F045FE07E02088434647EA004024
:1059F00033A1019A03F043FE15F1010503F042FDC6
:105A00000028FBD19DF80D000028D1D120882A461E
:105A100047EA00402DA1D5E70C000020100200202D
:105A2000556E61626C6520746F206F706572617471
:105A300065206F6E2066696C6573797374656D207F
:105A40007768696C652055534220697320636F6ED7
:105A50006E656374656400000D0A4C697374696E49
:105A600067206469726563746F72793A202F000051
:105A70002F0000004469726563746F7279206C694D
:105A80007374696E67206661696C65643A20257578
:105A9000000000004469726563746F72792072655A
:105AA0006164206661696C65643A202575000000B8
:105AB0002020203C4449523E20202025730D0A001E
:105AC00025396C75202025730D0A0000456E74720F
:105AD00069657320636F756E743A2025750D0A0031
:105AE000F8B51C481C4D01260178288819B106EB31
:105AF00000401AA129E0032404EB004025A103F093
:105B0000B3FD4FF4007042000090294B012127A003
:105B1000FFF7AAF90028288803D006EB004025A14A
:105B200013E004EB004027A103F09EFD01221FA11A
:105B30002948FFF743FC0028288803D006EB0040E3
:105B400026A102E004EB004028A1BDE8F84003F0E4
:105B50008BBD00000C00002010020020556E616219
:105B60006C6520746F206F706572617465206F6E54
:105B70002066696C6573797374656D207768696CEC
:105B8000652055534220697320636F6E6E656374A0
:105B9000656400000D0A4372656174696E67206672
:105BA000696C6573797374656D2E2E2E000000008C
:105BB0001C0200204D6B6673206661696C65642E63
:105BC000000000004D6F756E74696E6720766F6C13
:105BD000756D652E2E2E00001C0402204D6F756E13
:105BE00074206661696C65642E000000446F6E6508
:105BF00000000000064810B50088032101EB0040BA
:105C000004A103F031FDBDE810400020FEF738BDCF
:105C100010020020556E2D696E697469616C697A95
:105C2000696E67206469736B203020285153504996
:105C3000292E2E2E000000002DE9FF41002790465E
:105C40000E460F6000F0E8F9050003D50B2004B004
:105C5000BDE8F081884850F825409CB13460207838
:105C600008F0FE0620B16078FEF7D6FCC1070BD025
:105C70002770E8B2B8466070FEF78AFBC10708D00B
:105C80000320E4E70C20E2E70EB1400704D4002033
:105C9000DDE71EB1400701D50A20D8E700263146CE
:105CA0002046FDF7ABFD022822D100254FEA0D0763
:105CB00004EB051090F8F21100F5F77019B10830F7
:105CC00000F0B8FA00E0002047F825006D1C042D14
:105CD000EED3002557F8256036B131462046FDF752
:105CE0008DFD022801D203E003206D1C042DF1D3A9
:105CF000042809D002286DD204F13B0000F0A5FA77
:105D0000B0F5007F66D101E00120A0E704F1460074
:105D100000F09BFA18B904F1540000F08BFAA0616E
:105D200094F84050A570012D01D0022D52D1454369
:105D300094F83D006081E8B3411E08424AD104F165
:105D4000410000F082FA2081000743D104F14300B2
:105D500000F07BFA070004D104F1500000F06AFA69
:105D6000074604F13E0000F070FA010032D02389AA
:105D7000481900EB131297422CD3B81A6789B0FB6D
:105D8000F7F0B8B103274FF6F57C604500D802273D
:105D900040F6F57C604500D80127801C3244A262A1
:105DA00031446061C4E90761032F15D013B1294460
:105DB000616200E00EE0022F1FD000F0010100EB55
:105DC000400001EB500000BFA16900F2FF10B1EBF1
:105DD000502F14D20D203AE704F15A0000F035FAA2
:105DE0000028F7D120890028F4D104F15C0000F0EC
:105DF00021FA606260698000E6E74000E4E74FF066
:105E0000FF302061E06080202071032F2CD104F14D
:105E1000600000F01AFA012826D1711C204600F01B
:105E200037FC08BB84F8048004F22E2000F00DFA41
:105E3000A0F52A41553917D104F1300000F0FAF9E4
:105E40000E49884210D104F5057000F0F3F90C49B1
:105E5000884209D104F5067000F0ECF9206104F5E0
:105E6000077000F0E7F9E06003492770091F088810
:105E7000401C0880E0800AE73C000020525261414B
:105E80007272416173B504460568019801E0401CD7
:105E9000019001782F29FAD05C29F8D00021A16067
:105EA00001980078202806D2802084F82B00204614
:105EB000FEF72DFA7CBD01A92046FEF729F800283F
:105EC000F8D12046FEF714F994F82B1028B10428D5
:105ED000F0D14907EED405207CBD4907FCD4A07958
:105EE000C006F8D5208AC0F3080041192846303191
:105EF00000F08DF9A060DEE72DE9F04104680D4661
:105F000002290BD36069A84208D920784FF0FF36E8
:105F1000012807D002282BD0032839D0012630468B
:105F2000BDE8F081206A05EB550700EB57212046BC
:105F300000F0AEFB0028F2D1C7F3080020447F1C1C
:105F400090F83080206A00EB5721204600F0A0FB3B
:105F50000028E4D1C7F30800204490F8301048EA44
:105F60000120E90701D00609D9E7C0F30B06D6E7FF
:105F7000206A00EB1521204600F08AFB0028CED1D4
:105F8000E8B204EB4000303000F05FF90646C6E7A7
:105F9000206A00EBD511204600F07AFB0028BED124
:105FA00040F2FF1000EA85002044303000F042F952
:105FB00020F07046B3E72DE9F041002305464B720F
:105FC00080690C46002825D000210A462E26E86963
:105FD000805C521C20280AD0052800D1E520092A1F
:105FE00002D16718491C7E726718491C78720B2A07
:105FF000EDD360184372E869C07A2072E8691C30FA
:1060000000F018F92060E869163000F013F9E0801C
:10601000000CA080BDE8F08110B504464FF0FF30C1
:106020002268002A13D0114600E0491C0B78212B6E
:106030000ED33A2BF9D112F8013B303B0A2B06D292
:106040008A4204D1002B02D1491C1846216010BDA0
:10605000002010BD2DE9F041124E07460125BD403C
:106060003068FBF7E1FB00280DD10F4C2069284276
:1060700007D1384601F01AFA0028E06805D0284315
:1060800004E0A8432061BDE8F081A843E0602069F6
:1060900028432061A1683068BDE8F0410022FBF789
:1060A00083BB00009CBE0000A4000020054910B581
:1060B00001200860012000F04FFF0028FAD10249BA
:1060C000487010BD04000040242102202DE9FC5F2F
:1060D0000E008346DDE90C47C6F100009846924663
:1060E000814600D40846012503E000BF90FBFAF08A
:1060F0006D1C5045FADAA84500D9454624B1002E5A
:1061000001DB780700D5641EB80702D5B8F1000F8F
:106110000AD0F80708D13CB1A54205D22021584643
:10612000641EFDF7F1FAF6E7002E02DA4E462D2145
:1061300002E0780703D52B215846FDF7E5FA07F072
:10614000030002280BD1B8F1000F08D13CB1A542E1
:1061500005D230215846641EFDF7D6FAF6E7CDE9A0
:106160000047434652463146584605F001FABDE81D
:10617000FC9F000070B50E460446007918494FF4A4
:10618000A27501EB4010017F2068A1B14FF4887126
:1061900003F06EFC4FF49071206803F069FC4FF43B
:1061A0009271206803F064FC2946206803F060FCCB
:1061B0000C49206809E04FF48E7103F048FC294631
:1061C000206803F044FC08492068C0F804132068E4
:1061D00001F0A4F83146BDE8704001F067B8000056
:1061E000D02102201003020080000200800701D0AD
:1061F00000207047012070470268134602E08A427F
:1062000004D01268002AFAD10B600160704770B5A3
:1062100006460D4601F11A0000F017F804463078E2
:10622000032805D105F1140000F00FF844EA0044FA
:10623000204670BDC178827842EA01214278007818
:1062400042EA012140EA012070474178007840EAA3
:10625000012070470A4810B5807860B1002401E041
:10626000022C06D02046FCF7B7FF641C042CF7D3A1
:1062700010BD0324F6E7BDE81040FDF74BB8000061
:106280002000002003480179C90702D00078FDF7FB
:106290002FB97047200000202DE9F047394E002724
:1062A00080463D46DFF8E090D6F804A057E003D0E2
:1062B0000446D0F81C8035E099F8002002EB42013A
:1062C000521CD2B289F8002009EBC10199F80230C2
:1062D000091D9A4201D189F8005048680A7804469D
:1062E000012A12D0022A02D0032A3BD108E004F08E
:1062F00023FF00B10127257434E00574C06900E074
:1063000070680028F9D170602CE0207C50BB886850
:106310006060C868A0600869E0604869A061F078C2
:1063200000B165606268B168184B501A20F07F4078
:10633000984202D2A168084406E0881AA16820F0B9
:106340007F40814202D9081A206000E02560656024
:106350000120A56020742046E56104F0CFFEB8F16D
:106360000000A4D199F8001099F801008142A3D14E
:1063700017B97168514502D00120BDE8F0870020AF
:10638000FBE70000B800002068240220FFFF7F0028
:1063900070B588B0244800F01FFC2348001F064653
:1063A00000F01AFC214DD5E9014105E0C0F3891246
:1063B00002EB9050641C044404EA010005EB8000E9
:1063C000C0688207F2D000200DF1080204EA010340
:1063D00005EB8303641CDB6842F82030401C032873
:1063E000F4D3029800F00300012817D002280ED041
:1063F0000F4940F22710FCF795FA3046002101AA18
:10640000FAF7D7F8002800D06C6008B070BD029889
:10641000032101EB905004EB9004EEE70298C0F3E7
:1064200083100444E9E700008C2A0220742602202D
:1064300068CD000008B500F081FE20B148A240F20E
:10644000FB11FBF737F9002001F092F820B144A2CC
:1064500040F2FD11FBF72EF9454803F081F920B118
:106460003FA24FF40071FBF725F902F0F5FF414818
:106470000321008801EB00403FA103F0F5F84149FA
:1064800000204FF400320854401C9042FBD30020FF
:1064900000F076FEFBF75EF920B131A240F20D214B
:1064A000FBF708F938490220FCF7D8FF20B12CA2ED
:1064B00040F20F21FBF7FEF8FCF716FFFFF7C0F9DB
:1064C00018B1FFF74FFAFFF713F9FFF793FB2F48C7
:1064D000FCF794F820B122A240F21A21FBF7EAF867
:1064E0002A482C38FBF730FA20B11DA240F21E21B9
:1064F000FBF7E0F825480024303801F0F3F820B12C
:1065000023A240F2BD11FBF7D5F8254EFBF79AFF09
:106510000028FBD1307884420AD0041E04D0FFF753
:1065200069FBFCF7CDF803E0FCF702F9FFF788F907
:106530001B480021001D6A46F9F76CFE0546C0079E
:1065400001D0FFF7D5F8A80701D5FFF70BFA6807C8
:1065500001D5FFF7C5FA02F095FF20BFD6E700008E
:106560002E2E5C2E2E5C2E2E5C6D61696E2E6300CD
:10657000B52600001002002048656C6C6F20555352
:10658000422100001C040020ED3300005CBC000030
:106590002E2E5C2E2E5C2E2E5C6D61696E2E63009D
:1065A0000C000020002A05D011F8013B00F8013B47
:1065B000521EF9D1704700005FFA81F100F8011B0B
:1065C000521EFBD1704700002DE9F05FC7888A4654
:1065D000191D1646B1FBF7F2B1FBF7F507FB1219CF
:1065E00099193944C91CB1FBF7F104464079C9B285
:1065F000DDF828B0884206D217499420FCF792F9BA
:1066000001E024686D1E002DFBD1A846A7EB09050B
:10661000B5421AD81CE000BFBBF1000F06D004EB56
:1066200009010AEB08002A46091D05E004EB0900F0
:106630000AEB08012A46001DFAF74AF82468761B7F
:106640004FF00009A844B74201D9354600E03D4665
:10665000002EE1D1BDE8F09F6CC9000030B50246C4
:1066600069B103F0AFF80021084C0BE001EB4103E6
:1066700004EB830315685B88AB4202D111600020F4
:1066800030BD491C8142F1D3052030BDA40100205A
:1066900070B50446C06A0D460026A8420FD02046B9
:1066A00004F0C2FC06000AD1607801232A4604F1F6
:1066B0003001FDF739FF08B1751E0126E56230464D
:1066C00070BD70B5054608780C46002819D0012821
:1066D00017D002280DD0032813D10020FCF760F852
:1066E0002146284600F07CF8BDE870400020FCF709
:1066F00085B80020FCF754F82146284600F002F83F
:10670000F2E770BD2DE9FE4FD1F808A083460E4692
:10671000504600F0F7F9804600F0F0F80446C06CEF
:10672000D4E90F5100B101207368074604F1540900
:106730000DCB89E80D00002684F84960606B05FBED
:1067400001F208446063A06B904203D905FB11007D
:10675000A06300E0A6632146404600F0F2F9206401
:1067600094F848004FF00109A0B984F85170A26D67
:1067700004F154076A4305235046E16D04F066FDB9
:1067800018B1504604F049FB04E03E607E60BE60F4
:1067900084F8489094F8500003281FD0216C0029F9
:1067A0001CD0E26CD8F81C305A40E26400D00122C0
:1067B00009FA02F3184384F85000606BCDE9000138
:1067C000D8F81800E16C084402906946584600F079
:1067D00069FB002802D0504604F01FFBBDE8FE8F85
:1067E0002DE9FE43D1F8089080460F46484600F058
:1067F00089F9064600F082F87A680446B369D4E95C
:106800000F059168994201D0012300E00023D2E9ED
:1068100000726765C4E9162194F850C0012707FA91
:1068200003F12CEA010C84F850C0002184F84910CF
:10683000636B5A196263A26B00FB05F39A4221D97C
:1068400000FB1522A263F2B105FB00F18A4224D8B5
:10685000E06CBCF1030F01D0F1694840616B00911D
:10686000216C0191B1690844029084F8497069462D
:10687000404600F03BFB002802D0484604F0CDFA29
:10688000BDE8FE83A163E163616394F8311003B056
:106890004846BDE8F043FDF7ADBB94F84830002B07
:1068A000EED105FB1028414500D28846B8F1000F13
:1068B000E6D02146304600F044F92064B069E16C2E
:1068C000062301444246484604F0DBFC20B148461A
:1068D000BDE8FE4304F0A1BA14F8510F80F00100A6
:1068E00004F8090907FA00F0217A0143217260686F
:1068F000F169484060602770C2E7000010B50400ED
:1069000003D106495F20FCF70DF8206818B9034948
:106910006020FCF707F82068083010BD24C3000091
:106920002DE9F0470E465FEA000804D1724940F2B3
:10693000BE60FBF7F7FF26B96F4940F2BF60FBF777
:10694000F1FF404600F0DEF80546FFF7D7FF0746A7
:10695000307800244FF001090B2875D2DFE800F0F1
:10696000CACA38CAC9060B46666AA3003146404601
:1069700003F060FF25E0B078000624D54446404689
:1069800000F0C0F8FFF7BAFF0146F07800284FF09A
:10699000000016D191F82C10C91E072910D2DFE88B
:1069A00001F0040F09100F100D0000212046FDF723
:1069B00021FB06E0204604F047F902E0062000E053
:1069C0000320044696E031464046FDF787FFF8E78E
:1069D000002607E0286A0022114650F8260000F041
:1069E0004BFA761C686AB042F4D883E00021032099
:1069F000FBF7A8FE05000FD0287846080D2E0BD314
:106A000001240DE0F9F74EFE006835F81410405CE3
:106A100080EA8000000602D40620BDE8F087641CEE
:106A2000B442EFD34046FBF7D9F8CAE74046FBF73C
:106A30002FF9C6E7686A102804D92F494FF4E2609D
:106A4000FBF770FF00262AE053E0286ADFF8ACA0CD
:106A500050F826804446D8F80000006818B9284944
:106A6000CA20FBF75FFF20682A465146036820468C
:106A70009847040012D1B7F8881009FA06F00143CC
:106A8000A7F88810404600F0CFF94068E9698842CD
:106A900004D9194940F21B70FBF744FF761C686A61
:106AA000B042D2D826E0686A102804D9124940F2D0
:106AB0002470FBF737FF002617E0286A50F82640BD
:106AC0002068406818B90E49D720FBF72BFF2068D3
:106AD000416820468847040006D1B7F8881009FAB3
:106AE00006F08143A7F88810761C686AB042E4D8A3
:106AF00000E00624204690E724C30000C36600009F
:106B00008CC1000010B5040003D103495320FBF7EA
:106B100009FF204610BD000024C3000070B50C0022
:106B2000054604D1054940F24170FBF7FBFE2846BB
:106B3000FFF7E8FF41692160006970BD24C30000D0
:106B40007047CA6BC069896BB0FBF2F0B1FBF2F31E
:106B5000834201D2B1FBF2F0704710B531B1B2FB04
:106B6000F3F403FB14241CB1092010BD0E2010BD4A
:106B700001600021416081608281C381084610BDAF
:106B800070B50C460546F9F749FC002802D021886B
:106B90002868084470BD10B50A8849888A4203D124
:106BA000F9F77EFC012010BD002010BD70B50C4629
:106BB0000546F9F758FC002802D061882868084487
:106BC00070BD10B50A8849888A4203D1F9F742FCA2
:106BD000012010BD002010BD08B501216A46F9F75B
:106BE000DBFC009808BD08B56A46F9F7C8FB0098B9
:106BF00008BD000070B5040003D113A1C620FBF747
:106C000091FE00252846FBF7CBFD206862680168ED
:106C1000914214D9491E01600D781CB919A189202F
:106C2000FBF780FE208AE16805FB00152068217AC9
:106C30000278891A0279C9B28A4200D20171002011
:106C4000FBF7DCFD284670BD2E2E5C2E2E5C2E2E12
:106C50005C2E2E5C2E2E5C2E2E5C636F6D706F6E24
:106C6000656E74735C6C69627261726965735C6293
:106C7000616C6C6F635C6E72665F62616C6C6F639B
:106C80002E6300002E2E5C2E2E5C2E2E5C2E2E5C93
:106C90002E2E5C2E2E5C636F6D706F6E656E74733E
:106CA0005C6C69627261726965735C62616C6C6F65
:106CB000635C6E72665F62616C6C6F632E63000072
:106CC00070B50C46050003D10FA1EA20FBF72AFEA0
:106CD0001CB90DA1EB20FBF725FE0020FBF760FDA2
:106CE0001DB918499620FBF71DFEE8682A68211A8D
:106CF000288AB1FBF0F11068431C13600170BDE8F5
:106D000070400020FBF77ABD2E2E5C2E2E5C2E2EBE
:106D10005C2E2E5C2E2E5C2E2E5C636F6D706F6E63
:106D2000656E74735C6C69627261726965735C62D2
:106D3000616C6C6F635C6E72665F62616C6C6F63DA
:106D40002E630000846C000010B5040002D020689F
:106D500030B901E00E2010BD17A1A020FBF7E2FD25
:106D6000606818B914A1A120FBF7DCFDA06818B970
:106D700011A1A220FBF7D6FDE06818B90EA1A3204F
:106D8000FBF7D0FD208A18B90BA1A420FBF7CAFDA0
:106D9000207A61682268401AC0B2116004E022685B
:106DA00011684B1C13600870401EC0B2F7D22168F6
:106DB0000020087110BD00002E2E5C2E2E5C2E2EA1
:106DC0005C2E2E5C2E2E5C2E2E5C636F6D706F6EB3
:106DD000656E74735C6C69627261726965735C6222
:106DE000616C6C6F635C6E72665F62616C6C6F632A
:106DF0002E630000C20800F007030120895C984060
:106E00000840704710B504460068406920B905493C
:106E10004FF49770FBF786FD206841692046BDE876
:106E2000104008478CC1000010B504460068406956
:106E300020B905494FF49770FBF774FD206841694C
:106E40002046BDE8104008478CC1000070B50446DC
:106E5000006815460E46006920B906494FF4907047
:106E6000FBF760FD20682A46314603692046BDE8ED
:106E7000704018478CC1000070B504460068154684
:106E80000E46006920B906494FF49070FBF74AFDA1
:106E900020682A46314603692046BDE870401847FD
:106EA0008CC1000070B5044600680D46806818B9B2
:106EB0000D49EC20FBF736FD2068406918B90A49F6
:106EC000ED20FBF72FFD20684169204688470068C8
:106ED0002968884201D8072070BD20682946826849
:106EE0002046BDE8704010478CC1000070B50446D4
:106EF00000680D46C06820B90E494FF48470FBF756
:106F000011FD2068406920B90A4940F20910FBF7D9
:106F100009FD206841692046884700682968884241
:106F200001D8072070BD20682946C2682046BDE808
:106F3000704010478CC1000000F1804000680028BC
:106F400000D00120704708B500F1804000210160A9
:106F50000068009008BD00000549096840F48030D1
:106F600001F00111814201D10120704700207047DA
:106F70000C04004000283ED01F49204A096800BF89
:106F800000BF00BF00BF00BF00BF00BF00BF9142F5
:106F90002FD000BF00BF00BF00BF00BF00BF00BFB9
:106FA00000BF00BF00BF00BF00BF00BF00BF00BFE9
:106FB00000BF00BF00BF00BF00BF00BF00BF00BFD9
:106FC00000BF00BF00BF00BF00BF00BF00BF00BFC9
:106FD00000BF00BF00BF00BF00BF00BF00BF00BFB9
:106FE00000BF00BF00BF00BF00BF00BF00BF00BFA9
:106FF00000BF0138C3D170479C0100200024F40079
:1070000010B50F4C207820B90EA140F23310FBF7D9
:1070100089FC606820B90BA14FF49A70FBF782FCE1
:107020000020FBF7BDFB6068401E6060606808B927
:10703000FFF73CF8BDE810400020FBF7DFBB000085
:10704000242102202E2E5C2E2E5C2E2E5C2E2E5CF9
:107050002E2E5C2E2E5C636F6D706F6E656E74737A
:107060005C647269766572735F6E72665C636C6F86
:10707000636B5C6E72665F6472765F636C6F636B8A
:107080002E63000070B51C4C0546207820B91BA16A
:107090004FF48970FBF746FC607838B115B1696828
:1070A000002088470020FBF77BFB13E00020FBF764
:1070B00077FB25B1104829460830FFF79DF8606836
:1070C00040B94FF48070FFF73EFF01208107C1F8FF
:1070D000040308606068401C60600020FBF78EFBC2
:1070E0006068002806D1BDE8704004A14FF4977095
:1070F000FBF718BC70BD0000242102202E2E5C2E50
:107100002E5C2E2E5C2E2E5C2E2E5C2E2E5C636F43
:107110006D706F6E656E74735C64726976657273A0
:107120005F6E72665C636C6F636B5C6E72665F64ED
:1071300072765F636C6F636B2E63000070B50E4CEC
:107140000025207808B1852513E00021A160616049
:107150002161E1604FF0E020D0F80001012610F03D
:10716000010F03D10721002000F0A0F803480660BA
:107170002670284670BD000024210220180500401A
:1071800070B51C4C0546207818B91BA1D520FBF71B
:10719000C9FBA07838B115B1696801208847002083
:1071A000FBF7FEFA15E00020FBF7FAFA25B11148CB
:1071B00029461030FFF720F8E06850B94FF482708C
:1071C000FFF7C1FE02204107C1F804031A4901205C
:1071D0000860E068401CE0600020FBF70FFBE068FF
:1071E000002805D1BDE8704003A1F120FBF79ABB50
:1071F00070BD0000242102202E2E5C2E2E5C2E2E2F
:107200005C2E2E5C2E2E5C2E2E5C636F6D706F6E6E
:10721000656E74735C647269766572735F6E7266B4
:107220005C636C6F636B5C6E72665F6472765F63E7
:107230006C6F636B2E630000080000402DE9F04185
:107240004FF480773846FFF777FE0124104EA507EC
:1072500048B13846FFF777FE0120C5F8080374707F
:107260000020FCF759FB4FF482773846FFF764FEA5
:1072700000280BD03846FFF766FE0220C5F8080349
:10728000B470BDE8F0410120FCF746BBBDE8F081D9
:107290002421022000F01F020121914040098000BA
:1072A00000F1E020C0F880117047000070B50D4675
:1072B0000446082903D31049FE20FBF733FB680777
:1072C000000E002C06DA04F00F0101F1E02181F834
:1072D000140D03E004F1E02181F8000404F01F0123
:1072E000012088406109890001F1E021C1F8800294
:1072F000C1F8000170BD000014C2000041098900FE
:1073000001F1E021D1F8001100F01F0201209040AE
:10731000014201D00120704700207047000B40B2AD
:10732000704700002DE9F0410E468046302804D316
:10733000294940F2FF10FBF7F5FA404602F09AFDAA
:1073400020B925494FF40070FBF7ECFA404602F0F3
:107350009BFD224D0028404616D0FCF747FA2844F2
:1073600090F858008009032802D001280AD003E0D1
:10737000404601F02DFF28B103214046BDE8F04111
:1073800001F03DBE0221F8E702F08AFD002820D07E
:107390004046FCF72BFA0446114F4FF4807007EB80
:1073A000840100EB8400D1F8102580B242F0010284
:1073B000C1F8102501F078FF002E0AD04046FCF7F6
:1073C00015FA55F82000002803D00120A040C7F886
:1073D0000403BDE8F081000058C2000038210220FB
:1073E000006000402DE9FC4114460E460546302859
:1073F00004D32A4940F2D110FBF794FA002728461B
:1074000002F038FD08B1082744E0F278214628460A
:10741000FCF7C8F90446401C3BD0B07868B1684618
:10742000009501F039FE009900EB8100D0F80017BB
:1074300021F00201C0F8001707E000217378284608
:1074400000910A46019101F08CFDF078C0B114481A
:10745000317800EB8400D0F81025124B1A40C0F8A8
:1074600010254FF47C524FF4403302EA052203EA20
:1074700001410A43D0F810150A43C0F8102509E06D
:1074800009483278204410F8581F41EA82110170EF
:1074900000E004273846BDE8FC81000058C2000027
:1074A00000600040FFC0FCFF3821022010B50446F8
:1074B000302804D305494FF41370FBF733FA204604
:1074C00001F086FE002800D0012010BD58C2000047
:1074D00070B5144D95F8640008B1082070BD002007
:1074E000411E2A18401CC0B282F830103028F8D350
:1074F00000242046FCF748F9641CE4B20C2CF8D3B5
:1075000007210620FFF7D2FE4FF4BE7001F0CCFE3B
:1075100005494FF00040C1F80403012085F86400DC
:10752000002070BD3821022000600040034890F820
:107530006400002800D0012070470000382102209C
:107540000121B1EB507F01D101207047002070472D
:107550000121B1EB507F01D101207047002070471D
:107560000121B1EB507F01D101207047002070470D
:1075700070B5104C217809B1852070BD00B90E4856
:107580000E4A0178C1F3400111600C4900780839B6
:1075900000F0010008604FF0E020D0F80001012564
:1075A00010F0010F03D107210020FFF77FFE2570A7
:1075B000002070BD80000020C4BD00008005004098
:1075C00070B54FF08040D0F80453354C68070DD5A6
:1075D0004FF4847002F0ECF940B1606820B931A139
:1075E00040F24110FBF79EF960688047A8060ED56F
:1075F0004FF48A7002F0DCF948B1A06820B929A1E3
:1076000040F24910FBF78EF9A16800208847680610
:107610000ED54FF48C7002F0CBF948B1A06820B9B8
:1076200020A14FF4A870FBF77DF9A16801208847DD
:1076300028060ED54FF48E7002F0BAF948B1E06812
:1076400020B918A140F25910FBF76CF9E16800204D
:107650008847E8050ED54FF4907002F0A9F948B1BB
:10766000E06820B90FA14FF4B070FBF75BF9E16857
:1076700001208847A80511D54FF4927002F098F9BF
:1076800000280BD0E06820B906A140F26710FBF794
:1076900049F9E168BDE870400220084770BD00006C
:1076A000800000202E2E5C2E2E5C2E2E5C2E2E5C5A
:1076B0002E2E5C2E2E5C636F6D706F6E656E747314
:1076C0005C647269766572735F6E72665C706F7708
:1076D00065725C6E72665F6472765F706F776572FA
:1076E0002E63000000B5024600F00EF8106838B1B5
:1076F0000449C8604FF080414FF46070C1F8040342
:10770000002000BD800000204FF080414FF46070E9
:10771000C1F8080301490020C860704780000020BC
:107720002DE9F041434C064615462079884618B9A4
:1077300041A18220FBF7F6F8607910B11120BDE875
:10774000F0814D4CA1150027C4F80071B8F1000F6D
:107750002DD0727800200A2A29D2DFE802F02828EA
:10776000231F1B17110D090598F8072040EA026036
:1077700098F8062040EA024098F8052040EA0220E6
:1077800098F804200243C4F83C26002098F803200F
:1077900040EA026098F8022040EA024098F801208E
:1077A00040EA022098F800200243C4F8382601205D
:1077B000C4F808033088B278337940EA0230F278AE
:1077C000520342EA83321043727940EAC230C4F86D
:1077D000340688464146204602F0F4F80028F9D0E5
:1077E000C4F800710120C4F804030DB37178D4F813
:1077F0003C0606290BD0072907D0082903D0092900
:1078000006D1020EEA71020CAA71020A6A7128718D
:10781000D4F8380606290BD2DFE801F00A0A090776
:107820000503010EE970010CA970010A6970287046
:10783000002084E7A02102202E2E5C2E2E5C2E2E0E
:107840005C2E2E5C2E2E5C2E2E5C636F6D706F6E28
:10785000656E74735C647269766572735F6E72666E
:107860005C717370695C6E72665F6472765F71736F
:1078700070692E63000000000090024070B505465C
:107880000C480C46007918B90BA1F720FBF74AF811
:107890002046FEF7ABFC18B907A1F920FBF742F828
:1078A0001548C0F81C45C0F82055BDE870400C20B4
:1078B00002F044BDA02102202E2E5C2E2E5C2E2E26
:1078C0005C2E2E5C2E2E5C2E2E5C636F6D706F6EA8
:1078D000656E74735C647269766572735F6E7266EE
:1078E0005C717370695C6E72665F6472765F7173EF
:1078F00070692E6300000000009002402DE9F047FF
:10790000284E0446914630790F4610B10820BDE854
:10791000F087204602F0DAFCF0B3A079E17940EA82
:10792000C100217A40EA8110617A01B101211E4D26
:1079300040EAC110C5F84405D5F800061B490840C7
:10794000A17A0143E07A00B1012041EA0060217B85
:1079500040EA4160617B40EA0170C5F800064FF0E3
:10796000000886F80580C6F8089001203760C5F841
:1079700008031FB1A17B2920FFF798FC012030717B
:10798000C5F800050402C5F8008128602146284694
:1079900002F018F8002800E002E0F7D00020B6E777
:1079A0000720B4E7A02102200090024000FFFF0062
:1079B00070B50446134815460E46007918B912A151
:1079C000E620FAF7AFFF1CB90FA1E720FAF7AAFFEC
:1079D0002046FEF70BFC18B90BA1E920FAF7A2FF2D
:1079E0002046FFF7ADFD58B11748C0F80455C0F860
:1079F0000845C0F80C65BDE87040042002F09EBC4C
:107A0000102070BDA02102202E2E5C2E2E5C2E2E6A
:107A10005C2E2E5C2E2E5C2E2E5C636F6D706F6E56
:107A2000656E74735C647269766572735F6E72669C
:107A30005C717370695C6E72665F6472765F71739D
:107A400070692E63000000000090024010B50B4CDE
:107A5000207918B90AA1C220FAF764FF1848012159
:107A6000C0F808130021C0F80015164B4215C3F8E2
:107A70008021C0F80011217110BD0000A02102205A
:107A80002E2E5C2E2E5C2E2E5C2E2E5C2E2E5C2E30
:107A90002E5C636F6D706F6E656E74735C6472697B
:107AA000766572735F6E72665C717370695C6E721C
:107AB000665F6472765F717370692E630000000008
:107AC0000090024004E000E070B5044613481546FB
:107AD0000E46007918B912A1D320FAF723FF1CB97A
:107AE0000FA1D420FAF71EFF2046FEF77FFB18B93E
:107AF0000BA1D620FAF716FF2046FFF721FD58B15B
:107B00001748C0F81055C0F81445C0F81865BDE80E
:107B10007040082002F012BC102070BDA02102208D
:107B20002E2E5C2E2E5C2E2E5C2E2E5C2E2E5C2E8F
:107B30002E5C636F6D706F6E656E74735C647269DA
:107B4000766572735F6E72665C717370695C6E727B
:107B5000665F6472765F717370692E630000000067
:107B60000090024010B50446B0F5000F03D307495A
:107B70006C20FAF7D7FE4FF0E020816982698A1AFB
:107B800022F07F42A242F9D310BD0000E0C2000003
:107B900070B50B4D04460B4E28680B49B0FBF6F050
:107BA000B1FBF0F0A04203D208497720FAF7BAFE01
:107BB0002868B0FBF6F06043BDE87040FFF7D2BF25
:107BC0009C01002040420F00FFFF7F00E0C2000048
:107BD0004FF0E0206FF07F41416105210161704766
:107BE0002DE9F04190460D00064603D118A1EA2088
:107BF000FAF798FE3079264F07EB4014E07E10B17B
:107C00000820BDE8F081687F207729463046FAF7E2
:107C100035FE5FEA080060602969216003D0297F92
:107C20003046FEF7A7FA307907EB4010007F0028B6
:107C3000306801D0082100E00421C0F800150020C0
:107C4000E0752076A0750121E176A076D9E70000E5
:107C50002E2E5C2E2E5C2E2E5C2E2E5C2E2E5C2E5E
:107C60002E5C636F6D706F6E656E74735C647269A9
:107C7000766572735F6E72665C756172745C6E724B
:107C8000665F6472765F756172742E630000000037
:107C9000D02102202DE9F0470E460179DFF8288136
:107CA000044608EB41151746E87E012804D047A199
:107CB0004FF4B970FAF736FE27B944A140F27310B9
:107CC000FAF730FE26B941A14FF4BA70FAF72AFE4E
:107CD000217908EB4110007F18B13046FFF738FCDE
:107CE00030B1204600F092F820B11120BDE8F087B5
:107CF0001020FBE7AF750027AE60AF8221793E46CA
:107D000008EB41154FF00108287F0028206825D096
:107D10004FF49079494601F0ABFE4FF4AC7A5146EE
:107D2000206801F0A5FE2068A97DAA68C0F8442556
:107D3000C0F848152068C0F808806868F0B949465E
:107D4000206801F090FE80465146206801F08BFECD
:107D500058EA0001F3D058BBAF750FE04FF48E7AAC
:107D6000514601F074FE2068C0F80880294620685A
:107D700003F0A2FA69684FF4807089B13046B5E724
:107D80005146206801F05EFE10B9A88A4845F7D137
:107D9000A88A484505D02946206803F08DFA00E0FE
:107DA0008146A88AA97D8842EAD3A88A484501D19C
:107DB0000F26D1E75146206801F044FE0028F9D093
:107DC0002068C0F80C80C7E7D02102202E2E5C2E40
:107DD0002E5C2E2E5C2E2E5C2E2E5C2E2E5C636F67
:107DE0006D706F6E656E74735C64726976657273C4
:107DF0005F6E72665C756172745C6E72665F6472EF
:107E0000765F756172742E6300000000007904498A
:107E100001EB4010807D002800D001207047000059
:107E2000D021022070B5044600791149002601EBEB
:107E3000401520682A7FC0F80065686888B12079FD
:107E400001EB4010007F0028206801D0094901E0C3
:107E500008498C39C0F808132068FFF75FFAFFF76C
:107E600019FA204602F028F8EE766E6070BD000028
:107E7000D02102201003020003490248C1F8040384
:107E80007047000004148001007002402DE9F041A9
:107E90001D46174606460C46AA4204D213A140F2DC
:107EA000C510FAF73FFD206838B1FFF759FB20B93C
:107EB0000EA14FF4E370FAF735FD6068A84204D2D2
:107EC000002171602168316007E075602168401B06
:107ED00031606060216829442160AF4203D110B154
:107EE0000120BDE8F0810020FBE700002E2E5C2E73
:107EF0002E5C2E2E5C2E2E5C2E2E5C2E2E5C636F46
:107F00006D706F6E656E74735C64726976657273A2
:107F10005F6E72665C757362645C6E72665F6472DB
:107F2000765F757362642E630000000010B50D4C1F
:107F3000207820B90CA140F29E60FAF7F3FC00F023
:107F400047FD1949D1F80403C1F808031749002077
:107F50000860BFF36F8FBFF34F8FE0700120207078
:107F600010BD0000900000202E2E5C2E2E5C2E2EC8
:107F70005C2E2E5C2E2E5C2E2E5C636F6D706F6EF1
:107F8000656E74735C647269766572735F6E726637
:107F90005C757362645C6E72665F6472765F757343
:107FA00062642E6300000000007002400075024011
:107FB00070B51A4C2078012804D019A140F27D60D8
:107FC000FAF7B0FC4FF40065284601F035FF24496C
:107FD00001200860BFF36F8FBFF34F8F2148016806
:107FE0000905FCD5284601F027FF1F4940F2E37040
:107FF00008604020091D0860BFF36F8FBFF34F8FEB
:10800000174980201C31086040F2FF10A06000205A
:10801000E060E070A0700220207070BD9000002031
:108020002E2E5C2E2E5C2E2E5C2E2E5C2E2E5C2E8A
:108030002E5C636F6D706F6E656E74735C647269D5
:10804000766572735F6E72665C757362645C6E7285
:10805000665F6472765F757362642E630000000071
:1080600000750240007402400078024003F098BCA2
:1080700070B5054603F094FC2846FCF707FD04465E
:1080800000F00F00092804D30E4940F2E240FAF74D
:1080900049FC04F00F0122064FF0010001D50A4A05
:1080A00001E0094A121D1368884083431360BFF33F
:1080B0006F8FBFF34F8F284600F062F90349C1F874
:1080C000080370BD988B00001075024000700240DC
:1080D000012101F0D3BC000070B5054600F050F955
:1080E0002149C1F80403284601F014FD00283AD1C3
:1080F0002846FCF7CBFC044600F00F00092804D307
:108100001A4940F2D140FAF70DFC04F00F002106A5
:108110004FF0010401D5164901E01549091D0A680F
:1081200004FA00F002430A60BFF36F8FBFF34F8F72
:10813000280718D0280616D405F00F00082812D2F8
:108140000020FAF72DFB284600F0BAFC2846FCF781
:108150001BFC84400748C168A143C160BDE8704072
:108160000020FAF74BBB70BD00700240988B0000F6
:10817000107502409000002010B5FCF787FCBDE8A8
:10818000104001F0C7BC00002DE9F0410E46074643
:10819000FCF7FAFB054626B918A14FF4FD60FAF783
:1081A000C1FB0020FAF7FCFA244C380704D1A07870
:1081B000874201D010241BE02089E168C04380B2CF
:1081C0000843012101FA05F5284201D011240FE0EE
:1081D0003846FCF71FFC002181603268026072683B
:1081E00042608173E0680543E5600C4603F07AFC69
:1081F0000020FAF703FB2046BDE8F0812E2E5C2E0E
:108200002E5C2E2E5C2E2E5C2E2E5C2E2E5C636F32
:108210006D706F6E656E74735C647269766572738F
:108220005F6E72665C757362645C6E72665F6472C8
:10823000765F757362642E6300000000900000207A
:1082400010B5FCF7E7FB808910BD000070B50C008D
:10825000054602D0601E044204D011A140F22D70E8
:10826000FAF760FB05F00F0008280CD31C480068E3
:10827000C1B2802904D04FF48060A0420AD204E049
:108280004FF40070F9E7402C04D905A140F22F709B
:10829000FAF748FB2846FCF7BDFB848170BD00005F
:1082A0002E2E5C2E2E5C2E2E5C2E2E5C2E2E5C2E08
:1082B0002E5C636F6D706F6E656E74735C64726953
:1082C000766572735F6E72665C757362645C6E7203
:1082D000665F6472765F757362642E6300000000EF
:1082E0001C75024010B5FCF7D1FB044600F00F00EE
:1082F000082804D3064940F2FB40FAF713FB05496E
:1083000044F480700860BFF36F8FBFF34F8F10BDD0
:10831000988B00001875024010B5FCF7B7FBBDE85C
:10832000104001F033BC000010B5FCF7AFFB044671
:1083300000F00F00082804D3054940F20350FAF773
:10834000F1FA04480460BFF36F8FBFF34F8F10BD85
:10835000988B00001875024070B50D46FCF75AFB6B
:1083600004460020FAF71CFAA0682860206828B1AB
:1083700011240020FAF742FA204670BDA47BF8E7EA
:1083800070B50546000605F00F0402D5092C09D387
:1083900001E0092C08D307A14FF4C770FAF7C2FA1D
:1083A000280601D5134801E012480930015D01207B
:1083B000884070BD2E2E5C2E2E5C2E2E5C2E2E5CE8
:1083C0002E2E5C2E2E5C636F6D706F6E656E7473F7
:1083D0005C647269766572735F6E72665C757362F7
:1083E000645C6E72665F6472765F757362642E633E
:1083F0000000000088BE00002DE9F0410D46064651
:10840000FCF7C2FA044625B930A140F27970FAF7B8
:1084100089FA0020FAF7C4F93C48310704D1817881
:108420008E4201D0102438E001898046C943C068DB
:1084300089B201270143A740394201D011242CE021
:108440003046FCF7E7FA044606F00F00310600EB71
:1084500040002AD52E4901EB80062868FFF780F8F6
:108460000028287A4FEAC07004D008B1294803E0F8
:10847000294801E0B8B12948206095E8070086E85E
:1084800007000020C4E90160A073D8F80C1004466E
:108490000F43C8F80C7003F025FB0020FAF7AEF983
:1084A0002046BDE8F0811E48E6E719496C3101EB32
:1084B0008006286838B1FFF753F820B903A140F2CD
:1084C000D270FAF72FFA1748D6E700002E2E5C2E4E
:1084D0002E5C2E2E5C2E2E5C2E2E5C2E2E5C636F60
:1084E0006D706F6E656E74735C64726976657273BD
:1084F0005F6E72665C757362645C6E72665F6472F6
:10850000765F757362642E630000000090000020A7
:108510001023022045870000C18600001986000054
:10852000798500008D7E000010B5FCF7AFFABDE83C
:10853000104001F041BC00000C480078082810D120
:108540000A48001D007800070BD108480830007861
:1085500010F0F00F05D105480C30007810F0F00F46
:1085600001D000207047012070470000E00F00F0AC
:1085700000487047E82302202DE9F0418046164666
:108580000C460868FEF7ECFF20B112A140F22E2045
:10859000FAF7C8F965681F4FB54200D93546402D36
:1085A00004D90CA14FF40E70FAF7BCF92A463846EC
:1085B0002168F8F78DF8C8E900756068401B6060B5
:1085C0002068284420606068002800D00120BDE8B1
:1085D000F08100002E2E5C2E2E5C2E2E5C2E2E5C4A
:1085E0002E2E5C2E2E5C636F6D706F6E656E7473D5
:1085F0005C647269766572735F6E72665C757362D5
:10860000645C6E72665F6472765F757362642E631B
:1086100000000000E82302202DE9F04106469046C4
:108620000D460868FEF79CFF20B114A14FF41570A9
:10863000FAF778F96C68214F4046444500D9044662
:10864000402C04D90DA140F25E20FAF76BF934B149
:10865000224638462968F8F73BF8376001E00020E9
:10866000306074606868001B686028682044286077
:1086700014B10120BDE8F0810020FBE72E2E5C2E16
:108680002E5C2E2E5C2E2E5C2E2E5C2E2E5C636FAE
:108690006D706F6E656E74735C647269766572730B
:1086A0005F6E72665C757362645C6E72665F647244
:1086B000765F757362642E6300000000E823022079
:1086C0002DE9F041074616460C460868FEF748FFBC
:1086D00020B90CA14FF4F670FAF724F96568B54299
:1086E00000D935462068C7E900056068401B606016
:1086F0002068284420606068002800D00120BDE880
:10870000F08100002E2E5C2E2E5C2E2E5C2E2E5C18
:108710002E2E5C2E2E5C636F6D706F6E656E7473A3
:108720005C647269766572735F6E72665C757362A3
:10873000645C6E72665F6472765F757362642E63EA
:10874000000000002DE9F041074616460C46086877
:10875000FEF706FF20B910A140F20D20FAF7E2F86B
:108760006568B54200D93546002D0FD0D4F8000019
:10877000C7E900056068A0EB050060602068284438
:10878000206006D04FF00100BDE8F0814FF00000FE
:10879000EEE74FF00000F7E72E2E5C2E2E5C2E2E1B
:1087A0005C2E2E5C2E2E5C2E2E5C636F6D706F6EB9
:1087B000656E74735C647269766572735F6E7266FF
:1087C0005C757362645C6E72665F6472765F75730B
:1087D00062642E63000000002DE9F0410446FFF7BB
:1087E000ABFE08B1FFF7F4F92CB11E49087820B1AF
:1087F0000820BDE8F0810720FBE74C600120002441
:10880000087046024FEA040544F0800707F00F00A5
:10881000082801D3314600E040213846FFF716FD15
:108820003846FCF7F7F88573641C0560E4B2856090
:10883000092CE9D35FF0000404F00F00082801D3ED
:10884000314600E040212046FFF700FD2046FCF7BE
:10885000E1F88573641C0560E4B28560092CEBD3F4
:108860000020C6E79000002003480078022801D3CA
:1088700001207047002070479000002002480078D7
:10888000002800D0012070479000002010B5FFF7AD
:10889000EBFF28B12720FEF731FD08B1012010BD04
:1088A000002010BD01488078704700009000002033
:1088B000502001F0D3BA10B5FFF73EFE58B1EFF3E8
:1088C000108472B64C2001F0C9FA4C2001F0C6FAAF
:1088D00084F3108810BDBDE810404C2001F0BEBAF2
:1088E0000021016041601149096801700F49091DAB
:1088F000096841700D49083109680C4A0C32126848
:1089000041EA02214180094910310968074A1432BD
:10891000126841EA02218180044918310968034A3A
:108920001C32126841EA0221C18070478074024003
:10893000542001F093BA000070B5104C0546207821
:10894000022804D00EA140F2AC60F9F7EBFF002042
:1089500060701B4C15B9FFF7EFFD00B1194C1A48B8
:10896000C0F8044307212720FEF7A0FC1749012087
:108970000860BFF36F8FBFF34F8F70BD9000002072
:108980002E2E5C2E2E5C2E2E5C2E2E5C2E2E5C2E21
:108990002E5C636F6D706F6E656E74735C6472696C
:1089A000766572735F6E72665C757362645C6E721C
:1089B000665F6472765F757362642E630000000008
:1089C0000714C0030714E00300700240047502405E
:1089D000104810B50078022804D00FA140F2CB60F7
:1089E000F9F7A0FF2720FEF789FC002810D003F03C
:1089F00039F8194900200860BFF36F8FBFF34F8F1C
:108A000016498020C1F8800148171549C1F80803AC
:108A100010BD0000900000202E2E5C2E2E5C2E2E0D
:108A20005C2E2E5C2E2E5C2E2E5C636F6D706F6E36
:108A3000656E74735C647269766572735F6E72667C
:108A40005C757362645C6E72665F6472765F757388
:108A500062642E63000000000475024004E000E040
:108A60000070024010B500242046F9F799FE0C482A
:108A7000407878B102F0F6FF0A480168890509D408
:108A8000094901220A600068800502D500200860BB
:108A900000E001240020F9F7B1FE204610BD0000DF
:108AA00090000020007402402C75024003490248E7
:108AB000C1F80803704700000414800100700240F0
:108AC0002DE9F0410446000604D521A140F67200CC
:108AD000F9F728FFFFF730FD01274FF000082C4D74
:108AE000002804F00F06404612D0F9F759FE204640
:108AF000FBF74AFF8740A8682649B843A86040F2C0
:108B0000C57000EB46000860091DC1F800801AE03E
:108B1000F9F746FE2046FBF737FF8740A868B843C1
:108B2000A860200601D4082E04D31BA140F28E4079
:108B3000F9F7F8FE264A02EB8601C1F8A084BFF3DC
:108B40006F8FBFF34F8FBDE8F0410020F9F756BE9D
:108B50002E2E5C2E2E5C2E2E5C2E2E5C2E2E5C2E4F
:108B60002E5C636F6D706F6E656E74735C6472699A
:108B7000766572735F6E72665C757362645C6E724A
:108B8000665F6472765F757362642E630000000036
:108B900090000020007802402E2E5C2E2E5C2E2E9F
:108BA0005C2E2E5C2E2E5C2E2E5C636F6D706F6EB5
:108BB000656E74735C647269766572735F6E7266FB
:108BC0005C68616C5C6E72665F757362642E6800CF
:108BD0000070024010B500242046F9F7E1FD074877
:108BE000407830B101F032F918B105490020086031
:108BF00001240020F9F702FE204610BD900000205D
:108C00002C7502400FB438B5040003D110A11C200C
:108C1000F9F788FE606918B90DA11D20F9F782FEE9
:108C2000206818B90AA11E20F9F77CFE606818B9FF
:108C300007A11F20F9F776FE0599002905D006A89F
:108C400000906A46204600F049F838BC5DF814FBF5
:108C50002E2E5C2E2E5C2E2E5C2E2E5C2E2E5C2E4E
:108C60002E5C65787465726E616C5C667072696E9C
:108C700074665C6E72665F667072696E74662E638F
:108C80000000000010B5040003D107A10B20F9F784
:108C900049FEA268002A05D0D4E904032168984758
:108CA0000020A06010BD00002E2E5C2E2E5C2E2E0B
:108CB0005C2E2E5C2E2E5C2E2E5C65787465726E9A
:108CC000616C5C667072696E74665C6E72665F661B
:108CD0007072696E74662E63000000002DE9FC4717
:108CE00091460C465FEA000804D183A14FF49F70BF
:108CF000F9F718FED8F8140020B97FA14FF4A0703E
:108D0000F9F710FED8F8000020B97BA140F241101D
:108D1000F9F708FED8F8040020B977A14FF4A17044
:108D2000F9F700FE002C76D014F8011B39B1252983
:108D30000ED04046FAF7E8FC20780028F4D198F8E5
:108D40000C00002867D04046BDE8FC47FFF79ABFFB
:108D50000020012221782B291BD02D2902D0302977
:108D600008D102E040F0010001E040F00200641C84
:108D7000002AEFD100252A290ED02178A1F1300256
:108D80000A2A11D205EB850201EB4205641C303D35
:108D9000F1E740F00400EAE7D9F800100B1DC9F82C
:108DA00000300968641C0D44217800232E290BD162
:108DB00014F8011FA1F130020A2A05D203EB830245
:108DC00001EB4203303BF3E76C290DD068290BD04F
:108DD000692921D00BDC252918D0582931D06329E5
:108DE0000ED0642915D117E014F8011FECE77029A3
:108DF00069D0732932D075291BD0782909D120E098
:108E0000D9F80000011DC9F8001001784046FAF7B2
:108E10007BFC641C90E76CE0D9F800100A1DC9F8CF
:108E200000200968CDE900500A224046FDF74EF9BE
:108E3000EFE7D9F800100A1DC9F8002009680A22D6
:108E400006E0D9F800100A1DC9F8002009681022B0
:108E5000CDE90050404602F08BFBDAE7D9F800106C
:108E600000270A1DC9F800200E68C00705D112E0CE
:108E70004046761C7F1CFAF747FC31780029F7D171
:108E800004E0202140466D1EFAF73EFCBD42C0D9E9
:108E9000002DF6D1BDE74EB13046F7F749FC074645
:108EA00004E0202140466D1EFAF72EFCBD4206D993
:108EB000002DF6D103E04046761CFAF725FC317808
:108EC0000029F8D1A5E7D9F80000011DC9F8001064
:108ED000056830214046FAF717FC78214046FAF73A
:108EE00013FC08200021CDE9000103461022294689
:108EF000B0E7BDE8FC8700002E2E5C2E2E5C2E2EE7
:108F00005C2E2E5C2E2E5C2E2E5C65787465726E47
:108F1000616C5C667072696E74665C6E72665F66C8
:108F20007072696E74665F666F726D61742E630035
:108F30002DE9FF411C46DDE90A7815460E466846D4
:108F400000F076F846EA450141EA840141EA072249
:108F500042EA0841009A00EB8200C0F80017BDE821
:108F6000FF812DE9FF411C46DDE90A7815460E46D2
:108F7000684600F091F846EA450141EA840141EA79
:108F8000072242EA0841009A00EB8200C0F800176D
:108F9000BDE8FF812DE9FF411C46DDE90A78154651
:108FA0000E46684600F0E0F846EA450141EA8401D1
:108FB00041EA072242EA0841009A00EB8200C0F829
:108FC0000017BDE8FF811CB5002100910B4601226E
:108FD0000191FFF7DFFF1CBD1CB500220B4600927C
:108FE00011460192FFF7D6FF1CBD1CB50021009170
:108FF0000B46012201911146FFF7CCFF1CBD13B5B2
:109000000C46684600F048F8009900EB8101D1F861
:10901000002722F44032C1F80027009900EB8100BC
:10902000D0F8001741EA0441C0F800171CBD000049
:1090300010B504460068302804D308A14FF4D57059
:10904000F9F770FC2068202802D24FF0A04010BD34
:1090500000F01F0020600F4810BD00002E2E5C2E77
:109060002E5C2E2E5C2E2E5C2E2E5C2E2E5C636FC4
:109070006D706F6E656E74735C6472697665727321
:109080005F6E72665C68616C5C6E72665F67706969
:109090006F2E68000003005010B5044600683028A9
:1090A00004D308A14FF4D570F9F73CFC20682028C0
:1090B00002D24FF0A04010BD00F01F0020600F480A
:1090C00010BD00002E2E5C2E2E5C2E2E5C2E2E5CF3
:1090D0002E2E5C2E2E5C636F6D706F6E656E7473DA
:1090E0005C647269766572735F6E72665C68616CEF
:1090F0005C6E72665F6770696F2E680000030050D7
:1091000010B504460068302804D308A14FF4D57088
:10911000F9F708FC2068202802D24FF0A04010BDCB
:1091200000F01F0020600F4810BD00002E2E5C2EA6
:109130002E5C2E2E5C2E2E5C2E2E5C2E2E5C636FF3
:109140006D706F6E656E74735C6472697665727350
:109150005F6E72665C68616C5C6E72665F67706998
:109160006F2E68000003005010B5044600683028D8
:1091700004D308A14FF4D570F9F7D4FB2068202858
:1091800002D24FF0A04010BD00F01F0020600F4839
:1091900010BD00002E2E5C2E2E5C2E2E5C2E2E5C22
:1091A0002E2E5C2E2E5C636F6D706F6E656E747309
:1091B0005C647269766572735F6E72665C68616C1E
:1091C0005C6E72665F6770696F2E68000003005006
:1091D00001B56846FFF760FFD0F810050099C84058
:1091E00000F0010008BD01B56846FFF789FF009A4D
:1091F00001219140C0F8081508BD01B56846FFF788
:10920000B3FF009A01219140C0F8081508BD38B598
:1092100001240090684631B1FFF70AFF00998C40A5
:10922000C0F8084538BDFFF703FF00998C40C0F82F
:109230000C4538BD7CB5154604460C4A6618022E0E
:10924000D2E90002CDE9000204D909A140F2C2200E
:10925000F9F768FB694605E051F82400D0F81005DD
:10926000641C01C5A642F7D87CBD0000BCBD00004F
:109270002E2E5C2E2E5C2E2E5C2E2E5C2E2E5C2E28
:109280002E5C636F6D706F6E656E74735C64726973
:10929000766572735F6E72665C68616C5C6E726636
:1092A0005F6770696F2E6800034908B508440021A4
:1092B00001600068009008BD00600040024940580D
:1092C000012800D0002070470060004030B5124BEC
:1092D00001460020D3F81044224609E0157A854261
:1092E00005D1401C0A28F7DB4FF0FF3030BD526833
:1092F000002AF3D1421CF9D00872D3F810242AB105
:1093000052684A60D3F81024516030BD0022C3F87F
:1093100010144A6030BD000074260220F0B595B0EC
:109320001C4615460F4608461A9E00F01BFB1821E6
:1093300009A8F7F7E6F90E96CDE9095400230C22A7
:1093400003A9384600F028FB059806900498ADF86C
:109350001C0000208DF8200003980C2600F003006C
:10936000012802D002281DD03CE003983346850A2C
:10937000C0F3C2008DF81E0003980FA9C0F380004F
:109380008DF81F000398C0F38314A200384600F044
:1093900003FB09A8009006AB22460FA9284600F05F
:1093A0003DFA1FE00398840DC0F3C2008DF81E0043
:1093B0000398C0F380008DF81F00082C01D22546C9
:1093C00000E0082533462A460FA9384600F0E4FAA3
:1093D0002E44641B09AB06AA29460FA800F06AF9BF
:1093E000002CEAD1384600F0C6FA15B0F0BD70473F
:1093F000012001F085BF000010B50448FEF712FD02
:10940000BDE81040002001F07BBF000040010020BB
:1094100008B5034A00924023024AFFF77FFF08BDC8
:1094200079A40000742502200A4A012902EBC00039
:1094300007D0022907D0032907D0042907D000202C
:1094400070470220704704207047007970474079C8
:10945000704700008CCE000010B5FFF7C9FF042153
:109460000648FFF733FF002803DA05492220F9F701
:1094700059FA02490120487210BD0000480100203D
:1094800010CD00002DE9FE4FFAF74EF910B1002083
:10949000BDE8FE8F72480021C0F81814BFF34F8F4B
:1094A000D0E9014604EA060100EB81014FF0000912
:1094B0000AE000BFC1F3891202EB9151641C0C4415
:1094C00004EA060100EB8101C9688A07F2D0002195
:1094D0006A46804604EA060008EB8000641CC06807
:1094E00042F82100491C43460329F3D3009800F0B9
:1094F0000300022806D0012800984FD0C0438007FF
:109500007ED0A8E000985022810D8A46B2EB905F91
:1095100000D850210D4665F39F5000900C31514802
:1095200000F0D7F907006CD000F01CFA4B460C2273
:109530006946384600F036FA04EA0600311A890016
:10954000091D09F10C0B8D4221D9454E0C3631B164
:10955000CAB208EB8000691A91460C3004E030462C
:10956000EAB2002691463146CDB201465B46384606
:1095700000F018FA0BEB090326B12A4631463846AB
:1095800000F010FA0AF1030004EB90043BE008EB52
:1095900080015B462A4638460C31F1E7C0F3831060
:1095A000062800D30620009960F38911C1F38310C7
:1095B000C01C009181002B4800F08BF907004AD0B5
:1095C00000F0D0F94B460C226946384600F0EAF923
:1095D00009F10C0900250DE004EA060008EB800102
:1095E0004B46042238460C31641C00F0DBF909F1CB
:1095F00004096D1C0098C0F38310A842ECD801E068
:109600000BE028E03FB3D8F81054D8F818044646C9
:1096100090B1384600F0AFF91DE0D3F818040028E7
:109620003FF436AF17E0687A012804D12A6828464B
:109630003946126890476D68002DF4D1384600F025
:109640009AF90020F9F7ACF8D6F8180400B974605C
:109650000020F9F7D3F8FAF767F880F0010017E770
:1096600074260220D0C0000000231A4601F03CBC42
:1096700008B5012300926A4601F036FC08BD1CB50E
:10968000CDE9002302236A4601F02EFC1CBD3EB545
:10969000069C8DE81C0003236A4601F025FC3EBDB4
:1096A0007FB5DDE908458DE83C0004236A4601F0FA
:1096B0001BFC7FBD2DE9F0470E4680461C469246B6
:1096C00008293ED894F80C900020207319461046C3
:1096D00000F09EFC0025B54206D218F805201AA11C
:1096E0002046FFF78FFA03E019A12046FFF78AFA18
:1096F0006D1C082DEFD317A12046FFF783FA002534
:10970000B54210D218F80570F6F7CCFF0068C05DBE
:1097100010F03E0F01D03A4600E02E220EA1204666
:10972000FFF770FA03E00DA12046FFF76BFA6D1CFE
:10973000082DE5D301222146504600F0F9FB84F8BC
:109740000C90BDE8F0870000202530327800000042
:10975000202020007C000000256300002000000085
:1097600010B5C8B11249FF228A6000220A604A601F
:10977000C1F81824C1F8142481F81C24C1F80C0481
:109780000C4800F0F6F8002807D10B480B490C4BA9
:10979000401AC108002006E0072010BD00EB40027F
:1097A00023F82200401C8842F8D3002010BD00009E
:1097B00074260220D0C00000DCCE00008CCE000059
:1097C000A401002002480349401AC0087047000065
:1097D000DCCE00008CCE000013B56846FCF73EFFDF
:1097E00008B100201CBD0248009950F831001CBD92
:1097F0008CCE000070B508480125D0F8104480F8E0
:109800001C5405E0657221682046496888476468F1
:10981000002CF7D170BD0000742602202DE9FF470F
:1098200081460C9D00200C462F7B287398461646D7
:109830002946184600F0ECFB072E42D2DFE806F07E
:1098400004090F161F2A360049462846FFF7DAF9A1
:1098500037E0494628462268FFF7D4F931E0D4E9D9
:10986000002349462846FFF7CDF92AE0A06800907A
:10987000D4E9002349462846FFF7C4F921E0D4E99A
:109880000201CDE90001D4E9002349462846FFF74B
:10989000B9F916E004F1080007C88DE80700D4E91B
:1098A000002349462846FFF7ADF90AE004F1080015
:1098B0000FC88DE80F00D4E9002349462846FFF77A
:1098C000A1F900222946404600F032FB2F73BDE883
:1098D000FF872DE9F041058A80462D1F4819C01CDD
:1098E000B0FBF5F0C6B24046FDF784F9041E19D06E
:1098F0000020207101206071E58000272546761E3A
:10990000C4F800800BE04046FDF774F960B161795E
:10991000491C6171286005467F1CC0F80080B74271
:10992000F1D32046BDE8F081204600F002F8002087
:10993000F8E72DE9F041457901466B1E002201E070
:109940000968521C9A42FBD30F680146002605E0C5
:1099500038460C68FDF7B4F92146761CAE42F7D3C1
:10996000BDE8F08108B501216A46001DF6F7EDFD5E
:1099700008BDFDF7E9B938B50446001D01216A4666
:10998000F6F7F0FD009810F0FF0F04D12046BDE877
:109990003840FFF7CEBF38BD38B501240094FCF73E
:1099A00013FE38BD38B500240094FCF70DFE38BD19
:1099B00000F180410868002210B101200A60704760
:1099C000104670474058002800D001207047000022
:1099D00010B5054C014620460322F6F7B0FE08B14B
:1099E000002010BD204610BD90BF00004058002848
:1099F00000D00120704700000C4A10B502F1F003BE
:109A00000EE0991AC91001EBD171491002EBC101A6
:109A10000C68844201D90B4602E005D201F108022C
:109A20009A42EED3002010BD486810BDB4BF0000BC
:109A300000B5FFF7E1FF002800D1014800BD00009C
:109A4000A0BF00004058002800D00120704708B592
:109A5000002242504058009008BDD0F8040308404E
:109A600000D0012070474058002800D001207047E6
:109A700008B5002242504058009008BD70B5044619
:109A8000000604F00F050E46092D04D30B4940F2E1
:109A9000AE40F8F747FF082D04D3084940F2AF4025
:109AA000F8F740FF06480460BFF34F8F44EA0621F1
:109AB0000160BFF36F8FBFF34F8F70BD988B0000B5
:109AC0000C75024030B5050600F00F030E4C03EB99
:109AD000830004EB80000AD5082B03D30B480160F8
:109AE000001D09E0C0F80016C0F8042630BD082BA0
:109AF00004D307480160001D026030BDC0F80017A4
:109B0000C0F8042730BD000000700240A07602407B
:109B1000A077024010B5044600F00F00092804D3D6
:109B20000BA140F2C240F8F7FDFE21064FF0010004
:109B300004F00F0200FA02F001D5134901E01249C6
:109B4000091D0968014201D0012010BD002010BD8F
:109B50002E2E5C2E2E5C2E2E5C2E2E5C2E2E5C2E3F
:109B60002E5C636F6D706F6E656E74735C6472698A
:109B7000766572735F6E72665C68616C5C6E72664D
:109B80005F757362642E68001075024000F00F016B
:109B900008290DD2020607494FEA007001EB9060D8
:109BA00002D5D0F8200401E0D0F84404012800D008
:109BB000002070470070024070B50446000604D4CF
:109BC00016A14FF45F70F8F7ADFE04F00F000828FF
:109BD00004D312A140F27D30F8F7A4FE200704D18F
:109BE0000EA140F27E30F8F79DFE1C490020C8709F
:109BF0002046FAF70FFF817B0125032902D0006878
:109C000000280AD12046FAF7BFFE8540E943BDE8A7
:109C1000704012480C30FCF7E6BF70BD2E2E5C2E53
:109C20002E5C2E2E5C2E2E5C2E2E5C2E2E5C636FF8
:109C30006D706F6E656E74735C6472697665727355
:109C40005F6E72665C757362645C6E72665F64728E
:109C5000765F757362642E63000000009000002040
:109C6000F8B50446000604D41B494FF46770F8F7B2
:109C700059FE04F00F00082804D2174940F29D3025
:109C8000F8F750FE154E0020F0702046FAF7C2FE9D
:109C9000817B0125032914D00068002810D12046BB
:109CA000FAF772FE8540E94306F10C00FCF79BFFD2
:109CB0000B48806800908DF80240716868468847BC
:109CC000F8BD2046FAF760FE8540E943BDE8F8405C
:109CD00002480C30FCF787BF8CB7000090000020D2
:109CE000C8BD0000F8B50446000604D520A14FF415
:109CF0007870F8F717FE04F00F00082804D31CA1B1
:109D000040F2E130F8F70EFE200704D118A140F22E
:109D1000E230F8F707FE264E0020F0702046FAF7F2
:109D200079FE817B0125032902D0006850B11AE039
:109D30002046FAF729FE85401D48E9430C30FCF720
:109D400052FF10E02046FAF71FFE85401848E9430D
:109D50000C30FCF748FF1748006900908DF802406E
:109D6000716868468847BDE8F84001F02FBD0000E3
:109D70002E2E5C2E2E5C2E2E5C2E2E5C2E2E5C2E1D
:109D80002E5C636F6D706F6E656E74735C64726968
:109D9000766572735F6E72665C757362645C6E7218
:109DA000665F6472765F757362642E630000000004
:109DB00090000020C8BD000070B50546000605F003
:109DC0000F0402D5092C09D301E0092C0BD30D494E
:109DD00040F26A40F8F7A6FD280604D5094940F28A
:109DE0006B40F8F79FFD082C05D307480068C103B6
:109DF00000D5002070BD054901EB8400D0F8A00417
:109E000070BD0000988B0000C074024000700240DA
:109E100002494058002800D00120704700700240DD
:109E20000449084400210160BFF36F8FBFF34F8FD7
:109E3000704700000070024003490860BFF36F8F55
:109E4000BFF34F8F70470000007402400248006863
:109E5000002800D0012070472C75024004490844B6
:109E600001210160BFF36F8FBFF34F8F7047000078
:109E7000007002400349084490F93000C017401CAC
:109E800070470000382102200449084490F930004E
:109E9000082801DB0120704700207047382102208C
:109EA0000449084490F93000082801D20120704785
:109EB000002070473821022070B5034600791B4905
:109EC00001EB40101968027F4FF0FF30002AD1F8F3
:109ED0000C25D1F81465D1F80855D1F8104504D0F7
:109EE000C1F80C05C1F8140503E0C1F81405C1F868
:109EF0000C051968C1F80805C1F81005501C02D0FE
:109F00001046FFF760F8701C02D03046FFF75BF890
:109F1000601C02D02046FFF756F8681C04D0284683
:109F2000BDE87040FFF74FB870BD0000D02102209F
:109F300010B50C46C17949B11AB109A12046FEF706
:109F400061FE2046BDE81040FEF79CBE007A002866
:109F5000F3D0044804A102682046FEF753FEECE764
:109F60000D0A00007801002025730000154910B586
:109F70000988032202EB014258B1134C012814D086
:109F8000022818D0BDE8104010A140F2AD10F8F73B
:109F9000C9BC104611A1FFF767FBFEF765FC00285E
:109FA0000FD1BDE81040F8F741B8104610A1FFF7F7
:109FB0005BFB002004E0104612A1FFF755FB0120D7
:109FC000207010BD100200200C0000202E2E5C2EF0
:109FD0002E5C2E2E5C6D61696E2E630055534220FF
:109FE000706F7765722064657465637465640000E2
:109FF00055534220706F7765722072656D6F76657C
:10A0000064000000555342207265616479000000CD
:10A0100070B50446C0790D46002821D1207A50B190
:10A02000A179A088FFF700FA0E4951F820200EA16F
:10A030002846FEF7E7FD0DA128462268FEF7E2FD5F
:10A04000A0880021FFF7C8FB03460649A079143910
:10A0500051F820202846BDE8704007A1FEF7D2BD88
:10A0600070BD000078010020257300005B253038AA
:10A070006C755D20000000003C25733E2025733A7E
:10A0800020000000EFF30580C005C00D01D00120C5
:10A090007047EFF3148040F30000401C70472DE937
:10A0A000F047022617460D460446022969D3606927
:10A0B000A84266D920784FF00109012804D002286F
:10A0C00036D003285DD143E0216A05EB550801EB4A
:10A0D00058212046FCF7DCFA060052D1C8F30800EC
:10A0E0002044303008F10108E90704D00178FAB2C1
:10A0F00062F31F1100E03946017084F80390216A71
:10A10000204601EB5821FCF7C3FA060039D1C8F309
:10A11000080020443030E90702D0C7F3071105E0FA
:10A120000178C7F3032201F0F0011143017026E02A
:10A13000206A00EB15212046FCF7AAFA060020D180
:10A14000E8B204EB4000B9B2303000F09EFC16E0FB
:10A15000206A00EBD5112046FCF79AFA060010D1D0
:10A1600040F2FF1000EA8500204430300546FCF73D
:10A1700061F867F31B000146284600F07EFC84F876
:10A1800003903046BDE8F0872DE9FE434C48006857
:10A1900088422BD18C6A0E4604F120052078DFF826
:10A1A00024810127022808D0032821D0042837D091
:10A1B000052835D04449E7202DE094F82D0010B152
:10A1C0000846F8F703FE2770E06800280ED0D8F89C
:10A1D0000810D8F81000029004F11400CDE9001026
:10A1E00020690290E268694630469047BDE8FE83E8
:10A1F0002868A1684843216B000B814203D0324993
:10A200009D20F8F78FFB29463046F8F77FFC0028A1
:10A21000ECD02D49A12003B0BDE8F043F8F782BB94
:10A22000616B227891FAA1F0B0FA80F0052A03D18F
:10A2300007FA00F041406163080014D091FAA1F0E0
:10A24000A168B0FA80F0236B01FB00F202EB03324D
:10A2500004F1380300FB01300523237003B0BDE88F
:10A26000F043FDF731BC606A80B12868A1684843BB
:10A27000000B032120632170020303B004F13800B6
:10A28000BDE8F0434FF48051FDF792BB2770E068C2
:10A2900088B194F82C0070B9D8F81410D8F81C00C4
:10A2A000029004F11400CDE9001020690290E268E8
:10A2B000694630469047002084F82C0096E700005D
:10A2C0003801002024BF0000D4C8000010B5027877
:10A2D000FF2A11D04178FF290ED08178FF290BD0B9
:10A2E000C178FF2908D01449C1F8242542784FF0DD
:10A2F000FF34FF2A02D002E0002010BD2246C1F840
:10A3000028258278FF2A00D12246C1F83025C2785C
:10A31000FF2A00D12246C1F834250279FF2A00D154
:10A320002246C1F838254379FF2B00D01C46C1F8DE
:10A330003C45012010BD00000090024070B50D4961
:10A340004A790AB1112070BD0B4CA5150022C4F842
:10A3500000210B680122002B02D04A71C4F80423AB
:10A36000225005D129462046FFF72CFB0028F9D0C2
:10A37000002070BDA0210220009002402DE9F04194
:10A38000056813460E46074602292DD36869B04278
:10A390002AD93BB14FF0FF3219462846FFF77FFE1E
:10A3A00000281FD131463846FBF7A6FD040018D01F
:10A3B000012C19D0601C19D0002231462846FFF725
:10A3C0006EFE00280ED1D5E90410821E914205D2FE
:10A3D000491C2961297941F0010129712646B042C1
:10A3E000E0D80020BDE8F0810220FBE70120F9E77A
:10A3F00070B5012670044FF0E0210025C1F88001FE
:10A40000084C4010C4F84803C4F8080366602F20C5
:10A41000FCF7B0FDA660044C2F20A560FCF7AAFD58
:10A42000A57070BD00100140B800002070B5054651
:10A43000C87D0C4600284FF4847128460AD0FFF7E7
:10A4400006FBD5F81805627EE1688854607E401CE2
:10A45000607670BDFFF7FBFAD5F8180570BD1FB523
:10A4600001238DF800308DF808100192D0E9001218
:10A47000684690471FBD000010B5094C0020D2B2BD
:10A480002070201DFDF706FC18B1064A2D21F7F7B4
:10A4900011F96078002802D021780029FAD010BD87
:10A4A0003C010020BCCC0000002070472DE9FC4797
:10A4B00008790C46012804D0022805D0032878D159
:10A4C00069E012223C496EE0B4F80700092800D97F
:10A4D0000920804609260027F7F7ECFA054640F2E6
:10A4E000492940F24A2A1AE0686818B933A1484657
:10A4F000F8F718FA6868406818B930A15046F8F7BC
:10A5000011FA686801A942682846904701980644F4
:10A51000287A3844C7B22846F7F730FB0546002DA5
:10A52000E2D16846F7F750FD00990546884504D901
:10A5300022A140F25620F8F7F5F91F4942461231A0
:10A540002846F6F7C5F82F716E80F7F73FFB18B174
:10A55000E87940F02000E871F7F7ACFA01462648A8
:10A5600080E82201B4F80710C1600020F8F718F95C
:10A57000114980200839F7F7B7FD040005D10E49CD
:10A5800080201039F7F786FC04460020F8F736F9EA
:10A590002046BDE8FC87E078B4F80510F8F7D2F85B
:10A5A000010006D00A7802B0601CBDE8F047F7F75A
:10A5B000DBBC0620EDE70000F8BC00002E2E5C2E70
:10A5C0002E5C2E2E5C2E2E5C2E2E5C2E2E5C636F4F
:10A5D0006D706F6E656E74735C6C696272617269C6
:10A5E00065735C757362645C6170705F75736264DF
:10A5F0005F636F72652E63001421022038B50D462B
:10A600006846F7F7E1FC04460098022804D20CA142
:10A6100040F22120F8F786F90020208020781749A1
:10A6200040F00100207049784908C90702D040F085
:10A630000200207002222146681CF7F795FC38BD05
:10A640002E2E5C2E2E5C2E2E5C2E2E5C2E2E5C2E44
:10A650002E5C636F6D706F6E656E74735C6C696297
:10A660007261726965735C757362645C6170705F5E
:10A67000757362645F636F72652E6300540000201F
:10A68000F8B50C46060004D13EA140F2CF20F8F701
:10A6900049F924B93BA14FF43470F8F743F96078D5
:10A6A00010F0600F2AD10006454AA0784FF000054F
:10A6B00026D520B1062808D008281FD10BE0214656
:10A6C0003046BDE8F840FFF799BF21463046BDE867
:10A6D000F840FFF7EBBE6846F7F776FC01461078C6
:10A6E000052802D0042803D008E00120087000E00B
:10A6F0000D700122601CF7F737FCF8BD0620F8BD8D
:10A700000A28FBD2DFE800F0051B05130506050546
:10A710000525F3E71078032803D0042801D0052885
:10A720001CD1F7F7A3F8042000F084FF0FE0B4F881
:10A7300003000128E2D1507840F0020006E0B4F8AE
:10A7400003000128DAD1507820F002005070002078
:10A75000F8BD1078052803D0042801D00820F8BDE2
:10A76000E07818B1012805D00720F8BDF7F77EF88A
:10A77000042002E0F7F792F8052000F05BFF28467E
:10A78000F8BD00002E2E5C2E2E5C2E2E5C2E2E5C34
:10A790002E2E5C2E2E5C636F6D706F6E656E747303
:10A7A0005C6C69627261726965735C757362645C2A
:10A7B0006170705F757362645F636F72652E6300B2
:10A7C00054000020F8B50446407810F0600F27D1FF
:10A7D0006579A07820B101281BD0032820D10DE095
:10A7E0006846F7F7F1FB06462846FDF795FD3080F1
:10A7F00002223146601CF7F7B7FBF8BD05F00F00E9
:10A8000008280DD2B4F8030050B92846FDF76AFDB8
:10A810000EE005F00F00082802D2B4F8030008B1DA
:10A820000620F8BD2846FDF753FC2846FDF77CFDC1
:10A830000020F8BD2DE9F8430C46050004D141493C
:10A8400040F23920F8F76EF824B93E4940F23A2038
:10A85000F8F768F860784FF0000801064FF0060638
:10A86000C0F341103BD510B101280FD111E0A17800
:10A87000284606290AD1CDF80080E27821796B4676
:10A88000F7F7F6F8010001D0009A24E00620BDE8B1
:10A89000F8832F462846FCF735F90546A078FE28B0
:10A8A00036D1B4F8030098BBB4F8070001282FD1C3
:10A8B0006846F7F789FB0646686A20B921494FF4D4
:10A8C000F570F8F72FF8A88C401E30803846F8F75E
:10A8D00039FF01223146601CF7F746FBD7E758B134
:10A8E0000128D3D12846FCF70DF9FCF707F80746F5
:10A8F000A078FF280CD105E021462846BDE8F843A2
:10A9000000F066B8B4F8030010B9B4F8070008B155
:10A910003046BCE72846FAF76BF804462846FAF7B3
:10A9200070F806462046FDF7A1FB3046FDF79EFB7A
:10A9300097F82C00022802D02846F8F703FF40467B
:10A94000A5E7000024C30000F8B50B465178064681
:10A95000144611F0600F25D11C480906A178007833
:10A960001ED511B10A291DD109E005281ED168465E
:10A97000F7F72AFB01460020088002220CE0052898
:10A9800014D16846F7F720FB054619463046F7F71D
:10A990002BFE287001222946601CF7F7E5FAF8BD66
:10A9A0000B2901D00620F8BD052801D00820F8BDEC
:10A9B000B4F80300FF2801D90720F8BDD278194662
:10A9C0003046BDE8F840F7F7E1BD00005400002034
:10A9D0002DE9F0410C460746FCF794F8FBF78EFF93
:10A9E0000546607800F01F00022805D1A0780128F4
:10A9F00002D1B4F8030010B10620BDE8F08195F84B
:10AA00002C000A2810D0647900262046FDF760FB50
:10AA10002046FDF789FC200619D595F82C00092859
:10AA200004D00B2813D108E00F20E6E73846F9F7E9
:10AA3000E8FFFDF779FC012105E03846F9F7E1FF71
:10AA4000FDF772FC02213846F9F7D4FA0646304683
:10AA5000D3E770B50C460646154691B204F11A00CC
:10AA600000F013F83078032806D1290C04F1140003
:10AA7000BDE8704000F009B870BD0170090A41706E
:10AA8000090A8170090AC17070470170090A417092
:10AA900070470000F8B50546FCF734F80746FBF7A9
:10AAA0002DFF044630213030F5F72BFE2846F9F70C
:10AAB000A8FF6946FDF750FC002608B1009608E0A3
:10AAC00000981F2805D104225DA12046F5F737FE26
:10AAD00020B1284600F07DF90020F8BDE07B1B285E
:10AAE00057D011DC0A2846D007DC38B3032834D00D
:10AAF00004281ED0082817D136E0122842D0152885
:10AB000047D01A2810D148E0282865D006DC1D2837
:10AB10003FD01E283DD0252806D156E02A2862D0F5
:10AB2000552836D05A2865D004F1080000F01BFDE6
:10AB300090B32846BDE8F84000F06FB904F1080072
:10AB400000F011FD0028F4D1A07B0628F1D1607B34
:10AB5000796A8842EDD200216CE0224639462846C7
:10AB6000BDE8F840F9F740B8224639462846BDE826
:10AB7000F840F8F7ABBF224639462846BDE8F84012
:10AB8000F9F7C1B8224639462846BDE8F840F8F73B
:10AB9000E3BE284600214EE04BE0A07B0628C8D348
:10ABA000607B796A8842C4D204F1080000F0DBFCC3
:10ABB0002066042800D3042004F1640120660320E9
:10ABC00008704E708E70CE702BE0224639462846B3
:10ABD000BDE8F840F8F7D2BF224639462846BDE81E
:10ABE000F840F8F717BF224639462846BDE8F84036
:10ABF000F9F72DB8A07B0A289BD3607B796A88423D
:10AC000097D204F1080000F0AEFC2066042800D3BF
:10AC10000420206604F164016666A666062048707A
:10AC20000E70226E01B02846BDE8F040032300F00C
:10AC30000DBB01212846BDE8F840F9F7DBB900005B
:10AC400055534243000000002DE9FE438046FBF7C8
:10AC500059FF0646FBF752FE002780F8487004466D
:10AC600090F8501090F85100012505FA00F081434A
:10AC700084F85010A06B00B911B1E06B78B909E00D
:10AC8000E763676394F8311003B04046BDE8F043D2
:10AC9000F9F7B0B9214940F27220F7F743FE94F872
:10ACA0005000C8B194F85110E06B81F0010284F8B3
:10ACB0005120E16D04F1540649B372680523424303
:10ACC000404600F0C3FA002804D137607760B760CF
:10ACD00084F84850BDE8FE8394F83010306A50F88C
:10ACE0002120E06CF1694840E06400D001208540FB
:10ACF00084F85050606B0090206C0190B069E16C5A
:10AD00000844029069461046FCF7CCF8E2E782F06E
:10AD1000010084F851000020DCE7000024C300009B
:10AD2000FEB50746FBF7EEFE0546FBF7E7FD002103
:10AD3000C36B044680F8481090F8500001260328A1
:10AD400028D0206CD4F838C002465843844521D915
:10AD500002FB13C2904200D20246DAB1A869E16C4C
:10AD600006230144384600F08CFA010012D194F811
:10AD7000510080F0010084F8510094F8502006FA48
:10AD800000F0024384F85020E06CEA695040E0642F
:10AD900084F8486094F84900C8B994F83010286ADB
:10ADA00050F8212094F85010E06C032901D0E96993
:10ADB0004840616B0091216C0191A969084402909F
:10ADC00084F8496069461046FCF790F80146084649
:10ADD000FEBD0A21AFF300802DE9F0410C46064686
:10ADE000FBF790FEFBF78AFD07463046F9F700FEB9
:10ADF00005463046F9F705FE06462846FDF772FA85
:10AE00003046FDF76FFA2846FDF730F93046FDF77A
:10AE10002DF987F82C40BDE8F08170B50546FBF7A9
:10AE200071FEFBF76BFD04460830064600F09BFB05
:10AE300088B109212846FFF7CFFF207B000604D404
:10AE40002846F9F7DEFDFDF73BFE304600F08BFBB0
:10AE50006064002070BD01212846F9F7CBF8002876
:10AE6000F8D009212846FFF7B7FFF2E72DE9F047B0
:10AE70001C469246894605464FEA1048089FFEF751
:10AE8000A1FC404504D816494FF49F70F7F74AFDDE
:10AE9000601C144E384006EB8000C0F80C80D6F8D9
:10AEA0000C0480470146A01C384006EB80003C4063
:10AEB000C16006EB8401E80651F80C0F02D540F0A2
:10AEC000040001E020F0040065F3C5006AF3891076
:10AED00069F39F2020F00300401C0860BDE8F08764
:10AEE00068CD0000742602202DE9FC47154C8846E9
:10AEF000814617461D4601A91846A668F8F7D4FBF7
:10AF0000B8B10199CB1C00200AE000BF57F82020FF
:10AF100003EA060C04EB8C0C401C5B1CCCF80C20E8
:10AF2000A842F3D30B462A46414648460096FFF70F
:10AF30009DFF94F81C0401E0FEF7A4FA0028FBD161
:10AF4000BDE8FC877426022070B50546F7F70EFCB5
:10AF5000124C06462078F7F709FC86420AD02846AC
:10AF6000F7F704FC20B104F10C00FCF78BF801E0CA
:10AF7000FCF746F82846F7F706FC06462078F7F770
:10AF800002FC864208D02846F7F7FDFB10B1FCF71B
:10AF900073FF01E0FDF78AFD257070BD40000020C1
:10AFA00070B5044600F040F8050036D1207803283B
:10AFB0002CD12079012829D1420204F1300000214E
:10AFC0000646FBF7F9FA4AF6552104F22E20FFF760
:10AFD0005CFD13493046FFF750FD124904F505703A
:10AFE000FFF74BFD04F506702169FFF746FD04F5F8
:10AFF0000770E168FFF741FDE2690123521CE2623C
:10B0000060783146F9F7A0FB0020207100226078BB
:10B010001146F9F72BFA00B10125284670BD000052
:10B0200052526141727241612DE9F0410446C0788B
:10B030000027F8B1E56A04F13001607801232A465F
:10B040008846F9F781FB08B1012713E00020E07082
:10B05000206AA169281A88420CD2A67808E0A06963
:10B060000123054460782A464146F9F76DFB761EB8
:10B07000022EF4D23846BDE8F08100002DE9F84FE9
:10B080001D4C00256846D4E901A6F9F707FC002706
:10B0900038B30023009A61681CE0D1F800C008466C
:10B0A000944503D9ACEB02020A6015E0A2EB0C0256
:10B0B00063440760D0F80CC0C1698146BCF1000F41
:10B0C00008D006EB030828F07F48C0E9018CC9F8D6
:10B0D0001C5005460029E0D128466160FBF7DCF8EA
:10B0E00003E02846FBF7D8F810B15046F8F768FEA1
:10B0F000E770BDE8F88F0000B80000200D4B10B5D8
:10B10000596831B102680C68A24204D8A21A0A60D8
:10B11000C161586010BD0B4603E00B46C969121BA4
:10B1200021B10C689442F8D3A41A0C600260C1618A
:10B13000D86110BDB80000202DE9F041144E7768A9
:10B140003D462C4603E0844204D02546E469002CA9
:10B15000F9D11BE0D4B1A5420BD1F869706040B9B8
:10B160000C49012088600021B160F0702F20FBF7AE
:10B1700001FF2168E069E86110B1026811440160D3
:10B180007068874202D00120BDE8F0810020FBE713
:10B19000B800002000100140F8B5064600240D4616
:10B1A0002046F7F7FDFA684600F0C8FC68B1057064
:10B1B000084946609DF8000048700020F7F71EFB24
:10B1C0001420F5F7F5FC2046F8BD04240020F7F71D
:10B1D00015FBF8E7682402202DE9F041194D6C6851
:10B1E000002C2CD0184800270068A968B846401ADF
:10B1F00020F07F462068B0420CD82146361A07441A
:10B20000E469087C20B181F8108088694969884721
:10B21000002CEFD129786878814206D1401CC0B259
:10B220006870022801D185F80180064869780C30E1
:10B2300040F82170BDE8F0411420F5F7B9BCBDE835
:10B24000F0810000B8000020041501402DE9FE4304
:10B250001D4616460F468046FBF754FCFBF74EFB97
:10B2600004464046F9F7C4FB00210097CDE901618F
:10B270006946F6F785FF002801D184F82C50BDE817
:10B28000FE832DE9FE431D4616460F468046FBF71A
:10B2900039FCFBF733FB04464046F9F7B2FB0021CB
:10B2A0000097CDE901616946F6F76AFF002801D1F0
:10B2B00084F82C50BDE8FE8370B50C4605464FF46B
:10B2C0008E71FEF7C4FBA18AA068415CA08A401C75
:10B2D000A082C5F81C1570BD1FB500228DF8002096
:10B2E0008DF80810816801918275D0E900126846D6
:10B2F00090471FBD01490120087070473C010020A4
:10B3000010B588B0044620220F496846F5F7E0F9E9
:10B3100006200090C01F0190029003904FF0EB7048
:10B3200006900CB1094A00E0002269460848FCF783
:10B3300057FC18B1074A1D21F6F7BCF90448001F55
:10B34000447008B010BD0000B0C00000F5B20000AD
:10B3500040010020BCCC00002DE9FF470C4605460B
:10B360004FF40071FEF779FB01274FF401780026B6
:10B3700018B34FF4927949462846FEF763FBE0B1D3
:10B3800049462846FEF763FBC5F80883A07E00B94E
:10B390006F6002208DF80000D5F88004C5F88004A5
:10B3A0000390E07D8DF80800E0680190E675267650
:10B3B000D4E900126846904727E004212846FEF7AA
:10B3C0004CFB10B34FF484712846FEF73BFBE0B111
:10B3D00021462846FFF72AF8E07D617E884214D195
:10B3E000207E38B1617EE268E0752069E0602676F3
:10B3F000667607E0A07E00B96F60C5F80883E67541
:10B40000617EE2682046FFF72AF84FF48E784146C5
:10B410002846FEF717FB88B1A08AA17D884204D296
:10B4200021462846FFF748FF08E041462846FEF738
:10B430000EFBA17D11B12046FFF74EFF4FF4A2781D
:10B4400041462846FEF7FEFA002812D0414628461B
:10B45000FEF7FDFAA07E00B12F60E07D002808D045
:10B46000E675617EE26804B02046BDE8F047FEF76D
:10B47000F6BFBDE8FF872DE9FF410C464FF49277F8
:10B4800005463946FEF7EFFA0026C0B13946284690
:10B49000FEF7EEFA02208DF80000D5F88004C5F81A
:10B4A00080040390D5F83C058DF80800E068019011
:10B4B000E6752676D4E900126846904724E04FF4FA
:10B4C000887739462846FEF7CEFAE8B1394628464D
:10B4D000FEF7CEFAD5F83C05C1B2E07D884213D123
:10B4E000207E60B1E268D5F8000220F02000C5F8A7
:10B4F0000002207EE0752069E060267601E0E675B6
:10B50000E2682046FEF7ABFF4FF4A27739462846A3
:10B51000FEF7A9FA68B139462846FEF7A9FAE07D98
:10B5200038B1E675D5F83C05E268C1B22046FEF7B1
:10B5300096FF4FF4907631462846FEF794FA00289D
:10B540000FD031462846FEF793FAA07D002808D098
:10B55000D5F84C0504B0C1B22046BDE8F041FFF774
:10B56000BBBEBDE8FF81C178006861F31F60704712
:10B570002DE9F05F8346DDE90A4A994690460D467B
:10B580000846012703E000BFB0FBF8F07F1C4045F0
:10B59000FAD2B94500D94F465FEACA7012D18CB1D0
:10B5A0005FEA8A7002D5B9F1000F01D0202607E0CA
:10B5B000302605E031465846641EF8F7A5F80CB170
:10B5C000A742F7D35FF00106B9F1010F02D9A9F143
:10B5D000010903E0B5FBF6F0404502D306FB08F68F
:10B5E000F2E7DFF83C9000BFB5FBF6F000FB165524
:10B5F00019F800105846F8F787F8B6FBF8F6002E51
:10B60000F2D15FEACA7009D0002C07D0A74205D258
:10B6100020215846641EF8F777F8F5E7BDE8F09F5B
:10B6200080BF000002480068002800D00120704759
:10B630005C00002004490A78824203D00870034865
:10B64000F6F7CEBD7047000054000020E4BC0000B7
:10B650002DE9F05F0746486890464FF001090C4617
:10B6600098B1B8F1400F04D92BA14FF4A970F7F7A6
:10B6700059F9FCF77DFF0026FCF77AFFE568834661
:10B680004046454537D9054635E04FF00009C7F833
:10B690000090C7F8049033E0A068C0B1A84200D978
:10B6A000284682460BEB060052466168F5F710F813
:10B6B000A168A5EB0A05A1EB0A00A060E168564469
:10B6C000A1EB0A00E060616801EB0A006060E068DD
:10B6D00010B1A06878B902E04FF000090BE02068D3
:10B6E00088B141684A6804F10801904760602068A9
:10B6F000F6F744FA2060002DCED100BFC7E900B6AE
:10B700004846BDE8F09F00206060002EF6D0464518
:10B71000F4D28146F2E700002E2E5C2E2E5C2E2EF7
:10B720005C2E2E5C2E2E5C2E2E5C636F6D706F6E09
:10B73000656E74735C6C69627261726965735C7565
:10B740007362645C6170705F757362645F636F7273
:10B75000652E630070B50446010600F00F0502D5A2
:10B76000092D09D301E0092D08D308A140F28B204F
:10B77000F7F7D8F8200601D5042000E0282000EBD8
:10B780008500BDE87040FEF769BB00002E2E5C2EE0
:10B790002E5C2E2E5C2E2E5C2E2E5C2E2E5C636F6D
:10B7A0006D706F6E656E74735C64726976657273CA
:10B7B0005F6E72665C757362645C6E72665F647203
:10B7C000765F757362642E63000000002DE9F04F10
:10B7D0005E4D89B0E878002850D181464FF0010ACB
:10B7E00048E000BF90FAA0F0B0FA80F08046F7F78A
:10B7F000A4F80646F9F70EF90446006820B954A1EA
:10B8000040F21D50F7F78EF8300612D5D4E900311A
:10B81000A28902A89847002843D1C4F80090802E3E
:10B820003FD15B48D0F8001241F00401C0F800128B
:10B8300037E03046FCF778FED4E9007183460346D2
:10B84000A28902A8B84707460298D0B10399594582
:10B850001DD20220A0730AFA08F0C1433B480C3005
:10B86000FBF7C1F94B48006B00908DF802606968E6
:10B8700068468847D5E902100840B3D109B0BDE851
:10B88000F08F039850B132A14FF4A86004E05945FD
:10B8900004D02FA140F24F50F7F744F80FB9C4F885
:10B8A000009085F803A0A9680AFA08F08143A9600E
:10B8B000A06803990844A060DDE902123046FEF753
:10B8C00001F9FCF739FE80B34FF482742046FEF78D
:10B8D000A7FA3046FFF73EFF0220FCF759F9204651
:10B8E000FEF796FA0028F1D01E20FCF751F92A4DF8
:10B8F00002E00220FCF74CF928688006F9D5012007
:10B90000FCF746F9300606F00F0002D5092809D3E6
:10B9100001E009280AD3214940F26510F7F702F83F
:10B92000300603D51B499C3102E00AE01949AE31CB
:10B9300006F00F0031F81000FEF76AFA0028C5D0B3
:10B940009CE73046FFF706FF98E7000090000020D4
:10B950002E2E5C2E2E5C2E2E5C2E2E5C2E2E5C2E21
:10B960002E5C636F6D706F6E656E74735C6472696C
:10B97000766572735F6E72665C757362645C6E721C
:10B98000665F6472765F757362642E630000000008
:10B9900000700240C8BD0000747402408CB7000003
:10B9A0002DE9F84307460020F6F7FAFE3846F9F786
:10B9B00031F806463806294D4FF000084FF00309CC
:10B9C0004FF0010438461ED4F8F7DEFFE96804FAA8
:10B9D00000F0884303D03846FDF772F810E038468F
:10B9E000C6F80080F8F7D0FFE96804FA00F0814358
:10B9F0003846E960F8F7C8FF8440A868A043A8600B
:10BA000086F80E9024E0F8F7BFFFD5E9022104FA8A
:10BA100000F061EA020108421AD03846F8F7B4FF94
:10BA2000E96804FA00F081433846E960F8F7ACFFB2
:10BA30008440A8680443AC600948C6F8008086F8D2
:10BA40000E90006800908DF802706968684688471B
:10BA5000BDE8F8430020F6F7D1BE000090000020BA
:10BA6000C8BD00002DE9F0410D4EB068040CF0682F
:10BA70002404044301270BE094FAA4F0B0FA80F503
:10BA80002846F6F75AFFFFF78BFF07FA05F08443C5
:10BA9000002CF1D140F2FF10B060BDE8F081000051
:10BAA00090000020012238B58A400C490C468B6872
:10BAB00013438B606168E468094B050602EA0402DF
:10BAC00003D5002A09D19A6902E0002A05D1DA6972
:10BAD00000928DF802006846884738BD900000202B
:10BAE000C8BD000002498020C1F800027047000074
:10BAF00004E000E010B502280BD003280ED009287E
:10BB00000ED00A2811D1F6F767FABDE81040F7F712
:10BB100001BCBDE810400020F7F75EBB002000E04C
:10BB20000120BDE81040F7F781BB10BD024949680C
:10BB3000002900D008477047B82002200A494A78F7
:10BB40008B78521CD2B2934200D100220B789342E0
:10BB500001D1002070470270487800EB400001EBF3
:10BB6000C000001D704700006824022070B50D461B
:10BB700004000CD0206850B1017841B1C188A2887E
:10BB8000914204D14078F8F747FDC00703D0002068
:10BB90002860092070BD20682860002070BD806A80
:10BBA00000E030BF01780129FBD170475CBF000085
:10BBB00074C1000010CC00006CC100000002000045
:10BBC0001C040020000002004C060220D0BE000031
:10BBD00074C100007CC100006CC1000000020000C4
:10BBE000000010005C0602200CBF000074C10000C1
:10BBF00084C100006CC100000002000001000000D0
:10BC0000131114151617000000000100000F0700A3
:10BC10006C06022009040000020806500007058196
:10BC20000240000007050102400000006D9F000077
:10BC3000A41E0220A4BE0000010002038101000036
:10BC400014BC000017000000A4160220000400002D
:10BC50000000002003000000416B00000000000015
:10BC6000F5BA0000000000000D0E0F100B0C1819A3
:10BC7000381F0220581F0220841F02200B000300DF
:10BC80005D3300000C0003005D330000180003006A
:10BC90005D330000190003005D3300000100040063
:10BCA000100040000001000200000100020004003A
:10BCB0000800100020000000800000000781000044
:10BCC000820000008300000084090A0307000000CE
:10BCD00008000000C4200220000000000000000056
:10BCE000000000000B000000A9A4000000000000FC
:10BCF00051B6000014210220120100020000004091
:10BD000015190D5200010102030109020000000192
:10BD100000C0FA00191D0000000000000000000033
:10BD200000000000000000006400002014BD0000BE
:10BD30000100020300800000040309002A034E00F2
:10BD40006F0072006400690063002000530065000A
:10BD50006D00690063006F006E0064007500630091
:10BD600074006F00720026036E005200460035001A
:10BD70003200200055005300420020004D005300C7
:10BD800043002000440065006D006F001A0330007E
:10BD90003000300030003000300030003000300023
:10BDA0003000300031000E03550073006500720052
:10BDB00020003100000102030400000000000050D8
:10BDC0000003005000000000060000030100000016
:10BDD000060000000600000006000000060000004B
:10BDE000060000000600000105000000020000003F
:10BDF000030000000400000006000002294E0000BD
:10BE0000314D0000B14A0000E94A0000EF4A00004D
:10BE1000F54A0000FB4A0000014B0000074B000000
:10BE20000D4B00004D4C0000134B0000194B00005F
:10BE3000754B00007B4B0000814B0000874B0000DE
:10BE40008D4B0000934B0000994B0000A14B00006C
:10BE5000F54C0000654D0000694C0000ED4B000002
:10BE6000AD4A000008010C011001140118011C0169
:10BE7000200124012C013001340138013C01400132
:10BE8000440148014C01500102030405060708095A
:10BE90000B0C0D0E0F101112131400002824022099
:10BEA00003000000216900001D6B0000000000007D
:10BEB0000000000000000000000000001F00000063
:10BEC00000000000000000000D0000000000000065
:10BED00065290000152A0000C5290000512A00002C
:10BEE000A52900004D29000001000000000000000D
:10BEF0000000000002000000000000000000000040
:10BF0000030000000000000000000000512C0000B1
:10BF1000F12E0000652E0000512F0000692D000059
:10BF2000352C000066010101010100000200000043
:10BF300000000000000000000300000000000000FE
:10BF400000000000010000000000000000000000F0
:10BF50000300000000000000000000005D30000051
:10BF600029310000C130000065310000A13000001F
:10BF7000453000000100000000000000000000004B
:10BF8000303132333435363738394142434445460F
:10BF9000C22817000000800000100000000100000F
:10BFA000556E6B6E6F776E206572726F7220636F65
:10BFB00064650000000000008CCC0000010000005F
:10BFC0004CCB000002000000CCC9000003000000C0
:10BFD000C0CB00000400000014CC000005000000ED
:10BFE0000CCB000006000000ACCA000007000000F7
:10BFF000FCCB00000800000020CB0000090000007E
:10C000006CCB00000A00000074CC00000B000000A4
:10C01000B4C900000C00000038CB00000D00000087
:10C0200098CC00000E000000ECCB00000F000000D8
:10C0300028CC0000100000005CCC000011000000C3
:10C04000ACCC000080000000ECCA000081000000C1
:10C0500070CA00008200000030CA000083000000A7
:10C0600010CA0000840000004CCA000085000000D7
:10C07000C4CA000086000000D4CB0000900000007D
:10C080008CCA000091000000F0C90000008200008E
:10C090003CCC00000182000088CB0000028200003E
:10C0A000A4CB000011940000F9930000EF9300006E
:10C0B000FFFFFFFFFFFFFFFFFFFFFFFFFFFFFFFF90
:10C0C00000000000000000000000D6010701000091
:10C0D0005C010020540100205C010020B4250220F6
:10C0E0001800000000404040404040404040414176
:10C0F000414141404040404040404040404040403D
:10C1000040404040400502020202020202020202D6
:10C1100002020202022020202020202020202002D3
:10C120000202020202029090909090901010101063
:10C1300010101010101010101010101010101010FF
:10C140000202020202028888888888880808080893
:10C15000080808080808080808080808080808085F
:10C160000202020240000000E5C00000312E303023
:10C17000000000004E6F726469630000454D50542A
:10C180005900000051535049000000002E2E5C2E33
:10C190002E5C2E2E5C2E2E5C2E2E5C2E2E5C636F63
:10C1A0006D706F6E656E74735C6C696272617269DA
:10C1B00065735C626C6F636B5F6465765C6E726600
:10C1C0005F626C6F636B5F6465762E6800000000D1
:10C1D0002E2E5C2E2E5C2E2E5C2E2E5C2E2E5C2E99
:10C1E0002E5C636F6D706F6E656E74735C6C6962EC
:10C1F0007261726965735C757362645C6170705FB3
:10C20000757362645F636C6173735F626173652EE3
:10C21000680000002E2E5C2E2E5C2E2E5C2E2E5CD6
:10C220002E2E5C2E2E5C636F6D706F6E656E747358
:10C230005C647269766572735F6E72665C636F6D63
:10C240006D6F6E5C6E72665F6472765F636F6D6D4C
:10C250006F6E2E63000000002E2E5C2E2E5C2E2EA4
:10C260005C2E2E5C2E2E5C2E2E5C636F6D706F6EBE
:10C27000656E74735C647269766572735F6E726604
:10C280005C6770696F74655C6E72665F6472765F1E
:10C290006770696F74652E63000000002E2E5C2E9F
:10C2A0002E5C2E2E5C2E2E5C2E2E5C2E2E5C636F52
:10C2B0006D706F6E656E74735C64726976657273AF
:10C2C0005F6E72665C7370695F6D61737465725CDA
:10C2D0006E72665F6472765F7370692E6300000031
:10C2E0002E2E5C2E2E5C2E2E5C2E2E5C2E2E5C2E88
:10C2F0002E5C636F6D706F6E656E74735C647269D3
:10C30000766572735F6E72665C7379737469636B62
:10C310005C6E72665F6472765F7379737469636B67
:10C320002E6300002E2E5C2E2E5C2E2E5C2E2E5C9C
:10C330002E2E5C2E2E5C636F6D706F6E656E747347
:10C340005C6C69627261726965735C757362645C6E
:10C35000636C6173735C6D73635C6170705F757344
:10C3600062645F6D73632E6300000000446174615A
:10C3700020627573206572726F7220287265747501
:10C38000726E206164647265737320696E207468D4
:10C390006520737461636B206672616D65206973DB
:10C3A000206E6F742072656C6174656420746F20F8
:10C3B00074686520696E737472756374696F6E203A
:10C3C00074686174206361757365642074686520A6
:10C3D0006572726F72290000446174612062757326
:10C3E000206572726F72202850432076616C7565EB
:10C3F00020737461636B656420666F722074686576
:10C4000020657863657074696F6E207265747572EB
:10C410006E20706F696E747320746F20746865206D
:10C42000696E737472756374696F6E207468617479
:10C430002063617573656420746865206661756C3E
:10C440007429000043617573653A20427573466133
:10C45000756C74206F6E206120766563746F722036
:10C460007461626C65207265616420647572696EC6
:10C470006720657863657074696F6E2070726F6392
:10C48000657373696E672E005468652070726F6300
:10C490006573736F72206861732065786563757466
:10C4A000656420616E2053444956206F72205544C4
:10C4B000495620696E737472756374696F6E207764
:10C4C00069746820612064697669736F72206F6691
:10C4D000203000005468652070726F636573736F5D
:10C4E000722068617320617474656D707465642076
:10C4F000746F206578656375746520616E20696E60
:10C50000737472756374696F6E2074686174206DE2
:10C51000616B657320696C6C6567616C2075736510
:10C52000206F66207468652045505352000000005B
:10C530005468652070726F636573736F72206861F1
:10C540007320617474656D7074656420616E206918
:10C550006C6C6567616C206C6F6164206F66204550
:10C5600058435F52455455524E20746F207468658D
:10C570002050432C206173206120726573756C74A8
:10C58000206F6620616E20696E76616C696420633D
:10C590006F6E746578742C206F7220616E20696EE6
:10C5A00076616C6964204558435F52455455524E3C
:10C5B0002076616C756500005468652070726F6349
:10C5C0006573736F7220617474656D707465642037
:10C5D00061206C6F6164206F722073746F726520CC
:10C5E00061742061206C6F636174696F6E20746880
:10C5F000617420646F6573206E6F74207065726D56
:10C60000697420746865206F7065726174696F6EFB
:10C610000000000041204D656D4D616E6167652031
:10C620006661756C74206F636375727265642064F3
:10C630007572696E6720666C6F6174696E672D70C4
:10C640006F696E74206C617A7920737461746520EF
:10C65000707265736572766174696F6E00000000B8
:10C660004120627573206661756C74206F63637519
:10C670007272656420647572696E6720666C6F61A2
:10C6800074696E672D706F696E74206C617A7920A1
:10C690007374617465207072657365727661746914
:10C6A0006F6E00005468652070726F636573736FFE
:10C6B000722068617320617474656D7074656420A4
:10C6C000746F206578656375746520616E20756E82
:10C6D000646566696E656420696E737472756374EF
:10C6E000696F6E00496E737472756374696F6E2042
:10C6F000627573206572726F720000005468652065
:10C7000070726F636573736F7220686173206174F8
:10C7100074656D7074656420746F20616363657304
:10C7200073206120636F70726F636573736F720043
:10C73000556E737461636B20666F7220616E206545
:10C740007863657074696F6E2072657475726E209F
:10C7500068617320636175736564206F6E65206F17
:10C7600072206D6F726520616363657373207669F3
:10C770006F6C6174696F6E730000000053746163C5
:10C780006B696E6720666F7220616E2065786365E5
:10C790007074696F6E20656E7472792068617320A1
:10C7A000636175736564206F6E65206F72206D6FB5
:10C7B0007265206163636573732076696F6C617461
:10C7C000696F6E73000000005468652070726F63BB
:10C7D0006573736F7220686173206D616465206199
:10C7E0006E20756E616C69676E6564206D656D6F36
:10C7F000727920616363657373000000556E737412
:10C8000061636B20666F7220616E2065786365706E
:10C8100074696F6E2072657475726E206861732022
:10C82000636175736564206F6E65206F72206D6F34
:10C830007265204275734661756C74730000000068
:10C84000537461636B696E6720666F7220616E203E
:10C85000657863657074696F6E20656E7472792097
:10C8600068617320636175736564206F6E65206F06
:10C8700072206D6F7265204275734661756C7473BA
:10C88000000000002E2E5C2E2E5C2E2E5C2E2E5CC8
:10C890002E2E5C2E2E5C636F6D706F6E656E7473E2
:10C8A0005C6C69627261726965735C626C6F636B08
:10C8B0005F6465765C656D7074795C6E72665F62EC
:10C8C0006C6F636B5F6465765F656D7074792E6302
:10C8D000000000002E2E5C2E2E5C2E2E5C2E2E5C78
:10C8E0002E2E5C2E2E5C636F6D706F6E656E747392
:10C8F0005C6C69627261726965735C626C6F636BB8
:10C900005F6465765C717370695C6E72665F626CA1
:10C910006F636B5F6465765F717370692E6300008F
:10C920002E2E5C2E2E5C2E2E5C2E2E5C2E2E5C2E41
:10C930002E5C636F6D706F6E656E74735C6C696294
:10C940007261726965735C626C6F636B5F6465765C
:10C950005C72616D5C6E72665F626C6F636B5F646C
:10C9600065765F72616D2E63000000002E2E5C2ED6
:10C970002E5C2E2E5C2E2E5C2E2E5C2E2E5C636F7B
:10C980006D706F6E656E74735C6C696272617269F2
:10C9900065735C6578706572696D656E74616C5FF6
:10C9A0006D656D6F626A5C6E72665F6D656D6F62FC
:10C9B0006A2E63004E52465F4552524F525F494EB7
:10C9C00056414C49445F4441544100004E52465F39
:10C9D0004552524F525F534F465444455649434582
:10C9E0005F4E4F545F454E41424C454400000000AD
:10C9F0004E52465F4552524F525F46454154555242
:10CA0000455F4E4F545F454E41424C454400000047
:10CA10004E52465F4552524F525F4D555445585FF6
:10CA2000554E4C4F434B5F4641494C454400000036
:10CA30004E52465F4552524F525F4D555445585FD6
:10CA40004C4F434B5F4641494C4544004E52465F74
:10CA50004552524F525F4D555445585F434F4E44D7
:10CA60005F494E49545F4641494C4544000000002F
:10CA70004E52465F4552524F525F4D555445585F96
:10CA8000494E49545F4641494C4544004E52465F29
:10CA90004552524F525F4150495F4E4F545F494D8E
:10CAA000504C454D454E5445440000004E52465FA3
:10CAB0004552524F525F4E4F545F535550504F5254
:10CAC000544544004E52465F4552524F525F4D4FBF
:10CAD00044554C455F414C52454144595F494E498C
:10CAE0005449414C495A4544000000004E52465FAB
:10CAF0004552524F525F4D4F44554C455F4E4F5437
:10CB00005F494E495449414C5A4544004E52465F94
:10CB10004552524F525F4E4F545F464F554E440060
:10CB20004E52465F4552524F525F494E56414C4914
:10CB3000445F5354415445004E52465F4552524F54
:10CB4000525F444154415F53495A45004E52465F3B
:10CB50004552524F525F5356435F48414E444C45F5
:10CB6000525F4D495353494E470000004E52465FB5
:10CB70004552524F525F494E56414C49445F4C45D5
:10CB80004E475448000000004E52465F4552524FF7
:10CB9000525F4452565F5457495F4552525F414E6F
:10CBA00041434B004E52465F4552524F525F4452F2
:10CBB000565F5457495F4552525F444E41434B00C4
:10CBC0004E52465F4552524F525F494E5445524E67
:10CBD000414C00004E52465F4552524F525F5354F3
:10CBE0004F524147455F46554C4C00004E52465F00
:10CBF0004552524F525F4E554C4C00004E52465FCC
:10CC00004552524F525F494E56414C49445F504144
:10CC100052414D004E52465F4552524F525F4E4F69
:10CC20005F4D454D000000004E52465F4552524F49
:10CC3000525F464F5242494444454E004E52465F71
:10CC40004552524F525F4452565F5457495F4552C6
:10CC5000525F4F56455252554E0000004E52465FAD
:10CC60004552524F525F494E56414C49445F4144F0
:10CC7000445200004E52465F4552524F525F494E59
:10CC800056414C49445F464C414753004E52465F23
:10CC900053554343455353004E52465F4552524FFE
:10CCA000525F54494D454F55540000004E52465F67
:10CCB0004552524F525F4255535900002E2E5C2E62
:10CCC0002E5C2E2E5C2E2E5C2E2E5C2E2E5C636F28
:10CCD0006D706F6E656E74735C6C6962726172699F
:10CCE00065735C6578706572696D656E74616C5FA3
:10CCF0006C6F675C7372635C6E72665F6C6F675FAC
:10CD00006261636B656E645F756172742E630000AF
:10CD10002E2E5C2E2E5C2E2E5C2E2E5C2E2E5C2E4D
:10CD20002E5C636F6D706F6E656E74735C6C6962A0
:10CD30007261726965735C6578706572696D656E44
:10CD400074616C5F6C6F675C7372635C6E72665F5C
:10CD50006C6F675F64656661756C745F6261636B5D
:10CD6000656E64732E6300002E2E5C2E2E5C2E2EBC
:10CD70005C2E2E5C2E2E5C2E2E5C636F6D706F6EA3
:10CD8000656E74735C6C69627261726965735C650F
:10CD900078706572696D656E74616C5F6C6F675CED
:10CDA0007372635C6E72665F6C6F675F66726F6EE4
:10CDB00074656E642E6300007761726E696E670041
:10CDC00064656275670000001B5B313B33306D00AA
:10CDD0001B5B306D000000001B5B313B33316D008D
:10CDE0001B5B313B33326D001B5B313B33336D00DA
:10CDF0001B5B313B33346D001B5B313B33356D00C6
:10CE00001B5B313B33366D001B5B313B33376D00B1
:10CE1000696E666F000000006170705F7573626418
:10CE200000000000636C6F636B0000006770696F47
:10CE30007465000073706900756172740000000011
:10CE40005553424400000000757362645F6D736364
:10CE500000000000686172646661756C7400000017
:10CE600062616C6C6F63000061707000DCCE00006A
:10CE7000000000201C020000BC07000068CF00007A
:10CE80001C0200207C4802007010000018CE000038
:10CE90000000000024CE0000000000002CCE0000A6
:10CEA0000000000034CE00000000000038CE00007A
:10CEB0000000000040CE00000000000048CE00004E
:10CEC0000000000054CE00000000030060CE00000F
:10CED0000000000068CE00000000030033ACBB334C
:10CEE000CCBBB3E8BB83E8BB023301031B6924332B
:10CEF00038BD333CBD3366BD338CBD0353A6BD3353
:10CF0000A4C673B8C53330C7337CC7B314C633E483
:10CF1000C633D8C3336CC333FCC73340C8B360C611
:10CF200033A4C633D4C43330C50313FCC633C8C7D7
:10CF3000C388C454200040031FA4C033F4C633B8D0
:10CF4000CD3310CE33C0CD33D0CD33C8CD33D8CDD3
:10CF500033E0CD33E8CD33F0CD43F8CD32CE4308C6
:08CF6000CE047D90D003000017
:0400000500000201F4
:00000001FF
