:020000040000FA
:10000000780E00204D030000550300005703000048
:10001000590300005B0300005D03000000000000C6
:100020000000000000000000000000005F0300006E
:10003000610300000000000063030000650300008E
:10004000F503000067030000A90800006703000033
:10005000670300000000000067030000490400007F
:100060005D080000670300006703000067030000ED
:1000700067030000670300006703000067030000D8
:1000800067030000670300006703000067030000C8
:1000900067030000670300006703000067030000B8
:1000A000670300006703000000000000000000007C
:1000B000670300006703000000000000000000006C
:1000C0000000000000000000000000000000000030
:1000D0000000000000000000000000000000000020
:1000E0000000000000000000000000000000000010
:1000F0000000000000000000000000000000000000
:1001000000000000000000000000000000000000EF
:1001100000000000000000000000000000000000DF
:1001200000000000000000000000000000000000CF
:1001300000000000000000000000000000000000BF
:1001400000000000000000000000000000000000AF
:10015000000000000000000000000000000000009F
:10016000000000000000000000000000000000008F
:10017000000000000000000000000000000000007F
:10018000000000000000000000000000000000006F
:10019000000000000000000000000000000000005F
:1001A000000000000000000000000000000000004F
:1001B000000000000000000000000000000000003F
:1001C000000000000000000000000000000000002F
:1001D000000000000000000000000000000000001F
:1001E000000000000000000000000000000000000F
:1001F00000000000000000000000000000000000FF
:10020000DFF80CD000F0E4F800480047110C0000C3
:10021000780E002030B4044654E8000F0D4644E840
:100220000053002BF8D1156030BC704730B4044641
:1002300054E8000F40EA010544E80053002BF7D1D1
:10024000156030BC704730B4044654E8000F00EA33
:10025000010544E80053002BF7D1156030BC70470E
:1002600030B4044654E8000F80EA010544E8005326
:10027000002BF7D1156030BC704730B4044654E809
:10028000000F00EB010544E80053002BF7D1156087
:1002900030BC704730B4044654E8000FA0EB0105B1
:1002A00044E80053002BF7D1156030BC70470000C4
:1002B00030B4044654E8000F0D4644E80053002BC8
:1002C000F8D1156030BC704730B4044654E8000FD4
:1002D00040EA010544E80053002BF7D1156030BC1B
:1002E000704730B4044654E8000F00EA010544E8C2
:1002F0000053002BF7D1156030BC704730B4044672
:1003000054E8000F80EA010544E80053002BF7D1C0
:10031000156030BC704730B4044654E8000F00EB61
:10032000010544E80053002BF7D1156030BC70473D
:1003300030B4044654E8000FA0EB010544E8005334
:10034000002BF7D1156030BC70470000064880478D
:1003500006480047FEE7FEE7FEE7FEE7FEE7FEE7AA
:10036000FEE7FEE7FEE7FEE7910500000102000060
:10037000004870472824000040EA01039B0703D08F
:1003800009E008C9121F08C0042AFAD203E011F8D4
:10039000013B00F8013B521EF9D27047D2B201E096
:1003A00000F8012B491EFBD270470022F6E710B57A
:1003B00013460A4604461946FFF7F0FF204610BDD3
:1003C000421C10F8011B0029FBD1801A7047000065
:1003D000064C074D06E0E06840F0010394E8070092
:1003E00098471034AC42F6D3FFF70EFFC824000044
:1003F000E824000070B54FF08040D0F80443114D60
:10040000600706D54FF4847001F06EFC08B168688F
:100410008047A00607D54FF48A7001F065FC10B143
:10042000A9680020884760060AD54FF48C7001F057
:100430005BFC002804D0A968BDE870400120084793
:1004400070BD0000080000202DE9FE434FF48278C3
:10045000404601F0B1FC4C4F00254C4C012600B346
:10046000404601F0B1FC94F82E0010B194F82F1022
:10047000D1B18DF80050616801912189ADF8081063
:10048000E26832B1218B618362602181E56010B145
:1004900002E0257400E03E6021686846884784F8E1
:1004A0002F5094F82E0060B34FF48077384601F057
:1004B00083FC30B3384601F087FC628B94F82D1032
:1004C0008A420AD9A2EB010080B260832289A2EBA2
:1004D0000000626802EB400005E007D1E06828B147
:1004E00084F82F60658301F021FC04E08A4202D188
:1004F00084F82F606583404601F066FC2248001DA9
:1005000006604FF48877384601F056FC48B138460B
:1005100001F05AFC257402208DF80000216868461D
:1005200088474FF48A77384601F046FC28B13846B0
:1005300001F04AFC2574BDE8FE834FF000484FF4FB
:100540008C7967691DE000BFB7FA87F028FA00F1DF
:1005500009EB80058F43284601F02EFC88B1284620
:1005600001F032FCA5F58C75E8088DF8040045F320
:100570008000401C8DF800608DF8050021686846F9
:100580008847002FE0D1D6E700700040F40000203B
:10059000F0B5A1480127031D01783A07181D062967
:1005A0000BD11C78240708D10478C4F30314032C5E
:1005B00006D0042C04D0052C02D0062907D011E067
:1005C000B2F82443954DC4F304242C6002E01C7857
:1005D000240707D10478C4F30314032C02D1914DEE
:1005E0008F4C6C67D2F844428F4DC4F342342C6078
:1005F00006290CD11C78240709D10478C4F303140C
:10060000032C04D1894C256825F0807525604FF0B6
:1006100080440025C4F80C51C4F81051824C241FAA
:100620002560062907D11C78240704D10478C4F377
:100630000314032C02D0062908D01FE0DFF8E8C11C
:1006400003240CF1640CCCF8004007E01C7824076C
:1006500014D10478C4F30314032C0FD1DFF8D0C1F4
:100660000524CCF80040724C78342760704C083474
:1006700025600CF1040C3F24CCF800406D4C24683C
:10068000DFF8B4C1CCF800406A4C241D24680CF19A
:10069000040CCCF80040674C083424680CF1040CBE
:1006A000CCF80040634C0C3424680CF1040CCCF8FA
:1006B0000040604C103424680CF1040CCCF800406D
:1006C0005C4C143424680CF1040CCCF80040594CF8
:1006D00018342468DFF860C10CF1200CCCF800401D
:1006E000544C1C3424680CF1040CCCF80040514CE0
:1006F000203424680CF1040CCCF800404D4C243418
:1007000024680CF1040CCCF800404A4C28342468CE
:100710000CF1040CCCF80040464C2C3424680CF14D
:10072000040CCCF80040434C30342468DFF808C196
:100730000CF1400CCCF800403E4C343424680CF1F1
:10074000040CCCF800403B4C383424680CF1040C09
:10075000CCF80040374C3C3424680CF1040CCCF845
:100760000040344C403424680CF1040CCCF80040B8
:10077000DFF8C8C0FB24CCF80040062913D11C7850
:10078000240710D10478C4F30314032C03D0042CE1
:1007900001D0052C07D1D2F85842DFF8A4C004F0EC
:1007A0004F04CCF8004027480168C90702D06FF019
:1007B000010101604FF01021D1F80002002803DB95
:1007C000D1F80402002822DA1F4A17601F48036884
:1007D000002BFCD01523C1F800320468002CFCD09B
:1007E000C1F8043201680029FCD0156001680029B5
:1007F000FCD0BFF34F8F0D48F0380168144A01F464
:10080000E06111430160BFF34F8F00BFFDE7124964
:1008100010480860F0BD0000E00F00F040350140D6
:100820000DF0ADBA00C007403C050040FCED00E013
:10083000105600400404001020C5004018F5004088
:10084000E40E00400004004004E5014000E40140E3
:100850000400FA050090D003880000202DE9F84339
:1008600000250F4C04274FF4A078BE034FEA05097A
:1008700008EB850006FA05F122585AB1D4F8042392
:100880000A4207D044F800902158064A0091516866
:10089000126890476D1CEDB2BD42E9D3BDE8F88304
:1008A00000800040240100200149024801F05ABCA8
:1008B000300100200020004002E008C8121F08C1DB
:1008C000002AFAD170477047002001E001C1121FD1
:1008D000002AFBD17047000001F028F900F08CFFDE
:1008E0000028FBD1104C0121208801EB00400FA112
:1008F00001F074F810480068C00700D000BE2088DE
:10090000022101EB00400DA101F068F8BFF34F8F09
:100910000948E43801680D4A01F4E06111430160BF
:10092000BFF34F8F00BFFDE7D40000204661746124
:100930006C206572726F7200F0ED00E05379737491
:10094000656D207265736574000000000400FA058F
:100950000EB500210091CDE901106A4644F2010074
:10096000FFF7BAFF0EBD00F003B800F009B80000B1
:1009700072B602480168491C016070471C000020E3
:1009800003490868401E086000D162B67047000045
:100990001C0000202DE9F041064608680C46411C69
:1009A0004FF0A0474FF0010506D005FA00F1C7F857
:1009B0000815206800F042FE6068411C02D000214A
:1009C00000F033FE3168A069C1F82405607D217D07
:1009D00032680843C2F86C05D4E900123068C0F8E8
:1009E0000C15C0F81425207D012815D1A068411CE4
:1009F00002D0002100F019FEE068411C05D08540BE
:100A0000C7F80855E06800F019FED4E90212306812
:100A1000C0F80825C0F81015BDE8F0812DE9F041B7
:100A2000871C0E4601250020FFF79DFF124C206811
:100A30003060D4E90001401AA168091ABE1C06E022
:100A400000F09CF8D4E90001401AA168091A491C79
:100A50008E42F5D8A1682068084004EB8000C16888
:100A600041F00301C1602068384420600020FFF796
:100A70007CFF2846BDE8F0815802002030B482682F
:100A80000468531C8360A154D0E901128A4202D346
:100A900030BC00F0B6BC30BC70470000034803C84F
:100AA000814201D101207047002070475802002088
:100AB0002DE9FC5F0E008346DDE90C47C6F100001E
:100AC00098469246814600D40846012503E000BFBF
:100AD00090FBFAF06D1C5045FADAA84500D945465E
:100AE00024B1002E01DB780700D5641EB80702D5BB
:100AF000B8F1000F0AD0F80708D13CB1A54205D2E1
:100B000020215846641EFFF7B9FFF6E7002E02DAEF
:100B10004E462D2102E0780703D52B215846FFF7DA
:100B2000ADFF07F0030002280BD1B8F1000F08D188
:100B30003CB1A54205D230215846641EFFF79EFF06
:100B4000F6E7CDE90047434652463146584601F0A4
:100B500085FBBDE8FC9F00000121814003484068FF
:100B6000014201D00120704700207047140000208E
:100B700001218140080300D00120704770B588B082
:100B8000214800F0D5F82048001F064600F0D0F8B4
:100B90001E4DD5E9014105E0C0F3891202EB9050EA
:100BA000641C044404EA010005EB8000C06882076D
:100BB000F2D000200DF1080204EA010305EB8303E3
:100BC000641CDB6842F82030401C0228F4D30298F1
:100BD00000F00300012808D002280AD1029803215E
:100BE00001EB905004EB900403E00298C0F38310F3
:100BF00004443046002101AAFFF773FB002800D00F
:100C00006C6008B070BD0000700600205802002023
:100C1000002000F045FF08B1FFF79AFE00F0DEFD6E
:100C2000002000F0FDF808B1FFF792FE01F066F831
:100C300008B1FFF78DFE0B480321008801EB00404F
:100C400009A100F0CBFE01F083F901F0B9F901F040
:100C5000A9F900BF01F066F800F0CEFD0028FBD135
:100C6000F8E70000D40000205341414443204841AC
:100C70004C2073696D706C65206578616D706C6572
:100C80002E0000002DE9F047C7880446181D1646BF
:100C90008946B0FBF7F1B0FBF7F207FB12009A1997
:100CA0003A44D21CB2FBF7F2DDF820A001E0246840
:100CB000491E0029FBD13D1A8846B54216D818E0D6
:100CC000BAF1000F05D0211809EB08002A46091DCA
:100CD00004E0204409EB08012A46001DFFF74CFB05
:100CE00000202468761BA844B74201D9354600E0AD
:100CF0003D46002EE4D1BDE8F087000030B5024645
:100D000069B100F0FBFE0021084C0BE001EB410350
:100D100004EB830315685B88AB4202D111600020AD
:100D200030BD491C8142F1D3052030BD8C0000202C
:100D300008B501216A46FFF7C7FA009808BD70B5EB
:100D4000044600252846FFF70EFE21686268086801
:100D500090420ED9401E08600178238AE26801FBA8
:100D60000325227A2168101AC0B20A79824200D281
:100D700008710020FFF7F9FD284670BD70B50546E3
:100D80000C460020FFF7EFFDE868298A201AB0FB27
:100D9000F1F12A681068431C13600170BDE87040CF
:100DA0000020FFF7E2BD10B530B1017A4268036858
:100DB000891AC9B21A6006E00E2010BD03681A68CD
:100DC000541C1C601170491EC9B2F7D20068002182
:100DD0000171084610BD4907090E002806DA00F027
:100DE0000F0202F1E02282F8141D03E000F1E0227C
:100DF00082F8001400F01F02012191404009800098
:100E000000F1E020C0F88012C0F800117047012105
:100E1000B1EB507F01D101207047002070470000E6
:100E200070B50D4C217809B1852070BD00B90B4813
:100E30000B49007800F0010008604FF0E020D0F886
:100E40000001012510F0010F03D107210020FFF759
:100E5000C2FF2570002070BD08000020292300007B
:100E6000780500402DE9F0470427144E8146002400
:100E70004FF001080020FFF776FD08FA04F535422F
:100E800003D02046FFF768FE58B10020FFF76DFD44
:100E900027B104F10104AE43E4B2EBD13846BDE81A
:100EA000F087074908FA04F000274A6810434860B1
:100EB00089F800403846FFF758FDEFE7FFFF0F00C5
:100EC000140000202DE9F04114460D00074612D011
:100ED0008CB10026FFF74CFE78B13846FFF73CFE98
:100EE00068B1084800EBC700C0F81055C0F81445B9
:100EF0003046BDE8F0810E20FBE70726F8E708261C
:100F0000F6E7000000F0014070B504460126002518
:100F1000A640FFF72DFE18B12046FFF71DFE18B1C1
:100F200002480660284670BD0825FBE704F501402D
:100F30000448017809B18520704701210170002023
:100F400070470000140000202DE9F041254C0646B2
:100F500012200D46C4F808032348017C022918D04A
:100F6000027C01464FF4807891F82E10012A12D0AD
:100F70000222C4F804230127077446600581002279
:100F8000C26021B3458390F82D10304600F0CEFEAC
:100F900025E0122002E0C2682AB10220C4F804034E
:100FA0001120BDE8F081C660058361B94746384627
:100FB00000F002FF0028FAD0384600F005FF29466D
:100FC000304600F0B3FE0220C4F8040307E02946CF
:100FD000304600F0ABFE404600F0F6FE27600020F1
:100FE000DFE7000000700040F400002070B50C4600
:100FF00014490546087C08B1112070BD2079124EB5
:1010000008B1012801D10020306001EB4500027FCA
:101010001AB911F82D2F521C0A70E1790177217A43
:1010200041772146284600F089FE227AE179284658
:1010300000F0B8FE207908B1012801D1012030600C
:10104000002070BDF4000020007500402DE9F04143
:101050001D4C054694F82C0010B10820BDE8F08125
:1010600009B115B102E00720F8E7184D44F8101B4C
:10107000174928780860091D68780860E878A07723
:10108000012727770020207060776060114EE0779D
:101090006FF00040C6F808034FF4827000F094FE31
:1010A000B01500F091FEA9780720FFF794FE02200A
:1010B000C6F80403A07F10B10120C6F80403044859
:1010C000F03807600020C9E7F40000202A23000060
:1010D000F075004000700040044890F82E0008B100
:1010E000002000E00420024908447047F40000207A
:1010F0000070004030B54FF4803405688C4013B167
:10110000C5F8044301E0C5F80843006800EB81001E
:10111000C0F8402530BD0000016801220A60007956
:10112000034A00EB400002EB80000221017270478D
:1011300024010020F0B40468049E40F20115D4F8A4
:1011400000728D40AF43C4F800720468D4F80052B6
:101150001D43C4F800523346F0BCFFF7CBBF00007C
:10116000F8B504460D460079204900EB400001EB3C
:101170008006307A08B10820F8BD3AB1326068685C
:101180007060002003464FF4A07709E00720F8BD07
:10119000226807EB800153505158401CC0B20091A7
:1011A00061798142F4D82068E978000B40B2FFF7FA
:1011B00012FE20686978D0F8042561F30102C0F8B6
:1011C00004252068A978D0F8082561F30102C0F849
:1011D000082520682978D0F8102561F30302C0F8AB
:1011E0001025012030720020F8BD000024010020ED
:1011F0002DE9F04105460F4600791F49C0EBC000BC
:1012000001EB80041646E07E10B10820BDE8F081B5
:1012100039462846FFF7BEFB666038692060F6B1A4
:101220003E7F4FF48871286800F0F4FD4FF4907110
:10123000286800F0EFFD4FF49271286800F0EAFD95
:101240004FF4A271286800F0E5FD28680B49C0F84A
:10125000041328683146000B40B2FFF7BCFD286834
:101260000821C0F800150020E0752076A075012146
:10127000E176A076CAE700003001002010030200EA
:101280002DE9F04704460079254FC0EBC00007EB7D
:10129000800590460E460846FFF7B9FD30B120465E
:1012A00000F040F820B11120BDE8F0871020FBE7E6
:1012B00085F816804FF00008AE60A5F814802079FC
:1012C0004FF49079C0EBC00007EB800546464946D5
:1012D000206800F09FFD4FF4AC773946206800F09D
:1012E00099FD2068A97DAA68C0F84425C0F8481572
:1012F000206801218160686880B9CA46B9465146B4
:10130000206800F082FD07464946206800F07DFD18
:101310000743F4D000B10F2685F816803046C3E7A6
:101320003001002000790549C0EBC00001EB8000CE
:10133000807D002800D0012070470000300100208F
:101340002DE9F041024600792549C0EBC00001EBD0
:10135000800710684FF00008C0F80085786880B1F9
:1013600010682049C0F8081310680121000B40B232
:1013700000F01F0399404009800000F1E020C0F810
:1013800080111068D0F80C35D0F81465D0F80855E5
:10139000D0F810454FF0FF31C0F80C15C0F8141507
:1013A0001068C0F80815C0F81015581C02D018466F
:1013B00000F032F9701C02D0304600F02DF9601CAC
:1013C00002D0204600F028F9681C02D0284600F020
:1013D00023F987F81B80C7F80480BDE8F08100007E
:1013E00030010020100302000FB408B50399002952
:1013F00004D004AA00926A4600F00FF801B05DF82C
:1014000014FB10B582680446002A05D0D4E9040311
:10141000216898470020A06010BD2DE9FC47914647
:101420000C00804676D014F8011B39B125290ED066
:101430004046FFF723FB20780028F4D198F80C00F1
:10144000002867D04046BDE8FC47FFF7DABF002020
:10145000012221782B291BD02D2902D0302908D137
:1014600002E040F0010001E040F00200641C002AAC
:10147000EFD100252A290ED02178A1F130020A2AC5
:1014800011D205EB850201EB4205641C303DF1E70A
:1014900040F00400EAE7D9F800100B1DC9F800304D
:1014A0000968641C0D44217800232E290BD114F8FF
:1014B000011FA1F130020A2A05D203EB830201EBDE
:1014C0004203303BF3E76C290DD068290BD0692922
:1014D00021D00BDC252918D0582931D063290ED012
:1014E000642915D117E014F8011FECE7702969D0C1
:1014F000732932D075291BD0782909D120E0D9F879
:101500000000011DC9F8001001784046FFF7B6FA47
:10151000641C90E76CE0D9F800100A1DC9F800209F
:101520000968CDE900500A224046FFF7C1FAEFE70B
:10153000D9F800100A1DC9F8002009680A2206E03F
:10154000D9F800100A1DC9F8002009681022CDE959
:101550000050404600F082FEDAE7D9F8001000277C
:101560000A1DC9F800200E68C00705D112E04046E8
:10157000761C7F1CFFF782FA31780029F7D104E04E
:10158000202140466D1EFFF779FABD42C0D9002DDB
:10159000F6D1BDE74EB13046FEF712FF074604E034
:1015A000202140466D1EFFF769FABD4206D9002D85
:1015B000F6D103E04046761CFFF760FA3178002947
:1015C000F8D1A5E7D9F80000011DC9F80010056899
:1015D00030214046FFF752FA78214046FFF74EFA95
:1015E00008200021CDE90001034610222946B0E77A
:1015F000BDE8FC8770B541EA4201DDE904564FF0D1
:10160000A04441EA830141EA052104EB800041EA5C
:101610000641C0F8001770BD1CB5002100910B46B3
:1016200001220191FFF7E6FF1CBD1CB500220B460D
:10163000009211460192FFF7DDFF1CBD1CB5002191
:1016400000910B46012201911146FFF7D3FF1CBD0B
:1016500030B5124B01460020D3F81044224609E071
:10166000157A854205D1401C0A28F7DB4FF0FF3080
:1016700030BD5268002AF3D1421CF9D00872D3F869
:1016800010242AB152684A60D3F81024516030BD4A
:101690000022C3F810144A6030BD00005802002038
:1016A000F0B595B01C4615460F4608461A9E00F048
:1016B000F5FA182109A8FEF778FE0E96CDE909542F
:1016C0000023082203A9384600F002FB0598069083
:1016D0000498ADF81C0000208DF82000039808261F
:1016E00000F00300012802D002281DD03CE003983E
:1016F0003346850AC0F3C2008DF81E0003980FA977
:10170000C0F380008DF81F000398C0F38314A2007B
:10171000384600F0DDFA09A8009006AB22460FA972
:10172000284600F017FA1FE00398840DC0F3C200AA
:101730008DF81E000398C0F380008DF81F00082C60
:1017400001D2254600E0082533462A460FA938462F
:1017500000F0BEFA2E44641B09AB06AA29460FA866
:1017600000F048F9002CEAD1384600F0A0FA15B094
:10177000F0BD7047012000F0CDBC000010B504485A
:10178000FFF7DEFDBDE81040002000F0C3BC000004
:101790002C00002008B5034A00924023024AFFF7BC
:1017A0007FFF08BD4D200000580100200A4A012992
:1017B00002EBC00007D0022907D0032907D0042973
:1017C00007D000207047022070470420704700793E
:1017D0007047407970470000E824000010B5FFF71B
:1017E000C9FF04210348FFF733FF02490120487273
:1017F00010BD0000340000202DE9FE4FFFF74EF928
:1018000010B10020BDE8FE8F72480021C0F8181406
:10181000BFF34F8FD0E9014604EA060100EB8101D6
:101820004FF000090AE000BFC1F3891202EB9151A9
:10183000641C0C4404EA060100EB8101C9688A07B4
:10184000F2D000216A46804604EA060008EB8000D8
:10185000641CC06842F82100491C43460229F3D3A6
:10186000009800F00300022806D0012800984FD00D
:10187000C04380077ED0A8E000985022810D8A46A0
:10188000B2EB905F00D850210D4665F39F50009059
:101890000831514800F0B9F907006CD000F0FEF9AA
:1018A0004B4608226946384600F018FA04EA06005A
:1018B000311A8900091D09F1080B8D4221D9454EC5
:1018C0000C3631B1CAB208EB8000691A91460C306F
:1018D00004E03046EAB2002691463146CDB20146D8
:1018E0005B46384600F0FAF90BEB090326B12A46AD
:1018F0003146384600F0F2F90AF1030004EB900497
:101900003BE008EB80015B462A4638460C31F1E7A4
:10191000C0F38310062800D30620009960F38911D4
:10192000C1F38310801C009181002B4800F06DF9F9
:1019300007004AD000F0B2F94B4608226946384603
:1019400000F0CCF909F1080900250DE004EA0600D1
:1019500008EB80014B46042238460C31641C00F031
:10196000BDF909F104096D1C0098C0F38310A84269
:10197000ECD801E00BE028E03FB3D8F81054D8F8D9
:101980001804464690B1384600F091F91DE0D3F8AE
:10199000180400283FF436AF17E0687A012804D114
:1019A0002A6828463946126890476D68002DF4D1A0
:1019B000384600F07CF90020FEF7D5FFD6F8180471
:1019C00000B974600020FEF7D0FFFFF767F880F0E1
:1019D000010017E7580200209023000000231A4658
:1019E00000F048BB08B5012300926A4600F042FBB4
:1019F00008BD00002DE9F0470E4680461C46924681
:101A000008293ED894F80C900020207319461046FF
:101A100000F024FA0025B54206D218F805201AA1D4
:101A20002046FFF7E1FC03E019A12046FFF7DCFCAC
:101A30006D1C082DEFD317A12046FFF7D5FC00251C
:101A4000B54210D218F80570FEF792FC0068C05D30
:101A500010F03E0F01D03A4600E02E220EA12046A3
:101A6000FFF7C2FC03E00DA12046FFF7BDFC6D1C93
:101A7000082DE5D301222146504600F0D1F984F823
:101A80000C90BDE8F087000020253032780000007F
:101A9000202020007C0000002563000020000000C2
:101AA000114810B5FF218160002101604160C0F83C
:101AB0001814C0F8141480F81C140C4800F0F5F841
:101AC00000280FD10A480B490B4B401AC1080020CF
:101AD00005E000BF00EB400223F82200401C8842D2
:101AE000F8D3002010BD0000580200209023000011
:101AF00020250000E82400008C0000200248034953
:101B0000401AC0087047000020250000E8240000AB
:101B100013B56846FFF7F2F808B100201CBD024873
:101B2000009950F831001CBDE824000070B5084849
:101B30000125D0F8104480F81C5405E06572216836
:101B40002046496888476468002CF7D170BD0000C2
:101B5000580200202DE9FF4781460C9D00200C46CD
:101B60002F7B2873984616462946184600F076F9CA
:101B7000072E42D2DFE806F004090F161F2A3600AE
:101B800049462846FFF730FC37E049462846226898
:101B9000FFF72AFC31E0D4E9002349462846FFF745
:101BA00023FC2AE0A0680090D4E900234946284697
:101BB000FFF71AFC21E0D4E90201CDE90001D4E9E4
:101BC000002349462846FFF70FFC16E004F1080001
:101BD00007C88DE80700D4E9002349462846FFF7E7
:101BE00003FC0AE004F108000FC88DE80F00D4E9F7
:101BF000002349462846FFF7F7FB002229464046C6
:101C000000F00EF92F73BDE8FF872DE9F041058A3A
:101C100080462D1F4819C01CB0FBF5F0C6B24046E7
:101C2000FFF78DF8041E19D000202071012060718B
:101C3000E58000272546761EC4F800800BE040466C
:101C4000FFF77DF860B16179491C61712860054634
:101C50007F1CC0F80080B742F1D32046BDE8F08178
:101C6000204600F002F80020F8E72DE9F041457920
:101C700001466B1E002201E00968521C9A42FBD308
:101C80000F680146002605E038460C68FFF776F835
:101C90002146761CAE42F7D3BDE8F08108B501219C
:101CA0006A46001DFEF7E9FA08BDFFF77CB838B5B3
:101CB0000446001D01216A46FEF7ECFA009810F078
:101CC000FF0F04D12046BDE83840FFF7CEBF38BD36
:101CD00038B501240094FEF7D5FF38BD38B500248F
:101CE0000094FEF7CFFF38BD00F180410868002264
:101CF00010B101200A60704710467047064910B5C0
:101D000000204870091D0860BFF35F8F0349044835
:101D100000F064F8002010BD2000002058230000CF
:101D20004C01002020BF40BF20BF7047024A106016
:101D3000101D0160704700002C76004010B50A7835
:101D40004B78302402F0030204EA03131A438B7821
:101D50004FF4E06404EA03231A43CB784FF4805431
:101D600004EA03331A430B794FF4E02404EA0343F3
:101D70001A434B794FF4801404EA03531A438B79C6
:101D8000240104EA03631A43030105481844C0F818
:101D90001825CA79097AC0F81415C0F8102510BDA5
:101DA00000700040030103481844C0F81425C0F82F
:101DB000101570470070004002494058002800D0BC
:101DC0000120704700700040034908B50844002214
:101DD00002600068009008BD007000400160096862
:101DE0004160AFF3008010B5D0E9002153689942FB
:101DF00001D1002104E0D1E90034A34202D0194608
:101E0000816010BD08314160F0E74058002800D0E3
:101E10000120704708B5002242504058009008BD8C
:101E200010B50C46C17949B11AB109A12046FFF796
:101E3000DBFA2046BDE81040FFF7E3BA007A00283D
:101E4000F3D0044804A102682046FFF7CDFAECE77E
:101E50000D0A0000640000202573000070B50446E0
:101E6000C0790D4600281CD1207A50B1A179A088F4
:101E7000FFF79CFC0B4951F820200BA12846FFF7E7
:101E8000B3FAA0880021FFF743FE03460549A07975
:101E9000143951F820202846BDE8704003A1FFF70F
:101EA000A3BA70BD64000020257300003C25733E7A
:101EB0002025733A200000001FB501238DF8003063
:101EC0008DF808100192D0E90012684690471FBDB6
:101ED0002DE9F04105460078002824D105216868E5
:101EE000FFF732F808B1FEF733FD104FDFF84080FE
:101EF000032638880FA106EB0040D8F80420FFF72E
:101F000071FD0024686811A130F91420388806EBAF
:101F10000040FFF767FD641C052CF3DBD8F80410C4
:101F2000491CC8F80410BDE8F0810000D40000206E
:101F300000000020414443206576656E74206E7574
:101F40006D6265723A20256400000000256400007F
:101F50000EB5114A07CA8DE8070010490020FFF7A7
:101F600075F808B1FEF7F4FC69460020FFF73EF86B
:101F700008B1FEF7EDFC05210948FEF7E5FF08B1C1
:101F8000FEF7E6FC064805210A30FEF7DDFF0028D3
:101F900001D0FEF7DDFC0EBD20230000D11E0000A5
:101FA000E0000020054810B50078FEF7ADFF0028DE
:101FB00003D0BDE81040FEF7CBBC10BD00000020F0
:101FC0003EB5FEF7B5FF08B1FEF7C2FC1B491C4A3F
:101FD000D1E90201CDE9010103208DF8060001A934
:101FE0001648FFF7BDF808B1FEF7B2FC134C2068A5
:101FF000D0F81005134A0123C2400020014600908A
:102000002046FFF797F82046FFF786F8246804F586
:10201000A074FFF761F805460B48FEF723FF08B1EF
:10202000FEF796FC08482A4621460078FEF74AFF4C
:10203000002801D0FEF78CFC3EBD000010230000FC
:102040000521000000A861000000002010B5084C28
:102050000020D2B22070201DFFF712F908B1FEF760
:1020600077FC6078002802D021780029FAD010BDD2
:10207000280000202DE9F843214C8846054691466A
:102080001F4669461846A668FEF7C8FC70B300985C
:10209000811C00220AE000BF01EA060C59F8223038
:1020A00004EB8C0C491C521CCCF80C30BA42F3D314
:1020B0000246401C304004EB80002B0CC36002EA57
:1020C000060004EB8002E80652F80C0F02D540F03F
:1020D000040001E020F0040065F3C50067F38910F7
:1020E00068F39F2020F00300401C106094F81C044B
:1020F00002E000BFFFF780FB0028FBD1BDE8F883BA
:102100005802002070470000014901200870704704
:102110002800002010B588B0044620220E496846E9
:10212000FEF72AF906200090C01F0190029003904C
:102130004FF0EB7006900CB1084A00E000226946AF
:102140000748FFF755F808B1FEF702FC0448001FE6
:10215000447008B010BD0000702300000921000089
:102160002C0000202DE9FF410C464FF492770646E3
:102170003946FFF74AFE0025C0B139463046FFF721
:1021800049FE02208DF80000D6F88004C6F88004CD
:102190000390D6F83C058DF80800E0680190E575DD
:1021A0002576D4E900126846904724E04FF48877FA
:1021B00039463046FFF729FEE8B139463046FFF789
:1021C00029FED6F83C05C1B2E07D884213D1207EBD
:1021D00060B1E268D6F8000220F02000C6F80002E4
:1021E000207EE0752069E060257601E0E575E26813
:1021F0002046FFF761FE4FF4A27739463046FFF7DD
:1022000004FE68B139463046FFF704FEE07D38B180
:10221000E575D6F83C05E268C1B22046FFF74CFEF2
:102220004FF4907739463046FFF7EFFD002813D082
:1022300039463046FFF7EEFDA07D00280CD0D6F8D9
:102240004C058DF800508DF80800A0680190A57528
:10225000D4E9001268469047BDE8FF812DE9F05FA0
:102260008346DDE90A4A994690460D46084601270D
:1022700003E000BFB0FBF8F07F1C4045FAD2B9453F
:1022800000D94F465FEACA7012D18CB15FEA8A70FA
:1022900002D5B9F1000F01D0202607E0302605E075
:1022A00031465846641EFEF7E9FB0CB1A742F7D34E
:1022B0005FF00106B9F1010F02D9A9F1010903E0AC
:1022C000B5FBF6F0404502D306FB08F6F2E7DFF86F
:1022D0003C9000BFB5FBF6F000FB165519F8001056
:1022E0005846FEF7CBFBB6FBF8F6002EF2D15FEABC
:1022F000CA7009D0002C07D0A74205D22021584629
:10230000641EFEF7BBFBF5E7BDE8F09F2E2300003F
:1023100000800040000400000000000700000000F2
:102320000000000002000001000101000700303140
:10233000323334353637383941424344454600005C
:10234000000000000000000000000000000000008D
:10235000000000000000000040230000582300009F
:1023600004000000951700007D170000731700009F
:10237000FFFFFFFFFFFFFFFFFFFFFFFFFFFFFFFF6D
:1023800000000000000000000000D601070100006E
:102390004800002040000020480000209801002054
:1023A0001800000000404040404040404040414153
:1023B000414141404040404040404040404040401A
:1023C00040404040400502020202020202020202B4
:1023D00002020202022020202020202020202002B1
:1023E0000202020202029090909090901010101041
:1023F00010101010101010101010101010101010DD
:102400000202020202028888888888880808080870
:10241000080808080808080808080808080808083C
:102420000202020240000000A52300007761726EE4
:10243000696E670064656275670000001B5B313B75
:1024400033306D001B5B306D000000001B5B313BC7
:1024500033316D001B5B313B33326D001B5B313B15
:1024600033336D001B5B313B33346D001B5B313B01
:1024700033356D001B5B313B33366D001B5B313BED
:1024800033376D00696E666F000000006572726F11
:102490007200000070706900736161646300000085
:1024A00074696D657200000075617274000000004F
:1024B00062616C6C6F6300007077725F6D676D7442
:1024C0000000000061707000202500000000002066
:1024D000E0000000B808000000260000E000002036
:1024E000980D0000C80800009424000000000000BF
:1024F0009824000000000000A0240000000000005C
:10250000A824000000000000B0240000000000002B
:10251000B824000000000000C424000000000300F4
:1025200000000000000000000000000000000000AB
:10253000000000000000000000000000000000009B
:10254000000000000000000000000000002000402B
:1025500000000000642300000000000000000000F4
:10256000000000000000000000000000000000006B
:10257000000000008C2400002C24000084240000B3
:1025800034240000442400003C2400004C240000BB
:10259000542400005C240000642400006C2400002B
:1025A000742400007C2400000090D0030000000090
:1025B000000000000000000000000000000000001B
:1025C000000000000000000000000000000000000B
:1025D00000000000000000000000000000000000FB
:1025E00000000000000000000000000000000000EB
:1025F00000000000000000000000000000000000DB
:0400000500000201F4
:00000001FF
