:020000040000FA
:10000000D8200020150200001D0200001F02000081
:100010002102000023020000250200000000000071
:1000200000000000000000000000000027020000A7
:1000300029020000000000002B0200002D02000039
:100040002F0200002F0200002F0200002F020000EC
:100050002F0200002F020000810200002F0200008A
:10006000E1060000F50600002F0200002F0200004C
:100070002F0200002F0200002F0200002F020000BC
:100080002F0200002F0200002F0200002F020000AC
:100090002F0200002F0200002F0200002F0200009C
:1000A0002F0200002F0200002F0200002F0200008C
:1000B0002F0200002F0200000000000000000000DE
:1000C0002F0200002F0200002F0200002F0200006C
:1000D0002F0200002F0200002F020000000000008D
:1000E0000000000000000000000000000000000010
:1000F0000000000000000000000000000000000000
:1001000000000000000000000000000000000000EF
:1001100000000000000000000000000000000000DF
:1001200000000000000000000000000000000000CF
:1001300000000000000000000000000000000000BF
:1001400000000000000000000000000000000000AF
:10015000000000000000000000000000000000009F
:10016000000000000000000000000000000000008F
:10017000000000000000000000000000000000007F
:10018000000000000000000000000000000000006F
:10019000000000000000000000000000000000005F
:1001A000000000000000000000000000000000004F
:1001B000000000000000000000000000000000003F
:1001C000000000000000000000000000000000002F
:1001D000000000000000000000000000000000001F
:1001E000000000000000000000000000000000000F
:1001F00000000000000000000000000000000000FF
:10020000DFF80CD000F02AF8004800473D0C000051
:10021000D82000200648804706480047FEE7FEE752
:10022000FEE7FEE7FEE7FEE7FEE7FEE7FEE7FEE7A6
:10023000E50300000102000040EA01039B0703D030
:1002400009E008C9121F08C0042AFAD203E011F815
:10025000013B00F8013B521EF9D27047064C074D96
:1002600006E0E06840F0010394E807009847103486
:10027000AC42F6D3FFF7C8FF201500004015000080
:100280002DE9F04700268AB0DFF85091B0464FF4D0
:100290008075012437460596284601F041F838B1AB
:1002A000D9F80403204203D0284601F02FF8264352
:1002B0002D1D64007F1CADB2082FEDD34FF4BE742A
:1002C000204601F02DF848B1204601F01FF846F015
:1002D000004605AA0121002001F004F8404D16F067
:1002E000FF0F15D00127002437420DD009EB840100
:1002F000D1F81005D1F81015C0F3042055F82420CA
:10030000C1F3014102B190477F00641C082CEBD37C
:10031000002E3DDA4FF0FF304FF00109CDF820807C
:10032000069095F84460002770B226F0C004401C87
:100330002ED006A9204600F0C9FC002828D04FEA9C
:100340009618204600F03EFC55F820601EB1B8F12A
:10035000030F03D00CE0B8F1030F19D108A8E1088E
:1003600004F00702435C09FA02FC43EA0C0343541D
:100370004FF0A04000EB8400D0F8000705A9C0F3BF
:10038000014A204600F0A2FC28B1BAF1020F05D0C4
:100390000AB0BDE8F087BAF1030FF9D1B8F1030F45
:1003A00007D1BAF1020F17D00221204600F089FFD1
:1003B000012716B141462046B047002FE8D06A46D3
:1003C0000121002000F08EFF059900988842DFD0BF
:1003D000059008980690A4E70321E6E70060004036
:1003E00040000020F0B5AE480023021D0178012531
:1003F000101D4FF0805406290BD11678360708D10E
:100400000678C6F30316032E06D0042E04D0052E5C
:1004100002D0062907D00EE0B4F82463A14FC6F33A
:1004200004263E6002E01678360704D10678C6F34B
:100430000316032E02D0062904D00FE09B4F9A4EDC
:100440007E670EE01678360708D10678C6F30316E5
:10045000032E06D0042E04D0052E02D0062907D084
:100460000EE0D4F84462924FC6F342363E6002E09A
:100470001678360704D10678C6F30316032E02D089
:10048000062906D011E08B4E376827F08077376059
:100490000EE01678360708D10678C6F30316032E49
:1004A00006D0042E04D0052E02D006290AD011E071
:1004B0004FF08046C6F80C31C6F810317C4E361F1E
:1004C000336002E01678360704D10678C6F30316C7
:1004D000032E02D0062905D00CE0754F03266437A1
:1004E0003E600AE01678360704D10678C6F3031694
:1004F000032E02D006290DD014E06F4F05263E6072
:100500006D4E783635606C4E083633603F263F1DA1
:100510003E6002E01678360704D10678C6F303166B
:10052000052E02D0062957D062E0644E3668644F2B
:100530003E60624E361D36683F1D3E605F4E083697
:1005400036683F1D3E605D4E0C3636683F1D3E608E
:100550005A4E103636683F1D3E60584E1436366887
:100560003F1D3E60554E18363668554F20373E6069
:10057000524E1C3636683F1D3E60504E203636685F
:100580003F1D3E604D4E243636683F1D3E604B4E4B
:10059000283636683F1D3E60484E2C3636683F1D73
:1005A0003E60464E30363668454F40373E60434EDB
:1005B000343636683F1D3E60404E383636683F1D43
:1005C0003E603E4E3C3636683F1D3E603B4E4036F8
:1005D00036683F1D3E6002E01678360708D106787F
:1005E000C6F30316032E06D0042E04D0052E02D027
:1005F000062907D019E0D4F85812324A01F04F0109
:10060000116002E0117809070FD10078C0F30310E0
:10061000032803D0042801D0052806D12A48016800
:10062000C90702D06FF001010160224874380168E7
:1006300041F470010160BFF34F8FBFF36F8F4FF034
:100640001021D1F80002002803DBD1F804020028B1
:1006500022DA1E4A15601E480468002CFCD01524BE
:10066000C1F800420568002DFCD0C1F804420168C1
:100670000029FCD0136001680029FCD0BFF34F8F24
:100680000C48F0380168134A01F4E061114301603D
:10069000BFF34F8F00BFFDE710490F480860F0BD62
:1006A000E00F00F0403501400DF0ADBA00C007404A
:1006B0003C050040FCED00E0105600400404001032
:1006C00020C50040E40E00400004004004E5014065
:1006D00000E401400400FA050090D0031800002057
:1006E00004220249024800F075BA00008800002088
:1006F0000080004004220249024800F06BBA00006A
:10070000940000200090004002E008C8121F08C1B9
:10071000002AFAD170477047002001E001C1121F82
:10072000002AFBD17047000009480068C00700D0CC
:1007300000BEBFF34F8F0648E4380168054A01F454
:10074000E06111430160BFF34F8F00BFFDE7000080
:10075000F0ED00E00400FA050EB500210091CDE9AE
:1007600001106A4644F20100FFF7DEFF0EBD0000F3
:1007700030B542680B4C1379E15C0120FF290ED0A3
:10078000FE290DD012684FF4A86505EB8101515880
:10079000054A52F82320914202D1FF20E054002064
:1007A00030BD00000D000020A000002003681B8B5E
:1007B0009BB253436422B3FBF2F292B2AFF30080D8
:1007C00070B50446006816460D4690F8212001EBEE
:1007D000450100EB8101022A01D0082070BD496863
:1007E000B14205D1C16909B36068007988471DE04D
:1007F0002046FFF7BDFF08B1112070BD61680C4AAB
:10080000FE200979505432462946204600F002FE67
:100810002068C06950B16168064A0220097902EB7C
:10082000410148550221606800F074FC002070BD51
:100830000D000020B40000202DE9F84F076889461C
:10084000054601EB490897F821001E46924607EB42
:10085000880410B10820BDE8F88F4FF0000B324833
:10086000C4F804B0A672006800900A22296802EB5E
:100870008800085C40B100208DF8010069465046B0
:1008800000F0D2FAB0B901E00120F5E747F828A05E
:100890004FF001084FF0A04108FA0AF016B1C1F874
:1008A0000C0501E0C1F808050027E019083000F048
:1008B0006BFB08B10420CEE77F1CFFB2022FF4D3FC
:1008C000207A00F0B3FB607A00F0B0FB206836B10C
:1008D00000F066FA0646206800F04AFB05E000F0EA
:1008E00047FB0646206800F05BFA07464946686801
:1008F00000F001FC0146207A324600F075FB02212F
:10090000686800F0F8FB0146607A3A4600F06CFB3C
:1009100084F80B806968054A097902EB410202F804
:1009200009B0002097E7000014150000B400002073
:100930002DE9F0470025DFF8689007680446A846CF
:10094000626805EB450007EB8006137909EB43026B
:1009500002F80580F17A71B10A22216802EB800069
:10096000085CD8B10021306800F0CCFA306800F0A3
:10097000B7FAC6F804806D1C022DE1D36168094AFC
:10098000FF2009795054606800F0A0FB606800F017
:10099000E1FB022087F82100BDE8F0870121E2E7B2
:1009A000B40000200D0000202DE9F74F84B00E00A8
:1009B000044607D0256895F8210028B1082007B023
:1009C000BDE8F08F0B20FAE700F074FB18B1852822
:1009D00001D00420F3E700F01DFA20B900F0ECF993
:1009E00008B10320EBE74E48DFF838A1002100787A
:1009F0004FF0010BC0F30310032821D08AF800B098
:100A0000FF2285F82020002091464FF0FF3C00BFD8
:100A100000EB400705EB8703401CD97283F8089070
:100A200083F80990C0B245F827C00228F0D305F139
:100A3000200000F0A9FA30B1204600F085FCC8E79C
:100A40008AF80010DCE7002756F82720501C12D047
:100A5000F0193946037A2046FFF7EEFE5FEA0008F8
:100A600004D0204600F070FC4046A8E7002239463A
:100A70002046FFF7A5FE7F1CFFB2022FE4D3002023
:100A800009224FF48053316901E04908401C994222
:100A900001D39042F9D39AF8001009B100B90120AE
:100AA000214AD2E90112CDE901128DF804006068F3
:100AB0001E4A01A900790290606800F06FFB0700F0
:100AC00004D0204600F040FC384678E76068316981
:100AD0000068D0F810050E01C640AE61606800F0F5
:100AE000F5FACDF800B05F46042332460221606873
:100AF00000F03EFB0221606800F005FB0698E8610B
:100B000060680B49074A0079521C41F8204061682F
:100B1000097902F8019085F8217000204FE7000064
:100B2000E80F00F00C00002014150000BD130000B9
:100B3000C000002000F002B800F008B872B6024809
:100B40000168491C016070471400002003490868CF
:100B5000401E086000D162B67047000014000020FB
:100B600005494FF0FF32082841F8202002D30844FD
:100B700080F83C207047000040000020F0B54FF0A6
:100B8000FF3512B10023082601E0082309260C4C8A
:100B900005E000BF54F823707F1C04D05B1CB342F7
:100BA000F8D32846F0BD26185DB286F8245044F8E4
:100BB0002310002AF5D1E11881F83C00F1E700008C
:100BC000400000200249084490F9240070470000CA
:100BD000400000202DE9F8430025164688460446CB
:100BE0002F4614E04FF4A07000EB85004FF48031E5
:100BF0002258A9404AB1D4F804230A4205D027500C
:100C000021580091D8E9002190476D1CEDB2B54202
:100C1000E8D3BDE8F8830000012181400348406823
:100C2000014201D0012070470020704704000020DD
:100C300001218140080300D00120704786B01422B2
:100C40001F496846FFF7F8FA01208DF809001C4893
:100C50001C4A69460838FFF7A7FE08B1FFF77CFD7C
:100C600017480838FFF764FE174D0024274601E0B7
:100C7000142C02D204EB840604E0C4F1140000EB4F
:100C8000800664362F700E48B2B200210838FFF794
:100C90008DFD1128F7D028780028FCD00848B2B282
:100CA00001210838FFF782FD08B1FFF755FD46F234
:100CB000A81000F013F8641CE4B2282CD5D2D7E7B2
:100CC000FC140000B113000000000020C20800F076
:100CD00007030120895C98400840704700283ED0F7
:100CE0001F49204A096800BF00BF00BF00BF00BF06
:100CF00000BF00BF00BF91422FD000BF00BF00BFA8
:100D000000BF00BF00BF00BF00BF00BF00BF00BFEB
:100D100000BF00BF00BF00BF00BF00BF00BF00BFDB
:100D200000BF00BF00BF00BF00BF00BF00BF00BFCB
:100D300000BF00BF00BF00BF00BF00BF00BF00BFBB
:100D400000BF00BF00BF00BF00BF00BF00BF00BFAB
:100D500000BF00BF00BF00BF00BF0138C3D1704754
:100D6000180000200024F4004907090E002806DAC4
:100D700000F00F0202F1E02282F8141D03E000F1FE
:100D8000E02282F8001400F01F0201219140400986
:100D9000800000F1E020C0F88012C0F80011704718
:100DA00010B5FFF70FFF602101EB80000149C0B2D1
:100DB000084410BD0060004070B5144D95F8450022
:100DC00008B1082070BD0020411E2A18401CC0B286
:100DD00082F824102028F8D300242046FFF7C0FE14
:100DE000641CE4B2092CF8D307210620FFF7BCFFEE
:100DF0004FF4BE7000F08AFA05494FF00040C1F888
:100E00000403012085F84500002070BD400000204B
:100E100000600040034890F84500002800D0012001
:100E200070470000400000202DE9FC41044629489D
:100E30000F462044002590F92410491C01D00825B4
:100E400041E0B978002651B3012200212046FFF786
:100E500095FE411C21D083001F483A7818447978C8
:100E6000D0F81035DFF874C003EA0C03C0F8103571
:100E7000D0F810354FF4F85C0CEA042C43EA0C036C
:100E80004FF4403C0CEA02424FF4801C0CEA015142
:100E90000A431343C0F8103504E0042513E0FE2193
:100EA00080F824107A780120A0404FF0A041012A58
:100EB0000CD0C1F80C0501222046009600231146F3
:100EC000019600F0E3F92846BDE8FC81C1F8080569
:100ED000F1E700004000002000600040FFE0ECFF70
:100EE0000649084490F92400810005480844D0F8D8
:100EF000101541F00301C0F81015704740000020A4
:100F00000060004001B10121064A104490F924001C
:100F1000820005481044D0F8102561F31452C0F83F
:100F200010257047400000200060004010B50446C6
:100F300000F0FEF970B12046FFF744FEC0B2FFF7A3
:100F40000FFE2046FFF73EFE074A002102EB80001D
:100F5000C0F810150549FF20214481F824002046DF
:100F6000BDE8104000F0A4B900600040400000203F
:100F700010B5FFF727FE302101EB80000149C0B218
:100F8000084410BD006000402DE9F0470427144ECE
:100F9000814600244FF001080020FFF7CBFD08FA3E
:100FA00004F5354203D02046FFF736FE58B1002045
:100FB000FFF7C2FD27B104F10104AE43E4B2EBD167
:100FC0003846BDE8F087074908FA04F000274A6868
:100FD0001043486089F800403846FFF7ADFDEFE761
:100FE000FFFF0F00040000202DE9F04114460D0022
:100FF000074612D08CB10026FFF71AFE78B13846AA
:10100000FFF70AFE68B1084800EBC700C0F81055AA
:10101000C0F814453046BDE8F0810E20FBE70726F6
:10102000F8E70826F6E7000000F0014070B5044636
:1010300001260025A640FFF7FBFD18B12046FFF76B
:10104000EBFD18B102480660284670BD0825FBE795
:1010500008F5014070B5044601260025A640FFF7BB
:10106000E7FD18B12046FFF7D7FD18B1024806602A
:10107000284670BD0825FBE704F5014070B504461D
:101080000026FFF7D5FD78B108480125A540056089
:101090000020FFF74FFD06484168A943416000204A
:1010A000FFF74AFD304670BD0726FBE708F5014013
:1010B000040000200448017809B18520704701210F
:1010C000017000207047000004000020006801212A
:1010D000C160704730B54FF4803405688C4013B15F
:1010E000C5F8044301E0C5F80843006800EB81003F
:1010F000C0F8402530BD02684FF4A07000EB8100BD
:1011000080B21044704702684FF480308840C2F8C3
:101110000803704718B54FF4A07202EB8102036810
:1011200092B200249C509A58009202684FF480308A
:101130008840C2F8040318BD0268012111610079DA
:10114000034A00EB400002EB800001727047000090
:1011500088000020016801220A600079034A00EB40
:10116000400002EB800002210172704788000020DD
:10117000F0B40468049E40F20115D4F800728D406A
:10118000AF43C4F800720468D4F800521D43C4F899
:1011900000523346F0BCFFF79DBF0000F8B504468F
:1011A0000D460079204900EB400001EB8006307AC3
:1011B00008B10820F8BD3AB132606868706000205C
:1011C00003464FF4A07709E00720F8BD226807EB3B
:1011D000800153505158401CC0B200916179814246
:1011E000F4D82068E978000B40B2FFF7BDFD206815
:1011F0006978D0F8042561F30102C0F8042520685D
:10120000A978D0F8082561F30102C0F80825206804
:101210002978D0F8102561F30302C0F810250120C9
:1012200030720020F8BD00008800002030B5034671
:1012300000680121000B40B200F01F0291404009FC
:10124000800000F1E020C0F8801119684FF0FF30F5
:10125000D1F800220024C1F800421968C1F808033F
:101260001879094D00EB400005EB8000007A022858
:1012700002D11846FFF760FF187900EB400005EB3C
:101280008000047230BD00008800002070B541EA83
:101290004201DDE904564FF0A04441EA830141EAEE
:1012A000052104EB800041EA0641C0F8001770BD3B
:1012B0001CB5002100910B4601220191FFF7E6FFCA
:1012C0001CBD4FF0A04202EB8000D0F8002722F4B2
:1012D0004032C0F80027D0F8002742EA0141C0F8A8
:1012E0000017704718B5084B6C4601441B68009303
:1012F00006E000BF54F82030D3F81035401C08C277
:101300008142F7D818BD000010150000034908B548
:101310000844002101600068009008BD00600040A2
:1013200002494058012800D000207047006000406A
:101330000449084490F92400082801D2012070478C
:1013400000207047400000202DE9F05F06688346CA
:1013500096F82000FFF792FE002505EB45080024D3
:101360004FF0FF0A06EB880707EB040999F808001D
:10137000FF2803D0FFF782FE89F808A0641CE4B2BE
:10138000022CF1D356F82800411C05D0FFF7CEFD02
:101390004FF0FF3146F8281000206D1CEDB2F872B6
:1013A000022DDAD3DBF80400BDE8F05FFFF73EBFA3
:1013B0000149012008707047000000202DE9F0412C
:1013C00013480D460127002400F10C0800EB4506E8
:1013D000305D28B1305D401E3055305D70B1002762
:1013E000641CE4B2022CF3D3002F0ED058F8250071
:1013F00002214068BDE8F041FFF785BE58F825009E
:101400000068C16928468847EAE7BDE8F081000026
:10141000B40000202DE9F04788460546076801EB37
:10142000480007EB8004164697F82000FFF7FEFD02
:10143000DFF8B0904FF0FF0A7EB1B869B04211D822
:1014400086B2207AFFF7F2FD94F80900FFF702FE5A
:1014500069680A7909F802A040E0607AFFF7E6FDC2
:10146000207AF3E76268824228D03AB3B24225D9A3
:10147000002303216868FFF72DFEA07A002820686A
:1014800002D0FFF78DFC01E0FFF772FD82460321D9
:101490006868FFF730FE014617F8200F5246FFF745
:1014A000A3FD3878FFF7D6FD69680A7909F802804C
:1014B00068680D49007941F8206003E069680A799D
:1014C00009F802A00023324641466868FFF702FE91
:1014D000207AFFF7BFFD607AFFF7BCFD6660BDE8CC
:1014E000F08700000D000020A000002000900040C8
:1014F000010400001C000020EC140000110000009A
:10150000120000000000000002000000881300002C
:101510000000005003000100000000070000000070
:1015200040150000000000201C000000080700001B
:101530005C1500001C000020BC2000001807000003
:10154000000000000000000000000000000000009B
:0C15500000000000000000000090D0032C
:0400000500000201F4
:00000001FF
