:020000040007F3
:10300000B86D00202934070031340700333407003D
:10301000353407003734070039340700000000005A
:103020000000000000000000000000003B3407002A
:103030003D340700000000003F3407004134070022
:10304000F549070043340700F14D070043340700FA
:103050004334070043340700F947070043340700AF
:103060004334070043340700433407004334070068
:103070004334070043340700433407004334070058
:10308000433407004D4A0700433407004334070028
:10309000D14A070043340700D54A070043340700EC
:1030A0004334070043340700433407004334070028
:1030B0004334070043340700000000000000000014
:1030C0004334070043340700433407004334070008
:1030D0004334070043340700433407000000000076
:1030E00000000000000000000000000000000000E0
:1030F00000000000000000000000000000000000D0
:1031000000000000000000000000000000000000BF
:1031100000000000000000000000000000000000AF
:10312000000000000000000000000000000000009F
:10313000000000000000000000000000000000008F
:10314000000000000000000000000000000000007F
:10315000000000000000000000000000000000006F
:10316000000000000000000000000000000000005F
:10317000000000000000000000000000000000004F
:10318000000000000000000000000000000000003F
:10319000000000000000000000000000000000002F
:1031A000000000000000000000000000000000001F
:1031B000000000000000000000000000000000000F
:1031C00000000000000000000000000000000000FF
:1031D00000000000000000000000000000000000EF
:1031E00000000000000000000000000000000000DF
:1031F00000000000000000000000000000000000CF
:10320000DFF80CD000F078F900480047A96107000A
:10321000B86D0020056885F308884068FF2464B213
:10322000EFF30585002D07D1EFF3148102229143BE
:1032300081F31488A64600472546064621273FBA53
:10324000F0B40024002500260027F0B4F92040B295
:103250000047000030B4044654E8000F0D4644E82F
:103260000053002BF8D1156030BC704730B40446D1
:1032700054E8000F40EA010544E80053002BF7D161
:10328000156030BC704730B4044654E8000F00EAC3
:10329000010544E80053002BF7D1156030BC70479E
:1032A00030B4044654E8000F80EA010544E80053B6
:1032B000002BF7D1156030BC704730B4044654E899
:1032C000000F00EB010544E80053002BF7D1156017
:1032D00030BC704730B4044654E8000FA0EB010541
:1032E00044E80053002BF7D1156030BC7047000054
:1032F00030B4044654E8000F0D4644E80053002B58
:10330000F8D1156030BC704730B4044654E8000F63
:1033100040EA010544E80053002BF7D1156030BCAA
:10332000704730B4044654E8000F00EA010544E851
:103330000053002BF7D1156030BC704730B4044601
:1033400054E8000F80EA010544E80053002BF7D150
:10335000156030BC704730B4044654E8000F00EBF1
:10336000010544E80053002BF7D1156030BC7047CD
:1033700030B4044654E8000FA0EB010544E80053C4
:10338000002BF7D1156030BC7047000030B4044604
:1033900054E8000F0D4644E80053002BF8D11560A7
:1033A00030BC704730B4044654E8000F40EA0105D1
:1033B00044E80053002BF7D1156030BC704730B49F
:1033C000044654E8000F00EA010544E80053002BCE
:1033D000F7D1156030BC704730B4044654E8000F94
:1033E00080EA010544E80053002BF7D1156030BC9A
:1033F000704730B4044654E8000F00EB010544E880
:103400000053002BF7D1156030BC704730B4044630
:1034100054E8000FA0EB010544E80053002BF7D15E
:10342000156030BC704700000648804706480047DA
:10343000FEE7FEE7FEE7FEE7FEE7FEE7FEE7FEE764
:10344000FEE7FEE7F54A070001320700202A04DB09
:10345000203A00FA02F1002070479140C2F12003A7
:1034600020FA03F31943904070470000004870476A
:1034700080BB070040EA01039B0703D009E008C9AD
:10348000121F08C0042AFAD203E011F8013B00F829
:10349000013B521EF9D27047D2B201E000F8012B75
:1034A000491EFBD270470022F6E710B513460A46C4
:1034B00004461946FFF7F0FF204610BD421C10F8E5
:1034C000011B0029FBD1801A704730B5044600204B
:1034D000034600E05B1C934203D2E05CCD5C401BE2
:1034E000F8D030BD034611F8012B00F8012B002A5B
:1034F000F9D1184670470000064C074D06E0E06819
:1035000040F0010394E8070098471034AC42F6D32A
:10351000FFF77AFEA4BE0700C4BE070070B58C1882
:1035200010F8015B15F0070301D110F8013B2A11D7
:1035300006D110F8012B03E010F8016B01F8016BC4
:103540005B1EF9D12B0705D40023521E0DD401F8C0
:10355000013BFAE710F8013BCB1A921C03E013F889
:10356000015B01F8015B521EF9D5A142D8D30020BE
:1035700070BD2DE9F0438BB08046129D15F9046BA8
:10358000009614461F4689462B4602A8114642461D
:1035900000F0B7FC02A80146129A00F0A2FC4046D7
:1035A000414602AA129B00F08CFC2046214602AA4A
:1035B000129B00F086FC2B46384639464A46009658
:1035C00000F09FFC02A83946129A00F08AFC02A87B
:1035D000014642462B46009600F093FC02A80146A5
:1035E00022462B46009600F08CFC2046214642469F
:1035F0002B46009600F085FC484649462246129B21
:1036000000F05FFC2046414602AA2B46009600F0DF
:1036100078FC384639462246129B00F052FC384668
:1036200039464A462B46009600F06BFC204602A91C
:10363000324600F030FE0BB0BDE8F083F0B589B043
:103640001C4607460E461546684611461A4600F0C7
:1036500048FC384639466A46234600F032FC684644
:1036600069462A46234600F02CFC304631466A461D
:10367000234600F026FC09B0F0BD1AB1013A8B5C7C
:103680008354FAE770472DE9F0478846B3F90210F2
:103690001F460825CB1D202493FBF5F51F319542CD
:1036A00091FBF4F44FFA84F928BF154606464946C3
:1036B00000F072FA2A4630464146FFF7DEFFB7F9BE
:1036C0000230ED009D4220D9ED1A06EB8401002264
:1036D0008E420AD251F8040D20FA05F313430B6011
:1036E000C5F1200300FA03F2F2E7243738463146E9
:1036F0004A4600F05DFA012807D0304631463A4686
:103700004B46BDE8F04700F01BBFBDE8F0872DE950
:10371000F04793F9006092B004468946104631465E
:103720001546984600F06EFA002840F0978002A8EF
:103730004946424600F0D5FB43460AA8214602AA64
:1037400000F0BFFB02A80146424600F0CAFB434618
:10375000484649462A4600F0B4FB08F104072846CB
:103760002946424600F0BDFB204621462A463B46FC
:10377000009600F0F5FA284629462A463B46009670
:1037800000F0EEFA284621462A463B46009600F015
:10379000B8FB204621462A46434600F092FB2846C5
:1037A000214622463B46009600F0DAFA20463B4688
:1037B000009621462A4600F0D3FA2368DB0720460C
:1037C00013D5334621463A4600F0BAF931468246CF
:1037D000204600F053FD06F18043013B54F82300DE
:1037E00040EACA7044F8230002E0314600F046FD8A
:1037F00028462146424600F074FB284629460AAA7C
:103800003B46009600F07DFB284629460AAA3B4627
:10381000009600F076FB0AA801462A463B46009631
:1038200000F06FFB204621460AAA434600F049FB00
:1038300002A802463B462146009600F062FB204665
:103840002946324600F027FD28464946324600F018
:1038500022FD484602A9324600F01DFD12B0BDE827
:10386000F087000000487047F4BD07002DE9F04FD5
:10387000EFB01E46789C059023780493B4F902308B
:1038800092461F33202293FBF2F3DBB206939DF99D
:10389000187094F9012007F1FF3926AB002543F891
:1038A00029506EAB03EB89034EA88B46314643F893
:1038B000805C43F8605CFFF7E0FE94F9012056A8B5
:1038C000B118FFF7DAFE9DF910604EA8314600F0FE
:1038D00099F98046002840F02F8156A8314600F023
:1038E00091F90546002840F0258104F1240840465E
:1038F0004EA93A4600F05CF9012840F01D8140468F
:1039000056A93A4600F054F90128089040F0148175
:103910003B461EA856A9424600F03BFA0DF1380C72
:1039200060465946524623464CF82950CDF80CC003
:10393000FFF7A9FEDDF80CC00097604661461EAA9D
:103940004346CDF824C00DF5BC7900F0A8FA4346F3
:10395000009716A84EA91EAA00F0A1FA48463246C2
:10396000059900F098FCB300039309EB030B039A4D
:10397000059B58469918324600F08DFC04F144032B
:103980001946324636A8079300F085FC04EB860101
:1039900032463EA8443104F1040A00F07CFC49465A
:1039A00000961EA836AA534600F0ABFA4A465B467C
:1039B00036A83EA90094FFF7DCFD1EA80146334659
:1039C000524600F0E6F91EAA484659462346FFF73C
:1039D00035FEDDF824C0079B0B936046059B0C93D6
:1039E0003946CDF814C00A95CDF8349000F024FC87
:1039F0003946054616A800F01FFCA842B8BF284665
:103A000085B2DDF814C06F1E3FB26046394600F043
:103A1000C7FD394610F1000916A818BF4FF001097B
:103A200000F0BEFD002814BF0223002343EA090969
:103A30000DF1280B32465BF8297026A8394600F0B4
:103A40002AFC039B3246F9182EA800F024FC3146CC
:103A50001EA800F0A1F8023D089B1E93AEB237B23B
:103A6000002F44DB23461EAAD4F8A45026A82EA972
:103A7000A84739460EA800F093FD3946051C16A844
:103A800018BF012500F08CFD002814BF022300237D
:103A90001D430AAB53F8257037B39DF9105036A873
:103AA00039462A4600F0F7FB039B3EA8F9182A4640
:103AB00000F0F1FB36A83EA91EAA2346FFF7BEFD83
:103AC00046A826A936AA5346009500F01AFA36A849
:103AD0003EA926AA2EAB0094FFF74BFD1EA8014677
:103AE00046AA234600F0EDF9013EB6B2B7E79DF9CC
:103AF00010501EA8014652462B4600F04AF92346B4
:103B000026A82EA91EAAFFF799FD9DF91840404648
:103B100026A9224600F04CF8012805D026A8014627
:103B20004246234600F00CFD26A84EA92A4600F086
:103B300054F802E0404600E028466FB0BDE8F08F40
:103B4000C3F10803DB0070B501330446002003A570
:103B50005B1920C940CAAD1920C4184720C940CA02
:103B6000754120C420C940CA754120C420C940CA3B
:103B7000754120C420C940CA754120C420C940CA2B
:103B8000754120C420C940CA754120C420C940CA1B
:103B9000754120C4404170BD10B5002253B28B4224
:103BA00005DA1BB2002440F823400132F6E710BDCD
:103BB00010B5013AD2B253B2002B09DB1BB250F858
:103BC000234051F823309C4204D8F2D2FF2002E077
:103BD000002000E0012040B210BD013A30B5D2B261
:103BE000002453B2002B09DB1BB2013A51F82350D9
:103BF00050F823306B401C43D2B2F2E7B4FA84F0A1
:103C0000400930BD10B500231A465CB28C4204DA7C
:103C100050F8244001332243F7E7B2FA82F040091A
:103C200010BD00002DE9F043A3B09846019112ABFE
:103C30004146074610469146009300F0FDFAC0EB5E
:103C4000881086B2454C33B21C40002CBEBF04F134
:103C5000FF3464F01F040134202593FBF5F5EDB229
:103C60006DB2A4B202A8294624B2FFF795FF28B28C
:103C700002AB002C03EB800010DD0022134643450D
:103C800010D259F8235005FA04F10A4340F82320D2
:103C9000C4F1200225FA02F20133F0E74946424618
:103CA00000F0F9FA0FFA88F502AB4FEA4509012452
:103CB00003EB8505330444D40022114653B24B452F
:103CC00022DA0DF1880E0EEB840E0DF1880C18B27D
:103CD0005EF888EC0CEB83035EF820E053F8803C40
:103CE000C3EB0E035B1A734502D08CBF0121002188
:103CF000C4F1010E0DF1880C0CEB8E0E01325EF852
:103D000088EC4EF82030D9E7621A544202A84146A6
:103D1000544100F0B3FA22AA08F1FF3302EB830307
:103D200002EB8802284652F8801C53F8802C013E92
:103D300042EAC172414643F8802CB6B200F09EFAC6
:103D4000B8E722AB03EB8404384654F8881C42469B
:103D500000F0A1FA23B0BDE8F08300BF1F0000808F
:103D600070B59DF910401D4623460646FFF7E8FE54
:103D700030B9284631462246FFF71AFF012807D0FE
:103D8000304631462A462346BDE8704000F0D8BB95
:103D900070BDF0B50646A1B00F4608461946154657
:103DA0001C46FFF72FFF20B130462146FFF7F4FEF7
:103DB00073E068463946224600F06DFA08A82946A5
:103DC000224600F068FA10A82146FFF7E5FE01231D
:103DD00018A821461093FFF7DFFE684608A922467F
:103DE000FFF7E6FE002853D0009BDA0704D46846AC
:103DF000214600F043FA26E0089BDB0704D408A81C
:103E0000214600F03BFA3DE000281EDD08AA2346CB
:103E10006946684600F094FB6846214600F02EFA99
:103E200010A818A92246FFF7C3FE002805DA10A83B
:103E300001462A462346FFF783FE10A8014618AA2A
:103E4000234600F07DFB10A81DE008A86A46234623
:103E5000014600F075FB08A8214600F00FFA18A8EB
:103E600010A92246FFF7A4FE002805DA18A801468B
:103E70002A462346FFF764FE18A8014610AA2346E7
:103E800000F05EFB18A82946224600F06BFCA4E770
:103E9000304610A9224600F0FEF921B0F0BD70B501
:103EA00090B006469DF950401D466846234600F0F6
:103EB0003AF8304669462A462346FFF7B3FE10B06B
:103EC00070BD30B51C4691B0054693F90030684688
:103ED00000F029F8D4F8AC3028466946984711B06C
:103EE00030BD30B5144691B0054692F900206846C1
:103EF00000F0DEF9D4F8AC3028466946984711B096
:103F000030BD70B59DF910401D462346064600F0B1
:103F100017FB38B1304631462A462346BDE870408B
:103F2000FFF70EBE70BD2DE9F04F08B4F8CA04B417
:103F300051F8042BA3FB028940F8048B4FF0000AD0
:103F4000E4FB629A4FF0000BE5FB62AB4FF0000C14
:103F5000E6FB62BC4FF0000EE7FB62CE51F8042B8B
:103F60004FF00008E3FB628940F8048BE4FB629A9F
:103F7000E5FB62ABE6FB62BCE7FB62CE51F8042BCB
:103F80004FF00008E3FB628940F8048BE4FB629A7F
:103F9000E5FB62ABE6FB62BCE7FB62CE51F8042BAB
:103FA0004FF00008E3FB628940F8048BE4FB629A5F
:103FB000E5FB62ABE6FB62BCE7FB62CE51F8042B8B
:103FC0004FF00008E3FB628940F8048BE4FB629A3F
:103FD000E5FB62ABE6FB62BCE7FB62CE40F8049B0C
:103FE00040F804AB40F804BB40F804CB40F804EBC5
:103FF0000CBC052B00F01E810C68A0F11400A1F18F
:104000001401A2F1140252F804EB4FF0000550F82D
:10401000046BE4FB6E5652F804EB50F8047BE4FBAF
:104020006E6752F804EB50F8048BE4FB6E7852F89C
:1040300004EB50F8049BE4FB6E8952F804EB50F853
:1040400004ABE4FB6E9AA0F1140052F8044B51F853
:1040500004EB4FF0000CE4FB6EC540F804CB51F8C4
:1040600004EBE4FB6E5640F8045B51F804EBE4FB10
:104070006E6740F8046B51F804EBE4FB6E7840F88F
:10408000047B51F804EBE4FB6E8940F8048B51F893
:1040900004EBE4FB6E9AA0E80006062B00F0CA8051
:1040A0000C68A0F11800A1F11801A2F1180252F851
:1040B00004EB4FF0000550F8046BE4FB6E5652F829
:1040C00004EB50F8047BE4FB6E6752F804EB50F805
:1040D000048BE4FB6E7852F804EB50F8049BE4FB8D
:1040E0006E8952F804EB50F804ABE4FB6E9A52F878
:1040F00004EB50F804BBE4FB6EABA0F1180052F8DF
:10410000044B51F804EB4FF0000CE4FB6EC540F893
:1041100004CB51F804EBE4FB6E5640F8045B51F815
:1041200004EBE4FB6E6740F8046B51F804EBE4FB2E
:104130006E7840F8047B51F804EBE4FB6E8940F89C
:10414000048B51F804EBE4FB6E9A40F8049B51F8A1
:1041500004EBE4FB6EABA0E8000C072B6AD008B4BC
:104160000C68A0F11C00A1F11C01A2F11C0252F884
:1041700004EB4FF0000550F8046BE4FB6E5652F868
:1041800004EB50F8047BE4FB6E6752F804EB50F844
:10419000048BE4FB6E7852F804EB50F8049BE4FBCC
:1041A0006E8952F804EB50F804ABE4FB6E9A52F8B7
:1041B00004EB50F804BBE4FB6EAB52F804EB50F890
:1041C00004CBE4FB6EBCA0F11C0052F8044B51F888
:1041D00004EB4FF00003E4FB6E3540F8043B51F86C
:1041E00004EBE4FB6E5640F8045B51F804EBE4FB8F
:1041F0006E6740F8046B51F804EBE4FB6E7840F80E
:10420000047B51F804EBE4FB6E8940F8048B51F811
:1042100004EBE4FB6E9A40F8049B51F804EBE4FBDA
:104220006EAB40F804AB51F804EBE4FB6EBCA0E8C5
:10423000001808BCBDE8F08F0139C9B24BB2002BA1
:104240000BDA013111F0FF0315D059B201F18043AF
:10425000013B50F82320002304E050F82330002BCA
:10426000EAD0EEE712B152080133FBE7481E03EB38
:10427000401080B200E0184600B2704700EB8101A8
:104280000023884206D251F8042D43EA52030B6002
:10429000D307F6E7704730B5002463B2934206DADD
:1042A0001BB2013451F8235040F82350F5E730BDDC
:1042B0002DE9F04FB1E8005E06B4AAFB09124FF0F9
:1042C0000003EBFB69234FF00004ECFB69344FF073
:1042D0000005EEFB69454FF00006EBFB6A63ECFB63
:1042E0006A344918524176415B41A9FB09784FF085
:1042F000000949F1000918EB0108A0E88001AAFBB8
:104300000A78574158EB0608A0E88001EEFB6A45A1
:104310004FF0000A4AF1000A4FF00001ECFB6B1469
:10432000EEFB6B454FF00002EEFB6C255FEA59098E
:104330004941644152416D4149F10009EBFB6B3A3F
:104340001AEB010AA0E80804ACFB0C6A66415AEBC0
:10435000020AA0E84004AEFB0E6A6E415AEB090A5D
:10436000A0E8400406BC052A00F0E680A0F1140095
:10437000A1F11401B1E8E043A5FB0E344FF00005B4
:10438000E6FB6E454FF00006E7FB6E564FF0000768
:10439000E8FB6E674FF00008E9FB6E784FF000090C
:1043A000DB1864416D4176417F4158EB080859F1B3
:1043B000000950F804CB13EB0C0350F804CB54EB7A
:1043C0000C0450F804CB55EB0C0550F804CB56EB1D
:1043D0000C0650F804CB57EB0C0758F1000859F1C4
:1043E0000009A0F11400EEFB0E89A0E8F803062AEC
:1043F00000F0A280A0F11800A1F11801B1E8E04797
:10440000A5FB0E344FF00005E6FB6E454FF00006AD
:10441000E7FB6E564FF00007E8FB6E674FF00008B1
:10442000E9FB6E784FF00009EAFB6E894FF0000A55
:10443000DB1864416D4176417F4158EB080859EB28
:1044400009095AF1000A50F804CB13EB0C0350F899
:1044500004CB54EB0C0450F804CB55EB0C0550F88E
:1044600004CB56EB0C0650F804CB57EB0C0750F876
:1044700004CB58EB0C0859F100095AF1000AA0F1DD
:104480001800EEFB0E9AA0E8F807072A54D0A0F116
:104490001C00A1F11C01B1E8E04FA5FB0E344FF068
:1044A0000005E6FB6E454FF00006E7FB6E564FF049
:1044B0000007E8FB6E674FF00008E9FB6E784FF0ED
:1044C0000009EAFB6E894FF0000AEBFB6E9A4FF091
:1044D000000BDB1864416D4176417F4158EB0808C1
:1044E00059EB09095AEB0A0A5BF1000B50F804CBAF
:1044F00013EB0C0350F804CB54EB0C0450F804CB32
:1045000055EB0C0550F804CB56EB0C0650F804CBD9
:1045100057EB0C0750F804CB58EB0C0850F804CBC1
:1045200059EB0C095AF1000A5BF1000BA0F11C00D9
:10453000EEFB0EABA0E8F80FBDE8F08F0000000026
:10454000C3F10803DB0070B50133002403A500BFED
:104550005B1920C940CAAD1B20C0184720C940CAFA
:10456000B54120C020C940CAB54120C020C940CAB9
:10457000B54120C020C940CAB54120C020C940CAA9
:10458000B54120C020C940CAB54120C020C940CA99
:10459000B54120C06441B4FA84F0400970BD00BF49
:1045A0004A11012301F01F0150F822008B401840EE
:1045B00070470000F0B50C4689B008220646FFF7A8
:1045C0006AFEE36A0393236B0493636B0593A36B07
:1045D0000693E36B0793002769466A4608236846FB
:1045E000029701970097FFF7ABFA314605466A46F6
:1045F00008233046FFF7A4FA236B0393636B0493FD
:10460000A36B0593E36B0693054469466A4608234A
:1046100068460797FFF794FA314605446A4608232F
:104620003046FFF78DFA236A0093636A0193A36A09
:104630000293A36B0693E36B0793054431466A46E6
:1046400008233046059704970397FFF779FA636AC2
:104650000093A36A0193E36AA26B0293636B0393D3
:1046600004920693E26B236A059205440793314650
:104670006A4608233046FFF763FAE36A0093236B28
:104680000193636B0293236A0693A36A079305441D
:1046900031466A4608233046059704970397FFF78B
:1046A0004FFF236B0093636B0193A36B0293E36B48
:1046B0000393636A0693E36A07932D1A31466A46A9
:1046C0000823304605970497FFF73AFF636B009382
:1046D000A36B0193E36B0293236A0393636A0493CE
:1046E000A36A0593236B07932D1A31466A46082364
:1046F00030460697FFF724FFA36B0093E36B01930B
:10470000636A0393A36A0493E36A0593636B079355
:104710002D1A314630466A46082302970697FFF75E
:104720000FFF2D1A16D5304631460D4A0823FFF7E4
:1047300007FA4519F7D410E0094831460822FFF777
:1047400037FA012809D030463146054A0823FFF7D9
:10475000F7FE2D1A002DEFD0F5E709B0F0BD00BF30
:10476000F8BD0700F8B5036813F0010506460F46CB
:10477000144605D001463A462346FFF7E1F90546BF
:1047800030462146FFF77AFD45B104F18042013AF7
:1047900056F8223043F0004346F82230F8BD2DE9A8
:1047A000F04115468AB00446884602A8002120221E
:1047B000FEF77BFE2E780323204641462A462F1D16
:1047C00076B20293FFF78DFB2046214602AA3B46B4
:1047D0000096FFF796FB2046214642462B46FFF700
:1047E00070FB00962046214605F184023B46FFF708
:1047F000B7FA0AB0BDE8F0812DE9F04700268CB089
:10480000DFF86091B0464FF4807501243746069674
:10481000284604F0D5FE38B1D9F80403204203D06D
:10482000284604F0C3FE26432D1D64007F1CADB254
:10483000082FEDD34FF4BE74204604F0C1FE48B1FA
:10484000204604F0B3FE46F0004606AA01210020EF
:1048500004F098FE444D16F0FF0F15D001270024F8
:1048600037420DD009EB8401D1F81005D1F81015AD
:10487000C0F3042055F82420C1F3014102B1904750
:104880007F00641C082CEBD3002E67DA4FF0FF305A
:10489000CDE9088000263446281910F8507F90F999
:1048A000000027F0C008401C44D009A9404601F090
:1048B00073FD58B34FEA9719404600F091FD55F843
:1048C00020701FB1B9F1030F03D00FE0B9F1030F4E
:1048D00030D108A84FEAD80208F00703815C4FF0F6
:1048E000010C0CFA03FC41EA0C0181544FF0A04189
:1048F00001EB8800D0F8000706A9C0F3014A404642
:1049000001F04AFD18B1BAF1020F03D012E0BAF17A
:10491000030F0FD1B9F1030F08D1BAF1020F1BD069
:104920000221404604F012FE761CF6B217B1494649
:104930004046B847641C042CAED3002E0ED06A4605
:104940000121002004F01EFE06990098884205D03F
:104950000690089809909DE70321E2E70CB0BDE8B6
:10496000F087000000600040C435002000F01F0206
:10497000012191404009800000F1E020C0F8801240
:10498000704700F01F02012191404009800000F1B2
:10499000E020C0F80011704700F01F020121914093
:1049A0004009800000F1E020C0F80012704749077C
:1049B000090E002806DA00F00F0000F1E02080F870
:1049C000141D704700F1E02080F8001470470000CB
:1049D000BFF34F8F05480168054A01F4E0611143B8
:1049E0000160BFF34F8F00BFFDE700000CED00E05A
:1049F0000400FA052DE9F0414FF48077384601F0C4
:104A0000ADFD0124104EA50748B1384601F0ADFDBB
:104A10000120C5F808037470002000F0E9FC4FF491
:104A20008277384601F09AFD00280BD0384601F015
:104A30009CFD0220C5F80803B470BDE8F0410120D8
:104A400000F0D6BCBDE8F081B03500200748002159
:104A5000C0F84011C0F84411C0F84811C0F84C111A
:104A6000C0F80011C0F8041106F0C0BC00100140ED
:104A700000F0C6B970B50E46144900EB400001EBDA
:104A8000C0051446E86A183520B101280FD0022865
:104A900005D113E0284600F0E9F9A04201D2002434
:104AA00011E022463146284600F018FA0BE028466D
:104AB00000F0DCF9A042F4D20446F2E73146284681
:104AC00000F0DFF90446204670BD0000303D0020B4
:104AD00006F0DABB10B50021054A084600F05CFA82
:104AE000002803D0BDE8104000F03ABA10BD000025
:104AF000C9520700F0B5AE480023021D0178012518
:104B0000101D4FF0805406290BD11678360708D1B6
:104B10000678C6F30316032E06D0042E04D0052E05
:104B200002D0062907D00EE0B4F82463A14FC6F3E3
:104B300004263E6002E01678360704D10678C6F3F4
:104B40000316032E02D0062904D00FE09B4F9A4E85
:104B50007E670EE01678360708D10678C6F303168E
:104B6000032E06D0042E04D0052E02D0062907D02D
:104B70000EE0D4F84462924FC6F342363E6002E043
:104B80001678360704D10678C6F30316032E02D032
:104B9000062906D011E08B4E376827F08077376002
:104BA0000EE01678360708D10678C6F30316032EF2
:104BB00006D0042E04D0052E02D006290AD011E01A
:104BC0004FF08046C6F80C31C6F810317C4E361FC7
:104BD000336002E01678360704D10678C6F3031670
:104BE000032E02D0062905D00CE0754F032664374A
:104BF0003E600AE01678360704D10678C6F303163D
:104C0000032E02D006290DD014E06F4F05263E601A
:104C10006D4E783635606C4E083633603F263F1D4A
:104C20003E6002E01678360704D10678C6F3031614
:104C3000052E02D0062957D062E0644E3668644FD4
:104C40003E60624E361D36683F1D3E605F4E083640
:104C500036683F1D3E605D4E0C3636683F1D3E6037
:104C60005A4E103636683F1D3E60584E1436366830
:104C70003F1D3E60554E18363668554F20373E6012
:104C8000524E1C3636683F1D3E60504E2036366808
:104C90003F1D3E604D4E243636683F1D3E604B4EF4
:104CA000283636683F1D3E60484E2C3636683F1D1C
:104CB0003E60464E30363668454F40373E60434E84
:104CC000343636683F1D3E60404E383636683F1DEC
:104CD0003E603E4E3C3636683F1D3E603B4E4036A1
:104CE00036683F1D3E6002E01678360708D1067828
:104CF000C6F30316032E06D0042E04D0052E02D0D0
:104D0000062907D019E0D4F85812324A01F04F01B1
:104D1000116002E0117809070FD10078C0F3031089
:104D2000032803D0042801D0052806D12A480168A9
:104D3000C90702D06FF00101016022487438016890
:104D400041F470010160BFF34F8FBFF36F8F4FF0DD
:104D50001021D1F80002002803DBD1F8040200285A
:104D600022DA1E4A15601E480468002CFCD0152467
:104D7000C1F800420568002DFCD0C1F8044201686A
:104D80000029FCD0136001680029FCD0BFF34F8FCD
:104D90000C48F0380168134A01F4E06111430160E6
:104DA000BFF34F8F00BFFDE710490F480860F0BD0B
:104DB000E00F00F0403501400DF0ADBA00C00740F3
:104DC0003C050040FCED00E01056004004040010DB
:104DD00020C50040E40E00400004004004E501400E
:104DE00000E401400400FA050090D003C02C00202C
:104DF0000149024806F05EBB1C360020002000403E
:104E000010B5124C02202061606111A0A06104F174
:104E10007800E0614FF4805020620020A062606260
:104E20000BA1A164E0620D49E1641021A065C4E911
:104E30001410E0650AA1E01DFEF754FB09A120460D
:104E4000FEF750FB2020A07110BD0000303D002077
:104E50005465726D696E616C00000000A84D002001
:104E60005254540053454747455200000269C168F7
:104E70008A4203D88068401A104400E0501A401E4D
:104E800070472DE9F047C4681746894606464FF03B
:104E900000083069A04201D9051B02E0B168201A60
:104EA0000D1AB0686D1E001BA84200D80546BD4211
:104EB00000D33D4670682A4620444946FEF7DAFA98
:104EC000B0687F1B2C44A844A944A04200D1002410
:104ED000F460002FDDD14046BDE8F0872DE9F041B8
:104EE00004468846D4E90207C51BE1686068164697
:104EF0000844B54206D94146FEF7BCFAB819E0604D
:104F0000BDE8F0812A464146FEF7B4FA761B08EB6D
:104F1000050132466068FEF7ADFAE660F0E702E0B0
:104F200008C8121F08C1002AFAD170477047002034
:104F300001E001C1121F002AFBD17047800701D098
:104F40000020704701207047C3688B4206D8114487
:104F50000069491E814201D8012070470020704736
:104F6000024605480121008801EB004003A104F03E
:104F7000F3FCFFF72DFD0000382D002072656365FE
:104F80006976656420616E206572726F723A2030B6
:104F900078253038782100002DE9F84F254C8146DE
:104FA000924660880E46814241D800274FF6FF782E
:104FB0008DF80070684600F005F922786078A188C5
:104FC000884201DA401C00E00020C0B2904204D1C7
:104FD0009DF8000000F01AF927E0657860788842B3
:104FE00001DA401C00E0002060709DF8000000F035
:104FF0000DF9454519D0A068B9F1000F40F835A06A
:105000000DD066B16188E068324605FB0100494673
:10501000FEF730FAA06800EBC500868002E000EBE6
:10502000C50087800020BDE8F88F0420FBE7092039
:10503000F9E70000402C002010B50E4C03E0401CA6
:1050400000E00020207020786178814210D0227822
:105050006188E068A36802FB010003EBC20153F81A
:105060003220898890472078A1888842E9DAE6E7EB
:1050700010BD0000402C002030B5CB0008339DB29D
:1050800093074FF0000401D0072030BD044B9A6015
:105090002A44DA605C701C7058809980002030BD12
:1050A000402C0020074B9B7823B12AB120B1006827
:1050B000037C1BB108207047072070474174426190
:1050C000002070473836002070B505F0C1FD10484B
:1050D00000240B21047044700E4D817014206C600C
:1050E0002C706C70FFF742FC07211420FFF75FFC67
:1050F0001420FFF746FC0848046007211120FFF741
:1051000056FC0548001F0068A860002070BD000024
:1051100038360020502C0020081501402DE9FC47AE
:10512000DFF8789099F8023073B368B3052902D29A
:105130000720BDE8FC87436933B3437C012B25D0AE
:10514000002704460025884616468DF8005068461C
:1051500000F038F801A806F095FAC8B101210170F5
:105160000F4944600968C0E90218C0E904769DF857
:10517000040089F801009DF8000000F047F81420B1
:10518000FFF70AFC2846D4E70820D2E70F46D8E705
:1051900004259DF8000000F039F8F3E738360020C8
:1051A000041501400649897839B130B1416921B10E
:1051B00000210174022106F0F5B8082070470000B4
:1051C0003836002030B5EFF3108172B60D4A94687E
:1051D000012324B10370002900D162B630BD936071
:1051E0004FF0E023D3F88051074C25401560C3F8F9
:1051F0008041D3F8844154605A17C3F884210022B7
:105200000270E8E744370020FC06FFBD0B498A68BE
:10521000002A11D000280FD1EFF3108072B60B686E
:105220004FF0E022C2F800314B68C2F8043100228E
:105230008A60002800D162B6704700004437002021
:105240002DE9F041064608680C46411C4FF0A04786
:105250004FF0010506D005FA00F1C7F808152068DF
:1052600004F062F96068411C02D0002104F053F997
:105270003168A069C1F82405607D217D326808434A
:10528000C2F86C05D4E900123068C0F80C15C0F8FB
:105290001425207D012815D1A068411C02D00021D1
:1052A00004F039F9E068411C05D08540C7F808557D
:1052B000E06804F039F9D4E902123068C0F8082532
:1052C000C0F81015BDE8F08104F00CBD0249085C7F
:1052D000012104F04CB9000084B807000249085CC1
:1052E000002104F044B9000084B807007CB5002414
:1052F000084E25460122305D009500231146019598
:1053000004F0DCF8641C042CF4D3BDE87C4000F00D
:1053100003B8000084B8070010B500242046FFF74A
:10532000D5FF641C042CF9D310BD0000F8B5871C10
:1053300000208DF800000E4601256846FFF742FF69
:10534000124C20683060D4E90001401AA168091AA3
:10535000BE1C06E000F0DEFED4E90001401AA168A0
:10536000091A491C8E42F5D8A1682068084004EB50
:105370008000C16841F00301C160206838442060AA
:105380009DF80000FFF742FF2846F8BD5038002086
:1053900010B543689C18446021B905E013F8010B6F
:1053A00001F8010B521EF9D2012010BD30B4826801
:1053B0000468531C8360A154D0E901128A4202D3CD
:1053C00030BC03F020BF30BC70470000034803C866
:1053D000814201D1012070470020704750380020E1
:1053E0000249084490F9300070470000C43500209D
:1053F00070B5084C050009D010342168002907D089
:1054000008682060496828468847F6E70834F4E7CA
:1054100070BD0000B03500202DE9F05F26484168DE
:10542000F1B3DFF898B00E688146DBF8004087687A
:105430008078E11B21F07F45ED1CB0B9DFF880805A
:105440004FF48030C8F84403C8F804031120FFF774
:105450008DFA1120FFF795FA4FF0010AC8F800A065
:105460002F2001F03FFA89F802A0B54200D235465C
:10547000124BE8193C3320F07F401860DBF8001035
:105480005A46091B21F07F41001B20F07F40C91CB8
:1054900081420FD9106818602F2001F023FA00E034
:1054A00004E0BDE8F05F1120FFF776BABDE8F05FD9
:1054B00005F0CEBBBDE8F09F502C00200415014044
:1054C00000100140F0B54FF0FF3622B11268D24310
:1054D00000230A4D0DE03246FAE7C45C624008241E
:1054E000D70700D037462F4087EA5202641EF7D113
:1054F0005B1C8B42F1D3D043F0BD00002083B8ED9C
:10550000F0B5146906468DB020681546271DE0B138
:10551000022920D00A2000906B4609AA304605F0E7
:1055200048FA00280FD009A901A8009A05F04CF903
:1055300001AE96E80F0005AE86E80F0023686968A3
:105540003A4605A898470DB0F0BD0DB03046BDE80D
:10555000F04005F0ADB96946304605F03FF9002846
:10556000F1D0236869683A46684698470028EAD02F
:1055700002980028F5D1019870600120E3E7536894
:105580005B7813F0C00303D0402B03D0002070479A
:1055900000F002B8FFF7B4BF2DE9FF410B46516898
:1055A000064614464878334D00F00F0210F03000E4
:1055B00055F8225006D0102806D0202808D03028D0
:1055C00056D13EE022694DE061690120087047E054
:1055D000022B28D1042A26D84FF00108694630460C
:1055E000676905F0FBF800281AD009E00B792269F9
:1055F00013FB00226846A84770B13878401C387009
:10560000029820B1616838784A799042EED30198C7
:105610007060029860BB02E04FF00008F7E7404678
:1056200004B0BDE8F081D4E904300F79027817FBAB
:10563000023349798A421BD2521C02701A466168B1
:1056400010E008786169072A087009D1606801795B
:105650002069FDF728FF60682169806805F0D9F8A6
:105660002269616804B03046AC46BDE8F04160474D
:105670000020D5E7D8BA07001FB5134800F15C0138
:10568000826B684605F0A0F810489DE80E0080E89F
:105690000E000E490E48104AC8600E4900200860EE
:1056A00048600E49094804F012FE10B1012004B010
:1056B00010BD0B480121008801EB004009A104F056
:1056C00047F90020F3E700002C340020E8300020E8
:1056D000FDA50700102C00205C2D002014B8070049
:1056E000D82C002048616E646C65723A20496E7651
:1056F000616C69642070726F746F636F6C20627587
:10570000666665722073747265616D00FEB51E4930
:105710000446086810B10868401E08601B4DD4E9B3
:10572000017328880426227806EB0040002F1CD045
:10573000D1F800C0E168CDF808C0CDE900313B46A2
:10574000012A1DD012A214A104F01EF92269002A18
:1057500018D028881FA106EB004004F0FDF821694D
:1057600003B02046BDE8F040084709680091012ACF
:1057700004D007A224A104F0FEF8E7E72CA2F9E781
:105780002BA2E0E7FEBD0000382C0020E42C002016
:105790006572617365000000466C61736820257353
:1057A000206661696C6564202830782578293A2064
:1057B000616464723D25702C206C656E3D307825E7
:1057C000782062797465732C2070656E64696E67E9
:1057D0002025640054686973206F70657261746974
:1057E0006F6E2068616420612063616C6C6261632C
:1057F0006B2C2063616C6C696E67206261636B2047
:10580000746F2025702E0000466C6173682025732C
:1058100020737563636573733A20616464723D2518
:10582000702C2070656E64696E672025640000002E
:1058300077726974650000002DE9FF5F0546041D5D
:105840000298002768B1039858B194F88F00DFF8E8
:10585000AC9201264FF0030B28B194F8900010B1E0
:105860006AE0042073E0A548217A0122008802EB57
:10587000004039B1E168342906D0A1A104F068F8EC
:10588000062064E0A3A1FBE094F855108A460329A2
:1058900014D000214FF44053227C08E004EB810C2B
:1058A000B3F80C80DCF814C0C44507D0491C8A4208
:1058B000F4DC9CA104F04CF8072048E08F489D4997
:1058C0004FF0030300885FEA0A0203EB004006D0B2
:1058D000012A0DD0022A07D0032A16D104E022782B
:1058E000002ABED08F6803E02278002AB9D0CF68A2
:1058F00091A13B46626804F036F894F8550030B147
:1059000002280DD0032817D10AE093A1B8E06068FF
:10591000B84211D2B9F8000095A106EB004007E0AB
:105920006068B84208D8B9F8000096A106EB0040BC
:1059300004F00EF805200AE095F8A00060B1B9F86F
:1059400000100BEB014095A104F002F80B2004B00D
:10595000BDE8F05F00F090BAB9F800005F460BEBCD
:10596000004094A103F0F4FFDFF86882DDE9021241
:10597000994BD8F8000000F095FE30B9964895F89C
:10598000A12008384168914203D00A2004B0BDE844
:10599000F09F006805F1A201FDF76CFDB9F8001059
:1059A0004D4607EB01408DA103F0D2FF8A4B8A4A96
:1059B000D8F80200083BA2F1100100F029FE38B12E
:1059C00028888BA106EB004003F0C2FF0520DDE72D
:1059D0002988B84607EB01408AA103F0B9FF7E4F42
:1059E0000020283FF86094F8551061B1012925D0B6
:1059F00088480229C0F5FC200FD0032929D0288827
:105A000006EB004081E794F8640008B1A06E19E04D
:105A1000288881A106EB004032E094F85C1041B187
:105A2000216EF960814233D9288880A106EB0040BD
:105A300049E0288881A106EB004021E094F8560057
:105A400010B1A06DF86023E0288881A106EB00402A
:105A500016E094F85C1079B194F8561061B1A26D1B
:105A6000216E5318FB6072B169B1814210D9288848
:105A70007CA106EB004026E0288880A106EB0040D0
:105A800003F066FFEDE6288880A106EB004022E0E7
:105A9000298808EB014081A103F05AFF4E482022DB
:105AA000083004F16F010068FDF7E4FCF86870B19C
:105AB000494A0021203A01F0B7FE002828880ED07C
:105AC00006EB00407AA103F043FF04205EE728883C
:105AD0007EA106EB004003F03BFF032056E744465F
:105AE00008EB00407CA1BA6803F036FF288881A14A
:105AF00004EB004003F02CFF012047E7D82C0020E6
:105B00004661756C74792048572076657273696FA9
:105B10006E0000004E6F2048572076657273696FE3
:105B20006E000000534420726571206E6F74206D0A
:105B3000657400002C340020526571207665727304
:105B4000696F6E3A2025642C204578706563746512
:105B5000643A202564000000556E6B6E6F776E20EE
:105B60004657207570646174652074797065000013
:105B700046572076657273696F6E20746F6F206C64
:105B80006F770000424C2046572076657273696F2C
:105B90006E20746F6F206C6F77000000496E766125
:105BA0006C6964207369676E6174757265207479BD
:105BB0007065000043616C63756C6174696E672089
:105BC000696E6974207061636B65742068617368C5
:105BD0000000000078B80700282C00205665726984
:105BE0006679207369676E617475726500000000E4
:105BF0005369676E6174757265206661696C65646E
:105C000000000000496D616765207665726966690C
:105C100065640000003007004E6F206170702069DD
:105C20006D6167652073697A65000000424C2074DD
:105C30006F6F206C61726765000000004E6F20621C
:105C40006C20696D6167652073697A6500000000EA
:105C50004E6F20534420696D6167652073697A65D2
:105C600000000000424C20746F6F206C6172676509
:105C7000202853442B424C29000000004E4F204264
:105C80004C2F53442073697A65000000424C2B531B
:105C9000442073697A6520300000000052756E6EF2
:105CA000696E67206861736820636865636B0000D4
:105CB00043616E27742066696E6420726F6F6D2079
:105CC000666F722075706461746500004E6F2046C7
:105CD000572073697A6500005772697465206164A2
:105CE00064726573732073657420746F2030782537
:105CF000303878004446552070726576616C69646E
:105D0000617465205355434345535346554C210018
:105D100070B58278012A01D0052070BD114A0CCAE5
:105D2000FFF78AFD104C05460128208807D0012185
:105D300001EB00400DA103F00BFE284670BD0326C9
:105D400006EB00400EA103F003FE208810A106EB35
:105D5000004003F0FDFD002002F0CAFE0028ECD058
:105D60000A2070BD102C0020D82C002050726576BF
:105D7000616C6964617465206661696C65642100A9
:105D800050726576616C6964617465204F4B2E00BA
:105D9000536176696E6720696E697420636F6D6DFB
:105DA000616E642E2E2E00000E4910B50A784C78D4
:105DB0000023A24212D0521CD2B20A70022A00D191
:105DC0000B70084A0B780C3252F823200260886866
:105DD000104420F07F408860012010BD0360002047
:105DE00010BD0000502C00202DE9F84380461F46CE
:105DF00015460E4600240D4800F076FA38B1112001
:105E0000BDE8F88306EB043003F032FF641CAC42BB
:105E1000F8D1064800F05AFA2B4632460221404695
:105E2000009700F005F80020EAE70000642C00204D
:105E30002DE9F04186B004468068DDF830801D46CB
:105E400016460F4600280CD014216846FDF72BFBA0
:105E5000CDE902658DF80070CDF81080A168684624
:105E6000884706B0BDE8F0810249002208780A7030
:105E7000704700003C2C0020014908700B2070473F
:105E80003C2C002010B503F03FFF08B140DF10BDEF
:105E9000054901200860012000F070FB0028FAD1BC
:105EA0000249487010BD000004000040B0350020D9
:105EB00010B50A4C2068FFF775F908B1FFF750F8E4
:105EC00000224FF470112068FFF728F9002803D052
:105ED000BDE81040FFF744B810BD00008CB80700C3
:105EE0000149416000207047F0B807002DE9FC5FD0
:105EF0000E008346DDE90C47C6F100009846924645
:105F0000814600D40846012503E000BF90FBFAF06B
:105F10006D1C5045FADAA84500D9454624B1002E3B
:105F200001DB780700D5641EB80702D5B8F1000F71
:105F30000AD0F80708D13CB1A54205D22021584625
:105F4000641EFFF733FAF6E7002E02DA4E462D21E3
:105F500002E0780703D52B215846FFF727FA07F010
:105F6000030002280BD1B8F1000F08D13CB1A542C3
:105F700005D230215846641EFFF718FAF6E7CDE93E
:105F80000047434652463146584605F021FBBDE8DE
:105F9000FC9F000002480068002800D001207047E4
:105FA000642C0020800701D000207047012070473A
:105FB0000268134602E08A4204D01268002AFAD12D
:105FC0000B600160704770B5054608680C464A686A
:105FD00086682846314604F03DFB6068286104F17C
:105FE0000C00686170780221B1EB901F01D1241D73
:105FF0002C6170BD06490120086006480168C1F3A4
:1060000000410029FAD1044900208870704700003F
:106010000C00004018040040B03500202DE9F04786
:10602000394E002780463D46DFF8E090D6F804A0C0
:1060300057E003D00446D0F81C8035E099F80020E2
:1060400002EB4201521CD2B289F8002009EBC101D7
:1060500099F80230091D9A4201D189F80050486828
:106060000A780446012A12D0022A02D0032A3BD120
:1060700008E005F067F900B10127257434E00574E4
:10608000C06900E070680028F9D170602CE0207CC5
:1060900050BB88686060C868A0600869E0604869B3
:1060A000A061F07800B165606268B168184B501A61
:1060B00020F07F40984202D2A168084406E0881A86
:1060C000A16820F07F40814202D9081A206000E0D8
:1060D000256065600120A56020742046E56105F01B
:1060E00013F9B8F10000A4D199F8001099F8010053
:1060F0008142A3D117B97168514502D00120BDE892
:10610000F0870020FBE70000502C002038360020EC
:10611000FFFF7F0070B588B0214800F0DEF820480E
:10612000001F064600F0D9F81E4DD5E9014105E0F3
:10613000C0F3891202EB9050641C044404EA01008D
:1061400005EB8000C0688207F2D000200DF1080244
:1061500004EA010305EB8303641CDB6842F820308A
:10616000401C0228F4D3029800F00300012808D054
:1061700002280AD10298032101EB905004EB90040D
:1061800003E00298C0F3831004443046002101AAC2
:10619000FDF715F9002800D06C6008B070BD000054
:1061A000683C00205038002070B5002003F050FCFF
:1061B00003F0C8FA114D032411A1288804EB004014
:1061C00003F0C6FBFFF792F80320FFF787F81049AA
:1061D0000E48C1F8000700F08BF908B1FEF7C0FEC9
:1061E0004FF44050806800F0DFF8288809A104EBE4
:1061F000004003F0ADFB002070BD0000382D0020F2
:10620000496E73696465206D61696E000C0003005E
:10621000400000504166746572206D61696E000037
:106220002DE9F047C7880446181D16468946B0FB7D
:10623000F7F1B0FBF7F207FB12009A193A44D21CAF
:10624000B2FBF7F2DDF820A001E02468491E002926
:10625000FBD13D1A8846B54216D818E0BAF1000FB6
:1062600005D0211809EB08002A46091D04E0204446
:1062700009EB08012A46001DFDF7FCF80020246800
:10628000761BA844B74201D9354600E03D46002EB2
:10629000E4D1BDE8F087000030B5024669B103F0F3
:1062A00005FC0021084C0BE001EB410304EB8303E8
:1062B00015685B88AB4202D11160002030BD491CDB
:1062C0008142F1D3052030BDD82C002008B5002133
:1062D0006A46FCF7D8FF009808BD08B501216A4658
:1062E000FDF760F8009808BD08B501216A46FCF783
:1062F000BDFF08BD38B5044600258DF8005068463E
:10630000FEF760FF21686268086890420ED9401E5F
:1063100008600178238AE26801FB0325227A21685C
:10632000101AC0B20A79824200D208719DF80000AA
:10633000FEF76CFF284638BD38B5054600208DF8BD
:1063400000000C466846FEF73DFFE868298A201ADF
:10635000B0FBF1F12A681068431C136001709DF8CE
:106360000000FEF753FF38BD10B530B1017A426826
:106370000368891AC9B21A6006E00E2010BD0368CE
:106380001A68541C1C601170491EC9B2F7D200680B
:1063900000210171084610BDC20800F0070301206A
:1063A000895C9840084070472DE9F0411B4C074636
:1063B000042520883A4605EB004019A103F0CCFAE9
:1063C00001F034FE01260028208803D006EB0040AF
:1063D00021A11AE005EB004028A103F0B9FA4FF023
:1063E000E0214FF0FF30C1F88001C1F88002208821
:1063F0003A4605EB004027A103F0AEFA384613DF1A
:1064000038B120882DA106EB0040BDE8F04103F033
:106410009FBA3846BDE8F041FCF7FCBE382D00209D
:1064200052756E6E696E67206E72665F626F6F7412
:106430006C6F616465725F6170705F7374617274B8
:10644000207769746820616464726573733A2030E0
:1064500078253038780000004661696C65642072E8
:10646000756E6E696E67206E72665F6466755F6DCD
:1064700062725F696E69745F73640000446973617E
:10648000626C696E6720696E746572727570747380
:106490000000000053657474696E672053442076D1
:1064A0006563746F72207461626C652062617365EC
:1064B0003A20307825303878000000004661696C59
:1064C00065642072756E6E696E672073645F736FAA
:1064D00066746465766963655F766563746F725F21
:1064E0007461626C655F626173655F7365740000FF
:1064F00070B50C4D04260CA1288806EB004003F073
:1065000027FA01F03FFD00280AD101F003FC040046
:1065100006D128880AA106EB004003F019FA2046AC
:1065200070BD0000382D0020496E206E72665F62DB
:106530006F6F746C6F616465725F696E697400007F
:106540004166746572206E72665F626F6F746C6F05
:10655000616465725F696E697400000000F18040DB
:106560000068002800D00120704708B500F1804085
:10657000002101600068009008BD0000054909681D
:1065800040F4803001F00111814201D101207047B7
:10659000002070470C0400402DE9F00300F0FF0CD0
:1065A0000023182530221C26382420274FF04009CC
:1065B000BCF10A0F25D2DFE80CF024051D0B2015D5
:1065C000181D0B2014224A60282211E08A6002E084
:1065D000C1E900468C60BDE8F003C0F307200C3130
:1065E00000F0D1B84A60602202E042224A60842270
:1065F0000A60EBE7C1E90025E8E7C1E900974A46F0
:10660000E4E74B600B608B60BDE8F0030620704749
:106610002DE9F04186B01C4615460E468046FDF732
:1066200021F9074646B33DB334B3306830B3296827
:1066300021B3216811B3FFF7B5FCF8B12868FFF763
:10664000B1FCD8B12068FFF7ADFCB8B101A9404654
:10665000FFF7A2FF00280CD170680199884207D18A
:106660006A680498824203D160680399884207D01F
:10667000092006B0BDE8F0810E20FAE71020F8E707
:1066800008F0FF00042801D00620F2E700972368F5
:1066900029683068FDF7EAF808B10020E9E70B2027
:1066A000E7E70000F0B506461A48A1B01C004068B4
:1066B000029004A817460D46019008D03DB120680D
:1066C00038B1F0B2052806D0062021B0F0BD0E206A
:1066D000FBE71020F9E7694600F055F80028F4D1EF
:1066E00060680099884201D00920EEE701A9304690
:1066F00000F035F80028E8D13A46294601A800F014
:1067000059F80028E1D1224601A9304600F004F8EA
:10671000DBE70000D4B80700F8B51446054621B100
:106720001CB1486870280DD101E00720F8BD0E6843
:10673000E8B2694600F027F80028F7D160680099B0
:10674000884201D00920F8BDC5F3072028B10022F6
:106750003046216804F075FBF8BD0122F8E731B13D
:106760000A6832B14968702905D2092070470E20A5
:10677000704710207047C0B2052801D0062070472E
:10678000104604F0E7BB1422082811D2DFE800F01D
:106790001004100406080C0E0A6003E01C2000E040
:1067A00020200860002070473020FAE74020F8E7FA
:1067B0000620704728B121B14368702B03D209200D
:1067C000704707207047006804F084BC00283ED062
:1067D0001F49204A096800BF00BF00BF00BF00BFBB
:1067E00000BF00BF00BF91422FD000BF00BF00BF5D
:1067F00000BF00BF00BF00BF00BF00BF00BF00BFA1
:1068000000BF00BF00BF00BF00BF00BF00BF00BF90
:1068100000BF00BF00BF00BF00BF00BF00BF00BF80
:1068200000BF00BF00BF00BF00BF00BF00BF00BF70
:1068300000BF00BF00BF00BF00BF00BF00BF00BF60
:1068400000BF00BF00BF00BF00BF0138C3D1704709
:10685000C02C00200024F40000283ED01F49204A0C
:10686000096800BF00BF00BF00BF00BF00BF00BF7E
:1068700000BF91422FD000BF00BF00BF00BF00BFCC
:1068800000BF00BF00BF00BF00BF00BF00BF00BF10
:1068900000BF00BF00BF00BF00BF00BF00BF00BF00
:1068A00000BF00BF00BF00BF00BF00BF00BF00BFF0
:1068B00000BF00BF00BF00BF00BF00BF00BF00BFE0
:1068C00000BF00BF00BF00BF00BF00BF00BF00BFD0
:1068D00000BF00BF00BF0138C3D17047C02C0020EB
:1068E0000024F40000283ED01F49204A096800BF58
:1068F00000BF00BF00BF00BF00BF00BF00BF91428C
:106900002FD000BF00BF00BF00BF00BF00BF00BF4F
:1069100000BF00BF00BF00BF00BF00BF00BF00BF7F
:1069200000BF00BF00BF00BF00BF00BF00BF00BF6F
:1069300000BF00BF00BF00BF00BF00BF00BF00BF5F
:1069400000BF00BF00BF00BF00BF00BF00BF00BF4F
:1069500000BF00BF00BF00BF00BF00BF00BF00BF3F
:1069600000BF0138C3D17047C02C00200024F400C0
:106970002DE9F14FDFF8F8A080464FF44050DAF8E7
:106980003010806882B0DAF824603A4F0844751AF3
:1069900000903988042000EB014054464FF4805B9E
:1069A00035A102F0D5FF216B01EB08004FF0010883
:1069B00002905C46A54200D82C4600220121009896
:1069C00001F084F8002818D100232246029900988B
:1069D00001F038F9002810D122460299009801F000
:1069E000F9FA5FEA00090AD03988029B08EB0140F6
:1069F00028A1009A02F0B7FF4846BDE8FE8FDAF8FA
:106A0000301000202144CAF8301002F071F80098CC
:106A10002D1B20440090029820440290C9D14FF4CD
:106A20004050002280683146FEF74CFDDAF82820FD
:106A3000044639885546A2420AD1042000EB0140A1
:106A400023A102F085FFC5F82080C5E9066405E0B2
:106A500008EB01402346244902F085FF0448243016
:106A600001F0ACFABDE8FE4F002002F041B8000092
:106A70002C340020382D0020456E746572206E7213
:106A8000665F6466755F6170705F636F6E74696E78
:106A900075650000496E76616C696420646174619B
:106AA00020647572696E6720636F6D706172653AFC
:106AB000207461726765743A203078253038782CFC
:106AC000207372633A203078253038780000000057
:106AD00053657474696E67206170702061732076ED
:106AE000616C69640000000084BC070070B5164C3E
:106AF000042516A1208805EB004002F029FF1A4E5C
:106B0000306A012804D0208818A105EB00400FE06E
:106B1000F06988B14FF44050B16980680022FEF7F7
:106B2000D1FCF169814207D0208818A105EB004013
:106B300002F00EFF002070BD208819A105EB004077
:106B400002F006FF012070BD382D0020456E7465EF
:106B500072206E72665F6466755F6170705F6973E4
:106B60005F76616C696400002C3400205265747596
:106B7000726E2066616C736520696E2076616C6947
:106B8000642061707020636865636B005265747582
:106B9000726E2066616C736520696E2043524300FB
:106BA00052657475726E20747275652E2041707016
:106BB000207761732076616C696400002DE9F843E9
:106BC00080460F4608682549254C0425496B4346F5
:106BD000461A00962088234A05EB004022A102F0C5
:106BE000CAFEB868AC2807D13246A8F580411D48D6
:106BF00001F0F0F900281DD032464146194801F055
:106C0000E9F9B8B12088334605EB0040424624A19B
:106C100002F0A9FE3146404601F0EAF9050006D02F
:106C20002088012101EB00402CA102F091FE2846B2
:106C3000BDE8F883208830A105EB004002F088FE13
:106C4000384601F0BBF9208831A105EB004002F085
:106C50007FFE394801F04CFF0546E8E72C34002060
:106C6000382D002000300700566572696679696E1C
:106C70006720424C3A20416464723A2030782530D3
:106C800038782C205372633A203078253038782CAD
:106C9000204C656E3A2030782530387800000000AE
:106CA000426F6F746C6F61646572206E6F742076D2
:106CB000657269666965642C20636F7079696E67B7
:106CC0003A205372633A203078253038782C204CA3
:106CD000656E3A203078253038780000526571753D
:106CE00065737420746F20636F707920424C206646
:106CF00061696C6564000000426F6F746C6F616461
:106D000065722077617320766572696669656400D3
:106D100057726974696E672073657474696E6773FE
:106D200020616E64207265736574696E67206465A6
:106D3000766963652E000000D5AA07004FF0A040D9
:106D4000D0F81005000C10F0010F01D000207047A2
:106D5000012070472DE9F05FDFF8A88115460E4647
:106D60000A780127B8F800104FF00309664CDFF8E5
:106D70009CB1BA4609EB0140072A74D2DFE802F061
:106D8000BB042C5628BBB00061A102F0E1FDB06845
:106D900028B1B0F5807F04D90420BDE8F09F03201E
:106DA000FBE7B8F8001009EB014060A102F0D0FD4C
:106DB00064480068FEF7F6F9534800258BF8035045
:106DC00020213830FCF76FFB2563B068A06383E0B7
:106DD0005DA102F0BDFD24E060A102F0B9FDB26842
:106DE000E06BA36B111899420AD96860206CA86007
:106DF000B8F800100AEB01405EA102F0A9FDCEE751
:106E0000414B71685C331844FCF734FBE06BB168AC
:106E10003D4A0844E063D6E901014032FEF752FBE7
:106E20002064E06B6860206CA86057E05CA102F011
:106E30008FFDD4E90E01814208D0B8F800100AEBAA
:106E400001405EA102F084FD0820A6E7B8F800002A
:106E500061A109EB004002F07BFD9BF803005C465A
:106E600010B1012099E746E0FEF706FC012801D0A9
:106E7000052092E75E4890F8A41061B1B8F80000D0
:106E80005CA109EB004002F063FD6049A1F5397097
:106E9000FEF73EFF0BE0007868B1B8F800005CA197
:106EA00009EB004002F054FD0320FEF7E5FF074622
:106EB000012808D010E0B8F800100AEB01405BA1EF
:106EC00002F046FDD4E7B8F8000062A109EB0040EB
:106ED00002F03EFD84F803A0FEF7EAFF38465CE7C7
:106EE00064A102F035FDE06B6860206CA8604FF48F
:106EF00080702860F2E70AEB014068A102F028FDEB
:106F00000227EBE7D82C00202C340020002C002096
:106F10004265666F7265204F5020637265617465CB
:106F200020636F6D6D616E640000000056616C69D6
:106F30006420436F6D6D616E64204372656174659A
:106F400000000000D0B8070056616C696420436FF0
:106F50006D6D616E64204352430000004265666FB0
:106F60007265204F5020777269746520636F6D6D74
:106F7000616E64004572726F722E20496E697420D2
:106F8000636F6D6D616E64206C61726765722074F1
:106F900068616E2065787065637465642E200000FA
:106FA0004265666F7265204F502065786563757421
:106FB0006520636F6D6D616E6400000045786563E8
:106FC0007574652077697468206661756C747920C2
:106FD0006F6666736574000056616C696420636F48
:106FE0006D6D616E64206578656375746500000081
:106FF0005C2D002048616E646C696E672073696760
:107000006E656420636F6D6D616E6400E830002012
:1070100048616E646C696E6720756E7369676E6532
:107020006420636F6D6D616E640000004465636F82
:1070300064656420636F6D6D616E64206275742099
:10704000697420686173206E6F20636F6E74656E63
:107050007421210053657474696E6720444655207D
:10706000666C616720746F20696E697469616C6910
:107070007A65640056616C696420436F6D6D616E62
:10708000643A204E52465F4446555F4F424A45435C
:10709000545F4F505F53454C45435400496E7661F1
:1070A0006C696420436F6D6D616E64204F70657212
:1070B0006174696F6E00000070B505464FF4405072
:1070C000042184680D48008801EB00400CA102F007
:1070D0003FFC114901F118000A69012A08D04A69E8
:1070E00032B189690C3001F6FF716FF30B010C446A
:1070F0002A462146BDE8704000F010B8382D002027
:10710000456E746572206E72665F6466755F636F4C
:107110006E74696E756500002C3400202DE9F04115
:1071200088462049164607468268042009880024BC
:1071300000EB0140012A0ED00125A52A17D0AA2A6A
:107140001DD0AC2A23D005EB014017A102F000FCB2
:107150002046BDE8F0811AA102F0FAFB1B48406905
:107160000128F5D14046FFF703FC0446F0E718A1DB
:1071700002F0EEFB3946404601F00EFA0EE017A190
:1071800002F0E6FB39464046FFF718FDEDE716A191
:1071900002F0DEFB3946404601F0A2F904463560B4
:1071A000D6E70000382D002053696E676C653A20E1
:1071B000496E76616C69642062616E6B000000004C
:1071C00056616C6964204170700000002C3400200E
:1071D00056616C69642053440000000056616C697C
:1071E0006420424C0000000056616C6964205344E6
:1071F000202B20424C0000002DE9FC5F0120F04CC8
:10720000164601900D460A7821884FF003090127A0
:10721000DFF8B0A3DFF8B08309EB01404FF0000BBB
:10722000072A73D2DFE802F0720479FDFC72FB00DA
:10723000E6A102F08DFBAA686AB110050ED0D8F85D
:1072400054008118DAF80C00814207D02088E4A1AC
:1072500007EB00407EE00320BDE8FC9FB2F5805FB5
:1072600006D92088EEA107EB004002F071FB61E037
:107270009AF8031081B1D8F85430DAF80C00464679
:107280009918D04681420ED900902088ED4907EB2D
:10729000004002F070FB4FE02088EBA107EB0040BC
:1072A00002F056FB48E0218809EB0140F4A102F00E
:1072B0004FFBF06CB064A8687064726D3265326325
:1072C000706908B9C6F820B098F80210491C01F09E
:1072D000030188F80210A8F806B0A968D8F80800D9
:1072E00001F6FF711044090B002200F0EFFB38B1EA
:1072F0002088E8A107EB004002F02AFB0520ABE75D
:10730000B06C0090218809EB014000E050E1E7A15A
:10731000336D726C02F02FFB39E1D8F850107160B8
:10732000D8F84810B1609AF80310404621B1A96816
:10733000802903D904208FE708208DE7026D436D73
:107340000A44D8F84400D21A824206D92088E6A11D
:1073500007EB004002F0FCFA7DE79B4A6868483280
:10736000FEF7B0F898498864086DAA68104408656B
:107370007060886CB060BAF80600AA68111880299D
:107380000FD2DF4B9AF802C0696803EBCC131844A4
:10739000FCF770F82989BAF806000844AAF8060034
:1073A00060E0C0F18001D64A9AF802301FFA81F8F5
:1073B00002EBC312104442466968FCF75BF8BAF866
:1073C00006000023404482B2AAF80620A868A0EB79
:1073D0000800A86068684044DFF8EC816860DAF86B
:1073E0000800D8F8301008440090C5489AF80210F8
:1073F00000EBC111009800F025FC002869D020881E
:10740000BAF8062007EB0040BEA1009B02F0ABFAE1
:10741000D8F84C10C8F84810D8F8541002E0BAE078
:1074200077E080E0C8F850107160D8F84C00B06088
:107430009AF80210491C01F003038AF80230AAF8F6
:1074400006B0AA68002A43D0DFF8B4C2D0460CEBDD
:10745000C3106968FCF70EF82989B8F806000844DB
:10746000A8F80600BAF806205546002AEBD0564880
:10747000436D016BD0F844C0CB1A1344634527D346
:107480008046A868002301EB000A9D48A97800EB1C
:10749000C111504600F0D6FB60B32088534607EB7D
:1074A0000040EA8897A102F05EFAD8F84C10C8F8BC
:1074B0004810D8F85410C8F850107160D8F84C0033
:1074C000B060A878401C00F00300A870A5F806B0D2
:1074D0005FE02188BAF8062009EB014094A1009BE7
:1074E00002F041FABAF80610D8F830201144C8F872
:1074F00030109DE72188534609EB0140EA888CA1B2
:1075000002F031FAEA88D8F830101144C8F8301087
:10751000D7E78EA102F01CFAD8F850107160D8F8A5
:107520004800B06035E04E468CA102F011FA4546A5
:10753000D5E91401431AD8F844202088934205D095
:1075400007EB00408AA102F00EFAF5E606EB0040D8
:1075500090A102F0FDF9C5F844B0286D6865A86CEB
:10756000E864002001F0C4FA08B10A2074E6296D2D
:10757000DAF80C0081420AD120888BA106EB00408A
:1075800002F0E6F95E48E03800F05CFD0190FEF79D
:107590008FFC019860E689A102F0DAF9D8F848106A
:1075A000B160D8F8500070604FF480503060F0E760
:1075B00007EB014087A102F0CBF902200190E8E738
:1075C000D82C0020002C00202C3400204265666F4F
:1075D0007265204F50206372656174650000000081
:1075E000547279696E6720746F2063726561746587
:1075F00020616E206F626A65637420776974682009
:10760000612073697A652074686174206973206EE3
:107610006F74207061676520616C69676E656400D6
:10762000496E76616C69642073697A6520666F7251
:10763000206F626A6563742028746F6F206C6172BA
:107640006765290028BC0700547279696E67207449
:107650006F206372656174652064617461206F627C
:107660006A65637420776974686F75742076616CDD
:10767000696420696E697420636F6D6D616E64006A
:1076800056616C6964204461746120437265617461
:10769000650000004572617365206F7065726174EA
:1076A000696F6E206661696C656400004372656194
:1076B00074696E67206F626A6563742077697468A5
:1076C0002073697A653A2025642E204F66667365BB
:1076D000743A203078253038782C204352433A20B1
:1076E00030782530387800005772697465207265EB
:1076F000717565737420746F6F206C6F6E67000016
:10770000E82E0020212121204661696C65642073E8
:10771000746F72696E672025642042206174206155
:107720006464726573733A203078253038780000CD
:1077300053746F72696E6720256420627974657373
:107740002061743A20307825303878004265666FC1
:107750007265204F50206372630000004265666FBF
:107760007265204F50206578656375746500000070
:10777000496E76616C696420646174612068657229
:10778000653A206578703A2025642C20676F743A3A
:107790002025640056616C69642044617461204551
:1077A0007865637574650000446F696E6720706F5B
:1077B000737476616C6964617465000056616C690C
:1077C000642044617461205265616420696E666F53
:1077D00000000000496E76616C6964204461746148
:1077E000204F7065726174696F6E000010B5FFF70D
:1077F000A5FA90B90A480068C0B2B1280DD009486E
:10780000816D012901D0002010BD0021816508464D
:1078100001F06EF908B1FDF7A3FB012010BD0000D7
:107820001C0500402C3400202DE9F74F07464FF08F
:107830001020504C41694FF4405004258068164692
:10784000081AA0F5405820884BA105EB004002F033
:107850007FF836B1B84507D220884EA105EB00402D
:1078600062E00720BDE8FE8FA346A24620880424DC
:1078700004EB004052A102F06BF8DFF85491BAF823
:1078800000004D4604EB004052A1D9F8102002F050
:1078900063F8BAF8000053A104EB0040AB692A6A10
:1078A00002F061F8BAF8000056A104EB00406B6AE0
:1078B000EA6A02F058F84FF4405009F11804806861
:1078C0003060286A4FF0000A01280AD0C9F810A0D9
:1078D000C9F814A0BBF80010042000EB014051A12E
:1078E0002CE05D46BBF800104FF0040B0BEB0140A1
:1078F000424653A102F030F820683B4600F6FF7084
:10790000010B0903A8EB0108298842460BEB014053
:1079100054A102F028F80121474518D9019838B13F
:10792000288801EB004056A102F012F8042099E7E4
:10793000C9E9041A29880BEB014059A102F008F8A3
:10794000C4F804A0C4F808A0002027608AE7C9E9A9
:1079500004A1D9F81800316800F6FF706FF30B002E
:107960000844306029881A4C0BEB0140243452A1A2
:10797000E4E70000382D0020456E746572206E72B9
:10798000665F6466755F66696E645F6361636865A0
:10799000000000004E6F2077617920746F206669C7
:1079A0007420746865206E6577206669726D7761F2
:1079B0007265206F6E206465766963650000000063
:1079C00042616E6B20636F6E74656E740000000020
:1079D0002C34002042616E6B20747970653A20254A
:1079E0006400000042616E6B203020636F64653A72
:1079F000203078253032783A2053697A653A20254C
:107A00006400000042616E6B203120636F64653A50
:107A1000203078253032783A2053697A653A20252B
:107A2000640000004E6F2070726576696F75732C6C
:107A3000207573696E672062616E6B2030000000F4
:107A4000667265655F73697A65206265666F7265E7
:107A50002062616E6B2073656C6563743A202564E7
:107A600000000000667265655F73697A653A2025DB
:107A7000642C2073697A655F7265713A2025640011
:107A80004661696C7572653A206475616C2062614B
:107A90006E6B207265737472696374696F6E000037
:107AA000456E666F7263696E672073696E676C6599
:107AB0002062616E6B0000005573696E672073650C
:107AC000636F6E642062616E6B000000F8B505465E
:107AD00011480C4617460168491C016000680F4EAA
:107AE000009004213088234601EB00402A460CA177
:107AF00001F041FF3B4622462946194801F07CFC33
:107B0000040007D03088022101EB0040224615A175
:107B100001F022FF2046F8BD382C0020E42C002084
:107B20006E72665F6673746F726167655F657261BE
:107B3000736528616464723D307825702C206C6513
:107B40006E3D2564207061676573292C2071756511
:107B500075652075736167653A2025640000000033
:107B6000C42C00206E72665F6673746F7261676505
:107B70005F65726173652829206661696C656420A0
:107B800077697468206572726F7220307825782E5C
:107B90000000000070B508B10BA200E00CA20E4C72
:107BA00004250EA1208805EB004001F0D5FE2088B9
:107BB00018A105EB004001F0CBFEBDE870401F4965
:107BC00000221F4801F03FBC747275650000000080
:107BD00066616C7365000000E42C002043616C6CEE
:107BE000696E67206E72665F6466755F666C61734E
:107BF000685F696E69742873645F6972715F696E2A
:107C0000697469616C697A65643D2573292E2E2E2D
:107C100000000000496E697469616C697A696E6779
:107C2000206E72665F6673746F726167655F6E76F1
:107C30006D63206261636B656E642E00FCB80700A3
:107C4000C42C00202DE9F8430446134888461E46FC
:107C500001681746491C01600068104D009004211E
:107C60002888134601EB004022460DA101F083FE57
:107C70003B46424621461A48009601F0ECFB0400C0
:107C800007D02888022101EB0040224615A101F00F
:107C900063FE2046BDE8F883382C0020E42C002049
:107CA0006E72665F6673746F726167655F77726923
:107CB000746528616464723D25702C206C656E3D8E
:107CC00030782578206279746573292C2071756568
:107CD00075652075736167653A20256400000000B2
:107CE000C42C00206E72665F6673746F7261676584
:107CF0005F77726974652829206661696C65642004
:107D000077697468206572726F7220307825782EDA
:107D100000000000F8B5504C002000902088042599
:107D200005EB00404DA101F013FE002000F02CFEF9
:107D3000208850A105EB004001F00AFE01F018F880
:107D400008B1FDF70DF9002001F04CF84F4801682B
:107D5000C1F300410029FAD0FDF7B6F908B1FDF7EB
:107D6000FFF84B4A00214B48FDF79CF908B1FDF79D
:107D7000F7F86846FFF7A0F902004FF0010606D0B9
:107D8000208845A105EB004001F0E6FD0096FFF7D5
:107D90002DFD30B120884BA105EB004001F0D8FD4E
:107DA0000096514900200860009800BBFEF79EFE37
:107DB000E8B100F0C5FD002818D1FEF797FE68B1C4
:107DC00001F044F84FF44056208848A105EB0040EC
:107DD000B26801F0C1FDB068FEF7E6FA2088032121
:107DE00001EB004046A101F0B3FD0020F8BD4A4A76
:107DF00010210820FDF740F908B1FDF7B1F825483A
:107E000000224FF470110068FDF788F9070006D0D2
:107E1000208842A106EB004001F09AFD0AE000F044
:107E200049FF070008D020883A4606EB004045A1EC
:107E300001F092FD3846F8BD00F09AFA20884CA176
:107E400005EB004001F084FDFDF7F6F801F088FC39
:107E50000028F9D120BFF7E7382D0020496E2072A5
:107E600065616C206E72665F6466755F696E6974C9
:107E700000000000496E697469616C697A696E6717
:107E80002074686520636C6F636B2E0018040040DB
:107E9000718407008CB80700436F756C64206E6FA7
:107EA0007420636F6E74696E756520444655206F4B
:107EB0007065726174696F6E3A2030782530387859
:107EC000000000004170706C69636174696F6E201E
:107ED00073656E7420626F6F746C6F61646572207D
:107EE00072657175657374001C0500404A756D708C
:107EF000696E6720746F3A2030782530387800003A
:107F00004166746572207265616C206E72665F6492
:107F100066755F696E697400B8310020436F756CD7
:107F200064206E6F7420696E697469616C697A652A
:107F300020696E61637469766974792074696D650E
:107F400072000000436F756C64206E6F7420696E60
:107F50006974616C697A6520444655207472616E5B
:107F600073706F72743A20307825303878000000D2
:107F700057616974696E6720666F72206576656EF9
:107F800074730000054810B50088042101EB00401F
:107F900003A101F0DDFC002010BD0000382D002001
:107FA000696E207765616B206E72665F6466755FCF
:107FB000696E69745F75736572000000002101606D
:107FC0004160816002480163416301614161704722
:107FD0002C3400201FB5054B01AC92081B6A00939E
:107FE00084E80700684618DF04B010BD90B80700A9
:107FF0001FB58908002201AB009283E8070068469C
:1080000018DF04B010BD00001FB59208930502D020
:10801000092004B010BD044B1B6800930392CDE906
:108020000110684618DFF4E790B807001FB5044B4D
:108030000FCB8DE80F00684618DF04B010BD0000BC
:10804000A0B807002DE9F05F0546012790F86D0004
:10805000DFF81492DFF81482BB46032801D0092010
:108060001AE08348814BD8E9021200683033FEF7EA
:1080700019FB00B10A277D482022303005F16F013D
:108080000068FBF722FA50B1B9F800100BEB014081
:1080900078A101F05DFC0C20FDF7EEFE0746794E5D
:1080A0004FF0030A706958B1B9F80010012811D0D7
:1080B0000BEB014074A101F04BFC0A20BDE8F09FDE
:1080C000B9F800100AEB014079A101F041FC6D4CB8
:1080D000183406E00AEB01407BA101F039FC694C41
:1080E0002434B9F80010032000EB01407CA101F01A
:1080F0002FFC95F855204FF0000A82B383484FF0CB
:10810000020C4FF44051012A05D0022A45D0032A1F
:1081100020D00A2743E00A78142A01D9496900E0EF
:108120000021B1FBF0F2D8F8081001F500510B78EE
:10813000142B01D9496900E00021B1FBF0F39A4208
:108140002BD0B9F8000072490CEB004001F00BFC99
:10815000052724E00A78142A02D9496901E01CE0C5
:108160000021B1FBF0F2D8F8081001F500510B78AE
:10817000142B01D9496900E00021B1FBF0F39A42C8
:108180000BD0B9F8000063490CEB004001F0EBFBA9
:108190007069012801D1C6F820A0012F05D0C4F8CC
:1081A00008A05046C4F804A046E0B9F80010032027
:1081B00000EB014058A101F0CBFB95F8550080B1D0
:1081C00001281ED002281ED003281FD00420FDF74E
:1081D00053FE074695F88F00E8B195F89000D0B1AE
:1081E00026E0C4F808B070690128F3D1B9F800108E
:1081F000032000EB014053A101F0AAFBC6F820A028
:10820000E8E7A52003E0AA20A060E3E7AC20A06097
:10821000A86D7063DEE795F8550020B1022805D0FF
:10822000032805D102E06868B06001E06868F0608A
:10823000B06C6060D8F80C00206012482021383003
:10824000FBF731F90F48FF22FC215C30FBF724F9E2
:10825000C6F830A088F805B0444800F049FC00B1E9
:108260000A2738462AE70000D82C0020002C0020DE
:1082700078B8070048617368206661696C7572653B
:10828000000000002C340020496E7465726E616C31
:10829000206572726F722C20696E76616C69642041
:1082A00063757272656E742062616E6B000000000F
:1082B00043757272656E742062616E6B2069732003
:1082C00062616E6B2030000043757272656E7420BF
:1082D00062616E6B2069732062616E6B20310000F9
:1082E00052756E6E696E67205344207665727369AD
:1082F0006F6E20636865636B203D3D3D3D3D3D3DB8
:108300003D3D3D3D3D3D3D200000000040420F0011
:10831000E0BB070084BB0700537563636573736636
:10832000756C6C792072616E2074686520706F7353
:108330007476616C69646174696F6E2063686563EB
:108340006B210000496E76616C69646174696E67C7
:10835000206F6C64206170706C69636174696F6E0A
:1083600020696E2062616E6B20302E00B59D070083
:1083700070B50020FFF70EFC00281DD10F4CA06B3C
:1083800078B1FDF779F960B10D4D206A68B9A0693F
:1083900058B10B4A00210832E860FFF745FA012086
:1083A000E8700020FDF768FD05E0E06A18B9A069F3
:1083B00008B1606AEDE7002070BD00002C34002099
:1083C000002C002070B50C780125134B012C01D036
:1083D000062C0AD10C79012C03D0022C03D00720E3
:1083E00070BD5D7001E002245C705B78012B0AD0E7
:1083F000022B0CD009480AA1008805EB004001F0CF
:10840000A7FA052070BDBDE87040FEF7A3BCBDE82B
:108410007040FEF7F1BE0000002C0020D82C002098
:10842000496E76616C69642072657175657374203C
:10843000747970650000000010B5074C6079002861
:1084400009D006480421008801EB004004A101F096
:108450007FFA0120207110BD002C0020D82C0020B4
:10846000526573706F6E73652073656E742E0000B5
:108470000D480421008801EB00400CA101F068FACE
:1084800001F06EF90028FBD11248FEF7E5F9BFF3C1
:108490004F8F11480168114A01F4E06111430160F6
:1084A000BFF34F8F00BFFDE7382D00204446552015
:1084B00072657365742064756520746F20696E61E0
:1084C000637469766974792074696D656F75742E4B
:1084D00000000000A08601000CED00E00400FA0599
:1084E0002DE9F047164D044689462888042101EB02
:1084F000004014A101F02CFA1A4FB86C00B10446E8
:108500004946204600F096F806004FF0010808D0D2
:10851000298808EB014014A101F01AFA3046BDE8A1
:10852000F087786B49462044FEF748FB0400F6D0FC
:10853000298808EB014012A101F00AFA2046EEE773
:10854000382D0020456E746572206E72665F646619
:10855000755F73645F626C5F636F6E74696E75657F
:10856000000000002C34002053442B424C3A20538E
:108570004420636F7079206661696C656400000057
:1085800053442B424C3A20424C20636F7079206652
:1085900061696C656400000070B50D461049896C16
:1085A00001B10846294600F045F80E4E040008D0F7
:1085B0003088012101EB00400BA101F0C9F92046F0
:1085C00070BD2846FFF7FAFC3088042101EB00401B
:1085D0000DA101F0BDF9BDE87040154800F088BA62
:1085E0002C340020382D00205344207570646174B1
:1085F0006520636F6E74696E756174696F6E206655
:1086000061696C656400000057726974696E672067
:1086100073657474696E677320616E64207265732C
:108620006574696E67206465766963652E00000075
:10863000D5AA07002DE9FE4FDFF880810646DFF856
:1086400080A1D8F83000D8F8341000F58055081A09
:1086500000F6FF70070B3F0340F6FF7000EB97003A
:10866000040BBAF800104FF0040909EB0140240391
:1086700054A101F06DF9D8F83000D8F83410064450
:1086800059B1884209D1BAF8001009EB014057A14D
:1086900001F05EF90020BDE8FE8FE8B906F5005054
:1086A0000178142901D9416900E000215448B1FB47
:1086B000F0F34FF440510A78142A01D9496900E0D7
:1086C0000021B1FBF0F2BAF8001009EB01404DA116
:1086D00001F049F939488664D346BC4203D907F60C
:1086E000FF70040B240305EB040A0095CDE901A4F7
:1086F000BBF800100420331900EB014099463246C4
:108700004BA101F041F9224631462846FFF77CFC97
:108710005FEA000809D00094BBF80010012000EBCC
:10872000014033462A4650A11DE00095CDE901A441
:10873000BBF80010042000EB01404B46324659497B
:1087400001F022F9224631462846FFF743FC5FEA52
:1087500000080CD00094BBF80010012000EB014091
:1087600033462A4650A101F006F9404693E70095AA
:10877000CDE901A4BBF800104FF0040808EB01405C
:108780004B46324658A101F0FFF855464E46BC42D2
:1087900001D9002700E03F1BBBF8001008EB0140A7
:1087A0005FA101F0D5F80548416BC91B01630020AA
:1087B00000F09EF9002F90D16DE700002C340020CE
:1087C000382D0020456E746572206E72665F626F90
:1087D0006F746C6F616465725F6466755F73645F0C
:1087E000636F6E74696E756500000000534420610C
:1087F0006C726561647920636F7069656400000064
:10880000A08601005570646174696E672053442E20
:10881000204F6C64205344207665723A2025642CE6
:10882000204E6577207665723A20256400000000AE
:10883000436F7079696E67205B3078253038782D0A
:108840003078253038785D20746F205B30782530A3
:1088500038782D3078253038785D3A204C656E3A7E
:1088600020307825303878004661696C6564207462
:108870006F20636F70792053443A2074617267658A
:10888000743A203078253038782C207372633A207F
:108890003078253038782C206C656E3A2030782579
:1088A00030387800CCBC07004661696C6564207480
:1088B0006F20436F6D706172652053443A2074617C
:1088C000726765743A203078253038782C207372BE
:1088D000633A203078253038782C206C656E3A2049
:1088E000307825303878000056616C6964617465B1
:1088F00064203078253038782D307825303878204D
:10890000746F203078253038782D307825303878DD
:108910003A2053697A653A2030782530387800005B
:1089200046696E6973686564207769746820746845
:1089300065205344207570646174652E000000004A
:10894000054810B50088022101EB004003A100F0AA
:10895000FFFF002010BD0000F02C00204E6F2061B2
:1089600064646974696F6E616C2064617461206510
:108970007261736564000000002258210148FCF711
:10898000A1BD0000303400202DE9F041050001D0E8
:1089900024A200E025A2274C042727A1208807EB6A
:1089A000004000F0D9FF2846FFF7F4F805004FF02B
:1089B000010609D020882A4606EB00402CA100F0D1
:1089C000CBFF2846FCF7CCFA4FF4B2784246334945
:1089D0003348FAF74FFD324D2868401C04D0FFF7AA
:1089E000CBFF296881421BD020882EA107EB0040D5
:1089F00000F0AEFF41462A48FAF755FD00206E60B0
:108A000000F076F805000BD020882A4606EB0040DF
:108A10002CA100F0A1FF2846BDE8F041FCF7A0BA68
:108A2000BDE8F081747275650000000066616C73CA
:108A300065000000F02C002052756E6E696E672094
:108A40006E72665F6466755F73657474696E677372
:108A50005F696E69742873645F6972715F696E69BA
:108A60007469616C697A65643D2573292E00000084
:108A70006E72665F6466755F666C6173685F696E6F
:108A800069742829206661696C6564207769746857
:108A9000206572726F723A202578000000F007009E
:108AA0002C340020526573657474696E6720626FA0
:108AB0006F746C6F616465722073657474696E673E
:108AC000732E00006E72665F6466755F666C61731C
:108AD000685F77726974652829206661696C6564CE
:108AE0002077697468206572726F723A2025780069
:108AF0002DE9F0411B4C0546042620881AA106EBFF
:108B0000004000F025FF20881C4A06EB00401CA115
:108B100000F022FF002201211848FEF7D7FF0126AE
:108B200020B120881EA106EB004016E0FFF724FFCD
:108B300024494FF4B2773A460860A1F5B270FAF7CB
:108B400099FC2B463A4620490C48FFF77BF8002851
:108B500006D020881DA106EB004000F0F9FE03209E
:108B6000BDE8F081F02C002057726974696E6720AF
:108B700073657474696E67732E2E2E0000F0070003
:108B800045726173696E67206F6C642073657474DD
:108B9000696E67732061743A203078253038780028
:108BA000436F756C64206E6F74206572617365200D
:108BB0007468652073657474696E6773207061678B
:108BC000652100002C340020C8320020436F756CF2
:108BD00064206E6F742077726974652074686520F4
:108BE0004446552073657474696E677320706167BD
:108BF000652100002DE9F0471749DFF86080DFF8B4
:108C00006090A1EB0800C708B9F800000426002511
:108C10004C4606EB004013A100F09AFE20883A462D
:108C200006EB004016A100F097FE002407E000BF0D
:108C300008EBC40040688047050002D1641CBC42B8
:108C4000F6D3B9F8000013A106EB004000F080FE57
:108C50002846BDE8F0870000CCBE0700C4BE070070
:108C6000382D0020496E206E72665F6466755F74F1
:108C700072616E73706F7274735F636C6F73650093
:108C80006E756D207472616E73706F7274733A20BA
:108C9000256400004166746572206E72665F6466CA
:108CA000755F7472616E73706F7274735F696E69F1
:108CB000740000002DE9F0471649DFF85C80DFF80A
:108CC0005C90A1EB0800C708B9F800000426002555
:108CD0004C4606EB004012A100F03AFE20883A46CE
:108CE00006EB004015A100F037FE002406E000BFAF
:108CF00058F834008047050002D1641CBC42F7D309
:108D0000B9F8000012A106EB004000F021FE284651
:108D1000BDE8F087CCBE0700C4BE0700382D002098
:108D2000496E206E72665F6466755F7472616E7301
:108D3000706F7274735F696E697400006E756D2078
:108D40007472616E73706F7274733A2025640000E0
:108D50004166746572206E72665F6466755F7472D8
:108D6000616E73706F7274735F696E697400000076
:108D700070B50F4C0025207808B1852516E000213C
:108D8000A16061602161E1604FF0E020D0F8000156
:108D9000012610F0010F03D10721002000F070F828
:108DA00000F0B2FF08B9034806602670284670BD7F
:108DB000B03500201805004008B500208DF80000EF
:108DC0006846FCF7FFF90648C168491EC160C068E3
:108DD00008B9FDF70FF99DF80000FCF717FA08BD78
:108DE000B0350020F8B5174D0446A878002648B1E4
:108DF00014B16168012088478DF800606846FCF76F
:108E0000E1F917E08DF800606846FCF7DBF924B162
:108E10000C4821461030FDF7CBF8E86850B94FF404
:108E20008270FDF7A2FB02204107C1F80403064946
:108E300001200860E868401CE8609DF80000FCF72D
:108E4000E5F9F8BDB03500200800004010B500F08D
:108E500011F84FF080414FF0FF30C1F80803FDF7E3
:108E6000C9F8FDF70FF802490020087010BD000096
:108E7000B03500204FF0E0210120C1F8800170479B
:108E80004907090E002806DA00F00F0202F1E0227D
:108E900082F8141D03E000F1E02282F8001400F0D3
:108EA0001F02012191404009800000F1E020C0F83C
:108EB0008012C0F8001170470121B1EB507F01D141
:108EC00001207047002070472DE9F04105460F460C
:108ED00000791F49C0EBC00001EB80041646E07E1C
:108EE00010B10820BDE8F08139462846FCF7A8F902
:108EF000666038692060F6B13E7F4FF4887128685B
:108F000000F052FF4FF49071286800F04DFF4FF4CD
:108F10009271286800F048FF4FF4A271286800F0B1
:108F200043FF28680B49C0F8041328683146000B3A
:108F300040B2FFF7A5FF28680821C0F800150020FF
:108F4000E0752076A0750121E176A076CAE70000E1
:108F50001C360020100302002DE9F04105460E46A4
:108F600000791849C0EBC00001EB80041746304679
:108F7000FFF7A2FF98B1616800234FF4047011B1AC
:108F80002968C1F80803E17D79B1217E49B16168A2
:108F900011B12968C1F804031120BDE8F081102047
:108FA000FBE726610123277604E0E7750020E660F1
:108FB000607620763A4631462846BDE8F04100F01A
:108FC00005B800001C360020704700002DE9F05F56
:108FD000894604464FF488759A46904600260068F4
:108FE000294600F0E1FE4FF4A2773946206800F0F0
:108FF000DBFE2068C0F83495C0F838852068BAF1E7
:10900000000F16D0D0F8001241F02001C0F8001275
:109010002079DFF86C80C0EBC00108EB810040686C
:1090200050B120684FF40471C0F804133046BDE815
:10903000F09F01210160EBE7AA46B9464FF4927B0D
:109040005146206800F0ABFE07464946206800F014
:10905000A6FE05465946206800F0A1FE014647EAF3
:1090600005000843ECD020790022C0EBC00308EBD8
:109070008300C27501B10326002DD7D00F26D5E796
:109080001C3600202DE9F04704460079254FC0EB3F
:10909000C00007EB800590460E460846FFF70CFF20
:1090A00030B1204600F040F820B11120BDE8F08733
:1090B0001020FBE785F816804FF00008AE60A5F899
:1090C000148020794FF49079C0EBC00007EB800545
:1090D00046464946206800F067FE4FF4AC773946B3
:1090E000206800F061FE2068A97DAA68C0F84425C8
:1090F000C0F84815206801218160686880B9CA46B7
:10910000B9465146206800F04AFE074649462068A5
:1091100000F045FE0743F4D000B10F2685F8168015
:109120003046C3E71C36002000790549C0EBC0007B
:1091300001EB8000807D002800D0012070470000F6
:109140001C3600202DE9F041024600792549C0EB8C
:10915000C00001EB800710684FF00008C0F80085E0
:10916000786880B110682049C0F8081310680121A0
:10917000000B40B200F01F0399404009800000F14D
:10918000E020C0F880111068D0F80C35D0F81465D4
:10919000D0F80855D0F810454FF0FF31C0F80C1545
:1091A000C0F814151068C0F80815C0F81015581C40
:1091B00002D0184600F0A6F9701C02D0304600F02C
:1091C000A1F9601C02D0204600F09CF9681C02D076
:1091D000284600F097F987F81B80C7F80480BDE89F
:1091E000F08100001C360020100302000FB408B507
:1091F0000399002904D004AA00926A4600F00FF8EF
:1092000001B05DF814FB10B582680446002A05D051
:10921000D4E90403216898470020A06010BD2DE91F
:10922000FC4791460C00804676D014F8011B39B1FA
:1092300025290ED04046FCF7B9F820780028F4D153
:1092400098F80C00002867D04046BDE8FC47FFF7BF
:10925000DABF0020012221782B291BD02D2902D032
:10926000302908D102E040F0010001E040F00200A6
:10927000641C002AEFD100252A290ED02178A1F103
:1092800030020A2A11D205EB850201EB4205641C6B
:10929000303DF1E740F00400EAE7D9F800100B1D7B
:1092A000C9F800300968641C0D44217800232E2978
:1092B0000BD114F8011FA1F130020A2A05D203EBE9
:1092C000830201EB4203303BF3E76C290DD06829A0
:1092D0000BD0692921D00BDC252918D0582931D091
:1092E00063290ED0642915D117E014F8011FECE7AB
:1092F000702969D0732932D075291BD0782909D1FA
:1093000020E0D9F80000011DC9F80010017840469E
:10931000FCF74CF8641C90E76CE0D9F800100A1DCB
:10932000C9F800200968CDE900500A224046FCF740
:10933000DDFDEFE7D9F800100A1DC9F80020096823
:109340000A2206E0D9F800100A1DC9F800200968B1
:109350001022CDE90050404602F03AF9DAE7D9F898
:10936000001000270A1DC9F800200E68C00705D1AB
:1093700012E04046761C7F1CFCF718F83178002973
:10938000F7D104E0202140466D1EFCF70FF8BD42E6
:10939000C0D9002DF6D1BDE74EB13046FAF78EF8B0
:1093A000074604E0202140466D1EFBF7FFFFBD424B
:1093B00006D9002DF6D103E04046761CFBF7F6FFF8
:1093C00031780029F8D1A5E7D9F80000011DC9F8C6
:1093D0000010056830214046FBF7E8FF7821404641
:1093E000FBF7E4FF08200021CDE90001034610222D
:1093F0002946B0E7BDE8FC872DE9F0411F46154638
:1094000004000E4616D02068B8B1C5B16068026885
:10941000501E304215D16A432046FBF795FD80B1BE
:1094200020683B462A46D0F810C031462046BDE8A9
:10943000F04160470E20BDE8F0810820FBE70920DD
:10944000F9E71020F7E720B119B101600B68114668
:1094500018470E2070472DE9F8431D46089F164611
:10946000884604000DD066B1206860B135B16068EF
:109470004068B5FBF0F100FB115030B10920BDE8A8
:10948000F8830E20FBE70820F9E74046FBF756FD7E
:1094900090B13046FBF752FD70B12A464146204656
:1094A000FBF752FD40B1009720682B463246C76853
:1094B00041462046B847E2E71020E0E770B541EAB0
:1094C0004201DDE904564FF0A04441EA830141EA3C
:1094D000052104EB800041EA0641C0F8001770BD89
:1094E00070B541EA4201DDE904564FF0A04441EA7B
:1094F000830141EA052104EB800041EA0641C0F8FE
:10950000001770BD1CB5002100910B46012201918E
:10951000FFF7E6FF1CBD1CB500220B46009211466A
:109520000192FFF7DDFF1CBD1CB5002100910B4629
:10953000012201911146FFF7D3FF1CBD4FF0A0425D
:1095400002EB80000321C0F8001770474FF0A042E3
:1095500002EB8000D0F8002722F44032C0F8002748
:10956000D0F8002742EA0141C0F8001770470122F5
:109570004FF0A043824011B1C3F808257047C3F8EB
:109580000C25704718B5084B6C4601441B680093C6
:1095900006E000BF54F82030D3F81035401C08C254
:1095A0008142F7D818BD0000DCB80700034908B5B0
:1095B0000844002101600068009008BD0060004080
:1095C00002494058012800D0002070470060004048
:1095D00030B5124B01460020D3F81044224609E072
:1095E000157A854205D1401C0A28F7DB4FF0FF3081
:1095F00030BD5268002AF3D1421CF9D00872D3F86A
:1096000010242AB152684A60D3F81024516030BD4A
:109610000022C3F810144A6030BD0000503800200A
:109620007047FBF725BA704708B5034A00924023FC
:10963000024A00F005F808BD19AE070050370020B7
:10964000F0B595B01C4615460F4608461A9E00F028
:10965000E9FA182109A8F9F726FF0E96CDE9095471
:109660000023082203A9384600F0F6FA0598069070
:109670000498ADF81C0000208DF8200003980826FF
:1096800000F00300012802D002281DD03CE003981E
:109690003346850AC0F3C2008DF81E0003980FA957
:1096A000C0F380008DF81F000398C0F38314A2005C
:1096B000384600F0D1FA09A8009006AB22460FA95F
:1096C000284600F00BFA1FE00398840DC0F3C20097
:1096D0008DF81E000398C0F380008DF81F00082C41
:1096E00001D2254600E0082533462A460FA9384610
:1096F00000F0B2FA2E44641B09AB06AA29460FA853
:1097000000F050F9002CEAD1384600F094FA15B078
:10971000F0BD00000A4A012902EBC00007D002296F
:1097200007D0032907D0042907D000207047022062
:1097300070470420704700797047407970470000F7
:10974000CCBE070010B5FFF76CFF04210348FFF7FC
:109750003FFF02490120487210BD0000682C002024
:109760002DE9F04F8DB0FBF731FE18B100200DB0A0
:10977000BDE8F08F74480021C0F81814BFF34F8F74
:10978000D0E9014604EA060100EB81014FF000092F
:109790000AE000BFC1F3891202EB9151641C0C4432
:1097A00004EA060100EB8101C9688A07F2D00021B2
:1097B00003AA804604EA060008EB8000641CC06827
:1097C00042F82100491C43460229F3D3039800F0D4
:1097D0000300022806D0012803984FD0C043800719
:1097E0007ED0ACE003985022810D8A46B2EB905FA8
:1097F00000D850210D4665F39F500390083153481F
:1098000000F0C7F907006CD000F00CFA4B460822B4
:1098100003A9384600F026FA04EA0601701A80000F
:10982000001D09F1080B854221D9474E0C3630B195
:10983000C2B208EB8101281A91460C3104E031468E
:10984000EAB2002691463046C5B25B46384600F083
:1098500009FA0BEB09032EB12A4631464FEA0700FD
:1098600000F000FA0AF1030004EB90043BE008EB7F
:1098700081015B462A4638460C31F1E7C0F383107C
:10988000062800D30620039960F38911C1F38310E1
:10989000801C039181002D4800F07BF907004ED019
:1098A00000F0C0F94B46082203A9384600F0DAF967
:1098B00009F1080900250DE004EA060008EB800123
:1098C0004B46042238460C31641C00F0CBF909F1F8
:1098D00004096D1C0398C0F38310A842ECD801E082
:1098E0000BE02CE05FB3D8F81054D8F818044646C3
:1098F00090B1384600F09FF921E0D3F81804002811
:109900003FF435AF1BE0687A012804D12968284666
:109910000A68394690476D68002DF4D1384600F04A
:109920008AF900208DF800006846FBF74BFCD6F85A
:10993000180400B974609DF80000FBF767FCFBF7A2
:1099400045FD80F0010012E75038002028BA0700DA
:1099500000231A4601F050BC08B5012300926A4664
:1099600001F04AFC08BD1CB5CDE9002302236A467C
:1099700001F042FC1CBD3EB5069C8DE81C00032393
:109980006A4601F039FC3EBD70B586B00DF1280C79
:109990009CE870008DE87C0005236A4601F02CFCF1
:1099A00006B070BD2DE9F0470E4680461C46924633
:1099B00008293ED894F80C900020207319461046D0
:1099C00000F0C2FF0025B54206D218F805201AA102
:1099D0002046FFF70BFC03E019A12046FFF706FC29
:1099E0006D1C082DEFD317A12046FFF7FFFB0025C4
:1099F000B54210D218F80570F9F738FD0068C05D5F
:109A000010F03E0F01D03A4600E02E220EA1204673
:109A1000FFF7ECFB03E00DA12046FFF7E7FB6D1C11
:109A2000082DE5D301222146504600F06FFF84F84F
:109A30000C90BDE8F087000020253032780000004F
:109A4000202020007C000000256300002000000092
:109A5000114810B5FF218160002101604160C0F80C
:109A60001814C0F81414012180F81C140B4800F0DD
:109A7000E0F800280ED10A480A490B4B401AC108E9
:109A8000002004E000EB400223F82200401C884242
:109A9000F8D3002010BD00005038002028BA07007D
:109AA00024BF0700CCBE0700D82C00200248034981
:109AB000401AC0087047000024BF0700CCBE070052
:109AC00013B56846FCF7E8FB08B100201CBD02484E
:109AD000009950F831001CBDCCBE07002DE9FF47AE
:109AE00081460C9D00200C462F7B28739846164615
:109AF0002946184600F028FF072E42D2DFE806F07C
:109B000004090F161F2A360049462846FFF76EFB48
:109B100037E0494628462268FFF768FB31E0D4E980
:109B2000002349462846FFF761FB2AE0A068009021
:109B3000D4E9002349462846FFF758FB21E0D4E941
:109B40000201CDE90001D4E9002349462846FFF788
:109B50004DFB16E004F1080007C88DE80700D4E9C2
:109B6000002349462846FFF741FB0AE004F10800BC
:109B70000FC88DE80F00D4E9002349462846FFF7B7
:109B800035FB00222946404600F0C0FE2F73BDE899
:109B9000FF872DE9F041058A80462D1F4819C01C1A
:109BA000B0FBF5F0C6B24046FCF7A4FB041E19D08A
:109BB0000020207101206071E58000272546761E77
:109BC000C4F800800BE04046FCF794FB60B161797B
:109BD000491C6171286005467F1CC0F80080B742AF
:109BE000F1D32046BDE8F081204600F002F80020C5
:109BF000F8E72DE9F041457901466B1E002201E0AE
:109C00000968521C9A42FBD30F680146002605E002
:109C100038460C68FCF790FB2146761CAE42F7D321
:109C2000BDE8F08108B501216A46001DF9F793FBF4
:109C300008BDFCF799BB38B50446001D01216A46F2
:109C4000F9F796FB009810F0FF0F04D12046BDE80D
:109C50003840FFF7CEBF38BD38B501240094FCF77B
:109C6000DFFA38BD38B500240094FCF7D9FA38BDC6
:109C7000094902220A60BFF36F8FBFF34F8F0A1D9D
:109C8000106006480268002AFCD000200860BFF37C
:109C90006F8FBFF34F8F704704E5014000E4014030
:109CA00070B50E4C01232360BFF36F8FBFF34F8F4E
:109CB00000230B4D08E000BF51F8236040F82360FB
:109CC0002E68002EFCD05B1C9342F5D30020206050
:109CD000BFF36F8FBFF34F8F70BD000004E50140ED
:109CE00000E401400EB50749684600F031F805E090
:109CF000D0E900108847684600F041F80298002833
:109D0000F6D10EBD90BA07000148007870470000F8
:109D1000BC2C00201FB5684648DF30B1052814D0A0
:109D200004B0BDE81040FBF71BB9084901A800F0DA
:109D30000FF806E0D0E900210098904701A800F054
:109D40001EF803980028E6D0F4E71FBDCCBA070040
:109D5000016009684160AFF3008010B5D0E90021CF
:109D60005368994201D1002104E0D1E90034A342B3
:109D700002D01946816010BD08314160F0E781686A
:109D800000290BD0026892680A44826041684B68DF
:109D90009A4203D108314160FFF7DFBF7047405856
:109DA000002800D00120704708B5002242504058DA
:109DB000009008BD70B5144D042614A1288806EB48
:109DC0000040FFF7C5FD1B4C207800281AD12888D9
:109DD00019A106EB0040FFF7BBFD1D4A01211D48FC
:109DE000FBF760F908B1FBF7BBF81A480022083806
:109DF00040F266618068FBF791F908B1FBF7B0F8B3
:109E00000120207070BD0000D82C0020416C6C2017
:109E1000666C617368206F7065726174696F6E73D0
:109E2000206861766520636F6D706C657465642E63
:109E300000000000002C00205374617274696E678A
:109E40002072657365742074696D65722E00000060
:109E500015AA070080B807002DE9F04F04468FB01F
:109E600000200090019004900590069002900390CD
:109E700009900A900B90208A677E401E86B24FF0B0
:109E8000A0408DF80C704FF4802104F11A054FF0BA
:109E9000010BC0F80C154910C0F808155F484FF0C9
:109EA00004094FF0030A01884FF0020809EB014052
:109EB0000A2F7CD2DFE807F0A205243142A24860D5
:109EC0006996052E03D000BF8DF80DA09FE054A128
:109ED000FFF73EFDB4F89A00A4F89C0028780A9099
:109EE0002979D5F801008DF824B061F31F600B903B
:109EF0006A4609A90020FEF765FA8DF80D0086E094
:109F00004DA1FFF725FD022EDED12888A4F89A0086
:109F1000A4F89C008DF80DB079E04CA1FFF718FD76
:109F20008DF824906A4609A90020FEF74BFA8DF8B7
:109F30000D00019804900298059068E049A1FFF790
:109F400007FD8DF824A0D3E74CA1FFF701FD012EFA
:109F5000BAD128780A9006208DF824006A4609A90B
:109F60000020FEF72FFA8DF80D000098049001985C
:109F70000590029806904AE046A1FFF7E9FC81208F
:109F80008DF80DB0ADF8100041E0CDE90A568DF81E
:109F900024806A4609A90020FEF714FA8DF80D0006
:109FA000012808D01D4801880BEB014000E025E0A6
:109FB0003EA1FFF7CDFCB4F89A0000282BD0B4F8EE
:109FC0009C00401E0004000CA4F89C0023D10198C2
:109FD000049002988DF80CA00590B4F89A00A4F8AB
:109FE0009C0014E0012E8FD18DF80DB029788DF8EA
:109FF00010102A7834A1FFF7AFFC08E008EB01400D
:10A0000036A1FFF7A5FC8DF80D80082F03D003A91A
:10A01000204600F097FD0FB0BDE8F08F382D0020EE
:10A020005265636569766564206372656174652055
:10A030006F626A65637400005365742072656365BE
:10A04000697074206E6F7469660000005265636504
:10A05000697665642063616C63756C617465204327
:10A0600052430000526563656976656420657865D2
:10A0700063757465206F626A656374005265636519
:10A08000697665642073656C656374206F626A65C8
:10A090006374000052656365697665642067657462
:10A0A0002073657269616C206D7475004661696C1E
:10A0B00075726520746F2072756E207061636B65B8
:10A0C00074207772697465005265636569766564AA
:10A0D0002070696E6720256400000000526563658A
:10A0E0006976656420756E737570706F72746564DF
:10A0F000204F5020636F646500000000F8B50D46E6
:10A1000014460646694600F052FA00280ED0009A1E
:10A11000FF2A0AD8501C824207D869780223B3EB81
:10A12000911F02D02979814201D20020F8BD22700E
:10A13000611C304600F080FBF8BD114600F0D6B837
:10A14000114600F0E3B8F8B50C46154606466946D8
:10A1500000F02DFA00280CD0009A501C904207D332
:10A1600061780223B3EB911F02D02179814201D2A1
:10A170000020F8BD2946304600F05EFB009A002121
:10A18000A954F8BD2DE9FF410C468E6817460546D7
:10A19000694600F023FB00280ED0A06800280BD0F1
:10A1A00060783A46C0F3011002283146684606D06E
:10A1B00000F0DAF80199696004B0BDE8F08100F0C0
:10A1C00086F8F7E77CB50D461446694600F08FF92E
:10A1D000002820D02879082806D0042809D0022891
:10A1E0000AD001280CD015E0DDE90001C4E9000126
:10A1F0000AE00098206006E0009800B2208002E0AB
:10A20000009840B22070C117DDE90023504059404A
:10A21000084301D000207CBD01207CBD7CB50D46EB
:10A220001446694600F09EF9002820D028790828B5
:10A2300007D00021042809D002280AD001280CD018
:10A2400014E0DDE90001C4E9000109E000982060A4
:10A2500006E0009880B2208002E00098C0B2207032
:10A26000DDE9002350405940084301D000207CBD67
:10A2700001207CBD7CB50D461446694600F072F99C
:10A28000002821D02979082908D00098C21704296C
:10A290000BD002290DD001290ED014E0DDE9000217
:10A2A000C4E900020146134609E0C31701462060D5
:10A2B00005E001B2218001E041B22170CB1741409D
:10A2C0005340194301D000207CBD01207CBD70B5F6
:10A2D0000D46064614461146284600F09AFA2246D4
:10A2E00029463046BDE8704000F03EB838B50C460F
:10A2F0000422694600F0A0FA002806D09DF8031059
:10A30000009861F31F602060012038BD1CB50C4629
:10A310000822694600F090FA002824D09DF8011028
:10A320009DF800209DF80230080E42EA012242EA20
:10A33000034240EA13409DF803309DF8041040EAC0
:10A34000132008439DF8051042EA036240EA012009
:10A350009DF8061040EA01409DF8071040EA0160B0
:10A36000C4E9002001201CBD2DE9F04F04469DB03A
:10A3700000200090064601904FF0FF3A0AA800F036
:10A3800069F94FF0010BE94682E012AB05AA06A974
:10A39000204600F0C9F850B10AA8059900F06BF901
:10A3A00060B10B98407810F0300F53D060E09DF80A
:10A3B0004800002870D11DB0BDE8F08F0598B0426C
:10A3C00042D30B9D0AAE0B98407800F00F0008288E
:10A3D00012D0304600F066F90B98A842F3D15646E9
:10A3E0000599B14230D3D4F8088009919DF818102E
:10A3F00008910E990D6820E00B980678F0E729681F
:10A400000F682FB1DDE9083229462046B84711E030
:10A4100011948968DDE90872097891420CD12946C6
:10A4200017A8FBF7D0FD85F80CB017AA394611988C
:10A43000FBF7A5F80028BED0AD6815B1A16841456D
:10A44000DDD0A168414523D19DF81810204600F0C9
:10A450002FFA1BE00C9840280AD200F01F010BFADB
:10A4600001F00C994A0959F82230034349F8223087
:10A47000E5682DB10AAB9DF8182020460599A8473C
:10A480000AAA9DF818102046FBF779F8002892D008
:10A49000A06800287FF479AFDDE90B0445780AA8AD
:10A4A00000F000F90028F7D115F0300F03D10B9818
:10A4B000007800B1641CC4B10020494605E000BF2B
:10A4C00051F82020521C0ED1401CB0EB541FF7D382
:10A4D000600959F8201004F01F00C0F120022AFA88
:10A4E00002F0814201D0002065E7012063E71CB53E
:10A4F0000C46694600F036F8002814D0DDE9000269
:10A50000C10709D051084FEA30006FEA00026FEA34
:10A510000100C4E9002004E051084FEA3000C4E91A
:10A5200000014FF001001CBDF8B50746002018706F
:10A5300008700E4610601C4615466946384600F005
:10A5400036F8012140B1009850B1C10800F0070071
:10A55000296030700120F8BDB86808B10020F8BD4E
:10A560002170FBE72DE9F8430026884681463446F2
:10A57000354604E0402E02D30020BDE8F88369464A
:10A58000484600F085F90028F7D09DF80070324663
:10A5900007F07F00C10FF8F759FF29430443F61D68
:10A5A0000D463806E6D4C8E900410120E5E7F8B5D4
:10A5B0000E460746694600F06BF900280AD09DF860
:10A5C0000040200616D5072504F07F0403E0202D67
:10A5D00001D30020F8BD6946384600F059F900283B
:10A5E000F8D09DF8001001F07F00A8400443ED1D55
:10A5F0000806ECD401203460F8BD000059680A4A0E
:10A60000896891420ED1D0E901120848491C521EB6
:10A61000C0E9001206480321008801EB004005A1B3
:10A62000FFF79AB97047000024B70700102C0020EC
:10A63000D82C002050423A20496E69742070616322
:10A640006B65742064617461206C656E3A202564CA
:10A6500000000000C26000230160C0E901138B7894
:10A660001A44026191F903301A44426108780028C3
:10A6700000D00120704770B545680E4604466068FA
:10A680000178B14206D1407800F00F00082801D0CF
:10A69000012070BD204600F005F86068A842EED1A8
:10A6A000002070BD30B541680A785AB101F10C0341
:10A6B00043600A7B42B14C780A79C4F30115032D3B
:10A6C00007D00BE0002030BDC2680168FFF7C2FF71
:10A6D000F8E75D78C5F30115032D07D00225B5EB2A
:10A6E000141F09D14C7914FB02F209E08D7804693A
:10A6F0000022641B046103E0B5EB941F00D1042227
:10A70000497811F0300F02D18168491C81609C7832
:10A71000016921441144016193F90320114441610D
:10A72000012030BD30B54168002487B0497801F080
:10A730000F02082A11D08A091ED00222B2EB911F03
:10A7400009D10269C1F301110229146001D0032962
:10A7500001D14069047007B030BD0069056808E0A8
:10A760002C7329466846FBF72EFC6846FFF7DAFF94
:10A77000AD68002DF4D1EEE7C1F30111012912D02B
:10A780000229E6D00329E4D04268517801F00F0194
:10A7900007290BD0916881B11279006907B0BDE833
:10A7A0003040F8F767BE41690C70EDE701699068C9
:10A7B00007B0BDE8304000F02CB81179006907B04F
:10A7C000BDE83040F8F76FBE10B5034B002408C059
:10A7D00080E8160010BD00009153070038B50D4603
:10A7E00004466946FFF7E3FE00280BD0D4E90002D7
:10A7F000D4E90213C5E90002C5E9021300988142B9
:10A8000001D2002038BDA860A168081AA06001200C
:10A8100038BD00B50A4687B001466846FFF71AFF03
:10A82000002807D06846FFF77DFF6846FFF73AFF2C
:10A830000028F7D107B000BD7FB514460546A9B979
:10A84000124A2868904208D110E010226946284632
:10A85000FFF7F2FF002807D0103C102CF5D8224655
:10A8600069462846FFF7E8FF04B070BDA868A0421B
:10A8700001D20020F8E72B68224628469847002896
:10A88000F2D0A868001BA8600120EDE791530700F3
:10A8900010B504468068002809D0236801222046AC
:10A8A0009847002803D0A068401EA060012010BD7A
:10A8B00038B5002439B1012912D0022912D0052956
:10A8C0001DD0002038BD0546012269462846FFF705
:10A8D000B3FF90B19DF800000006F5D4012038BD0B
:10A8E00008220DE005466946FFF761FE28B1002108
:10A8F0002846009AFFF7A0FF38BD204638BD042245
:10A90000BDE838400021FFF797BF000010B50C46A6
:10A91000C17949B11AB109A12046FEF767FC20466A
:10A92000BDE81040FEF76FBC007A0028F3D0044861
:10A9300004A102682046FEF759FCECE70D0A00006E
:10A94000982C00202573000070B50446C0790D4690
:10A9500000281CD1207A50B1A179A088FEF7DAFE38
:10A960000B4951F820200BA12846FEF73FFCA08898
:10A970000021FFF7A5F803460549A079143951F8DD
:10A9800020202846BDE8704003A1FEF72FBC70BD13
:10A99000982C0020257300003C25733E2025733A37
:10A9A0002000000010B510461A46F8F763FD00209D
:10A9B00010BD2DE9F0411E681C461546074621B121
:10A9C000012918D0052923D119E000202060401C5E
:10A9D0002060B0421CD8012229463846FFF72CFFE0
:10A9E000002806D015F8010B000601D52068EEE717
:10A9F0000120BDE8F08108200246186002E0042032
:10AA00000246186029463846BDE8F041FFF714BFFA
:10AA10000020EEE770B5174C042517A1208805EB40
:10AA20000040FEF795FF1C480079D8B1FEF7E2F828
:10AA300020881AA105EB0040FEF78AFFFEF790FE82
:10AA40000028FBD11748FBF7C1FEBFF34F8F164814
:10AA50000168164A01F4E06111430160BFF34F8FB2
:10AA600000BFFDE7208812A105EB0040BDE8704063
:10AA7000FEF76EBFD82C0020417474656D70746948
:10AA80006E6720746F20726573657420746865202A
:10AA90006465766963652E00002C0020526573653D
:10AAA000742E0000A08601000CED00E00400FA0501
:10AAB00057616974696E6720756E74696C2074687B
:10AAC0006520726573706F6E73652069732073659E
:10AAD0006E742E0010B5FCF709F800281CD00F4842
:10AAE0000421008801EB00400DA1FEF731FF134A5D
:10AAF00000211348FAF7D6FA08B1FAF731FA1048EC
:10AB000000224FF4A0210068FAF708FB002803D0C8
:10AB1000BDE81040FAF724BA10BD0000382D00201F
:10AB20005374617274696E67207265736574206412
:10AB3000656C61792074696D65720000718407002D
:10AB4000D0B80700F0B585B007460020009001900E
:10AB500002900390049032480C464B780A780188A2
:10AB6000042000EB01402FA1FEF7FDFE60208DF8D0
:10AB7000000020788DF8010060788DF80200607880
:10AB800003266D46012802D00B2832D039E0207808
:10AB9000032806D006280FD007281DD0092830D159
:10ABA00022E0E91C606800F001FDC61CA919A0683C
:10ABB00000F0FCFC064424E0E91C606800F0F6FCB0
:10ABC000C61CA919A06800F0F1FC0644A919E068A8
:10ABD00000F0ECFC064414E0A0888DF80300000AA5
:10ABE0008DF8040005260CE020798DF8030004267A
:10ABF00007E0FBF739F98DF8030004260020FBF786
:10AC00003BF904AB324669460F4800F0C4FA049899
:10AC10000D49C2B23846FEF735FA05B0F0BD000066
:10AC2000382D002053656E64696E6720526573701D
:10AC30006F6E73653A205B3078253031782C203088
:10AC400078253031785D0000703C00200846704760
:10AC500070B5012670044FF0E0210025C1F8800195
:10AC6000084C4010C4F84803C4F8080366602F205D
:10AC7000FBF738FEA660044C2F20A560FBF732FEE0
:10AC8000A57070BD00100140502C00201FB501239D
:10AC90008DF800308DF808100192D0E90012684656
:10ACA00090471FBD38B50021012558B101280ED0AD
:10ACB00003280BD107210020FEF7E2F8BDE8384059
:10ACC000FEF77AB84FF0E020C0F8805138BD8DF81B
:10ACD00000106846FAF776FA064C207808B9FEF7B5
:10ACE00047F8E068401CE060A5709DF80000FAF7A6
:10ACF0008DFA38BDB035002010B50248FEF722FAB3
:10AD0000002010BD903C002070B588B01120FEF7E7
:10AD100015FC1220FEF712FC4FF0A040012569043B
:10AD2000C0F80C154900C0F8081525488121A0F18C
:10AD300019042022E0600020C4E9040120722149A6
:10AD40006846F8F797FB062000900820019007203E
:10AD50001C4902900520083903908DF81450049482
:10AD6000D1E90001A4F12002C2E90801164A6946AE
:10AD70002046FEF7A9F8154C060004D0208814A13F
:10AD800005EB004017E00E481938FEF71DF90C4995
:10AD90000122491EA1F11800FEF7DEF8060005D0D9
:10ADA000208812A105EB0040FEF7D2FD2088042187
:10ADB00001EB004013A1FEF7CBFD08B0304670BD9B
:10ADC000A93C002044BA070061B40700382D0020D8
:10ADD0004661696C656420696E697469616C697A41
:10ADE000696E672075617274000000004661696CCD
:10ADF000656420696E697469616C697A696E67203F
:10AE0000727800005541525420696E697469616C12
:10AE1000697A6564000000002DE9F04114000F46D6
:10AE20000DD000250A26791922460020F9F722FEC6
:10AE30000544241A08B9761E01D0002CF3D1BDE8D0
:10AE4000F08170B516460D46040007D035B1206C70
:10AE5000802200213828225403D307E00E2070BD41
:10AE60002154401C3828FBD30BE02154401C4028BF
:10AE7000FBD32146084600F097F838212046F8F722
:10AE800012FB216CD4E912304A0FC900383459182A
:10AE90005041C4E90410227CE2710A0A42EA0062CD
:10AEA000A2710A0C42EA00426271020242EA116097
:10AEB00020716069E070010AA170010C6170000EE0
:10AEC00004F838092146084600F06EF84FF00002F9
:10AED000EEB1E06ED100C840A854A36ECB40A818D4
:10AEE0000371636ECB400372236ECB400373E36D3B
:10AEF000CB400374A36DCB400375636DCB400376E9
:10AF0000236DCB40521C0377042AE2D31FE01823A1
:10AF10005042216D03EBC000C140A954666DC6408C
:10AF2000A9180E71A66DC6400E72E66DC6400E736E
:10AF3000266EC6400E74666EC6400E75A66EC6407E
:10AF40000E76E66EC640521C0E77042AE0D300202F
:10AF500070BD0000A8B100210164C0E912110A49C6
:10AF600001650A4941650A4981650A49C1650A497D
:10AF700001660A4941660A4981660A49C16600209C
:10AF800070470E207047000067E6096A85AE67BB10
:10AF900072F36E3C3AF54FA57F520E518C68059BBB
:10AFA000ABD9831F19CDE05B2DE9F04FC8B000226B
:10AFB00013466F46CC181B1D2568E4782DBA25F082
:10AFC000FF05254347F82250521C102AF2D31BE0FC
:10AFD00007EB820151F8083C4FEA734484EAF344DA
:10AFE00084EA932451F83C3C4FEAF31585EAB345D3
:10AFF00085EAD303234451F81C4C51F8401C2144EA
:10B00000194447F82210521C402AE1D3036D47939C
:10B01000416D4691846D4594C26D44929246026E94
:10B020004392456E4295A946856E4195C66E4096FF
:10B03000B34600264FEAB21787EAF22787EA726C16
:10B0400002EA090725EA020887EA0807BC44204FFC
:10B0500057F8268008EB0B07BC445DF82670AB461A
:10B060000CEB070E4FEAB30787EA733787EAB35C46
:10B0700081EA04074D4601EA040891461F400AEBA5
:10B080000E02A24687EA08070C46BC441946761C05
:10B090000EEB0C03402ECDD3479E33440365469BF5
:10B0A0001944416545992144816544995144C165DC
:10B0B00043991144016642994944416641992944A2
:10B0C000816640995944C16648B0BDE8F08F0000E0
:10B0D0001CB907002DE9F04116460F46040004D0C4
:10B0E00006B317B10025A8461AE00E20BDE8F0818E
:10B0F000216C785D6054206C401C206440280ED187
:10B1000021460846FFF750FFD4E912014FF40072C0
:10B11000801841F10001C4F84080C4E912016D1C9F
:10B12000B542E5D30020E1E730B528B1D0E90223EC
:10B130009A4203D1042030BD0E2030BD04782CB1DA
:10B140000023012C10D0022C23D11EE0C02906D0F0
:10B15000DB2906D04468531C8360A15419E0002009
:10B1600030BD0121017014E0DC2905D0DD2905D0B6
:10B17000022101700B2030BDC02400E0DB244568B3
:10B18000511C8160AC54037003E0C02901D10370ED
:10B190008360112030BDF0B528B121B11BB100246E
:10B1A000DB261C6019E00E20F0BD0F5DC02F02D021
:10B1B000DB2F0BD105E01D686F1C1F604655DC2797
:10B1C00004E01D686F1C1F604655DD271D68641C68
:10B1D00005F1010CC3F800C047559442E5D3196846
:10B1E000C0244A1C1A6044540020F0BD002801D13C
:10B1F000FAF7FEB8704700002DE9F843214C884665
:10B20000054691461F4669461846A668FAF78EF825
:10B2100070B30098811C00220AE000BF01EA060C0E
:10B2200059F8223004EB8C0C491C521CCCF80C3021
:10B23000BA42F3D30246401C304004EB80002B0C92
:10B24000C36002EA060004EB8002E80652F80C0F25
:10B2500002D540F0040001E020F0040065F3C500D1
:10B2600067F3891068F39F2020F00300401C1060F2
:10B2700094F81C0402E000BFFEF772FA0028FBD12C
:10B28000BDE8F883503800202DE9F84F1D4C00250B
:10B290006846D4E901A6FAF787FD002738B30023F2
:10B2A000009A61681CE0D1F800C00846944503D9B3
:10B2B000ACEB02020A6015E0A2EB0C0263440760EB
:10B2C000D0F80CC0C1698146BCF1000F08D006EB74
:10B2D000030828F07F48C0E9018CC9F81C500546D6
:10B2E0000029E0D128466160FAF798FE03E028467D
:10B2F000FAF794FE10B15046FAF78EF8E770BDE801
:10B30000F88F0000502C00200D4B10B5596831B15A
:10B3100002680C68A24204D8A21A0A60C16158608F
:10B3200010BD0B4603E00B46C969121B21B10C6826
:10B330009442F8D3A41A0C600260C161D86110BDB8
:10B34000502C00202DE9F041144E77683D462C46E4
:10B3500003E0844204D02546E469002CF9D11BE0C7
:10B36000D4B1A5420BD1F869706040B90C490120F5
:10B3700088600021B160F0702F20FBF7B3FA2168DC
:10B38000E069E86110B102681144016070688742A9
:10B3900002D00120BDE8F0810020FBE7502C002006
:10B3A000001001407CB5064600240D468DF8004093
:10B3B0006846F9F707FF01A800F064F970B105705D
:10B3C000094946609DF8040048709DF80000F9F7AF
:10B3D0001DFF1420F9F7E0FA20467CBD04249DF8F7
:10B3E0000000F9F713FFF7E7383600202DE9F041A8
:10B3F000194D6C68002C2CD0184800270068A968EB
:10B40000B846401A20F07F462068B0420CD821464A
:10B41000361A0744E469087C20B181F810808869F5
:10B4200049698847002CEFD129786878814206D194
:10B43000401CC0B26870022801D185F8018006481E
:10B4400069780C3040F82170BDE8F0411420F9F71C
:10B45000A3BABDE8F0810000502C00200415014083
:10B4600010B5027842B1012A0AD0022A1ED1C06862
:10B47000BDE81040F9F774BDBDE81040FCF7DCBF33
:10B4800040680C46017804F10800FFF74DFE28B92A
:10B490002046FEF7E1FC0020206120720449BDE84F
:10B4A00010400122A1F11800FDF756BD10BD0000AB
:10B4B000A83C00202DE9FF410C464FF49277064648
:10B4C0003946FEF76CFC0025C0B139463046FEF720
:10B4D0006BFC02208DF80000D6F88004C6F88004CA
:10B4E0000390D6F83C058DF80800E0680190E575FA
:10B4F0002576D4E900126846904724E04FF4887717
:10B5000039463046FEF74BFCE8B139463046FEF787
:10B510004BFCD6F83C05C1B2E07D884213D1207EB9
:10B5200060B1E268D6F8000220F02000C6F8000200
:10B53000207EE0752069E060257601E0E575E2682F
:10B540002046FFF7A3FB4FF4A27739463046FEF7BB
:10B5500026FC68B139463046FEF726FCE07D38B15E
:10B56000E575D6F83C05E268C1B22046FFF78EFBD0
:10B570004FF4907739463046FEF711FC002813D07F
:10B5800039463046FEF710FCA07D00280CD0D6F8D6
:10B590004C058DF800508DF80800A0680190A57545
:10B5A000D4E9001268469047BDE8FF810870020A9E
:10B5B0004A70020C8A70000EC870042070470000A8
:10B5C00010B50248FAF782FE002010BD642C00205E
:10B5D0002DE9F05F8346DDE90A4A994690460D461B
:10B5E0000846012703E000BFB0FBF8F07F1C404590
:10B5F000FAD2B94500D94F465FEACA7012D18CB170
:10B600005FEA8A7002D5B9F1000F01D0202607E069
:10B61000302605E031465846641EF9F7C7FE0CB1E6
:10B62000A742F7D35FF00106B9F1010F02D9A9F1E2
:10B63000010903E0B5FBF6F0404502D306FB08F62E
:10B64000F2E7DFF83C9000BFB5FBF6F000FB1655C3
:10B6500019F800105846F9F7A9FEB6FBF8F6002EC7
:10B66000F2D15FEACA7009D0002C07D0A74205D2F8
:10B6700020215846641EF9F799FEF5E7BDE8F09FD2
:10B68000E0B807000A494A788B78521CD2B293423C
:10B6900000D100220B78934201D100207047027044
:10B6A000487800EB400001EBC000001D704700002F
:10B6B00038360020002070472DE9F84380461C46AC
:10B6C00017460E460C48089DFAF70EFE10B11120E1
:10B6D000BDE8F883A20839463046FEF7E1FA06488D
:10B6E000FAF7F4FD23463246012140460095FAF769
:10B6F0009FFB0020ECE70000642C0020000000000D
:10B70000010100000100000000000000020500002F
:10B710002100000000000000000000000000000008
:10B7200000000000011104FC040000000000000003
:10B73000021104FC0400000000000000032104FCCE
:10B740000410000000000000041101FF01000000CF
:10B7500000000000051102FE0400000000000000CF
:10B76000061104FC0400000000000000071104FCA6
:10B770000400000000000000081701FF2200000084
:10B7800000B70700091001FF01000000FCB6070028
:10B7900000000000000000000000000001010000A7
:10B7A0000400000000000000000000000000000095
:10B7B00000000000011101FF010000000000000076
:10B7C000021702FE9400000024B70700031704FCD0
:10B7D000040000009CB7070000000000000000000B
:10B7E0000000000001070000A0000000B4B707003F
:10B7F000020100000100000000000000030500003D
:10B8000041000000000000000000000000000000F7
:10B8100000000000011704FCA0000000B4B70700FE
:10B82000021704FCE4000000E4B707000000000079
:10B830000000000000000000F61473DFE60DDD0CD0
:10B84000428E1739121EA755F51CD57A9D6EB31975
:10B85000F66C745D37C7DD5ACEFA44FD2BDAA6A428
:10B86000D7CE0157C4073021042B41CBF8326C2AC4
:10B87000C5FA01051F2BE57905000405000000004D
:10B88000F8300020111213140D0E0F109831002003
:10B8900001000000000000000000000000000000A7
:10B8A0000200000000000000000000000000000096
:10B8B0000300000000000000000000000000000085
:10B8C0000400000000000000000000000000000074
:10B8D00090350020000000007000000000000050C3
:10B8E00030313233343536373839414243444546B6
:10B8F000001000000400000001000000E15E0700ED
:10B90000C1B50700A5A90700B9B60700E95D0700A2
:10B910004DAC0700B5B60700955F0700982F8A4227
:10B9200091443771CFFBC0B5A5DBB5E95BC2563991
:10B93000F111F159A4823F92D55E1CAB98AA07D8A9
:10B94000015B8312BE853124C37D0C55745DBE72CC
:10B95000FEB1DE80A706DC9B74F19BC1C1699BE44C
:10B960008647BEEFC69DC10FCCA10C246F2CE92DDC
:10B97000AA84744ADCA9B05CDA88F97652513E9800
:10B980006DC631A8C82703B0C77F59BFF30BE0C607
:10B990004791A7D55163CA0667292914850AB72795
:10B9A00038211B2EFC6D2C4D130D385354730A6532
:10B9B000BB0A6A762EC9C281852C7292A1E8BFA209
:10B9C0004B661AA8708B4BC2A3516CC719E892D171
:10B9D000240699D685350EF470A06A1016C1A419F4
:10B9E000086C371E4C774827B5BCB034B30C1C39F3
:10B9F0004AAAD84E4FCA9C5BF36F2E68EE828F74B2
:10BA00006F63A5781478C8840802C78CFAFFBE90CB
:10BA1000EB6C50A4F7A3F9BEF27871C62996070023
:10BA200027960700219607007C2C0020742C00200C
:10BA30007C2C0020903700201800000000200040DF
:10BA400000000000FFFFFFFFFFFFFFFFFFFFFFFF02
:10BA5000FFFFFFFF00000000000000000000D60113
:10BA600007010000000000000000000000000000CE
:10BA7000000000000100000764BA070074BA070064
:10BA8000080000009CBA0700ACBA070008000000DC
:10BA9000ACBA0700BCBA07000800000034BF0700BA
:10BAA0003CBF070000000000000000002CBF0700A2
:10BAB00034BF0700000000000000000024BF0700A2
:10BAC0002CBF07000000000000000000BCBA070007
:10BAD000CCBA07000800000075A207001DA20700ED
:10BAE000C5A107003BA1070041A10700FDA0070079
:10BAF00047A1070085A1070000000000004040406A
:10BB00004040404040404141414141404040404030
:10BB100040404040404040404040404040050202DC
:10BB2000020202020202020202020202022020209B
:10BB300020202020202020020202020202029090F7
:10BB400090909090101010101010101010101010F5
:10BB50001010101010101010020202020202888849
:10BB60008888888808080808080808080808080855
:10BB7000080808080808080802020202400000003D
:10BB8000FDBA07005344206D616A6F7220766572BA
:10BB900073696F6E206E756D62657273206D697367
:10BBA0006D617463682E2043757272656E742061D6
:10BBB00070702077696C6C20626520696E76616CAC
:10BBC0006964617465642E43757272656E743A209F
:10BBD00025642E204E65773A2025642E0000000053
:10BBE0005344206D616A6F722076657273696F6E5F
:10BBF000206E756D62657273206D69736D6174631B
:10BC0000682E2055706461746520696E76616C6978
:10BC1000642E43757272656E743A2025642E204E30
:10BC200065773A2025642E00547279696E67207416
:10BC30006F2063726561746520616E206F626A6552
:10BC40006374206F662073697A652025642C2077E1
:10BC500068656E206F66667365742069732030783E
:10BC60002530387820616E64206669726D77617264
:10BC7000652073697A6520697320307825303878BB
:10BC80000000000043524320636F6D70757461744F
:10BC9000696F6E206661696C656420666F722063EF
:10BCA0006F70696564206170703A207372632063FD
:10BCB00072633A203078253038782C2072657320F2
:10BCC0006372633A203078253038780046696E69AF
:10BCD0007368656420636F7079696E67205B307884
:10BCE000253038782D3078253038785D20746F20F5
:10BCF0005B3078253038782D3078253038785D3ACB
:10BD0000204C656E3A2030782530387800000000ED
:10BD10007761726E696E6700646562756700000026
:10BD20001B5B313B33306D001B5B306D000000004E
:10BD30001B5B313B33316D001B5B313B33326D009C
:10BD40001B5B313B33336D001B5B313B33346D0088
:10BD50001B5B313B33356D001B5B313B33366D0074
:10BD60001B5B313B33376D00696E666F000000006E
:10BD70006572726F720000006466755F7265715F54
:10BD800068616E646C696E67000000006E72665FC9
:10BD90006466755F666C6173680000006E72665F52
:10BDA0006466755F73657474696E67730000000084
:10BDB000636C6F636B0000006770696F74650000EF
:10BDC00075617274000000006D656D5F6D6E677265
:10BDD0000000000062616C6C6F63000061707000B5
:10BDE0006E72665F736468006E72665F7364685F2C
:10BDF000736F630008200001FFFFFFFFFFFFFFFFDD
:10BE0000FFFFFFFF00000000000000000000000036
:10BE100001000000FFFFFFFF512563FCC2CAB9F318
:10BE2000849E17A7ADFAE6BCFFFFFFFFFFFFFFFFF1
:10BE300000000000FFFFFFFF96C298D84539A1F42B
:10BE4000A033EB2D817D0377F240A463E5E6BCF8D7
:10BE500047422CE1F2D1176BF551BF376840B6CBA2
:10BE6000CE5E316B5733CE2B169E0F7C4AEBE78E9E
:10BE70009B7F1AFEE242E34F4B60D2273E3CCE3B13
:10BE8000F6B053CCB0061D65BC86987655BDEBB3B5
:10BE9000E7933AAAD835C65A0F3707009F470700DD
:10BEA000B54507003CBF0700002C00205C010000E6
:10BEB0001C35070094BF07005C2D00205C4000008B
:10BEC0002E4F070009AD0700F9AC070078BD070049
:10BED000000004008CBD0700000004009CBD0700AA
:10BEE00000000400B0BD070000000000B8BD07005E
:10BEF00000000000C0BD070000000000C8BD070032
:10BF000000000000D4BD070000000000DCBD0700F9
:10BF100000000400E0BD070000000300E8BD0700CA
:10BF200000000300EDB1070000000000159D0700B0
:10BF300000000000A5AC070000000000110216017F
:10BF40001438B80732401318312A20081A5808321A
:10BF5000205A78080130041D1CBA071470BD071A56
:10BF600010041A68041A18041A28041A20041A3033
:10BF7000041A38041A40041A48041A50041A5804BF
:10BF80001A6004518490D0031B0D5714421002858F
:04BF900008000000A5
:020000041000EA
:0410140000300700A1
:020000041000EA
:0410180000E00700ED
:0400000500073201BD
:00000001FF
