Component: ARM Compiler 5.06 update 6 (build 750) Tool: armlink [4d35ed]

==============================================================================

Section Cross References

    dfu-cc.pb.o(.constdata) refers to dfu-cc.pb.o(.constdata) for dfu_hash_fields
    dfu-cc.pb.o(.constdata) refers to dfu-cc.pb.o(.constdata) for dfu_init_command_is_debug_default
    dfu-cc.pb.o(.constdata) refers to dfu-cc.pb.o(.constdata) for dfu_init_command_fields
    dfu-cc.pb.o(.constdata) refers to dfu-cc.pb.o(.constdata) for dfu_reset_command_fields
    dfu-cc.pb.o(.constdata) refers to dfu-cc.pb.o(.constdata) for dfu_command_fields
    dfu-cc.pb.o(.constdata) refers to dfu-cc.pb.o(.constdata) for dfu_command_fields
    dfu-cc.pb.o(.constdata) refers to dfu-cc.pb.o(.constdata) for dfu_signed_command_fields
    dfu_req_handling.o(i.dfu_decode_commmand) refers to pb_decode.o(i.pb_istream_from_buffer) for pb_istream_from_buffer
    dfu_req_handling.o(i.dfu_decode_commmand) refers to pb_decode.o(i.pb_decode) for pb_decode
    dfu_req_handling.o(i.dfu_decode_commmand) refers to nrf_log_frontend.o(i.nrf_log_frontend_std_0) for nrf_log_frontend_std_0
    dfu_req_handling.o(i.dfu_decode_commmand) refers to nrf_dfu_settings.o(.bss) for s_dfu_settings
    dfu_req_handling.o(i.dfu_decode_commmand) refers to dfu_req_handling.o(.bss) for .bss
    dfu_req_handling.o(i.dfu_decode_commmand) refers to dfu_req_handling.o(i.pb_decoding_callback) for pb_decoding_callback
    dfu_req_handling.o(i.dfu_decode_commmand) refers to dfu_req_handling.o(.data) for .data
    dfu_req_handling.o(i.dfu_decode_commmand) refers to dfu-cc.pb.o(.constdata) for dfu_packet_fields
    dfu_req_handling.o(i.dfu_decode_commmand) refers to dfu_req_handling.o(log_dynamic_data) for log_dynamic_data
    dfu_req_handling.o(i.dfu_handle_prevalidate) refers to nrf_log_frontend.o(i.nrf_log_frontend_std_0) for nrf_log_frontend_std_0
    dfu_req_handling.o(i.dfu_handle_prevalidate) refers to nrf_log_frontend.o(i.nrf_log_frontend_std_2) for nrf_log_frontend_std_2
==============================================================================

Removing Unused input sections from the image.

    Removing dfu_req_handling.o(.rev16_text), (4 bytes).
    Removing dfu_req_handling.o(.revsh_text), (4 bytes).
    Removing dfu_req_handling.o(.rrx_text), (6 bytes).
    Removing main.o(.rev16_text), (4 bytes).
    Removing main.o(.revsh_text), (4 bytes).
    Removing main.o(.rrx_text), (6 bytes).
    Removing main.o(i.nrf_dfu_button_enter_check), (24 bytes).
    Removing boards.o(.rev16_text), (4 bytes).
    Removing boards.o(.revsh_text), (4 bytes).
    Removing boards.o(.rrx_text), (6 bytes).
    Removing boards.o(i.bsp_board_button_idx_to_pin), (12 bytes).
    Removing boards.o(i.bsp_board_button_state_get), (32 bytes).
    Removing boards.o(i.bsp_board_buttons_init), (36 bytes).
    Removing boards.o(i.bsp_board_led_idx_to_pin), (12 bytes).
    Removing boards.o(i.bsp_board_led_invert), (36 bytes).
    Removing boards.o(i.bsp_board_led_off), (16 bytes).
    Removing boards.o(i.bsp_board_led_on), (16 bytes).
    Removing boards.o(i.bsp_board_led_state_get), (32 bytes).
==============================================================================

Image Symbol Table

    Local Symbols

    Symbol Name                              Value     Ov Type        Size  Object(Section)

    ../clib/../cmprslib/zerorunl2.c          0x00000000   Number         0  __dczerorl2.o ABSOLUTE
    ../clib/microlib/ctype/ctype.c           0x00000000   Number         0  ctype_o.o ABSOLUTE
    ../clib/microlib/ctype/ctype.c           0x00000000   Number         0  isalnum_o.o ABSOLUTE
    ../clib/microlib/ctype/ctype.c           0x00000000   Number         0  isxdigit_o.o ABSOLUTE
    ../clib/microlib/ctype/ctype.c           0x00000000   Number         0  isprint_o.o ABSOLUTE
    ../clib/microlib/ctype/ctype.c           0x00000000   Number         0  isgraph_o.o ABSOLUTE
    ../clib/microlib/ctype/ctype.c           0x00000000   Number         0  isalpha_o.o ABSOLUTE
    ../clib/microlib/ctype/ctype.c           0x00000000   Number         0  ispunct_o.o ABSOLUTE
    ../clib/microlib/ctype/ctype.c           0x00000000   Number         0  isupper_o.o ABSOLUTE
    ../clib/microlib/ctype/ctype.c           0x00000000   Number         0  isblank_o.o ABSOLUTE
    ../clib/microlib/ctype/ctype.c           0x00000000   Number         0  isspace_o.o ABSOLUTE
    ../clib/microlib/ctype/ctype.c           0x00000000   Number         0  iscntrl_o.o ABSOLUTE
    ../clib/microlib/ctype/ctype.c           0x00000000   Number         0  isdigit_o.o ABSOLUTE
    ../clib/microlib/ctype/ctype.c           0x00000000   Number         0  islower_o.o ABSOLUTE
    ../clib/microlib/init/entry.s            0x00000000   Number         0  entry5.o ABSOLUTE
    ../clib/microlib/init/entry.s            0x00000000   Number         0  entry8a.o ABSOLUTE
    ../clib/microlib/init/entry.s            0x00000000   Number         0  entry.o ABSOLUTE
    ../clib/microlib/init/entry.s            0x00000000   Number         0  entry7a.o ABSOLUTE
    ../clib/microlib/init/entry.s            0x00000000   Number         0  entry7b.o ABSOLUTE
    ../clib/microlib/init/entry.s            0x00000000   Number         0  entry2.o ABSOLUTE
    ../clib/microlib/init/entry.s            0x00000000   Number         0  entry11b.o ABSOLUTE
    ../clib/microlib/init/entry.s            0x00000000   Number         0  entry11a.o ABSOLUTE
    ../clib/microlib/init/entry.s            0x00000000   Number         0  entry10b.o ABSOLUTE
    ../clib/microlib/init/entry.s            0x00000000   Number         0  entry8b.o ABSOLUTE
    ../clib/microlib/init/entry.s            0x00000000   Number         0  entry10a.o ABSOLUTE
    ../clib/microlib/init/entry.s            0x00000000   Number         0  entry9b.o ABSOLUTE
    ../clib/microlib/init/entry.s            0x00000000   Number         0  entry9a.o ABSOLUTE
    ../clib/microlib/longlong.c              0x00000000   Number         0  llshl.o ABSOLUTE
    ../clib/microlib/stdio/fflush.c          0x00000000   Number         0  fflush.o ABSOLUTE
    ../clib/microlib/stdio/fputc.c           0x00000000   Number         0  fputc.o ABSOLUTE
    ../clib/microlib/stdio/semi.s            0x00000000   Number         0  semi.o ABSOLUTE
    ../clib/microlib/stdio/streams.c         0x00000000   Number         0  stdout.o ABSOLUTE
    ../clib/microlib/string/memcmp.c         0x00000000   Number         0  memcmp.o ABSOLUTE
    ../clib/microlib/string/memcpy.c         0x00000000   Number         0  memcpya.o ABSOLUTE
    ../clib/microlib/string/memcpy.c         0x00000000   Number         0  memcpyb.o ABSOLUTE
    ../clib/microlib/string/memset.c         0x00000000   Number         0  memseta.o ABSOLUTE
    ../clib/microlib/string/memset.c         0x00000000   Number         0  memset.o ABSOLUTE
    ../clib/microlib/string/strcmp.c         0x00000000   Number         0  strcmp.o ABSOLUTE
    ../clib/microlib/string/strcpy.c         0x00000000   Number         0  strcpy.o ABSOLUTE
    ../clib/microlib/string/strlen.c         0x00000000   Number         0  strlen.o ABSOLUTE
    ../clib/microlib/stubs.s                 0x00000000   Number         0  useno.o ABSOLUTE
    ../clib/microlib/stubs.s                 0x00000000   Number         0  iusesemip.o ABSOLUTE
    ..\..\..\..\..\components\ble\common\ble_srv_common.c 0x00000000   Number         0  ble_srv_common.o ABSOLUTE
    ..\..\..\..\..\components\boards\boards.c 0x00000000   Number         0  boards.o ABSOLUTE
    ..\..\..\..\..\components\drivers_nrf\clock\nrf_drv_clock.c 0x00000000   Number         0  nrf_drv_clock.o ABSOLUTE
    ..\..\..\..\..\components\drivers_nrf\common\nrf_drv_common.c 0x00000000   Number         0  nrf_drv_common.o ABSOLUTE
    ..\..\..\..\..\components\drivers_nrf\hal\nrf_nvmc.c 0x00000000   Number         0  nrf_nvmc.o ABSOLUTE
    ..\..\..\..\..\components\drivers_nrf\rng\nrf_drv_rng.c 0x00000000   Number         0  nrf_drv_rng.o ABSOLUTE
    ..\..\..\..\..\components\libraries\atomic_fifo\nrf_atfifo.c 0x00000000   Number         0  nrf_atfifo.o ABSOLUTE
    ..\..\..\..\..\components\libraries\balloc\nrf_balloc.c 0x00000000   Number         0  nrf_balloc.o ABSOLUTE
    ..\..\..\..\..\components\libraries\bootloader\ble_dfu\nrf_ble_dfu.c 0x00000000   Number         0  nrf_ble_dfu.o ABSOLUTE
    ..\..\..\..\..\components\libraries\bootloader\dfu\nrf_dfu.c 0x00000000   Number         0  nrf_dfu.o ABSOLUTE
    ..\..\..\..\..\components\libraries\bootloader\dfu\nrf_dfu_flash.c 0x00000000   Number         0  nrf_dfu_flash.o ABSOLUTE
    ..\..\..\..\..\components\libraries\bootloader\dfu\nrf_dfu_handling_error.c 0x00000000   Number         0  nrf_dfu_handling_error.o ABSOLUTE
    ..\..\..\..\..\components\libraries\bootloader\dfu\nrf_dfu_mbr.c 0x00000000   Number         0  nrf_dfu_mbr.o ABSOLUTE
    ..\..\..\..\..\components\libraries\bootloader\dfu\nrf_dfu_settings.c 0x00000000   Number         0  nrf_dfu_settings.o ABSOLUTE
    ..\..\..\..\..\components\libraries\bootloader\dfu\nrf_dfu_settings_svci.c 0x00000000   Number         0  nrf_dfu_settings_svci.o ABSOLUTE
    ..\..\..\..\..\components\libraries\bootloader\dfu\nrf_dfu_svci.c 0x00000000   Number         0  nrf_dfu_svci.o ABSOLUTE
    ..\..\..\..\..\components\libraries\bootloader\dfu\nrf_dfu_svci_handler.c 0x00000000   Number         0  nrf_dfu_svci_handler.o ABSOLUTE
    ..\..\..\..\..\components\libraries\bootloader\dfu\nrf_dfu_transport.c 0x00000000   Number         0  nrf_dfu_transport.o ABSOLUTE
    ..\..\..\..\..\components\libraries\bootloader\dfu\nrf_dfu_utils.c 0x00000000   Number         0  nrf_dfu_utils.o ABSOLUTE
    ..\..\..\..\..\components\libraries\bootloader\nrf_bootloader.c 0x00000000   Number         0  nrf_bootloader.o ABSOLUTE
    ..\..\..\..\..\components\libraries\bootloader\nrf_bootloader_app_start.c 0x00000000   Number         0  nrf_bootloader_app_start.o ABSOLUTE
    ..\..\..\..\..\components\libraries\bootloader\nrf_bootloader_app_start_asm.c 0x00000000   Number         0  nrf_bootloader_app_start_asm.o ABSOLUTE
    ..\..\..\..\..\components\libraries\bootloader\nrf_bootloader_info.c 0x00000000   Number         0  nrf_bootloader_info.o ABSOLUTE
    ..\..\..\..\..\components\libraries\crc32\crc32.c 0x00000000   Number         0  crc32.o ABSOLUTE
    ..\..\..\..\..\components\libraries\crypto\backend\micro_ecc\micro_ecc_lib_ecdh.c 0x00000000   Number         0  micro_ecc_lib_ecdh.o ABSOLUTE
    ..\..\..\..\..\components\libraries\crypto\backend\micro_ecc\micro_ecc_lib_ecdsa.c 0x00000000   Number         0  micro_ecc_lib_ecdsa.o ABSOLUTE
    ..\..\..\..\..\components\libraries\crypto\backend\micro_ecc\micro_ecc_lib_init.c 0x00000000   Number         0  micro_ecc_lib_init.o ABSOLUTE
    ..\..\..\..\..\components\libraries\crypto\backend\micro_ecc\micro_ecc_lib_keys.c 0x00000000   Number         0  micro_ecc_lib_keys.o ABSOLUTE
    ..\..\..\..\..\components\libraries\crypto\backend\micro_ecc\micro_ecc_lib_shared.c 0x00000000   Number         0  micro_ecc_lib_shared.o ABSOLUTE
    ..\..\..\..\..\components\libraries\crypto\backend\nrf_crypto_sw\nrf_crypto_sw_hash.c 0x00000000   Number         0  nrf_crypto_sw_hash.o ABSOLUTE
    ..\..\..\..\..\components\libraries\crypto\backend\nrf_crypto_sw\nrf_crypto_sw_rng.c 0x00000000   Number         0  nrf_crypto_sw_rng.o ABSOLUTE
    ..\..\..\..\..\components\libraries\crypto\nrf_crypto_ecdh.c 0x00000000   Number         0  nrf_crypto_ecdh.o ABSOLUTE
    ..\..\..\..\..\components\libraries\crypto\nrf_crypto_ecdsa.c 0x00000000   Number         0  nrf_crypto_ecdsa.o ABSOLUTE
    ..\..\..\..\..\components\libraries\crypto\nrf_crypto_hash.c 0x00000000   Number         0  nrf_crypto_hash.o ABSOLUTE
    ..\..\..\..\..\components\libraries\crypto\nrf_crypto_init.c 0x00000000   Number         0  nrf_crypto_init.o ABSOLUTE
    ..\..\..\..\..\components\libraries\crypto\nrf_crypto_keys.c 0x00000000   Number         0  nrf_crypto_keys.o ABSOLUTE
    ..\..\..\..\..\components\libraries\crypto\nrf_crypto_mem.c 0x00000000   Number         0  nrf_crypto_mem.o ABSOLUTE
    ..\..\..\..\..\components\libraries\crypto\nrf_crypto_rng.c 0x00000000   Number         0  nrf_crypto_rng.o ABSOLUTE
    ..\..\..\..\..\components\libraries\experimental_log\src\nrf_log_backend_rtt.c 0x00000000   Number         0  nrf_log_backend_rtt.o ABSOLUTE
    ..\..\..\..\..\components\libraries\experimental_log\src\nrf_log_backend_serial.c 0x00000000   Number         0  nrf_log_backend_serial.o ABSOLUTE
    ..\..\..\..\..\components\libraries\experimental_log\src\nrf_log_default_backends.c 0x00000000   Number         0  nrf_log_default_backends.o ABSOLUTE
    ..\..\..\..\..\components\libraries\experimental_log\src\nrf_log_frontend.c 0x00000000   Number         0  nrf_log_frontend.o ABSOLUTE
    ..\..\..\..\..\components\libraries\experimental_log\src\nrf_log_str_formatter.c 0x00000000   Number         0  nrf_log_str_formatter.o ABSOLUTE
    ..\..\..\..\..\components\libraries\experimental_memobj\nrf_memobj.c 0x00000000   Number         0  nrf_memobj.o ABSOLUTE
    ..\..\..\..\..\components\libraries\experimental_section_vars\nrf_section_iter.c 0x00000000   Number         0  nrf_section_iter.o ABSOLUTE
    ..\..\..\..\..\components\libraries\fstorage\nrf_fstorage.c 0x00000000   Number         0  nrf_fstorage.o ABSOLUTE
    ..\..\..\..\..\components\libraries\fstorage\nrf_fstorage_nvmc.c 0x00000000   Number         0  nrf_fstorage_nvmc.o ABSOLUTE
    ..\..\..\..\..\components\libraries\fstorage\nrf_fstorage_sd.c 0x00000000   Number         0  nrf_fstorage_sd.o ABSOLUTE
    ..\..\..\..\..\components\libraries\hci\hci_mem_pool.c 0x00000000   Number         0  hci_mem_pool.o ABSOLUTE
    ..\..\..\..\..\components\libraries\mem_manager\mem_manager.c 0x00000000   Number         0  mem_manager.o ABSOLUTE
    ..\..\..\..\..\components\libraries\queue\nrf_queue.c 0x00000000   Number         0  nrf_queue.o ABSOLUTE
    ..\..\..\..\..\components\libraries\scheduler\app_scheduler.c 0x00000000   Number         0  app_scheduler.o ABSOLUTE
    ..\..\..\..\..\components\libraries\sha256\sha256.c 0x00000000   Number         0  sha256.o ABSOLUTE
    ..\..\..\..\..\components\libraries\strerror\nrf_strerror.c 0x00000000   Number         0  nrf_strerror.o ABSOLUTE
    ..\..\..\..\..\components\libraries\svc\nrf_svc_handler.c 0x00000000   Number         0  nrf_svc_handler.o ABSOLUTE
    ..\..\..\..\..\components\libraries\timer\app_timer.c 0x00000000   Number         0  app_timer.o ABSOLUTE
    ..\..\..\..\..\components\libraries\util\app_error_weak.c 0x00000000   Number         0  app_error_weak.o ABSOLUTE
    ..\..\..\..\..\components\libraries\util\app_util_platform.c 0x00000000   Number         0  app_util_platform.o ABSOLUTE
    ..\..\..\..\..\components\libraries\util\nrf_assert.c 0x00000000   Number         0  nrf_assert.o ABSOLUTE
    ..\..\..\..\..\components\softdevice\common\nrf_sdh.c 0x00000000   Number         0  nrf_sdh.o ABSOLUTE
    ..\..\..\..\..\components\softdevice\common\nrf_sdh_ble.c 0x00000000   Number         0  nrf_sdh_ble.o ABSOLUTE
    ..\..\..\..\..\components\softdevice\common\nrf_sdh_soc.c 0x00000000   Number         0  nrf_sdh_soc.o ABSOLUTE
    ..\..\..\..\..\external\fprintf\nrf_fprintf.c 0x00000000   Number         0  nrf_fprintf.o ABSOLUTE
    ..\..\..\..\..\external\fprintf\nrf_fprintf_format.c 0x00000000   Number         0  nrf_fprintf_format.o ABSOLUTE
    ..\..\..\..\..\external\nano-pb\pb_common.c 0x00000000   Number         0  pb_common.o ABSOLUTE
    ..\..\..\..\..\external\nano-pb\pb_decode.c 0x00000000   Number         0  pb_decode.o ABSOLUTE
    ..\..\..\..\..\external\segger_rtt\SEGGER_RTT.c 0x00000000   Number         0  segger_rtt.o ABSOLUTE
    ..\..\..\..\..\external\segger_rtt\SEGGER_RTT_Syscalls_KEIL.c 0x00000000   Number         0  segger_rtt_syscalls_keil.o ABSOLUTE
    ..\..\..\..\..\external\segger_rtt\SEGGER_RTT_printf.c 0x00000000   Number         0  segger_rtt_printf.o ABSOLUTE
    ..\..\..\dfu_req_handling\dfu-cc.pb.c    0x00000000   Number         0  dfu-cc.pb.o ABSOLUTE
    ..\..\..\dfu_req_handling\dfu_public_key.c 0x00000000   Number         0  dfu_public_key.o ABSOLUTE
    ..\..\..\dfu_req_handling\dfu_req_handling.c 0x00000000   Number         0  dfu_req_handling.o ABSOLUTE
    ..\..\main.c                             0x00000000   Number         0  main.o ABSOLUTE
    ..\\..\\..\\..\\..\\components\\ble\\common\\ble_srv_common.c 0x00000000   Number         0  ble_srv_common.o ABSOLUTE
    ..\\..\\..\\..\\..\\components\\boards\\boards.c 0x00000000   Number         0  boards.o ABSOLUTE
    ..\\..\\..\\..\\..\\components\\drivers_nrf\\clock\\nrf_drv_clock.c 0x00000000   Number         0  nrf_drv_clock.o ABSOLUTE
    ..\\..\\..\\..\\..\\components\\drivers_nrf\\common\\nrf_drv_common.c 0x00000000   Number         0  nrf_drv_common.o ABSOLUTE
    ..\\..\\..\\..\\..\\components\\drivers_nrf\\hal\\nrf_nvmc.c 0x00000000   Number         0  nrf_nvmc.o ABSOLUTE
    ..\\..\\..\\..\\..\\components\\drivers_nrf\\rng\\nrf_drv_rng.c 0x00000000   Number         0  nrf_drv_rng.o ABSOLUTE
    ..\\..\\..\\..\\..\\components\\libraries\\atomic_fifo\\nrf_atfifo.c 0x00000000   Number         0  nrf_atfifo.o ABSOLUTE
    ..\\..\\..\\..\\..\\components\\libraries\\balloc\\nrf_balloc.c 0x00000000   Number         0  nrf_balloc.o ABSOLUTE
    ..\\..\\..\\..\\..\\components\\libraries\\bootloader\\ble_dfu\\nrf_ble_dfu.c 0x00000000   Number         0  nrf_ble_dfu.o ABSOLUTE
    ..\\..\\..\\..\\..\\components\\libraries\\bootloader\\dfu\\nrf_dfu.c 0x00000000   Number         0  nrf_dfu.o ABSOLUTE
    ..\\..\\..\\..\\..\\components\\libraries\\bootloader\\dfu\\nrf_dfu_flash.c 0x00000000   Number         0  nrf_dfu_flash.o ABSOLUTE
    ..\\..\\..\\..\\..\\components\\libraries\\bootloader\\dfu\\nrf_dfu_handling_error.c 0x00000000   Number         0  nrf_dfu_handling_error.o ABSOLUTE
    ..\\..\\..\\..\\..\\components\\libraries\\bootloader\\dfu\\nrf_dfu_mbr.c 0x00000000   Number         0  nrf_dfu_mbr.o ABSOLUTE
    ..\\..\\..\\..\\..\\components\\libraries\\bootloader\\dfu\\nrf_dfu_settings.c 0x00000000   Number         0  nrf_dfu_settings.o ABSOLUTE
    ..\\..\\..\\..\\..\\components\\libraries\\bootloader\\dfu\\nrf_dfu_settings_svci.c 0x00000000   Number         0  nrf_dfu_settings_svci.o ABSOLUTE
    ..\\..\\..\\..\\..\\components\\libraries\\bootloader\\dfu\\nrf_dfu_svci.c 0x00000000   Number         0  nrf_dfu_svci.o ABSOLUTE
    ..\\..\\..\\..\\..\\components\\libraries\\bootloader\\dfu\\nrf_dfu_svci_handler.c 0x00000000   Number         0  nrf_dfu_svci_handler.o ABSOLUTE
    ..\\..\\..\\..\\..\\components\\libraries\\bootloader\\dfu\\nrf_dfu_transport.c 0x00000000   Number         0  nrf_dfu_transport.o ABSOLUTE
    ..\\..\\..\\..\\..\\components\\libraries\\bootloader\\dfu\\nrf_dfu_utils.c 0x00000000   Number         0  nrf_dfu_utils.o ABSOLUTE
    ..\\..\\..\\..\\..\\components\\libraries\\bootloader\\nrf_bootloader.c 0x00000000   Number         0  nrf_bootloader.o ABSOLUTE
    ..\\..\\..\\..\\..\\components\\libraries\\bootloader\\nrf_bootloader_app_start.c 0x00000000   Number         0  nrf_bootloader_app_start.o ABSOLUTE
    ..\\..\\..\\..\\..\\components\\libraries\\bootloader\\nrf_bootloader_app_start_asm.c 0x00000000   Number         0  nrf_bootloader_app_start_asm.o ABSOLUTE
    ..\\..\\..\\..\\..\\components\\libraries\\bootloader\\nrf_bootloader_info.c 0x00000000   Number         0  nrf_bootloader_info.o ABSOLUTE
    ..\\..\\..\\..\\..\\components\\libraries\\crc32\\crc32.c 0x00000000   Number         0  crc32.o ABSOLUTE
    ..\\..\\..\\..\\..\\components\\libraries\\crypto\\backend\\micro_ecc\\micro_ecc_lib_ecdh.c 0x00000000   Number         0  micro_ecc_lib_ecdh.o ABSOLUTE
    ..\\..\\..\\..\\..\\components\\libraries\\crypto\\backend\\micro_ecc\\micro_ecc_lib_ecdsa.c 0x00000000   Number         0  micro_ecc_lib_ecdsa.o ABSOLUTE
    ..\\..\\..\\..\\..\\components\\libraries\\crypto\\backend\\micro_ecc\\micro_ecc_lib_init.c 0x00000000   Number         0  micro_ecc_lib_init.o ABSOLUTE
    ..\\..\\..\\..\\..\\components\\libraries\\crypto\\backend\\micro_ecc\\micro_ecc_lib_keys.c 0x00000000   Number         0  micro_ecc_lib_keys.o ABSOLUTE
    ..\\..\\..\\..\\..\\components\\libraries\\crypto\\backend\\micro_ecc\\micro_ecc_lib_shared.c 0x00000000   Number         0  micro_ecc_lib_shared.o ABSOLUTE
    ..\\..\\..\\..\\..\\components\\libraries\\crypto\\backend\\nrf_crypto_sw\\nrf_crypto_sw_hash.c 0x00000000   Number         0  nrf_crypto_sw_hash.o ABSOLUTE
    ..\\..\\..\\..\\..\\components\\libraries\\crypto\\backend\\nrf_crypto_sw\\nrf_crypto_sw_rng.c 0x00000000   Number         0  nrf_crypto_sw_rng.o ABSOLUTE
    ..\\..\\..\\..\\..\\components\\libraries\\crypto\\nrf_crypto_ecdh.c 0x00000000   Number         0  nrf_crypto_ecdh.o ABSOLUTE
    ..\\..\\..\\..\\..\\components\\libraries\\crypto\\nrf_crypto_ecdsa.c 0x00000000   Number         0  nrf_crypto_ecdsa.o ABSOLUTE
    ..\\..\\..\\..\\..\\components\\libraries\\crypto\\nrf_crypto_hash.c 0x00000000   Number         0  nrf_crypto_hash.o ABSOLUTE
    ..\\..\\..\\..\\..\\components\\libraries\\crypto\\nrf_crypto_init.c 0x00000000   Number         0  nrf_crypto_init.o ABSOLUTE
    ..\\..\\..\\..\\..\\components\\libraries\\crypto\\nrf_crypto_keys.c 0x00000000   Number         0  nrf_crypto_keys.o ABSOLUTE
    ..\\..\\..\\..\\..\\components\\libraries\\crypto\\nrf_crypto_mem.c 0x00000000   Number         0  nrf_crypto_mem.o ABSOLUTE
    ..\\..\\..\\..\\..\\components\\libraries\\crypto\\nrf_crypto_rng.c 0x00000000   Number         0  nrf_crypto_rng.o ABSOLUTE
    ..\\..\\..\\..\\..\\components\\libraries\\experimental_log\\src\\nrf_log_backend_rtt.c 0x00000000   Number         0  nrf_log_backend_rtt.o ABSOLUTE
    ..\\..\\..\\..\\..\\components\\libraries\\experimental_log\\src\\nrf_log_backend_serial.c 0x00000000   Number         0  nrf_log_backend_serial.o ABSOLUTE
    ..\\..\\..\\..\\..\\components\\libraries\\experimental_log\\src\\nrf_log_default_backends.c 0x00000000   Number         0  nrf_log_default_backends.o ABSOLUTE
    ..\\..\\..\\..\\..\\components\\libraries\\experimental_log\\src\\nrf_log_frontend.c 0x00000000   Number         0  nrf_log_frontend.o ABSOLUTE
    ..\\..\\..\\..\\..\\components\\libraries\\experimental_log\\src\\nrf_log_str_formatter.c 0x00000000   Number         0  nrf_log_str_formatter.o ABSOLUTE
    ..\\..\\..\\..\\..\\components\\libraries\\experimental_memobj\\nrf_memobj.c 0x00000000   Number         0  nrf_memobj.o ABSOLUTE
    ..\\..\\..\\..\\..\\components\\libraries\\experimental_section_vars\\nrf_section_iter.c 0x00000000   Number         0  nrf_section_iter.o ABSOLUTE
    ..\\..\\..\\..\\..\\components\\libraries\\fstorage\\nrf_fstorage_nvmc.c 0x00000000   Number         0  nrf_fstorage_nvmc.o ABSOLUTE
    ..\\..\\..\\..\\..\\components\\libraries\\fstorage\\nrf_fstorage_sd.c 0x00000000   Number         0  nrf_fstorage_sd.o ABSOLUTE
    ..\\..\\..\\..\\..\\components\\libraries\\hci\\hci_mem_pool.c 0x00000000   Number         0  hci_mem_pool.o ABSOLUTE
    ..\\..\\..\\..\\..\\components\\libraries\\mem_manager\\mem_manager.c 0x00000000   Number         0  mem_manager.o ABSOLUTE
    ..\\..\\..\\..\\..\\components\\libraries\\queue\\nrf_queue.c 0x00000000   Number         0  nrf_queue.o ABSOLUTE
    ..\\..\\..\\..\\..\\components\\libraries\\scheduler\\app_scheduler.c 0x00000000   Number         0  app_scheduler.o ABSOLUTE
    ..\\..\\..\\..\\..\\components\\libraries\\sha256\\sha256.c 0x00000000   Number         0  sha256.o ABSOLUTE
    ..\\..\\..\\..\\..\\components\\libraries\\strerror\\nrf_strerror.c 0x00000000   Number         0  nrf_strerror.o ABSOLUTE
    ..\\..\\..\\..\\..\\components\\libraries\\svc\\nrf_svc_handler.c 0x00000000   Number         0  nrf_svc_handler.o ABSOLUTE
    ..\\..\\..\\..\\..\\components\\libraries\\timer\\app_timer.c 0x00000000   Number         0  app_timer.o ABSOLUTE
    ..\\..\\..\\..\\..\\components\\libraries\\util\\app_error_weak.c 0x00000000   Number         0  app_error_weak.o ABSOLUTE
    ..\\..\\..\\..\\..\\components\\libraries\\util\\app_util_platform.c 0x00000000   Number         0  app_util_platform.o ABSOLUTE
    ..\\..\\..\\..\\..\\components\\libraries\\util\\nrf_assert.c 0x00000000   Number         0  nrf_assert.o ABSOLUTE
    ..\\..\\..\\..\\..\\components\\softdevice\\common\\nrf_sdh.c 0x00000000   Number         0  nrf_sdh.o ABSOLUTE
    ..\\..\\..\\..\\..\\components\\softdevice\\common\\nrf_sdh_ble.c 0x00000000   Number         0  nrf_sdh_ble.o ABSOLUTE
    ..\\..\\..\\..\\..\\components\\softdevice\\common\\nrf_sdh_soc.c 0x00000000   Number         0  nrf_sdh_soc.o ABSOLUTE
    ..\\..\\..\\..\\..\\external\\fprintf\\nrf_fprintf.c 0x00000000   Number         0  nrf_fprintf.o ABSOLUTE
    ..\\..\\..\\..\\..\\external\\fprintf\\nrf_fprintf_format.c 0x00000000   Number         0  nrf_fprintf_format.o ABSOLUTE
    ..\\..\\..\\..\\..\\external\\segger_rtt\\SEGGER_RTT.c 0x00000000   Number         0  segger_rtt.o ABSOLUTE
    ..\\..\\..\\..\\..\\external\\segger_rtt\\SEGGER_RTT_Syscalls_KEIL.c 0x00000000   Number         0  segger_rtt_syscalls_keil.o ABSOLUTE
    ..\\..\\..\\..\\..\\external\\segger_rtt\\SEGGER_RTT_printf.c 0x00000000   Number         0  segger_rtt_printf.o ABSOLUTE
    ..\\..\\..\\dfu_req_handling\\dfu_req_handling.c 0x00000000   Number         0  dfu_req_handling.o ABSOLUTE
    ..\\..\\main.c                           0x00000000   Number         0  main.o ABSOLUTE
    RTE\Device\nRF52832_xxAA\arm_startup_nrf52.s 0x00000000   Number         0  arm_startup_nrf52.o ABSOLUTE
    RTE\Device\nRF52832_xxAA\system_nrf52.c  0x00000000   Number         0  system_nrf52.o ABSOLUTE
    RTE\\Device\\nRF52832_xxAA\\system_nrf52.c 0x00000000   Number         0  system_nrf52.o ABSOLUTE
    dc.s                                     0x00000000   Number         0  dc.o ABSOLUTE
    handlers.s                               0x00000000   Number         0  handlers.o ABSOLUTE
    init.s                                   0x00000000   Number         0  init.o ABSOLUTE
    uECC.c                                   0x00000000   Number         0  micro_ecc_lib_uECC.c.o ABSOLUTE
    wm4.0.6595695d65213d8b99dcc19df5fee711   0x00000000   Number         0  micro_ecc_lib_uECC.c.o ABSOLUTE
    wm4._default_types.h.15.933e8edd27a65e0b69af4a865eb623d2 0x00000000   Number         0  micro_ecc_lib_uECC.c.o ABSOLUTE
    wm4._intsup.h.10.35a45952db64d30146faa63a55c20c1c 0x00000000   Number         0  micro_ecc_lib_uECC.c.o ABSOLUTE
    wm4._stdint.h.10.f76354baea1c7088202064e6f3d4f5e3 0x00000000   Number         0  micro_ecc_lib_uECC.c.o ABSOLUTE
    wm4.asm_arm.inc.214.f9c3f96b49f7a5d989f94cf8e1ceba89 0x00000000   Number         0  micro_ecc_lib_uECC.c.o ABSOLUTE
    wm4.asm_arm.inc.4.dfec34a05ba45d75cbee2d5e06b55b4e 0x00000000   Number         0  micro_ecc_lib_uECC.c.o ABSOLUTE
    wm4.asm_arm_mult_square_umaal.inc.4.c2e97a2f1d7d7b2ebe8d0dcdc38e8601 0x00000000   Number         0  micro_ecc_lib_uECC.c.o ABSOLUTE
    wm4.curvespecific.inc.4.2d2cb7d102145c8907bc83ada341adf1 0x00000000   Number         0  micro_ecc_lib_uECC.c.o ABSOLUTE
    wm4.features.h.22.2e382148a0560adabf236cddd4e880f4 0x00000000   Number         0  micro_ecc_lib_uECC.c.o ABSOLUTE
    wm4.stdint.h.23.373a9d32a9e4c2e88fd347156532d281 0x00000000   Number         0  micro_ecc_lib_uECC.c.o ABSOLUTE
    wm4.types.h.4.68c95426d679a2e4709b8043a29e6d1c 0x00000000   Number         0  micro_ecc_lib_uECC.c.o ABSOLUTE
    wm4.uECC.h.11.e5b19d494bbd557763bd03f2049a3668 0x00000000   Number         0  micro_ecc_lib_uECC.c.o ABSOLUTE
    RESET                                    0x00073000   Section      512  arm_startup_nrf52.o(RESET)
    .ARM.Collect$$$$00000000                 0x00073200   Section        0  entry.o(.ARM.Collect$$$$00000000)
    .ARM.Collect$$$$00000001                 0x00073200   Section        4  entry2.o(.ARM.Collect$$$$00000001)
    .ARM.Collect$$$$00000004                 0x00073204   Section        4  entry5.o(.ARM.Collect$$$$00000004)
    .ARM.Collect$$$$00000008                 0x00073208   Section        0  entry7b.o(.ARM.Collect$$$$00000008)
    .ARM.Collect$$$$0000000A                 0x00073208   Section        0  entry8b.o(.ARM.Collect$$$$0000000A)
    .ARM.Collect$$$$0000000B                 0x00073208   Section        8  entry9a.o(.ARM.Collect$$$$0000000B)
    .ARM.Collect$$$$0000000D                 0x00073210   Section        0  entry10a.o(.ARM.Collect$$$$0000000D)
    .ARM.Collect$$$$0000000F                 0x00073210   Section        0  entry11a.o(.ARM.Collect$$$$0000000F)
    .ARM.Collect$$$$00002712                 0x00073210   Section        4  entry2.o(.ARM.Collect$$$$00002712)
    __lit__00000000                          0x00073210   Data           4  entry2.o(.ARM.Collect$$$$00002712)
    .emb_text                                0x00073214   Section       64  nrf_bootloader_app_start_asm.o(.emb_text)
    $v0                                      0x00073214   Number         0  nrf_bootloader_app_start_asm.o(.emb_text)
    .emb_text                                0x00073254   Section      200  nrf_atfifo.o(.emb_text)
    $v0                                      0x00073254   Number         0  nrf_atfifo.o(.emb_text)
    .emb_text                                0x0007331c   Section      154  nrf_fstorage_nvmc.o(.emb_text)
    $v0                                      0x0007331c   Number         0  nrf_fstorage_nvmc.o(.emb_text)
    .emb_text                                0x000733b8   Section      154  nrf_fstorage_sd.o(.emb_text)
    $v0                                      0x000733b8   Number         0  nrf_fstorage_sd.o(.emb_text)
    .emb_text                                0x00073454   Section      154  nrf_memobj.o(.emb_text)
    $v0                                      0x00073454   Number         0  nrf_memobj.o(.emb_text)
    .emb_text                                0x000734f0   Section      154  nrf_log_frontend.o(.emb_text)
    $v0                                      0x000734f0   Number         0  nrf_log_frontend.o(.emb_text)
    .emb_text                                0x0007358c   Section       20  nrf_svc_handler.o(.emb_text)
    $v0                                      0x0007358c   Number         0  nrf_svc_handler.o(.emb_text)
    .text                                    0x000735a0   Section       36  arm_startup_nrf52.o(.text)
    $v0                                      0x000735a0   Number         0  arm_startup_nrf52.o(.text)
    .text                                    0x000735c4   Section        0  llshl.o(.text)
    .text                                    0x000735e4   Section        0  ctype_o.o(.text)
    .text                                    0x000735ec   Section        0  memcpya.o(.text)
    .text                                    0x00073610   Section        0  memseta.o(.text)
    .text                                    0x00073634   Section        0  strlen.o(.text)
    .text                                    0x00073642   Section        0  memcmp.o(.text)
    .text                                    0x0007365c   Section        0  strcpy.o(.text)
    .text                                    0x00073670   Section       36  init.o(.text)
    .text                                    0x00073694   Section        0  __dczerorl2.o(.text)
    [Anonymous Symbol]                       0x000736ea   Section        0  micro_ecc_lib_uECC.c.o(.text.XYcZ_add)
    XYcZ_add                                 0x000736eb   Thumb Code   202  micro_ecc_lib_uECC.c.o(.text.XYcZ_add)
    [Anonymous Symbol]                       0x000737b4   Section        0  micro_ecc_lib_uECC.c.o(.text.apply_z)
    apply_z                                  0x000737b5   Thumb Code    62  micro_ecc_lib_uECC.c.o(.text.apply_z)
    [Anonymous Symbol]                       0x000737f2   Section        0  micro_ecc_lib_uECC.c.o(.text.bcopy)
    bcopy                                    0x000737f3   Thumb Code    12  micro_ecc_lib_uECC.c.o(.text.bcopy)
    [Anonymous Symbol]                       0x000737fe   Section        0  micro_ecc_lib_uECC.c.o(.text.bits2int)
    bits2int                                 0x000737ff   Thumb Code   136  micro_ecc_lib_uECC.c.o(.text.bits2int)
    [Anonymous Symbol]                       0x00073886   Section        0  micro_ecc_lib_uECC.c.o(.text.double_jacobian_default)
    double_jacobian_default                  0x00073887   Thumb Code   340  micro_ecc_lib_uECC.c.o(.text.double_jacobian_default)
    [Anonymous Symbol]                       0x000739dc   Section        0  micro_ecc_lib_uECC.c.o(.text.uECC_secp256r1)
    [Anonymous Symbol]                       0x000739e4   Section        0  micro_ecc_lib_uECC.c.o(.text.uECC_verify)
    [Anonymous Symbol]                       0x00073cc0   Section        0  micro_ecc_lib_uECC.c.o(.text.uECC_vli_add)
    [Anonymous Symbol]                       0x00073d18   Section        0  micro_ecc_lib_uECC.c.o(.text.uECC_vli_clear)
    [Anonymous Symbol]                       0x00073d30   Section        0  micro_ecc_lib_uECC.c.o(.text.uECC_vli_cmp_unsafe)
    uECC_vli_cmp_unsafe                      0x00073d31   Thumb Code    42  micro_ecc_lib_uECC.c.o(.text.uECC_vli_cmp_unsafe)
    [Anonymous Symbol]                       0x00073d5a   Section        0  micro_ecc_lib_uECC.c.o(.text.uECC_vli_equal)
    [Anonymous Symbol]                       0x00073d84   Section        0  micro_ecc_lib_uECC.c.o(.text.uECC_vli_isZero)
    [Anonymous Symbol]                       0x00073da4   Section        0  micro_ecc_lib_uECC.c.o(.text.uECC_vli_mmod)
    [Anonymous Symbol]                       0x00073ee0   Section        0  micro_ecc_lib_uECC.c.o(.text.uECC_vli_modAdd)
    [Anonymous Symbol]                       0x00073f12   Section        0  micro_ecc_lib_uECC.c.o(.text.uECC_vli_modInv)
    [Anonymous Symbol]                       0x0007401e   Section        0  micro_ecc_lib_uECC.c.o(.text.uECC_vli_modMult)
    [Anonymous Symbol]                       0x00074042   Section        0  micro_ecc_lib_uECC.c.o(.text.uECC_vli_modMult_fast)
    [Anonymous Symbol]                       0x00074062   Section        0  micro_ecc_lib_uECC.c.o(.text.uECC_vli_modSquare_fast)
    [Anonymous Symbol]                       0x00074082   Section        0  micro_ecc_lib_uECC.c.o(.text.uECC_vli_modSub)
    [Anonymous Symbol]                       0x000740a6   Section        0  micro_ecc_lib_uECC.c.o(.text.uECC_vli_mult)
    [Anonymous Symbol]                       0x000743b8   Section        0  micro_ecc_lib_uECC.c.o(.text.uECC_vli_numBits)
    [Anonymous Symbol]                       0x000743fc   Section        0  micro_ecc_lib_uECC.c.o(.text.uECC_vli_rshift1)
    [Anonymous Symbol]                       0x00074416   Section        0  micro_ecc_lib_uECC.c.o(.text.uECC_vli_set)
    [Anonymous Symbol]                       0x00074430   Section        0  micro_ecc_lib_uECC.c.o(.text.uECC_vli_square)
    [Anonymous Symbol]                       0x000746c0   Section        0  micro_ecc_lib_uECC.c.o(.text.uECC_vli_sub)
    [Anonymous Symbol]                       0x00074720   Section        0  micro_ecc_lib_uECC.c.o(.text.uECC_vli_testBit)
    [Anonymous Symbol]                       0x00074734   Section        0  micro_ecc_lib_uECC.c.o(.text.vli_mmod_fast_secp256r1)
    vli_mmod_fast_secp256r1                  0x00074735   Thumb Code   432  micro_ecc_lib_uECC.c.o(.text.vli_mmod_fast_secp256r1)
    [Anonymous Symbol]                       0x000748e4   Section        0  micro_ecc_lib_uECC.c.o(.text.vli_modInv_update)
    vli_modInv_update                        0x000748e5   Thumb Code    58  micro_ecc_lib_uECC.c.o(.text.vli_modInv_update)
    [Anonymous Symbol]                       0x0007491e   Section        0  micro_ecc_lib_uECC.c.o(.text.x_side_default)
    x_side_default                           0x0007491f   Thumb Code    90  micro_ecc_lib_uECC.c.o(.text.x_side_default)
    i.NVIC_ClearPendingIRQ                   0x00074978   Section        0  app_timer.o(i.NVIC_ClearPendingIRQ)
    NVIC_ClearPendingIRQ                     0x00074979   Thumb Code    22  app_timer.o(i.NVIC_ClearPendingIRQ)
    i.NVIC_EnableIRQ                         0x0007498e   Section        0  app_timer.o(i.NVIC_EnableIRQ)
    NVIC_EnableIRQ                           0x0007498f   Thumb Code    22  app_timer.o(i.NVIC_EnableIRQ)
    i.NVIC_SetPendingIRQ                     0x000749a4   Section        0  app_timer.o(i.NVIC_SetPendingIRQ)
    NVIC_SetPendingIRQ                       0x000749a5   Thumb Code    22  app_timer.o(i.NVIC_SetPendingIRQ)
    i.NVIC_SetPriority                       0x000749ba   Section        0  app_timer.o(i.NVIC_SetPriority)
    NVIC_SetPriority                         0x000749bb   Thumb Code    32  app_timer.o(i.NVIC_SetPriority)
    i.NVIC_SystemReset                       0x000749dc   Section        0  main.o(i.NVIC_SystemReset)
    NVIC_SystemReset                         0x000749dd   Thumb Code    26  main.o(i.NVIC_SystemReset)
    i.POWER_CLOCK_IRQHandler                 0x00074a00   Section        0  nrf_drv_clock.o(i.POWER_CLOCK_IRQHandler)
    i.RTC1_IRQHandler                        0x00074a58   Section        0  app_timer.o(i.RTC1_IRQHandler)
    i.SEGGER_RTT_Init                        0x00074a7c   Section        0  segger_rtt.o(i.SEGGER_RTT_Init)
    i.SEGGER_RTT_WriteNoLock                 0x00074a80   Section        0  segger_rtt.o(i.SEGGER_RTT_WriteNoLock)
    i.SWI0_EGU0_IRQHandler                   0x00074adc   Section        0  app_timer.o(i.SWI0_EGU0_IRQHandler)
    i.SWI2_EGU2_IRQHandler                   0x00074ae0   Section        0  nrf_sdh.o(i.SWI2_EGU2_IRQHandler)
    i.SystemInit                             0x00074b00   Section        0  system_nrf52.o(i.SystemInit)
    i._DoInit                                0x00074dfc   Section        0  segger_rtt.o(i._DoInit)
    _DoInit                                  0x00074dfd   Thumb Code    74  segger_rtt.o(i._DoInit)
    i._GetAvailWriteSpace                    0x00074e68   Section        0  segger_rtt.o(i._GetAvailWriteSpace)
    _GetAvailWriteSpace                      0x00074e69   Thumb Code    22  segger_rtt.o(i._GetAvailWriteSpace)
    i._WriteBlocking                         0x00074e7e   Section        0  segger_rtt.o(i._WriteBlocking)
    _WriteBlocking                           0x00074e7f   Thumb Code    90  segger_rtt.o(i._WriteBlocking)
    i._WriteNoCheck                          0x00074ed8   Section        0  segger_rtt.o(i._WriteNoCheck)
    _WriteNoCheck                            0x00074ed9   Thumb Code    66  segger_rtt.o(i._WriteNoCheck)
    i.__scatterload_copy                     0x00074f1a   Section       14  handlers.o(i.__scatterload_copy)
    i.__scatterload_null                     0x00074f28   Section        2  handlers.o(i.__scatterload_null)
    i.__scatterload_zeroinit                 0x00074f2a   Section       14  handlers.o(i.__scatterload_zeroinit)
    i.__sd_nvic_app_accessible_irq           0x00074f38   Section        0  nrf_sdh.o(i.__sd_nvic_app_accessible_irq)
    __sd_nvic_app_accessible_irq             0x00074f39   Thumb Code    32  nrf_sdh.o(i.__sd_nvic_app_accessible_irq)
    i.__sd_nvic_is_app_accessible_priority   0x00074f5c   Section        0  nrf_sdh.o(i.__sd_nvic_is_app_accessible_priority)
    __sd_nvic_is_app_accessible_priority     0x00074f5d   Thumb Code    22  nrf_sdh.o(i.__sd_nvic_is_app_accessible_priority)
    i.addr_is_aligned32                      0x00074f72   Section        0  nrf_fstorage.o(i.addr_is_aligned32)
    addr_is_aligned32                        0x00074f73   Thumb Code    12  nrf_fstorage.o(i.addr_is_aligned32)
    i.addr_within_bounds                     0x00074f7e   Section        0  nrf_fstorage.o(i.addr_within_bounds)
    addr_within_bounds                       0x00074f7f   Thumb Code    24  nrf_fstorage.o(i.addr_within_bounds)
    i.advertising_start                      0x00074f98   Section        0  nrf_ble_dfu.o(i.advertising_start)
    advertising_start                        0x00074f99   Thumb Code   156  nrf_ble_dfu.o(i.advertising_start)
    i.app_error_fault_handler                0x00075060   Section        0  main.o(i.app_error_fault_handler)
    i.app_error_handler_bare                 0x000750bc   Section        0  main.o(i.app_error_handler_bare)
    i.app_sched_event_put                    0x000750f4   Section        0  app_scheduler.o(i.app_sched_event_put)
    i.app_sched_execute                      0x00075194   Section        0  app_scheduler.o(i.app_sched_execute)
    i.app_sched_init                         0x000751d4   Section        0  app_scheduler.o(i.app_sched_init)
    i.app_timer_create                       0x00075200   Section        0  app_timer.o(i.app_timer_create)
    i.app_timer_init                         0x00075228   Section        0  app_timer.o(i.app_timer_init)
    i.app_timer_start                        0x0007527c   Section        0  app_timer.o(i.app_timer_start)
    i.app_timer_stop                         0x00075304   Section        0  app_timer.o(i.app_timer_stop)
    i.app_util_critical_region_enter         0x00075324   Section        0  app_util_platform.o(i.app_util_critical_region_enter)
    i.app_util_critical_region_exit          0x0007536c   Section        0  app_util_platform.o(i.app_util_critical_region_exit)
    i.appsh_events_poll                      0x000753a0   Section        0  nrf_sdh.o(i.appsh_events_poll)
    appsh_events_poll                        0x000753a1   Thumb Code     4  nrf_sdh.o(i.appsh_events_poll)
    i.ble_dfu_init                           0x000753a4   Section        0  nrf_ble_dfu.o(i.ble_dfu_init)
    i.ble_dfu_transport_close                0x00075408   Section        0  nrf_ble_dfu.o(i.ble_dfu_transport_close)
    i.ble_dfu_transport_init                 0x000754c4   Section        0  nrf_ble_dfu.o(i.ble_dfu_transport_init)
    i.ble_evt_handler                        0x000755f8   Section        0  nrf_ble_dfu.o(i.ble_evt_handler)
    ble_evt_handler                          0x000755f9   Thumb Code   510  nrf_ble_dfu.o(i.ble_evt_handler)
    i.ble_srv_is_notification_enabled        0x000759d4   Section        0  ble_srv_common.o(i.ble_srv_is_notification_enabled)
    i.ble_stack_init                         0x000759dc   Section        0  nrf_ble_dfu.o(i.ble_stack_init)
    ble_stack_init                           0x000759dd   Thumb Code   220  nrf_ble_dfu.o(i.ble_stack_init)
    i.buf_prealloc                           0x00075b88   Section        0  nrf_log_frontend.o(i.buf_prealloc)
    buf_prealloc                             0x00075b89   Thumb Code    96  nrf_log_frontend.o(i.buf_prealloc)
    i.buf_read                               0x00075bec   Section        0  pb_decode.o(i.buf_read)
    buf_read                                 0x00075bed   Thumb Code    28  pb_decode.o(i.buf_read)
    i.buffer_add                             0x00075c08   Section        0  nrf_fprintf_format.o(i.buffer_add)
    buffer_add                               0x00075c09   Thumb Code    30  nrf_fprintf_format.o(i.buffer_add)
    i.buffer_is_empty                        0x00075c28   Section        0  nrf_log_frontend.o(i.buffer_is_empty)
    i.clock_clk_started_notify               0x00075c3c   Section        0  nrf_drv_clock.o(i.clock_clk_started_notify)
    clock_clk_started_notify                 0x00075c3d   Thumb Code    34  nrf_drv_clock.o(i.clock_clk_started_notify)
    i.compare_reg_update                     0x00075c64   Section        0  app_timer.o(i.compare_reg_update)
    compare_reg_update                       0x00075c65   Thumb Code   160  app_timer.o(i.compare_reg_update)
    i.crc32_compute                          0x00075d10   Section        0  crc32.o(i.crc32_compute)
    i.decode_callback_field                  0x00075d4c   Section        0  pb_decode.o(i.decode_callback_field)
    decode_callback_field                    0x00075d4d   Thumb Code   126  pb_decode.o(i.decode_callback_field)
    i.decode_field                           0x00075dca   Section        0  pb_decode.o(i.decode_field)
    decode_field                             0x00075dcb   Thumb Code    26  pb_decode.o(i.decode_field)
    i.decode_static_field                    0x00075de4   Section        0  pb_decode.o(i.decode_static_field)
    decode_static_field                      0x00075de5   Thumb Code   220  pb_decode.o(i.decode_static_field)
    i.dfu_ctrl_pt_add                        0x00075ec4   Section        0  nrf_ble_dfu.o(i.dfu_ctrl_pt_add)
    dfu_ctrl_pt_add                          0x00075ec5   Thumb Code   132  nrf_ble_dfu.o(i.dfu_ctrl_pt_add)
    i.dfu_decode_commmand                    0x00075f48   Section        0  dfu_req_handling.o(i.dfu_decode_commmand)
    dfu_decode_commmand                      0x00075f49   Thumb Code    78  dfu_req_handling.o(i.dfu_decode_commmand)
    i.dfu_fstorage_evt_handler               0x00075fdc   Section        0  nrf_dfu_flash.o(i.dfu_fstorage_evt_handler)
    i.dfu_handle_prevalidate                 0x00076108   Section        0  dfu_req_handling.o(i.dfu_handle_prevalidate)
    dfu_handle_prevalidate                   0x00076109   Thumb Code   708  dfu_req_handling.o(i.dfu_handle_prevalidate)
    i.dfu_handle_signed_command              0x000765e0   Section        0  dfu_req_handling.o(i.dfu_handle_signed_command)
    dfu_handle_signed_command                0x000765e1   Thumb Code    84  dfu_req_handling.o(i.dfu_handle_signed_command)
    i.dfu_pkt_char_add                       0x00076678   Section        0  nrf_ble_dfu.o(i.dfu_pkt_char_add)
    dfu_pkt_char_add                         0x00076679   Thumb Code   130  nrf_ble_dfu.o(i.dfu_pkt_char_add)
    i.elapsed_ticks_acquire                  0x000766fc   Section        0  app_timer.o(i.elapsed_ticks_acquire)
    elapsed_ticks_acquire                    0x000766fd   Thumb Code    58  app_timer.o(i.elapsed_ticks_acquire)
    i.erase                                  0x0007673c   Section        0  nrf_fstorage_nvmc.o(i.erase)
    erase                                    0x0007673d   Thumb Code    66  nrf_fstorage_nvmc.o(i.erase)
    i.erase                                  0x00076784   Section        0  nrf_fstorage_sd.o(i.erase)
    erase                                    0x00076785   Thumb Code    72  nrf_fstorage_sd.o(i.erase)
    i.event_send                             0x000767d0   Section        0  nrf_fstorage_nvmc.o(i.event_send)
    event_send                               0x000767d1   Thumb Code    56  nrf_fstorage_nvmc.o(i.event_send)
    i.event_send                             0x00076808   Section        0  nrf_fstorage_sd.o(i.event_send)
    event_send                               0x00076809   Thumb Code    78  nrf_fstorage_sd.o(i.event_send)
    i.ext_error_get                          0x00076858   Section        0  nrf_dfu_handling_error.o(i.ext_error_get)
    i.ext_error_set                          0x00076868   Section        0  nrf_dfu_handling_error.o(i.ext_error_set)
    i.gap_params_init                        0x00076874   Section        0  nrf_ble_dfu.o(i.gap_params_init)
    gap_params_init                          0x00076875   Thumb Code   152  nrf_ble_dfu.o(i.gap_params_init)
    i.hfclk_stop                             0x00076960   Section        0  nrf_drv_clock.o(i.hfclk_stop)
    hfclk_stop                               0x00076961   Thumb Code    34  nrf_drv_clock.o(i.hfclk_stop)
    i.inactivity_timer_restart               0x0007698c   Section        0  dfu_req_handling.o(i.inactivity_timer_restart)
    inactivity_timer_restart                 0x0007698d   Thumb Code    42  dfu_req_handling.o(i.inactivity_timer_restart)
    i.init                                   0x000769bc   Section        0  nrf_fstorage_nvmc.o(i.init)
    init                                     0x000769bd   Thumb Code     8  nrf_fstorage_nvmc.o(i.init)
    i.init                                   0x000769c8   Section        0  nrf_fstorage_sd.o(i.init)
    init                                     0x000769c9   Thumb Code    48  nrf_fstorage_sd.o(i.init)
    i.int_print                              0x00076a00   Section        0  nrf_fprintf_format.o(i.int_print)
    int_print                                0x00076a01   Thumb Code   166  nrf_fprintf_format.o(i.int_print)
    i.is_busy                                0x00076aa8   Section        0  nrf_fstorage_nvmc.o(i.is_busy)
    is_busy                                  0x00076aa9   Thumb Code    12  nrf_fstorage_nvmc.o(i.is_busy)
    i.is_busy                                0x00076ab8   Section        0  nrf_fstorage_sd.o(i.is_busy)
    is_busy                                  0x00076ab9   Thumb Code    12  nrf_fstorage_sd.o(i.is_busy)
    i.is_word_aligned                        0x00076ac8   Section        0  micro_ecc_lib_ecdsa.o(i.is_word_aligned)
    is_word_aligned                          0x00076ac9   Thumb Code    12  micro_ecc_lib_ecdsa.o(i.is_word_aligned)
    i.item_enqueue                           0x00076ad4   Section        0  nrf_drv_clock.o(i.item_enqueue)
    item_enqueue                             0x00076ad5   Thumb Code    22  nrf_drv_clock.o(i.item_enqueue)
    i.iter_from_extension                    0x00076aea   Section        0  pb_decode.o(i.iter_from_extension)
    iter_from_extension                      0x00076aeb   Thumb Code    46  pb_decode.o(i.iter_from_extension)
    i.lfclk_stop                             0x00076b18   Section        0  nrf_drv_clock.o(i.lfclk_stop)
    lfclk_stop                               0x00076b19   Thumb Code    26  nrf_drv_clock.o(i.lfclk_stop)
    i.list_insertions_handler                0x00076b40   Section        0  app_timer.o(i.list_insertions_handler)
    list_insertions_handler                  0x00076b41   Thumb Code   234  app_timer.o(i.list_insertions_handler)
    i.log_skip                               0x00076c38   Section        0  nrf_log_frontend.o(i.log_skip)
    log_skip                                 0x00076c39   Thumb Code   138  nrf_log_frontend.o(i.log_skip)
    i.main                                   0x00076ccc   Section        0  main.o(i.main)
    i.memobj_op                              0x00076d28   Section        0  nrf_memobj.o(i.memobj_op)
    memobj_op                                0x00076d29   Thumb Code   118  nrf_memobj.o(i.memobj_op)
    i.module_idx_get                         0x00076da0   Section        0  nrf_log_frontend.o(i.module_idx_get)
    module_idx_get                           0x00076da1   Thumb Code    48  nrf_log_frontend.o(i.module_idx_get)
    i.nrf_atfifo_clear                       0x00076dd4   Section        0  nrf_atfifo.o(i.nrf_atfifo_clear)
    i.nrf_atfifo_init                        0x00076de4   Section        0  nrf_atfifo.o(i.nrf_atfifo_init)
    i.nrf_atfifo_item_alloc                  0x00076e0a   Section        0  nrf_atfifo.o(i.nrf_atfifo_item_alloc)
    i.nrf_atfifo_item_free                   0x00076e20   Section        0  nrf_atfifo.o(i.nrf_atfifo_item_free)
    i.nrf_atfifo_item_get                    0x00076e36   Section        0  nrf_atfifo.o(i.nrf_atfifo_item_get)
    i.nrf_atfifo_item_put                    0x00076e4c   Section        0  nrf_atfifo.o(i.nrf_atfifo_item_put)
    i.nrf_atomic_flag_clear                  0x00076e62   Section        0  nrf_fstorage_nvmc.o(i.nrf_atomic_flag_clear)
    nrf_atomic_flag_clear                    0x00076e63   Thumb Code    14  nrf_fstorage_nvmc.o(i.nrf_atomic_flag_clear)
    i.nrf_atomic_flag_set                    0x00076e70   Section        0  nrf_log_frontend.o(i.nrf_atomic_flag_set)
    nrf_atomic_flag_set                      0x00076e71   Thumb Code    14  nrf_log_frontend.o(i.nrf_atomic_flag_set)
    i.nrf_atomic_flag_set_fetch              0x00076e7e   Section        0  nrf_fstorage_nvmc.o(i.nrf_atomic_flag_set_fetch)
    nrf_atomic_flag_set_fetch                0x00076e7f   Thumb Code    12  nrf_fstorage_nvmc.o(i.nrf_atomic_flag_set_fetch)
    i.nrf_balloc_alloc                       0x00076e8a   Section        0  nrf_balloc.o(i.nrf_balloc_alloc)
    i.nrf_balloc_free                        0x00076ece   Section        0  nrf_balloc.o(i.nrf_balloc_free)
    i.nrf_balloc_init                        0x00076efe   Section        0  nrf_balloc.o(i.nrf_balloc_init)
    i.nrf_bootloader_app_start               0x00076f30   Section        0  nrf_bootloader_app_start.o(i.nrf_bootloader_app_start)
    i.nrf_bootloader_init                    0x00077078   Section        0  nrf_bootloader.o(i.nrf_bootloader_init)
    i.nrf_clock_event_check                  0x000770e4   Section        0  nrf_drv_clock.o(i.nrf_clock_event_check)
    nrf_clock_event_check                    0x000770e5   Thumb Code    14  nrf_drv_clock.o(i.nrf_clock_event_check)
    i.nrf_clock_event_clear                  0x000770f2   Section        0  nrf_drv_clock.o(i.nrf_clock_event_clear)
    nrf_clock_event_clear                    0x000770f3   Thumb Code    16  nrf_drv_clock.o(i.nrf_clock_event_clear)
    i.nrf_clock_hf_is_running                0x00077104   Section        0  nrf_drv_clock.o(i.nrf_clock_hf_is_running)
    nrf_clock_hf_is_running                  0x00077105   Thumb Code    24  nrf_drv_clock.o(i.nrf_clock_hf_is_running)
    i.nrf_crypto_ecdsa_sizes_get             0x00077120   Section        0  nrf_crypto_ecdsa.o(i.nrf_crypto_ecdsa_sizes_get)
    i.nrf_crypto_ecdsa_verify_hash           0x00077198   Section        0  micro_ecc_lib_ecdsa.o(i.nrf_crypto_ecdsa_verify_hash)
    i.nrf_crypto_hash_compute                0x0007722c   Section        0  nrf_crypto_sw_hash.o(i.nrf_crypto_hash_compute)
    i.nrf_crypto_hash_finalize               0x000772a0   Section        0  nrf_crypto_sw_hash.o(i.nrf_crypto_hash_finalize)
    i.nrf_crypto_hash_init                   0x000772e6   Section        0  nrf_crypto_sw_hash.o(i.nrf_crypto_hash_init)
    i.nrf_crypto_hash_size_get               0x0007730e   Section        0  nrf_crypto_hash.o(i.nrf_crypto_hash_size_get)
    i.nrf_crypto_hash_update                 0x0007733c   Section        0  nrf_crypto_sw_hash.o(i.nrf_crypto_hash_update)
    i.nrf_delay_us                           0x00077354   Section        0  dfu_req_handling.o(i.nrf_delay_us)
    nrf_delay_us                             0x00077355   Thumb Code   132  dfu_req_handling.o(i.nrf_delay_us)
    i.nrf_delay_us                           0x000773e0   Section        0  nrf_ble_dfu.o(i.nrf_delay_us)
    nrf_delay_us                             0x000773e1   Thumb Code   132  nrf_ble_dfu.o(i.nrf_delay_us)
    i.nrf_delay_us                           0x0007746c   Section        0  nrf_dfu_utils.o(i.nrf_delay_us)
    nrf_delay_us                             0x0007746d   Thumb Code   132  nrf_dfu_utils.o(i.nrf_delay_us)
    i.nrf_delay_us                           0x000774f8   Section        0  app_timer.o(i.nrf_delay_us)
    nrf_delay_us                             0x000774f9   Thumb Code   132  app_timer.o(i.nrf_delay_us)
    i.nrf_dfu_app_continue                   0x00077584   Section        0  nrf_dfu_utils.o(i.nrf_dfu_app_continue)
    nrf_dfu_app_continue                     0x00077585   Thumb Code   254  nrf_dfu_utils.o(i.nrf_dfu_app_continue)
    i.nrf_dfu_app_is_valid                   0x00077700   Section        0  nrf_dfu_utils.o(i.nrf_dfu_app_is_valid)
    i.nrf_dfu_bl_continue                    0x000777d0   Section        0  nrf_dfu_utils.o(i.nrf_dfu_bl_continue)
    nrf_dfu_bl_continue                      0x000777d1   Thumb Code   160  nrf_dfu_utils.o(i.nrf_dfu_bl_continue)
    i.nrf_dfu_command_req                    0x00077950   Section        0  dfu_req_handling.o(i.nrf_dfu_command_req)
    nrf_dfu_command_req                      0x00077951   Thumb Code   432  dfu_req_handling.o(i.nrf_dfu_command_req)
    i.nrf_dfu_continue                       0x00077cb4   Section        0  nrf_dfu_utils.o(i.nrf_dfu_continue)
    i.nrf_dfu_continue_bank                  0x00077d18   Section        0  nrf_dfu_utils.o(i.nrf_dfu_continue_bank)
    nrf_dfu_continue_bank                    0x00077d19   Thumb Code   134  nrf_dfu_utils.o(i.nrf_dfu_continue_bank)
    i.nrf_dfu_data_req                       0x00077df4   Section        0  dfu_req_handling.o(i.nrf_dfu_data_req)
    nrf_dfu_data_req                         0x00077df5   Thumb Code   968  dfu_req_handling.o(i.nrf_dfu_data_req)
    i.nrf_dfu_enter_check                    0x000783e8   Section        0  nrf_dfu.o(i.nrf_dfu_enter_check)
    i.nrf_dfu_find_cache                     0x0007841c   Section        0  nrf_dfu_utils.o(i.nrf_dfu_find_cache)
    i.nrf_dfu_flash_erase                    0x000786c0   Section        0  nrf_dfu_flash.o(i.nrf_dfu_flash_erase)
    i.nrf_dfu_flash_init                     0x00078788   Section        0  nrf_dfu_flash.o(i.nrf_dfu_flash_init)
    i.nrf_dfu_flash_store                    0x00078874   Section        0  nrf_dfu_flash.o(i.nrf_dfu_flash_store)
    i.nrf_dfu_init                           0x00078944   Section        0  nrf_dfu.o(i.nrf_dfu_init)
    i.nrf_dfu_init_user                      0x00078bb4   Section        0  nrf_bootloader.o(i.nrf_dfu_init_user)
    i.nrf_dfu_invalidate_bank                0x00078bec   Section        0  nrf_dfu_utils.o(i.nrf_dfu_invalidate_bank)
    nrf_dfu_invalidate_bank                  0x00078bed   Thumb Code    20  nrf_dfu_utils.o(i.nrf_dfu_invalidate_bank)
    i.nrf_dfu_mbr_compare                    0x00078c04   Section        0  nrf_dfu_mbr.o(i.nrf_dfu_mbr_compare)
    i.nrf_dfu_mbr_copy_bl                    0x00078c20   Section        0  nrf_dfu_mbr.o(i.nrf_dfu_mbr_copy_bl)
    i.nrf_dfu_mbr_copy_sd                    0x00078c38   Section        0  nrf_dfu_mbr.o(i.nrf_dfu_mbr_copy_sd)
    i.nrf_dfu_mbr_init_sd                    0x00078c5c   Section        0  nrf_dfu_mbr.o(i.nrf_dfu_mbr_init_sd)
    i.nrf_dfu_postvalidate                   0x00078c74   Section        0  dfu_req_handling.o(i.nrf_dfu_postvalidate)
    nrf_dfu_postvalidate                     0x00078c75   Thumb Code   546  dfu_req_handling.o(i.nrf_dfu_postvalidate)
    i.nrf_dfu_req_handler_init               0x00078fa0   Section        0  dfu_req_handling.o(i.nrf_dfu_req_handler_init)
    i.nrf_dfu_req_handler_on_req             0x00078ff4   Section        0  dfu_req_handling.o(i.nrf_dfu_req_handler_on_req)
    i.nrf_dfu_req_handler_reset_if_dfu_complete 0x00079068   Section        0  dfu_req_handling.o(i.nrf_dfu_req_handler_reset_if_dfu_complete)
    i.nrf_dfu_reset_timeout_handler          0x000790a0   Section        0  nrf_dfu_utils.o(i.nrf_dfu_reset_timeout_handler)
    i.nrf_dfu_sd_bl_continue                 0x00079110   Section        0  nrf_dfu_utils.o(i.nrf_dfu_sd_bl_continue)
    nrf_dfu_sd_bl_continue                   0x00079111   Thumb Code    96  nrf_dfu_utils.o(i.nrf_dfu_sd_bl_continue)
    i.nrf_dfu_sd_continue                    0x000791c8   Section        0  nrf_dfu_utils.o(i.nrf_dfu_sd_continue)
    nrf_dfu_sd_continue                      0x000791c9   Thumb Code    72  nrf_dfu_utils.o(i.nrf_dfu_sd_continue)
    i.nrf_dfu_sd_continue_impl               0x00079264   Section        0  nrf_dfu_utils.o(i.nrf_dfu_sd_continue_impl)
    nrf_dfu_sd_continue_impl                 0x00079265   Thumb Code   390  nrf_dfu_utils.o(i.nrf_dfu_sd_continue_impl)
    i.nrf_dfu_set_adv_name_handler           0x00079570   Section        0  nrf_dfu_svci_handler.o(i.nrf_dfu_set_adv_name_handler)
    nrf_dfu_set_adv_name_handler             0x00079571   Thumb Code    22  nrf_dfu_svci_handler.o(i.nrf_dfu_set_adv_name_handler)
    i.nrf_dfu_set_adv_name_on_call           0x00079590   Section        0  nrf_dfu_svci_handler.o(i.nrf_dfu_set_adv_name_on_call)
    nrf_dfu_set_adv_name_on_call             0x00079591   Thumb Code    50  nrf_dfu_svci_handler.o(i.nrf_dfu_set_adv_name_on_call)
    i.nrf_dfu_set_adv_name_on_sys_evt        0x000795c2   Section        0  nrf_dfu_svci_handler.o(i.nrf_dfu_set_adv_name_on_sys_evt)
    nrf_dfu_set_adv_name_on_sys_evt          0x000795c3   Thumb Code    36  nrf_dfu_svci_handler.o(i.nrf_dfu_set_adv_name_on_sys_evt)
    i.nrf_dfu_settings_additional_erase      0x000795e8   Section        0  nrf_dfu_settings_svci.o(i.nrf_dfu_settings_additional_erase)
    i.nrf_dfu_settings_adv_name_copy         0x00079658   Section        0  nrf_dfu_settings_svci.o(i.nrf_dfu_settings_adv_name_copy)
    i.nrf_dfu_settings_adv_name_is_valid     0x00079670   Section        0  nrf_dfu_settings_svci.o(i.nrf_dfu_settings_adv_name_is_valid)
    i.nrf_dfu_settings_adv_name_write        0x00079690   Section        0  nrf_dfu_settings_svci.o(i.nrf_dfu_settings_adv_name_write)
    i.nrf_dfu_settings_crc_get               0x000796c8   Section        0  nrf_dfu_settings.o(i.nrf_dfu_settings_crc_get)
    nrf_dfu_settings_crc_get                 0x000796c9   Thumb Code    10  nrf_dfu_settings.o(i.nrf_dfu_settings_crc_get)
    i.nrf_dfu_settings_init                  0x000796d8   Section        0  nrf_dfu_settings.o(i.nrf_dfu_settings_init)
    i.nrf_dfu_settings_write                 0x00079840   Section        0  nrf_dfu_settings.o(i.nrf_dfu_settings_write)
    i.nrf_dfu_transports_close               0x00079944   Section        0  nrf_dfu_transport.o(i.nrf_dfu_transports_close)
    i.nrf_dfu_transports_init                0x00079a04   Section        0  nrf_dfu_transport.o(i.nrf_dfu_transports_init)
    i.nrf_drv_clock_init                     0x00079ac0   Section        0  nrf_drv_clock.o(i.nrf_drv_clock_init)
    i.nrf_drv_clock_lfclk_release            0x00079b08   Section        0  nrf_drv_clock.o(i.nrf_drv_clock_lfclk_release)
    i.nrf_drv_clock_lfclk_request            0x00079b34   Section        0  nrf_drv_clock.o(i.nrf_drv_clock_lfclk_request)
    i.nrf_drv_clock_uninit                   0x00079b9c   Section        0  nrf_drv_clock.o(i.nrf_drv_clock_uninit)
    i.nrf_drv_common_clock_irq_disable       0x00079bc4   Section        0  nrf_drv_common.o(i.nrf_drv_common_clock_irq_disable)
    i.nrf_drv_common_irq_enable              0x00079bd0   Section        0  nrf_drv_common.o(i.nrf_drv_common_irq_enable)
    i.nrf_fprintf                            0x00079c08   Section        0  nrf_fprintf.o(i.nrf_fprintf)
    i.nrf_fprintf_buffer_flush               0x00079c22   Section        0  nrf_fprintf.o(i.nrf_fprintf_buffer_flush)
    i.nrf_fprintf_fmt                        0x00079c3a   Section        0  nrf_fprintf_format.o(i.nrf_fprintf_fmt)
    i.nrf_fstorage_erase                     0x00079e14   Section        0  nrf_fstorage.o(i.nrf_fstorage_erase)
    i.nrf_fstorage_init                      0x00079e62   Section        0  nrf_fstorage.o(i.nrf_fstorage_init)
    i.nrf_fstorage_sdh_req_handler           0x00079e74   Section        0  nrf_fstorage_sd.o(i.nrf_fstorage_sdh_req_handler)
    i.nrf_fstorage_sdh_state_handler         0x00079e8c   Section        0  nrf_fstorage_sd.o(i.nrf_fstorage_sdh_state_handler)
    i.nrf_fstorage_sys_evt_handler           0x00079eac   Section        0  nrf_fstorage_sd.o(i.nrf_fstorage_sys_evt_handler)
    i.nrf_fstorage_write                     0x00079f4c   Section        0  nrf_fstorage.o(i.nrf_fstorage_write)
    i.nrf_gpio_cfg_output                    0x00079fb2   Section        0  nrf_ble_dfu.o(i.nrf_gpio_cfg_output)
    nrf_gpio_cfg_output                      0x00079fb3   Thumb Code    16  nrf_ble_dfu.o(i.nrf_gpio_cfg_output)
    i.nrf_gpio_pin_set                       0x00079fc2   Section        0  nrf_ble_dfu.o(i.nrf_gpio_pin_set)
    nrf_gpio_pin_set                         0x00079fc3   Thumb Code    14  nrf_ble_dfu.o(i.nrf_gpio_pin_set)
    i.nrf_log_backend_add                    0x00079fd0   Section        0  nrf_log_frontend.o(i.nrf_log_backend_add)
    i.nrf_log_backend_rtt_flush              0x0007a020   Section        0  nrf_log_backend_rtt.o(i.nrf_log_backend_rtt_flush)
    nrf_log_backend_rtt_flush                0x0007a021   Thumb Code     2  nrf_log_backend_rtt.o(i.nrf_log_backend_rtt_flush)
    i.nrf_log_backend_rtt_init               0x0007a022   Section        0  nrf_log_backend_rtt.o(i.nrf_log_backend_rtt_init)
    i.nrf_log_backend_rtt_panic_set          0x0007a026   Section        0  nrf_log_backend_rtt.o(i.nrf_log_backend_rtt_panic_set)
    nrf_log_backend_rtt_panic_set            0x0007a027   Thumb Code     2  nrf_log_backend_rtt.o(i.nrf_log_backend_rtt_panic_set)
    i.nrf_log_backend_rtt_put                0x0007a028   Section        0  nrf_log_backend_rtt.o(i.nrf_log_backend_rtt_put)
    nrf_log_backend_rtt_put                  0x0007a029   Thumb Code    16  nrf_log_backend_rtt.o(i.nrf_log_backend_rtt_put)
    i.nrf_log_backend_serial_put             0x0007a040   Section        0  nrf_log_backend_serial.o(i.nrf_log_backend_serial_put)
    i.nrf_log_color_id_get                   0x0007a114   Section        0  nrf_log_frontend.o(i.nrf_log_color_id_get)
    i.nrf_log_default_backends_init          0x0007a144   Section        0  nrf_log_default_backends.o(i.nrf_log_default_backends_init)
    i.nrf_log_frontend_dequeue               0x0007a160   Section        0  nrf_log_frontend.o(i.nrf_log_frontend_dequeue)
    i.nrf_log_frontend_std_0                 0x0007a350   Section        0  nrf_log_frontend.o(i.nrf_log_frontend_std_0)
    i.nrf_log_frontend_std_1                 0x0007a358   Section        0  nrf_log_frontend.o(i.nrf_log_frontend_std_1)
    i.nrf_log_frontend_std_2                 0x0007a366   Section        0  nrf_log_frontend.o(i.nrf_log_frontend_std_2)
    i.nrf_log_frontend_std_3                 0x0007a376   Section        0  nrf_log_frontend.o(i.nrf_log_frontend_std_3)
    i.nrf_log_frontend_std_4                 0x0007a388   Section        0  nrf_log_frontend.o(i.nrf_log_frontend_std_4)
    i.nrf_log_frontend_std_5                 0x0007a39c   Section        0  nrf_log_frontend.o(i.nrf_log_frontend_std_5)
    i.nrf_log_hexdump_entry_process          0x0007a3b8   Section        0  nrf_log_str_formatter.o(i.nrf_log_hexdump_entry_process)
    i.nrf_log_init                           0x0007a464   Section        0  nrf_log_frontend.o(i.nrf_log_init)
    i.nrf_log_module_cnt_get                 0x0007a4c0   Section        0  nrf_log_frontend.o(i.nrf_log_module_cnt_get)
    i.nrf_log_module_name_get                0x0007a4d4   Section        0  nrf_log_frontend.o(i.nrf_log_module_name_get)
    i.nrf_log_std_entry_process              0x0007a4f0   Section        0  nrf_log_str_formatter.o(i.nrf_log_std_entry_process)
    i.nrf_memobj_alloc                       0x0007a5a6   Section        0  nrf_memobj.o(i.nrf_memobj_alloc)
    i.nrf_memobj_free                        0x0007a606   Section        0  nrf_memobj.o(i.nrf_memobj_free)
    i.nrf_memobj_get                         0x0007a638   Section        0  nrf_memobj.o(i.nrf_memobj_get)
    i.nrf_memobj_pool_init                   0x0007a646   Section        0  nrf_memobj.o(i.nrf_memobj_pool_init)
    i.nrf_memobj_put                         0x0007a64a   Section        0  nrf_memobj.o(i.nrf_memobj_put)
    i.nrf_memobj_read                        0x0007a66c   Section        0  nrf_memobj.o(i.nrf_memobj_read)
    i.nrf_memobj_write                       0x0007a678   Section        0  nrf_memobj.o(i.nrf_memobj_write)
    i.nrf_nvmc_page_erase                    0x0007a684   Section        0  nrf_nvmc.o(i.nrf_nvmc_page_erase)
    i.nrf_nvmc_write_words                   0x0007a6b4   Section        0  nrf_nvmc.o(i.nrf_nvmc_write_words)
    i.nrf_sdh_ble_app_ram_start_get          0x0007a6f8   Section        0  nrf_sdh_ble.o(i.nrf_sdh_ble_app_ram_start_get)
    i.nrf_sdh_ble_enable                     0x0007a70c   Section        0  nrf_sdh_ble.o(i.nrf_sdh_ble_enable)
    i.nrf_sdh_ble_evts_poll                  0x0007a7e4   Section        0  nrf_sdh_ble.o(i.nrf_sdh_ble_evts_poll)
    nrf_sdh_ble_evts_poll                    0x0007a7e5   Thumb Code    74  nrf_sdh_ble.o(i.nrf_sdh_ble_evts_poll)
    i.nrf_sdh_disable_request                0x0007a834   Section        0  nrf_sdh.o(i.nrf_sdh_disable_request)
    i.nrf_sdh_enable_request                 0x0007a870   Section        0  nrf_sdh.o(i.nrf_sdh_enable_request)
    i.nrf_sdh_evts_poll                      0x0007a8dc   Section        0  nrf_sdh.o(i.nrf_sdh_evts_poll)
    i.nrf_sdh_is_enabled                     0x0007a900   Section        0  nrf_sdh.o(i.nrf_sdh_is_enabled)
    i.nrf_sdh_request_continue               0x0007a90c   Section        0  nrf_sdh.o(i.nrf_sdh_request_continue)
    i.nrf_sdh_soc_evts_poll                  0x0007a928   Section        0  nrf_sdh_soc.o(i.nrf_sdh_soc_evts_poll)
    nrf_sdh_soc_evts_poll                    0x0007a929   Thumb Code    56  nrf_sdh_soc.o(i.nrf_sdh_soc_evts_poll)
    i.nrf_section_iter_init                  0x0007a964   Section        0  nrf_section_iter.o(i.nrf_section_iter_init)
    i.nrf_section_iter_item_set              0x0007a96e   Section        0  nrf_section_iter.o(i.nrf_section_iter_item_set)
    nrf_section_iter_item_set                0x0007a96f   Thumb Code    36  nrf_section_iter.o(i.nrf_section_iter_item_set)
    i.nrf_section_iter_next                  0x0007a992   Section        0  nrf_section_iter.o(i.nrf_section_iter_next)
    i.nrf_strerror_find                      0x0007a9b4   Section        0  nrf_strerror.o(i.nrf_strerror_find)
    i.nrf_strerror_get                       0x0007a9ec   Section        0  nrf_strerror.o(i.nrf_strerror_get)
    i.nrf_svc_handler_c                      0x0007aa00   Section        0  nrf_svc_handler.o(i.nrf_svc_handler_c)
    __tagsym$$used                           0x0007aa01   Number         0  nrf_svc_handler.o(i.nrf_svc_handler_c)
    i.on_ctrl_pt_write                       0x0007aa5c   Section        0  nrf_ble_dfu.o(i.on_ctrl_pt_write)
    on_ctrl_pt_write                         0x0007aa5d   Thumb Code   296  nrf_ble_dfu.o(i.on_ctrl_pt_write)
    i.on_dfu_complete                        0x0007ac20   Section        0  dfu_req_handling.o(i.on_dfu_complete)
    on_dfu_complete                          0x0007ac21   Thumb Code    82  dfu_req_handling.o(i.on_dfu_complete)
    i.on_rw_authorize_req                    0x0007acc4   Section        0  nrf_ble_dfu.o(i.on_rw_authorize_req)
    on_rw_authorize_req                      0x0007acc5   Thumb Code   142  nrf_ble_dfu.o(i.on_rw_authorize_req)
    i.on_write                               0x0007ad58   Section        0  nrf_ble_dfu.o(i.on_write)
    on_write                                 0x0007ad59   Thumb Code   110  nrf_ble_dfu.o(i.on_write)
    i.pb_dec_bytes                           0x0007adec   Section        0  pb_decode.o(i.pb_dec_bytes)
    pb_dec_bytes                             0x0007aded   Thumb Code    64  pb_decode.o(i.pb_dec_bytes)
    i.pb_dec_fixed32                         0x0007ae2c   Section        0  pb_decode.o(i.pb_dec_fixed32)
    pb_dec_fixed32                           0x0007ae2d   Thumb Code     6  pb_decode.o(i.pb_dec_fixed32)
    i.pb_dec_fixed64                         0x0007ae32   Section        0  pb_decode.o(i.pb_dec_fixed64)
    pb_dec_fixed64                           0x0007ae33   Thumb Code     6  pb_decode.o(i.pb_dec_fixed64)
    i.pb_dec_string                          0x0007ae38   Section        0  pb_decode.o(i.pb_dec_string)
    pb_dec_string                            0x0007ae39   Thumb Code    62  pb_decode.o(i.pb_dec_string)
    i.pb_dec_submessage                      0x0007ae76   Section        0  pb_decode.o(i.pb_dec_submessage)
    pb_dec_submessage                        0x0007ae77   Thumb Code    64  pb_decode.o(i.pb_dec_submessage)
    i.pb_dec_svarint                         0x0007aeb6   Section        0  pb_decode.o(i.pb_dec_svarint)
    pb_dec_svarint                           0x0007aeb7   Thumb Code    88  pb_decode.o(i.pb_dec_svarint)
    i.pb_dec_uvarint                         0x0007af0e   Section        0  pb_decode.o(i.pb_dec_uvarint)
    pb_dec_uvarint                           0x0007af0f   Thumb Code    88  pb_decode.o(i.pb_dec_uvarint)
    i.pb_dec_varint                          0x0007af66   Section        0  pb_decode.o(i.pb_dec_varint)
    pb_dec_varint                            0x0007af67   Thumb Code    90  pb_decode.o(i.pb_dec_varint)
    i.pb_decode                              0x0007afc0   Section        0  pb_decode.o(i.pb_decode)
    i.pb_decode_fixed32                      0x0007afde   Section        0  pb_decode.o(i.pb_decode_fixed32)
    i.pb_decode_fixed64                      0x0007affe   Section        0  pb_decode.o(i.pb_decode_fixed64)
    i.pb_decode_noinit                       0x0007b05c   Section        0  pb_decode.o(i.pb_decode_noinit)
    i.pb_decode_svarint                      0x0007b1e2   Section        0  pb_decode.o(i.pb_decode_svarint)
    i.pb_decode_tag                          0x0007b21c   Section        0  pb_decode.o(i.pb_decode_tag)
    i.pb_decode_varint                       0x0007b25e   Section        0  pb_decode.o(i.pb_decode_varint)
    i.pb_decode_varint32                     0x0007b2a8   Section        0  pb_decode.o(i.pb_decode_varint32)
    pb_decode_varint32                       0x0007b2a9   Thumb Code    76  pb_decode.o(i.pb_decode_varint32)
    i.pb_decoding_callback                   0x0007b2f4   Section        0  dfu_req_handling.o(i.pb_decoding_callback)
    pb_decoding_callback                     0x0007b2f5   Thumb Code    42  dfu_req_handling.o(i.pb_decoding_callback)
    i.pb_field_iter_begin                    0x0007b34c   Section        0  pb_common.o(i.pb_field_iter_begin)
    i.pb_field_iter_find                     0x0007b36e   Section        0  pb_common.o(i.pb_field_iter_find)
    i.pb_field_iter_next                     0x0007b39c   Section        0  pb_common.o(i.pb_field_iter_next)
    i.pb_field_set_to_default                0x0007b41c   Section        0  pb_decode.o(i.pb_field_set_to_default)
    pb_field_set_to_default                  0x0007b41d   Thumb Code   164  pb_decode.o(i.pb_field_set_to_default)
    i.pb_istream_from_buffer                 0x0007b4c0   Section        0  pb_decode.o(i.pb_istream_from_buffer)
    i.pb_make_string_substream               0x0007b4d4   Section        0  pb_decode.o(i.pb_make_string_substream)
    i.pb_message_set_to_defaults             0x0007b50a   Section        0  pb_decode.o(i.pb_message_set_to_defaults)
    pb_message_set_to_defaults               0x0007b50b   Thumb Code    38  pb_decode.o(i.pb_message_set_to_defaults)
    i.pb_read                                0x0007b530   Section        0  pb_decode.o(i.pb_read)
    i.pb_readbyte                            0x0007b588   Section        0  pb_decode.o(i.pb_readbyte)
    pb_readbyte                              0x0007b589   Thumb Code    32  pb_decode.o(i.pb_readbyte)
    i.pb_skip_field                          0x0007b5a8   Section        0  pb_decode.o(i.pb_skip_field)
    i.postfix_process                        0x0007b604   Section        0  nrf_log_str_formatter.o(i.postfix_process)
    postfix_process                          0x0007b605   Thumb Code    48  nrf_log_str_formatter.o(i.postfix_process)
    i.prefix_process                         0x0007b640   Section        0  nrf_log_str_formatter.o(i.prefix_process)
    prefix_process                           0x0007b641   Thumb Code    72  nrf_log_str_formatter.o(i.prefix_process)
    i.queue_process                          0x0007b69c   Section        0  nrf_fstorage_sd.o(i.queue_process)
    queue_process                            0x0007b69d   Thumb Code   136  nrf_fstorage_sd.o(i.queue_process)
    i.queue_start                            0x0007b730   Section        0  nrf_fstorage_sd.o(i.queue_start)
    queue_start                              0x0007b731   Thumb Code    36  nrf_fstorage_sd.o(i.queue_start)
    i.read                                   0x0007b758   Section        0  nrf_fstorage_nvmc.o(i.read)
    read                                     0x0007b759   Thumb Code    14  nrf_fstorage_nvmc.o(i.read)
    i.read                                   0x0007b766   Section        0  nrf_fstorage_sd.o(i.read)
    read                                     0x0007b767   Thumb Code    14  nrf_fstorage_sd.o(i.read)
    i.read_raw_value                         0x0007b774   Section        0  pb_decode.o(i.read_raw_value)
    read_raw_value                           0x0007b775   Thumb Code    98  pb_decode.o(i.read_raw_value)
    i.reset_device                           0x0007b7d8   Section        0  dfu_req_handling.o(i.reset_device)
    reset_device                             0x0007b7d9   Thumb Code    96  dfu_req_handling.o(i.reset_device)
    i.reset_device_callback                  0x0007b898   Section        0  nrf_dfu_utils.o(i.reset_device_callback)
    reset_device_callback                    0x0007b899   Thumb Code    70  nrf_dfu_utils.o(i.reset_device_callback)
    i.response_crc_cmd_send                  0x0007b908   Section        0  nrf_ble_dfu.o(i.response_crc_cmd_send)
    response_crc_cmd_send                    0x0007b909   Thumb Code   100  nrf_ble_dfu.o(i.response_crc_cmd_send)
    i.response_select_object_cmd_send        0x0007b9b0   Section        0  nrf_ble_dfu.o(i.response_select_object_cmd_send)
    response_select_object_cmd_send          0x0007b9b1   Thumb Code   116  nrf_ble_dfu.o(i.response_select_object_cmd_send)
    i.response_send                          0x0007ba34   Section        0  nrf_ble_dfu.o(i.response_send)
    response_send                            0x0007ba35   Thumb Code   102  nrf_ble_dfu.o(i.response_send)
    i.rmap                                   0x0007bacc   Section        0  nrf_fstorage_nvmc.o(i.rmap)
    rmap                                     0x0007bacd   Thumb Code     4  nrf_fstorage_nvmc.o(i.rmap)
    i.rmap                                   0x0007bad0   Section        0  nrf_fstorage_sd.o(i.rmap)
    rmap                                     0x0007bad1   Thumb Code     4  nrf_fstorage_sd.o(i.rmap)
    i.rtc1_stop                              0x0007bad4   Section        0  app_timer.o(i.rtc1_stop)
    rtc1_stop                                0x0007bad5   Thumb Code    52  app_timer.o(i.rtc1_stop)
    i.sd_nvic_SetPriority                    0x0007bb10   Section        0  nrf_sdh.o(i.sd_nvic_SetPriority)
    sd_nvic_SetPriority                      0x0007bb11   Thumb Code    66  nrf_sdh.o(i.sd_nvic_SetPriority)
    i.sd_state_evt_handler                   0x0007bb54   Section        0  nrf_drv_clock.o(i.sd_state_evt_handler)
    sd_state_evt_handler                     0x0007bb55   Thumb Code    80  nrf_drv_clock.o(i.sd_state_evt_handler)
    i.sdh_request_observer_notify            0x0007bba8   Section        0  nrf_sdh.o(i.sdh_request_observer_notify)
    sdh_request_observer_notify              0x0007bba9   Thumb Code    44  nrf_sdh.o(i.sdh_request_observer_notify)
    i.sdh_state_observer_notify              0x0007bbd8   Section        0  nrf_sdh.o(i.sdh_state_observer_notify)
    sdh_state_observer_notify                0x0007bbd9   Thumb Code    38  nrf_sdh.o(i.sdh_state_observer_notify)
    i.send_hvx                               0x0007bc04   Section        0  nrf_ble_dfu.o(i.send_hvx)
    send_hvx                                 0x0007bc05   Thumb Code    36  nrf_ble_dfu.o(i.send_hvx)
    i.serial_tx                              0x0007bc2c   Section        0  nrf_log_backend_rtt.o(i.serial_tx)
    serial_tx                                0x0007bc2d   Thumb Code    42  nrf_log_backend_rtt.o(i.serial_tx)
    i.sha256_final                           0x0007bc56   Section        0  sha256.o(i.sha256_final)
    i.sha256_init                            0x0007bd68   Section        0  sha256.o(i.sha256_init)
    i.sha256_transform                       0x0007bdbc   Section        0  sha256.o(i.sha256_transform)
    i.sha256_update                          0x0007bee8   Section        0  sha256.o(i.sha256_update)
    i.soc_evt_handler                        0x0007bf3c   Section        0  nrf_drv_clock.o(i.soc_evt_handler)
    soc_evt_handler                          0x0007bf3d   Thumb Code    10  nrf_drv_clock.o(i.soc_evt_handler)
    i.softdevice_evt_irq_disable             0x0007bf48   Section        0  nrf_sdh.o(i.softdevice_evt_irq_disable)
    softdevice_evt_irq_disable               0x0007bf49   Thumb Code    52  nrf_sdh.o(i.softdevice_evt_irq_disable)
    i.softdevices_evt_irq_enable             0x0007bf80   Section        0  nrf_sdh.o(i.softdevices_evt_irq_enable)
    softdevices_evt_irq_enable               0x0007bf81   Thumb Code    72  nrf_sdh.o(i.softdevices_evt_irq_enable)
    i.std_n                                  0x0007bfd0   Section        0  nrf_log_frontend.o(i.std_n)
    std_n                                    0x0007bfd1   Thumb Code   140  nrf_log_frontend.o(i.std_n)
    i.timer_list_handler                     0x0007c060   Section        0  app_timer.o(i.timer_list_handler)
    timer_list_handler                       0x0007c061   Thumb Code   122  app_timer.o(i.timer_list_handler)
    i.timer_list_insert                      0x0007c0e0   Section        0  app_timer.o(i.timer_list_insert)
    timer_list_insert                        0x0007c0e1   Thumb Code    56  app_timer.o(i.timer_list_insert)
    i.timer_list_remove                      0x0007c11c   Section        0  app_timer.o(i.timer_list_remove)
    timer_list_remove                        0x0007c11d   Thumb Code    88  app_timer.o(i.timer_list_remove)
    i.timer_stop_op_schedule                 0x0007c17c   Section        0  app_timer.o(i.timer_stop_op_schedule)
    timer_stop_op_schedule                   0x0007c17d   Thumb Code    68  app_timer.o(i.timer_stop_op_schedule)
    i.timer_timeouts_check                   0x0007c1c4   Section        0  app_timer.o(i.timer_timeouts_check)
    timer_timeouts_check                     0x0007c1c5   Thumb Code   106  app_timer.o(i.timer_timeouts_check)
    i.uint32_encode                          0x0007c238   Section        0  nrf_ble_dfu.o(i.uint32_encode)
    uint32_encode                            0x0007c239   Thumb Code    18  nrf_ble_dfu.o(i.uint32_encode)
    i.uninit                                 0x0007c24c   Section        0  nrf_fstorage_nvmc.o(i.uninit)
    uninit                                   0x0007c24d   Thumb Code    12  nrf_fstorage_nvmc.o(i.uninit)
    i.uninit                                 0x0007c25c   Section        0  nrf_fstorage_sd.o(i.uninit)
    uninit                                   0x0007c25d   Thumb Code    22  nrf_fstorage_sd.o(i.uninit)
    i.unsigned_print                         0x0007c27c   Section        0  nrf_fprintf_format.o(i.unsigned_print)
    unsigned_print                           0x0007c27d   Thumb Code   176  nrf_fprintf_format.o(i.unsigned_print)
    i.user_op_alloc                          0x0007c330   Section        0  app_timer.o(i.user_op_alloc)
    user_op_alloc                            0x0007c331   Thumb Code    42  app_timer.o(i.user_op_alloc)
    i.wmap                                   0x0007c360   Section        0  nrf_fstorage_nvmc.o(i.wmap)
    wmap                                     0x0007c361   Thumb Code     4  nrf_fstorage_nvmc.o(i.wmap)
    i.wmap                                   0x0007c364   Section        0  nrf_fstorage_sd.o(i.wmap)
    wmap                                     0x0007c365   Thumb Code     4  nrf_fstorage_sd.o(i.wmap)
    i.write                                  0x0007c368   Section        0  nrf_fstorage_nvmc.o(i.write)
    write                                    0x0007c369   Thumb Code    62  nrf_fstorage_nvmc.o(i.write)
    i.write                                  0x0007c3ac   Section        0  nrf_fstorage_sd.o(i.write)
    write                                    0x0007c3ad   Thumb Code    74  nrf_fstorage_sd.o(i.write)
    .constdata                               0x0007c3fc   Section        1  dfu-cc.pb.o(.constdata)
    .constdata                               0x0007c400   Section       36  dfu-cc.pb.o(.constdata)
    .constdata                               0x0007c424   Section      120  dfu-cc.pb.o(.constdata)
    .constdata                               0x0007c49c   Section       24  dfu-cc.pb.o(.constdata)
    .constdata                               0x0007c4b4   Section       48  dfu-cc.pb.o(.constdata)
    .constdata                               0x0007c4e4   Section       48  dfu-cc.pb.o(.constdata)
    .constdata                               0x0007c514   Section       36  dfu-cc.pb.o(.constdata)
    .constdata                               0x0007c538   Section       64  dfu_public_key.o(.constdata)
    .constdata                               0x0007c578   Section       12  dfu_req_handling.o(.constdata)
    m_reset_timer                            0x0007c580   Data           4  dfu_req_handling.o(.constdata)
    .constdata                               0x0007c584   Section       40  nrf_ble_dfu.o(.constdata)
    .constdata                               0x0007c5ac   Section        4  nrf_dfu.o(.constdata)
    .constdata                               0x0007c5b0   Section       64  nrf_dfu_mbr.o(.constdata)
    .constdata                               0x0007c5f0   Section        4  nrf_dfu_utils.o(.constdata)
    .constdata                               0x0007c5f4   Section        8  nrf_crypto_sw_hash.o(.constdata)
    .constdata                               0x0007c5fc   Section       16  nrf_fprintf_format.o(.constdata)
    _aV2C                                    0x0007c5fc   Data          16  nrf_fprintf_format.o(.constdata)
    .constdata                               0x0007c60c   Section       12  nrf_fstorage_nvmc.o(.constdata)
    m_flash_info                             0x0007c60c   Data          12  nrf_fstorage_nvmc.o(.constdata)
    .constdata                               0x0007c618   Section       32  nrf_fstorage_nvmc.o(.constdata)
    .constdata                               0x0007c638   Section       16  nrf_fstorage_sd.o(.constdata)
    m_fifo                                   0x0007c638   Data           4  nrf_fstorage_sd.o(.constdata)
    m_flash_info                             0x0007c63c   Data          12  nrf_fstorage_sd.o(.constdata)
    .constdata                               0x0007c648   Section       32  nrf_fstorage_sd.o(.constdata)
    .constdata                               0x0007c668   Section      260  nrf_strerror.o(.constdata)
    m_unknown_str                            0x0007c668   Data          19  nrf_strerror.o(.constdata)
    nrf_strerror_array                       0x0007c67c   Data         240  nrf_strerror.o(.constdata)
    .constdata                               0x0007c76c   Section      256  sha256.o(.constdata)
    k                                        0x0007c76c   Data         256  sha256.o(.constdata)
    .constdata                               0x0007c86c   Section       12  nrf_log_backend_rtt.o(.constdata)
    .constdata                               0x0007c878   Section       20  nrf_log_frontend.o(.constdata)
    mempool                                  0x0007c878   Data          20  nrf_log_frontend.o(.constdata)
    .constdata                               0x0007c88c   Section       16  nrf_sdh.o(.constdata)
    sdh_req_observers_array                  0x0007c88c   Data          16  nrf_sdh.o(.constdata)
    .constdata                               0x0007c89c   Section       40  nrf_sdh.o(.constdata)
    sdh_req_observers                        0x0007c8a0   Data          12  nrf_sdh.o(.constdata)
    sdh_state_observers                      0x0007c8ac   Data          12  nrf_sdh.o(.constdata)
    sdh_stack_observers                      0x0007c8b8   Data          12  nrf_sdh.o(.constdata)
    .constdata                               0x0007c8c4   Section       16  nrf_sdh.o(.constdata)
    sdh_state_observers_array                0x0007c8c4   Data          16  nrf_sdh.o(.constdata)
    .constdata                               0x0007c8d4   Section       16  nrf_sdh.o(.constdata)
    sdh_stack_observers_array                0x0007c8d4   Data          16  nrf_sdh.o(.constdata)
    .constdata                               0x0007c8e4   Section       32  nrf_sdh_ble.o(.constdata)
    sdh_ble_observers_array                  0x0007c8e4   Data          32  nrf_sdh_ble.o(.constdata)
    .constdata                               0x0007c904   Section       16  nrf_sdh_ble.o(.constdata)
    sdh_ble_observers                        0x0007c908   Data          12  nrf_sdh_ble.o(.constdata)
    .constdata                               0x0007c914   Section       16  nrf_sdh_soc.o(.constdata)
    sdh_soc_observers_array                  0x0007c914   Data          16  nrf_sdh_soc.o(.constdata)
    .constdata                               0x0007c924   Section       12  nrf_sdh_soc.o(.constdata)
    sdh_soc_observers                        0x0007c924   Data          12  nrf_sdh_soc.o(.constdata)
    .constdata                               0x0007c930   Section       36  pb_decode.o(.constdata)
    PB_DECODERS                              0x0007c930   Data          36  pb_decode.o(.constdata)
    .constdata                               0x0007c954   Section      129  ctype_o.o(.constdata)
    .constdata                               0x0007c9d8   Section        4  ctype_o.o(.constdata)
    table                                    0x0007c9d8   Data           4  ctype_o.o(.constdata)
    .conststring                             0x0007c9dc   Section      253  dfu_req_handling.o(.conststring)
    .conststring                             0x0007cadc   Section      161  nrf_ble_dfu.o(.conststring)
    .conststring                             0x0007cb80   Section      137  nrf_dfu_utils.o(.conststring)
    .conststring                             0x0007cc0c   Section      775  nrf_strerror.o(.conststring)
    .conststring                             0x0007cf14   Section      102  nrf_log_str_formatter.o(.conststring)
    .conststrlit                             0x0007cf7c   Section       17  dfu_req_handling.o(.conststrlit)
    .conststrlit                             0x0007cf90   Section       14  nrf_dfu_flash.o(.conststrlit)
    .conststrlit                             0x0007cfa0   Section       17  nrf_dfu_settings.o(.conststrlit)
    .conststrlit                             0x0007cfb4   Section       22  nrf_dfu_settings_svci.o(.conststrlit)
    .conststrlit                             0x0007cfcc   Section        6  nrf_drv_clock.o(.conststrlit)
    .conststrlit                             0x0007cfd4   Section        9  mem_manager.o(.conststrlit)
    .conststrlit                             0x0007cfe0   Section        7  nrf_balloc.o(.conststrlit)
    .conststrlit                             0x0007cfe8   Section        4  nrf_log_frontend.o(.conststrlit)
    .conststrlit                             0x0007cfec   Section        8  nrf_sdh.o(.conststrlit)
    .conststrlit                             0x0007cff4   Section       12  nrf_sdh_ble.o(.conststrlit)
    .conststrlit                             0x0007d000   Section       12  nrf_sdh_soc.o(.conststrlit)
    [Anonymous Symbol]                       0x0007d00c   Section        0  micro_ecc_lib_uECC.c.o(.rodata.curve_secp256r1)
    curve_secp256r1                          0x0007d00c   Data         176  micro_ecc_lib_uECC.c.o(.rodata.curve_secp256r1)
    dfu_trans                                0x0007d0dc   Section        8  nrf_ble_dfu.o(dfu_trans)
    __tagsym$$used                           0x0007d0dc   Number         0  nrf_ble_dfu.o(dfu_trans)
    log_const_data                           0x0007d0e4   Section        8  dfu_req_handling.o(log_const_data)
    __tagsym$$used                           0x0007d0e4   Number         0  dfu_req_handling.o(log_const_data)
    log_const_data                           0x0007d0ec   Section        8  nrf_dfu_flash.o(log_const_data)
    __tagsym$$used                           0x0007d0ec   Number         0  nrf_dfu_flash.o(log_const_data)
    log_const_data                           0x0007d0f4   Section        8  nrf_dfu_settings.o(log_const_data)
    __tagsym$$used                           0x0007d0f4   Number         0  nrf_dfu_settings.o(log_const_data)
    log_const_data                           0x0007d0fc   Section        8  nrf_dfu_settings_svci.o(log_const_data)
    __tagsym$$used                           0x0007d0fc   Number         0  nrf_dfu_settings_svci.o(log_const_data)
    log_const_data                           0x0007d104   Section        8  nrf_drv_clock.o(log_const_data)
    __tagsym$$used                           0x0007d104   Number         0  nrf_drv_clock.o(log_const_data)
    log_const_data                           0x0007d10c   Section        8  mem_manager.o(log_const_data)
    __tagsym$$used                           0x0007d10c   Number         0  mem_manager.o(log_const_data)
    log_const_data                           0x0007d114   Section        8  nrf_balloc.o(log_const_data)
    __tagsym$$used                           0x0007d114   Number         0  nrf_balloc.o(log_const_data)
    log_const_data                           0x0007d11c   Section        8  nrf_log_frontend.o(log_const_data)
    __tagsym$$used                           0x0007d11c   Number         0  nrf_log_frontend.o(log_const_data)
    log_const_data                           0x0007d124   Section        8  nrf_sdh.o(log_const_data)
    __tagsym$$used                           0x0007d124   Number         0  nrf_sdh.o(log_const_data)
    log_const_data                           0x0007d12c   Section        8  nrf_sdh_ble.o(log_const_data)
    __tagsym$$used                           0x0007d12c   Number         0  nrf_sdh_ble.o(log_const_data)
    log_const_data                           0x0007d134   Section        8  nrf_sdh_soc.o(log_const_data)
    __tagsym$$used                           0x0007d134   Number         0  nrf_sdh_soc.o(log_const_data)
    sdh_ble_observers2                       0x0007d13c   Section        8  nrf_ble_dfu.o(sdh_ble_observers2)
    __tagsym$$used                           0x0007d13c   Number         0  nrf_ble_dfu.o(sdh_ble_observers2)
    m_ble_evt_observer                       0x0007d13c   Data           8  nrf_ble_dfu.o(sdh_ble_observers2)
    sdh_req_observers0                       0x0007d144   Section        8  nrf_fstorage_sd.o(sdh_req_observers0)
    __tagsym$$used                           0x0007d144   Number         0  nrf_fstorage_sd.o(sdh_req_observers0)
    sdh_soc_observers0                       0x0007d14c   Section        8  nrf_drv_clock.o(sdh_soc_observers0)
    __tagsym$$used                           0x0007d14c   Number         0  nrf_drv_clock.o(sdh_soc_observers0)
    m_soc_evt_observer                       0x0007d14c   Data           8  nrf_drv_clock.o(sdh_soc_observers0)
    sdh_soc_observers0                       0x0007d154   Section        8  nrf_fstorage_sd.o(sdh_soc_observers0)
    __tagsym$$used                           0x0007d154   Number         0  nrf_fstorage_sd.o(sdh_soc_observers0)
    m_sys_obs                                0x0007d154   Data           8  nrf_fstorage_sd.o(sdh_soc_observers0)
    sdh_stack_observers0                     0x0007d15c   Section        8  nrf_sdh_ble.o(sdh_stack_observers0)
    __tagsym$$used                           0x0007d15c   Number         0  nrf_sdh_ble.o(sdh_stack_observers0)
    m_nrf_sdh_ble_evts_poll                  0x0007d15c   Data           8  nrf_sdh_ble.o(sdh_stack_observers0)
    sdh_stack_observers0                     0x0007d164   Section        8  nrf_sdh_soc.o(sdh_stack_observers0)
    __tagsym$$used                           0x0007d164   Number         0  nrf_sdh_soc.o(sdh_stack_observers0)
    m_nrf_sdh_soc_evts_poll                  0x0007d164   Data           8  nrf_sdh_soc.o(sdh_stack_observers0)
    sdh_state_observers0                     0x0007d16c   Section        8  nrf_drv_clock.o(sdh_state_observers0)
    __tagsym$$used                           0x0007d16c   Number         0  nrf_drv_clock.o(sdh_state_observers0)
    m_sd_state_observer                      0x0007d16c   Data           8  nrf_drv_clock.o(sdh_state_observers0)
    sdh_state_observers0                     0x0007d174   Section        8  nrf_fstorage_sd.o(sdh_state_observers0)
    __tagsym$$used                           0x0007d174   Number         0  nrf_fstorage_sd.o(sdh_state_observers0)
    m_state_obs                              0x0007d174   Data           8  nrf_fstorage_sd.o(sdh_state_observers0)
    svc_data                                 0x0007d17c   Section       12  nrf_dfu_svci_handler.o(svc_data)
    __tagsym$$used                           0x0007d17c   Number         0  nrf_dfu_svci_handler.o(svc_data)
    .ARM.__AT_0x0007E000                     0x0007e000   Section     4096  nrf_dfu_settings.o(.ARM.__AT_0x0007E000)
    __tagsym$$used                           0x0007e000   Number         0  nrf_dfu_settings.o(.ARM.__AT_0x0007E000)
    .ARM.__AT_0x0007F000                     0x0007f000   Section     4096  nrf_dfu_settings.o(.ARM.__AT_0x0007F000)
    __tagsym$$used                           0x0007f000   Number         0  nrf_dfu_settings.o(.ARM.__AT_0x0007F000)
    .ARM.__AT_0x10001014                     0x10001014   Section        4  nrf_bootloader_info.o(.ARM.__AT_0x10001014)
    .ARM.__AT_0x10001018                     0x10001018   Section        4  nrf_dfu_settings.o(.ARM.__AT_0x10001018)
    .data                                    0x20002830   Section       56  dfu_req_handling.o(.data)
    timer_started                            0x20002830   Data           1  dfu_req_handling.o(.data)
    cur_obj_type                             0x20002831   Data           1  dfu_req_handling.o(.data)
    m_current_data_buffer                    0x20002832   Data           1  dfu_req_handling.o(.data)
    m_valid_init_packet_present              0x20002833   Data           1  dfu_req_handling.o(.data)
    m_is_dfu_complete_response_sent          0x20002834   Data           1  dfu_req_handling.o(.data)
    m_dfu_last_settings_write_started        0x20002835   Data           1  dfu_req_handling.o(.data)
    m_data_buf_pos                           0x20002836   Data           2  dfu_req_handling.o(.data)
    m_firmware_start_addr                    0x20002838   Data           4  dfu_req_handling.o(.data)
    m_firmware_size_req                      0x2000283c   Data           4  dfu_req_handling.o(.data)
    init_packet_data                         0x20002840   Data           8  dfu_req_handling.o(.data)
    crypto_key_pk                            0x20002848   Data           8  dfu_req_handling.o(.data)
    crypto_sig                               0x20002850   Data           8  dfu_req_handling.o(.data)
    init_packet_hash                         0x20002858   Data           8  dfu_req_handling.o(.data)
    fw_hash                                  0x20002860   Data           8  dfu_req_handling.o(.data)
    .data                                    0x20002868   Section       12  nrf_ble_dfu.o(.data)
    m_conn_handle                            0x20002868   Data           2  nrf_ble_dfu.o(.data)
    m_pkt_notif_target                       0x2000286a   Data           2  nrf_ble_dfu.o(.data)
    m_pkt_notif_target_cnt                   0x2000286c   Data           2  nrf_ble_dfu.o(.data)
    m_flags                                  0x20002870   Data           4  nrf_ble_dfu.o(.data)
    .data                                    0x20002874   Section        4  nrf_dfu_flash.o(.data)
    m_flash_operations_pending               0x20002874   Data           4  nrf_dfu_flash.o(.data)
    .data                                    0x20002878   Section        1  nrf_dfu_handling_error.o(.data)
    m_last_error                             0x20002878   Data           1  nrf_dfu_handling_error.o(.data)
    .data                                    0x2000287c   Section       16  app_scheduler.o(.data)
    m_queue_start_index                      0x2000287c   Data           1  app_scheduler.o(.data)
    m_queue_end_index                        0x2000287d   Data           1  app_scheduler.o(.data)
    m_queue_event_size                       0x2000287e   Data           2  app_scheduler.o(.data)
    m_queue_size                             0x20002880   Data           2  app_scheduler.o(.data)
    m_queue_event_headers                    0x20002884   Data           4  app_scheduler.o(.data)
    m_queue_event_data                       0x20002888   Data           4  app_scheduler.o(.data)
    .data                                    0x2000288c   Section       20  app_timer.o(.data)
    m_ticks_elapsed_q_read_ind               0x2000288c   Data           1  app_timer.o(.data)
    m_ticks_elapsed_q_write_ind              0x2000288d   Data           1  app_timer.o(.data)
    m_rtc1_running                           0x2000288e   Data           1  app_timer.o(.data)
    m_rtc1_reset                             0x2000288f   Data           1  app_timer.o(.data)
    mp_timer_id_head                         0x20002890   Data           4  app_timer.o(.data)
    m_ticks_latest                           0x20002894   Data           4  app_timer.o(.data)
    m_ticks_elapsed                          0x20002898   Data           8  app_timer.o(.data)
    .data                                    0x200028a0   Section        4  nrf_fstorage_nvmc.o(.data)
    m_flash_operation_ongoing                0x200028a0   Data           4  nrf_fstorage_nvmc.o(.data)
    .data                                    0x200028a4   Section        8  nrf_fstorage_sd.o(.data)
    m_p_cur_op                               0x200028a4   Data           4  nrf_fstorage_sd.o(.data)
    m_iget_ctx                               0x200028a8   Data           4  nrf_fstorage_sd.o(.data)
    .data                                    0x200028ac   Section       12  nrf_log_default_backends.o(.data)
    rtt_log_backend                          0x200028ac   Data          12  nrf_log_default_backends.o(.data)
    .data                                    0x200028b8   Section        8  nrf_log_frontend.o(.data)
    mempool_nrf_balloc_pool_stack            0x200028b8   Data           8  nrf_log_frontend.o(.data)
    .data                                    0x200028c0   Section        8  nrf_log_frontend.o(.data)
    mempool_nrf_balloc_cb                    0x200028c0   Data           8  nrf_log_frontend.o(.data)
    .data                                    0x200028c8   Section       56  nrf_log_str_formatter.o(.data)
    severity_names                           0x200028c8   Data          20  nrf_log_str_formatter.o(.data)
    m_colors                                 0x200028dc   Data          36  nrf_log_str_formatter.o(.data)
    .data                                    0x20002900   Section        3  nrf_sdh.o(.data)
    m_nrf_sdh_enabled                        0x20002900   Data           1  nrf_sdh.o(.data)
    m_nrf_sdh_suspended                      0x20002901   Data           1  nrf_sdh.o(.data)
    m_nrf_sdh_continue                       0x20002902   Data           1  nrf_sdh.o(.data)
    .data                                    0x20002904   Section        4  system_nrf52.o(.data)
    __tagsym$$used                           0x20002904   Number         0  system_nrf52.o(.data)
    fs_data                                  0x20002908   Section       20  nrf_dfu_flash.o(fs_data)
    __tagsym$$used                           0x20002908   Number         0  nrf_dfu_flash.o(fs_data)
    log_dynamic_data                         0x2000291c   Section       12  dfu_req_handling.o(log_dynamic_data)
    __tagsym$$used                           0x2000291c   Number         0  dfu_req_handling.o(log_dynamic_data)
    log_dynamic_data                         0x20002928   Section       12  nrf_dfu_flash.o(log_dynamic_data)
    __tagsym$$used                           0x20002928   Number         0  nrf_dfu_flash.o(log_dynamic_data)
    log_dynamic_data                         0x20002934   Section       12  nrf_dfu_settings.o(log_dynamic_data)
    __tagsym$$used                           0x20002934   Number         0  nrf_dfu_settings.o(log_dynamic_data)
    log_dynamic_data                         0x20002940   Section       12  nrf_dfu_settings_svci.o(log_dynamic_data)
    __tagsym$$used                           0x20002940   Number         0  nrf_dfu_settings_svci.o(log_dynamic_data)
    log_dynamic_data                         0x2000294c   Section       12  nrf_drv_clock.o(log_dynamic_data)
    __tagsym$$used                           0x2000294c   Number         0  nrf_drv_clock.o(log_dynamic_data)
    log_dynamic_data                         0x20002958   Section       12  mem_manager.o(log_dynamic_data)
    __tagsym$$used                           0x20002958   Number         0  mem_manager.o(log_dynamic_data)
    log_dynamic_data                         0x20002964   Section       12  nrf_balloc.o(log_dynamic_data)
    __tagsym$$used                           0x20002964   Number         0  nrf_balloc.o(log_dynamic_data)
    log_dynamic_data                         0x20002970   Section       12  nrf_log_frontend.o(log_dynamic_data)
    __tagsym$$used                           0x20002970   Number         0  nrf_log_frontend.o(log_dynamic_data)
    log_dynamic_data                         0x2000297c   Section       12  nrf_sdh.o(log_dynamic_data)
    __tagsym$$used                           0x2000297c   Number         0  nrf_sdh.o(log_dynamic_data)
    log_dynamic_data                         0x20002988   Section       12  nrf_sdh_ble.o(log_dynamic_data)
    __tagsym$$used                           0x20002988   Number         0  nrf_sdh_ble.o(log_dynamic_data)
    log_dynamic_data                         0x20002994   Section       12  nrf_sdh_soc.o(log_dynamic_data)
    __tagsym$$used                           0x20002994   Number         0  nrf_sdh_soc.o(log_dynamic_data)
    .bss                                     0x200029a0   Section      924  dfu_req_handling.o(.bss)
    packet                                   0x200029a0   Data         396  dfu_req_handling.o(.bss)
    m_data_buf                               0x20002b2c   Data         512  dfu_req_handling.o(.bss)
    stream                                   0x20002d2c   Data          16  dfu_req_handling.o(.bss)
    .bss                                     0x20002d3c   Section       32  dfu_req_handling.o(.bss)
    m_reset_timer_data                       0x20002d3c   Data          32  dfu_req_handling.o(.bss)
    .bss                                     0x20002d5c   Section       64  dfu_req_handling.o(.bss)
    crypto_sig_buffer                        0x20002d5c   Data          64  dfu_req_handling.o(.bss)
    .bss                                     0x20002d9c   Section       32  dfu_req_handling.o(.bss)
    init_packet_hash_buffer                  0x20002d9c   Data          32  dfu_req_handling.o(.bss)
    .bss                                     0x20002dbc   Section       32  dfu_req_handling.o(.bss)
    fw_hash_buffer                           0x20002dbc   Data          32  dfu_req_handling.o(.bss)
    .bss                                     0x20002ddc   Section       68  nrf_ble_dfu.o(.bss)
    m_dfu                                    0x20002ddc   Data          20  nrf_ble_dfu.o(.bss)
    m_notif_buffer                           0x20002df0   Data          17  nrf_ble_dfu.o(.bss)
    m_adv_name                               0x20002e04   Data          28  nrf_ble_dfu.o(.bss)
    .bss                                     0x20002e20   Section       32  nrf_dfu.o(.bss)
    nrf_dfu_inactivity_timeout_timer         0x20002e20   Data          32  nrf_dfu.o(.bss)
    .bss                                     0x20002e40   Section      272  nrf_dfu.o(.bss)
    APP_SCHED_BUF                            0x20002e40   Data         272  nrf_dfu.o(.bss)
    .bss                                     0x20002f50   Section      880  nrf_dfu_settings.o(.bss)
    temp_dfu_settings                        0x20002f50   Data         440  nrf_dfu_settings.o(.bss)
    .bss                                     0x200032c0   Section       32  nrf_dfu_utils.o(.bss)
    nrf_dfu_post_sd_bl_timeout_timer         0x200032c0   Data          32  nrf_dfu_utils.o(.bss)
    .bss                                     0x200032e0   Section       20  nrf_drv_clock.o(.bss)
    m_clock_cb                               0x200032e0   Data          20  nrf_drv_clock.o(.bss)
    .bss                                     0x200032f4   Section      268  app_timer.o(.bss)
    m_op_queue                               0x200032f4   Data         268  app_timer.o(.bss)
    .bss                                     0x20003400   Section       12  app_util_platform.o(.bss)
    .bss                                     0x2000340c   Section      272  nrf_fstorage_sd.o(.bss)
    m_fifo_data                              0x2000340c   Data         252  nrf_fstorage_sd.o(.bss)
    m_flags                                  0x20003508   Data          20  nrf_fstorage_sd.o(.bss)
    .bss                                     0x2000351c   Section       16  nrf_fstorage_sd.o(.bss)
    m_fifo_inst                              0x2000351c   Data          16  nrf_fstorage_sd.o(.bss)
    .bss                                     0x2000352c   Section       64  nrf_log_backend_rtt.o(.bss)
    m_string_buff                            0x2000352c   Data          64  nrf_log_backend_rtt.o(.bss)
    .bss                                     0x2000356c   Section      192  nrf_log_frontend.o(.bss)
    mempool_nrf_balloc_pool_mem              0x2000356c   Data         192  nrf_log_frontend.o(.bss)
    .bss                                     0x2000362c   Section     1056  nrf_log_frontend.o(.bss)
    m_log_data                               0x2000362c   Data        1056  nrf_log_frontend.o(.bss)
    .bss                                     0x20003a4c   Section     4232  segger_rtt.o(.bss)
    _acUpBuffer                              0x20003ac4   Data        4096  segger_rtt.o(.bss)
    _acDownBuffer                            0x20004ac4   Data          16  segger_rtt.o(.bss)
    STACK                                    0x20004ad8   Section     8192  arm_startup_nrf52.o(STACK)

    Global Symbols

    Symbol Name                              Value     Ov Type        Size  Object(Section)

    BuildAttributes$$THM_ISAv4$E$P$D$K$B$S$7EM$VFPi3$EXTD16$VFPS$VFMA$PE$A:L22UL41UL21$X:L11$S22US41US21$IEEE1$IW$USESV6$~STKCKD$USESV7$~SHL$OSPACE$IEEEX$EBA8$MICROLIB$REQ8$PRES8$EABIv2 0x00000000   Number         0  anon$$obj.o ABSOLUTE
    __ARM_use_no_argv                        0x00000000   Number         0  main.o ABSOLUTE
    __use_no_errno                           0x00000000   Number         0  useno.o ABSOLUTE
    __use_no_exception_handling              0x00000000   Number         0  useno.o ABSOLUTE
    __use_no_fp                              0x00000000   Number         0  useno.o ABSOLUTE
    __use_no_heap                            0x00000000   Number         0  useno.o ABSOLUTE
    __use_no_heap_region                     0x00000000   Number         0  useno.o ABSOLUTE
    __use_no_semihosting                     0x00000000   Number         0  useno.o ABSOLUTE
    __use_no_semihosting_swi                 0x00000000   Number         0  useno.o ABSOLUTE
    __use_no_signal_handling                 0x00000000   Number         0  useno.o ABSOLUTE
    __cpp_initialize__aeabi_                  - Undefined Weak Reference
    __cxa_finalize                            - Undefined Weak Reference
    _clock_init                               - Undefined Weak Reference
    _microlib_exit                            - Undefined Weak Reference
    sdh_ble_observers0$$Base                  - Undefined Reference
    sdh_ble_observers0$$Limit                 - Undefined Reference
    sdh_ble_observers1$$Base                  - Undefined Reference
    sdh_ble_observers1$$Limit                 - Undefined Reference
    sdh_ble_observers3$$Base                  - Undefined Reference
    sdh_ble_observers3$$Limit                 - Undefined Reference
    sdh_req_observers1$$Base                  - Undefined Reference
    sdh_req_observers1$$Limit                 - Undefined Reference
    sdh_soc_observers1$$Base                  - Undefined Reference
    sdh_soc_observers1$$Limit                 - Undefined Reference
    sdh_stack_observers1$$Base                - Undefined Reference
    sdh_stack_observers1$$Limit               - Undefined Reference
    sdh_state_observers1$$Base                - Undefined Reference
    sdh_state_observers1$$Limit               - Undefined Reference
    __Vectors_Size                           0x00000200   Number         0  arm_startup_nrf52.o ABSOLUTE
    Image$$ER_IROM1$$Base                    0x00073000   Number         0  anon$$obj.o ABSOLUTE
    __Vectors                                0x00073000   Data           4  arm_startup_nrf52.o(RESET)
    __Vectors_End                            0x00073200   Data           0  arm_startup_nrf52.o(RESET)
    __main                                   0x00073201   Thumb Code     0  entry.o(.ARM.Collect$$$$00000000)
    _main_stk                                0x00073201   Thumb Code     0  entry2.o(.ARM.Collect$$$$00000001)
    _main_scatterload                        0x00073205   Thumb Code     0  entry5.o(.ARM.Collect$$$$00000004)
    __main_after_scatterload                 0x00073209   Thumb Code     0  entry5.o(.ARM.Collect$$$$00000004)
    _main_clock                              0x00073209   Thumb Code     0  entry7b.o(.ARM.Collect$$$$00000008)
    _main_cpp_init                           0x00073209   Thumb Code     0  entry8b.o(.ARM.Collect$$$$0000000A)
    _main_init                               0x00073209   Thumb Code     0  entry9a.o(.ARM.Collect$$$$0000000B)
    __rt_final_cpp                           0x00073211   Thumb Code     0  entry10a.o(.ARM.Collect$$$$0000000D)
    __rt_final_exit                          0x00073211   Thumb Code     0  entry11a.o(.ARM.Collect$$$$0000000F)
    nrf_bootloader_app_start_impl            0x00073215   Thumb Code    64  nrf_bootloader_app_start_asm.o(.emb_text)
    __asm___12_nrf_atfifo_c_51f461e1__nrf_atfifo_wspace_req 0x00073255   Thumb Code    56  nrf_atfifo.o(.emb_text)
    __asm___12_nrf_atfifo_c_51f461e1__nrf_atfifo_wspace_close 0x0007328d   Thumb Code    18  nrf_atfifo.o(.emb_text)
    __asm___12_nrf_atfifo_c_51f461e1__nrf_atfifo_rspace_req 0x0007329f   Thumb Code    58  nrf_atfifo.o(.emb_text)
    __asm___12_nrf_atfifo_c_51f461e1__nrf_atfifo_rspace_close 0x000732d9   Thumb Code    18  nrf_atfifo.o(.emb_text)
    __asm___12_nrf_atfifo_c_51f461e1__nrf_atfifo_space_clear 0x000732eb   Thumb Code    50  nrf_atfifo.o(.emb_text)
    __asm___19_nrf_fstorage_nvmc_c_c074401a__nrf_atomic_internal_mov 0x0007331d   Thumb Code    24  nrf_fstorage_nvmc.o(.emb_text)
    __asm___19_nrf_fstorage_nvmc_c_c074401a__nrf_atomic_internal_orr 0x00073335   Thumb Code    26  nrf_fstorage_nvmc.o(.emb_text)
    __asm___19_nrf_fstorage_nvmc_c_c074401a__nrf_atomic_internal_and 0x0007334f   Thumb Code    26  nrf_fstorage_nvmc.o(.emb_text)
    __asm___19_nrf_fstorage_nvmc_c_c074401a__nrf_atomic_internal_eor 0x00073369   Thumb Code    26  nrf_fstorage_nvmc.o(.emb_text)
    __asm___19_nrf_fstorage_nvmc_c_c074401a__nrf_atomic_internal_add 0x00073383   Thumb Code    26  nrf_fstorage_nvmc.o(.emb_text)
    __asm___19_nrf_fstorage_nvmc_c_c074401a__nrf_atomic_internal_sub 0x0007339d   Thumb Code    26  nrf_fstorage_nvmc.o(.emb_text)
    __asm___17_nrf_fstorage_sd_c_6e7dbfe9__nrf_atomic_internal_mov 0x000733b9   Thumb Code    24  nrf_fstorage_sd.o(.emb_text)
    __asm___17_nrf_fstorage_sd_c_6e7dbfe9__nrf_atomic_internal_orr 0x000733d1   Thumb Code    26  nrf_fstorage_sd.o(.emb_text)
    __asm___17_nrf_fstorage_sd_c_6e7dbfe9__nrf_atomic_internal_and 0x000733eb   Thumb Code    26  nrf_fstorage_sd.o(.emb_text)
    __asm___17_nrf_fstorage_sd_c_6e7dbfe9__nrf_atomic_internal_eor 0x00073405   Thumb Code    26  nrf_fstorage_sd.o(.emb_text)
    __asm___17_nrf_fstorage_sd_c_6e7dbfe9__nrf_atomic_internal_add 0x0007341f   Thumb Code    26  nrf_fstorage_sd.o(.emb_text)
    __asm___17_nrf_fstorage_sd_c_6e7dbfe9__nrf_atomic_internal_sub 0x00073439   Thumb Code    26  nrf_fstorage_sd.o(.emb_text)
    __asm___12_nrf_memobj_c_9bb9f865__nrf_atomic_internal_mov 0x00073455   Thumb Code    24  nrf_memobj.o(.emb_text)
    __asm___12_nrf_memobj_c_9bb9f865__nrf_atomic_internal_orr 0x0007346d   Thumb Code    26  nrf_memobj.o(.emb_text)
    __asm___12_nrf_memobj_c_9bb9f865__nrf_atomic_internal_and 0x00073487   Thumb Code    26  nrf_memobj.o(.emb_text)
    __asm___12_nrf_memobj_c_9bb9f865__nrf_atomic_internal_eor 0x000734a1   Thumb Code    26  nrf_memobj.o(.emb_text)
    __asm___12_nrf_memobj_c_9bb9f865__nrf_atomic_internal_add 0x000734bb   Thumb Code    26  nrf_memobj.o(.emb_text)
    __asm___12_nrf_memobj_c_9bb9f865__nrf_atomic_internal_sub 0x000734d5   Thumb Code    26  nrf_memobj.o(.emb_text)
    __asm___18_nrf_log_frontend_c_bc460776__nrf_atomic_internal_mov 0x000734f1   Thumb Code    24  nrf_log_frontend.o(.emb_text)
    __asm___18_nrf_log_frontend_c_bc460776__nrf_atomic_internal_orr 0x00073509   Thumb Code    26  nrf_log_frontend.o(.emb_text)
    __asm___18_nrf_log_frontend_c_bc460776__nrf_atomic_internal_and 0x00073523   Thumb Code    26  nrf_log_frontend.o(.emb_text)
    __asm___18_nrf_log_frontend_c_bc460776__nrf_atomic_internal_eor 0x0007353d   Thumb Code    26  nrf_log_frontend.o(.emb_text)
    __asm___18_nrf_log_frontend_c_bc460776__nrf_atomic_internal_add 0x00073557   Thumb Code    26  nrf_log_frontend.o(.emb_text)
    __asm___18_nrf_log_frontend_c_bc460776__nrf_atomic_internal_sub 0x00073571   Thumb Code    26  nrf_log_frontend.o(.emb_text)
    SVC_Handler                              0x0007358d   Thumb Code    20  nrf_svc_handler.o(.emb_text)
    Reset_Handler                            0x000735a1   Thumb Code     8  arm_startup_nrf52.o(.text)
    NMI_Handler                              0x000735a9   Thumb Code     2  arm_startup_nrf52.o(.text)
    HardFault_Handler                        0x000735ab   Thumb Code     2  arm_startup_nrf52.o(.text)
    MemoryManagement_Handler                 0x000735ad   Thumb Code     2  arm_startup_nrf52.o(.text)
    BusFault_Handler                         0x000735af   Thumb Code     2  arm_startup_nrf52.o(.text)
    UsageFault_Handler                       0x000735b1   Thumb Code     2  arm_startup_nrf52.o(.text)
    DebugMon_Handler                         0x000735b5   Thumb Code     2  arm_startup_nrf52.o(.text)
    PendSV_Handler                           0x000735b7   Thumb Code     2  arm_startup_nrf52.o(.text)
    SysTick_Handler                          0x000735b9   Thumb Code     2  arm_startup_nrf52.o(.text)
    CCM_AAR_IRQHandler                       0x000735bb   Thumb Code     0  arm_startup_nrf52.o(.text)
    COMP_LPCOMP_IRQHandler                   0x000735bb   Thumb Code     0  arm_startup_nrf52.o(.text)
    ECB_IRQHandler                           0x000735bb   Thumb Code     0  arm_startup_nrf52.o(.text)
    FPU_IRQHandler                           0x000735bb   Thumb Code     0  arm_startup_nrf52.o(.text)
    GPIOTE_IRQHandler                        0x000735bb   Thumb Code     0  arm_startup_nrf52.o(.text)
    I2S_IRQHandler                           0x000735bb   Thumb Code     0  arm_startup_nrf52.o(.text)
    MWU_IRQHandler                           0x000735bb   Thumb Code     0  arm_startup_nrf52.o(.text)
    NFCT_IRQHandler                          0x000735bb   Thumb Code     0  arm_startup_nrf52.o(.text)
    PDM_IRQHandler                           0x000735bb   Thumb Code     0  arm_startup_nrf52.o(.text)
    PWM0_IRQHandler                          0x000735bb   Thumb Code     0  arm_startup_nrf52.o(.text)
    PWM1_IRQHandler                          0x000735bb   Thumb Code     0  arm_startup_nrf52.o(.text)
    PWM2_IRQHandler                          0x000735bb   Thumb Code     0  arm_startup_nrf52.o(.text)
    QDEC_IRQHandler                          0x000735bb   Thumb Code     0  arm_startup_nrf52.o(.text)
    RADIO_IRQHandler                         0x000735bb   Thumb Code     0  arm_startup_nrf52.o(.text)
    RNG_IRQHandler                           0x000735bb   Thumb Code     0  arm_startup_nrf52.o(.text)
    RTC0_IRQHandler                          0x000735bb   Thumb Code     0  arm_startup_nrf52.o(.text)
    RTC2_IRQHandler                          0x000735bb   Thumb Code     0  arm_startup_nrf52.o(.text)
    SAADC_IRQHandler                         0x000735bb   Thumb Code     0  arm_startup_nrf52.o(.text)
    SPIM0_SPIS0_TWIM0_TWIS0_SPI0_TWI0_IRQHandler 0x000735bb   Thumb Code     0  arm_startup_nrf52.o(.text)
    SPIM1_SPIS1_TWIM1_TWIS1_SPI1_TWI1_IRQHandler 0x000735bb   Thumb Code     0  arm_startup_nrf52.o(.text)
    SPIM2_SPIS2_SPI2_IRQHandler              0x000735bb   Thumb Code     0  arm_startup_nrf52.o(.text)
    SWI1_EGU1_IRQHandler                     0x000735bb   Thumb Code     0  arm_startup_nrf52.o(.text)
    SWI3_EGU3_IRQHandler                     0x000735bb   Thumb Code     0  arm_startup_nrf52.o(.text)
    SWI4_EGU4_IRQHandler                     0x000735bb   Thumb Code     0  arm_startup_nrf52.o(.text)
    SWI5_EGU5_IRQHandler                     0x000735bb   Thumb Code     0  arm_startup_nrf52.o(.text)
    TEMP_IRQHandler                          0x000735bb   Thumb Code     0  arm_startup_nrf52.o(.text)
    TIMER0_IRQHandler                        0x000735bb   Thumb Code     0  arm_startup_nrf52.o(.text)
    TIMER1_IRQHandler                        0x000735bb   Thumb Code     0  arm_startup_nrf52.o(.text)
    TIMER2_IRQHandler                        0x000735bb   Thumb Code     0  arm_startup_nrf52.o(.text)
    TIMER3_IRQHandler                        0x000735bb   Thumb Code     0  arm_startup_nrf52.o(.text)
    TIMER4_IRQHandler                        0x000735bb   Thumb Code     0  arm_startup_nrf52.o(.text)
    UARTE0_UART0_IRQHandler                  0x000735bb   Thumb Code     0  arm_startup_nrf52.o(.text)
    WDT_IRQHandler                           0x000735bb   Thumb Code     0  arm_startup_nrf52.o(.text)
    __aeabi_llsl                             0x000735c5   Thumb Code    30  llshl.o(.text)
    _ll_shift_l                              0x000735c5   Thumb Code     0  llshl.o(.text)
    __rt_ctype_table                         0x000735e5   Thumb Code     4  ctype_o.o(.text)
    __aeabi_memcpy                           0x000735ed   Thumb Code    36  memcpya.o(.text)
    __aeabi_memcpy4                          0x000735ed   Thumb Code     0  memcpya.o(.text)
    __aeabi_memcpy8                          0x000735ed   Thumb Code     0  memcpya.o(.text)
    __aeabi_memset                           0x00073611   Thumb Code    14  memseta.o(.text)
    __aeabi_memset4                          0x00073611   Thumb Code     0  memseta.o(.text)
    __aeabi_memset8                          0x00073611   Thumb Code     0  memseta.o(.text)
    __aeabi_memclr                           0x0007361f   Thumb Code     4  memseta.o(.text)
    __aeabi_memclr4                          0x0007361f   Thumb Code     0  memseta.o(.text)
    __aeabi_memclr8                          0x0007361f   Thumb Code     0  memseta.o(.text)
    memset                                   0x00073623   Thumb Code    18  memseta.o(.text)
    strlen                                   0x00073635   Thumb Code    14  strlen.o(.text)
    memcmp                                   0x00073643   Thumb Code    26  memcmp.o(.text)
    strcpy                                   0x0007365d   Thumb Code    18  strcpy.o(.text)
    __scatterload                            0x00073671   Thumb Code    28  init.o(.text)
    __scatterload_rt2                        0x00073671   Thumb Code     0  init.o(.text)
    __decompress                             0x00073695   Thumb Code     0  __dczerorl2.o(.text)
    __decompress1                            0x00073695   Thumb Code    86  __dczerorl2.o(.text)
    uECC_secp256r1                           0x000739dd   Thumb Code     8  micro_ecc_lib_uECC.c.o(.text.uECC_secp256r1)
    uECC_verify                              0x000739e5   Thumb Code   724  micro_ecc_lib_uECC.c.o(.text.uECC_verify)
    uECC_vli_add                             0x00073cc1   Thumb Code    88  micro_ecc_lib_uECC.c.o(.text.uECC_vli_add)
    uECC_vli_clear                           0x00073d19   Thumb Code    24  micro_ecc_lib_uECC.c.o(.text.uECC_vli_clear)
    uECC_vli_equal                           0x00073d5b   Thumb Code    42  micro_ecc_lib_uECC.c.o(.text.uECC_vli_equal)
    uECC_vli_isZero                          0x00073d85   Thumb Code    30  micro_ecc_lib_uECC.c.o(.text.uECC_vli_isZero)
    uECC_vli_mmod                            0x00073da5   Thumb Code   316  micro_ecc_lib_uECC.c.o(.text.uECC_vli_mmod)
    uECC_vli_modAdd                          0x00073ee1   Thumb Code    50  micro_ecc_lib_uECC.c.o(.text.uECC_vli_modAdd)
    uECC_vli_modInv                          0x00073f13   Thumb Code   268  micro_ecc_lib_uECC.c.o(.text.uECC_vli_modInv)
    uECC_vli_modMult                         0x0007401f   Thumb Code    36  micro_ecc_lib_uECC.c.o(.text.uECC_vli_modMult)
    uECC_vli_modMult_fast                    0x00074043   Thumb Code    32  micro_ecc_lib_uECC.c.o(.text.uECC_vli_modMult_fast)
    uECC_vli_modSquare_fast                  0x00074063   Thumb Code    32  micro_ecc_lib_uECC.c.o(.text.uECC_vli_modSquare_fast)
    uECC_vli_modSub                          0x00074083   Thumb Code    36  micro_ecc_lib_uECC.c.o(.text.uECC_vli_modSub)
    uECC_vli_mult                            0x000740a7   Thumb Code   786  micro_ecc_lib_uECC.c.o(.text.uECC_vli_mult)
    uECC_vli_numBits                         0x000743b9   Thumb Code    68  micro_ecc_lib_uECC.c.o(.text.uECC_vli_numBits)
    uECC_vli_rshift1                         0x000743fd   Thumb Code    26  micro_ecc_lib_uECC.c.o(.text.uECC_vli_rshift1)
    uECC_vli_set                             0x00074417   Thumb Code    26  micro_ecc_lib_uECC.c.o(.text.uECC_vli_set)
    uECC_vli_square                          0x00074431   Thumb Code   652  micro_ecc_lib_uECC.c.o(.text.uECC_vli_square)
    uECC_vli_sub                             0x000746c1   Thumb Code    94  micro_ecc_lib_uECC.c.o(.text.uECC_vli_sub)
    uECC_vli_testBit                         0x00074721   Thumb Code    18  micro_ecc_lib_uECC.c.o(.text.uECC_vli_testBit)
    POWER_CLOCK_IRQHandler                   0x00074a01   Thumb Code    84  nrf_drv_clock.o(i.POWER_CLOCK_IRQHandler)
    RTC1_IRQHandler                          0x00074a59   Thumb Code    32  app_timer.o(i.RTC1_IRQHandler)
    SEGGER_RTT_Init                          0x00074a7d   Thumb Code     4  segger_rtt.o(i.SEGGER_RTT_Init)
    SEGGER_RTT_WriteNoLock                   0x00074a81   Thumb Code    86  segger_rtt.o(i.SEGGER_RTT_WriteNoLock)
    SWI0_EGU0_IRQHandler                     0x00074add   Thumb Code     4  app_timer.o(i.SWI0_EGU0_IRQHandler)
    SWI2_EGU2_IRQHandler                     0x00074ae1   Thumb Code    26  nrf_sdh.o(i.SWI2_EGU2_IRQHandler)
    SystemInit                               0x00074b01   Thumb Code   700  system_nrf52.o(i.SystemInit)
    __scatterload_copy                       0x00074f1b   Thumb Code    14  handlers.o(i.__scatterload_copy)
    __scatterload_null                       0x00074f29   Thumb Code     2  handlers.o(i.__scatterload_null)
    __scatterload_zeroinit                   0x00074f2b   Thumb Code    14  handlers.o(i.__scatterload_zeroinit)
    app_error_fault_handler                  0x00075061   Thumb Code    30  main.o(i.app_error_fault_handler)
    app_error_handler_bare                   0x000750bd   Thumb Code    22  main.o(i.app_error_handler_bare)
    app_sched_event_put                      0x000750f5   Thumb Code   154  app_scheduler.o(i.app_sched_event_put)
    app_sched_execute                        0x00075195   Thumb Code    58  app_scheduler.o(i.app_sched_execute)
    app_sched_init                           0x000751d5   Thumb Code    40  app_scheduler.o(i.app_sched_init)
    app_timer_create                         0x00075201   Thumb Code    36  app_timer.o(i.app_timer_create)
    app_timer_init                           0x00075229   Thumb Code    70  app_timer.o(i.app_timer_init)
    app_timer_start                          0x0007527d   Thumb Code   128  app_timer.o(i.app_timer_start)
    app_timer_stop                           0x00075305   Thumb Code    26  app_timer.o(i.app_timer_stop)
    app_util_critical_region_enter           0x00075325   Thumb Code    64  app_util_platform.o(i.app_util_critical_region_enter)
    app_util_critical_region_exit            0x0007536d   Thumb Code    46  app_util_platform.o(i.app_util_critical_region_exit)
    ble_dfu_init                             0x000753a5   Thumb Code    92  nrf_ble_dfu.o(i.ble_dfu_init)
    ble_dfu_transport_close                  0x00075409   Thumb Code    98  nrf_ble_dfu.o(i.ble_dfu_transport_close)
    ble_dfu_transport_init                   0x000754c5   Thumb Code   140  nrf_ble_dfu.o(i.ble_dfu_transport_init)
    ble_srv_is_notification_enabled          0x000759d5   Thumb Code     8  ble_srv_common.o(i.ble_srv_is_notification_enabled)
    buffer_is_empty                          0x00075c29   Thumb Code    16  nrf_log_frontend.o(i.buffer_is_empty)
    crc32_compute                            0x00075d11   Thumb Code    54  crc32.o(i.crc32_compute)
    dfu_fstorage_evt_handler                 0x00075fdd   Thumb Code   122  nrf_dfu_flash.o(i.dfu_fstorage_evt_handler)
    ext_error_get                            0x00076859   Thumb Code    10  nrf_dfu_handling_error.o(i.ext_error_get)
    ext_error_set                            0x00076869   Thumb Code     8  nrf_dfu_handling_error.o(i.ext_error_set)
    main                                     0x00076ccd   Thumb Code    64  main.o(i.main)
    nrf_atfifo_clear                         0x00076dd5   Thumb Code    16  nrf_atfifo.o(i.nrf_atfifo_clear)
    nrf_atfifo_init                          0x00076de5   Thumb Code    38  nrf_atfifo.o(i.nrf_atfifo_init)
    nrf_atfifo_item_alloc                    0x00076e0b   Thumb Code    22  nrf_atfifo.o(i.nrf_atfifo_item_alloc)
    nrf_atfifo_item_free                     0x00076e21   Thumb Code    22  nrf_atfifo.o(i.nrf_atfifo_item_free)
    nrf_atfifo_item_get                      0x00076e37   Thumb Code    22  nrf_atfifo.o(i.nrf_atfifo_item_get)
    nrf_atfifo_item_put                      0x00076e4d   Thumb Code    22  nrf_atfifo.o(i.nrf_atfifo_item_put)
    nrf_balloc_alloc                         0x00076e8b   Thumb Code    68  nrf_balloc.o(i.nrf_balloc_alloc)
    nrf_balloc_free                          0x00076ecf   Thumb Code    48  nrf_balloc.o(i.nrf_balloc_free)
    nrf_balloc_init                          0x00076eff   Thumb Code    48  nrf_balloc.o(i.nrf_balloc_init)
    nrf_bootloader_app_start                 0x00076f31   Thumb Code   116  nrf_bootloader_app_start.o(i.nrf_bootloader_app_start)
    nrf_bootloader_init                      0x00077079   Thumb Code    50  nrf_bootloader.o(i.nrf_bootloader_init)
    nrf_crypto_ecdsa_sizes_get               0x00077121   Thumb Code   120  nrf_crypto_ecdsa.o(i.nrf_crypto_ecdsa_sizes_get)
    nrf_crypto_ecdsa_verify_hash             0x00077199   Thumb Code   146  micro_ecc_lib_ecdsa.o(i.nrf_crypto_ecdsa_verify_hash)
    nrf_crypto_hash_compute                  0x0007722d   Thumb Code   110  nrf_crypto_sw_hash.o(i.nrf_crypto_hash_compute)
    nrf_crypto_hash_finalize                 0x000772a1   Thumb Code    70  nrf_crypto_sw_hash.o(i.nrf_crypto_hash_finalize)
    nrf_crypto_hash_init                     0x000772e7   Thumb Code    40  nrf_crypto_sw_hash.o(i.nrf_crypto_hash_init)
    nrf_crypto_hash_size_get                 0x0007730f   Thumb Code    46  nrf_crypto_hash.o(i.nrf_crypto_hash_size_get)
    nrf_crypto_hash_update                   0x0007733d   Thumb Code    24  nrf_crypto_sw_hash.o(i.nrf_crypto_hash_update)
    nrf_dfu_app_is_valid                     0x00077701   Thumb Code    92  nrf_dfu_utils.o(i.nrf_dfu_app_is_valid)
    nrf_dfu_continue                         0x00077cb5   Thumb Code    68  nrf_dfu_utils.o(i.nrf_dfu_continue)
    nrf_dfu_enter_check                      0x000783e9   Thumb Code    44  nrf_dfu.o(i.nrf_dfu_enter_check)
    nrf_dfu_find_cache                       0x0007841d   Thumb Code   330  nrf_dfu_utils.o(i.nrf_dfu_find_cache)
    nrf_dfu_flash_erase                      0x000786c1   Thumb Code    76  nrf_dfu_flash.o(i.nrf_dfu_flash_erase)
    nrf_dfu_flash_init                       0x00078789   Thumb Code    66  nrf_dfu_flash.o(i.nrf_dfu_flash_init)
    nrf_dfu_flash_store                      0x00078875   Thumb Code    84  nrf_dfu_flash.o(i.nrf_dfu_flash_store)
    nrf_dfu_init                             0x00078945   Thumb Code   324  nrf_dfu.o(i.nrf_dfu_init)
    nrf_dfu_init_user                        0x00078bb5   Thumb Code    22  nrf_bootloader.o(i.nrf_dfu_init_user)
    nrf_dfu_mbr_compare                      0x00078c05   Thumb Code    24  nrf_dfu_mbr.o(i.nrf_dfu_mbr_compare)
    nrf_dfu_mbr_copy_bl                      0x00078c21   Thumb Code    22  nrf_dfu_mbr.o(i.nrf_dfu_mbr_copy_bl)
    nrf_dfu_mbr_copy_sd                      0x00078c39   Thumb Code    32  nrf_dfu_mbr.o(i.nrf_dfu_mbr_copy_sd)
    nrf_dfu_mbr_init_sd                      0x00078c5d   Thumb Code    18  nrf_dfu_mbr.o(i.nrf_dfu_mbr_init_sd)
    nrf_dfu_req_handler_init                 0x00078fa1   Thumb Code    74  dfu_req_handling.o(i.nrf_dfu_req_handler_init)
    nrf_dfu_req_handler_on_req               0x00078ff5   Thumb Code    82  dfu_req_handling.o(i.nrf_dfu_req_handler_on_req)
    nrf_dfu_req_handler_reset_if_dfu_complete 0x00079069   Thumb Code    32  dfu_req_handling.o(i.nrf_dfu_req_handler_reset_if_dfu_complete)
    nrf_dfu_reset_timeout_handler            0x000790a1   Thumb Code    56  nrf_dfu_utils.o(i.nrf_dfu_reset_timeout_handler)
    nrf_dfu_settings_additional_erase        0x000795e9   Thumb Code    62  nrf_dfu_settings_svci.o(i.nrf_dfu_settings_additional_erase)
    nrf_dfu_settings_adv_name_copy           0x00079659   Thumb Code    20  nrf_dfu_settings_svci.o(i.nrf_dfu_settings_adv_name_copy)
    nrf_dfu_settings_adv_name_is_valid       0x00079671   Thumb Code    28  nrf_dfu_settings_svci.o(i.nrf_dfu_settings_adv_name_is_valid)
    nrf_dfu_settings_adv_name_write          0x00079691   Thumb Code    50  nrf_dfu_settings_svci.o(i.nrf_dfu_settings_adv_name_write)
    nrf_dfu_settings_init                    0x000796d9   Thumb Code   156  nrf_dfu_settings.o(i.nrf_dfu_settings_init)
    nrf_dfu_settings_write                   0x00079841   Thumb Code   116  nrf_dfu_settings.o(i.nrf_dfu_settings_write)
    nrf_dfu_transports_close                 0x00079945   Thumb Code    98  nrf_dfu_transport.o(i.nrf_dfu_transports_close)
    nrf_dfu_transports_init                  0x00079a05   Thumb Code    96  nrf_dfu_transport.o(i.nrf_dfu_transports_init)
    nrf_drv_clock_init                       0x00079ac1   Thumb Code    64  nrf_drv_clock.o(i.nrf_drv_clock_init)
    nrf_drv_clock_lfclk_release              0x00079b09   Thumb Code    40  nrf_drv_clock.o(i.nrf_drv_clock_lfclk_release)
    nrf_drv_clock_lfclk_request              0x00079b35   Thumb Code    96  nrf_drv_clock.o(i.nrf_drv_clock_lfclk_request)
    nrf_drv_clock_uninit                     0x00079b9d   Thumb Code    34  nrf_drv_clock.o(i.nrf_drv_clock_uninit)
    nrf_drv_common_clock_irq_disable         0x00079bc5   Thumb Code    12  nrf_drv_common.o(i.nrf_drv_common_clock_irq_disable)
    nrf_drv_common_irq_enable                0x00079bd1   Thumb Code    56  nrf_drv_common.o(i.nrf_drv_common_irq_enable)
    nrf_fprintf                              0x00079c09   Thumb Code    26  nrf_fprintf.o(i.nrf_fprintf)
    nrf_fprintf_buffer_flush                 0x00079c23   Thumb Code    24  nrf_fprintf.o(i.nrf_fprintf_buffer_flush)
    nrf_fprintf_fmt                          0x00079c3b   Thumb Code   474  nrf_fprintf_format.o(i.nrf_fprintf_fmt)
    nrf_fstorage_erase                       0x00079e15   Thumb Code    78  nrf_fstorage.o(i.nrf_fstorage_erase)
    nrf_fstorage_init                        0x00079e63   Thumb Code    16  nrf_fstorage.o(i.nrf_fstorage_init)
    nrf_fstorage_sdh_req_handler             0x00079e75   Thumb Code    18  nrf_fstorage_sd.o(i.nrf_fstorage_sdh_req_handler)
    nrf_fstorage_sdh_state_handler           0x00079e8d   Thumb Code    28  nrf_fstorage_sd.o(i.nrf_fstorage_sdh_state_handler)
    nrf_fstorage_sys_evt_handler             0x00079ead   Thumb Code   146  nrf_fstorage_sd.o(i.nrf_fstorage_sys_evt_handler)
    nrf_fstorage_write                       0x00079f4d   Thumb Code   102  nrf_fstorage.o(i.nrf_fstorage_write)
    nrf_log_backend_add                      0x00079fd1   Thumb Code    74  nrf_log_frontend.o(i.nrf_log_backend_add)
    nrf_log_backend_rtt_init                 0x0007a023   Thumb Code     4  nrf_log_backend_rtt.o(i.nrf_log_backend_rtt_init)
    nrf_log_backend_serial_put               0x0007a041   Thumb Code   210  nrf_log_backend_serial.o(i.nrf_log_backend_serial_put)
    nrf_log_color_id_get                     0x0007a115   Thumb Code    42  nrf_log_frontend.o(i.nrf_log_color_id_get)
    nrf_log_default_backends_init            0x0007a145   Thumb Code    22  nrf_log_default_backends.o(i.nrf_log_default_backends_init)
    nrf_log_frontend_dequeue                 0x0007a161   Thumb Code   488  nrf_log_frontend.o(i.nrf_log_frontend_dequeue)
    nrf_log_frontend_std_0                   0x0007a351   Thumb Code     8  nrf_log_frontend.o(i.nrf_log_frontend_std_0)
    nrf_log_frontend_std_1                   0x0007a359   Thumb Code    14  nrf_log_frontend.o(i.nrf_log_frontend_std_1)
    nrf_log_frontend_std_2                   0x0007a367   Thumb Code    16  nrf_log_frontend.o(i.nrf_log_frontend_std_2)
    nrf_log_frontend_std_3                   0x0007a377   Thumb Code    18  nrf_log_frontend.o(i.nrf_log_frontend_std_3)
    nrf_log_frontend_std_4                   0x0007a389   Thumb Code    20  nrf_log_frontend.o(i.nrf_log_frontend_std_4)
    nrf_log_frontend_std_5                   0x0007a39d   Thumb Code    28  nrf_log_frontend.o(i.nrf_log_frontend_std_5)
    nrf_log_hexdump_entry_process            0x0007a3b9   Thumb Code   146  nrf_log_str_formatter.o(i.nrf_log_hexdump_entry_process)
    nrf_log_init                             0x0007a465   Thumb Code    70  nrf_log_frontend.o(i.nrf_log_init)
    nrf_log_module_cnt_get                   0x0007a4c1   Thumb Code    10  nrf_log_frontend.o(i.nrf_log_module_cnt_get)
    nrf_log_module_name_get                  0x0007a4d5   Thumb Code    24  nrf_log_frontend.o(i.nrf_log_module_name_get)
    nrf_log_std_entry_process                0x0007a4f1   Thumb Code   182  nrf_log_str_formatter.o(i.nrf_log_std_entry_process)
    nrf_memobj_alloc                         0x0007a5a7   Thumb Code    96  nrf_memobj.o(i.nrf_memobj_alloc)
    nrf_memobj_free                          0x0007a607   Thumb Code    50  nrf_memobj.o(i.nrf_memobj_free)
    nrf_memobj_get                           0x0007a639   Thumb Code    14  nrf_memobj.o(i.nrf_memobj_get)
    nrf_memobj_pool_init                     0x0007a647   Thumb Code     4  nrf_memobj.o(i.nrf_memobj_pool_init)
    nrf_memobj_put                           0x0007a64b   Thumb Code    34  nrf_memobj.o(i.nrf_memobj_put)
    nrf_memobj_read                          0x0007a66d   Thumb Code    12  nrf_memobj.o(i.nrf_memobj_read)
    nrf_memobj_write                         0x0007a679   Thumb Code    12  nrf_memobj.o(i.nrf_memobj_write)
    nrf_nvmc_page_erase                      0x0007a685   Thumb Code    40  nrf_nvmc.o(i.nrf_nvmc_page_erase)
    nrf_nvmc_write_words                     0x0007a6b5   Thumb Code    58  nrf_nvmc.o(i.nrf_nvmc_write_words)
    nrf_sdh_ble_app_ram_start_get            0x0007a6f9   Thumb Code    16  nrf_sdh_ble.o(i.nrf_sdh_ble_app_ram_start_get)
    nrf_sdh_ble_enable                       0x0007a70d   Thumb Code    96  nrf_sdh_ble.o(i.nrf_sdh_ble_enable)
    nrf_sdh_disable_request                  0x0007a835   Thumb Code    54  nrf_sdh.o(i.nrf_sdh_disable_request)
    nrf_sdh_enable_request                   0x0007a871   Thumb Code    96  nrf_sdh.o(i.nrf_sdh_enable_request)
    nrf_sdh_evts_poll                        0x0007a8dd   Thumb Code    32  nrf_sdh.o(i.nrf_sdh_evts_poll)
    nrf_sdh_is_enabled                       0x0007a901   Thumb Code     6  nrf_sdh.o(i.nrf_sdh_is_enabled)
    nrf_sdh_request_continue                 0x0007a90d   Thumb Code    22  nrf_sdh.o(i.nrf_sdh_request_continue)
    nrf_section_iter_init                    0x0007a965   Thumb Code    10  nrf_section_iter.o(i.nrf_section_iter_init)
    nrf_section_iter_next                    0x0007a993   Thumb Code    32  nrf_section_iter.o(i.nrf_section_iter_next)
    nrf_strerror_find                        0x0007a9b5   Thumb Code    52  nrf_strerror.o(i.nrf_strerror_find)
    nrf_strerror_get                         0x0007a9ed   Thumb Code    14  nrf_strerror.o(i.nrf_strerror_get)
    nrf_svc_handler_c                        0x0007aa01   Thumb Code    84  nrf_svc_handler.o(i.nrf_svc_handler_c)
    pb_decode                                0x0007afc1   Thumb Code    30  pb_decode.o(i.pb_decode)
    pb_decode_fixed32                        0x0007afdf   Thumb Code    32  pb_decode.o(i.pb_decode_fixed32)
    pb_decode_fixed64                        0x0007afff   Thumb Code    92  pb_decode.o(i.pb_decode_fixed64)
    pb_decode_noinit                         0x0007b05d   Thumb Code   390  pb_decode.o(i.pb_decode_noinit)
    pb_decode_svarint                        0x0007b1e3   Thumb Code    58  pb_decode.o(i.pb_decode_svarint)
    pb_decode_tag                            0x0007b21d   Thumb Code    66  pb_decode.o(i.pb_decode_tag)
    pb_decode_varint                         0x0007b25f   Thumb Code    74  pb_decode.o(i.pb_decode_varint)
    pb_field_iter_begin                      0x0007b34d   Thumb Code    34  pb_common.o(i.pb_field_iter_begin)
    pb_field_iter_find                       0x0007b36f   Thumb Code    46  pb_common.o(i.pb_field_iter_find)
    pb_field_iter_next                       0x0007b39d   Thumb Code   128  pb_common.o(i.pb_field_iter_next)
    pb_istream_from_buffer                   0x0007b4c1   Thumb Code    14  pb_decode.o(i.pb_istream_from_buffer)
    pb_make_string_substream                 0x0007b4d5   Thumb Code    54  pb_decode.o(i.pb_make_string_substream)
    pb_read                                  0x0007b531   Thumb Code    84  pb_decode.o(i.pb_read)
    pb_skip_field                            0x0007b5a9   Thumb Code    90  pb_decode.o(i.pb_skip_field)
    sha256_final                             0x0007bc57   Thumb Code   272  sha256.o(i.sha256_final)
    sha256_init                              0x0007bd69   Thumb Code    50  sha256.o(i.sha256_init)
    sha256_transform                         0x0007bdbd   Thumb Code   294  sha256.o(i.sha256_transform)
    sha256_update                            0x0007bee9   Thumb Code    84  sha256.o(i.sha256_update)
    dfu_init_command_is_debug_default        0x0007c3fc   Data           1  dfu-cc.pb.o(.constdata)
    dfu_hash_fields                          0x0007c400   Data          36  dfu-cc.pb.o(.constdata)
    dfu_init_command_fields                  0x0007c424   Data         120  dfu-cc.pb.o(.constdata)
    dfu_reset_command_fields                 0x0007c49c   Data          24  dfu-cc.pb.o(.constdata)
    dfu_command_fields                       0x0007c4b4   Data          48  dfu-cc.pb.o(.constdata)
    dfu_signed_command_fields                0x0007c4e4   Data          48  dfu-cc.pb.o(.constdata)
    dfu_packet_fields                        0x0007c514   Data          36  dfu-cc.pb.o(.constdata)
    pk                                       0x0007c538   Data          64  dfu_public_key.o(.constdata)
    hash_info_sha256                         0x0007c578   Data           2  dfu_req_handling.o(.constdata)
    sig_info_p256                            0x0007c57a   Data           3  dfu_req_handling.o(.constdata)
    nrf_dfu_inactivity_timeout_timer_id      0x0007c5ac   Data           4  nrf_dfu.o(.constdata)
    nrf_dfu_post_sd_bl_timeout_timer_id      0x0007c5f0   Data           4  nrf_dfu_utils.o(.constdata)
    nrf_fstorage_nvmc                        0x0007c618   Data          32  nrf_fstorage_nvmc.o(.constdata)
    nrf_fstorage_sd                          0x0007c648   Data          32  nrf_fstorage_sd.o(.constdata)
    nrf_log_backend_rtt_api                  0x0007c86c   Data          12  nrf_log_backend_rtt.o(.constdata)
    m_ram_start                              0x0007c904   Data           4  nrf_sdh_ble.o(.constdata)
    __ctype_table                            0x0007c954   Data         129  ctype_o.o(.constdata)
    Region$$Table$$Base                      0x0007d0bc   Number         0  anon$$obj.o(Region$$Table)
    Region$$Table$$Limit                     0x0007d0dc   Number         0  anon$$obj.o(Region$$Table)
    dfu_trans                                0x0007d0dc   Data           8  nrf_ble_dfu.o(dfu_trans)
    dfu_trans$$Base                          0x0007d0dc   Number         0  nrf_ble_dfu.o(dfu_trans)
    dfu_trans$$Limit                         0x0007d0e4   Number         0  nrf_ble_dfu.o(dfu_trans)
    log_const_data$$Base                     0x0007d0e4   Number         0  dfu_req_handling.o(log_const_data)
    m_nrf_log_dfu_req_handling_logs_data_const 0x0007d0e4   Data           8  dfu_req_handling.o(log_const_data)
    m_nrf_log_nrf_dfu_flash_logs_data_const  0x0007d0ec   Data           8  nrf_dfu_flash.o(log_const_data)
    m_nrf_log_nrf_dfu_settings_logs_data_const 0x0007d0f4   Data           8  nrf_dfu_settings.o(log_const_data)
    m_nrf_log_nrf_dfu_settings_svci_logs_data_const 0x0007d0fc   Data           8  nrf_dfu_settings_svci.o(log_const_data)
    m_nrf_log_clock_logs_data_const          0x0007d104   Data           8  nrf_drv_clock.o(log_const_data)
    m_nrf_log_mem_mngr_logs_data_const       0x0007d10c   Data           8  mem_manager.o(log_const_data)
    m_nrf_log_balloc_logs_data_const         0x0007d114   Data           8  nrf_balloc.o(log_const_data)
    m_nrf_log_app_logs_data_const            0x0007d11c   Data           8  nrf_log_frontend.o(log_const_data)
    m_nrf_log_nrf_sdh_logs_data_const        0x0007d124   Data           8  nrf_sdh.o(log_const_data)
    m_nrf_log_nrf_sdh_ble_logs_data_const    0x0007d12c   Data           8  nrf_sdh_ble.o(log_const_data)
    m_nrf_log_nrf_sdh_soc_logs_data_const    0x0007d134   Data           8  nrf_sdh_soc.o(log_const_data)
    log_const_data$$Limit                    0x0007d13c   Number         0  nrf_sdh_soc.o(log_const_data)
    sdh_ble_observers2$$Base                 0x0007d13c   Number         0  nrf_ble_dfu.o(sdh_ble_observers2)
    m_req_obs                                0x0007d144   Data           8  nrf_fstorage_sd.o(sdh_req_observers0)
    sdh_ble_observers2$$Limit                0x0007d144   Number         0  nrf_ble_dfu.o(sdh_ble_observers2)
    sdh_req_observers0$$Base                 0x0007d144   Number         0  nrf_fstorage_sd.o(sdh_req_observers0)
    sdh_req_observers0$$Limit                0x0007d14c   Number         0  nrf_fstorage_sd.o(sdh_req_observers0)
    sdh_soc_observers0$$Base                 0x0007d14c   Number         0  nrf_drv_clock.o(sdh_soc_observers0)
    sdh_soc_observers0$$Limit                0x0007d15c   Number         0  nrf_fstorage_sd.o(sdh_soc_observers0)
    sdh_stack_observers0$$Base               0x0007d15c   Number         0  nrf_sdh_ble.o(sdh_stack_observers0)
    sdh_stack_observers0$$Limit              0x0007d16c   Number         0  nrf_sdh_soc.o(sdh_stack_observers0)
    sdh_state_observers0$$Base               0x0007d16c   Number         0  nrf_drv_clock.o(sdh_state_observers0)
    nrf_dfu_set_adv_name_var                 0x0007d17c   Data          12  nrf_dfu_svci_handler.o(svc_data)
    sdh_state_observers0$$Limit              0x0007d17c   Number         0  nrf_fstorage_sd.o(sdh_state_observers0)
    svc_data$$Base                           0x0007d17c   Number         0  nrf_dfu_svci_handler.o(svc_data)
    svc_data$$Limit                          0x0007d188   Number         0  nrf_dfu_svci_handler.o(svc_data)
    m_mbr_params_page                        0x0007e000   Data        4096  nrf_dfu_settings.o(.ARM.__AT_0x0007E000)
    m_dfu_settings_buffer                    0x0007f000   Data        4096  nrf_dfu_settings.o(.ARM.__AT_0x0007F000)
    m_uicr_bootloader_start_address          0x10001014   Data           4  nrf_bootloader_info.o(.ARM.__AT_0x10001014)
    m_uicr_mbr_params_page_address           0x10001018   Data           4  nrf_dfu_settings.o(.ARM.__AT_0x10001018)
    Image$$RW_IRAM1$$Base                    0x20002830   Number         0  anon$$obj.o ABSOLUTE
    SystemCoreClock                          0x20002904   Data           4  system_nrf52.o(.data)
    fs_data$$Base                            0x20002908   Number         0  nrf_dfu_flash.o(fs_data)
    m_fs                                     0x20002908   Data          20  nrf_dfu_flash.o(fs_data)
    fs_data$$Limit                           0x2000291c   Number         0  nrf_dfu_flash.o(fs_data)
    log_dynamic_data$$Base                   0x2000291c   Number         0  dfu_req_handling.o(log_dynamic_data)
    m_nrf_log_dfu_req_handling_logs_data_dynamic 0x2000291c   Data          12  dfu_req_handling.o(log_dynamic_data)
    m_nrf_log_nrf_dfu_flash_logs_data_dynamic 0x20002928   Data          12  nrf_dfu_flash.o(log_dynamic_data)
    m_nrf_log_nrf_dfu_settings_logs_data_dynamic 0x20002934   Data          12  nrf_dfu_settings.o(log_dynamic_data)
    m_nrf_log_nrf_dfu_settings_svci_logs_data_dynamic 0x20002940   Data          12  nrf_dfu_settings_svci.o(log_dynamic_data)
    m_nrf_log_clock_logs_data_dynamic        0x2000294c   Data          12  nrf_drv_clock.o(log_dynamic_data)
    m_nrf_log_mem_mngr_logs_data_dynamic     0x20002958   Data          12  mem_manager.o(log_dynamic_data)
    m_nrf_log_balloc_logs_data_dynamic       0x20002964   Data          12  nrf_balloc.o(log_dynamic_data)
    m_nrf_log_app_logs_data_dynamic          0x20002970   Data          12  nrf_log_frontend.o(log_dynamic_data)
    m_nrf_log_nrf_sdh_logs_data_dynamic      0x2000297c   Data          12  nrf_sdh.o(log_dynamic_data)
    m_nrf_log_nrf_sdh_ble_logs_data_dynamic  0x20002988   Data          12  nrf_sdh_ble.o(log_dynamic_data)
    m_nrf_log_nrf_sdh_soc_logs_data_dynamic  0x20002994   Data          12  nrf_sdh_soc.o(log_dynamic_data)
    s_dfu_settings                           0x20003108   Data         440  nrf_dfu_settings.o(.bss)
    nrf_nvic_state                           0x20003400   Data          12  app_util_platform.o(.bss)
    _SEGGER_RTT                              0x20003a4c   Data         120  segger_rtt.o(.bss)
    __initial_sp                             0x20006ad8   Data           0  arm_startup_nrf52.o(STACK)



==============================================================================

Memory Map of the image

  Image Entry point : 0x00073201

  Load Region LR_IROM1 (Base: 0x00073000, Size: 0x0000a2f8, Max: 0x0000b000, ABSOLUTE, COMPRESSED[0x0000a1e0])

    Execution Region ER_IROM1 (Exec base: 0x00073000, Load base: 0x00073000, Size: 0x0000a188, Max: 0x0000b000, ABSOLUTE)

    Exec Addr    Load Addr    Size         Type   Attr      Idx    E Section Name        Object

    0x00073000   0x00073000   0x00000200   Data   RO         4642    RESET               arm_startup_nrf52.o
    0x00073200   0x00073200   0x00000000   Code   RO         4791  * .ARM.Collect$$$$00000000  mc_w.l(entry.o)
    0x00073200   0x00073200   0x00000004   Code   RO         4845    .ARM.Collect$$$$00000001  mc_w.l(entry2.o)
    0x00073204   0x00073204   0x00000004   Code   RO         4848    .ARM.Collect$$$$00000004  mc_w.l(entry5.o)
    0x00073208   0x00073208   0x00000000   Code   RO         4850    .ARM.Collect$$$$00000008  mc_w.l(entry7b.o)
    0x00073208   0x00073208   0x00000000   Code   RO         4852    .ARM.Collect$$$$0000000A  mc_w.l(entry8b.o)
    0x00073208   0x00073208   0x00000008   Code   RO         4853    .ARM.Collect$$$$0000000B  mc_w.l(entry9a.o)
    0x00073210   0x00073210   0x00000000   Code   RO         4855    .ARM.Collect$$$$0000000D  mc_w.l(entry10a.o)
    0x00073210   0x00073210   0x00000000   Code   RO         4857    .ARM.Collect$$$$0000000F  mc_w.l(entry11a.o)
    0x00073210   0x00073210   0x00000004   Code   RO         4846    .ARM.Collect$$$$00002712  mc_w.l(entry2.o)
    0x00073214   0x00073214   0x00000040   Code   RO          920    .emb_text           nrf_bootloader_app_start_asm.o
    0x00073254   0x00073254   0x000000c8   Code   RO         2726    .emb_text           nrf_atfifo.o
    0x0007331c   0x0007331c   0x0000009a   Code   RO         2988    .emb_text           nrf_fstorage_nvmc.o
    0x000733b6   0x000733b6   0x00000002   PAD
    0x000733b8   0x000733b8   0x0000009a   Code   RO         3082    .emb_text           nrf_fstorage_sd.o
    0x00073452   0x00073452   0x00000002   PAD
    0x00073454   0x00073454   0x0000009a   Code   RO         3193    .emb_text           nrf_memobj.o
    0x000734ee   0x000734ee   0x00000002   PAD
    0x000734f0   0x000734f0   0x0000009a   Code   RO         3539    .emb_text           nrf_log_frontend.o
    0x0007358a   0x0007358a   0x00000002   PAD
    0x0007358c   0x0007358c   0x00000014   Code   RO         3844    .emb_text           nrf_svc_handler.o
    0x000735a0   0x000735a0   0x00000024   Code   RO         4643    .text               arm_startup_nrf52.o
    0x000735c4   0x000735c4   0x0000001e   Code   RO         4799    .text               mc_w.l(llshl.o)
    0x000735e2   0x000735e2   0x00000002   PAD
    0x000735e4   0x000735e4   0x00000008   Code   RO         4801    .text               mc_w.l(ctype_o.o)
    0x000735ec   0x000735ec   0x00000024   Code   RO         4829    .text               mc_w.l(memcpya.o)
    0x00073610   0x00073610   0x00000024   Code   RO         4833    .text               mc_w.l(memseta.o)
    0x00073634   0x00073634   0x0000000e   Code   RO         4835    .text               mc_w.l(strlen.o)
    0x00073642   0x00073642   0x0000001a   Code   RO         4839    .text               mc_w.l(memcmp.o)
    0x0007365c   0x0007365c   0x00000012   Code   RO         4841    .text               mc_w.l(strcpy.o)
    0x0007366e   0x0007366e   0x00000002   PAD
    0x00073670   0x00073670   0x00000024   Code   RO         4861    .text               mc_w.l(init.o)
    0x00073694   0x00073694   0x00000056   Code   RO         4871    .text               mc_w.l(__dczerorl2.o)
    0x000736ea   0x000736ea   0x000000ca   Code   RO         4730    .text.XYcZ_add      micro_ecc_lib_nrf52.lib(micro_ecc_lib_uECC.c.o)
    0x000737b4   0x000737b4   0x0000003e   Code   RO         4731    .text.apply_z       micro_ecc_lib_nrf52.lib(micro_ecc_lib_uECC.c.o)
    0x000737f2   0x000737f2   0x0000000c   Code   RO         4686    .text.bcopy         micro_ecc_lib_nrf52.lib(micro_ecc_lib_uECC.c.o)
    0x000737fe   0x000737fe   0x00000088   Code   RO         4703    .text.bits2int      micro_ecc_lib_nrf52.lib(micro_ecc_lib_uECC.c.o)
    0x00073886   0x00073886   0x00000154   Code   RO         4726    .text.double_jacobian_default  micro_ecc_lib_nrf52.lib(micro_ecc_lib_uECC.c.o)
    0x000739da   0x000739da   0x00000002   PAD
    0x000739dc   0x000739dc   0x00000008   Code   RO         4738    .text.uECC_secp256r1  micro_ecc_lib_nrf52.lib(micro_ecc_lib_uECC.c.o)
    0x000739e4   0x000739e4   0x000002d4   Code   RO         4751    .text.uECC_verify   micro_ecc_lib_nrf52.lib(micro_ecc_lib_uECC.c.o)
    0x00073cb8   0x00073cb8   0x00000008   PAD
    0x00073cc0   0x00073cc0   0x00000058   Code   RO         4692    .text.uECC_vli_add  micro_ecc_lib_nrf52.lib(micro_ecc_lib_uECC.c.o)
    0x00073d18   0x00073d18   0x00000018   Code   RO         4701    .text.uECC_vli_clear  micro_ecc_lib_nrf52.lib(micro_ecc_lib_uECC.c.o)
    0x00073d30   0x00073d30   0x0000002a   Code   RO         4687    .text.uECC_vli_cmp_unsafe  micro_ecc_lib_nrf52.lib(micro_ecc_lib_uECC.c.o)
    0x00073d5a   0x00073d5a   0x0000002a   Code   RO         4712    .text.uECC_vli_equal  micro_ecc_lib_nrf52.lib(micro_ecc_lib_uECC.c.o)
    0x00073d84   0x00073d84   0x0000001e   Code   RO         4704    .text.uECC_vli_isZero  micro_ecc_lib_nrf52.lib(micro_ecc_lib_uECC.c.o)
    0x00073da2   0x00073da2   0x00000002   PAD
    0x00073da4   0x00073da4   0x0000013c   Code   RO         4720    .text.uECC_vli_mmod  micro_ecc_lib_nrf52.lib(micro_ecc_lib_uECC.c.o)
    0x00073ee0   0x00073ee0   0x00000032   Code   RO         4718    .text.uECC_vli_modAdd  micro_ecc_lib_nrf52.lib(micro_ecc_lib_uECC.c.o)
    0x00073f12   0x00073f12   0x0000010c   Code   RO         4732    .text.uECC_vli_modInv  micro_ecc_lib_nrf52.lib(micro_ecc_lib_uECC.c.o)
    0x0007401e   0x0007401e   0x00000024   Code   RO         4721    .text.uECC_vli_modMult  micro_ecc_lib_nrf52.lib(micro_ecc_lib_uECC.c.o)
    0x00074042   0x00074042   0x00000020   Code   RO         4722    .text.uECC_vli_modMult_fast  micro_ecc_lib_nrf52.lib(micro_ecc_lib_uECC.c.o)
    0x00074062   0x00074062   0x00000020   Code   RO         4724    .text.uECC_vli_modSquare_fast  micro_ecc_lib_nrf52.lib(micro_ecc_lib_uECC.c.o)
    0x00074082   0x00074082   0x00000024   Code   RO         4719    .text.uECC_vli_modSub  micro_ecc_lib_nrf52.lib(micro_ecc_lib_uECC.c.o)
    0x000740a6   0x000740a6   0x00000312   Code   RO         4695    .text.uECC_vli_mult  micro_ecc_lib_nrf52.lib(micro_ecc_lib_uECC.c.o)
    0x000743b8   0x000743b8   0x00000044   Code   RO         4707    .text.uECC_vli_numBits  micro_ecc_lib_nrf52.lib(micro_ecc_lib_uECC.c.o)
    0x000743fc   0x000743fc   0x0000001a   Code   RO         4714    .text.uECC_vli_rshift1  micro_ecc_lib_nrf52.lib(micro_ecc_lib_uECC.c.o)
    0x00074416   0x00074416   0x0000001a   Code   RO         4708    .text.uECC_vli_set  micro_ecc_lib_nrf52.lib(micro_ecc_lib_uECC.c.o)
    0x00074430   0x00074430   0x0000028c   Code   RO         4696    .text.uECC_vli_square  micro_ecc_lib_nrf52.lib(micro_ecc_lib_uECC.c.o)
    0x000746bc   0x000746bc   0x00000004   PAD
    0x000746c0   0x000746c0   0x00000060   Code   RO         4694    .text.uECC_vli_sub  micro_ecc_lib_nrf52.lib(micro_ecc_lib_uECC.c.o)
    0x00074720   0x00074720   0x00000012   Code   RO         4705    .text.uECC_vli_testBit  micro_ecc_lib_nrf52.lib(micro_ecc_lib_uECC.c.o)
    0x00074732   0x00074732   0x00000002   PAD
    0x00074734   0x00074734   0x000001b0   Code   RO         4711    .text.vli_mmod_fast_secp256r1  micro_ecc_lib_nrf52.lib(micro_ecc_lib_uECC.c.o)
    0x000748e4   0x000748e4   0x0000003a   Code   RO         4715    .text.vli_modInv_update  micro_ecc_lib_nrf52.lib(micro_ecc_lib_uECC.c.o)
    0x0007491e   0x0007491e   0x0000005a   Code   RO         4725    .text.x_side_default  micro_ecc_lib_nrf52.lib(micro_ecc_lib_uECC.c.o)
    0x00074978   0x00074978   0x00000016   Code   RO         2285    i.NVIC_ClearPendingIRQ  app_timer.o
    0x0007498e   0x0007498e   0x00000016   Code   RO         2286    i.NVIC_EnableIRQ    app_timer.o
    0x000749a4   0x000749a4   0x00000016   Code   RO         2287    i.NVIC_SetPendingIRQ  app_timer.o
    0x000749ba   0x000749ba   0x00000020   Code   RO         2288    i.NVIC_SetPriority  app_timer.o
    0x000749da   0x000749da   0x00000002   PAD
    0x000749dc   0x000749dc   0x00000024   Code   RO          397    i.NVIC_SystemReset  main.o
    0x00074a00   0x00074a00   0x00000058   Code   RO         1930    i.POWER_CLOCK_IRQHandler  nrf_drv_clock.o
    0x00074a58   0x00074a58   0x00000024   Code   RO         2289    i.RTC1_IRQHandler   app_timer.o
    0x00074a7c   0x00074a7c   0x00000004   Code   RO         3880    i.SEGGER_RTT_Init   segger_rtt.o
    0x00074a80   0x00074a80   0x0000005c   Code   RO         3894    i.SEGGER_RTT_WriteNoLock  segger_rtt.o
    0x00074adc   0x00074adc   0x00000004   Code   RO         2290    i.SWI0_EGU0_IRQHandler  app_timer.o
    0x00074ae0   0x00074ae0   0x00000020   Code   RO         4222    i.SWI2_EGU2_IRQHandler  nrf_sdh.o
    0x00074b00   0x00074b00   0x000002fc   Code   RO         4651    i.SystemInit        system_nrf52.o
    0x00074dfc   0x00074dfc   0x0000006c   Code   RO         3898    i._DoInit           segger_rtt.o
    0x00074e68   0x00074e68   0x00000016   Code   RO         3899    i._GetAvailWriteSpace  segger_rtt.o
    0x00074e7e   0x00074e7e   0x0000005a   Code   RO         3901    i._WriteBlocking    segger_rtt.o
    0x00074ed8   0x00074ed8   0x00000042   Code   RO         3902    i._WriteNoCheck     segger_rtt.o
    0x00074f1a   0x00074f1a   0x0000000e   Code   RO         4865    i.__scatterload_copy  mc_w.l(handlers.o)
    0x00074f28   0x00074f28   0x00000002   Code   RO         4866    i.__scatterload_null  mc_w.l(handlers.o)
    0x00074f2a   0x00074f2a   0x0000000e   Code   RO         4867    i.__scatterload_zeroinit  mc_w.l(handlers.o)
    0x00074f38   0x00074f38   0x00000024   Code   RO         4223    i.__sd_nvic_app_accessible_irq  nrf_sdh.o
    0x00074f5c   0x00074f5c   0x00000016   Code   RO         4224    i.__sd_nvic_is_app_accessible_priority  nrf_sdh.o
    0x00074f72   0x00074f72   0x0000000c   Code   RO         2920    i.addr_is_aligned32  nrf_fstorage.o
    0x00074f7e   0x00074f7e   0x00000018   Code   RO         2921    i.addr_within_bounds  nrf_fstorage.o
    0x00074f96   0x00074f96   0x00000002   PAD
    0x00074f98   0x00074f98   0x000000c8   Code   RO          684    i.advertising_start  nrf_ble_dfu.o
    0x00075060   0x00075060   0x0000005c   Code   RO          398    i.app_error_fault_handler  main.o
    0x000750bc   0x000750bc   0x00000038   Code   RO          399    i.app_error_handler_bare  main.o
    0x000750f4   0x000750f4   0x000000a0   Code   RO         2238    i.app_sched_event_put  app_scheduler.o
    0x00075194   0x00075194   0x00000040   Code   RO         2239    i.app_sched_execute  app_scheduler.o
    0x000751d4   0x000751d4   0x0000002c   Code   RO         2240    i.app_sched_init    app_scheduler.o
    0x00075200   0x00075200   0x00000028   Code   RO         2293    i.app_timer_create  app_timer.o
    0x00075228   0x00075228   0x00000054   Code   RO         2294    i.app_timer_init    app_timer.o
    0x0007527c   0x0007527c   0x00000088   Code   RO         2297    i.app_timer_start   app_timer.o
    0x00075304   0x00075304   0x00000020   Code   RO         2298    i.app_timer_stop    app_timer.o
    0x00075324   0x00075324   0x00000048   Code   RO         2454    i.app_util_critical_region_enter  app_util_platform.o
    0x0007536c   0x0007536c   0x00000034   Code   RO         2455    i.app_util_critical_region_exit  app_util_platform.o
    0x000753a0   0x000753a0   0x00000004   Code   RO         4225    i.appsh_events_poll  nrf_sdh.o
    0x000753a4   0x000753a4   0x00000064   Code   RO          685    i.ble_dfu_init      nrf_ble_dfu.o
    0x00075408   0x00075408   0x000000bc   Code   RO          686    i.ble_dfu_transport_close  nrf_ble_dfu.o
    0x000754c4   0x000754c4   0x00000134   Code   RO          687    i.ble_dfu_transport_init  nrf_ble_dfu.o
    0x000755f8   0x000755f8   0x000003dc   Code   RO          688    i.ble_evt_handler   nrf_ble_dfu.o
    0x000759d4   0x000759d4   0x00000008   Code   RO          606    i.ble_srv_is_notification_enabled  ble_srv_common.o
    0x000759dc   0x000759dc   0x000001ac   Code   RO          689    i.ble_stack_init    nrf_ble_dfu.o
    0x00075b88   0x00075b88   0x00000064   Code   RO         3540    i.buf_prealloc      nrf_log_frontend.o
    0x00075bec   0x00075bec   0x0000001c   Code   RO         4467    i.buf_read          pb_decode.o
    0x00075c08   0x00075c08   0x0000001e   Code   RO         2883    i.buffer_add        nrf_fprintf_format.o
    0x00075c26   0x00075c26   0x00000002   PAD
    0x00075c28   0x00075c28   0x00000014   Code   RO         3541    i.buffer_is_empty   nrf_log_frontend.o
    0x00075c3c   0x00075c3c   0x00000028   Code   RO         1931    i.clock_clk_started_notify  nrf_drv_clock.o
    0x00075c64   0x00075c64   0x000000ac   Code   RO         2300    i.compare_reg_update  app_timer.o
    0x00075d10   0x00075d10   0x0000003c   Code   RO         2522    i.crc32_compute     crc32.o
    0x00075d4c   0x00075d4c   0x0000007e   Code   RO         4468    i.decode_callback_field  pb_decode.o
    0x00075dca   0x00075dca   0x0000001a   Code   RO         4469    i.decode_field      pb_decode.o
    0x00075de4   0x00075de4   0x000000e0   Code   RO         4470    i.decode_static_field  pb_decode.o
    0x00075ec4   0x00075ec4   0x00000084   Code   RO          690    i.dfu_ctrl_pt_add   nrf_ble_dfu.o
    0x00075f48   0x00075f48   0x00000094   Code   RO           51    i.dfu_decode_commmand  dfu_req_handling.o
    0x00075fdc   0x00075fdc   0x0000012c   Code   RO         1032    i.dfu_fstorage_evt_handler  nrf_dfu_flash.o
    0x00076108   0x00076108   0x000004d8   Code   RO           52    i.dfu_handle_prevalidate  dfu_req_handling.o
    0x000765e0   0x000765e0   0x00000098   Code   RO           53    i.dfu_handle_signed_command  dfu_req_handling.o
    0x00076678   0x00076678   0x00000082   Code   RO          691    i.dfu_pkt_char_add  nrf_ble_dfu.o
    0x000766fa   0x000766fa   0x00000002   PAD
    0x000766fc   0x000766fc   0x00000040   Code   RO         2301    i.elapsed_ticks_acquire  app_timer.o
    0x0007673c   0x0007673c   0x00000048   Code   RO         2989    i.erase             nrf_fstorage_nvmc.o
    0x00076784   0x00076784   0x0000004c   Code   RO         3083    i.erase             nrf_fstorage_sd.o
    0x000767d0   0x000767d0   0x00000038   Code   RO         2990    i.event_send        nrf_fstorage_nvmc.o
    0x00076808   0x00076808   0x0000004e   Code   RO         3084    i.event_send        nrf_fstorage_sd.o
    0x00076856   0x00076856   0x00000002   PAD
    0x00076858   0x00076858   0x00000010   Code   RO         1098    i.ext_error_get     nrf_dfu_handling_error.o
    0x00076868   0x00076868   0x0000000c   Code   RO         1099    i.ext_error_set     nrf_dfu_handling_error.o
    0x00076874   0x00076874   0x000000ec   Code   RO          692    i.gap_params_init   nrf_ble_dfu.o
    0x00076960   0x00076960   0x0000002c   Code   RO         1932    i.hfclk_stop        nrf_drv_clock.o
    0x0007698c   0x0007698c   0x00000030   Code   RO           54    i.inactivity_timer_restart  dfu_req_handling.o
    0x000769bc   0x000769bc   0x0000000c   Code   RO         2991    i.init              nrf_fstorage_nvmc.o
    0x000769c8   0x000769c8   0x00000038   Code   RO         3085    i.init              nrf_fstorage_sd.o
    0x00076a00   0x00076a00   0x000000a6   Code   RO         2884    i.int_print         nrf_fprintf_format.o
    0x00076aa6   0x00076aa6   0x00000002   PAD
    0x00076aa8   0x00076aa8   0x00000010   Code   RO         2992    i.is_busy           nrf_fstorage_nvmc.o
    0x00076ab8   0x00076ab8   0x00000010   Code   RO         3086    i.is_busy           nrf_fstorage_sd.o
    0x00076ac8   0x00076ac8   0x0000000c   Code   RO         1723    i.is_word_aligned   micro_ecc_lib_ecdsa.o
    0x00076ad4   0x00076ad4   0x00000016   Code   RO         1933    i.item_enqueue      nrf_drv_clock.o
    0x00076aea   0x00076aea   0x0000002e   Code   RO         4471    i.iter_from_extension  pb_decode.o
    0x00076b18   0x00076b18   0x00000028   Code   RO         1934    i.lfclk_stop        nrf_drv_clock.o
    0x00076b40   0x00076b40   0x000000f8   Code   RO         2302    i.list_insertions_handler  app_timer.o
    0x00076c38   0x00076c38   0x00000094   Code   RO         3543    i.log_skip          nrf_log_frontend.o
    0x00076ccc   0x00076ccc   0x0000005c   Code   RO          400    i.main              main.o
    0x00076d28   0x00076d28   0x00000076   Code   RO         3194    i.memobj_op         nrf_memobj.o
    0x00076d9e   0x00076d9e   0x00000002   PAD
    0x00076da0   0x00076da0   0x00000034   Code   RO         3544    i.module_idx_get    nrf_log_frontend.o
    0x00076dd4   0x00076dd4   0x00000010   Code   RO         2728    i.nrf_atfifo_clear  nrf_atfifo.o
    0x00076de4   0x00076de4   0x00000026   Code   RO         2730    i.nrf_atfifo_init   nrf_atfifo.o
    0x00076e0a   0x00076e0a   0x00000016   Code   RO         2731    i.nrf_atfifo_item_alloc  nrf_atfifo.o
    0x00076e20   0x00076e20   0x00000016   Code   RO         2732    i.nrf_atfifo_item_free  nrf_atfifo.o
    0x00076e36   0x00076e36   0x00000016   Code   RO         2733    i.nrf_atfifo_item_get  nrf_atfifo.o
    0x00076e4c   0x00076e4c   0x00000016   Code   RO         2734    i.nrf_atfifo_item_put  nrf_atfifo.o
    0x00076e62   0x00076e62   0x0000000e   Code   RO         2993    i.nrf_atomic_flag_clear  nrf_fstorage_nvmc.o
    0x00076e70   0x00076e70   0x0000000e   Code   RO         3545    i.nrf_atomic_flag_set  nrf_log_frontend.o
    0x00076e7e   0x00076e7e   0x0000000c   Code   RO         2994    i.nrf_atomic_flag_set_fetch  nrf_fstorage_nvmc.o
    0x00076e8a   0x00076e8a   0x00000044   Code   RO         2799    i.nrf_balloc_alloc  nrf_balloc.o
    0x00076ece   0x00076ece   0x00000030   Code   RO         2800    i.nrf_balloc_free   nrf_balloc.o
    0x00076efe   0x00076efe   0x00000030   Code   RO         2801    i.nrf_balloc_init   nrf_balloc.o
    0x00076f2e   0x00076f2e   0x00000002   PAD
    0x00076f30   0x00076f30   0x00000148   Code   RO          899    i.nrf_bootloader_app_start  nrf_bootloader_app_start.o
    0x00077078   0x00077078   0x0000006c   Code   RO          857    i.nrf_bootloader_init  nrf_bootloader.o
    0x000770e4   0x000770e4   0x0000000e   Code   RO         1935    i.nrf_clock_event_check  nrf_drv_clock.o
    0x000770f2   0x000770f2   0x00000010   Code   RO         1936    i.nrf_clock_event_clear  nrf_drv_clock.o
    0x00077102   0x00077102   0x00000002   PAD
    0x00077104   0x00077104   0x0000001c   Code   RO         1937    i.nrf_clock_hf_is_running  nrf_drv_clock.o
    0x00077120   0x00077120   0x00000078   Code   RO         1464    i.nrf_crypto_ecdsa_sizes_get  nrf_crypto_ecdsa.o
    0x00077198   0x00077198   0x00000092   Code   RO         1724    i.nrf_crypto_ecdsa_verify_hash  micro_ecc_lib_ecdsa.o
    0x0007722a   0x0007722a   0x00000002   PAD
    0x0007722c   0x0007722c   0x00000074   Code   RO         1866    i.nrf_crypto_hash_compute  nrf_crypto_sw_hash.o
    0x000772a0   0x000772a0   0x00000046   Code   RO         1867    i.nrf_crypto_hash_finalize  nrf_crypto_sw_hash.o
    0x000772e6   0x000772e6   0x00000028   Code   RO         1868    i.nrf_crypto_hash_init  nrf_crypto_sw_hash.o
    0x0007730e   0x0007730e   0x0000002e   Code   RO         1510    i.nrf_crypto_hash_size_get  nrf_crypto_hash.o
    0x0007733c   0x0007733c   0x00000018   Code   RO         1869    i.nrf_crypto_hash_update  nrf_crypto_sw_hash.o
    0x00077354   0x00077354   0x0000008c   Code   RO           55    i.nrf_delay_us      dfu_req_handling.o
    0x000773e0   0x000773e0   0x0000008c   Code   RO          693    i.nrf_delay_us      nrf_ble_dfu.o
    0x0007746c   0x0007746c   0x0000008c   Code   RO         1330    i.nrf_delay_us      nrf_dfu_utils.o
    0x000774f8   0x000774f8   0x0000008c   Code   RO         2303    i.nrf_delay_us      app_timer.o
    0x00077584   0x00077584   0x0000017c   Code   RO         1331    i.nrf_dfu_app_continue  nrf_dfu_utils.o
    0x00077700   0x00077700   0x000000d0   Code   RO         1332    i.nrf_dfu_app_is_valid  nrf_dfu_utils.o
    0x000777d0   0x000777d0   0x00000180   Code   RO         1333    i.nrf_dfu_bl_continue  nrf_dfu_utils.o
    0x00077950   0x00077950   0x00000364   Code   RO           56    i.nrf_dfu_command_req  dfu_req_handling.o
    0x00077cb4   0x00077cb4   0x00000064   Code   RO         1334    i.nrf_dfu_continue  nrf_dfu_utils.o
    0x00077d18   0x00077d18   0x000000dc   Code   RO         1335    i.nrf_dfu_continue_bank  nrf_dfu_utils.o
    0x00077df4   0x00077df4   0x000005f4   Code   RO           57    i.nrf_dfu_data_req  dfu_req_handling.o
    0x000783e8   0x000783e8   0x00000034   Code   RO          954    i.nrf_dfu_enter_check  nrf_dfu.o
    0x0007841c   0x0007841c   0x000002a4   Code   RO         1336    i.nrf_dfu_find_cache  nrf_dfu_utils.o
    0x000786c0   0x000786c0   0x000000c8   Code   RO         1033    i.nrf_dfu_flash_erase  nrf_dfu_flash.o
    0x00078788   0x00078788   0x000000ec   Code   RO         1034    i.nrf_dfu_flash_init  nrf_dfu_flash.o
    0x00078874   0x00078874   0x000000d0   Code   RO         1035    i.nrf_dfu_flash_store  nrf_dfu_flash.o
    0x00078944   0x00078944   0x00000270   Code   RO          955    i.nrf_dfu_init      nrf_dfu.o
    0x00078bb4   0x00078bb4   0x00000038   Code   RO          859    i.nrf_dfu_init_user  nrf_bootloader.o
    0x00078bec   0x00078bec   0x00000018   Code   RO         1337    i.nrf_dfu_invalidate_bank  nrf_dfu_utils.o
    0x00078c04   0x00078c04   0x0000001c   Code   RO         1136    i.nrf_dfu_mbr_compare  nrf_dfu_mbr.o
    0x00078c20   0x00078c20   0x00000016   Code   RO         1137    i.nrf_dfu_mbr_copy_bl  nrf_dfu_mbr.o
    0x00078c36   0x00078c36   0x00000002   PAD
    0x00078c38   0x00078c38   0x00000024   Code   RO         1138    i.nrf_dfu_mbr_copy_sd  nrf_dfu_mbr.o
    0x00078c5c   0x00078c5c   0x00000018   Code   RO         1139    i.nrf_dfu_mbr_init_sd  nrf_dfu_mbr.o
    0x00078c74   0x00078c74   0x0000032c   Code   RO           58    i.nrf_dfu_postvalidate  dfu_req_handling.o
    0x00078fa0   0x00078fa0   0x00000054   Code   RO           59    i.nrf_dfu_req_handler_init  dfu_req_handling.o
    0x00078ff4   0x00078ff4   0x00000074   Code   RO           60    i.nrf_dfu_req_handler_on_req  dfu_req_handling.o
    0x00079068   0x00079068   0x00000038   Code   RO           61    i.nrf_dfu_req_handler_reset_if_dfu_complete  dfu_req_handling.o
    0x000790a0   0x000790a0   0x00000070   Code   RO         1338    i.nrf_dfu_reset_timeout_handler  nrf_dfu_utils.o
    0x00079110   0x00079110   0x000000b8   Code   RO         1339    i.nrf_dfu_sd_bl_continue  nrf_dfu_utils.o
    0x000791c8   0x000791c8   0x0000009c   Code   RO         1340    i.nrf_dfu_sd_continue  nrf_dfu_utils.o
    0x00079264   0x00079264   0x0000030c   Code   RO         1341    i.nrf_dfu_sd_continue_impl  nrf_dfu_utils.o
    0x00079570   0x00079570   0x00000020   Code   RO         3808    i.nrf_dfu_set_adv_name_handler  nrf_dfu_svci_handler.o
    0x00079590   0x00079590   0x00000032   Code   RO         3809    i.nrf_dfu_set_adv_name_on_call  nrf_dfu_svci_handler.o
    0x000795c2   0x000795c2   0x00000024   Code   RO         3810    i.nrf_dfu_set_adv_name_on_sys_evt  nrf_dfu_svci_handler.o
    0x000795e6   0x000795e6   0x00000002   PAD
    0x000795e8   0x000795e8   0x00000070   Code   RO         1244    i.nrf_dfu_settings_additional_erase  nrf_dfu_settings_svci.o
    0x00079658   0x00079658   0x00000018   Code   RO         1245    i.nrf_dfu_settings_adv_name_copy  nrf_dfu_settings_svci.o
    0x00079670   0x00079670   0x00000020   Code   RO         1246    i.nrf_dfu_settings_adv_name_is_valid  nrf_dfu_settings_svci.o
    0x00079690   0x00079690   0x00000038   Code   RO         1247    i.nrf_dfu_settings_adv_name_write  nrf_dfu_settings_svci.o
    0x000796c8   0x000796c8   0x00000010   Code   RO         1189    i.nrf_dfu_settings_crc_get  nrf_dfu_settings.o
    0x000796d8   0x000796d8   0x00000168   Code   RO         1190    i.nrf_dfu_settings_init  nrf_dfu_settings.o
    0x00079840   0x00079840   0x00000104   Code   RO         1191    i.nrf_dfu_settings_write  nrf_dfu_settings.o
    0x00079944   0x00079944   0x000000c0   Code   RO         1296    i.nrf_dfu_transports_close  nrf_dfu_transport.o
    0x00079a04   0x00079a04   0x000000bc   Code   RO         1297    i.nrf_dfu_transports_init  nrf_dfu_transport.o
    0x00079ac0   0x00079ac0   0x00000048   Code   RO         1943    i.nrf_drv_clock_init  nrf_drv_clock.o
    0x00079b08   0x00079b08   0x0000002c   Code   RO         1947    i.nrf_drv_clock_lfclk_release  nrf_drv_clock.o
    0x00079b34   0x00079b34   0x00000068   Code   RO         1948    i.nrf_drv_clock_lfclk_request  nrf_drv_clock.o
    0x00079b9c   0x00079b9c   0x00000028   Code   RO         1949    i.nrf_drv_clock_uninit  nrf_drv_clock.o
    0x00079bc4   0x00079bc4   0x0000000c   Code   RO         2105    i.nrf_drv_common_clock_irq_disable  nrf_drv_common.o
    0x00079bd0   0x00079bd0   0x00000038   Code   RO         2106    i.nrf_drv_common_irq_enable  nrf_drv_common.o
    0x00079c08   0x00079c08   0x0000001a   Code   RO         2840    i.nrf_fprintf       nrf_fprintf.o
    0x00079c22   0x00079c22   0x00000018   Code   RO         2841    i.nrf_fprintf_buffer_flush  nrf_fprintf.o
    0x00079c3a   0x00079c3a   0x000001da   Code   RO         2885    i.nrf_fprintf_fmt   nrf_fprintf_format.o
    0x00079e14   0x00079e14   0x0000004e   Code   RO         2922    i.nrf_fstorage_erase  nrf_fstorage.o
    0x00079e62   0x00079e62   0x00000010   Code   RO         2923    i.nrf_fstorage_init  nrf_fstorage.o
    0x00079e72   0x00079e72   0x00000002   PAD
    0x00079e74   0x00079e74   0x00000018   Code   RO         3087    i.nrf_fstorage_sdh_req_handler  nrf_fstorage_sd.o
    0x00079e8c   0x00079e8c   0x00000020   Code   RO         3088    i.nrf_fstorage_sdh_state_handler  nrf_fstorage_sd.o
    0x00079eac   0x00079eac   0x000000a0   Code   RO         3089    i.nrf_fstorage_sys_evt_handler  nrf_fstorage_sd.o
    0x00079f4c   0x00079f4c   0x00000066   Code   RO         2929    i.nrf_fstorage_write  nrf_fstorage.o
    0x00079fb2   0x00079fb2   0x00000010   Code   RO          694    i.nrf_gpio_cfg_output  nrf_ble_dfu.o
    0x00079fc2   0x00079fc2   0x0000000e   Code   RO          695    i.nrf_gpio_pin_set  nrf_ble_dfu.o
    0x00079fd0   0x00079fd0   0x00000050   Code   RO         3546    i.nrf_log_backend_add  nrf_log_frontend.o
    0x0007a020   0x0007a020   0x00000002   Code   RO         3408    i.nrf_log_backend_rtt_flush  nrf_log_backend_rtt.o
    0x0007a022   0x0007a022   0x00000004   Code   RO         3409    i.nrf_log_backend_rtt_init  nrf_log_backend_rtt.o
    0x0007a026   0x0007a026   0x00000002   Code   RO         3410    i.nrf_log_backend_rtt_panic_set  nrf_log_backend_rtt.o
    0x0007a028   0x0007a028   0x00000018   Code   RO         3411    i.nrf_log_backend_rtt_put  nrf_log_backend_rtt.o
    0x0007a040   0x0007a040   0x000000d2   Code   RO         3472    i.nrf_log_backend_serial_put  nrf_log_backend_serial.o
    0x0007a112   0x0007a112   0x00000002   PAD
    0x0007a114   0x0007a114   0x00000030   Code   RO         3548    i.nrf_log_color_id_get  nrf_log_frontend.o
    0x0007a144   0x0007a144   0x0000001c   Code   RO         3506    i.nrf_log_default_backends_init  nrf_log_default_backends.o
    0x0007a160   0x0007a160   0x000001f0   Code   RO         3549    i.nrf_log_frontend_dequeue  nrf_log_frontend.o
    0x0007a350   0x0007a350   0x00000008   Code   RO         3551    i.nrf_log_frontend_std_0  nrf_log_frontend.o
    0x0007a358   0x0007a358   0x0000000e   Code   RO         3552    i.nrf_log_frontend_std_1  nrf_log_frontend.o
    0x0007a366   0x0007a366   0x00000010   Code   RO         3553    i.nrf_log_frontend_std_2  nrf_log_frontend.o
    0x0007a376   0x0007a376   0x00000012   Code   RO         3554    i.nrf_log_frontend_std_3  nrf_log_frontend.o
    0x0007a388   0x0007a388   0x00000014   Code   RO         3555    i.nrf_log_frontend_std_4  nrf_log_frontend.o
    0x0007a39c   0x0007a39c   0x0000001c   Code   RO         3556    i.nrf_log_frontend_std_5  nrf_log_frontend.o
    0x0007a3b8   0x0007a3b8   0x000000ac   Code   RO         3731    i.nrf_log_hexdump_entry_process  nrf_log_str_formatter.o
    0x0007a464   0x0007a464   0x0000005c   Code   RO         3558    i.nrf_log_init      nrf_log_frontend.o
    0x0007a4c0   0x0007a4c0   0x00000014   Code   RO         3559    i.nrf_log_module_cnt_get  nrf_log_frontend.o
    0x0007a4d4   0x0007a4d4   0x0000001c   Code   RO         3562    i.nrf_log_module_name_get  nrf_log_frontend.o
    0x0007a4f0   0x0007a4f0   0x000000b6   Code   RO         3732    i.nrf_log_std_entry_process  nrf_log_str_formatter.o
    0x0007a5a6   0x0007a5a6   0x00000060   Code   RO         3195    i.nrf_memobj_alloc  nrf_memobj.o
    0x0007a606   0x0007a606   0x00000032   Code   RO         3196    i.nrf_memobj_free   nrf_memobj.o
    0x0007a638   0x0007a638   0x0000000e   Code   RO         3197    i.nrf_memobj_get    nrf_memobj.o
    0x0007a646   0x0007a646   0x00000004   Code   RO         3198    i.nrf_memobj_pool_init  nrf_memobj.o
    0x0007a64a   0x0007a64a   0x00000022   Code   RO         3199    i.nrf_memobj_put    nrf_memobj.o
    0x0007a66c   0x0007a66c   0x0000000c   Code   RO         3200    i.nrf_memobj_read   nrf_memobj.o
    0x0007a678   0x0007a678   0x0000000c   Code   RO         3201    i.nrf_memobj_write  nrf_memobj.o
    0x0007a684   0x0007a684   0x00000030   Code   RO         2160    i.nrf_nvmc_page_erase  nrf_nvmc.o
    0x0007a6b4   0x0007a6b4   0x00000044   Code   RO         2164    i.nrf_nvmc_write_words  nrf_nvmc.o
    0x0007a6f8   0x0007a6f8   0x00000014   Code   RO         4358    i.nrf_sdh_ble_app_ram_start_get  nrf_sdh_ble.o
    0x0007a70c   0x0007a70c   0x000000d8   Code   RO         4360    i.nrf_sdh_ble_enable  nrf_sdh_ble.o
    0x0007a7e4   0x0007a7e4   0x00000050   Code   RO         4361    i.nrf_sdh_ble_evts_poll  nrf_sdh_ble.o
    0x0007a834   0x0007a834   0x0000003c   Code   RO         4226    i.nrf_sdh_disable_request  nrf_sdh.o
    0x0007a870   0x0007a870   0x0000006c   Code   RO         4227    i.nrf_sdh_enable_request  nrf_sdh.o
    0x0007a8dc   0x0007a8dc   0x00000024   Code   RO         4228    i.nrf_sdh_evts_poll  nrf_sdh.o
    0x0007a900   0x0007a900   0x0000000c   Code   RO         4229    i.nrf_sdh_is_enabled  nrf_sdh.o
    0x0007a90c   0x0007a90c   0x0000001c   Code   RO         4231    i.nrf_sdh_request_continue  nrf_sdh.o
    0x0007a928   0x0007a928   0x0000003c   Code   RO         4411    i.nrf_sdh_soc_evts_poll  nrf_sdh_soc.o
    0x0007a964   0x0007a964   0x0000000a   Code   RO         3296    i.nrf_section_iter_init  nrf_section_iter.o
    0x0007a96e   0x0007a96e   0x00000024   Code   RO         3297    i.nrf_section_iter_item_set  nrf_section_iter.o
    0x0007a992   0x0007a992   0x00000020   Code   RO         3298    i.nrf_section_iter_next  nrf_section_iter.o
    0x0007a9b2   0x0007a9b2   0x00000002   PAD
    0x0007a9b4   0x0007a9b4   0x00000038   Code   RO         3331    i.nrf_strerror_find  nrf_strerror.o
    0x0007a9ec   0x0007a9ec   0x00000014   Code   RO         3332    i.nrf_strerror_get  nrf_strerror.o
    0x0007aa00   0x0007aa00   0x0000005c   Code   RO         3845    i.nrf_svc_handler_c  nrf_svc_handler.o
    0x0007aa5c   0x0007aa5c   0x000001c4   Code   RO          696    i.on_ctrl_pt_write  nrf_ble_dfu.o
    0x0007ac20   0x0007ac20   0x000000a4   Code   RO           62    i.on_dfu_complete   dfu_req_handling.o
    0x0007acc4   0x0007acc4   0x00000094   Code   RO          697    i.on_rw_authorize_req  nrf_ble_dfu.o
    0x0007ad58   0x0007ad58   0x00000094   Code   RO          698    i.on_write          nrf_ble_dfu.o
    0x0007adec   0x0007adec   0x00000040   Code   RO         4473    i.pb_dec_bytes      pb_decode.o
    0x0007ae2c   0x0007ae2c   0x00000006   Code   RO         4474    i.pb_dec_fixed32    pb_decode.o
    0x0007ae32   0x0007ae32   0x00000006   Code   RO         4475    i.pb_dec_fixed64    pb_decode.o
    0x0007ae38   0x0007ae38   0x0000003e   Code   RO         4476    i.pb_dec_string     pb_decode.o
    0x0007ae76   0x0007ae76   0x00000040   Code   RO         4477    i.pb_dec_submessage  pb_decode.o
    0x0007aeb6   0x0007aeb6   0x00000058   Code   RO         4478    i.pb_dec_svarint    pb_decode.o
    0x0007af0e   0x0007af0e   0x00000058   Code   RO         4479    i.pb_dec_uvarint    pb_decode.o
    0x0007af66   0x0007af66   0x0000005a   Code   RO         4480    i.pb_dec_varint     pb_decode.o
    0x0007afc0   0x0007afc0   0x0000001e   Code   RO         4481    i.pb_decode         pb_decode.o
    0x0007afde   0x0007afde   0x00000020   Code   RO         4483    i.pb_decode_fixed32  pb_decode.o
    0x0007affe   0x0007affe   0x0000005c   Code   RO         4484    i.pb_decode_fixed64  pb_decode.o
    0x0007b05a   0x0007b05a   0x00000002   PAD
    0x0007b05c   0x0007b05c   0x00000186   Code   RO         4485    i.pb_decode_noinit  pb_decode.o
    0x0007b1e2   0x0007b1e2   0x0000003a   Code   RO         4486    i.pb_decode_svarint  pb_decode.o
    0x0007b21c   0x0007b21c   0x00000042   Code   RO         4487    i.pb_decode_tag     pb_decode.o
    0x0007b25e   0x0007b25e   0x0000004a   Code   RO         4488    i.pb_decode_varint  pb_decode.o
    0x0007b2a8   0x0007b2a8   0x0000004c   Code   RO         4489    i.pb_decode_varint32  pb_decode.o
    0x0007b2f4   0x0007b2f4   0x00000058   Code   RO           63    i.pb_decoding_callback  dfu_req_handling.o
    0x0007b34c   0x0007b34c   0x00000022   Code   RO         4440    i.pb_field_iter_begin  pb_common.o
    0x0007b36e   0x0007b36e   0x0000002e   Code   RO         4441    i.pb_field_iter_find  pb_common.o
    0x0007b39c   0x0007b39c   0x00000080   Code   RO         4442    i.pb_field_iter_next  pb_common.o
    0x0007b41c   0x0007b41c   0x000000a4   Code   RO         4490    i.pb_field_set_to_default  pb_decode.o
    0x0007b4c0   0x0007b4c0   0x00000014   Code   RO         4491    i.pb_istream_from_buffer  pb_decode.o
    0x0007b4d4   0x0007b4d4   0x00000036   Code   RO         4492    i.pb_make_string_substream  pb_decode.o
    0x0007b50a   0x0007b50a   0x00000026   Code   RO         4493    i.pb_message_set_to_defaults  pb_decode.o
    0x0007b530   0x0007b530   0x00000058   Code   RO         4494    i.pb_read           pb_decode.o
    0x0007b588   0x0007b588   0x00000020   Code   RO         4495    i.pb_readbyte       pb_decode.o
    0x0007b5a8   0x0007b5a8   0x0000005a   Code   RO         4496    i.pb_skip_field     pb_decode.o
    0x0007b602   0x0007b602   0x00000002   PAD
    0x0007b604   0x0007b604   0x0000003c   Code   RO         3733    i.postfix_process   nrf_log_str_formatter.o
    0x0007b640   0x0007b640   0x0000005c   Code   RO         3734    i.prefix_process    nrf_log_str_formatter.o
    0x0007b69c   0x0007b69c   0x00000094   Code   RO         3090    i.queue_process     nrf_fstorage_sd.o
    0x0007b730   0x0007b730   0x00000028   Code   RO         3091    i.queue_start       nrf_fstorage_sd.o
    0x0007b758   0x0007b758   0x0000000e   Code   RO         2995    i.read              nrf_fstorage_nvmc.o
    0x0007b766   0x0007b766   0x0000000e   Code   RO         3092    i.read              nrf_fstorage_sd.o
    0x0007b774   0x0007b774   0x00000062   Code   RO         4497    i.read_raw_value    pb_decode.o
    0x0007b7d6   0x0007b7d6   0x00000002   PAD
    0x0007b7d8   0x0007b7d8   0x000000c0   Code   RO           64    i.reset_device      dfu_req_handling.o
    0x0007b898   0x0007b898   0x00000070   Code   RO         1342    i.reset_device_callback  nrf_dfu_utils.o
    0x0007b908   0x0007b908   0x000000a8   Code   RO          699    i.response_crc_cmd_send  nrf_ble_dfu.o
    0x0007b9b0   0x0007b9b0   0x00000084   Code   RO          700    i.response_select_object_cmd_send  nrf_ble_dfu.o
    0x0007ba34   0x0007ba34   0x00000098   Code   RO          701    i.response_send     nrf_ble_dfu.o
    0x0007bacc   0x0007bacc   0x00000004   Code   RO         2996    i.rmap              nrf_fstorage_nvmc.o
    0x0007bad0   0x0007bad0   0x00000004   Code   RO         3093    i.rmap              nrf_fstorage_sd.o
    0x0007bad4   0x0007bad4   0x0000003c   Code   RO         2304    i.rtc1_stop         app_timer.o
    0x0007bb10   0x0007bb10   0x00000042   Code   RO         4234    i.sd_nvic_SetPriority  nrf_sdh.o
    0x0007bb52   0x0007bb52   0x00000002   PAD
    0x0007bb54   0x0007bb54   0x00000054   Code   RO         1950    i.sd_state_evt_handler  nrf_drv_clock.o
    0x0007bba8   0x0007bba8   0x00000030   Code   RO         4235    i.sdh_request_observer_notify  nrf_sdh.o
    0x0007bbd8   0x0007bbd8   0x0000002c   Code   RO         4236    i.sdh_state_observer_notify  nrf_sdh.o
    0x0007bc04   0x0007bc04   0x00000028   Code   RO          702    i.send_hvx          nrf_ble_dfu.o
    0x0007bc2c   0x0007bc2c   0x0000002a   Code   RO         3412    i.serial_tx         nrf_log_backend_rtt.o
    0x0007bc56   0x0007bc56   0x00000110   Code   RO         3364    i.sha256_final      sha256.o
    0x0007bd66   0x0007bd66   0x00000002   PAD
    0x0007bd68   0x0007bd68   0x00000054   Code   RO         3365    i.sha256_init       sha256.o
    0x0007bdbc   0x0007bdbc   0x0000012c   Code   RO         3366    i.sha256_transform  sha256.o
    0x0007bee8   0x0007bee8   0x00000054   Code   RO         3367    i.sha256_update     sha256.o
    0x0007bf3c   0x0007bf3c   0x0000000a   Code   RO         1951    i.soc_evt_handler   nrf_drv_clock.o
    0x0007bf46   0x0007bf46   0x00000002   PAD
    0x0007bf48   0x0007bf48   0x00000038   Code   RO         4237    i.softdevice_evt_irq_disable  nrf_sdh.o
    0x0007bf80   0x0007bf80   0x00000050   Code   RO         4238    i.softdevices_evt_irq_enable  nrf_sdh.o
    0x0007bfd0   0x0007bfd0   0x00000090   Code   RO         3565    i.std_n             nrf_log_frontend.o
    0x0007c060   0x0007c060   0x00000080   Code   RO         2305    i.timer_list_handler  app_timer.o
    0x0007c0e0   0x0007c0e0   0x0000003c   Code   RO         2306    i.timer_list_insert  app_timer.o
    0x0007c11c   0x0007c11c   0x00000060   Code   RO         2307    i.timer_list_remove  app_timer.o
    0x0007c17c   0x0007c17c   0x00000048   Code   RO         2308    i.timer_stop_op_schedule  app_timer.o
    0x0007c1c4   0x0007c1c4   0x00000074   Code   RO         2309    i.timer_timeouts_check  app_timer.o
    0x0007c238   0x0007c238   0x00000012   Code   RO          703    i.uint32_encode     nrf_ble_dfu.o
    0x0007c24a   0x0007c24a   0x00000002   PAD
    0x0007c24c   0x0007c24c   0x00000010   Code   RO         2997    i.uninit            nrf_fstorage_nvmc.o
    0x0007c25c   0x0007c25c   0x00000020   Code   RO         3094    i.uninit            nrf_fstorage_sd.o
    0x0007c27c   0x0007c27c   0x000000b4   Code   RO         2886    i.unsigned_print    nrf_fprintf_format.o
    0x0007c330   0x0007c330   0x00000030   Code   RO         2310    i.user_op_alloc     app_timer.o
    0x0007c360   0x0007c360   0x00000004   Code   RO         2998    i.wmap              nrf_fstorage_nvmc.o
    0x0007c364   0x0007c364   0x00000004   Code   RO         3095    i.wmap              nrf_fstorage_sd.o
    0x0007c368   0x0007c368   0x00000044   Code   RO         2999    i.write             nrf_fstorage_nvmc.o
    0x0007c3ac   0x0007c3ac   0x00000050   Code   RO         3096    i.write             nrf_fstorage_sd.o
    0x0007c3fc   0x0007c3fc   0x00000001   Data   RO            1    .constdata          dfu-cc.pb.o
    0x0007c3fd   0x0007c3fd   0x00000003   PAD
    0x0007c400   0x0007c400   0x00000024   Data   RO            2    .constdata          dfu-cc.pb.o
    0x0007c424   0x0007c424   0x00000078   Data   RO            3    .constdata          dfu-cc.pb.o
    0x0007c49c   0x0007c49c   0x00000018   Data   RO            4    .constdata          dfu-cc.pb.o
    0x0007c4b4   0x0007c4b4   0x00000030   Data   RO            5    .constdata          dfu-cc.pb.o
    0x0007c4e4   0x0007c4e4   0x00000030   Data   RO            6    .constdata          dfu-cc.pb.o
    0x0007c514   0x0007c514   0x00000024   Data   RO            7    .constdata          dfu-cc.pb.o
    0x0007c538   0x0007c538   0x00000040   Data   RO           36    .constdata          dfu_public_key.o
    0x0007c578   0x0007c578   0x0000000c   Data   RO           70    .constdata          dfu_req_handling.o
    0x0007c584   0x0007c584   0x00000028   Data   RO          705    .constdata          nrf_ble_dfu.o
    0x0007c5ac   0x0007c5ac   0x00000004   Data   RO          958    .constdata          nrf_dfu.o
    0x0007c5b0   0x0007c5b0   0x00000040   Data   RO         1141    .constdata          nrf_dfu_mbr.o
    0x0007c5f0   0x0007c5f0   0x00000004   Data   RO         1344    .constdata          nrf_dfu_utils.o
    0x0007c5f4   0x0007c5f4   0x00000008   Data   RO         1870    .constdata          nrf_crypto_sw_hash.o
    0x0007c5fc   0x0007c5fc   0x00000010   Data   RO         2887    .constdata          nrf_fprintf_format.o
    0x0007c60c   0x0007c60c   0x0000000c   Data   RO         3000    .constdata          nrf_fstorage_nvmc.o
    0x0007c618   0x0007c618   0x00000020   Data   RO         3001    .constdata          nrf_fstorage_nvmc.o
    0x0007c638   0x0007c638   0x00000010   Data   RO         3099    .constdata          nrf_fstorage_sd.o
    0x0007c648   0x0007c648   0x00000020   Data   RO         3100    .constdata          nrf_fstorage_sd.o
    0x0007c668   0x0007c668   0x00000104   Data   RO         3333    .constdata          nrf_strerror.o
    0x0007c76c   0x0007c76c   0x00000100   Data   RO         3368    .constdata          sha256.o
    0x0007c86c   0x0007c86c   0x0000000c   Data   RO         3414    .constdata          nrf_log_backend_rtt.o
    0x0007c878   0x0007c878   0x00000014   Data   RO         3568    .constdata          nrf_log_frontend.o
    0x0007c88c   0x0007c88c   0x00000010   Data   RO         4239    .constdata          nrf_sdh.o
    0x0007c89c   0x0007c89c   0x00000028   Data   RO         4240    .constdata          nrf_sdh.o
    0x0007c8c4   0x0007c8c4   0x00000010   Data   RO         4241    .constdata          nrf_sdh.o
    0x0007c8d4   0x0007c8d4   0x00000010   Data   RO         4242    .constdata          nrf_sdh.o
    0x0007c8e4   0x0007c8e4   0x00000020   Data   RO         4362    .constdata          nrf_sdh_ble.o
    0x0007c904   0x0007c904   0x00000010   Data   RO         4363    .constdata          nrf_sdh_ble.o
    0x0007c914   0x0007c914   0x00000010   Data   RO         4412    .constdata          nrf_sdh_soc.o
    0x0007c924   0x0007c924   0x0000000c   Data   RO         4413    .constdata          nrf_sdh_soc.o
    0x0007c930   0x0007c930   0x00000024   Data   RO         4498    .constdata          pb_decode.o
    0x0007c954   0x0007c954   0x00000081   Data   RO         4802    .constdata          mc_w.l(ctype_o.o)
    0x0007c9d5   0x0007c9d5   0x00000003   PAD
    0x0007c9d8   0x0007c9d8   0x00000004   Data   RO         4803    .constdata          mc_w.l(ctype_o.o)
    0x0007c9dc   0x0007c9dc   0x000000fd   Data   RO           71    .conststring        dfu_req_handling.o
    0x0007cad9   0x0007cad9   0x00000003   PAD
    0x0007cadc   0x0007cadc   0x000000a1   Data   RO          706    .conststring        nrf_ble_dfu.o
    0x0007cb7d   0x0007cb7d   0x00000003   PAD
    0x0007cb80   0x0007cb80   0x00000089   Data   RO         1345    .conststring        nrf_dfu_utils.o
    0x0007cc09   0x0007cc09   0x00000003   PAD
    0x0007cc0c   0x0007cc0c   0x00000307   Data   RO         3334    .conststring        nrf_strerror.o
    0x0007cf13   0x0007cf13   0x00000001   PAD
    0x0007cf14   0x0007cf14   0x00000066   Data   RO         3735    .conststring        nrf_log_str_formatter.o
    0x0007cf7a   0x0007cf7a   0x00000002   PAD
    0x0007cf7c   0x0007cf7c   0x00000011   Data   RO           72    .conststrlit        dfu_req_handling.o
    0x0007cf8d   0x0007cf8d   0x00000003   PAD
    0x0007cf90   0x0007cf90   0x0000000e   Data   RO         1036    .conststrlit        nrf_dfu_flash.o
    0x0007cf9e   0x0007cf9e   0x00000002   PAD
    0x0007cfa0   0x0007cfa0   0x00000011   Data   RO         1196    .conststrlit        nrf_dfu_settings.o
    0x0007cfb1   0x0007cfb1   0x00000003   PAD
    0x0007cfb4   0x0007cfb4   0x00000016   Data   RO         1248    .conststrlit        nrf_dfu_settings_svci.o
    0x0007cfca   0x0007cfca   0x00000002   PAD
    0x0007cfcc   0x0007cfcc   0x00000006   Data   RO         1957    .conststrlit        nrf_drv_clock.o
    0x0007cfd2   0x0007cfd2   0x00000002   PAD
    0x0007cfd4   0x0007cfd4   0x00000009   Data   RO         2633    .conststrlit        mem_manager.o
    0x0007cfdd   0x0007cfdd   0x00000003   PAD
    0x0007cfe0   0x0007cfe0   0x00000007   Data   RO         2802    .conststrlit        nrf_balloc.o
    0x0007cfe7   0x0007cfe7   0x00000001   PAD
    0x0007cfe8   0x0007cfe8   0x00000004   Data   RO         3570    .conststrlit        nrf_log_frontend.o
    0x0007cfec   0x0007cfec   0x00000008   Data   RO         4243    .conststrlit        nrf_sdh.o
    0x0007cff4   0x0007cff4   0x0000000c   Data   RO         4365    .conststrlit        nrf_sdh_ble.o
    0x0007d000   0x0007d000   0x0000000c   Data   RO         4414    .conststrlit        nrf_sdh_soc.o
    0x0007d00c   0x0007d00c   0x000000b0   Data   RO         4766    .rodata.curve_secp256r1  micro_ecc_lib_nrf52.lib(micro_ecc_lib_uECC.c.o)
    0x0007d0bc   0x0007d0bc   0x00000020   Data   RO         4863    Region$$Table       anon$$obj.o
    0x0007d0dc   0x0007d0dc   0x00000008   Data   RO          708    dfu_trans           nrf_ble_dfu.o
    0x0007d0e4   0x0007d0e4   0x00000008   Data   RO           74    log_const_data      dfu_req_handling.o
    0x0007d0ec   0x0007d0ec   0x00000008   Data   RO         1039    log_const_data      nrf_dfu_flash.o
    0x0007d0f4   0x0007d0f4   0x00000008   Data   RO         1197    log_const_data      nrf_dfu_settings.o
    0x0007d0fc   0x0007d0fc   0x00000008   Data   RO         1249    log_const_data      nrf_dfu_settings_svci.o
    0x0007d104   0x0007d104   0x00000008   Data   RO         1958    log_const_data      nrf_drv_clock.o
    0x0007d10c   0x0007d10c   0x00000008   Data   RO         2635    log_const_data      mem_manager.o
    0x0007d114   0x0007d114   0x00000008   Data   RO         2803    log_const_data      nrf_balloc.o
    0x0007d11c   0x0007d11c   0x00000008   Data   RO         3574    log_const_data      nrf_log_frontend.o
    0x0007d124   0x0007d124   0x00000008   Data   RO         4245    log_const_data      nrf_sdh.o
    0x0007d12c   0x0007d12c   0x00000008   Data   RO         4366    log_const_data      nrf_sdh_ble.o
    0x0007d134   0x0007d134   0x00000008   Data   RO         4415    log_const_data      nrf_sdh_soc.o
    0x0007d13c   0x0007d13c   0x00000008   Data   RO          709    sdh_ble_observers2  nrf_ble_dfu.o
    0x0007d144   0x0007d144   0x00000008   Data   RO         3102    sdh_req_observers0  nrf_fstorage_sd.o
    0x0007d14c   0x0007d14c   0x00000008   Data   RO         1960    sdh_soc_observers0  nrf_drv_clock.o
    0x0007d154   0x0007d154   0x00000008   Data   RO         3103    sdh_soc_observers0  nrf_fstorage_sd.o
    0x0007d15c   0x0007d15c   0x00000008   Data   RO         4368    sdh_stack_observers0  nrf_sdh_ble.o
    0x0007d164   0x0007d164   0x00000008   Data   RO         4417    sdh_stack_observers0  nrf_sdh_soc.o
    0x0007d16c   0x0007d16c   0x00000008   Data   RO         1961    sdh_state_observers0  nrf_drv_clock.o
    0x0007d174   0x0007d174   0x00000008   Data   RO         3104    sdh_state_observers0  nrf_fstorage_sd.o
    0x0007d17c   0x0007d17c   0x0000000c   Data   RO         3811    svc_data            nrf_dfu_svci_handler.o


    Execution Region RW_IRAM1 (Exec base: 0x20002830, Load base: 0x0007d188, Size: 0x000042a8, Max: 0x0000d7d0, ABSOLUTE, COMPRESSED[0x00000058])

    Exec Addr    Load Addr    Size         Type   Attr      Idx    E Section Name        Object

