:020000040000FA
:10000000D83C0020550500005D0500004D030000B0
:1000100061050000630500006505000000000000A8
:100020000000000000000000000000006705000064
:1000300069050000000000006B0500006D05000070
:10004000630B00006F050000E90E00006F05000063
:100050006F0500006F050000590700006F050000E4
:100060006F0500006F0500006F0500006F050000C0
:100070006F0500006F0500006F0500006F050000B0
:100080006F050000710B00006F0500006F05000098
:10009000DD0C00006F0500006F0500006F0500001B
:1000A0006F0500006F0500006F0500006F05000080
:1000B0006F0500006F050000000000000000000058
:1000C0006F0500006F0500006F0500006F05000060
:1000D0006F0500006F0500006F050000050F0000B0
:1000E0006F0500006F0500006F05000000000000B4
:1000F000000000006F050000000000006F05000018
:1001000000000000000000000000000000000000EF
:1001100000000000000000000000000000000000DF
:1001200000000000000000000000000000000000CF
:1001300000000000000000000000000000000000BF
:1001400000000000000000000000000000000000AF
:10015000000000000000000000000000000000009F
:10016000000000000000000000000000000000008F
:10017000000000000000000000000000000000007F
:10018000000000000000000000000000000000006F
:10019000000000000000000000000000000000005F
:1001A000000000000000000000000000000000004F
:1001B000000000000000000000000000000000003F
:1001C000000000000000000000000000000000002F
:1001D000000000000000000000000000000000001F
:1001E000000000000000000000000000000000000F
:1001F00000000000000000000000000000000000FF
:10020000DFF80CD000F06AFA00480047255A0000D9
:10021000D83C002030B4044654E8000F0D4644E8B2
:100220000053002BF8D1156030BC704730B4044641
:1002300054E8000F40EA010544E80053002BF7D1D1
:10024000156030BC704730B4044654E8000F00EA33
:10025000010544E80053002BF7D1156030BC70470E
:1002600030B4044654E8000F80EA010544E8005326
:10027000002BF7D1156030BC704730B4044654E809
:10028000000F00EB010544E80053002BF7D1156087
:1002900030BC704730B4044654E8000FA0EB0105B1
:1002A00044E80053002BF7D1156030BC70470000C4
:1002B00030B4044654E8000F0D4644E80053002BC8
:1002C000F8D1156030BC704730B4044654E8000FD4
:1002D00040EA010544E80053002BF7D1156030BC1B
:1002E000704730B4044654E8000F00EA010544E8C2
:1002F0000053002BF7D1156030BC704730B4044672
:1003000054E8000F80EA010544E80053002BF7D1C0
:10031000156030BC704730B4044654E8000F00EB61
:10032000010544E80053002BF7D1156030BC70473D
:1003300030B4044654E8000FA0EB010544E8005334
:10034000002BF7D1156030BC70470000094B1EF040
:10035000040F1CBFEFF309801847EFF3088006492C
:10036000064A884201D8904202D88D464FF00000DC
:10037000184700001D090000D83C0020D81C0020B0
:1003800030B4044654E8000F0D4644E80053002BF7
:10039000F8D1156030BC704730B4044654E8000F03
:1003A00040EA010544E80053002BF7D1156030BC4A
:1003B000704730B4044654E8000F00EA010544E8F1
:1003C0000053002BF7D1156030BC704730B40446A1
:1003D00054E8000F80EA010544E80053002BF7D1F0
:1003E000156030BC704730B4044654E8000F00EB91
:1003F000010544E80053002BF7D1156030BC70476D
:1004000030B4044654E8000FA0EB010544E8005363
:10041000002BF7D1156030BC7047000030B40446A3
:1004200054E8000F0D4644E80053002BF8D1156046
:1004300030BC704730B4044654E8000F40EA010570
:1004400044E80053002BF7D1156030BC704730B43E
:10045000044654E8000F00EA010544E80053002B6D
:10046000F7D1156030BC704730B4044654E8000F33
:1004700080EA010544E80053002BF7D1156030BC39
:10048000704730B4044654E8000F00EB010544E81F
:100490000053002BF7D1156030BC704730B40446D0
:1004A00054E8000FA0EB010544E80053002BF7D1FE
:1004B000156030BC7047000030B4044654E8000FAB
:1004C0000D4644E80053002BF8D1156030BC70474E
:1004D00030B4044654E8000F40EA010544E80053F4
:1004E000002BF7D1156030BC704730B4044654E897
:1004F000000F00EA010544E80053002BF7D1156016
:1005000030BC704730B4044654E8000F80EA01055F
:1005100044E80053002BF7D1156030BC704730B46D
:10052000044654E8000F00EB010544E80053002B9B
:10053000F7D1156030BC704730B4044654E8000F62
:10054000A0EB010544E80053002BF7D1156030BC47
:10055000704700000648804706480047FEE7FEE770
:10056000FEE7FEE7FEE7FEE7FEE7FEE7FEE7FEE763
:10057000E10C0000010200000048704758C800006C
:100580002DE9FE43994615468846074601AC0229E7
:1005900042D3002D40D000200290A8F101004FF07E
:1005A000FF36009022E000FB057201FB057011464A
:1005B0004A469047002805DC54F82600304444F8A9
:1005C000260013E060682A4600FB057154F8040C0D
:1005D00000FB057007E00B7890F800C001F801CB34
:1005E00000F8013B521E002AF5D1764254F8040C63
:1005F00061688842D7DC4B462A463846FFF7C0FF81
:1006000054F8040C4B46A8EB0001401C00FB05709D
:100610002A46491EFFF7B4FFBDE8FE8310B5431A12
:10062000934209D28318881803E010F8011D03F8DB
:10063000011D521EF9D210BD40EA01039B0703D0F1
:1006400009E008C9121F08C0042AFAD203E011F811
:10065000013B00F8013B521EF9D210BDD2B201E0BD
:1006600000F8012B491EFBD270470022F6E710B5B7
:1006700013460A4604461946FFF7F0FF204610BD10
:10068000421C10F8011B0029FBD1801A704710B5DD
:10069000002200E0521C835C8C5CA34201D1002B41
:1006A000F8D1D8B2E1B2401A10BD034611F8012BBF
:1006B00000F8012B002AF9D11846704730B50546DD
:1006C0000020034600E05B1C934205D2EC5CC85C52
:1006D000201A01D1002CF6D130BD0000064C074D88
:1006E00006E0E06840F0010394E807009847103402
:1006F000AC42F6D3FFF788FD70DF000090DF00000A
:1007000070B58C1810F8015B15F0070301D110F8D3
:10071000013B2A1106D110F8012B03E010F8016B00
:1007200001F8016B5B1EF9D12B0705D40023521E83
:100730000DD401F8013BFAE710F8013BCB1A921CEB
:1007400003E013F8015B01F8015B521EF9D5A142E9
:10075000D8D3002070BD00002DE9F04F00268FB0E7
:10076000DFF8B081B14602964FF480750124374618
:100770000396284608F014FB38B1D8F80403204249
:1007800003D0284608F002FB26432D1D64007F1C81
:10079000ADB2082FEDD34FF4BE74204608F000FB35
:1007A00048B1204608F0F2FA46F0004602AA0221BB
:1007B000002008F0B1FA584C16F0FF0F15D00127B1
:1007C000002537420DD008EB8501D1F81005D1F88E
:1007D0001015C0F3052054F82520C1F3014102B1E2
:1007E00090477F006D1C082DEBD3002E7DDA002092
:1007F000CDF82890411E0DF1080B08AACDF82C90D9
:1008000042F82010401C91460228F9D300252E46BC
:10081000A01910F8607F90F9000027F0C008401C74
:1008200049D008A9404605F0A5FC88B34FEA971ABD
:10083000404602F039F854F820701FB1BAF1030FA6
:1008400003D00FE0BAF1030F35D10AA84FEAD8025E
:1008500008F00703815C4FF0010C0CFA03FC41EA3D
:100860000C01815406A8CDF8188008F0E3F9069928
:1008700000EB8100D0F8000702A9C0F30140069008
:10088000404605F077FC0028069802D0022802D0E6
:1008900011E003280FD1BAF1030F08D106980228FE
:1008A00032D00221404608F0ACF96D1CEDB217B110
:1008B00051464046B847761C042EA9D3002D20D0BF
:1008C00004AA0221002008F027FA00205A4604A9B1
:1008D00052F8206051F82030B34217D000200AAE01
:1008E0004FEA090351F8207000E00AE042F8207056
:1008F00056F8207043F82070401C0228F2D3002DD7
:1009000084D10FB0BDE8F08F0321CBE7401C022853
:10091000DED3F6E700600040901000201CB5814651
:1009200008F004FD08F0D4FA0028FBD137484E4601
:100930000768374C01256068002821D0208835A140
:1009400005EB0040B26908F0D1FB6068002817D0C1
:10095000D6E90201CDE900012088D6E9002305EBA4
:10096000004032A108F0DAFB606848B1F0690090FD
:10097000D6E9042320883BA105EB004008F0C5FB25
:100980002248001D0068800707D5606828B12088CC
:100990003E4905EB004008F0A5FBDFF8F480002697
:1009A00005FA06F038420AD058F826203AB16068B5
:1009B00028B1208837A105EB004008F097FB761C92
:1009C0001A2EEDD338060AD5606840B10F480C30B6
:1009D0000268208832A105EB004008F087FB38044C
:1009E0000AD5606840B1094810300268208834A1F7
:1009F00005EB004008F07AFB0448C8300068C007E7
:100A000000D000BE484600F069F8000028ED00E084
:100A10000803002048415244204641554C5420616F
:100A200074203078253038580000000020205230E3
:100A30003A2020307825303858202052313A202072
:100A4000307825303858202052323A20203078250E
:100A5000303858202052333A20203078253038580A
:100A60000000000020205231323A20307825303802
:100A70005820204C523A20203078253038582020F9
:100A80005053523A203078253038580054D2000064
:100A90008C01002043617573653A2025732E000098
:100AA0004D656D4D616E616765204661756C7420A2
:100AB000416464726573733A203078253038580089
:100AC000427573204661756C74204164647265736D
:100AD000733A20307825303858000000BFF34F8F2C
:100AE00005480168054A01F4E06111430160BFF364
:100AF0004F8F00BFFDE700000CED00E00400FA0599
:100B000000F01F02012191404009800000F1E02027
:100B1000C0F88012704700F01F0201219140400987
:100B2000800000F1E020C0F80011704700F01F02C3
:100B3000012191404009800000F1E020C0F800123E
:100B400070474907090E002806DA00F00F0000F18F
:100B5000E02080F8141D704700F1E02080F80014B8
:100B6000704710B506F08EFBBDE8104006F036BCAD
:100B700007480021C0F84011C0F84411C0F84811DE
:100B8000C0F84C11C0F80011C0F804110AF090BC74
:100B900000100140044900EB400001EBC000416D32
:100BA000806D081A704700004C1A002000F05EBAF1
:100BB00070B5064614460D46002001F07BFC224627
:100BC0002946304600F006F80446002001F0A0FC5B
:100BD000204670BD2DE9F0471B4D07461646287884
:100BE0000C4608B900F042FA07EB470005EBC007D6
:100BF000A046D7E91595002448374D4511D9B86866
:100C0000441BB44200D3344678682246411940461A
:100C1000FFF704FDB868361B2544A044A84200D164
:100C20000025A9EB0500B04200D206463EB1786827
:100C3000324641194046FFF7F1FC3444354404B1D3
:100C40003D612046BDE8F0874C1A002070B50B4B83
:100C50000646144618780D4608B900F007FA002039
:100C600001F028FC22462946304600F009F80446E7
:100C7000002001F04DFC204670BD00004C1A002001
:100C800070B50E46144900EB400001EBC005144658
:100C9000E86A183520B101280FD0022805D113E0E9
:100CA000284600F017FAA04201D2002411E02246A3
:100CB0003146284600F046FA0BE0284600F00AFAD2
:100CC000A042F4D20446F2E73146284600F00DFA7D
:100CD0000446204670BD00004C1A00200AF03ABBC2
:100CE00030B54FF080500022D0F830110123082990
:100CF00002D1D0F8344114B1082909D00BE04FF0EB
:100D00008041C1F80C21C1F8102168490A6005E052
:100D1000D0F8344114B1082957D059E06449096822
:100D2000644C21606249091D0968241D21606049E5
:100D300008310968241D21605D490C310968241DB2
:100D400021605B4910310968241D21605849143124
:100D50000968241D2160564918310968554C203412
:100D6000216053491C310968241D216050492031FC
:100D70000968241D21604E4924310968241D216021
:100D80004B4928310968241D216049492C310968E3
:100D9000241D2160464930310968464C40342160A9
:100DA000434934310968241D2160414938310968BB
:100DB000241D21603E493C310968241D21603C49C5
:100DC00040310968241D216005E0D0F8344114B198
:100DD000082904D006E0394C3749216005E0D0F8F5
:100DE000344114B1082904D006E0354CFB212160C0
:100DF00005E0D0F8344114B1082908D00AE090F891
:100E000058423048016864F30301016005E0D0F8FE
:100E1000344114B1082905D00EE02B494FF400707D
:100E2000086002E0D0F8340130B928480168C907E9
:100E300002D06FF0010101602548016841F47001A2
:100E40000160BFF34F8FBFF36F8F4FF01021D1F8C8
:100E50000002002803DBD1F80402002822DA1D4C2E
:100E600023601D480368002BFCD01223C1F8003218
:100E70000568002DFCD0C1F8043201680029FCD0BF
:100E8000226001680029FCD0BFF34F8F10487C38E6
:100E90000168124A01F4E06111430160BFF34F8F12
:100EA00000BFFDE70F490E48086030BD380500401F
:100EB0000404001020C50040488103008C56004007
:100EC00018F50040E40E0040409602400004004047
:100ED00088ED00E004E5014000E401400400FA056B
:100EE0000090D003700200200448017F04480029CC
:100EF000024901D00AF045BC0AF0B4BBF81000204A
:100F0000002000402DE9F05F5448D0F8045300243D
:100F10002E464FF0010913E096FAA6F0B0FA80F7DA
:100F2000B80000F58070804609F068FB28B14046A3
:100F300009F06CFB09FA07F0044309FA07F086434D
:100F4000002EE9D107F02CF9002869D0444AD07866
:100F5000F0BBA00264D5434940F2A978C1F80080F3
:100F6000081D036813F0FF0C02D0036803EA0C0CA1
:100F700040F2AA7AC1F800A0036813F0FF0301D081
:100F80000668334040F2AB7BC1F800B0066816F04B
:100F9000FF0601D007683E4040F2AC770F6007685B
:100FA00017EA0C0709D0D2F810C04CEA070CC2F8B7
:100FB00010C0C1F800800760076840F2AD770F608D
:100FC00007681F4009D0136943EA0743136100E033
:100FD00026E0C1F800A00760036840F2AE730B6022
:100FE000036833400BD0DE0701D044F40004DE0672
:100FF00001D544F00104C1F800B003600068106935
:1010000030F0011102D005F080710C4310F0011F87
:1010100006D0690504D520F0011044F48064106105
:10102000C4F3C05624F400044F46DFF83C8009E0C6
:1010300094FAA4F0B0FA80F558F82500804707FA32
:1010400005F08443002CF3D10AF042FD002E03D0BA
:10105000BDE8F05F03F0DEBEBDE8F09F0070024027
:10106000600100200078024004C3000010B5124C5B
:1010700002202061606111A0A06104F17800E061AC
:101080004FF4007020620020A06260620BA1A16496
:10109000E06204F51E71E1641021A065C4E914103A
:1010A000E06509A1E01DFFF700FB08A12046FFF75E
:1010B000FCFA2020A07110BD4C1A00205465726DFE
:1010C000696E616C0000000052545400534547475C
:1010D000455200000269C1688A4203D88068401AFC
:1010E000104400E0501A401E70472DE9F047C468D4
:1010F0001746894606464FF000083069A04201D9DC
:10110000051B02E0B168201A0D1AB0686D1E001BA5
:10111000A84200D80546BD4200D33D4670682A4625
:1011200020444946FFF77AFAB0687F1B2C44A84454
:10113000A944A04200D10024F460002FDDD1404634
:10114000BDE8F0872DE9F04104468846D4E902075E
:10115000C51BE168606816460844B54206D9414699
:10116000FFF75CFAB819E060BDE8F0812A46414615
:10117000FFF754FA761B08EB050132466068FFF76B
:101180004DFAE660F0E700000FB4084B10B504A973
:1011900002AA039800F01BF8044602A9002000F000
:1011A00081F8204610BC5DF814FB0000A512000079
:1011B00002E008C8121F08C1002AFAD17047704720
:1011C000002001E001C1121F002AFBD170472DE968
:1011D000F84F9946924688460546002706E025289E
:1011E0000AD051464A4690476D1C7F1C287800283B
:1011F000F5D13846BDE8F88F002315F8011F1846D1
:101200002E2915D115F8011F04232A290DD06FF0BE
:101210002F022978A1F13004092C09D800EB8000B5
:1012200002EB400008446D1CF3E758F8040B6D1CFA
:101230002A78002ADDD0632A07D0732A0FD01046FF
:1012400051464A4690477F1C2AE018F8042B8DF837
:10125000002000218DF801106E46012103E058F8AE
:10126000046B4FF0FF315A074FF0000401D409E03E
:10127000641C84420BDA8C42FADB325D002AF7D11F
:1012800005E0641C8C42FCDB305D0028F9D127446A
:1012900004E016F8010B51464A469047641EF8D206
:1012A0006D1CA3E70A68531C0B60107070470000A8
:1012B0002DE9FC4114468846074608F037F800BF80
:1012C00007F006FE0028FBD16FF480401D4D381852
:1012D0004FF0010622D00128686814D030B1288868
:1012E000424606EB004018A107F000FF1C480068CA
:1012F000C00700D000BE224602B041463846BDE8D5
:10130000F04100F055B80028F0D02888238806EB7B
:10131000004014A1626807F0F0FEE7E76868002863
:10132000E4D0A06808F07AFF034621886068CDE920
:101330000001288812A106EB0040A26807F0EEFE2B
:10134000D4E7000038030020554E4B4E4F574E2037
:101350004641554C5420617420307825303858006F
:10136000F0ED00E0415353455254494F4E20464161
:10137000494C45442061742025733A2575000000CE
:101380004552524F52202575205B25735D206174B4
:101390002025733A257500000EB5ADF80010CDE993
:1013A00001206A46002144F20100FFF781FF0EBDD3
:1013B00008B501238DF800309DF80030144B1860FB
:1013C00059609A606FF48041401807D001280FD10E
:1013D000DA60D86800889861D86807E01A611869EF
:1013E0008068586118690088986118694068D861F8
:1013F000186858689868D868186958699869D869E9
:1014000072B600BF9DF800000028FBD162B608BD8F
:101410005013002001480068704700000415014087
:10142000074B9B7823B12AB120B10068037C1BB124
:1014300008207047072070474174426100207047C0
:101440007013002070B509F093FA104800240B21A6
:10145000047044700E4D817014206C602C706C70A0
:10146000FFF74EFB07211420FFF76BFB1420FFF75B
:1014700052FB0848046007211120FFF762FB054872
:10148000001F0068A860002070BD000070130020DD
:1014900074010020081501402DE9F843DFF8709031
:1014A00099F802305BB350B3052902D20720BDE89A
:1014B000F88343691BB3437C012B22D000270446E9
:1014C000002588461646284600F0F4FF68460AF0D4
:1014D000AFFCC0B1012101700E4944600968C0E948
:1014E0000218C0E904769DF8000089F80100002088
:1014F00001F00EF81420FFF719FB2846D7E7082063
:10150000D5E70F46DBE70425002001F001F8F4E7FA
:1015100070130020041501400649897839B130B1B3
:10152000416921B100210174022109F0A1BF082005
:10153000704700007013002070B5054606484468E7
:1015400007E02946204601F027FB204600F0C4F9B9
:101550000446002CF5D170BD1001002070B50A487A
:1015600045680EE02E7A002405E02146284600F06A
:1015700043FE641CE4B2B442F7D3284600F0ACF951
:101580000546002DEED170BD100100202DE9F0417F
:101590000E4840F29C57456814E02E7A00240BE078
:1015A00000222146284600F08BFE18B108A13846DB
:1015B00001F042F8641CE4B2B442F1D3284600F0D2
:1015C0008BF90546002DE8D1BDE8F081100100201F
:1015D0002E2E5C2E2E5C2E2E5C2E2E5C2E2E5C2E45
:1015E0002E5C636F6D706F6E656E74735C6C696298
:1015F0007261726965735C757362645C6170705F5F
:10160000757362642E63000070B5064609480625AE
:1016100044680AE03146204601F0BEFA0546062835
:1016200005D1204600F058F90446002CF2D1284696
:1016300070BD000010010020FEB5044615460E46A0
:10164000900604D00C494FF4107000F0F5FF2046CE
:1016500001F050F8007D10F0010F0AD0204603F091
:101660001EFA00210096CDE90151694600F044FCC4
:10167000FEBD0820FEBD00002CD1000008B503F01F
:101680000EFA694606F09CFC08B1002008BD0098DF
:1016900008BDFEB515460E46044601F02BF8007D48
:1016A00010F0010F0AD0204603F0F0F90021009657
:1016B000CDE90151694600F01FFCFEBD0820FEBDCA
:1016C000F8B5040004D138A14FF4787000F0B4FFED
:1016D000606820B934A140F2E13000F0ADFF6068ED
:1016E000006820B930A140F2E23000F0A5FF206888
:1016F000006820B12CA140F2E33000F09DFF06F01D
:10170000E7FE10B906F0EEFE20B927A140F2E7305F
:1017100000F092FF00250FE0002705E0007800F0C0
:10172000B3FB08B11120F8BD3946781CC7B230466A
:1017300000F082F80028F1D12946681CC5B2204685
:1017400000F0A2F80600E7D100250DE0002703E035
:101750000078214600F09EFB3946781CC7B230461F
:1017600000F06AF80028F3D12946681CC5B220466B
:1017700000F08AF80600E9D1194D40F20D4607E065
:10178000A04203D108A1304600F056FF2868056842
:1017900028680028F4D113482C60694640690090FD
:1017A000204601F0F9F9F8BD2E2E5C2E2E5C2E2E6F
:1017B0005C2E2E5C2E2E5C2E2E5C636F6D706F6E19
:1017C000656E74735C6C69627261726965735C7575
:1017D0007362645C6170705F757362642E63000095
:1017E00014010020C4C100002DE9F0410E461D4641
:1017F0001746194601F008FA020014D000242146C9
:101800002B680EE0101990F801C0B44507D18F4243
:1018100003D101782960BDE8F081491CC9B2007884
:101820000444A342EED80020F5E7000001484068D8
:10183000704700001001002070B50D46040004D16F
:1018400006494FF4827000F0F7FE6078A84201D894
:10185000002070BDA0782044284470BD60D00000F6
:1018600070B50D46040004D106494FF4827000F0B3
:10187000E3FE6078A84201D8002070BDA078204423
:10188000284470BD60D0000070B50D46040003D13F
:101890000649D12000F0D0FE207AA84201D80020CD
:1018A00070BD05EB45000934204470BD60D00000D8
:1018B00070B50D46040003D10649D12000F0BCFEEE
:1018C000207AA84201D8002070BD05EB45000934FC
:1018D000204470BD60D0000010B5040004D104495C
:1018E00040F2D91000F0A8FE2068006810BD00008A
:1018F0006021000010B5040004D104A140F2D91009
:1019000000F09AFE2068006810BD00002E2E5C2EAC
:101910002E5C2E2E5C2E2E5C2E2E5C2E2E5C636F8B
:101920006D706F6E656E74735C6C69627261726902
:1019300065735C757362645C6170705F757362641B
:101940002E68000002484078002800D0012070472F
:101950001001002070B5040004D11CA140F27540B4
:1019600000F06AFE606820B918A140F2764000F0ED
:1019700063FE6068006820B914A140F2774000F06F
:101980005BFE06F0A5FD10B906F0ACFD20B90FA175
:1019900040F2794000F050FE2068406820B10BA171
:1019A00040F27C4000F048FE164D40F2834608E0CD
:1019B000A04203D105A1304600F03EFE286805682C
:1019C0002D1D28680028F3D12C6070BD2E2E5C2EB2
:1019D0002E5C2E2E5C2E2E5C2E2E5C2E2E5C636FCB
:1019E0006D706F6E656E74735C6C69627261726942
:1019F00065735C757362645C6170705F757362645B
:101A00002E6300001801002010B5040004D111A1BC
:101A100040F28E4000F010FE06F05AFD10B906F0BC
:101A200061FD20B90BA14FF4926000F005FE17484C
:101A30000BE0A14207D121684968016020680021BC
:101A40004160084610BD0868001D01680029F0D1FA
:101A5000052010BD2E2E5C2E2E5C2E2E5C2E2E5CB4
:101A60002E2E5C2E2E5C636F6D706F6E656E7473C0
:101A70005C6C69627261726965735C757362645CE7
:101A80006170705F757362642E630000180100203E
:101A9000F8B50D46464E01462A78062430780127CF
:101AA0000B2A61D2DFE802F060060A0C60204825AC
:101AB0002D363F00032009F03FFF55E0002453E09E
:101AC0003B480021001D6A46FEF7BDFB28B139489E
:101AD0000760BFF36F8FBFF34F8F30780028EDD1D1
:101AE00035A140F29F3009E0084600F0A1F8044615
:101AF0003AE00028E2D030A140F2AA3000F09CFD8C
:101B0000DCE7012804D02CA14FF46C7000F094FDA8
:101B1000002005E03748006810F0010F0AD00220CD
:101B200009F00AFFCAE7022804D223A14FF471701A
:101B300000F082FD0120F3E7A87830B1802804D0BE
:101B40001DA140F2CD3000F077FD1949E878083149
:101B50000A6832B100230B6049689047040005D041
:101B600000E00E2406F018FD2046F8BD09F0DCFE6A
:101B700010B106F0D4FCF7E7A8780028F4D11E488D
:101B80000078082810D11C48001D007800070BD1F0
:101B900019480830007810F0F00F05D116480C30C5
:101BA000007810F0F00FDFD006F0B6FCDCE70000A4
:101BB000240100205C7002402E2E5C2E2E5C2E2E06
:101BC0005C2E2E5C2E2E5C2E2E5C636F6D706F6E05
:101BD000656E74735C6C69627261726965735C7561
:101BE0007362645C6170705F757362645F636F726F
:101BF000652E630038040040E00F00F0024A014601
:101C0000D2E9000210470000D80F002070B50C4642
:101C1000054606F07BFCA84201D0102070BD0348A9
:101C2000D4E90012C0E90212002070BD2401002096
:101C30007FB5054605208DF8000006240DF1010052
:101C400006F082FC9DF8010010F01F0006D001286C
:101C50000FD0022826D0032833D106E06946284653
:101C600009F00AF8044606282AD16846FFF7CCFC9A
:101C700025E09DF8050003A900F0FEFA050008D054
:101C80006A469DF80C1000F0B3FA0446062802D00C
:101C900016E0102415E06A469DF80C10284609F05D
:101CA00015F90CE09DF80500010705D0694600F024
:101CB0007BF80446062803D1684609F07FF80446FD
:101CC00024B106F069FC04B0204670BD09F02CFE7A
:101CD00010B106F024FCF6E706F01EFCF3E7000066
:101CE000FEB5C08814460E46A04201D2054600E06B
:101CF0001546844207D2802006F0D6F8B4FBF0F1F6
:101D000000FB114068B100200096CDE90150002091
:101D100000F0D0FB6946802000F0EEF8040002D00D
:101D200006E00120F0E705498020FFF76FFF044639
:101D3000002000F0EDFB2046FEBD0000F0C10000D9
:101D400008B1402101600148704700002C100020BC
:101D500010B506F0CFFB20B104A140F2B32000F093
:101D60006BFCBDE8104005F015BF00002E2E5C2E68
:101D70002E5C2E2E5C2E2E5C2E2E5C2E2E5C636F27
:101D80006D706F6E656E74735C6C6962726172699E
:101D900065735C757362645C6170705F75736264B7
:101DA0002E63000005F038BF10B50C46010600F0A8
:101DB0000F02092A08D200F009F8006820B1214674
:101DC000BDE8104000F0E8BE102010BD10B50106BF
:101DD00000F00F0408D5092C04D309A14FF4937027
:101DE00000F02AFC144808E0092C04D304A14FF4A5
:101DF000967000F021FC1048483000EBC40010BD84
:101E00002E2E5C2E2E5C2E2E5C2E2E5C2E2E5C2E0C
:101E10002E5C636F6D706F6E656E74735C6C69625F
:101E20007261726965735C757362645C6170705F26
:101E3000757362642E630000900F002010B5044695
:101E400000F00F00082805D2204605F075FF204657
:101E500006F09EF82046BDE8104005F071BF000076
:101E600070B50C46054605F0BBFF18B10548007873
:101E7000022801D0082070BD21462846BDE87040E8
:101E800005F0B6BF1001002010B5FFF79FFF0068F6
:101E900010BD000070B50D460646FFF797FF0446DB
:101EA000056015B16868006808E00EB1802E04D1A5
:101EB00003A14FF4A87000F0BFFB0020606070BD6C
:101EC0002E2E5C2E2E5C2E2E5C2E2E5C2E2E5C2E4C
:101ED0002E5C636F6D706F6E656E74735C6C69629F
:101EE0007261726965735C757362645C6170705F66
:101EF000757362642E63000070B50C46054605F0EC
:101F00006FFF18B105480078022801D0082070BD85
:101F100021462846BDE8704006F0A2B81001002016
:101F200001490968084700002010002070B57B4C6B
:101F30000546606820B97AA14FF43C7000F07CFB44
:101F400002F0F6FB072804D275A140F2F72000F05A
:101F500073FB287806286ED005DC12D2DFE800F08B
:101F60006C83A48791AD822827D006DC0B2870D023
:101F700080283DD0812804D10AE0832843D08428DA
:101F80004AD0BDE8704066A140F2C53000F054BBB5
:101F90007148FFF733FE7048FFF7CEFA092009F0C9
:101FA0003FFFA06810B96D48007A00B1012006F02B
:101FB000F7FAFFF7D3FA012072E0FFF7CFFA06F045
:101FC0003BFB002009F0DCF86348401CFFF7B4FA43
:101FD0006148401CFFF712FE0A2009F021FF20781B
:101FE00000F04EFA00283DD0BDE8704005F02CB856
:101FF0002078052803D0062803D0072832D10220F4
:102000004EE008204CE0207803282BD106F05EFB40
:10201000002827D0042043E02078032805D106F0CB
:1020200055FB10B1042009F0ABF806F007FC0028BE
:1020300018D0062034E04DE0002009F0F1FEA4683D
:1020400040F2F5160CE02946204600F0A5FD2CB91B
:1020500000E037E042A1304600F0EEFA2068446824
:10206000002CF0D170BDFFF779FA022000E00520C6
:1020700009F086F8032009F0D3FE2846FFF7BEFDDD
:1020800023E0032009F0CCFE3348801CFFF7B6FDA7
:102090003148801CFFF750FA20780628AFD107207E
:1020A000BDE8704009F06CB8032009F069F802201F
:1020B00009F0B6FE2846FFF73FFA2846BDE8704013
:1020C000FFF79CBD0B2009F0ABFE2846BDE8704031
:1020D000FFF732BAA878FFF779FE0446006820B906
:1020E0000FA14FF46D7000F0A7FA606820B90CA141
:1020F00040F2B53000F0A0FAD4E90002294690473A
:102100000028AFD0A8780107ACD000F00F01082953
:10211000A8D2BDE8704005F019BF000010010020F2
:102120002E2E5C2E2E5C2E2E5C2E2E5C2E2E5C2EE9
:102130002E5C636F6D706F6E656E74735C6C69623C
:102140007261726965735C757362645C6170705F03
:10215000757362642E630000D5C10000201000205A
:102160002E2E5C2E2E5C2E2E5C2E2E5C2E2E5C2EA9
:102170002E5C636F6D706F6E656E74735C6C6962FC
:102180007261726965735C757362645C6170705FC3
:10219000757362642E680000FFF7C2BE10B520B1EF
:1021A00004A140F29B1000F047FABDE810400F4830
:1021B000FFF7B6BE2E2E5C2E2E5C2E2E5C2E2E5CD5
:1021C0002E2E5C2E2E5C636F6D706F6E656E747359
:1021D0005C6C69627261726965735C757362645C80
:1021E0006170705F757362642E630000C4C100008B
:1021F000114600F0D1BC000070B5044640680D46A1
:10220000C2680AB120469047207AA84204D20CA1A5
:1022100040F2332000F010FA29462046FFF734FB45
:1022200005464678002408E021462846FFF704FBCF
:10223000007805F051FD641CE4B2B442F4D370BDE3
:102240002E2E5C2E2E5C2E2E5C2E2E5C2E2E5C2EC8
:102250002E5C636F6D706F6E656E74735C6C69621B
:102260007261726965735C757362645C6170705FE2
:10227000757362642E6300002DE9F04180460F48BB
:102280000E46456816E02F7A00240DE021462846C8
:10229000FFF7FAFA0178414504D106B134702846B7
:1022A000BDE8F081641CE4B2BC42EFD32846FFF7DE
:1022B00013FB0546002DE6D10020F1E710010020B8
:1022C00070B50446406815460E4683681BB120462B
:1022D0009847062809D1207AB04204D20E494FF41B
:1022E000057000F0A9F90DB1072070BD31462046F8
:1022F000FFF7CAFA05464678002408E0214628463A
:10230000FFF79AFA0078FFF799FD641CE4B2B44233
:10231000F4D3002070BD00004022000003460020DE
:102320005A681269002A01D0184610477047000009
:102330002DE9F843044604F025FF214806F080F813
:1023400000283AD11F48204DB4B194E80E00103057
:1023500080E80E001D490020087048608860194818
:1023600048218038FEF781F9164848213838FEF7B1
:102370007CF9174C002611E005F11C010EC9E6E7B7
:10238000002703E000782146FFF784FD3946781CDA
:10239000C7B24046FFF750FA0028F3D13146701C0F
:1023A000C6B22046FFF770FA5FEA0008E8D1686815
:1023B00000906946204600F0EFFBBDE8F88300007E
:1023C0009921000010100020C4C10000100100205D
:1023D00030C2000010B506F07BF820B909A140F228
:1023E000BA2000F029F915480168C1F3400121B174
:1023F000BDE810401248FFF793BD016811F0010FCE
:10240000F2D110BD2E2E5C2E2E5C2E2E5C2E2E5C5C
:102410002E2E5C2E2E5C636F6D706F6E656E747306
:102420005C6C69627261726965735C757362645C2D
:102430006170705F757362642E6300003804004041
:10244000C9C10000034808B5806800906846FFF7DE
:1024500067FD08BDC4C10000074918B1052803D3B2
:102460000020704708687047044A105C0028FAD0C2
:1024700051F82000704700003C010020BCC2000061
:10248000092808D2DFE800F007070507070505055A
:1024900005000120704700207047092808D2DFE8B6
:1024A00000F0070705070707070705000120704729
:1024B0000020704710B508F0C7F9012803D004A127
:1024C0001D2000F0B9F8BDE8104000F04FB8000042
:1024D0002E2E5C2E2E5C2E2E5C2E2E5C2E2E5C2E36
:1024E0002E5C636F6D706F6E656E74735C6C696289
:1024F0007261726965735C7574696C5C6170705F40
:102500007574696C5F706C6174666F726D2E6300B8
:1025100010B508F099F9012803D004A12B2000F090
:102520008BF8BDE8104000F029B800002E2E5C2E7C
:102530002E5C2E2E5C2E2E5C2E2E5C2E2E5C636F5F
:102540006D706F6E656E74735C6C696272617269D6
:1025500065735C7574696C5C6170705F7574696CCF
:102560005F706C6174666F726D2E630072B60248A4
:102570000168491C01607047880100200349086810
:10258000401E086000D162B670470000880100203C
:1025900070B5054608680C46411C04D006F0B2FB35
:1025A000206806F024FB6068411C02D0002106F080
:1025B00015FB28791F4901EB40102968007F00288E
:1025C000A069C1F8240523D0607D227D29681043CD
:1025D000C1F86C05D4E900122868C0F80C15C0F8E1
:1025E000142522E0A068411C02D0002106F0F6FA72
:1025F000E068411C04D006F085FBE06806F0F7FABD
:10260000D4E902122868C0F80825C0F8101570BD7A
:10261000607D217D2A680843C2F86C05D4E9001268
:102620002868C0F81425C0F80C15207D0128D9D0E1
:1026300070BD0000F81000201CB56A46ADF800001F
:102640000191002144F20200FEF732FE1CBD102869
:1026500002D31038C0B2704740F0800070470000CD
:102660002DE9F041871C0E4601250020FFF722FFCF
:10267000124C20683060D4E90001401AA168091AA0
:10268000BE1C06E003F0E8F8D4E90001401AA16896
:10269000091A491C8E42F5D8A1682068084004EB4D
:1026A0008000C16841F00301C160206838442060A7
:1026B0000020FFF72DFF2846BDE8F0812C160020F2
:1026C00030B482680468531C8360A154D0E90112BD
:1026D0008A4202D330BC06F009B930BC7047000012
:1026E000034803C8814201D1012070470020704790
:1026F0002C16002010B5040003D106493820FFF73E
:102700009BFF206818B903493920FFF795FF20681F
:10271000083010BD2CD1000070B50C46050004D166
:1027200021494FF4EC70FFF787FF24B91E4940F2AE
:10273000D910FFF781FF217800200B2932D2DFE882
:1027400001F01A1A1A1A31060C272C1A1A002146FF
:102750002846BDE8704008F069BB284601F01DFF1F
:102760000146A078814211D00006E07806D518B164
:1027700003280BD0032070BD012104E010B1012813
:10278000F6D103E00021284609F03BFB002070BD94
:102790002846BDE87040FFF7DDB82846BDE8704028
:1027A000FFF732B9062070BD2CD1000010B504002F
:1027B00003D103492B20FFF73FFF204610BD000047
:1027C0002CD1000070B50C00054604D105494FF42A
:1027D0000270FFF731FF2846FFF7E8FF81692160AB
:1027E000406970BD2CD1000010B508B1032010BDA8
:1027F0000846FFF77FFF0178202901D0062010BD91
:10280000D0F80210C160C1880182017A8174002071
:1028100010BD000070B5204CE9B1012915D0022986
:1028200004D0032901D10020207070BD0120207048
:1028300040221A491A48FEF7FFFE0028F5D0BDE8ED
:102840007040184A4C21FEF7A7BD60684068D0E987
:10285000002101201DE0FEF711FF05460246104849
:102860000E49203007F064F9854203D00D495A2003
:10287000FFF7E2FE402209490948FEF7DDFE18B1E4
:1028800008496220FFF7D8FE60684068D0E900215F
:102890000020BDE870401047F80100202C150020F2
:1028A000B4C50000FCD800000249084490F930008B
:1028B000704700009010002070B5816804468A7C43
:1028C000002A4DD0C87C00284AD0121A0844D5B23C
:1028D00000F114016A1C1330FDF7A0FEA068C17C52
:1028E000491EC174A068817C491E81748DB3082281
:1028F0001C49206905F0BAFF204603F0F9FA8178F7
:10290000C078814211D1A06817A2C17C4318082168
:102910002046143303F082FF204600F0DDF92946FB
:102920002046BDE8704001F08DBF204600F040FA1F
:10293000204600F0D1F9A0680BA2C17C4318082101
:102940002046143303F06AFF2046BDE8704000F0D3
:10295000F9B92069BDE87040044A03A105F086BFBB
:1029600070BD0000942B000025730000E0C3000040
:1029700070B504468068827CC17C521A12F0FF0553
:1029800048D0084400F115012A461430FDF746FEF0
:10299000A068817C491E8174204603F0A9FA8178E1
:1029A000C07881420CD1A0681BA2C17C43180821C9
:1029B0002046143303F032FF40F26F36C4B913E0FF
:1029C000204600F0F5F9204600F086F9A06812A232
:1029D000C17C431808212046143303F01FFF204612
:1029E000BDE8704000F0AEB90CA13046FFF724FE00
:1029F000206918B909A13046FFF71EFE154A06A145
:102A0000206905F033FF6D1EE9B22046BDE8704035
:102A100001F018BF70BD0000257300002E2E5C2E43
:102A20002E5C2E2E5C2E2E5C2E2E5C2E2E5C636F6A
:102A30006D706F6E656E74735C6C696272617269E1
:102A400065735C636C695C6E72665F636C692E6350
:102A500000000000E4C300002DE9F0410446806856
:102A60000F4690F83D11C27C11F00106817CA1EB6C
:102A70000203DDB20AD07F2901D3002D7ED0A068E9
:102A8000C17C08440021077566B113E07F297CD220
:102A9000002DF4D0831803F114012A46481CFDF7D9
:102AA000BDFDECE7A068827C521CD2B28274A068A3
:102AB000143281544DB3204603F01AFA8178C0785D
:102AC00081420ED1A06832A2C17C43180821204661
:102AD000143303F0A3FEA81BC1B2204601F0B2FEDE
:102AE00021E0204600F064F9A06829A2C17C4318C7
:102AF00008212046143303F091FE204600F022F90D
:102B00000121204601F0AAFF0DE03EB1A068827CC1
:102B1000521CD2B28274A068143281543A461DA16C
:102B2000206905F0A3FEA168C87C401CC87420463B
:102B300001F075FE0028204603D0BDE8F04101F009
:102B40008DBE02F0D0FA00281FD0204603F0D0F945
:102B50000546C078A978401A401EC1B2204601F04F
:102B6000FFFD204601F07AFEE878A978401AC1B24C
:102B7000204601F07FFF2878401E00E005E0C1B24A
:102B80002046BDE8F04101F069BFBDE8F0810000DA
:102B9000257300002563000070B50D46040003D1C5
:102BA0000BA1C120FFF748FD606818B908A1C22039
:102BB000FFF742FD6068006818B905A1C320FFF760
:102BC0003BFD6068294602682046BDE8704010471A
:102BD0002E2E5C2E2E5C2E2E5C2E2E5C2E2E5C2E2F
:102BE0002E5C636F6D706F6E656E74735C6C696282
:102BF0007261726965735C757362645C6170705F49
:102C0000757362642E63000070B50D46040003D135
:102C10000B49F120FFF710FD606818B90849F22050
:102C2000FFF70AFD6068406818B90549F320FFF70F
:102C300003FD6068294642682046BDE870401047A1
:102C40004022000009B106207047002070470000B4
:102C500041680A6041684B60014948600020704744
:102C6000F801002070B51C0015460E4603D1064938
:102C70009420FFF7E1FC2A463146044807F068F843
:102C80002060002070BD0000FCD80000D4C500000A
:102C90000020704770B51C0015460E4603D10B4945
:102CA000A120FFF7C9FC0A48007858B12A463146EE
:102CB0000848FEF7EEFC38B1112802D10020206050
:102CC000002070BD2560FBE7256070BDFCD80000CA
:102CD000F8010020B4C5000070B504004FF48A75F7
:102CE00003D108A12846FFF7A7FC206918B905A160
:102CF0002846FFF7A1FC2069BDE870400F4A10A1EB
:102D000005F0B4BD2E2E5C2E2E5C2E2E5C2E2E5C7D
:102D10002E2E5C2E2E5C636F6D706F6E656E7473FD
:102D20005C6C69627261726965735C636C695C6E2C
:102D300072665F636C692E6300000000D8C30000F8
:102D40002573000070B504004FF4907503D108A1FD
:102D50002846FFF771FC206918B905A12846FFF73E
:102D60006BFC2069BDE870400F4A10A105F07EBDE4
:102D70002E2E5C2E2E5C2E2E5C2E2E5C2E2E5C2E8D
:102D80002E5C636F6D706F6E656E74735C6C6962E0
:102D90007261726965735C636C695C6E72665F63B5
:102DA0006C692E6300000000CFC300002573000093
:102DB00070B504004FF48D7503D108A12846FFF7C4
:102DC0003BFC206918B905A12846FFF735FC2069AE
:102DD000BDE870400F4A10A105F048BD2E2E5C2EB4
:102DE0002E5C2E2E5C2E2E5C2E2E5C2E2E5C636FA7
:102DF0006D706F6E656E74735C6C6962726172691E
:102E000065735C636C695C6E72665F636C692E638C
:102E100000000000CCC30000257300002DE9F04F36
:102E20004FF000099DB005464E464C46CDF8149033
:102E300001F066FB284602F093FAAA680C2308A961
:102E400001A8143202F0FCFE0346019840B15BB1C8
:102E50005CA20221284603F0E1FC1DB0BDE8F08F22
:102E6000284601F0FBFCF8E75D485C490027A1EB30
:102E700000080DF1200A83461AE00FD3284601F01E
:102E8000CEFC01005748089B009001D056A200E0FC
:102E900057A20221284603F0C1FCDEE70BEBC70472
:102EA000606801685AF82900FDF7F1FB18B17F1C32
:102EB000B7EBD80FE1D9207820B150A140F2617072
:102EC000FFF7BAFB4FF0000BCDF868B06068C76839
:102ED0000FB1A9684860606809F101044FF000086B
:102EE00080680DF1580906900198844237D25AF84B
:102EF000240050A1FDF7CBFB50B35AF824004EA19B
:102F0000FDF7C5FB20B3424608F101081AAB214684
:102F1000CDF80090069801F0B1F9B8F1000F1ED07D
:102F20001A98E0B101685AF82400FDF7B0FB0028B8
:102F3000DAD11A98C16829B1A8F10101DDF818B0F9
:102F40002646059180684FF00008641C0690CBE788
:102F5000A86890F83D1141F0020180F83D11284623
:102F600001F00AFC284601F05AFC10B9284601F08D
:102F700075FCBBF1000F12D0CDF800901AAB3146B2
:102F80005846059A01F07AF9A9681A980AEB860260
:102F900048600199C368891B284698470AE027B111
:102FA00008AA28460199B84704E025A2022128462C
:102FB00003F034FCA86890F83D1121F0020180F87C
:102FC0003D114AE70D0A6E6F74207465726D696E6B
:102FD000617465643A2025630D0A0000F8DF000083
:102FE00090DF000015C40000257325730D0A000052
:102FF0000D0A257325730D0A000000002E2E5C2E8D
:103000002E5C2E2E5C2E2E5C2E2E5C2E2E5C636F84
:103010006D706F6E656E74735C6C696272617269FB
:1030200065735C636C695C6E72665F636C692E636A
:10303000000000002D6800002D2D68656C700000F8
:10304000506C656173652073706563696679207380
:103050007562636F6D6D616E642E0D0A0000000075
:103060002DE9F0410446C0688EB00D460026C068C8
:10307000324601A906F0EEFC18B100200EB0BDE802
:10308000F0816DB1019806F012FAA168D1F82C0117
:10309000401CC1F82C0100F0070001287ED1012658
:1030A000204602F025FF05468078012804D9401EFD
:1030B000C1B2204601F0DEFC2878012804D9401E68
:1030C000C1B2204601F0BEFB2046FFF705FE2EB13F
:1030D00033A20221204603F0A1FB5FE04FF000087D
:1030E0000023082202A9019806F0F2F9049805903D
:1030F0000398ADF818008DF81C800298082700F09E
:103100000300012802D002281DD03CE002983B4673
:10311000860AC0F3C2008DF81A00029808A9C0F30D
:1031200080008DF81B000298C0F38315AA00019857
:1031300006F0CEF92069009005AB2A4608A9304672
:1031400006F008F91FE00298850DC0F3C2008DF863
:103150001A000298C0F380008DF81B00082D01D2E0
:103160002E4600E008263B46324608A9019806F0A4
:10317000AFF93744AD1B05AA314608A8236905F00D
:10318000D7FF002DEAD1019806F091F9E0680022FE
:1031900001A9C06806F05EFC0028A1D001206DE7FF
:1031A0004C6F7374204C4F4773202D20696E6372EF
:1031B00065617365204C4F47206261636B656E6487
:1031C0002071756575652073697A652E0D0A00009A
:1031D0002DE9F0411E4617460D46040000D01DB9EA
:1031E00009A19A20FFF728FA606818B906A19B2068
:1031F000FFF722FA606833463A4601680C692946AF
:10320000A446BDE8F04160472E2E5C2E2E5C2E2E8B
:103210005C2E2E5C2E2E5C2E2E5C636F6D706F6E9E
:10322000656E74735C6C69627261726965735C630C
:103230006C695C6E72665F636C692E6300000000EF
:1032400070B5044640680E460025007A38B1A06883
:103250000068FEF761F908B108281AD10025BEB947
:103260006068007A50B90B4A0021A068FEF7D8F8D0
:10327000616805004FF00100087209D1A06822467C
:103280004FF4A4710068FEF707F90546FDF78EFCC0
:10329000284670BDCDB2000010B541680A60416893
:1032A0004B60406800210172FDF780FC002010BDDA
:1032B00070B51C0015460E4603D106A15B20FFF732
:1032C000BBF92A4631460020FDF772FC2060002041
:1032D00070BD00002E2E5C2E2E5C2E2E5C2E2E5CE1
:1032E0002E2E5C2E2E5C636F6D706F6E656E747328
:1032F0005C6C69627261726965735C636C695C7253
:1033000074745C6E72665F636C695F7274742E6352
:103310000000000080680068FEF7FEB82DE9F0416B
:103320001D0014460F4603D10BA16920FFF784F955
:1033300019480068C0070DD00026224639460020F3
:10334000FDF784FC0644241AF7D105B12E60002055
:10335000BDE8F0812C60FAE72E2E5C2E2E5C2E2E1E
:103360005C2E2E5C2E2E5C2E2E5C636F6D706F6E4D
:10337000656E74735C6C69627261726965735C63BB
:103380006C695C7274745C6E72665F636C695F72A8
:1033900074742E6300000000F0ED00E010B50F48DB
:1033A00003F058FD18B10E4AB521FDF7F5FF0B48A3
:1033B0001C3003F04FFD18B1094AB821FDF7ECFFAE
:1033C0000648383003F046FD002805D0BDE810401F
:1033D000034ABA21FDF7E0BF10BD000024BF000082
:1033E000C85B00002DE9FC4100270446019701ABB2
:1033F000012269462046FFF7EBFE019800281CD009
:103400009DF800007F28F2D806F0F6FAA5686878E3
:1034100020B101285DD002285FD163E0207E9DF8B5
:103420000060B0420ED1A87C0028204607D0FFF7EC
:10343000F5FC0221204600F0C1F8BDE8FC8101F056
:103440000DFAF6E7092E1BD004DC002ECFD0082E93
:1034500004D11DE01B2E11D07F2E21D0FDF78CF85A
:103460000068805D10F03E0FC1D095F83D01000767
:103470001ED531462046FFF7EFFAB8E701202FE0CE
:1034800095F83D010007B2D5204600F0B1F8AEE74F
:1034900095F83D010007AAD52046FFF70DFAA6E7EB
:1034A00095F83D010007A2D52046FFF761FA9EE797
:1034B000A87C7F289BD2E87C2918401CE8740E75F4
:1034C000A068C17C08440775A068817C491C817490
:1034D0008DE79DF800005B2801D06F7087E7022020
:1034E000687084E76F70A16891F83D010207A4D568
:1034F0009DF80020413A0C2ABFD2DFE802F007090C
:103500000E31065006540606065870E7012100E009
:103510000021204601F00AFE69E7204602F0E8FC9F
:10352000054600786978884203D1A978EA78914203
:10353000A3D0697988424FF0010120460AD101F0F9
:103540000FF96979204601F07DF9A168C87C401C1B
:10355000C8744CE701F082FAA068C17C491C15E0F0
:10356000204602F0C5FC05460078A979491C88422E
:1035700002D1A97801298AD001284FF00101204603
:1035800006D001F05FF9A068C17C491EC1742EE726
:1035900001F070FA6979204601F060FAF3E72046FD
:1035A00001F0EAF823E7204601F00FF91FE7421C7B
:1035B00062F3000081F83D0119E7000082680229EA
:1035C00011700BD18268002111758268D1748268F4
:1035D000917403A20321036803F020B9704700002F
:1035E00025730000002801D0FDF74AB8704700009D
:1035F0002DE9F04FA5B04FF000080546CDF8288022
:10360000CDF8108080684746817CC1F17F01C9B246
:103610005FEA010B7BD0C27C00F114019430FCF70F
:10362000FDFFA8680024C17C084480F89440FCF7A2
:10363000A3FF20900168A8680C23C27C0244D27CBE
:10364000895CC0F83841AA6801F001090DA91FA8DA
:10365000943202F0F5FA0D98FFF7C4FFC6B2A24605
:103660001A940C941F9818B14844401EB8426AD866
:10367000B9F1000F01D0002605E00DA850F8270091
:10368000FFF7B0FFC6B200241BA822460090641CBE
:103690001AAB3946504600F0F1FD1A9800286BD05D
:1036A00001680DA8324650F82700FDF707F80028FA
:1036B0000C9802D00028E7D05EE0D8B11A980068D4
:1036C000FFF790FF0499C0B2884200D90490BBF183
:1036D000000F2BD021A800900CAB42463946504633
:1036E00000F0CCFD1A98006883190C9800688219C4
:1036F000002015E0601E0A901A980068FFF772FF1C
:10370000C0B20490801B584510DAC0B20DE07FE0D3
:1037100012F800C0614506D1401C10F0FF0010D027
:10372000195C0029F4D1834500D983461A98B4F175
:1037300001080C90A8D262A20421284603F06EF87A
:103740001AE0FF20EFE700241BA822460090641C2B
:103750001AAB3946504600F091FDECB31A98002898
:1037600056D001680DA850F82700FCF790FF0028FC
:10377000EAD11A98D0F808A0BAF1000F09D01A9827
:1037800038B11F997F1CFFB201EB09008742FFF49B
:1037900069AF0C9800283BD00A98414640455DD15E
:1037A0009AF8000038B11BA80A4600900CAB3946C5
:1037B000504600F063FD0C980068FFF713FFB0421D
:1037C00006D00C985A4600688119284600F044FF3C
:1037D0002098A968026800E01DE0C87C0B181B7DDA
:1037E000D25CD2071DD0897C884211D2284602F0D3
:1037F0007FFBA9688478C87C401CC874284602F006
:1038000077FB8078A04225D10121284601F026F9D6
:1038100025B0BDE8F08F2AA20421284602F0FEFF61
:10382000F6E791F83D01C2070FD020F0010081F8C2
:103830003D0120212846FFF70FF9A86890F83D11B7
:1038400041F0010180F83D11E2E720212846FFF711
:1038500003F9DDE7284601F001F8D9E70021284601
:10386000049A06F0FDFE0DF16C090A9C0EE01AABFD
:10387000224639465046CDF8009000F0FFFC1A98D9
:10388000049A0168284606F0EBFE641C4445EED914
:1038900017A2032128462B6802F0C0FFAB6816A2CE
:1038A00008212846143302F0B9FF284601F0A0F899
:1038B0000C985A4600688119284600F0CDFEA7E70B
:1038C0005461622066756E6374696F6E3A20636F2F
:1038D0006D6D616E647320636F756E746572206FB9
:1038E000766572666C6F7765642E0D0A00000000C5
:1038F0000D0A2573000000002573000070B5054611
:103900000C0004D105A140F2CC70FEF795FE002D0D
:1039100003D0A168012081F83C0170BD2E2E5C2EE1
:103920002E5C2E2E5C2E2E5C2E2E5C2E2E5C636F5B
:103930006D706F6E656E74735C6C696272617269D2
:1039400065735C636C695C6E72665F636C692E6341
:103950000000000070B5044640680D4690F828004D
:1039600030B1A0680068FDF7D7FD08B108280CD178
:10397000012685B1606904F089F861680022083188
:10398000606903F019FE08B1062070BD606880F818
:103990002960002070BD606890F8280048B9074A87
:1039A0000021A068FDF73CFD6168002881F82860CF
:1039B000F0D12046BDE8704007F02EB84DB30000AE
:1039C00070B5044640680D4602606068002243609E
:1039D000606880F82820606880F8292060682022CC
:1039E0000830FCF71BFE2C61074A2946606903F08A
:1039F000E3FD050005D1E06806F0CCFB206906F088
:103A0000C9FB284670BD000061B500002DE9F041FA
:103A10001C0016460F46054603D106A1D220FEF72C
:103A20000BFE266022463946E868BDE8F04106F004
:103A3000C7BA00002E2E5C2E2E5C2E2E5C2E2E5C25
:103A40002E2E5C2E2E5C636F6D706F6E656E7473C0
:103A50005C6C69627261726965735C636C695C75E8
:103A60006172745C6E72665F636C695F75617274BB
:103A70002E63000010B50446406904F007F8A06802
:103A80000068BDE81040FDF747BD00002DE9FC418E
:103A90001D0016460F46044603D116A1E620FEF788
:103AA000CBFD2E602A463946206906F0D5FA05007E
:103AB0001CD1606903F0DEFFC0B9FF200090012334
:103AC0006A4601A9206906F021FB78B9009801999E
:103AD000C2B2606903F012FF0546606890F82900E1
:103AE00020B11DB92069009906F0FCFA2846BDE80E
:103AF000FC8100002E2E5C2E2E5C2E2E5C2E2E5C69
:103B00002E2E5C2E2E5C636F6D706F6E656E7473FF
:103B10005C6C69627261726965735C636C695C7527
:103B20006172745C6E72665F636C695F75617274FA
:103B30002E6300002DE9F8431F4614468846050011
:103B400002D0B8F1000F03D11DA16B20FEF774FD68
:103B50006868006818B91AA16C20FEF76DFD002690
:103B600025E000BF686808EB06016B460268D2F8E2
:103B70000CC02246E04718B111A17620FEF75CFD8B
:103B80000098844203D20EA17720FEF755FD0098DD
:103B90000644241A58B9A8680178032907D000BF41
:103BA00090F83C110029FBD0002180F83C11002C3A
:103BB000D8D1002F01D000983860BDE8F88300000C
:103BC0002E2E5C2E2E5C2E2E5C2E2E5C2E2E5C2E2F
:103BD0002E5C636F6D706F6E656E74735C6C696282
:103BE0007261726965735C636C695C6E72665F6357
:103BF0006C692E630000000070B5084C050009D008
:103C000010342168002907D00868206049682846D8
:103C10008847F6E70834F4E770BD00007C10002008
:103C2000F8B514460E46050004D121A140F20E203D
:103C3000FEF702FDA86818B1686808B1286820B9C5
:103C40001BA140F20F20FEF7F7FC012E03D02846FF
:103C500002F0B2FF30B12846BDE8F8400122184911
:103C600002F03ABE022E08D0236801B02846BDE813
:103C7000F04014A2022102F0D1BD19A16068FCF746
:103C800006FD68B117A16068FCF701FD40B16068EE
:103C9000009016A202212846236802F0BFFDF8BD5D
:103CA0002846BDE8F84018A2082102F0B7BD000080
:103CB0002E2E5C2E2E5C2E2E5C6D61696E2E6300A6
:103CC000A4BF000025733A206261642070617261B4
:103CD0006D6574657220636F756E740D0A00000067
:103CE0002D7400002D2D74657374000025733A2027
:103CF000756E6B6E6F776E20706172616D65746545
:103D0000723A2025730D0A0044756D6D7920746533
:103D10007374206F7074696F6E2E0D0A00000000BE
:103D2000012904D0136804A2022102F077BD0949D9
:103D3000002048607047000025733A2062616420CB
:103D4000706172616D6574657220636F756E740D5C
:103D50000A00000000000020012904D0136804A21A
:103D6000022102F05BBD0949012048707047000044
:103D700025733A2062616420706172616D657465BB
:103D80007220636F756E740D0A0000000000002041
:103D9000012904D0136804A2022102F03FBD0949A1
:103DA000002048707047000025733A20626164204B
:103DB000706172616D6574657220636F756E740DEC
:103DC0000A0000000000002070B514460D460646AB
:103DD000012902D002F0F0FE30B13046BDE870405B
:103DE0000022114602F078BD2368022D01D904A2F9
:103DF00000E00AA23046BDE87040022102F00EBD8C
:103E000025733A2062616420706172616D6574652A
:103E10007220636F756E740D0A00000025733A20DE
:103E2000706C656173652073706563696679207372
:103E30007562636F6D6D616E640D0A002DE9F04768
:103E400014460D46814602F0B7FE30B14846BDE843
:103E5000F0470022114602F03FBD022D07D0484630
:103E60002368BDE8F04728A2022102F0D7BCDFF8A2
:103E7000B48098F80200142801D32BA206E06068F1
:103E8000FCF7FEFBC6B2212E02D32DA2022132E0A6
:103E9000002567680AE000BFFCF76EFB0068795DEB
:103EA000405C10F0380F2BD06D1CEDB2B542F3D34F
:103EB000284E002505EB451030446168FCF7E7FB10
:103EC00000281FD06D1CEDB2142DF3D398F802100A
:103ED000454601EB4110491C88F8021030441EA1F0
:103EE0006268FDF751F91D4B2122A9781948FCF7AA
:103EF00047FB1BA208214846BDE8F04702F08EBCF4
:103F00001FA2C3E72EA2C1E725733A206261642095
:103F1000706172616D6574657220636F756E740D8A
:103F20000A00000000000020636F6D6D616E642068
:103F30006C696D697420726561636865640D0A005F
:103F4000746F6F206C6F6E6720636F6D6D616E6450
:103F50000D0A0000A403002025730000E1B000005A
:103F6000636F6D6D616E6420616464656420737558
:103F7000636365737366756C6C790D0A00000000ED
:103F800062616420636F6D6D616E64206E616D654A
:103F9000202D20706C6561736520757365206F6ED0
:103FA0006C7920616C7068616E756D6572696361B2
:103FB0006C20636861726163746572730D0A00003E
:103FC0006475706C69636174656420636F6D6D61A5
:103FD0006E640D0A000000002DE9F84314460D46FA
:103FE000804602F0E9FD30B14046BDE8F8430022CA
:103FF000114602F071BC022D03D014A202212368E5
:104000001DE00025184F194E09E000BF05EB4510D3
:1040100038446168FCF73BFB70B16D1CEDB2B078C1
:104020008542F3D36068009011A2022140462368C4
:1040300002F0F4FBBDE8F883636814A2082101B024
:104040004046BDE8F04302F0E9BB000025733A208A
:1040500062616420706172616D6574657220636F66
:10406000756E740D0A000000A403002000000020FB
:1040700025733A20756B6E6F776E20706172616D7B
:10408000657465723A2025730D0A000064796E61CB
:104090006D696320636F6D6D616E643A2025730DE9
:1040A0000A0000002DE9F04117460C468046012920
:1040B00002D002F081FD30B14046BDE8F04100225F
:1040C000114602F009BC022C02D01BA23B6811E091
:1040D0000024204E204D08E004EB44103044796861
:1040E000FCF7D5FA60B1641CE4B2A8788442F3D33B
:1040F0007B681AA24046BDE8F041022102F08EBB67
:10410000132C14D0A878001B00EB401204EB4410D1
:10411000304400F12101FCF781FAA87816A2401E74
:10412000A8704046BDE8F041082102F077BB0020AE
:1041300086F87302F1E7000025733A20626164207B
:10414000706172616D6574657220636F756E740D58
:104150000A000000A403002000000020646964201D
:104160006E6F742066696E6420636F6D6D616E643E
:104170003A2025730D0A0000636F6D6D616E642037
:1041800072656D6F766564207375636365737366BE
:10419000756C6C790D0A0000F8B514460D4607469B
:1041A00002F00AFD30B13846BDE8F8400022114661
:1041B00002F092BB012D08D0236801B03846BDE85B
:1041C000F04013A2022102F029BB184DA87838B1A3
:1041D00017A20821384602F021FB00241A4E13E0F2
:1041E0003846BDE8F84019A2042102F017BB00BF11
:1041F00004EB44103044009023461DA208213846A9
:1042000002F00CFB641CE4B2A8788442F0D3F8BD41
:1042100025733A2062616420706172616D65746516
:104220007220636F756E740D0A000000000000209C
:1042300044796E616D696320636F6D6D616E64209A
:104240006C6973743A0D0A00A4030020506C656118
:1042500073652061646420736F6D6520636F6D6D9D
:10426000616E64732066697273742E0D0A0000001B
:104270005B2533645D2025730D0A00002DE9F05F96
:104280001C000A9F15468846064603D120A1AF2090
:10429000FEF7D2F91FB91EA1B020FEF7CDF94FF0FD
:1042A0000009B8F1000F0BD01EB3307838B3726834
:1042B0003946284690473868D8B12760BDE8F09F56
:1042C00021492248A1EB0008B5EBD80F14D2DFF842
:1042D00080A00026834609E00BEBC60778680168DA
:1042E0005AF82500FCF7D3F920B1761CB6EBD80FAD
:1042F000F2D301E0786808E0C4F80090DEE7706867
:1043000000EB051001680029F6D02060D6E7000018
:104310002E2E5C2E2E5C2E2E5C2E2E5C2E2E5C2ED7
:104320002E5C636F6D706F6E656E74735C6C69622A
:104330007261726965735C636C695C6E72665F63FF
:104340006C692E6300000000F8DF000090DF0000C1
:104350007402002010B5044602F02EFC30B1204655
:104360000022BDE81040114602F0B6BA054A072106
:10437000204602F053FA2046BDE8104002A2082170
:1043800002F04CBA5CC80000202020202020202011
:1043900020202020202020204E6F7264696320534B
:1043A000656D69636F6E647563746F722020202081
:1043B000202020202020202020200D0A0D0A00008F
:1043C000F8B515460E46040004D118A140F2251098
:1043D000FEF732F9A06818B1606808B1206820B90A
:1043E00012A14FF49370FEF727F9012E03D0204657
:1043F00002F0E2FB30B12046BDE8F8400022114651
:1044000002F06ABA022E08D02B6801B02046BDE83F
:10441000F0400AA2022102F001BA686800900EA2E0
:10442000022120462B6802F0F9F9F8BD2E2E5C2EF1
:104430002E5C2E2E5C6D61696E2E630025733A2012
:1044400062616420706172616D6574657220636F72
:10445000756E740D0A00000025733A20756E6B6E40
:104460006F776E20706172616D657465723A202598
:10447000730D0A002DE9F04116460D46074601244A
:1044800008E000BF56F8243007A20821384602F0A1
:10449000C5F9641CAC42F5D33846BDE8F04103A22F
:1044A000082102F0BBB90000257320000D0A0000AE
:1044B000F8B516460D460746012409E056F82400D3
:1044C0000090234604A20821384602F0A7F9641C94
:1044D000AC42F3D3F8BD0000617267765B25645D82
:1044E000203D2025730D0A0001A2022102F096B999
:1044F0004E696365206A6F6B65203B290D0A0000D9
:104500002DE9F041856806460024287D002812D058
:10451000A046FCF731F80746D0F8000004F114017A
:1045200004F10104695CE4B2415CC90705D0002CC8
:10453000F4D185F81480BDE8F081641E14F0FF0406
:104540000FD0A87C021B04F11400291805F11400F7
:10455000521CFCF763F8B168887C001B8874B16852
:10456000C874B2683D68937CD018133004460021AB
:1045700002E0491CC9B2401E0778EF5DFF07F8D181
:104580008442D8D05B1A143302F80380B268907C5E
:10459000401A9074B168C874CDE710B50021FDF7DA
:1045A00087F90021FDF75CF9007810BD2DE9F05F77
:1045B00026484168F1B3DFF898B00E688146DBF811
:1045C000004087688078E11B21F07F45ED1CB0B981
:1045D000DFF880804FF48030C8F84403C8F8040343
:1045E0001120FCF78DFA1120FCF795FA4FF0010A23
:1045F000C8F800A02F2002F09BFC89F802A0B54269
:1046000000D23546124BE8193C3320F07F40186049
:10461000DBF800105A46091B21F07F41001B20F0F7
:104620007F40C91C81420FD9106818602F2002F00A
:104630007FFC00E004E0BDE8F05F1120FCF776BAF3
:10464000BDE8F05F06F094B9BDE8F09F740100206A
:1046500004150140001001402DE9F04115460F00FE
:10466000044604D123A140F23550FDF7E5FFA068D0
:10467000817CC27C8B1A2944DEB27F2937D8002D79
:1046800035D0104400F1140105F114021044721CDD
:10469000FBF7C4FFA0682A46C17C084439461430A1
:1046A000FBF7BCFFA0681430FEF79CFFA1681FA2B7
:1046B0008874A068C17C431808212046143302F096
:1046C000ADF8A068C17C2944C174204600F0A7F869
:1046D00018B9204600F007FD10B1204600F0BEF8E2
:1046E000002E04D02046BDE8F04100F081B9BDE8BD
:1046F000F08100002E2E5C2E2E5C2E2E5C2E2E5C69
:104700002E2E5C2E2E5C636F6D706F6E656E7473F3
:104710005C6C69627261726965735C636C695C6E22
:1047200072665F636C692E630000000025730000F1
:10473000EFF30580C005C00D10D0103840B200283E
:1047400006DA00F00F0000F1E02090F8140D03E00D
:1047500000F1E02090F80004400970470F207047F6
:10476000002904D00A46006901A104F07FB870470F
:104770001B5B25644200000070B5054601F0B8FBE4
:10478000044600786178884203D1A078E1788842B5
:104790001AD0E178A078814204D9081AC1B228461B
:1047A000FFF7DEFF20786178884205D9401AC1B250
:1047B000284600F047F804E0081AC1B2284600F085
:1047C0004DF9A868817CC17470BD70B5054601F0D3
:1047D0008FFB044601788079401C814202D1A07889
:1047E00001281BD0A078012804D9401EC1B2284658
:1047F00000F040F92078A179884206D9401A401E7D
:10480000C1B2284600F01EF805E0081A401CC1B2EB
:10481000284600F023F9A9680020C87470BD10B5BF
:1048200004460068FEF7DEFE0146A068C27C407BBD
:104830001144B1FBF0F200FB121008B1002010BDD2
:10484000012010BD002904D00A46006901A104F02E
:104850000DB870471B5B25644400000070B5040070
:104860004FF4937503D108A12846FDF7E5FE2069B2
:1048700018B905A12846FDF7DFFE2069BDE87040A4
:104880000F4A10A103F0F2BF2E2E5C2E2E5C2E2EAE
:104890005C2E2E5C2E2E5C2E2E5C636F6D706F6E08
:1048A000656E74735C6C69627261726965735C6376
:1048B0006C695C6E72665F636C692E630000000059
:1048C000D2C30000257300002DE9FC5F00260446DA
:1048D0008DF8046080683546B046B146802194303A
:1048E000FBF7C3FE4149206903F0C0FF206903F0D4
:1048F000FDFF002740F2E73B4FF47A7A6B46012236
:1049000001A92046FEF764FC0098D8B19DF8040088
:104910001B2806D0A16891F894101B29EED15228CB
:104920001CD0A26808F19401505408F1010000F075
:10493000FF08B8F1090F08D9A168042081F8949004
:10494000BDE8FC9F584602F039FB00980028D5D1FD
:104950007F1CBFB25745D1D30D20F1E7A16808F104
:1049600094004A4601F80090A16891F895005B28F0
:1049700003D081F894200B20E2E702206FF02F078C
:104980000AE000BF05EB850507EB4505401C2B44FD
:10499000C0B29DB2802808D200F19403CB5C3B2BBF
:1049A000F0D1401CC0B2802809D30C20C8E700BF5A
:1049B00006EB860607EB460633449EB2F1E700F1AC
:1049C0009403CB5C002BF3D1FA20FA2E01D90872A4
:1049D00000E00E72FA2D02D9A168887201E0A06889
:1049E0008572A06880F894200020A9E7F0C3000039
:1049F00070B5054601F07CFA04468078E17888427B
:104A000001D1012600E000262846FFF708FF18B96B
:104A1000284600F068FB10B12846FFF71FFF1EB1C3
:104A200060782178401A12E0E078A178401AC1B28B
:104A3000284600F01FF820786178884206D9401A8D
:104A4000C1B22846BDE8704000F008B8081AC1B2EB
:104A50002846BDE87040FFF7F5BE0000002904D0ED
:104A60000A46006901A103F001BF70471B5B256482
:104A700043000000002904D00A46006901A103F0A8
:104A8000F5BE70471B5B25644100000010B5012195
:104A9000FCF70EFF0021FCF7E3FE007810BD10B517
:104AA0000121FCF705FF0121FCF7DAFE007810BDBB
:104AB00070B50C00054604D10AA140F27520FDF73F
:104AC000BBFD0C48817800208D4209D20A4AE06083
:104AD00005EB4511A060114408A0C4E9001070BDA9
:104AE000206070BD2E2E5C2E2E5C2E2E5C6D6169BA
:104AF0006E2E630000000020A403002053686F772F
:104B00002064796E616D696320636F6D6D616E64A1
:104B1000206E616D652E00000E4910B50A784C7844
:104B20000023A24212D0521CD2B20A70022A00D133
:104B30000B70084A0B780C3252F823200260886808
:104B4000104420F07F408860012010BD03600020E9
:104B500010BD00007401002010B50446010600F0ED
:104B60000F00092804D306A140F2AE20FDF764FD32
:104B70006FEA0460C10F204661F31F1010BD0000F2
:104B80002E2E5C2E2E5C2E2E5C2E2E5C2E2E5C2E5F
:104B90002E5C636F6D706F6E656E74735C647269AA
:104BA000766572735F6E72665C757362645C6E725A
:104BB000665F6472765F757362642E630000000046
:104BC00070B50546000605F00F0402D5092C09D37F
:104BD00001E0092C08D307A140F29B20FDF72CFD32
:104BE000280601D5134801E01248903800EB041064
:104BF00070BD00002E2E5C2E2E5C2E2E5C2E2E5CA8
:104C00002E2E5C2E2E5C636F6D706F6E656E7473EE
:104C10005C647269766572735F6E72665C757362EE
:104C2000645C6E72665F6472765F757362642E6335
:104C300000000000A811002010B50446010600F095
:104C40000F00092804D3034940F27E20FDF7F4FC4D
:104C5000204610BD90BA0000704700000C4910B506
:104C60000020C8708020FFF7ABFF817B012403295F
:104C700002D0006800280AD18020FFF76DFF844031
:104C8000E1430348BDE810400C3001F06DB910BDA0
:104C900060010020812005F085BB822005F082BBE9
:104CA000832005F07FBB842005F07CBB852005F0C8
:104CB00079BB862005F076BB872005F073BB882082
:104CC00005F0C4BB38B5144D0020E870FFF778FF3D
:104CD000817B0124032902D0006868B108E000202C
:104CE000FFF73AFF84400C48E1430C3001F03CF9F7
:104CF000BDE8384003F013BC0020FFF72DFF8440CF
:104D00000548E1430C3001F02FF90448C0680090D9
:104D100069686846884738BD60010020D0C200003D
:104D2000012005F0D5BB022005F0D2BB032005F021
:104D3000CFBB042005F0CCBB052005F0C9BB062085
:104D400005F0C6BB072005F0C3BB000038B5104D09
:104D500000200824E8702046FFF732FF817B0329FA
:104D600014D00068002811D12046FFF7F5FE01217C
:104D70008140C94305F10C0001F0F6F8054840698F
:104D800000908DF8024069686846884738BD000089
:104D900060010020D0C2000070B5154804680460AE
:104DA000BFF36F8FBFF34F8FBFF36F8FBFF34F8F83
:104DB00003F0F6F938B10F48016921F0011201F052
:104DC00001111443016101266CB194FAA4F0B0FA08
:104DD00080F52846FDF73BFC06FA05F18C43294691
:104DE00006F0E2FFF0E7BDE8704006F071BE00009B
:104DF0006C7402406001002010B5054CA078FFF7EC
:104E0000ABFE0146A078BDE8104006F0CDBF000023
:104E100060010020F8B51E48D0F8001221F004010E
:104E2000C0F800121B4800681B4DC6B2A878FFF7F7
:104E300093FE012404FA00F12889EA68C04380B295
:104E40001043014202D0A87806F02CFF06F0800043
:104E5000A8700020FFF780FE04FA00F68020FFF71C
:104E60007BFE04FA00F006430B48F1430C3001F0DE
:104E70007BF88020FFF770FE8440A8680443074851
:104E8000AC60006A0090696868468847F8BD000019
:104E9000007002408074024060010020D0C2000017
:104EA00038B5002000900B480068ADF8020088205B
:104EB000FFF752FE012505FA00F40820FFF74CFE2B
:104EC000054985402C43886804438C6049686846DE
:104ED000884738BD207502406001002070B50B483E
:104EE00004680460BFF36F8FBFF34F8F012609E0A2
:104EF00094FAA4F0B0FA80F52846FDF7A8FB06FA6C
:104F000005F08443002CF3D170BD000068740240AA
:104F1000F8B51C480568284605F084FBBFF36F8F81
:104F2000BFF34F8F184E194CE80506D5012060706D
:104F3000706A0090616868468847A8054FF00007CE
:104F400005D56770B06A0090616868468847680553
:104F500016D56078002813D005F06EFB20B10CA1A7
:104F600040F2AB40FDF768FB67701949012008600B
:104F7000582005F069FBF06A009061686846884730
:104F8000F8BD000000740240D0C2000060010020A3
:104F90002E2E5C2E2E5C2E2E5C2E2E5C2E2E5C2E4B
:104FA0002E5C636F6D706F6E656E74735C64726996
:104FB000766572735F6E72665C757362645C6E7246
:104FC000665F6472765F757362642E630000000032
:104FD00008750240054908B50020487088700448EB
:104FE0004068009049686846884708BD6001002015
:104FF000D0C200002DE9F05F17460E00814670D048
:1050000013B1F9B2FFF72AFD0024FBF7B5FA824687
:10501000006800E0641C315D415CC907FAD10025DD
:105020003046FEF7DFFAD9F80810001B4A7BD11B87
:10503000814228D306EB040805E000BF18F80510EC
:105040000A290CD06D1C8542F8D33119D9F810000B
:1050500003F00CFC4846BDE8F05FFFF7FFBBD9F852
:10506000100003F043FC414600232A464846FEF761
:1050700061FD2C444846641CFFF7F0FBF9B248463A
:10508000FFF7ECFCE1E78B46DAF8001006EB0408CA
:1050900018F805000B5CDB0702D0AB460A2804D0E9
:1050A000E819904201D26D1CF2E7D9F8100003F024
:1050B0001DFC414600235A464846FEF73BFD5C4432
:1050C000DAF8000000E0641C315D415CC907FAD1E8
:1050D0004846FFF7C3FBF9B24846FFF7BFFC9EE71F
:1050E000FFE7BDE8F09F10B504460068FEF77AFAC6
:1050F0000146A068827C407B1144B1FBF0F200FBCA
:10510000121008B1002010BD012010BD054910B5D6
:1051100001200860012001F0FDFE0028FAD10249BB
:10512000487010BD040000407C100020FEB5002631
:1051300004460096019602968068E9B3D0E94D12C4
:105140008A4271D0D0F8300100286DD02046FFF798
:105150003CFBA068D0F83851002D68D0002309220C
:105160006946284604F0B4F9A1689DF808500098F3
:10517000C1F83801A06800230922D0F83801694637
:1051800004F0A6F9A1689DF808200923D1F8380198
:105190001431521C04F09CF9A1689DF80800C874F1
:1051A000A1689DF8080088749DF80800A84202D202
:1051B0002046FDF791FD00E00BE0A3682BA208213B
:1051C0002046143301F02AFB2046FFF728FB60BB82
:1051D00042E0D0F83801002846D02046FFF7F5FA23
:1051E000A06800230922D0F83801694604F070F95C
:1051F000A0680199C0F83811A0680029857CB9D150
:105200009430FEF7EFF90028A06805D000F1940172
:105210001430FBF74AFA00E00675A0681430FEF778
:10522000E1F98DF80800B7E71EE01AE0FFE7143057
:10523000FEF7D8F910F0FF05A068D0F83011C0F8DB
:105240003811A06805D000F114019430FBF72DFA55
:1052500090E780F894608DE72046FFF744FF002830
:1052600002D02046FFF7FAFAFEBD000025730000C9
:10527000FEB50D00044604D11E4940F28C40FDF7F6
:10528000DBF9A1680026D1F8300138B300230922E8
:10529000694604F01DF90195A06800230922D0F8A1
:1052A0003001694604F01AF90196A068D0F830116F
:1052B0000091807C8DF80800A068C0F83051002370
:1052C00009226946284604F009F9A16809232846FD
:1052D0008A7C1431521C04F001F9FEBDC1F8305132
:1052E000A068C0F8345100960196A068807C8DF8C3
:1052F0000800E4E754B20000FEB504468068D0F828
:105300003461002E28D0002309226946304604F07B
:10531000DFF8A16801980025C1F8340100950195D6
:105320002B46092269463046029504F0D7F83046EC
:1053300004F09BF8A168D1F8340170B10023092270
:10534000694604F0C5F80095A06800230922D0F84A
:105350003401694604F0C2F8FEBDC1F83051FEBD0B
:10536000FEB5044680681430FEF73CF910F0FF05E6
:10537000A0684FF00006C0F8386133D0A068D0F8BC
:105380003001E0B100230922694604F0A1F89DF83C
:105390000820AA4213D1A068092300F19401D0F893
:1053A0003001521C04F094F8A06800F1940114300C
:1053B000FBF76DF90028A06880F8946012D00026F1
:1053C0000A352946606904F020F80100204604D01F
:1053D00003B0BDE8F040FFF74BBFFFF78DFF761C31
:1053E000082EEED3FEBD00002DE9FC5F0E008346C3
:1053F000DDE90C47C6F1000098469246814600D48C
:105400000846012503E000BF90FBFAF06D1C5045F3
:10541000FADAA84500D9454624B1002E01DB780709
:1054200000D5641EB80702D5B8F1000F0AD0F807FE
:1054300008D13CB1A54205D220215846641EFDF793
:105440003FF9F6E7002E02DA4E462D2102E07807FA
:1054500003D52B215846FDF733F907F00300022846
:105460000BD1B8F1000F08D13CB1A54205D23021D3
:105470005846641EFDF724F9F6E7CDE90047434698
:1054800052463146584606F0F5F9BDE8FC9F00004B
:1054900070B50E460446007918494FF4A27501EB29
:1054A0004010017F2068A1B14FF4887104F0D6FE4E
:1054B0004FF49071206804F0D1FE4FF4927120688F
:1054C00004F0CCFE2946206804F0C8FE0C49206890
:1054D00009E04FF48E7104F0B0FE2946206804F014
:1054E000ACFE08492068C0F80413206801F03AFFB8
:1054F0003146BDE8704001F0FDBE0000F81000200C
:1055000010030200800002000268134602E08A4293
:1055100004D01268002AFAD10B60016070470000C5
:105520002DE9F047394E002780463D46DFF8E090F0
:10553000D6F804A057E003D00446D0F81C8035E02C
:1055400099F8002002EB4201521CD2B289F80020E7
:1055500009EBC10199F80230091D9A4201D189F87D
:10556000005048680A780446012A12D0022A02D064
:10557000032A3BD108E005F04BFF00B10127257459
:1055800034E00574C06900E070680028F9D17060EB
:105590002CE0207C50BB88686060C868A060086907
:1055A000E0604869A061F07800B165606268B16848
:1055B000184B501A20F07F40984202D2A16808444C
:1055C00006E0881AA16820F07F40814202D9081ABB
:1055D000206000E0256065600120A5602074204601
:1055E000E56105F0F7FEB8F10000A4D199F80010CC
:1055F00099F801008142A3D117B97168514502D0D1
:105600000120BDE8F0870020FBE7000074010020C6
:1056100070130020FFFF7F001CB5012905D08168B1
:1056200091F83D11C1F3400131B102B00022BDE853
:105630001040114601F050B9536804A1CDE90013A0
:10564000136808A2022101F0E9F81CBD20756E6BF9
:105650006E6F776E20706172616D657465723A204D
:105660000000000025733A257325730D0A00000021
:105670002DE9F74F82B0154602980F004FF0000653
:10568000C068007A009058D0072248A12868FBF72C
:1056900015F878B1082247A12868FBF70FF8002811
:1056A00030D02B6845A2029805B00221BDE8F04F2A
:1056B00001F0B4B8012F02D0022F08D008E0029800
:1056C00005B044A2BDE8F04F022101F0A7B80126C1
:1056D000DFF81881002400BF58F824100A226868F7
:1056E000FAF7ECFF10B1641C052CF5D3052C06D09D
:1056F00004F0FF090224002E54D0002419E03CA23B
:105700006B68D0E7012F4FF00009F6D0012449E083
:105710004A462146009800F0AFFB48B900212046D8
:1057200003F0F6FD03463AA20221029801F076F852
:10573000641C03F09BFDA042EAD805B0BDE8F08FE1
:105740004FF0000A55F824B003F090FD8046002683
:1057500009E00021304603F0DBFD20225946FAF72C
:10576000ADFF90B1761C4645F3D3464506D155F8BA
:10577000243030A20221029801F050F84A465146E6
:10578000009800F079FB10B10BE0B246EDE7002184
:10579000504603F0BDFD03461DA20221029801F010
:1057A0003DF8641CBC42CBD3C7E70000656E616264
:1057B0006C65000064697361626C6500556E6B6EA8
:1057C0006F776E206F7074696F6E3A2025730D0AC3
:1057D0000000000042616420706172616D65746553
:1057E0007220636F756E742E0D0A00000002002097
:1057F000556E6B6E6F776E2073657665726974791E
:10580000206C6576656C3A2025730D0A0000000057
:105810004C6576656C20756E617661696C61626C51
:105820006520666F72206D6F64756C653A20257314
:105830000D0A0000556E6B6E6F776E206D6F64758C
:105840006C653A25730D0A00C068012141727047EA
:10585000C06800214172704770B588B0244800F0DC
:1058600076FB2348001F064600F071FB214DD5E969
:10587000014105E0C0F3891202EB9050641C04441E
:1058800004EA010005EB8000C0688207F2D0002026
:105890000DF1080204EA010305EB8303641CDB68D5
:1058A00042F82030401C0228F4D3029800F0030094
:1058B000012817D002280ED00F4940F22710FCF71C
:1058C000BBFE3046002101AAFAF70FFE002800D0E7
:1058D0006C6008B070BD0298032101EB905004EB9E
:1058E0009004EEE70298C0F383100444E9E7000057
:1058F000441A00202C160020E0DC00002DE9FE4FA9
:10590000814603F0B3FC0746D9F80C0090F80880F4
:10591000407A20B91FA20221484600F07FFF22A34F
:1059200024A20821484600F079FF2AA2082148460F
:1059300000F074FF002429E001231A462146404666
:1059400003F09EFC8246002301222146404603F0DC
:1059500097FC0546032801D2064600E003260121F4
:10596000204603F0D5FC0346AE4201D225A200E05A
:1059700017A2254850F8261050F82A008DE8070095
:1059800022A20821484600F049FF641CBC42D3D340
:10599000BDE8FE8F4C6F6773206172652068616C93
:1059A000746564210D0A00006D6F64756C655F6E2F
:1059B000616D6500252D323473207C206375727211
:1059C000656E74207C206275696C64696E200D0AB6
:1059D000000000002D2D2D2D2D2D2D2D2D2D2D2DAB
:1059E0002D2D2D2D2D2D2D2D2D2D2D2D2D2D2D2DE7
:1059F0002D2D2D2D2D2D2D2D2D2D2D2D2D2D0D0A1A
:105A0000000000002A00000000020020252D323492
:105A100073207C20252D3773207C20257325730D62
:105A20000A0000008AB05F4803F0D8FB18B15EA2FC
:105A3000C121FBF7B1FC01F0A5FB18B15AA2C421AA
:105A4000FBF7AAFC002001F0BFFB002001F09EFC48
:105A500018B155A2C821FBF79FFCFBF7F3FC18B166
:105A600051A2CB21FBF798FC534A01215348FBF785
:105A7000D7FC18B14CA2CF21FBF78EFC00224FF4CB
:105A800000414F48FBF708FD18B147A2D221FBF7B0
:105A900083FC4A48032401231A460021001D009478
:105AA00001F090F818B140A2D621FBF775FC4349EC
:105AB0002022643101A8FAF7B1FD062001900820E8
:105AC000029000208DF818003C4801231A4601A9D5
:105AD0002030009401F076F818B133A2DE21FBF7F4
:105AE0005BFC364801231A4600213C30009401F04B
:105AF00069F818B12CA2E121FBF74EFC2F48583071
:105B0000FCF716FC18B128A2E921FBF745FC2D484B
:105B1000FBF7D6FD18B124A2EE21FBF73DFC274888
:105B200000242646001F01F0EBFC18B126A27321C9
:105B3000FBF732FCFDF732FC274D686803280FD3D2
:105B40002888132747EA004024A103F0CBFA6868AD
:105B5000032805D328882AA147EA004003F0C2FAA7
:105B6000364D00BF03F0B4F914483C3001F01CF985
:105B70001248203001F018F92878844206D0041E1B
:105B800002D0FCF727FC01E0FCF75CFC00F020FBF6
:105B9000B04202D000F01CFB06460848001D01F090
:105BA00003F9DFE7151400002E2E5C2E2E5C2E2E3E
:105BB0005C6D61696E2E63008DB2000020BF000035
:105BC00084030020B4C500002E2E5C2E2E5C2E2EE9
:105BD0005C6D61696E2E630038030020436F6D6D4C
:105BE000616E64204C696E6520496E7465726661F1
:105BF0006365206578616D706C652E0D0A0000008C
:105C0000506C65617365207072657373207468658C
:105C100020546162206B657920746F207365652064
:105C2000616C6C20617661696C61626C6520636F88
:105C30006D6D616E64732E0D0A000000000000207F
:105C40002DE9FF4F4FF0000881B014468B46814686
:105C5000C246C0F800802578002D71D0FAF78CFC80
:105C600000900068405DC00702D004F801AB84E0FA
:105C7000D9F800008300401CC9F800004BF803402D
:105C800015E02678002E78D0B8F1000F05D1222E2D
:105C900010D0272E0ED05C2E1ED0B04514D1204639
:105CA000FDF7A0FC0246611C2046FAF7B7FC4FF056
:105CB0000008E6E72046FDF795FC0246611C2046F9
:105CC000FAF7ACFCB046DCE7B8F1000F50D05C2E20
:105CD0006AD16078404508D12046FDF783FC024632
:105CE000611C2046FAF79AFC5EE030281CD10027A0
:105CF0000225605DA0F13001072906D86D1C41EA3C
:105D0000C701EDB2CFB2052DF3D3022D0CD9204639
:105D1000FDF768FC421B61192046491E921CFAF7E8
:105D20007DFC04F8017BACE778281ED10027022512
:105D3000605DA0F13001092903D841EA07100DE0A8
:105D400021E0A0F16101052901D8573804E0A0F154
:105D50004101052907D8373840EA07106D1CEDB21C
:105D6000C7B2042DE4D3022DD1D8B8F1000F1BD156
:105D700000980068805DC00716D0D9F8001004981C
:105D80008142FFF468AFD9F800000C2804D907A1BC
:105D900040F20A40FCF750FCD9F8002040464BF88E
:105DA00022A005B0BDE8F08F641C6AE72E2E5C2EA1
:105DB0002E5C2E2E5C2E2E5C2E2E5C2E2E5C636FA7
:105DC0006D706F6E656E74735C6C6962726172691E
:105DD00065735C636C695C6E72665F636C692E638D
:105DE000000000002DE9F05FC7888A46191D16469D
:105DF000B1FBF7F2B1FBF7F507FB1219991939441A
:105E0000C91CB1FBF7F104464079C9B2DDF828B0EE
:105E1000884206D217499420FCF70EFC01E0246862
:105E20006D1E002DFBD1A846A7EB0905B5421AD877
:105E30001CE000BFBBF1000F06D004EB09010AEB28
:105E400008002A46091D05E004EB09000AEB0801D9
:105E50002A46001DFAF7E2FB2468761B4FF0000982
:105E6000A844B74201D9354600E03D46002EE1D1B5
:105E7000BDE8F09F44D9000070B5144600230D46DC
:105E800006461A4603F0FCF9844201D9002070BD91
:105E900022462946304603F019FA012070BD000061
:105EA00030B5024669B103F0E1F90021084C0BE07E
:105EB00001EB410304EB830315685B88AB4202D11D
:105EC0001160002030BD491C8142F1D3052030BD56
:105ED000A802002010B50C460021E1606160034972
:105EE000A160012103F014FA206010BD38C7000042
:105EF00070B58468006804F10805FDF773FBC1B252
:105F0000A971E07C6A790844B0FBF2F302FB130349
:105F10005B1C2B70E07C0844B0FBF2F35B1CAB70A5
:105F2000A07C0844B0FBF2F35B1CEB70A07C08443F
:105F3000B0FBF2F102FB1101491C6970284670BDEB
:105F400008B500216A46FAF782FA009808BD08B53C
:105F500001216A46FAF7BCFA009808BD08B501218C
:105F60006A46FAF767FA08BD08B56A46FAF7B9F95A
:105F7000009808BD70B5040003D113A1C620FCF73A
:105F80005BFB00252846FCF795FA206862680168EB
:105F9000914214D9491E01600D781CB919A18920BC
:105FA000FCF74AFB208AE16805FB00152068217A8E
:105FB0000278891A0279C9B28A4200D2017100209E
:105FC000FCF7A6FA284670BD2E2E5C2E2E5C2E2ED7
:105FD0005C2E2E5C2E2E5C2E2E5C636F6D706F6EB1
:105FE000656E74735C6C69627261726965735C6220
:105FF000616C6C6F635C6E72665F62616C6C6F6328
:106000002E6300002E2E5C2E2E5C2E2E5C2E2E5C1F
:106010002E2E5C2E2E5C636F6D706F6E656E7473CA
:106020005C6C69627261726965735C62616C6C6FF1
:10603000635C6E72665F62616C6C6F632E630000FE
:1060400070B50C46050003D10FA1EA20FCF7F4FA65
:106050001CB90DA1EB20FCF7EFFA0020FCF72AFA9F
:106060001DB918499620FCF7E7FAE8682A68211A52
:10607000288AB1FBF0F11068431C13600170BDE881
:1060800070400020FCF744BA2E2E5C2E2E5C2E2E83
:106090005C2E2E5C2E2E5C2E2E5C636F6D706F6EF0
:1060A000656E74735C6C69627261726965735C625F
:1060B000616C6C6F635C6E72665F62616C6C6F6367
:1060C0002E6300000460000010B5040002D02068B8
:1060D00030B901E00E2010BD17A1A020FCF7ACFAEA
:1060E000606818B914A1A120FCF7A6FAA06818B935
:1060F00011A1A220FCF7A0FAE06818B90EA1A32014
:10610000FCF79AFA208A18B90BA1A420FCF794FA9C
:10611000207A61682268401AC0B2116004E02268E7
:1061200011684B1C13600870401EC0B2F7D2216882
:106130000020087110BD00002E2E5C2E2E5C2E2E2D
:106140005C2E2E5C2E2E5C2E2E5C636F6D706F6E3F
:10615000656E74735C6C69627261726965735C62AE
:10616000616C6C6F635C6E72665F62616C6C6F63B6
:106170002E630000C20800F007030120895C9840EC
:106180000840704770B51546826892F83D41C4F3E7
:10619000400424B11A46294600F09EFB06E039B1BE
:1061A000516804A20B68022100F038FB012070BD89
:1061B000002070BD25733A206261642070617261B5
:1061C0006D6574657220636F756E740D0A00000052
:1061D0000148007870470000F801002070B50D46B6
:1061E000040004D122A140F6E120FCF725FAA068C2
:1061F00018B1606808B1206820B91DA140F6E220FE
:10620000FCF71AFA022D0CD1A06890F83D01C0F3FA
:10621000400030B12046BDE870400022114600F039
:106220005BBB40F6EA251CB911A12846FCF704FA2D
:10623000206918B90EA12846FCF7FEF91A4A1BA1DD
:10624000206902F013FB40F6EB251CB908A1284693
:10625000FCF7F2F9206918B905A12846FCF7ECF91A
:106260002069BDE87040104A10A1093202F0FEBA60
:106270002E2E5C2E2E5C2E2E5C2E2E5C2E2E5C2E58
:106280002E5C636F6D706F6E656E74735C6C6962AB
:106290007261726965735C636C695C6E72665F6380
:1062A0006C692E6300000000ECC300002573000041
:1062B0001CB5012905D002290BD014D94FF00101DA
:1062C00012E002B04FF00002BDE81040114600F0AD
:1062D00003BB53680849CDE90013136807A20221E4
:1062E00000F09CFA1CBD002102B00023BDE8104064
:1062F0001A46FFF747BF000000C4000025733A2587
:106300007325730D0A0000003EB50446012901D033
:10631000012100E0002100231A46FFF733FF002887
:1063200018D1E068C06803F0ADFCC0B2642110FB76
:1063300001F2E168C9688968B2FBF1F2D2B2009259
:10634000CDE90101A06804A20821D0F82C31204633
:1063500000F064FA3EBD00004C6F7374204C4F4750
:10636000733A2025750D0A4D6178204C4F472071F6
:1063700075657565207574696C697A6174696F6E8D
:106380003A2025752525205B25752F25755D0D0A7D
:106390000000000010B50446012901D0012100E0F1
:1063A000002100231A46FFF7EDFE002808D1A1685E
:1063B000C1F82C01E068C068BDE8104003F08CBC57
:1063C00010BD00007CB515460E46040004D118A18E
:1063D00040F60330FCF730F9A06818B1606808B1E6
:1063E000206820B912A140F60430FCF725F9012EEF
:1063F00003D0022E09D0012108E002B02046BDE8FA
:1064000070400022114600F067BA002100231A46AE
:106410002046FFF7B7FE002809D169681248CDE988
:10642000000112A2022120462B6800F0F7F97CBD82
:106430002E2E5C2E2E5C2E2E5C2E2E5C2E2E5C2E96
:106440002E5C636F6D706F6E656E74735C6C6962E9
:106450007261726965735C636C695C6E72665F63BE
:106460006C692E630000000000C4000025733A250B
:106470007325730D0A00000010B50446012901D0F0
:10648000012100E0002100231A46FFF77BFE0028CF
:1064900006D1A06890F83D1121F0040180F83D116B
:1064A00010BD10B50446012901D0012100E00021F2
:1064B00000231A46FFF766FE002806D1A06890F870
:1064C0003D1141F0040180F83D1110BD7CB514462A
:1064D0000D460646022901D9012100E000210023D2
:1064E0001A46FFF74FFE002812D1022D06D0B068E1
:1064F00090F83D0100070CD50AA30BE061680A483B
:10650000CDE9000109A202213046236800F086F996
:106510007CBD09A302B03046BDE8704007A2082147
:1065200000F07CB96F6E000000C4000025733A25AE
:106530007325730D0A0000006F6666004563686F7F
:10654000207374617475733A2025730D0A0000007E
:1065500010B50446012901D0012100E000210023EB
:106560001A46FFF70FFE002806D1A06890F83D11EB
:1065700021F0080180F83D1110BD10B50446012935
:1065800001D0012100E0002100231A46FFF7FAFDA7
:10659000002806D1A06890F83D1141F0080180F86C
:1065A0003D1110BD7FB50D46040004D122A140F677
:1065B0004930FCF741F8A06818B1606808B120685C
:1065C00020B91DA140F64A30FCF736F8012D01D064
:1065D000012100E0002100231A462046FFF7D2FDEA
:1065E000002827D1A0680026D0F83451F5B101E089
:1065F000082E1BD20023092201A9284602F068FFB9
:106600009DF80C20A168092328469431521C02F001
:106610005FFFA068334694300090029D761C14A260
:106620000821204600F0FAF8002DE1D1A1680020F1
:1066300081F894007FBD00002E2E5C2E2E5C2E2E45
:106640005C2E2E5C2E2E5C2E2E5C636F6D706F6E3A
:10665000656E74735C6C69627261726965735C63A8
:106660006C695C6E72665F636C692E63000000008B
:106670005B2533645D2025730D0A00007CB515464B
:106680000E46040004D120A140F6AF30FBF7D4FF42
:10669000A06818B1606808B1206820B91AA14FF449
:1066A0003B60FBF7C9FF012E03D0022E18D9012150
:1066B00017E0A168204601F10C020D3104F08CFDB9
:1066C00000281FD0A16850201DA24873A16818207F
:1066D000087302B02046BDE87040042100F09EB867
:1066E000002100231A462046FFF74CFD002809D15F
:1066F00069682348CDE9000122A2022120462B68C7
:1067000000F08CF87CBD00002E2E5C2E2E5C2E2E10
:106710005C2E2E5C2E2E5C2E2E5C636F6D706F6E69
:10672000656E74735C6C69627261726965735C63D7
:106730006C695C6E72665F636C692E6300000000BA
:106740006E6F20726573706F6E73652066726F6D09
:10675000207465726D696E616C2C20617373756D48
:106760006564203830783234206368617273207336
:10677000637265656E2073697A650D0A000000001A
:1067800000C4000025733A257325730D0A0000002C
:1067900070B50446012901D0012100E00021002349
:1067A0001A46FFF7EFFC002817D140F6A8351CB9B0
:1067B0000AA12846FBF740FF206918B907A128461F
:1067C000FBF73AFF134A14A1206902F04FF8A168C1
:1067D00050204873A1681820087370BD2E2E5C2EBF
:1067E0002E5C2E2E5C2E2E5C2E2E5C2E2E5C636F6D
:1067F0006D706F6E656E74735C6C696272617269E4
:1068000065735C636C695C6E72665F636C692E6352
:1068100000000000FAC30000257300000FB4F8B5B3
:10682000044608980E4620B91DA140F6E700FBF784
:1068300003FF24B91AA140F6E800FBF7FDFEA068AB
:1068400018B1606808B1206820B915A140F6E900C8
:10685000FBF7F2FE09A80090A06890F83D114907E7
:1068600018D5C17BB14215D0B0F80F503146204643
:1068700005F014FB6A462069089902F063F8E9B252
:10688000204605F00BFB290A204605F0E9FAF8BC82
:106890005DF814FB6A462069089902F053F8F6E7A0
:1068A0002E2E5C2E2E5C2E2E5C2E2E5C2E2E5C2E22
:1068B0002E5C636F6D706F6E656E74735C6C696275
:1068C0007261726965735C636C695C6E72665F634A
:1068D0006C692E63000000002DE9F04F89B09046EE
:1068E0000D46040004D191A140F66710FBF7A4FE09
:1068F000A06818B1606808B1206820B98BA140F683
:106900006810FBF799FE9748FCF76CFE0646954821
:106910005438FCF767FE301A1FFA80F9914892A2AA
:1069200041380090A0680821406803682046FFF7BE
:1069300075FFA06840680068FCF754FE0646894869
:106940004138FCF74FFE304482B2A0680023406813
:1069500041682046FEF74EFB85A208212046FFF73E
:106960005DFFB8F1000F22D00DB300261DE000BF7F
:1069700006EB460A05EB8A0BDBF80400FCF732FE57
:10698000074655F82A00FCF72DFE391849450BD962
:10699000DBF80400FCF726FE074655F82A00FCF752
:1069A00021FE38441FFA80F9761C4645E0D36D4835
:1069B0005438FCF717FE4844801C1FFA80F96948D8
:1069C00000904B466DA208212046FFF727FF09F1F2
:1069D000030087B2079000233A466AA12046FEF7DB
:1069E00009FB002D51D000264DE000BF06EB460A02
:1069F00005EB8A0B55F82A00DBF8043063B348B383
:106A0000584965A25439CDE9001008212046FFF706
:106A100005FF09F102000090DBF80400FCF7E2FD3D
:106A2000074655F82A00FCF7DDFD07444D48543869
:106A3000FCF7D8FD39180098401A801EC1B22046D4
:106A4000FEF70CF83A225749206901F00FFF009831
:106A5000401C0AE0009301E040B100904B4647A281
:106A600008212046FFF7DAFE079887B2DBF8081006
:106A700029B100233A462046FEF7BCFA02E0204640
:106A8000FDF7ECFE761C4645B0D3A06840688068F0
:106A9000002847D0814600200646054603AF0290F5
:106AA0002A466D1C02AB012148460097FDF7E6FB24
:106AB000029850B10068FCF795FDB042F0D90298F9
:106AC0000068FCF78FFD86B2EAE7012D2AD036A2D6
:106AD00008212046FFF7A2FE0025B8462A466D1C75
:106AE00002AB01214846CDF80080FDF7C7FB0298B4
:106AF000002817D0B11C8FB2006800903B461FA23F
:106B000008212046FFF78AFE0298FF1CBAB24168AE
:106B100021B100232046FEF76DFADFE72046FDF79E
:106B20009DFEDBE709B0BDE8F08F00002E2E5C2E45
:106B30002E5C2E2E5C2E2E5C2E2E5C2E2E5C636F19
:106B40006D706F6E656E74735C6C69627261726990
:106B500065735C636C695C6E72665F636C692E63FF
:106B60000000000029C40000257325730000000008
:106B70004F7074696F6E733A0D0A00002020252D46
:106B80002A733A0053686F7720636F6D6D616E648E
:106B90002068656C702E00002020257325732573F6
:106BA00000000000942B0000537562636F6D6D61EF
:106BB0006E64733A0D0A0000806890F83D01C0F3DE
:106BC000400070472DE9F0411E46DDF8188015465B
:106BD0000F46040004D10DA14FF40460FBF72CFD17
:106BE0002A463946204600F02DF805000CD15EB14A
:106BF0004146E06802F0DCF8002802DA0420BDE833
:106C0000F081E068012141722846F8E72E2E5C2EC3
:106C10002E5C2E2E5C2E2E5C2E2E5C2E2E5C636F38
:106C20006D706F6E656E74735C6C696272617269AF
:106C300065735C636C695C6E72665F636C692E631E
:106C4000000000002DE9F04715460E46040004D16F
:106C500040A140F2E270FBF7EFFCA06818B1606859
:106C600008B1206820B93BA140F2E370FBF7E4FCD7
:106C7000207E0A2806D00D2804D036A140F2E47008
:106C8000FBF7DAFCE0682346404A4461606801682B
:106C90000F683146B847002859D1606920B92DA145
:106CA00040F2F370FBF7C8FC606902F0FEFB0028BD
:106CB0004DD1A168C1F83001A168C1F834014FF489
:106CC000A071A068F9F7D1FCA068012180F83C11FF
:106CD000A2682F4F40F60F0992F83D014FF4016A68
:106CE00065F3820082F83D01A26840F0080082F856
:106CF0003D01A0680170A16850204873A168182068
:106D0000002408732348244980460D1A13E000BF6D
:106D100018EBC40603D10FA14846FBF78DFC706841
:106D2000006818B90BA15046FBF786FC7068006834
:106D300047F82400641CB4EBD50FE9D3072D05D91F
:106D4000E908164B04223846F9F71AFC0020BDE882
:106D5000F08700002E2E5C2E2E5C2E2E5C2E2E5CDC
:106D60002E2E5C2E2E5C636F6D706F6E656E74736D
:106D70005C6C69627261726965735C636C695C6E9C
:106D800072665F636C692E6300000000FD380000CE
:106D90007402002090DF0000F8DF00001DB1000049
:106DA0000023FCF7C7BE000010B5040004D11AA1EF
:106DB00040F6BE00FBF740FCA06818B1606808B15F
:106DC000206820B914A140F6BF00FBF735FCA0688D
:106DD0000078D8B1012819D0022817D12046FCF735
:106DE00001FB00212046FCF73BF978B118A20321F2
:106DF00020462368FFF712FDA36815A2082120464C
:106E00001433FFF70BFD2046FDF7F2FD2069BDE8C6
:106E1000104001F06BBD00002E2E5C2E2E5C2E2E3D
:106E20005C2E2E5C2E2E5C2E2E5C636F6D706F6E52
:106E3000656E74735C6C69627261726965735C63C0
:106E40006C695C6E72665F636C692E6300000000A3
:106E50002573000070B5040004D117A140F68D0021
:106E6000FBF7EAFBA06818B1606808B1206820B998
:106E700011A140F68E00FBF7DFFBA0680078012827
:106E800001D0082070BD606801688A6800219047C1
:106E900005000FD10821204605F000F80121204609
:106EA00004F0DEFF12A1206901F0E0FC022120467F
:106EB000FCF784FB284670BD2E2E5C2E2E5C2E2EF9
:106EC0005C2E2E5C2E2E5C2E2E5C636F6D706F6EB2
:106ED000656E74735C6C69627261726965735C6320
:106EE0006C695C6E72665F636C692E630000000003
:106EF0000D0A0A0000F180400068002800D001203F
:106F0000704708B500F180400021016000680090E2
:106F100008BD00000549096840F4803001F0011106
:106F2000814201D101207047002070470C040040CD
:106F300000283ED01F49204A096800BF00BF00BF9B
:106F400000BF00BF00BF00BF00BF91422FD000BFF5
:106F500000BF00BF00BF00BF00BF00BF00BF00BF39
:106F600000BF00BF00BF00BF00BF00BF00BF00BF29
:106F700000BF00BF00BF00BF00BF00BF00BF00BF19
:106F800000BF00BF00BF00BF00BF00BF00BF00BF09
:106F900000BF00BF00BF00BF00BF00BF00BF00BFF9
:106FA00000BF00BF00BF00BF00BF00BF00BF01386F
:106FB000C3D17047700200200024F40000283ED0A6
:106FC0001F49204A096800BF00BF00BF00BF00BFC3
:106FD00000BF00BF00BF91422FD000BF00BF00BF65
:106FE00000BF00BF00BF00BF00BF00BF00BF00BFA9
:106FF00000BF00BF00BF00BF00BF00BF00BF00BF99
:1070000000BF00BF00BF00BF00BF00BF00BF00BF88
:1070100000BF00BF00BF00BF00BF00BF00BF00BF78
:1070200000BF00BF00BF00BF00BF00BF00BF00BF68
:1070300000BF00BF00BF00BF00BF0138C3D1704711
:10704000700200200024F40010B50F4C207820B905
:107050000EA140F23310FBF7EFFA606820B90BA1E4
:107060004FF49A70FBF7E8FA0020FBF723FA606808
:10707000401E6060606808B9FEF748F8BDE810403F
:107080000020FBF745BA00007C1000202E2E5C2E5D
:107090002E5C2E2E5C2E2E5C2E2E5C2E2E5C636FB4
:1070A0006D706F6E656E74735C6472697665727311
:1070B0005F6E72665C636C6F636B5C6E72665F645E
:1070C00072765F636C6F636B2E63000070B51C4C4F
:1070D0000546207820B91BA14FF48970FBF7ACFA64
:1070E000607838B115B16968002088470020FBF747
:1070F000E1F913E00020FBF7DDF925B1104829463E
:107100000830FEF701FA606840B94FF48070FFF76D
:10711000F8FE01208107C1F8040308606068401C84
:1071200060600020FBF7F4F96068002806D1BDE834
:10713000704004A14FF49770FBF77EBA70BD000059
:107140007C1000202E2E5C2E2E5C2E2E5C2E2E5CB3
:107150002E2E5C2E2E5C636F6D706F6E656E747379
:107160005C647269766572735F6E72665C636C6F85
:10717000636B5C6E72665F6472765F636C6F636B89
:107180002E63000070B50E4C0025207808B18525CF
:1071900013E00021A16061602161E1604FF0E02017
:1071A000D0F80001012610F0010F03D107210020C3
:1071B00000F0A0F8034806602670284670BD000065
:1071C0007C1000201805004070B51C4C0546207846
:1071D00018B91BA1D520FBF72FFAA07838B115B14B
:1071E0006968012088470020FBF764F915E000205A
:1071F000FBF760F925B1114829461030FEF784F9F4
:10720000E06850B94FF48270FFF77BFE022041071F
:10721000C1F804031A4901200860E068401CE060DE
:107220000020FBF775F9E068002805D1BDE8704043
:1072300003A1F120FBF700BA70BD00007C10002014
:107240002E2E5C2E2E5C2E2E5C2E2E5C2E2E5C2E78
:107250002E5C636F6D706F6E656E74735C647269C3
:10726000766572735F6E72665C636C6F636B5C6E87
:1072700072665F6472765F636C6F636B2E6300008F
:10728000080000402DE9F0414FF480773846FFF7C1
:1072900031FE0124104EA50748B13846FFF731FEF4
:1072A0000120C5F8080374700020FCF7A5FC4FF41A
:1072B00082773846FFF71EFE00280BD03846FFF7CE
:1072C00020FE0220C5F80803B470BDE8F04101209B
:1072D000FCF792BCBDE8F0817C10002000F01F029A
:1072E000012191404009800000F1E020C0F88011A8
:1072F0007047000070B50D460446082903D31049B5
:10730000FE20FBF799F96807000E002C06DA04F05E
:107310000F0101F1E02181F8140D03E004F1E021F7
:1073200081F8000404F01F010120884061098900F0
:1073300001F1E021C1F88002C1F8000170BD000038
:10734000A4D000004109890001F1E021D1F8001129
:1073500000F01F0201209040014201D0012070473F
:1073600000207047000B40B270470121B1EB507F05
:1073700001D101207047002070470121B1EB507FFF
:1073800001D10120704700207047000070B5104CFB
:10739000217809B1852070BD00B90E480E4A0178E8
:1073A000C1F3400111600C490078083900F0010078
:1073B00008604FF0E020D0F80001012510F0010F27
:1073C00003D107210020FFF795FF2570002070BD35
:1073D00050010020CCC200008005004070B54FF085
:1073E0008040D0F80453354C68070DD54FF48470B5
:1073F00002F0F8FA40B1606820B931A140F24110C2
:10740000FBF71AF960688047A8060ED54FF48A701A
:1074100002F0E8FA48B1A06820B929A140F2491069
:10742000FBF70AF9A1680020884768060ED54FF4DB
:107430008C7002F0D7FA48B1A06820B920A14FF4AF
:10744000A870FBF7F9F8A1680120884728060ED537
:107450004FF48E7002F0C6FA48B1E06820B918A166
:1074600040F25910FBF7E8F8E16800208847E8058A
:107470000ED54FF4907002F0B5FA48B1E06820B92B
:107480000FA14FF4B070FBF7D7F8E16801208847EF
:10749000A80511D54FF4927002F0A4FA00280BD081
:1074A000E06820B906A140F26710FBF7C5F8E16873
:1074B000BDE870400220084770BD00005001002068
:1074C0002E2E5C2E2E5C2E2E5C2E2E5C2E2E5C2EF6
:1074D0002E5C636F6D706F6E656E74735C64726941
:1074E000766572735F6E72665C706F7765725C6EE4
:1074F00072665F6472765F706F7765722E630000EC
:1075000000B5024600F00EF8106838B10449C860B2
:107510004FF080414FF46070C1F80403002000BDBB
:10752000500100204FF080414FF46070C1F8080313
:1075300001490020C86070475001002010B5044682
:10754000B0F5000F03D307496C20FBF775F84FF037
:10755000E020816982698A1A22F07F42A242F9D32F
:1075600010BD0000E8D0000070B50B4D04460B4E76
:1075700028680B49B0FBF6F0B1FBF0F0A04203D253
:1075800008497720FBF758F82868B0FBF6F060430D
:10759000BDE87040FFF7D2BF7002002040420F00EC
:1075A000FFFF7F00E8D000004FF0E0206FF07F4148
:1075B00041610521016170472DE9F04190460D00C0
:1075C000064603D118A1EA20FBF736F83079264F9A
:1075D00007EB4014E07E10B10820BDE8F081687F21
:1075E000207729463046FAF7D3FF5FEA080060604B
:1075F0002969216003D0297F3046FDF749FF3079A2
:1076000007EB4010007F0028306801D0082100E01F
:107610000421C0F800150020E0752076A075012136
:10762000E176A076D9E700002E2E5C2E2E5C2E2E61
:107630005C2E2E5C2E2E5C2E2E5C636F6D706F6E3A
:10764000656E74735C647269766572735F6E726680
:107650005C756172745C6E72665F6472765F756190
:1076600072742E6300000000F81000202DE9F04134
:1076700005460079304E174606EB40148846E07EFA
:10768000012804D02DA140F23220FAF7D5FF27B906
:107690002AA140F23320FAF7CFFF287906EB4010F9
:1076A000007F18B14046FFF760FE80B1626800239A
:1076B0004FF404704FF4017172B12A7906EB421253
:1076C000127F002A2A6805D0C2F8080304E01020BF
:1076D000BDE8F081C2F80813E27DB2B1227E7AB132
:1076E00062685AB12A7906EB4212127F1AB12968F0
:1076F000C1F8040302E02868C0F804131120E7E78A
:10770000C4F810800123277605E0E7750020C4F84F
:107710000C806076207628793A4606EB4010414688
:10772000007F0028284603D0BDE8F04100F08EB865
:10773000BDE8F04100F036B8F81000202E2E5C2E87
:107740002E5C2E2E5C2E2E5C2E2E5C2E2E5C636FFD
:107750006D706F6E656E74735C647269766572735A
:107760005F6E72665C756172745C6E72665F647285
:10777000765F756172742E63000000000179084A1B
:1077800002EB411101220B7F01680BB14A60704787
:107790004FF40173C1F8083300684260704700007D
:1077A000F81000202DE9F05F04460079264901EB2E
:1077B0004015A87E184302D1204603F01CF96868E2
:1077C0000028206806D04FF40171C0F8041300208F
:1077D000BDE8F09F4FF4A276314602F02EFDB1468F
:1077E0004FF4927A4FF4847B5146206802F020FDDA
:1077F00006465946206802F01BFD8046494620682F
:1078000002F016FD074648EA07003043ECD056EA7E
:10781000070007D12946206803F0C8F8E87D697E93
:107820008842E1D80020E8750EB10320D0E70FB1FF
:107830000F20CDE7A97E01200029216801D0086032
:10784000C5E74860C3E70000F81000202DE9F05FAD
:10785000894604464FF488759A469046002600688B
:10786000294602F0FBFC4FF4A2773946206802F06B
:10787000F5FC2068C0F83495C0F838852068BAF166
:10788000000F14D0D0F8001241F02001C0F800120F
:107890002179DFF8648008EB4110406850B120681E
:1078A0004FF40471C0F804133046BDE8F09F012185
:1078B0000160EDE7AA46B9464FF4927B5146206835
:1078C00002F0C7FC07464946206802F0C2FC0546A4
:1078D0005946206802F0BDFC014647EA050008430E
:1078E000ECD02379002208EB4310C27501B10326C6
:1078F000002DD9D00F26D7E7F81000202DE9F0474A
:107900000E460179DFF82881044608EB4115174639
:10791000E87E012804D047A14FF4B970FAF78CFE35
:1079200027B944A140F27310FAF786FE26B941A1A7
:107930004FF4BA70FAF780FE217908EB4110007F0E
:1079400018B13046FFF711FD30B1204600F092F833
:1079500020B11120BDE8F0871020FBE7AF750027AC
:10796000AE60AF8221793E4608EB41154FF0010829
:10797000287F0028206825D04FF49079494602F0EE
:107980006DFC4FF4AC7A5146206802F067FC206829
:10799000A97DAA68C0F84425C0F848152068C0F839
:1079A00008806868F0B94946206802F052FC8046B9
:1079B0005146206802F04DFC58EA0001F3D058BB54
:1079C000AF750FE04FF48E7A514602F036FC206816
:1079D000C0F808802946206803F0A4FD69684FF4C8
:1079E000807089B13046B5E75146206802F020FC2E
:1079F00010B9A88A4845F7D1A88A484505D0294634
:107A0000206803F08FFD00E08146A88AA97D8842A6
:107A1000EAD3A88A484501D10F26D1E7514620680C
:107A200002F006FC0028F9D02068C0F80C80C7E7F7
:107A3000F81000202E2E5C2E2E5C2E2E5C2E2E5C3E
:107A40002E2E5C2E2E5C636F6D706F6E656E747380
:107A50005C647269766572735F6E72665C75617282
:107A6000745C6E72665F6472765F756172742E63A9
:107A7000000000000079044901EB4010807D0028DF
:107A800000D0012070470000F810002070B50446B7
:107A900000791149002601EB401520682A7FC0F8C3
:107AA0000065686888B1207901EB4010007F0028EC
:107AB000206801D0094901E008498C39C0F8081351
:107AC0002068FFF74FFCFFF709FC204602F010FE8C
:107AD000EE766E6070BD0000F8100020100302000A
:107AE00003490248C1F804037047000004148001F0
:107AF000007002402DE9F0411D46174606460C462F
:107B0000AA4204D213A140F2C510FAF795FD2068ED
:107B100038B1FFF732FC20B90EA14FF4E370FAF749
:107B20008BFD6068A84204D2002171602168316039
:107B300007E075602168401B31606060216829445E
:107B40002160AF4203D110B10120BDE8F0810020D7
:107B5000FBE700002E2E5C2E2E5C2E2E5C2E2E5C63
:107B60002E2E5C2E2E5C636F6D706F6E656E74735F
:107B70005C647269766572735F6E72665C7573625F
:107B8000645C6E72665F6472765F757362642E63A6
:107B90000000000010B50D4C207820B90CA140F277
:107BA0009E60FAF749FD00F047FD1949D1F804033A
:107BB000C1F80803174900200860BFF36F8FBFF3B7
:107BC0004F8FE0700120207010BD00006001002088
:107BD0002E2E5C2E2E5C2E2E5C2E2E5C2E2E5C2EDF
:107BE0002E5C636F6D706F6E656E74735C6472692A
:107BF000766572735F6E72665C757362645C6E72DA
:107C0000665F6472765F757362642E6300000000C5
:107C1000007002400075024070B51A4C20780128AF
:107C200004D019A140F27D60FAF706FD4FF400651B
:107C3000284602F0F7FC244901200860BFF36F8F4B
:107C4000BFF34F8F214801680905FCD5284602F093
:107C5000E9FC1F4940F2E37008604020091D0860FC
:107C6000BFF36F8FBFF34F8F174980201C3108601F
:107C700040F2FF10A0600020E060E070A0700220E1
:107C8000207070BD600100202E2E5C2E2E5C2E2EEA
:107C90005C2E2E5C2E2E5C2E2E5C636F6D706F6ED4
:107CA000656E74735C647269766572735F6E72661A
:107CB0005C757362645C6E72665F6472765F757326
:107CC00062642E63000000000075024000740240F0
:107CD0000078024003F0E6BF70B5054603F0E2FF0E
:107CE0002846FCF7A9FF044600F00F00092804D33A
:107CF0000E4940F2E240FAF79FFC04F00F01220621
:107D00004FF0010001D50A4A01E0094A121D13682B
:107D1000884083431360BFF36F8FBFF34F8F2846B4
:107D200000F062F90349C1F8080370BD0088000043
:107D30001075024000700240012102F095BA000067
:107D400070B5054600F050F92149C1F804032846F2
:107D500002F0D6FA00283AD12846FCF76DFF044617
:107D600000F00F00092804D31A4940F2D140FAF775
:107D700063FC04F00F0021064FF0010401D5164901
:107D800001E01549091D0A6804FA00F002430A607F
:107D9000BFF36F8FBFF34F8F280718D0280616D474
:107DA00005F00F00082812D20020FAF783FB2846BE
:107DB00000F0BAFC2846FCF7CFFE84400748C168B3
:107DC000A143C160BDE870400020FAF7A1BB70BDBF
:107DD0000070024000880000107502406001002021
:107DE00010B5FCF729FFBDE8104002F089BA000089
:107DF0002DE9F0410E460746FCF7AEFE054626B9D2
:107E000018A14FF4FD60FAF717FC0020FAF752FBB7
:107E1000244C380704D1A078874201D010241BE0FD
:107E20002089E168C04380B20843012101FA05F5C9
:107E3000284201D011240FE03846FCF7C1FE002192
:107E4000816032680260726842608173E068054355
:107E5000E5600C4603F0C8FF0020FAF759FB204606
:107E6000BDE8F0812E2E5C2E2E5C2E2E5C2E2E5C1C
:107E70002E2E5C2E2E5C636F6D706F6E656E74734C
:107E80005C647269766572735F6E72665C7573624C
:107E9000645C6E72665F6472765F757362642E6393
:107EA000000000006001002010B5FCF789FE808909
:107EB00010BD000070B50C00054602D0601E0442E3
:107EC00004D011A140F22D70FAF7B6FB05F00F00B7
:107ED00008280CD31C480068C1B2802904D04FF494
:107EE0008060A0420AD204E04FF40070F9E7402C11
:107EF00004D905A140F22F70FAF79EFB2846FCF743
:107F00005FFE848170BD00002E2E5C2E2E5C2E2E16
:107F10005C2E2E5C2E2E5C2E2E5C636F6D706F6E51
:107F2000656E74735C647269766572735F6E726697
:107F30005C757362645C6E72665F6472765F7573A3
:107F400062642E63000000001C75024010B5FCF74F
:107F500073FE044600F00F00082804D3064940F2DF
:107F6000FB40FAF769FB054944F480700860BFF3F1
:107F70006F8FBFF34F8F10BD00880000187502404F
:107F800010B5FCF759FEBDE8104002F0F5B900004D
:107F900010B5FCF751FE044600F00F00082804D38A
:107FA000054940F20350FAF747FB04480460BFF369
:107FB0006F8FBFF34F8F10BD00880000187502400F
:107FC00070B50D46FCF7FCFD04460020FAF772FA86
:107FD000A0682860206828B111240020FAF798FAD8
:107FE000204670BDA47BF8E770B50546000605F095
:107FF0000F0402D5092C09D301E0092C08D307A1ED
:108000004FF4C770FAF718FB280601D5134801E0B2
:1080100012480930015D0120884070BD2E2E5C2E73
:108020002E5C2E2E5C2E2E5C2E2E5C2E2E5C636F14
:108030006D706F6E656E74735C6472697665727371
:108040005F6E72665C757362645C6E72665F6472AA
:10805000765F757362642E630000000090C30000B9
:108060002DE9F0410D460646FCF776FD044625B99C
:1080700030A140F27970FAF7DFFA0020FAF71AFA25
:108080003C48310704D181788E4201D0102438E079
:1080900001898046C943C06889B201270143A740CE
:1080A000394201D011242CE03046FCF789FD04460A
:1080B00006F00F00310600EB40002AD52E4901EBF7
:1080C00080062868FFF759F90028287A4FEAC0701F
:1080D00004D008B1294803E0294801E0B8B1294893
:1080E000206095E8070086E807000020C4E90160E9
:1080F000A073D8F80C1004460F43C8F80C7003F0B6
:1081000073FE0020FAF704FA2046BDE8F0811E480D
:10811000E6E719496C3101EB8006286838B1FFF7B2
:108120002CF920B903A140F2D270FAF785FA17486A
:10813000D6E700002E2E5C2E2E5C2E2E5C2E2E5CA2
:108140002E2E5C2E2E5C636F6D706F6E656E747379
:108150005C647269766572735F6E72665C75736279
:10816000645C6E72665F6472765F757362642E63C0
:10817000000000006001002038120020AD830000E4
:108180002983000081820000E1810000F57A00006F
:1081900010B5FCF751FDBDE8104002F003BA000035
:1081A0000C480078082810D10A48001D0078000704
:1081B0000BD108480830007810F0F00F05D10548C1
:1081C0000C30007810F0F00F01D000207047012033
:1081D00070470000E00F00F00048704710130020C7
:1081E0002DE9F041804616460C460868FFF7C5F8B1
:1081F00020B112A140F22E20FAF71EFA65681F4F37
:10820000B54200D93546402D04D90CA14FF40E706B
:10821000FAF712FA2A4638462168F8F7FFF9C8E952
:1082200000756068401B60602068284420606068BA
:10823000002800D00120BDE8F08100002E2E5C2E29
:108240002E5C2E2E5C2E2E5C2E2E5C2E2E5C636FF2
:108250006D706F6E656E74735C647269766572734F
:108260005F6E72665C757362645C6E72665F647288
:10827000765F757362642E630000000010130020A7
:108280002DE9F041064690460D460868FFF775F85F
:1082900020B114A14FF41570FAF7CEF96C68214F94
:1082A0004046444500D90446402C04D90DA140F273
:1082B0005E20FAF7C1F934B1224638462968F8F74A
:1082C000ADF9376001E00020306074606868001B21
:1082D000686028682044286014B10120BDE8F0815E
:1082E0000020FBE72E2E5C2E2E5C2E2E5C2E2E5CAC
:1082F0002E2E5C2E2E5C636F6D706F6E656E7473C8
:108300005C647269766572735F6E72665C757362C7
:10831000645C6E72665F6472765F757362642E630E
:1083200000000000101300202DE9F041074616461A
:108330000C460868FFF721F820B90CA14FF4F6703D
:10834000FAF77AF96568B54200D935462068C7E979
:1083500000056068401B60602068284420606068F9
:10836000002800D00120BDE8F08100002E2E5C2EF8
:108370002E5C2E2E5C2E2E5C2E2E5C2E2E5C636FC1
:108380006D706F6E656E74735C647269766572731E
:108390005F6E72665C757362645C6E72665F647257
:1083A000765F757362642E63000000002DE9F04172
:1083B000074616460C460868FEF7DFFF20B910A1F5
:1083C00040F20D20FAF738F96568B54200D9354614
:1083D000002D0FD0D4F80000C7E900056068A0EBBD
:1083E0000500606020682844206006D04FF001003E
:1083F000BDE8F0814FF00000EEE74FF00000F7E736
:108400002E2E5C2E2E5C2E2E5C2E2E5C2E2E5C2EA6
:108410002E5C636F6D706F6E656E74735C647269F1
:10842000766572735F6E72665C757362645C6E72A1
:10843000665F6472765F757362642E63000000008D
:108440002DE9F0410446FFF7ABFE08B1FFF7ACF8A9
:108450002CB11E49087820B10820BDE8F081072022
:10846000FBE74C6001200024087046024FEA040537
:1084700044F0800707F00F00082801D3314600E0E0
:1084800040213846FFF716FD3846FCF799FB857307
:10849000641C0560E4B28560092CE9D35FF0000438
:1084A00004F00F00082801D3314600E040212046A7
:1084B000FFF700FD2046FCF783FB8573641C056015
:1084C000E4B28560092CEBD30020C6E760010020F0
:1084D00003480078022801D301207047002070472C
:1084E0006001002002480078002800D00120704779
:1084F0006001002010B5FFF7EBFF28B12720FEF741
:1085000021FF08B1012010BD002010BD0148807876
:108510007047000060010020502002F095B810B5AF
:10852000FFF73EFE58B1EFF3108472B64C2002F014
:108530008BF84C2002F088F884F3108810BDBDE859
:1085400010404C2002F080B80021016041601149C8
:10855000096801700F49091D096841700D4908310A
:1085600009680C4A0C32126841EA0221418009492B
:1085700010310968074A1432126841EA02218180E9
:10858000044918310968034A1C32126841EA022181
:10859000C180704780740240542002F055B800003A
:1085A00070B5104C05462078022804D00EA140F288
:1085B000AC60FAF741F8002060701B4C15B9FFF76A
:1085C000EFFD00B1194C1A48C0F8044307212720D9
:1085D000FEF790FE174901200860BFF36F8FBFF3CD
:1085E0004F8F70BD600100202E2E5C2E2E5C2E2E33
:1085F0005C2E2E5C2E2E5C2E2E5C636F6D706F6E6B
:10860000656E74735C647269766572735F6E7266B0
:108610005C757362645C6E72665F6472765F7573BC
:1086200062642E63000000000714C0030714E00317
:108630000070024004750240104810B5007802280E
:1086400004D00FA140F2CB60F9F7F6FF2720FEF728
:1086500079FE002810D003F087FB1949002008603C
:10866000BFF36F8FBFF34F8F16498020C1F8800191
:1086700048171549C1F8080310BD0000600100202B
:108680002E2E5C2E2E5C2E2E5C2E2E5C2E2E5C2E24
:108690002E5C636F6D706F6E656E74735C6472696F
:1086A000766572735F6E72665C757362645C6E721F
:1086B000665F6472765F757362642E63000000000B
:1086C0000475024004E000E00070024010B5002490
:1086D0002046F9F7EFFE0C48407878B103F044FBF0
:1086E0000A480168890509D4094901220A6000681D
:1086F000800502D50020086000E001240020F9F781
:1087000007FF204610BD00006001002000740240F9
:108710002C75024003490248C1F808037047000065
:1087200004148001007002402DE9F0410446000667
:1087300004D521A140F67200F9F77EFFFFF730FD66
:1087400001274FF000082C4D002804F00F0640468A
:1087500012D0F9F7AFFE2046FCF7FEF98740A86873
:108760002649B843A86040F2C57000EB4600086097
:10877000091DC1F800801AE0F9F79CFE2046FCF7BD
:10878000EBF98740A868B843A860200601D4082EFA
:1087900004D31BA140F28E40F9F74EFF264A02EBAC
:1087A0008601C1F8A084BFF36F8FBFF34F8FBDE880
:1087B000F0410020F9F7ACBE2E2E5C2E2E5C2E2E42
:1087C0005C2E2E5C2E2E5C2E2E5C636F6D706F6E99
:1087D000656E74735C647269766572735F6E7266DF
:1087E0005C757362645C6E72665F6472765F7573EB
:1087F00062642E63000000006001002000780240E7
:108800002E2E5C2E2E5C2E2E5C2E2E5C2E2E5C2EA2
:108810002E5C636F6D706F6E656E74735C647269ED
:10882000766572735F6E72665C68616C5C6E7266B0
:108830005F757362642E68000070024010B50024FA
:108840002046F9F737FE0748407830B101F0F4FED2
:1088500018B105490020086001240020F9F758FEEE
:10886000204610BD600100202C7502400FB438B5C1
:10887000040003D110A11C20F9F7DEFE606918B9CD
:108880000DA11D20F9F7D8FE206818B90AA11E20F5
:10889000F9F7D2FE606818B907A11F20F9F7CCFEDE
:1088A0000599002905D006A800906A46204600F0E8
:1088B00049F838BC5DF814FB2E2E5C2E2E5C2E2E53
:1088C0005C2E2E5C2E2E5C2E2E5C65787465726E8E
:1088D000616C5C667072696E74665C6E72665F660F
:1088E0007072696E74662E630000000010B504009B
:1088F00003D107A10B20F9F79FFEA268002A05D03B
:10890000D4E90403216898470020A06010BD00004E
:108910002E2E5C2E2E5C2E2E5C2E2E5C2E2E5C2E91
:108920002E5C65787465726E616C5C667072696EDF
:1089300074665C6E72665F667072696E74662E63D2
:10894000000000002DE9FC4791460C465FEA000854
:1089500004D183A14FF49F70F9F76EFED8F814008C
:1089600020B97FA14FF4A070F9F766FED8F8000097
:1089700020B97BA140F24110F9F75EFED8F804005F
:1089800020B977A14FF4A170F9F756FE002C76D0EC
:1089900014F8011B39B125290ED04046F9F790FE95
:1089A00020780028F4D198F80C00002867D04046C1
:1089B000BDE8FC47FFF79ABF0020012221782B2950
:1089C0001BD02D2902D0302908D102E040F001004F
:1089D00001E040F00200641C002AEFD100252A29A2
:1089E0000ED02178A1F130020A2A11D205EB8502BE
:1089F00001EB4205641C303DF1E740F00400EAE77A
:108A0000D9F800100B1DC9F800300968641C0D442A
:108A1000217800232E290BD114F8011FA1F1300277
:108A20000A2A05D203EB830201EB4203303BF3E752
:108A30006C290DD068290BD0692921D00BDC2529A0
:108A400018D0582931D063290ED0642915D117E0E8
:108A500014F8011FECE7702969D0732932D0752909
:108A60001BD0782909D120E0D9F80000011DC9F8F0
:108A7000001001784046F9F723FE641C90E76CE093
:108A8000D9F800100A1DC9F800200968CDE9005086
:108A90000A224046FCF7A8FCEFE7D9F800100A1DAF
:108AA000C9F8002009680A2206E0D9F800100A1D5A
:108AB000C9F8002009681022CDE90050404602F0B4
:108AC000D9FEDAE7D9F8001000270A1DC9F80020FE
:108AD0000E68C00705D112E04046761C7F1CF9F7EE
:108AE000EFFD31780029F7D104E0202140466D1ECA
:108AF000F9F7E6FDBD42C0D9002DF6D1BDE74EB174
:108B00003046F7F7BDFD074604E0202140466D1EC4
:108B1000F9F7D6FDBD4206D9002DF6D103E0404657
:108B2000761CF9F7CDFD31780029F8D1A5E7D9F801
:108B30000000011DC9F80010056830214046F9F712
:108B4000BFFD78214046F9F7BBFD08200021CDE9A3
:108B50000001034610222946B0E7BDE8FC8700006B
:108B60002E2E5C2E2E5C2E2E5C2E2E5C2E2E5C2E3F
:108B70002E5C65787465726E616C5C667072696E8D
:108B800074665C6E72665F667072696E74665F664C
:108B90006F726D61742E63002DE9FF411C46DDE9A3
:108BA0000A7815460E46684600F078F846EA450110
:108BB00041EA840141EA072242EA0841009A00EBB7
:108BC0008200C0F80017BDE8FF811CB500210091AC
:108BD0000B4601220191FFF7DFFF1CBD1CB50022EF
:108BE0000B46009211460192FFF7D6FF1CBD1CB543
:108BF000002100910B46012201911146FFF7CCFFA5
:108C00001CBD13B50C46684600F014F8009900EB43
:108C10008101D1F8002722F44032C1F800270099E1
:108C200000EB8100D0F8001741EA0441C0F80017BA
:108C30001CBD000010B504460068302804D308A10C
:108C40004FF4D570F9F7F8FC2068202802D24FF0D5
:108C5000A04010BD00F01F0020600F4810BD0000B4
:108C60002E2E5C2E2E5C2E2E5C2E2E5C2E2E5C2E3E
:108C70002E5C636F6D706F6E656E74735C64726989
:108C8000766572735F6E72665C68616C5C6E72664C
:108C90005F6770696F2E68000003005010B50446CE
:108CA0000068302804D308A14FF4D570F9F7C4FC4C
:108CB0002068202802D24FF0A04010BD00F01F0015
:108CC00020600F4810BD00002E2E5C2E2E5C2E2E34
:108CD0005C2E2E5C2E2E5C2E2E5C636F6D706F6E84
:108CE000656E74735C647269766572735F6E7266CA
:108CF0005C68616C5C6E72665F6770696F2E68009D
:108D00000003005001B56846FFF7C8FF009A012133
:108D10009140C0F8081508BD7CB5154604460C4ABC
:108D20006618022ED2E90002CDE9000204D909A199
:108D300040F2C220F9F780FC694605E051F82400B2
:108D4000D0F81005641C01C5A642F7D87CBD000010
:108D5000C4C200002E2E5C2E2E5C2E2E5C2E2E5CAD
:108D60002E2E5C2E2E5C636F6D706F6E656E74734D
:108D70005C647269766572735F6E72665C68616C62
:108D80005C6E72665F6770696F2E6800034908B594
:108D90000844002101600068009008BD00600040A8
:108DA00002494058012800D0002070470060004070
:108DB0002DE9F0410E461D4904460025D1F8102446
:108DC000104609E0037AAB4205D16D1C0A2DF7DB92
:108DD0004FF0FF3527E040680028F3D1681C22D00F
:108DE0002572D1F8100430B140686060D1F81004E9
:108DF0004460002713E00020C1F810446060F8E7E9
:108E000000231A463946284600F03AFAB04200D309
:108E100030460246207A394600F058FA7F1C00F0AE
:108E200025FAB842ECD82846BDE8F0812C1600207F
:108E3000704710B54469606801688A6801219047ED
:108E400018B10420A168087010BD0320FAE72DE9CD
:108E5000F34146690446B068007804281ED0032810
:108E600007D0002501A9E06800F0B6FF85F00107F2
:108E700009E00125F6E739463046FAF7F1F801A98D
:108E8000E06800F0A9FF0028F5D1019800F006FB8A
:108E9000002D03D000213046FAF7E2F8BDE8FC814E
:108EA0000A4A012902EBC00007D0022907D0032992
:108EB00007D0042907D00020704702207047042003
:108EC000704700797047407970470000F8DF000074
:108ED0002DE9F04F8DB0F9F703FC18B100200DB06B
:108EE000BDE8F08F7C480021C0F81814BFF34F8F05
:108EF000D0E9014504EA050100EB81014FF00009CA
:108F00000AE000BFC1F3891202EB9151641C0C44CA
:108F100004EA050100EB8101C9688A07F2D000214B
:108F200003AA804604EA050008EB8000641CC068C0
:108F300042F82100491C43460229F3D3039800F06C
:108F40000300022806D00128039853D0C0438007AD
:108F500070D0BCE003985022810D8B46B2EB905F3D
:108F600000D850210F4667F39F50C0F3C20A039008
:108F700008315A4800F049FA06007AD000F08EFA1B
:108F80004B46082203A9304600F0A8FA09F1080070
:108F900004EA05010190681A8000001D874222D969
:108FA0004D4D0C3530B1C2B208EB8101381A9146F3
:108FB0000C3104E02946FAB2002591462846C7B292
:108FC0003046019B00F08AFA019800EB09032DB1AD
:108FD0003A4629464FEA060000F080FA0BF10300FA
:108FE00004EB90043CE008EB81013A4630460C313A
:108FF000019BF1E7C0F38310062800D306200399F4
:1090000060F38911C1F38310C1F3C20A801C03917C
:109010008100324800F0F9F9060058D000F03EFA1D
:109020004B46082203A9304600F058FA09F1080916
:1090300000270FE01EE000BF04EA050008EB8001F6
:109040004B46042230460C31641C00F047FA09F10B
:1090500004097F1C0398C0F38310B842ECD846B1D2
:10906000D8F81054D8F81804474608B3304600F032
:109070001EFA2CE0D3F8180400283FF430AF26E0A5
:10908000687A012813D10498154A00EB400002EBDE
:109090008000297A806801EB4101C84000F0070098
:1090A000504504D32A6828463146126890476D68B7
:1090B000002DE5D1304600F0FAF90020F9F7FAF971
:1090C000D7F8180400B97C600020F9F721FAF9F705
:1090D00007FB80F0010002E72C16002040C70000CB
:1090E000A802002000231A4601F0A6BF08B50123FC
:1090F00000926A4601F0A0FF08BD1CB5CDE900232F
:1091000002236A4601F098FF1CBD3EB5069C8DE81F
:109110001C0003236A4601F08FFF3EBD7FB5DDE9E9
:1091200008458DE83C0004236A4601F085FF7FBDB9
:109130002DE9F0470E4680461C46924608293ED847
:1091400094F80C90002020731946104601F04EFB55
:109150000025B54206D218F805201AA12046FFF7CF
:1091600085FB03E019A12046FFF780FB6D1C082D4D
:10917000EFD317A12046FFF779FB0025B54210D2A7
:1091800018F80570F7F7F8F90068C05D10F03E0FA9
:1091900001D03A4600E02E220EA12046FFF766FBE2
:1091A00003E00DA12046FFF761FB6D1C082DE5D300
:1091B00001222146504601F0D7FA84F80C90BDE810
:1091C000F0870000202530327800000020202000A9
:1091D0007C00000025630000200000002DE9F0471E
:1091E0001D484FF00009FF21C0F80090C0E901912F
:1091F000C0F81894C0F8149480F81C94174800F034
:1092000054F9002826D11649DFF85880A1EB080050
:10921000C70800241BE0002635460CE0AC4209D00C
:1092200058F8340058F835101422F7F747FA002898
:1092300000DD761C6D1CBD42F0D30B4904EB4400ED
:1092400001EB8000C0F8049004804680641CBC429E
:10925000E1D30020BDE8F0872C16002040C70000B5
:1092600060E00000F8DF0000A80200200248034987
:10927000401AC0087047000060E00000F8DF0000FE
:109280007FB505461146002401A87BB1FCF708FE16
:10929000A0B901980B4900EB400001EB800005EB01
:1092A00045018068C84000F0070407E0FCF7F8FDBE
:1092B00020B90548019900EBC100847904B020462B
:1092C00070BD0000A8020020F8DF000030B50F4B91
:1092D00001EB410103EB810400EB40000723A5688B
:1092E00003FA00F18D4302F0070181402943002574
:1092F0002A46A16003FA02F00840D040A84200D9F3
:109300000546D21C0A2AF5D3656030BDA8020020AC
:1093100013B56846FCF7C4FD08B100201CBD024827
:10932000009950F831001CBDF8DF000070B5084806
:109330000125D0F8104480F81C5405E065722168BE
:109340002046496888476468002CF7D170BD00004A
:109350002C1600202DE9FF4781460C9D00200C466D
:109360002F7B2873984616462946184601F03EFA88
:10937000072E42D2DFE806F004090F161F2A360036
:1093800049462846FFF772FA37E0494628462268E0
:10939000FFF76CFA31E0D4E9002349462846FFF78D
:1093A00065FA2AE0A0680090D4E9002349462846DF
:1093B000FFF75CFA21E0D4E90201CDE90001D4E92C
:1093C000002349462846FFF751FA16E004F1080049
:1093D00007C88DE80700D4E9002349462846FFF76F
:1093E00045FA0AE004F108000FC88DE80F00D4E93F
:1093F000002349462846FFF739FA0022294640460D
:1094000001F0B2F92F73BDE8FF872DE9F041058A1D
:1094100080462D1F4819C01CB0FBF5F0C6B240466F
:10942000FCF7A8FD041E19D00020207101206071F6
:10943000E58000272546761EC4F800800BE04046F4
:10944000FCF798FD60B16179491C6171286005469F
:109450007F1CC0F80080B742F1D32046BDE8F08100
:10946000204600F002F80020F8E72DE9F0414579A8
:1094700001466B1E002201E00968521C9A42FBD390
:109480000F680146002605E038460C68FCF7D8FD59
:109490002146761CAE42F7D3BDE8F08108B5012124
:1094A0006A46001DF6F79FFF08BDFCF70DBE38B5F4
:1094B0000446001D01216A46F6F7A2FF009810F04D
:1094C000FF0F04D12046BDE83840FFF7CEBF38BDBE
:1094D00038B501240094FCF785FC38BD38B500246C
:1094E0000094FCF77FFC38BD2DE9F84F834600F06F
:1094F00091F90546DBF8080090F83D01C0F3400003
:1095000030B15846BDE8F84F00221146FDF7E4B9E6
:109510001C4803681CA208215846FDF77FF919482A
:10952000001D03681DA208215846FDF777F9DFF8F2
:109530005480DFF8509008F10808002409F1100960
:1095400008F1040A1AE00020F8F7B4FFC8F8004058
:10955000D9F80070DAF800600020F8F7D9FF234648
:1095600013A2082158460096FDF758F9234617A282
:10957000082158460097FDF751F9641CAC42E2D32C
:10958000BDE8F88F90ED00E04D50555F54595045BF
:109590003A093078253038580D0A00004D50555F93
:1095A0004354524C3A093078253038580D0A00009F
:1095B0000D0A4D50555F524241525B25755D3A0987
:1095C0003078253038580D0A000000004D50555FA6
:1095D000524153525B25755D3A0930782530385831
:1095E0000D0A00002DE9FC410746806890F83D0116
:1095F000C0F3400038B102B03846BDE8F041002267
:109600001146FDF769B900F005F9064600903048AB
:109610000068C00701D02FA300E030A332A20821C8
:109620003846FDF7FBF800244EE00020F8F742FF33
:109630002748001D046026480C300568001FD0F83C
:1096400000800020F8F764FFE807234633D032A2F9
:1096500008213846FDF7E2F8C5F344010120491C12
:10966000884008EB0001491ECDE90010434630A2B6
:1096700008213846FDF7D2F8284600F0D3F8034613
:1096800037A208213846FDF7C9F8284600F048F906
:10969000034637A208213846FDF7C0F8284600F0F7
:1096A000FBF8034636A208213846FDF7B7F8E80074
:1096B00003D538A302E038A201E03DA33DA2082172
:1096C0003846FDF7ABF8641CB442AED3BDE8FC816C
:1096D00094ED00E0456E61626C65640044697361FD
:1096E000626C6564000000004D5055205374617435
:1096F000653A2025732C20257520756E696669658D
:109700006420726567696F6E732061766961626C4F
:10971000652E0D0A0D0A0000526567696F6E2025DF
:10972000753A20456E61626C65640D0A00000000A8
:10973000092D204C6F636174696F6E3A093078258A
:109740003038582D307825303858202873697A659C
:109750003A202575206279746573290D0A0000008E
:10976000092D204163636573733A0925730D0A005F
:10977000092D20547970653A090925730D0A0000F6
:10978000092D2043616368696E673A0925730D0AE4
:1097900000000000584E0000526567696F6E20257A
:1097A000753A2044697361626C65640D0A000000BB
:1097B0002D2D0000092D20466C6167733A09257331
:1097C0000D0A0D0A0000000008B5012905D08168C6
:1097D00091F83D11C1F3400129B10022BDE80840D4
:1097E0001146FDF779B851680091136802A2022171
:1097F000FDF714F808BD000025733A20756E6B6EF6
:109800006F776E20706172616D657465723A2025A4
:10981000730D0A0002480068C0F30720704700007B
:1098200090ED00E0C0F30260082813D2DFE800F0FA
:109830000406080A0C0E101007A0704708A0704715
:1098400009A070470AA070470BA070470CA0704792
:109850000DA070470EA070472D2D2F2D2D0000005C
:1098600052572F2D2D00000052572F524F0000004D
:1098700052572F52570000003F3F2F3F3F0000003C
:10988000524F2F2D2D000000524F2F524F0000003D
:10989000556E6B6E6F776E0010B5C0F3C241C0F3AA
:1098A0004043C0F3004200F47C100404240C17D1A0
:1098B0000014152814D2DFE800F00B0B0D0F0B0B72
:1098C0000B0B0B1313110B13130B0B1313130B00B5
:1098D0000A4810BD0AA010BD0BA010BD0CA010BD01
:1098E000042908D38807000F40EA43000B491043BE
:1098F00051F8200010BD0148383010BD58980000C4
:1099000057542F575400000057422F574200000071
:10991000574257412F57425741000000D0000020C6
:1099200000F47C100104090C15D10114152912D280
:10993000DFE801F00B0D18180B0D16161811111891
:10994000161111160F1111110F0008A070470EA06B
:10995000704712A07047C10C042905D3400301D5FC
:1099600010A0704714A0704715A070475374726F11
:109970006E676C792D6F7264657265642C20536814
:1099800061726561626C65004465766963652C206F
:10999000536861726561626C6500000044657669B8
:1099A000636500004E6F726D616C2C2053686172AC
:1099B0006561626C650000004E6F726D616C000045
:1099C0005265736572766564206F7220496D706CA4
:1099D000656D656E746174696F6E20446566696E4D
:1099E0006564000000F180410868002210B1012088
:1099F0000A607047104670477047000010B50400B9
:109A000004D105A140F29910F8F716FE204600F0A7
:109A100061FAA168081A10BD2E2E5C2E2E5C2E2E27
:109A20005C2E2E5C2E2E5C2E2E5C636F6D706F6E26
:109A3000656E74735C6C69627261726965735C7186
:109A4000756575655C6E72665F71756575652E63AB
:109A5000000000002DE9F04190460D4604004FF053
:109A6000000703D123A17020F8F7E6FD1DB921A15D
:109A70007120F8F7E1FD0020F8F71CFD204600F00A
:109A80009FF830B105270020F8F742FD3846BDE8C1
:109A9000F08120680668B8F1000F05D10168204602
:109AA00000F044F921680860E268012A0CD0022A1B
:109AB0000ED0042A11D06068082A13D006FB0201D8
:109AC0002846F6F7ABFDDEE76068805D2870DAE7D0
:109AD000606830F816002880D5E7606850F82600E6
:109AE0002860D0E700EBC601D1E90001C5E900011B
:109AF000C9E700002E2E5C2E2E5C2E2E5C2E2E5CD6
:109B00002E2E5C2E2E5C636F6D706F6E656E74739F
:109B10005C6C69627261726965735C7175657565AB
:109B20005C6E72665F71756575652E63000000007E
:109B300070B514460E46050003D112A1FC20F8F7BB
:109B40007BFD1EB90FA1FD20F8F776FD4FF0000058
:109B5000002C12D0F8F7AEFC287C78B12846FFF72D
:109B60004DFF844200D3044622463146284600F089
:109B7000B7FE0020F8F7CCFC204670BDA868A042D4
:109B8000F2D8F0E72E2E5C2E2E5C2E2E5C2E2E5C54
:109B90002E2E5C2E2E5C636F6D706F6E656E74730F
:109BA0005C6C69627261726965735C71756575651B
:109BB0005C6E72665F71756575652E6300000000EE
:109BC00010B5040004D107A140F29110F8F734FD5C
:109BD000216808684968884201D1012010BD002031
:109BE00010BD00002E2E5C2E2E5C2E2E5C2E2E5CC8
:109BF0002E2E5C2E2E5C636F6D706F6E656E7473AF
:109C00005C6C69627261726965735C7175657565BA
:109C10005C6E72665F71756575652E63000000008D
:109C200070B5040003D108A12320F8F705FD2068D2
:109C300005684168204600F079F8A84201D101206A
:109C400070BD002070BD00002E2E5C2E2E5C2E2ECE
:109C50005C2E2E5C2E2E5C2E2E5C636F6D706F6EF4
:109C6000656E74735C6C69627261726965735C7154
:109C7000756575655C6E72665F71756575652E6379
:109C80000000000010B5040004D104A140F29F10B0
:109C9000F8F7D2FC2068806810BD00002E2E5C2EE4
:109CA0002E5C2E2E5C2E2E5C2E2E5C2E2E5C636F78
:109CB0006D706F6E656E74735C6C696272617269EF
:109CC00065735C71756575655C6E72665F717565EF
:109CD00075652E630000000010B5040004D104A1D6
:109CE00040F2A510F8F7A8FC21680020886010BD9C
:109CF0002E2E5C2E2E5C2E2E5C2E2E5C2E2E5C2E9E
:109D00002E5C636F6D706F6E656E74735C6C6962F0
:109D10007261726965735C71756575655C6E72669A
:109D20005F71756575652E630000000070B50C46A7
:109D3000050003D105491020F8F77EFCA868A04271
:109D400001D9601C70BD002070BD0000189A000091
:109D500070B514460D46060004D110A14FF4B17041
:109D6000F8F76AFC25B90DA140F26310F8F764FC1E
:109D70004FF00000002C10D0F8F79CFB304600F0AC
:109D8000A3FD844200D3044622462946304600F013
:109D900068FD0020F8F7BCFB204670BD2E2E5C2E1F
:109DA0002E5C2E2E5C2E2E5C2E2E5C2E2E5C636F77
:109DB0006D706F6E656E74735C6C696272617269EE
:109DC00065735C71756575655C6E72665F717565EE
:109DD00075652E63000000002DE9F0410E46040079
:109DE0004FF0000803D12CA12E20F8F725FC1EB956
:109DF00029A12F20F8F720FC0020F8F75BFB204674
:109E0000FFF70EFF070009D0207C38B14FF004089F
:109E10000020F8F77DFB4046BDE8F08120684568EA
:109E200041682046FFF782FF2168486037B120680B
:109E300001682046FFF77AFF21680860E268012A7E
:109E400014D0022A16D0042A19D0082A1CD060681F
:109E5000314605FB0200F6F7E1FB204600F034FD39
:109E600021688A688242D3D28860D1E761683078FD
:109E70004855F2E76168308821F81500EDE7616820
:109E8000306841F82500E8E7D6E90001626802EB96
:109E9000C502C2E90001E0E72E2E5C2E2E5C2E2EBC
:109EA0005C2E2E5C2E2E5C2E2E5C636F6D706F6EA2
:109EB000656E74735C6C69627261726965735C7102
:109EC000756575655C6E72665F71756575652E6327
:109ED0000000000010B5040004D108A14FF4C270C6
:109EE000F8F7AAFB0020F8F7E5FA204600F0ECFCB2
:109EF00004460020F8F70CFB204610BD2E2E5C2EE9
:109F00002E5C2E2E5C2E2E5C2E2E5C2E2E5C636F15
:109F10006D706F6E656E74735C6C6962726172698C
:109F200065735C71756575655C6E72665F7175658C
:109F300075652E63000000002DE9F0411F461546AF
:109F40000E00044603D11D491520F8F775FB1DB915
:109F50001A491620F8F770FB37B1A068FBF7FEFF2F
:109F600010B11120BDE8F081A0686168D0E903C399
:109F7000ACEB0302481C824207D10020286017B1D5
:109F8000A068FBF7DDFF0020ECE70CEA010003EA24
:109F90000102904202D3091A491C01E0A3EB0C0113
:109FA0002B688B4200D21946296021680844306032
:109FB000A0682A68C1681144C160E4E78CD9000038
:109FC0002DE9F04117465FEA0108054603D1214912
:109FD0009C20F8F731FB1FB91E499D20F8F72CFB98
:109FE000A868001DFBF7BAFF10B11120BDE8F08191
:109FF000A868816800690C1A3868A04200D204463B
:10A000003C60AA6869681069926808400A40824208
:10A0100001D9161A01E00E1A761CB44208D9296833
:10A02000324608444146F6F7F9FAA41B0020B04432
:10A030002968224601444046F6F7F0FAA8683A68D3
:10A04000016911440161A868001DFBF779FF002038
:10A05000CCE700008CD900002DE9F04117465FEAFB
:10A060000108054603D11E494D20F8F7E5FA1FB94E
:10A070001B494E20F8F7E0FAA868FBF76FFF10B114
:10A080001120BDE8F081A86881680069081A696834
:10A090000C1A3868641CA04200D204463C60A868D0
:10A0A0006968806808400E1A761CB44208D929688D
:10A0B000324608444146F6F7B1FAA41B0020B044EA
:10A0C0002968224608444146F6F7A8FAA8683A6883
:10A0D000816811448160A868FBF732FF0020D0E757
:10A0E0008CD9000010B5826894681369E41AA14203
:10A0F00001D9042010BD1944116182685161806842
:10A10000001DFBF71DFF002010BD00002DE9F041F0
:10A110001E4614460F00054603D11D496D20F8F771
:10A120008BFA1CB91A496E20F8F786FA3EB1A86876
:10A13000001DFBF713FF10B11120BDE8F081A968E5
:10A1400088684969421A09D06B68194018408842EA
:10A150000DD9266896420AD9226010E000202060BE
:10A160001EB1A868001DFBF7EBFE0020E5E7884262
:10A1700005D8581A2268401C824200D920602868FD
:10A1800008443860A8682268416911444161ECE7DD
:10A190008CD9000082680021916082681161826818
:10A1A00051618268D1608268516080680160704747
:10A1B00038B58268456894681369E31AEB1A5B1C2A
:10A1C000994201D9042038BD6318936081686A46BA
:10A1D000CB6080680021F6F73AF908B1002038BD5D
:10A1E000082038BD0C4A10B502F1F0030EE0991AB0
:10A1F000C91001EBD171491002EBC1010C68844216
:10A2000001D90B4602E005D201F108029A42EED3D1
:10A21000002010BD486810BD48C6000000B5FFF71B
:10A22000E1FF002800D1014800BD000034C6000055
:10A230004058002800D00120704708B50022425045
:10A240004058009008BDD0F80403084000D0012019
:10A2500070474058002800D00120704708B5002200
:10A2600042504058009008BD70B50446000604F006
:10A270000F050E46092D04D30B4940F2AE40F8F706
:10A28000DBF9082D04D3084940F2AF40F8F7D4F9C0
:10A2900006480460BFF34F8F44EA06210160BFF314
:10A2A0006F8FBFF34F8F70BD008800000C750240A8
:10A2B00030B5050600F00F030E4C03EB830004EBF2
:10A2C00080000AD5082B03D30B480160001D09E06C
:10A2D000C0F80016C0F8042630BD082B04D3074888
:10A2E0000160001D026030BDC0F80017C0F80427EF
:10A2F00030BD000000700240A0760240A07702400E
:10A3000010B5044600F00F00092804D30BA140F259
:10A31000C240F8F791F921064FF0010004F00F0256
:10A3200000FA02F001D5134901E01249091D09683C
:10A33000014201D0012010BD002010BD2E2E5C2E48
:10A340002E5C2E2E5C2E2E5C2E2E5C2E2E5C636FD1
:10A350006D706F6E656E74735C647269766572732E
:10A360005F6E72665C68616C5C6E72665F7573626C
:10A37000642E68001075024000F00F0108290DD20C
:10A38000020607494FEA007001EB906002D5D0F851
:10A39000200401E0D0F84404012800D000207047D8
:10A3A0000070024070B50446000604D416A14FF4B4
:10A3B0005F70F8F741F904F00F00082804D312A1E8
:10A3C00040F27D30F8F738F9200704D10EA140F2B1
:10A3D0007E30F8F731F91C490020C8702046FAF7A2
:10A3E000EFFB817B0125032902D0006800280AD1F8
:10A3F0002046FAF7B1FB8540E943BDE870401248BA
:10A400000C30FBF7B1BD70BD2E2E5C2E2E5C2E2EB7
:10A410005C2E2E5C2E2E5C2E2E5C636F6D706F6E2C
:10A42000656E74735C647269766572735F6E726672
:10A430005C757362645C6E72665F6472765F75737E
:10A4400062642E630000000060010020F8B504463D
:10A45000000604D41B494FF46770F8F7EDF804F0D8
:10A460000F00082804D2174940F29D30F8F7E4F8AD
:10A47000154E0020F0702046FAF7A2FB817B0125E3
:10A48000032914D00068002810D12046FAF764FB95
:10A490008540E94306F10C00FBF766FD0B48806838
:10A4A00000908DF80240716868468847F8BD2046E4
:10A4B000FAF752FB8540E943BDE8F84002480C300A
:10A4C000FBF752BD90BA000060010020D0C200002E
:10A4D000F8B50446000604D520A14FF47870F8F7CB
:10A4E000ABF804F00F00082804D31CA140F2E130BF
:10A4F000F8F7A2F8200704D118A140F2E230F8F7EB
:10A500009BF8264E0020F0702046FAF759FB817B1D
:10A510000125032902D0006850B11AE02046FAF75D
:10A520001BFB85401D48E9430C30FBF71DFD10E087
:10A530002046FAF711FB85401848E9430C30FBF739
:10A5400013FD1748006900908DF802407168684655
:10A550008847BDE8F84001F0BBBA00002E2E5C2E03
:10A560002E5C2E2E5C2E2E5C2E2E5C2E2E5C636FAF
:10A570006D706F6E656E74735C647269766572730C
:10A580005F6E72665C757362645C6E72665F647245
:10A59000765F757362642E63000000006001002026
:10A5A000D0C2000070B50546000605F00F0402D5C4
:10A5B000092C09D301E0092C0BD30D4940F26A4064
:10A5C000F8F73AF8280604D5094940F26B40F8F745
:10A5D00033F8082C05D307480068C10300D50020D4
:10A5E00070BD054901EB8400D0F8A00470BD0000E7
:10A5F00000880000C07402400070024002494058C8
:10A60000002800D00120704700700240044908442F
:10A6100000210160BFF36F8FBFF34F8F70470000C1
:10A620000070024003490860BFF36F8FBFF34F8F84
:10A63000704700000074024002480068002800D003
:10A64000012070472C750240044908440121016033
:10A65000BFF36F8FBFF34F8F704700000070024051
:10A660002DE9F84317460C0005462BD0DFF8708023
:10A670004646D8F80000F8F7B5FF3844C7B230684E
:10A68000F8F7B0FFA968497B081AB0FBF7F0C6B22B
:10A690002046F8F7A7FFA968381AC7B2487CB0FB74
:10A6A000F6F206FB1202401C487482B123460DA24A
:10A6B00007212846FCF7B2F839462846BDE8F8439A
:10A6C000FAF7CCB9A96800204874BDE8F883009473
:10A6D00005A207212846D8F80030FCF79FF8EBE7E1
:10A6E000F4010020257300000D0A25732573000076
:10A6F00070B5034600791B4901EB40101968027FD1
:10A700004FF0FF30002AD1F80C25D1F81465D1F8AC
:10A710000855D1F8104504D0C1F80C05C1F814054E
:10A7200003E0C1F81405C1F80C051968C1F8080563
:10A73000C1F81005501C02D01046FEF746FA701CF6
:10A7400002D03046FEF741FA601C02D02046FEF7E8
:10A750003CFA681C04D02846BDE87040FEF735BAC4
:10A7600070BD0000F810002010B50C46C17949B149
:10A770001AB109A12046FEF779F82046BDE810403D
:10A78000FEF7B4B8007A0028F3D0044804A10268A8
:10A790002046FEF76BF8ECE70D0A00004C020020A3
:10A7A0002573000010B550B10B4901280FD00228C5
:10A7B0000FD0BDE8104009A15820F7F73DBFFDF7C5
:10A7C00087FE002807D1BDE81040F7F7EBBA00205C
:10A7D00000E00120087010BD000000202E2E5C2E2D
:10A7E0002E5C2E2E5C6D61696E2E630070B5044682
:10A7F000C0790D4600281CD1207A50B1A179A088DB
:10A80000FEF74EFB0B4951F820200BA12846FEF71E
:10A810002DF8A0880021FEF77BFD03460549A079AD
:10A82000143951F820202846BDE8704003A1FEF7F6
:10A830001DB870BD4C020020257300003C25733EFE
:10A840002025733A20000000EFF30580C005C00DFD
:10A8500001D001207047EFF3148040F30000401C4A
:10A8600070472DE9F04104460068174688460568A0
:10A870004068854201D8461B02E0A068461B761C52
:10A88000E2686068B74205FB02010CD87A43404693
:10A89000F5F7C4FEA168E819884200D900202168B4
:10A8A0000860BDE8F08102FB06F52A464046F5F750
:10A8B000B5FEE268BE1B724308EB05006168F5F760
:10A8C000ADFE20680660ECE701680A6849689142BD
:10A8D00001D3881A70478068801A0844401C70476A
:10A8E0002DE9F047164689460446FFF787F880466B
:10A8F0002068A168426840688F1A6168E2687F1C1E
:10A9000000FB0210BE420FD872434946F5F786FE9F
:10A9100020684168A2683144914202D841683144BC
:10A9200000E00021416018E002FB07F52A46494695
:10A93000F5F774FEE268F71B7A4309EB05016068DE
:10A94000F5F76CFE20684760B04506D22068416884
:10A950002046FFF7EBF9216808602046FFF7B4FFB7
:10A9600021688A68824200D28860BDE8F0870000D2
:10A9700070B5012670044FF0E0210025C1F8800178
:10A98000084C4010C4F84803C4F8080366602F2040
:10A99000FCF7CEFAA660044C2F20A560FCF7C8FA9D
:10A9A000A57070BD001001407401002070B505460F
:10A9B000C87D0C4600284FF4847128460AD0FFF762
:10A9C0003CFCD5F81805627EE1688854607E401C26
:10A9D000607670BDFFF731FCD5F8180570BD1FB566
:10A9E00001238DF800308DF808100192D0E9001293
:10A9F000684690471FBD10B5044600684FF4927139
:10AA0000FFF71BFC4FF484712068FFF716FC2068E9
:10AA10000121016010BD00007CB50546FF200190BA
:10AA2000012301AA6946E868FFF786FA040004D00A
:10AA30000BA11A20F7F700FE10E0019870B1C2B226
:10AA400068690099FCF712FE040007D1A8682A463D
:10AA500040F6CD410068F6F71FFD044620467CBD58
:10AA60002E2E5C2E2E5C2E2E5C2E2E5C2E2E5C2E20
:10AA70002E5C636F6D706F6E656E74735C6C696273
:10AA80007261726965735C636C695C756172745C38
:10AA90006E72665F636C695F756172742E6300002D
:10AAA000002070472DE9FC4708790C46012804D0A6
:10AAB000022805D0032878D169E012223C496EE0D3
:10AAC000B4F80700092800D9092080460926002784
:10AAD000F6F7ACFE054640F2492940F24A2A1AE050
:10AAE000686818B933A14846F7F7A6FD686840685A
:10AAF00018B930A15046F7F79FFD686801A9426870
:10AB00002846904701980644287A3844C7B2284618
:10AB1000F6F7F0FE0546002DE2D16846F7F710F98A
:10AB200000990546884504D922A140F25620F7F73E
:10AB300083FD1F49424612312846F5F76FFD2F71FC
:10AB40006E80F6F7FFFE18B1E87940F02000E8715A
:10AB5000F6F76CFE0146264880E82201B4F807109B
:10AB6000C1600020F7F7A6FC114980200839F7F7EB
:10AB700077F9040005D10E4980201039F7F746F81F
:10AB800004460020F7F7C4FC2046BDE8FC87E078C7
:10AB9000B4F80510F7F760FC010006D00A7802B09F
:10ABA000601CBDE8F047F7F79BB80620EDE7000012
:10ABB00000C200002E2E5C2E2E5C2E2E5C2E2E5CF3
:10ABC0002E2E5C2E2E5C636F6D706F6E656E7473CF
:10ABD0005C6C69627261726965735C757362645CF6
:10ABE0006170705F757362645F636F72652E63007E
:10ABF0006C10002038B50D466846F7F7A1F80446FA
:10AC00000098022804D20CA140F22120F7F714FD8D
:10AC1000002020802078174940F0010020704978FA
:10AC20004908C90702D040F00200207002222146E4
:10AC3000681CF7F755F838BD2E2E5C2E2E5C2E2E94
:10AC40005C2E2E5C2E2E5C2E2E5C636F6D706F6EF4
:10AC5000656E74735C6C69627261726965735C7550
:10AC60007362645C6170705F757362645F636F725E
:10AC7000652E630024010020F8B50C46060004D1BF
:10AC80003EA140F2CF20F7F7D7FC24B93BA14FF407
:10AC90003470F7F7D1FC607810F0600F2AD100060D
:10ACA000454AA0784FF0000526D520B1062808D0E7
:10ACB00008281FD10BE021463046BDE8F840FFF7D9
:10ACC00099BF21463046BDE8F840FFF7EBBE684625
:10ACD000F7F736F801461078052802D0042803D08B
:10ACE00008E00120087000E00D700122601CF6F7FA
:10ACF000F7FFF8BD0620F8BD0A28FBD2DFE800F018
:10AD0000051B0513050605050525F3E7107803283F
:10AD100003D0042801D005281CD1F6F71FFC04201D
:10AD200000F00AFE0FE0B4F803000128E2D15078E9
:10AD300040F0020006E0B4F803000128DAD15078B0
:10AD400020F0020050700020F8BD1078052803D0D4
:10AD5000042801D00820F8BDE07818B1012805D0FA
:10AD60000720F8BDF6F7FAFB042002E0F6F70EFC28
:10AD7000052000F0E1FD2846F8BD00002E2E5C2ED7
:10AD80002E5C2E2E5C2E2E5C2E2E5C2E2E5C636F87
:10AD90006D706F6E656E74735C6C696272617269FE
:10ADA00065735C757362645C6170705F7573626417
:10ADB0005F636F72652E630024010020F8B50446BE
:10ADC000407810F0600F27D16579A07820B1012874
:10ADD0001BD0032820D10DE06846F6F7B1FF0646E8
:10ADE0002846FDF7CDF8308002223146601CF6F788
:10ADF00077FFF8BD05F00F0008280DD2B4F8030066
:10AE000050B92846FDF7A2F80EE005F00F0008281B
:10AE100002D2B4F8030008B10620F8BD2846FCF7BA
:10AE20008BFF2846FDF7B4F80020F8BDF8B50C46B6
:10AE3000050004D1244940F27F10F7F7FDFB24B947
:10AE400021494FF4C070F7F7F7FB60784FF0060622
:10AE50000106C0F341102DD510B1012812D113E025
:10AE6000A178284606290DD100210091E2782179A8
:10AE70006B46F6F7B9FC010004D0601C009AF6F7A7
:10AE80002FFFF8BD0620F8BD2846F7F78FFCF7F72F
:10AE900031FCA178212903D1B4F80710072901D08A
:10AEA0003046F8BD072200F10C01601CBDE8F840F7
:10AEB000F6F716BF0028F3D00128E3D12146284633
:10AEC000BDE8F84000F046B82CD10000F8B50B46BC
:10AED00051780646144611F0600F25D11C4809062A
:10AEE000A17800781ED511B10A291DD109E00528E5
:10AEF0001ED16846F6F724FF014600200880022292
:10AF00000CE0052814D16846F6F71AFF05461946E5
:10AF10003046F7F703FA287001222946601CF6F73D
:10AF2000DFFEF8BD0B2901D00620F8BD052801D0B1
:10AF30000820F8BDB4F80300FF2801D90720F8BDA8
:10AF4000D27819463046BDE8F840F7F7B9B90000A5
:10AF50002401002030B585B00C460546F7F726FCE5
:10AF6000F7F7C8FBA178202902D0222930D12CE0A4
:10AF7000B4F8070007282BD12846F7F717FC054639
:10AF8000F7F7B8FBA1780170E179417000210191D8
:10AF90000291811C0091407801900020F7F78AFA15
:10AFA00069460020F6F7A8FF040008D1184803A955
:10AFB0000068CDE903050020F6F728FE04460020CE
:10AFC000F7F7A6FA204605B030BDB4F8071009B16E
:10AFD0000620F8E7017DB4F8032001F0010102F03A
:10AFE00001048282A14211D00CB1022100E00321B0
:10AFF000284600F006FF4CB92846F9F747FDFCF754
:10B0000069FE2846F9F74BFDFCF764FE0020DAE7FD
:10B01000B8C300000022CA604A60054A8A60052859
:10B0200003D2044A52F8200000E000200860704774
:10B0300038C70000140200202DE9F84FDFF898808F
:10B040008946054692461F4669461846D8F8086064
:10B05000F7F706FBB0B3009800210446801C09E016
:10B0600000EA06025AF821C008EB8202401C491C83
:10B07000C2F80CC0B942F3D3BA462F0CFEF7F6F86B
:10B08000B84204D815494FF49F70F7F7D5FA601C01
:10B09000304008EB8000344008EB8401C760E806CC
:10B0A00051F80C0F02D540F0040001E020F004003C
:10B0B00065F3C5006AF3891069F39F2020F003004F
:10B0C000401C086098F81C0402E000BFFDF700FF78
:10B0D0000028FBD1BDE8F88F2C160020E0DC000032
:10B0E00070B50C46050004D108A14FF4AA70F7F71B
:10B0F000A3FA24B905A140F25510F7F79DFA2146AD
:10B100002846BDE87040F5F7C2BA00002E2E5C2E2E
:10B110002E5C2E2E5C6D61696E2E630070B50C4640
:10B12000050004D108A14FF4F860F7F785FA24B9B7
:10B1300005A140F2C170F7F77FFA21682868BDE8E1
:10B140007040F5F7A4BA00002E2E5C2E2E5C2E2E39
:10B150005C2E2E5C2E2E5C2E2E5C636F6D706F6EDF
:10B16000656E74735C6C69627261726965735C634D
:10B170006C695C6E72665F636C692E630000000030
:10B1800070B50546F7F77CF9124C06462078F7F7BC
:10B1900077F986420AD02846F7F772F920B104F110
:10B1A0000C00FBF793FF01E0FBF74EFF2846F7F793
:10B1B00074F906462078F7F770F9864208D02846D9
:10B1C000F7F76BF910B1FCF78BFC01E0FDF7A2FA81
:10B1D000257070BD100100202DE9F04114460D00CE
:10B1E000064604D11BA140F22920F7F725FA24B91D
:10B1F00018A140F22A20F7F71FFA3046F9F764FB4E
:10B2000078B9B068FA21077A90F80A803046F9F7E1
:10B2100025FCFA213046F9F7A3FA3046F9F754FB3A
:10B2200010B10620BDE8F081B068007A2870B068DF
:10B23000807A20702878C01BC1B23046F9F702FB33
:10B240002178A1EB0800C1B23046F9F713FC0020C9
:10B25000E8E700002E2E5C2E2E5C2E2E5C2E2E5C3F
:10B260002E2E5C2E2E5C636F6D706F6E656E747328
:10B270005C6C69627261726965735C636C695C6E57
:10B2800072665F636C692E630000000009484178B4
:10B2900000290DD04268521C4260074841680329CA
:10B2A00006D30088132141EA004004A1FDF71EBF28
:10B2B000704700000000002038030020636F756EA7
:10B2C000746572203D2025640D0A000010B5044607
:10B2D0000020F5F75FFC20B16068D0E90021002074
:10B2E00090476068D0E9002101209047A06822467D
:10B2F0004FF4A4710068F6F7CFF8002805D0BDE838
:10B30000104002A11420F7F797B910BD2E2E5C2E25
:10B310002E5C2E2E5C2E2E5C2E2E5C2E2E5C636FF1
:10B320006D706F6E656E74735C6C69627261726968
:10B3300065735C636C695C7274745C6E72665F6387
:10B340006C695F7274742E63000000004069FCF742
:10B3500015BA00002DE9F84F1D4C00256846D4E9C8
:10B3600001A6F9F7D9FB002738B30023009A6168DA
:10B370001CE0D1F800C00846944503D9ACEB0202AA
:10B380000A6015E0A2EB0C0263440760D0F80CC021
:10B39000C1698146BCF1000F08D006EB030828F014
:10B3A0007F48C0E9018CC9F81C5005460029E0D14E
:10B3B00028466160FAF7B4F803E02846FAF7B0F8D7
:10B3C00010B15046F9F7F2F8E770BDE8F88F0000C9
:10B3D000740100200D4B10B5596831B102680C683A
:10B3E000A24204D8A21A0A60C161586010BD0B467F
:10B3F00003E00B46C969121B21B10C689442F8D3D3
:10B40000A41A0C600260C161D86110BD74010020F3
:10B410002DE9F041144E77683D462C4603E0844206
:10B4200004D02546E469002CF9D11BE0D4B1A54233
:10B430000BD1F869706040B90C4901208860002187
:10B44000B160F0702F20FBF773FD2168E069E861BF
:10B4500010B10268114401607068874202D0012077
:10B46000BDE8F0810020FBE77401002000100140DE
:10B47000F8B5064600240D462046F7F71BF8684647
:10B4800000F0D6FC68B10570084946609DF80000E0
:10B4900048700020F7F73CF81420F5F747FB2046EA
:10B4A000F8BD04240020F7F733F8F8E77013002004
:10B4B0002DE9F041194D6C68002C2CD0184800275C
:10B4C0000068A968B846401A20F07F462068B0425C
:10B4D0000CD82146361A0744E469087C20B181F86B
:10B4E0001080886949698847002CEFD129786878ED
:10B4F000814206D1401CC0B26870022801D185F893
:10B500000180064869780C3040F82170BDE8F041B0
:10B510001420F5F70BBBBDE8F0810000740100209A
:10B520000415014070B50C4605464FF48E71FEF7C8
:10B5300084FEA18AA068415CA08A401CA082C5F854
:10B540001C1570BD1FB500228DF800208DF8081065
:10B55000816801918275D0E90012684690471FBD4D
:10B560007CB5FF260546009600780C46002831D0B1
:10B57000012817D0022802D02AA165200FE0297ADD
:10B58000E068FEF715FE18B126A13920F7F754F848
:10B590002046FFF741FA002803D022A13B20F7F70D
:10B5A0004BF87CBD297AE068FEF702FE18B11DA1B8
:10B5B0004120F7F741F8287A20B16068D0E90021EE
:10B5C000002090472046FFF727FA0028E9D015A170
:10B5D0004D20E4E7297A2069FEF784FD18B111A116
:10B5E0005320F7F729F8009601236A4601A920693C
:10B5F000FEF78CFD18B10BA15620F7F71DF8009847
:10B6000048B1C2B260690199FCF778F918B105A197
:10B610005B20F7F711F86068D0E90021012090471E
:10B620007CBD00002E2E5C2E2E5C2E2E5C2E2E5C01
:10B630002E2E5C2E2E5C636F6D706F6E656E747354
:10B640005C6C69627261726965735C636C695C757C
:10B650006172745C6E72665F636C695F756172744F
:10B660002E6300002DE9FF470C4605464FF400719C
:10B67000FEF7E9FD01274FF40178002618B34FF4D7
:10B68000927949462846FEF7D3FDE0B1494628465F
:10B69000FEF7D3FDC5F80883A07E00B96F600220D5
:10B6A0008DF80000D5F88004C5F880040390E07D93
:10B6B0008DF80800E0680190E6752676D4E900125E
:10B6C0006846904727E004212846FEF7BCFD10B3EA
:10B6D0004FF484712846FEF7ABFDE0B121462846C1
:10B6E000FFF764F9E07D617E884214D1207E38B195
:10B6F000617EE268E0752069E0602676667607E0A4
:10B70000A07E00B96F60C5F80883E675617EE268C7
:10B710002046FFF764F94FF48E7841462846FEF73D
:10B7200087FD88B1A08AA17D884204D2214628469F
:10B73000FFF7F8FE08E041462846FEF77EFDA17DB2
:10B7400011B12046FFF7FEFE4FF4A278414628468D
:10B75000FEF76EFD002812D041462846FEF76DFD2B
:10B76000A07E00B12F60E07D002808D0E675617EE4
:10B77000E26804B02046BDE8F047FFF730B9BDE805
:10B78000FF872DE9FF410C464FF492770546394675
:10B79000FEF75FFD0026C0B139462846FEF75EFD84
:10B7A00002208DF80000D5F88004C5F880040390CD
:10B7B000D5F83C058DF80800E0680190E67526761E
:10B7C000D4E900126846904724E04FF48877394660
:10B7D0002846FEF73EFDE8B139462846FEF73EFD15
:10B7E000D5F83C05C1B2E07D884213D1207E60B11E
:10B7F000E268D5F8000220F02000C5F80002207EA3
:10B80000E0752069E060267601E0E675E268204692
:10B81000FFF7E5F84FF4A27739462846FEF719FD01
:10B8200068B139462846FEF719FDE07D38B1E67566
:10B83000D5F83C05E268C1B22046FFF7D0F84FF4D6
:10B84000907631462846FEF704FD00280FD0314699
:10B850002846FEF703FDA07D002808D0D5F84C054A
:10B8600004B0C1B22046BDE8F041FFF76BBEBDE8B1
:10B87000FF8100002DE9F05F8346DDE90A4A994621
:10B8800090460D460846012703E000BFB0FBF8F0E4
:10B890007F1C4045FAD2B94500D94F465FEACA70CD
:10B8A00012D18CB15FEA8A7002D5B9F1000F01D0D4
:10B8B000202607E0302605E031465846641EF6F79C
:10B8C000FFFE0CB1A742F7D35FF00106B9F1010FFB
:10B8D00002D9A9F1010903E0B5FBF6F0404502D316
:10B8E00006FB08F6F2E7DFF83C9000BFB5FBF6F088
:10B8F00000FB165519F800105846F6F7E1FEB6FBA6
:10B90000F8F6002EF2D15FEACA7009D0002C07D0F9
:10B91000A74205D220215846641EF6F7D1FEF5E76E
:10B92000BDE8F09F24C6000002480068002800D04F
:10B93000012070472C01002004490A78824203D07C
:10B9400008700348F6F7F2BA70470000240100209F
:10B95000ECC100002DE9F05F0746486890464FF0C3
:10B9600001090C4698B1B8F1400F04D92BA14FF44E
:10B97000A970F6F761FEFCF72FFC0026FCF72CFC03
:10B98000E56883464046454537D9054635E04FF0E2
:10B990000009C7F80090C7F8049033E0A068C0B170
:10B9A000A84200D9284682460BEB06005246616841
:10B9B000F4F734FEA168A5EB0A05A1EB0A00A0602C
:10B9C000E1685644A1EB0A00E060616801EB0A00FF
:10B9D0006060E06810B1A06878B902E04FF000093B
:10B9E0000BE0206888B141684A6804F1080190477B
:10B9F00060602068F5F77EFF2060002DCED100BF8B
:10BA0000C7E900B64846BDE8F09F00206060002E00
:10BA1000F6D04645F4D28146F2E700002E2E5C2E89
:10BA20002E5C2E2E5C2E2E5C2E2E5C2E2E5C636FDA
:10BA30006D706F6E656E74735C6C69627261726951
:10BA400065735C757362645C6170705F757362646A
:10BA50005F636F72652E630070B50446010600F0E7
:10BA60000F0502D5092D09D301E0092D08D308A13E
:10BA700040F28B20F6F7E0FD200601D5042000E01F
:10BA8000282000EB8500BDE87040FEF7DDBD00001A
:10BA90002E2E5C2E2E5C2E2E5C2E2E5C2E2E5C2EE0
:10BAA0002E5C636F6D706F6E656E74735C6472692B
:10BAB000766572735F6E72665C757362645C6E72DB
:10BAC000665F6472765F757362642E6300000000C7
:10BAD0002DE9F04F5E4D89B0E878002850D18146BD
:10BAE0004FF0010A48E000BF90FAA0F0B0FA80F0F1
:10BAF0008046F6F7ACFD0646F9F762F804460068A2
:10BB000020B954A140F21D50F6F796FD300612D52B
:10BB1000D4E90031A28902A89847002843D1C4F88B
:10BB20000090802E3FD15B48D0F8001241F0040114
:10BB3000C0F8001237E03046FCF72AFBD4E9007168
:10BB400083460346A28902A8B84707460298D0B1A7
:10BB5000039959451DD20220A0730AFA08F0C14387
:10BB60003B480C30FAF700FA4B48006B00908DF818
:10BB70000260696868468847D5E902100840B3D179
:10BB800009B0BDE8F08F039850B132A14FF4A8601E
:10BB900004E0594504D02FA140F24F50F6F74CFD78
:10BBA0000FB9C4F8009085F803A0A9680AFA08F054
:10BBB0008143A960A06803990844A060DDE90212EE
:10BBC0003046FEF775FBFCF7EBFA80B34FF4827456
:10BBD0002046FEF71BFD3046FFF73EFF0220FBF735
:10BBE000C3FC2046FEF70AFD0028F1D01E20FBF71B
:10BBF000BBFC2A4D02E00220FBF7B6FC2868800659
:10BC0000F9D50120FBF7B0FC300606F00F0002D595
:10BC1000092809D301E009280AD3214940F2651017
:10BC2000F6F70AFD300603D51B499C3102E00AE015
:10BC30001949AE3106F00F0031F81000FEF7DEFCB6
:10BC40000028C5D09CE73046FFF706FF98E70000C4
:10BC5000600100202E2E5C2E2E5C2E2E5C2E2E5C83
:10BC60002E2E5C2E2E5C636F6D706F6E656E74731E
:10BC70005C647269766572735F6E72665C7573621E
:10BC8000645C6E72665F6472765F757362642E6365
:10BC90000000000000700240D0C200007474024036
:10BCA00090BA00002DE9F84307460020F6F702FCA1
:10BCB0003846F8F785FF06463806294D4FF000084C
:10BCC0004FF003094FF0010438461ED4F8F744FF43
:10BCD000E96804FA00F0884303D03846FCF724FDF5
:10BCE00010E03846C6F80080F8F736FFE96804FA35
:10BCF00000F081433846E960F8F72EFF8440A868D9
:10BD0000A043A86086F80E9024E0F8F725FFD5E957
:10BD1000022104FA00F061EA020108421AD0384612
:10BD2000F8F71AFFE96804FA00F081433846E96041
:10BD3000F8F712FF8440A8680443AC600948C6F8CD
:10BD4000008086F80E90006800908DF80270696897
:10BD500068468847BDE8F8430020F6F7D9BB0000E5
:10BD600060010020D0C200002DE9F0410D4EB06806
:10BD7000040CF0682404044301270BE094FAA4F0B7
:10BD8000B0FA80F52846F6F762FCFFF78BFF07FA5A
:10BD900005F08443002CF1D140F2FF10B060BDE803
:10BDA000F081000060010020012238B58A400C4972
:10BDB0000C468B6813438B606168E468094B050689
:10BDC00002EA040203D5002A09D19A6902E0002A96
:10BDD00005D1DA6900928DF802006846884738BDBF
:10BDE00060010020D0C2000002498020C1F800029A
:10BDF0007047000004E000E00A2801D1F5F7A8BF71
:10BE0000704770B50C460546F6F7D0FCC269002AAB
:10BE100004D021462846BDE87040104770BD0000A0
:10BE200002494968002900D00847704720100020C7
:10BE30000A494A788B78521CD2B2934200D1002230
:10BE40000B78934201D1002070470270487800EBD4
:10BE5000400001EBC000001D70470000701300207F
:10BE60001CB5002913D08268127C8A420FD008A327
:10BE7000D3E90023CDE9002301F12F028DF803203F
:10BE80008268117400696A4603A1FCF7EFFC1CBDCF
:10BE90001B5B34006D000000257300001CB5826838
:10BEA00099B1D27B8A420FD00CA2D2E90032CDE9FF
:10BEB000003201F12F028DF805208268D1730069EC
:10BEC0006A4608A1FCF7D2FC1CBDD173006902B020
:10BED000054ABDE8104003A1FCF7C8BC1B5B313B21
:10BEE00033006D0025730000DCC30000E8C50000CE
:10BEF000980000208C070020780700200400000034
:10BF00000400000001000000A8000020A0000020A4
:10BF1000A80000209807002030000000A5A700001E
:10BF20008403002074CC0000ECBE00003806002022
:10BF3000200000200800002008BF00000D000000C5
:10BF400080CC0000D4BF0000C409002050000020B5
:10BF50003800002000C000000D00000090CC000060
:10BF600018C00000B00C00208000002068000020F5
:10BF700038C000000A0000002D1F0000F9BD0000BD
:10BF800000000000FFFFFFFFFFFFFFFFFFFFFFFFBD
:10BF9000FFFFFFFF00000000000000000000D601CE
:10BFA00007010000BCCC0000B8CC00009CCC000015
:10BFB00044030020180900203F0000005809002019
:10BFC000700900200F0000008009002000200040C0
:10BFD0000000000010C6000098090020B0BF00005B
:10BFE000C0BF0000B4BF0000CCBF0000180B002091
:10BFF000040B002004000000040000000100000009
:10C00000B8000020B0000020B8000020240B002061
:10C010003000000064030020FCC50000A40C0020D8
:10C0200014C00000040E0020F00D002004000000E9
:10C030000400000001000000C8000020C000002033
:10C04000C8000020100E002030000000E8CC0000E6
:10C05000C4CC0000000000005543000000000000B8
:10C0600064C0000034CD000014CD000000000000CA
:10C070007544000038CD0000F0CC00000000000046
:10C08000B1440000000000000000000000000000BB
:10C090000000000040CD000040CD00005CC000006A
:10C0A000C143000048CD000048CD00000000000062
:10C0B000E944000000000000BCC00000A0CD00006A
:10C0C00068CD000000000000213D0000A8CD000068
:10C0D00080CD000000000000593D000098CD000018
:10C0E00050CD000000000000913D00000000000065
:10C0F000000000000000000000000000D4CD00009F
:10C10000B0CD0000B4C00000213C000001000000E0
:10C11000B14A0000000000001CC100002CCF00004C
:10C1200004CE0000000000003D3E000030CF0000C3
:10C13000DCCD00000CC10000D93F000038CF00006A
:10C14000F0CD00000CC10000A540000040CF000071
:10C1500008CF00000000000099410000000000002E
:10C160000000000000000000000000006CCF000094
:10C1700048CF000014C10000C93D000000000000CD
:10C1800084C10000B4CF000098CF00000000000080
:10C19000E9940000ACCF000074CF00000000000064
:10C1A000E595000000000000000000000000000015
:10C1B00000000000D8CF0000BCCF00007CC1000010
:10C1C000C997000080000000078100008200000085
:10C1D0008300000084090A03070000000800000033
:10C1E0002D1F000000000000000000000B000000F8
:10C1F000A1AA00000000000055B900006C1000204A
:10C20000120100020000004015190F520001010246
:10C21000030109020000000100C0FA00911A0000A9
:10C22000000000000000000000000000000000000E
:10C23000340100201CC20000010002030080000045
:10C24000040309002A034E006F00720064006900B5
:10C2500063002000530065006D00690063006F00FB
:10C260006E0064007500630074006F0072002603A6
:10C270006E00520046003500320020005500530089
:10C2800042002000430044004300200044006500B9
:10C290006D006F001A0330003000300030003000B5
:10C2A00030003000300030003000300030000E032D
:10C2B0005500730065007200200031000001020388
:10C2C00004000000000000500003005000000000C7
:10C2D0000600000301000000060000000600000048
:10C2E0000600000006000000060000000600000135
:10C2F0000500000002000000030000000400000030
:10C3000006000002D54F0000DD4E00005D4C00002D
:10C31000954C00009B4C0000A14C0000A74C000075
:10C32000AD4C0000B34C0000B94C0000F94D0000CA
:10C33000BF4C0000C54C0000214D0000274D0000FF
:10C340002D4D0000334D0000394D00003F4D0000E1
:10C35000454D00004D4D0000A14E0000114F000062
:10C36000154E0000994D0000594C000008010C01C9
:10C370001001140118011C01200124012C013001BD
:10C38000340138013C014001440148014C01500195
:10C3900002030405060708090B0C0D0E0F101112FD
:10C3A0001314000019270000C5270000000000003A
:10C3B0000000000000000000E9270000000000006D
:10C3C000000000000A000000000000001B37001BF6
:10C3D00038001B45002C20001B5B4A001B5B6D00D6
:10C3E000082008001B5B4B00202D20001B5B480031
:10C3F0001B5B366E001B5B324A001B5B3F336C00DD
:10C4000020756E6B6E6F776E20706172616D6574F2
:10C4100065723A20003A20636F6D6D616E64206E24
:10C420006F7420666F756E64002D682C202D2D684A
:10C43000656C70004F8E0000338E0000318E00005E
:10C44000A4D6000094D6000000000000DD610000CA
:10C450000000000058C40000DCD60000C4D6000074
:10C460000000000079640000E0D60000ACD60000B7
:10C4700000000000A36400000000000000000000B5
:10C480000000000000000000FCD60000E4D6000020
:10C4900050C40000C563000000000000A0C40000FC
:10C4A000DCD6000030D7000000000000516500001D
:10C4B000E0D6000004D70000000000007B6500000B
:10C4C000000000000000000000000000000000006C
:10C4D00074D7000060D7000098C40000CD6400004D
:10C4E00090D700007CD7000000000000A565000088
:10C4F00000000000F8C40000E0D7000098D700005A
:10C500000000000091670000000000000000000033
:10C51000000000000000000084D80000E8D7000000
:10C52000F0C400007D6600000000000030C500007F
:10C53000D8D800008CD8000000000000096300007B
:10C54000A0CD0000B0D800000000000095630000FE
:10C5500000000000000000000000000000000000DB
:10C56000ECD80000DCD8000028C50000B162000053
:10C57000080B00020202010009040000010202018E
:10C580000005240010010524010301042402020512
:10C59000240600010705820340001009040100027F
:10C5A0000A00000007058102400000070501024063
:10C5B000000000007C140020A4C30000020001065B
:10C5C000010204828101000070C5000042000000E9
:10C5D00015280000201500209C1400208000000079
:10C5E0000100000000000000512C0000912C000010
:10C5F000452C0000952C0000652C000099320000AD
:10C6000015330000413200001D330000B13200003C
:10C61000C1390000753A0000553900008D3A00001C
:10C620000D3A000030313233343536373839414233
:10C6300043444546556E6B6E6F776E206572726F20
:10C640007220636F6465000000000000B0DC000031
:10C650000100000070DB000002000000F0D90000C3
:10C6600003000000E4DB00000400000038DC0000F0
:10C670000500000030DB000006000000D0DA0000FA
:10C680000700000020DC00000800000044DB000080
:10C690000900000090DB00000A00000098DC0000A8
:10C6A0000B000000D8D900000C0000005CDB00008B
:10C6B0000D000000BCDC00000E00000010DC0000DB
:10C6C0000F0000004CDC00001000000080DC0000C7
:10C6D00011000000D0DC00008000000010DB000032
:10C6E0008100000094DA00008200000054DA0000AB
:10C6F0008300000034DA00008400000070DA0000DB
:10C7000085000000E8DA000086000000F8DB000089
:10C7100090000000B0DA00009100000014DA000080
:10C720000082000060DC000001820000ACDB000041
:10C7300002820000C8DB000001000000D55E00009E
:10C740003002002028020020300200206C1500205A
:10C75000180000000100000015B0000000000000FB
:10C7600064C7000040DE0000CCDD000038C70000D8
:10C770007156000038DE000048DD000054C700009C
:10C780007156000068DE000048DE00000000000076
:10C790004958000084DE000058DE00000000000060
:10C7A000515800007CDE00006CDE0000000000003C
:10C7B000FD58000000000000000000000000000024
:10C7C000000000008CDE000090DE00005CC700006E
:10C7D0001956000000404040404040404040414128
:10C7E0004141414040404040404040404040404046
:10C7F00040404040400502020202020202020202E0
:10C8000002020202022020202020202020202002DC
:10C81000020202020202909090909090101010106C
:10C820001010101010101010101010101010101008
:10C83000020202020202888888888888080808089C
:10C840000808080808080808080808080808080868
:10C850000202020240000000D5C700000D0A20209D
:10C86000202020202020202020202E636F3A2E2000
:10C8700020202020202020202020202020202020B8
:10C88000202027786F2C20202020202020202020EE
:10C890000D0A2020202020202020202E2C636F6CC9
:10C8A0006C6C6C632C2E2020202020202020202047
:10C8B00020202027636B4F4F6F3A3A2C2E2E2020DA
:10C8C000202020200D0A2020202020202E3A6F6FCB
:10C8D0006F6F6F6C6C6C6C6C6C6C6C3A272E2020DC
:10C8E0002020202E3B644F4F4F4F4F4F6F3A3A3A24
:10C8F0003B3B3B272E2020200D0A202020276F6B5A
:10C900007864646F6F6F6F6C6C6C6C6C6C6C6C6C5F
:10C910006C6C6C3B27636B4F4F4F4F4F4F4F4F4FDC
:10C920006F3A3A3A3B3B3B2C2C2C27200D0A202017
:10C93000204F4F4F6B78646F6F6F6F6C6C6C6C6CCB
:10C940006C6C6C6C6C6C6C6C6C6C6C64784F4F4F7A
:10C950004F4F4F4F6F3A3A3A3B3B3B2C2C2C272EF4
:10C960000D0A2020204F4F4F4F4F4F6B646F6F6C5D
:10C970006C6C6C6C6C6C6C6C6C6C6C6C6C6C6C6CF7
:10C980006C6C6C64784F4F4F6F3A3A3A3B3B3B2CA0
:10C990002C2C272E0D0A2020204F4F4F4F4F4F4F4A
:10C9A0004F4F6B786F6C6C6C6C6C6C6C6C6C6C6CF3
:10C9B0006C6C6C6C6C6C6C6363636C646C3A3A3A70
:10C9C0003B3B3B2C2C2C272E0D0A2020204F4F4F79
:10C9D0004F4F4F4F4F4F4F4F4F4F78646F6C6C6CB2
:10C9E0006C6C6C6C6C6C6C6C6C6C6C6363636363B4
:10C9F0003A3A3A3A3B3B3B2C2C2C272E0D0A20206E
:10CA0000204F4F4F4F4F4F4F4F4F4F4F4F4F4F4F65
:10CA10004F6B78646C6C6C6C6C6C6C6C6C6C6C6379
:10CA2000636363633A3A3A3A3B3B3B2C2C2C272E08
:10CA30000D0A2020206B4F4F4F4F4F4F4F4F4F4FFE
:10CA40004F4F4F4F4F4F4F4F4F6B646F6C6C6C6C31
:10CA50006C6C6C63636363633A3A3A3A3B3B3B2CDE
:10CA60002C2C272E0D0A2020206B4F4F4F4F4F4F5D
:10CA70004F4F4F4F4F4F4F4F4F4F4F4F4F4F4F4FC6
:10CA80004F78646C6C6C6C63636363633A3A3A3AF4
:10CA90003B3B3B2C2C2C272E0D0A2020206B4F4F8C
:10CAA0004F4F4F4F4F4F4F4F4F4F4F4F4F4F4F4F96
:10CAB0004F4F4F4F4F4F4F4F6B786F6C63636363B4
:10CAC0003A3A3A3A3B3B3B2C2C2C272E0D0A20209D
:10CAD000206B4F4F4F4F4F4F4F4F4F4F4F4F4F4F79
:10CAE0004F4F4F4F4F4F4F4F4F4F4F4F4F4F4F4F56
:10CAF0006B646C633A3A3A3A3B3B3B2C2C2C272E26
:10CB00000D0A202020784F4F4F4F4F4F4F4F4F4F20
:10CB10004F78646B4F4F4F4F4F4F4F4F4F4F4F4FCB
:10CB20004F4F4F4F4F4F4F4F786F633A3B3B3B2C2C
:10CB30002C2C272E0D0A202020784F4F4F4F4F4F7F
:10CB40004F4F4F4F4F64633A3A6C646B4F4F4F4FA8
:10CB50004F4F4F4F4F4F4F4F4F4F4F4F4F4F4F6BC9
:10CB600064633B2C2C2C27270D0A202020784F4F64
:10CB70004F4F4F4F4F4F4F4F4F64633A3A3B3B2C11
:10CB80003B63646B4F4F4F4F4F4F4F4F4F4F4F4F84
:10CB90004F4F4F4F4F4F4F786C3B27270D0A2020A8
:10CBA000202E6C6B4F4F4F4F4F4F4F4F4F64633A98
:10CBB0003A3B3B2C2C27272E2E3B6F4F4F4F4F4F8E
:10CBC0004F4F4F4F4F4F4F4F4F4F4F4F4F4F782774
:10CBD0000D0A2020202020202E3B6F4F4F4F4F4F1B
:10CBE0004F64633A3A3B3B2C2E202020202020200B
:10CBF0002E3A784F4F4F4F4F4F4F4F4F4F4F4F643D
:10CC00003B2E20200D0A2020202020202020202024
:10CC10002E3A784F4F64633A2C2E2020202020207B
:10CC2000202020202020202027636B4F4F4F4F6B68
:10CC30006C272020202020200D0A202020202020CA
:10CC4000202020202020202E6F642720202020203C
:10CC500020202020202020202020202020202027CD
:10CC6000786B2C2020202020202020200D0A0D0A67
:10CC7000000000007573625F636C693A7E242000D7
:10CC8000756172745F636C693A7E24200000000055
:10CC90007274745F636C693A7E24200064756D6DF4
:10CCA00079206F7074696F6E2068656C7020737482
:10CCB00072696E67000000002D7400002D2D7465F0
:10CCC000737400005072696E74204E6F72646963F1
:10CCD0002053656D69636F6E647563746F72206C49
:10CCE0006F676F2E000000006E6F72646963000052
:10CCF0005072696E74206561636820706172616D45
:10CD00006574657220696E206E6577206C696E654A
:10CD10002E0000005072696E7420616C6C20656E8C
:10CD2000746572656420706172616D65746572739B
:10CD30002E000000616C6C00706172616D0000007B
:10CD40007072696E74000000707974686F6E000014
:10CD500053746F70207365636F6E647320636F75B7
:10CD60006E7465722E0000005265736574207365E1
:10CD7000636F6E647320636F756E7465722E00004E
:10CD80005374617274207365636F6E647320636F94
:10CD9000756E7465722E000073746F700000000071
:10CDA0007265736574000000737461727400000032
:10CDB000446973706C6179207365636F6E6473206E
:10CDC0006F6E207465726D696E616C20736372653D
:10CDD000656E0000636F756E7465720045786563FB
:10CDE000757465206120636F6D6D616E642E000047
:10CDF00052656D6F7665206120636F6D6D616E6445
:10CE00002E0000004164642061206E657720647903
:10CE10006E616D696320636F6D6D616E642E0A458E
:10CE200078616D706C652075736167653A205B2071
:10CE300064796E616D6963206164642074657374E4
:10CE4000205D2077696C6C206164642061206479C6
:10CE50006E616D696320636F6D6D616E6420277410
:10CE6000657374272E0A496E20746869732065788B
:10CE7000616D706C652C20636F6D6D616E64206EEA
:10CE8000616D65206C656E677468206973206C69DC
:10CE90006D6974656420746F203332206368617239
:10CEA000732E20596F752063616E20616464207554
:10CEB0007020746F20323020636F6D6D616E64730B
:10CEC0002E20436F6D6D616E647320617265206109
:10CED00075746F6D61746963616C6C7920736F72C6
:10CEE00074656420746F20656E7375726520636F5E
:10CEF000727265637420434C4920636F6D706C657A
:10CF000074696F6E2E00000053686F7720616C6C3F
:10CF10002061646465642064796E616D6963206377
:10CF20006F6D6D616E64732E0000000061646400BB
:10CF3000657865637574650072656D6F7665000070
:10CF400073686F770000000044656D6F6E737472D4
:10CF50006174652064796E616D696320636F6D6DC6
:10CF6000616E642075736167652E000064796E617F
:10CF70006D6963005072696E7420696E666F726DC0
:10CF80006174696F6E2061626F7574204D50552019
:10CF900073746174652E000044756D70204D50559A
:10CFA000207265676973746572732E00696E666FAF
:10CFB0000000000064756D7000000000436F6D6D2F
:10CFC000616E647320666F72204D5055206D616EE6
:10CFD0006167656D656E74006D7075002D2D2F2D68
:10CFE0002D000000574257412F2D2D0057422F2D65
:10CFF0002D00000057542F2D2D0000002D2D2F57F0
:10D0000042574100574257412F57425741000000B5
:10D0100057422F574257410057542F57425741000C
:10D020002D2D2F5742000000574257412F574200E5
:10D0300057422F574200000057542F57420000001C
:10D040002D2D2F5754000000574257412F575400A1
:10D0500057422F575400000057542F5754000000D8
:10D060002E2E5C2E2E5C2E2E5C2E2E5C2E2E5C2EFA
:10D070002E5C636F6D706F6E656E74735C6C69624D
:10D080007261726965735C757362645C6170705F14
:10D09000757362645F636C6173735F626173652E45
:10D0A000680000002E2E5C2E2E5C2E2E5C2E2E5C38
:10D0B0002E2E5C2E2E5C636F6D706F6E656E7473BA
:10D0C0005C647269766572735F6E72665C636F6DC5
:10D0D0006D6F6E5C6E72665F6472765F636F6D6DAE
:10D0E0006F6E2E63000000002E2E5C2E2E5C2E2E06
:10D0F0005C2E2E5C2E2E5C2E2E5C636F6D706F6E20
:10D10000656E74735C647269766572735F6E726665
:10D110005C7379737469636B5C6E72665F6472765C
:10D120005F7379737469636B2E6300002E2E5C2E1F
:10D130002E5C2E2E5C2E2E5C2E2E5C2E2E5C636FB3
:10D140006D706F6E656E74735C6C6962726172692A
:10D1500065735C757362645C636C6173735C636458
:10D16000635C61636D5C6170705F757362645F6363
:10D1700064635F61636D2E6300000000446174614D
:10D1800020627573206572726F72202872657475E3
:10D19000726E206164647265737320696E207468B6
:10D1A0006520737461636B206672616D65206973BD
:10D1B000206E6F742072656C6174656420746F20DA
:10D1C00074686520696E737472756374696F6E201C
:10D1D0007468617420636175736564207468652088
:10D1E0006572726F72290000446174612062757308
:10D1F000206572726F72202850432076616C7565CD
:10D2000020737461636B656420666F722074686557
:10D2100020657863657074696F6E207265747572CD
:10D220006E20706F696E747320746F20746865204F
:10D23000696E737472756374696F6E20746861745B
:10D240002063617573656420746865206661756C20
:10D250007429000043617573653A20427573466115
:10D26000756C74206F6E206120766563746F722018
:10D270007461626C65207265616420647572696EA8
:10D280006720657863657074696F6E2070726F6374
:10D29000657373696E672E005468652070726F63E2
:10D2A0006573736F72206861732065786563757448
:10D2B000656420616E2053444956206F72205544A6
:10D2C000495620696E737472756374696F6E207746
:10D2D00069746820612064697669736F72206F6673
:10D2E000203000005468652070726F636573736F3F
:10D2F000722068617320617474656D707465642058
:10D30000746F206578656375746520616E20696E41
:10D31000737472756374696F6E2074686174206DC4
:10D32000616B657320696C6C6567616C20757365F2
:10D33000206F66207468652045505352000000003D
:10D340005468652070726F636573736F72206861D3
:10D350007320617474656D7074656420616E2069FA
:10D360006C6C6567616C206C6F6164206F66204532
:10D3700058435F52455455524E20746F207468656F
:10D380002050432C206173206120726573756C748A
:10D39000206F6620616E20696E76616C696420631F
:10D3A0006F6E746578742C206F7220616E20696EC8
:10D3B00076616C6964204558435F52455455524E1E
:10D3C0002076616C756500005468652070726F632B
:10D3D0006573736F7220617474656D707465642019
:10D3E00061206C6F6164206F722073746F726520AE
:10D3F00061742061206C6F636174696F6E20746862
:10D40000617420646F6573206E6F74207065726D37
:10D41000697420746865206F7065726174696F6EDD
:10D420000000000041204D656D4D616E6167652013
:10D430006661756C74206F636375727265642064D5
:10D440007572696E6720666C6F6174696E672D70A6
:10D450006F696E74206C617A7920737461746520D1
:10D46000707265736572766174696F6E000000009A
:10D470004120627573206661756C74206F636375FB
:10D480007272656420647572696E6720666C6F6184
:10D4900074696E672D706F696E74206C617A792083
:10D4A00073746174652070726573657276617469F6
:10D4B0006F6E00005468652070726F636573736FE0
:10D4C000722068617320617474656D707465642086
:10D4D000746F206578656375746520616E20756E64
:10D4E000646566696E656420696E737472756374D1
:10D4F000696F6E00496E737472756374696F6E2024
:10D50000627573206572726F720000005468652046
:10D5100070726F636573736F7220686173206174DA
:10D5200074656D7074656420746F206163636573E6
:10D5300073206120636F70726F636573736F720025
:10D54000556E737461636B20666F7220616E206527
:10D550007863657074696F6E2072657475726E2081
:10D5600068617320636175736564206F6E65206FF9
:10D5700072206D6F726520616363657373207669D5
:10D580006F6C6174696F6E730000000053746163A7
:10D590006B696E6720666F7220616E2065786365C7
:10D5A0007074696F6E20656E747279206861732083
:10D5B000636175736564206F6E65206F72206D6F97
:10D5C0007265206163636573732076696F6C617443
:10D5D000696F6E73000000005468652070726F639D
:10D5E0006573736F7220686173206D61646520617B
:10D5F0006E20756E616C69676E6564206D656D6F18
:10D60000727920616363657373000000556E7374F3
:10D6100061636B20666F7220616E20657863657050
:10D6200074696F6E2072657475726E206861732004
:10D63000636175736564206F6E65206F72206D6F16
:10D640007265204275734661756C7473000000004A
:10D65000537461636B696E6720666F7220616E2020
:10D66000657863657074696F6E20656E7472792079
:10D6700068617320636175736564206F6E65206FE8
:10D6800072206D6F7265204275734661756C74739C
:10D6900000000000436C6561722073637265656E03
:10D6A0002E000000636C656172000000456E6162CF
:10D6B0006C6520636F6C6F7265642073796E746142
:10D6C000782E000044697361626C6520636F6C6F33
:10D6D0007265642073796E7461782E006F666600DF
:10D6E0006F6E0000546F67676C6520636F6C6F72BC
:10D6F00065642073796E7461782E0000636F6C6FBF
:10D7000072730000456E61626C6520434C49206570
:10D7100063686F2E2045736361706520636F646575
:10D7200073206172652068616E646C65642E000010
:10D7300044697361626C6520434C49206563686F7E
:10D740002E2045736361706520636F64657320618B
:10D750007265206E6F742068616E646C65642E0063
:10D76000546F67676C6520434C49206563686F2E72
:10D77000000000006563686F00000000436F6D6D7E
:10D78000616E6420686973746F72792E0000000006
:10D79000686973746F727900417373756D652038B1
:10D7A000302063686172732073637265656E2077E1
:10D7B0006964746820616E642073656E64207468A7
:10D7C00069732073657474696E677320746F207455
:10D7D0006865207465726D696E616C2E00000000D2
:10D7E00064656661756C7400436F6E736F6C652061
:10D7F00067657473207465726D696E616C20736304
:10D800007265656E2073697A65206F72206173732B
:10D81000756D657320383020696E206361736520F3
:10D82000726561646F7574206661696C732E20493E
:10D8300074206D75737420626520657865637574F6
:10D840006564206166746572206561636820746533
:10D85000726D696E616C20776964746820636861B9
:10D860006E676520746F20656E7375726520636FD7
:10D870007272656374207465787420646973706C67
:10D8800061792E00726573697A65000047657420BE
:10D89000434C4920737461746973746963732066BF
:10D8A0006F72204C4F47206D6F64756C652E0000C1
:10D8B000526573657420434C4920737461746973B5
:10D8C0007469637320666F72204C4F47206D6F64DC
:10D8D000756C652E0000000067657400434C49209C
:10D8E000737461746973746963732E00636C695F28
:10D8F0007374617473000000202000002E2E5C2ED3
:10D900002E5C2E2E5C2E2E5C2E2E5C2E2E5C636FDB
:10D910006D706F6E656E74735C6C69627261726952
:10D9200065735C636C695C6364635F61636D5C6EAB
:10D9300072665F636C695F6364635F61636D2E63CE
:10D94000000000002E2E5C2E2E5C2E2E5C2E2E5CF7
:10D950002E2E5C2E2E5C636F6D706F6E656E747311
:10D960005C6C69627261726965735C65787065721E
:10D97000696D656E74616C5F6D656D6F626A5C6E1A
:10D9800072665F6D656D6F626A2E63002E2E5C2E6F
:10D990002E5C2E2E5C2E2E5C2E2E5C2E2E5C636F4B
:10D9A0006D706F6E656E74735C6C696272617269C2
:10D9B00065735C6578706572696D656E74616C5FC6
:10D9C00072696E676275665C6E72665F72696E67B9
:10D9D0006275662E630000004E52465F4552524FFC
:10D9E000525F494E56414C49445F44415441000006
:10D9F0004E52465F4552524F525F534F4654444534
:10DA0000564943455F4E4F545F454E41424C454455
:10DA1000000000004E52465F4552524F525F46454D
:10DA200041545552455F4E4F545F454E41424C451F
:10DA3000440000004E52465F4552524F525F4D55D2
:10DA40005445585F554E4C4F434B5F4641494C45FA
:10DA5000440000004E52465F4552524F525F4D55B2
:10DA60005445585F4C4F434B5F4641494C45440039
:10DA70004E52465F4552524F525F4D555445585F86
:10DA8000434F4E445F494E49545F4641494C4544DB
:10DA9000000000004E52465F4552524F525F4D55B6
:10DAA0005445585F494E49545F4641494C454400EE
:10DAB0004E52465F4552524F525F4150495F4E4F62
:10DAC000545F494D504C454D454E5445440000006F
:10DAD0004E52465F4552524F525F4E4F545F535520
:10DAE00050504F52544544004E52465F4552524F9B
:10DAF000525F4D4F44554C455F414C52454144594E
:10DB00005F494E495449414C495A45440000000080
:10DB10004E52465F4552524F525F4D4F44554C4511
:10DB20005F4E4F545F494E495449414C5A45440059
:10DB30004E52465F4552524F525F4E4F545F464FD2
:10DB4000554E44004E52465F4552524F525F494E29
:10DB500056414C49445F5354415445004E52465F30
:10DB60004552524F525F444154415F53495A450018
:10DB70004E52465F4552524F525F5356435F4841A3
:10DB80004E444C45525F4D495353494E47000000A7
:10DB90004E52465F4552524F525F494E56414C4994
:10DBA000445F4C454E475448000000004E52465FCB
:10DBB0004552524F525F4452565F5457495F455247
:10DBC000525F414E41434B004E52465F4552524FC9
:10DBD000525F4452565F5457495F4552525F444E1C
:10DBE00041434B004E52465F4552524F525F494EA1
:10DBF0005445524E414C00004E52465F4552524FE2
:10DC0000525F53544F524147455F46554C4C0000BC
:10DC10004E52465F4552524F525F4E554C4C00009B
:10DC20004E52465F4552524F525F494E56414C4903
:10DC3000445F504152414D004E52465F4552524F53
:10DC4000525F4E4F5F4D454D000000004E52465F03
:10DC50004552524F525F464F5242494444454E004E
:10DC60004E52465F4552524F525F4452565F545790
:10DC7000495F4552525F4F56455252554E00000083
:10DC80004E52465F4552524F525F494E56414C49A3
:10DC9000445F4144445200004E52465F4552524F49
:10DCA000525F494E56414C49445F464C41475300F0
:10DCB0004E52465F53554343455353004E52465FC1
:10DCC0004552524F525F54494D454F555400000044
:10DCD0004E52465F4552524F525F425553590000D3
:10DCE0002E2E5C2E2E5C2E2E5C2E2E5C2E2E5C2E6E
:10DCF0002E5C636F6D706F6E656E74735C6C6962C1
:10DD00007261726965735C6578706572696D656E64
:10DD100074616C5F6C6F675C7372635C6E72665F7C
:10DD20006C6F675F66726F6E74656E642E63000061
:10DD30006E6F6E65000000007761726E696E67003D
:10DD40006465627567000000276C6F6720656E610F
:10DD5000626C65203C6C6576656C3E203C6D6F6442
:10DD6000756C655F303E202E2E2E20203C6D6F643A
:10DD7000756C655F6E3E2720656E61626C65732011
:10DD80006C6F677320757020746F20676976656E9D
:10DD9000206C6576656C20696E20737065636966BA
:10DDA000696564206D6F64756C65732028616C6CA7
:10DDB000206966206E6F206D6F64756C65732073CB
:10DDC0007065636966696564292E0000276C6F675A
:10DDD0002064697361626C65203C6D6F64756C656D
:10DDE0005F303E202E2E203C6D6F64756C655F6E3B
:10DDF0003E272064697361626C6573206C6F677382
:10DE000020696E20737065636966696564206D6F53
:10DE100064756C65732028616C6C206966206E6F78
:10DE2000206D6F64756C65732073706563696669D6
:10DE30006564292E00000000656E61626C6500005B
:10DE400064697361626C6500526573756D65206C01
:10DE50006F6767696E67000048616C74206C6F675C
:10DE600067696E6700000000676F00004C6F6767AE
:10DE7000657220737461747573000000737461744B
:10DE80007573000068616C74000000006C6F6700BF
:10DE9000436F6D6D616E647320666F7220636F6E89
:10DEA00074726F6C6C696E67206C6F676765720067
:10DEB0001B5B313B33306D001B5B306D000000009D
:10DEC0001B5B313B33316D001B5B313B33326D00EB
:10DED0001B5B313B33336D001B5B313B33346D00D7
:10DEE0001B5B313B33356D001B5B313B33366D00C3
:10DEF0001B5B313B33376D006E72665F6D70750072
:10DF0000737461636B5F6775617264006170705FE9
:10DF10007573626400000000636C6F636B00000047
:10DF20006770696F746500007561727400000000AD
:10DF300055534244000000006364635F61636D00F9
:10DF4000686172646661756C7400000062616C6C7B
:10DF50006F630000636C695F75617274000000009C
:10DF60007077725F6D676D74000000006170700003
:10DF700060E00000000000204403000000070000F3
:10DF800048E100004403002094390000C011000063
:10DF9000000000004CC000000000000094C0000021
:10DFA00000000000A4C0000000000000FCC0000051
:10DFB000000000006CC1000000000000B4C10000BF
:10DFC0000000000040C400000000000088C4000001
:10DFD00000000000D0C4000000000000E0C4000009
:10DFE0000000000018C500000000000060C500002F
:10DFF00000000000C4C70000F8DE000000000000C0
:10E0000000DF0000000003000CDF00000000000043
:10E0100018DF00000000000020DF0000000000000A
:10E0200028DF00000000000030DF000000000000DA
:10E0300038DF00000000000040DF000000000300A7
:10E040004CDF00000000000054DF00000000000072
:10E0500060DF0000000000006CDF00000000030033
:10E0600081134C07B320172324BF23A16DA334C40D
:10E07000A3F4BECBD80A300A1140301AEC1481CB7D
:10E08000C40D300A115C30034224C023DCCF1AE4F3
:10E09000041AF4041AEC041AFC042304D01A180419
:10E0A0001A10041A40041A48041A58041A50041A80
:10E0B00020041A28041A38041A30040110031A9D87
:10E0C000212340C21A44041A6E041A94041AAE049E
:10E0D000013C23B4D45BC8D35C22D51A8C041A2427
:10E0E00014811AF40C23E8D11A7C041B0CD6C01935
:10E0F000049A702029401BE4D23C19441A0C3C01BC
:10E10000101AD8141A9820A3F8D82330DD1A04184E
:10E110001A38081BACCF3C190829042914291029E6
:10E1200020291C0114E93823B8DE1AB0041AC004EF
:10E130001AC8041AD0041AD8041AE0041AE8041AF7
:08E14000F0041104D090D0039B
:0400000500000201F4
:00000001FF
