:020000040000FA
:1000000098230020150200001D0200001F020000BE
:100010002102000023020000250200000000000071
:1000200000000000000000000000000027020000A7
:1000300029020000000000002B0200002D02000039
:100040002F0200001D0300002F0200002F020000FD
:100050002F0200002F0200002F0200002F020000DC
:100060002F0200002F0200002F0200002F020000CC
:100070002F0200002F0200002F0200002F020000BC
:100080002F0200002F0200002F0200002F020000AC
:10009000790300002F0200002F0200002F02000051
:1000A0002F0200002F020000CD0600002F020000EA
:1000B0002F0200002F0200000000000000000000DE
:1000C0002F0200002F0200002F0200002F0200006C
:1000D0002F0200002F0200002F020000000000008D
:1000E0000000000000000000000000000000000010
:1000F0000000000000000000000000000000000000
:1001000000000000000000000000000000000000EF
:1001100000000000000000000000000000000000DF
:1001200000000000000000000000000000000000CF
:1001300000000000000000000000000000000000BF
:1001400000000000000000000000000000000000AF
:10015000000000000000000000000000000000009F
:10016000000000000000000000000000000000008F
:10017000000000000000000000000000000000007F
:10018000000000000000000000000000000000006F
:10019000000000000000000000000000000000005F
:1001A000000000000000000000000000000000004F
:1001B000000000000000000000000000000000003F
:1001C000000000000000000000000000000000002F
:1001D000000000000000000000000000000000001F
:1001E000000000000000000000000000000000000F
:1001F00000000000000000000000000000000000FF
:10020000DFF80CD000F03CF800480047DD080000A3
:10021000982300200648804706480047FEE7FEE78F
:10022000FEE7FEE7FEE7FEE7FEE7FEE7FEE7FEE7A6
:10023000D10300000102000040EA01039B0703D044
:1002400009E008C9121F08C0042AFAD203E011F815
:10025000013B00F8013B521EF9D27047D2B201E0D7
:1002600000F8012B491EFBD270470022F6E710B5BB
:1002700013460A4604461946FFF7F0FF204610BD14
:10028000064C074D06E0E06840F0010394E80700E3
:1002900098471034AC42F6D3FFF7B6FF8C1200003B
:1002A000AC12000000F01F020121914040098000C3
:1002B00000F1E020C0F88012704700F01F02012119
:1002C00091404009800000F1E020C0F880117047A3
:1002D00000F01F02012191404009800000F1E02060
:1002E000C0F80011704700F01F0201219140400941
:1002F000800000F1E020C0F8001270474907090EA5
:10030000002806DA00F00F0000F1E02080F8141D4C
:10031000704700F1E02080F80014704770B5144C6D
:10032000D4F80001002628B1D4F80403C00701D096
:10033000C4F80061D4F80C010E4D40B1D4F80403A8
:10034000000704D5C4F80C61286900B18047D4F8CF
:10035000100100280BD0D4F80403C00607D5C4F858
:100360001061E868002802D0BDE87040004770BD09
:1003700000100040000000207CB5144C606A019021
:100380002078002821D00120FFF797FF656800261C
:1003900066600120FFF79CFFE169002915D0E8079E
:1003A00003D08DF8006068468847A80705D501206E
:1003B0008DF80000E16968468847680705D5022086
:1003C0008DF80000E169684688477CBD0000002088
:1003D000F0B5AE480023021D01780125101D4FF035
:1003E000805406290BD11678360708D10678C6F353
:1003F0000316032E06D0042E04D0052E02D00629A3
:1004000007D00EE0B4F82463A14FC6F304263E6083
:1004100002E01678360704D10678C6F30316032ED9
:1004200002D0062904D00FE09B4F9A4E7E670EE063
:100430001678360708D10678C6F30316032E06D0C1
:10044000042E04D0052E02D0062907D00EE0D4F8E1
:100450004462924FC6F342363E6002E01678360799
:1004600004D10678C6F30316032E02D0062906D05F
:1004700011E08B4E376827F0807737600EE01678F2
:10048000360708D10678C6F30316032E06D0042ECD
:1004900004D0052E02D006290AD011E04FF0804684
:1004A000C6F80C31C6F810317C4E361F336002E0BE
:1004B0001678360704D10678C6F30316032E02D049
:1004C000062905D00CE0754F032664373E600AE02C
:1004D0001678360704D10678C6F30316032E02D029
:1004E00006290DD014E06F4F05263E606D4E78361C
:1004F00035606C4E083633603F263F1D3E6002E09B
:100500001678360704D10678C6F30316052E02D0F6
:10051000062957D062E0644E3668644F3E60624EF2
:10052000361D36683F1D3E605F4E083636683F1DFB
:100530003E605D4E0C3636683F1D3E605A4E1036AA
:1005400036683F1D3E60584E143636683F1D3E608B
:10055000554E18363668554F20373E60524E1C3681
:1005600036683F1D3E60504E203636683F1D3E6067
:100570004D4E243636683F1D3E604B4E2836366859
:100580003F1D3E60484E2C3636683F1D3E60464E4D
:1005900030363668454F40373E60434E3436366815
:1005A0003F1D3E60404E383636683F1D3E603E4E31
:1005B0003C3636683F1D3E603B4E403636683F1D38
:1005C0003E6002E01678360708D10678C6F30316B7
:1005D000032E06D0042E04D0052E02D0062907D003
:1005E00019E0D4F85812324A01F04F01116002E0CC
:1005F000117809070FD10078C0F30310032803D046
:10060000042801D0052806D12A480168C90702D06C
:100610006FF00101016022487438016841F47001F3
:100620000160BFF34F8FBFF36F8F4FF01021D1F8F0
:100630000002002803DBD1F80402002822DA1E4A57
:1006400015601E480468002CFCD01524C1F8004237
:100650000568002DFCD0C1F8044201680029FCD0D7
:10066000136001680029FCD0BFF34F8F0C48F038AD
:100670000168134A01F4E06111430160BFF34F8F39
:1006800000BFFDE710490F480860F0BDE00F00F023
:10069000403501400DF0ADBA00C007403C050040B8
:1006A000FCED00E0105600400404001020C500409E
:1006B000E40E00400004004004E5014000E4014075
:1006C0000400FA050090D003480000200748D0F845
:1006D0004011002909D00021C0F840110448407899
:1006E000032802D1034901200861704700A001409E
:1006F000000000200010004002E008C8121F08C1DE
:10070000002AFAD170477047002001E001C1121F92
:10071000002AFBD17047006890FAA0F000BA00BA36
:100720007047000009480068C00700D000BEBFF352
:100730004F8F0648E4380168054A01F4E06111432F
:100740000160BFF34F8F00BFFDE70000F0ED00E058
:100750000400FA050EB500210091CDE901106A46AA
:1007600044F20100FFF7DEFF0EBD000006480168FD
:1007700021F0010101600548016821F0010141F00B
:1007800080710160002070475016004074170040CF
:100790000249085C012100F068BB000084120000DF
:1007A0007CB50024084E25460122305D00950023CB
:1007B0001146019500F03CFB641C042CF4D3BDE809
:1007C0007C4000F003B800008412000010B5002443
:1007D0002046FFF7DDFF641C042CF9D310BD006830
:1007E00090FAA0F000BA704770B50F4D0F4CA86892
:1007F000C4F800020E486969C07C88470E490D485C
:1008000008600021C4F8101101202061D4F81021E3
:10081000002AFBD0C4F81011A96841F00401C4F803
:100820000012606070BD0000000000200010004059
:100830007400002056030020041500404FF0804053
:100840000021C0F800110121C0F80010D0F80011FB
:100850000029FBD07047000000B51AA08BB00068DB
:10086000089019A019A100680990D1E90001CDE90B
:100870000601182217496846FFF7DEFC08208DF8AC
:10088000130001208DF800008DF808008DF801009C
:100890001148019000208DF81400684600F096F889
:1008A00000280DD108A800F0CBF9002808D109A82C
:1008B00000F0F4F9002803D1082106A800F034FA6A
:1008C0000BB000BDE7E7E7E7C2C2C2C2E7C2C3C4DC
:1008D000C5C6C7C86C12000041090000FFF760FFE1
:1008E000FFF7ACFFFFF7B8FF08B1FFF733FF00F0E9
:1008F0005FFA08B1FFF72EFF20BFFDE770B50C4986
:100900004FF4705008600B4C0025657000F096FBAA
:1009100020210948FFF7A9FCE56214202563FFF7B1
:10092000CCFC06490320C1F80002002070BD000085
:1009300008F501400000002078030020001000406E
:1009400010B5007800283DD001283BD0022839D1CD
:100950001D4800F031F9002834D11B4CA079410723
:1009600003D000F00700042801D9012100E0002194
:10097000112000F06FFAA07900F00700012801D9DA
:10098000052801D9012100E00021122000F062FABF
:10099000A07900F00700022801D9062801D9012119
:1009A00000E00021132000F055FAA07900F00700C4
:1009B000032801D8012100E00021BDE810401420E7
:1009C00000F048BA10BD00004C0000202DE9F041B5
:1009D00005007DD0694C207818B1FFF78FFF002803
:1009E00077D16868E061182229466548FFF724FC42
:1009F0000025656020216348FFF737FCE562256329
:100A000000F0BAFB00287DD05F494FF0E730086066
:100A1000091D4FF043300860091D5C480860091D3E
:100A20005B48086000F00AFB55490020183101F5C9
:100A3000947200BF00EB800303EB40130B4442F8B9
:100A40002030401C0828F5DB5249002001F5947243
:100A500000EB800303EB40130B4442F82030401CB2
:100A60000828F5DB4C48042606604B48083805602A
:100A70004A4840F20221C0F800124A4A484911602F
:100A8000111D0860DFF81881091D08F10408C1F87C
:100A90000080001D091D0860091D4348086040488A
:100AA000F038091D08604048001D091D0860091D37
:100AB0003E480860324F787C00F007010120FFF7C4
:100AC0001DFCB87C00F007011420FFF717FC01E0C3
:100AD0004FE04CE01420FFF7FBFBA0780127E8B3C0
:100AE000A068294940F04000A0600220443108601D
:100AF0002F49032008602E48083006602C49052045
:100B0000383100E037E008602A4E40F20110C6F8A4
:100B100000022748001F05603804C6F80403F76088
:100B200005211A20FFF7EAFB1A20FFF7D1FB1D4928
:100B30000839C1F80080081D066019481949283095
:100B400010390860174A311D0C3A116015491839DF
:100B5000086018480C30091D086000E004E01149E5
:100B60004FF460705C390860657027700020BDE844
:100B7000F0810E20FBE70720F9E7000000000020CD
:100B800074000020780300201C150040E743C323B5
:100B9000A363E313E001002010A5004000A0004083
:100BA0000011004060F5014040A1004000100040ED
:100BB00008A5014000A0014070B505461E48007818
:100BC00080B385B31D4CA06A70B30120FFF775FB9D
:100BD000606A54F820100A782A7054F82010497876
:100BE000697054F820108978A97054F82010097998
:100BF000297154F82010C978E97054F82010681D44
:100C0000491DFFF719FB606A401C6062082801D388
:100C100000206062A06A401EA0620120FFF758FB1E
:100C2000002070BD01E002E003E00820F9E70E209B
:100C3000F7E70520F5E7000000000020080300208A
:100C400070B5134E0446707808B1112070BDCCB158
:100C50000F483430407C052816D04FF07F452046A1
:100C6000FFF759FD284204D10A48006810F0FF0F31
:100C70000CD020687063012000F03AFABDE87040A3
:100C8000FFF774BD0E2070BD034DE8E7072070BD6F
:100C900000000020241500400000FFFF70B51F4D2C
:100CA0000446687808B1112070BD84B31B48343005
:100CB000407C05282DD04FF07F462046FFF72BFDC6
:100CC00030421BD11649086810F47F4F23D00868C2
:100CD00010F47F0F1FD00868000E1CD0091D086893
:100CE000000E18D0086810F47F0F14D0086810F4B4
:100CF0007F4F10D0086810F0FF0F0CD02068A86359
:100D0000022000F0F5F9BDE87040FFF72FBD0E207E
:100D100070BD044ED1E7072070BD00000000002028
:100D2000241500400000FFFF70B50C461D494978AE
:100D300009B1112070BDB0B1092C31D2194D343533
:100D4000697C052911D04FF07F412CB1164A1268F9
:100D50000A4201D102781AB3134A121D12680A42DC
:100D60000BD1012107E00E2070BD1049EDE7425C78
:100D7000B2B1491CC9B2A142F9D301460948224681
:100D80003C30FFF759FAC4F10801FF202C74C84029
:100D9000A874042000F0ACF9BDE87040FFF7E6BC91
:100DA000072070BD000000201C1500400000FFFF60
:100DB00070B51A48417809B1112070BD184C4FF038
:100DC000FF31C4F808130025C4F810511549C1605B
:100DD000816841F00401C4F800121021C4F8041322
:100DE000042141700D48104A3430817C11600E4955
:100DF000C07C28390860091F0C4808600120943421
:100E0000FFF750FA0120FFF763FA25676567E5678A
:100E1000012044F8900C002070BD0000000000206C
:100E200000100040810E00003015004056030020E5
:100E300070B541EA4201DDE904564FF0A04441EAB1
:100E4000830141EA052104EB800041EA0641C0F834
:100E5000001770BD01224FF0A043824011B1C3F8CA
:100E600008257047C3F80C25704701224FF0A043B6
:100E7000824011B1C3F808257047C3F80C257047AC
:100E80002DE9F05F554800220127006818B1544849
:100E9000806A082803D3BDE8F05FFFF7A5BCDFF840
:100EA0003C9109F10809D9F800004D49703101EB76
:100EB000800609F104010C68494B35884E33AC4279
:100EC000587805D1B478B4EB500F01D10122002736
:100ED0004008B07008689A4630804248424C017D14
:100EE00019B19AF80110C90710D0A1683F4B41F021
:100EF0000801C3F800123C49394D007849694FF0A8
:100F0000000B2C35B8B3012847D102E0FFF76CFC89
:100F10004EE03748836AB3F1000E2DD0436A50F893
:100F200023C09CF80180D9F800C0E04524D196F890
:100F300003C0BCF1010F0DD162B95B1C4362082BE9
:100F400001D3C0F824B0AEF101028262626842F0BF
:100F5000010262600122F270426A50F82200A06130
:100F600000788847A1690878287011F8052BA81C1B
:100F7000FFF762F906E009E086F803B00020884731
:100F800085F800B09AF80100687006E000208847F4
:100F90009AF80000287085F801B005206070D9F833
:100FA0000000144908601348283805601248E060C2
:100FB000002F10D0B178D9F80000C0B200F04CF882
:100FC000002808D0606840F004006060BDE8F05F71
:100FD0001420FFF788B9BDE8F09F0000001400401E
:100FE00008030020740000200000002000100040D2
:100FF000B40100202C150040FD0F000010B5094C75
:101000000949A06840F00400C1F80002074861697E
:10101000C07C88470749064808600748E06004200C
:10102000607010BD0000002000100040740000201F
:101030005603002004150040810E000005490020E1
:1010400008624862886201F5AA7108624862886293
:1010500070470000B40100202DE9F041224C074602
:101060008846A06A08283DD2A4F5257120460A7852
:101070000026006A01F2E225012A03D04A7842B133
:10108000C97C02E0297820292CD854F8202011703E
:1010900002E054F820100E7054F82000A91C10F83B
:1010A000052BFFF7C9F8206A54F820104F700F493C
:1010B000096854F82020917054F8202082F80480A8
:1010C000697854F8202041F30001491C401CD1707C
:1010D0002062082800D32662A06A401CA06201207A
:1010E000BDE8F0810020FBE7080300204815004020
:1010F00010B50446C00704D00F48FFF70CFB0F499A
:101100000860A00706D50C48001DFFF704FB0B493B
:10111000091D086060070DD507480830FFF75FFB21
:1011200006490831086004480C30FFF758FB0349B2
:101130000C31086010BD0000340000201C15004078
:101140000A48017A0A4801600A4849B1012905D0D4
:10115000032909D0042901D000207047302100E084
:1011600040218162012070474921FAE77400002084
:10117000101500400000002070B500F041F8FFF7A6
:10118000DFFF194C194922787AB1012A0BD00022CD
:101190000240607AB8B1164B1D1F01280ED00228FC
:1011A00007D0002513E0134A00E0134A4A610122E8
:1011B000EEE74FF6FF761E60104B03E0FF261E6041
:1011C00040F207132B600A4B083B18600125496960
:1011D0001540E07C8847A089872801D3012000E0E2
:1011E0000020284070BD0000740000200000002096
:1011F0003C150040411200001512000021100100B2
:1012000002480349807A086070470000740000209B
:101210000C150040084A074911600849497C491EDD
:10122000090441EA0021014341F08070111D08606A
:101230007047000000010100141500403400002038
:1012400007490648086007480749407C401E41EAB4
:1012500000400349091D08607047000006000300B4
:10126000141500403400002020000001010000009F
:101270000000000001020000FA000300000102204B
:1012800000000000111213140D0E0F10AC1200001C
:10129000000000204C000000F8060000F8120000DA
:1012A0004C0000204C230000080700000000010053
:1012B000000000001301000000000000000000001A
:1012C000000000000000000000000000000000001E
:1012D000000000000000000000000000000000000E
:1012E000E7E7E7E7C2C2C2C2E7C2C3C4C5C6C7C810
:0812F0000805FF020090D00385
:0400000500000201F4
:00000001FF
