:020000040000FA
:10000000B0210020150200001D0200001F020000A8
:100010002102000023020000250200000000000071
:1000200000000000000000000000000027020000A7
:1000300029020000000000002B0200002D02000039
:100040002F0200002F0200002F0200002F020000EC
:100050002F0200002F0200005D0200002F020000AE
:100060002F020000950600002F0200002F02000062
:100070002F0200002F0200002F0200002F020000BC
:100080002F020000650400002F0200002F02000074
:10009000890400002F0200002F0200002F02000040
:1000A0002F0200002F0200002F0200002F0200008C
:1000B0002F0200002F0200000000000000000000DE
:1000C0002F0200002F0200002F0200002F0200006C
:1000D0002F0200002F0200002F0200002F0200005C
:1000E0002F0200002F0200002F020000000000007D
:1000F000000000002F020000000000002F0200009E
:1001000000000000000000000000000000000000EF
:1001100000000000000000000000000000000000DF
:1001200000000000000000000000000000000000CF
:1001300000000000000000000000000000000000BF
:1001400000000000000000000000000000000000AF
:10015000000000000000000000000000000000009F
:10016000000000000000000000000000000000008F
:10017000000000000000000000000000000000007F
:10018000000000000000000000000000000000006F
:10019000000000000000000000000000000000005F
:1001A000000000000000000000000000000000004F
:1001B000000000000000000000000000000000003F
:1001C000000000000000000000000000000000002F
:1001D000000000000000000000000000000000001F
:1001E000000000000000000000000000000000000F
:1001F00000000000000000000000000000000000FF
:10020000DFF80CD000F018F800480047F10A0000B1
:10021000B02100200648804706480047FEE7FEE779
:10022000FEE7FEE7FEE7FEE7FEE7FEE7FEE7FEE7A6
:100230008D04000001020000064C074D06E0E06856
:1002400040F0010394E8070098471034AC42F6D31D
:10025000FFF7DAFF54110000741100002DE9F04F90
:1002600000268FB0DFF8B081B14602964FF480755A
:10027000012437460396284600F010FE38B1D8F81E
:100280000403204203D0284600F0FEFD26432D1D26
:1002900064007F1CADB2082FEDD34FF4BE7420462E
:1002A00000F0FCFD48B1204600F0EEFD46F00046AF
:1002B00002AA0221002000F0D1FD584C16F0FF0FD9
:1002C00015D00127002537420DD008EB8501D1F864
:1002D0001005D1F81015C0F3052054F82520C1F3FE
:1002E000014102B190477F006D1C082DEBD3002E19
:1002F0007DDA0020CDF82890411E0DF1080B08AAE8
:10030000CDF82C9042F82010401C91460228F9D3D9
:1003100000252E46A01910F8607F90F9000027F004
:10032000C008401C49D008A9404600F0FBFB88B338
:100330004FEA971A404600F0C5FA54F820701FB1F2
:10034000BAF1030F03D00FE0BAF1030F35D10AA8B9
:100350004FEAD80208F00703815C4FF0010C0CFA59
:1003600003FC41EA0C01815406A8CDF8188000F086
:1003700053FD069900EB8100D0F8000702A9C0F3F5
:1003800001400690404600F0CDFB0028069802D0C0
:10039000022802D011E003280FD1BAF1030F08D1CF
:1003A0000698022832D00221404600F00EFD6D1C56
:1003B000EDB217B151464046B847761C042EA9D37A
:1003C000002D20D004AA0221002000F047FD0020CB
:1003D0005A4604A952F8206051F82030B34217D091
:1003E00000200AAE4FEA090351F8207000E00AE04D
:1003F00042F8207056F8207043F82070401C022804
:10040000F2D3002D84D10FB0BDE8F08F0321CBE7EC
:10041000401C0228DED3F6E70060004030000020D8
:1004200000F01F02012191404009800000F1E0200E
:10043000C0F88012704700F01F020121914040096E
:10044000800000F1E020C0F80011704700F01F02AA
:10045000012191404009800000F1E020C0F8001225
:100460007047000007480021C0F84011C0F844114F
:10047000C0F84811C0F84C11C0F80011C0F80411C0
:1004800000F01EBE0010014000F08CBD30B54FF0F2
:1004900080500022D0F830110123082902D1D0F871
:1004A000344114B1082909D00BE04FF08041C1F864
:1004B0000C21C1F8102168490A6005E0D0F83441E8
:1004C00014B1082957D059E064490968644C216087
:1004D0006249091D0968241D2160604908310968C5
:1004E000241D21605D490C310968241D21605B4990
:1004F00010310968241D2160584914310968241DF0
:100500002160564918310968554C203421605349FF
:100510001C310968241D2160504920310968241DBF
:1005200021604E4924310968241D21604B4928313E
:100530000968241D216049492C310968241D216066
:10054000464930310968464C4034216043493431D2
:100550000968241D2160414938310968241D216042
:100560003E493C310968241D21603C4940310968FD
:10057000241D216005E0D0F8344114B1082904D0CD
:1005800006E0394C3749216005E0D0F8344114B118
:10059000082904D006E0354CFB21216005E0D0F8A5
:1005A000344114B1082908D00AE090F85842304884
:1005B000016864F30301016005E0D0F8344114B12F
:1005C000082905D00EE02B494FF40070086002E0C6
:1005D000D0F8340130B928480168C90702D06FF05B
:1005E000010101602548016841F470010160BFF319
:1005F0004F8FBFF36F8F4FF01021D1F8000200280A
:1006000003DBD1F80402002822DA1D4C23601D48C8
:100610000368002BFCD01223C1F800320568002DBE
:10062000FCD0C1F8043201680029FCD022600168C6
:100630000029FCD0BFF34F8F10487C380168124A64
:1006400001F4E06111430160BFF34F8F00BFFDE78C
:100650000F490E48086030BD380500400404001002
:1006600020C50040488103008C56004018F500402A
:10067000E40E0040409602400004004088ED00E097
:1006800004E5014000E401400400FA050090D003B5
:100690002C0000202DE9F84300250F4C04274FF4CF
:1006A000A078BE034FEA050908EB850006FA05F1BC
:1006B00022585AB1D4F804230A4207D044F80090D3
:1006C0002158064A00915168126890476D1CEDB29E
:1006D000BD42E9D3BDE8F8830090004098000020B7
:1006E00002E008C8121F08C1002AFAD170477047FB
:1006F000002001E001C1121F002AFBD17047000059
:1007000000F0D6F8054C204600F014FA002000F066
:1007100093F8012000F090F8F5E7000040420F0048
:100720000EB500210091CDE901106A4644F20100A6
:10073000FFF7E6FF0EBD0000B0F5A07F07D104492A
:10074000487808B9022008708868496808477047E7
:100750000C0000201CB50C490C4AD1E90201CDE97E
:10076000000100208DF801008DF8020004208DF8B2
:1007700000006946044800F0BFFA002802D1044A8C
:10078000012111701CBD0000441100003907000058
:100790000C0000202DE9F843984691460F000546CD
:1007A00005D0012D05D035B10720BDE8F8830E2016
:1007B000FBE7012601E04FF48076154C207810B15C
:1007C000032802D006E00820EFE700F025F808B182
:1007D000FFF7A6FF2078022802D10E4800F052FA57
:1007E0006570C4E901780120009033464A46002133
:1007F000084800F06BFA20780228064805D000F07F
:1008000057FA032020700020CFE700F0C1FAF8E784
:100810000C0000204411000010B5054C207803287E
:1008200004D1044800F0B0FA02202070002010BD6E
:100830000C00002044110000094908B5085C009034
:10084000684600F0DBFAD0F80425009B01219940AE
:1008500021EA0203C0F808351140C0F80C1508BDA4
:10086000341100000249085C012100F0E3BA0000E5
:10087000341100000249085C002100F0DBBA0000DE
:10088000341100007CB50024084E25460122305D5D
:10089000009500231146019500F07EFA641C042C9B
:1008A000F4D3BDE87C4000F003B800003411000030
:1008B00010B500242046FFF7D5FF641C042CF9D3A3
:1008C00010BD00000249084490F930007047000054
:1008D000300000202DE9F05F26484168F1B3DFF8D1
:1008E00098B00E688146DBF8004087688078E11B8D
:1008F00021F07F45ED1CB0B9DFF880804FF48030E7
:10090000C8F84403C8F804031120FFF789FD11203B
:10091000FFF791FD4FF0010AC8F800A02F2000F06A
:100920004FF989F802A0B54200D23546124BE819BA
:100930003C3320F07F401860DBF800105A46091B5A
:1009400021F07F41001B20F07F40C91C81420FD95C
:10095000106818602F2000F033F900E004E0BDE8D3
:10096000F05F1120FFF772BDBDE8F05F00F09EBAA6
:10097000BDE8F09F18000020041501400010014060
:100980000E4910B50A784C780023A24212D0521CAE
:10099000D2B20A70022A00D10B70084A0B780C32CE
:1009A00052F8232002608868104420F07F4088605D
:1009B000012010BD0360002010BD000018000020C1
:1009C00010B50C46FFF738FF094A282050600A206E
:1009D000906000234CF2503206492046FFF7DAFEC1
:1009E000002803D0BDE81040FFF79ABE10BD0000FC
:1009F000000000200D0F00002DE9F047394E0027C0
:100A000080463D46DFF8E090D6F804A057E003D0DA
:100A10000446D0F81C8035E099F8002002EB420132
:100A2000521CD2B289F8002009EBC10199F80230BA
:100A3000091D9A4201D189F8005048680A78044695
:100A4000012A12D0022A02D0032A3BD108E000F08A
:100A500007FB00B10127257434E00574C06900E08C
:100A600070680028F9D170602CE0207C50BB886849
:100A70006060C868A0600869E0604869A061F078BB
:100A800000B165606268B168184B501A20F07F4071
:100A9000984202D2A168084406E0881AA16820F0B2
:100AA0007F40814202D9081A206000E0256065601D
:100AB0000120A56020742046E56100F0B3FAB8F18A
:100AC0000000A4D199F8001099F801008142A3D147
:100AD00017B97168514502D00120BDE8F0870020A8
:100AE000FBE7000018000020A4000020FFFF7F00AB
:100AF000FFF730FE08B1FFF713FEFFF7C3FE00203B
:100B0000FFF7B8FE0120FFF7B5FE054800F012F828
:100B1000002000F0E9F920BF40BF20BFFBE7000044
:100B200040420F00C20800F007030120895C984092
:100B30000840704700283ED01F49204A096800BF7E
:100B400000BF00BF00BF00BF00BF00BF00BF914299
:100B50002FD000BF00BF00BF00BF00BF00BF00BF5D
:100B600000BF00BF00BF00BF00BF00BF00BF00BF8D
:100B700000BF00BF00BF00BF00BF00BF00BF00BF7D
:100B800000BF00BF00BF00BF00BF00BF00BF00BF6D
:100B900000BF00BF00BF00BF00BF00BF00BF00BF5D
:100BA00000BF00BF00BF00BF00BF00BF00BF00BF4D
:100BB00000BF0138C3D170472C0000200024F4008E
:100BC00000283ED01F49204A096800BF00BF00BF6F
:100BD00000BF00BF00BF00BF00BF91422FD000BFC9
:100BE00000BF00BF00BF00BF00BF00BF00BF00BF0D
:100BF00000BF00BF00BF00BF00BF00BF00BF00BFFD
:100C000000BF00BF00BF00BF00BF00BF00BF00BFEC
:100C100000BF00BF00BF00BF00BF00BF00BF00BFDC
:100C200000BF00BF00BF00BF00BF00BF00BF00BFCC
:100C300000BF00BF00BF00BF00BF00BF00BF013842
:100C4000C3D170472C0000200024F4004907090E8E
:100C5000002806DA00F00F0202F1E02282F8141DEB
:100C600003E000F1E02282F8001400F01F020121ED
:100C700091404009800000F1E020C0F88012C0F8E7
:100C80000011704700680121C160704730B54FF412
:100C9000803405688C4013B1C5F8044301E0C5F801
:100CA0000843006800EB8100C0F8402530BD00001B
:100CB000016801220A600079034A00EB400002EB60
:100CC000800002210172704798000020F0B404688F
:100CD000049E40F20115D4F800728D40AF43C4F871
:100CE00000720468D4F800521D43C4F80052334621
:100CF000F0BCFFF7CBBF0000F8B504460D46007905
:100D0000204900EB400001EB8006307A08B1082052
:100D1000F8BD3AB1326068687060002003464FF455
:100D2000A07709E00720F8BD226807EB8001535047
:100D30005158401CC0B2009161798142F4D82068BA
:100D4000E978000B40B2FFF781FF20686978D0F89E
:100D5000042561F30102C0F804252068A978D0F8C1
:100D6000082561F30102C0F8082520682978D0F829
:100D7000102561F30302C0F8102501203072002015
:100D8000F8BD000098000020006801214160704714
:100D900000680121016070472DE9FF411C46DDE933
:100DA0000A7815460E46684600F028F846EA4501DE
:100DB00041EA840141EA072242EA0841009A00EB35
:100DC0008200C0F80017BDE8FF8113B50C466846E5
:100DD00000F022F8009900EB8101D1F8002722F4FD
:100DE0004032C1F80027009900EB8100D0F80017CD
:100DF00041EA0441C0F800171CBD00000168202929
:100E000002D24FF0A040704701F01F01016001487D
:100E100070470000000300500168202902D24FF003
:100E2000A040704701F01F010160014870470000B9
:100E30000003005038B501240090684631B1FFF737
:100E4000DDFF00998C40C0F8084538BDFFF7D6FF9C
:100E500000998C40C0F80C4538BD00001CB5094C09
:100E60000144D4E90034CDE900346C4606E000BF0B
:100E700054F82030D3F81035401C08C28142F7D80E
:100E80001CBD00003C110000034908B508440021C6
:100E900001600068009008BD0060004002494058B1
:100EA000012800D0002070470060004070B5012686
:100EB00070044FF0E0210025C1F88001084C40107B
:100EC000C4F84803C4F8080366602F20FFF778FED3
:100ED000A660044C2F20A560FFF772FEA57070BDC0
:100EE000001001401800002007490870087820B160
:100EF000012805D00878FFF713BC0021084601E05F
:100F000001210846FFF75CBD00000020234810B512
:100F100002780A211AB1012A1DD0007815E0426832
:100F2000521E426015D08268521E826003D18160D9
:100F30000020FFF781FC00234CF25032AFF2330166
:100F40001846FFF727FC002826D0BDE81040FFF721
:100F5000E7BB01201CE04268521E426009D0826853
:100F6000521E826018D18160BDE810400120FFF759
:100F700063BC0020FFF77EFC0120FFF77BFCFFF73E
:100F80004BFC08B1FFF7CCFB0548FFF7D3FD002071
:100F9000BDE81040FFF7A8BF10BD00000000002012
:100FA00040420F002DE9F84F1D4C00256846D4E95A
:100FB00001A6FFF7E5FC002738B30023009A61681B
:100FC0001CE0D1F800C00846944503D9ACEB0202FE
:100FD0000A6015E0A2EB0C0263440760D0F80CC075
:100FE000C1698146BCF1000F08D006EB030828F068
:100FF0007F48C0E9018CC9F81C5005460029E0D1A2
:1010000028466160FFF7F8FC03E02846FFF7F4FC90
:1010100010B15046FFF75EFCE770BDE8F88F0000A6
:10102000180000200D4B10B5596831B102680C68EA
:10103000A24204D8A21A0A60C161586010BD0B46D2
:1010400003E00B46C969121B21B10C689442F8D326
:10105000A41A0C600260C161D86110BD18000020A4
:101060002DE9F041144E77683D462C4603E084425A
:1010700004D02546E469002CF9D11BE0D4B1A54287
:101080000BD1F869706040B90C49012088600021DB
:10109000B160F0702F20FFF793FD2168E069E861EF
:1010A00010B10268114401607068874202D00120CB
:1010B000BDE8F0810020FBE718000020001001408F
:1010C0002DE9F041194D6C68002C2CD018480027F0
:1010D0000068A968B846401A20F07F462068B042F0
:1010E0000CD82146361A0744E469087C20B181F8FF
:1010F0001080886949698847002CEFD12978687881
:10110000814206D1401CC0B26870022801D185F826
:101110000180064869780C3040F82170BDE8F04144
:101120001420FFF793B9BDE8F081000018000020FB
:10113000041501400D0E0F100B0C18190000005083
:101140000003005000900040000400000000000771
:1011500000000000741100000000002030000000BA
:10116000E0060000A41100003000002080210000F3
:10117000F006000000000000000000000000000079
:10118000000000000000000000000000000000005F
:10119000000000000000000000000000000000004F
:0411A0000090D003E8
:0400000500000201F4
:00000001FF
