:020000040000FA
:10000000182600204D030000550300005703000090
:10001000590300005B0300005D03000000000000C6
:100020000000000000000000000000005F0300006E
:10003000610300000000000063030000650300008E
:100040006703000067030000390600006703000033
:1000500067030000670300006703000067030000F8
:10006000FD050000110600002506000067030000E2
:1000700067030000670300006703000067030000D8
:1000800067030000670300006703000067030000C8
:1000900067030000670300006703000067030000B8
:1000A00067030000670300006703000067030000A8
:1000B000670300006703000000000000000000006C
:1000C0006703000067030000670300006703000088
:1000D0006703000067030000670300006703000078
:1000E00067030000670300006703000000000000D2
:1000F000000000006703000000000000670300002C
:1001000000000000000000000000000000000000EF
:1001100000000000000000000000000000000000DF
:1001200000000000000000000000000000000000CF
:1001300000000000000000000000000000000000BF
:1001400000000000000000000000000000000000AF
:10015000000000000000000000000000000000009F
:10016000000000000000000000000000000000008F
:10017000000000000000000000000000000000007F
:10018000000000000000000000000000000000006F
:10019000000000000000000000000000000000005F
:1001A000000000000000000000000000000000004F
:1001B000000000000000000000000000000000003F
:1001C000000000000000000000000000000000002F
:1001D000000000000000000000000000000000001F
:1001E000000000000000000000000000000000000F
:1001F00000000000000000000000000000000000FF
:10020000DFF80CD000F0E4F8004800478D0A000049
:100210001826002030B4044654E8000F0D4644E888
:100220000053002BF8D1156030BC704730B4044641
:1002300054E8000F40EA010544E80053002BF7D1D1
:10024000156030BC704730B4044654E8000F00EA33
:10025000010544E80053002BF7D1156030BC70470E
:1002600030B4044654E8000F80EA010544E8005326
:10027000002BF7D1156030BC704730B4044654E809
:10028000000F00EB010544E80053002BF7D1156087
:1002900030BC704730B4044654E8000FA0EB0105B1
:1002A00044E80053002BF7D1156030BC70470000C4
:1002B00030B4044654E8000F0D4644E80053002BC8
:1002C000F8D1156030BC704730B4044654E8000FD4
:1002D00040EA010544E80053002BF7D1156030BC1B
:1002E000704730B4044654E8000F00EA010544E8C2
:1002F0000053002BF7D1156030BC704730B4044672
:1003000054E8000F80EA010544E80053002BF7D1C0
:10031000156030BC704730B4044654E8000F00EB61
:10032000010544E80053002BF7D1156030BC70473D
:1003300030B4044654E8000FA0EB010544E8005334
:10034000002BF7D1156030BC70470000064880478D
:1003500006480047FEE7FEE7FEE7FEE7FEE7FEE7AA
:10036000FEE7FEE7FEE7FEE7F503000001020000FE
:10037000004870475C22000040EA01039B0703D05D
:1003800009E008C9121F08C0042AFAD203E011F8D4
:10039000013B00F8013B521EF9D27047D2B201E096
:1003A00000F8012B491EFBD270470022F6E710B57A
:1003B00013460A4604461946FFF7F0FF204610BDD3
:1003C000421C10F8011B0029FBD1801A7047000065
:1003D000064C074D06E0E06840F0010394E8070092
:1003E00098471034AC42F6D3FFF70EFFE822000026
:1003F0000823000030B54FF080500022D0F83011B3
:100400000123082902D1D0F8344114B1082909D0B8
:100410000BE04FF08041C1F80C21C1F81021684970
:100420000A6005E0D0F8344114B1082957D059E0EA
:1004300064490968644C21606249091D0968241DEA
:100440002160604908310968241D21605D490C3133
:100450000968241D21605B4910310968241D216051
:10046000584914310968241D21605649183109681A
:10047000554C2034216053491C310968241D2160EA
:10048000504920310968241D21604E4924310968F2
:10049000241D21604B4928310968241D21604949E8
:1004A0002C310968241D2160464930310968464CC9
:1004B00040342160434934310968241D2160414999
:1004C00038310968241D21603E493C310968241DEA
:1004D00021603C4940310968241D216005E0D0F8C5
:1004E000344114B1082904D006E0394C3749216061
:1004F00005E0D0F8344114B1082904D006E0354CA9
:10050000FB21216005E0D0F8344114B1082908D05E
:100510000AE090F858423048016864F30301016032
:1005200005E0D0F8344114B1082905D00EE02B497C
:100530004FF40070086002E0D0F8340130B9284868
:100540000168C90702D06FF0010101602548016808
:1005500041F470010160BFF34F8FBFF36F8F4FF015
:100560001021D1F80002002803DBD1F80402002892
:1005700022DA1D4C23601D480368002BFCD0122397
:10058000C1F800320568002DFCD0C1F804320168C2
:100590000029FCD0226001680029FCD0BFF34F8FF6
:1005A00010487C380168124A01F4E061114301608F
:1005B000BFF34F8F00BFFDE70F490E48086030BD05
:1005C000380500400404001020C5004048810300A5
:1005D0008C56004018F50040E40E00404096024062
:1005E0000004004088ED00E004E5014000E4014023
:1005F0000400FA050090D003740000200422024990
:10060000024800F0C5B90000B4000020008000409E
:1006100004220249024800F0BBB90000C0000020DB
:100620000090004004220249024800F0B1B90000E5
:10063000CC00002000A000400448017F04480029AD
:10064000024901D001F0B5BC01F024BCD800002063
:100650000020004002E008C8121F08C1002AFAD199
:1006600070477047002001E001C1121F002AFBD132
:100670007047000001F074F900F0D8FF0028FBD1AA
:10068000104C0121208801EB00400FA101F0C0F8BF
:1006900010480068C00700D000BE2088022101EB8E
:1006A00000400DA101F0B4F8BFF34F8F0948E438C2
:1006B00001680D4A01F4E06111430160BFF34F8FFF
:1006C00000BFFDE7A8000020466174616C206572E0
:1006D000726F7200F0ED00E053797374656D2072F3
:1006E00065736574000000000400FA050EB5002172
:1006F0000091CDE901106A4644F20100FFF7BAFF0C
:100700000EBD00F003B800F009B8000072B6024850
:100710000168491C01607047100000200349086807
:10072000401E086000D162B6704700001000002033
:1007300070B5054608680C46411C04D000F098FED0
:10074000206800F07CFE6068411C02D0002100F0AF
:100750006DFE28791F4901EB40102968007F0028B1
:10076000A069C1F8240523D0607D227D296810434B
:10077000C1F86C05D4E900122868C0F80C15C0F85F
:10078000142522E0A068411C02D0002100F04EFE9A
:10079000E068411C04D000F06BFEE06800F04FFE02
:1007A000D4E902122868C0F80825C0F8101570BDF9
:1007B000607D217D2A680843C2F86C05D4E90012E7
:1007C0002868C0F81425C0F80C15207D0128D9D060
:1007D00070BD0000D80000202DE9F041871C0E46B6
:1007E00001250020FFF78DFF124C20683060D4E90E
:1007F0000001401AA168091ABE1C06E000F0FCF8CE
:10080000D4E90001401AA168091A491C8E42F5D8A2
:10081000A1682068084004EB8000C16841F0030132
:10082000C1602068384420600020FFF76CFF284634
:10083000BDE8F081F801002030B482680468531CE0
:100840008360A154D0E901128A4202D330BC00F087
:10085000D2BC30BC70470000034803C8814201D1BC
:100860000120704700207047F80100207047000009
:100870002DE9FC5F0E008346DDE90C47C6F1000060
:1008800098469246814600D40846012503E000BF01
:1008900090FBFAF06D1C5045FADAA84500D94546A0
:1008A00024B1002E01DB780700D5641EB80702D5FD
:1008B000B8F1000F0AD0F80708D13CB1A54205D223
:1008C00020215846641EFFF7B7FFF6E7002E02DA34
:1008D0004E462D2102E0780703D52B215846FFF71D
:1008E000ABFF07F0030002280BD1B8F1000F08D1CD
:1008F0003CB1A54205D230215846641EFFF79CFF4B
:10090000F6E7CDE90047434652463146584601F0E6
:10091000C9FBBDE8FC9F000070B50E460446007997
:1009200018494FF4A27501EB4010017F2068A1B176
:100930004FF4887101F008F94FF49071206801F0CC
:1009400003F94FF49271206801F0FEF829462068FF
:1009500001F0FAF80C49206809E04FF48E7101F0BB
:10096000E2F82946206801F0DEF808492068C0F85E
:100970000413206800F03FFA3146BDE8704000F0F3
:100980001EBA0000D8000020100302008000020000
:100990002DE9F84300251646884604462F4614E004
:1009A0004FF4A07000EB85004FF480312258A9402D
:1009B0004AB1D4F804230A4205D0275021580091A7
:1009C000D8E9002190476D1CEDB2B542E8D3BDE8EF
:1009D000F88300000121814003484068014201D0B2
:1009E000012070470020704708000020012181404D
:1009F000080300D00120704770B588B0214800F08E
:100A000039F92048001F064600F034F91E4DD5E99B
:100A1000014105E0C0F3891202EB9050641C0444CC
:100A200004EA010005EB8000C0688207F2D00020D4
:100A30000DF1080204EA010305EB8303641CDB6883
:100A400042F82030401C0228F4D3029800F0030042
:100A5000012808D002280AD10298032101EB905006
:100A600004EB900403E00298C0F383100444304682
:100A7000002101AAFFF735FC002800D06C6008B007
:100A800070BD000010060020F80100200EB5002403
:100A9000204600F01FFF08B1FFF728FE00F0B8FD68
:100AA00001F0B2F83E4D09263E4AD5E90601CDE9EE
:100AB00001018DF8046001A9284600F04FFA08B141
:100AC000FFF714FE6421364800F090FA0246012038
:100AD000034600900021324800F02AFAD5E90801C7
:100AE000CDE901012E488DF804602F4A01A9083094
:100AF00000F034FA08B1FFF7F9FD29484FF4FA681D
:100B00004146083000F072FA0246002724480123CB
:100B100039460830009700F00BFAD5E90A01CDE913
:100B200001011F488DF804601F4A01A9103000F030
:100B300015FA08B1FFF7DAFD19484146103000F008
:100B400055FA02461648012300211030009700F0A4
:100B5000EFF9134800F0DEF9052000F0DFF8104847
:100B6000083000F0D7F9114D6FF00900686068682F
:100B70000028FCD10A48103000F0CCF90C4E0327B5
:100B80006A689442FCD03088144607EB004009A103
:100B900000F042FE00F04AFD0028FBD1F0E7000023
:100BA00058210000ED1D00006D080000000000202D
:100BB000A800002043757272656E7420636F756EB5
:100BC000743A2025750000002DE9F047C7880446D7
:100BD000181D16468946B0FBF7F1B0FBF7F207FB8C
:100BE00012009A193A44D21CB2FBF7F2DDF820A0A9
:100BF00001E02468491E0029FBD13D1A8846B54210
:100C000016D818E0BAF1000F05D0211809EB08003A
:100C10002A46091D04E0204409EB08012A46001D6C
:100C2000FFF7AAFB00202468761BA844B74201D92D
:100C3000354600E03D46002EE4D1BDE8F0870000D7
:100C400030B5024669B100F073FE0021084C0BE09C
:100C500001EB410304EB830315685B88AB4202D1CF
:100C60001160002030BD491C8142F1D3052030BD08
:100C70007800002008B501216A46FFF725FB00989F
:100C800008BD70B5044600252846FFF73AFD2168E7
:100C90006268086890420ED9401E08600178238A75
:100CA000E26801FB0325227A2168101AC0B20A7992
:100CB000824200D208710020FFF725FD284670BD52
:100CC00070B505460C460020FFF71BFDE868298A31
:100CD000201AB0FBF1F12A681068431C1360017000
:100CE000BDE870400020FFF70EBD10B530B1017AAD
:100CF00042680368891AC9B21A6006E00E2010BD66
:100D000003681A68541C1C601170491EC9B2F7D2DE
:100D1000006800210171084610BD000000283ED087
:100D20001F49204A096800BF00BF00BF00BF00BFC5
:100D300000BF00BF00BF91422FD000BF00BF00BF67
:100D400000BF00BF00BF00BF00BF00BF00BF00BFAB
:100D500000BF00BF00BF00BF00BF00BF00BF00BF9B
:100D600000BF00BF00BF00BF00BF00BF00BF00BF8B
:100D700000BF00BF00BF00BF00BF00BF00BF00BF7B
:100D800000BF00BF00BF00BF00BF00BF00BF00BF6B
:100D900000BF00BF00BF00BF00BF0138C3D1704714
:100DA000740000200024F40000F01F020121914093
:100DB0004009800000F1E020C0F880117047490729
:100DC000090E002806DA00F00F0202F1E02282F894
:100DD000141D03E000F1E02282F8001400F01F026D
:100DE000012191404009800000F1E020C0F880120C
:100DF000C0F800117047000B40B270470121B1EB01
:100E0000507F01D101207047002070472DE9F04745
:100E10000427144E814600244FF001080020FFF7FC
:100E200070FC08FA04F5354203D02046FFF7D2FDE6
:100E300058B10020FFF767FC27B104F10104AE436D
:100E4000E4B2EBD13846BDE8F087074908FA04F070
:100E500000274A681043486089F800403846FFF789
:100E600052FCEFE7FFFF0F00080000202DE9F041E2
:100E700014460D00074612D08CB10026FFF7B6FDD0
:100E800078B13846FFF7A6FD68B1084800EBC70007
:100E9000C0F81055C0F814453046BDE8F0810E206A
:100EA000FBE70726F8E70826F6E7000000F0014018
:100EB00070B5044601260025A640FFF797FD18B13E
:100EC0002046FFF787FD18B102480660284670BD2E
:100ED0000825FBE704F501400448017809B18520A5
:100EE00070470121017000207047000008000020B9
:100EF00030B54FF4803405688C4013B1C5F8044315
:100F000001E0C5F80843006800EB8100C0F8402507
:100F100030BD0000016801220A600079034A00EB3D
:100F2000400002EB8000022101727047B4000020F3
:100F3000F0B40468049E40F20115D4F800728D40AC
:100F4000AF43C4F800720468D4F800521D43C4F8DB
:100F500000523346F0BCFFF7CBBF0000F8B50446A3
:100F60000D460079204900EB400001EB8006307A05
:100F700008B10820F8BD3AB132606868706000209E
:100F800003464FF4A07709E00720F8BD226807EB7D
:100F9000800153505158401CC0B200916179814288
:100FA000F4D82068E978000B40B2FFF708FF20680A
:100FB0006978D0F8042561F30102C0F8042520689F
:100FC000A978D0F8082561F30102C0F80825206847
:100FD0002978D0F8102561F30302C0F8102501200C
:100FE00030720020F8BD0000B40000200068D0F886
:100FF00010254FF47A504843D04070472DE9F04116
:1010000005460079164F904607EB40140E46E07EE9
:1010100010B10820BDE8F081707F20772846FFF7E7
:1010200087FB5FEA080060603169216003D0317F8F
:101030002846FFF771FC287907EB4010007F002855
:10104000286801D0082100E00421C0F80015002024
:10105000E0752076A0750121E176A076DAE7000040
:10106000D80000202DE9F047054600793F4E904614
:1010700006EB40140F46207F18B10846FFF7BEFE6E
:1010800030B1284600F074F820B11120BDE8F08797
:101090001020FBE784F81680A7600027A782287934
:1010A0004FF0010806EB40143E46207F00282868D8
:1010B00025D04FF49079494600F046FD4FF4AC7AC4
:1010C0005146286800F040FD2868A17DA268C0F85C
:1010D0004425C0F848152868C0F808806068F0B951
:1010E0004946286800F02BFD80465146286800F0EC
:1010F00026FD58EA0001F3D058BBA7750FE04FF466
:101100008E7A514600F00FFD2868C0F8088021460D
:10111000286800F073FE61684FF4807089B1304632
:10112000B4E75146286800F0F9FC10B9A08A484598
:10113000F7D1A08A484505D02146286800F05EFE18
:1011400000E08146A08AA17D8842EAD3A08A484572
:1011500001D10F26D1E75146286800F0DFFC0028B6
:10116000F9D02868C0F80C80C7E70000D80000203C
:101170000079044901EB4010807D002800D0012057
:1011800070470000D800002070B50446007911496E
:10119000002601EB401520682A7FC0F800656868CA
:1011A00088B1207901EB4010007F0028206801D031
:1011B000094901E008498C39C0F808132068FFF795
:1011C0001AFEFFF7F1FD204600F0C4FCEE766E60DB
:1011D00070BD0000D8000020100302000FB408B555
:1011E0000399002904D004AA00926A4600F00FF87F
:1011F00001B05DF814FB10B582680446002A05D0E2
:10120000D4E90403216898470020A06010BD2DE9AF
:10121000FC4791460C00804676D014F8011B39B18A
:1012200025290ED04046FFF707FB20780028F4D18F
:1012300098F80C00002867D04046BDE8FC47FFF74F
:10124000DABF0020012221782B291BD02D2902D0C2
:10125000302908D102E040F0010001E040F0020036
:10126000641C002AEFD100252A290ED02178A1F193
:1012700030020A2A11D205EB850201EB4205641CFB
:10128000303DF1E740F00400EAE7D9F800100B1D0B
:10129000C9F800300968641C0D44217800232E2908
:1012A0000BD114F8011FA1F130020A2A05D203EB79
:1012B000830201EB4203303BF3E76C290DD0682930
:1012C0000BD0692921D00BDC252918D0582931D021
:1012D00063290ED0642915D117E014F8011FECE73B
:1012E000702969D0732932D075291BD0782909D18A
:1012F00020E0D9F80000011DC9F80010017840462F
:10130000FFF79AFA641C90E76CE0D9F800100A1D08
:10131000C9F800200968CDE900500A224046FFF7CD
:10132000A7FAEFE7D9F800100A1DC9F800200968EC
:101330000A2206E0D9F800100A1DC9F80020096841
:101340001022CDE90050404600F0ACFEDAE7D9F8B3
:10135000001000270A1DC9F800200E68C00705D13B
:1013600012E04046761C7F1CFFF766FA31780029B0
:10137000F7D104E0202140466D1EFFF75DFABD4223
:10138000C0D9002DF6D1BDE74EB13046FFF718F8B1
:10139000074604E0202140466D1EFFF74DFABD428E
:1013A00006D9002DF6D103E04046761CFFF744FA3B
:1013B00031780029F8D1A5E7D9F80000011DC9F856
:1013C0000010056830214046FFF736FA7821404684
:1013D000FFF732FA08200021CDE900010346102270
:1013E0002946B0E7BDE8FC872DE9FF411C46DDE951
:1013F0000A7815460E46684600F02CF846EA450184
:1014000041EA840141EA072242EA0841009A00EBDE
:101410008200C0F80017BDE8FF811CB500210091D3
:101420000B4601220191FFF7DFFF1CBD1CB5002216
:101430000B46009211460192FFF7D6FF1CBD1CB56A
:10144000002100910B46012201911146FFF7CCFFCC
:101450001CBD00000168202902D24FF0A040704757
:1014600001F01F01016001487047000000030050B7
:1014700001B56846FFF7EEFF009A01219140C0F8E0
:10148000081508BD30B5124B01460020D3F81044B2
:10149000224609E0157A854205D1401C0A28F7DB6F
:1014A0004FF0FF3030BD5268002AF3D1421CF9D012
:1014B0000872D3F810242AB152684A60D3F8102475
:1014C000516030BD0022C3F810144A6030BD0000E6
:1014D000F8010020F0B595B01C4615460F460846A9
:1014E0001A9E00F0F5FA182109A8FEF75EFF0E9685
:1014F000CDE909540023082203A9384600F002FB75
:10150000059806900498ADF81C0000208DF8200086
:101510000398082600F00300012802D002281DD0FD
:101520003CE003983346850AC0F3C2008DF81E00E4
:1015300003980FA9C0F380008DF81F000398C0F333
:101540008314A200384600F0DDFA09A8009006AB2B
:1015500022460FA9284600F017FA1FE00398840DD1
:10156000C0F3C2008DF81E000398C0F380008DF810
:101570001F00082C01D2254600E0082533462A46E4
:101580000FA9384600F0BEFA2E44641B09AB06AA28
:1015900029460FA800F048F9002CEAD1384600F09F
:1015A000A0FA15B0F0BD7047012000F04BBC000060
:1015B00010B50448FFF7E8FDBDE81040002000F03A
:1015C00041BC00001800002008B5034A00924023E7
:1015D000024AFFF77FFF08BD351D0000F80000201C
:1015E0000A4A012902EBC00007D0022907D00329CB
:1015F00007D0042907D0002070470220704704203C
:101600007047007970474079704700000823000058
:1016100010B5FFF7C9FF04210348FFF733FF024964
:101620000120487210BD0000200000202DE9FE4F6F
:10163000FFF712F910B10020BDE8FE8F72480021BB
:10164000C0F81814BFF34F8FD0E9014604EA060131
:1016500000EB81014FF000090AE000BFC1F38912DD
:1016600002EB9151641C0C4404EA060100EB810179
:10167000C9688A07F2D000216A46804604EA06005B
:1016800008EB8000641CC06842F82100491C4346F6
:101690000229F3D3009800F00300022806D00128A5
:1016A00000984FD0C04380077ED0A8E00098502219
:1016B000810D8A46B2EB905F00D850210D4665F34C
:1016C0009F5000900831514800F0B9F907006CD0E4
:1016D00000F0FEF94B4608226946384600F018FA39
:1016E00004EA0600311A8900091D09F1080B8D4230
:1016F00021D9454E0C3631B1CAB208EB8000691AC7
:1017000091460C3004E03046EAB20026914631465C
:10171000CDB201465B46384600F0FAF90BEB0903FF
:1017200026B12A463146384600F0F2F90AF10300A4
:1017300004EB90043BE008EB80015B462A46384608
:101740000C31F1E7C0F38310062800D3062000997E
:1017500060F38911C1F38310801C009181002B4834
:1017600000F06DF907004AD000F0B2F94B460822AC
:101770006946384600F0CCF909F1080900250DE06A
:1017800004EA060008EB80014B46042238460C317F
:10179000641C00F0BDF909F104096D1C0098C0F348
:1017A0008310A842ECD801E00BE028E03FB3D8F862
:1017B0001054D8F81804464690B1384600F091F914
:1017C0001DE0D3F8180400283FF436AF17E0687A1C
:1017D000012804D12A6828463946126890476D6866
:1017E000002DF4D1384600F07CF90020FEF789FF87
:1017F000D6F8180400B974600020FEF784FFFFF7E4
:101800002BF880F0010017E7F8010020C421000048
:1018100000231A4600F0A2BA08B5012300926A46D6
:1018200000F09CFA08BD00002DE9F0470E46804606
:101830001C46924608293ED894F80C90002020734C
:101840001946104600F022FA0025B54206D218F8D3
:1018500005201AA12046FFF7C1FC03E019A120468C
:10186000FFF7BCFC6D1C082DEFD317A12046FFF736
:10187000B5FC0025B54210D218F80570FEF778FDCA
:101880000068C05D10F03E0F01D03A4600E02E2205
:101890000EA12046FFF7A2FC03E00DA12046FFF7B2
:1018A0009DFC6D1C082DE5D301222146504600F019
:1018B0008DF984F80C90BDE8F087000020253032C7
:1018C00078000000202020007C000000256300003C
:1018D00020000000114810B5FF2181600021016047
:1018E0004160C0F81814C0F8141480F81C140C4897
:1018F00000F0F5F800280FD10A480B490B4B401AAD
:10190000C108002005E000BF00EB400223F82200E0
:10191000401C8842F8D3002010BD0000F8010020D0
:10192000C4210000302300000823000078000020BC
:1019300002480349401AC0087047000030230000E5
:101940000823000013B56846FFF77AF908B10020B4
:101950001CBD0248009950F831001CBD082300004E
:1019600070B508480125D0F8104480F81C5405E0F3
:10197000657221682046496888476468002CF7D161
:1019800070BD0000F80100202DE9FF4781460C9D45
:1019900000200C462F7B2873984616462946184689
:1019A00000F074F9072E42D2DFE806F004090F16A2
:1019B0001F2A360049462846FFF710FC37E0494603
:1019C00028462268FFF70AFC31E0D4E900234946A3
:1019D0002846FFF703FC2AE0A0680090D4E9002322
:1019E00049462846FFF7FAFB21E0D4E90201CDE998
:1019F0000001D4E9002349462846FFF7EFFB16E033
:101A000004F1080007C88DE80700D4E9002349461F
:101A10002846FFF7E3FB0AE004F108000FC88DE851
:101A20000F00D4E9002349462846FFF7D7FB0022E0
:101A30002946404600F0CAF82F73BDE8FF872DE91C
:101A4000F041058A80462D1F4819C01CB0FBF5F0F7
:101A5000C6B24046FFF715F9041E19D000202071C8
:101A600001206071E58000272546761EC4F80080BD
:101A70000BE04046FFF705F960B16179491C6171DF
:101A8000286005467F1CC0F80080B742F1D320468D
:101A9000BDE8F081204600F002F80020F8E72DE9CB
:101AA000F041457901466B1E002201E00968521C95
:101AB0009A42FBD30F680146002605E038460C68C1
:101AC000FFF7FEF82146761CAE42F7D3BDE8F08161
:101AD00008B501216A46001DFEF7CFFB08BDFFF7E0
:101AE00004B938B50446001D01216A46FEF7D2FB51
:101AF000009810F0FF0F04D12046BDE83840FFF7F2
:101B0000CEBF38BD38B501240094FFF75DF838BD6D
:101B100038B500240094FFF757F838BD4058002826
:101B200000D00120704708B5002242504058009074
:101B300008BDD0F80403084000D001207047405889
:101B4000002800D00120704708B5002242504058BC
:101B5000009008BD70B5034600791B4901EB4010A9
:101B60001968027F4FF0FF30002AD1F80C25D1F818
:101B70001465D1F80855D1F8104504D0C1F80C050A
:101B8000C1F8140503E0C1F81405C1F80C05196883
:101B9000C1F80805C1F81005501C02D01046FFF727
:101BA0003CFC701C02D03046FFF737FC601C02D0B2
:101BB0002046FFF732FC681C04D02846BDE8704080
:101BC000FFF72BBC70BD0000D800002010B50C46FC
:101BD000C17949B11AB109A12046FFF7FFFA2046A1
:101BE000BDE81040FFF707BB007A0028F3D0044897
:101BF00004A102682046FFF7F1FAECE70D0A0000A5
:101C0000500000202573000070B5FFF765F908B19A
:101C1000FEF76CFD1B48FFF7F9F808B1FEF766FD0B
:101C2000194D184C05F108002A680168207801F563
:101C3000A071121DFFF71AF908B1FEF757FD114800
:101C4000401CFFF7E3F808B1FEF750FD0E482A6884
:101C500010300168607801F5A071FFF707F908B14D
:101C6000FEF744FD2078FFF723F908B1FEF73EFDAB
:101C70006078FFF71DF9002803D0BDE87040FEF73B
:101C800035BD70BD000000205821000070B504462D
:101C9000C0790D4600281CD1207A50B1A179A088C6
:101CA000FFF79EFC0B4951F820200BA12846FFF7B7
:101CB00095FAA0880021FFF745FE03460549A07963
:101CC000143951F820202846BDE8704003A1FFF7E1
:101CD00085BA70BD50000020257300003C25733E7E
:101CE0002025733A2000000070B50546C87D0C46DB
:101CF00000284FF4847128460AD0FFF714FFD5F866
:101D00001805627EE1688854607E401C607670BD74
:101D1000FFF709FFD5F8180570BD1FB501238DF831
:101D200000308DF808100192D0E900126846904703
:101D30001FBD000010B5084C0020D2B22070201D3D
:101D4000FFF790F908B1FEF7D1FC6078002802D0C7
:101D500021780029FAD010BD140000202DE9F843A5
:101D6000214C8846054691461F4669461846A66896
:101D7000FEF732FD70B30098811C00220AE000BF1C
:101D800001EA060C59F8223004EB8C0C491C521C59
:101D9000CCF80C30BA42F3D30246401C304004EB7E
:101DA00080002B0CC36002EA060004EB8002E80608
:101DB00052F80C0F02D540F0040001E020F00400BE
:101DC00065F3C50067F3891068F39F2020F00300D6
:101DD000401C106094F81C0402E000BFFFF726FCD2
:101DE0000028FBD1BDE8F883F801002002484168D3
:101DF000491C4160704700000000002070B50C468F
:101E000005464FF48E71FFF78EFEA18AA068415CF3
:101E1000A08A401CA082C5F81C1570BD1FB5002209
:101E20008DF800208DF80810816801918275D0E945
:101E30000012684690471FBD014901200870704795
:101E40001400002010B588B0044620220E496846D0
:101E5000FEF792FA06200090C01F019002900390B6
:101E60004FF0EB7006900CB1084A00E00022694682
:101E70000748FFF7C3F808B1FEF738FC0448001F15
:101E8000447008B010BD0000A4210000391E0000FD
:101E9000180000202DE9FF470C4605464FF400715D
:101EA000FFF747FE01274FF40178002618B34FF4DF
:101EB000927949462846FFF731FEE0B14946284667
:101EC000FFF731FEC5F80883A07E00B96F600220DD
:101ED0008DF80000D5F88004C5F880040390E07DFB
:101EE0008DF80800E0680190E6752676D4E90012C6
:101EF0006846904727E004212846FFF71AFE10B3F2
:101F00004FF484712846FFF709FEE0B121462846C8
:101F1000FFF7EAFEE07D617E884214D1207E38B171
:101F2000617EE268E0752069E0602676667607E00B
:101F3000A07E00B96F60C5F80883E675617EE2682F
:101F40002046FFF7EAFE4FF48E7841462846FFF719
:101F5000E5FD88B1A08AA17D884204D221462846A9
:101F6000FFF74CFF08E041462846FFF7DCFDA17D66
:101F700011B12046FFF752FF4FF4A27841462846A0
:101F8000FFF7CCFD002812D041462846FFF7CBFDD5
:101F9000A07E00B12F60E07D002808D0E675617E4C
:101FA000E26804B02046BDE8F047FFF7B6BEBDE8E2
:101FB000FF872DE9FF410C464FF4927705463946DD
:101FC000FFF7BDFD0026C0B139462846FFF7BCFD2E
:101FD00002208DF80000D5F88004C5F88004039035
:101FE000D5F83C058DF80800E0680190E675267686
:101FF000D4E900126846904724E04FF488773946C8
:102000002846FFF79CFDE8B139462846FFF79CFDBE
:10201000D5F83C05C1B2E07D884213D1207E60B185
:10202000E268D5F8000220F02000C5F80002207E0A
:10203000E0752069E060267601E0E675E2682046FA
:10204000FFF76BFE4FF4A27739462846FFF777FD7E
:1020500068B139462846FFF777FDE07D38B1E6756F
:10206000D5F83C05E268C1B22046FFF756FE4FF4B2
:10207000907631462846FFF762FD00280FD03146A2
:102080002846FFF761FDA07D002808D0D5F84C0553
:1020900004B0C1B22046BDE8F041FFF7BFBEBDE8C5
:1020A000FF8100002DE9F05F8346DDE90A4A994689
:1020B00090460D460846012703E000BFB0FBF8F04C
:1020C0007F1C4045FAD2B94500D94F465FEACA7035
:1020D00012D18CB15FEA8A7002D5B9F1000F01D03C
:1020E000202607E0302605E031465846641EFEF7FC
:1020F000A3FB0CB1A742F7D35FF00106B9F1010FC2
:1021000002D9A9F1010903E0B5FBF6F0404502D37D
:1021100006FB08F6F2E7DFF83C9000BFB5FBF6F0EF
:1021200000FB165519F800105846FEF785FBB6FB64
:10213000F8F6002EF2D15FEACA7009D0002C07D061
:10214000A74205D220215846641EFEF775FBF5E72D
:10215000BDE8F09F882100000080004000040000DE
:10216000009000400104000000A0004002040000B4
:102170000000000700000000000000070000000051
:1021800000000007000000003031323334353637AC
:102190003839414243444546C9150000B115000095
:1021A000A7150000FFFFFFFFFFFFFFFFFFFFFFFF7F
:1021B000FFFFFFFF00000000000000000000D6014C
:1021C00007010000340000202C0000203400002013
:1021D00038010020180000000040404040404040CE
:1021E00040404141414141404040404040404040EA
:1021F000404040404040404040050202020202028E
:1022000002020202020202020220202020202020DC
:1022100020202002020202020202909090909090F0
:1022200010101010101010101010101010101010AE
:102230001010101002020202020288888888888822
:10224000080808080808080808080808080808080E
:10225000080808080202020240000000D92100001C
:102260007761726E696E6700646562756700000071
:102270001B5B313B33306D001B5B306D0000000099
:102280001B5B313B33316D001B5B313B33326D00E7
:102290001B5B313B33336D001B5B313B33346D00D3
:1022A0001B5B313B33356D001B5B313B33366D00BF
:1022B0001B5B313B33376D00696E666F00000000B9
:1022C0006572726F720000007070690074696D65EC
:1022D00072000000756172740000000062616C6C35
:1022E0006F63000061707000302300000000002068
:1022F000B400000054060000E4230000B4000020F5
:102300006425000064060000C822000000000000F0
:10231000CC22000000000000D422000000000000D9
:10232000DC22000000000000E422000000000300A6
:10233000000000000000000000000000000000009D
:10234000000000000000000000200040000000002D
:1023500098210000000000000000000000000000C4
:10236000000000000000000000000000000000006D
:10237000C022000060220000B82200006822000095
:1023800078220000702200008022000088220000D5
:102390009022000098220000A0220000A822000045
:1023A000B02200000090D0030000000000000000F8
:1023B000000000000000000000000000000000001D
:1023C000000000000000000000000000000000000D
:1023D00000000000000000000000000000000000FD
:0423E00000000000F9
:0400000500000201F4
:00000001FF
