:020000040000FA
:10000000402600204D030000550300005703000068
:10001000590300005B0300005D03000000000000C6
:100020000000000000000000000000005F0300006E
:10003000610300000000000063030000650300008E
:10004000F503000067030000A10600004D04000056
:1000500067030000670300006703000067030000F8
:1000600067030000670300006703000067030000E8
:1000700067030000670300006703000067030000D8
:1000800067030000670300006703000067030000C8
:1000900067030000670300006703000067030000B8
:1000A00067030000670300006703000067030000A8
:1000B000670300006703000000000000000000006C
:1000C0006703000067030000670300006703000088
:1000D0006703000067030000670300006703000078
:1000E00067030000670300006703000000000000D2
:1000F000000000006703000000000000670300002C
:1001000000000000000000000000000000000000EF
:1001100000000000000000000000000000000000DF
:1001200000000000000000000000000000000000CF
:1001300000000000000000000000000000000000BF
:1001400000000000000000000000000000000000AF
:10015000000000000000000000000000000000009F
:10016000000000000000000000000000000000008F
:10017000000000000000000000000000000000007F
:10018000000000000000000000000000000000006F
:10019000000000000000000000000000000000005F
:1001A000000000000000000000000000000000004F
:1001B000000000000000000000000000000000003F
:1001C000000000000000000000000000000000002F
:1001D000000000000000000000000000000000001F
:1001E000000000000000000000000000000000000F
:1001F00000000000000000000000000000000000FF
:10020000DFF80CD000F0E4F8004800478910000047
:100210004026002030B4044654E8000F0D4644E860
:100220000053002BF8D1156030BC704730B4044641
:1002300054E8000F40EA010544E80053002BF7D1D1
:10024000156030BC704730B4044654E8000F00EA33
:10025000010544E80053002BF7D1156030BC70470E
:1002600030B4044654E8000F80EA010544E8005326
:10027000002BF7D1156030BC704730B4044654E809
:10028000000F00EB010544E80053002BF7D1156087
:1002900030BC704730B4044654E8000FA0EB0105B1
:1002A00044E80053002BF7D1156030BC70470000C4
:1002B00030B4044654E8000F0D4644E80053002BC8
:1002C000F8D1156030BC704730B4044654E8000FD4
:1002D00040EA010544E80053002BF7D1156030BC1B
:1002E000704730B4044654E8000F00EA010544E8C2
:1002F0000053002BF7D1156030BC704730B4044672
:1003000054E8000F80EA010544E80053002BF7D1C0
:10031000156030BC704730B4044654E8000F00EB61
:10032000010544E80053002BF7D1156030BC70473D
:1003300030B4044654E8000FA0EB010544E8005334
:10034000002BF7D1156030BC70470000064880478D
:1003500006480047FEE7FEE7FEE7FEE7FEE7FEE7AA
:10036000FEE7FEE7FEE7FEE7990400000102000059
:100370000048704778BB020040EA01039B0703D0A6
:1003800009E008C9121F08C0042AFAD203E011F8D4
:10039000013B00F8013B521EF9D27047D2B201E096
:1003A00000F8012B491EFBD270470022F6E710B57A
:1003B00013460A4604461946FFF7F0FF204610BDD3
:1003C000421C10F8011B0029FBD1801A7047000065
:1003D000064C074D06E0E06840F0010394E8070092
:1003E00098471034AC42F6D3FFF70EFF18BC02005A
:1003F00038BC02002DE9F0414FF48077384600F018
:1004000062FF0124104EA50748B1384600F062FF94
:100410000120C5F808037470002000F0ADFA4FF415
:100420008277384600F04FFF00280BD0384600F0A6
:1004300051FF0220C5F80803B470BDE8F041012067
:1004400000F09ABABDE8F081C4000020F8B5114868
:100450000F4D04464FF48C7102F0D4F9002815D0EA
:100460000026C4F81861D4F818010090A87F2C4623
:10047000FF2801D001F064FE66772672D4E90021DE
:1004800001B004F10800BDE8F0401047F8BD0000DD
:10049000D80000200030004030B54FF080500022DE
:1004A000D0F830110123082902D1D0F8344114B119
:1004B000082909D00BE04FF08041C1F80C21C1F8A8
:1004C000102168490A6005E0D0F8344114B10829C8
:1004D00057D059E064490968644C21606249091D9C
:1004E0000968241D2160604908310968241D2160C4
:1004F0005D490C310968241D21605B491031096890
:10050000241D2160584914310968241D2160564971
:1005100018310968554C2034216053491C31096851
:10052000241D2160504920310968241D21604E4955
:1005300024310968241D21604B4928310968241D94
:10054000216049492C310968241D21604649303118
:100550000968464C40342160434934310968241D00
:100560002160414938310968241D21603E493C31F0
:100570000968241D21603C4940310968241D21601F
:1005800005E0D0F8344114B1082904D006E0394C14
:100590003749216005E0D0F8344114B1082904D06E
:1005A00006E0354CFB21216005E0D0F8344114B160
:1005B000082908D00AE090F858423048016864F3EE
:1005C0000301016005E0D0F8344114B1082905D0D9
:1005D0000EE02B494FF40070086002E0D0F83401BF
:1005E00030B928480168C90702D06FF001010160E5
:1005F0002548016841F470010160BFF34F8FBFF3DC
:100600006F8F4FF01021D1F80002002803DBD1F8E2
:100610000402002822DA1D4C23601D480368002BC9
:10062000FCD01223C1F800320568002DFCD0C1F8BF
:10063000043201680029FCD0226001680029FCD046
:10064000BFF34F8F10487C380168124A01F4E06113
:1006500011430160BFF34F8F00BFFDE70F490E4804
:10066000086030BD380500400404001020C500407B
:10067000488103008C56004018F50040E40E00400D
:10068000409602400004004088ED00E004E501408F
:1006900000E401400400FA050090D0037800002037
:1006A0000448017F04480029024901D002F02BBC14
:1006B00002F09ABBFC0000200020004002E008C8C5
:1006C000121F08C1002AFAD170477047002001E0CC
:1006D00001C1121F002AFBD17047000001F0B4FFD6
:1006E00001F020FE0028FBD1104C0121208801EBF5
:1006F00000400FA101F008FF10480068C00700D0BB
:1007000000BE2088022101EB00400DA101F0FCFE9B
:10071000BFF34F8F0948E43801680D4A01F4E061E6
:1007200011430160BFF34F8F00BFFDE7B800002009
:10073000466174616C206572726F7200F0ED00E0CA
:1007400053797374656D20726573657400000000E1
:100750000400FA050EB500210091CDE901106A46AA
:1007600044F20100FFF7BAFF0EBD00F003B800F03D
:1007700009B8000072B602480168491C0160704760
:100780001400002003490868401E086000D162B6CA
:10079000704700001400002070B5054608680C463C
:1007A000411C04D001F0D6FC206801F080FC606898
:1007B000411C02D0002101F067FC28791F4901EBA0
:1007C00040102968007F0028A069C1F8240523D0C3
:1007D000607D227D29681043C1F86C05D4E90012C0
:1007E0002868C0F80C15C0F8142522E0A068411C48
:1007F00002D0002101F048FCE068411C04D001F067
:10080000A9FCE06801F053FCD4E902122868C0F8A2
:100810000825C0F8101570BD607D217D2A68084349
:10082000C2F86C05D4E900122868C0F81425C0F895
:100830000C15207D0128D9D070BD0000FC000020DF
:100840002DE9F041871C0E4601250020FFF78DFFA2
:10085000124C20683060D4E90001401AA168091ADE
:10086000BE1C06E000F0C6FBD4E90001401AA168F6
:10087000091A491C8E42F5D8A1682068084004EB8B
:100880008000C16841F00301C160206838442060E5
:100890000020FFF76CFF2846BDE8F0811C02002015
:1008A00030B482680468531C8360A154D0E90112FB
:1008B0008A4202D330BC00F0DCBF30BC704700007D
:1008C000034803C8814201D10120704700207047CE
:1008D0001C0200202DE9FC4125490026254DD1E9C7
:1008E0000101CDE9000117E0ADF8026000240CE041
:1008F000ADF8004001231F226946A86801F0FAF80C
:1009000008B1FFF727FF1534A4B2A86801F07EFBF9
:10091000A042EDD21536B6B2A86801F0E3F9B042B4
:10092000E2D20A264FF4784719E000BFADF8026022
:100930000A240CE0ADF8004000233A466946A86856
:1009400001F0D8F808B1FFF705FF1534A4B2A86884
:1009500001F05CFB0A30A042ECD21536B6B2A868B2
:1009600001F0C0F90A30B042E0D2BDE8FC810000DD
:10097000843100000000002070B5084C050009D04B
:1009800010342168002907D008682060496828468B
:100990008847F6E70834F4E770BD0000C400002083
:1009A00010B5012002F0DBFB7A4C204600F0E6FC9B
:1009B000282002F0D4FB204600F0E0FCCF2002F01B
:1009C000CEFB002002F0D4FBC12002F0D1FB30208E
:1009D00002F0CEFBE82002F0C2FB852002F0C8FB4B
:1009E000002002F0C5FB782002F0C2FBCB2002F011
:1009F000B6FB392002F0BCFB2C2002F0B9FB002032
:100A000002F0B6FB342002F0B3FB022002F0B0FB90
:100A1000F72002F0A4FB202002F0AAFBEA2002F05B
:100A20009EFB002002F0A4FB002002F0A1FBC020EE
:100A300002F095FB232002F09BFBC12002F08FFB0C
:100A4000102002F095FBC52002F089FB3E2002F049
:100A50008FFB282002F08CFBC72002F080FB862051
:100A600002F086FB362002F07AFB482002F080FB81
:100A70003A2002F074FB552002F07AFBB12002F01C
:100A80006EFB002002F074FB182002F071FBB62010
:100A900002F065FB082002F06BFB822002F068FB8D
:100AA000272002F065FBF22002F059FB002002F043
:100AB0005FFB262002F053FB012002F059FBE020EF
:100AC00002F04DFB0F2002F053FB312002F050FBEF
:100AD0002B2002F04DFB0C2002F04AFB0E2002F00E
:100AE00047FB082002F044FB4E2002F041FBF120BE
:100AF00002F03EFB372002F03BFB072002F038FB00
:100B0000102002F035FB032002F032FB0E2002F031
:100B10002FFB092002F02CFB002002F029FBE12032
:100B200002F01DFB002002F023FB0E2002F020FB50
:100B3000142002F01DFB032002F01AFB112002F02A
:100B400017FB072002F014FB312002F011FBC1203B
:100B500002F00EFB482002F00BFB082002F008FB1D
:100B60000F2002F005FB0C2002F002FB312002F006
:100B7000FFFA362002F0FCFA0F2002F0F9FA1120F9
:100B800002F0EDFA204600F0F9FBBDE81040292004
:100B900002F0E5BAC0D4010008B1212000E0202015
:100BA00002F0DDBA7047000010B586B02B2000902F
:100BB000684601F0B7FA009A032100EB8200C0F802
:100BC00000170F4B01AC0FCB84E80F002F208DF8DE
:100BD00004002E208DF806002D208DF805002C2015
:100BE0008DF80700064800231A4601A9083800F0CE
:100BF00045FC040002D1FFF7D3FE204606B010BD2D
:100C0000C089020038B514460B46024601F0C2FF07
:100C1000200A8DF800008DF801402B2001F0A4FA85
:100C20000221684601F0E0FF2B2001F054FA38BDA4
:100C3000F8B51C4615460A19521E93B24219521EA7
:100C400092B2069E01F0A6FF300A8DF800008DF8E2
:100C500001602B2001F088FA6C43E01DC11700EB06
:100C60005170C510E01704EB507020F00700201AF7
:100C7000082827D2DFE800F004201C1814100C0804
:100C80000221684601F0B0FF0221684601F0ACFF86
:100C90000221684601F0A8FF0221684601F0A4FF86
:100CA0000221684601F0A0FF0221684601F09CFF86
:100CB0000221684601F098FF0221684601F094FF86
:100CC0006D1EDDD12B2001F006FAF8BD10B50446EB
:100CD000362002F044FA54B1012C0AD0022C0AD07A
:100CE000032C0AD1E820BDE8104002F041BA4820A8
:100CF000F9E72820F7E78820F5E710BD014800F064
:100D000055BC0000B88902002DE9FC5F0E00834647
:100D1000DDE90C47C6F1000098469246814600D4B2
:100D20000846012503E000BF90FBFAF06D1C50451A
:100D3000FADAA84500D9454624B1002E01DB780730
:100D400000D5641EB80702D5B8F1000F0AD0F80725
:100D500008D13CB1A54205D220215846641EFFF7B8
:100D60009FFDF6E7002E02DA4E462D2102E07807BD
:100D700003D52B215846FFF793FD07F00300022807
:100D80000BD1B8F1000F08D13CB1A54205D23021FA
:100D90005846641EFFF784FDF6E7CDE90047434659
:100DA00052463146584602F027F9BDE8FC9F000044
:100DB00070B50E460446007918494FF4A27501EB50
:100DC0004010017F2068A1B14FF4887101F035FD1A
:100DD0004FF49071206801F030FD4FF4927120685B
:100DE00001F02BFD2946206801F027FD0C49206801
:100DF00009E04FF48E7101F00FFD2946206801F0E3
:100E00000BFD08492068C0F80413206800F023FB9C
:100E10003146BDE8704000F002BB0000FC0000203D
:100E2000100302008000020070B5424D86B003AB93
:100E300095E80700404C83E807001C3DA06800F0DF
:100E400051FF2835ADF8120095E807008DE807003E
:100E5000A06801F0DBF8ADF80000A06800F042FFE8
:100E6000ADF80200A06800F03DFFADF806000025D7
:100E70004FF478460CE000BFADF81050324603A99D
:100E8000A06800F03FFF08B1FFF764FC0A35ADB27F
:100E9000A06801F0BBF8A842EED2A06801F0B6F855
:100EA000ADF8100000250FE0A06800F01BFF401B0C
:100EB000ADF81200324603A9A06800F023FF08B184
:100EC000FFF748FC0A35ADB2A06800F00BFFA8425E
:100ED000EAD200250FE0A06800F004FF401BADF847
:100EE00006001F226946A06800F00CFF08B1FFF75A
:100EF00031FC0A35ADB2A06800F0F4FEA842EAD297
:100F00000020ADF8060005460CE000BFADF8045027
:100F10001F226946A06800F0F5FE08B1FFF71AFC31
:100F20000A35ADB2A06801F071F8A842EED206B061
:100F300070BD0000A0890200000000202DE9FF4FD5
:100F400083B09946DDF840800F4616464FF0FF30DB
:100F5000494501D2012300E003460193424500DAEE
:100F6000012000904FF0000BB9EB070000D5404284
:100F700005B2B8EB060000D5404204B2119B0398BD
:100F800001F09EFCA54204DA65406C4065404FF0DC
:100F9000010B601B400000B2029060000FFA80FA63
:100FA000AAEB050004B21EE0002C09DB01983844CE
:100FB00087B20098304486B20298204404B20CE014
:100FC00004EB0A0004B2BBF1000F03D000983044D8
:100FD00086B202E00198384487B232463946119B06
:100FE000039801F06DFC4645DED14F45DCD107B0DA
:100FF000BDE8F08F70B588B0214800F011F92048A5
:10100000001F064600F00CF91E4DD5E9014105E030
:10101000C0F3891202EB9050641C044404EA0100FE
:1010200005EB8000C0688207F2D000200DF10802B5
:1010300004EA010305EB8303641CDB6842F82030FB
:10104000401C0228F4D3029800F00300012808D0C5
:1010500002280AD10298032101EB905004EB90047E
:1010600003E00298C0F3831004443046002101AA33
:10107000FFF737F9002800D06C6008B070BD0000A1
:10108000340600201C0200200EB5002001F096FA64
:1010900008B1FFF75FFB01F037F929480321008809
:1010A00001EB004027A101F02FFA00BF01F03AF94F
:1010B0000028FBD12D4CA06800F017FE08B1FFF707
:1010C00049FB2B4F01264FF47A750121A06800F0EF
:1010D00016FE2749A0681C3100F0C4FC0021A0685E
:1010E00000F00DFE38680290A06800F0FBFD323879
:1010F000ADF80A006068CDE90006002202A9236865
:10110000A06800F079FE08B1FFF724FB284600F044
:10111000E9F801F023FDFFF787FE284600F0E2F82A
:1011200001F01CFDFFF7D6FB284600F0DBF801F0CC
:1011300015FD01F025FC284600F0D4F8C5E70000B5
:10114000B800002054686973206120474658207514
:1011500073616765206578616D706C652061707082
:101160006C69636174696F6E2E00000000000020DE
:10117000843100002DE9F047C7880446181D164643
:101180008946B0FBF7F1B0FBF7F207FB12009A19A2
:101190003A44D21CB2FBF7F2DDF820A001E024684B
:1011A000491E0029FBD13D1A8846B54216D818E0E1
:1011B000BAF1000F05D0211809EB08002A46091DD5
:1011C00004E0204409EB08012A46001DFFF7D4F88B
:1011D00000202468761BA844B74201D9354600E0B8
:1011E0003D46002EE4D1BDE8F087000030B5024650
:1011F00069B101F011FA0021084C0BE001EB410349
:1012000004EB830315685B88AB4202D111600020B8
:1012100030BD491C8142F1D3052030BD7C00002047
:1012200008B501216A46FFF74FF8009808BD70B570
:10123000044600252846FFF798FA21686268086886
:1012400090420ED9401E08600178238AE26801FBB3
:101250000325227A2168101AC0B20A79824200D28C
:1012600008710020FFF783FA284670BD70B5054667
:101270000C460020FFF779FAE868298A201AB0FBAB
:10128000F1F12A681068431C13600170BDE87040DA
:101290000020FFF76CBA10B530B1017A42680368DC
:1012A000891AC9B21A6006E00E2010BD03681A68D8
:1012B000541C1C601170491EC9B2F7D2006800218D
:1012C0000171084610BD00F180400068002800D080
:1012D0000120704708B500F18040002101600068DE
:1012E000009008BD4FF47A71484300F001B8000047
:1012F00000283ED01F49204A096800BF00BF00BF38
:1013000000BF00BF00BF00BF00BF91422FD000BF91
:1013100000BF00BF00BF00BF00BF00BF00BF00BFD5
:1013200000BF00BF00BF00BF00BF00BF00BF00BFC5
:1013300000BF00BF00BF00BF00BF00BF00BF00BFB5
:1013400000BF00BF00BF00BF00BF00BF00BF00BFA5
:1013500000BF00BF00BF00BF00BF00BF00BF00BF95
:1013600000BF00BF00BF00BF00BF00BF00BF01380B
:10137000C3D17047780000200024F40000283ED03C
:101380001F49204A096800BF00BF00BF00BF00BF5F
:1013900000BF00BF00BF91422FD000BF00BF00BF01
:1013A00000BF00BF00BF00BF00BF00BF00BF00BF45
:1013B00000BF00BF00BF00BF00BF00BF00BF00BF35
:1013C00000BF00BF00BF00BF00BF00BF00BF00BF25
:1013D00000BF00BF00BF00BF00BF00BF00BF00BF15
:1013E00000BF00BF00BF00BF00BF00BF00BF00BF05
:1013F00000BF00BF00BF00BF00BF0138C3D17047AE
:10140000780000200024F40000F01F020121914028
:101410004009800000F1E020C0F8801170474907C2
:10142000090E002806DA00F00F0202F1E02282F82D
:10143000141D03E000F1E02282F8001400F01F0206
:10144000012191404009800000F1E020C0F88012A5
:10145000C0F800117047000B40B270470121B1EB9A
:10146000507F01D101207047002070470121B1EB6E
:10147000507F01D101207047002070472DE9FC47C3
:10148000074640790C46DFF804A100EBC0010AEBE7
:101490008106307F10B10820BDE8FC87C6E9002333
:1014A000207B0128207802D800F00BFE01E000F03C
:1014B00047FE4FF00009CDF80090CDF80490207859
:1014C0004B464A46012100F0A4FD60784FF0FF35FD
:1014D000FF2806D0804600F0F4FD404600F0DDFD18
:1014E00000E0A846A078FF2809D000220546012385
:1014F000CDF800901146CDF8049000F08AFDE07818
:10150000FF2804D000F01CFEE07800F0C6FD7879DA
:10151000E17800EBC0020AEB82008177386822781C
:10152000C0F80825C0F80C85C0F81055A168C0F8AF
:101530002415227B617B01B10121012A04D0022AFA
:1015400005D0032A08D105E041F0020104E041F092
:10155000040101E041F00601C0F854156179C0F8BA
:10156000C015316811B14021C0F804130721C0F83B
:101570000015306820B1217997F90400FFF74FFF7B
:10158000484686F81D900121317785E7D800002074
:101590001FB5069C00918DF8042002938DF80C4035
:1015A0000022694600F036F804B010BDF8B5417964
:1015B000174A01EBC10102EB81050122296859B1EB
:1015C00090F9041001F01F0302FA03F3490989009E
:1015D00001F1E021C1F8803104682868002670B16B
:1015E000701EC4F80803687F48B162614FF48277C7
:1015F0003946204601F006F90028F9D06E77C4F884
:101600001861D4F818010090C4F800652E77F8BD71
:10161000D80000202DE9F04105460F4640791549D4
:1016200000EBC00001EB80041646607F10B1112072
:10163000BDE8F081206820B116F0140F01D101201F
:10164000607797E80F0004F10C0888E80F0094F821
:10165000210020F0070084F82100A07FFF2801D09E
:1016600000F02FFD33463A4621462868BDE8F04198
:1016700001F0CCBAD80000202DE9F04105460079F0
:10168000164F904607EB40140E46E07E10B108203E
:10169000BDE8F081707F20772846FFF77DF85FEA8C
:1016A000080060603169216003D0317F2846FFF770
:1016B0007FFB287907EB4010007F0028286801D0C5
:1016C000082100E00421C0F800150020E075207614
:1016D000A0750121E176A076DAE70000FC00002089
:1016E0002DE9F047054600793F4E904606EB401441
:1016F0000F46207F18B10846FFF7B8FE30B12846E4
:1017000000F074F820B11120BDE8F0871020FBE74D
:1017100084F81680A7600027A78228794FF0010877
:1017200006EB40143E46207F0028286825D04FF461
:101730009079494601F081F84FF4AC7A5146286817
:1017400001F07BF82868A17DA268C0F84425C0F8A4
:1017500048152868C0F808806068F0B949462868CC
:1017600001F066F880465146286801F061F858EAB1
:101770000001F3D058BBA7750FE04FF48E7A5146A5
:1017800001F04AF82868C0F808802146286801F06E
:10179000DFFA61684FF4807089B13046B4E7514692
:1017A000286801F034F810B9A08A4845F7D1A08A1A
:1017B000484505D02146286801F0CAFA00E0814674
:1017C000A08AA17D8842EAD3A08A484501D10F268C
:1017D000D1E75146286801F01AF80028F9D02868A6
:1017E000C0F80C80C7E70000FC0000200079044925
:1017F00001EB4010807D002800D0012070470000E0
:10180000FC00002070B5044600791149002601EB68
:10181000401520682A7FC0F80065686888B1207983
:1018200001EB4010007F0028206801D0094901E049
:1018300008498C39C0F808132068FFF70CFEFFF741
:10184000E3FD204601F000F8EE766E6070BD00000A
:10185000FC000020100302000FB408B50399002912
:1018600004D004AA00926A4600F00FF801B05DF8B7
:1018700014FB10B582680446002A05D0D4E904039D
:10188000216898470020A06010BD2DE9FC479146D3
:101890000C00804676D014F8011B39B125290ED0F2
:1018A0004046FEF7FDFF20780028F4D198F80C00A0
:1018B000002867D04046BDE8FC47FFF7DABF0020AC
:1018C000012221782B291BD02D2902D0302908D1C3
:1018D00002E040F0010001E040F00200641C002A38
:1018E000EFD100252A290ED02178A1F130020A2A51
:1018F00011D205EB850201EB4205641C303DF1E796
:1019000040F00400EAE7D9F800100B1DC9F80030D8
:101910000968641C0D44217800232E290BD114F88A
:10192000011FA1F130020A2A05D203EB830201EB69
:101930004203303BF3E76C290DD068290BD06929AD
:1019400021D00BDC252918D0582931D063290ED09D
:10195000642915D117E014F8011FECE7702969D04C
:10196000732932D075291BD0782909D120E0D9F804
:101970000000011DC9F8001001784046FEF790FFF5
:10198000641C90E76CE0D9F800100A1DC9F800202B
:101990000968CDE900500A224046FFF7B5F9EFE7A4
:1019A000D9F800100A1DC9F8002009680A2206E0CB
:1019B000D9F800100A1DC9F8002009681022CDE9E5
:1019C0000050404601F018FBDAE7D9F80010002774
:1019D0000A1DC9F800200E68C00705D112E0404674
:1019E000761C7F1CFEF75CFF31780029F7D104E0FC
:1019F000202140466D1EFEF753FFBD42C0D9002D89
:101A0000F6D1BDE74EB13046FEF7DAFC074604E0FA
:101A1000202140466D1EFEF743FFBD4206D9002D32
:101A2000F6D103E04046761CFEF73AFF31780029F4
:101A3000F8D1A5E7D9F80000011DC9F80010056824
:101A400030214046FEF72CFF78214046FEF728FF64
:101A500008200021CDE90001034610222946B0E705
:101A6000BDE8FC871CB5002200920192C2699288F1
:101A7000ADF80420C2695288ADF806200A466946CE
:101A800000F001F81CBD2DE9F0478146C0690C4605
:101A9000904681882288914203D340886188884299
:101AA00002D20720BDE8F0872079002600F0010768
:101AB0001BE0002515E0E1883844891B491E01FB25
:101AC000005038F81000010A41EA002083B2608813
:101AD000304482B22088284481B2484600F0F0FEAB
:101AE0006D1CA088A842E6D8761CE088B042E0DCF5
:101AF0000020D7E72DE9FF5F0C46B1F90450C1691A
:101B0000904683469A462288A08800268B88121A1F
:101B10003746934206DB62884988101A4FF0010964
:101B2000814277DA072004B0BDE8F09FBAF1000FD8
:101B300072D02188881B01D44A1B33D5701CCDF884
:101B40000090CDE90180084483B260880021401BE9
:101B500082B2584600F0C0FFCDE900982188681C89
:101B60000390084483B260880021801B82B25846EB
:101B700000F0B2FFCDE9009821880398084483B2B1
:101B800060880021304482B2584600F0A5FFCDE9BC
:101B9000009821880298084483B260880021284474
:101BA00082B233E009EB4601CDF80090CDE9018126
:101BB0008BB26188491B8AB281B2584600F08CFF13
:101BC00009EB4500CDE9009883B203906088801B43
:101BD00082B22088401B81B2584600F07DFFCDE9DB
:101BE0000098039883B26088304482B22088401BFA
:101BF00081B2584600F070FFCDE9009860880299E4
:101C0000284482B220888BB2801B81B2584600F0F3
:101C100063FF51E061E0FFE760884346284482B2F9
:101C20002088304481B2584600F04AFE608843461E
:101C3000284482B22088801B81B2584600F040FEC2
:101C400060884346304482B22088284481B2584696
:101C500000F036FE60884346304482B22088401B44
:101C600081B2584600F02CFE60884346401B82B289
:101C70002088801B81B2584600F022FE60884346CF
:101C8000401B82B22088304481B2584600F018FED2
:101C900060884346801B82B22088401B81B2584630
:101CA00000F00EFE60884346801B82B220882844E4
:101CB00081B2584600F004FE002F07DC761C36B2D5
:101CC00007EB4600401C07B2002F06DD6D1E2DB24B
:101CD000684207EB4000401E07B2B542BFF626AF90
:101CE000002020E7C0694088704710B504460068AE
:101CF0008047002802D1E2690121117010BD82697C
:101D0000084610472DE9FC47C3690C468146988870
:101D100009884FF000081546C446884203D25A8805
:101D2000A688B24206D36288904206D25888E388D9
:101D3000984202D20720BDE8FC87A388E688CF1A24
:101D4000A2EB060000D57F42002800DA404287421D
:101D500002DDB4F808C001E0B4F80880994201D06F
:101D6000B24210D1581AB31A00D55B4263449BB2F9
:101D7000CDE90035002800DA4042404483B24846AD
:101D800000F0AAFE36E0B8F1000F15D000260FE0F3
:101D9000B4F90600CDE90005A0886288304483B21A
:101DA0002088304481B24846FFF7C8F8761CB6B2A6
:101DB0002089B042ECD81DE0BCF1000F14D0002601
:101DC0000EE0E088304400B2CDE900056088A388C9
:101DD000304482B221884846FFF7B0F8761CB6B28C
:101DE0002089B042EDD805E030B2CDE90005484683
:101DF000FFF7A4F800209EE72DE9FE4F81460888F2
:101E00000C9DADF80800D9F81C0088464C88418824
:101E100028781F46081A9346A04202DA0720BDE838
:101E2000FE8F00264FF00A0A2BE00A2A2ED0CDE9B9
:101E3000004B02AB2946484601F038F9B95D687895
:101E4000081AC0B220292CD0696811F8200000BF00
:101E5000D9F81C108A88121ABDF8080082420FDADD
:101E60000D9888B1B8F80000ADF8080028784988C6
:101E7000B0FBFAF22244024494B2081AA04203DBF7
:101E8000761CBA5D002AD0D10020C8E7B8F800005F
:101E9000ADF808002878B0FBFAF12144084484B278
:101EA000CCE728784008D3E72DE9FE4F9A468B8887
:101EB00015468146581B87B2C8880C46411BDDF881
:101EC00030C08EB2012B13D0012811D0B3EB450FD7
:101ED0000ED3B0EB450F0BD3D9F81C202188B2F8F4
:101EE0000480884507D25288B4F80280424502D265
:101EF0000720BDE8FE8FBCF1000F06D0CDE9000A37
:101F00006288484600F0E8FD50E0ADF800106088B7
:101F1000ADF802002088A18852460844ADF80400BC
:101F20006088ADF80600ADF8085069464846FFF7EE
:101F3000E9FE2088ADF80000608852463044ADF8D4
:101F400002002088A1880844ADF804006088694632
:101F50003044ADF806004846FFF7D4FE2088ADF8BF
:101F60000000608852462844ADF802002088ADF891
:101F70000400608869463044ADF806004846FFF723
:101F8000C1FE208852463844ADF80000608869469A
:101F90002844ADF8020020883844ADF80400608879
:101FA0003044ADF806004846FFF7ACFE0020A0E73D
:101FB00030B4C5690346A8796A8810F0010FA88873
:101FC0000AD004461046A97141B101290BD002295B
:101FD00004D003290BD106E01446F4E7DA695480F3
:101FE000DA69908003E0DA695080D86984805A69A0
:101FF00030BC084610471CB5C3695A889B88CDE998
:1020000000210022114600F067FD1CBDC0698088D8
:1020100070472DE9FF411C46DDE90A7815460E465A
:10202000684600F063F846EA450141EA840141EA66
:10203000072242EA0841009A00EB8200C0F800172C
:10204000BDE8FF812DE9FF411C46DDE90A78154610
:102050000E46684600F058F846EA450141EA840118
:1020600041EA072242EA0841009A00EB8200C0F8E8
:102070000017BDE8FF811CB5002100910B4601222D
:102080000191FFF7DFFF1CBD1CB500220B4600923B
:1020900011460192FFF7D6FF1CBD1CB5002100912F
:1020A0000B46012201911146FFF7B3FF1CBD1CB581
:1020B000002100910B46012201911146FFF7C2FF5A
:1020C0001CBD01B5684600F011F8009A012191404D
:1020D000C0F80C1508BD01B5684600F023F8009A59
:1020E00001219140C0F80C1508BD000001682029AD
:1020F00002D24FF0A040704701F01F01016001487B
:1021000070470000000300500168202902D24FF000
:10211000A040704701F01F010160014870470000B6
:10212000000300500168202902D24FF0A040704700
:1021300001F01F01016001487047000000030050DA
:1021400001B56846FFF7D2FF009A01219140C0F81F
:10215000081508BD01B56846FFF7D6FF009A0121B2
:102160009140C0F8081508BD01B56846FFF7DAFFD1
:10217000009A01219140C0F8081508BD30B5124BF6
:1021800001460020D3F81044224609E0157A854222
:1021900005D1401C0A28F7DB4FF0FF3030BD5268F4
:1021A000002AF3D1421CF9D00872D3F810242AB1C6
:1021B00052684A60D3F81024516030BD0022C3F841
:1021C00010144A6030BD00001C020020F0B595B02C
:1021D0001C4615460F4608461A9E00F0EDFA1821D7
:1021E00009A8FEF7E2F80E96CDE90954002308226B
:1021F00003A9384600F0FAFA059806900498ADF85D
:102200001C0000208DF820000398082600F0030031
:10221000012802D002281DD03CE003983346850AED
:10222000C0F3C2008DF81E0003980FA9C0F3800010
:102230008DF81F000398C0F38314A200384600F005
:10224000D5FA09A8009006AB22460FA9284600F04F
:102250000FFA1FE00398840DC0F3C2008DF81E0032
:102260000398C0F380008DF81F00082C01D225468A
:1022700000E0082533462A460FA9384600F0B6FA92
:102280002E44641B09AB06AA29460FA800F040F9AA
:10229000002CEAD1384600F098FA15B0F0BD70472E
:1022A000012000F079BD000010B50448FFF7AAFA3C
:1022B000BDE81040002000F06FBD00001C000020B1
:1022C00008B5034A00924023024AFFF77FFF08BD8A
:1022D0006D2B00001C0100200A4A012902EBC000FE
:1022E00007D0022907D0032907D0042907D00020EE
:1022F000704702207047042070470079704740798A
:102300007047000038BC020010B5FFF7C9FF042178
:102310000348FFF733FF02490120487210BD000057
:10232000240000202DE9FE4FFEF7CAFA10B100206C
:10233000BDE8FE8F72480021C0F81814BFF34F8F1C
:10234000D0E9014604EA060100EB81014FF00009E3
:102350000AE000BFC1F3891202EB9151641C0C44E6
:1023600004EA060100EB8101C9688A07F2D0002166
:102370006A46804604EA060008EB8000641CC068D8
:1023800042F82100491C43460229F3D3009800F08B
:102390000300022806D0012800984FD0C0438007D0
:1023A0007ED0A8E000985022810D8A46B2EB905F63
:1023B00000D850210D4665F39F50009008315148D8
:1023C00000F0B1F907006CD000F0F6F94B46082296
:1023D0006946384600F010FA04EA0600311A89000E
:1023E000091D09F1080B8D4221D9454E0C3631B13A
:1023F000CAB208EB8000691A91460C3004E03046FE
:10240000EAB2002691463146CDB201465B463846D7
:1024100000F0F2F90BEB090326B12A4631463846A3
:1024200000F0EAF90AF1030004EB90043BE008EB4A
:1024300080015B462A4638460C31F1E7C0F3831031
:10244000062800D30620009960F38911C1F3831098
:10245000801C009181002B4800F065F907004AD0EC
:1024600000F0AAF94B4608226946384600F0C4F944
:1024700009F1080900250DE004EA060008EB8001D7
:102480004B46042238460C31641C00F0B5F909F1C2
:1024900004096D1C0098C0F38310A842ECD801E039
:1024A0000BE028E03FB3D8F81054D8F8180446469B
:1024B00090B1384600F089F91DE0D3F818040028DF
:1024C0003FF436AF17E0687A012804D12A6828461D
:1024D0003946126890476D68002DF4D1384600F0F7
:1024E00074F90020FEF741F9D6F8180400B97460B9
:1024F0000020FEF73CF9FEF7E3F980F0010017E752
:102500001C020020E0BA020000231A4600F0D8BBEB
:102510002DE9F0470E4680461C46924608293ED8D3
:1025200094F80C90002020731946104600F0FAF938
:102530000025B54206D218F805201AA12046FFF75B
:102540008BF903E019A12046FFF786F96D1C082DD1
:10255000EFD317A12046FFF77FF90025B54210D22F
:1025600018F80570FDF704FF0068C05D10F03E0F1D
:1025700001D03A4600E02E220EA12046FFF76CF96A
:1025800003E00DA12046FFF767F96D1C082DE5D388
:1025900001222146504600F0A7F984F80C90BDE8CE
:1025A000F087000020253032780000002020200035
:1025B0007C0000002563000020000000114810B5D9
:1025C000FF218160002101604160C0F81814C0F84B
:1025D000141480F81C140C4800F0F5F800280FD1F2
:1025E0000A480B490B4B401AC108002005E000BF08
:1025F00000EB400223F82200401C8842F8D3002060
:1026000010BD00001C020020E0BA020068BC0200FD
:1026100038BC02007C00002002480349401AC00870
:102620007047000068BC020038BC020013B5684661
:10263000FEF7DCFD08B100201CBD0248009950F8EF
:1026400031001CBD38BC020070B508480125D0F827
:10265000104480F81C5405E06572216820464968E2
:1026600088476468002CF7D170BD00001C02002070
:102670002DE9FF4781460C9D00200C462F7B2873D7
:10268000984616462946184600F04CF9072E42D2C5
:10269000DFE806F004090F161F2A360049462846CF
:1026A000FFF7DAF837E0494628462268FFF7D4F802
:1026B00031E0D4E9002349462846FFF7CDF82AE067
:1026C000A0680090D4E9002349462846FFF7C4F8E3
:1026D00021E0D4E90201CDE90001D4E90023494613
:1026E0002846FFF7B9F816E004F1080007C88DE89E
:1026F0000700D4E9002349462846FFF7ADF80AE071
:1027000004F108000FC88DE80F00D4E90023494602
:102710002846FFF7A1F800222946404600F0E4F8D9
:102720002F73BDE8FF872DE9F041058A80462D1FF4
:102730004819C01CB0FBF5F0C6B24046FEF777FD65
:10274000041E19D00020207101206071E58000274F
:102750002546761EC4F800800BE04046FEF767FD74
:1027600060B16179491C6171286005467F1CC0F821
:102770000080B742F1D32046BDE8F081204600F04A
:1027800002F80020F8E72DE9F041457901466B1E7B
:10279000002201E00968521C9A42FBD30F680146EF
:1027A000002605E038460C68FEF760FD2146761CE1
:1027B000AE42F7D3BDE8F08108B501216A46001D9D
:1027C000FDF75BFD08BDFEF766BD38B50446001D8C
:1027D00001216A46FDF75EFD009810F0FF0F04D15D
:1027E0002046BDE83840FFF7CEBF38BD38B50124DC
:1027F0000094FEF7BFFC38BD38B500240094FEF706
:10280000B9FC38BD4058002800D00120704740581E
:10281000002800D00120704708B5002242504058DF
:10282000009008BDD0F80403084000D00120704794
:102830004058002800D00120704708B500224250BF
:102840004058009008BD000070B5034600791B4950
:1028500001EB40101968027F4FF0FF30002AD1F8D9
:102860000C25D1F81465D1F80855D1F8104504D0DD
:10287000C1F80C05C1F8140503E0C1F81405C1F84E
:102880000C051968C1F80805C1F81005501C02D0E4
:102890001046FFF7F0FB701C02D03046FFF7EBFB51
:1028A000601C02D02046FFF7E6FB681C04D02846D7
:1028B000BDE87040FFF7DFBB70BD0000FC000020EA
:1028C000F0B40D46C16914468A884988954208D2F9
:1028D0008C4206D2866821462846B446F0BC1A4689
:1028E0006047F0BC7047000010B50C46C17949B193
:1028F0001AB109A12046FEF7AFFF2046BDE81040FF
:10290000FEF7B7BF007A0028F3D0044804A102689C
:102910002046FEF7A1FFECE70D0A0000540000205E
:102920002573000070B50446C0790D4600281CD1FF
:10293000207A50B1A179A088FFF7CEFC0B4951F85D
:1029400020200BA12846FEF787FFA0880021FFF773
:102950006DFE03460549A079143951F82020284618
:10296000BDE8704003A1FEF777BF70BD54000020A2
:10297000257300003C25733E2025733A200000009B
:102980002DE9F041524D86B0524CD5E90301CDE915
:102990000101A068FFF73AFB4008ADF80400A06809
:1029A000FFF7A0F90646A068FFF730FBB6FBF0F092
:1029B000ADF80600A068FFF795F9ADF80800D5E975
:1029C0000501CDE90301A068FFF720FB4008ADF841
:1029D0000C00A068FFF786F90546A068FFF716FB14
:1029E000B5FBF0F0ADF80E00A068FFF77BF9ADF88D
:1029F00010000121A068FFF7DBFA00252E464DE00C
:102A0000A81CADF80C00ADF80450B01CADF8066081
:102A1000ADF80E00A068FFF7F9FAC5F1000800EB69
:102A20004800ADF80800A068FFF75CF9774200EBBA
:102A30004700ADF80A00A068FFF7E8FA00EB48008D
:102A4000001FADF81000A068FFF74CF900EB47003D
:102A5000001FADF812000020AF19009007EB8700AF
:102A60004300022201A9A068FFF71EFA08B1FDF792
:102A700071FE01200090784200EB80004FF6FF715C
:102A800001EB4003022203A9A068FFF70DFA08B189
:102A9000FDF760FEAD1D0836ADB2B6B2A068FFF717
:102AA000B5FA001F00EBD070B5EB600F08DCA06832
:102AB000FFF718F9001F00EBD070B6EB600F9FDD39
:102AC0000021A068FFF774FA06B0BDE8F0810000AD
:102AD0008431000000000020F8B515460246C069A8
:102AE0001C460E46DDE90637818840888E420FD2AB
:102AF00085420DD2891BA14200DA8CB2401B98425C
:102B000000DA83B20097D768224629463046B84794
:102B1000F8BD70B50546C87D0C4600284FF4847199
:102B200028460AD0FFF778FED5F81805627EE168DE
:102B30008854607E401C607670BDFFF76DFED5F84E
:102B4000180570BD1FB501238DF800308DF80810F1
:102B50000192D0E90012684690471FBD02484CF22E
:102B600018618068FFF747BA0000002010B5084CD4
:102B70000020D2B22070201DFEF7B2FD08B1FDF793
:102B8000E9FD6078002802D021780029FAD010BD34
:102B9000180000202DE9F04107461C4615460E4658
:102BA0002A2000F0DCFA380A00F0E2FAF8B200F06D
:102BB000DFFA280A00F0DCFAE8B200F0D9FA2B209C
:102BC00000F0CDFA300A00F0D3FAF0B200F0D0FAFB
:102BD000200A00F0CDFAE0B200F0CAFABDE8F041F8
:102BE0002C2000F0BCBA000008B500220092CAB246
:102BF000014600230448FEF7CBFC002803D0BDE8C3
:102C00000840FDF7A7BD08BDB88902002DE9F843CB
:102C1000044610681E4615460F464FF0000810B1D6
:102C2000FEF71CFCF8B1A86810B1FEF717FCD0B194
:102C300028792968C4F84415C4F84805287BA96890
:102C4000C4F83415C4F838054FF48C754046C4F800
:102C50001881D4F818110091F2074FF0010107D044
:102C6000C4F8501506E087F81D801020BDE8F883F1
:102C7000C4F85005B20702D5C4F8401501E0C4F805
:102C80004005300700D42161386848B146F3800020
:102C9000401C4FF040000FD0C4F804030020E5E7CB
:102CA00029462046FFF7AEFD0028F9D0B87FFF285F
:102CB000F4D0FFF745FAF1E7C4F80803EEE70000A7
:102CC0002DE9F843214C8846054691461F46694642
:102CD0001846A668FDF7B4FD70B30098811C002269
:102CE0000AE000BF01EA060C59F8223004EB8C0C14
:102CF000491C521CCCF80C30BA42F3D30246401C9B
:102D0000304004EB80002B0CC36002EA060004EBA9
:102D10008002E80652F80C0F02D540F0040001E0F2
:102D200020F0040065F3C50067F3891068F39F2065
:102D300020F00300401C106094F81C0402E000BF67
:102D4000FFF7F0FA0028FBD1BDE8F8831C02002051
:102D500070B50C4605464FF48E71FFF75DFDA18AF4
:102D6000A068415CA08A401CA082C5F81C1570BDFB
:102D70001FB500228DF800208DF8081081680191A0
:102D80008275D0E90012684690471FBD01490120B5
:102D9000087070471800002010B588B00446202243
:102DA0000E496846FDF7E8FA06200090C01F019022
:102DB000029003904FF0EB7006900CB1084A00E0CF
:102DC000002269460748FEF757FC08B1FDF7C2FC30
:102DD0000448001F447008B010BD0000C0BA0200D3
:102DE0008D2D00001C0000202DE9FF470C460546F4
:102DF0004FF40071FFF716FD01274FF4017800260C
:102E000018B34FF4927949462846FFF700FDE0B128
:102E100049462846FFF700FDC5F80883A07E00B9A3
:102E20006F6002208DF80000D5F88004C5F880049A
:102E30000390E07D8DF80800E0680190E675267645
:102E4000D4E900126846904727E004212846FFF79E
:102E5000E9FC10B34FF484712846FFF7D8FCE0B1C9
:102E600021462846FFF755FEE07D617E884214D159
:102E7000207E38B1617EE268E0752069E0602676E8
:102E8000667607E0A07E00B96F60C5F80883E67536
:102E9000617EE2682046FFF755FE4FF48E7841468A
:102EA0002846FFF7B4FC88B1A08AA17D884204D2ED
:102EB00021462846FFF74CFF08E041462846FFF729
:102EC000ABFCA17D11B12046FFF752FF4FF4A27871
:102ED00041462846FFF79BFC002812D04146284671
:102EE000FFF79AFCA07E00B12F60E07D002808D09B
:102EF000E675617EE26804B02046BDE8F047FFF762
:102F000021BEBDE8FF872DE9FF410C464FF49277C3
:102F100005463946FFF78CFC0026C0B139462846E5
:102F2000FFF78BFC02208DF80000D5F88004C5F86F
:102F300080040390D5F83C058DF80800E068019006
:102F4000E6752676D4E900126846904724E04FF4EF
:102F5000887739462846FFF76BFCE8B139462846A2
:102F6000FFF76BFCD5F83C05C1B2E07D884213D178
:102F7000207E60B1E268D5F8000220F02000C5F89C
:102F80000002207EE0752069E060267601E0E675AB
:102F9000E2682046FFF7D6FD4FF4A277394628466F
:102FA000FFF746FC68B139462846FFF746FCE07D4E
:102FB00038B1E675D5F83C05E268C1B22046FFF7A6
:102FC000C1FD4FF4907631462846FFF731FC0028CA
:102FD0000FD031462846FFF730FCA07D002808D0EE
:102FE000D5F84C0504B0C1B22046BDE8F041FFF76A
:102FF000BFBEBDE8FF8100002DE9F05F8346DDE93B
:103000000A4A994690460D460846012703E000BF4C
:10301000B0FBF8F07F1C4045FAD2B94500D94F46C5
:103020005FEACA7012D18CB15FEA8A7002D5B9F139
:10303000000F01D0202607E0302605E03146584633
:10304000641EFDF72DFC0CB1A742F7D35FF001061B
:10305000B9F1010F02D9A9F1010903E0B5FBF6F0BE
:10306000404502D306FB08F6F2E7DFF83C9000BFCC
:10307000B5FBF6F000FB165519F800105846FDF7A1
:103080000FFCB6FBF8F6002EF2D15FEACA7009D049
:10309000002C07D0A74205D220215846641EFDF718
:1030A000FFFBF5E7BDE8F09FA4BA02002DE9FF4F52
:1030B000487883B0101AC0B20C4600904968984610
:1030C00011F82000C01D4FEAD009202A01D00027A6
:1030D00034E0B8F80000217800EB51003AE0002617
:1030E00028E000250098022101EB800B109807FBD7
:1030F000096A384401906168C5F1070231F80B0094
:10310000A1680144012011F80A10904001420BD03F
:10311000B8F8000005EBC601084481B20198119B84
:1031200082B20398FFF7CCFB6D1CEDB2082DE2D301
:10313000761CB6B24E45D4D37F1CBFB22078B842BD
:10314000CDD86168009811F82000E1780144B8F802
:1031500000000844A8F8000007B0BDE8F08F01B5F2
:103160002B20FEF7B8FF01216846FFF73DFD08BDA3
:1031700001B52B20FEF7F8FF01216846FFF734FD6B
:1031800008BD000005000000000000000A0000006B
:10319000000000000000020000000000000002002B
:1031A000FFFFFFFFFFFFFFFFFFFFFFFFFFFFFFFF2F
:1031B000FFFFFFFFFFFFFFFFFFFFFFFFFFFFFFFF1F
:1031C000FFFFFFFFFFFFFFFFFFFFFFFFFFFFFFFF0F
:1031D000FFFFFFFFFFFFFFFFFFFFFFFFFFFFFFFFFF
:10AFC000FFFFFFFFFFFFFFFFFFFFFFFFFFDFFFFDB3
:10AFD000FFFEFFFFFFFEFFDFFFFEFFFDFFFEFFFFA7
:10AFE000FFFFFFDFFFFFFFFFFFFFFFFFFFFFFFFF91
:10AFF000FFFFFFFFFFFFFFFFFFFFFFFFFFFFFFFF61
:10B00000FFFFFFFEFFFEFFFFFFFFFFFFFFFFFFFF52
:10B01000FFFFFFFFFFFFFFFFFFFEFFFEFFFEFFFE44
:10B02000FFFFFFDFFFFFFFFFFFFFFFFFFFFFFFFF50
:10B03000FFFFFFFFFFFFFFFFFFFFFFFEFFFEFFFF22
:10B04000FFFFFFFFFFFFFFFFFFFFFFFFFFFFFFFF10
:10B05000FFFFFFFFFFFFFFFFFFFFFFFFFFFFFFFF00
:10B06000FFFFFFFFFFFFFFFFFFFFFFFFFFFFFFFFF0
:10B07000FFFFFFFFFFFFFFFFFFFFFFFFFFFFFFFFE0
:10B08000FFFFFFFFFFFFFFFFFFFFFFFFFFFFFFFFD0
:10B09000FFFFFFFFFFFFFFFFFFFFFFFFFFFFFFFFC0
:10B0A000FFFFFFFFFFFFFFFFFFFFFFFFFFFFFFFFB0
:10B0B000FFFFFFFFFFFFFFFFFFFFFFFFFFFFFFFFA0
:10B0C000FFFFFFFFFFFFFFFFFFFFFFFFFFFFFFFF90
:10B0D000FFFFFFFFFFFFFFFFFFFFFFFFFFFFFFFF80
:10B0E000FFFFFFFFFFFFFFFFFFFFFFFFFFFFFFFF70
:10B0F000FFFFFFFFFFFFFFFFFFFFFFFFFFFFFFFF60
:10B10000FFFFFFFFFFFFFFFFFFFFFFFFFFFFFFFF4F
:10B11000FFFFFFFFFFFFFFFFFFFFFFFFFFFFFFFF3F
:10B12000FFFFFFFFFFFFFFFFFFFFFFFFFFFFFFFF2F
:10B13000FFFFFFFFFFFFFFFFFFFFFFFFFFFFFFFF1F
:10B14000FFFFFFFFFFFFFFFFFFFFFFFFFFFFFFFF0F
:10B15000FFFFFFFFFFFFFFFFFFFFFFFFFFFFFFFFFF
:10B16000FFFFFFFFFFFFFFFFFFFFFFFFFFFFFFFFEF
:10B17000FFFFFFFFFFFFFFFFFFFFFFFFFFFFFFFFDF
:10B18000FFFFFFFFFFFFFFFFFFFFFFFFFFFFFFFFCF
:10B19000FFFFFFFFFFFFFFFFFFFFFFFFFFFFFFFFBF
:10B1A000FFFFFFDEFFFEFFDEFFFFF7FDFFDFFF9D7E
:10B1B000FFDFF7FFF7DEFFBFFFBFFFDFFFFFFFDFB0
:10B1C000FFDFFFFFFFDFF7DFFFFFFFDFFFDFFFFF37
:10B1D000FFFEFFFEFFFEF7DFF7BEFFFFFFDFFFDF33
:10B1E000F79EF7DEE75AB5F49CF09D31A552BE15E7
:10B1F000D6D8E73BE75BF7BDF7DEF7BEFFDFFFDF43
:10B20000FFFFF7DEFFFFF7BEF7DEFFFFFFFFFFDF09
:10B21000FFFFFFFFF7DEF7BEFFDFFFDFF7DFF7DF40
:10B22000FFDFFFDFFFDFFFFFFFFFFFFFFFFFFFFF8E
:10B23000FFFFFFFFFFDFFFDFFFFFFFFFFFFFFFFF5E
:10B24000FFFFFFFFFFFFFFFEFFFFFFFFFFFFFFDF2F
:10B25000FFDFFFDFFFDFFFFFFFFFFFFFFFFFFFFF5E
:10B26000FFFFFFFFFFFFFFFFFFFFFFFFFFFFFFFFEE
:10B27000FFFFFFFFFFFFFFFFFFFFFFFFFFFFFFFFDE
:10B28000FFFFFFFFFFFFFFFFFFFFFFFFFFFFFFFFCE
:10B29000FFFFFFFFFFFFFFFFFFFFFFFFFFFFFFFFBE
:10B2A000FFFFFFFFFFFFFFFFFFFFFFFFFFFFFFFFAE
:10B2B000FFDFFFDFFFDFFFDFFFDFFFDFFFFFFFDF7E
:10B2C000FFDFFFDFFFDFFFFFFFFFFFFFFFFFFFFFEE
:10B2D000FFFFFFFFFFFFFFFFFFFFFFFFFFFFFFFF7E
:10B2E000FFFFFFFFFFFFFFFFFFFFFFFFFFFFFFFF6E
:10B2F000FFFFFFFFFFFFFFFFFFDFFFFFFFFFFFFF7E
:10B30000FFFFFFFFFFFFFFFFFFFFFFFFFFFFFFFF4D
:10B31000FFFFFFFFFFFFFFFFFFFFFFFFFFFFFFFF3D
:10B32000FFFFFFFFFFFFFFFFFFFFFFFFFFFFFFFF2D
:10B33000FFFFFFFFFFFFFFFFFFFFFFFFFFFFFFFF1D
:10B34000FFFFFFFFFFFFFFFFFFFFFFFFFFFFFFFF0D
:10B35000FFFFFFFFFFFFFFFFFFFFFFFFFFFFFFFFFD
:10B36000FFFFFFFFFFFFFFFFFFDFFFFFFFFFFFFF0D
:10B37000FFFFFFFFFFFFFFFFFFFFFFFFFFFFFFFFDD
:10B38000FFFFFFFFFFFFFFDFFFFFF7DEFFDEFFFF37
:10B39000EF9EEFDEFFFEFFFFFFFFF7BEFFDFFFDFE9
:10B3A000F7DFFFFFFFFFFFDEFFFEFFFEFFFFFFFFF8
:10B3B000FFFEFFDEFFDFFFFFFFDFFFDFFFDEFFFF40
:10B3C000F7DDC6579D319D0F950E7C2A7C4C7C2C59
:10B3D0007C0D844E844E94D0AD93B5D5C658D6BB63
:10B3E000EF9CF7DEFFFFFFFEFFFEFFFEFFFEF7DE36
:10B3F000F7DFF7BFF7DFFFDEFFFFF7DEFFDFFFFF5F
:10B40000FFFEFFDFFFFFFFDFF7DFFFFFFFFFFFFFB5
:10B41000FFFFFFFFFFDFFFDFFFDFFFDFFFDFFFDFFC
:10B42000FFDFFFFFFFDFFFFEFFFFFFFFFFFFFFFF6D
:10B43000FFFFFFFEFFFEFFDFFFDFFFDFFFDFFFDFBE
:10B44000FFFFFFFFFFFFFFFFFFFFFFFFFFFFFFFF0C
:10B45000FFFFFFFFFFFFFFFFFFFFFFFFFFFFFFFFFC
:10B46000FFFFFFFFFFFFFFFFFFFFFFFFFFFFFFFFEC
:10B47000FFFFFFFFFFFFFFFFFFFFFFFFFFFFFFFFDC
:10B48000FFFFFFFFFFFFFFFFFFFFFFFFFFFFFFFFCC
:10B49000FFFFFFDFFFDFFFDFFFFFFFFFFFFFFFFF1C
:10B4A000FFFFFFFFFFFFFFFFFFFFFFFFFFFFFFFFAC
:10B4B000FFFFFFFFFFFFFFFFFFFFFFFFFFFFFFFF9C
:10B4C000FFFFFFFFFFFFFFFFFFFFFFFFFFFFFFFF8C
:10B4D000FFFFFFFFFFFFFFFFFFFFFFFFFFFFFFFF7C
:10B4E000FFFFFFFFFFFFFFFFFFFFFFFFFFFFFFFF6C
:10B4F000FFFFFFFFFFFFFFFFFFFFFFFFFFFFFFFF5C
:10B50000FFFFFFFFFFFFFFFFFFFFFFFFFFFFFFFF4B
:10B51000FFFFFFFFFFFFFFFFFFFFFFFFFFFFFFFF3B
:10B52000FFFFFFFFFFFFFFFFFFFFFFFFFFFFFFFF2B
:10B53000FFFFFFFFFFFFFFFFFFFFFFFFFFFFFFFF1B
:10B54000FFFFFFFFFFFFFFFFFFDFFFFFFFFFFFFF2B
:10B55000FFFFFFFFFFFFFFFFFFFFFFFFFFFFFFFFFB
:10B56000FFFFFFDFFFDFFFDEF7DEF7BECE56B5924F
:10B570009D0F9D50ADD2C676DF19F7DCF7DEFFDEFA
:10B58000F7BEF7BEF7BEF7BEFFDFFFDFFFDEFFDE71
:10B59000FFDFFFDFFFBFF7BFF7BFF7DDF7DDD6F84F
:10B5A00094CF9CF09D109D30A57084AD7C4D8CAFE8
:10B5B0007C2D846E6BEC6BEC742C73EC6BAB6BAC16
:10B5C0007BED94B0AD73BE16CE98DF3BF7BDF7BDF3
:10B5D000F7BDFFDFFFDFF7DEFFDEFFFEFFDEF7BDBB
:10B5E000FFFDFFDEFFDFFFDFFFDEFFFFF7DEF7DE41
:10B5F000F7DEF7DEFFDFFFDFFFDFFFDFFFDFFFDF6D
:10B60000FFDFFFFFFFFFFFFFFFFFFFFFFFDFFFFF8A
:10B61000FFFEFFFEFFFEFFDFFFDFFFDFFFDFFFFFBD
:10B62000FFFFFFFFFFFFFFFFFFFFFFFFFFFFFFFF2A
:10B63000FFFFFFFFFFFFFFFFFFFFFFFFFFFFFFFF1A
:10B64000FFFFFFFFFFFFFFFFFFFFFFFFFFFFFFFF0A
:10B65000FFFFFFFFFFFFFFFFFFFFFFFFFFDFFFDF3A
:10B66000FFFFFFFFFFDFFFDFFFFFFFFFFFDFFFDF6A
:10B67000FFDFFFDFFFFFFFDFFFDFFFFFFFFFFFFF5A
:10B68000FFFFFFFFFFFFFFFFFFFFFFFFFFFFFFFFCA
:10B69000FFFFFFFFFFFFFFFFFFFFFFFFFFFFFFFFBA
:10B6A000FFFFFFFFFFFFFFFFFFFFFFFFFFFFFFFFAA
:10B6B000FFFFFFFFFFFFFFFFFFFFFFFFFFFFFFFF9A
:10B6C000FFFFFFFFFFFFFFFFFFFFFFFFFFFFFFFF8A
:10B6D000FFFFFFFFFFFFFFFFFFFFFFFFFFFFFFFF7A
:10B6E000FFFFFFFFFFFFFFFFFFFFFFFFFFFFFFFF6A
:10B6F000FFFFFFFFFFFFFFFFFFFFFFFFFFFFFFFF5A
:10B70000FFFFFFFFFFFFFFFFFFFFFFFFFFFFFFFF49
:10B71000FFFFFFFFFFFFFFFFFFFFFFFFFFFFFFFF39
:10B72000FFFFFFFFFFFFFFFFFFDFFFFFFFFFFFFF49
:10B73000FFFFFFFFFFFFFFFFFFFFFFFFFFFFFFFF19
:10B74000FFFFFFFFF7DEFFDEF7BEBE14AD6E9CED20
:10B750009CCD8C8B73C97C2B73EC8CCF94F1A5732F
:10B76000B5F6CE99E77CEF5CF7BDFFDEFFFFFFFF8C
:10B77000FFFFFFDFFFDFF7DFF7DED6D9A5738CAD64
:10B7800094EE9D4F9D6F9D6F9D717C8E84D07C8FBC
:10B790007C6E742D742E742D744D7C4D73EC740C72
:10B7A0007C0C73EC6BAB636A6BAB73EC844E94B044
:10B7B000A553BDF5CE98DF1ADF1AEF7CFFFEFFFE22
:10B7C000FFDFF7BEFFFFFFFEF7BEF7BEF7DEF7DED7
:10B7D000F7DEF7DEF7DEFFDEF7DEF7DEFFDEFFDEA9
:10B7E000FFDEFFFEFFFEFFDEFFDEFFDEFFDFFFDF2F
:10B7F000FFDFFFDFFFDFFFDFFFDFFFDFFFDFFFDF59
:10B80000FFFFFFFFFFFFFFFFFFFFFFFFFFFFFFFF48
:10B81000FFFFFFFFFFFFFFFFFFFFFFFFFFFFFFFF38
:10B82000FFFFFFFFFFFFFFFFFFFFFFFFFFFFFFFF28
:10B83000FFFFFFFFFFFFFFFFFFFFFFFFFFDFFFDF58
:10B84000FFFFFFFFFFDFFFDFFFDFFFFFFFDFFFDFA8
:10B85000FFFFFFFFFFFFFFDFFFDFFFFFFFFFFFFF38
:10B86000FFFFFFFFFFFFFFFFFFFFFFFFFFFFFFFFE8
:10B87000FFFFFFFFFFFFFFFFFFFFFFFFFFFFFFFFD8
:10B88000FFFFFFFFFFFFFFFFFFFFFFFFFFFFFFFFC8
:10B89000FFFFFFDFFFDFFFFFFFFFFFFFFFFFFFFFF8
:10B8A000FFFFFFFFFFFFFFFFFFFFFFFFFFFFFFFFA8
:10B8B000FFFFFFFFFFFFFFFFFFFFFFFFFFFFFFFF98
:10B8C000FFFFFFFFFFFFFFFFFFFFFFFFFFFFFFFF88
:10B8D000FFFFFFFFFFFFFFFFFFFFFFFFFFFFFFFF78
:10B8E000FFFFFFFFFFFFFFFFFFFFFFFFFFFFFFFF68
:10B8F000FFFFFFFFFFFFFFFFFFFFFFFFFFFFFFFF58
:10B90000FFFFFFFFFFFFFFFFFFDFFFDFFFFFFFFF87
:10B91000FFFFFFFFFFFFFFFFFFFFFFFFFFFFFFFF37
:10B92000FFFFFFFFF7DEF7DEEF9DBE33BE2E9D0B60
:10B93000A54D94AB844B846C848D742C73EB636A3B
:10B940005B4A73EC7C4E7C2D94D0B5D3BE37CE7859
:10B95000DEFAEF7BEF9CDEF9AD93846D9D509D4E3A
:10B96000952F9D70956F7C8E63AE63B0638F63CEB1
:10B970006C0F63AE74316C106BCE740E740D7C4D15
:10B9800073EB73EB73EB740B740B73EB740B6B8ACD
:10B990006BAA6B896B6A73CC842E8C8FAD73C637A0
:10B9A000DEDAE71BEF9CFFFEFFFEFFFEFFDEFFFF80
:10B9B000FFFFFFFFF7DEF7DEFFDEFFDEF7DEFFDE75
:10B9C000FFDEFFDEFFFEFFFEFFDEFFDEFFDFFFDF4D
:10B9D000FFDFF7DFF7DFFFDEFFDEFFDEFFDEFFFE6C
:10B9E000FFFEFFFEFFFEFFFEFFFFFFFFFFFFFFFF6B
:10B9F000FFFFFFFFFFFFFFFFFFFFFFFFFFFFFFFF57
:10BA0000FFFFFFFFFFFFFFFFFFFFFFFFFFFFFFFF46
:10BA1000FFFFFFFFFFFFFFFFFFFFFFFFF7DEFFDF7F
:10BA2000FFFFFFFFFFDFFFDFFFFFFFFFFFDFFFDFA6
:10BA3000FFFFFFFFFFFFFFDFFFFFFFFFFFFFFFFF36
:10BA4000FFFFFFFFFFFFFFFFFFFFFFFFFFFFFFFF06
:10BA5000FFFFFFFFFFFFFFFFFFFFFFFFFFFFFFFFF6
:10BA6000FFFFFFFFFFFFFFFFFFFFFFFFFFFFFFFFE6
:10BA7000FFFFFFFFFFFFFFFFFFFFFFFFFFFFFFFFD6
:10BA8000FFFFFFFFFFFFFFFFFFFFFFFFFFFFFFFFC6
:10BA9000FFFFFFFFFFFFFFFFFFFFFFFFFFFFFFFFB6
:10BAA000FFFFFFFFFFFFFFFFFFFFFFFFFFFFFFFFA6
:10BAB000FFFFFFFFFFFFFFFFFFFFFFFFFFFFFFFF96
:10BAC000FFFFFFFFFFFFFFFFFFFFFFFFFFFFFFFF86
:10BAD000FFFFFFFFFFFFFFFFFFFFFFFFFFFFFFFF76
:10BAE000FFFFFFFFFFFFFFFFFFFFFFFFFFFFFFFF66
:10BAF000FFFFFFFFFFFFFFDFFFFFFFFFFFFFFFDF96
:10BB0000FFDFFFDFFFFFFFFEDF1ABE14BE50A58E72
:10BB10009D4D950E8CCF848D7C6C744B7C6D7C4CD4
:10BB20007C4D7C6D742C73EB73EB73EA73EB7C0CC4
:10BB30007C0C8C6D9D0F8C8D8CAD8CAD952E8D2ECF
:10BB40009D9084CF6C3053504B115352533153312D
:10BB50005371533153515B715B4F636E6BCE6BCD41
:10BB60006BAC6BCC6BCC6BEB6BEB742C740B73EA28
:10BB700073EA73EB73CA73CB73CB73CA63686B8955
:10BB80007BEB7C0D8C8F9CF1AD94BE16CE78DF1BC9
:10BB9000EF7CF7DEF7BEFFFFFFFFFFFFFFFEFFDEDC
:10BBA000FFDFFFDFFFDFFFDFFFDFF7BEFFFFFFDFAE
:10BBB000FFDFFFFFFFFFF7DEFFDFFFFFFFFFFFDE1F
:10BBC000FFFFFFFFFFDFFFDEFFFFFFFFFFFFFFFFC6
:10BBD000FFFFFFFFFFFFFFFFFFFFFFFFFFFFFFDF95
:10BBE000FFDFFFFFFFFFFFFFFFFFFFFFFFFFFFFF85
:10BBF000FFDFFFFFFFFFFFFFFFFFFFFFFFDFFFDFB5
:10BC0000FFFFFFFFFFFFFFFFFFFFFFFFFFFFFFFF44
:10BC1000FFDFFFDFFFDFFFDFFFDFFFFFFFFFFFFFD4
:10BC2000FFFFFFFFFFDFFFFFFFFFFFFFFFDFFFDF84
:10BC3000FFFFFFFFFFFFFFFFFFFFFFFFFFFFFFFF14
:10BC4000FFFFFFFFFFFFFFFFFFFFFFFFFFFFFFFF04
:10BC5000FFFFFFFFFFFFFFFFFFDFFFDFFFDFFFDF74
:10BC6000FFFFFFFFFFFFFFFFFFFFFFFFFFFFFFFFE4
:10BC7000FFFFFFFFFFFFFFFFFFFFFFFFFFFFFFFFD4
:10BC8000FFFFFFFFFFFFFFFFFFFFFFFFFFFFFFFFC4
:10BC9000FFFFFFFFFFFFFFFFFFFFFFFFFFFFFFFFB4
:10BCA000FFFFFFFFFFFFFFFFFFFFFFFFFFFFFFFFA4
:10BCB000FFFFFFFFFFFFFFFFFFFFFFFFFFFFFFFF94
:10BCC000FFFFFFFFFFFFFFFFFFDFFFFFFFFFFFFFA4
:10BCD000FFFFFFFFFFFFFFFFFFFFFFFFFFFFFFFF74
:10BCE000FFFFFFDFF7BEFFFECE77BE52A5B184D1C6
:10BCF0006C30745274317450845094B27C6F744EB2
:10BD0000744E742E744E7C6E848E742C7C2A844AFD
:10BD10008C8B94AB94CC94CC94CD94EE952E955280
:10BD200084D05BAF533153335BB34B305B91537271
:10BD30005B9253725B9253515B5063916BB16B9109
:10BD40006B8E6B8E636D638D638D638C636B73ED34
:10BD500073ED73EB740B73EA6BCA6BCA73EA73EB24
:10BD60007C2B7C2C7C4D740C73EC6BAB73EC7C0DDE
:10BD7000844E9CF1B5B5BE17D6B9E73AF79CF7DD0E
:10BD8000FFFEFFFEFFDEFFFFFFDFFFFFF7DEFFFF2F
:10BD9000FFFEFFFEFFFEFFFFFFFFFFFFFFFFFFDFD6
:10BDA000F7BFF7DFFFDFFFDFFFDFFFDFFFFFFFFF93
:10BDB000FFFFFFFFFFFFFFDFFFFFFFFFFFDFFFFFD3
:10BDC000FFDFFFFFFFFFFFFFFFFFFFFFFFFFFFFFA3
:10BDD000FFDFFFFFFFFFFFFFFFFFFFFFFFFFFFDFB3
:10BDE000FFFFFFDFFFFFFFFFFFFFFFFFFFFFFFFF83
:10BDF000FFDFFFDFFFDFFFDFFFDFFFFFFFFFFFFFF3
:10BE0000FFFFFFFFFFFFFFFFFFFFFFFFFFFFFFFF42
:10BE1000FFFFFFFFFFFFFFFFFFFFFFFFFFFFFFFF32
:10BE2000FFFFFFFFFFFFFFFFFFFFFFFFFFFFFFFF22
:10BE3000FFFFFFDFFFFFFFFFFFFFFFFFFFFFFFFF32
:10BE4000FFFFFFFFFFFFFFFFFFFFFFFFFFFFFFFF02
:10BE5000FFFFFFFFFFFFFFFFFFFFFFFFFFFFFFFFF2
:10BE6000FFFFFFFFFFFFFFFFFFFFFFFFFFFFFFFFE2
:10BE7000FFFFFFFFFFFFFFFFFFFFFFFFFFFFFFFFD2
:10BE8000FFFFFFFFFFFFFFFFFFFFFFFFFFFFFFFFC2
:10BE9000FFFFFFFFFFFFFFFFFFFFFFFFFFFFFFFFB2
:10BEA000FFFFFFFFFFFFFFFFFFDFFFFFFFFFFFFFC2
:10BEB000FFFFFFFFFFFFFFFFFFFFFFFFFFFFFFFF92
:10BEC000FFDFFFFFF7DEF7BDBE56BE7374705BD3B6
:10BED000539353725B925B9063916B9163B06BD0A1
:10BEE0006C1174316C1074307C506C0E848E8CAE7E
:10BEF0008CAC8CAA94EB8CAA9D4F94F184916BF13D
:10BF00004B0F5BB253715371537153515371535172
:10BF10005351535153715B715B5063915B315AF0D4
:10BF2000637163505B2F5B2F636F5B0E6B8F636E70
:10BF300073B0634D6B8D636C6B8C6BAD6B8C73ED01
:10BF4000740D740B7C4C7C4C7C2C740B7C2C7C0C0A
:10BF500073EB63696B8C73CC7C0C7C0C9CEFAD72C7
:10BF6000C635D6D8DF1ADF3AE77BF7DDFFFEF7FEEE
:10BF7000F7DEF7DEFFFFF7DFFFDFFFDFFFDFFFDFCB
:10BF8000FFFFFFDFFFFFFFFFFFFFFFFFFFDFF7DE2A
:10BF9000FFDFFFDFFFDFFFDFFFDFFFDFFFDFFFDFB1
:10BFA000FFDFFFFFFFFFFFFFFFFFFFDFFFDFFFDF21
:10BFB000FFFFFFDFFFDFFFFFFFFFFFFFFFFFFFFFD1
:10BFC000FFDFF7DEFFFFFFFFFFFFFFFFFFFFFFDFEA
:10BFD000FFFFFFFFFFFFFFDFFFDFFFFFFFFFFFFFB1
:10BFE000FFFFFFFFFFFFFFFFFFFFFFFFFFFFFFFF61
:10BFF000FFFFFFFFFFFFFFFFFFFFFFFFFFFFFFFF51
:10C00000FFFFFFFFFFFFFFFFFFFFFFFFFFFFFFFF40
:10C01000FFFFFFDFFFFFFFFFFFFFFFFFFFFFFFFF50
:10C02000FFFFFFFFFFFFFFFFFFFFFFFFFFFFFFFF20
:10C03000FFFFFFFFFFFFFFFFFFFFFFFFFFFFFFFF10
:10C04000FFFFFFFFFFFFFFFFFFFFFFFFFFFFFFFF00
:10C05000FFFFFFFFFFFFFFFFFFFFFFFFFFFFFFFFF0
:10C06000FFFFFFFFFFFFFFFFFFFFFFFFFFFFFFFFE0
:10C07000FFFFFFFFFFFFFFFFFFFFFFFFFFFFFFFFD0
:10C08000FFFFFFFFFFFFFFFFFFDFFFFFFFDFFFFF00
:10C09000FFFFFFFFFFFFFFFFFFFFFFFFFFFFFFFFB0
:10C0A000FFDFFFDFFFFFDF3AC675957453926475BB
:10C0B00064135BB1535063B15B4F639163926392BE
:10C0C0005B515B915B715B7063D06C106C11743071
:10C0D0007C4F8CAE952E9D509D526BCF5B505BB2CA
:10C0E0005B935B7353705BB1535153534AF14AD026
:10C0F0005B715B315330530F5B50532F5B50530FC9
:10C100005B1052F052F05310530F5B3063715B10B1
:10C11000631073D363505B0F5B2E6BB052EC6BAE4E
:10C12000636C6BAD6BCD638C740E6BCC7C2D7C2DF6
:10C130007C4D6BCB740C73EB73CA7C2B846C9D0FA2
:10C14000B5D3ADB3AD93B5F29D108C8E9D11C6578E
:10C15000DEFAF7BDF7DEF7DEFFFEFFFEF7DEF7BE25
:10C16000FFFFFFDFFFDFFFDFF7DEFFDFFFDFFFDFC8
:10C17000FFDFFFDFFFDFFFDFFFDFFFDEFFDEFFDED2
:10C18000FFFFFFDEFFFFFFFFFFFFFFDFFFDFFFDF40
:10C19000FFDFFFDFFFDFFFDFFFFFFFFFFFFFFFDF4F
:10C1A000FFFFFFDFFFFFFFFFFFFFFFFFFFDFFFDFFF
:10C1B000FFDFFFFFFFFFFFDFFFDFFFFFFFFFFFFFEF
:10C1C000FFFFFFFFFFFFFFFFFFFFFFFFFFFFFFFF7F
:10C1D000FFFFFFFFFFFFFFFFFFFFFFFFFFFFFFFF6F
:10C1E000FFFFFFFFFFFFFFFFFFFFFFFFFFFFFFFF5F
:10C1F000FFFFFFDFFFFFFFFFFFFFFFFFFFFFFFFF6F
:10C20000FFFFFFFFFFFFFFFFFFFFFFFFFFFFFFFF3E
:10C21000FFFFFFFFFFFFFFFFFFFFFFFFFFFFFFFF2E
:10C22000FFFFFFFFFFFFFFFFFFFFFFFFFFFFFFFF1E
:10C23000FFFFFFFFFFFFFFFFFFFFFFFFFFFFFFFF0E
:10C24000FFFFFFFFFFFFFFFFFFFFFFFFFFFFFFFFFE
:10C25000FFFFFFFFFFFFFFFFFFFFFFFFFFFFFFFFEE
:10C26000FFFFFFFFFFFFFFFFFFDFFFDFFFFFFFFF1E
:10C27000FFDFFFFFFFFFFFFFFFFFFFFFFFFFFFFFEE
:10C28000FFDFF7BEFFFEC677C6556CD05BF45BF3ED
:10C2900053508CD563916BF263B263B35B915B9245
:10C2A0005B925B925B725B925B505B5053705B91F5
:10C2B0005B705B6F6BCF6BCF63AF5BB05BD1535188
:10C2C0005BB1539053924B105B9253506BF29517A6
:10C2D000637152EF63925B515330533052EF4AEE29
:10C2E0004AAE4AAE4ACE52EE52CE5B2F52EF5AEFD2
:10C2F000633052CE5B1052CF94F67C5394F4636E4D
:10C3000073F06B8F52EE634E5B0D5B2C636D634B72
:10C310006BAD73CD7C0C73EB7C0B7C0A8C8CA54FC6
:10C32000ADD29D319D52A5729D117C0D6B8B6BAB77
:10C3300073AC7C0D8C8F9D12AD74C657DF1AEF5B0A
:10C34000EF7CF79DF7DEFFFEFFDFFFDFFFDFFFDFA4
:10C35000F7DEF7DEFFDEFFDFFFDEF7DEFFDEFFDE0C
:10C36000FFFFF7DEF7DEF7DEF7DEFFDFFFDFFFDFE1
:10C37000FFFFFFDFF7DEFFDFFFFFFFFFFFDFFFDF76
:10C38000FFFFFFFFFFFFFFFFFFFFFFFFFFDFFFDFFD
:10C39000FFFFFFFFFFFFFFFFFFFFFFDFFFDFFFDF0D
:10C3A000FFFFFFFFFFFFFFFFFFFFFFFFFFDFFFFFBD
:10C3B000FFFFFFFFFFFFFFFFFFFFFFFFFFFFFFFF8D
:10C3C000FFFFFFFFFFFFFFFFFFFFFFFFFFFFFFFF7D
:10C3D000FFFFF7DEFFDFFFFFFFFFFFFFFFDFFFDFF6
:10C3E000FFFFFFFFFFFFFFFFFFFFFFFFFFFFFFFF5D
:10C3F000FFFFFFFFFFFFFFFFFFFFFFFFFFFFFFFF4D
:10C40000FFFFFFFFFFFFFFFFFFFFFFFFFFFFFFFF3C
:10C41000FFFFFFFFFFFFFFFFFFFFFFFFFFFFFFFF2C
:10C42000FFFFFFFFFFFFFFFFFFFFFFFFFFFFFFFF1C
:10C43000FFFFFFFFFFFFFFFFFFFFFFFFFFFFFFFF0C
:10C44000FFFFFFFFFFFFFFFFFFFFFFFFFFFFFFFFFC
:10C45000FFFFFFFFFFFFFFFFFFFFFFDFFFDEFFFF2D
:10C46000F7DFEF9DF7BDBE57B6545C335C1363F343
:10C4700042CEA5B8A597ADF99D795B725B925B92B0
:10C48000639263925B715B925BB35BD25BB24B0E68
:10C4900063B06C3163F15B91535153305B6F5BB3AD
:10C4A0005B925371537153525B725B707C93AE39E4
:10C4B0005B6FB63AB63A5B50639252EF52EF5B4F06
:10C4C00052EF52EE42AC426C52F052F0530F4AAE71
:10C4D00052EF52CF428C8CB4C65BC67B9D15AD9794
:10C4E000ADB8B5F9638FA59794F4634F845473D2B4
:10C4F000634F5B0E52EC634D52CB73CF844FAD92C2
:10C500009D6F9D4EB612A591B61294ED844C7C0B96
:10C51000844B7C2B73EA73EA73EB6BAB740D846E04
:10C5200084AF9511ADB4BE36D6FAE75CEF9DFFFF40
:10C53000FFFFF7FFF7DFFFFFF7DEF7BEF7BEF7DE1F
:10C54000FFDEFFDEFFFEF7DEFFFEF7BEFFDFF7DEFA
:10C55000F7BEF7DFF7BFFFFFFFFEFFFDFFFFFFFFA7
:10C56000F7FEFFFEFFDFFFDFFFDFFFFFFFFFFFFF45
:10C57000FFFFFFFFFFDFFFFFFFFFFFFFFFFFFFFFEB
:10C58000FFFFFFFFFFFFFFFFFFFFFFFFFFFFFFFFBB
:10C59000FFFFFFFFFFFFFFFFFFFFFFFFFFFFFFFFAB
:10C5A000FFFFFFFFFFFFFFFFFFFFFFFFFFFFFFFF9B
:10C5B000FFFFFFFFFFFFFFFFFFFFFFFFFFFFFFFF8B
:10C5C000FFFFFFFFFFFFFFFFFFFFFFFFFFFFFFFF7B
:10C5D000FFFFFFFFFFFFFFFFFFFFFFFFFFFFFFFF6B
:10C5E000FFFFFFFFFFFFFFFFFFFFFFFFFFFFFFFF5B
:10C5F000FFFFFFFFFFFFFFFFFFFFFFFFFFFFFFFF4B
:10C60000FFFFFFFFFFFFFFFFFFFFFFFFFFFFFFFF3A
:10C61000FFFFFFFFFFFFFFFFFFFFFFFFFFFFFFFF2A
:10C62000FFFFFFFFFFFFFFFFFFFFFFFFFFFFFFFF1A
:10C63000FFFFFFFFFFFFFFFFFFFFFFDFFFDFFFFF4A
:10C64000F7DEFFFFE71AC676959353F353F35BD3F8
:10C6500063B29D579D76A5B78D16535053725B728A
:10C660005B715B715B7053515B92537163B19D560B
:10C67000D6FBE77DE79ECEDC8CF663B25B925B92E5
:10C680005B924B304B315B925B7253709536A5B821
:10C690006BF1BE5BCF1D63B1ADBA5330426DB63B9B
:10C6A000637163908CF56BB14AAF4ACF4ACF4AAE03
:10C6B0004ACF4AAF426C7C5273F184949D769D556B
:10C6C000B618ADF7A596C67AD6FC636F84549D164E
:10C6D00095157C319D166BB07C325AEE73D16B6D23
:10C6E0006BAD6BCD740F8CD09D3194CF73AC844EF9
:10C6F0007C2C8C8D846D8C6E844D844D740C6BCB36
:10C700006BAB73EC6BCC6BCC740C7C4D94F0A57262
:10C71000ADD4CE97DF19E75BF7BDF7BEFFDEFFDFD5
:10C72000FFFFF7DFFFDFF7BFFFDFFFFEFFFEFFFECC
:10C73000FFDFF7DFFFDFF7BFFFDFFFDEFFFFFFFFFA
:10C74000FFFEFFFEFFFFFFDFFFDFFFFFFFFFFFFF3B
:10C75000FFFFFFFFFFDFFFFFFFFFFFFFFFFFFFFF09
:10C76000FFFFFFFFFFFFFFFFFFFFFFFFFFFFFFFFD9
:10C77000FFFFFFFFFFFFFFFFFFFFFFFFFFFFFFFFC9
:10C78000FFFFFFFFFFFFFFFFFFFFFFFFFFFFFFFFB9
:10C79000FFFFFFFFFFFFFFFFFFFFFFFFFFFFFFFFA9
:10C7A000FFFFFFFFFFFFFFFFFFFFFFFFFFFFFFFF99
:10C7B000FFFFFFFFFFFFFFFFFFFFFFFFFFFFFFFF89
:10C7C000FFFFFFFFFFFFFFFFFFFFFFFFFFFFFFFF79
:10C7D000FFFFFFFFFFFFFFFFFFFFFFFFFFFFFFFF69
:10C7E000FFFFFFFFFFFFFFFFFFFFFFFFFFFFFFFF59
:10C7F000FFFFFFFFFFFFFFFFFFFFFFFFFFFFFFFF49
:10C80000FFFFFFFFFFFFFFFFFFFFFFFFFFFFFFFF38
:10C81000FFFFFFFFFFFFFFFFFFFFFFDFFFDFFFFE69
:10C82000F7FEFFDFCE57BE54745153D353B35B9220
:10C8300084D69D9774117C9284B44B0E53715B71B6
:10C8400053505B715B915B525B717C53CE9BF7BF26
:10C85000FFBFFFBDFFDEFFDEEFDF951653525BB279
:10C86000535153715BB2539153715BB184B56BF209
:10C8700074129D568CD44AEE8CF6741363B1BE5B71
:10C880004ACE7433B63B84B6531053104AEF52EF7E
:10C890004AAF4AD0530F3A6C4ACE42AE532F4ACDDC
:10C8A0005B4E74116BF17C739D7752CD9D35951560
:10C8B000A596B6178493B619AD9784539D368C947C
:10C8C00084537C1394F7530D6BAF632D6B6E6B6EBB
:10C8D000634C634C6B8D842F73EE7C2E846E848F3F
:10C8E000846F7C4E742D7C4C7C4C7C4C742C6BEB9C
:10C8F00073EC7C2D740C846E8CAF9D11B5F5D6B99C
:10C90000D6F9E73BEF9CF7BEFFFFFFFEFFFEFFFF00
:10C91000FFFEF7BEF7DEF7DEFFFFFFBFFFFEFFFF04
:10C92000FFFFFFFFFFFEFFFFFFDFFFDFFFFFFFFF58
:10C93000FFFFFFDFFFDFFFFFFFFFFFFFFFFFFFFF47
:10C94000FFFFFFFFFFFFFFFFFFFFFFFFFFFFFFFFF7
:10C95000FFFFFFFFFFFFFFFFFFFFFFFFFFFFFFFFE7
:10C96000FFFFFFFFFFFFFFFFFFFFFFFFFFFFFFFFD7
:10C97000FFFFFFFFFFFFFFFFFFFFFFFFFFFFFFFFC7
:10C98000FFFFFFFFFFFFFFFFFFFFFFFFFFFFFFFFB7
:10C99000FFFFFFFFFFFFFFFFFFFFFFFFFFFFFFFFA7
:10C9A000FFFFFFFFFFFFFFFFFFFFFFFFFFFFFFFF97
:10C9B000FFFFFFFFFFFFFFFFFFFFFFFFFFFFFFFF87
:10C9C000FFFFFFFFFFFFFFFFFFFFFFFFFFFFFFFF77
:10C9D000FFFFFFFFFFFFFFFFFFFFFFFFFFFFFFFF67
:10C9E000FFFFFFFFFFFFFFFFFFDFFFFFFFFFFFDF97
:10C9F000FFFFFFFFFFFFFFFFFFFFFFFFFFDFFFDF87
:10CA0000FFFEF79EBE14B61363B15BD34B515B922E
:10CA10007453A5B78D1495357C934B0E53305351F9
:10CA20004B305B7253305B736392C69AF7BFFFDF84
:10CA3000F7BEF79DFFBEFFDED6F984916BF263F37C
:10CA400053715371535153505BB153714AF04B0FB3
:10CA50005B4F74125B6F63B0530E5B507C538493D7
:10CA60006BB2BE7C9D78637153315330530F5B5171
:10CA70005B3153104AEE53504AD053314AAF428F84
:10CA800042AF428F322D4ACE4AAE3A2B6BAF8CD496
:10CA9000636F95568CF495348CF3BE598492ADB681
:10CAA000B5F8ADD8849484D4C69B7C11A5576BB1DE
:10CAB00073D15B0E5AEE6B905B0D6B8E636E6BCF1A
:10CAC0007C50742F84907C4E7C4F84B07C2F84905B
:10CAD0007C2E7C6F742D84AF6BEB740B6BEB6BCA8D
:10CAE0007C2C846D950FA571C675D6B9DF1BE77CCC
:10CAF000F7BDFFFDFFFDFFFDFFFEFFDFFFFEFFFFB8
:10CB0000FFDFFFDFFFDFFFFEFFFEFFDFFFDFFFDFF7
:10CB1000FFFFFFFFFFFFFFDFFFDFFFDFFFDFFFDFC5
:10CB2000FFDFFFFFFFFFFFFFFFFFFFFFFFFFFFFF35
:10CB3000FFFFFFFFFFFFFFFFFFFFFFFFFFFFFFFF05
:10CB4000FFFFFFFFFFFFFFFFFFFFFFFFFFFFFFFFF5
:10CB5000FFFFFFDFFFFFFFFFFFFFFFFFFFDFFFDF45
:10CB6000FFFFFFFFFFFFFFFFFFFFFFFFFFFFFFFFD5
:10CB7000FFFFFFFFFFFFFFFFFFFFFFFFFFFFFFFFC5
:10CB8000FFFFFFFFFFFFFFFFFFFFFFFFFFFFFFFFB5
:10CB9000FFFFFFFFFFFFFFFFFFFFFFFFFFFFFFFFA5
:10CBA000FFFFFFFFFFFFFFFFFFFFFFFFFFFFFFFF95
:10CBB000FFFFFFFFFFFFFFFFFFFFFFFFFFFFFFFF85
:10CBC000FFFFFFFFFFFFFFFFFFDFFFFFFFFFFFDFB5
:10CBD000FFFFFFFFFFFFFFFFF7DFFFFEFFFEFFDFAF
:10CBE000FFFFDED9C6559D5263B263D353506BF23B
:10CBF0009536A597C6BB8CD463B15B5053315B515E
:10CC00005350535153516BB36BB0BE37F7BEFFFF58
:10CC1000F7FFF7FFF7BECE387C0C8CEF8491537191
:10CC20005B92537153504B30537053715B9253511D
:10CC3000BE9CA597A5D8A5D89D778CD58CD56BD152
:10CC40005B70743363B25B515B51533053105310BC
:10CC50005B326391428C5B50743484D55B6F5311AB
:10CC600052F152F1531142AE426E4ACE4ACD4AAE13
:10CC7000426E3A4D4ACF52EE63906BD0C69A9534CD
:10CC80007C71B6397432C6DB8D14A596ADD8847329
:10CC90009D56A5978CB494D484537C338453847369
:10CCA00052ED7411638F6390638E6BEF74307C71FF
:10CCB0007C91744F7C8F7C6E7CAF744D6BEC7C6D83
:10CCC0007C6E742C846E742D740C740D7C2E8C9080
:10CCD0009D12A552C676CE56EF3BF79DFFDEFFFEB6
:10CCE000FFFFFFDFF7BFFFDEFFFEFFFFFFDFFFFFFE
:10CCF000FFFFFFFFFFFFFFFFFFFFFFFFFFFFF7DE6D
:10CD0000FFDFFFDFFFFFFFFFFFFFFFFFFFFFFFFF73
:10CD1000FFFFFFFFFFFFFFFFFFFFFFFFFFFFFFFF23
:10CD2000FFFFFFFFFFFFFFFFFFFFFFFFFFFFFFFF13
:10CD3000FFFFFFDFFFFFFFFFFFFFFFFFFFFFFFFF23
:10CD4000FFFFFFFFFFFFFFFFFFFFFFFFFFFFFFFFF3
:10CD5000FFFFFFFFFFFFFFFFFFFFFFFFFFFFFFFFE3
:10CD6000FFFFFFFFFFFFFFFFFFFFFFFFFFFFFFFFD3
:10CD7000FFFFFFFFFFFFFFFFFFFFFFFFFFFFFFFFC3
:10CD8000FFFFFFFFFFFFFFFFFFFFFFFFFFFFFFFFB3
:10CD9000FFFFFFFFFFFFFFFFFFFFFFFFFFFFFFFFA3
:10CDA000FFFFFFFFFFFFFFFFFFDFFFFFFFFFFFDFD3
:10CDB000FFFFFFFFFFFFFFFFF7FFFFFEFFFFFFBFCC
:10CDC000FFDEC656C6757C71639263B263916BD108
:10CDD000741173D084728CB55B505B106392639254
:10CDE0005B915B915B705B7084516B69840DB5D511
:10CDF000D6D9BE367BEE630A846C8D0F743163F333
:10CE00005BB2537153515351537153304B0F6C13E9
:10CE1000BE9C6BD1AE19638FADF9B619B63AADF9B8
:10CE2000ADF9532F53305B515310533053305310DF
:10CE300063734AAF8CD69D5984759D95CEFA532E57
:10CE40004AAE53306BF384B67C555331426E426E1A
:10CE50004AB052F0426E3A6E3A6D3A4C73F263B198
:10CE6000322B5B504AEE84D463B08493B5F99D3580
:10CE7000ADD7BE79C699ADB773F08472A577951614
:10CE8000ADB8A598743384948493638F534E7432F1
:10CE90005B4E6BD074307C7174507C917CB1744F5C
:10CEA0007C6F744F744E7C4F8490846D7C2C7C4DD1
:10CEB000846E846E7C0D7C0D8C6EDED8FFFEFFFED2
:10CEC000FFFEFFDFF7BFF7DEFFFEFFFFFFDFFFDF45
:10CED000FFFFFFFFFFFFFFDFFFDFFFDFFFDFF7DE0B
:10CEE000FFDFFFDFFFFFFFFFFFFFFFFFFFFFFFFF92
:10CEF000FFFFFFFFFFFFFFFFFFDFFFFFFFFFFFDF82
:10CF0000FFFFFFFFFFFFFFFFFFFFFFFFFFFFFFFF31
:10CF1000FFFFFFDFFFFFFFFFFFFFFFDFFFDFFFDFA1
:10CF2000FFFFFFFFFFFFFFFFFFFFFFFFFFFFFFFF11
:10CF3000FFFFFFFFFFFFFFFFFFFFFFFFFFFFFFFF01
:10CF4000FFFFFFFFFFFFFFFFFFFFFFFFFFFFFFFFF1
:10CF5000FFFFFFFFFFFFFFFFFFFFFFFFFFFFFFFFE1
:10CF6000FFFFFFFFFFFFFFFFFFFFFFFFFFFFFFFFD1
:10CF7000FFFFFFFFFFDFFFFFFFFFFFFFFFDFFFFF01
:10CF8000FFFFFFFFFFFFFFFFFFFFFFDFFFDFFFFFF1
:10CF9000FFFFFFFFFFFFFFFFFFFEF7DFFFFFF7BE13
:10CFA000F7BDC635BE356BD063716BB26BB19515ED
:10CFB0006BD073F15B2E635063516B92635063705F
:10CFC0005B4F63905B90530E8CB17C2B5AE65AE812
:10CFD0004A874A8662E883EB8C8C8D5243105B92C1
:10CFE00053315B7153515B525B7253305B70B63A95
:10CFF0007C73B65AB6397C729D569515530E7C7368
:10D00000AE1A5B505B51533153315330535153116E
:10D010004AD08CD784755B314AEFBEB9D77BB63A1C
:10D020007C5484947C755B507C747C5552F06BD33B
:10D03000A5B874327C745B50532F530F4AAE42AE86
:10D040003A6E428E3A4D3A6D3A4D3A4D4A8D52EE15
:10D0500063907C328472AD984AAC8472ADD763AF72
:10D06000BE7BA5B7BE7A95549537A5D9530F5330DB
:10D070005B725B51533063925B505B7063D16BF0BA
:10D0800074316C0F7C907C6F84D07C8E8CEF84AF7D
:10D090007C6D848E848E8CCE848CA58FEF9CF7DE85
:10D0A000FFDFFFDFFFDFFFDFFFDFFFDFFFFFFFFF50
:10D0B000FFFFFFFFFFFFFFFFFFFFFFFFFFFFFFDFA0
:10D0C000FFDFFFDFFFFFFFFFFFFFFFFFFFDFFFFFD0
:10D0D000FFFFFFFFFFFFFFFFFFDFFFFFFFFFFFFF80
:10D0E000FFFFFFFFFFFFFFDFFFDFFFFFFFFFFFFF90
:10D0F000FFFFFFFFFFFFFFDFFFDFFFFFFFFFFFFF80
:10D10000FFFFFFFFFFFFFFFFFFFFFFFFFFFFFFFF2F
:10D11000FFFFFFFFFFFFFFFFFFFFFFFFFFFFFFFF1F
:10D12000FFFFFFFFFFFFFFFFFFFFFFFFFFFFFFFF0F
:10D13000FFFFFFFFFFFFFFFFFFFFFFFFFFFFFFFFFF
:10D14000FFFFFFFFFFFFFFFFFFFFFFFFFFFFFFFFEF
:10D15000FFFFFFFFFFFFFFFFFFFFFFFFFFDFFFFFFF
:10D16000FFFFFFFFFFFFFFFFFFDFFFFFFFFFFFDF0F
:10D17000FFFFFFFFFFFFFFFFFFFEF7DFFFFFFFFEE9
:10D18000DEB9CE9594F163715B506B7163509D363F
:10D1900094F4DF1D9D365B2F637073D26B9173B176
:10D1A00063905B505B4F6371636E94F15B495B0905
:10D1B00052E863496329846E848F63D04B335B519B
:10D1C00053505B515B515B525B325B715B6FC6BB13
:10D1D00063B0ADF98CD4B6199D7684B4532EA5B83E
:10D1E00074335B71533153315351533053105331B6
:10D1F0004AAFADD9530E5B717454CF3D955684B58B
:10D200006BD25B714AAF42AD5B6EA5B75B50953692
:10D210009555B67995357C93ADF99D7774537C74AB
:10D2200095384B0F6BD242AE531052CF426E3A0D2F
:10D23000426E52AF633173D34A8E6350639052EEA5
:10D2400084946BD09DB6A5D6AE1A9D7842CE63B2BB
:10D25000535163B35B315B5153315331639253107C
:10D260006391532E638F638F743073F074107C500E
:10D270007C507C4F848F848D8CED954CC677F7DE87
:10D28000F7BFF7BEFFFEF7FFFFFFFFDFFFFFFFFF68
:10D29000FFFFFFDFFFDFFFFFFFFFFFFFFFDFFFFFFE
:10D2A000FFDFFFFFFFDFFFFFFFFFFFFFFFFFFFFFCE
:10D2B000FFFFFFFFFFFFFFFFFFDFFFFFFFFFFFFF9E
:10D2C000FFFFFFFFFFFFFFDFFFFFFFFFFFFFFFFF8E
:10D2D000FFFFFFFFFFFFFFDFFFDFFFFFFFFFFFFF9E
:10D2E000FFFFFFFFFFFFFFFFFFFFFFFFFFFFFFFF4E
:10D2F000FFFFFFFFFFFFFFFFFFFFFFFFFFFFFFFF3E
:10D30000FFFFFFFFFFFFFFFFFFFFFFFFFFFFFFFF2D
:10D31000FFFFFFFFFFFFFFFFFFFFFFFFFFFFFFFF1D
:10D32000FFFFFFFFFFFFFFFFFFFFFFFFFFFFFFFF0D
:10D33000FFFFFFFFFFFFFFFFFFFFFFFFFFFFFFFFFD
:10D34000FFFFFFFFFFFFFFFFFFDFFFFFFFFFFFFF0D
:10D35000FFDFFFDFFFDFFFDFFFFEF7DFF7FFFFFE8F
:10D36000BDF5C67473EF5B32634F63316BB1A55685
:10D37000A5768CB4634F632F73B1634F63516351D0
:10D380006B716B92637163725B3084726BEF63AD30
:10D390004B0A534A638D6BF0638E5B2F635263714C
:10D3A0005B715B505B305B515B5163B28493B61928
:10D3B000849363B0530D9D579D56ADF9638FCEDCBA
:10D3C0004ACE53305B925B5153305330531153303C
:10D3D0006BF28CF6532F5B7163B25B704B0F426E36
:10D3E00063914AEE7C54A5B7B638C6BA4ACDB61A90
:10D3F0007412AE1A84D4AE19A5B8B63AADF89D77BA
:10D4000074529D96955484D48CD5847473F27C5355
:10D410005B306B924A8D52CE4AAE63313A0D5B302F
:10D420004AAE52EF52EF63B263D14B0E5B70533092
:10D4300053305330741263905B705B7153304AEF1A
:10D4400053105B515B5163725B515B31533053102E
:10D4500063715B506BF263CF6C0F8D12A593EF9DE0
:10D46000F7BFFFFEFFFDF7FEFFFFFFFFFFFFFFFF20
:10D47000FFFFFFDEF7DEFFFFFFFFFFFFFFDFFFFF26
:10D48000FFFFFFFFFFDFFFDFFFDFFFDFFFFFFFFF2C
:10D49000FFFFFFFFFFFFFFFFFFDFFFFFFFFFFFDFDC
:10D4A000FFFFFFFFFFFFFFFFFFFFFFFFFFFFFFFF8C
:10D4B000FFFFFFFFFFFFFFFFFFFFFFFFFFFFFFFF7C
:10D4C000FFFFFFFFFFFFFFFFFFFFFFFFFFFFFFFF6C
:10D4D000FFFFFFFFFFFFFFFFFFFFFFFFFFFFFFFF5C
:10D4E000FFFFFFFFFFFFFFFFFFFFFFFFFFFFFFFF4C
:10D4F000FFFFFFFFFFFFFFFFFFFFFFFFFFFFFFFF3C
:10D50000FFFFFFFFFFFFFFFFFFFFFFFFFFFFFFFF2B
:10D51000FFFFFFFFFFFFFFDFFFDFFFFFFFFFFFFF5B
:10D52000FFFFFFFFFFFFFFFFFFDFFFFFFFFFFFFF2B
:10D53000FFDFFFDFFFDFFFDFFFDEFFDFF7FEEFBC18
:10D54000BDF4BE34638F6352634F5B3094F57C52FD
:10D55000C69B6BB05B0F5B10637152EE53105B1098
:10D560006B715AF05B0F633263515B2F5B2F5B4F24
:10D57000530D5B6E63B0532F530F6B916B915B70C8
:10D5800063705B505B3063505B305B507412B63934
:10D59000B63994F59D369536639063909556A5B847
:10D5A000530F4B0F531053714B3053315331533092
:10D5B0009D576BD3531153104ACE4AEE63917C545E
:10D5C0009D77B618CEFBDF5CD75C84B24AED5B4F2B
:10D5D0005B506392530E8CD65B7095358CF4A5D856
:10D5E0006BF1AE38534CADD7B65AADF99D559D553C
:10D5F0009515B5D994F484738C945B0F52CF52AFC8
:10D60000637153104AD05312530F6BF36BF35B519A
:10D6100063924AEEADD984B484B37C926BF16BD142
:10D620005B70637153305B515311533163725B31E3
:10D63000533153114B10535153105B729512BE3737
:10D64000FFDEFFDEF7FEF7FFF7FFFFDFFFFEFFFE67
:10D65000FFDFFFDEFFDEFFFFFFFFFFFFFFDFFFFF5C
:10D66000FFFFFFFFFFDFFFDFFFDFFFDFFFDFFFDF8A
:10D67000FFDFFFDFFFDFFFFFFFDFFFFFFFFFFFDF5A
:10D68000FFDFFFDFFFFFFFFFFFFFFFDFFFDFFFDF4A
:10D69000FFDFFFFFFFDFFFFFFFFFFFFFFFFFFFFFDA
:10D6A000FFFFFFFFFFFFFFFFFFFFFFFFFFFFFFFF8A
:10D6B000FFFFFFFFFFFFFFFFFFFFFFFFFFFFFFFF7A
:10D6C000FFFFFFFFFFFFFFFFFFFFFFFFFFFFFFFF6A
:10D6D000FFFFFFFFFFFFFFFFFFFFFFFFFFFFFFFF5A
:10D6E000FFFFFFFFFFFFFFFFFFFFFFFFFFFFFFDF6A
:10D6F000FFFFFFFFFFFFFFDFFFFFFFFFFFFFFFFF5A
:10D70000FFFFFFFFFFFFFFFFFFDFFFFFFFFFFFFF49
:10D71000FFDFFFDFFFDFFFDFFFBEFFDFF7DFE75ADF
:10D72000CE959D526BD06BB173B173F28CD49D5575
:10D730008CD35B2E530F5B314AAE5B5052EF63517B
:10D74000633052AD422A5AEF5B3052EE5AEF6350CB
:10D7500063306B3063305B306BB26BB284535B50C1
:10D760006BB16B916BD16B905B4F636F5B2F6BD128
:10D7700094F49D369D57ADB895569D77CEDC6BF1F0
:10D780005B505B51535153705371535153115B3084
:10D79000A5B84A8E63725B307C31A595C699DF3B94
:10D7A000DF1BD6FAC698C699D6FD52CEC69B63B08B
:10D7B000428C74526BB24AAE4ACF5B6F52EE6BB280
:10D7C0006BB374349537745284949D579D5684B4CA
:10D7D000B63A7C52A59694F484726BB08C938453C1
:10D7E00094F6639163B07C7353105B725B315B7230
:10D7F00053316BB29D787C7384B49D56ADD8A59798
:10D80000955695158493638F84B47432532E6BD2DE
:10D810004B2F537053705370537253528491A5938E
:10D82000DF19FFFEF7BFF7DFF7DEFFDEFFDEF7DE13
:10D83000FFFEFFFEFFFFFFFFFFFFFFFFFFFFFFDF1A
:10D84000FFDFFFFFFFFFFFDFFFDFFFDFFFFFFFDF88
:10D85000FFDFFFDFFFDFFFDFFFDEFFFFFFFFFFDF99
:10D86000FFDFFFDFFFFFFFFFFFFFFFDFFFDFFFDF68
:10D87000FFDFFFDFFFFFFFFFFFFFFFFFFFFFFFFFF8
:10D88000FFFFFFFFFFFFFFFFFFFFFFFFFFFFFFFFA8
:10D89000FFFFFFFFFFFFFFFFFFFFFFFFFFFFFFFF98
:10D8A000FFFFFFFFFFFFFFFFFFFFFFFFFFFFFFFF88
:10D8B000FFFFFFFFFFFFFFFFFFFFFFFFFFFFFFFF78
:10D8C000FFFFFFFFFFFFFFFFFFFFFFFFFFFFFFFF68
:10D8D000FFFFFFFFFFFFFFDFFFFFFFFFFFFFFFFF78
:10D8E000FFFFFFFFFFFFFFFFFFDFFFFFFFFFFFDF88
:10D8F000FFFFFFFFFFDFFFDFFFDEF7BEFFFECE759E
:10D90000BE7484716B7163915AED94F5BE39BE5942
:10D910008CD45B2F63715B104A6E52D03A0B4A6D08
:10D920004A8D424C632E5B0F7C146B916BB263711A
:10D93000633073D273D273F273D26B926310634FFE
:10D940006370634F6B70637063506B916B91637125
:10D950006350632F5B0E5B2E637073F173D1632F83
:10D96000638F530F5B7152F063925B5252F06BD234
:10D97000951673F1B5F8CEDBC699D71BC69AC67A51
:10D98000CEDBCEB9CEB9CEBAB5F8532DD73B428C4B
:10D990009D17E7BC7C55534CB658B5FBC69B6370CE
:10D9A00052B073F2530D530E52EF5B307C3474144B
:10D9B0006BD17C338CB4A5585B0FA5776BD0ADD7FA
:10D9C0007452AE19ADD88D144AEF53315B525311D6
:10D9D000531163925B915B515B715B305B2F84955C
:10D9E0007C347C3474129D57CEDE95359536953651
:10D9F0009D579D78532F5B715B724B3153518D1244
:10DA0000ADD2E75CFFFEFFBDFFFFFFFFFFBFFFDF03
:10DA1000F7BEFFDEF7BEF7BEFFFEFFDEFFDEF7BE9E
:10DA2000FFDFFFDFFFDFFFFFFFFFFFFFF7FEF7FE78
:10DA3000FFDFF7DFFFFFF7DFFFFFFFFFFFFFFFFF66
:10DA4000FFDEFFDEFFDEFFFFFFFEFFFEFFFEFFFE4D
:10DA5000FFFEFFFEFFDFFFFEFFFFFFFFFFFEFFFFFA
:10DA6000FFFFFFFFFFFFFFFFFFFFFFFFFFFFFFFFC6
:10DA7000FFFFFFFFFFFFFFFFFFFFFFFFFFFFFFFFB6
:10DA8000FFFFFFFFFFFFFFFFFFFFFFFFFFFFFFFFA6
:10DA9000FFFFFFFFFFFFFFFFFFFFFFFFFFFFFFFF96
:10DAA000FFFFFFFFFFFFFFFFFFFFFFFFFFFFFFFF86
:10DAB000FFFFFFFFFFFFFFDFFFDFFFFFFFFFFFFFB6
:10DAC000FFFFFFFFFFFFFFFFFFDFFFFFFFFFFFFF86
:10DAD000FFDFFFDFFFDFFFFFFFDEF7DFF7BDBE1376
:10DAE000B61373F063515B2F31C98473B6399D55FA
:10DAF0007C734ACE63715B0F21292129424B7C3113
:10DB000073D1422B31C95B2F63516BB273D373D284
:10DB10007C336BD273F273D263305AEF63505B0F76
:10DB2000634F3A2B4AAD5B0F5B2F5B0F52EF6B914C
:10DB300063506B7063706BB16B915B0E632F6350BE
:10DB4000530E63505B315B30635052EF5B0F6BB031
:10DB5000BE5ACEFACEFACED9BE78CEDABE59CEDBD8
:10DB60009D35CEB9CEB9CEDB6BB0A5969533A577F2
:10DB7000D6DDBE5852EECEFBADB76B92ADD7C6BA6E
:10DB8000426CCEBB8CB442AD8CD58CD4532D6BF192
:10DB90005B6E530D5B2E7C1373B1A5776BD0A5978D
:10DBA0008CF5B61AADD96BF2533053105B7253310A
:10DBB0005B7153105B715B3163724ACEA5987C53E5
:10DBC00052EE73F25B2E5B6F6BD184948CD59536DD
:10DBD000A5B89D574AEE53514B105B7253516C10D0
:10DBE0009D51AD72B5B5DED9DEFAEF5CF7BDFFFF32
:10DBF000F7BEFFDFFFFFFFFFFFDFF7BEFFDFF7BE70
:10DC0000FFDFF7DEF7DEF7BEF7DEF7DEF7DEF7DE83
:10DC1000FFFFFFFFFFFFFFFFFFFFFFFFFFFFFFFF14
:10DC2000FFFFFFDFFFFFFFDFFFFFFFFFFFFFFFFF44
:10DC3000FFFFFFFEFFDFFFFEFFFFFFFFFFFEFFFF17
:10DC4000FFFFFFFFFFFFFFFFFFFFFFFFFFFFFFFFE4
:10DC5000FFFFFFFFFFFFFFFFFFFFFFFFFFFFFFFFD4
:10DC6000FFFFFFFFFFFFFFFFFFFFFFFFFFFFFFFFC4
:10DC7000FFFFFFFFFFFFFFFFFFFFFFFFFFFFFFFFB4
:10DC8000FFFFFFFFFFFFFFFFFFFFFFFFFFFFFFFFA4
:10DC9000FFFFFFFFFFFFFFDFFFDFFFFFFFFFFFFFD4
:10DCA000FFFFFFFFFFFFFFFFFFDFFFFFFFFFFFFFA4
:10DCB000FFDFFFDFFFFFFFFFF7BEF7DFDEFAC65330
:10DCC000A5B36BB163515B2F739194F49D76A597C7
:10DCD0005B2F530F5B0F52CF190818E77C11BE362C
:10DCE000A575A5768C9319073A2C320A424D424C01
:10DCF0005B2F424B424B31EA4A6D5AEE6B6F6330F9
:10DD00005B0F63506B915B0F5B0F5B0F52EF5AEF32
:10DD10005AEF5B0F52CE637063505B0F6B7073F200
:10DD2000739173926B926B71634F6370632F632E69
:10DD30007C11CF1BCEDACEDAB618ADD7A5974AAB99
:10DD40007C31BE79CEDAC69B5B2DC6DABE59BE3AAF
:10DD50009D359D348493C6BB428D52B07410B63647
:10DD60006BAECEDC4AAC9517D6FD6BF0A576CEFB3C
:10DD7000BE3AC69B73F15B0D847252CD426B5B2E33
:10DD8000636F639073F34ACF5B114AF05B51530F9B
:10DD900053105310637252F05B516BD0E79E94D3D3
:10DDA00094F5E77EBE79B6589D76530F530F5B50BE
:10DDB0005B50530F4AEF53304B1053714B305B5154
:10DDC0008CF194EE840E7BCB840B840D948EAD731A
:10DDD000BDF5CE98E73BF7BDFFFEFFDEFFDEF7DEC9
:10DDE000FFFEFFDFFFFFFFDFFFDFF7DFF7BEF7DE3E
:10DDF000FFBEFFDEFFFFFFFFFFDFFFDFFFDFFFDF15
:10DE0000FFFFFFFFFFFFFFDFFFDFFFFFFFFFFFFF62
:10DE1000FFFFFFFEFFFFFFFEFFFFFFFFFFFFFFFF14
:10DE2000FFFFFFFFFFFFFFFFFFFFFFFFFFFFFFFF02
:10DE3000FFFFFFFFFFFFFFFFFFFFFFFFFFFFFFFFF2
:10DE4000FFFFFFFFFFFFFFFFFFFFFFFFFFFFFFFFE2
:10DE5000FFFFFFFFFFFFFFFFFFFFFFFFFFFFFFFFD2
:10DE6000FFFFFFFFFFFFFFFFFFFFFFFFFFFFFFDFE2
:10DE7000FFDFFFDFFFDFFFFFFFDFFFFFFFFFFFFF32
:10DE8000FFFFFFFFFFFFFFFFFFDFFFFFFFFFFFDFE2
:10DE9000FFFFFFFFFFDFF7DEFFDEF7DFC656CE94A2
:10DEA0008CD163516B91530E84348CD395359D572F
:10DEB00052CD5B305B10424D29892147A554E77B49
:10DEC000C67894F331C82989214810E6212910C762
:10DED00019263A098CB36B6F6BB0634F6B8F63304D
:10DEE0005B106351635052CE63715B0F5B105B300C
:10DEF0005B0F52CE635052EF5B0F5B0F632F5B2FB4
:10DF000052AD635163516B706B9063706BB26BB2C7
:10DF10005B0F84B4A57784745B2F52EE8CB47C5273
:10DF20009D75DF3CBE7A7C537C72DF5BB6394AADAF
:10DF3000BE596B8FC69B6BD06372424DBE5A94F331
:10DF40009D55CEBCA578C69C7C12426CCEDD6BB0D4
:10DF50004ACECEDC8C937C31DF3C3A299D35BE59CC
:10DF6000CEBB73F05B2F5B515B325B315B514AEF91
:10DF70005B715B7163B15B4FADF8DF7DD71BA5951E
:10DF8000E77D9514ADD6E79E95354B104AF04AAF24
:10DF90005330531053305351533153515371639293
:10DFA00063709D11844D7BEB73A973A973C96B8951
:10DFB0006348632773AA842C94CEAD51C614DED96E
:10DFC000EF5BF79CF7BDF7BEFFDEF7BEF7BEFFDFE6
:10DFD000FFFFFFDFF7BEF79EFFDFFFDFFFDFFFDFA3
:10DFE000FFFFFFFFFFFFFFDFFFDFFFFFFFFFFFFF81
:10DFF000FFFFFFFEFFFFFFFEFFFFFFDFFFFFFFDF73
:10E00000FFFFFFFFFFFFFFFFFFFFFFFFFFFFFFFF20
:10E01000FFFFFFFFFFFFFFFFFFFFFFFFFFFFFFFF10
:10E02000FFFFFFFFFFFFFFFFFFFFFFFFFFFFFFFF00
:10E03000FFFFFFFFFFFFFFFFFFFFFFFFFFFFFFFFF0
:10E04000FFFFFFFFFFFFFFFFFFFFFFFFFFFFFFDF00
:10E05000FFDFFFDFFFDFFFFFFFDFFFFFFFFFFFFF50
:10E06000FFFFFFFFFFFFFFFFFFDFFFFFFFFFFFDF00
:10E07000FFFFFFFFF7DEF7DEFFDEEF9EBE35B612D5
:10E080006BF05B116BB152CD9CF78471BE5A741268
:10E0900052EE530F52EF3A0C18E64AABCE99DF1B03
:10E0A000CEB973EE10A3634F6B7084526B910884EA
:10E0B0003A2A6B8FD6DBCE9ADF3DA57652ED5B1008
:10E0C00052CF5AEF52CE5B0F5B0F5B0F6B915AEF43
:10E0D000632F5B0F63305AEF635052EE6B904AAC84
:10E0E00052CE52EF52CF5B30530E52EF52F05310DC
:10E0F0005B514ACE6BB252CE6B916BB263509516A8
:10E10000A5978472636F52EFA597B6374AAC7C33FC
:10E11000C69A426CD6FC84725B0E94F5E79E530D52
:10E12000CEFC73F19514C69A530C8453C69C52EDE1
:10E130005B2FD71C740FBE79847294D4CEBC636EEF
:10E140008492DF7E4AEE5B715B305B715B505330D3
:10E15000535053304AEDA5B6DF5C8CB18CD2DF3B17
:10E160009D356BAFDF3D9D5652EE531163B3531097
:10E1700053104B105B5153514B1053314B30535094
:10E1800052F173B0844C6B4A6B4A6309738A73898A
:10E190007BEB73AA7BCA738973A973686B487BCBCB
:10E1A0007BCB840C948FAD53C5F6D698E71BF79DB7
:10E1B000FFFFFFFFFFFFFFDFFFDEFFDFFFDFFFDF10
:10E1C000FFDEFFDEFFDEFFDEFFDEFFDEFFDEFFDE67
:10E1D000FFDEFFDFFFDFFFFFFFFEFFDFFFFEFFDFF2
:10E1E000FFFFFFFFFFFFFFFFFFFFFFFFFFFFFFFF3F
:10E1F000FFFFFFFFFFFFFFFFFFFFFFFFFFFFFFFF2F
:10E20000FFFFFFFFFFFFFFFFFFFFFFFFFFFFFFFF1E
:10E21000FFFFFFFFFFFFFFFFFFFFFFFFFFFFFFFF0E
:10E22000FFFFFFFFFFFFFFFFFFFFFFFFFFFFFFDF1E
:10E23000FFDFFFDFFFDFFFFFFFDFFFFFFFFFFFFF6E
:10E24000FFFFFFFFFFFFFFFFFFFFFFFFFFFFFFDFFE
:10E25000FFDFFFDFFFDFFFDFF7BEDF1BC655A59146
:10E260006BB05310530E6B90B5B9ADF68CD452EE23
:10E270005B10530F52EF298919268471F7DD9CD268
:10E28000C6584A48214573D052EC636E7C1173D056
:10E29000632D73CFE77CDEFAEF9D73D05B0F5B30AD
:10E2A0005B3063306B715AEF63306B716B915B2F36
:10E2B0005B0F5B0F5AEF4A8E4A8D6350422B4A8B9D
:10E2C0003A0B52CF635152EF530F5B1052F05B1079
:10E2D00052EE52CD634F5B2E7C324AAD5B2F52EE35
:10E2E0005B2F52ED5B3063515B6F638E4ACD7412CE
:10E2F000847352EE7C11D6DBBE39C6B973F08C93B1
:10E30000DF5C530C532BDF5C636DBE5984734ACCC6
:10E310006BB0DF7D5B2BDF5C4AABDF5E73D252EF0D
:10E320005B308CB653105310530F53304AEF4B10E1
:10E3300053514B1042ADC6BCBE5AB638CEBBC67A9E
:10E3400073D0DF3EBE5B4ACE53104AD05B724ACFD9
:10E35000531053314B10533053104B104B105B5034
:10E360005AF16B916B8C632D630D630B6B2C630AFD
:10E370006B4A6B2A6B496B496B49736873896B688D
:10E3800073896B696B696B486B496B29738A840D60
:10E3900094D0B5B4CE98E73AF7BDF7DDF7DEF7DEF7
:10E3A000F7BEF7BEFFDEFFDFFFDFF7DFF7DEF7DFE9
:10E3B000F7DFFFBFFFDFF7DFF7FEF7FFFFFEFFFF2F
:10E3C000FFFFFFFFFFFFFFFFFFFFFFFFFFFFFFFF5D
:10E3D000FFFFFFFFFFFFFFFFFFFFFFFFFFFFFFFF4D
:10E3E000FFFFFFFFFFFFFFFFFFFFFFFFFFFFFFFF3D
:10E3F000FFFFFFFFFFFFFFFFFFFFFFFFFFFFFFFF2D
:10E40000FFFFFFFFFFFFFFFFFFFFFFFFFFFFFFDF3C
:10E41000FFFFFFFFFFDFFFFFFFDFFFFFFFFFFFFF4C
:10E42000FFFFFFFFFFFFFFFFFFFFFFFFFFDFFFDF3C
:10E43000FFDFFFFFFFFFF7DEFFDECE77BE34848F06
:10E440005B0F63517C32A57794F69D758CD552EFA6
:10E45000639152EF39EB296852CC4A69AD536B4A4C
:10E46000842E18C318E329653187294621456B6E30
:10E4700031869D13CE57DEF9BE374AAB632F5AEE75
:10E4800063305B2F52CE5B0F632F5B0F31CA52CDCF
:10E4900052EE5AEF5B3029892989424B73D052CC16
:10E4A000632D424A52AD63505B3052CF5AF05AEF5F
:10E4B00052EE5B0F63505B2F5B0F39EA5AEF5AEF56
:10E4C0004A8D6B9152F053104ACD530E5B2F530F70
:10E4D000530F5B2F5B0F7C127BF26BD05B0E94F4BF
:10E4E000BE58BE59BE79A59773F0DF5D84717C522A
:10E4F000C6DA8CF47C52A5B57C50B5F8426B52CF8D
:10E500005B315B315B5153304AF053114AF0533069
:10E510004AEF63D2741252EF73F2741284945B4F19
:10E520008CB4B61A7C746392531053315310533029
:10E530004AF0533053104AF0531052F05310531016
:10E540005B2F6B705AEE630F630E634E6B4E738FCF
:10E550006B4E630C738D6B4B5AC96B4A5AA8632878
:10E560005AC76B496B696B287BCA6B686B4862E65C
:10E5700063286328632863297BCC8C6E9CF1B59457
:10E58000D6B9E71BEF7CF79DF7DEFFFFF7DFF7FF5C
:10E59000F7FFFFBFF7DEF7BEFFFFF7FFF7DEFFFF76
:10E5A000FFFFFFFFFFFFFFFFFFFFFFFFFFFFFFFF7B
:10E5B000FFFFFFFFFFFFFFFFFFFFFFFFFFFFFFFF6B
:10E5C000FFFFFFFFFFFFFFFFFFFFFFFFFFFFFFFF5B
:10E5D000FFFFFFFFFFFFFFFFFFFFFFFFFFFFFFFF4B
:10E5E000FFFFFFFFFFFFFFFFFFFFFFFFFFFFFFFF3B
:10E5F000FFDFFFDFFFFFFFDFFFDFFFFFFFFFFFFFAB
:10E60000FFFFFFFFFFFFFFFFFFFFFFFFFFDFFFDF5A
:10E61000FFFFF7DEF7DEF7DEEF7CBDF4BE546BCF15
:10E6200063315B0F7C52A55694F5A596741252EF98
:10E630005B0F426D29A9422A422921246B4A8C8B07
:10E640005AE80842212410A118C318A3088210A375
:10E650003185A553844EE75B7BEF52CC634F52CD9F
:10E6600052EE5AEE52EE632F632F5AEE4A6C52CEA0
:10E6700052EE63306B91190719065B0ED6BBD6FBC1
:10E68000C67894F33A0A422C422C3A0C422D52CFCF
:10E6900052CE52AF4A6D4A8D4A6C52CE5B0F52CE6B
:10E6A0005B0F5B304ACF52CF4ACE5B1052EE52CE58
:10E6B00052AF5B0F63515AF05AF05AEF5B105B2F69
:10E6C000634F6BB163905B4F73F2A596C679C6BB7F
:10E6D0009D545B2EDF1E6BCE94F3B5F752EC95166E
:10E6E00084956371428E530F530F4ACF4AEF530FF5
:10E6F0004AEDBE7A9556BE5A6BD19D573A4B530E92
:10E7000073F2532F5B515B5153305B5153104B10DD
:10E710004AEF4B1052F052F05310531053105B104D
:10E720006350634F5ACF6310632E632F52AE52CFA4
:10E730005ACE5AEE6B706B70630E6B4E62ED62EBED
:10E7400062EB62EA5AA95AE95AC862E863286B4840
:10E750006B086B486B486B486B486B2863076B080A
:10E7600062C7736A840C9CAFAD52CE56DEF9E73BAC
:10E77000EF5CF7DDFFFEFFDEFFDEFFFEF7BEF7DE3C
:10E78000FFFFFFFFFFFFFFFFFFFFFFFFFFFFFFFF99
:10E79000FFFFFFFFFFFFFFFFFFFFFFFFFFFFFFFF89
:10E7A000FFFFFFFFFFFFFFFFFFFFFFFFFFFFFFFF79
:10E7B000FFFFFFFFFFFFFFFFFFFFFFFFFFFFFFFF69
:10E7C000FFFFFFFFFFFFFFFFFFFFFFFFFFFFFFFF59
:10E7D000FFDFFFDFFFFFFFDFFFDFFFFFFFFFFFFFC9
:10E7E000FFFFFFFFFFFFFFFFFFFFFFFFFFFFFFFF39
:10E7F000FFFFF7DEFFDFF7DEDF1ACE75ADB3636F25
:10E8000063305B0F6BB09D55953584B44ACD637012
:10E8100052EF426C10C58431632D08625267E77570
:10E82000B5B118C318C318C218C318C318C418E464
:10E830002964528763297BED39C66B6F632F8C94F3
:10E8400073D16B70634F5B0E5B0E52CD52EE5B0F5C
:10E8500052CE5B2F52AD298918E57C11E75CE75C4D
:10E8600094F35B2D1907212819282129214929A969
:10E870003A0AA5568CB48C9373B04AAC5B0F5B0F0D
:10E880005B105AF052AF52EF4AAE4AAF52EE52CE40
:10E890004AAF52EE635039EB4AAD4AAD5B105AEFC6
:10E8A00052CF52CF5B0F5AEF5B0F5B2E634E5B2E46
:10E8B000634E4A6B9CF5422B630EC65ABE59BE3955
:10E8C00084735B2F5B515B31530E52EE530F52EF4B
:10E8D0004AEF95165B4F8CF58CB4BE5B74126BD10E
:10E8E000D73D84D54ACF53114AF05B50530F52EFB6
:10E8F0004AEF5310531052F052F052F052EF5B0EA9
:10E9000063515AEE52CF5B0F4A8C4A8D4A6D52AE1C
:10E9100052CF4AAE52CE5B0F52CF5AEF5AEF62CF70
:10E920005AAE630E5ACD5AEC5AEC6B4C5AEB62EB72
:10E9300062CA62E96B096B296B286B48736873685C
:10E9400073687B88736873277328732883AA83CBC3
:10E95000942DA530BDD5CE57D678F79AFFFFFFDFAF
:10E96000FFFFFFFFFFFFFFFFFFFFFFFFFFFFFFFFB7
:10E97000FFFFFFFFFFFFFFFFFFFFFFFFFFFFFFFFA7
:10E98000FFFFFFFFFFFFFFFFFFFFFFFFFFFFFFFF97
:10E99000FFFFFFFFFFFFFFFFFFFFFFFFFFFFFFFF87
:10E9A000FFFFFFFFFFFFFFFFFFFFFFFFFFFFFFFF77
:10E9B000FFDFFFDFFFFFFFDFFFDFFFFFFFFFFFFFE7
:10E9C000FFFFFFFFFFFFFFFFFFDFFFDFFFFFFFFF97
:10E9D000FFFFFFDFFFFFF79ECEB7CE758C916BD2A6
:10E9E0006B715B106BD1A5758CF49D574ACD530F9D
:10E9F00052EF31CA21269D144A6A18A3294363277E
:10EA00005AC818A3212520E318C318A318C318E473
:10EA1000212339A4946E6B6A296573B073B1CE9BC0
:10EA2000AD98C67B7C1252AD63505AEE52AD5AEE91
:10EA300052CE4AAD3A0B214710A4AD76E73BE75BD7
:10EA40008C9210C51907190718E718E7190721460E
:10EA50005B4DD71ABE57E75CC6596B905AEE5B10F8
:10EA600052CF5B105B0F5B0F5AEF52EF52EF52EF3A
:10EA700052CE52EF52CD4A8D5B0D4A8D52CE4A8D09
:10EA800052CF4A8E4A8D4AAE63104A8D39CA422B04
:10EA900039CAAD77318720E639C952AC73D1636E7C
:10EAA0004ACC5B0E52CF5AF05B2F530F5B0F5AF0DC
:10EAB0004A8F4AAF5B104AAE5B105B2F52EF530F89
:10EAC000ADD8530F52F052F15B3153104ACF52F090
:10EAD00052F053305310531052CF52CF530F5B4F5D
:10EAE000635152CE52CE52EE4A6B4A8D4AAD4ACD58
:10EAF0004AAD4A8C4AAD4AAD4AAD4A8D52CF5AAF63
:10EB000052AE6330630F528D52AD5B0E52AD632F28
:10EB1000630E5ACD5AAB5ACB630B62EA5AC96309EA
:10EB200063096B29736A736973697B897B687327CF
:10EB30007B4873887BAB7BAA7B8A9CCCCE56FFFF3D
:10EB4000FFFFFFFFFFFFFFFFFFFFFFFFFFFFFFFFD5
:10EB5000FFFFFFFFFFFFFFFFFFFFFFFFFFFFFFFFC5
:10EB6000FFFFFFFFFFFFFFFFFFFFFFFFFFFFFFFFB5
:10EB7000FFFFFFFFFFFFFFFFFFFFFFFFFFFFFFFFA5
:10EB8000FFFFFFFFFFFFFFFFFFFFFFFFFFFFFFDFB5
:10EB9000FFFFFFFFFFDFFFFFFFDFFFFFFFFFFFFFC5
:10EBA000FFFFFFFFFFFFFFFFFFDFFFDFFFFFFFFFB5
:10EBB000FFDFFFFFFFFFE71CC655C65473AF63318D
:10EBC0006B5063108CD59D33955673D2530E5B2FCB
:10EBD0004AAE21684A6A8C715AAB316618C2086124
:10EBE000108218C3108320E418E318C418E418C373
:10EBF00029443184DEF7B59231A45B0D63308C93E8
:10EC00006B8F73D15B2E52ED52CD52CE52EE52CE5F
:10EC10005AEF4A8D31C92147424AE75DB5B5F7BC85
:10EC200062EB10A318C518A518C518C518C521058D
:10EC3000A514F7FED6FADF1C7C115B0E52CE635092
:10EC40005B305B0F5B0F5B0F5B1052EF52CE52CE0F
:10EC50005B0F52CF4AAD52CF5B0E52CF52AE4AAD90
:10EC60004A8E5AEF63705B2E5B2D39C92947210507
:10EC70002967EF7C8C4F41E66B4CB5B784328473C7
:10EC80007C315B2E7BF2630F5B0F634F634E5B2E19
:10EC90005B0E632F635052EE52CE52EF4AD05310A8
:10ECA00042AD4AEE530F53105B3052D04ACF53104F
:10ECB00052F0531052F0531052EF52EF530E5B507C
:10ECC0005B4E4AAE52AE4AAD4A8E52AE52AD52AED5
:10ECD00052AE4A8D4A8D4A8D4A6D424D528E426BDC
:10ECE00052CD4A8C4A6C424C4A8D4A6E528E52CF5B
:10ECF00052AF52AE52AE52CD52CD5AEE52AD5AEE46
:10ED00005ACC5B0C5B0B5AEA632A6B29738A7B89AA
:10ED10007B8973677B8A8BE98C0A9468BD92F7BF05
:10ED2000FFFFFFFFFFFFFFFFFFFFFFFFFFFFFFFFF3
:10ED3000FFFFFFFFFFFFFFFFFFFFFFFFFFFFFFFFE3
:10ED4000FFFFFFFFFFFFFFFFFFFFFFFFFFFFFFFFD3
:10ED5000FFFFFFFFFFFFFFFFFFFFFFFFFFFFFFFFC3
:10ED6000FFFFFFFFFFFFFFFFFFFFFFFFFFFFFFFFB3
:10ED7000FFFFFFFFFFDFFFFFFFDFFFFFFFFFFFFFE3
:10ED8000FFFFFFFFFFFFFFFFFFFEFFFEFFDFF7FDBF
:10ED9000EFDDE6FACE76B634BE72ADD46B91634F3A
:10EDA0007BF25B0F94F594D394F49D785B4F5B0FEB
:10EDB0004A8D21268451738F7BEEDEF99CD1294444
:10EDC000318539C6294418A220E3292420E418A358
:10EDD00020E318E23185318518C3528A7C11530D26
:10EDE0005B0D52AD632E5B0E5AEE5AEE52CD5B0FA9
:10EDF0006350424B29484A4B31858C8E6B8AA55211
:10EE000010A22945210510832105108318C418E399
:10EE1000BDD6D699E73CDF3C52EC5B105B1163300A
:10EE20005ACF52CF5AEF5B105AEF52CE52EF5AEFF1
:10EE300052EF52CE5B1052EF5B0F4AAE52EF4A8D4B
:10EE400052AE632F528C4A49BE179CB1944E18C3E0
:10EE5000C6994AABEFBB8C8FB5D68452ADD75B2E2B
:10EE6000B61A7C31A5B6847352AE63305B0F5B0F6C
:10EE70005B0F5B0F635063515B305B0F5B0F635045
:10EE800052EE632F5B0F632F630E5B0F5AEF5B0F26
:10EE90005B105AEF5AEF52CF5B1052CF6B50630F9B
:10EEA00052EE428D52CE4AAD4A8E52CF5ACF5ACEF2
:10EEB00052AE52AE4A8C3A4B3A2D31AC31AB3A0D90
:10EEC0003A0C52CC21669D367BF18C92634E635096
:10EED0005AF04A8E528F31AB528E4A6E6B515AF0B5
:10EEE0004ACF530F52CE5AAE526C5AAD52AC5AEB77
:10EEF000630C630A6309736A83CB948AB56FFFBDA1
:10EF0000FFFFFFFFFFFFFFFFFFFFFFFFFFFFFFFF11
:10EF1000FFFFFFFFFFFFFFFFFFFFFFFFFFFFFFFF01
:10EF2000FFFFFFFFFFFFFFFFFFFFFFFFFFFFFFFFF1
:10EF3000FFFFFFFFFFFFFFFFFFFFFFFFFFFFFFFFE1
:10EF4000FFFFFFFFFFFFFFFFFFFFFFFFFFFFFFFFD1
:10EF5000FFFFFFDFFFDFFFFFFFDFFFFFFFFFFFFF21
:10EF6000FFFFFFFFFFFFFFFFFFDFFFFFFFDFF7FEFA
:10EF7000D718A550B5CFB5F2C6D494F263516B90B3
:10EF8000634F9D379D35A5967C114AAE530E52CFE7
:10EF900031AA2146A5554A6AAD75F7BBFFFDCE776C
:10EFA000AD53D698C637A5336B4C318539C74A69FE
:10EFB000318529642944082018A352AB9CF4951587
:10EFC0005B0E634F5B0E52CD5AEE5B0E5AEE5B0F3B
:10EFD00052AE29882147422A18C3422563286B4A2A
:10EFE00018C21082210418C4212518C42104294400
:10EFF000AD5494B0D6B9A55452CC5B2F6330424C7B
:10F00000635063105B105B0F5AEF52EF52EF52AE3A
:10F0100052CE5AEF52EF52CE52EF4A8D52CE52CECE
:10F0200052AE5AEE420B3A09D71B840D396420E2E6
:10F030005B2A00208CAFC636AD5531C97C526BD1EE
:10F040008CB58C939D5652EF4A8D632F4AAD4AADD5
:10F050005AEE5B2F5B0F5B0F63505B0F5B0F6330F0
:10F060005B0F5B2F632F630F630E5B0F5AEE5AEF3C
:10F070005B0F52CF5B0F52CF5B0F5AEF63305AEFEB
:10F080005AEF4AAE5B305B0F4A8D4A8E4A6D4A4D4D
:10F0900052AE4AAD4AAD424C3A0C318B296931AB84
:10F0A00031AA21476B8FBE1AAD98B5D7ADB78C94F6
:10F0B0008C7373D17BF28C94634F5B0E4A8C422B22
:10F0C0004AAD4A8C4A8D528F4A8D4A8D52AD52AC10
:10F0D0004A8C52AE5AED5ACD630C6B6B8C6EE75C6A
:10F0E000FFFFFFFFFFFFFFFFFFFFFFFFFFFFFFFF30
:10F0F000FFFFFFFFFFFFFFFFFFFFFFFFFFFFFFFF20
:10F10000FFFFFFFFFFFFFFFFFFFFFFFFFFFFFFFF0F
:10F11000FFFFFFFFFFFFFFFFFFFFFFFFFFFFFFFFFF
:10F12000FFFFFFFFFFFFFFFFFFDFFFDFFFDFFFFF4F
:10F13000FFFFFFDFFFDFFFFFFFDFFFFFFFFFFFFF3F
:10F14000FFFFFFFFFFFFFFFFFFDFFFFFF7DEF7BD62
:10F15000EFDBD6F5BDCDBDF1BE7473EF6B725B0E08
:10F160004AAC6B91ADD8A59673D15B505B2F52CE54
:10F1700031CA4A8B8C9252ABDF1AD6B8DEF9E75B04
:10F18000E75AD6D9DEFAE75BD6B9AD94C637DEFAD0
:10F19000D6D9B5D5632B632B94917BF08CB3A5970F
:10F1A000530D5B2E52ED5AEE5AEE5B0E5AEE5B0F8C
:10F1B000422C214631A8630D18C32963DEF7AD73D5
:10F1C00018E318E3108210621062108218A2210363
:10F1D00041E66B8A94B052AA73D0A5765B0E8C740C
:10F1E0006B905AEE5AEF5B1063305AEF5B0F5AEF99
:10F1F0005B0F5B1052AD5ACE5AEE52CE52CE4AAE93
:10F200004AAD4AAE5B0F31C8742DEF76C58F942B93
:10F210005A8552246AE883CD736F31A9422A4A8DF8
:10F22000528E5AEE52AD52CF5AEE52CE4A8D4AAD60
:10F230005AEE52CE52CE52EE52EE5AEF52CE52AE5D
:10F2400052CE5B3052CE6B71632F5B2F5AEE5B0F49
:10F250005B2F5AEF52CE632F5AEE63506B7052AE53
:10F260004A8E52CE4AAD4AAD52AE4A6D528D52AE22
:10F270004A8D4AAD3A0C424D31CB2969298A424D1B
:10F2800031CB18E6424B6B9184548C93A5766BD1AD
:10F290008CB3CEBB94F473F0ADB79D154A8B424B43
:10F2A00052AC4A6C4A8D426E428E3A4D424D4A8D66
:10F2B0004A8E4AAD4AAE52CE52EE424B424ABE59F7
:10F2C000FFFFFFFFFFFFFFFFFFFFFFFFFFFFFFFF4E
:10F2D000FFFFFFFFFFFFFFFFFFFFFFFFFFFFFFFF3E
:10F2E000FFFFFFFFFFFFFFFFFFFFFFFFFFFFFFFF2E
:10F2F000FFFFFFFFFFFFFFFFFFFFFFFFFFFFFFFF1E
:10F30000FFFFFFFFFFFFFFDFFFDFFFDFFFDFFFDFAD
:10F31000FFDFFFFFFFFFFFDFFFDFFFFFFFFFFFFF5D
:10F32000FFFFFFFFFFFFFFFFFFDFFFFFF7DCF79DA2
:10F33000E77CE7BBEF58DED49D71636E635152CE1C
:10F340005B2E9D3794F58CD452EE5B506B9152EF4F
:10F35000214894B36B6D8C51EF7CDEF9D6B8D6F9A9
:10F36000D6D9DEF9D6D9D6F9DEF9E75BCE97DEF944
:10F37000DF1ADF19D6D9E77BEF9C94D38CB3636F88
:10F3800052ED634F52CD5AEE5AEE5AEE52CE5AEF2C
:10F3900031A921666B4E62ED294510808C4E948F09
:10F3A000292418A2086118E3106218A310A22945A5
:10F3B0003185840B6B6A4A8994B4CE9B94F49D1674
:10F3C000BE1A52CE52CE5AEF5B0F5AEF5AEF52EF9F
:10F3D00052EF52CF5ACE5AEF5AEF5B0F52CE4AAE8F
:10F3E00052CF5B0F4AAD6B4F634AF7B5E6CFBD4DC9
:10F3F00093C8F714FF7794914A6A6B904AAC52EE27
:10F4000052D04A8D4AAE5AF15AEF4A8D4A8D52AEC9
:10F4100052AE4AAE52CE4AAE4AAD4AAE4AAE52AEF5
:10F4200052CF52CF5B0F52AD52AD5B0E52EE52EE49
:10F430005B0F5AEE5B2F632F634F6B705ACF52AE48
:10F440004A8E5B0F4A6C4A8C422B5ACE52AD52AD5B
:10F450004A8C52CD4A4D39EC3A0B216818E831AB51
:10F46000298A31EA634F4A8D6B704A8B5B2D73F1A9
:10F4700073D18C93632E634EA556BE1A634F4A8D8B
:10F480004A4D4A2C4A6D426C4AAC4A8C4A6C4A4DF1
:10F49000422D42894AAC52ED428B52EF31CABE39FD
:10F4A000FFFFFFFFFFFFFFFFFFFFFFFFFFFFFFFF6C
:10F4B000FFFFFFFFFFFFFFFFFFFFFFFFFFFFFFFF5C
:10F4C000FFFFFFFFFFFFFFFFFFFFFFFFFFFFFFFF4C
:10F4D000FFFFFFFFFFFFFFFFFFFFFFFFFFFFFFFF3C
:10F4E000FFFFFFFFFFFFFFDFFFDFFFFFFFFFFFDF8C
:10F4F000FFDFFFFFFFFFFFDFFFDFFFFFFFFFFFDF9C
:10F50000FFDFFFFFFFFFFFFFFFFFFFDFF7DDEFDEA6
:10F51000DF3DE79EE7DFBE147C0E636F5B305AF081
:10F52000634EA577951673F15B2F5B0F5AEF4AADCB
:10F530002947A5354A69BDD7E77BC676CE98D6F967
:10F54000DF3AD6F9C657AD94C636DF3ACE97D6D84D
:10F55000CEB8D6D9DF1ADF19BE376BAEADD8634F40
:10F560005B2E634F5AEE5AEE5AEE5AEE52CE52CE00
:10F57000214729677BD04A29292410801080104018
:10F58000108218A310821082106218C318A318C327
:10F590002945DED6DEF8420873B16B6F52ED94D583
:10F5A0007C125B0F52CF52CE5AEF52CF5B0F52EF0D
:10F5B0005AEF5AEF52CF52EF52CE5B0F52CF5B1041
:10F5C000633052AD5AEE9CF4C659FFB9A4898BC57D
:10F5D0007B26CDEEF79573AD528B94B48CB452EE7E
:10F5E0004AAF52EF4AAE52F052AE5AF052CF52CF1B
:10F5F0004A8E52CF52CF4AAE52CE52AE52AE52CFB8
:10F6000052AF52CF5AEF52AD4A6C52CE4AAD4AADCC
:10F6100052CE4A8D5AEE4A8D634F52EE4A6D52CF0A
:10F620004A8D424C73B18C9494D531A939C94A6B37
:10F6300052AC420A4A4C420C3A0B31A821282949C3
:10F6400018E88CB5D71C8CB4AD978CB3A5767C32FA
:10F650005B0E73B152AD634F5AEE6B704A6D4A6EDA
:10F660004A6D4A4D4A4C630B738A8C2A7B8A62CD61
:10F67000422E424B5AEF5AEE4A8C5AEF528DE75DBA
:10F68000FFFFFFFFFFFFFFFFFFFFFFFFFFFFFFFF8A
:10F69000FFFFFFFFFFFFFFFFFFFFFFFFFFFFFFFF7A
:10F6A000FFFFFFFFFFFFFFFFFFFFFFFFFFFFFFFF6A
:10F6B000FFFFFFDFFFFFFFFFFFFFFFFFFFFFFFFF7A
:10F6C000FFFFFFFFFFFFFFFFFFFFFFFFFFFFFFDF6A
:10F6D000FFDFFFFFFFFFFFFFFFFFFFFFFFFFFFDF7A
:10F6E000FFFFFFFFFFFFFFFFFFDEFFBFF7DFF7FEBC
:10F6F000E79CE7BCB6FD95126B6E6BB15B0F635276
:10F70000A5767C309D3673F25B0E5B2F5AEE3A0B7A
:10F710005AED94B26B6D9D13DEFADF19CEB8DF3A65
:10F72000C6376B6C318521232103630BD6B8DF3AD2
:10F73000CE98D6FACE98DF1A9CF294F484525B2EBF
:10F740005B0E52CD52CD5B0E5B0E5AEE52CE424B4B
:10F75000214652CC5AEC39C78C506B2A39A4290364
:10F76000292520E418A32924210420E410821082F2
:10F7700020C43163630A10824A8B4AAC6B7052AE6C
:10F780004A6D63305AEF5B0F633052CF52AE52EF87
:10F790005B0F52CE530F530F4AAE530E4AAD52CDAC
:10F7A000528C2106A535B595F77BDE73BD0D940A05
:10F7B0007B6AB56ECEB4738E8C5384738CD46350D5
:10F7C0004A8E52CE52EE52AE4AAE52CF4A8E52AE10
:10F7D00052CF4AAE52AE52CF52AE4A8D4AAE5AEFD7
:10F7E00052AE4A8E4A6D52CE4AAD52CE4A8D4A8DA5
:10F7F00052CE4A8D52AD52AE630F5AEE52AD5ACE32
:10F800005ACE52AD7C128C93A5564A2A31A8528BFF
:10F8100052AB39A741E9316831A939CA21072149D9
:10F8200018E78CD584719D548CB3B5F77C5273D195
:10F83000AD975B2E94D48C9394F58C943A0B52AE86
:10F84000424D4A4E5ACB9CCCC5CBD62AA4A9736D47
:10F850004A8D422D4A6E52AD52CD420C9CF6FFFFAE
:10F86000FFFFFFFFFFFFFFFFFFFFFFFFFFFFFFFFA8
:10F87000FFFFFFFFFFFFFFFFFFFFFFFFFFFFFFFF98
:10F88000FFFFFFFFFFFFFFFFFFFFFFFFFFFFFFFF88
:10F89000FFFFFFFFFFFFFFFFFFFFFFFFFFFFFFFF78
:10F8A000FFFFFFFFFFFFFFFFFFFFFFFFFFFFFFDF88
:10F8B000FFDFFFDFFFDFFFFFFFFFFFFFFFFFFFFFB8
:10F8C000FFFFFFFFFFFFFFFFFFFEFFDEF7BFEFDEE3
:10F8D000EFDDE7DB8D748CD06B6F6BD2635063719F
:10F8E000B5F89D34A59852EE5B2F5B2F63302968E5
:10F8F0008C52738E7C0FA554DEF9DF3AEFBCA53332
:10F9000021442103296439C639C610815289D69809
:10F91000DEFAD6B9D6D9CE988C7194F49D15634F82
:10F920005B0E634F634F52CD52CE5AEE632F298840
:10F93000212684114208630CF79DEF7BB5B4840F38
:10F94000A5349CF37BEF42072964212431852103F0
:10F9500020E318A10841106152ABBDF973D352CE18
:10F96000633052CF52CF5B0F5B0F52AE52CE63303B
:10F9700052CE6BD295177C337C5373D1636F6BB0CF
:10F980005B0E52CC9CF4AD4FAD6CE6D1AD4E31A6C2
:10F9900062EC7BCCDED739C86B70632F632F5ACEF5
:10F9A0005ACF52AE5AEF52AE52CE52CE5AEF52AE5C
:10F9B0004A8D52AE52CE4AAD52CE52AD63504A8DB0
:10F9C0004A8D52EF4A8D4A8D4AAD52CE52AE4A8D83
:10F9D00052CE52CE52AE52AE4A6C52AD4A6C52AD7D
:10F9E0006B70634FAD777C11630D6B6E29464208D7
:10F9F00042288C516B6D39E85AAD294820E618C76A
:10FA000021285B2F428B9D357C31A5769D368C94C9
:10FA1000B5D852CCAD976B8FBE399D15426C4A6DEF
:10FA2000422D52AE738BC60DF72EFF90A48A6B0B3E
:10FA30004AAC5B2F73F16BAF52CC4A6BE75DF7DFDB
:10FA4000FFFFFFFFFFFFFFFFFFFFFFFFFFFFFFFFC6
:10FA5000FFFFFFFFFFFFFFFFFFFFFFFFFFFFFFFFB6
:10FA6000FFFFFFFFFFFFFFFFFFFFFFFFFFFFFFFFA6
:10FA7000FFFFFFFFFFDFFFDFFFDFFFDFFFFFFFFF16
:10FA8000FFFFFFFFFFFFFFFFFFFFFFFFFFFFFFDFA6
:10FA9000FFDFFFDFFFDFFFFFFFFFFFFFFFFFFFFFD6
:10FAA000FFFFFFFFFFFFFFFFFFFFFFFDF7DEF7BFD9
:10FAB000F7DEC6D98CCF94F0634F63506BB163709F
:10FAC000A596B6186BB05B4F52EF634F5B303A0AA6
:10FAD000AD965ACA8C91D6B9D6D9E75AC61718A28C
:10FAE00042075AEB738D6B6D738E632C4A488C7191
:10FAF000DEFACE98CE98CE798C9294F4845252CD80
:10FB00006BB152CD52CD634F5B0E632F5B0F2988D3
:10FB100031A894B23A07B595E73BCE57E73ADF1ADA
:10FB2000E75BDF1AEF7BC636840E9CF1B5D5AD746A
:10FB3000949031A539C64A88636CA55763505AEE34
:10FB40005B0F5B1052CF52CE5AEF5AEF7BF36350EC
:10FB5000424B8CD5635052EE63706B916B717C3469
:10FB60007C1384538453EF78E734B57194D23227F1
:10FB70006BAF83EFAD51420A5ACE4A8D5B0F6330B3
:10FB800052AF52AE52AE5AEF4A8D4AAD5B0F52AEF3
:10FB900052EF4A6D52CE4AAD52AE52CE6BB15AEED2
:10FBA0005AEE426C8CB494F573F152AE52AE5B2FA8
:10FBB0004A6C4A6D52CE422B5AEE4A8D52AD634F7B
:10FBC00052CD73D18432630D84106B6E39C74228D5
:10FBD000296520E320E32103630D20E720E5422B84
:10FBE00010A6210819272127298963704AAC73D1EF
:10FBF000634F843284739D36BE19424B424C4A8E09
:10FC00004A6D4A4C738C9CCBDE8FBD6C7B8A6B4EED
:10FC1000428CC67B8472A5976BB06BB0FFFFF7BEBA
:10FC2000FFFFFFFFFFFFFFFFFFFFFFFFFFFFFFFFE4
:10FC3000FFFFFFFFFFFFFFFFFFFFFFFFFFFFFFFFD4
:10FC4000FFFFFFFFFFFFFFFFFFFFFFFFFFFFFFFFC4
:10FC5000FFFFFFFFFFDFFFDFFFDFFFDFFFFFFFFF34
:10FC6000FFFFFFFFFFFFFFFFFFFFFFFFFFFFFFFFA4
:10FC7000FFFFFFFFFFFFFFFFFFFFFFFFFFFFFFFF94
:10FC8000FFFFFFFFFFFFFFFFFFFFFFFEFFDEFFBFE6
:10FC9000F7DDC698CE35842F6BD2637152EFADD8A5
:10FCA000847273F1ADB8636F5B515B4F4AAE7BF208
:10FCB00084517BEE94B1E75BDF3ADF3A6B6C2965E8
:10FCC0007BEF6B4D6B6D632D6B6D6B8D6B4D6B6D4A
:10FCD000DF1AD6D9D6FA94D29D149D15741252CD3E
:10FCE000632F424B3A0A5AEE636F52ED4A8C2988D1
:10FCF0005AEC6B4C52A8E73ADEDACE78D698D6B8F2
:10FD0000CE98D6B8D6D8D6D8E75ADF19C656DF1956
:10FD1000D6B8BDF6BDF6DF3A9D1373D152AE52EEA2
:10FD20005B0F5B305AEF52AE5B0F633052AD4A8CC3
:10FD3000634FA5773A0B5B0F4A8D5AEF426D4AAE7F
:10FD400052EF52AE52CE8C919470CDD662AA39C584
:10FD50004A46AD52AD5263706350530F5B505B0F18
:10FD600052EF4A6D424C4A8D4AAD52AE5AEF52AEF6
:10FD70005AF04AAE52CF52CE52AE52EE4A6C5B2F80
:10FD800052CD424B9D16B5D984534A8C73D1A537B9
:10FD90007C334A8CA5777C33634F6B7073D1634F90
:10FDA0006B90634F190552CC84105ACB630C6B4D8A
:10FDB000738D52AA5AEA39A639C839C9A514528C8A
:10FDC00018E7190921492149422D424C4A8C424CDD
:10FDD000424B52CD4A6C632F6B70424B4A4C4A8D5A
:10FDE00041EB52AD52AB6B4B6B495AA96B2F52CEC4
:10FDF0005B309D1584529D16422BE73DF7DEFFDEFA
:10FE0000FFFFFFFFFFFFFFFFFFFFFFFFFFFFFFFF02
:10FE1000FFFFFFFFFFFFFFFFFFFFFFFFFFFFFFFFF2
:10FE2000FFFFFFFFFFFFFFFFFFFFFFFFFFFFFFFFE2
:10FE3000FFFFFFFFFFDFFFDFFFDFFFDFFFFFFFFF52
:10FE4000FFFFFFFFFFFFFFFFFFFFFFFFFFFFFFFFC2
:10FE5000FFFFFFFFFFFFFFFFFFFFFFFFFFFFFFFFB2
:10FE6000FFFFFFFFFFFFFFFFFFFFFFFFFFDFFFDFE2
:10FE7000E75BC655C5F473B063915B506BD2C69A0D
:10FE800094F57C12C65B637052EF5B2F5AEF94D5EA
:10FE900073CE6B6DBDD6E75BD6F9DF1A52A96B6DD9
:10FEA00052CA632C52AB632C632D6B6D6B6D840F48
:10FEB000D6F9D6F9CED973F08C94634F52ED5B0F1F
:10FEC00052CD5B0E52EE4AAD5AEE52AD424B214737
:10FED00094D331C6844FFFFDCE98DEFACE78D6F9A2
:10FEE000D6F9C677BE36CE98D6D9CE77CE77CE772E
:10FEF000CE97D6B7DEF9BDF694B37C114AAD5AEE73
:10FF00005AEF63305AEF52AE52CE52CE52AD424B00
:10FF100073F17412845473F28CB55B2F6B9173D2AE
:10FF2000424C422B4A6C736F4A0AB4F183686AAA46
:10FF300083AACDF37B906BF26BF16BF17412849416
:10FF400073F273B273D24AAD52CE4AAE4A8D4A6D45
:10FF50004A6D4A8E52AF52CF52AE52CE5AEE52AD89
:10FF60005B0E632EB5D9AD774AAD634FA5569D158F
:10FF70004A8C6BB0A5777C325B0D8472AD98B5F975
:10FF80004A8C4A6C39E98452630C52AB5AEC630CCC
:10FF9000632C52AA5AEC4A8A41E85269B554422A63
:10FFA00018E718E829AA18E7296A422C4A8D4A8DD1
:10FFB0004A8D4A8D422C422B422C4A4C4A6D422C8F
:10FFC0004A6D424C528D5ACD5AED5AEF52B0424DC5
:10FFD0005B0EC6798CB352AD6B4FEF7DF7BDFFDE84
:10FFE000FFFFFFFFFFFFFFFFFFFFFFFFFFFFFFFF21
:10FFF000FFFFFFFFFFFFFFFFFFFFFFFFFFFFFFFF11
:020000040001F9
:10000000FFFFFFFFFFFFFFFFFFFFFFFFFFFFFFFF00
:10001000FFFFFFFFFFFFFFFFFFFFFFFFFFFFFFFFF0
:10002000FFFFFFFFFFFFFFFFFFFFFFFFFFFFFFFFE0
:10003000FFFFFFFFFFFFFFFFFFFFFFFFFFFFFFFFD0
:10004000FFFFFFFFFFFFFFFFFFFEFFFEFFDFF7DF0A
:10005000D6DABE118CCE63905B71530F6BB0530D2B
:1000600073D195158C945B305B305B4F63507BF2A2
:1000700052A9630BCE58E73BD6D9E75B632B6B8D58
:100080005AEB5B0C632D634D634D634D632CB5D50B
:10009000D719D718CED973D08C944ACD52EE5B0FB6
:1000A0006B7052AD5B2E52AD5AEE52ED422A39E9D9
:1000B00094F3420873ADD6B8CEB8CE77D6D9C6572A
:1000C0007C2F4A8931C639E67BEECE98D6D9CE77D9
:1000D000D6B8BE35CE7794B38C9452ED5B0E52AE4B
:1000E0005B0F5B0F52EF5ACF5ACF52AE52CE424BFC
:1000F0009D564ACCADF95B6F9D765B4EA5564AACDA
:100100005AEDD69B949373EF94B55AAC94D09D510D
:100110008C6F62ADADD78CF5638F84727C32636F68
:1001200052CD630F7BF27C127C3273F26BB173F2AF
:100130006B7163305B0F4A6D4A6D52CF5AEF52AD0F
:100140004A8C8CB5A5578C744A8D9514ADB78452E2
:10015000426AB5D895158492530D9D35A55673B155
:1001600052CD4A6C4A4B73D05ACC52AB632C5ACB0B
:100170005AEC5AEC4A8B52AC2924734B8C0F31A8A1
:1001800010A618E818E719072969422C4A8D4A6D0C
:100190004A6D4A6D4A6E4A6D422D52AE4A6D422DED
:1001A0004AAD3A2C52B0422E4A8D5B30422D4A6CF9
:1001B000A5578470A5563A0BD6BCF7BEFFFEFFFFCD
:1001C000FFFFFFFFFFFFFFFFFFFFFFFFFFFFFFFF3F
:1001D000FFFFFFFFFFFFFFFFFFFFFFFFFFFFFFFF2F
:1001E000FFFFFFFFFFFFFFFFFFFFFFFFFFFFFFFF1F
:1001F000FFFFFFFFFFFFFFFFFFFFFFFFFFFFFFFF0F
:10020000FFFFFFFFFFFFFFFFFFFFFFFFFFFFFFFFFE
:10021000FFFFFFFFFFFFFFFFFFFFFFFFFFFFFFFFEE
:10022000FFFFFFFFFFFFFFFFFFDFF7DFF7FEF7DE58
:10023000CE77CEB57C31639263725B1074127C52C0
:100240007C326BB14AAE531052EF5B2E5B0E52CD37
:100250004A8BD6B9EF9BDEF9D6BAE77D94B15289C5
:10026000634C634D6B6D6B6D634C636C6B6DDF1B2F
:10027000DF19D6F98C7294D48CB36BD15B4F951681
:100280007C125B2F7C33530E7C535B0F2988738F5A
:10029000736E6B4D9491D6F9D6D9DEFABDF641E76F
:1002A000004010A2296510A108615AC9E75BCE98E9
:1002B000C617CE98C6588452AD7773B152CE52CE7F
:1002C0005AEF5B1052CF5B0F5AEF52CF63306B92F5
:1002D0009D174A6D741273F17C5273F194F44AAC19
:1002E0006BB0D71C7C0FAD75EFBE847152EE426DC2
:1002F0003A2C9D3663AE8C9284728D365B6F4A4B7E
:10030000AD3531A6000331A652CD52CD5B2E636FC1
:1003100073D273D27C3384536B71428C52AD5AAF1B
:1003200062CBA510A4F26B6D636FA4D7ADB9636FF8
:1003300083F394F68D13632E7370A597BE194A6CE0
:100340004A4D39CB526D630F5ACD4A8B5AEB4A69ED
:100350005AEB5AEA4A6A422B5AEAAD70AD30318AFA
:1003600018C7296A20E820E72128420B4A6D422C51
:100370004A4C39EA528D4A6D422C4A6D4A4C422D04
:10038000422D4AAD52AF4A4D4249D6FC31CBA5571A
:100390009D168C956B90632EF7DFFFFEFFDEFFDF6F
:1003A000FFFFFFFFFFFFFFFFFFFFFFFFFFFFFFFF5D
:1003B000FFFFFFFFFFFFFFFFFFFFFFFFFFFFFFFF4D
:1003C000FFFFFFFFFFFFFFFFFFFFFFFFFFFFFFFF3D
:1003D000FFFFFFFFFFDFFFDFFFFFFFDFFFFFFFFF8D
:1003E000FFFFFFFFFFFFFFFFFFFFFFFFFFFFFFFF1D
:1003F000FFFFFFFFFFFFFFFFFFFFFFFFFFFFFFFF0D
:10040000FFFFFFFFFFFFFFFFFFDFF7DFF7DEEF9DDF
:10041000BDF4C655636F5B5053105B30ADD8B63931
:10042000A5775B305B51530F5B0F5B3052CE6B9007
:100430007C10E77BDEF9D6D8DEF9CEB8D6B994B217
:10044000630C5AEC5AEC6B8E5B0C6B8EA555E75C1B
:10045000D6F9D6D973AFC63A8CB394F55B2E8C74AB
:100460005B2DCE9B73F1CE9B5B0D3A0A29678451BD
:10047000528A7BCEC657EF9BE75BCE9831852944E5
:100480004A6952AA632C52CA632B39E69D12CE9850
:10049000CE77CEB9BDF7B5B79CF55AEE52CE52CE57
:1004A00052CE52CE52CE632F52CE5AEE4A8D8C95FA
:1004B000632F52CE4ACE426C29894AAD4AAC4ACD0E
:1004C0005B0F422A4AAAAD56AD765B2D633052AF20
:1004D0006351A5585B0ECEBB638F8CB52967526AFA
:1004E000CE59A53362EC736D94F48C936B8F8CB4FE
:1004F0004A8D4AAD31C984327C324AAD6311520A09
:10050000DE52DE6EB550520B948EA52D9D3452CD29
:10051000945294F19533424B9CF584D47BF14A4B31
:1005200052AE4A6D3169420A39EA5ACD4A8B52AC11
:10053000420A6B8D630D296852CBB5B45AAA29695A
:100540003189296918C718C7212739CA422B4A4C53
:10055000422B52AD52AD4A4D4A4D4A6C424C4A6D07
:100560004A4D4A4D4A8F3A0C8C919D3639CBBE1A72
:100570007C11A55752ADB5F8F7DEF7DEFFDEFFFFC1
:10058000FFFFFFFFFFFFFFFFFFFFFFFFFFFFFFFF7B
:10059000FFFFFFFFFFFFFFFFFFFFFFFFFFFFFFFF6B
:1005A000FFFFFFFFFFFFFFFFFFFFFFFFFFFFFFFF5B
:1005B000FFFFFFFFFFDFFFFFFFDFFFFFFFFFFFFF8B
:1005C000FFFFFFFFFFFFFFFFFFFFFFFFFFFFFFFF3B
:1005D000FFFFFFFFFFFFFFFFFFFFFFFFFFFFFFFF2B
:1005E000FFFFFFFFFFFFFFDFFFFFFFFFF7BFDEF9AA
:1005F000BE13A552632F6BB173D27412BE5AB639B3
:100600007C52530F52EF6371530F5B11424CD6DB98
:10061000AD74E75ADEF8DEF8DF39D6F7DF1ADEFA16
:10062000AD746B6D6B4D6B6D8451B5D7EF7DD6BAE4
:10063000DF1AAD747C3294D49D35424A741073AF86
:10064000002031864A8B7C314A8B4A8B632D73CED6
:10065000632C6B8DEFBCD6D9E79B842F2964738DF7
:100660006B8E5ACB6B4D632D6B4D6B6C7C0EDEF934
:10067000D697CEB894D28CB37BF1635052AD5AEF7B
:100680006330632F52CD5B0F52ED424B31E8AD9793
:100690004A8B4A8B52CE52CE424C3A0C4A8D635012
:1006A0003A0C420B5AECD679AD76420A4A6D633069
:1006B00052AE298973B15AED52ED63305ACC9CD2B7
:1006C000736DCE77F7BCAD13638D94F473D08C94B7
:1006D000424C5AEE424AA57639E94A8E4A0E7B6B65
:1006E000E66DEECE8B8A72C9F730EECC836B836CED
:1006F000DE71D6924A49734EA4EF8C8F630D52ADD2
:1007000052AD39CA420B422B210639C9422B39CB93
:1007100029484A6B298952EE84736B6F20A72127E1
:1007200018E7212818E7210718E72968528D4A6C35
:100730005AEF4A6C4A6C4A6D4A4D4A8D4A6D4A6D71
:100740004A6D4A8D4A4E422CCEBA424B5ACF31C9DD
:100750006B6F4A6C5B0DEF9EE75DF7DEFFDEFFFF20
:10076000FFFFFFFFFFFFFFFFFFFFFFFFFFFFFFFF99
:10077000FFFFFFFFFFFFFFFFFFFFFFFFFFFFFFFF89
:10078000FFFFFFFFFFFFFFFFFFFFFFFFFFFFFFFF79
:10079000FFFFFFFFFFDFFFDFFFFFFFFFFFFFFFFFA9
:1007A000FFFFFFFFFFFFFFFFFFFFFFFFFFFFFFFF59
:1007B000FFFFFFFFFFFFFFFFFFFFFFFFFFFFFFFF49
:1007C000FFFFFFFFFFFFFFFFFFFFFFFFF79EC65684
:1007D000B6127C3173F37412634F7C3284729D5570
:1007E0006BB04ACE5B50530F532F5AEF635094B304
:1007F000DF1AE73ADEF9CE77CEB7DEF9D6D8D6B82B
:10080000DF3ACE97CE77CE77E73AD6D9CE98D6D9FB
:10081000DF3A8CB2632F52AD4AAC39C87C10C6584F
:1008200039E5210294D3843152CD5AED8411630B02
:10083000630B9491E77CD6DADF1B52CA4A89634D79
:1008400052AA632C6B4D630D632D5ACB842FDF1A94
:10085000D6B9D6D973CE6BAF31C952AE52AE52CEE5
:100860005B0F5AEF52CE52CE4A8D52CD4AAC6BAF8F
:1008700052ED52CD52CD4AAD52CD5B0F424D845315
:1008800073F35ACE9CF29CB062EC528C4A8C422B91
:100890005AEDAD96528A528B52AC39CA9CF4C5F4CB
:1008A0005A894A47738BC6156BCF73D16B915AEF38
:1008B0004A6D52AE6B8F8C9352CE4A4E424C8C4E48
:1008C000E6D2BD91524ABDAEFF70CD4C7289D5B013
:1008D000EEACCD6E6249DDD1E66DD6114A8B5AEE93
:1008E000528C4A6D5ACE4A6C39C939EA39EA4A6C97
:1008F0002148298919076350B5F9635018C81907A9
:1009000018C72108210818C7210729694A4C4A6DD0
:10091000528D39EA422B420C4A6D4A6D4A6D424D66
:100920004A8D4A8D422D7BF2A556424C4A8D7C124F
:100930003A2A422BA556F7DFF7DEFFDEFFFFFFFF67
:10094000FFFFFFFFFFFFFFFFFFFFFFFFFFFFFFFFB7
:10095000FFFFFFFFFFFFFFFFFFFFFFFFFFFFFFFFA7
:10096000FFFFFFFFFFFFFFFFFFFFFFFFFFFFFFFF97
:10097000FFFFFFFFF7DEFFDFFFFFFFFFFFFFFFFFD0
:10098000FFFFFFFFFFFFFFFFFFFFFFFFFFFFFFFF77
:10099000FFFFFFFFFFFFFFDFFFFFFFFFFFFFFFFF87
:1009A000FFFFFFFFFFFFFFFFFFFFFFDEE73CBE345F
:1009B000B5F273D163504AAC52CDB5F8A576ADB758
:1009C0005B2E5B0F5B1052EF5B505B106B9152CD57
:1009D000D6BBCE99D6B9E73BE77CDF3BDF1AD6D949
:1009E000D6B8E73AE77ACEB7D6D7CEB7D6D8CE982C
:1009F000C6776B8D635052AD422A738F4A4994B0CB
:100A0000AD93B5F58C926B9052CD52CE5B0D4A8A68
:100A10004A69CE99DF1AD6FAD6FA5B4C5B2C6B8DFD
:100A2000634C5AEB630C632D6B4E528ABDD6CE7964
:100A3000DEBA9D748CB25B0D4A8D52CE52CE5AEF07
:100A40005AEF52AE52CF52AF52AE4A8D52AD424BD8
:100A50004A8D5ACF52CC52AD52ED4A8C73D25B2D97
:100A600052CD5AACCE979CD06B2D528D52AC4208D1
:100A7000AD759D12632BEF5B630D4A4C73CDD6941D
:100A8000ACF294306B2A8C6F636E424C424D4A6DCF
:100A900052CF4A8EA5575AEE5B0E634E8CD48451CA
:100AA0005AEB5AED4AAC62ECA46E8C0E4A0AC6337D
:100AB000E71073087B6BF751EECD836A4AAC52ADF9
:100AC0004A6C4A4C5AEE4A4C5B0E39EA39EA424AC1
:100AD0003A094A8C2147A5B7741110C6210910A6FE
:100AE000210818E810A718C718C721284A4D4A4DF1
:100AF0004A4C422C528D4A4C4A6D424C4A6D4A6DCA
:100B00004A6D52AD4A6CCE7B52AE6B505AED8C930F
:100B10004A6D5AEDEF7EEF9EFFFFFFDEFFDFFFFF26
:100B2000FFFFFFFFFFFFFFFFFFFFFFFFFFFFFFFFD5
:100B3000FFFFFFFFFFFFFFFFFFFFFFFFFFFFFFFFC5
:100B4000FFFFFFFFFFFFFFFFFFFFFFFFFFFFFFFFB5
:100B5000FFFFFFFFFFDFFFDFFFFFFFFFFFFFFFFFE5
:100B6000FFFFFFFFFFFFFFFFFFFFFFFFFFFFFFFF95
:100B7000FFFFFFFFFFFFFFFFFFFFFFFFFFFFFFFF85
:100B8000FFFFFFFFFFDFFFDFF7DFF7DEDEB9C65451
:100B90009D3263915B0F5B2E73D1A597A5768CF484
:100BA0004AAC4AAE4AAE5B305B3063305B306B922E
:100BB00052AD5B0D73AF845194F4A55594B273CFCD
:100BC0007C10A554BE17E75BDF39D6F8D6D7E73BD4
:100BD000A5544AAA5B0E8C73630D7BD17BD05B0A54
:100BE0007C0D8CD16B8F52CD5B3063304AAD4A891E
:100BF000AD74E75BD6D9D6B9E77C84705AEB6B8DC0
:100C0000632B5B0B6B6E6B6E6B4D738ED6DAD6B946
:100C1000CE78A5759D3573F152EE52AE5AEF4AAEBD
:100C20005B0F4AAE4A8E52AF5AEF52AD94F54A6C02
:100C30003A0B52CF52AB6B5052ED73D18474953551
:100C4000636F5AEDCE767BCD5AAC4A8D426B52CB58
:100C500094D1630A5AC973CC62EC736F6B6ADEF588
:100C6000D698D679F77CBDB56B8F8C954A6D4AAE18
:100C700052CE5B0F94F539CA52AD73F09D35847432
:100C8000CE9D634F530E422F4A4C4A8A52F05B0C62
:100C9000632952AC5AEBB5B0B5504A09420A424BEF
:100CA000422B39EA422B4A6C4A6C39EB4A8D3A2A7C
:100CB00094D42967426B5B4D29A8190810A729898C
:100CC00010C6212810A518E70864002431894A6D50
:100CD000424C4A4C4A8D4A4C424C4A6D52AE52AE3E
:100CE000424E424C5AECB5D9420B4A6B39E83A0AAB
:100CF00052AE94B4F7DFF7DFF7BEF7BEF7DEFFFFC3
:100D0000FFFFFFFFFFFFFFFFFFFFFFFFFFFFFFFFF3
:100D1000FFFFFFFFFFFFFFFFFFFFFFFFFFFFFFFFE3
:100D2000FFFFFFFFFFFFFFFFFFFFFFFFFFFFFFDFF3
:100D3000FFDFFFFFFFFFFFFFFFFFFFFFFFDFFFDF23
:100D4000FFDFFFDFFFFFFFFFFFFFFFFFFFFFFFFFF3
:100D5000FFFFFFFFFFFFFFFFFFFFFFFFFFFFFFFFA3
:100D6000FFFFFFFFFFDFFFDFF7DEF7BEC655BE3335
:100D70007C3063916B905AEE73F18CB3A5767C5204
:100D80006BD2530F5B1029AA424C422A4A6C424B49
:100D90004A8D52AD5B2F5B0E5AEE634F4A6C634F28
:100DA0006B505ACE632F8C939D14B5D7BDF6CE7978
:100DB0008C724249424A8C9242292926210431C729
:100DC00039E67C0F8CB4424C4AAE52AE84525B0B77
:100DD000F79DDF1BE75BD6BADEFACEB97C0F5B0C62
:100DE000634D634D632D5AEC630CB5B6DF1ACE9894
:100DF000C636B6389D15951652CE5AEF5AEF5AEEB2
:100E000052AE52CD52CD4AAD4A6C7C3273F14A8B10
:100E1000422B4A4C632E528D7C328C746B91A59779
:100E20007BF1B5B85AC831644A498452634E7C0F8D
:100E3000E73B9CD29CF1B5F44A6AA4D3BDB2DEF77D
:100E4000BE16D6D9C638AD349D3573F2426C4AAD64
:100E50003A2B8CB44AAB5AEE5B2F6BB05ACC31872D
:100E6000630E528C6B30632E5B70528C6312634E38
:100E7000A53573B39CF64A4B528C5AED52CD39EAE4
:100E800029892968212710C62128296931CB10A575
:100E9000630E4A6C73D27C32212810C7424CD6DCD8
:100EA00052ED086318C57C1152AC738F6B6F422BE7
:100EB000422B4A4C4A6C4A4C424B52AD420B422C9C
:100EC000422E3A0BB5F7634F3A0B7BF084524A6DD2
:100ED00052AEE73DFFFFF7DEF7BEFFDEFFDFFFDFCD
:100EE000FFFFFFFFFFFFFFFFFFFFFFFFFFFFFFFF12
:100EF000FFFFFFFFFFFFFFFFFFFFFFFFFFFFFFFF02
:100F0000FFFFFFFFFFFFFFFFFFFFFFFFFFFFFFDF11
:100F1000FFDFFFDFFFFFFFFFFFFFFFFFFFDFFFDF61
:100F2000FFDFFFDFFFFFFFFFFFFFFFFFFFFFFFFF11
:100F3000FFFFFFFFFFFFFFFFFFFFFFFFFFFFFFFFC1
:100F4000FFFFFFFFFFDFFFDFF7DEF79DBE34B5D306
:100F500073D163505B4F6370A5779D569D36530EDA
:100F600063505B104A8E214818E66BAE8CB28471D8
:100F7000634E422C3A0C5AF0426D52AD39EB5AEFA7
:100F80004A6D5AEF6310635052CE5B0F52CC632F01
:100F9000630E5AEC632D9CF352AA73AF632C630D5E
:100FA00042296B4E634F52CD52CD6B6FBDF79D13EF
:100FB000F79DDEFADEFACE99D6B9DF1BE75CA554C1
:100FC0006B8D6B6D634C7C2FBDF6E75BCE77D6DA0D
:100FD00094D273F195166B9152EE5B0F5AEE5AEF65
:100FE0005AEF52CD52CD19065B0E9D3631E9424A79
:100FF00052AC4A6B298829485AEE634F632F9D35BE
:101000004A8CE73E844E5AE97C2F7C1173B094B32E
:10101000D6DB8C71DF3AB6174A6BB574CE35CE97F6
:10102000CE77BE16BDF64A29741152CE4A8D52EDC6
:10103000424BAD9831A852CD424BBE37A5144A0859
:101040002124B5776AED5AAC530E62CD62CF7C0F86
:1010500094B28434A5764A6C5B103A2A4A4B422BF0
:10106000296931CA190718E7296918E721281907DA
:1010700010A6212939CC31CB18C819085AEDADB7C3
:1010800039E9212510C48431632D8C9239E939E97D
:10109000528C528D4A6C52AC73F13A0B6B7052AD5C
:1010A000422D52ADC67A3A2B422AC6584A6C52AEED
:1010B0008453FFFFFFDFF7BEFFDEFFFFFFFFFFDF11
:1010C000FFFFFFFFFFFFFFFFFFFFFFFFFFFFFFFF30
:1010D000FFFFFFFFFFFFFFFFFFFFFFFFFFFFFFFF20
:1010E000FFFFFFFFFFFFFFFFFFFFFFFFFFFFFFDF30
:1010F000FFDFFFDFFFFFFFFFFFFFFFFFFFFFFFFF40
:10110000FFFFFFFFFFFFFFFFFFFFFFFFFFFFFFFFEF
:10111000FFFFFFFFFFFFFFFFFFFFFFFFFFFFFFFFDF
:10112000FFFFFFDFFFDFFFDFFFDED6D9BE349D32DA
:10113000632F63505B2F52CD9515ADB873F1530EED
:1011400052EF5B103A0B31A918E6B5D6CED99512FD
:1011500095134A8C0886190810E62147214729A9CA
:10116000422B4A8C3A0A424C5AEF5AEF52CD635006
:101170004A6C52CC7BF073CE6B6C738E73CE6B6FFC
:101180007BF06B4F4A6CB5D97C11630D632CDEFA92
:10119000DF1AD6F9D6B8DF3AD6D8CE98D6B8DEF967
:1011A000CEB9C678CE98DF1ADF1ACEB8CE99DEFB5C
:1011B0006B4E52EE52CD4AAD5AEF52CE52CE52AD98
:1011C00052CE52CE4AAC424B3A2A8CB44A6C4A8C2C
:1011D0006B4F29462146294752AC52CC52AB3A08B4
:1011E000294652AAEF9BE77A94D252CD5ACE631089
:1011F0005ACE6B6F94B3634F73907BCDD6B7D6DA6C
:10120000DED9E73B94B13A09424C4AAE4AAE4A8C29
:101210007C136BB14A6C4A8D52AD5ACBC5F85ACA91
:1012200095126B6D41E9628E528C5ACD4A6CA55273
:101230004AA93A084288634D5B0F5ACE39EA4A4CB4
:1012400031AA298910C7845418E731CA6330298923
:1012500031892969108510C610C7108518E418C493
:101260005ACC4A6A420939C831A7422929674A4BF0
:101270004A8C4A6C39EA73D0B5F994B573D19D168E
:101280004A6C9D5673F16BB1BE38D6FA73B2422CDC
:10129000CE9AF79EFFFFFFFFFFFFFFFFFFFFFFDF7D
:1012A000FFFFFFFFFFFFFFFFFFFFFFFFFFFFFFFF4E
:1012B000FFFFFFFFFFFFFFFFFFFFFFFFFFFFFFFF3E
:1012C000FFFFFFFFFFFFFFFFFFFFFFFFFFDFFFFF4E
:1012D000FFFFFFDFFFFFFFFFFFFFFFFFFFFFFFFF3E
:1012E000FFFFFFFFFFFFFFFFFFFFFFFFFFFFFFFF0E
:1012F000FFFFFFFFFFFFFFFFFFFFFFFFFFFFFFFFFE
:10130000FFFFFFDFFFDFFFDFFFFEBE36BE758CB1E4
:10131000634F6B715B0F8CB495158CD4639052CE78
:101320005B105B0F422B08A439E9D6DBF7DEC678E9
:101330007C2F00625B2E3A0A1906298718E61905E8
:10134000AD96B617CE99B5D85B0E52AE5B2E52CE87
:101350004A8D5B0E94B352A973CE6B8E6BAD6B6EE0
:10136000634D632E843394D54AAC52CD5ACCE71CDE
:10137000CEB9D6FAE77BD6F9E77BDF3AD6F9DF1AA2
:10138000DF1AD6D9D6D9CE97C676CEB8D6BAAD762C
:101390005ACD52CE5B0F5AEF52EE4AAD5AEE5B0F6A
:1013A00052AD4A6C4A8C5B0E298852EE3A2B5AEEAB
:1013B00029885B0D10C331A67BCF7BCF738D73AEB5
:1013C000738F73AE7BED844F5B0C39C84A4C39CABE
:1013D00031885ACD52CD52AD52ACE71A632A6B4CCC
:1013E000AD54B59652AA7C3252CD4A8D52EE31A9F7
:1013F000B5DA4A6D52AD5AED4A4B947462EB632BE9
:101400007C515B6D4A6D528D4A4A630E41EACE991A
:10141000BE3742074A49947331675A8D31884A4C26
:1014200018E718E710C6A578632F7C129D3631C9DE
:101430008C748C93634D5B0C4A6B630D294639A702
:1014400052AB2105212510A339C839C884117390E6
:10145000424A4A8C73D18C726B8F8CB452CDA57773
:101460003A2AA59629A96351C699C67973B36B70B8
:10147000FFFFF79EFFFFFFDEF7DEFFFFFFFFFFDF4F
:10148000FFFFFFFFFFFFFFFFFFFFFFFFFFFFFFFF6C
:10149000FFFFFFFFFFFFFFFFFFFFFFFFFFFFFFFF5C
:1014A000FFFFFFFFFFFFFFFFFFFFFFFFFFDFFFFF6C
:1014B000FFFFFFDFFFFFFFFFFFFFFFFFFFFFFFFF5C
:1014C000FFFFFFFFFFFFFFFFFFFFFFFFFFFFFFFF2C
:1014D000FFFFFFFFFFFFFFFFFFFFFFFFFFFFFFFF1C
:1014E000FFFFFFDFFFDFFFDEF79DB5F4B6357C2F92
:1014F000634F63515AEFADB8ADB7B5F952CD5B50FC
:101500005B0F52CE31A908848432E73CB595C6788A
:1015100042683A2873F0849473F263718CB5216643
:10152000BE57DF3ADF7BDF5B5B0D5B0E530C636FF7
:101530006330630E6B6E5AEA73AE6BAF6B8E5B6C8F
:101540006BCE530D9D576BD13A4A4A8D5ACE5AEE07
:1015500073B06BAF8451AD95A5558C717BF0843120
:10156000A513CE99D6D9DEF8D718CE97D6DA7BEF69
:10157000630D5B105AEF52CF4A8D5B2F637063701F
:101580005B2F52AE4A8D426B951521685AEF39EAAE
:10159000422A5B0C10A210800860294420E239C660
:1015A000420952895AA95ACB52CA73CE738D6B4CD9
:1015B0004A8942294AAE3A6B5AEDAD33BD95A552E0
:1015C000844F5AED31C784535B2D9D5763904AADCC
:1015D0008434424C52CC4AAB424AD6D9C5F58C3100
:1015E0007390ADD69D566BB24A4C630E526C630E2F
:1015F0009D1442479CD34A2B4A29526C4A4B3A0AC3
:1016000018E71908424C8CB57C3294F55B4E29A73B
:101610009D3694F58CB252CAD6DBDF1CB596738E1C
:101620005ACB210418C3106118C210A329255AED02
:1016300039E97BF29CF5634E7C3173F294D5845288
:1016400094F484925B2F63519D344AAB4A2DCE7A39
:10165000F7DEF7BEFFDEFFFEFFFFFFDFFFDFFFFF6E
:10166000FFFFFFFFFFFFFFFFFFFFFFFFFFFFFFFF8A
:10167000FFFFFFFFFFFFFFFFFFFFFFFFFFFFFFFF7A
:10168000FFFFFFFFFFFFFFFFFFFFFFFFFFDFFFFF8A
:10169000FFFFFFDFFFFFFFFFFFFFFFDFFFFFFFFF9A
:1016A000FFFFFFFFFFFFFFDFFFFFFFFFFFFFFFFF6A
:1016B000FFFFFFFFFFFFFFFFFFFFFFFFFFFFFFFF3A
:1016C000F7DFFFFEF7DEF7BFE73ABE349D526B91BE
:1016D0005B0F5B0D63716BD1951584734AAD530F2E
:1016E0005B0F424C31C94A495ACBCE557BAB9CF17A
:1016F00010814229422931A829874A6A7BF139C8D9
:10170000AD95D6B9E73A94D14A8A5AEE52CE52CE26
:1017100052EDA556634D6B6D6B8D6BAE5B2D6B8E75
:101720004A8A422A18E639CA5AEE4AAC3A293A0994
:101730004A8C635063305B0E3A0B5AEF5AEF52AD4E
:101740005B107C129D349D35BE18CEDABE595B0EFF
:1017500052AD52AD4A6C4A8D632F6B506B4F5AEEAF
:1017600039E95B0F4AAC7411636F4A6C4A4C39C853
:101770008C9252AA4A4A420939A72945296618A3D8
:1017800010820841082118C3210329644A474206F0
:10179000318542084A6B5ACBC5F64A469CF0D6B80A
:1017A0009CF3422A7BF1A5566BCF9D354A8B8CB4B6
:1017B00052CE52CF52AD42494A68BE15C65652CBA0
:1017C00094B494F46BAF52CC5ACC526E420ACE58B9
:1017D00073AE6B6E94F34ACB5B0D31C963302969EC
:1017E0002949298A190731CA10E6322A08A5298908
:1017F00073F252ED7C312125BDF7A5149CD27BEF0D
:101800007BEF086118C321042104210408419CD303
:10181000C6389CB441E7944CD5CFA42A522852AD87
:10182000BE9B7C0D94928C527C1084737410F79E36
:10183000FFBEFFDFFFFFFFFFFFFFFFDFFFDFFFDF79
:10184000FFFFFFFFFFFFFFFFFFFFFFFFFFFFFFFFA8
:10185000FFFFFFFFFFFFFFFFFFFFFFFFFFFFFFFF98
:10186000FFFFFFFFFFFFFFFFFFFFFFFFFFFFFFFF88
:10187000FFFFFFDFFFFFFFFFFFDFFFDFFFFFFFFFD8
:10188000FFFFFFFFFFFFFFFFFFFFFFDFFFDFFFFFA8
:10189000FFFFFFFFFFFFFFFFFFFFFFFFFFFFFFDF78
:1018A000FFDFFFFEF7DEFFDFCE76CEB6844F63307C
:1018B0005B0F52ED7C338CB4A5766BB0634F5B0F3E
:1018C00052CE21484AAC528A18C38C4C6B495AC933
:1018D00018C2086110A3108318C3210418C34A89D1
:1018E000BDD6B5B4EF7B632C31C85B2E52CE5B0EF8
:1018F000632E73AF636D634D636D73F05B0D5B0DB2
:10190000426A39C918C52106BDF99CF494D394D311
:101910001906422C298931AA298939EB3A0B422B25
:10192000420C52CC52EC52CD634E52EC5AED52CE98
:1019300052CE52EE63506B906B50630E6B705AED4B
:1019400031C96350426C9514426A52AD39EA52ABC8
:10195000A55552AA7BCF7BCF7BCF632D6B6E5B0CE3
:101960004A6A42293A0831862124210310A110A194
:1019700018C318C352AC4A4A9471A5325AE97C0E76
:10198000738E39C9843273D1B5F89D354ACC9D1612
:1019900052CD5AEF4A6C4A6A7BCDBDD3AD729D14CD
:1019A00073D06BAF84924A8C52CD422B4A49BDF41E
:1019B000C656632C94F5636EA5764A6B4A6D210872
:1019C00018C71908210810A6216808A52148296907
:1019D00008652107298821052146298629665ACBD1
:1019E0006B4D18C318E3210420E318C320E37BF0F8
:1019F000FFFF736FA4F1EE70CCE7F66F734A84B209
:101A000073CF9CCDCDAFC5CF9CCE8411B5F7FFFF72
:101A1000FF9EFFDFFFFFFFFFFFDFFFFFFFFFFFFF77
:101A2000FFFFFFFFFFFFFFFFFFFFFFFFFFFFFFFFC6
:101A3000FFFFFFFFFFFFFFFFFFFFFFFFFFFFFFFFB6
:101A4000FFFFFFFFFFFFFFFFFFFFFFFFFFFFFFFFA6
:101A5000FFFFFFDFFFFFFFFFFFDFFFDFFFFFFFFFF6
:101A6000FFFFFFFFFFFFFFFFFFFFFFDFF7DEFFFFCF
:101A7000FFFFFFFFFFFFFFFEFFFFFFFFFFFFFFFF77
:101A8000FFFEFFFEF7BEFFDFBE34C67573CF6351A6
:101A90005B105B2F3A4B74319D568CB452EE5B0F4A
:101AA0003A2C10C68C734A69086173AAAD515AC8A2
:101AB00010A118E318C3108218E310A210A041E689
:101AC000738C842D7BED5AEC5B0E7C307C326BB1D9
:101AD0005B0E1905634E31A75B0D3A096B8F5B2EC8
:101AE000422A31A929683187CE79CEB994F2B5F767
:101AF000212621482128210718E718E6190673D165
:101B00006B705B2D634D5B0E634F4A8B4AAD5B0F71
:101B1000422C5B2F6B706350630F73B15ACD5AED3B
:101B2000632E39CA5B0E94F4424A52AD42098C923C
:101B30007C0F52CB73AF6B6D6B6E6B4D6B8E73CF37
:101B40006B6D6B8E73AE6B6D6B4D634D5AEB5ACAFA
:101B5000420829876B6F42294A49AD54AD748410FD
:101B6000420952AD7BF27C12A59773F15B2E6B900C
:101B70004A6C52EF4A8D5B0DCE78CE35AD52AD75C5
:101B80008C9384928CB452EE4AAD4A296329BDF2FB
:101B9000BDF4632D845352ED6B8F52CC39EC212868
:101BA00020E821082969002418A618C621071085F5
:101BB0003169210818E73189296721466B8F4A2945
:101BC0004A4A294520E420E4292518A318C34A4994
:101BD000BE3839E7EF56B444C401F62E736AB5F83F
:101BE0005AC8EED1DD89D588F79562ABF7BEF7FF0D
:101BF000F7DEFFDFFFFFFFFFFFDFFFDFFFDFFFDFBE
:101C0000FFFFFFFFFFFFFFFFFFFFFFFFFFFFFFFFE4
:101C1000FFFFFFFFFFFFFFFFFFFFFFFFFFFFFFFFD4
:101C2000FFFFFFFFFFFFFFFFFFFFFFFFFFFFFFFFC4
:101C3000FFFFFFFFFFDFFFDFFFFFFFFFFFFFFFFFF4
:101C4000FFFFFFFFFFFFFFFFFFFFFFFFFFDFFFFFC4
:101C5000FFFFFFFFFFFFFFFEFFFFFFFFFFDFFFFFB5
:101C6000F7DEFFFEF7BEE73BC6549D116B4F6B716D
:101C70005B2F6BD29515CEDB8CB4B61A428C5B0F02
:101C8000216821479CF44A49086152A6E739840D2E
:101C900018E218C2210418C318E318C218E221235D
:101CA00063096B6839E5630E6B70ADD67C11B5F9CD
:101CB00094D44AAC52CD422A5B0E52CD6B704A8C02
:101CC000422B422B10844A8ACE99E77B8CB139E8AB
:101CD000086418E6190710C62148190652ABC679E0
:101CE000A555D6FBA5554AAD52CE4AAD52AD52AE22
:101CF0005B0F52CD5B2E5B0E634F630E52AD422BDA
:101D000052AC31C98C73632E4AAC426B424A9CF28E
:101D10005ACA6B6D632D636D636D73CF6B6D6B8E84
:101D2000632D6B8E634D6B6E73AE6B8E73AE738E65
:101D3000738E6B8F4AAC52AC5ACC4A4A52AB528B20
:101D40004A4B4A6C52CE5B0F634F3A0A39E952ED67
:101D500052ED4AAD424C6B8FB5B6DEF9BE165AEB6A
:101D60007C108CB34AAC52CE422B5AE9A551B5F245
:101D7000BDF4AD755B0D94F5632E528C21291908C5
:101D800031AA5AEE1085528D39CA292821072127F8
:101D9000106518C6082418E6086352EC4AAB5ACB03
:101DA0004A6A5ACB108218C3212418A318A331669B
:101DB00073AF528AAD0DEEAFE5EEBCEF7B8E8C5269
:101DC000CE71D5C9B403C4E8CDF0A4F4F7DDF7FFB4
:101DD000F7BEFFDFFFFFFFFFFFDFFFFFFFFFFFFF9C
:101DE000FFFFFFFFFFFFFFFFFFFFFFFFFFFFFFFF03
:101DF000FFFFFFFFFFFFFFFFFFFFFFFFFFFFFFFFF3
:101E0000FFFFFFFFFFFFFFFFFFFFFFFFFFFFFFFFE2
:101E1000FFFFFFFFFFDFFFDFFFFFFFFFFFFFFFFF12
:101E2000FFFFFFFFFFFFFFDFFFFFFFFFFFFFFFFFE2
:101E3000FFFFFFFFFFFFFFFFFFFFFFFFFFDFFFFED3
:101E4000F7DEF7DFFFDEC636C67584306B70634F92
:101E5000634F634F74117C328CB473F14ACD52EEF0
:101E600019074A6B8C72528A18C218C1296318C2AA
:101E700010A2212418C318A310A220E321040821D2
:101E80007BCCE7589D10422A5ACE6BAE5B2D7C323C
:101E90007C524A8C5B0E5AEE52AD6B9152CE424B45
:101EA00052CD18E62946CE98C636D6B884300842B8
:101EB00018C510A410A518E6210608426B8DF7BDC1
:101EC000D6D9DF3B7C1152AE5AF052CF52CE424CA3
:101ED00052CD52ED52AD5B0E6B9152AD52AD4A4BAD
:101EE0004A8C4A8B94D4424B424B39EA6B6E94D263
:101EF00052AA636D6B8E634D634D6B6D6B8E6B8DF4
:101F00006B8D6B6E6B6D6B6D6B6D6B6E634D6B4E36
:101F10006B8E6B6E52CC52CD5AED52CD52CD5ACD06
:101F200052CD52AD5AEE4A8D424B4A8D8453424BAC
:101F3000422B4A8D52AE845273EF8CB1B6188CB3DB
:101F4000A555ADB64A6B528D4A2B7C0EBDF5DEF918
:101F5000A513630D6B8F84524A6C3189216900850A
:101F600073F2845352ED94B5424B5AEE8CB4212651
:101F70006B6F08429CD34A2831A65ACB52AB5ACC3D
:101F8000528B6B2D108218C318C318C318A320E4FA
:101F900062ED49EC41E97BEE6B0C4A4BB5F9420727
:101FA000CE71EF0FDE0DF7147369F7DEF7DEFFFF7A
:101FB000FFFFFFDFFFFFFFFFFFDFFFFFFFFFFFFF71
:101FC000FFFFFFFFFFFFFFFFFFFFFFFFFFFFFFFF21
:101FD000FFFFFFFFFFFFFFFFFFFFFFFFFFFFFFFF11
:101FE000FFFFFFFFFFFFFFFFFFFFFFFFFFFFFFFF01
:101FF000FFFFFFFFFFDFFFFFFFFFFFFFFFFFFFFF11
:10200000FFFFFFFFFFDFFFDFFFFFFFFFFFFFFFFF20
:10201000FFFFFFFFFFFFFFDFFFFFFFFFFFFFFFDE11
:10202000FFDEF7BFFFDEB5D3B6146B8F6B914AAC02
:10203000424A7C325B2D5B2F3A4B4ACD52CE424C0A
:1020400021278431632C7BEF4A692964298418E3B2
:1020500018E308411082292418A218A2290529256D
:102060003985948E52A82946634F530C5B0D5B2E25
:1020700052ED5AEE5B0F4A8D5AEE52CE4A8D424BCC
:1020800031C931C83186840E738B94D031A618C4FF
:10209000210418C30863108510A518C3AD94D6B9E0
:1020A000D6F8B5F652CC5B3052D04A8E52CE4A6C3E
:1020B00052CD5B0E4AAD5AEF52CE4A8D4A6C52ADAC
:1020C00039C96BAF7C324A8C4A6D3A0A94D36B8D16
:1020D00052CA6B8E634D6B8D6B6D6BAE634D634DF2
:1020E0006B8E6B6D73AE6B4D73AE634D634D6B6EEC
:1020F0006B6E52CC5B2D5B0E52AD4AAD4A6D5AEE03
:102100004A8C52AD52AD4A6D3A0A94B57391424C25
:102110004A8D52AE4A6D634F6B6E634E73D173D16D
:1021200073F06B6E52AC4A6C528C6B6F94B3AD957E
:102130009D34632E4A6B8C7352AD2127192708C634
:102140009D776BF18CB484720884845373F1428B55
:102150006BAF8C71FFDD8C6F5AC94A697BF06B6E77
:1021600052AB6B2D2104106218C320E418A3210484
:10217000524B524B528D420D4A6D42CDBE9A528BFC
:1021800062ED7BED8C2D8C4E8C70F7FFFFFFFFDF37
:10219000F79CFFDFFFFFFFFFFFFFFFFFFFFFFFFFDA
:1021A000FFFFFFFFFFFFFFFFFFFFFFFFFFFFFFFF3F
:1021B000FFFFFFFFFFFFFFFFFFFFFFFFFFFFFFFF2F
:1021C000FFFFFFFFFFFFFFFFFFFFFFFFFFFFFFFF1F
:1021D000FFFFFFFFFFFFFFFFFFDFFFDFFFFFFFFF4F
:1021E000FFFFFFFFFFFFFFFFFFDFFFDFFFDFFFFF5F
:1021F000FFFFFFFFFFFFFFDFFFFFFFFEFFFEFFDE32
:10220000FFDFF7BFE73AC6749D536350632F52ED6B
:102210008473BE5AA556ADB88CD5426C5B0F31EABB
:102220002126AD764A89BDF6EF9CC6376B6C6B6D87
:102230008C706B6D4A69296539A618A21882104105
:1022400020C21081086118A3847294F4847352CD63
:1022500052EE632F52CE5B0F5AEE632F3A0A426B57
:1022600021474A4A108221027BEC6B6A10A118C3F5
:1022700010A118C218C318A410A418C39D12842E4C
:10228000CE788C714AAC5B2E4A8C424B4A6C426CC5
:10229000528D52AD52CE5B3052CF5B0F52AE52CD0B
:1022A0004A8C39E95B0E4AAD52AD5B0DA5545B0B10
:1022B000634D6B4E632C6B4D6B8E6B6D6B6D6B6DED
:1022C0006B6D6B6D73AE6B6D6B8E636D5B0C6B8E3C
:1022D000632D636E94F484734AAC52CE4A8D52CD12
:1022E0004A8C5B0E4A6C4A6C4A8B9D16420C5AEF24
:1022F000424D424D5B0F4A6B422AA5178454630F2F
:1023000052AC634E634F424B4AAC7BF473D1636E65
:102310008C9294F49D16634F31CA214810C62168EF
:1023200021681926216729A808846BB03A0A8473AA
:1023300018C4B5B694919CD1842F6B4C738E73AF37
:102340006B4E738E212518E418C318C318C318C325
:1023500062EBCDF0CE116B2C41E9A57673F08C5376
:1023600062AE41EB7C346B70DF1CFFDEF7DEFFDF1B
:10237000FFFDFFDFFFDFFFFFFFFFFFFFFFFFFFFFAF
:10238000FFFFFFFFFFFFFFFFFFFFFFFFFFFFFFFF5D
:10239000FFFFFFFFFFFFFFFFFFFFFFFFFFFFFFFF4D
:1023A000FFFFFFFFFFFFFFFFFFFFFFFFFFFFFFFF3D
:1023B000FFFFFFFFFFFFFFFFFFDFFFDFFFFFFFFF6D
:1023C000FFFFFFFFFFFFFFFFFFFFFFFFFFDFFFFF3D
:1023D000FFFFFFFFFFFFFFDFFFDFFFFEFFFEFFDE70
:1023E000FFDFF7DFC636CEB47C4F63505B0F52ADD4
:1023F00084749D564ACC94F574324ACD52CE2968E5
:10240000424A8C925B0BDF1BE73BE75BF7FDE77B08
:10241000F7DDF7BDE73B7C0E52A994D194907BADDC
:102420004A2718C2212421447C10ADB86BB152ADAB
:1024300052CE5AEE52CE630F5ACE52AD420A3A0AEB
:1024400021476B6F21241080CE76B5B439C5084181
:1024500018C310811082108310A318C239E56329B4
:1024600073CE29875AED9D157C517C316B6F52AD2F
:1024700052AE52CD52CE63305AF04A8E4A8D4A8DBA
:1024800052AC5B0E39EA424B426B73AE7C0E5AEB98
:10249000632D5AEE6B6D634D6B6D6B4D6B8D738E53
:1024A0006B4C738E6B6D6B6D6B6D636D634D6B6E93
:1024B00052CBA5565B2E636F5B2E52CD4A8D4A8C54
:1024C000424B52ED4A6B4A6C6BAF6B90528E52AEE0
:1024D000422C426D52AD31A94A4B635073928C54D9
:1024E0006B905B0E216852CD4AAD4A6D4A6C94F4F4
:1024F00042491905424B3A0A18E710E718E7210844
:1025000018E710C6296810A52147086510852968B5
:102510002127084329665ACB6B4D6B6E52CB630D56
:102520006B4E632D294620E418E32104210418E3AF
:102530007369CD27DD89CDF04A68B5984A08A4AD06
:10254000EEB1A4CE4A8A8432FFFFF7DEFFDEF7DF6A
:10255000FFDEFFFFFFDFFFFFFFFFFFFFFFFFFFFFCC
:10256000FFFFFFFFFFFFFFFFFFFFFFFFFFFFFFFF7B
:10257000FFFFFFFFFFFFFFFFFFFFFFFFFFFFFFFF6B
:10258000FFFFFFFFFFFFFFFFFFFFFFFFFFFFFFFF5B
:10259000FFFFFFFFFFFFFFFFFFFFFFFFFFFFFFFF4B
:1025A000FFFFFFFFFFFFFFFFFFFFFFFFFFDFFFFF5B
:1025B000FFFFFFFFFFFFFFFFFFDFFFDEFFFEFFFF6D
:1025C000F7BFFFDEB5D4C67463AE5B305B305B3003
:1025D000B61B7C31A576A5764AAC5B4F4A8C214769
:1025E0008452632C9491E73BDEFAD6D9D6F9D6D93A
:1025F000D6D9CE98DEF9E75BDEF9DEF9E73AEF7A75
:10260000BDF4AD73D6B8A57394F38CB552CD52AD6D
:102610004AAD5B0F4AAD4A8D52CD4A6C4A8C214778
:10262000424B5ACC318618E26B4AA5112123108106
:1026300018A310620862108218C321032942A50F53
:1026400073AC42495AED5B0E73D19D366BB0528B21
:1026500052AC52AD5AEF5B104A6E52CF5ACF4AADD0
:102660008432630D39C94A8C2987A554634B632C86
:10267000632E632E6B4D6B6D6B8D6B6D6B6D6B6D28
:102680006B6D6B6D6B4D6B6D5AEB5B2D636E636E9B
:102690006B6E5B2D6BD0632E424B3A2A52AC424B91
:1026A0003A0A422B5B0E31C98CB3424B422B4A8D06
:1026B000845373D273D24A6C4A8C3A2B3A0B424BF6
:1026C00052CD4A6C31894A4B4A4D4AAC424B9D36F9
:1026D00073F1843142094A8C2128192918E721080D
:1026E00018A618C618A618C610852107294820E67E
:1026F00020C6212708236B4E39E85AEC52CB52AB47
:10270000528A5AEC4A4918A318A320E418C320E4BB
:1027100049A2C4E5DD699C4B9D145B2DC5D2D5470C
:10272000BC82F7105AE7CE98F7DEF7DEFFDEFFDF58
:10273000FFDFFFFFFFDFFFFFFFFFFFFFFFFFFFFFE9
:10274000FFFFFFFFFFFFFFFFFFFFFFFFFFFFFFFF99
:10275000FFFFFFFFFFFFFFFFFFFFFFFFFFFFFFFF89
:10276000FFFFFFFFFFFFFFFFFFFFFFFFFFFFFFFF79
:10277000FFFFFFFFFFDFFFDFFFFFFFFFFFFFFFFFA9
:10278000FFFFFFFFFFFFFFFFFFFFFFFFFFDFFFFF79
:10279000FFFFFFFFFFFFFFFFFFDFF7DEFFDFFFDFD2
:1027A000FFFFEF9BB5F3B5D3636F52EE5B305B5029
:1027B0008494638FA5979D564ACD52EE3A2B31C92A
:1027C000A5354A69DEFAE73BCE99D6F9D6D9D6F9CE
:1027D000EFBCE75BDF1AD6F9DF1AC677D6D9C63663
:1027E000DEF8E77ADF1994D1845194F552AC52CDDA
:1027F0006B705B0E632F424C52AD31C94A6C10C4F2
:102800005AED4A4931A6082008400840210318C360
:10281000108310A310A3086118E310822963DED689
:10282000D6B629445AEE4A6C426C4A8D5ACD4A8B30
:1028300052AC4A4B5B0F52CE52EF5AEF4AAD3A0AB6
:10284000632E73CF7C10422A634D9D335ACA634D69
:10285000632D632D632D6B8E6B6D6B6D634C6B4CB9
:102860006B8D6B4C6B6D630C6B6E634D6B6E634D60
:102870003A09424A426B52CD422A4A4B52AC528CE0
:102880004A6C422B4A6C6B507C513A0A4A6C8473F6
:10289000ADB77C31B5F95B0E52AD4A8C52AD52EDFD
:1028A0005AEE4A4C630E52AC52AE4A8B4A8C422CC2
:1028B00039EA52CD4A8B294729690887843308644D
:1028C000422B52AE29692128294810642106108420
:1028D00018C510A421466B4E4209528B528B52AB45
:1028E0004A6A52AB6B8E18E318E318C318C33166FB
:1028F0003923E670C54E62AAB5D94AA9FFD78AE046
:10290000DD49E6726B4AFFFEEF9DF7FEFFDFFFDF5A
:10291000FFFEFFDFFFDFFFFFFFFFFFFFFFFFFFFF08
:10292000FFFFFFFFFFFFFFFFFFFFFFFFFFFFFFFFB7
:10293000FFFFFFFFFFFFFFFFFFFFFFFFFFFFFFFFA7
:10294000FFFFFFFFFFFFFFFFFFFFFFFFFFFFFFFF97
:10295000FFFFFFFFFFDFFFDFFFFFFFFFFFFFFFFFC7
:10296000FFFFFFFFFFFFFFDFFFDFFFFFFFFFFFFFB7
:10297000FFFFFFFFFFFFFFFEF7DFF7BFFFDFF7BF40
:10298000FFFECE96C6558C8F5B0F5B505B3063901D
:1029900052EC8CD473F06BD05B2F52CD3A0B4A6C57
:1029A0009D155ACAAD54DF1AE73BCE78E77CC6576F
:1029B000844F52A942475B0BA554E77CC677CE985B
:1029C000CE78CE98BE3794B19D34634E632E5B2E85
:1029D00052AD29885B0E296831CA298831CA2986F7
:1029E0006B8E39C6840F6B4C296510A218C3106119
:1029F000108118C318C218C2108218A420E342061E
:102A0000424610825ACD9D157C315B2E6B6F7370E0
:102A1000528D52AD52CE4A8D6330426D52EE4A6BAA
:102A200039E97C2F634C5B0C8472634D630D6B4EF4
:102A30006B6D6B6C634D6B6E6B6D6B8D634C6B6D07
:102A40006B6D636D6B4D5AEC73CF634D6B8E31C7FD
:102A500021254AAC4AAD420B4A6C424A42094A4BD4
:102A60005ACE422C4A4C94B54ACC4A8C5AED7C1131
:102A70004AAA428A52ED4A6C52CE4A4C52AD5ACDC5
:102A800052AD7C129D568CD363B14A8D4A8D422C37
:102A900031AA39CA5AAE18A618C7216895155B0E17
:102AA000845394B5214784324A8C422A1905634DD8
:102AB00052CB39E73A284AA9528A5AAB524B4A6A52
:102AC00042295AEC6B6D18E3210418C329252124EF
:102AD00018E3736D4A2B84747C1141E8BD70E64F96
:102AE000DE126AEAB5D7F7BFF7BFFFFDFFFFFFDFD2
:102AF000F7FEFFDFFFDFFFFFFFFFFFFFFFFFFFFF2F
:102B0000FFFFFFFFFFFFFFFFFFFFFFFFFFFFFFFFD5
:102B1000FFFFFFFFFFFFFFFFFFFFFFFFFFFFFFFFC5
:102B2000FFFFFFFFFFFFFFFFFFFFFFFFFFFFFFFFB5
:102B3000FFFFFFDFFFFFFFFFFFFFFFFFFFFFFFFFC5
:102B4000FFFFFFFFFFFFFFFFFFFFFFDFFFDFFFFFD5
:102B5000FFFFFFFFFFFFFFFFF7DEFFFEFFFEFFDED1
:102B6000FFBFBDF4C6B36BB15B3063706BD194F53E
:102B70008CB4ADB8C69C6B9152CD5B0E2968845362
:102B8000632D73AEA553E75BCE97E77CB5B519030C
:102B9000212418C210A2108110819CF2DF1BCE7775
:102BA000DEF9BE16BDF7634DADB77C534AAC4A8C17
:102BB00052CE422B4A8D21482106420A21054A4A1B
:102BC000630C3185D6F9EF9CB5D57BED94B094D1EB
:102BD0008C4F3A062123212218E218A218E308207C
:102BE0000820002031C7B618847273B06B6F635031
:102BF0006351636F52EE4ACE4ACE4ACE634E634D66
:102C00005ACA7BEB948F62ED420A42496B8D636D29
:102C1000634D634E6B4F6B2D738E6B4D6B8E6B8D57
:102C20006B6D6B8E632E632D6B8E6B6D52AB31674C
:102C300010824A4A52AD420B4A8B42293A09420A53
:102C400052AD5ACF3A0C8493428C5AEE4A4BDEDA9C
:102C50007C0E298421458C7231884A6C4A8B5AED4E
:102C60004A4B6B2F738F8C52422A422B4A8C39EA83
:102C70003A0B424C31CA210810654A6D73F17C1140
:102C80009D1652ED10C5843221478C9339E7EFBD74
:102C9000B5D694B142286B8E6B6E630D528B4A8A07
:102CA00042095AEC632D318620E418A32945316589
:102CB0002964424C3A8AA5B54A8C4A6E4A8C6B709C
:102CC000630E5AACF7BEF7BDF7DDFFDEFFDFFFFF97
:102CD000FFFEFFDFFFDFFFFFFFFFFFFFFFFFFFFF45
:102CE000FFFFFFFFFFFFFFFFFFFFFFFFFFFFFFFFF4
:102CF000FFFFFFFFFFFFFFFFFFFFFFFFFFFFFFFFE4
:102D0000FFFFFFFFFFFFFFFFFFFFFFFFFFFFFFFFD3
:102D1000FFDFFFDFFFFFFFFFFFFFFFFFFFFFFFFF03
:102D2000FFFFFFFFFFFFFFFFFFFFFFFFFFDFFFFFD3
:102D3000FFFFFFFFFFFFFFFFFFDEF7FEFFDEFFDE0F
:102D4000E73CB5F3ADD25B105B5063706BD1A577F8
:102D50007C319D367C524ACD63505AEF3A0A9D151C
:102D60005B0C73CED6D9CE98DF3AC65818E331C77C
:102D700052CB73CE6B4C6B4C4A692965CE58C63624
:102D8000CE77CE98A5758452A5975B2E4AAC4A8C17
:102D900052CD4A8D424C21682968420918C46B6E95
:102DA00039A76B6CE75BC636D6D9DEF9DF1ADEF9D8
:102DB000D6D9BE3673AC842FBDF6AD74840F31A561
:102DC00039A54A69636D84B2636F6B4F6B4F5B0FBC
:102DD0005B305B0F52CE52EF428E4ACE3A2A3A090E
:102DE00052ABB5D4AD5341E939A952CB6B8D636D6C
:102DF0006B6D6B4E632D6B4D632C6B4D630D634C94
:102E00006B6C634D632D634D634D73CE31875AAB4D
:102E10007BEF5AED29884A4D420A52AC3A0A3A0AE7
:102E20003A0A5AEE8433636E42AC4A8C4A6B632C86
:102E3000BDF6426994B34A8B39E962EE52CD52AD88
:102E400039EABDF92945210429865ACD39C94A4BA9
:102E5000422C4A6C18E7190729892107214710A538
:102E600039EA10C54A6B634E4A6B632E42498C9116
:102E700073AE632C6B6D73AF73AF632D5ACC630D60
:102E8000528B52AB7BCF39E8210429451082318621
:102E900028E42967740F8C7239896B2D5A8952ACDA
:102EA0005ACDB5B7F7DEFFFEF7BDFFDEFFDFFFFF50
:102EB000FFFEFFDFFFDFFFFFFFFFFFFFFFFFFFFF63
:102EC000FFFFFFFFFFFFFFFFFFFFFFFFFFFFFFFF12
:102ED000FFFFFFFFFFFFFFFFFFFFFFFFFFFFFFFF02
:102EE000FFFFFFFFFFFFFFFFFFFFFFFFFFFFFFFFF2
:102EF000FFDFFFDFFFFFFFFFFFFFFFFFFFFFFFFF22
:102F0000FFFFFFFFFFFFFFFFFFFFFFDFFFDFFFFF11
:102F1000FFFFFFFFFFFFFFDFFFFEF7BEF7DEFFFF54
:102F2000D6B8C6538CB05B10637152EF6BD194F579
:102F3000A5769D566BD05B4E52CF52EF84527C30BB
:102F400073AD842FDEFADEFADEFA632C294573AE08
:102F5000634D73AE7C0F634C73AD634C8C90DF1A82
:102F6000C636CE78845094D45B4E636F52CD5B0EE0
:102F700052CD52CE31EA2127318839E942096B6EB0
:102F800039E7B5B5D6D9C657BE15CE77CE77CE7749
:102F9000CE98D6B8CE98D6D9C637C657DF1AD6B986
:102FA000C5F5E75B94D38CB36B906B70632F5ACEEF
:102FB00052CE52CE52AE4A8E52EF31CA4AAD6B8FCC
:102FC000424ACE994A4929483189634E632D5B0CA8
:102FD0006B6D632D634D630C632C632D6B6E632CE3
:102FE000634C6B6D634D6B8D634D6B8D20E318A34C
:102FF00029443A093A09422C39EB4A8C52AD31C97D
:103000004A6B31E98CB44AAB4ACD52AD4A4BB576E6
:103010005ACA52AB7C12632E5ACD4A6C52AD424C06
:103020004A6CC6388C904A8873EF5AED212752AD0E
:1030300039CA39EB210721280885108518C518E6FB
:1030400021272127086410A518E618E518C410A444
:10305000294639C85AEC5ACB5ACB630C52AA5AECBF
:103060004A6A6B6E630C420818E3316520E3210461
:1030700028E52166B5D6526ABD13EE51DDEF736CBB
:103080005ACDF7BFF7DEF7BDF7BEFFDFFFDFFFFF6B
:10309000FFFEFFDFFFDFFFFFFFFFFFFFFFFFFFFF81
:1030A000FFFFFFFFFFFFFFFFFFFFFFFFFFFFFFFF30
:1030B000FFFFFFFFFFFFFFFFFFFFFFFFFFFFFFFF20
:1030C000FFFFFFFFFFFFFFFFFFFFFFFFFFDFFFDF50
:1030D000FFFFFFFFFFFFFFFFFFFFFFFFFFFFFFFF00
:1030E000FFFFFFFFFFFFFFDFFFFFFFFFFFFFFFFF10
:1030F000FFFFFFFFFFFFFFDFFFFEF7BEF7BFFFDFB2
:10310000BE34BE5273F05B305B0F5B2F9D57A5B78B
:10311000A596A5976BB052ED5B1052EF94D4634C1B
:103120007BEDA533DF1BC677CEB842276B8D52AA45
:103130006B6D5AEB5B2C5B2B634B6B8DAD94D6B8F0
:10314000CE77ADB57C3084524ACD4ACD632F5B2F0C
:103150005AEE52CE2989190739E92947632E52AA16
:10316000632CEFBCBDF5D6B8CE98CE98DEF9CE98DC
:10317000BE16BE16D6B8D6B8BE36CE77BE16BE368A
:10318000D697AD738CB2741163705AEF630F5B0FF7
:103190005B0E528D52AE4AAD3A0B4A8DA5779D56C5
:1031A0009D364A8B4AAC52AE424B738F634E630DD1
:1031B000630C62EC632E6B6E634D6B6E632D632D3F
:1031C000634C632C634D634D632D424810615289FB
:1031D00010A24A8B9D565B0E3A2B4A8D4A8C52EDBB
:1031E0004A8C52ED845252CD52CE630F4209EF3CCD
:1031F000C637632D94F58432A555849252AE4A6D3C
:1032000052AC6B4C73AD52CA7C3139C952AC31A946
:1032100052AD21282148190718E6210718E718C6DA
:1032200018E7210739CA1085294718C421262946DD
:1032300029676B4E42294A49528A52AA4A8A528ABF
:1032400052AB5AEC52AB5ACB212429652124296573
:10325000212429A68CB2942CDDEDBC44E5E89C8D9C
:103260009D15FFFFF7BEF7BEFFDEFFDFFFFFFFFF8D
:10327000FFFEFFDFFFDFFFFFFFFFFFFFFFFFFFFF9F
:10328000FFFFFFFFFFFFFFFFFFFFFFFFFFFFFFFF4E
:10329000FFFFFFFFFFFFFFFFFFFFFFFFFFFFFFFF3E
:1032A000FFFFFFFFFFFFFFFFFFFFFFFFFFFFFFFF2E
:1032B000FFFFFFFFFFFFFFFFFFFFFFFFFFFFFFFF1E
:1032C000FFFFFFFFFFFFFFFFFFFFFFFFFFFFFFFF0E
:1032D000FFFFFFFFFFFFFFDFFFDEFFDFF7BFEF7C3A
:1032E000B5D1ADD16350633052EE639084939515A0
:1032F0007C52636F52EE5B0F52EE530E73F04A89AD
:1033000052A9CE97DEF9D6B8BE3652C9632B6B6D83
:10331000632D52CB634D632C6B8D636CCEB8C65757
:10332000CE989D1384517C1152ED4AAD5B2F4AAD6E
:103330005B0F4A8D29692127420A21467BD04A69C1
:10334000632BBE36C656CE77DF1AC6576B6C296420
:1033500020E318E24206AD94DEF9BDF6C636C65744
:10336000C6358C90B5F76BB052CE5AEF52AE52CDF7
:1033700052CD4A8D4A6C424B5B0E4AADB5F9634F54
:1033800094F53A4A31EA422B52CD4A8B528D5ACDAE
:10339000630E6B4F4AAD52ED5B0D5B0D5AED73B092
:1033A0006B6E634D6B6D6B8F738F4208420873AE0B
:1033B0007BCE52AC73D1638F426B5B0E4AAC52CD65
:1033C0003A2B8C945B0E52AE52CF4A4C4208D697A1
:1033D000BE1552A98C927C117C306B8F422C424CD2
:1033E0005AECC6567BCE4A4A6B90843294945AEE7D
:1033F000422B212821284A8D73D1088473D23A0B9D
:10340000318A420B212718C518C518A418C4108387
:103410006B4D39E84229422952AB4A494A4A4A4946
:103420005ACC4A6A39C773AF31A73186294521047E
:103430002964296539E8CE11DDA8D4E4F6AF7B8B89
:10344000E75DFFFFFFFFFFDEFFFFFFDFFFFFFFFF87
:10345000FFFEFFDFFFDFFFFFFFFFFFFFFFFFFFFFBD
:10346000FFFFFFFFFFFFFFFFFFFFFFFFFFFFFFFF6C
:10347000FFFFFFFFFFFFFFFFFFFFFFFFFFFFFFFF5C
:10348000FFFFFFFFFFFFFFFFFFFFFFFFFFDFFFFF6C
:10349000FFFFFFFFFFFFFFFFFFFFFFFFFFFFFFFF3C
:1034A000FFFFFFFFFFFFFFDFFFFFFFFFFFFFFFFF4C
:1034B000FFFFFFDFFFDFFFDFFFDEFFFFF7BFCEB75E
:1034C000BE539511633073F3639094F59535ADD881
:1034D0008493426C52EF5B1052EE530E5B0E632DE1
:1034E000BDF7D698CE97CE77D6FA73AD4A896B4D95
:1034F000632D632D73CF6B8E632C7BEFD6F8CEB824
:10350000C6786BAEA576B5F95B0E632F52CE52AE80
:103510005B0F31CA296831A9318831C873AF4207BE
:1035200073ADCE98C677D6B9C6572965000010A2EC
:1035300031852124108118C29D12C657C677BE1648
:10354000B5F67C0FA5565B0E4AAD52CE4A8D52ADF4
:103550004AAD4A6C5B0E5B2E636F73F19D157C5216
:103560007C52951584734AAD426B632E52AE631044
:10357000422B52AD426C52AD39EA29894A4C39C9C5
:103580006B2EA53439E7420952AC420862EB738DC9
:10359000738E73B04A8C426A3A0A424C52AD426B07
:1035A0003A2B8493426B52AD52CF422A840EBDF324
:1035B000B5B2ADB46B8E73F1847331EA422C4A4BD1
:1035C0006B6CCE76BDF6422A73B173D094D4632F60
:1035D00031CA318919078C746B7084538473422A01
:1035E0006BB08C9421279CF42965A5134A89296521
:1035F0005AEB4A49422942294A6A528B528B4A293C
:103600005AEC42295AAB5ACC4208296531A72125E8
:1036100039453103420883EEE610E64F83CD8C73C3
:10362000F7DEFFDFF7DEF7BEFFDFFFDFFFFFFFFFA5
:10363000FFFEFFFFFFFFFFFFFFFFFFFFFFFFFFFF9B
:10364000FFFFFFFFFFDFFFDFFFDFFFFFFFFFFFFFEA
:10365000FFFFFFFFFFFFFFFFFFFFFFFFFFFFFFFF7A
:10366000FFDFFFFFFFFFFFFFFFFFFFFFFFFFFFFF8A
:10367000FFFFFFFFFFFFFFFFFFFFFFDFFFFFFFFF7A
:10368000FFFFFFFFFFFFFFFFFFFFFFFFFFFFFFFF4A
:10369000FFFFFFDFFFDFFFDFF7BEFFDFFFDFBE3330
:1036A000BE5473B063505B0F3A4B5B4F74128493FC
:1036B0004AAD530F428E4AAF4AAE424B73D06B6E47
:1036C000E73CD678DEF9CE77CE98CE57738D5AEB9D
:1036D000632D6B2D630D52AB73CFC638CEB7C67753
:1036E000AD959D55A576B5D852CD52EE5AEF52CE36
:1036F00052AE29A9212731A918C46B8E42295AEB51
:103700008C91DEFACE98E77C2965294452AA630C95
:103710006B6D5AEC6B8E4207632BC657BE16B5F61F
:10372000AD969D147C115B2E5B2F5AEE4AAD52EE86
:103730003A0A52CD632F5B0E5AEDA5774AAC52ED93
:103740005B2E5B2E7C53636F4A8B634F3A0C633066
:103750007C33637052CD4AAD10C6318939CA630ECD
:103760007BD0738E94B19CF439C98410630B6B2B9E
:103770005ACA632E52EC10A310C520E631C8426B22
:103780007C125B0D52CC528C426B6B6ED6B8C63439
:10379000A572847173D194F67BF221684A6D39C8A1
:1037A0007C0DC614A5329CD473CF94B46B6F420ABF
:1037B000422B39CA39CA7C136370845373D018E51D
:1037C00094D4636F7C1152ABAD75CE788C90632B23
:1037D0004A69632C5AEC528A528B4A6B528B4229AB
:1037E000528A528B4A6A4A497BF06B6E422939C829
:1037F00029264A484AAB41EB6AAD5AAB3A0AE77E02
:10380000FFFEFFFFFFFFFFDFFFDFFFDFFFFFFFFF29
:10381000FFFEFFFFFFFFFFFFFFFFFFFFFFFFFFFFB9
:10382000FFFFFFFFFFDFFFDFFFDFFFFFFFFFFFFF08
:10383000FFFFFFFFFFFFFFFFFFFFFFFFFFFFFFFF98
:10384000FFFFFFFFFFFFFFFFFFFFFFFFFFFFFFFF88
:10385000FFFFFFFFFFFFFFFFFFFFFFFFFFFFFFFF78
:10386000FFFFFFFFFFFFFFFFFFFFFFFFFFFFFFFF68
:10387000FFFFFFDFFFDFFFDFFFFFFFDEF79DBE3251
:10388000ADD46330634F5AEE4AAD424C4AAD426C00
:10389000530F52CE3A2C426D426D426CAD968C91D4
:1038A000E73ACE77CE78CE98C637D6D8D6B88C91B0
:1038B0006B6D6B4C738D8C50C638CE98CEB8E75B71
:1038C00073CF5B2D73D16BB04AAD5AEE5B0F52AE26
:1038D0004A6D212818E6294729678C72422952AA85
:1038E000BE17D6DAD6D9B5B518E373AE632D5ACB69
:1038F00052CB5AEC632D738D4227CE77BDF6C67836
:103900009D1584323A2A52ED4A8C4AAC52ED4AADAA
:10391000422B4A8D424B5B0E636F73F14A8C31C967
:103920009D1652EE4AAD94D57C318CB43A0BA55716
:10393000530D9D5632098C9510C6318831A7AD754F
:103940004A48632CBDF7B5D64A4AD69A73AD630B85
:103950006B4C5AECC658212418C318A431876B8FBE
:1039600094F5426A5AED52AD4ACC6B6E9491BE16F4
:10397000ADB5636E63708C9531A93A0A420A738DB6
:10398000AD92C6549CF2949373AF8C945ACD39EA9D
:103990004A6C422B420B31C929682147214710C488
:1039A0004AAC31C98C9300017BEF8430843094B2EF
:1039B0006B6D632D630C5ACB5ACB52AB528A4A4A79
:1039C00052AB4A6A4209528B8C7252AB6B4D738E6A
:1039D00063907C3173AC7B6C4A0C4A8F8CD4F7DDDE
:1039E000F7DEFFDEFFFFFFFFFFFFFFFFFFFFFFFF31
:1039F000FFFFFFFFFFFFFFFFFFFFFFFFFFFFFFFFD7
:103A0000FFFFFFFFFFFFFFFFFFFFFFFFFFFFFFFFC6
:103A1000FFFFFFFFFFFFFFFFFFFFFFFFFFFFFFFFB6
:103A2000FFFFFFFFFFFFFFFFFFFFFFFFFFFFFFFFA6
:103A3000FFFFFFFFFFFFFFFFFFFFFFFFFFFFFFFF96
:103A4000FFFFFFFFFFFFFFFFFFFFFFFFFFFFFFFF86
:103A5000FFFFFFFFFFFFF7DFF7DEF7BECE77BE52B7
:103A60008CB163317BF26B6F4AAE52CE4AAE52EFED
:103A70005B304AAE216929CA3A0C424C73EFE79B8E
:103A8000CE97D6B8CE98CE98D6D8D6F8D6D8E73B2B
:103A9000D6D9C636CE77DEF9CE77D6D9CE98BE1730
:103AA00052CC52CD5B2F52CD4AAD5B0E5B2F52CE26
:103AB0003A0B21482948212631A86B6E39E852CAB1
:103AC000E77CC657DF3B7C0F424952CB5AEC632C54
:103AD000634D632D634D632C738DCE77BDF6BDF6BC
:103AE0008472636F3A0A424B4A8C52ED52AC31C930
:103AF000424B4A6C4AAD31C98C943A0A52CD6B9014
:103B000073D184535B2E94F56B8E634E424B6BAF37
:103B10004AAA39E85B2E39EA296829454A67948F11
:103B200031A45AA929444A8939E98C92E73CAD75F8
:103B30008450630DBE1731A420C118A129248451DB
:103B4000636F52CD52AD5AEE4AAC94B573B06B8FE1
:103B50009D14951594D58C944A6B4A6B31C884504A
:103B6000BE14C65694D2632E73F173F14A6C4A6C3C
:103B70004A4C39EA39EA29682127190619062148E9
:103B8000088510C5108418E618C410834A4A5ACB19
:103B90005ACB528A52AB52AB52AB52AB52AA4A8A60
:103BA00052AB52AB42097BD0738E000110834A6A3C
:103BB00073F083EECD8DEE4EBD914A6ACE9CFFDE52
:103BC000FFFEFFFFFFDFFFDFFFFFFFFFFFFFFFFF46
:103BD000FFFFFFDFFFFFFFFFFFFFFFFFFFFFFFFF15
:103BE000FFDFFFDFFFFFFFFFFFFFFFFFFFFFFFFF25
:103BF000FFFFFFFFFFFFFFFFFFFFFFFFFFFFFFFFD5
:103C0000FFFFFFFFFFFFFFFFFFFFFFFFFFFFFFFFC4
:103C1000FFFFFFFFFFFFFFFFFFFFFFFFFFFFFFFFB4
:103C2000FFFFFFFFFFFFFFFFFFFFFFFFFFFFFFDFC4
:103C3000FFDFFFFFFFFFFFFFF7DEEF7DBDF4CED517
:103C40006BAE8454A5778CB3951631EA7C34426D03
:103C5000426D3A2C298A2169298A3A0B3A09ADB674
:103C6000ADB5C658CEB9CE99D6FACEB9BE57D6DACA
:103C7000DEFADF1ACE97C636DEF8CE97C6579D130A
:103C800052AC63505B0F52EE52AD52EE5B0F4AAD39
:103C9000296821072968318818E54A8A528AA5547B
:103CA000DF3BDF1AD6FA9D334269634D5B0C5AEC59
:103CB0005B2C634D5B0C52AAAD73C657C657AD540F
:103CC00084938CB44AAC52AD52CD52AD6BB1422A02
:103CD00052AD31C952CD4A8C8CB531C94A8C6B2E4C
:103CE0007BD0632D4A8A6B8E849131E83A09EF9D2F
:103CF0004A482924298573B018A529468C4FBDD37D
:103D00004A25A532A532634D8C735AED4A8BAD9688
:103D10006B8E73D08450CE567BAB7B8B5A8994B21A
:103D200031C8426C4A8D420B4AAC4A6C4A8D94B5FC
:103D3000530D4AAC634F4A6C632E5AED632E73AF3A
:103D400094F29D13AD56B5D994F57C13422B422BBA
:103D50003A0A5ACD2988212721270885086418E6C0
:103D600010A510A52106210618E520E573AF42082D
:103D700042294A4952AB4A6A4A4A4A6A4A4942096E
:103D80004A8A528B4A497BF039A718E421046B6DAB
:103D90007BCF93CAC4A5AC02EF1352C9FFFFF7BF94
:103DA000FFFFFFFFFFDFFFDFFFDFFFFFFFFFFFFF83
:103DB000FFFFFFDFFFFFFFFFFFFFFFFFFFFFFFFF33
:103DC000FFDFFFDFFFFFFFFFFFFFFFFFFFFFFFFF43
:103DD000FFFFFFFFFFFFFFFFFFFFFFDFFFFFFFFF13
:103DE000FFFFFFFFFFFFFFFFFFFFFFFFFFFFFFFFE3
:103DF000FFFFFFFFFFDFFFFFFFFFFFFFFFFFFFFFF3
:103E0000FFFFFFFFFFFFFFFFFFFFFFFFFFFFFFDFE2
:103E1000FFDFFFFFFFFFF7DEF7DEEF7DBE33B5D23A
:103E2000634E8CB594D59D358CB429A9C69D216966
:103E3000424D2149216A216A2169216A216921694A
:103E4000424B634D73EF7C307C316B8E636E6BAE97
:103E50008C92ADB5D6D9D6B8CE98D6B9D6B96B6D49
:103E60004A6B63504AAE5B0F6B90635052EE3A2B35
:103E7000214821482147190518C43A089CD3DF1B63
:103E8000ADB5B5F6ADD5BE57636D5B2C5B2D5B2C28
:103E90005B2C634D5B0C7BEFC616C636CE77AD74DC
:103EA0008CD3B5D852AC4A8D5AEE4A8C8432422B10
:103EB0004A6C426A29C87C534AAD3A2A39E9738F61
:103EC000AD35528AC678847052CA21662166632B4A
:103ED000B5B5BDD6740C4A8A20E731698C118C2E99
:103EE0005AA7AD71C63452CB5AEE10C6636F741127
:103EF0007C32632F94B3BD94A4AFC593C5F67BEF1A
:103F00004A8A426C424C4A6B4ACC39EA39EAA57774
:103F10006BD06BD1426C52AD420B39C94A4C6B919C
:103F200052CC845252AC52CD7411424C424C4A8C09
:103F300039C99CF52968632F7BF23189630D2967A4
:103F40002126210518C418E420E44209630C31A796
:103F500042294A494A6A422939E94A6A4A4A42296F
:103F60004A8A39E86B4D8431212439C721047BCF3B
:103F7000636CEF13CD26EE8D948EC65AF7FCF79D39
:103F8000FFDFFFDFFFFFFFFFFFFFFFFEFFFFFFFF82
:103F9000FFFFFFDFFFDFFFFFFFFFFFFFFFFFFFFF71
:103FA000FFFFFFFFFFFFFFFFFFFFFFFFFFFFFFFF21
:103FB000FFFFFFFFFFFFFFFFFFFFFFFFFFFFFFFF11
:103FC000FFFFFFFFFFFFFFFFFFFFFFFFFFFFFFFF01
:103FD000FFFFFFDFFFFFFFFFFFFFFFFFFFFFFFFF11
:103FE000FFFFFFFFFFFFFFFFFFFFFFFFFFFFFFFFE1
:103FF000FFFFFFFFFFFFFFDFFFFECE76C6749D13BE
:104000004AAD9514A5777C323A2C6390847310E7FF
:10401000212931EB298A2169194929AB29AC1909D0
:10402000296A526D5AAE5AEE4AAD5AF263315B4F6D
:104030005B2E5B4F73F2845394B3A555ADB64AAC77
:10404000630F5A905AAE632D39E9424C4A6D39CA12
:10405000210731A829472105420939C7DEFA7C0F1B
:1040600073CE73CE73CE8C718C91632C5AEB5AEC59
:104070005B0D634D632DB5B6B5F6C697ADB45B2D3C
:104080007BF37BF2426B52CD4A6C4A8D3A0A528CDA
:104090004A6B39CA3A0994D42127320A31E8634B72
:1040A00052A86B4FAD5520C328E641E95AAD2146D1
:1040B000848FADD6DEDB18C518E618E5214621054C
:1040C0008C909CD09CF210C610A5212729893A0B10
:1040D00084536BB0845394B29D136BAD6B6E3147B8
:1040E0004A6C3A2A52AC4A4B4A2C528C4A6C420BCC
:1040F000636F634D52AC4A6C422C4A6D39EB422BD4
:104100003A0AB5F96BB07BF1424B426C424B424BE1
:10411000632EA5578453847384524ACC94D48472FA
:104120008C93426AADB68471632C39E8630C4A699A
:1041300039E84A494A6A420942094A494A493A27FA
:104140004A49528C84314227632D83D15ACC7BEF6C
:104150005AECA4B2C5D37C4E4AACFFDFFF9EFFFFF2
:10416000FFFFFFDFFFFFFFFFFFFFFFFFFFFFFFFF7F
:10417000FFFFFFFFFFFFFFFFFFFFFFFFFFFFFFFF4F
:10418000FFFFFFFFFFFFFFFFFFFFFFFFFFFFFFFF3F
:10419000FFFFFFFFFFFFFFFFFFFFFFFFFFFFFFFF2F
:1041A000FFFFFFFFFFFFFFFFFFFFFFFFFFFFFFFF1F
:1041B000FFFFFFDFFFFFFFFFFFFFFFFFFFFFFFFF2F
:1041C000FFFFFFFFFFFFFFFFFFFFFFFFFFFFFFFFFF
:1041D000FFFFFFFFFFFFFFFFFFDEBDF4C65473CFFD
:1041E0005B2F9535A57795161907B5F94A8C1928CF
:1041F0001909298A1928216921491949194A214B84
:10420000318B426D4AAE5B3152EF5B0F5AEF5B3040
:104210005B2F4ACE4ACE52EE5AED4A6B52CD52CD6A
:1042200052CC52AE5AEF426C19072128212821287E
:1042300018E6298818E510842104842FA53221244A
:1042400039C642284A694A6952AA5AEB52AA5ACB3D
:104250005B0C5AEB7BEF84308C90B5D57C2F426A97
:104260004A8D422B84737C326B907C125B0E528C95
:104270004A6B39EA5AED636F31C93A0A3A08B5F622
:10428000A5336B6D5AC8296120E2292229223164A5
:1042900020E2314473CE106331888CB3298818E54D
:1042A0006B6DD6D9632C10C62148190718E73A0B55
:1042B000424C4A6C424B632F5B2E31E8847331AA27
:1042C00031C94ACC426B5AAE5AED52CD4AAB52ADCF
:1042D000424B3A0A424C422C420C4A4D424C424C10
:1042E0004AAD5AEE7C1184334A6C422B424C39EA77
:1042F0005AEE6B9152CD7C3239EA636F847294D45A
:104300005AED5B2DEFBDBE17AD754A6A73AE738E65
:1043100052AB528A528B4A4A4A4942084A69426A17
:1043200039C87BAF7BAF2967318710E331C67C4F3B
:10433000528B4A09524A4A8BB5D7F79EFFBFF7DE28
:10434000F7DFFFFFFFFFFFFFFFFFFFFFFFFFFFFFA5
:10435000FFFFFFFFFFFFFFFFFFFFFFFFFFFFFFFF6D
:10436000FFFFFFFFFFFFFFFFFFFFFFFFFFFFFFFF5D
:10437000FFFFFFFFFFFFFFFFFFFFFFFFFFFFFFFF4D
:10438000FFFFFFFFFFFFFFFFFFFFFFFFFFFFFFFF3D
:10439000FFFFFFFFFFFFFFFFFFFFFFFFFFFFFFFF2D
:1043A000FFFFFFFFFFFFFFFFFFFFFFFFFFFFFFFF1D
:1043B000FFFFFFFFFFFFF7DEEF7CB5D2C655632E90
:1043C0009D36A597636F6BD229AAB61A2188298AD0
:1043D000296A19292149298A10E7192819292169E7
:1043E00021683A6C42EE5B305ACF634E5B2F5B30F4
:1043F00052F05B1052EF5AEE5B0E62EF528E52ADEE
:1044000052ED52EE5B5052EE29A90884190621267E
:1044100008A4190518E518E4000194D3212429659E
:10442000212418E32124214421242965318531A642
:1044300031A639E64A894A894A897C0FA575636F96
:104440005B0E4A8C8CB58CB48452A5768CB43A0A37
:10445000528C29688CB452CD422B3A2A4AAAD6FAF9
:10446000A5556B2B73A773A86B2B6B295AA65247C4
:10447000628849C2424810A3298773D0424B94F600
:104480006B8F31A7296721283A2B4A8D19083A0BDF
:10449000424C4AAD4A8D424D3A4D741284946BD1D0
:1044A0006BB14A6C4A4C5AAE426C4AAD52EC4AACC3
:1044B0003A4B426C422C52AE4A6D4A8D4A6D4A6D5F
:1044C0003A2B4A6C214731C9420B424C420B39EB23
:1044D000422C1907190718E610C621472987422AD6
:1044E00039E9424A4AAA5B0B4A895ACB73AE5ACB86
:1044F00052AB5ACC52AB4A6A4A494A494A8A4AABF9
:104500004A4B8C5252AB62ED6B6D6BCE6BAE842E10
:10451000A4AF83CD4A4C5B10F7DEFFBDFFDEF7FE94
:10452000FFFFFFFFFFFFFFFFFFFFFFFFFFFFFFFF9B
:10453000FFFFFFFFFFFFFFFFFFFFFFFFFFFFFFFF8B
:10454000FFDFFFDFFFDFFFDFFFFFFFFFFFFFFFFFFB
:10455000FFFFFFDFFFDFFFDFFFDFFFFFFFFFFFFFEB
:10456000FFFFFFDFFFDFFFDFFFDFFFFFFFFFFFFFDB
:10457000FFFFFFFFFFFFFFFFFFFFFFFFFFFFFFFF4B
:10458000FFFFFFFFFFFFFFFFFFFFFFFFFFFFFFDF5B
:10459000FFDFFFDFFFDFF7BDD6B9C674A5325AEFE4
:1045A0009D567C5295364AAE5B508453190721497B
:1045B000296B18E8214910C75B2F6BB16B9039E963
:1045C00029883A6C42AE52EF5ACE5B2F52EF52CE50
:1045D00052CF52AE52CF52AE4A8D631062EF4AAD07
:1045E00052CD5B4FA5985B2E52CD73B1210518C4F7
:1045F00018C418E418E5084321264A4A10C42104C7
:1046000020E318E318C321032103294420E318A25F
:1046100018C2210318E3296521246B8D8C926B6FDE
:104620005B0D7C1284538CB47C527C116B8F422ABC
:10463000424C422B5AEE6B70636F5B0D10C37C10C3
:10464000632E6B0B62C46B47CE198C309CD0736C9D
:1046500052866B2431C73A086B6F7411634F6370D5
:1046600084531084210718E729892148190731AAA2
:104670003A0B4A6C4AAD424C426C84B595166BAF0E
:104680008C9229254A2A420B420C4A4D4A8B3A2ADF
:10469000426B3A29424B4A6B422A422B4A8D4A6C62
:1046A0004A8D4A6C296852AD39EB424C3A0B422C88
:1046B00029892969214818E731EA18E6190608848A
:1046C000190618C61084108331C7528A39E7422868
:1046D0004A494A494A6A4A4942294A4952AB4A69BF
:1046E0006B2E843108A2002039C673D07B6FBCF0DA
:1046F000E5EBEEF05AEB9D37FFFFFFDEFFFEEFBD6F
:10470000FFFFFFFFFFFFFFFFFFDFFFDFFFDFFFDF39
:10471000FFDFFFFFFFFFFFFFFFFFFFFFFFDFFFDF09
:10472000FFFFFFFFFFFFFFFFFFFFFFFFFFFFFFFF99
:10473000FFFFFFFFFFFFFFFFFFFFFFFFFFFFFFFF89
:10474000FFFFFFFFFFFFFFFFFFFFFFFFFFFFFFFF79
:10475000FFFFFFFFFFFFFFFFFFFFFFFFFFFFFFFF69
:10476000FFFFFFFFFFFFFFFFFFFFFFFFFFFFFFDF79
:10477000FFDFFFDFFFDFF7DEC636C67473AF5B1007
:104780004AAC7C32639110E7A5783A2B190721498E
:10479000298B2129296A0044A5786BB18C947C333C
:1047A00011074AAD73F26B705AEE531052CE4ACED7
:1047B00052CE5B0F5AEF52AE6B7163515B0D4AAC38
:1047C0004A8B634FB5D9636E7C1294D621275AEE7B
:1047D0006B4F39A931A8318829675B0D10C420E4DB
:1047E000210421042104210420E429452925210450
:1047F0002124210318E318C218C35AEB6B6E422A16
:1048000031E884727C528452847273F052ED4A8C87
:10481000422B424B31C929682988298831C831C8BF
:10482000422B52AB5AC652A5840E8C2E8C8EA531CB
:10483000212152A618E518E539EA29888473424BEC
:10484000426B18E618C618E710C6212718C618E7E5
:10485000422C4A6C422B52AB52AC84548C9594D36C
:104860005AA5AD0C83EB526A62895A89526A4A6B27
:10487000A57752ED31E94A8C422B422B422C422B38
:10488000426C39EA4A6C31A9422C422B39EA5AEE81
:10489000296829682147108539E92127294718E621
:1048A00010A518C610A56B2F52AB31A639C74A6A9E
:1048B00039E8422942084A494A4939E84A4A318690
:1048C00083F14A8A10C20861528A6B519BEEABE3B6
:1048D000BC00F7106B4BDF3DF7DEF79EFFDEF7DE27
:1048E000FFFFFFFFFFFFFFFFFFFFFFFFFFFFFFFFD8
:1048F000FFFFFFFFFFFFFFFFFFFFFFFFFFFFFFFFC8
:10490000FFDFFFDFFFDFFFDFFFFFFFFFFFFFFFFF37
:10491000FFFFFFDFFFDFFFDFFFDFFFFFFFFFFFFF27
:10492000FFFFFFDFFFDFFFDFFFDFFFDFFFFFFFFF37
:10493000FFFFFFFFFFFFFFFFFFFFFFFFFFFFFFFF87
:10494000FFFFFFFFFFFFFFFFFFFFFFFFFFFFFFDF97
:10495000FFDFFFDFFFDEF7BEBE13ADD26350633172
:1049600073F0426C298A298ABE5B10E610E71908A9
:1049700019091909190810A684737C328C952189AC
:104980006BB0AD73D654D656A554530F530F5B106E
:1049900052AE6330637052CE63503A2C52EE4AAC42
:1049A0005B0E4AAD5B2F8CD57C523A6A2167951518
:1049B0005B4E214718E521254A6A52AB212520E4A8
:1049C00020E4210418C318C321042104296620E42B
:1049D00018A218E320E32945294418C318E4A53593
:1049E00052CC9D1594D38CD37C31847239E952AC6E
:1049F0004A8C29C83A0A39EA39EA214818C610C54A
:104A0000004352ED530B73CD318452474A275287EE
:104A100052A75A8A5AEE5ACD424B31C95B0E6BB03F
:104A20003A0A21472968190718E62127210719079B
:104A30003A2B39EA424B31E97C3184528C748C92A6
:104A4000DED4DE4DFF947348E691AD0A944F739027
:104A50009D164A8C422B4A8E420B424C424C4A8D48
:104A6000424C4A8C422B424C4A4C3A096B8F7C1187
:104A700039E98CB4424B4A8C6B6F296731C91905EF
:104A800031A729662105736F41E939A639C74A4A1A
:104A9000420939E742084A6A422939E831A84207FF
:104AA00094B3422A216629444A497BF1B591E66BC9
:104AB000FE8FACF09493FFFFFFDEFFFFF7DFFFFFF9
:104AC000FFDFFFFFFFFFFFFFFFFFFFDFFFDFFFDF76
:104AD000FFDFFFFFFFFFFFFFFFFFFFDFFFDFFFDF66
:104AE000FFFFFFFFFFDFFFFFFFFFFFFFFFDFFFDF36
:104AF000FFDFFFFFFFFFFFFFFFFFFFFFFFFFFFFFE6
:104B0000FFFFFFFFFFFFFFFFFFFFFFFFFFFFFFFFB5
:104B1000FFFFFFFFFFFFFFFFFFFFFFFFFFFFFFFFA5
:104B2000FFFFFFFFFFFFFFFFFFFFFFFFFFFFFFDFB5
:104B3000F7DEFFFFF7BDDEFCBE5294F163305B2F62
:104B4000BE5A52CD29AB52EE849410C619282129A1
:104B50002129214918E73A2B7C72A5B74AAD426C4E
:104B6000BE15C56BD504CD28D67284B452EE5AF06A
:104B700052AF5ACF5AEE5AEE52AD52AE426C530F6C
:104B800063905B6F8CD431E884D300611926322A9C
:104B9000426B3A09424A29664A6A73CF73AF7BF087
:104BA000632D5AEC5AEC4A693A0839E829662945D6
:104BB00010A3212510A310A318E318E331A68450F5
:104BC000632D4AAA52CB29866BAF5B0E4A6C4A6BA7
:104BD000420A3A0939E939C93189318910A6296966
:104BE000634F21695B0F41EA20E620C618A62945DC
:104BF000212429462127296839CA6B9052CD4AAC15
:104C000052CD5AED4A8C52CD4A8C422B3A0A424B35
:104C10004A8C4A8C422B428C8CB384B2953452CB52
:104C2000944E940ABD6E9CCCD62EEF50A4D094B472
:104C300094D54A6C424C52AF3A0B422B424C422C18
:104C4000420B422B424B422B39EA39E9AD9794D4BF
:104C50008C939D1521269D157C116B8F29687BEF08
:104C6000CED873CC52A94A49528A41E839C74A4A38
:104C7000420831A742294A6A4229424939E86B8EE3
:104C8000528B4A4B5ACB5AEA632C73F05B2C8C4FF5
:104C90009450420ADF3DF7DEFFDFFFDFF7FFFFDF63
:104CA000FFFFFFFFFFFFFFFFFFFFFFFFFFFFFFFF14
:104CB000FFDFFFFFFFDFFFDFFFDFFFFFFFFFFFFF84
:104CC000FFFFFFFFFFDFFFFFFFFFFFFFFFFFFFDF34
:104CD000FFDFFFFFFFFFFFFFFFFFFFFFFFFFFFFF04
:104CE000FFFFFFFFFFFFFFFFFFFFFFFFFFFFFFFFD4
:104CF000FFFFFFFFFFFFFFFFFFFFFFFFFFFFFFFFC4
:104D0000FFFFFFFFFFFFFFFFFFFFFFFFFFFFFFDFD3
:104D1000F7DEF7BEF7DECE79CEB37C105B1052CD56
:104D200052ED3A2B1929A5782188218919282128A3
:104D300010C718E8214973D27C937C733A2B8C946A
:104D4000738AC4E7C420DD48EEF49D764ACD52EF65
:104D500052CF52CE52EE52CD4ACE4A8D4AAE428CFE
:104D6000638F8D128CD18C918C5018A229251883B9
:104D700018A420E510632105632D6B8F84318C927C
:104D800084728C938CB38C7284527C107BF073CFC2
:104D90006B4E6B6F4A8B5AEB52AA42284A699D139D
:104DA000738EAD758450A57531C84A6C52AD52AC46
:104DB000422A3A0931A8214718E6212921081086FC
:104DC00084734A6B94B5106518E718C719080885ED
:104DD00018E621282106210610A518E618E618E590
:104DE0002106296831C9424B4AAC52CD634F632F2B
:104DF0006B906B906B707C725B2D428B5B2E52ECD8
:104E0000524B62AC6AEC5AEA736B94AB7C10A556B9
:104E10005B0D52CC52AC4A8D4A8C424C422C422CF7
:104E2000424C4A6C3A0A422B3A0A422A634F4A8C55
:104E30005AEE634F21679D366B9094942147B5D607
:104E4000AD9394CF7BEE632D632D52AB39C7528A5D
:104E50004A6A42294209422942494A4A422994D48B
:104E600039E9294421021082736F736E41C941EC04
:104E70004A4D8452FFFEF7BDFFDFFFFFF7FEFFFF45
:104E8000FFFFFFFFFFFFFFFFFFFFFFFFFFDFFFFF52
:104E9000FFDFFFFFFFFFFFFFFFDFFFFFFFFFFFFF62
:104EA000FFFFFFFFFFDFFFFFFFFFFFFFFFFFFFDF52
:104EB000FFDFFFFFFFFFFFFFFFFFFFFFFFFFFFFF22
:104EC000FFFFFFFFFFFFFFFFFFFFFFFFFFFFFFFFF2
:104ED000FFFFFFFFFFFFFFFFFFFFFFFFFFFFFFFFE2
:104EE000FFFFFFFFFFFFFFFFFFFFFFFFFFFFFFDFF2
:104EF000FFFEF7DEF7DDB5D4BE33636F52CF7C52D1
:104F00004AAC29A92989D71D08841907192831CA4B
:104F100031CA298A190894F64AAD84941906639017
:104F20007C2ECDD0DDCDD611B5F56B914AAD52CDED
:104F30005B2E52CD52EE426D52EF4AAE52EF3A2BFB
:104F40007C739D55636D7BAFC5D3ACAC8BC96AE6F2
:104F50005A4441C4290231A56B8D6BAF84327C3138
:104F60007C527C527C5184927C517BF07BF06B8F25
:104F70007BF073D07BF184518C928431B5B6CE78BE
:104F8000738D9CF394D2A5554A6B52AD528C4A6BEB
:104F900039C8422A2967212718E6210719086350D2
:104FA0005B2E7C3131E910E608C519471947218984
:104FB00010A618E718C510A418C518C618E62106CB
:104FC0002107210718C519061906212729683A095A
:104FD0004A8C4AAC634F31EA73D16BB0422A528B90
:104FE00052AC528C52AD21684A2B31A752AD6B9016
:104FF00052EC426B52CD4A8C52AC4A8C422B4A6DD9
:105000004A4C3A0B422B422B422B422B31C931A93D
:105010002127088431A9298821274A6C298831A7AA
:105020004A898C7184305ACC528B5AEC39E8528AB6
:105030004A6A4A6A4A4A52AB4A6A39E85AEC7BEFF2
:1050400039E862EB630B632F9432C52FCD9062E891
:105050004A0BD6BBF7BCFFDEFFDFF7FEF7FEFFDE35
:10506000FFFFFFFFFFFFFFFFFFFFFFFFFFDFFFFF70
:10507000FFDFFFFFFFFFFFFFFFDFFFFFFFFFFFFF80
:10508000FFFFFFFFFFDFFFFFFFDFFFDFFFFFFFFF90
:10509000FFFFFFFFFFFFFFFFFFDFFFFFFFFFFFFF40
:1050A000FFFFFFFFFFFFFFFFFFFFFFFFFFFFFFFF10
:1050B000FFFFFFFFFFFFFFFFFFFFFFFFFFDFFFFF20
:1050C000FFFFFFFFFFFFFFFFFFFFFFFFFFFFFFDF10
:1050D000F7DEFFFEE73BC6339D126350426CBE59BC
:1050E000426A422C52CD9D5610E721492989422C13
:1050F000298918E721085B0E6B90636F214708A48C
:10510000951594B2B5D59D3463D052AE52CE5B2E78
:105110004AAC426C5B0F4ACE428D4AAD52CE4AAD8C
:1051200074349D57AD7862CD6308E6F3D670DEB176
:10513000CE318C2A31826B8B84508C928C937C5232
:10514000847284727C727C517C3173F07C316BAEE2
:105150007C106BAF7C316BCF73CF73F09CF46B4DD5
:105160005AEA73AD5AEB632D5AED422A52AC422AE9
:10517000424A420A296818C618E608A410C64AAD71
:105180006B907C32322A19272148006573F1634EF7
:105190006B90086418E610C5190610C618E610C50D
:1051A000190721472167212718E6190619062988BA
:1051B0004A8C3A0A424B39EB8C748C92738BAD302B
:1051C000A4EF528852686B4A52AA5AEE52ED4A8CAA
:1051D0005B0D4A8C5ACF4A8C39E9424B39EA424C32
:1051E000422B424C422B39EA424B39CA424B18E619
:1051F0002127210731C9210739EA31A8190618E505
:1052000018E45ACC21264A4A39C8528A42084A49E7
:10521000528A528B4A4A4A6A422942088C724A6828
:10522000000020E429476350942CDD49DDAACE4ECE
:10523000528BFFDFF79DFFDEFFFFFFFEFFFFFFDF6B
:10524000FFFFFFFFFFFFFFFFFFFFFFFFFFDFFFFF8E
:10525000FFDFFFFFFFFFFFFFFFFFFFDFFFDFFFFFBE
:10526000FFFFFFFFFFDFFFDFFFFFFFDFFFDFFFFFCE
:10527000FFFFFFDFFFDFFFDFFFDFFFFFFFFFFFFFBE
:10528000FFFFFFFFFFFFFFFFFFDFFFFFFFFFFFFF4E
:10529000FFFFFFFFFFFFFFFFFFFFFFFFFFDFFFFF3E
:1052A000FFFFFFFFFFFFFFFFFFFFFFFFFFFFFFDE2F
:1052B000F79DFFFEC637C67173AF8475B61AADF79A
:1052C0008C9321489D5631E919471908190821473F
:1052D00018E62108298A10A51906002418C718E81D
:1052E000108639EA6B9052ED52CD52AE5B304ACE09
:1052F0004AAD3A4C4AAD4AAD52ED9D76741084B435
:105300006BB2638F7C7363913A2A638E8C704A69A7
:105310004228212518E473CE73AE7C318452847206
:105320007C517C317C517C108451636D7C1073EF17
:105330006BAE6BAF74106BCF847273D14A6B52AB90
:10534000844E8C70C63952AC52CD4AAC39E9424ACF
:1053500039EA2947294820E72126298710A44A8CC1
:105360004A8C7C3208842106106441EB73B15B0DDA
:105370004A8B086410C610E610C610A610851905E1
:10538000212710C55B0D94D5632F10C55AEE52CD61
:10539000298852AD424B7C5094F48410DEB2E6ABC7
:1053A000FF916AE5F736DE0DAD8D7BD0A5355B0E3E
:1053B000422A52ED420C424B2987422A422A422B72
:1053C000424C422B424C31CA7BF2420A39EA4A6CC7
:1053D000214831A931C931C92947108410A410A529
:1053E00031A85B0D39C7420842494209318631A7CD
:1053F0004229422941E94A4A39E84A8B632D18E596
:1054000018C4290239E87C51AD0AB3C1DDAC8CC99E
:10541000BE39EFBEFFFDFFDEFFDFFFFFFFFFFFFF37
:10542000FFFFFFFFFFFFFFFFFFFFFFFFFFDFFFFFAC
:10543000FFDFFFFFFFDFFFFFFFFFFFDFFFDFFFDF1C
:10544000FFFFFFFFFFFFFFFFFFDFFFFFFFFFFFDFAC
:10545000F7DEFFDFFFDFFFDFFFDFFFFFFFFFFFFF05
:10546000FFFFFFFFFFFFFFFFFFFFFFFFFFFFFFFF4C
:10547000FFFFFFFFFFFFFFFFFFFFFFFFFFFFFFFF3C
:10548000FFFFFFFFFFFFFFFFF7FFF7FFFFFDFFFF3E
:10549000F7DDF7FFC5F4BE126BCD6B6EEF7DBE99E5
:1054A00084750865B638010718C9294A210610C84D
:1054B000212A194619272109212818C6294818C662
:1054C00018E710A64A6C52EE52EE5ACE4AAE4AADDA
:1054D0003A6B4AAF4A6E94D5DEFBFFBEFF7FF7BF43
:1054E000B6385B934A6E422941E83A0A39C931C954
:1054F000424B31C94A8C634D84317BEF8C9184726D
:105500007C32849284517C3173F06B8E6B6E7BF0B5
:105510006B8E7C1073D06BB08452634E52AC9CF493
:10552000845073AD7C1052CC5ACD52AE39EA5ACD6C
:1055300039C839A829672126212718E6635031EA9E
:105540006BD1424C086510A60845424B29885B0E7A
:1055500018E618C718E518C610C610C6086618A7BA
:1055600020E71864526C5B2E422B29A76C2F8CD439
:1055700021683A2A52CD94F39CF55ACD8C2F83EAB8
:10558000AD0E9C2CCDAFE66E95528C9284534A6C36
:105590004AAC52CD4A4D424C4A4B420B422D3A0D39
:1055A0004A4D4A0C526D4A6CADD65B2D8CD494F5A5
:1055B0003A2B843373F16B903A2A5B2E5ACA21033B
:1055C0004A49528A42092966422939C839C839C824
:1055D00042294A6A39E84A2939E84A4939C72966D5
:1055E000316528C44AA76B6BEF15DE6DB5724AEEC4
:1055F000F7DEF7DEFFFFF7BEFFFFFFFFFFFFFFFF56
:10560000FFFFFFFFFFFFFFFFFFFFFFFFFFFFFFFFAA
:10561000FFFFFFFFFFFFFFDFFFDFFFFFFFFFFFFFDA
:10562000FFFFFFFFFFFFFFFFFFDFFFFFFFFFFFDFCA
:10563000F7DEFFFFFFFFFFFFFFDFFFFFFFFFFFFFC3
:10564000FFFFFFFFFFFFFFFFFFFFFFFFFFFFFFFF6A
:10565000FFFFFFFFFFFFFFFFFFFFFFFFFFFFFFFF5A
:10566000FFFFFFFFFFFFFFFFFFFFFFFFFFDFF7BFB2
:10567000F7FEE77CB5F3BDF67432530DA5586370A1
:10568000192652AE8CF48CD529E894F610C5426CDC
:1056900021881947214918E718E718E708441085B9
:1056A000004410C652AD4AAD634F5AEE426C4ACE2A
:1056B0004AAD4AADBDFAF7BFFFFEFFDEFFDEF79F42
:1056C000EFDE84B18C719CCC52225AA5292118C1DD
:1056D000294310A152CA634D8452845184727C3292
:1056E0007C328C92847273CF6B8E6B8E6B8F6B6EF1
:1056F00073CF73F073D07C117C117BEF31C79CF3B7
:1057000094B1EF9D632D5B0E4A4B4A2B420A4A6BC4
:1057100031A82947294729672127084384538453FF
:105720007412210710A5108521275B2E422A2147DC
:10573000108518C718E50843002310A518C510A444
:1057400010A4298773CF636E00034A4C4A8C21262C
:105750002106422B422C4AAC7BF25AEE42295ACB0C
:1057600041E76B0C4A07734A95128C926BB039EA89
:1057700052AD422B39EA4A6C422B4A8C3A4A4AAB28
:10578000422A4A4B4A6C52ED8CB48CD495156B8FDF
:10579000424B9D3684329D1531E8F7FFE73BAD540F
:1057A0005ACB632D5ACC4A4939E8420939C839E8FD
:1057B0004A6A4A6A4A2941E83187210418C31945CF
:1057C00039A539C6426B4A6C5A6B6B4D3A28A555C0
:1057D000F7DEF7BEFFFFF7BEFFDFFFDFFFFFFFFFD4
:1057E000FFFFFFFFFFFFFFFFFFFFFFFFFFFFFFFFC9
:1057F000FFFFFFFFFFFFFFDFFFDFFFFFFFFFFFFFF9
:10580000FFFFFFFFFFFFFFFFFFFFFFFFFFFFFFFFA8
:10581000FFDFFFFFFFFFFFFFFFDFFFFFFFFFFFFFD8
:10582000FFFFFFFFFFFFFFFFFFFFFFFFFFFFFFFF88
:10583000FFFFFFFFFFFFFFFFFFFFFFFFFFFFFFFF78
:10584000FFFFFFFFFFFFFFFEFFDFFFDFFFDFFFDFE9
:10585000F7FEC697BE5494978CD6849284539CF7D7
:105860007C1294F47C319CF67CB2536D4ACDB6190F
:1058700010A5294A18E818E610E610C652AD0884AB
:105880004A8C298831C9634F426B52CE426B4AAD74
:105890005B2F6B6ED6FAFFFEFFDEFFFEF7BDEF7CDF
:1058A00094CF7C4C844DEF16F774EED2BD908C0BE8
:1058B00039A229216B6C73CF8CB374117C32845262
:1058C00084728CB384727C306BCF6B8E73CF632DFC
:1058D00073F06BAE73F084516BAD5B0A4A6794D181
:1058E00052AA632C5B0D52AD4A8C424B4A6B39A9CC
:1058F000292721462947294710A431C75AEC3A29BC
:105900003A0A18C5210618C510A46B6E634E2967A4
:10591000108418C600434A6B3A094A8B10C410C45D
:10592000088363B06C11634E29477BB17C1339A99E
:10593000296731E9422B3A0A6BD08CD474113A2B87
:105940007C3373D17C3263518CB28CB3426B5AED91
:1059500052CD3A0A3A2A424B422B528F52CD31A8AD
:1059600041EB4A2B424B3208428C2167634F08A41B
:1059700052CC6B8E6B8E73F04A6A8C9294D3A55581
:10598000738E6B6E52AB4A6A39E84A6A42494209E1
:1059900042294A6A420939C718C320E420E410C3E7
:1059A00018E318E329846B0B4A0A4A8F4A8DFFBE1D
:1059B000F7BEF7DEF7DFFFDFFFDFFFDFFFFFFFFFF1
:1059C000FFFFFFFFFFFFFFFFFFFFFFFFFFFFFFFFE7
:1059D000FFFFFFFFFFDFFFFFFFDFFFFFFFFFFFFF17
:1059E000FFFFFFFFFFFFFFFFFFFFFFDFFFDFFFFF07
:1059F000FFFFFFFFFFFFFFFFFFDFFFFFFFFFFFFFD7
:105A0000FFFFFFFFFFFFFFFFFFFFFFFFFFFFFFFFA6
:105A1000FFFFFFFFFFFFFFFFFFFFFFFFFFFFFFFF96
:105A2000FFFFFFFFFFFFFFFFFFDEFFDFFFFFF7DFEF
:105A3000FFFEC675BE535AAF6B2CAD2F946D6B0E27
:105A400052EDC6FA530D73B17C536C106BF26BD2EE
:105A50002948290918C618C419053A096BB04A8B98
:105A60006BB0296731C852ED31C94AAC428B4A8CC0
:105A700052CE73CE6B6AA532C637BE369D137BAB52
:105A80007BE97C2B634D528D83CD6B0A7B6C6ACA9C
:105A900041A64A287BEF7C10847274327C73847236
:105AA000847284727C1073F073EF73AF7BF06B8E33
:105AB0006B8E73AF845173CFA5547BEE5B0A630A80
:105AC000DF3B5B0C52CD4AAD5B0E4A6B632E212649
:105AD00029272147294818C518E48C91634C6B6D20
:105AE00039E9082318C510C42965634D632D108456
:105AF00018C518C510A45AED7C11420910A421083C
:105B0000190874125B4F21476B6E84516B4F21074C
:105B1000422A3A494A6B422B84728CB27411424C2D
:105B2000A5983A69A5B75B2F52AD73F1845294D40E
:105B30009D366B907C124A8C73D139CC39C95AA9E5
:105B4000522841C7424B3A2929A8296918E62968F1
:105B500031A8210539C829463188108410A342296B
:105B6000528A4A6A4A6A39C831A74A694A494A4A3E
:105B7000528A4A6A18C320E420E4106210A328C4A1
:105B800018C310C29C6AF6F0C5AE52899CB6FFBF1E
:105B9000F7DEF7BEF7DEFFFFFFFFFFDFFFFFFFFFD0
:105BA000FFFFFFFFFFFFFFFFFFFFFFFFFFFFFFFF05
:105BB000FFFFFFDFFFFFFFDFFFFFFFDFFFDFFFDF95
:105BC000FFFFFFFFFFFFFFFFFFFFFFDFFFDFFFFF25
:105BD000FFFFFFFFFFFFFFFFFFDFFFFFFFFFFFFFF5
:105BE000FFFFFFFFFFFFFFFFFFFFFFFFFFFFFFFFC5
:105BF000FFFFFFFFFFFFFFFFFFFFFFFFFFFFFFFFB5
:105C0000FFFFFFFFFFFFFFDFFFFEFFFEF7FEF7DFF7
:105C1000E73BC633AD71840DE66EC546DE6D83ECA1
:105C20004AEC953500026B278BCB42262988426CC3
:105C30009D34084221056B2E632D3A2852EC4A6AA6
:105C40005AEC29673A0952ED4A8C4A8C4AAB52CD3C
:105C50004A6D7C0F63695AE952A94AC84A877BEBAF
:105C6000844B848D42AD4AF042AB2988292739C93B
:105C70002926528B7BD07C117C317C927C727C32C9
:105C80007C5284727C317C1073CF73CF6BAF634DC9
:105C900073AE73AF6BAF8451DF1C7C1073AE52AA2E
:105CA000845152CC4AAD52EF4A8C4AAC39E92106B4
:105CB0002927190621061084630CD6B99CF194910A
:105CC000210420E518C442287BEE5AEA422910A498
:105CD0002106082242085AAC6B6E18E421272107DE
:105CE00041E76B2B736E00627BF16B6D426A21267C
:105CF00039EB3A0A424B5AEE94D4845273D0632F54
:105D00007C12A5555B0D424B3A2B4A6C7C326BCF13
:105D1000951594F56BD2634EAD762945C5D1D66DF8
:105D2000D66E840A39EA31AA10A62949212818C654
:105D300039EA31A918C6212718C618C742494A4A64
:105D400039E829664A4931863186422942284A493A
:105D50004A4A422939C83187210418E418C410621C
:105D600020A431656B098B82FFB362CAE75EFFDF57
:105D7000FFFFF7BEF7DEFFDFFFFFFFDFFFFFFFFFE5
:105D8000FFFFFFFFFFFFFFFFFFFFFFFFFFFFFFFF23
:105D9000FFFFFFDFFFDFFFFFFFFFFFDFFFDFFFDFB3
:105DA000FFFFFFFFFFFFFFFFFFFFFFDFFFDFFFFF43
:105DB000FFFFFFFFFFFFFFFFFFFFFFFFFFFFFFFFF3
:105DC000FFFFFFFFFFFFFFFFFFFFFFFFFFFFFFFFE3
:105DD000FFFFFFFFFFFFFFFFFFFFFFFFFFFFFFFFD3
:105DE000FFFFFFFFFFFEFFFFFFDFF7FEF7FEF7DE1F
:105DF000DE99C653844ED692AC40B401DE4BB58FCB
:105E000094F531E9A46ECD89C4C6D5EF316321671D
:105E1000636D214318E48C732124422818E3214543
:105E200018E429867BF04A8B52AC52AD5AED52EE03
:105E300052AE73CE5B295B0A4AA84AA652E773CAE0
:105E40006B8C7C30428C4B2E42AA31EA29A83A094D
:105E50001905634E636E7C317C517C7174517C31C9
:105E600084728C928CB37C316BAE73CF73AF6B8EBC
:105E70006B8D6BAF7C316BAF8CB394D47BF1422ACA
:105E80006BB052ED52CD4AAD426C426B21262126B9
:105E90002947190618E5108294F1B5B46B4B632BB2
:105EA00020E3210508419CF2BDF5C636296620E5B0
:105EB00018A429256B4B526952AA214518A520E345
:105EC0008C27A4AA626741E5A48C840C10C431C954
:105ED0003A0A4A6C320A6B8F530D636E4AAC4A6BB6
:105EE0008C73A51652AC4A4B426B52CE422B530DCB
:105EF0003A694AAD31EA7C324A8B526ABD90B52983
:105F0000F75362E7845310C573D152CD422A422A17
:105F1000298839E9212618C531A8086473EF21259D
:105F200039E839E831874A49318639C739E84208C2
:105F30004208422973AF6B6E630D632D52AB3A4832
:105F40004A6A42083187944DBD918C52F7FFF7FEA3
:105F5000F7DEF7DEFFFFFFFFFFFFFFFFFFFFFFFFA3
:105F6000FFFFFFFFFFFFFFFFFFFFFFFFFFFFFFFF41
:105F7000FFFFFFDFFFDFFFFFFFFFFFDFFFDFFFDFD1
:105F8000FFFFFFFFFFFFFFFFFFFFFFFFFFFFFFFF21
:105F9000FFFFFFFFFFFFFFFFFFFFFFDFFFDFFFDF71
:105FA000FFDFFFFFFFFFFFFFFFFFFFFFFFFFFFFF21
:105FB000FFFFFFFFFFFFFFFFFFFFFFFFFFFFFFFFF1
:105FC000FFFFFFDFFFFEFFFEF7DFF7FFF7FFFFDE5C
:105FD000CE36BE53638E8C2DFF12EE4FDE926B4A8F
:105FE000953718C3E650A380CCC4FF3062C76B8FCF
:105FF000D71C9D33951273EF18C34A482965106169
:1060000010A2210439C752AB42294A4C52AD52ADBD
:106010005B0F52EC638C634B5AE95B085B49638C02
:10602000634E424D52EE5B0E426A39CA29C829A717
:106030003A29636E73CF7C317C317C5274117C11B0
:106040007C5184518C927C1073F0843173D06BAF8F
:106050006BAE74107C51634E530D84738C948453D7
:10606000847352ED4ACD4AAD4AAD424B19062926FA
:1060700021053A0A42492984B5F5842EBE1620E34B
:1060800018C318A331A6BE16844E73AD10A2082102
:10609000106241E7BDF4AD738C4E108318A54A25FC
:1060A000A5089C8849A39C2BBD4883A808853A4C29
:1060B00039E94A6B428B638D3A699D554AAB94F43A
:1060C00094D4A55639E9422A4AAC8C948C9594D440
:1060D00073F073F13A4B5AEE39C95249838A72E729
:1060E0005A8984138CD47C509D5552CB84528C9306
:1060F0004A8B7C3131A7B5D75B0B31C64249422868
:10610000422939C739C7422931A739C84A29420823
:1061100039E8632D632D632D7C10841084317C104D
:1061200073CF6B8E73AE7C707410DEFCFFFFFFFDCF
:10613000FFFFFFFFFFFFFFFFFFFFFFFFFFFFFFFF6F
:10614000FFFFFFFFFFFFFFFFFFFFFFFFFFFFFFFF5F
:10615000FFFFFFFFFFFFFFFFFFFFFFFFFFFFFFFF4F
:10616000FFFFFFFFFFFFFFFFFFFFFFFFFFFFFFFF3F
:10617000FFFFFFFFFFFFFFFFFFFFFFDFFFFFFFFF4F
:10618000FFDFFFFFFFFFFFFFFFFFFFFFFFFFFFFF3F
:10619000FFFFFFFFFFFFFFFFFFFFFFFFFFFFFFFF0F
:1061A000FFFFFFFFFFDEFFDFFFFFF7DFFFDFEF3A5D
:1061B000D675ADD35371630F8C128C6E73AF39EA01
:1061C000A59608A37B2ADDEEDDED9C4B00009D34F7
:1061D000B5F6A5759D12846F296618E4318618C33B
:1061E00018C3212410A273CEBE17630D73B052EDF5
:1061F0004AAD4ACD52EC4AAB5B0C52CB5B2D530DF2
:106200004AAD5AEF52CD5AED39EA31A839E92106A3
:1062100052AC5AED843184527C1173F17C117C3183
:106220006BCF6B8E73F073CF7C107C317BF073CFB0
:1062300073CF741084725B2D8CB37C528CB47C321F
:106240007C334A8C4AAC4AAC4A8C422B21472946C3
:10625000002194F539E76BACA552634B736D39A6F9
:1062600039A608214A48738CA5526B8C00201082F5
:106270001082738DC63573CC840D18831885312533
:1062800063085AA720A2B54FB4EB49C5298A426BCF
:106290004A6A4A2C6B9084526BB0636F6BD09D56E8
:1062A0005B2E5B0D3A09424A52CC6BB07C127C32B9
:1062B0007C32532DA557632E3186DED3C60BE6F113
:1062C00031236B306B9073F07C12190495147411A8
:1062D000A5565B0D9513D6D994D0740C39E7632C71
:1062E0004A4939C74208420939E84208422931A7D8
:1062F0005ACB6B4E6B6E6B6E738F738F73AF73F085
:106300007BD07BF07C327C10AD75F7FFF7DDFFDED4
:10631000FFFFFFFFFFFFFFFFFFFFFFFFFFFFFFFF8D
:10632000FFFFFFFFFFFFFFFFFFFFFFFFFFFFFFFF7D
:10633000FFFFFFFFFFFFFFFFFFFFFFFFFFFFFFFF6D
:10634000FFFFFFFFFFFFFFFFFFFFFFFFFFFFFFFF5D
:10635000FFFFFFFFFFFFFFFFFFFFFFDFFFFFFFFF6D
:10636000FFDFFFFFFFFFFFFFFFFFFFFFFFFFFFFF5D
:10637000FFFFFFFFFFFFFFFFFFFFFFFFFFFFFFFF2D
:10638000FFFFFFFFFFDFFFDFFFFFF7BEFFFEDED6F1
:10639000CE747C4F320B4A6A39EB428B31EB94F668
:1063A000530C192A108641C831A518E44A8C3A28A2
:1063B00031E7316742087BCE316610832105210425
:1063C000108218A22103B5D6D6DA73CE7C30530CD6
:1063D00095156BD16BD16BB15B0E5B2E4AAD530E35
:1063E0005B6F7C315B0D4A8B426C31C831A7210554
:1063F0005AEC630D7C327C327C1173D07C117C3082
:1064000073CF73F084317C1073CF7C3173F073CF12
:1064100073CF6BCF741052EC8CD36BCF8CF473F0C2
:106420006BD1424B4AAC52AD422B420A210629465F
:106430003187632D0861AD9473AC4A6829441061BB
:10644000210410615AEA52A9634B4A4820E439C733
:1064500018E36B4C7C0EBE1629640821186320E6F5
:1064600010652106192531E641E739C93A4B29C79C
:10647000528B4A2C6B507BD194B452ACA5576350CD
:106480009D36424B424B4A8C634E52ED52ED4A8C44
:10649000426C2188634E42093985B50CACC6DE904A
:1064A0004A2639C918E618E6318A31A8632F31E93E
:1064B000634F21465B0C7BEEAD949D115B0C5AEB58
:1064C0004228420841E8420842094A4942293166C5
:1064D00073AF632D73CF73AF73AF6B6E7BCF7C10D5
:1064E00084117C327C538C528BF0DEFCF7FFF7DE9C
:1064F000FFFFFFFFFFFFFFFFFFFFFFFFFFFFFFFFAC
:10650000FFFFFFFFFFFFFFFFFFFFFFFFFFFFFFFF9B
:10651000FFFFFFFFFFFFFFFFFFFFFFFFFFFFFFFF8B
:10652000FFFFFFFFFFFFFFFFFFFFFFFFFFFFFFFF7B
:10653000FFFFFFFFFFFFFFFFFFFFFFDFFFFFFFFF8B
:10654000FFDFFFFFFFFFFFFFFFFFFFFFFFFFFFFF7B
:10655000FFFFFFFFFFFFFFFFFFFFFFFFFFFFFFFF4B
:10656000FFFFFFFFFFFFFFFFFFFEFFDFFFFDBE336B
:10657000CE9562EB8C0DD5F0AD704A8939C9ADF777
:10658000216718C629661024192810C6A55518E4D5
:10659000212829697BD0630D41E818C42104210416
:1065A000210418C32965A55484518CB28471847266
:1065B00084B38472636F9D5663B1953673D16BF269
:1065C0006BD0632F42493A2A4ACD6BB0632D2145E7
:1065D00052CB6BCF7C3173F1741073F07C317C3013
:1065E00073F07C1073D073D073D08C9273CF6BAF79
:1065F0006BAF73F0634E5B0D84727C528CF48CD362
:10660000426B4AAC52ED4A6C5ACD39E9296610A367
:106610007C111904214473CD73CD296418C2106212
:10662000084118C35289420639E618E318E320E40A
:1066300029655AEA4A885AEB5ACC4A4921043187DB
:106640002949214729A71946088331E842695AECAC
:10665000424A424A4A8B31874A4A39E952AC630E70
:106660005B0E39EA4A6C5B0E94F48CB494D47C12C1
:1066700052CD8453632E39A66AC97B077B26520705
:106680004A0C4A8C422A2947422B39EA424C298932
:1066900018E6212610831083528A2945420839E8DA
:1066A000420839A741E8422942084A69422839E8A4
:1066B00073AF52CB73AF73AF73AF634D7BCF6BAF21
:1066C0007C30843384308C927BD0E73BEF9FEFFEAD
:1066D000FFFFFFFFFFFFFFFFFFFFFFFFFFFFFFFFCA
:1066E000FFFFFFFFFFFFFFFFFFFFFFFFFFFFFFFFBA
:1066F000FFFFFFFFFFFFFFFFFFFFFFFFFFFFFFFFAA
:10670000FFFFFFFFFFFFFFFFFFFFFFFFFFFFFFFF99
:10671000FFFFFFFFFFFFFFFFFFFFFFDFFFDFFFDFE9
:10672000FFDFFFFFFFFFFFFFFFFFFFFFFFFFFFFF99
:10673000FFFFFFFFFFFFFFFFFFFFFFFFFFFFFFFF69
:10674000FFFFFFFFF7DEF7FDF7FEFFDFE79BBE531E
:10675000ADB39430D5CCBC85D64ABD8E62ED9517CD
:1067600010C38389A48C7B0710E51907844F10821E
:1067700000447C524AAA52EB3A0818E3212421042F
:1067800018C318E418C44A6A5ACC6BD07C517411EF
:106790008CD44AAB73EF84B37C9284F46390532F10
:1067A000530E528D4A6D4A8B530C6B6F7C11190539
:1067B00052ED743274116BF074107C107C307C10CC
:1067C00073CF6BAF632D632D7BF084526BAF6BAFD8
:1067D00073F08452424A426B426B5B0D52ED4ACDDC
:1067E000428A426B4A8D4A6C5AAC31864A8A0862A8
:1067F0007C11088231C642284A68108118E2108153
:10680000084129654A4818C22965084110620000FC
:106810004A894A8931A339E752AC6B8E39E631C6D1
:106820003A0739E9190729668412CE7ADEDBE71BBD
:10683000B5B863914AAB4A8A4A8B422B422B3A093C
:1068400039EA420B424B52CC530D632F6B4F7C12F3
:106850006B909D174A6B5268FFD7D62BFF9252263A
:10686000318B32093A09216631E9424B212731C97E
:10687000190610A4212621066B2E31883186318716
:1068800039C729663166420839E752AA4A494A6A35
:106890006B6E5B0C7C316B8E73AF6B6E7BCF6BF171
:1068A0007BEF83D07C317410A554FFFFF7BFFFDE70
:1068B000FFFFFFFFFFFFFFDFFFFFFFFFFFFFFFFF08
:1068C000FFFFFFFFFFFFFFFFFFFFFFFFFFFFFFFFD8
:1068D000FFFFFFFFFFFFFFFFFFFFFFFFFFFFFFFFC8
:1068E000FFFFFFFFFFFFFFFFFFFFFFFFFFFFFFFFB8
:1068F000FFFFFFFFFFFFFFFFFFFFFFFFFFFFFFFFA8
:10690000FFFFFFFFFFFFFFFFFFDFFFDFFFFFFFFFD7
:10691000FFFFFFFFFFFFFFFFFFFFFFFFFFFFFFFF87
:10692000FFFFFFFFF7DFFFFFFFFDF7DED678D71889
:1069300063CEBDD2D525C442E60BC5F09513426D9A
:10694000B52DDD47CC46E6275A6239866B8B422748
:106950002146632A5AEB634D4A69106218C3210429
:1069600018A218C31083422A52CC4A8C39E952AD7E
:106970003A0A4AAD6B70634F5B0E5B2F52CD4A8C67
:10698000528C4A6B4AAB428A73F0741152AC1904B0
:10699000636E8491636E6BB06BD07C316BEF8471EE
:1069A00073D07C11636E52EB6BAF6BB0530C5B4DCD
:1069B0006BAF7C3131A74AAB4AAB4A8B192552CC1D
:1069C0004A4B4A6B52ED52ED41EA41E918C452CBB1
:1069D0003A2920E442074A6910A3210418E318E386
:1069E000106231A7294518C3108208200861294484
:1069F000528921234A6852A97BF031A73A283A08E4
:106A00003A0A4A4B3167DEBCF7BDEF9CF7BEF7DEB2
:106A1000F7DD634C426B4A6D4A6C426B422A4A6D09
:106A200031EA4AAC4AAC73D173B173D13A4A3A29CC
:106A30004AAC5AD041AB38E5A42EACAF62A88C6FFB
:106A4000530C6BB184743A293A08530E4AAC214670
:106A5000318731671083292542492145316639E85C
:106A600039E831863186420739C74A493A086B8E80
:106A7000634D5B0C843173CF73AF7BF073CF73AF17
:106A8000738E7BF084108430E73CF7BEFFFFF7DEA7
:106A9000FFFFFFFFFFFFFFFFFFFFFFFFFFFFFFFF06
:106AA000FFFFFFFFFFFFFFFFFFFFFFFFFFFFFFFFF6
:106AB000FFFFFFFFFFFFFFFFFFFFFFFFFFFFFFFFE6
:106AC000FFFFFFFFFFFFFFFFFFFFFFFFFFFFFFFFD6
:106AD000FFFFFFFFFFFFFFFFFFFFFFFFFFFFFFFFC6
:106AE000FFFFFFFFFFFFFFFFFFFFFFDFFFFFFFFFD6
:106AF000FFFFFFFFFFFFFFFFFFFFFFFFFFFFFFFFA6
:106B0000FFFFFFFFF7DEF7BEF7BDF7DECE34C6733B
:106B10006BD07BEDE672E68DDE33630BADF81903C7
:106B2000CDAEB463C4E4EEAE6B07734FEF9CADB56E
:106B300073CF52A8840F7C11632C108218E329456F
:106B4000108218C32104422A52AC4AAC4A8C4AAC87
:106B50004A8C4AAC4AAD52CD4AAD4AAD5B0E4AAC06
:106B60004A6B52AC4ACC4A8B426A52CC2126192538
:106B700073EF6B8E73CF7C117C318CB294F3847184
:106B80007C1173F0634D5B2C73F0636E636D636E09
:106B90006BCF634D5AED426A4AAB4A6A3A094AAC36
:106BA0004A6C5B0E4AAC52CD420A528B316784511B
:106BB00010E410A3296539E7294518A310A218C2CB
:106BC00018C32945210418E318E318C308614228B3
:106BD000422718C231A6528984103A0942694A8B69
:106BE000424C39E9CE78FFFEF7BDFFFFFFFFDEFB29
:106BF0008C8F5B2A634E4A6D4A6C4A8B424B4A4CDF
:106C0000424C424B52AC94B49D148CB48C946BB0F7
:106C100094F64A4C41E6A4CB7B429C6A3163B5B6FC
:106C20009D357C33845321276BB073D184524A6ADB
:106C3000D6BADEFB949242284A8952AA422931A749
:106C4000422939C721444A494A6942284A8A6B6D18
:106C50005AEC73CF634D7C106B6E73AF73AF73CF11
:106C600073AF6B8E73CF9CF3F7BEF7DFF7BEFFFFFA
:106C7000FFFFFFFFFFFFFFFFFFFFFFFFFFFFFFFF24
:106C8000FFFFFFFFFFFFFFFFFFFFFFFFFFFFFFFF14
:106C9000FFFFFFFFFFFFFFFFFFFFFFFFFFFFFFFF04
:106CA000FFFFFFFFFFFFFFFFFFFFFFFFFFFFFFFFF4
:106CB000FFFFFFFFFFFFFFFFFFFFFFFFFFFFFFFFE4
:106CC000FFFFFFFFFFFFFFFFFFDFFFFFFFFFFFFFF4
:106CD000FFFFFFFFFFFFFFFFFFFFFFFFFFFFFFFFC4
:106CE000FFFFFFFFFFFFFFDFF7BEEF7DBE12A58EA8
:106CF0005B515B2F632D63CC6B50632F8CF531A8F8
:106D00005207B50BB549838900007371B5B68CB1D4
:106D10008491846E843094D35ACB18C3210418C351
:106D200018E320E318E4420952CC428B4AAC424BB0
:106D300052CD426B426B4A6C424B4A8C52EE52AD82
:106D4000422A4A6B94D495156BAF634E10C44249E6
:106D50007BEF31A6424931C84A6B634D73AF6B8DEF
:106D60006B8F636D632D5B0B6BAF73D0634C634DA7
:106D70007C104A8A73D0634E5AEC31C852CC52CD43
:106D80005B0E422A2127422A52CD52AC422973CFB0
:106D90000882296629444228210418A318C318C36D
:106DA00010A318E4210418E318A318C318C352AAA7
:106DB00018E318E3210410822105528A42493A0956
:106DC000424C6B6D848DB5B3E71ABDD69CF2632936
:106DD0004265636B52CC4A4C424B4A6B424B422B4E
:106DE0004A6B4A6B424A52CD5B2D634F6B91426CAA
:106DF0007C1231A7840CFFF3DEECDEB14A4952AEBF
:106E000031C952ED31EA18C69D16424B84534249AE
:106E1000C638AD74AD95632C7C10632D4A6A39E891
:106E2000420931A739E742085AEB42286B8D73AE0D
:106E30005AEC73AF7BF07BF073AF6B8E84117BF0F9
:106E4000843173CF634DDEFBF7BEF7DEFFFFF7BE85
:106E5000FFFFFFFFFFFFFFFFFFFFFFFFFFFFFFFF42
:106E6000FFFFFFFFFFFFFFFFFFFFFFFFFFFFFFFF32
:106E7000FFFFFFDFFFFFFFFFFFFFFFFFFFFFFFFF42
:106E8000FFFFFFFFFFFFFFFFFFFFFFFFFFFFFFFF12
:106E9000FFFFFFFFFFFFFFFFFFFFFFFFFFFFFFFF02
:106EA000FFFFFFDFFFDFFFFFFFFFFFFFFFFFFFFF32
:106EB000FFFFFFFFFFFFFFFFFFFFFFFFFFFFFFFFE2
:106EC000FFFFFFFFF7FEFFFEFFDED6FABE7484CFA2
:106ED000422C526A52CB3A6D3A0C8CF2638F3A2FA5
:106EE00018E7212518C528E56B6F39CA18C431C7C2
:106EF0006B8E6B8D630C6B4D738E18E318A318C3E8
:106F0000210418C318E44A8B84733A4A95155B4EE2
:106F10006B8F73F15B0E6B6F52CD4AAC4A8C4AACEF
:106F2000420A632E73F07C11634E634E18C410C383
:106F300073AE6B8D31A60021002108412104086148
:106F400018C418E32145214431A74A6A42484249FE
:106F500073EF4A8A424A5B0D4A8B3A095AED52ADA9
:106F60004A6C422B422B4A8C4A6B52EC73CF31C78E
:106F7000214539C7210442082946108318A318C3A4
:106F800018C3106218A318C318A318C3108208618D
:106F900018C321241081086231877BF06BAE3A0957
:106FA000424B6B8D6BC9528652A74A47420552C667
:106FB0005B2752E952AD4A6C52AD52AD4A6C424C1D
:106FC000422A39E94A8B31A93A0A31A939EA3A0900
:106FD0003A0939C94A297B8AAD4E62E82929002637
:106FE00010C518E610A52969190618E6294818C51C
:106FF0002987294529665ACC42294A4A39E8420854
:1070000039E831A739E7422842285AAA8410634D4B
:107010006B6E6B6E7C10634D7C107BD073CF73AF47
:107020007C107BF07BF0F7BEFFFFF7DFF7BEF7DEEB
:10703000FFFFFFFFFFFFFFFFFFFFFFFFFFFFFFFF60
:10704000FFFFFFFFFFFFFFFFFFFFFFFFFFFFFFFF50
:10705000FFFFFFDFFFFFFFFFFFFFFFFFFFFFFFFF60
:10706000FFFFFFFFFFFFFFFFFFFFFFFFFFFFFFFF30
:10707000FFFFFFFFFFFFFFFFFFFFFFFFFFFFFFFF20
:10708000FFFFFFDFFFFFFFFFFFFFFFFFFFFFFFFF30
:10709000FFFFFFFFFFDFFFFFFFFFFFFFFFFFFFFF20
:1070A000FFFFFFFFF7FEF7FEF7BEBE74B6745B2D61
:1070B000B531E630EED26B0A4208AE1742AC39C9A0
:1070C00039E6316818A910C8BE5921262126422A5E
:1070D0007BF03A285B0D6B2C7BEF212418E318C35F
:1070E00010A218A318E452AB94F48CB384726BB062
:1070F0003A4A94F58CB484735B2E424B31E952AC1E
:107100004A8B4A8B634E84727C5231A81082630C86
:1071100039E75ACA294418C320E4108321041062B5
:1071200018C3108118A3086108411062108221045D
:10713000A555424A4A6B4A6A4A8B31A852CD52CD74
:107140004A8C4AAD52AD5AED428B4ACC951421245B
:107150004A492104294539C7318618C4108218E3E9
:1071600018C3106210A218C318A318A318C308618B
:1071700018E318C318E2108321067BF15B0C4AABBD
:107180003A2A634C73EB630852874A6652A652A6AA
:10719000632A4A8A420B4A8C52CD424C422C424BC3
:1071A0004A8B31E83A09422B4A6C4A6C5AEE634DDD
:1071B00042492948316A3149316918C618A8190964
:1071C000190618E6212829482947210718C610A6BC
:1071D000108529478432296731873187318631A765
:1071E00039C739C731A6422821247BCE73AF6B6DD6
:1071F0007C1073AE73AF73AF73AF73AF73CF73CFD6
:107200006B8E5B0CC659F7BEFFFFFFFFF7BEFFFF9B
:10721000FFFFFFFFFFFFFFFFFFFFFFFFFFFFFFFF7E
:10722000FFFFFFFFFFFFFFFFFFFFFFFFFFFFFFFF6E
:10723000FFFFFFDFFFDFFFFFFFFFFFFFFFFFFFFF9E
:10724000FFFFFFFFFFFFFFFFFFFFFFFFFFFFFFFF4E
:10725000FFFFFFFFFFFFFFFFFFFFFFFFFFFFFFFF3E
:10726000FFFFFFDFFFDFFFFFFFFFFFFFFFFFFFFF6E
:10727000FFFFFFFFFFFFFFFFFFFFFFFFFFFFFFFF1E
:10728000FFFFFFDFF7DEF7DEEF9DB673B5F483CFC8
:10729000E60CBC01BD05EEB452A89D7739C8ACCB55
:1072A000CD4CB48D316321AB8CD3088110A3738F87
:1072B0006B6E4AAB6B6F630C84302945210421242B
:1072C00020E418A2210431A773D06B6F7C124A8B83
:1072D0006B6F7C327C12847352CD52CD5AED5B2E93
:1072E00052CC4A8B73F08CB35B2D31C8318694B28B
:1072F00039C618C2318518C3108218C318C310824A
:107300001082106118A318C218A220E418C318C371
:107310005AEC422A52AC52AC296752CD424B4A8CAD
:1073200052CD4A8C528D4A6B4AAB530D7C71634DE2
:10733000840F29662966318631A718A3108220E4BC
:1073400018C3086210A218C318E318A320E418A3F6
:10735000084118E418A118C318A484114A6A424AC3
:107360004AAB4A8A6BAE636B42684A884A884AAA2B
:1073700052AC424B424C5B2E52CD31CA420C52AD04
:10738000424A42293A0A4A8D426A52CD4A4B4A6AD7
:10739000298739EA4A4D316920E710A618E719070D
:1073A000192710C72128210721282127212718C69E
:1073B00018E73A0B632E296639E839A6294631A722
:1073C000318639E7318639C6420784106B6D6B8E82
:1073D0007C108C7273AF7BF073CF73AF7BD06BAFCD
:1073E0007C316B8EF7DEF7BEF7DEFFFFFFFFF7DEC7
:1073F000FFFFFFFFFFFFFFFFFFFFFFFFFFFFFFFF9D
:10740000FFFFFFFFFFFFFFFFFFFFFFFFFFFFFFFF8C
:10741000FFFFFFDFFFDFFFFFFFFFFFFFFFFFFFDFDC
:10742000FFFFFFFFFFFFFFFFFFFFFFFFFFFFFFFF6C
:10743000FFDFFFFFFFFFFFFFFFFFFFFFFFFFFFFF7C
:10744000FFFFFFFFFFFFFFDFFFDFFFFFFFFFFFFF8C
:10745000FFFFFFFFFFFFFFFFFFFFFFFFFFFFFFFF3C
:10746000FFDFFFDFFFDFFFDEE73AC6B58C71944F29
:10747000F68CCCA6EF0FB5738CB14AADBD70BC6372
:10748000BBC3DDAA9CAA2167BE587C2E6B4C630C43
:107490006B8D5B2C6B8E5AEB8C3031A618E421047B
:1074A000212420E3210418E45B2D420A52AD4A8CCA
:1074B00052CD4A8C4AAC52ED424B3A2A422A426B98
:1074C00052AC4AAB7C5273F04AAB422A18E37BEFD2
:1074D000738D31A521242104086120E420E429458D
:1074E00018C218C218A418E318E318C420E3000156
:1074F0004A4A422A5B0E5AED3A095AED4A6B4A6CE7
:1075000052CD4AAD4A6C528C4AAC8CF4532C73CE9B
:107510005ACA31C7210418E44A6939E72945316656
:107520002104108218C3210418E3108218C31062CA
:10753000106218C320E3212421045AEC52AC5B2DC5
:1075400052ED4AAC4AAC52EB52EC4AAB426B3A2B8E
:107550003A0C52CF636F634E3A0A4A4C4A4C424B44
:10756000422A42294A4B52AD3A49424A39EA420A32
:1075700039EA3A2A2127214610C41926190710C6CC
:1075800010C718E818E718E6210818E6210710A622
:1075900018E710C5212631A739E739C631872104FC
:1075A000296639C742283186632C7BCF6B4D6B6EC1
:1075B00073CF7BF07BF073AF843184517BF07C1010
:1075C00073CFB5B7F7DFFFDFFFDFFFDFFFDFFFDFE1
:1075D000FFFFFFFFFFFFFFFFFFFFFFFFFFFFFFFFBB
:1075E000FFFFFFFFFFFFFFFFFFFFFFFFFFFFFFDFCB
:1075F000FFDFFFDFFFFFFFFFFFFFFFFFFFFFFFDFFB
:10760000FFFFFFFFFFFFFFFFFFFFFFFFFFFFFFFF8A
:10761000FFFFFFFFFFFFFFFFFFFFFFFFFFFFFFFF7A
:10762000FFFFFFDFFFDFFFFFFFFFFFFFFFFFFFFFAA
:10763000FFFFFFFFFFFFFFFFFFFFFFFFFFFFFFFF5A
:10764000FFFFFFDFFFFEFFDDCE55CED57C30632D83
:10765000AD2DE693BE124AACA5B7298AB56EBCE53E
:10766000C4C6F70F6B077BAFE77DBE36CE787BCF06
:1076700084507C307C306B4C8C50528A18C320E490
:1076800020E420E321042104424929684A4B4A8C22
:1076900052CD426B4A8C426C52ED4AAC4AAC52ED30
:1076A000424A6BAF84727C518452422A6BAD39E7F7
:1076B00031C6294429652965108220E4294518C46A
:1076C000294418C218A3210320E3294620E418A363
:1076D00039E94A8B630E31C94A6B4A6B52CD4AADC8
:1076E0004A8C4A8D4A6C52AD4AAC8CD3743084506B
:1076F000294431C7296642084A4839E639A64A6A08
:10770000420808612104294518C318C321041082C6
:10771000082118A320E418A20840A5746B8F94F5E3
:107720008473426B52CE52CD4A8D422B4A6C4A8DA5
:107730005B106B715B0D4A8B424B52AE420B422B7E
:107740004A8B4A6B4A6C4A8C3A2A3A0A4A6C4A8CEF
:107750003A0B2168192819272127190608652128BD
:1077600010A618E818C718E6210718C620E710C7A2
:10777000190710A43A0931A741E8318741E82105EA
:10778000318639E839E739C76B6D84107BF07BF0BF
:1077900084317BF08C7284318431843184317BF08C
:1077A0006B8EEF7DFFDFFFFFFFFFFFFFFFFFFFFFA0
:1077B000FFFFFFFFFFFFFFFFFFFFFFFFFFFFFFFFD9
:1077C000FFFFFFFFFFFFFFFFFFFFFFFFFFFFFFDFE9
:1077D000FFFFFFDFFFFFFFFFFFFFFFFFFFFFFFFFD9
:1077E000FFFFFFFFFFFFFFFFFFFFFFDFFFFFFFFFC9
:1077F000FFFFFFFFFFFFFFFFFFFFFFFFFFFFFFFF99
:10780000FFFFFFDFFFDFFFDFFFFFFFFFFFFFFFFFE8
:10781000FFFFFFFFFFFFFFFFFFFFFFFFFFFFFFFF78
:10782000FFFFFFDFF7DEF79CBDF3B5F3532E428E6B
:107830003209632D52CD428BADB7320B31C98C0D5D
:10784000940A6B2810A16AED630C6B6C634C7BF09F
:1078500084316B6D73AE7C0E8C705AEB10822124D8
:1078600021042924296518C3634D52AD5B0E5B0EBC
:107870004AAC426C426C4AAD426B4AAD424B52ED4F
:10788000426B7C328CB37C51426A634E73CD298546
:1078900021032945296531860862106210A3086218
:1078A0002943210218A3210318E220E420C310A3D6
:1078B00029874A6B52AC39E94A6B52CD4AAC4AAD82
:1078C0004A8C4A8D420B5ACD5B0D426A4AAA4A69DC
:1078D000294431C731865ACB212320E229443186FD
:1078E000420810823186210418A3108218C318A3FD
:1078F000084118A318A418C318C13A2684727C53EF
:10790000634F428B52CE632F4A4C5AEE634F6B4FFC
:107910006B2E3188420A424B422B4A4C4A6C4A6CCD
:1079200052AC4A6C528D4A4B424C4A8D424B39EA1A
:1079300031AA1908212810A610A6212818E818C66F
:10794000212710C718E8210818A7212852AE10C611
:1079500018C629674A4A31A731873168294529461F
:10796000318739C731865B0B94927BD08C5184313F
:107970007C10843184317C11843173D084527C102A
:10798000A534FFFFFFDFFFDEFFFFFFFFFFDFFFFF8D
:10799000FFFFFFFFFFFFFFFFFFFFFFFFFFFFFFFFF7
:1079A000FFFFFFFFFFFFFFFFFFFFFFFFFFFFFFFFE7
:1079B000FFFFFFFFFFFFFFFFFFFFFFFFFFFFFFFFD7
:1079C000FFFFFFFFFFFFFFFFFFDFFFDFFFFFFFFF07
:1079D000FFFFFFFFFFFFFFFFFFFFFFFFFFFFFFFFB7
:1079E000FFFFFFDFFFDFFFDFFFFFFFFFFFFFFFFF07
:1079F000FFFFFFFFFFFFFFFFFFFFFFFFFFFFFFFF97
:107A0000FFFFFFDFF7BFE73BBE139D33528B73AD24
:107A1000842F420A52AF7C7273F1424B316B20E8E3
:107A2000296929895B4D5AED18C410C34AAA4AAB8B
:107A30005ACC630B630B6B8D8430632C1082210452
:107A400021043186212421047BF094D56BB09D570D
:107A5000530E7C534ACD4AAC52AD4A8C426B52CD48
:107A600039E97C318CD44ACB426A21259D128C7035
:107A700039E7212420E42945086218A318C318C354
:107A800039E510C01083296421021082210418C333
:107A90002145632D52CC31884A6B424B426C4AAE31
:107AA0004AAD4A8D4AAD52CE4A8C3A09A57531A6E7
:107AB00031A6422831C731A631C431A429445ACB5A
:107AC000294521242124296518A310A210A218C336
:107AD000108210A210A310A30861298594D39D36AB
:107AE0004ACC4AAB428C4A8C6BB0634E5B2D4A8BBE
:107AF0004A4B4A6C526C4AAD424C4A6D3A0A52ACFF
:107B00004A6C4A6D4A6C422A422B52AD422B29697B
:107B1000296910C7190718E7212810A620E818C6F8
:107B200018E618E8212918C72908634EEFBF39EA7B
:107B30000864422A52AB31A73167316839C739C866
:107B4000294539A731A68C517C1084317BF08431D2
:107B50007C1184317C1184318431843184318430CE
:107B6000F7DEF7BEFFFFFFFFFFFFFFFFFFFFFFFF97
:107B7000FFFFFFFFFFFFFFFFFFFFFFFFFFFFFFFF15
:107B8000FFFFFFFFFFFFFFFFFFFFFFFFFFDFFFFF25
:107B9000FFFFFFFFFFFFFFFFFFFFFFFFFFFFFFFFF5
:107BA000FFFFFFFFFFFFFFFFFFDFFFDFFFFFFFFF25
:107BB000FFFFFFFFFFFFFFFFFFFFFFFFFFFFFFFFD5
:107BC000FFFFFFDFFFDFFFFFFFFFFFFFFFFFFFFF05
:107BD000FFFFFFFFFFFFFFFFFFFFFFFFFFFFFFFFB5
:107BE000FFFFFFDFFFDFCE96C694636BBD71E62C0F
:107BF000E62ABD4F4A299DF8320D4A087B48526754
:107C0000110711099D37110518C7424A7C503A499E
:107C100073AF5ACA5ACB630E73AF5AEB18C32945D8
:107C200029453186210310A36B6E6BD042AC8CF5D5
:107C30007432A5B84ACD426B4A8C4A8C632F422AD3
:107C40007C117C526BAF7C3142498C7242064227D8
:107C5000296531863166294518C318C318C30861E0
:107C6000634A4A6718C439E539E520E320E318E39D
:107C700021455AEC42294A8B4A8C4AAD426C52CF7C
:107C80004A8C426C4A8D5AEE52CD4A6BD6FB8430F8
:107C90002123422831A652894A463A0539C5630C48
:107CA000294521241082296518C318A318A318A3F5
:107CB00018C310A218E218C410A321444A8A4AAC7F
:107CC00029A77C726BF07C7274528D353A6B428CB2
:107CD000428D4A8E4A8D4A8C424C4A6C4A4B528C99
:107CE0004A2B528D422C422A424B422A31C9318AB8
:107CF0002129210910A631A910A518C720E7292795
:107D0000086410C610C510C4106421854A8A4AACA4
:107D100031C84A8B420839E721243187294539A7E0
:107D200029254229528A8451738F84117BD07C107B
:107D30008452841184318452845284327BF094B210
:107D4000F7DEFFFFFFDEFFDEFFFFFFFFFFFFFFFFAE
:107D5000FFFFFFFFFFFFFFFFFFFFFFFFFFFFFFFF33
:107D6000FFFFFFFFFFFFFFFFFFFFFFDFFFDFFFFF63
:107D7000FFFFFFFFFFFFFFFFFFFFFFFFFFFFFFFF13
:107D8000FFFFFFFFFFFFFFFFFFFFFFDFFFFFFFFF23
:107D9000FFFFFFFFFFFFFFFFFFDFFFFFFFFFFFFF13
:107DA000FFFFFFDFFFDFFFDFFFDFFFDFFFFFFFFF83
:107DB000FFFFFFFFFFFFFFFEFFFEFFFEFFFFF7BF1E
:107DC000FFDFFFFFF79EC654BE16738DFECEAB805D
:107DD0009C01F7B652ABADFB3183DDCDE548DE2A21
:107DE0006B8819067C111904190573F1636E52AB87
:107DF0006B8E5ACC52AB736F73B06B4E20E518C4C8
:107E00002945212510A310834A8A4A8D6B9074114D
:107E10008D157C7342AC4ACC3A0A52CE52AD4AAD73
:107E200084928CD48CB49CF65ACC844F42472964FB
:107E30002124294539C7296618E418A3210420E420
:107E400042045AE718A431664A67210418C318E2AD
:107E500029254A494A6A422B4AAE424D52CE4AAD82
:107E60004A8B4AAC635052CE424B52CD5ACD5ACC7B
:107E7000214421244A485AEC5AE9420518C32125D5
:107E800020E4296520E4210418E4106210A218C33C
:107E900018C318A318C218E318C310820861086138
:107EA00010A218E418E4318831A84A4B39A9422AB3
:107EB000420A4A4B4A8C528C4A6C4A8D426B52CCD5
:107EC00052AC4A6C3189426C4A4B31A9422A29682A
:107ED000294810C64A6C847210C48C9452CE296909
:107EE0004AAE10C6296810A431A80041000073AE44
:107EF00029453166316639C82966210539E739A82F
:107F0000318821877411843184307C31741184521A
:107F10008C727C108451843283F08C4F6BCFE73CA1
:107F2000F7BEF7BEFFFFFFFFFFFFFFFFFFFFFFFFF3
:107F3000FFFFFFFFFFFFFFFFFFFFFFFFFFFFFFFF51
:107F4000FFDFFFDFFFFFFFFFFFFFFFFFFFFFFFFF81
:107F5000FFDFFFFFFFFFFFFFFFFFFFFFFFFFFFFF51
:107F6000FFFFFFFFFFFFFFFFFFFFFFFFFFFFFFFF21
:107F7000FFFFFFFFFFFFFFDFFFDFFFFFFFFFFFFF51
:107F8000FFFFFFFFFFFFFFFFFFFFFFFFFFFFFFFF01
:107F9000FFFFFFFFFFFFFFFFFFFFFFDFFFFFF7BF59
:107FA000FFFFFFDFDF1BBE149D73636DDE51E60C28
:107FB000F6F2AD307BEF6B71A50ECD28AB60DDE73F
:107FC000C5B03166D6B8ADF573EE7C0F6B6D73CE70
:107FD00073AE6B4C632B73AD738E841018A32104A6
:107FE000212410A218E4190431A74A6C4A6C426C8F
:107FF000426B426B4AAC4AAC4A6B422A4A8B52ED06
:10800000422B5B0E5B2E4AAC4A8C9D13B5F629655C
:108010002124296531A731E818C4108218C320E44F
:10802000212141E418A320E431A418C3292518C252
:1080300018A3528B31A84AAD4AAE4A8D424C4AAC85
:108040005AED632E5B2F5AEE52ED6B9084538431C0
:1080500029865ACA39E64A49632B4A4620C329452C
:1080600010A252AA10A3210418E420E418C318A3F4
:1080700018E318A210A218C218C318C318C318E333
:1080800018C3108210A2086210A3000118A308628E
:10809000086318C42105298831A9422C4A6C424A38
:1080A0004A4B420B4A4C422A39EA4A6B31A92968A9
:1080B00018E608658CB58CD47C328C9331C93A09AA
:1080C0007C113A094AAB94B2BDF7845173CF420890
:1080D00010A2210418A3294531A7294631A639A8A1
:1080E00031674AAB84927C317C107C117C327C31CC
:1080F00084307C307C517BF183F1840F8CB4FFFFA2
:10810000FFFFFFDFF7DEFFFFFFFFFFFFFFFFFFFFC8
:10811000FFFFFFFFFFFFFFFFFFFFFFFFFFFFFFFF6F
:10812000FFDFFFFFFFFFFFFFFFFFFFFFFFFFFFDF9F
:10813000FFDFFFFFFFFFFFFFFFFFFFFFFFFFFFFF6F
:10814000FFFFFFFFFFFFFFFFFFFFFFFFFFFFFFFF3F
:10815000FFFFFFFFFFFFFFDFFFDFFFFFFFFFFFFF6F
:10816000FFFFFFDFFFDFFFDFFFDFFFFFFFFFFFFF9F
:10817000FFFFFFFFFFFFFFFFFFFFFFFEF7DEF7DF61
:10818000F7DFF7DECEB6CEB57C706371736EBD538C
:108190008C0F52CA847252AD736BE651DDCBE64E42
:1081A00049E54A49E77AADB5AD947C0E8C708C7187
:1081B000840F738D840E7BED8C4F840F52A929851B
:1081C00031C6086110C318C431A7424B4A8D52AD65
:1081D0004A8C6B6F5B0D5ACD5ACD31C85ACC4A6C64
:1081E000528E4A8D426B426B52ED426A7C0F10A355
:1081F00029252945212531A71904108218E3188360
:10820000294318C020C418A42943108120E418E48D
:108210000882422A424B4A8D4A8D424C5AEE636F85
:1082200073D15B0E632F6B905B0E9515636F94D4C7
:1082300019047BCE210210A2420739C529243185B9
:1082400018C12944294518E418C318C318E318A312
:1082500018E310A218A218A218C318C318C318C391
:1082600018E318C318C31903108118E310A210A251
:10827000108110A210A2088210A44A8D424C424BD9
:10828000422B422B39EA3A0A422A39E9318831A98C
:1082900018E618C652AD3A0A52CD52CD00238C943E
:1082A00010C59D1510A3C679AD95AD969D346B6D27
:1082B00018E318C321042946318631A729A64A2983
:1082C00029256BAE7C1084527BF184327C31843260
:1082D0008C5173CF845273D08411738EDEFDF79E60
:1082E000F7BEFFFFFFDFFFFFFFFFFFFFFFFFFFFF07
:1082F000FFFFFFFFFFFFFFFFFFFFFFFFFFFFFFFF8E
:10830000FFFFFFDFFFFFFFFFFFFFFFFFFFFFFFDFBD
:10831000FFDFFFFFFFFFFFFFFFFFFFFFFFFFFFFF8D
:10832000FFDFFFDFFFFFFFFFFFFFFFFFFFFFFFFF9D
:10833000FFFFFFDFFFDFFFFFFFFFFFFFFFFFFFFF8D
:10834000FFFFFFFFFFFFFFFFFFFFFFFFFFFFFFFF3D
:10835000FFFFFFFFFFFFFFDFFFDFFFFEFFDEF7DFB7
:10836000F7BFF7BDC653B613530E424C5ACD420B5E
:10837000528E4AAC9D57428D422D5ACB842E630DAE
:1083800029486BB131E7636E94B284308C517BCE57
:10839000738D8C3083CE7BAE8C507C0F6BAD7C0F9D
:1083A000632C4A694A8A5AEC5B0D63B0426B5B2FBF
:1083B000630E52AC39E9528C4A8C52AC41E95AAD49
:1083C00052AD4AAC424B4A8C5B0E52CDA53510A340
:1083D00018C4294521252966210418C318C318C3C8
:1083E00018C22102210420C439C518C1210410A2D9
:1083F00019243A094A8D4A6D52CE5B2F636F5B2E6A
:10840000634F634F6370634F636F9D358CB48CB45F
:108410004ACB5AC931C439E65289420742074A2732
:10842000210218E3212520E43186212418E318C312
:1084300018E318C318E318C318A218C318E318C325
:1084400010A218C318C318E318C318E310A210A28F
:1084500010A218C318C318E310C44A6C424C3A0B5C
:108460004A8D420B39E93A09420A31A9214731883C
:10847000210718C6086410C60865108518E721484A
:1084800018E7294818C5212639E852AA4A69528AAC
:1084900020E418C320E42124318631A731C639E80D
:1084A000420973CE6BAE843284117C117C318C73A3
:1084B0007BD0843173D17C10738E8C70F79EFFFF5C
:1084C000F7BEFFFFFFFFFFFFFFDFFFDFFFDFFFDF85
:1084D000FFDFFFDFFFDFFFDFFFDFFFDFFFDFFFDFAC
:1084E000FFFFFFFFFFFFFFDFFFDFFFDFFFDFFFFF1C
:1084F000FFFFFFFFFFFFFFFFFFFFFFFFFFFFFFFF8C
:10850000FFDFFFDFFFFFFFFFFFFFFFFFFFFFFFFFBB
:10851000FFFFFFFFFFDFFFFFFFFFFFDFFFFFFFFFAB
:10852000FFFFFFFFFFFFFFFFFFFFFFFFFFFFFFFF5B
:10853000FFFFFFFFFFFFFFDFFFDFFFFEFFDFF7DFD4
:10854000FFDFDF3ACE94A533528AB52FD652632887
:108550004A6C63B2951631E8296921671107190938
:108560005B0F7412192610C67C314AAB5B2C52CAC1
:1085700052AA7BCF7BAF7BCF73D07C316B4D108207
:10858000296552AB632D845252CC95356BD0A577BB
:108590004A8C4A8C3A0A4A6C52AD4AAC528C4A6CAC
:1085A0004A8B4A8A52CD52AD4A8B526C7C1218E5E6
:1085B0002105210421252125298618E318A220E47C
:1085C00018A25288210418C34A87210221042124B9
:1085D000088131C85AEE5AEE634F5B0E636F5B2E13
:1085E0006B905B0F52CE320A7C3295158CD5426B64
:1085F000638F42064A6531635AAA4A6942062903D3
:10860000212418E42104108231A718C318E318C3E9
:1086100018E320E418E318C318C318C318A318C339
:1086200018C310A310A310A3108318A310A31083C2
:10863000108318A318A318E318C331C94A6C3A0B66
:10864000424C39EA424B3A0931A92988296829471D
:108650003A0A2127088508A519062127210718C6E7
:1086600029480844296810A50022634C296539E788
:10867000294518C320E421043186318631A631878B
:108680007BD084527BF07C118C727C107C4F8452A6
:1086900073AF6B8E73D173EF632DB5D6F7DEEF9D9D
:1086A000F7BEFFFFFFDFFFDFFFFFFFFFFFFFFFFF63
:1086B000FFDFFFDFFFDFFFDFFFFFFFFFFFFFFFFF4A
:1086C000FFFFFFFFFFFFFFFFFFDFFFFFFFDFFFFFFA
:1086D000FFFFFFFFFFFFFFFFFFFFFFFFFFFFFFFFAA
:1086E000FFDFFFDFFFFFFFFFFFFFFFFFFFFFFFFFDA
:1086F000FFFFFFDFFFFFFFFFFFFFFFFFFFFFFFFFAA
:10870000FFFFFFFFFFFFFFFFFFFFFFFFFFFFFFFF79
:10871000FFFFFFFFFFFFFFFFFFFFFFFFF7DFF7BFD9
:10872000FFFFCE76CE956B6ED653EDEAC4E7EF52DF
:108730003A27A5984A6A7307BD0EACED41C720C51C
:10874000A5152987216729698492426A5B2D73AF39
:1087500052CB6B4D528A6B4D6B8F6B6E52AB10834D
:108760000862212542295B0C73CF8CD484B28D140E
:10877000530E4AEE4ACD530D4A8C4AAD3A4C424C08
:108780004A6D52AC422B635052EC4AAD424B2967C2
:108790002105210529452145190418E3294518C358
:1087A00018C2424720E418C34245420620C32104B0
:1087B000108231A73A095AED634E632F5B0E5B4F6F
:1087C0005B0F52CE4AAD52ED7C526BB08CB5428CF1
:1087D00063906B6D5B08318352485AEB4A673143B3
:1087E00020C43187296518A3422918C318C318E388
:1087F00018C3210418C318C318C318C318C318C357
:1088000018E318E418E310A320E410A318C310839E
:1088100018A318C318A31082108239E9424B424BA7
:1088200039EA4A6C3A0A424B298931A92947190683
:10883000632E19062988424C214808642127108498
:1088400018E610A510A518E5422A7C1018E3294562
:1088500039C7108218E32104316639A731664A6AA4
:10886000632E7C117C11843184717C518CD1849174
:10887000740F7C10738F6B8E7BF0F7BEF7DEFFDF1B
:10888000FFFFF7DEFFFFFFFFFFDFFFDFFFDFFFDFA1
:10889000FFDFFFDFFFDFFFDFFFDFFFDFFFDFFFDFE8
:1088A000FFFFFFFFFFFFFFDFFFDFFFDFFFDFFFFF58
:1088B000FFFFFFFFFFFFFFFFFFFFFFFFFFFFFFFFC8
:1088C000FFFFFFFFFFDFFFDFFFDFFFFFFFFFFFFF18
:1088D000FFFFFFFFFFFFFFFFFFFFFFFFFFFFFFFFA8
:1088E000FFFFFFFFFFFFFFFFFFFFFFFFFFFFFFFF98
:1088F000FFFFFFDFFFFFFFFFFFFFFFFFF79EF7BF59
:10890000EF9CBE13B6135B4AFFB5B401CCE8FF760B
:108910006BACA5975267F5EBBC45BCE5CE1039A60C
:10892000AD55636D39E75AAC5B0C4AAB5B0D73AF69
:108930006B4E738F6B2D738E5B0C39E731A6212440
:1089400018C3296542294AAB52EB6B90636F6BB039
:1089500042AD3A6C63906BF184933A2A426B426B5E
:1089600039EB73B18C9394F5530F4AD1422B39C92B
:1089700020E529252145214510E318C3106218A3DD
:1089800018E218C218C42924210118C2294521045B
:1089900018A318C318C210A321464A8C52EE4ACD20
:1089A00052CE4A8E428D6BD19D569D7763504AAD13
:1089B000636F7BF16B6C31633985424842464A05EF
:1089C00021042946318618E4422918C318E318E423
:1089D00018E4210420E420E418A318C318C318A342
:1089E00018C318E318C318C318C3108210A218A222
:1089F00018C318C318A218C308623A0952CC426BB4
:108A0000424B424B31C93A0A29692989212710A5CD
:108A1000A5576B8F6B6F8CB4298839CA4A8C7BF24F
:108A20002947632E5B0D39C84A4931A7294521459D
:108A300039E718C318C3210439A739A6398831A7E3
:108A40003A298472214521241924530D7C52741132
:108A500073D0634D73AF840FC619FFFFF7BEFFFFDE
:108A6000FFDFFFDFFFDFFFFFFFFFFFFFFFDFFFDFB6
:108A7000FFFFFFFFFFDFFFDFFFFFFFDFFFDFFFDFA6
:108A8000FFFFFFFFFFFFFFFFFFFFFFFFFFFFFFDF16
:108A9000FFDFFFDFFFDFFFFFFFFFFFFFFFFFFFFF46
:108AA000FFFFFFFFFFFFFFFFFFFFFFFFFFFFFFFFD6
:108AB000FFFFFFFFFFFFFFFFFFFFFFFFFFFFFFFFC6
:108AC000FFFFFFFFFFFFFFFFFFFFFFFFFFFFFFFFB6
:108AD000FFFFFFDFFFFFFFFFFFFFFFDFF7BEFFFE30
:108AE000C655C6749D5142CAA551F6F1E64F9C7019
:108AF0007C1284537389F66DA382E669C5EE528AAF
:108B0000E7BDE7BCCED98C2F8C927C1084307BCF14
:108B10007BCF73AE7BEF7BCE4A492144296531A6DA
:108B200029863A0931A74A8B39E94A2B4A4C31EB5D
:108B3000428D324B63D18473636E8C71C5D2AD911B
:108B40006B6D84717C7073F1422C4A6E424B3A0912
:108B50002105294531A64AAB636E4A6A422931870D
:108B6000294518E310A418A318C218C310842104BF
:108B7000212520E3212318C2088352ED4ACD426CFF
:108B80004A8D4A8D3A2C84949D368CD5428D530F54
:108B9000428D4AAE6B6F316429034AAA4A87522438
:108BA000106118E429662104422810A3210418E466
:108BB00018E318E318E318E318A318C318C318C37D
:108BC00018C318E318C318C218A218C218A210A21A
:108BD00018C218C318C218E40841424952EC9D3526
:108BE0004A6B73D052AD422C31C9296821273A0A09
:108BF00073D173F184735B0E0884A557086394D412
:108C000018E4D6DAB5D573AD52C931A7420831A6FA
:108C100039E7210420E42104318639C7398731C777
:108C2000638E84716B6D52CA31E85B0D83F2420A28
:108C30005B0D73D18410EF5CF79DEF7DF7DEFFFFD6
:108C4000FFFFFFDFFFDFFFFFFFFFFFFFFFDFFFFF94
:108C5000FFFFFFDFFFFFFFDFFFFFFFFFFFDFFFDFA4
:108C6000FFFFFFFFFFFFFFFFFFFFFFFFFFFFFFFF14
:108C7000FFFFFFFFFFDFFFFFFFFFFFFFFFFFFFFF24
:108C8000FFFFFFFFFFFFFFFFFFFFFFFFFFFFFFFFF4
:108C9000FFFFFFFFFFFFFFFFFFFFFFFFFFFFFFFFE4
:108CA000FFFFFFFFFFFFFFFFFFFFFFFFFFFFFFDFF4
:108CB000FFDFFFDFFFFEFFFFFFFFFFDEEF5BD6B64C
:108CC000B5F2CE95A5757C75424B5B0C83F052CC0A
:108CD00095155B2F52EBBD0FCDD0B54C5A8839E8B6
:108CE0008CF29D75A5759D329D1394B17BEE7BCD65
:108CF00083ED83ED8C4F8C5020E310A218C3210428
:108D000021052987212652AD5AEE5ACE4A8E4A8E27
:108D1000428D4ACD6BD18C948451CE97F711EF32AE
:108D20008C9074106BCF636DB592CE31AD9652AB13
:108D30003186296631C7638E94F494D49D147C11D6
:108D400073AF7BEF7BD1630E52CB4A6A31C8296681
:108D50002125210410A218C3084252CD52EE3A4CEC
:108D6000530F426D4AAE73F284737C53428D428D31
:108D70004ACE428E4A4C41C620A252CB4A4649E3D3
:108D80002903298618E4212431A72945210418C381
:108D900018C310A218E318C318C318C318C318C304
:108DA00018E318E318E318C318A320E318C318A2A4
:108DB00018C318C318A3108318C3192473D0A57738
:108DC000424A8C93A57752EE94F56B901907214790
:108DD000296718E53A0A18E621074A8D424B52CC1A
:108DE00029667C0F842F94D16B6B4229420831C7CE
:108DF00031A6318620E42104296639E74A093A0878
:108E00008C922986426831E7424A83EFA491940DFF
:108E100052CA636FD6FAFFDEFFDEFFDFFFFFFFFF00
:108E2000FFFFFFFFFFFFFFFFFFFFFFFFFFFFFFFF52
:108E3000FFFFFFFFFFFFFFFFFFFFFFFFFFFFFFFF42
:108E4000FFFFFFFFFFFFFFFFFFFFFFFFFFFFFFFF32
:108E5000FFFFFFFFFFDFFFFFFFFFFFFFFFFFFFFF42
:108E6000FFFFFFFFFFFFFFFFFFFFFFFFFFFFFFFF12
:108E7000FFFFFFFFFFFFFFFFFFFFFFFFFFFFFFFF02
:108E8000FFFFFFDFFFFFFFFFFFFFFFFFFFDFFFDF52
:108E9000FFDFFFDFFFFFFFFFFFDFF7DEDF38BE1082
:108EA000C692CE76634C9CD283EE39EA84768CD41B
:108EB000AE183A2A3A0C316752AA420920E89D3589
:108EC00008822988424A636F634D5B0B6B4C6B4B86
:108ED0007BCD73AD6B6C6B4C18C318A218C310829A
:108EE0001082108339E994F573D1530E5B503A4CDC
:108EF0004ACE532F7C748CD56BAF9CF2E6D2B58FE3
:108F000073CF7C5494F69D13FFF5FFCFBDF773AE7E
:108F100031A639C752AB7C517C318C937C316B8F3D
:108F20007C117C5094D38C9494D49D148CB38CB3CA
:108F300073F073D06B6E6B8F632D4AAC4AAD637068
:108F4000424D426E4AAF3A2B426C426C424D426DEA
:108F5000424C428D4A6D41E720E33A0939E56AE621
:108F6000290321252104294529453186210418C3D7
:108F70002104210418C318A318C318C318C318C3A5
:108F800018C318C318E318A318A318C318A318C349
:108F900018A318A310A318A318C319047C31847351
:108FA000636F7C516BB05B0E8C934AAC21272148D8
:108FB0002127214718C52147108510A510A5086451
:108FC0001084084318C462EC4A4939E8298631A65E
:108FD00039E73186210420E4210439C739C75B0D04
:108FE0008C726B6D634C4ACC4A4A8BCCD58EEEB0FA
:108FF0009CEF422BDF5BF77EFFFFF7BEF7BFFFFF63
:10900000FFFFFFFFFFFFFFFFFFFFFFFFFFFFFFFF70
:10901000FFFFFFFFFFFFFFFFFFFFFFFFFFFFFFFF60
:10902000FFFFFFFFFFFFFFFFFFFFFFFFFFFFFFFF50
:10903000FFFFFFFFFFDFFFFFFFFFFFFFFFFFFFFF60
:10904000FFDFFFDFFFFFFFFFFFDFFFDFFFFFFFFFB0
:10905000FFFFFFFFFFFFFFFFFFFFFFFFFFFFFFFF20
:10906000FFFFFFDFFFFFFFFFFFFFFFFFFFFFFFDF50
:10907000FFDFF7DEFFFFFFFFFFDFF7BEEF98D6F160
:10908000D6F28C8F8CAEE70FEE2DDEB18CCD5B6E01
:109090007C9421474A6C4AC908A719496350741344
:1090A00008C618E59CF421684ACB632D5AEC5AECAB
:1090B00073AF420910830862106110A210821082FF
:1090C000108110A252CB94D28C91AE7A64113A8B5B
:1090D000324C428E741384B429A8638F7BF052ED16
:1090E00063B18CD47C538430CE71D6318C707BEFDD
:1090F00031A631A65B0C8CB37C5284527C11638DFB
:1091000073D084918491843384738CB284728CB2D2
:1091100084928CB373D094B484724A8B7C329D3722
:109120003A2C5310426D426D428C426C4AAF3A0C5D
:10913000424C42AC4A8D524820C2426C4A685A6442
:10914000314418E421243186212531A6210418C395
:10915000210418C318C310A218A318C318A318C356
:1091600018C318C318E318C318C318A218C310A251
:1091700010A310A318C318A310A219047C115B0E2E
:109180008CB47C1152CC7C536BAF32094A6B2147B3
:10919000212718C52147108518E6006318E510C47B
:1091A000086318C45AED420920E531862945212477
:1091B0002965214518C318C32105422931E88C933C
:1091C00039C918C331C763B073AFB4CCABA2EE4892
:1091D000AD4DB5FAF7FFF79EFFDEFFDEFFDEFFFFC6
:1091E000FFFFFFFFFFFFFFDFFFDFFFFFFFFFFFFFCF
:1091F000FFFFFFFFFFFFFFFFFFDFFFFFFFFFFFFF9F
:10920000FFFFFFFFFFFFFFFFFFFFFFDFFFDFFFDFCE
:10921000FFDFFFDFFFDFFFFFFFFFFFFFFFFFFFFFBE
:10922000FFFFFFFFFFDFFFDFFFFFFFFFFFFFFFDFAE
:10923000FFDFFFFFFFFFFFFFFFFFFFDFFFDFFFDFBE
:10924000FFDFFFFFFFFFFFFFFFFFFFFFFFDFFFFF6E
:10925000FFFFFFFFFFDFF7FFFFFEFFDDE7BBDFBB29
:10926000C6B573A9D6509BC28B00F6CF8C8DA5983E
:109270004A899C48F62DEE0AAC89294573F231E8FB
:1092800018E531AA84733A09632D630B52896B4C3C
:109290007BF073F0634D3A2831A72105086310C4B1
:1092A00018E41082190421252986424A39E9426BC3
:1092B0004AEE320B29E93A6B4AAE3A2D3A6C3A6CD7
:1092C0005B507C746BD1428C6B914A8E4B0F7C321D
:1092D000316441E77C307C917C727C5184727410E3
:1092E00073F08CD484B38CD395147C5184728472C3
:1092F00084727C32847384536B70847463913A6C8F
:10930000426F4AAF3A2D4A8E4A8D39EA4A8D422B36
:10931000426D424D4A2D4A2910C131885AAA520441
:10932000394418C3190439C718E43186420818A310
:1093300018C318A218C318C318E318C318E318C336
:1093400018E310A218C318E3210418E318C318A3E4
:1093500018A318A318C318E318E310A26B8E4ACB06
:109360009D149D354AAB94D37C321926AD9808A440
:109370008473634E3A0A424A31C94A8C10C529683F
:10938000214608426B6D318529432986294518C33A
:10939000294531A718C420E42104420852698CB140
:1093A00028E510C3322852AB7C4DEF11DE4DD63488
:1093B000526CF7DFF7FEF7DFFFDFFFFEFFDFFFFF97
:1093C000FFFFFFFFFFFFFFFFFFFFFFFFFFFFFFFFAD
:1093D000FFFFFFFFFFFFFFFFFFFFFFFFFFFFFFFF9D
:1093E000FFFFFFFFFFFFFFFFFFFFFFFFFFFFFFFF8D
:1093F000FFFFFFFFFFFFFFDFFFDFFFFFFFFFFFFFBD
:10940000FFFFFFFFFFDFFFFFFFFFFFFFFFFFFFFF8C
:10941000FFDFFFFFFFFFFFFFFFFFFFDFFFFFFFFF9C
:10942000FFDFFFFFFFFFFFFFFFFFFFFFFFFFFFFF6C
:10943000FFFFFFFFFFDFF7FFFFDEFFBDEFF9C69A7B
:1094400094CE73A7FF99DDEBDE0CFFB55AE8ADDAD9
:109450005AA9EE8DA360B4C4FFF4298394F3D6F91E
:109460007C0F4AAB5B4C6BCE52CB6B4C62EA7BEF12
:109470007C30847284727C1073CF845273D0634EBC
:109480005B0D52AB4249192521460042424A4AAC83
:109490003A2C42AE322B3A4B426D4AAE3A4C4AEF2E
:1094A0003A4C4AAD426B426B39EA424C4AED73F199
:1094B000318642298CB384B384947C317C3174101E
:1094C00073F08CB38CB384937C52847284728493D3
:1094D0007C527C518CB28CD27C3095159516428C86
:1094E000428E4ACF4AAE4A6C52AD31A9426B52CD40
:1094F0005B0E52CE5AAE5ACA296331485AA97BA78D
:1095000041A418C4296639E818E439C74A691082A9
:1095100018C318E318C318C3210420C3210420E38F
:1095200018C310A218E318A218E318C318C318C36D
:1095300018A320E318C318A218E3108231A752EB36
:109540008CB23A0894D3632C52AD52ED8CB48C9308
:109550008C945B0E21478C94192694D44AABCEDBB5
:1095600094D273AE4A49528939C639C7318621250A
:10957000294531862125210418C342288C525B4B92
:109580003164190339E88C52634E6B2D8BCD4A0838
:10959000AD36F7DEF7DEF7DEFFDEFFFEFFDFFFFFB3
:1095A000FFFFFFFFFFFFFFFFFFFFFFFFFFFFFFFFCB
:1095B000FFFFFFFFFFFFFFFFFFFFFFFFFFFFFFFFBB
:1095C000FFFFFFFFFFFFFFFFFFFFFFFFFFFFFFFFAB
:1095D000FFFFFFFFFFFFFFDFFFFFFFFFFFFFFFFFBB
:1095E000FFFFFFFFFFDFFFDFFFFFFFFFFFFFFFDFEB
:1095F000FFFFFFFFFFFFFFFFFFFFFFDFFFFFFFFF9B
:10960000FFFFFFDFFFDFFFDFFFFFFFFFFFFFFFFFCA
:10961000FFFFFFFFFFDFFFFEFFDFF7BEE7DB8CD3BF
:109620009D11738B83F0A4EEAD6E950F532B94F5C3
:109630003144F6D2E5EDF7339CCD10A1EF7DC6366F
:10964000C6367C4F6BCC95118C716B6D7BAD7BEF0F
:109650008C9274107C3173CF7C3173CF8CB3847255
:1096600084528C928CD38CB384727C0F5B2D31C965
:109670003A4C3A4D3A4C3A4C3A4C4AAE4AAE3A2CF5
:109680004A8D3A4C426B52CC4AAC6B906390632E3D
:1096900039A8630E8CF584938C9384317C107411FB
:1096A0007410849284B3741184727C3184728472D5
:1096B0008C937C30636D6BAD9D5495148CD5320BBF
:1096C000428D42AD426C52CD3A0952CD4A6B4A6B43
:1096D0004AAC4A8D4A8D422939C531885ACAEF971A
:1096E00041E418A3296539C7294539C752CB21253B
:1096F00010A30882106218A320E418A3290420C331
:1097000018C320C3210410A210A218C310A218C3AA
:1097100018A320E318C3108318C410A321047BEFFF
:109720007C102965A55452CA3A0A52AD4A8C39EACE
:109730006B700843632E632E634E42498450A554D8
:1097400094D2845052AA5AEB4A4931A7296631A7CC
:10975000294539C7210418E418A341E78C738430E4
:109760006B8D6B8F62EE83AF6B4C31C852AF4A2C5E
:10977000F7BFFFDEFFFFFFDEFFDEFFFEFFDFFFFFC5
:10978000FFFFFFFFFFFFFFFFFFFFFFFFFFFFFFFFE9
:10979000FFFFFFFFFFFFFFFFFFFFFFFFFFFFFFFFD9
:1097A000FFFFFFFFFFFFFFFFFFFFFFFFFFFFFFFFC9
:1097B000FFFFFFFFFFFFFFDFFFDFFFFFFFFFFFFFF9
:1097C000FFDFFFDFFFFFFFFFFFFFFFDFFFFFFFFF09
:1097D000FFFFFFFFFFFFFFFFFFFFFFDFFFFFFFFFB9
:1097E000FFFFFFDFFFDFFFDFFFFFFFFFFFFFFFFFE9
:1097F000FFFFFFFFFFFFFFDEFFDFF7DEBE7B9571A0
:10980000844FAD79951684947C936C3095756BCFAD
:1098100029655AEA94D183EE18C3634F73B1632C60
:109820009D1394D2740E740F6BAE73CE7BEF6B6D81
:10983000847184727C316BAE7C51741084937C3261
:109840007C527C5284938CD3849395135B0D426C31
:109850004AAE3A2C4AAD424C426D426D424C424DAA
:109860003A2C4AAD5B2E6BB0632E5B0D52ED5B0E56
:109870004A4B73F08CF48CD3847284117C10847204
:1098800084928CB28CD38CB38492847284718471F0
:109890007C3152EE4A8D5B2F94F5ADB8530F4A8F51
:1098A0003A4C428D426C424B52AD52CD426B52ED1E
:1098B0004A8C52EE52AE4A6D41E631845ACBA554E1
:1098C000422718C22965212429864A8A634D73CF0D
:1098D000634D52CB4A6A4A4939C72966292518A3DC
:1098E00018C318C318A318C310A318C318A32104BE
:1098F00020E421041082210418C318C421044A69F9
:1099000084304A698C7152CA39EA39EA39EA2988BD
:1099100018E62967210618E54A4B18C5296721452D
:10992000214431C65ACB39A739A73186294631A7F8
:1099300021042946318618E320E418A2316639E86B
:109940003A4AB5D962CACDB1DE0DBDCE5B0E94F7F1
:10995000F7DDFFFEFFBFFFDFFFDEFFDFFFDFFFDF23
:10996000FFDFFFFFFFFFFFFFFFFFFFFFFFFFFFFF27
:10997000FFFFFFFFFFFFFFFFFFDFFFDFFFDFFFDF77
:10998000FFFFFFFFFFFFFFFFFFFFFFFFFFFFFFFFE7
:10999000FFFFFFDFFFDFFFFFFFFFFFFFFFFFFFFF17
:1099A000FFDFFFDFFFFFFFFFFFDFFFFFFFFFFFFF27
:1099B000FFFFFFFFFFFFFFFFFFFFFFDFFFFFFFFFD7
:1099C000FFFFF7DEF7DEFFDFFFFFFFFFFFFFFFFF19
:1099D000FFFFFFFFFFFFFFDFFFBFF7DEB616AE4E54
