:020000040000FA
:10000000C0230020150200001D0200001F02000096
:100010002102000023020000250200000000000071
:1000200000000000000000000000000027020000A7
:1000300029020000000000002B0200002D02000039
:100040002F0200001D0300002F0200002F020000FD
:100050002F0200002F0200002F0200002F020000DC
:100060002F0200002F0200002F0200002F020000CC
:100070002F0200002F0200002F0200002F020000BC
:100080002F0200002F0200002F0200002F020000AC
:10009000790300002F0200002F0200002F02000051
:1000A0002F0200002F020000CD0600002F020000EA
:1000B0002F0200002F0200000000000000000000DE
:1000C0002F0200002F0200002F0200002F0200006C
:1000D0002F0200002F0200002F020000000000008D
:1000E0000000000000000000000000000000000010
:1000F0000000000000000000000000000000000000
:1001000000000000000000000000000000000000EF
:1001100000000000000000000000000000000000DF
:1001200000000000000000000000000000000000CF
:1001300000000000000000000000000000000000BF
:1001400000000000000000000000000000000000AF
:10015000000000000000000000000000000000009F
:10016000000000000000000000000000000000008F
:10017000000000000000000000000000000000007F
:10018000000000000000000000000000000000006F
:10019000000000000000000000000000000000005F
:1001A000000000000000000000000000000000004F
:1001B000000000000000000000000000000000003F
:1001C000000000000000000000000000000000002F
:1001D000000000000000000000000000000000001F
:1001E000000000000000000000000000000000000F
:1001F00000000000000000000000000000000000FF
:10020000DFF80CD000F03CF800480047AD080000D3
:10021000C02300200648804706480047FEE7FEE767
:10022000FEE7FEE7FEE7FEE7FEE7FEE7FEE7FEE7A6
:10023000D10300000102000040EA01039B0703D044
:1002400009E008C9121F08C0042AFAD203E011F815
:10025000013B00F8013B521EF9D27047D2B201E0D7
:1002600000F8012B491EFBD270470022F6E710B5BB
:1002700013460A4604461946FFF7F0FF204610BD14
:10028000064C074D06E0E06840F0010394E80700E3
:1002900098471034AC42F6D3FFF7B6FF24150000A0
:1002A0004415000000F01F02012191404009800028
:1002B00000F1E020C0F88012704700F01F02012119
:1002C00091404009800000F1E020C0F880117047A3
:1002D00000F01F02012191404009800000F1E02060
:1002E000C0F80011704700F01F0201219140400941
:1002F000800000F1E020C0F8001270474907090EA5
:10030000002806DA00F00F0000F1E02080F8141D4C
:10031000704700F1E02080F80014704770B5144C6D
:10032000D4F80001002628B1D4F80403C00701D096
:10033000C4F80061D4F80C010E4D40B1D4F80403A8
:10034000000704D5C4F80C61286900B18047D4F8CF
:10035000100100280BD0D4F80403C00607D5C4F858
:100360001061E868002802D0BDE87040004770BD09
:1003700000100040280000207CB5144C606A0190F9
:100380002078002821D00120FFF797FF656800261C
:1003900066600120FFF79CFFE169002915D0E8079E
:1003A00003D08DF8006068468847A80705D501206E
:1003B0008DF80000E16968468847680705D5022086
:1003C0008DF80000E169684688477CBD2800002060
:1003D000F0B5AE480023021D01780125101D4FF035
:1003E000805406290BD11678360708D10678C6F353
:1003F0000316032E06D0042E04D0052E02D00629A3
:1004000007D00EE0B4F82463A14FC6F304263E6083
:1004100002E01678360704D10678C6F30316032ED9
:1004200002D0062904D00FE09B4F9A4E7E670EE063
:100430001678360708D10678C6F30316032E06D0C1
:10044000042E04D0052E02D0062907D00EE0D4F8E1
:100450004462924FC6F342363E6002E01678360799
:1004600004D10678C6F30316032E02D0062906D05F
:1004700011E08B4E376827F0807737600EE01678F2
:10048000360708D10678C6F30316032E06D0042ECD
:1004900004D0052E02D006290AD011E04FF0804684
:1004A000C6F80C31C6F810317C4E361F336002E0BE
:1004B0001678360704D10678C6F30316032E02D049
:1004C000062905D00CE0754F032664373E600AE02C
:1004D0001678360704D10678C6F30316032E02D029
:1004E00006290DD014E06F4F05263E606D4E78361C
:1004F00035606C4E083633603F263F1D3E6002E09B
:100500001678360704D10678C6F30316052E02D0F6
:10051000062957D062E0644E3668644F3E60624EF2
:10052000361D36683F1D3E605F4E083636683F1DFB
:100530003E605D4E0C3636683F1D3E605A4E1036AA
:1005400036683F1D3E60584E143636683F1D3E608B
:10055000554E18363668554F20373E60524E1C3681
:1005600036683F1D3E60504E203636683F1D3E6067
:100570004D4E243636683F1D3E604B4E2836366859
:100580003F1D3E60484E2C3636683F1D3E60464E4D
:1005900030363668454F40373E60434E3436366815
:1005A0003F1D3E60404E383636683F1D3E603E4E31
:1005B0003C3636683F1D3E603B4E403636683F1D38
:1005C0003E6002E01678360708D10678C6F30316B7
:1005D000032E06D0042E04D0052E02D0062907D003
:1005E00019E0D4F85812324A01F04F01116002E0CC
:1005F000117809070FD10078C0F30310032803D046
:10060000042801D0052806D12A480168C90702D06C
:100610006FF00101016022487438016841F47001F3
:100620000160BFF34F8FBFF36F8F4FF01021D1F8F0
:100630000002002803DBD1F80402002822DA1E4A57
:1006400015601E480468002CFCD01524C1F8004237
:100650000568002DFCD0C1F8044201680029FCD0D7
:10066000136001680029FCD0BFF34F8F0C48F038AD
:100670000168134A01F4E06111430160BFF34F8F39
:1006800000BFFDE710490F480860F0BDE00F00F023
:10069000403501400DF0ADBA00C007403C050040B8
:1006A000FCED00E0105600400404001020C500409E
:1006B000E40E00400004004004E5014000E4014075
:1006C0000400FA050090D003700000200748D0F81D
:1006D0004011002909D00021C0F840110448407899
:1006E000032802D1034901200861704700A001409E
:1006F000280000200010004002E008C8121F08C1B6
:10070000002AFAD170477047002001E001C1121F92
:10071000002AFBD17047006890FAA0F000BA00BA36
:100720007047000009480068C00700D000BEBFF352
:100730004F8F0648E4380168054A01F4E06111432F
:100740000160BFF34F8F00BFFDE70000F0ED00E058
:100750000400FA050EB500210091CDE901106A46AA
:1007600044F20100FFF7DEFF0EBD000006480168FD
:1007700021F0010101600548016821F0010141F00B
:1007800080710160002070475016004074170040CF
:100790000249085C012100F0F4BB00001C150000B8
:1007A0007CB50024084E25460122305D00950023CB
:1007B0001146019500F0C8FB641C042CF4D3BDE87D
:1007C0007C4000F003B800001C15000010B50024A8
:1007D0002046FFF7DDFF641C042CF9D310BD006830
:1007E00090FAA0F000BA70474FF080400021C0F8A6
:1007F00000110121C0F80010D0F800110029FBD031
:100800007047000000B51BA08BB0006808901AA0CC
:100810001AA100680990D1E90001CDE9060118226A
:1008200018496846FFF708FD01208DF800008DF893
:1008300008001548019000208DF801004FF4167152
:100840008DF81400ADF80C10684600F021F900286E
:100850000DD108A800F056FA002808D109A800F028
:100860007FFA002803D1082106A800F0BFFA0BB0D8
:1008700000BD0000E7E7E7E7C2C2C2C2E7C2C3C4E7
:10088000C5C6C7C8041500001D0A000030B4082002
:100890000F214FF0A043032203EB8004C4F800278C
:1008A000401C8842F8D930BCFFF77ABFFFF7EEFF53
:1008B000FFF79AFFFFF7A6FF08B1FFF74BFFFFF71F
:1008C0006FFF214C00254CF25036E5701E4800F0B9
:1008D000E5FAA0BBA079410703D000F00700042887
:1008E00001D9012100E00021112000F03FFBA07997
:1008F00000F00700012801D9052801D9012100E0F5
:100900000021122000F032FBA07900F0070002283D
:1009100001D9062801D9012100E00021132000F0AF
:1009200025FBA07900F00700032801D8012100E091
:100930000021142000F01AFBA079401CA071304661
:1009400000F004F8C1E700000000002000283ED0BD
:100950001F49204A096800BF00BF00BF00BF00BF99
:1009600000BF00BF00BF91422FD000BF00BF00BF3B
:1009700000BF00BF00BF00BF00BF00BF00BF00BF7F
:1009800000BF00BF00BF00BF00BF00BF00BF00BF6F
:1009900000BF00BF00BF00BF00BF00BF00BF00BF5F
:1009A00000BF00BF00BF00BF00BF00BF00BF00BF4F
:1009B00000BF00BF00BF00BF00BF00BF00BF00BF3F
:1009C00000BF00BF00BF00BF00BF0138C3D17047E8
:1009D000700000200024F40070B50C494FF47050F2
:1009E00008600B4C0025657000F0CEFB2021094803
:1009F000FFF73BFCE56214202563FFF75EFC064928
:100A00000320C1F80002002070BD000008F501407D
:100A100028000020A00300200010004010B504466C
:100A2000007870B1012802D002280AD104E000F059
:100A300017F800F01FFA04E0074800F01FF900283B
:100A4000FAD006494FF47040086020790007000C86
:100A5000091F086010BD0000740000200C05005044
:100A6000094810B5007860B10120FFF726FC07485F
:100A700000218162016241620120FFF729FC002010
:100A800010BD082010BD000028000020DC0100205F
:100A90002DE9F04105007DD0694C207818B1FFF7B1
:100AA0009BFF002877D16868E061182229466548D5
:100AB000FFF7C2FB0025656020216348FFF7D5FBE7
:100AC000E562256300F0A4FC00287DD05F494FF06B
:100AD000E7300860091D4FF043300860091D5C488D
:100AE0000860091D5B48086000F04EFB5549002076
:100AF000183101F5947200BF00EB800303EB401343
:100B00000B4442F82030401C0828F5DB52490020F5
:100B100001F5947200EB800303EB40130B4442F8A1
:100B20002030401C0828F5DB4C48042606604B4862
:100B3000083805604A4840F20221C0F800124A4ACB
:100B400048491160111D0860DFF81881091D08F17E
:100B50000408C1F80080001D091D0860091D4348F4
:100B600008604048F038091D08604048001D091D14
:100B70000860091D3E480860324F787C00F007018C
:100B80000120FFF7BBFBB87C00F007011420FFF742
:100B9000B5FB01E04FE04CE01420FFF799FBA07893
:100BA0000127E8B3A068294940F04000A060022076
:100BB000443108602F49032008602E480830066041
:100BC0002C490520383100E037E008602A4E40F219
:100BD0000110C6F800022748001F05603804C6F857
:100BE0000403F76005211A20FFF788FB1A20FFF79E
:100BF0006FFB1D490839C1F80080081D06601948BF
:100C00001949283010390860174A311D0C3A116013
:100C100015491839086018480C30091D086000E0B3
:100C200004E011494FF460705C390860657027700A
:100C30000020BDE8F0810E20FBE70720F9E7000067
:100C4000280000209C000020A00300201C1500406C
:100C5000E743C323A363E3130802002010A5004069
:100C600000A000400011004060F5014040A100409C
:100C70000010004008A5014000A0014070B50546E5
:100C80001E48007880B385B31D4CA06A70B3012064
:100C9000FFF713FB606A54F820100A782A7054F8A2
:100CA00020104978697054F820108978A97054F898
:100CB00020100979297154F82010C978E97054F886
:100CC0002010681D491DFFF7B7FA606A401C60627A
:100CD000082801D300206062A06A401EA0620120A3
:100CE000FFF7F6FA002070BD01E002E003E0082003
:100CF000F9E70E20F7E70520F5E7000028000020BF
:100D00003003002070B5134E0446707808B11120EE
:100D100070BDCCB10F483430407C052816D04FF060
:100D20007F452046FFF7F7FC284204D10A480068B7
:100D300010F0FF0F0CD020687063012000F024FB3E
:100D4000BDE87040FFF712BD0E2070BD034DE8E70F
:100D5000072070BD28000020241500400000FFFF80
:100D600070B51F4D0446687808B1112070BD84B37A
:100D70001B483430407C05282DD04FF07F4620465C
:100D8000FFF7C9FC30421BD11649086810F47F4FA9
:100D900023D0086810F47F0F1FD00868000E1CD005
:100DA000091D0868000E18D0086810F47F0F14D0D1
:100DB000086810F47F4F10D0086810F0FF0F0CD0B7
:100DC0002068A863022000F0DFFABDE87040FFF75A
:100DD000CDBC0E2070BD044ED1E7072070BD0000D1
:100DE00028000020241500400000FFFF70B50C46CD
:100DF0001D49497809B1112070BDB0B1092C31D21B
:100E0000194D3435697C052911D04FF07F412CB143
:100E1000164A12680A4201D102781AB3134A121D07
:100E200012680A420BD1012107E00E2070BD104963
:100E3000EDE7425CB2B1491CC9B2A142F9D3014607
:100E4000094822463C30FFF7F7F9C4F10801FF20BA
:100E50002C74C840A874042000F096FABDE87040D5
:100E6000FFF784BC072070BD280000201C1500403F
:100E70000000FFFF074810B5407808B1112010BDF1
:100E80000548806A18B100F0D9F9002010BD4FF470
:100E9000807010BD28000020DC0100202DE9F04109
:100EA000264F0546387840B155B1287868B12028DA
:100EB0000BD8234E317829B109E00820BDE8F08134
:100EC0000E20FBE7F17C884201D90920F6E71D4C92
:100ED000A06A082801D30420F0E76878082801D325
:100EE0000720EBE70120FFF7E8F9206A25222946D1
:100EF00054F82000FFF7A0F910486A782C30815C84
:100F0000491C01F003018154206A54F82020401C40
:100F100008281171206201D300202062A06A401CC1
:100F2000A0620120FFF7D4F9707828B9307C18B995
:100F3000787808B900F082F90020BFE72800002087
:100F40009C000020DC01002070B541EA4201DDE98F
:100F500004564FF0A04441EA830141EA052104EB25
:100F6000800041EA0641C0F8001770BD01224FF031
:100F7000A043824011B1C3F808257047C3F80C257F
:100F8000704701224FF0A043824011B1C3F80825F9
:100F90007047C3F80C25704770B5164C164AA06808
:100FA000C2F80002A06A15490860154B091D98890E
:100FB000823808601348012140F80C1F0021C0F856
:100FC0003411C0F83811104D4FF4E050286050141F
:100FD0002D1D2860C2F80C11187810B96169002025
:100FE00088470B49094808600A48E06003206070A0
:100FF00070BD0000280000200010004040A5004007
:101000009C00002000A0004004F501407E03002069
:10101000041500405510000010B50C4C606840F0FD
:101020000100606000F096F90948806A30B1142030
:10103000FFF759F9BDE8104000F000B900206070DA
:10104000BDE810401420FFF74EB900002800002032
:10105000DC0100202DE9F047414A4FF4E0501060D8
:101060004049D1F80C31DFF8009100273F4CB9F826
:101070000E004E14DFF8F8800125E3B33D4B1B68EA
:10108000CBB365601660D8F8041041F00101C8F8D0
:101090000410D8F82010401A401CC8F8240000F0B2
:1010A00059F999F8000088B109F2E220017869B194
:1010B0004078410830480068C0B200F073F828B1A9
:1010C000D8F8040040F00400C8F804002B48806AF7
:1010D00050B199F81000012806D01420FFF703F949
:1010E000BDE8F04700F0AAB888F80170BDE8F04705
:1010F0001420FFF7F8B8D8F820C0BCF1010CC8F8EC
:1011000020C00BD265601660401CC8F82400D8F8D7
:10111000040040F00200C8F80400E5E7D8F8080031
:101120000F4640F00802C1F80022D8F81800D8F89D
:101130001410007888471048114928380160114878
:10114000C8F80C00022088F8010025600448001F40
:101150000660D4F84401002800D03D60BDE8F08767
:1011600008F50140001000409C00002000A0004055
:1011700028000020001400402C150040DC01002055
:101180005C030020990F00000549002008624862B6
:10119000886201F5AA71086248628862704700009F
:1011A000DC0100202DE9F041224C07468846A06A68
:1011B00008283DD2A4F5257120460A780026006A49
:1011C00001F2E225012A03D04A7842B1C97C02E04B
:1011D000297820292CD854F82020117002E054F8E6
:1011E00020100E7054F82000A91C10F8052BFFF7F2
:1011F00023F8206A54F820104F700F49096854F8FA
:101200002020917054F8202082F80480697854F8E6
:10121000202041F30001491C401CD17020620828A5
:1012200000D32662A06A401CA0620120BDE8F081C4
:101230000020FBE730030020481500402DE9F05F57
:101240003E4C4FF00108C4F824803D48DFF8F4A07C
:10125000A0F5A077416A3C4D4FF0000B50F82110EB
:10126000A161387807F5307610B1012844D10DE03E
:10127000087861698847A1690879307086F801B0FB
:1012800011F8052BB01CFEF7D7FF18E0C87828B37B
:10129000387D18B300208146087830700879400600
:1012A000000E7070CA78DAB100221043707011F825
:1012B000052BB01CFEF7C0FFB9F1000F12D0A068DB
:1012C00040F00800C5F800021120C5F80403F889B1
:1012D00020620220C4F80CA060700DE00120DAE763
:1012E0000122E2E7A068C5F800021020C5F8040357
:1012F0001648E06084F80180A069154A41781160C1
:101300004078444608FA00F0111D08600B48104967
:1013100034302439C07C0860081F06600120FEF7C5
:10132000C1FF0120FEF7D4FFC5F804B1C5F808B12C
:10133000C5F810B12C60BDE8F09F00002800002027
:10134000DC010020990F000000100040191000007F
:101350002C15004010B50B4CA06A002811D00120BC
:10136000FEF7ABFFA06A401EA062606A401C60628C
:10137000082801D300206062BDE810400120FEF77C
:10138000A7BF10BDDC01002010B50446C00704D083
:101390000F48FFF7C0F90F490860A00706D50C48B1
:1013A000001DFFF7B8F90B49091D086060070DD54E
:1013B00007480830FFF713FA064908310860044867
:1013C0000C30FFF70CFA03490C31086010BD000027
:1013D0005C0000201C1500400A48017A0A480160A0
:1013E0000A4849B1012905D0032909D0042901D0AF
:1013F00000207047302100E04021816201207047C9
:101400004921FAE79C000020101500402800002028
:1014100070B500F041F8FFF7DFFF194C1949227849
:101420007AB1012A0BD000220240607AB8B1164B83
:101430001D1F01280ED0022807D0002513E0134AF3
:1014400000E0134A4A610122EEE74FF6FF761E6084
:10145000104B03E0FF261E6040F207132B600A4B7F
:10146000083B1860012549691540E07C8847A08940
:10147000872801D3012000E00020284070BD000033
:101480009C000020280000203C150040D9140000DA
:10149000AD1400002110010002480349807A086061
:1014A000704700009C0000200C150040084A0749C6
:1014B00011600849497C491E090441EA00210143A1
:1014C00041F08070111D08607047000000010100AC
:1014D000141500405C0000200749064808600748D2
:1014E0000749407C401E41EA00400349091D08604D
:1014F0007047000006000300141500405C00002047
:1015000020000001010000000000000001020000B6
:10151000FA00030000010220000000001112131461
:101520000D0E0F1044150000000000207400000094
:10153000F8060000B8150000740000204C230000DD
:101540000807000008000000000100000011000072
:10155000000000000000000000000000000000008B
:10156000000000000000000000000000000001007A
:101570000000000013010000000000000000000057
:10158000000000000000000000000000000000005B
:10159000000000000000000000000000000000004B
:1015A000E7E7E7E7C2C2C2C2E7C2C3C4C5C6C7C84D
:0815B0000805FF020090D003C2
:0400000500000201F4
:00000001FF
