:020000040002F8
:10300000E85A0020B1340200B9340200BB34020097
:10301000BD340200BF340200C134020000000000D1
:10302000000000000000000000000000C3340200A7
:10303000C534020000000000C7340200C934020099
:1030400015390200CB340200213D0200CB340200CE
:10305000CB340200CB3402003D370200CB340200F7
:10306000CB340200CB340200CB340200CB3402005C
:10307000CB340200CB340200CB340200CB3402004C
:10308000CB3402006D390200CB340200CB34020095
:10309000F1390200CB340200F5390200CB340200D2
:1030A000CB340200CB340200CB340200CB3402001C
:1030B000CB340200CB34020000000000000000000E
:1030C000CB340200CB340200CB340200CB340200FC
:1030D000CB340200CB340200CB34020000000000ED
:1030E00000000000000000000000000000000000E0
:1030F00000000000000000000000000000000000D0
:1031000000000000000000000000000000000000BF
:1031100000000000000000000000000000000000AF
:10312000000000000000000000000000000000009F
:10313000000000000000000000000000000000008F
:10314000000000000000000000000000000000007F
:10315000000000000000000000000000000000006F
:10316000000000000000000000000000000000005F
:10317000000000000000000000000000000000004F
:10318000000000000000000000000000000000003F
:10319000000000000000000000000000000000002F
:1031A000000000000000000000000000000000001F
:1031B000000000000000000000000000000000000F
:1031C00000000000000000000000000000000000FF
:1031D00000000000000000000000000000000000EF
:1031E00000000000000000000000000000000000DF
:1031F00000000000000000000000000000000000CF
:10320000DFF80CD000F0F0F9004800471168020028
:10321000E85A002030B450E8012F93B2C489234407
:103220008489A34228BF1B1B0489A34202BFBFF3AA
:103230002F8F002007E0C3EA020340E80134002C8E
:10324000E9D14FF001000A6030BC704750E8012F0F
:10325000C2EA024240E801210029F7D1704730B4A8
:1032600050E8022F1FFAA2F3C488A34202BFBFF3A3
:103270002F8F00200DE0C48923448489A34228BFF6
:103280001B1BC2EA034340E80234002CE8D14FF094
:1032900001000A6030BC704750E8022FC2EA2242A7
:1032A00040E802210029F7D17047034653E8022F76
:1032B000D988B2EB324F4FF0000017BF92B241EA0B
:1032C000014142EA014104E05A68B2EB324F08BFC3
:1032D000012043E80212002AE8D1704730B40446C6
:1032E00054E8000F0D4644E80053002BF8D1156058
:1032F00030BC704730B4044654E8000F40EA010582
:1033000044E80053002BF7D1156030BC704730B44F
:10331000044654E8000F00EA010544E80053002B7E
:10332000F7D1156030BC704730B4044654E8000F44
:1033300080EA010544E80053002BF7D1156030BC4A
:10334000704730B4044654E8000F00EB010544E830
:103350000053002BF7D1156030BC704730B40446E1
:1033600054E8000FA0EB010544E80053002BF7D10F
:10337000156030BC7047000030B4044654E8000FBC
:103380000D4644E80053002BF8D1156030BC70475F
:1033900030B4044654E8000F40EA010544E8005305
:1033A000002BF7D1156030BC704730B4044654E8A8
:1033B000000F00EA010544E80053002BF7D1156027
:1033C00030BC704730B4044654E8000F80EA010571
:1033D00044E80053002BF7D1156030BC704730B47F
:1033E000044654E8000F00EB010544E80053002BAD
:1033F000F7D1156030BC704730B4044654E8000F74
:10340000A0EB010544E80053002BF7D1156030BC58
:103410007047000030B4044654E8000F0D4644E8FD
:103420000053002BF8D1156030BC704730B404460F
:1034300054E8000F40EA010544E80053002BF7D19F
:10344000156030BC704730B4044654E8000F00EA01
:10345000010544E80053002BF7D1156030BC7047DC
:1034600030B4044654E8000F80EA010544E80053F4
:10347000002BF7D1156030BC704730B4044654E8D7
:10348000000F00EB010544E80053002BF7D1156055
:1034900030BC704730B4044654E8000FA0EB01057F
:1034A00044E80053002BF7D1156030BC7047000092
:1034B0000648804706480047FEE7FEE7FEE7FEE7CE
:1034C000FEE7FEE7FEE7FEE7FEE7FEE7053A02005D
:1034D000013202002DE9F05F0546002092469B462E
:1034E00088460646814640241BE02846414647461A
:1034F000224600F068F853465A46C01A914110D34C
:1035000011461846224600F04FF82D1A67EB0108C5
:103510004F4622460120002100F046F817EB000933
:103520004E41201EA4F10104DFDC484631462A4604
:103530004346BDE8F09F000000487047049D02002C
:1035400040EA01039B0703D009E008C9121F08C025
:10355000042AFAD203E011F8013B00F8013B521EA5
:10356000F9D27047D2B201E000F8012B491EFBD21C
:1035700070470022F6E710B513460A46044619467E
:10358000FFF7F0FF204610BD421C10F8011B002978
:10359000FBD1801A7047034611F8012B00F8012B6C
:1035A000002AF9D118467047202A04DB203A00FA95
:1035B00002F1002070479140C2F1200320FA03F38A
:1035C000194390407047202A04DB203A21FA02F088
:1035D0000021704721FA02F3D040C2F1200291404D
:1035E0000843194670470000064C074D06E0E068A6
:1035F00040F0010394E8070098471034AC42F6D33A
:10360000FFF702FED4A30200F4A3020070B58C18E9
:1036100010F8015B15F0070301D110F8013B2A11E6
:1036200006D110F8012B03E010F8016B01F8016BD3
:103630005B1EF9D12B0705D40023521E0DD401F8CF
:10364000013BFAE710F8013BCB1A921C03E013F898
:10365000015B01F8015B521EF9D5A142D8D30020CD
:1036600070BD000070B515460E46322824D00ADC25
:1036700023282EDA20282CD022282AD1BDE8704019
:10368000012002F091BE35280ED0372810D03928FD
:103690001FD040281DD1E9B2304602F051FD0DA0E7
:1036A00000F0F2FB002412E0BDE8704002F066BCBE
:1036B000BDE8704002F08ABEBDE8704002F022B959
:1036C000325D214604A000F0DFFB641CE4B2AC4292
:1036D000F6D370BD6F6B00000D0A646174615B25E9
:1036E000645D3A30782530327800000070B5124AB7
:1036F000002454701AE000BF10F8013B9370D4709E
:103700005378957883EA0506F60705D083F0180309
:103710005B0843F0800300E05B0853706B08937014
:10372000D3785B1CDBB2D370082BE9D3491EC9B236
:10373000E2D2507870BD00008C2700202DE9F047C0
:1037400000268CB0DFF86091B0464FF480750124FC
:1037500037460696284604F0F3F838B1D9F8040342
:10376000204203D0284604F0E1F826432D1D6400D2
:103770007F1CADB2082FEDD34FF4BE74204604F089
:10378000DFF848B1204604F0D1F846F0004606AA1A
:103790000121002004F0B6F8444D16F0FF0F15D0BB
:1037A0000127002437420DD009EB8401D1F8100520
:1037B000D1F81015C0F3042055F82420C1F30141BD
:1037C00002B190477F00641C082CEBD3002E67DA0F
:1037D0004FF0FF30CDE9088000263446281910F854
:1037E000507F90F9000027F0C008401C44D009A980
:1037F000404603F022FA58B34FEA9719404602F0C8
:10380000B5FB55F820701FB1B9F1030F03D00FE0DD
:10381000B9F1030F30D108A84FEAD80208F0070326
:10382000815C4FF0010C0CFA03FC41EA0C0181545D
:103830004FF0A04101EB8800D0F8000706A9C0F3C3
:10384000014A404603F0F9F918B1BAF1020F03D06A
:1038500012E0BAF1030F0FD1B9F1030F08D1BAF199
:10386000020F1BD00221404604F030F8761CF6B25D
:1038700017B149464046B847641C042CAED3002E0D
:103880000ED06A460121002004F03CF80699009809
:10389000884205D00690089809909DE70321E2E749
:1038A0000CB0BDE8F0870000006000405030002000
:1038B00000F01F02012191404009800000F1E0204A
:1038C000C0F88012704700F01F02012191404009AA
:1038D000800000F1E020C0F80011704700F01F02E6
:1038E000012191404009800000F1E020C0F8001261
:1038F00070474907090E002806DA00F00F0000F1B2
:10390000E02080F8141D704700F1E02080F80014DA
:10391000704700002DE9F0414FF48077384603F0FE
:1039200055FA0124104EA50748B1384603F055FA60
:103930000120C5F808037470002002F021FB4FF449
:103940008277384603F042FA00280BD0384603F05D
:1039500044FA0220C5F80803B470BDE8F041012024
:1039600002F00EBBBDE8F0813C300020074800218A
:10397000C0F84011C0F84411C0F84811C0F84C110B
:10398000C0F80011C0F8041105F0B4BC00100140EB
:1039900000F0ECB970B50E46144900EB400001EBA5
:1039A000C0051446E86A183520B101280FD0022856
:1039B00005D113E0284600F00DFAA04201D2002400
:1039C00011E022463146284600F03CFA0BE028463A
:1039D00000F000FAA042F4D20446F2E7314628464D
:1039E00000F003FA0446204670BD00001C38002099
:1039F00005F0CEBB04F0DCBC014908607047000054
:103A000088270020F0B5B5480023021D0178101D5D
:103A100001254FF0805406290BD11678360708D1BE
:103A20000678C6F30316032E06D0042E04D0052E06
:103A300002D0062907D00EE0B4F82463A84FC6F3DD
:103A400004263E6002E01678360704D10678C6F3F5
:103A50000316032E02D0062904D00FE0A24FA14E78
:103A60007E670EE01678360708D10678C6F303168F
:103A7000032E06D0042E04D0052E02D0062907D02E
:103A80000EE0D4F84462994FC6F342363E6002E03D
:103A90001678360704D10678C6F30316032E02D033
:103AA000062906D011E0924E376827F080773760FC
:103AB0000EE01678360708D10678C6F30316032EF3
:103AC00006D0042E04D0052E02D006290AD011E01B
:103AD0004FF08046C6F80C31C6F81031834E361FC1
:103AE000336002E01678360704D10678C6F3031671
:103AF000032E02D0062905D00CE07C4F0326643744
:103B00003E600AE01678360704D10678C6F303163D
:103B1000032E02D006290DD014E0764F05263E6014
:103B2000744E78363560734E083633603F263F1D3D
:103B30003E6002E01678360704D10678C6F3031615
:103B4000052E02D0062957D062E06B4E36686B4FC7
:103B50003E60694E361D36683F1D3E60664E083633
:103B600036683F1D3E60644E0C3636683F1D3E6031
:103B7000614E103636683F1D3E605F4E1436366823
:103B80003F1D3E605C4E183636685C4F20373E6005
:103B9000594E1C3636683F1D3E60574E20363668FB
:103BA0003F1D3E60544E243636683F1D3E60524EE7
:103BB000283636683F1D3E604F4E2C3636683F1D16
:103BC0003E604D4E303636684C4F40373E604A4E70
:103BD000343636683F1D3E60474E383636683F1DE6
:103BE0003E60454E3C3636683F1D3E60424E403694
:103BF00036683F1D3E6002E01678360708D1067829
:103C0000C6F30316032E06D0042E04D0052E02D0D0
:103C1000062907D019E0D4F85812394A01F04F01AB
:103C2000116002E0117809070FD10078C0F303108A
:103C3000032803D0042801D0052806D131480168A3
:103C4000C90702D06FF001010160D4F830010628E5
:103C500008D1D4F83401062804D12B48016841F476
:103C60008061016022487438016841F4700101608C
:103C7000BFF34F8FBFF36F8F4FF01021D1F80002C9
:103C8000002803DBD1F80402002822DA1F4A15605D
:103C90001F480468002CFCD01524C1F800420568B8
:103CA000002DFCD0C1F8044201680029FCD013604B
:103CB00001680029FCD0BFF34F8F0D48F038016830
:103CC000144A01F4E06111430160BFF34F8F00BF5C
:103CD000FDE7124910480860F0BD0000E00F00F059
:103CE000403501400DF0ADBA00C007403C05004032
:103CF000FCED00E0105600400404001020C5004018
:103D0000E40E0040000400403C17004004E5014080
:103D100000E401400400FA050090D0036828002068
:103D20000448017F04480029024901D005F0CFBCB6
:103D300005F03EBCA83000200020004070B50748C8
:103D400002F033FB054D002405A0295D00F09CF82E
:103D5000641CE4B2062CF7D370BD00009627002047
:103D6000307825303278203A2000000010B5124C0F
:103D700002202061606111A0A06104F17800E0617F
:103D80004FF4007020620020A06260620BA1A16469
:103D9000E06204F51E71E1641021A065C4E914100D
:103DA000E06509A1E01DFFF7F6FB08A12046FFF73B
:103DB000F2FB2020A07110BD1C3800205465726DEC
:103DC000696E616C0000000052545400534547472F
:103DD000455200000269C1688A4203D88068401ACF
:103DE000104400E0501A401E70472DE9F047C468A7
:103DF0001746894606464FF000083069A04201D9AF
:103E0000051B02E0B168201A0D1AB0686D1E001B78
:103E1000A84200D80546BD4200D33D4670682A46F8
:103E200020444946FFF78CFBB0687F1B2C44A84414
:103E3000A944A04200D10024F460002FDDD1404607
:103E4000BDE8F0872DE9F04104468846D4E9020731
:103E5000C51BE168606816460844B54206D941466C
:103E6000FFF76EFBB819E060BDE8F0812A464146D5
:103E7000FFF766FB761B08EB050132466068FFF72B
:103E80005FFBE660F0E700000FB4054B10B503A937
:103E9000044A029800F036F810BC5DF814FB0000EC
:103EA000916202000428002002E008C8121F08C125
:103EB000002AFAD170477047002001E001C1121FAB
:103EC000002AFBD1704700000121202803DA81403D
:103ED0000548014003E0402802DA2038814009B15A
:103EE0000120704700207047FC06FFBD082806D25D
:103EF00028B1012803D0042801D0012070470020F8
:103F0000704700002DE9FF4F8DB00F460546002693
:103F100006E025280BD0DDE90F1290476D1C761CBA
:103F200028780028F5D111B03046BDE8F08F002484
:103F3000A246A1460122EC4900E0044315F8013FE6
:103F4000203B02FA03F00842F7D128782A2810D043
:103F50006FF02F022878A0F13001092914D80AEB5C
:103F60008A0102EB410144F0020400EB010A6D1CDE
:103F7000F0E701CF5FEA000A03D544F40054CAF128
:103F8000000A44F002046D1C28782E2817D115F879
:103F9000010F44F004042A280ED06FF02F02287875
:103FA000A0F1300109290AD809EB890102EB41018E
:103FB00000EB01096D1CF2E757F8049B6D1C287893
:103FC0006C280FD006DC4C2817D068280DD06A2842
:103FD00014D104E0742810D07A280FD10DE044F4F5
:103FE00000140AE044F4801401E044F440146978B9
:103FF000814202D104F580146D1C6D1C2A786E2A52
:104000001FD00CDC632A31D004DC002A8BD0582A64
:1040100011D1A3E0642A68D0692A0CD165E0732A23
:104020002ED004DC6F2A73D0702A04D19BE0752A4D
:104030006FD0782A6ED01046DDE90F129047761CBB
:1040400050E1C4F30250022806D0032809D0042806
:1040500001CF09D0066045E101CFF117C0E9006149
:1040600040E101CF06803DE106703BE117F8040B0B
:104070008DF8000000208DF80100EB46012003E0E0
:1040800057F804BB4FF0FF3061074FF0000102D436
:104090000DE008F10101884649450FDA8045F8DB5B
:1040A0001BF808100029F4D108E008F10101884646
:1040B0008142FADB1BF808100029F6D1DDE90F2355
:1040C000AAEB08008146214600F036F9304400EBA7
:1040D000080604E0DDE90F121BF8010B9047B8F168
:1040E0000108F7D221464846F7E00A21C4F30253FB
:1040F0004FF0000B0891022B04D001CFC117032B06
:1041000009D00AE0FF1D27F00707F7E8020108E0E1
:1041100032E01FE020E000B2C117042B01D140B211
:10412000C117031E71F1000307DA4FF0000CD0EB4A
:104130000C006CEB01012D2302E0230504D52B2399
:104140008DF82430012303E0E30701D02023F7E7B3
:10415000984658E00A2110E010210EE010204FF0A0
:10416000000B08900CE010214FF0000B44F0040409
:104170004FF00809089103E008214FF0000B089167
:10418000C4F30253022B04D001CF0021032B06D02D
:1041900006E0FF1D27F00707F7E8020103E080B201
:1041A000042B00D1C0B24FF0000823072BD5702A92
:1041B00007D0DDF820C08CF0100C5CEA0B0C05D0A9
:1041C0000EE040238DF82430012308E050EA01037B
:1041D00006D030238DF824308DF825200223984610
:1041E000DDF820C08CF0080C5CEA0B0C0BD150EA17
:1041F000010301D1630706D530238DF824304FF039
:104200000108A9F10109582A04D038A20B9208AA82
:104210000A920BE03AA2F9E75B46089AFFF75AF9CF
:104220000B9B9B5C0A9A521E0A92137050EA010281
:10423000F2D10A98ADEB000000F1200B600702D527
:1042400024F4803401E04FF00109D94502DDA9EBE7
:104250000B0000E0002000EB0B0141440890AAEBAA
:10426000010AE00306D4DDE90F232146504600F0A1
:1042700063F806444FF0000908E009A911F80900A5
:10428000DDE90F12904709F10109761CC145F4DB05
:10429000E0030CD5DDE90F232146504600F04CF831
:1042A000064404E0DDE90F1230209047761C08999F
:1042B000481E08900029F5DC08E00A980A99007861
:1042C000491C0A91DDE90F129047761CBBF10001F1
:1042D000ABF1010BF1DC21465046DDE90F2300F084
:1042E00019F806446D1C1BE60928010030313233F1
:1042F0003435363738396162636465660000000022
:10430000303132333435363738394142434445460B
:10431000000000002DE9F041044600251E46174626
:10432000880404D405E039462020B0476D1C641E83
:10433000F9D52846BDE8F0812DE9F0410446002575
:104340001E469046C80301D5302700E02027880488
:1043500004D505E041463846B0476D1C641EF9D5CA
:104360002846BDE8F08110B501220221002001F0AD
:104370001FFC08B1072810D107220221012001F0FB
:1043800017FC08B1072808D100210A22084601F0CD
:104390000FFC08B1072800D1002010BD00B5A9B05E
:1043A000A0216846FFF7E5F802208DF80000002004
:1043B0008DF8020006218DF803100121ADF84C1094
:1043C0000C4A8DF87C1014924021CDE922100A4845
:1043D00026906946094800F03DFC20B1084A4FF498
:1043E0003B7100F0FDF80121044800F030FC29B0D9
:1043F00000BD00007827002095860200282C0020B0
:1044000080910200022001F0B9BA000070B50024CA
:10441000064D06E06868012110F8340002F086FDC0
:10442000641C28788442F5D3002070BDBC2700208E
:10443000F8B515460C460646052A01D20720F8BDF8
:1044400002F05AFE18B902F029FE0028F7D11049EF
:1044500000204E600C70C1E902500E4D08610DE065
:1044600006EBC4006968009181788DF8011000782E
:10447000094A694602F0ACFD0028E0D1641EE4B2AE
:10448000EED2BDE8F840054A0021024800F00EB91E
:10449000BC270020709A0200316402007D61020096
:1044A0002DE9FC4114468846074603F0CBFC00BFCB
:1044B00003F016FB0028FBD10125234E012F27D046
:1044C0006FF48050381828D0B0F5405F2CD06FF4CE
:1044D0004051C84208D13088238805EB00401BA119
:1044E000626803F000FC06E03088424605EB0040BD
:1044F0001DA103F0F1FB22480068C00700D000BEF8
:10450000224602B041463846BDE8F04100F074B89A
:1045100030881CA105EB004003E0308821A105EBA9
:10452000004003F0D5FBE6E7A06803F0EBFF03468D
:1045300021886068CDE90001308823A105EB0040A7
:10454000A26803F0D8FBD6E7B428002041535345B6
:104550005254494F4E204641494C454420617420F5
:1045600025733A2575000000554E4B4E4F574E208F
:104570004641554C5420617420307825303858001D
:10458000F0ED00E0534F46544445564943453A2028
:10459000415353455254494F4E204641494C45449E
:1045A00000000000534F46544445564943453A20C5
:1045B000494E56414C4944204D454D4F525920419A
:1045C00043434553530000004552524F5220257536
:1045D000205B25735D2061742025733A25750000EA
:1045E0000EB5ADF80010CDE901206A46002144F275
:1045F0000100FFF755FF0EBD08B501238DF800300F
:104600009DF80030144B186059609A606FF4804137
:10461000401807D001280FD1DA60D8680088986167
:10462000D86807E01A6118698068586118690088BD
:10463000986118694068D861186858689868D8689F
:10464000186958699869D86972B600BF9DF800006A
:104650000028FBD162B608BDE830002010B58268A2
:10466000C368934203D001F000FE002010BD052076
:1046700010BD29B112B1531E134203D00920704757
:104680000E2070470160838000218160C160084670
:10469000704710B58268C3689A1A83889A4203D813
:1046A00001F0EDFD002010BD042010BD074B9B78EC
:1046B00023B12AB120B10068037C1BB108207047E8
:1046C0000720704741744261002070470831002084
:1046D00070B504F08FF9104800240B210470447069
:1046E0000E4D817014206C602C706C70FFF7E0F838
:1046F00007211420FFF7FDF81420FFF7E4F808481D
:10470000046007211120FFF7F4F80548001F006836
:10471000A860002070BD000008310020D0270020D4
:10472000081501402DE9FC47DFF8789099F8023030
:1047300073B368B3052902D20720BDE8FC8743693B
:1047400033B3437C012B25D000270446002588463F
:1047500016468DF80050684600F0EAF801A805F00A
:10476000C1F8C8B1012101700F4944600968C0E96E
:104770000218C0E904769DF8040089F801009DF84C
:10478000000000F0F9F81420FFF7A8F82846D4E755
:104790000820D2E70F46D8E704259DF8000000F076
:1047A000EBF8F3E708310020041501400649897849
:1047B00039B130B1416921B100210174022104F005
:1047C00075BD0820704700000831002070B50B4E01
:1047D00001460B48B578FFF741FF04465DB1002064
:1047E000B070711C0122C81D02F0CCFC18B105A2EA
:1047F000D521FFF7F5FE204670BD0000E42700201C
:10480000143200202E2E5C2E2E5C2E2E5C2E2E5C62
:104810002E2E5C2E2E5C636F6D706F6E656E7473E2
:104820005C6C69627261726965735C756172745CFB
:104830006170705F756172745F6669666F2E630088
:10484000F0B5284E89B01F460D00044672603BD07B
:10485000A888296882B22448FFF70BFF002834D1CA
:10486000A889A96882B220481030FFF702FF00280B
:104870002BD120221D496846FEF762FE6069069032
:10488000207C00B101208DF814008DF81C70607C34
:1048900000B10E208DF81500E0680290A06803902A
:1048A00020680190606800900E48114A69460830FF
:1048B00002F034FC002808D1B0702068401C04D0FD
:1048C0009DF81D0018B106E0072009B0F0BD0548AD
:1048D000083002F0AFFC03490122491CC81D02F058
:1048E00051FCF2E7E427002014320020789A0200FD
:1048F0001195020010B501460B48FFF7CAFE0400EF
:1049000010D10A4802F0E0FD60B9084906480839AC
:10491000FFF7A4FE30B9054901220839034802F027
:104920004DFD0446204610BD24320020EC27002017
:1049300030B5EFF3108172B60D4A9468012324B1AB
:104940000370002900D162B630BD93604FF0E023C0
:10495000D3F88051074C25401560C3F88041D3F847
:10496000844154605A17C3F8842100220270E8E79A
:1049700034320020FC06FFBD0B498A68002A11D0A2
:1049800000280FD1EFF3108072B60B684FF0E022D1
:10499000C2F800314B68C2F8043100228A60002856
:1049A00000D162B670470000343200202DE9F0419A
:1049B000064608680C46411C4FF0A0474FF0010521
:1049C00006D005FA00F1C7F80815206802F063FF69
:1049D0006068411C02D0002102F054FF3079204968
:1049E00001EB4010A169007F00283068C0F8241551
:1049F00025D0607D227D31681043C1F86C05D4E973
:104A000000123068C0F80C15C0F8142524E0A06826
:104A1000411C02D0002102F035FFE068411C05D0A6
:104A20008540C7F80855E06802F035FFD4E9021266
:104A30003068C0F80825C0F81015BDE8F081607D29
:104A4000217D32680843C2F86C05D4E90012306851
:104A5000C0F81425C0F80C15207D0128D7D0ECE74C
:104A6000A83000202DE9FC47002517880646158050
:104A700090F82D001446894630B13A462146484602
:104A800000F008FB050009D1B0784FF00C0A18B30C
:104A90002088C846001DB84202D95046BDE8FC87B0
:104AA000684679DF0028F9D12088032108F8001032
:104AB00020881921401C80B2208008F8001020882E
:104AC000401C80B2208000EB0801BDF8000004F01B
:104AD00076FE218808442080F0780222C8B121881F
:104AE00096F9033001F1030C4846BC45D5D8425431
:104AF00021884FF0010C491C89B2218000F801C0C7
:104B00002188491C89B2218009F801302088401C85
:104B100020807068B8B1218890F9003001F1030C51
:104B20004846BC45B9D8425421880A22491C89B25A
:104B3000218042542188491C89B2218009F8013022
:104B40002088401C2080308950B1CDE900474B4679
:104B50000622022106F1080004F0DCFE05009DD1CA
:104B6000308A50B1CDE900474B460722032106F1B8
:104B7000100004F0CFFE050090D1308B50B1CDE98C
:104B800000474B461522142106F1180004F0C2FE1E
:104B9000050083D1306A30B13B462246494601F0D8
:104BA00059FA0500DBD1706A30B13B4622464946CE
:104BB00001F0FEFE0500D2D196F82C0038B13B463C
:104BC00022464946304604F0C9F80500C7D130787E
:104BD00038B13B4622464946304601F071FF050098
:104BE000BDD128465AE7F0B50C4693B01F210726E1
:104BF000ADF80010ADF80410002750B1C178490796
:104C00000DD56A4602A9FFF72DFF002808D102AD95
:104C100002E00025ADF800706CB1E07810B13046CC
:104C200013B0F0BD01AA0AA92046FFF71BFF002818
:104C3000F6D10AAA02E00022ADF80470BDF8040023
:104C4000C3B2BDF80000C1B2284672DFE8E780F8C1
:104C50002410704770B50D00044653D0F4B3012002
:104C600020700026E670202205F17801201DFEF755
:104C700067FC84F82460D5F89800C4F8CC00D5F817
:104C80009C00C4F8D0004FF6FF70A4F8C800C4F828
:104C90002560A4F8296084F82B6004F130003C21E1
:104CA0000646FEF766FC287884F83000A87884F879
:104CB0003200E87884F83300687884F83100D5E968
:104CC0000401C4E91001D5E90201C4E90E01D5E9E6
:104CD0000601C4E9120195F82D0000E012E084F805
:104CE0005D00686AD8B104F1780104F16C00616775
:104CF0006065696A09880180686A616D808888805A
:104D0000002008E00E2070BD696A22188968095CDD
:104D100082F87810401C616D89888142F4D8A86AB5
:104D2000E8B104F1A400C4F8A0000C38A065A96A99
:104D300089888180A86AA16D00880880002006E02B
:104D4000A96A22188968095C82F8A410401CA16D28
:104D500089888142F4D895F82C0084F85C00286A90
:104D600048B104F1C4002065296A49884180286A55
:104D7000216D00880880686800B1606305F13C011E
:104D80003046BDE87040FFF72EBF10B50288102AEC
:104D90001AD0112A1FD01B2A1CD1007A0C460028D9
:104DA00018D1E0780521401CB0FBF1F201FB1201A3
:104DB000204600F055F800280CD0D4F8D010002977
:104DC00008D0BDE810400847C27B012A02D1808884
:104DD000A1F8C80010BD0C46002184F8D4108088CA
:104DE000B4F8C8108842F5D120790028F2D1012109
:104DF000DEE710B50C46022801D0032811D16078F7
:104E000000280ED000206070E178204600F028F8DD
:104E1000002806D0D4F8D010002902D0BDE81040F8
:104E2000084710BD10B5044674DF012084F8D40093
:104E3000002084F8D600062084F83300002104F115
:104E40003000FFF7D0FE002809D1E178204600F0BD
:104E500007F818B1D4F8D01001B18847002010BD70
:104E60002DE9FF47044600780F4638B1E77000206F
:104E700002F03CFC012628B16670D2E0082004B0A4
:104E8000BDE8F0870025C4F82550A4F8295084F81F
:104E90002B50A07910B1E078012806D0E07970B1EC
:104EA000E078012801D0022809D1D4F8CC1021B132
:104EB00084F82C600820884701E084F82C5004F125
:104EC000260100200A5C0AB1304603E0401C062897
:104ED000F8D300204FF002084FF0030A4FF0040906
:104EE000012F06D0022F09D0032F0CD0042F12D18E
:104EF0000DE0A17911B108B130460DE0E17911B1B1
:104F000008B1404608E0207A08B1504604E0607AD3
:104F100008B1484600E02846E070D4F8CC1041B112
:104F2000032801D0042804D1607910B194F8D4008A
:104F3000A8B184F8D55000950295019503958DF898
:104F400000508DF80850E17804F1250004F130029A
:104F5000052958D2DFE801F0670A131F3B0084F8E7
:104F6000D65084F8D56007208847E4E7A670019002
:104F70008DF80060ADF80C50ADF80A5043E084F8AD
:104F8000028001908DF80060208AADF80C00A089A5
:104F9000ADF80A0037E0A08AADF80A00208BADF822
:104FA0000C00607980B194F8D40068B994F8D60008
:104FB00050B18DF8088084F8339000211046FFF737
:104FC00012FE00BB05211AE084F802A01BE0A08BB2
:104FD000ADF80A00208CADF80C00607988B194F827
:104FE000D40070B994F8D60058B18DF8088084F8D0
:104FF000339000211046FFF7F6FD20B90621A1707D
:1050000001E084F80290E07830B194F8241068460A
:1050100073DF00287FF433AFD4F8CC1009B1A07847
:10502000884700202BE7A570F6E7000070B5040064
:1050300012D001461C221448FEF782FA1248134D82
:105040000560206850B17ADF002806D12068016829
:1050500029604068686005E00E2070BD0B487BDF6A
:105060000028FAD108484FF6FF711438084A20F892
:10507000041B0549343901600021FFF717FB0028A4
:10508000EBD0032070BD0000682F0020B427002063
:105090007D9802007CB5054608880C460930904290
:1050A00001D90C207CBD68466DDF0028FAD121882B
:1050B0000820685420881B21401C80B2208029547D
:1050C0002088401C80B220802844DDF80110016057
:1050D000BDF8051081802088801D80B220809DF859
:1050E0000010490800D0012129542088401C20804C
:1050F00000207CBD10B54FF0FF3100203BDF0028C1
:105100000BD1B1213ADF002807D1044841690120C1
:105110008847022002F074FF002010BDA43A00204E
:10512000044810B50068416900208847BDE8104078
:10513000FFF7E0BF6428002010B500280FD00188D9
:10514000204C502926D00BDC10291DD0112906D166
:10515000A1888088814202D14FF6FF70A08010BDE7
:10516000512913D05329FAD1C088E1888842F6D159
:10517000607E0028F3D0FFF7D3FF0028EFD06169ED
:10518000BDE81040022008478088E7E7BDE81040EE
:1051900003F040BB30F8061F62899142DFD141899C
:1051A0000229DCD10C3000F083FB07492076032272
:1051B0000988BDE8104002EB0143024603A11846EE
:1051C00002F08ABDA43A0020B4280020526563652D
:1051D0006976656420696E6469636174696F6E20C5
:1051E0007374617465202564000000002DE9F041AE
:1051F0000546007B0426234C4FF0010801280FD000
:1052000002281FD00226287B4FEA060100F064F82E
:10521000002832D020684169BDE8F04103200847EA
:1052200020680027817E11B106210120EEE780F879
:1052300019800121084600F04FF800281DD0206891
:105240004776E0E76A7B142A19D8C2B10E4F05F100
:105250000E01381DFEF774F9687BB8612168384685
:10526000897E0029CFD1A0F10C010A68011F904767
:105270000028C8D1216881F81A80BDE8F081052690
:10528000C1E7000064280020CC3A002070B5104926
:1052900000250A68002A19D04A68002A16D0083169
:1052A0009047112812D00B4C0028206885760BD02F
:1052B0000421022000F010F8002807D0206841697E
:1052C000BDE87040032008470121F2E770BD0000EF
:1052D000C03A00206428002086B00323ADF80030D7
:1052E00020238DF814308DF8150000220E4801920D
:1052F00002928DF81610C188ADF8041002218DF8C5
:10530000061005A90491ADF80820CDF80CD08088CE
:1053100001A9A6DF002804D1BDF80010032900D0A0
:105320000C2006B070470000A43A0020F0B5574D9D
:10533000018800220126AF8889B0044623294FD076
:105340002BDC53484FF003031129008803EB004086
:1053500034D014DC012965D010290ED14DA102F002
:10536000B7FC2E70072000F045FC20B14CA240F2A3
:10537000C111FFF735F9A088A88009B0F0BD132945
:1053800023D02129F9D10092A08869468FDF002817
:10539000F3D043A24FF4EC712DE03B2939D05129D1
:1053A0004DD052292AD05629E7D18088132176DFA3
:1053B0000028E2D03AA240F2FD113BE02A703CA165
:1053C00002F086FC4FF6FF70D6E700231A468521CF
:1053D00038467FDF0028D0D031A240F2DF1129E02B
:1053E0000092019280880022694690DF0028C4D094
:1053F0002BA240F2E911FFF7F3F8BEE700231A46AB
:1054000019463846A9DF0028B7D025A240F2EF118F
:1054100010E08088132176DF0028AED020A24FF460
:10542000FB7107E0A088002166DF0028A5D01CA240
:1054300040F2022109B0BDE8F040FFF7D1B81022D8
:10544000A11D04A8FEF77CF89DF81010002994D047
:105450009DF81800042803D0062801D005288CD117
:1054600002290ED08DF800604FF4C170ADF8040031
:10547000A0886946A8DF0028BFD009A240F21D21FC
:10548000B9E702208DF80000EEE700007027002049
:10549000B4280020436F6E6E65637465640000007D
:1054A0002E2E5C2E2E5C2E2E5C6D61696E2E63009E
:1054B000446973636F6E6E65637465640000000019
:1054C00010B51A4C0188606810290ED011292BD113
:1054D000401E606028D1FEF746FF002824D02168D6
:1054E000002921D0BDE810400847D0B90021012291
:1054F000084600F05DFB08B107280FD10722022102
:10550000012000F055FB08B1072807D10422022131
:10551000002000F04DFB20B1072802D0216801B126
:1055200088476068401C606010BD0000AC27002008
:105530002DE9F04701883B4E40F2F3194FF6FF7515
:1055400010291BD011293ED0122954D0502946D100
:10555000C188F289841D914241D1618902293ED1DD
:105560008688304600F090FF050038D004F10C002A
:1055700000F0A2F9A8B3294630464EE0C17B8788E7
:10558000044601292BD1A846284600F07DFF0500DE
:1055900017D02F8000202872234843464A460168CE
:1055A000C5F80A104068C5F80E0004F1100105F1B5
:1055B0000A0001F003F86872F08900280FD129462B
:1055C0002AE0042013E0808800F05EFF040006D08B
:1055D0006068FFF7EBF808B103F0A2FB2580BDE897
:1055E000F087FFE76868FFF7E1F80028F7D0BDE82B
:1055F000F04703F095BB87880646384600F044FF25
:105600000400ECD02B464A4606F1080104F10A00DA
:1056100000F0D4FF607221463846BDE8F04700F044
:105620006BBD0000682F0020B42700202DE9F04753
:105630000446038840480122A4B000F1480A102B18
:1056400009D0112B56D01A2B72D1217AB2EB111F2F
:1056500055D2012354E0D0E911218A430546011DAA
:1056600012A803F020FB442212A901A8FDF768FF4D
:10567000DFF8C4900026374609F144090DF104080B
:105680000AE000BF08EB46001D2283884946281D1A
:10569000009703F0CDFA761C0198B042F2D8686CFE
:1056A000A688C04303F0E6FAA0F57F41FF3917D082
:1056B00005EB40000123868032465146281D03F049
:1056C00017FB012332464946281D03F011FBE07BFE
:1056D00002280DD000231849A2884C31281D22E051
:1056E00024B0E521BDE8F04714A20420FEF778BFFE
:1056F0000123F0E70023A2885146001D13E0002398
:105700000D490546A2885031001D03F0F1FA207AB8
:105710000221B1EB101F01D2012300E00023064952
:10572000A2885431281D24B0BDE8F04703F0E0BA48
:1057300024B0BDE8F0870000842F00202E2E5C2EC0
:105740002E5C2E2E5C2E2E5C2E2E5C2E2E5C636F1D
:105750006D706F6E656E74735C626C655C636F6DAB
:105760006D6F6E5C626C655F636F6E6E5F737461AC
:1057700074652E630000000030B5174B0D46040021
:105780000FCB85B08DE80F0023D015B34FF6FF7017
:10579000A0822868A0610020A0752146684662DFCB
:1057A000002814D120788DF812000120ADF81000E7
:1057B000A21C04A9A0DF002809D12946204603F035
:1057C00050F9002803D12946204603F0DDFD05B03D
:1057D00030BD0E20FBE700005C9A02007FB5002977
:1057E00017D0002815D00288102A0DD0112A0DD00C
:1057F000502A0FD0572A0CD11A4B1868D3E902232C
:105800008DE80F0089692AE0808801E04FF6FF707B
:1058100088827FBD01910C46821DC38809890025BD
:1058200012308B4202D1518902290CD0A1898B42BE
:10583000EFD1A1690029ECD002905089ADF80C009D
:105840008DF800500AE000F037F818B10120A0757B
:10585000022001E0A57503208DF80000A1696846CB
:1058600088477FBD4C9A02001FB560B1838AA3F5BB
:105870007F44FF3C09D0837D3BB11388F42B06D9CC
:10588000072004B010BD0E20FBE70820F9E7002335
:1058900000930193029303938388CDE90221ADF82D
:1058A000003001218DF80210808A6946A6DFE8E702
:1058B0000078C0F340007047007800F001007047A6
:1058C00008B502F04BFD20B10D4A40F23221FEF73F
:1058D00087FE002000906946012002F0BBFB20B14A
:1058E000074A4FF40E71FEF77BFE684602F05EFC3D
:1058F000002804D0024A4FF40F71FEF771FE08BD74
:105900008091020010B5104C3A200B21207000202D
:105910006070A1700121E17020710C480168C4F829
:1059200005108088A4F80900A020E07232202073BE
:105930000C21601CFDF7DAFE60732046BDE81040C4
:105940000E2103F0DDB90000322E00209627002042
:105950000149085C70470000049A02000649095C8E
:105960004FF0A040D0F81005C84010F0010000D062
:10597000012080F001007047049A020007490B5C87
:105980004FF0A041D1F804250120984020EA0203FD
:10599000C1F808351040C1F80C057047009A0200A4
:1059A0000249085C012101F0A2BF0000009A020038
:1059B0000249085C002101F09ABF0000009A020031
:1059C0000649095C4FF0A040D0F80405C84010F02B
:1059D000010000D0012080F001007047009A020011
:1059E0007CB50024084E25460122305D0095002339
:1059F0001146019501F010FF641C042CF4D3BDE89E
:105A00007C4000F003B80000009A020010B50024AA
:105A10002046FFF7C5FF641C042CF9D310BD10B558
:105A200000242046FFF7C4FF641C042CF9D310BDEA
:105A300010B50246064B4FF0FF3000215C5C9442EB
:105A400001D1084610BD491C0429F7D310BD000040
:105A5000049A020070B50C4E0C004FF00005306047
:105A60000BD0012000F06AF808B1022004E0002009
:105A700000F064F800B10B202070706810B9FEF7D8
:105A800072FC0546284670BDAC27002010B50020EA
:105A900000F0E2F908B1062806D1012000F0DCF997
:105AA00008B1062800D1002010BD00002DE9F04704
:105AB0000D468146FFF7BCFF0446042836D2DFF8C6
:105AC00074801B481C4EA8F10C0725B3012D0ED085
:105AD000022D2BD104EB440030444578002D25D015
:105AE000B968002922D02846BDE8F047084704EBF2
:105AF0004401755C0E44717849B10E4A4FF400417F
:105B0000093A8068FEF70EFE08B987F80390B1786D
:105B100008F80410E2E78068FEF748FE04EB440151
:105B2000314418F804008D78A842D7D0BDE8F0873A
:105B3000089A0200A8270020082F0020FFF70EBFB8
:105B40000146154810B58088042907D007290FD0D1
:105B50000A291FD1BDE8104003F082B9132176DF76
:105B6000082817D0002815D00CA240F26F210DE0B4
:105B7000A0F57F41FF390DD10C48FFF753F90828F4
:105B800008D0002806D005A240F27921BDE81040D7
:105B9000FEF726BD10BD0000702700202E2E5C2EC3
:105BA0002E5C2E2E5C6D61696E2E6300282C002009
:105BB00070B50023042810D20D4D00EB4004012ADB
:105BC00002D101290CD00022094E00EB40003044E4
:105BD00061B1012906D0022906D00723184670BDFD
:105BE0000E30C2B22A55F9E74270F7E78270F5E746
:105BF000082F0020044A014600201279D20702D063
:105C0000084600F04DB870479C27002070B5064646
:105C10001E480024C0E90161B00720D500250122FB
:105C200011462846FFF7C4FF6D1C0446042D02D21E
:105C3000002CF4D013E094B940F2666204211448B9
:105C4000FEF7F6FB04000AD1FEF7E0FB040006D1E4
:105C50000F48104A0021001FFEF728FD0446F007F8
:105C600001D0FFF7BDFE74B909480B4A00210C387A
:105C7000FEF71CFD040006D10548084A012108383A
:105C8000FEF714FD0446204670BD00009C2700204E
:105C9000149A0200015F020031660200054402000E
:105CA0002DE9F05F6A4C054600266078B34618B1CE
:105CB00084F801B000F0A4FC664F4FF47A694FF409
:105CC000C87A4FF00108182D62D2DFE805F0AC0C5D
:105CD0000C31404D62676B746B74BE7D7D7D7D7D44
:105CE000ACAFB2B5BEBE0020FFF76AFE00284FF091
:105CF000000008D0FFF754FE022D02D14FF4E160FE
:105D000008E0484606E0FFF753FE022D01D1C82007
:105D100000E05046410CC0034FF4FA72801841F184
:105D20000001257052000023FDF7D4FB01462AE054
:105D30000020FFF745FE00284FF0000004D0FFF7D9
:105D40002FFE4FF44870E5E7FFF732FEDFE7002053
:105D5000FFF736FE00284FF0000002D0FFF720FECC
:105D6000CFE7FFF725FED4E70020FFF729FE002844
:105D70004FF0000002D0FFF713FE01E0FFF718FE1E
:105D8000257041F69A1100223868FEF7CBFC0646D2
:105D900046E00020FFF7F2FD257008E0002051E00A
:105DA00025703DE084F801800120FFF7E7FD002227
:105DB00040F6CD41E8E784F801800120FFF7DEFDE1
:105DC00000224FF48041DFE77868FEF7EFFC0646DB
:105DD000D5F1110000D02EB10220FFF7E1FD84F8CB
:105DE00002B01DE0012816D980B2C8214843C1176E
:105DF000C90341EA5041C0034FF4FA72801841F1DF
:105E0000000152000023FDF765FB0146002278687F
:105E1000FEF788FC06460220FFF7CAFD84F80280E0
:105E20003046BDE8F09F00F0EBFBB9E700F0E8FB7F
:105E3000B4E700F0E5FB04E000F0E2FB0020FFF730
:105E4000B7FD0120FFF7B4FDAAE7FFF7E8FDA7E7DC
:105E50009C270020089A020010B5FFF779FD032166
:105E600001F023FD002010BDF8B5871C00208DF83F
:105E700000000E4601256846FEF75AFD124C2068C8
:105E80003060D4E90001401AA168091ABE1C06E07E
:105E900000F074FCD4E90001401AA168091A491CF9
:105EA0008E42F5D8A1682068084004EB8000C168E4
:105EB00041F00301C1602068384420609DF8000073
:105EC000FEF75AFD2846F8BDFC33002030B4826846
:105ED0000468531C8360A154D0E901128A4202D3A2
:105EE00030BC01F00ABB30BC70470000034803C857
:105EF000814201D10120704700207047FC3300200F
:105F000000780221FFF7D2BD05494FF0FF32082883
:105F100041F8202002D3084480F848207047000050
:105F200050300020F0B54FF0FF3512B100230826A5
:105F300001E008230C260C4C05E000BF54F8237048
:105F40007F1C04D05B1CB342F8D32846F0BD261852
:105F50005DB286F8305044F82310002AF5D1E118DC
:105F600081F84800F1E70000503000200249084461
:105F700090F930007047000050300020704700005A
:105F800070B5084C050009D010342168002907D0ED
:105F900008682060496828468847F6E70834F4E72F
:105FA00070BD00003C3000202DE9F05F26484168BC
:105FB000F1B3DFF898B00E688146DBF800408768DF
:105FC0008078E11B21F07F45ED1CB0B9DFF88080BF
:105FD0004FF48030C8F84403C8F804031120FDF7DB
:105FE00067FC1120FDF76FFC4FF0010AC8F800A014
:105FF0002F2000F0FBFE89F802A0B54200D2354602
:10600000124BE8193C3320F07F401860DBF8001099
:106010005A46091B21F07F41001B20F07F40C91C1C
:1060200081420FD9106818602F2000F0DFFE00E0D9
:1060300004E0BDE8F05F1120FDF750BCBDE8F05F63
:1060400002F0D8BCBDE8F09FD02700200415014025
:10605000001001402DE9F04117880646B81D14468E
:106060000D46984202D90C20BDE8F0813188072204
:1060700006290AD34FF4486C4FF6FF73614501D9E6
:10608000994202D17088062801D21046ECE760459B
:1060900001D99842F9D1994203D0984201D0814266
:1060A000F3D80520E85520881221401C80B22080BA
:1060B00029542088401C80B220804119308803F088
:1060C0007EFB2188084480B220804119708803F04B
:1060D00076FB2188084420800020C5E702A240F218
:1060E0006711FEF77DBA00002E2E5C2E2E5C2E2E40
:1060F0005C6D61696E2E630038B54A7A0F4B62B1F0
:1061000000220A725969002906D001228DF8002068
:10611000ADF802006846884738BD0A7A62B19B68CC
:106120004C68024619462046FEF7FCFA0028F3D0D8
:10613000BDE8384002F0F4BD5B68F1E7682F00204D
:10614000817A202910D1427949034FF0A040012AD9
:1061500006D0002A08D1C0F8081504A0FDF794BEA7
:10616000C0F80C1503A0F9E7704700000D0A6F6630
:10617000660000000D0A6F6E000000002DE9F0417E
:1061800000260125144C22E06068226900EBC60756
:10619000387805FA00F1114217D08A43226100F0E5
:1061A00073FF02463878E36805FA00F1194002FAF5
:1061B00000F3994209D17978012901D0012100E049
:1061C000002151407A6802B19047761CF6B22078DF
:1061D0008642D9D3BDE8F081BC2700200E4910B516
:1061E0000A784C780023A24212D0521CD2B20A7014
:1061F000022A00D10B70084A0B780C3252F8232087
:1062000002608868104420F07F408860012010BD43
:106210000360002010BD0000D027002030B50446E8
:10622000006885B00D46806800281CD0142168469F
:10623000FDF79FF90195A0680490207910B101281D
:106240000DD104E001208DF80000206904E0022057
:106250008DF80000E06800030290606903902068F8
:1062600081686846884705B030BD826883881A40D7
:1062700003689A5C0A708168491C81607047C26833
:1062800083881A4003689954C168491CC1607047EB
:1062900010B50446C0B2FEF72DFB204610BD00002D
:1062A0000EB515A19DF8080020F00F00401C20F04D
:1062B000F00010308DF80800082202A87CDF18B129
:1062C000104AB521FEF78CF90020009001901021B2
:1062D000ADF80400ADF800104FF4C8703C21ADF8E3
:1062E0000600ADF8021068467ADF002803D0054AA0
:1062F000BF21FEF775F90EBD7A6D795F5541525495
:1063000000000000809102000B484A8883889A426E
:1063100011D10A88A2F52063773B0CD18988C91E68
:106320008AB2C280054803211346008801EB004071
:1063300003A101F0D8BC704770270020B4280020CA
:1063400044617461206C656E2069732073657420EC
:10635000746F2030782558282564290010B50C4921
:106360000C4800F07EFC20B10BA240F25721FEF752
:1063700037F94021074800F068FC002806D0BDE846
:10638000104005A240F25A21FEF72AB910BD0000C4
:1063900009630200142C00202E2E5C2E2E5C2E2E63
:1063A0005C6D61696E2E630070471CB504466846DB
:1063B0006DDF06210DF10102491E11F0FF01C1F14F
:1063C0000503505CE054F7D11CBD000000B58DB052
:1063D0003A208DF8000000208DF801000D218DF885
:1063E00004008DF80210114801218DF80310026895
:1063F000CDF805208088ADF80900A0208DF80B00AD
:1064000037208DF80C0012208DF80D008DF80E103D
:106410000E210DF10100FDF769F98DF80F00102133
:10642000684602F06DFC0DB000BD0000962700200C
:106430002DE9F041124E07460125BD403068FEF7B8
:10644000B5F900280DD10F4C2069284207D13846F4
:1064500000F01AFE0028E06805D0284304E0A843B5
:106460002061BDE8F081A843E060206928432061F5
:10647000A1683068BDE8F0410022FEF753B9000082
:10648000709A0200BC2700200146034802888A4215
:1064900000D0002070470000542F00202DE9FC5F41
:1064A0000E008346DDE90C47C6F10000984692468F
:1064B000814600D40846012503E000BF90FBFAF0B6
:1064C0006D1C5045FADAA84500D9454624B1002E86
:1064D00001DB780700D5641EB80702D5B8F1000FBC
:1064E0000AD0F80708D13CB1A54205D22021584670
:1064F000641EFFF7EBFCF6E7002E02DA4E462D2174
:1065000002E0780703D52B215846FFF7DFFC07F0A0
:10651000030002280BD1B8F1000F08D13CB1A5420D
:1065200005D230215846641EFFF7D0FCF6E7CDE9CE
:106530000047434652463146584603F045F9BDE808
:10654000FC9F000070B50E460446007918494FF4D0
:10655000A27501EB4010017F2068A1B14FF4887152
:1065600001F0F0FF4FF49071206801F0EBFF4FF461
:106570009271206801F0E6FF2946206801F0E2FFF1
:106580000C49206809E04FF48E7101F0CAFF2946DA
:10659000206801F0C6FF08492068C0F8041320688D
:1065A00000F0C0FC3146BDE8704000F09FBC000028
:1065B000A83000201003020080000200F0B584889B
:1065C000A518944200D82246A41AC288D6189A4226
:1065D00000D81346D21A4B880788BB420CD3408898
:1065E000834209D88888A04206D3A84204D8C88824
:1065F000904201D3B04201D90020F0BD0120F0BD8E
:106600000A4810B5807860B1002401E0022C06D061
:106610002046FFF7C5F9641C042CF7D310BD0324F2
:10662000F6E7BDE81040FFF7F1B900009C27002015
:1066300003480179C90702D00078FFF731BB7047E2
:106640009C27002006490120086006480168C1F324
:1066500000410029FAD104490020887070470000E9
:106660000C000040180400403C300020F72101805D
:1066700017214180002101714171FB2181711B2192
:10668000C17170472DE9F047394E002780463D46DD
:10669000DFF8E090D6F804A057E003D00446D0F825
:1066A0001C8035E099F8002002EB4201521CD2B266
:1066B00089F8002009EBC10199F80230091D9A42BE
:1066C00001D189F8005048680A780446012A12D09E
:1066D000022A02D0032A3BD108E002F0B7FD00B144
:1066E0000127257434E00574C06900E07068002853
:1066F000F9D170602CE0207C50BB88686060C8686D
:10670000A0600869E0604869A061F07800B1656048
:106710006268B168184B501A20F07F40984202D24C
:10672000A168084406E0881AA16820F07F408142F1
:1067300002D9081A206000E0256065600120A5608C
:1067400020742046E56102F063FDB8F10000A4D199
:1067500099F8001099F801008142A3D117B9716826
:10676000514502D00120BDE8F0870020FBE7000082
:10677000D027002008310020FFFF7F0070B588B0CF
:10678000214800F001FA2048001F064600F0FCF9FD
:106790001E4DD5E9014105E0C0F3891202EB90508E
:1067A000641C044404EA010005EB8000C068820711
:1067B000F2D000200DF1080204EA010305EB830387
:1067C000641CDB6842F82030401C0228F4D3029895
:1067D00000F00300012808D002280AD10298032102
:1067E00001EB905004EB900403E00298C0F3831097
:1067F00004443046002101AAFCF725FE002800D001
:106800006C6008B070BD000014380020FC3300201C
:106810008AB0FDF75DFF20B14DA240F29E31FDF739
:10682000DFFE02F099FC18224D496846FCF788FE0D
:106830004C4806904C494FF48070CDE9070109900F
:1068400007234A4A06A96846FDF7FAFF20B1484ADD
:106850004FF43471FDF7C4FE002001F0ADFA20B111
:10686000434A40F20931FDF7BBFE01F02BF94149E3
:106870000320FFF7CBF920B13D4A40F2FB21FDF7A1
:10688000AFFE01A90020FFF7E5F820B1384A40F239
:10689000FE21FDF7A5FEFFF713F8FDF74FFAFFF70E
:1068A000FFFCFFF75BFD3448009000246946334845
:1068B000FEF762FF20B12E4A4FF4A371FDF790FE60
:1068C000FDF76CFD1C216846FCF753FE4FF42030A9
:1068D000CDE900404FF4702002902948059003252F
:1068E00028488DF80C500690ADF80E408DF81040F9
:1068F0006846FEF79BFB20B11D4A4FF4BF71FDF7C0
:106900006FFE21A0FDF7C0FA244825A1008805EB01
:10691000004001F0DDF9194803213030FEF7A0FAFC
:1069200020B10BA24FF46D71FDF75AFE1F48FDF721
:1069300063F8FEF7E7FF4FF4457400BF01F0D0F8AD
:106940003EDF0028FAD00A4A2146FDF749FEF5E766
:106950002E2E5C2E2E5C2E2E5C6D61696E2E6300D9
:10696000E8990200F8290020F82A0020819402000A
:1069700080910200415B02006D860200F82B00202E
:10698000D1860200DD6002000D0A554152542053A9
:1069900074617274313233210D0A0000B428002072
:1069A00055415254205374617274210065360200BF
:1069B00070B5144682880E4605462088111D014494
:1069C000921C994201D8FE2A01D90C2070BD521C9C
:1069D00032542088FF21401C80B22080315420880E
:1069E000401C80B220808119288802F0E8FE2188AE
:1069F000084480B22080AA8842B1A96841B13044DD
:106A0000FCF79EFD2088A98808442080002070BDE6
:106A1000072070BD2DE9F047C7880446181D1646AB
:106A20008946B0FBF7F1B0FBF7F207FB12009A19A9
:106A30003A44D21CB2FBF7F2DDF820A001E0246852
:106A4000491E0029FBD13D1A8846B54216D818E0E8
:106A5000BAF1000F05D0211809EB08002A46091DDC
:106A600004E0204409EB08012A46001DFCF768FDFC
:106A700000202468761BA844B74201D9354600E0BF
:106A80003D46002EE4D1BDE8F087000030B5024657
:106A900069B101F0BFF90021084C0BE001EB4103A3
:106AA00004EB830315685B88AB4202D111600020C0
:106AB00030BD491C8142F1D3052030BD6C28002037
:106AC000F8B50E46017814460546012901D16878CB
:106AD00030B12088821C9A422DD8012902D006E0CC
:106AE0000720F8BD69780144891C994223D8181AF7
:106AF000801E87B2ADF800702188B01C084469463A
:106B00007DDF0028EDD12878022805D1BDF80010DE
:106B1000B94201D809210AE00821012805D1687885
:106B2000B84202D8ADF8000001E0ADF80070BDF841
:106B30000000FE2801D90C20F8BD2288401CB0546A
:106B40002088401C80B2208031542088401C208046
:106B5000BDF80010084420800020F8BD10B50A8858
:106B600049888A4203D1FCF797FB012010BD002021
:106B700010BD70B50C460546FCF771FB002802D02D
:106B800061882868084470BD08B501216A46FCF791
:106B90004DFC009808BD38B5044600258DF800501E
:106BA0006846FDF7C5FE21686268086890420ED904
:106BB000401E08600178238AE26801FB0325227ADF
:106BC0002168101AC0B20A79824200D208719DF879
:106BD0000000FDF7D1FE284638BD38B50546002037
:106BE0008DF800000C466846FDF7A2FEE868298A89
:106BF000201AB0FBF1F12A681068431C1360017081
:106C00009DF80000FDF7B8FE38BD10B530B1017A2F
:106C100042680368891AC9B21A6006E00E2010BDE6
:106C200003681A68541C1C601170491EC9B2F7D25F
:106C3000006800210171084610BDC20800F007037A
:106C40000120895C98400840704728B1A1F11702E3
:106C5000E12A03D3072070470E20704701800020EF
:106C6000704710B560B10161F72120F8021B20F8D0
:106C7000021BFB2100F8021BFFF7F8FC002010BDEF
:106C80000E2010BD2DE9F043858895B00C46002DEF
:106C90003DD10188DFF824810026DFF82491012707
:106CA00024293CD006DC102909D011290CD0232935
:106CB0006DD150E03A290BD0552968D12AE0014620
:106CC000204601F01FFD62E0A01DFFF7CFFC5EE053
:106CD0002246408934F8061F814200D80846608069
:106CE000172800D217206080106970B1607960B1F8
:106CF000D8E90010CDE90310ADF80E506088ADF86A
:106D00001000136903A9104698476671267115B0E3
:106D1000BDE8F0830146204601F042FD37E0011D49
:106D2000342206A8FCF70CFCBDF81800BDF81C20A6
:106D300004EBC0014A7322694AB3D8E90432CDE9B1
:106D40000432ADF81200487B8DF814002269204609
:106D500004A990471BE00496059630F8041F04EB45
:106D6000C1020179127B8A4200D21146ADF810109F
:106D7000ADF812100088002204A990DF020006D0AE
:106D8000B9F800000F4907EB004000F0A5FFA07A1A
:106D90000028BCD0E18828469EDF02000BD0112AD3
:106DA000B5D0B9F8000015B007EB0040BDE8F043DE
:106DB000054900F091BFA672E772A8E7349A020075
:106DC0006C280020909D0200089D020000F1804088
:106DD0000068002800D00120704708B500F180400D
:106DE000002101600068009008BD000000283ED02E
:106DF0001F49204A096800BF00BF00BF00BF00BF95
:106E000000BF00BF00BF91422FD000BF00BF00BF36
:106E100000BF00BF00BF00BF00BF00BF00BF00BF7A
:106E200000BF00BF00BF00BF00BF00BF00BF00BF6A
:106E300000BF00BF00BF00BF00BF00BF00BF00BF5A
:106E400000BF00BF00BF00BF00BF00BF00BF00BF4A
:106E500000BF00BF00BF00BF00BF00BF00BF00BF3A
:106E600000BF00BF00BF00BF00BF0138C3D17047E3
:106E7000682800200024F40070B50F4C002520780D
:106E800008B1852516E00021A16061602161E16003
:106E90004FF0E020D0F80001012610F0010F03D1DF
:106EA0000721002000F022F801F094FA08B9034805
:106EB00006602670284670BD3C3000201805004052
:106EC00008B500208DF800006846FDF731FD064842
:106ED000C168491EC160C06808B9FFF7B3FB9DF8DF
:106EE0000000FDF749FD08BD3C3000204907090EB0
:106EF000002806DA00F00F0202F1E02282F8141DE9
:106F000003E000F1E02282F8001400F01F020121EA
:106F100091404009800000F1E020C0F88012C0F8E4
:106F200000117047000B40B2704700002DE9F0419E
:106F30008846054601F0A6FC234E002828461AD0B4
:106F4000FFF714F8304490F848008009032802D075
:106F500001280ED007E04FF0A040D0F81005E8401F
:106F600010F0010F05D003212846BDE8F04100F0E4
:106F7000ADBC0221F8E701F091FC002822D02846A0
:106F8000FEF7F4FF04464FF4807000EB84000F4FCF
:106F900081B207EB8400D0F8102542F00102C0F85E
:106FA0001025084600F0C2FCB8F1000F0AD02846B0
:106FB000FEF7DCFF56F82000002803D00120A04097
:106FC000C7F80403BDE8F0815030002000600040A5
:106FD0002DE9FC41DFF8A480044608EB04000027FB
:106FE00090F930001346C0170E46401C01D0082708
:106FF00041E0F27819462046FEF794FF0546401C12
:1070000038D0B07850B14FF0A04000EB8400D0F8F9
:10701000001721F00201C0F8001707E00021737883
:10702000204600910A46019100F008FCF078C0B1BA
:107030001348317800EB8500D0F81025114B1A4029
:10704000C0F810254FF4F8524FF4403302EA0422FE
:1070500003EA01410A43D0F810150A43C0F810258D
:1070600009E008EB0500327810F8481F41EA821168
:10707000017000E004273846BDE8FC815030002054
:1070800000600040FFE0FCFF4FF0A041D1F8101578
:10709000C14011F0010000D00120704770B5144DBF
:1070A00095F8540008B1082070BD0020411E2A1830
:1070B000401CC0B282F830102028F8D300242046AB
:1070C000FEF722FF641CE4B20C2CF8D30721062043
:1070D000FFF70CFF4FF4BE7000F028FC05494FF09D
:1070E0000040C1F80403012085F85400002070BD61
:1070F0005030002000600040034890F85400002801
:1071000000D0012070470000503000200121B1EB79
:10711000507F01D101207047002070472DE9F041D8
:1071200005460079164F904607EB40140E46E07E68
:1071300010B10820BDE8F081707F20772846FDF768
:1071400035FC5FEA080060603169216003D0317F5F
:107150002846FFF7F7F9287907EB4010007F002851
:10716000286801D0082100E00421C0F800150020A3
:10717000E0752076A0750121E176A076DAE70000BF
:10718000A83000202DE9F04105460079284E9046B0
:1071900006EB40140F46207F18B10846FFF7B6FFF4
:1071A00080B1626800234FF404704FF4017172B132
:1071B0002A7906EB4212127F002A2A6805D0C2F80B
:1071C000080304E01020BDE8F081C2F80813E27D56
:1071D000B2B1227E7AB162685AB12A7906EB4212C4
:1071E000127F1AB12968C1F8040302E02868C0F8C8
:1071F00004131120E7E72761012384F8188005E0D4
:1072000084F817800020E76060762076287942466F
:1072100006EB40103946007F0028284603D0BDE821
:10722000F04100F073B8BDE8F04100F01BB8000079
:10723000A830002070B504460079094D05EB4010D8
:10724000017F00290AD1807E002807D1204601F065
:1072500065FC2179012005EB4111887670BD0000A5
:10726000A83000202DE9F05F04460079264901EBA3
:107270004015A87E184302D1204601F04FFC6868F3
:107280000028206806D04FF40171C0F804130020D4
:10729000BDE8F09F4FF4A276314601F042F9B146C5
:1072A0004FF4927A4FF4847B5146206801F034F910
:1072B00006465946206801F02FF980464946206865
:1072C00001F02AF9074648EA07003043ECD056EAB5
:1072D000070007D12946206801F0AAFBE87D697EF6
:1072E0008842E1D80020E8750EB10320D0E70FB145
:1072F0000F20CDE7A97E01200029216801D0086078
:10730000C5E74860C3E70000A83000202DE9F05F22
:10731000894604464FF488759A46904600260068D0
:10732000294601F00FF94FF4A2773946206801F0A1
:1073300009F92068C0F83495C0F838852068BAF19A
:10734000000F14D0D0F8001241F02001C0F8001254
:107350002179DFF8648008EB4110406850B1206863
:107360004FF40471C0F804133046BDE8F09F0121CA
:107370000160EDE7AA46B9464FF4927B514620687A
:1073800001F0DBF807464946206801F0D6F80546CB
:107390005946206801F0D1F8014647EA0500084344
:1073A000ECD02379002208EB4310C27501B103260B
:1073B000002DD9D00F26D7E7A83000202DE9F047BF
:1073C000054600793F4E904606EB40140F46207F5D
:1073D00018B10846FFF79AFE30B1284600F074F85D
:1073E00020B11120BDE8F0871020FBE784F816805B
:1073F000A7600027A78228794FF0010806EB401408
:107400003E46207F0028286825D04FF490794946D1
:1074100001F098F84FF4AC7A5146286801F092F8E0
:107420002868A17DA268C0F84425C0F848152868DE
:10743000C0F808806068F0B94946286801F07DF816
:1074400080465146286801F078F858EA0001F3D0E8
:1074500058BBA7750FE04FF48E7A514601F061F8E2
:107460002868C0F808802146286801F07DFF61681F
:107470004FF4807089B13046B4E75146286801F076
:107480004BF810B9A08A4845F7D1A08A484505D0E5
:107490002146286801F068FF00E08146A08AA17DAE
:1074A0008842EAD3A08A484501D10F26D1E7514648
:1074B000286801F031F80028F9D02868C0F80C805D
:1074C000C7E70000A83000200079044901EB401014
:1074D000807D002800D0012070470000A8300020E7
:1074E0000FB408B50399002904D004AA00926A4693
:1074F00000F00FF801B05DF814FB10B58268044687
:10750000002A05D0D4E90403216898470020A06030
:1075100010BD2DE9FC4791460C00804676D014F84A
:10752000011B39B125290ED04046FEF7CFFC20784B
:107530000028F4D198F80C00002867D04046BDE838
:10754000FC47FFF7DABF0020012221782B291BD04E
:107550002D2902D0302908D102E040F0010001E0DD
:1075600040F00200641C002AEFD100252A290ED029
:107570002178A1F130020A2A11D205EB850201EB34
:107580004205641C303DF1E740F00400EAE7D9F819
:1075900000100B1DC9F800300968641C0D442178E7
:1075A00000232E290BD114F8011FA1F130020A2A61
:1075B00005D203EB830201EB4203303BF3E76C2976
:1075C0000DD068290BD0692921D00BDC252918D0D2
:1075D000582931D063290ED0642915D117E014F849
:1075E000011FECE7702969D0732932D075291BD0AF
:1075F000782909D120E0D9F80000011DC9F8001050
:1076000001784046FEF762FC641C90E76CE0D9F814
:1076100000100A1DC9F800200968CDE900500A22AF
:107620004046FEF73BFFEFE7D9F800100A1DC9F806
:10763000002009680A2206E0D9F800100A1DC9F8DE
:10764000002009681022CDE90050404602F0BCF845
:10765000DAE7D9F8001000270A1DC9F800200E68E3
:10766000C00705D112E04046761C7F1CFEF72EFCB9
:1076700031780029F7D104E0202140466D1EFEF745
:1076800025FCBD42C0D9002DF6D1BDE74EB1304634
:10769000FBF77AFF074604E0202140466D1EFEF707
:1076A00015FCBD4206D9002DF6D103E04046761CFC
:1076B000FEF70CFC31780029F8D1A5E7D9F80000D5
:1076C000011DC9F80010056830214046FEF7FEFB99
:1076D00078214046FEF7FAFB08200021CDE90001A1
:1076E000034610222946B0E7BDE8FC872DE9F041AA
:1076F00028B1016819B1C969BDE8F04108470D4DCD
:107700000D480024461B14270DE000BF04EB840045
:1077100005EB8000016829B1C969884710B10120D3
:10772000BDE8F081641CB6FBF7F0A042EED8002063
:10773000F6E70000000000000000000004480121FE
:107740004174007A08B100207047012070470000A2
:10775000CC320020012801D0032808D1044900229E
:1077600001284A7400D00020087401F0EFB8704777
:10777000CC32002070B5254C0246207A012837D043
:10778000022841D122480023022A006802D0032A9D
:107790002ED11BE0E360017911B1012928D10DE060
:1077A000D0E90565711B4FF48056B14200D33146D4
:1077B000294481614569A9420ED019E00169491C3B
:1077C00001614269914213D1237217E0E168491CBB
:1077D000E16008290CD9E3602372022A0ED00D2142
:1077E000FEF71CFD0B480A49091D0068FFF7B6F9B2
:1077F000607C28B1BDE8704000F0F2BD0021EFE7E9
:10780000BDE8704001F0A2B870BD0000CC3200208D
:10781000F4270020A89A020070B541EA4201DDE990
:1078200004564FF0A04441EA830141EA052104EBEC
:10783000800041EA0641C0F8001770BD70B541EA0A
:107840004201DDE904564FF0A04441EA830141EAD8
:10785000052104EB800041EA0641C0F8001770BD25
:1078600070B541EA4201DDE904564FF0A04441EA17
:10787000830141EA052104EB800041EA0641C0F89A
:10788000001770BD1CB500220B46009211460192F4
:10789000FFF7E6FF1CBD1CB5002100910B4601223D
:1078A00001911146FFF7DCFF1CBD4FF0A04202EB37
:1078B0008000D0F8002722F44032C0F80027D0F82A
:1078C000002742EA0141C0F8001770474FF0A0427C
:1078D00002EB8000D0F8002722F44032C0F80027E5
:1078E000D0F8002742EA0141C0F800177047012292
:1078F0004FF0A043824011B1C3F808257047C3F888
:107900000C25704718B5084B6C4601441B68009362
:1079100006E000BF54F82030D3F81035401C08C2F0
:107920008142F7D818BD00006C9A0200034908B5DF
:107930000844002101600068009008BD006000401C
:1079400002494058012800D00020704700600040E4
:1079500030B5124B01460020D3F81044224609E00E
:10796000157A854205D1401C0A28F7DB4FF0FF301D
:1079700030BD5268002AF3D1421CF9D00872D3F806
:1079800010242AB152684A60D3F81024516030BDE7
:107990000022C3F810144A6030BD0000FC33002000
:1079A0007047FBF7F5BF704708B5034A00924023C4
:1079B000024A00F005F808BD318D0200FC320020BB
:1079C000F0B595B01C4615460F4608461A9E00F0C5
:1079D000F1FA182109A8FBF7CCFD0E96CDE9095460
:1079E0000023082203A9384600F0FEFA0598069005
:1079F0000498ADF81C0000208DF82000039808269C
:107A000000F00300012802D002281DD03CE00398BA
:107A10003346850AC0F3C2008DF81E0003980FA9F3
:107A2000C0F380008DF81F000398C0F38314A200F8
:107A3000384600F0D9FA09A8009006AB22460FA9F3
:107A4000284600F013FA1FE00398840DC0F3C2002B
:107A50008DF81E000398C0F380008DF81F00082CDD
:107A600001D2254600E0082533462A460FA93846AC
:107A700000F0BAFA2E44641B09AB06AA29460FA8E7
:107A800000F044F9002CEAD1384600F09CFA15B019
:107A9000F0BD00000A4A012902EBC00007D002290C
:107AA00007D0032907D0042907D0002070470220FF
:107AB0007047042070470079704740797047000094
:107AC000F4A3020010B5FFF76CFF04210348FFF791
:107AD0003FFF02490120487210BD00000828002025
:107AE0002DE9F04F8DB0FEF701FA18B100200DB06E
:107AF000BDE8F08F74480021C0F81814BFF34F8F11
:107B0000D0E9014604EA060100EB81014FF00009CB
:107B10000AE000BFC1F3891202EB9151641C0C44CE
:107B200004EA060100EB8101C9688A07F2D000214E
:107B300003AA804604EA060008EB8000641CC068C3
:107B400042F82100491C43460229F3D3039800F070
:107B50000300022806D0012803984FD0C0438007B5
:107B60007ED0ACE003985022810D8A46B2EB905F44
:107B700000D850210D4665F39F50039008315348BB
:107B800000F0CFF907006CD000F014FA4B46082241
:107B900003A9384600F02EFA04EA0601701A8000A4
:107BA000001D09F1080B854221D9474E0C3630B132
:107BB000C2B208EB8101281A91460C3104E031462B
:107BC000EAB2002691463046C5B25B46384600F020
:107BD00011FA0BEB09032EB12A4631464FEA070092
:107BE00000F008FA0AF1030004EB90043BE008EB14
:107BF00081015B462A4638460C31F1E7C0F3831019
:107C0000062800D30620039960F38911C1F383107D
:107C1000801C039181002D4800F083F907004ED0AD
:107C200000F0C8F94B46082203A9384600F0E2F9F3
:107C300009F1080900250DE004EA060008EB8001BF
:107C40004B46042238460C31641C00F0D3F909F18C
:107C500004096D1C0398C0F38310A842ECD801E01E
:107C60000BE02CE05FB3D8F81054D8F8180446465F
:107C700090B1384600F0A7F921E0D3F818040028A5
:107C80003FF435AF1BE0687A012804D12968284603
:107C90000A68394690476D68002DF4D1384600F0E7
:107CA00092F900208DF800006846FCF741FED6F8F6
:107CB000180400B974609DF80000FCF75DFEFEF743
:107CC00015F980F0010012E7FC330020C89B020088
:107CD00000231A4601F074B908B5012300926A46E0
:107CE00001F06EF908BD1CB5CDE9002302236A46F8
:107CF00001F066F91CBD7FB5DDE908458DE83C0063
:107D000004236A4601F05CF97FBD00002DE9F047CD
:107D10000E4680461C46924608293ED894F80C90A0
:107D2000002020731946104600F0E2FD0025B54200
:107D300006D218F805201AA12046FFF7D1FB03E070
:107D400019A12046FFF7CCFB6D1C082DEFD317A11E
:107D50002046FFF7C5FB0025B54210D218F8057084
:107D6000FBF7EAFB0068C05D10F03E0F01D03A4619
:107D700000E02E220EA12046FFF7B2FB03E00DA18A
:107D80002046FFF7ADFB6D1C082DE5D301222146EF
:107D9000504600F08FFD84F80C90BDE8F08700009D
:107DA0002025303278000000202020007C000000D8
:107DB0002563000020000000114810B5FF218160FC
:107DC000002101604160C0F81814C0F8141480F854
:107DD0001C140C4800F0F5F800280FD10A480B4994
:107DE0000B4B401AC108002005E000BF00EB400229
:107DF00023F82200401C8842F8D3002010BD000068
:107E0000FC330020C89B020044A40200F4A302003B
:107E10006C28002002480349401AC008704700003F
:107E200044A40200F4A3020013B56846FEF72EFE38
:107E300008B100201CBD0248009950F831001CBD5B
:107E4000F4A3020070B508480125D0F8104480F86A
:107E50001C5405E0657221682046496888476468BB
:107E6000002CF7D170BD0000FC3300202DE9FF4746
:107E700081460C9D00200C462F7B287398461646A1
:107E80002946184600F034FD072E42D2DFE806F0FE
:107E900004090F161F2A360049462846FFF720FB23
:107EA00037E0494628462268FFF71AFB31E0D4E95B
:107EB000002349462846FFF713FB2AE0A0680090FC
:107EC000D4E9002349462846FFF70AFB21E0D4E91C
:107ED0000201CDE90001D4E9002349462846FFF715
:107EE000FFFA16E004F1080007C88DE80700D4E99E
:107EF000002349462846FFF7F3FA0AE004F1080098
:107F00000FC88DE80F00D4E9002349462846FFF743
:107F1000E7FA00222946404600F0CCFC2F73BDE86A
:107F2000FF872DE9F041058A80462D1F4819C01CA6
:107F3000B0FBF5F0C6B24046FEF72DFE040019D0A6
:107F40000020207101206071E58000272546761E03
:107F5000C4F800800BE04046FEF71DFE60B1617979
:107F6000491C6171286005467F1CC0F80080B7423B
:107F7000F1D32046BDE8F081204600F002F8002051
:107F8000F8E72DE9F041457901466B1E002201E03A
:107F90000968521C9A42FBD30F680146002605E08F
:107FA00038460C68FEF719FE2146761CAE42F7D320
:107FB000BDE8F08108B501216A46001DFBF7C1F953
:107FC00008BDFEF722BE38B50446001D01216A46F1
:107FD000FBF7C4F9009810F0FF0F04D12046BDE86C
:107FE0003840FFF7CEBF38BD38B501240094FEF706
:107FF00011FD38BD38B500240094FEF70BFD38BDE7
:10800000F8B504460D4801216A46FBF7B5F9BFF300
:108010005F8F002500280AD10121084E042C09D0C9
:10802000301F427822B100BFBFF35F8F3560F8BDCB
:108030000470417000F0D6FEF6E700000028002032
:1080400020B1034909680160002070470E20704785
:10805000549C02002DE9FE4306460D460846FFF7F4
:10806000EFFF00287ED18046CDF80080CDF8048057
:10807000012403208DF80060ADF80400CDF80880DD
:108080008DF80240694620202A6869DF404F40B1E0
:1080900000F038FA024638883E4904EB0040FFF70A
:1080A0001BFECDF800808DF800408DF80180CDF8E2
:1080B0000480CDF808808DF80280694640202A6847
:1080C00069DF40B100F01EFA02463888324904EBFD
:1080D0000040FFF701FECDF800808DF80060F7202A
:1080E000ADF80200CDF80480CDF808806946232061
:1080F0002A6869DF40B100F005FA0246388827494E
:1081000004EB0040FFF7E8FDCDF8008002208DF879
:108110000000CDF80480CDF808804646694601206D
:108120002A6869DF40B100F0EDF9024638881C4941
:1081300004EB0040FFF7D0FD4FF4B06000900196D3
:1081400002966946A1202A6869DF40B100F0DAF999
:1081500002463888134904EB0040FFF7BDFD009646
:10816000019600E011E002968DF800606946A020BB
:108170002A6869DF40B100F0C5F9024638880A492B
:1081800004EB0040FFF7A8FD0020BDE8FE830000DF
:10819000CC2800209CA20200E4A2020030A302002E
:1081A000FCA1020048A20200A8A1020070B5066866
:1081B0000446314612A0FBF767FE204660DF2268C6
:1081C0000546B24212D0314612A0FBF75DFE1D4EAD
:1081D0002068306000F006FC2168411A1AA0FBF705
:1081E00053FE00F0FFFB2168401A306035B128468D
:1081F00000F088F901461DA0FBF746FE284670BD39
:1082000052414D2073746172747320617420307810
:108210002578000052414D2073746172747320619F
:108220007420307825782C2063616E20626520618F
:10823000646A757374656420746F20307825782EB5
:10824000000000006028002052414D2073697A65CB
:108250002063616E2062652061646A757374656471
:1082600020746F20307825782E00000073645F62E0
:108270006C655F656E61626C652829207265747536
:10828000726E65642025732E0000000030B5EBB0DF
:108290004FF4CE74ADF8A8416AA9684661DF48B1D1
:1082A000052818D06BB00DA2BDE8304040F2271170
:1082B000FCF796B96D46194967A800F0DFF806E0AB
:1082C000D0E900212846904767A800F0EEF86998A9
:1082D0000028DFD0F4E76BB030BD00002E2E5C2EFE
:1082E0002E5C2E2E5C2E2E5C2E2E5C2E2E5C636F52
:1082F0006D706F6E656E74735C736F6674646576B3
:108300006963655C636F6D6D6F6E5C6E72665F73E3
:1083100064685F626C652E6300000000589C020078
:1083200010B50D4C2078A0B10120A07000F052FCD7
:1083300011280CD0022000F065FC11DF002807D1C5
:108340002070A07000F0B8FD032000F05BFC00205E
:1083500010BD082010BD00005C28002038B5114C6D
:10836000207808B1082038BD0125A570002000F054
:1083700031FC112814D0002000F044FC0A480B49BD
:1083800000680090684610DF0028ECD12570A070CE
:10839000607000F05DFE00F0CBFD012000F032FCCB
:1083A000002038BD5C280020EC9B0200A1440200A4
:1083B0000EB50749684600F061F805E0D0E9001005
:1083C0008847684600F071F802980028F6D10EBD83
:1083D000089C020001480078704700005C280020DB
:1083E0000548817819B1007818B1FFF799BF0820C6
:1083F0007047FFF7B3BF00005C2800201FB5684638
:1084000048DF40B1052816D004B00BA2BDE81040EB
:108410006B21FCF7E5B8184901A800F02FF806E039
:10842000D0E900210098904701A800F03EF8039899
:108430000028E4D0F4E71FBD2E2E5C2E2E5C2E2EDD
:108440005C2E2E5C2E2E5C2E2E5C636F6D706F6E1C
:10845000656E74735C736F66746465766963655C7E
:10846000636F6D6D6F6E5C6E72665F7364685F7371
:108470006F632E6300000000749C020001600968B5
:108480004160AFF3008010B5D0E9002153689942F4
:1084900001D1002104E0D1E90034A34202D0194601
:1084A000816010BD08314160F0E7816800290BD080
:1084B000026892680A44826041684B689A4203D11C
:1084C00008314160FFF7DFBF704700000C4A10B56C
:1084D00002F1F0030EE0991AC91001EBD1714910B5
:1084E00002EBC1010C68844201D90B4602E005D2BF
:1084F00001F108029A42EED3002010BD486810BD79
:10850000CC9A020000B5FFF7E1FF002800D1014836
:1085100000BD0000B89A02004058002800D0012099
:10852000704708B5002242504058009008BDD0F86E
:108530000403084000D0012070474058002800D0B4
:108540000120704708B5002242504058009008BDF5
:108550002DE9F0410E460A469AB001466846FAF700
:10856000EFFF3F4D9DF8000000272C1DDFF8F48041
:108570003A2808D0142E03D22878012852D02F7020
:108580001AB0BDE8F0814FF6FF71142E2CD0F7D24F
:108590009DF8020020709DF80B2000F1010001EA17
:1085A00002219DF80C2041EA020161809DF804102F
:1085B0002171DDF8051045F8091FBDF80910A980E3
:1085C000C1B20DF10100FBF791F822780DF1020123
:1085D000515C8842D4D1D8F80030002BD0D06088CC
:1085E00069460D319847CBE79DF8020020709DF851
:1085F0000B00142201EA00209DF80C100843608053
:108600009DF804002071DDF80500C5F80900BDF8EB
:108610000900A5F80D000120287069461248FAF7F4
:108620008FFFADE71048324669461430FAF788FFED
:108630002F702078401CC1B20B48401CFBF756F845
:10864000094A2178921C8A5C904299D1D8F800306E
:10865000002B95D00B398AB260880349C1E700002E
:108660008C27002088270020642E00200178002914
:108670000DD1074A04E083685B5C5354491CC9B2BE
:1086800083898B42F7D8017B0148FFF761BF7047B0
:10869000002D002010B568B103280FD10220FDF78E
:1086A000A9FA00280AD0BDE8104005A240F2A311A3
:1086B000FBF796BFBDE8104000F0D2BB10BD000034
:1086C0002E2E5C2E2E5C2E2E5C6D61696E2E63004C
:1086D000007800280AD106483B21808876DF0028F0
:1086E00004D004A24FF4AE71FBF77ABF70470000CC
:1086F000702700202E2E5C2E2E5C2E2E5C6D616964
:108700006E2E63002DE9FC418E88027900EBC605D0
:10871000AC1D2A73C97B012902D0022904D101E0D2
:10872000008800E040882080218860880127DFF8E9
:10873000648081420CD930469EDF020025D0112A88
:1087400025D0B8F80000144907EB0040FFF7C4FA41
:10875000A079E179884216D9002000900190287B09
:10876000ADF80000287BADF80200002269463046D3
:1087700090DF030007D0B8F80000324607EB004056
:108780000649FFF7B0FABDE8FC816771E0E72771A1
:10879000DEE700006C280020089D0200D89D020042
:1087A0007CB506468D88C88806EBC504A41D17282D
:1087B00000D217202188814200D80846608000201E
:1087C000207121882846ADDF020007D00E48012124
:1087D000008801EB00400D49FFF77EFA6079002820
:1087E00010D1306900280DD00948D0E90210CDE938
:1087F0000010ADF802506088ADF804003269694697
:10880000304690477CBD00006C2800204C9D020043
:10881000349A02007FB51A4D8188AA8891422DD1E1
:1088200010F8061F022929D14188EA88914225D1F2
:10883000017A042922D0062920D005291ED0841CC3
:108840000020009002210190029003908DF800100A
:10885000297E19B101218DF8061001E040F2FD10CA
:10886000ADF80400A8886946A8DF1128FAD0BDF841
:108870000400002802D12046FCF7B8FC7FBD0000B0
:10888000A43A00200449084490F93000082801DB8C
:1088900001207047002070475030002004490844F0
:1088A00090F93000082801D201207047002070475D
:1088B0005030002010B50C46C17949B11AB109A158
:1088C0002046FEF70DFE2046BDE81040FEF715BE1F
:1088D000007A0028F3D0044804A102682046FEF77D
:1088E000FFFDECE70D0A000038280020257300008A
:1088F00070B50446C0790D4600281CD1207A50B1CD
:10890000A179A088FFF7C6F80B4951F820200BA1E8
:108910002846FEF7E5FDA0880021FFF785FA03460B
:108920000549A079143951F820202846BDE8704047
:1089300003A1FEF7D5BD70BD3828002025730000C7
:108940003C25733E2025733A200000002DE9F041BC
:10895000214C0025214E207A012730B92048311DB5
:108960000068FEF706F9306038B1022020723168E5
:10897000087928B101281ED116E06560BDE8F081B4
:10898000D1E90503C01A4FF48052904200D310463B
:10899000B7EB900F01D2820800E001220869C96894
:1089A0001844194429DF03E0D1E90301084428DF12
:1089B00038B111280ED003213068FDF72FFC257245
:1089C000DBE7207C0028D9D1BDE8F041002102205E
:1089D000FEF7D0BE2772D1E7CC320020F42700206A
:1089E000A89A02004FF08050D0F80C01800200F1EC
:1089F0000050704770B5012670044FF0E02100254B
:108A0000C1F88001084C4010C4F84803C4F80803BA
:108A100066602F20FEF7EAF9A660044C2F20A560BF
:108A2000FEF7E4F9A57070BD00100140D0270020CA
:108A300070B50546C87D0C4600284FF48471284661
:108A40000AD0FFF76EFDD5F81805627EE1688854FC
:108A5000607E401C607670BDFFF763FDD5F8180599
:108A600070BD30B58FB005461C216846FAF781FD10
:108A700000249DF80000019440F00C008DF80000E7
:108A8000039404940594069428788DF83600022007
:108A9000ADF834000C949DF83000142120F00F0044
:108AA000401C20F0F00010308DF830009DF83100AF
:108AB00020F00F00401C20F0F00010308DF8310045
:108AC0009DF8320020F00600801C20F0180040F0D5
:108AD00001008DF8320007A8FAF74BFD0DA80790AA
:108AE0000CA808900120ADF82400F420ADF8264031
:108AF000ADF82800688805F10C0307AA6946A2DFD3
:108B00000FB030BD1FB501238DF800308DF808106F
:108B10000192D0E90012684690471FBD10B5044687
:108B200000684FF49271FFF7FCFC4FF484712068E9
:108B3000FFF7F7FC20680121016010BD70B50D46FC
:108B40000446FBF7C1F970B12846FBF7CFF968B1CD
:108B50006807000E002C0CDA04F00F0101F1E0218F
:108B600081F8140D09E042F2010070BD42F20200EA
:108B700070BD04F1E02484F80004002070BD000002
:108B800038B50021012558B101280ED003280BD19A
:108B900007210020FEF7AAF9BDE83840FEF790B99A
:108BA0004FF0E020C0F8805138BD8DF800106846C5
:108BB000FBF7BEFE064C207808B9FEF75DF9E068C9
:108BC000401CE060A5709DF80000FBF7D5FE38BDA5
:108BD0003C3000203EB5044609496846FFF74EFC8C
:108BE00008E000BFD0E900212046904730B1684638
:108BF000FFF75BFC02980028F4D13EBD11203EBD7A
:108C0000F09B02003EB5044608496846FFF736FC73
:108C100007E000BFD0E90021204690476846FFF7F3
:108C200044FC02980028F5D13EBD0000FC9B0200E8
:108C300070B50028049D18D0002916D0002A14D041
:108C40005FF0000430F814609E420FD10020012331
:108C5000A34008E001EB800426680DB11E4300E04C
:108C60009E43401C26609042F4D370BD641C202CAF
:108C7000E8D370BD70B5054600242146284600F0B3
:108C80000AF808B1204670BD641CA4B2202CF4D3AD
:108C90004FF6FF7070BD01228A40024201D00120D0
:108CA0007047002070472DE9F04192B080464FF0A8
:108CB000000017460D00009012D000246E46A1B2AD
:108CC0003846FFF7E8FF40B1009935F8140006EB8D
:108CD000410188800098401C0090641C202CEED339
:108CE000442269464046FAF72BFC12B0BDE8F081F9
:108CF00008B5009313460122FFF79AFF08BD000054
:108D00000EB500220092ADF80010019202920146C9
:108D10006A460248FCF7A8FD0EBD0000F82B0020B3
:108D200002498969002900D008477047682F002050
:108D30002DE9F04114000F460DD000250A267919BF
:108D400022460020FAF726FE0544241A08B9761EAA
:108D500001D0002CF3D1BDE8F08100002DE9F041F5
:108D60000746806A14468846C8B3002531E000BF34
:108D7000B96A05EB450001EB8006B088801CFE282F
:108D800002D90C20BDE8F0812288401C08F80200BE
:108D900020881622401C80B2208008F800202088FD
:108DA000401C80B2208000EB0801308800F007FDF5
:108DB0002188084480B22080B28842B1B16871B184
:108DC0004044FAF7BDFB2088B188084420806D1C20
:108DD000EDB297F82C00A842CAD80020D2E7FFE7EE
:108DE0000720CFE770B5194D194C07E001682078CE
:108DF0008847002829D01548FFF757FBA8680028A6
:108E0000F4D1FFF71FF800BFFEF76AFE0028FBD180
:108E1000207803280CD002280AD0FFF7DBFA00B133
:108E200032DF0C4901200860BFF34F8F20BFFDE700
:108E3000BFF34F8F08480168084A01F4E06111430D
:108E40000160BFF34F8F00BFFDE770BDF03200201F
:108E5000FC270020000500400CED00E00400FA05AE
:108E600010B50020FCF7C6FE20B10CA240F289111B
:108E7000FBF7B6FBFCF70AFE20B108A240F28D1109
:108E8000FBF7AEFB32DF002806D0BDE8104003A29E
:108E900040F29111FBF7A4BB10BD00002E2E5C2EFA
:108EA0002E5C2E2E5C6D61696E2E6300002801D150
:108EB000FDF766B87047000010B51620FBF704F800
:108EC00048B10B4882684FF4800162B1016821F417
:108ED0008001016010BDBDE8104042F2010005A212
:108EE000A521FBF77DBB4FF0E020C0F8801110BD3D
:108EF000343200202E2E5C2E2E5C2E2E5C2E2E5C0C
:108F00002E2E5C2E2E5C636F6D706F6E656E7473AB
:108F10005C736F66746465766963655C636F6D6DC1
:108F20006F6E5C6E72665F7364682E630000000093
:108F300010B51620FAF7C8FF80B1104890F8000469
:108F40004009FAF7D3FF60B10D4882684FF4800101
:108F50007AB1016841F48001016010BD42F2010064
:108F600001E042F20200BDE8104006A29921FBF7A1
:108F700037BB4FF0E020C0F8001110BD16E000E054
:108F8000343200202E2E5C2E2E5C2E2E5C2E2E5C7B
:108F90002E2E5C2E2E5C636F6D706F6E656E74731B
:108FA0005C736F66746465766963655C636F6D6D31
:108FB0006F6E5C6E72665F7364682E630000000003
:108FC0002DE9F843214C8846054691461F466946DF
:108FD0001846A668FCF748FF70B30098811C002271
:108FE0000AE000BF01EA060C59F8223004EB8C0CB1
:108FF000491C521CCCF80C30BA42F3D30246401C38
:10900000304004EB80002B0CC36002EA060004EB46
:109010008002E80652F80C0F02D540F0040001E08F
:1090200020F0040065F3C50067F3891068F39F2002
:1090300020F00300401C106094F81C0402E000BF04
:10904000FEF74EFD0028FBD1BDE8F883FC3300207D
:1090500010B507211620FFF771FD18B108A2B8213D
:10906000FBF7BEFA07211520FFF768FD002805D0A1
:10907000BDE8104002A2BA21FBF7B2BA10BD000051
:109080002E2E5C2E2E5C2E2E5C2E2E5C2E2E5C2E1A
:109090002E5C636F6D706F6E656E74735C736F665C
:1090A000746465766963655C636F6D6D6F6E5C6E2D
:1090B00072665F7364682E63000000002DE9F04162
:1090C0001F4E00241FA0315DFAF7DEFE641CE4B2DF
:1090D000062CF7D31E4D0027E87800282ED0012853
:1090E0002CD1A878411CA970042827D905F10C01BE
:1090F0000F20184C08803A20207067700C20A07058
:109100000120E07008202071A4F12E00316840F8A1
:10911000331FB1888180E77237202073122060737B
:109120000D21601CFAF7E2FAA073214605F10C024A
:10913000A1F59D70FCF798FBEF70AF70BDE8F08172
:1091400096270020307825303278203A2000000021
:1091500070270020322D002010B5074A0121074852
:10916000FBF7A4FA002806D0BDE8104004A240F2A4
:109170008131FBF735BA10BDBD900200E4990200C1
:109180002E2E5C2E2E5C2E2E5C6D61696E2E630081
:109190002DE9F84F1D4C00256846D4E901A6FDF7DE
:1091A0001DF8002738B30023009A61681CE0D1F84D
:1091B00000C00846944503D9ACEB02020A6015E0F2
:1091C000A2EB0C0263440760D0F80CC0C169814671
:1091D000BCF1000F08D006EB030828F07F48C0E977
:1091E000018CC9F81C5005460029E0D12846616071
:1091F000FDF748FA03E02846FDF744FA10B150465F
:10920000FCF7D2FEE770BDE8F88F0000D027002001
:109210000D4B10B5596831B102680C68A24204D8F0
:10922000A21A0A60C161586010BD0B4603E00B46EC
:10923000C969121B21B10C689442F8D3A41A0C60BE
:109240000260C161D86110BDD02700202DE9F04136
:10925000144E77683D462C4603E0844204D02546F0
:10926000E469002CF9D11BE0D4B1A5420BD1F86917
:10927000706040B90C49012088600021B160F07035
:109280002F20FDF7B3FD2168E069E86110B10268A5
:10929000114401607068874202D00120BDE8F0816E
:1092A0000020FBE7D0270020001001407CB50646D7
:1092B00000240D468DF800406846FBF739FB01A8F5
:1092C00000F010FB70B10570094946609DF804007C
:1092D00048709DF80000FBF74FFB1420FAF7FEFAE8
:1092E00020467CBD04249DF80000FBF745FBF7E712
:1092F000083100202DE9F041194D6C68002C2CD06C
:10930000184800270068A968B846401A20F07F4630
:109310002068B0420CD82146361A0744E469087C1C
:1093200020B181F81080886949698847002CEFD105
:1093300029786878814206D1401CC0B26870022842
:1093400001D185F80180064869780C3040F8217019
:10935000BDE8F0411420FAF7C1BABDE8F081000081
:10936000D02700200415014070B50C4605464FF487
:109370008E71FFF7D6F8A18AA068415CA08A401CD4
:10938000A082C5F81C1570BD30B58FB0002405460D
:1093900007949DF81C001C2120F00F00401C20F0B9
:1093A000F00010308DF81C009DF81D0020F00F001B
:1093B000401C20F0F00010308DF81D009DF81E00BC
:1093C00020F00600801C8DF81E006846FAF7D1F8E0
:1093D0009DF80000019440F010008DF8000007A8EF
:1093E000CDE904400394069428788DF83A000320D0
:1093F000ADF838000D949DF83400142120F00F00D2
:10940000401C20F0F00010308DF834009DF835003D
:1094100020F00F00401C20F0F00010308DF83500D7
:109420009DF8360020F00600801C20F0180040F067
:1094300001008DF8360008A8FAF79BF80EA80890EE
:109440000DA809900120ADF82800F420ADF82A40BD
:10945000ADF82C0068882B1D08AA6946A2DF0FB062
:1094600030BD1FB500228DF800208DF808108168EE
:1094700001918275D0E90012684690471FBD000037
:1094800038B5017841B101292ED002292BD140688D
:1094900019A240F2AB212BE01C4C1B4D60782844F4
:1094A000FBF794F96078401CC0B22918607011F87D
:1094B000011C0A2902D0E188884214D3607812493D
:1094C000ADF800006A4601F53D70FCF7CDF90828BB
:1094D00007D01128F2D020B107A240F2A221FBF759
:1094E0007FF80020607038BD406803A240F2AF21D1
:1094F000BDE83840FBF774B82E2E5C2E2E5C2E2E65
:109500005C6D61696E2E63000429002070270020C5
:109510007CB50178244D81B301290BD002292BD1D0
:109520008DF80010C068691C01900122C81DFDF76C
:1095300029FE2EE0406801781C48FBF7AAF81B4C76
:10954000012618B18DF80060019006E0A068E1687E
:10955000814205D000208DF8000069686846884780
:10956000A068E168081AA188884207D80E4901223C
:10957000491CC81DFDF706FE7CBD01E0AE70FBE78F
:109580000A4809491030FBF769F830B103208DF81B
:109590000000696868468847EEE70349012201F147
:1095A0000800FDF70BFFE7E7E42700201432002056
:1095B0002DE9FF470C4605464FF40071FEF7B7FF53
:1095C00001274FF40178002618B34FF492794946E9
:1095D0002846FEF7A1FFE0B149462846FEF7A1FF65
:1095E000C5F80883A07E00B96F6002208DF80000E6
:1095F000D5F88004C5F880040390E07D8DF808005C
:10960000E0680190E6752676D4E900126846904736
:1096100027E004212846FEF78AFF10B34FF4847137
:109620002846FEF779FFE0B121462846FFF700FA09
:10963000E07D617E884214D1207E38B1617EE2688F
:10964000E0752069E0602676667607E0A07E00B9C6
:109650006F60C5F80883E675617EE2682046FFF713
:1096600051FA4FF48E7841462846FEF755FF88B1EF
:10967000A08AA17D884204D221462846FFF774FEC5
:1096800008E041462846FEF74CFFA17D11B1204677
:10969000FFF7E7FE4FF4A27841462846FEF73CFF6D
:1096A000002812D041462846FEF73BFFA07E00B1BD
:1096B0002F60E07D002808D0E675617EE26804B086
:1096C0002046BDE8F047FFF71DBABDE8FF872DE94A
:1096D000FF410C464FF4927705463946FEF72DFFC1
:1096E0000026C0B139462846FEF72CFF02208DF82F
:1096F0000000D5F88004C5F880040390D5F83C0537
:109700008DF80800E0680190E6752676D4E900122D
:109710006846904724E04FF4887739462846FEF79C
:109720000CFFE8B139462846FEF70CFFD5F83C059A
:10973000C1B2E07D884213D1207E60B1E268D5F8E5
:10974000000220F02000C5F80002207EE0752069AC
:10975000E060267601E0E675E2682046FFF7D2F980
:109760004FF4A27739462846FEF7E7FE68B139463E
:109770002846FEF7E7FEE07D38B1E675D5F83C05F2
:10978000E268C1B22046FFF7BDF94FF4907631464A
:109790002846FEF7D2FE00280FD031462846FEF7B5
:1097A000D1FEA07D002808D0D5F84C0504B0C1B288
:1097B0002046BDE8F041FFF754BEBDE8FF810870C8
:1097C000000A4870022070472DE9F05F8346DDE90A
:1097D0000A4A994690460D460846012703E000BF15
:1097E000B0FBF8F07F1C4045FAD2B94500D94F468E
:1097F0005FEACA7012D18CB15FEA8A7002D5B9F102
:10980000000F01D0202607E0302605E031465846FB
:10981000641EFCF75BFB0CB1A742F7D35FF00106B7
:10982000B9F1010F02D9A9F1010903E0B5FBF6F086
:10983000404502D306FB08F6F2E7DFF83C9000BF94
:10984000B5FBF6F000FB165519F800105846FCF76A
:109850003DFBB6FBF8F6002EF2D15FEACA7009D0E4
:10986000002C07D0A74205D220215846641EFCF7E1
:109870002DFBF5E7BDE8F09F989A0200F8B5054684
:1098800080B2FCF701FE040013D0154E207A0027A9
:10989000317B88420ED2A8B204F10A0175DF28B1EB
:1098A000112806D0BDE8F840FFF73ABA207A401CEC
:1098B0002072F8BD2772307C38B1A8B23B2176DF28
:1098C00018B1082801D0FFF72BFA71690029F0D0F0
:1098D0008DF80070ADF8025068468847F8BD00006A
:1098E000682F00200A494A788B78521CD2B29342E2
:1098F00000D100220B78934201D100207047027002
:10990000487800EB400001EBC000001D70470000EC
:10991000083100202DE9FC411646DDE90854CDE967
:1099200000541F468046022200F00CF8002807D1A0
:10993000CDE900543B4610223146404600F002F883
:10994000BDE8FC812DE9FC5F0026DDE90C4B994662
:1099500092468E4680462788354630E0D8F8040087
:10996000002200EB850069460068019001A864DFD1
:10997000002830D19DF8000050451FD10EB10021C4
:1099800000E00221228808441118594522D846B91E
:10999000521C90B2208009F800E02088401C2080F2
:1099A0000126218801A801EB0902694664DF00282D
:1099B00011D120889DF80010084420806D1CB8F853
:1099C0000000A842CADC56B12088C01B401E80B2ED
:1099D000FF2802D90C20BDE8FC9F09F807000020F1
:1099E000F9E70000E428002008000000060000005D
:1099F0000500000007000000000000000000D60184
:109A0000111213140D0E0F10C82E0020E82E002086
:109A1000142F00200D000300AD5A02000E000300B9
:109A2000AD5A02000F000300AD5A020010000300FF
:109A3000AD5A0200770A000000000000770A00001B
:109A4000000000007ADA00000000000001000000C1
:109A50000000000000000000000000009ECADC249E
:109A60000EE5A9E093F3A3B50000406E000000509E
:109A7000C830002003000000FFFFFFFFFFFFFFFFD3
:109A8000FFFFFFFFFFFFFFFF0000000000000000DE
:109A90000000D6010701000030313233343536374B
:109AA0003839414243444546E0320020001000006E
:109AB0000400000001000000556E6B6E6F776E2091
:109AC0006572726F7220636F6465000000000000B1
:109AD00010A1020001000000D09F0200020000005F
:109AE000509E02000300000044A002000400000099
:109AF00098A0020005000000909F020006000000F0
:109B0000309F02000700000080A002000800000053
:109B1000A49F020009000000F09F02000A0000005C
:109B2000F8A002000B000000389E02000C000000AC
:109B3000BC9F02000D0000001CA102000E000000EE
:109B400070A002000F000000ACA002001000000096
:109B5000E0A002001100000030A10200800000001F
:109B6000709F020081000000F49E0200820000004D
:109B7000B49E020083000000949E02008400000056
:109B8000D09E020085000000489F02008600000071
:109B900058A0020090000000109F020091000000F9
:109BA000749E020000820000C0A00200018200003A
:109BB0000CA002000282000028A00200A979020085
:109BC000A7790200A17902001C2800201428002097
:109BD0001C2800203C3300201800000084A4020050
:109BE0008CA402000000000000000000010000073B
:109BF000DC9B0200EC9B020008000000149C0200A9
:109C0000249C020008000000249C0200349C0200F6
:109C100008000000BCA40200CCA402000000000068
:109C200000000000ACA40200BCA402000000000080
:109C30000000000044A402004CA402004CA4020056
:109C40006CA402006CA402007CA402007CA40200AC
:109C500084A4020070270020349C0200549C02005F
:109C6000080000008CA402009CA402009CA4020036
:109C7000ACA40200649C0200749C02000800000076
:109C8000004040404040404040404141414141400F
:109C900040404040404040404040404040404040C4
:109CA0004005020202020202020202020202020253
:109CB0000220202020202020202020020202020258
:109CC00002029090909090901010101010101010B0
:109CD00010101010101010101010101002020202BC
:109CE0000202888888888888080808080808080800
:109CF00008080808080808080808080802020202FC
:109D000040000000819C020073645F626C655F67C5
:109D1000617474635F65786368616E67655F6D74B5
:109D2000755F726571756573742829207265747525
:109D3000726E656420756E65787065637465642005
:109D400076616C756520307825782E0073645F62CB
:109D50006C655F67617474735F65786368616E6773
:109D6000655F6D74755F7265706C79282920726506
:109D70007475726E656420756E6578706563746560
:109D8000642076616C756520307825782E0000009F
:109D900073645F626C655F6761705F646174615F6B
:109DA0006C656E6774685F757064617465282920DE
:109DB000287265706C79292072657475726E65649D
:109DC00020756E65787065637465642076616C7566
:109DD0006520307825782E0073645F626C655F675C
:109DE00061705F646174615F6C656E6774685F75F4
:109DF00070646174652829202872657175657374B3
:109E000029206F6E20636F6E6E656374696F6E20BC
:109E1000307825782072657475726E656420756E71
:109E200065787065637465642076616C7565203053
:109E30007825782E000000004E52465F4552524F62
:109E4000525F494E56414C49445F444154410000E1
:109E50004E52465F4552524F525F534F465444450F
:109E6000564943455F4E4F545F454E41424C454431
:109E7000000000004E52465F4552524F525F464529
:109E800041545552455F4E4F545F454E41424C45FB
:109E9000440000004E52465F4552524F525F4D55AE
:109EA0005445585F554E4C4F434B5F4641494C45D6
:109EB000440000004E52465F4552524F525F4D558E
:109EC0005445585F4C4F434B5F4641494C45440015
:109ED0004E52465F4552524F525F4D555445585F62
:109EE000434F4E445F494E49545F4641494C4544B7
:109EF000000000004E52465F4552524F525F4D5592
:109F00005445585F494E49545F4641494C454400C9
:109F10004E52465F4552524F525F4150495F4E4F3D
:109F2000545F494D504C454D454E5445440000004A
:109F30004E52465F4552524F525F4E4F545F5355FB
:109F400050504F52544544004E52465F4552524F76
:109F5000525F4D4F44554C455F414C524541445929
:109F60005F494E495449414C495A4544000000005C
:109F70004E52465F4552524F525F4D4F44554C45ED
:109F80005F4E4F545F494E495449414C5A45440035
:109F90004E52465F4552524F525F4E4F545F464FAE
:109FA000554E44004E52465F4552524F525F494E05
:109FB00056414C49445F5354415445004E52465F0C
:109FC0004552524F525F444154415F53495A4500F4
:109FD0004E52465F4552524F525F5356435F48417F
:109FE0004E444C45525F4D495353494E4700000083
:109FF0004E52465F4552524F525F494E56414C4970
:10A00000445F4C454E475448000000004E52465FA6
:10A010004552524F525F4452565F5457495F455222
:10A02000525F414E41434B004E52465F4552524FA4
:10A03000525F4452565F5457495F4552525F444EF7
:10A0400041434B004E52465F4552524F525F494E7C
:10A050005445524E414C00004E52465F4552524FBD
:10A06000525F53544F524147455F46554C4C000098
:10A070004E52465F4552524F525F4E554C4C000077
:10A080004E52465F4552524F525F494E56414C49DF
:10A09000445F504152414D004E52465F4552524F2F
:10A0A000525F4E4F5F4D454D000000004E52465FDF
:10A0B0004552524F525F464F5242494444454E002A
:10A0C0004E52465F4552524F525F4452565F54576C
:10A0D000495F4552525F4F56455252554E0000005F
:10A0E0004E52465F4552524F525F494E56414C497F
:10A0F000445F4144445200004E52465F4552524F25
:10A10000525F494E56414C49445F464C41475300CB
:10A110004E52465F53554343455353004E52465F9C
:10A120004552524F525F54494D454F55540000001F
:10A130004E52465F4552524F525F425553590000AE
:10A140007761726E696E6700646562756700000012
:10A150001B5B313B33306D001B5B306D000000003A
:10A160001B5B313B33316D001B5B313B33326D0088
:10A170001B5B313B33336D001B5B313B33346D0074
:10A180001B5B313B33356D001B5B313B33366D0060
:10A190001B5B313B33376D00696E666F000000005A
:10A1A0006572726F7200000073645F626C655F635A
:10A1B00066675F73657428292072657475726E65B1
:10A1C00064202573207768656E20617474656D70F6
:10A1D00074696E6720746F2073657420424C455F0C
:10A1E00047415454535F4346475F53455256494392
:10A1F000455F4348414E4745442E000073645F620B
:10A200006C655F6366675F73657428292072657487
:10A2100075726E6564202573207768656E206174A1
:10A2200074656D7074696E6720746F207365742037
:10A23000424C455F434F4D4D4F4E5F4346475F563F
:10A24000535F555549442E0073645F626C655F63CC
:10A2500066675F73657428292072657475726E6510
:10A2600064202573207768656E20617474656D7055
:10A2700074696E6720746F2073657420424C455F6B
:10A2800047415454535F4346475F415454525F54CF
:10A2900041425F53495A452E0000000073645F62DB
:10A2A0006C655F6366675F736574282920726574E7
:10A2B00075726E6564202573207768656E20617401
:10A2C00074656D7074696E6720746F207365742097
:10A2D000424C455F434F4E4E5F4346475F474150B8
:10A2E0002E00000073645F626C655F6366675F7376
:10A2F000657428292072657475726E6564202573F3
:10A30000207768656E20617474656D7074696E671E
:10A3100020746F2073657420424C455F4741505F45
:10A320004346475F524F4C455F434F554E542E00B6
:10A3300073645F626C655F6366675F736574282929
:10A340002072657475726E65642025732077686568
:10A350006E20617474656D7074696E6720746F200F
:10A3600073657420424C455F434F4E4E5F434647F2
:10A370005F474154542E0000626C655F67617474DE
:10A3800000000000636C6F636B0000006770696F12
:10A3900074650000756172740000000062616C6C8D
:10A3A0006F6300007077725F6D676D74000000006E
:10A3B000617070006E72665F736468006E72665FD3
:10A3C0007364685F626C65006E72665F7364685F79
:10A3D000736F6300CCA4020070270020740100009A
:10A3E0000C36020010A50200E42800200432000010
:10A3F000B83E020078A302000000030084A302001C
:10A40000000000008CA302000000000094A30200E2
:10A41000000000009CA3020000000000A4A30200B2
:10A4200000000000B0A3020000000300B4A302007B
:10A4300000000300BCA3020000000300C8A3020048
:10A44000000003002D56020000000000856C020091
:10A45000142C00208B4D0200282C0020C154020037
:10A46000000000003155020000000000DD5702002E
:10A47000F82B002039510200A43A00202D5302008D
:10A48000000000003D77020000000000AD8E0200D9
:10A49000000000007577020000000000F34D02008C
:10A4A000282C00208D520200000000008D82020046
:10A4B00000000000FD83020000000000818B02000C
:10A4C0000000000055770200000000004114FFFF6B
:10A4D000141201120202700A1220021840041DBC5C
:10A4E0009B0214A0A1021A40041A98041A48041AE4
:10A4F00058041A50041A60041A68041A70041A786E
:10A50000041A80041A88041A9004D1047890D003A5
:0400000500023201C2
:00000001FF
