Component: ARM Compiler 5.06 update 6 (build 750) Tool: armlink [4d35ed]

==============================================================================

Section Cross References

    main.o(i.advertising_init) refers to memseta.o(.text) for __aeabi_memclr4
    main.o(i.advertising_init) refers to ble_advertising.o(i.ble_advertising_init) for ble_advertising_init
    main.o(i.advertising_init) refers to app_error.o(i.app_error_handler_bare) for app_error_handler_bare
    main.o(i.advertising_init) refers to ble_advertising.o(i.ble_advertising_conn_cfg_tag_set) for ble_advertising_conn_cfg_tag_set
    main.o(i.advertising_init) refers to main.o(i.on_adv_evt) for on_adv_evt
    main.o(i.advertising_init) refers to main.o(.bss) for .bss
    main.o(i.advertising_init_bond) refers to memseta.o(.text) for __aeabi_memclr4
    main.o(i.advertising_init_bond) refers to memcpya.o(.text) for __aeabi_memcpy4
    main.o(i.advertising_init_bond) refers to ble_advertising.o(i.ble_advertising_init) for ble_advertising_init
    main.o(i.advertising_init_bond) refers to app_error.o(i.app_error_handler_bare) for app_error_handler_bare
    main.o(i.advertising_init_bond) refers to ble_advertising.o(i.ble_advertising_conn_cfg_tag_set) for ble_advertising_conn_cfg_tag_set
    main.o(i.advertising_init_bond) refers to main.o(.constdata) for .constdata
    main.o(i.advertising_init_bond) refers to main.o(i.on_adv_evt) for on_adv_evt
    main.o(i.advertising_init_bond) refers to main.o(.bss) for .bss
    main.o(i.assert_nrf_callback) refers to app_error.o(i.app_error_handler) for app_error_handler
    main.o(i.ble_evt_handler) refers to nrf_log_frontend.o(i.nrf_log_frontend_std_0) for nrf_log_frontend_std_0
    main.o(i.ble_evt_handler) refers to bsp.o(i.bsp_indication_set) for bsp_indication_set
    main.o(i.ble_evt_handler) refers to app_error.o(i.app_error_handler_bare) for app_error_handler_bare
==============================================================================

Removing Unused input sections from the image.

    Removing main.o(.rev16_text), (4 bytes).
    Removing main.o(.revsh_text), (4 bytes).
    Removing main.o(.rrx_text), (6 bytes).
    Removing main.o(i.assert_nrf_callback), (16 bytes).
    Removing main.o(i.bsp_event_handler), (76 bytes).
    Removing main.o(.bss), (16 bytes).
    Removing main.o(.data), (10 bytes).
    Removing main.o(.data), (16 bytes).
    Removing main.o(.data), (16 bytes).
    Removing main.o(.data), (6 bytes).
    Removing protocol_analysis.o(.rev16_text), (4 bytes).
    Removing protocol_analysis.o(.revsh_text), (4 bytes).
    Removing protocol_analysis.o(.rrx_text), (6 bytes).
    Removing protocol_analysis.o(i.regRevAppDataCb), (12 bytes).
    Removing somputon_ble_datahandle.o(.rev16_text), (4 bytes).
    Removing somputon_ble_datahandle.o(.revsh_text), (4 bytes).
    Removing somputon_ble_datahandle.o(.rrx_text), (6 bytes).
    Removing somputon_ble_datahandle.o(i.AuthInfo_Request), (2 bytes).
==============================================================================

Image Symbol Table

    Local Symbols

    Symbol Name                              Value     Ov Type        Size  Object(Section)

    ../clib/../cmprslib/zerorunl2.c          0x00000000   Number         0  __dczerorl2.o ABSOLUTE
    ../clib/microlib/ctype/ctype.c           0x00000000   Number         0  isupper_o.o ABSOLUTE
    ../clib/microlib/ctype/ctype.c           0x00000000   Number         0  ctype_o.o ABSOLUTE
    ../clib/microlib/ctype/ctype.c           0x00000000   Number         0  isxdigit_o.o ABSOLUTE
    ../clib/microlib/ctype/ctype.c           0x00000000   Number         0  isspace_o.o ABSOLUTE
    ../clib/microlib/ctype/ctype.c           0x00000000   Number         0  ispunct_o.o ABSOLUTE
    ../clib/microlib/ctype/ctype.c           0x00000000   Number         0  isprint_o.o ABSOLUTE
    ../clib/microlib/ctype/ctype.c           0x00000000   Number         0  islower_o.o ABSOLUTE
    ../clib/microlib/ctype/ctype.c           0x00000000   Number         0  isgraph_o.o ABSOLUTE
    ../clib/microlib/ctype/ctype.c           0x00000000   Number         0  isdigit_o.o ABSOLUTE
    ../clib/microlib/ctype/ctype.c           0x00000000   Number         0  iscntrl_o.o ABSOLUTE
    ../clib/microlib/ctype/ctype.c           0x00000000   Number         0  isblank_o.o ABSOLUTE
    ../clib/microlib/ctype/ctype.c           0x00000000   Number         0  isalpha_o.o ABSOLUTE
    ../clib/microlib/ctype/ctype.c           0x00000000   Number         0  isalnum_o.o ABSOLUTE
    ../clib/microlib/division.c              0x00000000   Number         0  uldiv.o ABSOLUTE
    ../clib/microlib/division.c              0x00000000   Number         0  uidiv.o ABSOLUTE
    ../clib/microlib/init/entry.s            0x00000000   Number         0  entry7b.o ABSOLUTE
    ../clib/microlib/init/entry.s            0x00000000   Number         0  entry8a.o ABSOLUTE
    ../clib/microlib/init/entry.s            0x00000000   Number         0  entry8b.o ABSOLUTE
    ../clib/microlib/init/entry.s            0x00000000   Number         0  entry11a.o ABSOLUTE
    ../clib/microlib/init/entry.s            0x00000000   Number         0  entry9a.o ABSOLUTE
    ../clib/microlib/init/entry.s            0x00000000   Number         0  entry9b.o ABSOLUTE
    ../clib/microlib/init/entry.s            0x00000000   Number         0  entry2.o ABSOLUTE
    ../clib/microlib/init/entry.s            0x00000000   Number         0  entry5.o ABSOLUTE
    ../clib/microlib/init/entry.s            0x00000000   Number         0  entry10a.o ABSOLUTE
    ../clib/microlib/init/entry.s            0x00000000   Number         0  entry7a.o ABSOLUTE
    ../clib/microlib/init/entry.s            0x00000000   Number         0  entry11b.o ABSOLUTE
    ../clib/microlib/init/entry.s            0x00000000   Number         0  entry.o ABSOLUTE
    ../clib/microlib/init/entry.s            0x00000000   Number         0  entry10b.o ABSOLUTE
    ../clib/microlib/longlong.c              0x00000000   Number         0  llsshr.o ABSOLUTE
    ../clib/microlib/longlong.c              0x00000000   Number         0  llushr.o ABSOLUTE
    ../clib/microlib/longlong.c              0x00000000   Number         0  llshl.o ABSOLUTE
    ../clib/microlib/printf/printf.c         0x00000000   Number         0  printf4.o ABSOLUTE
    ../clib/microlib/printf/printf.c         0x00000000   Number         0  printf1.o ABSOLUTE
    ../clib/microlib/printf/printf.c         0x00000000   Number         0  printf2.o ABSOLUTE
    ../clib/microlib/printf/printf.c         0x00000000   Number         0  printf5.o ABSOLUTE
    ../clib/microlib/printf/printf.c         0x00000000   Number         0  printf0.o ABSOLUTE
    ../clib/microlib/printf/printf.c         0x00000000   Number         0  printfb.o ABSOLUTE
    ../clib/microlib/printf/printf.c         0x00000000   Number         0  printf3.o ABSOLUTE
    ../clib/microlib/printf/printf.c         0x00000000   Number         0  printf6.o ABSOLUTE
    ../clib/microlib/printf/printf.c         0x00000000   Number         0  printf7.o ABSOLUTE
    ../clib/microlib/printf/printf.c         0x00000000   Number         0  printf8.o ABSOLUTE
    ../clib/microlib/printf/printf.c         0x00000000   Number         0  printfa.o ABSOLUTE
    ../clib/microlib/printf/stubs.s          0x00000000   Number         0  stubs.o ABSOLUTE
    ../clib/microlib/string/memcpy.c         0x00000000   Number         0  memcpyb.o ABSOLUTE
    ../clib/microlib/string/memcpy.c         0x00000000   Number         0  memcpya.o ABSOLUTE
    ../clib/microlib/string/memset.c         0x00000000   Number         0  memseta.o ABSOLUTE
    ../clib/microlib/string/strcpy.c         0x00000000   Number         0  strcpy.o ABSOLUTE
    ../clib/microlib/string/strlen.c         0x00000000   Number         0  strlen.o ABSOLUTE
    ../clib/microlib/stubs.s                 0x00000000   Number         0  iusefp.o ABSOLUTE
    ../fplib/microlib/fpadd.c                0x00000000   Number         0  dadd.o ABSOLUTE
    ../fplib/microlib/fpdiv.c                0x00000000   Number         0  ddiv.o ABSOLUTE
    ../fplib/microlib/fpepilogue.c           0x00000000   Number         0  depilogue.o ABSOLUTE
    ../fplib/microlib/fpfix.c                0x00000000   Number         0  dfixul.o ABSOLUTE
    ../fplib/microlib/fpmul.c                0x00000000   Number         0  dmul.o ABSOLUTE
    ..\..\..\..\..\..\components\ble\ble_advertising\ble_advertising.c 0x00000000   Number         0  ble_advertising.o ABSOLUTE
    ..\..\..\..\..\..\components\ble\ble_services\ble_dfu\ble_dfu.c 0x00000000   Number         0  ble_dfu.o ABSOLUTE
    ..\..\..\..\..\..\components\ble\ble_services\ble_dfu\ble_dfu_bonded.c 0x00000000   Number         0  ble_dfu_bonded.o ABSOLUTE
    ..\..\..\..\..\..\components\ble\ble_services\ble_dfu\ble_dfu_unbonded.c 0x00000000   Number         0  ble_dfu_unbonded.o ABSOLUTE
    ..\..\..\..\..\..\components\ble\ble_services\ble_nus\ble_nus.c 0x00000000   Number         0  ble_nus.o ABSOLUTE
    ..\..\..\..\..\..\components\ble\common\ble_advdata.c 0x00000000   Number         0  ble_advdata.o ABSOLUTE
    ..\..\..\..\..\..\components\ble\common\ble_conn_params.c 0x00000000   Number         0  ble_conn_params.o ABSOLUTE
    ..\..\..\..\..\..\components\ble\common\ble_conn_state.c 0x00000000   Number         0  ble_conn_state.o ABSOLUTE
    ..\..\..\..\..\..\components\ble\common\ble_srv_common.c 0x00000000   Number         0  ble_srv_common.o ABSOLUTE
    ..\..\..\..\..\..\components\ble\nrf_ble_gatt\nrf_ble_gatt.c 0x00000000   Number         0  nrf_ble_gatt.o ABSOLUTE
    ..\..\..\..\..\..\components\boards\boards.c 0x00000000   Number         0  boards.o ABSOLUTE
    ..\..\..\..\..\..\components\drivers_nrf\clock\nrf_drv_clock.c 0x00000000   Number         0  nrf_drv_clock.o ABSOLUTE
    ..\..\..\..\..\..\components\drivers_nrf\common\nrf_drv_common.c 0x00000000   Number         0  nrf_drv_common.o ABSOLUTE
    ..\..\..\..\..\..\components\drivers_nrf\gpiote\nrf_drv_gpiote.c 0x00000000   Number         0  nrf_drv_gpiote.o ABSOLUTE
    ..\..\..\..\..\..\components\drivers_nrf\hal\nrf_ecb.c 0x00000000   Number         0  nrf_ecb.o ABSOLUTE
    ..\..\..\..\..\..\components\drivers_nrf\ppi\nrf_drv_ppi.c 0x00000000   Number         0  nrf_drv_ppi.o ABSOLUTE
    ..\..\..\..\..\..\components\drivers_nrf\uart\nrf_drv_uart.c 0x00000000   Number         0  nrf_drv_uart.o ABSOLUTE
    ..\..\..\..\..\..\components\libraries\atomic_fifo\nrf_atfifo.c 0x00000000   Number         0  nrf_atfifo.o ABSOLUTE
    ..\..\..\..\..\..\components\libraries\balloc\nrf_balloc.c 0x00000000   Number         0  nrf_balloc.o ABSOLUTE
    ..\..\..\..\..\..\components\libraries\bootloader\dfu\nrf_dfu_svci.c 0x00000000   Number         0  nrf_dfu_svci.o ABSOLUTE
    ..\..\..\..\..\..\components\libraries\bsp\bsp.c 0x00000000   Number         0  bsp.o ABSOLUTE
    ..\..\..\..\..\..\components\libraries\bsp\bsp_btn_ble.c 0x00000000   Number         0  bsp_btn_ble.o ABSOLUTE
    ..\..\..\..\..\..\components\libraries\bsp\bsp_nfc.c 0x00000000   Number         0  bsp_nfc.o ABSOLUTE
    ..\..\..\..\..\..\components\libraries\button\app_button.c 0x00000000   Number         0  app_button.o ABSOLUTE
    ..\..\..\..\..\..\components\libraries\experimental_log\src\nrf_log_backend_rtt.c 0x00000000   Number         0  nrf_log_backend_rtt.o ABSOLUTE
    ..\..\..\..\..\..\components\libraries\experimental_log\src\nrf_log_backend_serial.c 0x00000000   Number         0  nrf_log_backend_serial.o ABSOLUTE
    ..\..\..\..\..\..\components\libraries\experimental_log\src\nrf_log_default_backends.c 0x00000000   Number         0  nrf_log_default_backends.o ABSOLUTE
    ..\..\..\..\..\..\components\libraries\experimental_log\src\nrf_log_frontend.c 0x00000000   Number         0  nrf_log_frontend.o ABSOLUTE
    ..\..\..\..\..\..\components\libraries\experimental_log\src\nrf_log_str_formatter.c 0x00000000   Number         0  nrf_log_str_formatter.o ABSOLUTE
    ..\..\..\..\..\..\components\libraries\experimental_memobj\nrf_memobj.c 0x00000000   Number         0  nrf_memobj.o ABSOLUTE
    ..\..\..\..\..\..\components\libraries\experimental_section_vars\nrf_section_iter.c 0x00000000   Number         0  nrf_section_iter.o ABSOLUTE
    ..\..\..\..\..\..\components\libraries\fifo\app_fifo.c 0x00000000   Number         0  app_fifo.o ABSOLUTE
    ..\..\..\..\..\..\components\libraries\fstorage\nrf_fstorage.c 0x00000000   Number         0  nrf_fstorage.o ABSOLUTE
    ..\..\..\..\..\..\components\libraries\fstorage\nrf_fstorage_sd.c 0x00000000   Number         0  nrf_fstorage_sd.o ABSOLUTE
    ..\..\..\..\..\..\components\libraries\hardfault\hardfault_implementation.c 0x00000000   Number         0  hardfault_implementation.o ABSOLUTE
    ..\..\..\..\..\..\components\libraries\pwr_mgmt\nrf_pwr_mgmt.c 0x00000000   Number         0  nrf_pwr_mgmt.o ABSOLUTE
    ..\..\..\..\..\..\components\libraries\scheduler\app_scheduler.c 0x00000000   Number         0  app_scheduler.o ABSOLUTE
    ..\..\..\..\..\..\components\libraries\strerror\nrf_strerror.c 0x00000000   Number         0  nrf_strerror.o ABSOLUTE
    ..\..\..\..\..\..\components\libraries\timer\app_timer.c 0x00000000   Number         0  app_timer.o ABSOLUTE
    ..\..\..\..\..\..\components\libraries\uart\app_uart_fifo.c 0x00000000   Number         0  app_uart_fifo.o ABSOLUTE
    ..\..\..\..\..\..\components\libraries\uart\retarget.c 0x00000000   Number         0  retarget.o ABSOLUTE
    ..\..\..\..\..\..\components\libraries\util\app_error.c 0x00000000   Number         0  app_error.o ABSOLUTE
    ..\..\..\..\..\..\components\libraries\util\app_error_weak.c 0x00000000   Number         0  app_error_weak.o ABSOLUTE
    ..\..\..\..\..\..\components\libraries\util\app_util_platform.c 0x00000000   Number         0  app_util_platform.o ABSOLUTE
    ..\..\..\..\..\..\components\libraries\util\nrf_assert.c 0x00000000   Number         0  nrf_assert.o ABSOLUTE
    ..\..\..\..\..\..\components\libraries\util\sdk_mapped_flags.c 0x00000000   Number         0  sdk_mapped_flags.o ABSOLUTE
    ..\..\..\..\..\..\components\softdevice\common\nrf_sdh.c 0x00000000   Number         0  nrf_sdh.o ABSOLUTE
    ..\..\..\..\..\..\components\softdevice\common\nrf_sdh_ble.c 0x00000000   Number         0  nrf_sdh_ble.o ABSOLUTE
    ..\..\..\..\..\..\components\softdevice\common\nrf_sdh_soc.c 0x00000000   Number         0  nrf_sdh_soc.o ABSOLUTE
    ..\..\..\..\..\..\external\fprintf\nrf_fprintf.c 0x00000000   Number         0  nrf_fprintf.o ABSOLUTE
    ..\..\..\..\..\..\external\fprintf\nrf_fprintf_format.c 0x00000000   Number         0  nrf_fprintf_format.o ABSOLUTE
    ..\..\..\..\..\..\external\segger_rtt\SEGGER_RTT.c 0x00000000   Number         0  segger_rtt.o ABSOLUTE
    ..\..\..\..\..\..\external\segger_rtt\SEGGER_RTT_Syscalls_KEIL.c 0x00000000   Number         0  segger_rtt_syscalls_keil.o ABSOLUTE
    ..\..\..\..\..\..\external\segger_rtt\SEGGER_RTT_printf.c 0x00000000   Number         0  segger_rtt_printf.o ABSOLUTE
    ..\..\..\main.c                          0x00000000   Number         0  main.o ABSOLUTE
    ..\\..\\..\\..\\..\\..\\components\\ble\\ble_advertising\\ble_advertising.c 0x00000000   Number         0  ble_advertising.o ABSOLUTE
    ..\\..\\..\\..\\..\\..\\components\\ble\\ble_services\\ble_dfu\\ble_dfu.c 0x00000000   Number         0  ble_dfu.o ABSOLUTE
    ..\\..\\..\\..\\..\\..\\components\\ble\\ble_services\\ble_dfu\\ble_dfu_bonded.c 0x00000000   Number         0  ble_dfu_bonded.o ABSOLUTE
    ..\\..\\..\\..\\..\\..\\components\\ble\\ble_services\\ble_dfu\\ble_dfu_unbonded.c 0x00000000   Number         0  ble_dfu_unbonded.o ABSOLUTE
    ..\\..\\..\\..\\..\\..\\components\\ble\\ble_services\\ble_nus\\ble_nus.c 0x00000000   Number         0  ble_nus.o ABSOLUTE
    ..\\..\\..\\..\\..\\..\\components\\ble\\common\\ble_advdata.c 0x00000000   Number         0  ble_advdata.o ABSOLUTE
    ..\\..\\..\\..\\..\\..\\components\\ble\\common\\ble_conn_params.c 0x00000000   Number         0  ble_conn_params.o ABSOLUTE
    ..\\..\\..\\..\\..\\..\\components\\ble\\common\\ble_conn_state.c 0x00000000   Number         0  ble_conn_state.o ABSOLUTE
    ..\\..\\..\\..\\..\\..\\components\\ble\\common\\ble_srv_common.c 0x00000000   Number         0  ble_srv_common.o ABSOLUTE
    ..\\..\\..\\..\\..\\..\\components\\ble\\nrf_ble_gatt\\nrf_ble_gatt.c 0x00000000   Number         0  nrf_ble_gatt.o ABSOLUTE
    ..\\..\\..\\..\\..\\..\\components\\boards\\boards.c 0x00000000   Number         0  boards.o ABSOLUTE
    ..\\..\\..\\..\\..\\..\\components\\drivers_nrf\\clock\\nrf_drv_clock.c 0x00000000   Number         0  nrf_drv_clock.o ABSOLUTE
    ..\\..\\..\\..\\..\\..\\components\\drivers_nrf\\common\\nrf_drv_common.c 0x00000000   Number         0  nrf_drv_common.o ABSOLUTE
    ..\\..\\..\\..\\..\\..\\components\\drivers_nrf\\gpiote\\nrf_drv_gpiote.c 0x00000000   Number         0  nrf_drv_gpiote.o ABSOLUTE
    ..\\..\\..\\..\\..\\..\\components\\drivers_nrf\\hal\\nrf_ecb.c 0x00000000   Number         0  nrf_ecb.o ABSOLUTE
    ..\\..\\..\\..\\..\\..\\components\\drivers_nrf\\ppi\\nrf_drv_ppi.c 0x00000000   Number         0  nrf_drv_ppi.o ABSOLUTE
    ..\\..\\..\\..\\..\\..\\components\\drivers_nrf\\uart\\nrf_drv_uart.c 0x00000000   Number         0  nrf_drv_uart.o ABSOLUTE
    ..\\..\\..\\..\\..\\..\\components\\libraries\\atomic_fifo\\nrf_atfifo.c 0x00000000   Number         0  nrf_atfifo.o ABSOLUTE
    ..\\..\\..\\..\\..\\..\\components\\libraries\\balloc\\nrf_balloc.c 0x00000000   Number         0  nrf_balloc.o ABSOLUTE
    ..\\..\\..\\..\\..\\..\\components\\libraries\\bootloader\\dfu\\nrf_dfu_svci.c 0x00000000   Number         0  nrf_dfu_svci.o ABSOLUTE
    ..\\..\\..\\..\\..\\..\\components\\libraries\\bsp\\bsp.c 0x00000000   Number         0  bsp.o ABSOLUTE
    ..\\..\\..\\..\\..\\..\\components\\libraries\\bsp\\bsp_btn_ble.c 0x00000000   Number         0  bsp_btn_ble.o ABSOLUTE
    ..\\..\\..\\..\\..\\..\\components\\libraries\\bsp\\bsp_nfc.c 0x00000000   Number         0  bsp_nfc.o ABSOLUTE
    ..\\..\\..\\..\\..\\..\\components\\libraries\\button\\app_button.c 0x00000000   Number         0  app_button.o ABSOLUTE
    ..\\..\\..\\..\\..\\..\\components\\libraries\\experimental_log\\src\\nrf_log_backend_rtt.c 0x00000000   Number         0  nrf_log_backend_rtt.o ABSOLUTE
    ..\\..\\..\\..\\..\\..\\components\\libraries\\experimental_log\\src\\nrf_log_backend_serial.c 0x00000000   Number         0  nrf_log_backend_serial.o ABSOLUTE
    ..\\..\\..\\..\\..\\..\\components\\libraries\\experimental_log\\src\\nrf_log_default_backends.c 0x00000000   Number         0  nrf_log_default_backends.o ABSOLUTE
    ..\\..\\..\\..\\..\\..\\components\\libraries\\experimental_log\\src\\nrf_log_frontend.c 0x00000000   Number         0  nrf_log_frontend.o ABSOLUTE
    ..\\..\\..\\..\\..\\..\\components\\libraries\\experimental_log\\src\\nrf_log_str_formatter.c 0x00000000   Number         0  nrf_log_str_formatter.o ABSOLUTE
    ..\\..\\..\\..\\..\\..\\components\\libraries\\experimental_memobj\\nrf_memobj.c 0x00000000   Number         0  nrf_memobj.o ABSOLUTE
    ..\\..\\..\\..\\..\\..\\components\\libraries\\experimental_section_vars\\nrf_section_iter.c 0x00000000   Number         0  nrf_section_iter.o ABSOLUTE
    ..\\..\\..\\..\\..\\..\\components\\libraries\\fifo\\app_fifo.c 0x00000000   Number         0  app_fifo.o ABSOLUTE
    ..\\..\\..\\..\\..\\..\\components\\libraries\\fstorage\\nrf_fstorage_sd.c 0x00000000   Number         0  nrf_fstorage_sd.o ABSOLUTE
    ..\\..\\..\\..\\..\\..\\components\\libraries\\hardfault\\hardfault_implementation.c 0x00000000   Number         0  hardfault_implementation.o ABSOLUTE
    ..\\..\\..\\..\\..\\..\\components\\libraries\\pwr_mgmt\\nrf_pwr_mgmt.c 0x00000000   Number         0  nrf_pwr_mgmt.o ABSOLUTE
    ..\\..\\..\\..\\..\\..\\components\\libraries\\scheduler\\app_scheduler.c 0x00000000   Number         0  app_scheduler.o ABSOLUTE
    ..\\..\\..\\..\\..\\..\\components\\libraries\\strerror\\nrf_strerror.c 0x00000000   Number         0  nrf_strerror.o ABSOLUTE
    ..\\..\\..\\..\\..\\..\\components\\libraries\\timer\\app_timer.c 0x00000000   Number         0  app_timer.o ABSOLUTE
    ..\\..\\..\\..\\..\\..\\components\\libraries\\uart\\app_uart_fifo.c 0x00000000   Number         0  app_uart_fifo.o ABSOLUTE
    ..\\..\\..\\..\\..\\..\\components\\libraries\\uart\\retarget.c 0x00000000   Number         0  retarget.o ABSOLUTE
    ..\\..\\..\\..\\..\\..\\components\\libraries\\util\\app_error.c 0x00000000   Number         0  app_error.o ABSOLUTE
    ..\\..\\..\\..\\..\\..\\components\\libraries\\util\\app_error_weak.c 0x00000000   Number         0  app_error_weak.o ABSOLUTE
    ..\\..\\..\\..\\..\\..\\components\\libraries\\util\\app_util_platform.c 0x00000000   Number         0  app_util_platform.o ABSOLUTE
    ..\\..\\..\\..\\..\\..\\components\\libraries\\util\\nrf_assert.c 0x00000000   Number         0  nrf_assert.o ABSOLUTE
    ..\\..\\..\\..\\..\\..\\components\\libraries\\util\\sdk_mapped_flags.c 0x00000000   Number         0  sdk_mapped_flags.o ABSOLUTE
    ..\\..\\..\\..\\..\\..\\components\\softdevice\\common\\nrf_sdh.c 0x00000000   Number         0  nrf_sdh.o ABSOLUTE
    ..\\..\\..\\..\\..\\..\\components\\softdevice\\common\\nrf_sdh_ble.c 0x00000000   Number         0  nrf_sdh_ble.o ABSOLUTE
    ..\\..\\..\\..\\..\\..\\components\\softdevice\\common\\nrf_sdh_soc.c 0x00000000   Number         0  nrf_sdh_soc.o ABSOLUTE
    ..\\..\\..\\..\\..\\..\\external\\fprintf\\nrf_fprintf.c 0x00000000   Number         0  nrf_fprintf.o ABSOLUTE
    ..\\..\\..\\..\\..\\..\\external\\fprintf\\nrf_fprintf_format.c 0x00000000   Number         0  nrf_fprintf_format.o ABSOLUTE
    ..\\..\\..\\..\\..\\..\\external\\segger_rtt\\SEGGER_RTT.c 0x00000000   Number         0  segger_rtt.o ABSOLUTE
    ..\\..\\..\\..\\..\\..\\external\\segger_rtt\\SEGGER_RTT_printf.c 0x00000000   Number         0  segger_rtt_printf.o ABSOLUTE
    ..\\..\\..\\main.c                       0x00000000   Number         0  main.o ABSOLUTE
    NUS_Maser_DataHanle.c                    0x00000000   Number         0  nus_maser_datahanle.o ABSOLUTE
    NUS_Maser_DataHanle.c                    0x00000000   Number         0  nus_maser_datahanle.o ABSOLUTE
    Protocol_Analysis.c                      0x00000000   Number         0  protocol_analysis.o ABSOLUTE
    Protocol_Analysis.c                      0x00000000   Number         0  protocol_analysis.o ABSOLUTE
    RTE\Device\nRF52832_xxAA\arm_startup_nrf52.s 0x00000000   Number         0  arm_startup_nrf52.o ABSOLUTE
    RTE\Device\nRF52832_xxAA\system_nrf52.c  0x00000000   Number         0  system_nrf52.o ABSOLUTE
    RTE\\Device\\nRF52832_xxAA\\system_nrf52.c 0x00000000   Number         0  system_nrf52.o ABSOLUTE
    Somputon_BLE_DataHandle.c                0x00000000   Number         0  somputon_ble_datahandle.o ABSOLUTE
    Somputon_BLE_DataHandle.c                0x00000000   Number         0  somputon_ble_datahandle.o ABSOLUTE
    System_Variable.c                        0x00000000   Number         0  system_variable.o ABSOLUTE
    System_Variable.c                        0x00000000   Number         0  system_variable.o ABSOLUTE
    app_work_handle.c                        0x00000000   Number         0  app_work_handle.o ABSOLUTE
    app_work_handle.c                        0x00000000   Number         0  app_work_handle.o ABSOLUTE
    cdrcmple.s                               0x00000000   Number         0  cdrcmple.o ABSOLUTE
    data_send_handle.c                       0x00000000   Number         0  data_send_handle.o ABSOLUTE
    data_send_handle.c                       0x00000000   Number         0  data_send_handle.o ABSOLUTE
    dc.s                                     0x00000000   Number         0  dc.o ABSOLUTE
    handlers.s                               0x00000000   Number         0  handlers.o ABSOLUTE
    init.s                                   0x00000000   Number         0  init.o ABSOLUTE
    led_control.c                            0x00000000   Number         0  led_control.o ABSOLUTE
    led_control.c                            0x00000000   Number         0  led_control.o ABSOLUTE
    pa_lna.c                                 0x00000000   Number         0  pa_lna.o ABSOLUTE
    pa_lna.c                                 0x00000000   Number         0  pa_lna.o ABSOLUTE
    slava_device_data.c                      0x00000000   Number         0  slava_device_data.o ABSOLUTE
    slava_device_data.c                      0x00000000   Number         0  slava_device_data.o ABSOLUTE
    sync_time.c                              0x00000000   Number         0  sync_time.o ABSOLUTE
    timer.c                                  0x00000000   Number         0  timer.o ABSOLUTE
    timer.c                                  0x00000000   Number         0  timer.o ABSOLUTE
    uart_data_send_proc.c                    0x00000000   Number         0  uart_data_send_proc.o ABSOLUTE
    uart_data_send_proc.c                    0x00000000   Number         0  uart_data_send_proc.o ABSOLUTE
    uart_queue.c                             0x00000000   Number         0  uart_queue.o ABSOLUTE
    uart_queue.c                             0x00000000   Number         0  uart_queue.o ABSOLUTE
    RESET                                    0x00023000   Section      512  arm_startup_nrf52.o(RESET)
    .ARM.Collect$$$$00000000                 0x00023200   Section        0  entry.o(.ARM.Collect$$$$00000000)
    .ARM.Collect$$$$00000001                 0x00023200   Section        4  entry2.o(.ARM.Collect$$$$00000001)
    .ARM.Collect$$$$00000004                 0x00023204   Section        4  entry5.o(.ARM.Collect$$$$00000004)
    .ARM.Collect$$$$00000008                 0x00023208   Section        0  entry7b.o(.ARM.Collect$$$$00000008)
    .ARM.Collect$$$$0000000A                 0x00023208   Section        0  entry8b.o(.ARM.Collect$$$$0000000A)
    .ARM.Collect$$$$0000000B                 0x00023208   Section        8  entry9a.o(.ARM.Collect$$$$0000000B)
    .ARM.Collect$$$$0000000D                 0x00023210   Section        0  entry10a.o(.ARM.Collect$$$$0000000D)
    .ARM.Collect$$$$0000000F                 0x00023210   Section        0  entry11a.o(.ARM.Collect$$$$0000000F)
    .ARM.Collect$$$$00002712                 0x00023210   Section        4  entry2.o(.ARM.Collect$$$$00002712)
    __lit__00000000                          0x00023210   Data           4  entry2.o(.ARM.Collect$$$$00002712)
    .emb_text                                0x00023214   Section      200  nrf_atfifo.o(.emb_text)
    $v0                                      0x00023214   Number         0  nrf_atfifo.o(.emb_text)
    .emb_text                                0x000232dc   Section      154  nrf_memobj.o(.emb_text)
    $v0                                      0x000232dc   Number         0  nrf_memobj.o(.emb_text)
    .emb_text                                0x00023378   Section      154  nrf_pwr_mgmt.o(.emb_text)
    $v0                                      0x00023378   Number         0  nrf_pwr_mgmt.o(.emb_text)
    .emb_text                                0x00023414   Section      154  nrf_log_frontend.o(.emb_text)
    $v0                                      0x00023414   Number         0  nrf_log_frontend.o(.emb_text)
    .text                                    0x000234b0   Section       36  arm_startup_nrf52.o(.text)
    $v0                                      0x000234b0   Number         0  arm_startup_nrf52.o(.text)
    .text                                    0x000234d4   Section        0  uldiv.o(.text)
    .text                                    0x00023538   Section        0  ctype_o.o(.text)
    .text                                    0x00023540   Section        0  memcpya.o(.text)
    .text                                    0x00023564   Section        0  memseta.o(.text)
    .text                                    0x00023588   Section        0  strlen.o(.text)
    .text                                    0x00023596   Section        0  strcpy.o(.text)
    .text                                    0x000235a8   Section        0  llshl.o(.text)
    .text                                    0x000235c6   Section        0  llushr.o(.text)
    .text                                    0x000235e8   Section       36  init.o(.text)
    .text                                    0x0002360c   Section        0  __dczerorl2.o(.text)
    i.App_RecvHandler                        0x00023664   Section        0  protocol_analysis.o(i.App_RecvHandler)
    i.Crc8                                   0x000236ec   Section        0  nus_maser_datahanle.o(i.Crc8)
    i.GPIOTE_IRQHandler                      0x0002373c   Section        0  nrf_drv_gpiote.o(i.GPIOTE_IRQHandler)
    i.HexToStr                               0x000238b0   Section        0  nus_maser_datahanle.o(i.HexToStr)
    i.NVIC_ClearPendingIRQ                   0x00023920   Section        0  app_timer.o(i.NVIC_ClearPendingIRQ)
    NVIC_ClearPendingIRQ                     0x00023921   Thumb Code    22  app_timer.o(i.NVIC_ClearPendingIRQ)
    i.NVIC_EnableIRQ                         0x00023936   Section        0  app_timer.o(i.NVIC_EnableIRQ)
    NVIC_EnableIRQ                           0x00023937   Thumb Code    22  app_timer.o(i.NVIC_EnableIRQ)
    i.NVIC_SetPendingIRQ                     0x0002394c   Section        0  app_timer.o(i.NVIC_SetPendingIRQ)
    NVIC_SetPendingIRQ                       0x0002394d   Thumb Code    22  app_timer.o(i.NVIC_SetPendingIRQ)
    i.NVIC_SetPriority                       0x00023962   Section        0  app_timer.o(i.NVIC_SetPriority)
    NVIC_SetPriority                         0x00023963   Thumb Code    32  app_timer.o(i.NVIC_SetPriority)
    i.POWER_CLOCK_IRQHandler                 0x00023984   Section        0  nrf_drv_clock.o(i.POWER_CLOCK_IRQHandler)
    i.RTC1_IRQHandler                        0x000239dc   Section        0  app_timer.o(i.RTC1_IRQHandler)
    i.SEGGER_RTT_Init                        0x00023a00   Section        0  segger_rtt.o(i.SEGGER_RTT_Init)
    i.SEGGER_RTT_WriteNoLock                 0x00023a04   Section        0  segger_rtt.o(i.SEGGER_RTT_WriteNoLock)
    i.SWI0_EGU0_IRQHandler                   0x00023a60   Section        0  app_timer.o(i.SWI0_EGU0_IRQHandler)
    i.SWI2_EGU2_IRQHandler                   0x00023a64   Section        0  nrf_sdh.o(i.SWI2_EGU2_IRQHandler)
    i.Somputon_Init                          0x00023a68   Section        0  protocol_analysis.o(i.Somputon_Init)
    i.SysRunningHandler                      0x00023a74   Section        0  timer.o(i.SysRunningHandler)
    i.SystemInit                             0x00023acc   Section        0  system_nrf52.o(i.SystemInit)
    i.SystimerTick                           0x00023de8   Section        0  timer.o(i.SystimerTick)
    SystimerTick                             0x00023de9   Thumb Code   104  timer.o(i.SystimerTick)
    i.UART2_Read_Queue                       0x00023e54   Section        0  uart_queue.o(i.UART2_Read_Queue)
    i.UARTE0_UART0_IRQHandler                0x00023e78   Section        0  nrf_drv_uart.o(i.UARTE0_UART0_IRQHandler)
    i.USART2_Write_Queue                     0x00023e94   Section        0  uart_queue.o(i.USART2_Write_Queue)
    i.Uart_App_RecvHandler                   0x00023eb4   Section        0  slava_device_data.o(i.Uart_App_RecvHandler)
    i.User_Get_Addr                          0x00023eec   Section        0  nus_maser_datahanle.o(i.User_Get_Addr)
    i.WIFI_Decode                            0x00023f1c   Section        0  slava_device_data.o(i.WIFI_Decode)
    i._DoInit                                0x00024010   Section        0  segger_rtt.o(i._DoInit)
    _DoInit                                  0x00024011   Thumb Code    76  segger_rtt.o(i._DoInit)
    i._GetAvailWriteSpace                    0x00024078   Section        0  segger_rtt.o(i._GetAvailWriteSpace)
    _GetAvailWriteSpace                      0x00024079   Thumb Code    22  segger_rtt.o(i._GetAvailWriteSpace)
    i._WriteBlocking                         0x0002408e   Section        0  segger_rtt.o(i._WriteBlocking)
    _WriteBlocking                           0x0002408f   Thumb Code    90  segger_rtt.o(i._WriteBlocking)
    i._WriteNoCheck                          0x000240e8   Section        0  segger_rtt.o(i._WriteNoCheck)
    _WriteNoCheck                            0x000240e9   Thumb Code    66  segger_rtt.o(i._WriteNoCheck)
    i.__0printf$8                            0x0002412c   Section        0  printf8.o(i.__0printf$8)
    i.__scatterload_copy                     0x0002414c   Section       14  handlers.o(i.__scatterload_copy)
    i.__scatterload_null                     0x0002415a   Section        2  handlers.o(i.__scatterload_null)
    i.__scatterload_zeroinit                 0x0002415c   Section       14  handlers.o(i.__scatterload_zeroinit)
    i.__sd_nvic_app_accessible_irq           0x0002416c   Section        0  nrf_sdh.o(i.__sd_nvic_app_accessible_irq)
    __sd_nvic_app_accessible_irq             0x0002416d   Thumb Code    32  nrf_sdh.o(i.__sd_nvic_app_accessible_irq)
    i.__sd_nvic_is_app_accessible_priority   0x00024190   Section        0  nrf_sdh.o(i.__sd_nvic_is_app_accessible_priority)
    __sd_nvic_is_app_accessible_priority     0x00024191   Thumb Code    22  nrf_sdh.o(i.__sd_nvic_is_app_accessible_priority)
    i._printf_core                           0x000241a8   Section        0  printf8.o(i._printf_core)
    _printf_core                             0x000241a9   Thumb Code   996  printf8.o(i._printf_core)
    i._printf_post_padding                   0x000245b8   Section        0  printf8.o(i._printf_post_padding)
    _printf_post_padding                     0x000245b9   Thumb Code    36  printf8.o(i._printf_post_padding)
    i._printf_pre_padding                    0x000245dc   Section        0  printf8.o(i._printf_pre_padding)
    _printf_pre_padding                      0x000245dd   Thumb Code    46  printf8.o(i._printf_pre_padding)
    i.advertising_buttons_configure          0x0002460a   Section        0  bsp_btn_ble.o(i.advertising_buttons_configure)
    advertising_buttons_configure            0x0002460b   Thumb Code    54  bsp_btn_ble.o(i.advertising_buttons_configure)
    i.advertising_init                       0x00024640   Section        0  main.o(i.advertising_init)
    i.advertising_init_bond                  0x000246b0   Section        0  main.o(i.advertising_init_bond)
    i.app_cnt_handle                         0x00024724   Section        0  app_work_handle.o(i.app_cnt_handle)
    i.app_connected_token_cnt                0x00024734   Section        0  app_work_handle.o(i.app_connected_token_cnt)
    i.app_error_fault_handler                0x00024754   Section        0  app_error_weak.o(i.app_error_fault_handler)
    i.app_error_handler_bare                 0x000247cc   Section        0  app_error.o(i.app_error_handler_bare)
    i.app_fifo_get                           0x000247e2   Section        0  app_fifo.o(i.app_fifo_get)
    i.app_fifo_init                          0x000247f8   Section        0  app_fifo.o(i.app_fifo_init)
    i.app_fifo_put                           0x00024818   Section        0  app_fifo.o(i.app_fifo_put)
    i.app_timer_create                       0x00024834   Section        0  app_timer.o(i.app_timer_create)
    i.app_timer_init                         0x0002485c   Section        0  app_timer.o(i.app_timer_init)
    i.app_timer_start                        0x000248b0   Section        0  app_timer.o(i.app_timer_start)
    i.app_timer_stop                         0x00024938   Section        0  app_timer.o(i.app_timer_stop)
    i.app_uart_get                           0x00024958   Section        0  app_uart_fifo.o(i.app_uart_get)
    i.app_uart_init                          0x0002498c   Section        0  app_uart_fifo.o(i.app_uart_init)
    i.app_uart_put                           0x00024a40   Section        0  app_uart_fifo.o(i.app_uart_put)
    i.app_util_critical_region_enter         0x00024a7c   Section        0  app_util_platform.o(i.app_util_critical_region_enter)
    i.app_util_critical_region_exit          0x00024ac4   Section        0  app_util_platform.o(i.app_util_critical_region_exit)
    i.apply_config                           0x00024af8   Section        0  nrf_drv_uart.o(i.apply_config)
    apply_config                             0x00024af9   Thumb Code   180  nrf_drv_uart.o(i.apply_config)
    i.big_data_send_proc                     0x00024bb0   Section        0  data_send_handle.o(i.big_data_send_proc)
    i.ble_advdata_encode                     0x00024bd4   Section        0  ble_advdata.o(i.ble_advdata_encode)
    i.ble_advdata_set                        0x00024d56   Section        0  ble_advdata.o(i.ble_advdata_set)
    i.ble_advertising_conn_cfg_tag_set       0x00024dbe   Section        0  ble_advertising.o(i.ble_advertising_conn_cfg_tag_set)
    i.ble_advertising_init                   0x00024dc4   Section        0  ble_advertising.o(i.ble_advertising_init)
    i.ble_advertising_on_ble_evt             0x00024efa   Section        0  ble_advertising.o(i.ble_advertising_on_ble_evt)
    i.ble_advertising_on_sys_evt             0x00024f62   Section        0  ble_advertising.o(i.ble_advertising_on_sys_evt)
    i.ble_advertising_start                  0x00024f94   Section        0  ble_advertising.o(i.ble_advertising_start)
    i.ble_conn_params_init                   0x00025160   Section        0  ble_conn_params.o(i.ble_conn_params_init)
    i.ble_device_addr_encode                 0x000251c8   Section        0  ble_advdata.o(i.ble_device_addr_encode)
    ble_device_addr_encode                   0x000251c9   Thumb Code    96  ble_advdata.o(i.ble_device_addr_encode)
    i.ble_dfu_buttonless_bootloader_start_finalize 0x00025228   Section        0  ble_dfu.o(i.ble_dfu_buttonless_bootloader_start_finalize)
    i.ble_dfu_buttonless_bootloader_start_prepare 0x00025254   Section        0  ble_dfu_unbonded.o(i.ble_dfu_buttonless_bootloader_start_prepare)
    i.ble_dfu_buttonless_on_ble_evt          0x0002526c   Section        0  ble_dfu.o(i.ble_dfu_buttonless_on_ble_evt)
    i.ble_dfu_buttonless_on_ctrl_pt_write    0x00025320   Section        0  ble_dfu_unbonded.o(i.ble_dfu_buttonless_on_ctrl_pt_write)
    i.ble_dfu_buttonless_on_sys_evt          0x000253c0   Section        0  ble_dfu_unbonded.o(i.ble_dfu_buttonless_on_sys_evt)
    i.ble_dfu_buttonless_resp_send           0x0002540c   Section        0  ble_dfu.o(i.ble_dfu_buttonless_resp_send)
    i.ble_evt_handler                        0x00025460   Section        0  main.o(i.ble_evt_handler)
    ble_evt_handler                          0x00025461   Thumb Code   298  main.o(i.ble_evt_handler)
    i.ble_evt_handler                        0x000255a8   Section        0  bsp_btn_ble.o(i.ble_evt_handler)
    ble_evt_handler                          0x000255a9   Thumb Code   106  bsp_btn_ble.o(i.ble_evt_handler)
    i.ble_evt_handler                        0x00025618   Section        0  ble_conn_params.o(i.ble_evt_handler)
    ble_evt_handler                          0x00025619   Thumb Code   242  ble_conn_params.o(i.ble_evt_handler)
    i.ble_evt_handler                        0x00025714   Section        0  ble_conn_state.o(i.ble_evt_handler)
    ble_evt_handler                          0x00025715   Thumb Code   262  ble_conn_state.o(i.ble_evt_handler)
    i.ble_nus_init                           0x00025820   Section        0  ble_nus.o(i.ble_nus_init)
    i.ble_nus_on_ble_evt                     0x00025884   Section        0  ble_nus.o(i.ble_nus_on_ble_evt)
    i.ble_nus_string_send                    0x00025910   Section        0  ble_nus.o(i.ble_nus_string_send)
    i.ble_srv_is_indication_enabled          0x00025958   Section        0  ble_srv_common.o(i.ble_srv_is_indication_enabled)
    i.ble_srv_is_notification_enabled        0x00025960   Section        0  ble_srv_common.o(i.ble_srv_is_notification_enabled)
    i.bond_cmd                               0x00025968   Section        0  somputon_ble_datahandle.o(i.bond_cmd)
    i.bond_cmd_ack                           0x000259c0   Section        0  somputon_ble_datahandle.o(i.bond_cmd_ack)
    i.bond_timeout_cnt                       0x00025a18   Section        0  app_work_handle.o(i.bond_timeout_cnt)
    i.bsp_board_button_idx_to_pin            0x00025a34   Section        0  boards.o(i.bsp_board_button_idx_to_pin)
    i.bsp_board_led_invert                   0x00025a40   Section        0  boards.o(i.bsp_board_led_invert)
    i.bsp_board_led_off                      0x00025a64   Section        0  boards.o(i.bsp_board_led_off)
    i.bsp_board_led_on                       0x00025a74   Section        0  boards.o(i.bsp_board_led_on)
    i.bsp_board_led_state_get                0x00025a84   Section        0  boards.o(i.bsp_board_led_state_get)
    i.bsp_board_leds_off                     0x00025aa4   Section        0  boards.o(i.bsp_board_leds_off)
    i.bsp_board_leds_on                      0x00025ab6   Section        0  boards.o(i.bsp_board_leds_on)
    i.bsp_board_pin_to_button_idx            0x00025ac8   Section        0  boards.o(i.bsp_board_pin_to_button_idx)
    i.bsp_btn_ble_sleep_mode_prepare         0x00025aec   Section        0  bsp_btn_ble.o(i.bsp_btn_ble_sleep_mode_prepare)
    i.bsp_button_event_handler               0x00025b0c   Section        0  bsp.o(i.bsp_button_event_handler)
    bsp_button_event_handler                 0x00025b0d   Thumb Code   132  bsp.o(i.bsp_button_event_handler)
    i.bsp_event_to_button_action_assign      0x00025b9c   Section        0  bsp.o(i.bsp_event_to_button_action_assign)
    i.bsp_indication_set                     0x00025be0   Section        0  bsp.o(i.bsp_indication_set)
    i.bsp_led_indication                     0x00025bf8   Section        0  bsp.o(i.bsp_led_indication)
    bsp_led_indication                       0x00025bf9   Thumb Code   432  bsp.o(i.bsp_led_indication)
    i.bsp_wakeup_button_enable               0x00025db0   Section        0  bsp.o(i.bsp_wakeup_button_enable)
    i.buf_prealloc                           0x00025dc0   Section        0  nrf_log_frontend.o(i.buf_prealloc)
    buf_prealloc                             0x00025dc1   Thumb Code    96  nrf_log_frontend.o(i.buf_prealloc)
    i.buffer_add                             0x00025e24   Section        0  nrf_fprintf_format.o(i.buffer_add)
    buffer_add                               0x00025e25   Thumb Code    30  nrf_fprintf_format.o(i.buffer_add)
    i.buffer_is_empty                        0x00025e44   Section        0  nrf_log_frontend.o(i.buffer_is_empty)
    i.channel_port_get                       0x00025e58   Section        0  nrf_drv_gpiote.o(i.channel_port_get)
    channel_port_get                         0x00025e59   Thumb Code    10  nrf_drv_gpiote.o(i.channel_port_get)
    i.clear_app_connected_cnt                0x00025e68   Section        0  app_work_handle.o(i.clear_app_connected_cnt)
    i.clear_history_data_cmd                 0x00025e74   Section        0  somputon_ble_datahandle.o(i.clear_history_data_cmd)
    i.clock_clk_started_notify               0x00025e78   Section        0  nrf_drv_clock.o(i.clock_clk_started_notify)
    clock_clk_started_notify                 0x00025e79   Thumb Code    34  nrf_drv_clock.o(i.clock_clk_started_notify)
    i.communicate_flag_set                   0x00025ea0   Section        0  app_work_handle.o(i.communicate_flag_set)
    i.compare_reg_update                     0x00025ecc   Section        0  app_timer.o(i.compare_reg_update)
    compare_reg_update                       0x00025ecd   Thumb Code   160  app_timer.o(i.compare_reg_update)
    i.conn_int_encode                        0x00025f78   Section        0  ble_advdata.o(i.conn_int_encode)
    conn_int_encode                          0x00025f79   Thumb Code   136  ble_advdata.o(i.conn_int_encode)
    i.conn_params_error_handler              0x00026000   Section        0  main.o(i.conn_params_error_handler)
    conn_params_error_handler                0x00026001   Thumb Code     4  main.o(i.conn_params_error_handler)
    i.conn_params_negotiation                0x00026004   Section        0  ble_conn_params.o(i.conn_params_negotiation)
    conn_params_negotiation                  0x00026005   Thumb Code    68  ble_conn_params.o(i.conn_params_negotiation)
    i.control_uart_to_nus                    0x0002604c   Section        0  somputon_ble_datahandle.o(i.control_uart_to_nus)
    i.data_send                              0x000260b8   Section        0  data_send_handle.o(i.data_send)
    i.elapsed_ticks_acquire                  0x0002610c   Section        0  app_timer.o(i.elapsed_ticks_acquire)
    elapsed_ticks_acquire                    0x0002610d   Thumb Code    58  app_timer.o(i.elapsed_ticks_acquire)
    i.event_send                             0x0002614c   Section        0  nrf_fstorage_sd.o(i.event_send)
    event_send                               0x0002614d   Thumb Code    78  nrf_fstorage_sd.o(i.event_send)
    i.fifo_get                               0x0002619a   Section        0  app_fifo.o(i.fifo_get)
    fifo_get                                 0x0002619b   Thumb Code    20  app_fifo.o(i.fifo_get)
    i.fifo_put                               0x000261ae   Section        0  app_fifo.o(i.fifo_put)
    fifo_put                                 0x000261af   Thumb Code    18  app_fifo.o(i.fifo_put)
    i.fputc                                  0x000261c0   Section        0  retarget.o(i.fputc)
    i.gap_params_init                        0x000261d0   Section        0  main.o(i.gap_params_init)
    gap_params_init                          0x000261d1   Thumb Code   120  main.o(i.gap_params_init)
    i.gatt_evt_handler                       0x00026258   Section        0  main.o(i.gatt_evt_handler)
    i.gatt_init                              0x000262ac   Section        0  main.o(i.gatt_init)
    i.get_communicate_flag_status            0x000262dc   Section        0  app_work_handle.o(i.get_communicate_flag_status)
    i.get_mac_addr                           0x00026308   Section        0  nus_maser_datahanle.o(i.get_mac_addr)
    i.get_real_time_data_cmd                 0x00026328   Section        0  somputon_ble_datahandle.o(i.get_real_time_data_cmd)
    i.instance_get                           0x0002638c   Section        0  ble_conn_params.o(i.instance_get)
    instance_get                             0x0002638d   Thumb Code    14  ble_conn_params.o(i.instance_get)
    i.int_print                              0x000263a0   Section        0  nrf_fprintf_format.o(i.int_print)
    int_print                                0x000263a1   Thumb Code   166  nrf_fprintf_format.o(i.int_print)
    i.interrupts_enable                      0x00026448   Section        0  nrf_drv_uart.o(i.interrupts_enable)
    interrupts_enable                        0x00026449   Thumb Code   106  nrf_drv_uart.o(i.interrupts_enable)
    i.is_conn_params_ok                      0x000264c0   Section        0  ble_conn_params.o(i.is_conn_params_ok)
    is_conn_params_ok                        0x000264c1   Thumb Code    68  ble_conn_params.o(i.is_conn_params_ok)
    i.led_init                               0x00026504   Section        0  led_control.o(i.led_init)
    i.leds_off                               0x0002653c   Section        0  bsp.o(i.leds_off)
    leds_off                                 0x0002653d   Thumb Code    42  bsp.o(i.leds_off)
    i.lfclk_stop                             0x0002656c   Section        0  nrf_drv_clock.o(i.lfclk_stop)
    lfclk_stop                               0x0002656d   Thumb Code    26  nrf_drv_clock.o(i.lfclk_stop)
    i.link_init                              0x00026594   Section        0  nrf_ble_gatt.o(i.link_init)
    link_init                                0x00026595   Thumb Code    24  nrf_ble_gatt.o(i.link_init)
    i.list_insertions_handler                0x000265ac   Section        0  app_timer.o(i.list_insertions_handler)
    list_insertions_handler                  0x000265ad   Thumb Code   234  app_timer.o(i.list_insertions_handler)
    i.log_skip                               0x000266a4   Section        0  nrf_log_frontend.o(i.log_skip)
    log_skip                                 0x000266a5   Thumb Code   138  nrf_log_frontend.o(i.log_skip)
    i.main                                   0x00026738   Section        0  main.o(i.main)
    i.manuf_specific_data_encode             0x000268a8   Section        0  ble_advdata.o(i.manuf_specific_data_encode)
    manuf_specific_data_encode               0x000268a9   Thumb Code   100  ble_advdata.o(i.manuf_specific_data_encode)
    i.memobj_op                              0x0002690c   Section        0  nrf_memobj.o(i.memobj_op)
    memobj_op                                0x0002690d   Thumb Code   118  nrf_memobj.o(i.memobj_op)
    i.module_idx_get                         0x00026984   Section        0  nrf_log_frontend.o(i.module_idx_get)
    module_idx_get                           0x00026985   Thumb Code    48  nrf_log_frontend.o(i.module_idx_get)
    i.name_encode                            0x000269b8   Section        0  ble_advdata.o(i.name_encode)
    name_encode                              0x000269b9   Thumb Code   156  ble_advdata.o(i.name_encode)
    i.nrf_atfifo_item_free                   0x00026a54   Section        0  nrf_atfifo.o(i.nrf_atfifo_item_free)
    i.nrf_atfifo_item_get                    0x00026a6a   Section        0  nrf_atfifo.o(i.nrf_atfifo_item_get)
    i.nrf_atomic_flag_set                    0x00026a80   Section        0  nrf_log_frontend.o(i.nrf_atomic_flag_set)
    nrf_atomic_flag_set                      0x00026a81   Thumb Code    14  nrf_log_frontend.o(i.nrf_atomic_flag_set)
    i.nrf_balloc_alloc                       0x00026a8e   Section        0  nrf_balloc.o(i.nrf_balloc_alloc)
    i.nrf_balloc_free                        0x00026ad2   Section        0  nrf_balloc.o(i.nrf_balloc_free)
    i.nrf_balloc_init                        0x00026b02   Section        0  nrf_balloc.o(i.nrf_balloc_init)
    i.nrf_bitmask_bit_is_set                 0x00026b32   Section        0  nrf_drv_gpiote.o(i.nrf_bitmask_bit_is_set)
    nrf_bitmask_bit_is_set                   0x00026b33   Thumb Code    16  nrf_drv_gpiote.o(i.nrf_bitmask_bit_is_set)
    i.nrf_ble_gatt_att_mtu_periph_set        0x00026b42   Section        0  nrf_ble_gatt.o(i.nrf_ble_gatt_att_mtu_periph_set)
    i.nrf_ble_gatt_init                      0x00026b5a   Section        0  nrf_ble_gatt.o(i.nrf_ble_gatt_init)
    i.nrf_ble_gatt_on_ble_evt                0x00026b7c   Section        0  nrf_ble_gatt.o(i.nrf_ble_gatt_on_ble_evt)
    i.nrf_clock_event_check                  0x00026cc4   Section        0  nrf_drv_clock.o(i.nrf_clock_event_check)
    nrf_clock_event_check                    0x00026cc5   Thumb Code    14  nrf_drv_clock.o(i.nrf_clock_event_check)
    i.nrf_clock_event_clear                  0x00026cd2   Section        0  nrf_drv_clock.o(i.nrf_clock_event_clear)
    nrf_clock_event_clear                    0x00026cd3   Thumb Code    16  nrf_drv_clock.o(i.nrf_clock_event_clear)
    i.nrf_delay_us                           0x00026ce4   Section        0  app_timer.o(i.nrf_delay_us)
    nrf_delay_us                             0x00026ce5   Thumb Code   132  app_timer.o(i.nrf_delay_us)
    i.nrf_drv_clock_init                     0x00026d70   Section        0  nrf_drv_clock.o(i.nrf_drv_clock_init)
    i.nrf_drv_clock_lfclk_release            0x00026db8   Section        0  nrf_drv_clock.o(i.nrf_drv_clock_lfclk_release)
    i.nrf_drv_common_irq_enable              0x00026de4   Section        0  nrf_drv_common.o(i.nrf_drv_common_irq_enable)
    i.nrf_drv_get_IRQn                       0x00026e1c   Section        0  nrf_drv_uart.o(i.nrf_drv_get_IRQn)
    nrf_drv_get_IRQn                         0x00026e1d   Thumb Code     6  nrf_drv_uart.o(i.nrf_drv_get_IRQn)
    i.nrf_drv_is_in_RAM                      0x00026e22   Section        0  nrf_drv_uart.o(i.nrf_drv_is_in_RAM)
    nrf_drv_is_in_RAM                        0x00026e23   Thumb Code    16  nrf_drv_uart.o(i.nrf_drv_is_in_RAM)
    i.nrf_drv_uart_init                      0x00026e34   Section        0  nrf_drv_uart.o(i.nrf_drv_uart_init)
    i.nrf_drv_uart_rx                        0x00026e9c   Section        0  nrf_drv_uart.o(i.nrf_drv_uart_rx)
    i.nrf_drv_uart_rx_enable                 0x00026f4c   Section        0  nrf_drv_uart.o(i.nrf_drv_uart_rx_enable)
    i.nrf_drv_uart_rx_for_uart               0x00026f7c   Section        0  nrf_drv_uart.o(i.nrf_drv_uart_rx_for_uart)
    nrf_drv_uart_rx_for_uart                 0x00026f7d   Thumb Code   162  nrf_drv_uart.o(i.nrf_drv_uart_rx_for_uart)
    i.nrf_drv_uart_rx_for_uarte              0x00027024   Section        0  nrf_drv_uart.o(i.nrf_drv_uart_rx_for_uarte)
    nrf_drv_uart_rx_for_uarte                0x00027025   Thumb Code   172  nrf_drv_uart.o(i.nrf_drv_uart_rx_for_uarte)
    i.nrf_drv_uart_tx                        0x000270d4   Section        0  nrf_drv_uart.o(i.nrf_drv_uart_tx)
    i.nrf_drv_uart_tx_in_progress            0x000271e0   Section        0  nrf_drv_uart.o(i.nrf_drv_uart_tx_in_progress)
    i.nrf_fprintf                            0x000271f8   Section        0  nrf_fprintf.o(i.nrf_fprintf)
    i.nrf_fprintf_buffer_flush               0x00027212   Section        0  nrf_fprintf.o(i.nrf_fprintf_buffer_flush)
    i.nrf_fprintf_fmt                        0x0002722a   Section        0  nrf_fprintf_format.o(i.nrf_fprintf_fmt)
    i.nrf_fstorage_is_busy                   0x00027404   Section        0  nrf_fstorage.o(i.nrf_fstorage_is_busy)
    i.nrf_fstorage_sdh_req_handler           0x00027454   Section        0  nrf_fstorage_sd.o(i.nrf_fstorage_sdh_req_handler)
    i.nrf_fstorage_sdh_state_handler         0x0002746c   Section        0  nrf_fstorage_sd.o(i.nrf_fstorage_sdh_state_handler)
    i.nrf_fstorage_sys_evt_handler           0x0002748c   Section        0  nrf_fstorage_sd.o(i.nrf_fstorage_sys_evt_handler)
    i.nrf_gpio_cfg                           0x00027530   Section        0  nrf_drv_uart.o(i.nrf_gpio_cfg)
    nrf_gpio_cfg                             0x00027531   Thumb Code    36  nrf_drv_uart.o(i.nrf_gpio_cfg)
    i.nrf_gpio_cfg_input                     0x00027554   Section        0  nrf_drv_uart.o(i.nrf_gpio_cfg_input)
    nrf_gpio_cfg_input                       0x00027555   Thumb Code    18  nrf_drv_uart.o(i.nrf_gpio_cfg_input)
    i.nrf_gpio_cfg_output                    0x00027566   Section        0  led_control.o(i.nrf_gpio_cfg_output)
    nrf_gpio_cfg_output                      0x00027567   Thumb Code    16  led_control.o(i.nrf_gpio_cfg_output)
    i.nrf_gpio_cfg_output                    0x00027576   Section        0  nrf_drv_uart.o(i.nrf_gpio_cfg_output)
    nrf_gpio_cfg_output                      0x00027577   Thumb Code    20  nrf_drv_uart.o(i.nrf_gpio_cfg_output)
    i.nrf_gpio_cfg_sense_set                 0x0002758a   Section        0  bsp.o(i.nrf_gpio_cfg_sense_set)
    nrf_gpio_cfg_sense_set                   0x0002758b   Thumb Code    34  bsp.o(i.nrf_gpio_cfg_sense_set)
    i.nrf_gpio_cfg_sense_set                 0x000275ac   Section        0  nrf_drv_gpiote.o(i.nrf_gpio_cfg_sense_set)
    nrf_gpio_cfg_sense_set                   0x000275ad   Thumb Code    34  nrf_drv_gpiote.o(i.nrf_gpio_cfg_sense_set)
    i.nrf_gpio_pin_write                     0x000275ce   Section        0  boards.o(i.nrf_gpio_pin_write)
    nrf_gpio_pin_write                       0x000275cf   Thumb Code    22  boards.o(i.nrf_gpio_pin_write)
    i.nrf_gpio_ports_read                    0x000275e4   Section        0  nrf_drv_gpiote.o(i.nrf_gpio_ports_read)
    nrf_gpio_ports_read                      0x000275e5   Thumb Code    34  nrf_drv_gpiote.o(i.nrf_gpio_ports_read)
    i.nrf_gpiote_event_clear                 0x0002760c   Section        0  nrf_drv_gpiote.o(i.nrf_gpiote_event_clear)
    nrf_gpiote_event_clear                   0x0002760d   Thumb Code    16  nrf_drv_gpiote.o(i.nrf_gpiote_event_clear)
    i.nrf_gpiote_event_is_set                0x00027620   Section        0  nrf_drv_gpiote.o(i.nrf_gpiote_event_is_set)
    nrf_gpiote_event_is_set                  0x00027621   Thumb Code    12  nrf_drv_gpiote.o(i.nrf_gpiote_event_is_set)
    i.nrf_log_backend_add                    0x00027630   Section        0  nrf_log_frontend.o(i.nrf_log_backend_add)
    i.nrf_log_backend_rtt_flush              0x00027680   Section        0  nrf_log_backend_rtt.o(i.nrf_log_backend_rtt_flush)
    nrf_log_backend_rtt_flush                0x00027681   Thumb Code     2  nrf_log_backend_rtt.o(i.nrf_log_backend_rtt_flush)
    i.nrf_log_backend_rtt_init               0x00027682   Section        0  nrf_log_backend_rtt.o(i.nrf_log_backend_rtt_init)
    i.nrf_log_backend_rtt_panic_set          0x00027686   Section        0  nrf_log_backend_rtt.o(i.nrf_log_backend_rtt_panic_set)
    nrf_log_backend_rtt_panic_set            0x00027687   Thumb Code     2  nrf_log_backend_rtt.o(i.nrf_log_backend_rtt_panic_set)
    i.nrf_log_backend_rtt_put                0x00027688   Section        0  nrf_log_backend_rtt.o(i.nrf_log_backend_rtt_put)
    nrf_log_backend_rtt_put                  0x00027689   Thumb Code    16  nrf_log_backend_rtt.o(i.nrf_log_backend_rtt_put)
    i.nrf_log_backend_serial_put             0x000276a0   Section        0  nrf_log_backend_serial.o(i.nrf_log_backend_serial_put)
    i.nrf_log_color_id_get                   0x00027774   Section        0  nrf_log_frontend.o(i.nrf_log_color_id_get)
    i.nrf_log_default_backends_init          0x000277a4   Section        0  nrf_log_default_backends.o(i.nrf_log_default_backends_init)
    i.nrf_log_frontend_dequeue               0x000277c0   Section        0  nrf_log_frontend.o(i.nrf_log_frontend_dequeue)
    i.nrf_log_frontend_std_0                 0x000279b0   Section        0  nrf_log_frontend.o(i.nrf_log_frontend_std_0)
    i.nrf_log_frontend_std_1                 0x000279b8   Section        0  nrf_log_frontend.o(i.nrf_log_frontend_std_1)
    i.nrf_log_frontend_std_2                 0x000279c6   Section        0  nrf_log_frontend.o(i.nrf_log_frontend_std_2)
    i.nrf_log_hexdump_entry_process          0x000279d8   Section        0  nrf_log_str_formatter.o(i.nrf_log_hexdump_entry_process)
    i.nrf_log_init                           0x00027a84   Section        0  nrf_log_frontend.o(i.nrf_log_init)
    i.nrf_log_module_cnt_get                 0x00027ae0   Section        0  nrf_log_frontend.o(i.nrf_log_module_cnt_get)
    i.nrf_log_module_name_get                0x00027af4   Section        0  nrf_log_frontend.o(i.nrf_log_module_name_get)
    i.nrf_log_panic                          0x00027b10   Section        0  nrf_log_frontend.o(i.nrf_log_panic)
    i.nrf_log_std_entry_process              0x00027b38   Section        0  nrf_log_str_formatter.o(i.nrf_log_std_entry_process)
    i.nrf_memobj_alloc                       0x00027bee   Section        0  nrf_memobj.o(i.nrf_memobj_alloc)
    i.nrf_memobj_free                        0x00027c4e   Section        0  nrf_memobj.o(i.nrf_memobj_free)
    i.nrf_memobj_get                         0x00027c80   Section        0  nrf_memobj.o(i.nrf_memobj_get)
    i.nrf_memobj_pool_init                   0x00027c8e   Section        0  nrf_memobj.o(i.nrf_memobj_pool_init)
    i.nrf_memobj_put                         0x00027c92   Section        0  nrf_memobj.o(i.nrf_memobj_put)
    i.nrf_memobj_read                        0x00027cb4   Section        0  nrf_memobj.o(i.nrf_memobj_read)
    i.nrf_memobj_write                       0x00027cc0   Section        0  nrf_memobj.o(i.nrf_memobj_write)
    i.nrf_pwr_mgmt_shutdown                  0x00027ccc   Section        0  nrf_pwr_mgmt.o(i.nrf_pwr_mgmt_shutdown)
    i.nrf_sdh_ble_app_ram_start_get          0x00027d0c   Section        0  nrf_sdh_ble.o(i.nrf_sdh_ble_app_ram_start_get)
    i.nrf_sdh_ble_default_cfg_set            0x00027d20   Section        0  nrf_sdh_ble.o(i.nrf_sdh_ble_default_cfg_set)
    i.nrf_sdh_ble_enable                     0x00027e78   Section        0  nrf_sdh_ble.o(i.nrf_sdh_ble_enable)
    i.nrf_sdh_ble_evts_poll                  0x00027f58   Section        0  nrf_sdh_ble.o(i.nrf_sdh_ble_evts_poll)
    nrf_sdh_ble_evts_poll                    0x00027f59   Thumb Code    74  nrf_sdh_ble.o(i.nrf_sdh_ble_evts_poll)
    i.nrf_sdh_disable_request                0x00027fa8   Section        0  nrf_sdh.o(i.nrf_sdh_disable_request)
    i.nrf_sdh_enable_request                 0x00027fe4   Section        0  nrf_sdh.o(i.nrf_sdh_enable_request)
    i.nrf_sdh_evts_poll                      0x00028050   Section        0  nrf_sdh.o(i.nrf_sdh_evts_poll)
    i.nrf_sdh_is_enabled                     0x00028074   Section        0  nrf_sdh.o(i.nrf_sdh_is_enabled)
    i.nrf_sdh_request_continue               0x00028080   Section        0  nrf_sdh.o(i.nrf_sdh_request_continue)
    i.nrf_sdh_soc_evts_poll                  0x0002809c   Section        0  nrf_sdh_soc.o(i.nrf_sdh_soc_evts_poll)
    nrf_sdh_soc_evts_poll                    0x0002809d   Thumb Code    56  nrf_sdh_soc.o(i.nrf_sdh_soc_evts_poll)
    i.nrf_section_iter_init                  0x000280d8   Section        0  nrf_section_iter.o(i.nrf_section_iter_init)
    i.nrf_section_iter_item_set              0x000280e2   Section        0  nrf_section_iter.o(i.nrf_section_iter_item_set)
    nrf_section_iter_item_set                0x000280e3   Thumb Code    36  nrf_section_iter.o(i.nrf_section_iter_item_set)
    i.nrf_section_iter_next                  0x00028106   Section        0  nrf_section_iter.o(i.nrf_section_iter_next)
    i.nrf_strerror_find                      0x00028128   Section        0  nrf_strerror.o(i.nrf_strerror_find)
    i.nrf_strerror_get                       0x00028160   Section        0  nrf_strerror.o(i.nrf_strerror_get)
    i.nrf_uart_event_check                   0x00028174   Section        0  nrf_drv_uart.o(i.nrf_uart_event_check)
    nrf_uart_event_check                     0x00028175   Thumb Code    10  nrf_drv_uart.o(i.nrf_uart_event_check)
    i.nrf_uart_event_clear                   0x0002817e   Section        0  nrf_drv_uart.o(i.nrf_uart_event_clear)
    nrf_uart_event_clear                     0x0002817f   Thumb Code    12  nrf_drv_uart.o(i.nrf_uart_event_clear)
    i.nrf_uart_int_enable_check              0x0002818a   Section        0  nrf_drv_uart.o(i.nrf_uart_int_enable_check)
    nrf_uart_int_enable_check                0x0002818b   Thumb Code    12  nrf_drv_uart.o(i.nrf_uart_int_enable_check)
    i.nrf_uarte_event_check                  0x00028196   Section        0  nrf_drv_uart.o(i.nrf_uarte_event_check)
    nrf_uarte_event_check                    0x00028197   Thumb Code    10  nrf_drv_uart.o(i.nrf_uarte_event_check)
    i.nrf_uarte_event_clear                  0x000281a0   Section        0  nrf_drv_uart.o(i.nrf_uarte_event_clear)
    nrf_uarte_event_clear                    0x000281a1   Thumb Code    12  nrf_drv_uart.o(i.nrf_uarte_event_clear)
    i.nus_data_handle                        0x000281ac   Section        0  nus_maser_datahanle.o(i.nus_data_handle)
    i.nus_data_handler                       0x000282ac   Section        0  main.o(i.nus_data_handler)
    nus_data_handler                         0x000282ad   Thumb Code    34  main.o(i.nus_data_handler)
    i.on_adv_evt                             0x000282d4   Section        0  main.o(i.on_adv_evt)
    on_adv_evt                               0x000282d5   Thumb Code    36  main.o(i.on_adv_evt)
    i.on_conn_params_evt                     0x000282f8   Section        0  main.o(i.on_conn_params_evt)
    on_conn_params_evt                       0x000282f9   Thumb Code    24  main.o(i.on_conn_params_evt)
    i.on_connected_evt                       0x00028314   Section        0  nrf_ble_gatt.o(i.on_connected_evt)
    on_connected_evt                         0x00028315   Thumb Code   142  nrf_ble_gatt.o(i.on_connected_evt)
    i.on_exchange_mtu_request_evt            0x000283b0   Section        0  nrf_ble_gatt.o(i.on_exchange_mtu_request_evt)
    on_exchange_mtu_request_evt              0x000283b1   Thumb Code   102  nrf_ble_gatt.o(i.on_exchange_mtu_request_evt)
    i.on_rw_authorize_req                    0x00028424   Section        0  ble_dfu.o(i.on_rw_authorize_req)
    on_rw_authorize_req                      0x00028425   Thumb Code   106  ble_dfu.o(i.on_rw_authorize_req)
    i.postfix_process                        0x00028494   Section        0  nrf_log_str_formatter.o(i.postfix_process)
    postfix_process                          0x00028495   Thumb Code    48  nrf_log_str_formatter.o(i.postfix_process)
    i.prefix_process                         0x000284d0   Section        0  nrf_log_str_formatter.o(i.prefix_process)
    prefix_process                           0x000284d1   Thumb Code    72  nrf_log_str_formatter.o(i.prefix_process)
    i.queue_process                          0x0002852c   Section        0  nrf_fstorage_sd.o(i.queue_process)
    queue_process                            0x0002852d   Thumb Code   140  nrf_fstorage_sd.o(i.queue_process)
    i.ram_end_address_get                    0x000285c4   Section        0  nrf_sdh_ble.o(i.ram_end_address_get)
    ram_end_address_get                      0x000285c5   Thumb Code    16  nrf_sdh_ble.o(i.ram_end_address_get)
    i.rtc1_stop                              0x000285d4   Section        0  app_timer.o(i.rtc1_stop)
    rtc1_stop                                0x000285d5   Thumb Code    52  app_timer.o(i.rtc1_stop)
    i.rx_byte                                0x00028610   Section        0  nrf_drv_uart.o(i.rx_byte)
    rx_byte                                  0x00028611   Thumb Code    50  nrf_drv_uart.o(i.rx_byte)
    i.rx_char_add                            0x00028642   Section        0  ble_nus.o(i.rx_char_add)
    rx_char_add                              0x00028643   Thumb Code   162  ble_nus.o(i.rx_char_add)
    i.rx_done_event                          0x000286e4   Section        0  nrf_drv_uart.o(i.rx_done_event)
    rx_done_event                            0x000286e5   Thumb Code    24  nrf_drv_uart.o(i.rx_done_event)
    i.rx_enable                              0x000286fc   Section        0  nrf_drv_uart.o(i.rx_enable)
    rx_enable                                0x000286fd   Thumb Code    32  nrf_drv_uart.o(i.rx_enable)
    i.sd_nvic_SetPriority                    0x0002871c   Section        0  nrf_sdh.o(i.sd_nvic_SetPriority)
    sd_nvic_SetPriority                      0x0002871d   Thumb Code    66  nrf_sdh.o(i.sd_nvic_SetPriority)
    i.sd_state_evt_handler                   0x00028760   Section        0  nrf_drv_clock.o(i.sd_state_evt_handler)
    sd_state_evt_handler                     0x00028761   Thumb Code    80  nrf_drv_clock.o(i.sd_state_evt_handler)
    i.sdh_request_observer_notify            0x000287b4   Section        0  nrf_sdh.o(i.sdh_request_observer_notify)
    sdh_request_observer_notify              0x000287b5   Thumb Code    44  nrf_sdh.o(i.sdh_request_observer_notify)
    i.sdh_state_observer_notify              0x000287e4   Section        0  nrf_sdh.o(i.sdh_state_observer_notify)
    sdh_state_observer_notify                0x000287e5   Thumb Code    38  nrf_sdh.o(i.sdh_state_observer_notify)
    i.sdk_mapped_flags_bulk_update_by_key    0x00028810   Section        0  sdk_mapped_flags.o(i.sdk_mapped_flags_bulk_update_by_key)
    i.sdk_mapped_flags_first_key_index_get   0x00028854   Section        0  sdk_mapped_flags.o(i.sdk_mapped_flags_first_key_index_get)
    i.sdk_mapped_flags_get_by_index          0x00028876   Section        0  sdk_mapped_flags.o(i.sdk_mapped_flags_get_by_index)
    sdk_mapped_flags_get_by_index            0x00028877   Thumb Code    16  sdk_mapped_flags.o(i.sdk_mapped_flags_get_by_index)
    i.sdk_mapped_flags_key_list_get          0x00028886   Section        0  sdk_mapped_flags.o(i.sdk_mapped_flags_key_list_get)
    i.sdk_mapped_flags_update_by_key         0x000288d0   Section        0  sdk_mapped_flags.o(i.sdk_mapped_flags_update_by_key)
    i.send_control_ack_cmd                   0x000288e0   Section        0  somputon_ble_datahandle.o(i.send_control_ack_cmd)
    i.send_data_proc                         0x00028938   Section        0  main.o(i.send_data_proc)
    i.send_data_to_app_proc                  0x00028958   Section        0  app_work_handle.o(i.send_data_to_app_proc)
    i.send_error_evt                         0x00028a10   Section        0  ble_conn_params.o(i.send_error_evt)
    send_error_evt                           0x00028a11   Thumb Code    12  ble_conn_params.o(i.send_error_evt)
    i.send_sync_time_cmd                     0x00028a20   Section        0  somputon_ble_datahandle.o(i.send_sync_time_cmd)
    i.send_token_cmd                         0x00028a78   Section        0  somputon_ble_datahandle.o(i.send_token_cmd)
    i.serial_tx                              0x00028ad0   Section        0  nrf_log_backend_rtt.o(i.serial_tx)
    serial_tx                                0x00028ad1   Thumb Code    42  nrf_log_backend_rtt.o(i.serial_tx)
    i.service_data_encode                    0x00028afc   Section        0  ble_advdata.o(i.service_data_encode)
    service_data_encode                      0x00028afd   Thumb Code   136  ble_advdata.o(i.service_data_encode)
    i.set_adv_mode                           0x00028b84   Section        0  main.o(i.set_adv_mode)
    i.shutdown_process                       0x00028ba0   Section        0  nrf_pwr_mgmt.o(i.shutdown_process)
    shutdown_process                         0x00028ba1   Thumb Code   104  nrf_pwr_mgmt.o(i.shutdown_process)
    i.sleep_mode_enter                       0x00028c1c   Section        0  main.o(i.sleep_mode_enter)
    sleep_mode_enter                         0x00028c1d   Thumb Code    40  main.o(i.sleep_mode_enter)
    i.soc_evt_handler                        0x00028c44   Section        0  nrf_drv_clock.o(i.soc_evt_handler)
    soc_evt_handler                          0x00028c45   Thumb Code    10  nrf_drv_clock.o(i.soc_evt_handler)
    i.softdevice_evt_irq_disable             0x00028c50   Section        0  nrf_sdh.o(i.softdevice_evt_irq_disable)
    softdevice_evt_irq_disable               0x00028c51   Thumb Code    52  nrf_sdh.o(i.softdevice_evt_irq_disable)
    i.softdevices_evt_irq_enable             0x00028c88   Section        0  nrf_sdh.o(i.softdevices_evt_irq_enable)
    softdevices_evt_irq_enable               0x00028c89   Thumb Code    72  nrf_sdh.o(i.softdevices_evt_irq_enable)
    i.std_n                                  0x00028cd8   Section        0  nrf_log_frontend.o(i.std_n)
    std_n                                    0x00028cd9   Thumb Code   140  nrf_log_frontend.o(i.std_n)
    i.sync_time_ack                          0x00028d68   Section        0  somputon_ble_datahandle.o(i.sync_time_ack)
    i.sys_meas_timeout                       0x00028dd4   Section        0  main.o(i.sys_meas_timeout)
    sys_meas_timeout                         0x00028dd5   Thumb Code    24  main.o(i.sys_meas_timeout)
    i.sys_tick_handle                        0x00028df4   Section        0  timer.o(i.sys_tick_handle)
    i.timer_init                             0x00028e04   Section        0  main.o(i.timer_init)
    i.timer_list_handler                     0x00028e28   Section        0  app_timer.o(i.timer_list_handler)
    timer_list_handler                       0x00028e29   Thumb Code   122  app_timer.o(i.timer_list_handler)
    i.timer_list_insert                      0x00028ea8   Section        0  app_timer.o(i.timer_list_insert)
    timer_list_insert                        0x00028ea9   Thumb Code    56  app_timer.o(i.timer_list_insert)
    i.timer_list_remove                      0x00028ee4   Section        0  app_timer.o(i.timer_list_remove)
    timer_list_remove                        0x00028ee5   Thumb Code    88  app_timer.o(i.timer_list_remove)
    i.timer_start                            0x00028f44   Section        0  main.o(i.timer_start)
    i.timer_stop_op_schedule                 0x00028f64   Section        0  app_timer.o(i.timer_stop_op_schedule)
    timer_stop_op_schedule                   0x00028f65   Thumb Code    68  app_timer.o(i.timer_stop_op_schedule)
    i.timer_timeouts_check                   0x00028fac   Section        0  app_timer.o(i.timer_timeouts_check)
    timer_timeouts_check                     0x00028fad   Thumb Code   106  app_timer.o(i.timer_timeouts_check)
    i.turn_to_u16                            0x00029020   Section        0  nus_maser_datahanle.o(i.turn_to_u16)
    i.tx_byte                                0x0002902c   Section        0  nrf_drv_uart.o(i.tx_byte)
    tx_byte                                  0x0002902d   Thumb Code    32  nrf_drv_uart.o(i.tx_byte)
    i.tx_char_add                            0x0002904c   Section        0  ble_nus.o(i.tx_char_add)
    tx_char_add                              0x0002904d   Thumb Code   218  ble_nus.o(i.tx_char_add)
    i.tx_done_event                          0x00029126   Section        0  nrf_drv_uart.o(i.tx_done_event)
    tx_done_event                            0x00029127   Thumb Code    28  nrf_drv_uart.o(i.tx_done_event)
    i.uart_SendString                        0x00029142   Section        0  uart_queue.o(i.uart_SendString)
    i.uart_cb_init                           0x0002915c   Section        0  slava_device_data.o(i.uart_cb_init)
    i.uart_event_handle                      0x00029168   Section        0  main.o(i.uart_event_handle)
    i.uart_event_handler                     0x00029188   Section        0  app_uart_fifo.o(i.uart_event_handler)
    uart_event_handler                       0x00029189   Thumb Code   152  app_uart_fifo.o(i.uart_event_handler)
    i.uart_irq_handler                       0x00029228   Section        0  nrf_drv_uart.o(i.uart_irq_handler)
    uart_irq_handler                         0x00029229   Thumb Code   286  nrf_drv_uart.o(i.uart_irq_handler)
    i.uart_send_proc                         0x00029348   Section        0  uart_data_send_proc.o(i.uart_send_proc)
    i.uarte_irq_handler                      0x000293a0   Section        0  nrf_drv_uart.o(i.uarte_irq_handler)
    uarte_irq_handler                        0x000293a1   Thumb Code   240  nrf_drv_uart.o(i.uarte_irq_handler)
    i.uint16_encode                          0x00029490   Section        0  ble_advdata.o(i.uint16_encode)
    uint16_encode                            0x00029491   Thumb Code    10  ble_advdata.o(i.uint16_encode)
    i.unsigned_print                         0x0002949c   Section        0  nrf_fprintf_format.o(i.unsigned_print)
    unsigned_print                           0x0002949d   Thumb Code   176  nrf_fprintf_format.o(i.unsigned_print)
    i.update_timeout_handler                 0x00029550   Section        0  ble_conn_params.o(i.update_timeout_handler)
    update_timeout_handler                   0x00029551   Thumb Code    98  ble_conn_params.o(i.update_timeout_handler)
    i.user_enter_bond_mode                   0x000295b8   Section        0  app_work_handle.o(i.user_enter_bond_mode)
    i.user_exit_bond_mode                    0x000295e4   Section        0  app_work_handle.o(i.user_exit_bond_mode)
    i.user_op_alloc                          0x000295f8   Section        0  app_timer.o(i.user_op_alloc)
    user_op_alloc                            0x000295f9   Thumb Code    42  app_timer.o(i.user_op_alloc)
    i.user_time_run                          0x00029628   Section        0  sync_time.o(i.user_time_run)
    i.user_uart_mempcy                       0x00029694   Section        0  uart_data_send_proc.o(i.user_uart_mempcy)
    i.uuid_list_encode                       0x000296b0   Section        0  ble_advdata.o(i.uuid_list_encode)
    uuid_list_encode                         0x000296b1   Thumb Code    48  ble_advdata.o(i.uuid_list_encode)
    i.uuid_list_sized_encode                 0x000296e0   Section        0  ble_advdata.o(i.uuid_list_sized_encode)
    uuid_list_sized_encode                   0x000296e1   Thumb Code   158  ble_advdata.o(i.uuid_list_sized_encode)
    .constdata                               0x00029780   Section       45  main.o(.constdata)
    m_sys_timer_id                           0x00029780   Data           4  main.o(.constdata)
    .constdata                               0x000297ad   Section        8  boards.o(.constdata)
    m_board_led_list                         0x000297ad   Data           4  boards.o(.constdata)
    m_board_btn_list                         0x000297b1   Data           4  boards.o(.constdata)
    .constdata                               0x000297b8   Section       44  bsp.o(.constdata)
    m_leds_timer_id                          0x000297b8   Data           4  bsp.o(.constdata)
    m_alert_timer_id                         0x000297bc   Data           4  bsp.o(.constdata)
    m_button_timer_id                        0x000297c0   Data           4  bsp.o(.constdata)
    app_buttons                              0x000297c4   Data          32  bsp.o(.constdata)
    .constdata                               0x000297e4   Section       22  nrf_ble_gatt.o(.constdata)
    .constdata                               0x000297fc   Section       32  ble_nus.o(.constdata)
    .constdata                               0x0002981c   Section        4  nrf_drv_gpiote.o(.constdata)
    .constdata                               0x00029820   Section       32  app_uart_fifo.o(.constdata)
    .constdata                               0x00029840   Section       16  nrf_fprintf_format.o(.constdata)
    _aV2C                                    0x00029840   Data          16  nrf_fprintf_format.o(.constdata)
    .constdata                               0x00029850   Section       16  nrf_fstorage_sd.o(.constdata)
    m_fifo                                   0x00029850   Data           4  nrf_fstorage_sd.o(.constdata)
    m_flash_info                             0x00029854   Data          12  nrf_fstorage_sd.o(.constdata)
    .constdata                               0x00029860   Section      260  nrf_strerror.o(.constdata)
    m_unknown_str                            0x00029860   Data          19  nrf_strerror.o(.constdata)
    nrf_strerror_array                       0x00029874   Data         240  nrf_strerror.o(.constdata)
    .constdata                               0x00029964   Section       12  nrf_log_backend_rtt.o(.constdata)
    .constdata                               0x00029970   Section       20  nrf_log_frontend.o(.constdata)
    mempool                                  0x00029970   Data          20  nrf_log_frontend.o(.constdata)
    .constdata                               0x00029984   Section       16  nrf_sdh.o(.constdata)
    sdh_req_observers_array                  0x00029984   Data          16  nrf_sdh.o(.constdata)
    .constdata                               0x00029994   Section       40  nrf_sdh.o(.constdata)
    sdh_req_observers                        0x00029998   Data          12  nrf_sdh.o(.constdata)
    sdh_state_observers                      0x000299a4   Data          12  nrf_sdh.o(.constdata)
    sdh_stack_observers                      0x000299b0   Data          12  nrf_sdh.o(.constdata)
    .constdata                               0x000299bc   Section       16  nrf_sdh.o(.constdata)
    sdh_state_observers_array                0x000299bc   Data          16  nrf_sdh.o(.constdata)
    .constdata                               0x000299cc   Section       16  nrf_sdh.o(.constdata)
    sdh_stack_observers_array                0x000299cc   Data          16  nrf_sdh.o(.constdata)
    .constdata                               0x000299dc   Section       32  nrf_sdh_ble.o(.constdata)
    sdh_ble_observers_array                  0x000299dc   Data          32  nrf_sdh_ble.o(.constdata)
    .constdata                               0x000299fc   Section       16  nrf_sdh_ble.o(.constdata)
    sdh_ble_observers                        0x00029a00   Data          12  nrf_sdh_ble.o(.constdata)
    .constdata                               0x00029a0c   Section       16  nrf_sdh_soc.o(.constdata)
    sdh_soc_observers_array                  0x00029a0c   Data          16  nrf_sdh_soc.o(.constdata)
    .constdata                               0x00029a1c   Section       12  nrf_sdh_soc.o(.constdata)
    sdh_soc_observers                        0x00029a1c   Data          12  nrf_sdh_soc.o(.constdata)
    .constdata                               0x00029a28   Section      129  ctype_o.o(.constdata)
    .constdata                               0x00029aac   Section        4  ctype_o.o(.constdata)
    table                                    0x00029aac   Data           4  ctype_o.o(.constdata)
    .conststring                             0x00029ab0   Section      301  nrf_ble_gatt.o(.conststring)
    .conststring                             0x00029be0   Section      775  nrf_strerror.o(.conststring)
    .conststring                             0x00029ee8   Section      102  nrf_log_str_formatter.o(.conststring)
    .conststring                             0x00029f50   Section      463  nrf_sdh_ble.o(.conststring)
    .conststrlit                             0x0002a120   Section        9  nrf_ble_gatt.o(.conststrlit)
    .conststrlit                             0x0002a12c   Section        6  nrf_drv_clock.o(.conststrlit)
    .conststrlit                             0x0002a134   Section        7  nrf_drv_gpiote.o(.conststrlit)
    .conststrlit                             0x0002a13c   Section        5  nrf_drv_uart.o(.conststrlit)
    .conststrlit                             0x0002a144   Section        7  nrf_balloc.o(.conststrlit)
    .conststrlit                             0x0002a14c   Section        9  nrf_pwr_mgmt.o(.conststrlit)
    .conststrlit                             0x0002a158   Section        4  nrf_drv_ppi.o(.conststrlit)
    .conststrlit                             0x0002a15c   Section        4  nrf_log_frontend.o(.conststrlit)
    .conststrlit                             0x0002a160   Section        8  nrf_sdh.o(.conststrlit)
    .conststrlit                             0x0002a168   Section       12  nrf_sdh_ble.o(.conststrlit)
    .conststrlit                             0x0002a174   Section       12  nrf_sdh_soc.o(.conststrlit)
    log_const_data                           0x0002a1a0   Section        8  nrf_ble_gatt.o(log_const_data)
    __tagsym$$used                           0x0002a1a0   Number         0  nrf_ble_gatt.o(log_const_data)
    log_const_data                           0x0002a1a8   Section        8  nrf_drv_clock.o(log_const_data)
    __tagsym$$used                           0x0002a1a8   Number         0  nrf_drv_clock.o(log_const_data)
    log_const_data                           0x0002a1b0   Section        8  nrf_drv_gpiote.o(log_const_data)
    __tagsym$$used                           0x0002a1b0   Number         0  nrf_drv_gpiote.o(log_const_data)
    log_const_data                           0x0002a1b8   Section        8  nrf_drv_uart.o(log_const_data)
    __tagsym$$used                           0x0002a1b8   Number         0  nrf_drv_uart.o(log_const_data)
    log_const_data                           0x0002a1c0   Section        8  nrf_balloc.o(log_const_data)
    __tagsym$$used                           0x0002a1c0   Number         0  nrf_balloc.o(log_const_data)
    log_const_data                           0x0002a1c8   Section        8  nrf_pwr_mgmt.o(log_const_data)
    __tagsym$$used                           0x0002a1c8   Number         0  nrf_pwr_mgmt.o(log_const_data)
    log_const_data                           0x0002a1d0   Section        8  nrf_drv_ppi.o(log_const_data)
    __tagsym$$used                           0x0002a1d0   Number         0  nrf_drv_ppi.o(log_const_data)
    log_const_data                           0x0002a1d8   Section        8  nrf_log_frontend.o(log_const_data)
    __tagsym$$used                           0x0002a1d8   Number         0  nrf_log_frontend.o(log_const_data)
    log_const_data                           0x0002a1e0   Section        8  nrf_sdh.o(log_const_data)
    __tagsym$$used                           0x0002a1e0   Number         0  nrf_sdh.o(log_const_data)
    log_const_data                           0x0002a1e8   Section        8  nrf_sdh_ble.o(log_const_data)
    __tagsym$$used                           0x0002a1e8   Number         0  nrf_sdh_ble.o(log_const_data)
    log_const_data                           0x0002a1f0   Section        8  nrf_sdh_soc.o(log_const_data)
    __tagsym$$used                           0x0002a1f0   Number         0  nrf_sdh_soc.o(log_const_data)
    sdh_ble_observers0                       0x0002a1f8   Section        8  ble_conn_state.o(sdh_ble_observers0)
    __tagsym$$used                           0x0002a1f8   Number         0  ble_conn_state.o(sdh_ble_observers0)
    m_ble_evt_observer                       0x0002a1f8   Data           8  ble_conn_state.o(sdh_ble_observers0)
    sdh_ble_observers1                       0x0002a200   Section       16  main.o(sdh_ble_observers1)
    __tagsym$$used                           0x0002a200   Number         0  main.o(sdh_ble_observers1)
    m_gatt_obs                               0x0002a200   Data           8  main.o(sdh_ble_observers1)
    __tagsym$$used                           0x0002a208   Number         0  main.o(sdh_ble_observers1)
    m_advertising_ble_obs                    0x0002a208   Data           8  main.o(sdh_ble_observers1)
    sdh_ble_observers1                       0x0002a210   Section        8  bsp_btn_ble.o(sdh_ble_observers1)
    __tagsym$$used                           0x0002a210   Number         0  bsp_btn_ble.o(sdh_ble_observers1)
    m_ble_observer                           0x0002a210   Data           8  bsp_btn_ble.o(sdh_ble_observers1)
    sdh_ble_observers1                       0x0002a218   Section        8  ble_conn_params.o(sdh_ble_observers1)
    __tagsym$$used                           0x0002a218   Number         0  ble_conn_params.o(sdh_ble_observers1)
    m_ble_observer                           0x0002a218   Data           8  ble_conn_params.o(sdh_ble_observers1)
    sdh_ble_observers2                       0x0002a220   Section        8  main.o(sdh_ble_observers2)
    __tagsym$$used                           0x0002a220   Number         0  main.o(sdh_ble_observers2)
    m_nus_obs                                0x0002a220   Data           8  main.o(sdh_ble_observers2)
    sdh_ble_observers2                       0x0002a228   Section        8  ble_dfu.o(sdh_ble_observers2)
    __tagsym$$used                           0x0002a228   Number         0  ble_dfu.o(sdh_ble_observers2)
    m_dfus_obs                               0x0002a228   Data           8  ble_dfu.o(sdh_ble_observers2)
    sdh_ble_observers3                       0x0002a230   Section        8  main.o(sdh_ble_observers3)
    __tagsym$$used                           0x0002a230   Number         0  main.o(sdh_ble_observers3)
    m_ble_observer                           0x0002a230   Data           8  main.o(sdh_ble_observers3)
    sdh_req_observers0                       0x0002a238   Section        8  nrf_fstorage_sd.o(sdh_req_observers0)
    __tagsym$$used                           0x0002a238   Number         0  nrf_fstorage_sd.o(sdh_req_observers0)
    sdh_soc_observers0                       0x0002a240   Section        8  nrf_drv_clock.o(sdh_soc_observers0)
    __tagsym$$used                           0x0002a240   Number         0  nrf_drv_clock.o(sdh_soc_observers0)
    m_soc_evt_observer                       0x0002a240   Data           8  nrf_drv_clock.o(sdh_soc_observers0)
    sdh_soc_observers0                       0x0002a248   Section        8  nrf_fstorage_sd.o(sdh_soc_observers0)
    __tagsym$$used                           0x0002a248   Number         0  nrf_fstorage_sd.o(sdh_soc_observers0)
    m_sys_obs                                0x0002a248   Data           8  nrf_fstorage_sd.o(sdh_soc_observers0)
    sdh_soc_observers1                       0x0002a250   Section        8  main.o(sdh_soc_observers1)
    __tagsym$$used                           0x0002a250   Number         0  main.o(sdh_soc_observers1)
    m_advertising_soc_obs                    0x0002a250   Data           8  main.o(sdh_soc_observers1)
    sdh_soc_observers1                       0x0002a258   Section        8  ble_dfu_unbonded.o(sdh_soc_observers1)
    __tagsym$$used                           0x0002a258   Number         0  ble_dfu_unbonded.o(sdh_soc_observers1)
    m_dfu_buttonless_soc_obs                 0x0002a258   Data           8  ble_dfu_unbonded.o(sdh_soc_observers1)
    sdh_stack_observers0                     0x0002a260   Section        8  nrf_sdh_ble.o(sdh_stack_observers0)
    __tagsym$$used                           0x0002a260   Number         0  nrf_sdh_ble.o(sdh_stack_observers0)
    m_nrf_sdh_ble_evts_poll                  0x0002a260   Data           8  nrf_sdh_ble.o(sdh_stack_observers0)
    sdh_stack_observers0                     0x0002a268   Section        8  nrf_sdh_soc.o(sdh_stack_observers0)
    __tagsym$$used                           0x0002a268   Number         0  nrf_sdh_soc.o(sdh_stack_observers0)
    m_nrf_sdh_soc_evts_poll                  0x0002a268   Data           8  nrf_sdh_soc.o(sdh_stack_observers0)
    sdh_state_observers0                     0x0002a270   Section        8  nrf_drv_clock.o(sdh_state_observers0)
    __tagsym$$used                           0x0002a270   Number         0  nrf_drv_clock.o(sdh_state_observers0)
    m_sd_state_observer                      0x0002a270   Data           8  nrf_drv_clock.o(sdh_state_observers0)
    sdh_state_observers0                     0x0002a278   Section        8  nrf_fstorage_sd.o(sdh_state_observers0)
    __tagsym$$used                           0x0002a278   Number         0  nrf_fstorage_sd.o(sdh_state_observers0)
    m_state_obs                              0x0002a278   Data           8  nrf_fstorage_sd.o(sdh_state_observers0)
    .data                                    0x20002770   Section        6  main.o(.data)
    data_temp                                0x20002770   Data           1  main.o(.data)
    time_cnt                                 0x20002771   Data           1  main.o(.data)
    m_conn_handle                            0x20002772   Data           2  main.o(.data)
    m_ble_nus_max_data_len                   0x20002774   Data           2  main.o(.data)
    .data                                    0x20002778   Section        4  protocol_analysis.o(.data)
    .data                                    0x2000277c   Section        3  nus_maser_datahanle.o(.data)
    crc                                      0x2000277c   Data           1  nus_maser_datahanle.o(.data)
    crcbuff                                  0x2000277d   Data           1  nus_maser_datahanle.o(.data)
    i                                        0x2000277e   Data           1  nus_maser_datahanle.o(.data)
    .data                                    0x2000277f   Section        7  system_variable.o(.data)
    .data                                    0x20002788   Section       12  slava_device_data.o(.data)
    RxCnt                                    0x20002788   Data           1  slava_device_data.o(.data)
    gHeadflag                                0x20002789   Data           1  slava_device_data.o(.data)
    lenflag                                  0x2000278a   Data           1  slava_device_data.o(.data)
    .data                                    0x20002794   Section        2  data_send_handle.o(.data)
    .data                                    0x20002796   Section       14  timer.o(.data)
    .data                                    0x200027a4   Section       12  app_work_handle.o(.data)
    s_app_work_cnt                           0x200027a6   Data           4  app_work_handle.o(.data)
    .data                                    0x200027b0   Section        4  uart_data_send_proc.o(.data)
    .data                                    0x200027b4   Section        7  sync_time.o(.data)
    Realtime_Cnt                             0x200027b4   Data           1  sync_time.o(.data)
    .data                                    0x200027bc   Section       16  bsp.o(.data)
    m_stable_state                           0x200027bc   Data           1  bsp.o(.data)
    m_leds_clear                             0x200027bd   Data           1  bsp.o(.data)
    m_alert_on                               0x200027be   Data           1  bsp.o(.data)
    current_long_push_pin_no                 0x200027bf   Data           1  bsp.o(.data)
    m_indication_type                        0x200027c0   Data           4  bsp.o(.data)
    m_registered_callback                    0x200027c4   Data           4  bsp.o(.data)
    release_event_at_push                    0x200027c8   Data           4  bsp.o(.data)
    .data                                    0x200027cc   Section        8  bsp_btn_ble.o(.data)
    m_error_handler                          0x200027cc   Data           4  bsp_btn_ble.o(.data)
    m_num_connections                        0x200027d0   Data           4  bsp_btn_ble.o(.data)
    .data                                    0x200027d4   Section        8  ble_conn_params.o(.data)
    m_preferred_conn_params                  0x200027d4   Data           8  ble_conn_params.o(.data)
    .data                                    0x200027dc   Section       20  app_timer.o(.data)
    m_ticks_elapsed_q_read_ind               0x200027dc   Data           1  app_timer.o(.data)
    m_ticks_elapsed_q_write_ind              0x200027dd   Data           1  app_timer.o(.data)
    m_rtc1_running                           0x200027de   Data           1  app_timer.o(.data)
    m_rtc1_reset                             0x200027df   Data           1  app_timer.o(.data)
    mp_timer_id_head                         0x200027e0   Data           4  app_timer.o(.data)
    m_ticks_latest                           0x200027e4   Data           4  app_timer.o(.data)
    m_ticks_elapsed                          0x200027e8   Data           8  app_timer.o(.data)
    .data                                    0x200027f0   Section       16  app_uart_fifo.o(.data)
    tx_buffer                                0x200027f0   Data           1  app_uart_fifo.o(.data)
    rx_buffer                                0x200027f1   Data           1  app_uart_fifo.o(.data)
    m_rx_ovf                                 0x200027f2   Data           1  app_uart_fifo.o(.data)
    m_event_handler                          0x200027f4   Data           4  app_uart_fifo.o(.data)
    app_uart_inst                            0x200027f8   Data           8  app_uart_fifo.o(.data)
    .data                                    0x20002800   Section        8  nrf_fstorage_sd.o(.data)
    m_p_cur_op                               0x20002800   Data           4  nrf_fstorage_sd.o(.data)
    m_iget_ctx                               0x20002804   Data           4  nrf_fstorage_sd.o(.data)
    .data                                    0x20002808   Section        8  nrf_pwr_mgmt.o(.data)
    m_pwr_mgmt_evt                           0x20002808   Data           1  nrf_pwr_mgmt.o(.data)
    m_shutdown_started                       0x20002809   Data           1  nrf_pwr_mgmt.o(.data)
    m_sysoff_mtx                             0x2000280c   Data           4  nrf_pwr_mgmt.o(.data)
    .data                                    0x20002810   Section        4  retarget.o(.data)
    .data                                    0x20002814   Section       12  nrf_log_default_backends.o(.data)
    rtt_log_backend                          0x20002814   Data          12  nrf_log_default_backends.o(.data)
    .data                                    0x20002820   Section        8  nrf_log_frontend.o(.data)
    mempool_nrf_balloc_pool_stack            0x20002820   Data           8  nrf_log_frontend.o(.data)
    .data                                    0x20002828   Section        8  nrf_log_frontend.o(.data)
    mempool_nrf_balloc_cb                    0x20002828   Data           8  nrf_log_frontend.o(.data)
    .data                                    0x20002830   Section       56  nrf_log_str_formatter.o(.data)
    severity_names                           0x20002830   Data          20  nrf_log_str_formatter.o(.data)
    m_colors                                 0x20002844   Data          36  nrf_log_str_formatter.o(.data)
    .data                                    0x20002868   Section        3  nrf_sdh.o(.data)
    m_nrf_sdh_enabled                        0x20002868   Data           1  nrf_sdh.o(.data)
    m_nrf_sdh_suspended                      0x20002869   Data           1  nrf_sdh.o(.data)
    m_nrf_sdh_continue                       0x2000286a   Data           1  nrf_sdh.o(.data)
    .data                                    0x2000286c   Section        4  nrf_sdh_ble.o(.data)
    .data                                    0x20002870   Section        4  ble_dfu_unbonded.o(.data)
    .data                                    0x20002874   Section        4  system_nrf52.o(.data)
    __tagsym$$used                           0x20002874   Number         0  system_nrf52.o(.data)
    log_dynamic_data                         0x20002878   Section       12  nrf_ble_gatt.o(log_dynamic_data)
    __tagsym$$used                           0x20002878   Number         0  nrf_ble_gatt.o(log_dynamic_data)
    log_dynamic_data                         0x20002884   Section       12  nrf_drv_clock.o(log_dynamic_data)
    __tagsym$$used                           0x20002884   Number         0  nrf_drv_clock.o(log_dynamic_data)
    log_dynamic_data                         0x20002890   Section       12  nrf_drv_gpiote.o(log_dynamic_data)
    __tagsym$$used                           0x20002890   Number         0  nrf_drv_gpiote.o(log_dynamic_data)
    log_dynamic_data                         0x2000289c   Section       12  nrf_drv_uart.o(log_dynamic_data)
    __tagsym$$used                           0x2000289c   Number         0  nrf_drv_uart.o(log_dynamic_data)
    log_dynamic_data                         0x200028a8   Section       12  nrf_balloc.o(log_dynamic_data)
    __tagsym$$used                           0x200028a8   Number         0  nrf_balloc.o(log_dynamic_data)
    log_dynamic_data                         0x200028b4   Section       12  nrf_pwr_mgmt.o(log_dynamic_data)
    __tagsym$$used                           0x200028b4   Number         0  nrf_pwr_mgmt.o(log_dynamic_data)
    log_dynamic_data                         0x200028c0   Section       12  nrf_drv_ppi.o(log_dynamic_data)
    __tagsym$$used                           0x200028c0   Number         0  nrf_drv_ppi.o(log_dynamic_data)
    log_dynamic_data                         0x200028cc   Section       12  nrf_log_frontend.o(log_dynamic_data)
    __tagsym$$used                           0x200028cc   Number         0  nrf_log_frontend.o(log_dynamic_data)
    log_dynamic_data                         0x200028d8   Section       12  nrf_sdh.o(log_dynamic_data)
    __tagsym$$used                           0x200028d8   Number         0  nrf_sdh.o(log_dynamic_data)
    log_dynamic_data                         0x200028e4   Section       12  nrf_sdh_ble.o(log_dynamic_data)
    __tagsym$$used                           0x200028e4   Number         0  nrf_sdh_ble.o(log_dynamic_data)
    log_dynamic_data                         0x200028f0   Section       12  nrf_sdh_soc.o(log_dynamic_data)
    __tagsym$$used                           0x200028f0   Number         0  nrf_sdh_soc.o(log_dynamic_data)
    .bss                                     0x200028fc   Section       32  main.o(.bss)
    m_sys_timer_id_data                      0x200028fc   Data          32  main.o(.bss)
    .bss                                     0x2000291c   Section     1594  main.o(.bss)
    rx_buf                                   0x2000291c   Data        1024  main.o(.bss)
    tx_buf                                   0x20002d1c   Data         256  main.o(.bss)
    m_nus                                    0x20002e1c   Data          28  main.o(.bss)
    m_gatt                                   0x20002e38   Data          20  main.o(.bss)
    m_advertising                            0x20002e4c   Data         216  main.o(.bss)
    .bss                                     0x20002f56   Section      246  nus_maser_datahanle.o(.bss)
    str                                      0x20002f56   Data          50  nus_maser_datahanle.o(.bss)
    .bss                                     0x2000304c   Section      574  uart_queue.o(.bss)
    buffer                                   0x20003258   Data          50  uart_queue.o(.bss)
    .bss                                     0x2000328a   Section      212  slava_device_data.o(.bss)
    Common_Word                              0x20003352   Data          12  slava_device_data.o(.bss)
    .bss                                     0x2000335e   Section     1000  data_send_handle.o(.bss)
    .bss                                     0x20003746   Section      257  uart_data_send_proc.o(.bss)
    .bss                                     0x20003848   Section       32  bsp.o(.bss)
    m_leds_timer_id_data                     0x20003848   Data          32  bsp.o(.bss)
    .bss                                     0x20003868   Section       32  bsp.o(.bss)
    m_alert_timer_id_data                    0x20003868   Data          32  bsp.o(.bss)
    .bss                                     0x20003888   Section       12  bsp.o(.bss)
    m_events_list                            0x20003888   Data          12  bsp.o(.bss)
    .bss                                     0x20003894   Section       32  bsp.o(.bss)
    m_button_timer_id_data                   0x20003894   Data          32  bsp.o(.bss)
    .bss                                     0x200038b4   Section       80  ble_conn_params.o(.bss)
    m_timer_data                             0x200038b4   Data          32  ble_conn_params.o(.bss)
    m_conn_params_instances                  0x200038d4   Data          20  ble_conn_params.o(.bss)
    m_conn_params_config                     0x200038e8   Data          28  ble_conn_params.o(.bss)
    .bss                                     0x20003904   Section      184  ble_conn_state.o(.bss)
    m_bcs                                    0x20003904   Data         184  ble_conn_state.o(.bss)
    .bss                                     0x200039bc   Section       20  nrf_drv_clock.o(.bss)
    m_clock_cb                               0x200039bc   Data          20  nrf_drv_clock.o(.bss)
    .bss                                     0x200039d0   Section       88  nrf_drv_gpiote.o(.bss)
    m_cb                                     0x200039d0   Data          88  nrf_drv_gpiote.o(.bss)
    .bss                                     0x20003a28   Section       32  nrf_drv_uart.o(.bss)
    m_cb                                     0x20003a28   Data          32  nrf_drv_uart.o(.bss)
    .bss                                     0x20003a48   Section      268  app_timer.o(.bss)
    m_op_queue                               0x20003a48   Data         268  app_timer.o(.bss)
    .bss                                     0x20003b54   Section       32  app_uart_fifo.o(.bss)
    m_rx_fifo                                0x20003b54   Data          16  app_uart_fifo.o(.bss)
    m_tx_fifo                                0x20003b64   Data          16  app_uart_fifo.o(.bss)
    .bss                                     0x20003b74   Section       12  app_util_platform.o(.bss)
    .bss                                     0x20003b80   Section      160  nrf_fstorage_sd.o(.bss)
    m_fifo_data                              0x20003b80   Data         140  nrf_fstorage_sd.o(.bss)
    m_flags                                  0x20003c0c   Data          20  nrf_fstorage_sd.o(.bss)
    .bss                                     0x20003c20   Section       16  nrf_fstorage_sd.o(.bss)
    m_fifo_inst                              0x20003c20   Data          16  nrf_fstorage_sd.o(.bss)
    .bss                                     0x20003c30   Section       12  nrf_pwr_mgmt.o(.bss)
    m_handlers_iter                          0x20003c30   Data          12  nrf_pwr_mgmt.o(.bss)
    .bss                                     0x20003c3c   Section       64  nrf_log_backend_rtt.o(.bss)
    m_string_buff                            0x20003c3c   Data          64  nrf_log_backend_rtt.o(.bss)
    .bss                                     0x20003c7c   Section      192  nrf_log_frontend.o(.bss)
    mempool_nrf_balloc_pool_mem              0x20003c7c   Data         192  nrf_log_frontend.o(.bss)
    .bss                                     0x20003d3c   Section     1056  nrf_log_frontend.o(.bss)
    m_log_data                               0x20003d3c   Data        1056  nrf_log_frontend.o(.bss)
    .bss                                     0x2000415c   Section      648  segger_rtt.o(.bss)
    _acUpBuffer                              0x200041d4   Data         512  segger_rtt.o(.bss)
    _acDownBuffer                            0x200043d4   Data          16  segger_rtt.o(.bss)
    .bss                                     0x200043e4   Section       28  ble_dfu.o(.bss)
    m_dfu                                    0x200043e4   Data          28  ble_dfu.o(.bss)
    .bss                                     0x20004400   Section       40  ble_dfu_unbonded.o(.bss)
    nrf_dfu_set_adv_name_svci_async_def      0x20004400   Data          12  ble_dfu_unbonded.o(.bss)
    m_adv_name                               0x2000440c   Data          28  ble_dfu_unbonded.o(.bss)
    STACK                                    0x20004428   Section     8192  arm_startup_nrf52.o(STACK)

    Global Symbols

    Symbol Name                              Value     Ov Type        Size  Object(Section)

    BuildAttributes$$THM_ISAv4$E$P$D$K$B$S$7EM$VFPi3$EXTD16$VFPS$VFMA$PE$A:L22UL41UL21$X:L11$S22US41US21$IEEE1$IW$USESV6$~STKCKD$USESV7$~SHL$OSPACE$ROPI$EBA8$MICROLIB$REQ8$PRES8$EABIv2 0x00000000   Number         0  anon$$obj.o ABSOLUTE
    __ARM_use_no_argv                        0x00000000   Number         0  main.o ABSOLUTE
    _printf_a                                0x00000000   Number         0  stubs.o ABSOLUTE
    _printf_c                                0x00000000   Number         0  stubs.o ABSOLUTE
    _printf_charcount                        0x00000000   Number         0  stubs.o ABSOLUTE
    _printf_d                                0x00000000   Number         0  stubs.o ABSOLUTE
    _printf_e                                0x00000000   Number         0  stubs.o ABSOLUTE
    _printf_f                                0x00000000   Number         0  stubs.o ABSOLUTE
    _printf_flags                            0x00000000   Number         0  stubs.o ABSOLUTE
    _printf_fp_dec                           0x00000000   Number         0  stubs.o ABSOLUTE
    _printf_fp_hex                           0x00000000   Number         0  stubs.o ABSOLUTE
    _printf_g                                0x00000000   Number         0  stubs.o ABSOLUTE
    _printf_i                                0x00000000   Number         0  stubs.o ABSOLUTE
    _printf_int_dec                          0x00000000   Number         0  stubs.o ABSOLUTE
    _printf_l                                0x00000000   Number         0  stubs.o ABSOLUTE
    _printf_lc                               0x00000000   Number         0  stubs.o ABSOLUTE
    _printf_ll                               0x00000000   Number         0  stubs.o ABSOLUTE
    _printf_lld                              0x00000000   Number         0  stubs.o ABSOLUTE
    _printf_lli                              0x00000000   Number         0  stubs.o ABSOLUTE
    _printf_llo                              0x00000000   Number         0  stubs.o ABSOLUTE
    _printf_llu                              0x00000000   Number         0  stubs.o ABSOLUTE
    _printf_llx                              0x00000000   Number         0  stubs.o ABSOLUTE
    _printf_longlong_dec                     0x00000000   Number         0  stubs.o ABSOLUTE
    _printf_longlong_hex                     0x00000000   Number         0  stubs.o ABSOLUTE
    _printf_longlong_oct                     0x00000000   Number         0  stubs.o ABSOLUTE
    _printf_ls                               0x00000000   Number         0  stubs.o ABSOLUTE
    _printf_mbtowc                           0x00000000   Number         0  stubs.o ABSOLUTE
    _printf_n                                0x00000000   Number         0  stubs.o ABSOLUTE
    _printf_o                                0x00000000   Number         0  stubs.o ABSOLUTE
    _printf_p                                0x00000000   Number         0  stubs.o ABSOLUTE
    _printf_percent                          0x00000000   Number         0  stubs.o ABSOLUTE
    _printf_pre_padding                      0x00000000   Number         0  stubs.o ABSOLUTE
    _printf_return_value                     0x00000000   Number         0  stubs.o ABSOLUTE
    _printf_s                                0x00000000   Number         0  stubs.o ABSOLUTE
    _printf_sizespec                         0x00000000   Number         0  stubs.o ABSOLUTE
    _printf_str                              0x00000000   Number         0  stubs.o ABSOLUTE
    _printf_truncate_signed                  0x00000000   Number         0  stubs.o ABSOLUTE
    _printf_truncate_unsigned                0x00000000   Number         0  stubs.o ABSOLUTE
    _printf_u                                0x00000000   Number         0  stubs.o ABSOLUTE
    _printf_wc                               0x00000000   Number         0  stubs.o ABSOLUTE
    _printf_wctomb                           0x00000000   Number         0  stubs.o ABSOLUTE
    _printf_widthprec                        0x00000000   Number         0  stubs.o ABSOLUTE
    _printf_x                                0x00000000   Number         0  stubs.o ABSOLUTE
    __cpp_initialize__aeabi_                  - Undefined Weak Reference
    __cxa_finalize                            - Undefined Weak Reference
    _clock_init                               - Undefined Weak Reference
    _microlib_exit                            - Undefined Weak Reference
    fs_data$$Base                             - Undefined Reference
    fs_data$$Limit                            - Undefined Reference
    pwr_mgmt_data0$$Base                      - Undefined Reference
    pwr_mgmt_data0$$Limit                     - Undefined Reference
    pwr_mgmt_data1$$Base                      - Undefined Reference
    pwr_mgmt_data1$$Limit                     - Undefined Reference
    pwr_mgmt_data2$$Base                      - Undefined Reference
    pwr_mgmt_data2$$Limit                     - Undefined Reference
    sdh_req_observers1$$Base                  - Undefined Reference
    sdh_req_observers1$$Limit                 - Undefined Reference
    sdh_stack_observers1$$Base                - Undefined Reference
    sdh_stack_observers1$$Limit               - Undefined Reference
    sdh_state_observers1$$Base                - Undefined Reference
    sdh_state_observers1$$Limit               - Undefined Reference
    __Vectors_Size                           0x00000200   Number         0  arm_startup_nrf52.o ABSOLUTE
    Image$$ER_IROM1$$Base                    0x00023000   Number         0  anon$$obj.o ABSOLUTE
    __Vectors                                0x00023000   Data           4  arm_startup_nrf52.o(RESET)
    __Vectors_End                            0x00023200   Data           0  arm_startup_nrf52.o(RESET)
    __main                                   0x00023201   Thumb Code     0  entry.o(.ARM.Collect$$$$00000000)
    _main_stk                                0x00023201   Thumb Code     0  entry2.o(.ARM.Collect$$$$00000001)
    _main_scatterload                        0x00023205   Thumb Code     0  entry5.o(.ARM.Collect$$$$00000004)
    __main_after_scatterload                 0x00023209   Thumb Code     0  entry5.o(.ARM.Collect$$$$00000004)
    _main_clock                              0x00023209   Thumb Code     0  entry7b.o(.ARM.Collect$$$$00000008)
    _main_cpp_init                           0x00023209   Thumb Code     0  entry8b.o(.ARM.Collect$$$$0000000A)
    _main_init                               0x00023209   Thumb Code     0  entry9a.o(.ARM.Collect$$$$0000000B)
    __rt_final_cpp                           0x00023211   Thumb Code     0  entry10a.o(.ARM.Collect$$$$0000000D)
    __rt_final_exit                          0x00023211   Thumb Code     0  entry11a.o(.ARM.Collect$$$$0000000F)
    __asm___12_nrf_atfifo_c_51f461e1__nrf_atfifo_wspace_req 0x00023215   Thumb Code    56  nrf_atfifo.o(.emb_text)
    __asm___12_nrf_atfifo_c_51f461e1__nrf_atfifo_wspace_close 0x0002324d   Thumb Code    18  nrf_atfifo.o(.emb_text)
    __asm___12_nrf_atfifo_c_51f461e1__nrf_atfifo_rspace_req 0x0002325f   Thumb Code    58  nrf_atfifo.o(.emb_text)
    __asm___12_nrf_atfifo_c_51f461e1__nrf_atfifo_rspace_close 0x00023299   Thumb Code    18  nrf_atfifo.o(.emb_text)
    __asm___12_nrf_atfifo_c_51f461e1__nrf_atfifo_space_clear 0x000232ab   Thumb Code    50  nrf_atfifo.o(.emb_text)
    __asm___12_nrf_memobj_c_9bb9f865__nrf_atomic_internal_mov 0x000232dd   Thumb Code    24  nrf_memobj.o(.emb_text)
    __asm___12_nrf_memobj_c_9bb9f865__nrf_atomic_internal_orr 0x000232f5   Thumb Code    26  nrf_memobj.o(.emb_text)
    __asm___12_nrf_memobj_c_9bb9f865__nrf_atomic_internal_and 0x0002330f   Thumb Code    26  nrf_memobj.o(.emb_text)
    __asm___12_nrf_memobj_c_9bb9f865__nrf_atomic_internal_eor 0x00023329   Thumb Code    26  nrf_memobj.o(.emb_text)
    __asm___12_nrf_memobj_c_9bb9f865__nrf_atomic_internal_add 0x00023343   Thumb Code    26  nrf_memobj.o(.emb_text)
    __asm___12_nrf_memobj_c_9bb9f865__nrf_atomic_internal_sub 0x0002335d   Thumb Code    26  nrf_memobj.o(.emb_text)
    __asm___14_nrf_pwr_mgmt_c_f22138a6__nrf_atomic_internal_mov 0x00023379   Thumb Code    24  nrf_pwr_mgmt.o(.emb_text)
    __asm___14_nrf_pwr_mgmt_c_f22138a6__nrf_atomic_internal_orr 0x00023391   Thumb Code    26  nrf_pwr_mgmt.o(.emb_text)
    __asm___14_nrf_pwr_mgmt_c_f22138a6__nrf_atomic_internal_and 0x000233ab   Thumb Code    26  nrf_pwr_mgmt.o(.emb_text)
    __asm___14_nrf_pwr_mgmt_c_f22138a6__nrf_atomic_internal_eor 0x000233c5   Thumb Code    26  nrf_pwr_mgmt.o(.emb_text)
    __asm___14_nrf_pwr_mgmt_c_f22138a6__nrf_atomic_internal_add 0x000233df   Thumb Code    26  nrf_pwr_mgmt.o(.emb_text)
    __asm___14_nrf_pwr_mgmt_c_f22138a6__nrf_atomic_internal_sub 0x000233f9   Thumb Code    26  nrf_pwr_mgmt.o(.emb_text)
    __asm___18_nrf_log_frontend_c_bc460776__nrf_atomic_internal_mov 0x00023415   Thumb Code    24  nrf_log_frontend.o(.emb_text)
    __asm___18_nrf_log_frontend_c_bc460776__nrf_atomic_internal_orr 0x0002342d   Thumb Code    26  nrf_log_frontend.o(.emb_text)
    __asm___18_nrf_log_frontend_c_bc460776__nrf_atomic_internal_and 0x00023447   Thumb Code    26  nrf_log_frontend.o(.emb_text)
    __asm___18_nrf_log_frontend_c_bc460776__nrf_atomic_internal_eor 0x00023461   Thumb Code    26  nrf_log_frontend.o(.emb_text)
    __asm___18_nrf_log_frontend_c_bc460776__nrf_atomic_internal_add 0x0002347b   Thumb Code    26  nrf_log_frontend.o(.emb_text)
    __asm___18_nrf_log_frontend_c_bc460776__nrf_atomic_internal_sub 0x00023495   Thumb Code    26  nrf_log_frontend.o(.emb_text)
    Reset_Handler                            0x000234b1   Thumb Code     8  arm_startup_nrf52.o(.text)
    NMI_Handler                              0x000234b9   Thumb Code     2  arm_startup_nrf52.o(.text)
    HardFault_Handler                        0x000234bb   Thumb Code     2  arm_startup_nrf52.o(.text)
    MemoryManagement_Handler                 0x000234bd   Thumb Code     2  arm_startup_nrf52.o(.text)
    BusFault_Handler                         0x000234bf   Thumb Code     2  arm_startup_nrf52.o(.text)
    UsageFault_Handler                       0x000234c1   Thumb Code     2  arm_startup_nrf52.o(.text)
    SVC_Handler                              0x000234c3   Thumb Code     2  arm_startup_nrf52.o(.text)
    DebugMon_Handler                         0x000234c5   Thumb Code     2  arm_startup_nrf52.o(.text)
    PendSV_Handler                           0x000234c7   Thumb Code     2  arm_startup_nrf52.o(.text)
    SysTick_Handler                          0x000234c9   Thumb Code     2  arm_startup_nrf52.o(.text)
    CCM_AAR_IRQHandler                       0x000234cb   Thumb Code     0  arm_startup_nrf52.o(.text)
    COMP_LPCOMP_IRQHandler                   0x000234cb   Thumb Code     0  arm_startup_nrf52.o(.text)
    ECB_IRQHandler                           0x000234cb   Thumb Code     0  arm_startup_nrf52.o(.text)
    FPU_IRQHandler                           0x000234cb   Thumb Code     0  arm_startup_nrf52.o(.text)
    I2S_IRQHandler                           0x000234cb   Thumb Code     0  arm_startup_nrf52.o(.text)
    MWU_IRQHandler                           0x000234cb   Thumb Code     0  arm_startup_nrf52.o(.text)
    NFCT_IRQHandler                          0x000234cb   Thumb Code     0  arm_startup_nrf52.o(.text)
    PDM_IRQHandler                           0x000234cb   Thumb Code     0  arm_startup_nrf52.o(.text)
    PWM0_IRQHandler                          0x000234cb   Thumb Code     0  arm_startup_nrf52.o(.text)
    PWM1_IRQHandler                          0x000234cb   Thumb Code     0  arm_startup_nrf52.o(.text)
    PWM2_IRQHandler                          0x000234cb   Thumb Code     0  arm_startup_nrf52.o(.text)
    QDEC_IRQHandler                          0x000234cb   Thumb Code     0  arm_startup_nrf52.o(.text)
    RADIO_IRQHandler                         0x000234cb   Thumb Code     0  arm_startup_nrf52.o(.text)
    RNG_IRQHandler                           0x000234cb   Thumb Code     0  arm_startup_nrf52.o(.text)
    RTC0_IRQHandler                          0x000234cb   Thumb Code     0  arm_startup_nrf52.o(.text)
    RTC2_IRQHandler                          0x000234cb   Thumb Code     0  arm_startup_nrf52.o(.text)
    SAADC_IRQHandler                         0x000234cb   Thumb Code     0  arm_startup_nrf52.o(.text)
    SPIM0_SPIS0_TWIM0_TWIS0_SPI0_TWI0_IRQHandler 0x000234cb   Thumb Code     0  arm_startup_nrf52.o(.text)
    SPIM1_SPIS1_TWIM1_TWIS1_SPI1_TWI1_IRQHandler 0x000234cb   Thumb Code     0  arm_startup_nrf52.o(.text)
    SPIM2_SPIS2_SPI2_IRQHandler              0x000234cb   Thumb Code     0  arm_startup_nrf52.o(.text)
    SWI1_EGU1_IRQHandler                     0x000234cb   Thumb Code     0  arm_startup_nrf52.o(.text)
    SWI3_EGU3_IRQHandler                     0x000234cb   Thumb Code     0  arm_startup_nrf52.o(.text)
    SWI4_EGU4_IRQHandler                     0x000234cb   Thumb Code     0  arm_startup_nrf52.o(.text)
    SWI5_EGU5_IRQHandler                     0x000234cb   Thumb Code     0  arm_startup_nrf52.o(.text)
    TEMP_IRQHandler                          0x000234cb   Thumb Code     0  arm_startup_nrf52.o(.text)
    TIMER0_IRQHandler                        0x000234cb   Thumb Code     0  arm_startup_nrf52.o(.text)
    TIMER1_IRQHandler                        0x000234cb   Thumb Code     0  arm_startup_nrf52.o(.text)
    TIMER2_IRQHandler                        0x000234cb   Thumb Code     0  arm_startup_nrf52.o(.text)
    TIMER3_IRQHandler                        0x000234cb   Thumb Code     0  arm_startup_nrf52.o(.text)
    TIMER4_IRQHandler                        0x000234cb   Thumb Code     0  arm_startup_nrf52.o(.text)
    WDT_IRQHandler                           0x000234cb   Thumb Code     0  arm_startup_nrf52.o(.text)
    __aeabi_uldivmod                         0x000234d5   Thumb Code    98  uldiv.o(.text)
    __rt_ctype_table                         0x00023539   Thumb Code     4  ctype_o.o(.text)
    __aeabi_memcpy                           0x00023541   Thumb Code    36  memcpya.o(.text)
    __aeabi_memcpy4                          0x00023541   Thumb Code     0  memcpya.o(.text)
    __aeabi_memcpy8                          0x00023541   Thumb Code     0  memcpya.o(.text)
    __aeabi_memset                           0x00023565   Thumb Code    14  memseta.o(.text)
    __aeabi_memset4                          0x00023565   Thumb Code     0  memseta.o(.text)
    __aeabi_memset8                          0x00023565   Thumb Code     0  memseta.o(.text)
    __aeabi_memclr                           0x00023573   Thumb Code     4  memseta.o(.text)
    __aeabi_memclr4                          0x00023573   Thumb Code     0  memseta.o(.text)
    __aeabi_memclr8                          0x00023573   Thumb Code     0  memseta.o(.text)
    _memset$wrapper                          0x00023577   Thumb Code    18  memseta.o(.text)
    strlen                                   0x00023589   Thumb Code    14  strlen.o(.text)
    strcpy                                   0x00023597   Thumb Code    18  strcpy.o(.text)
    __aeabi_llsl                             0x000235a9   Thumb Code    30  llshl.o(.text)
    _ll_shift_l                              0x000235a9   Thumb Code     0  llshl.o(.text)
    __aeabi_llsr                             0x000235c7   Thumb Code    32  llushr.o(.text)
    _ll_ushift_r                             0x000235c7   Thumb Code     0  llushr.o(.text)
    __scatterload                            0x000235e9   Thumb Code    28  init.o(.text)
    __scatterload_rt2                        0x000235e9   Thumb Code     0  init.o(.text)
    __decompress                             0x0002360d   Thumb Code     0  __dczerorl2.o(.text)
    __decompress1                            0x0002360d   Thumb Code    86  __dczerorl2.o(.text)
    App_RecvHandler                          0x00023665   Thumb Code   102  protocol_analysis.o(i.App_RecvHandler)
    Crc8                                     0x000236ed   Thumb Code    74  nus_maser_datahanle.o(i.Crc8)
    GPIOTE_IRQHandler                        0x0002373d   Thumb Code   362  nrf_drv_gpiote.o(i.GPIOTE_IRQHandler)
    HexToStr                                 0x000238b1   Thumb Code    88  nus_maser_datahanle.o(i.HexToStr)
    POWER_CLOCK_IRQHandler                   0x00023985   Thumb Code    84  nrf_drv_clock.o(i.POWER_CLOCK_IRQHandler)
    RTC1_IRQHandler                          0x000239dd   Thumb Code    32  app_timer.o(i.RTC1_IRQHandler)
    SEGGER_RTT_Init                          0x00023a01   Thumb Code     4  segger_rtt.o(i.SEGGER_RTT_Init)
    SEGGER_RTT_WriteNoLock                   0x00023a05   Thumb Code    86  segger_rtt.o(i.SEGGER_RTT_WriteNoLock)
    SWI0_EGU0_IRQHandler                     0x00023a61   Thumb Code     4  app_timer.o(i.SWI0_EGU0_IRQHandler)
    SWI2_EGU2_IRQHandler                     0x00023a65   Thumb Code     4  nrf_sdh.o(i.SWI2_EGU2_IRQHandler)
    Somputon_Init                            0x00023a69   Thumb Code     6  protocol_analysis.o(i.Somputon_Init)
    SysRunningHandler                        0x00023a75   Thumb Code    84  timer.o(i.SysRunningHandler)
    SystemInit                               0x00023acd   Thumb Code   726  system_nrf52.o(i.SystemInit)
    UART2_Read_Queue                         0x00023e55   Thumb Code    32  uart_queue.o(i.UART2_Read_Queue)
    UARTE0_UART0_IRQHandler                  0x00023e79   Thumb Code    20  nrf_drv_uart.o(i.UARTE0_UART0_IRQHandler)
    USART2_Write_Queue                       0x00023e95   Thumb Code    28  uart_queue.o(i.USART2_Write_Queue)
    Uart_App_RecvHandler                     0x00023eb5   Thumb Code    48  slava_device_data.o(i.Uart_App_RecvHandler)
    User_Get_Addr                            0x00023eed   Thumb Code    30  nus_maser_datahanle.o(i.User_Get_Addr)
    WIFI_Decode                              0x00023f1d   Thumb Code   236  slava_device_data.o(i.WIFI_Decode)
    __0printf$8                              0x0002412d   Thumb Code    22  printf8.o(i.__0printf$8)
    __1printf$8                              0x0002412d   Thumb Code     0  printf8.o(i.__0printf$8)
    __2printf                                0x0002412d   Thumb Code     0  printf8.o(i.__0printf$8)
    __scatterload_copy                       0x0002414d   Thumb Code    14  handlers.o(i.__scatterload_copy)
    __scatterload_null                       0x0002415b   Thumb Code     2  handlers.o(i.__scatterload_null)
    __scatterload_zeroinit                   0x0002415d   Thumb Code    14  handlers.o(i.__scatterload_zeroinit)
    advertising_init                         0x00024641   Thumb Code   102  main.o(i.advertising_init)
    advertising_init_bond                    0x000246b1   Thumb Code   104  main.o(i.advertising_init_bond)
    app_cnt_handle                           0x00024725   Thumb Code    14  app_work_handle.o(i.app_cnt_handle)
    app_connected_token_cnt                  0x00024735   Thumb Code    26  app_work_handle.o(i.app_connected_token_cnt)
    app_error_fault_handler                  0x00024755   Thumb Code    80  app_error_weak.o(i.app_error_fault_handler)
    app_error_handler_bare                   0x000247cd   Thumb Code    22  app_error.o(i.app_error_handler_bare)
    app_fifo_get                             0x000247e3   Thumb Code    22  app_fifo.o(i.app_fifo_get)
    app_fifo_init                            0x000247f9   Thumb Code    32  app_fifo.o(i.app_fifo_init)
    app_fifo_put                             0x00024819   Thumb Code    26  app_fifo.o(i.app_fifo_put)
    app_timer_create                         0x00024835   Thumb Code    36  app_timer.o(i.app_timer_create)
    app_timer_init                           0x0002485d   Thumb Code    70  app_timer.o(i.app_timer_init)
    app_timer_start                          0x000248b1   Thumb Code   128  app_timer.o(i.app_timer_start)
    app_timer_stop                           0x00024939   Thumb Code    26  app_timer.o(i.app_timer_stop)
    app_uart_get                             0x00024959   Thumb Code    42  app_uart_fifo.o(i.app_uart_get)
    app_uart_init                            0x0002498d   Thumb Code   164  app_uart_fifo.o(i.app_uart_init)
    app_uart_put                             0x00024a41   Thumb Code    52  app_uart_fifo.o(i.app_uart_put)
    app_util_critical_region_enter           0x00024a7d   Thumb Code    64  app_util_platform.o(i.app_util_critical_region_enter)
    app_util_critical_region_exit            0x00024ac5   Thumb Code    46  app_util_platform.o(i.app_util_critical_region_exit)
    big_data_send_proc                       0x00024bb1   Thumb Code    28  data_send_handle.o(i.big_data_send_proc)
    ble_advdata_encode                       0x00024bd5   Thumb Code   386  ble_advdata.o(i.ble_advdata_encode)
    ble_advdata_set                          0x00024d57   Thumb Code   104  ble_advdata.o(i.ble_advdata_set)
    ble_advertising_conn_cfg_tag_set         0x00024dbf   Thumb Code     6  ble_advertising.o(i.ble_advertising_conn_cfg_tag_set)
    ble_advertising_init                     0x00024dc5   Thumb Code   310  ble_advertising.o(i.ble_advertising_init)
    ble_advertising_on_ble_evt               0x00024efb   Thumb Code   104  ble_advertising.o(i.ble_advertising_on_ble_evt)
    ble_advertising_on_sys_evt               0x00024f63   Thumb Code    50  ble_advertising.o(i.ble_advertising_on_sys_evt)
    ble_advertising_start                    0x00024f95   Thumb Code   458  ble_advertising.o(i.ble_advertising_start)
    ble_conn_params_init                     0x00025161   Thumb Code    90  ble_conn_params.o(i.ble_conn_params_init)
    ble_dfu_buttonless_bootloader_start_finalize 0x00025229   Thumb Code    40  ble_dfu.o(i.ble_dfu_buttonless_bootloader_start_finalize)
    ble_dfu_buttonless_bootloader_start_prepare 0x00025255   Thumb Code    20  ble_dfu_unbonded.o(i.ble_dfu_buttonless_bootloader_start_prepare)
    ble_dfu_buttonless_on_ble_evt            0x0002526d   Thumb Code   140  ble_dfu.o(i.ble_dfu_buttonless_on_ble_evt)
    ble_dfu_buttonless_on_ctrl_pt_write      0x00025321   Thumb Code   150  ble_dfu_unbonded.o(i.ble_dfu_buttonless_on_ctrl_pt_write)
    ble_dfu_buttonless_on_sys_evt            0x000253c1   Thumb Code    66  ble_dfu_unbonded.o(i.ble_dfu_buttonless_on_sys_evt)
    ble_dfu_buttonless_resp_send             0x0002540d   Thumb Code    78  ble_dfu.o(i.ble_dfu_buttonless_resp_send)
    ble_nus_init                             0x00025821   Thumb Code    94  ble_nus.o(i.ble_nus_init)
    ble_nus_on_ble_evt                       0x00025885   Thumb Code   136  ble_nus.o(i.ble_nus_on_ble_evt)
    ble_nus_string_send                      0x00025911   Thumb Code    72  ble_nus.o(i.ble_nus_string_send)
    ble_srv_is_indication_enabled            0x00025959   Thumb Code     8  ble_srv_common.o(i.ble_srv_is_indication_enabled)
    ble_srv_is_notification_enabled          0x00025961   Thumb Code     8  ble_srv_common.o(i.ble_srv_is_notification_enabled)
    bond_cmd                                 0x00025969   Thumb Code    84  somputon_ble_datahandle.o(i.bond_cmd)
    bond_cmd_ack                             0x000259c1   Thumb Code    84  somputon_ble_datahandle.o(i.bond_cmd_ack)
    bond_timeout_cnt                         0x00025a19   Thumb Code    24  app_work_handle.o(i.bond_timeout_cnt)
    bsp_board_button_idx_to_pin              0x00025a35   Thumb Code     6  boards.o(i.bsp_board_button_idx_to_pin)
    bsp_board_led_invert                     0x00025a41   Thumb Code    32  boards.o(i.bsp_board_led_invert)
    bsp_board_led_off                        0x00025a65   Thumb Code    10  boards.o(i.bsp_board_led_off)
    bsp_board_led_on                         0x00025a75   Thumb Code    10  boards.o(i.bsp_board_led_on)
    bsp_board_led_state_get                  0x00025a85   Thumb Code    28  boards.o(i.bsp_board_led_state_get)
    bsp_board_leds_off                       0x00025aa5   Thumb Code    18  boards.o(i.bsp_board_leds_off)
    bsp_board_leds_on                        0x00025ab7   Thumb Code    18  boards.o(i.bsp_board_leds_on)
    bsp_board_pin_to_button_idx              0x00025ac9   Thumb Code    30  boards.o(i.bsp_board_pin_to_button_idx)
    bsp_btn_ble_sleep_mode_prepare           0x00025aed   Thumb Code    30  bsp_btn_ble.o(i.bsp_btn_ble_sleep_mode_prepare)
    bsp_event_to_button_action_assign        0x00025b9d   Thumb Code    64  bsp.o(i.bsp_event_to_button_action_assign)
    bsp_indication_set                       0x00025be1   Thumb Code    20  bsp.o(i.bsp_indication_set)
    bsp_wakeup_button_enable                 0x00025db1   Thumb Code    16  bsp.o(i.bsp_wakeup_button_enable)
    buffer_is_empty                          0x00025e45   Thumb Code    16  nrf_log_frontend.o(i.buffer_is_empty)
    clear_app_connected_cnt                  0x00025e69   Thumb Code     8  app_work_handle.o(i.clear_app_connected_cnt)
    clear_history_data_cmd                   0x00025e75   Thumb Code     2  somputon_ble_datahandle.o(i.clear_history_data_cmd)
    communicate_flag_set                     0x00025ea1   Thumb Code    40  app_work_handle.o(i.communicate_flag_set)
    control_uart_to_nus                      0x0002604d   Thumb Code   104  somputon_ble_datahandle.o(i.control_uart_to_nus)
    data_send                                0x000260b9   Thumb Code    76  data_send_handle.o(i.data_send)
    fputc                                    0x000261c1   Thumb Code    14  retarget.o(i.fputc)
    gatt_evt_handler                         0x00026259   Thumb Code    48  main.o(i.gatt_evt_handler)
    gatt_init                                0x000262ad   Thumb Code    38  main.o(i.gatt_init)
    get_communicate_flag_status              0x000262dd   Thumb Code    40  app_work_handle.o(i.get_communicate_flag_status)
    get_mac_addr                             0x00026309   Thumb Code    32  nus_maser_datahanle.o(i.get_mac_addr)
    get_real_time_data_cmd                   0x00026329   Thumb Code    94  somputon_ble_datahandle.o(i.get_real_time_data_cmd)
    led_init                                 0x00026505   Thumb Code    54  led_control.o(i.led_init)
    main                                     0x00026739   Thumb Code   290  main.o(i.main)
    nrf_atfifo_item_free                     0x00026a55   Thumb Code    22  nrf_atfifo.o(i.nrf_atfifo_item_free)
    nrf_atfifo_item_get                      0x00026a6b   Thumb Code    22  nrf_atfifo.o(i.nrf_atfifo_item_get)
    nrf_balloc_alloc                         0x00026a8f   Thumb Code    68  nrf_balloc.o(i.nrf_balloc_alloc)
    nrf_balloc_free                          0x00026ad3   Thumb Code    48  nrf_balloc.o(i.nrf_balloc_free)
    nrf_balloc_init                          0x00026b03   Thumb Code    48  nrf_balloc.o(i.nrf_balloc_init)
    nrf_ble_gatt_att_mtu_periph_set          0x00026b43   Thumb Code    24  nrf_ble_gatt.o(i.nrf_ble_gatt_att_mtu_periph_set)
    nrf_ble_gatt_init                        0x00026b5b   Thumb Code    34  nrf_ble_gatt.o(i.nrf_ble_gatt_init)
    nrf_ble_gatt_on_ble_evt                  0x00026b7d   Thumb Code   312  nrf_ble_gatt.o(i.nrf_ble_gatt_on_ble_evt)
    nrf_drv_clock_init                       0x00026d71   Thumb Code    64  nrf_drv_clock.o(i.nrf_drv_clock_init)
    nrf_drv_clock_lfclk_release              0x00026db9   Thumb Code    40  nrf_drv_clock.o(i.nrf_drv_clock_lfclk_release)
    nrf_drv_common_irq_enable                0x00026de5   Thumb Code    56  nrf_drv_common.o(i.nrf_drv_common_irq_enable)
    nrf_drv_uart_init                        0x00026e35   Thumb Code    98  nrf_drv_uart.o(i.nrf_drv_uart_init)
    nrf_drv_uart_rx                          0x00026e9d   Thumb Code   170  nrf_drv_uart.o(i.nrf_drv_uart_rx)
    nrf_drv_uart_rx_enable                   0x00026f4d   Thumb Code    42  nrf_drv_uart.o(i.nrf_drv_uart_rx_enable)
    nrf_drv_uart_tx                          0x000270d5   Thumb Code   262  nrf_drv_uart.o(i.nrf_drv_uart_tx)
    nrf_drv_uart_tx_in_progress              0x000271e1   Thumb Code    18  nrf_drv_uart.o(i.nrf_drv_uart_tx_in_progress)
    nrf_fprintf                              0x000271f9   Thumb Code    26  nrf_fprintf.o(i.nrf_fprintf)
    nrf_fprintf_buffer_flush                 0x00027213   Thumb Code    24  nrf_fprintf.o(i.nrf_fprintf_buffer_flush)
    nrf_fprintf_fmt                          0x0002722b   Thumb Code   474  nrf_fprintf_format.o(i.nrf_fprintf_fmt)
    nrf_fstorage_is_busy                     0x00027405   Thumb Code    70  nrf_fstorage.o(i.nrf_fstorage_is_busy)
    nrf_fstorage_sdh_req_handler             0x00027455   Thumb Code    18  nrf_fstorage_sd.o(i.nrf_fstorage_sdh_req_handler)
    nrf_fstorage_sdh_state_handler           0x0002746d   Thumb Code    28  nrf_fstorage_sd.o(i.nrf_fstorage_sdh_state_handler)
    nrf_fstorage_sys_evt_handler             0x0002748d   Thumb Code   150  nrf_fstorage_sd.o(i.nrf_fstorage_sys_evt_handler)
    nrf_log_backend_add                      0x00027631   Thumb Code    74  nrf_log_frontend.o(i.nrf_log_backend_add)
    nrf_log_backend_rtt_init                 0x00027683   Thumb Code     4  nrf_log_backend_rtt.o(i.nrf_log_backend_rtt_init)
    nrf_log_backend_serial_put               0x000276a1   Thumb Code   210  nrf_log_backend_serial.o(i.nrf_log_backend_serial_put)
    nrf_log_color_id_get                     0x00027775   Thumb Code    42  nrf_log_frontend.o(i.nrf_log_color_id_get)
    nrf_log_default_backends_init            0x000277a5   Thumb Code    22  nrf_log_default_backends.o(i.nrf_log_default_backends_init)
    nrf_log_frontend_dequeue                 0x000277c1   Thumb Code   488  nrf_log_frontend.o(i.nrf_log_frontend_dequeue)
    nrf_log_frontend_std_0                   0x000279b1   Thumb Code     8  nrf_log_frontend.o(i.nrf_log_frontend_std_0)
    nrf_log_frontend_std_1                   0x000279b9   Thumb Code    14  nrf_log_frontend.o(i.nrf_log_frontend_std_1)
    nrf_log_frontend_std_2                   0x000279c7   Thumb Code    16  nrf_log_frontend.o(i.nrf_log_frontend_std_2)
    nrf_log_hexdump_entry_process            0x000279d9   Thumb Code   146  nrf_log_str_formatter.o(i.nrf_log_hexdump_entry_process)
    nrf_log_init                             0x00027a85   Thumb Code    70  nrf_log_frontend.o(i.nrf_log_init)
    nrf_log_module_cnt_get                   0x00027ae1   Thumb Code    10  nrf_log_frontend.o(i.nrf_log_module_cnt_get)
    nrf_log_module_name_get                  0x00027af5   Thumb Code    24  nrf_log_frontend.o(i.nrf_log_module_name_get)
    nrf_log_panic                            0x00027b11   Thumb Code    34  nrf_log_frontend.o(i.nrf_log_panic)
    nrf_log_std_entry_process                0x00027b39   Thumb Code   182  nrf_log_str_formatter.o(i.nrf_log_std_entry_process)
    nrf_memobj_alloc                         0x00027bef   Thumb Code    96  nrf_memobj.o(i.nrf_memobj_alloc)
    nrf_memobj_free                          0x00027c4f   Thumb Code    50  nrf_memobj.o(i.nrf_memobj_free)
    nrf_memobj_get                           0x00027c81   Thumb Code    14  nrf_memobj.o(i.nrf_memobj_get)
    nrf_memobj_pool_init                     0x00027c8f   Thumb Code     4  nrf_memobj.o(i.nrf_memobj_pool_init)
    nrf_memobj_put                           0x00027c93   Thumb Code    34  nrf_memobj.o(i.nrf_memobj_put)
    nrf_memobj_read                          0x00027cb5   Thumb Code    12  nrf_memobj.o(i.nrf_memobj_read)
    nrf_memobj_write                         0x00027cc1   Thumb Code    12  nrf_memobj.o(i.nrf_memobj_write)
    nrf_pwr_mgmt_shutdown                    0x00027ccd   Thumb Code    58  nrf_pwr_mgmt.o(i.nrf_pwr_mgmt_shutdown)
    nrf_sdh_ble_app_ram_start_get            0x00027d0d   Thumb Code    16  nrf_sdh_ble.o(i.nrf_sdh_ble_app_ram_start_get)
    nrf_sdh_ble_default_cfg_set              0x00027d21   Thumb Code   314  nrf_sdh_ble.o(i.nrf_sdh_ble_default_cfg_set)
    nrf_sdh_ble_enable                       0x00027e79   Thumb Code    84  nrf_sdh_ble.o(i.nrf_sdh_ble_enable)
    nrf_sdh_disable_request                  0x00027fa9   Thumb Code    54  nrf_sdh.o(i.nrf_sdh_disable_request)
    nrf_sdh_enable_request                   0x00027fe5   Thumb Code    96  nrf_sdh.o(i.nrf_sdh_enable_request)
    nrf_sdh_evts_poll                        0x00028051   Thumb Code    32  nrf_sdh.o(i.nrf_sdh_evts_poll)
    nrf_sdh_is_enabled                       0x00028075   Thumb Code     6  nrf_sdh.o(i.nrf_sdh_is_enabled)
    nrf_sdh_request_continue                 0x00028081   Thumb Code    22  nrf_sdh.o(i.nrf_sdh_request_continue)
    nrf_section_iter_init                    0x000280d9   Thumb Code    10  nrf_section_iter.o(i.nrf_section_iter_init)
    nrf_section_iter_next                    0x00028107   Thumb Code    32  nrf_section_iter.o(i.nrf_section_iter_next)
    nrf_strerror_find                        0x00028129   Thumb Code    52  nrf_strerror.o(i.nrf_strerror_find)
    nrf_strerror_get                         0x00028161   Thumb Code    14  nrf_strerror.o(i.nrf_strerror_get)
    nus_data_handle                          0x000281ad   Thumb Code   242  nus_maser_datahanle.o(i.nus_data_handle)
    sdk_mapped_flags_bulk_update_by_key      0x00028811   Thumb Code    68  sdk_mapped_flags.o(i.sdk_mapped_flags_bulk_update_by_key)
    sdk_mapped_flags_first_key_index_get     0x00028855   Thumb Code    34  sdk_mapped_flags.o(i.sdk_mapped_flags_first_key_index_get)
    sdk_mapped_flags_key_list_get            0x00028887   Thumb Code    74  sdk_mapped_flags.o(i.sdk_mapped_flags_key_list_get)
    sdk_mapped_flags_update_by_key           0x000288d1   Thumb Code    14  sdk_mapped_flags.o(i.sdk_mapped_flags_update_by_key)
    send_control_ack_cmd                     0x000288e1   Thumb Code    84  somputon_ble_datahandle.o(i.send_control_ack_cmd)
    send_data_proc                           0x00028939   Thumb Code    26  main.o(i.send_data_proc)
    send_data_to_app_proc                    0x00028959   Thumb Code   178  app_work_handle.o(i.send_data_to_app_proc)
    send_sync_time_cmd                       0x00028a21   Thumb Code    82  somputon_ble_datahandle.o(i.send_sync_time_cmd)
    send_token_cmd                           0x00028a79   Thumb Code    82  somputon_ble_datahandle.o(i.send_token_cmd)
    set_adv_mode                             0x00028b85   Thumb Code    24  main.o(i.set_adv_mode)
    sync_time_ack                            0x00028d69   Thumb Code    98  somputon_ble_datahandle.o(i.sync_time_ack)
    sys_tick_handle                          0x00028df5   Thumb Code    14  timer.o(i.sys_tick_handle)
    timer_init                               0x00028e05   Thumb Code    26  main.o(i.timer_init)
    timer_start                              0x00028f45   Thumb Code    28  main.o(i.timer_start)
    turn_to_u16                              0x00029021   Thumb Code    12  nus_maser_datahanle.o(i.turn_to_u16)
    uart_SendString                          0x00029143   Thumb Code    26  uart_queue.o(i.uart_SendString)
    uart_cb_init                             0x0002915d   Thumb Code     6  slava_device_data.o(i.uart_cb_init)
    uart_event_handle                        0x00029169   Thumb Code    28  main.o(i.uart_event_handle)
    uart_send_proc                           0x00029349   Thumb Code    78  uart_data_send_proc.o(i.uart_send_proc)
    user_enter_bond_mode                     0x000295b9   Thumb Code    34  app_work_handle.o(i.user_enter_bond_mode)
    user_exit_bond_mode                      0x000295e5   Thumb Code    18  app_work_handle.o(i.user_exit_bond_mode)
    user_time_run                            0x00029629   Thumb Code   102  sync_time.o(i.user_time_run)
    user_uart_mempcy                         0x00029695   Thumb Code    22  uart_data_send_proc.o(i.user_uart_mempcy)
    nrf_log_backend_rtt_api                  0x00029964   Data          12  nrf_log_backend_rtt.o(.constdata)
    m_ram_start                              0x000299fc   Data           4  nrf_sdh_ble.o(.constdata)
    __ctype_table                            0x00029a28   Data         129  ctype_o.o(.constdata)
    Region$$Table$$Base                      0x0002a180   Number         0  anon$$obj.o(Region$$Table)
    Region$$Table$$Limit                     0x0002a1a0   Number         0  anon$$obj.o(Region$$Table)
    log_const_data$$Base                     0x0002a1a0   Number         0  nrf_ble_gatt.o(log_const_data)
    m_nrf_log_ble_gatt_logs_data_const       0x0002a1a0   Data           8  nrf_ble_gatt.o(log_const_data)
    m_nrf_log_clock_logs_data_const          0x0002a1a8   Data           8  nrf_drv_clock.o(log_const_data)
    m_nrf_log_gpiote_logs_data_const         0x0002a1b0   Data           8  nrf_drv_gpiote.o(log_const_data)
    m_nrf_log_uart_logs_data_const           0x0002a1b8   Data           8  nrf_drv_uart.o(log_const_data)
    m_nrf_log_balloc_logs_data_const         0x0002a1c0   Data           8  nrf_balloc.o(log_const_data)
    m_nrf_log_pwr_mgmt_logs_data_const       0x0002a1c8   Data           8  nrf_pwr_mgmt.o(log_const_data)
    m_nrf_log_ppi_logs_data_const            0x0002a1d0   Data           8  nrf_drv_ppi.o(log_const_data)
    m_nrf_log_app_logs_data_const            0x0002a1d8   Data           8  nrf_log_frontend.o(log_const_data)
    m_nrf_log_nrf_sdh_logs_data_const        0x0002a1e0   Data           8  nrf_sdh.o(log_const_data)
    m_nrf_log_nrf_sdh_ble_logs_data_const    0x0002a1e8   Data           8  nrf_sdh_ble.o(log_const_data)
    m_nrf_log_nrf_sdh_soc_logs_data_const    0x0002a1f0   Data           8  nrf_sdh_soc.o(log_const_data)
    log_const_data$$Limit                    0x0002a1f8   Number         0  nrf_sdh_soc.o(log_const_data)
    sdh_ble_observers0$$Base                 0x0002a1f8   Number         0  ble_conn_state.o(sdh_ble_observers0)
    sdh_ble_observers0$$Limit                0x0002a200   Number         0  ble_conn_state.o(sdh_ble_observers0)
    sdh_ble_observers1$$Base                 0x0002a200   Number         0  main.o(sdh_ble_observers1)
    sdh_ble_observers1$$Limit                0x0002a220   Number         0  ble_conn_params.o(sdh_ble_observers1)
    sdh_ble_observers2$$Base                 0x0002a220   Number         0  main.o(sdh_ble_observers2)
    sdh_ble_observers2$$Limit                0x0002a230   Number         0  ble_dfu.o(sdh_ble_observers2)
    sdh_ble_observers3$$Base                 0x0002a230   Number         0  main.o(sdh_ble_observers3)
    m_req_obs                                0x0002a238   Data           8  nrf_fstorage_sd.o(sdh_req_observers0)
    sdh_ble_observers3$$Limit                0x0002a238   Number         0  main.o(sdh_ble_observers3)
    sdh_req_observers0$$Base                 0x0002a238   Number         0  nrf_fstorage_sd.o(sdh_req_observers0)
    sdh_req_observers0$$Limit                0x0002a240   Number         0  nrf_fstorage_sd.o(sdh_req_observers0)
    sdh_soc_observers0$$Base                 0x0002a240   Number         0  nrf_drv_clock.o(sdh_soc_observers0)
    sdh_soc_observers0$$Limit                0x0002a250   Number         0  nrf_fstorage_sd.o(sdh_soc_observers0)
    sdh_soc_observers1$$Base                 0x0002a250   Number         0  main.o(sdh_soc_observers1)
    sdh_soc_observers1$$Limit                0x0002a260   Number         0  ble_dfu_unbonded.o(sdh_soc_observers1)
    sdh_stack_observers0$$Base               0x0002a260   Number         0  nrf_sdh_ble.o(sdh_stack_observers0)
    sdh_stack_observers0$$Limit              0x0002a270   Number         0  nrf_sdh_soc.o(sdh_stack_observers0)
    sdh_state_observers0$$Base               0x0002a270   Number         0  nrf_drv_clock.o(sdh_state_observers0)
    sdh_state_observers0$$Limit              0x0002a280   Number         0  nrf_fstorage_sd.o(sdh_state_observers0)
    Image$$RW_IRAM1$$Base                    0x20002770   Number         0  anon$$obj.o ABSOLUTE
    receive_data_from_app                    0x20002778   Data           4  protocol_analysis.o(.data)
    system_work                              0x2000277f   Data           7  system_variable.o(.data)
    UART_SEND_STATUS                         0x2000278b   Data           1  slava_device_data.o(.data)
    command_s                                0x2000278c   Data           2  slava_device_data.o(.data)
    master_receive_data_from_app             0x20002790   Data           4  slava_device_data.o(.data)
    total_index                              0x20002794   Data           1  data_send_handle.o(.data)
    send_current_index                       0x20002795   Data           1  data_send_handle.o(.data)
    Tick10msFlag                             0x20002796   Data           1  timer.o(.data)
    Timer                                    0x20002797   Data           6  timer.o(.data)
    SysTimer                                 0x2000279d   Data           7  timer.o(.data)
    send_status                              0x200027a4   Data           1  app_work_handle.o(.data)
    send_data_flag                           0x200027aa   Data           6  app_work_handle.o(.data)
    uart_send_status                         0x200027b0   Data           1  uart_data_send_proc.o(.data)
    uart_send_ack                            0x200027b1   Data           3  uart_data_send_proc.o(.data)
    utcTime_t                                0x200027b5   Data           6  sync_time.o(.data)
    __stdout                                 0x20002810   Data           4  retarget.o(.data)
    data                                     0x2000286c   Data           4  nrf_sdh_ble.o(.data)
    mp_dfu                                   0x20002870   Data           4  ble_dfu_unbonded.o(.data)
    SystemCoreClock                          0x20002874   Data           4  system_nrf52.o(.data)
    log_dynamic_data$$Base                   0x20002878   Number         0  nrf_ble_gatt.o(log_dynamic_data)
    m_nrf_log_ble_gatt_logs_data_dynamic     0x20002878   Data          12  nrf_ble_gatt.o(log_dynamic_data)
    m_nrf_log_clock_logs_data_dynamic        0x20002884   Data          12  nrf_drv_clock.o(log_dynamic_data)
    m_nrf_log_gpiote_logs_data_dynamic       0x20002890   Data          12  nrf_drv_gpiote.o(log_dynamic_data)
    m_nrf_log_uart_logs_data_dynamic         0x2000289c   Data          12  nrf_drv_uart.o(log_dynamic_data)
    m_nrf_log_balloc_logs_data_dynamic       0x200028a8   Data          12  nrf_balloc.o(log_dynamic_data)
    m_nrf_log_pwr_mgmt_logs_data_dynamic     0x200028b4   Data          12  nrf_pwr_mgmt.o(log_dynamic_data)
    m_nrf_log_ppi_logs_data_dynamic          0x200028c0   Data          12  nrf_drv_ppi.o(log_dynamic_data)
    m_nrf_log_app_logs_data_dynamic          0x200028cc   Data          12  nrf_log_frontend.o(log_dynamic_data)
    m_nrf_log_nrf_sdh_logs_data_dynamic      0x200028d8   Data          12  nrf_sdh.o(log_dynamic_data)
    m_nrf_log_nrf_sdh_ble_logs_data_dynamic  0x200028e4   Data          12  nrf_sdh_ble.o(log_dynamic_data)
    m_nrf_log_nrf_sdh_soc_logs_data_dynamic  0x200028f0   Data          12  nrf_sdh_soc.o(log_dynamic_data)
    buffer                                   0x20002f24   Data          50  main.o(.bss)
    Common_Word                              0x20002f88   Data          12  nus_maser_datahanle.o(.bss)
    data_recv                                0x20002f94   Data         184  nus_maser_datahanle.o(.bss)
    gUsart2Send                              0x2000304c   Data         262  uart_queue.o(.bss)
    gUsart2Recv                              0x20003152   Data         262  uart_queue.o(.bss)
    UART_ReceiveBuffer                       0x2000328a   Data         200  slava_device_data.o(.bss)
    buffer_send                              0x2000335e   Data        1000  data_send_handle.o(.bss)
    cotrol_data_tx                           0x20003746   Data         257  uart_data_send_proc.o(.bss)
    nrf_nvic_state                           0x20003b74   Data          12  app_util_platform.o(.bss)
    _SEGGER_RTT                              0x2000415c   Data         120  segger_rtt.o(.bss)
    __initial_sp                             0x20006428   Data           0  arm_startup_nrf52.o(STACK)



==============================================================================

Memory Map of the image

  Image Entry point : 0x00023201

  Load Region LR_IROM1 (Base: 0x00023000, Size: 0x0000740c, Max: 0x00055000, ABSOLUTE, COMPRESSED[0x000072c0])

    Execution Region ER_IROM1 (Exec base: 0x00023000, Load base: 0x00023000, Size: 0x00007280, Max: 0x00055000, ABSOLUTE)

    Exec Addr    Load Addr    Size         Type   Attr      Idx    E Section Name        Object

    0x00023000   0x00023000   0x00000200   Data   RO         5327    RESET               arm_startup_nrf52.o
    0x00023200   0x00023200   0x00000000   Code   RO         5368  * .ARM.Collect$$$$00000000  mc_w.l(entry.o)
    0x00023200   0x00023200   0x00000004   Code   RO         5672    .ARM.Collect$$$$00000001  mc_w.l(entry2.o)
    0x00023204   0x00023204   0x00000004   Code   RO         5675    .ARM.Collect$$$$00000004  mc_w.l(entry5.o)
    0x00023208   0x00023208   0x00000000   Code   RO         5677    .ARM.Collect$$$$00000008  mc_w.l(entry7b.o)
    0x00023208   0x00023208   0x00000000   Code   RO         5679    .ARM.Collect$$$$0000000A  mc_w.l(entry8b.o)
    0x00023208   0x00023208   0x00000008   Code   RO         5680    .ARM.Collect$$$$0000000B  mc_w.l(entry9a.o)
    0x00023210   0x00023210   0x00000000   Code   RO         5682    .ARM.Collect$$$$0000000D  mc_w.l(entry10a.o)
    0x00023210   0x00023210   0x00000000   Code   RO         5684    .ARM.Collect$$$$0000000F  mc_w.l(entry11a.o)
    0x00023210   0x00023210   0x00000004   Code   RO         5673    .ARM.Collect$$$$00002712  mc_w.l(entry2.o)
    0x00023214   0x00023214   0x000000c8   Code   RO         3441    .emb_text           nrf_atfifo.o
    0x000232dc   0x000232dc   0x0000009a   Code   RO         3820    .emb_text           nrf_memobj.o
    0x00023376   0x00023376   0x00000002   PAD
    0x00023378   0x00023378   0x0000009a   Code   RO         3899    .emb_text           nrf_pwr_mgmt.o
    0x00023412   0x00023412   0x00000002   PAD
    0x00023414   0x00023414   0x0000009a   Code   RO         4439    .emb_text           nrf_log_frontend.o
    0x000234ae   0x000234ae   0x00000002   PAD
    0x000234b0   0x000234b0   0x00000024   Code   RO         5328    .text               arm_startup_nrf52.o
    0x000234d4   0x000234d4   0x00000062   Code   RO         5371    .text               mc_w.l(uldiv.o)
    0x00023536   0x00023536   0x00000002   PAD
    0x00023538   0x00023538   0x00000008   Code   RO         5373    .text               mc_w.l(ctype_o.o)
    0x00023540   0x00023540   0x00000024   Code   RO         5401    .text               mc_w.l(memcpya.o)
    0x00023564   0x00023564   0x00000024   Code   RO         5403    .text               mc_w.l(memseta.o)
    0x00023588   0x00023588   0x0000000e   Code   RO         5405    .text               mc_w.l(strlen.o)
    0x00023596   0x00023596   0x00000012   Code   RO         5407    .text               mc_w.l(strcpy.o)
    0x000235a8   0x000235a8   0x0000001e   Code   RO         5688    .text               mc_w.l(llshl.o)
    0x000235c6   0x000235c6   0x00000020   Code   RO         5690    .text               mc_w.l(llushr.o)
    0x000235e6   0x000235e6   0x00000002   PAD
    0x000235e8   0x000235e8   0x00000024   Code   RO         5703    .text               mc_w.l(init.o)
    0x0002360c   0x0002360c   0x00000056   Code   RO         5717    .text               mc_w.l(__dczerorl2.o)
    0x00023662   0x00023662   0x00000002   PAD
    0x00023664   0x00023664   0x00000088   Code   RO          472    i.App_RecvHandler   protocol_analysis.o
    0x000236ec   0x000236ec   0x00000050   Code   RO          700    i.Crc8              nus_maser_datahanle.o
    0x0002373c   0x0002373c   0x00000174   Code   RO         2373    i.GPIOTE_IRQHandler  nrf_drv_gpiote.o
    0x000238b0   0x000238b0   0x00000070   Code   RO          701    i.HexToStr          nus_maser_datahanle.o
    0x00023920   0x00023920   0x00000016   Code   RO         3102    i.NVIC_ClearPendingIRQ  app_timer.o
    0x00023936   0x00023936   0x00000016   Code   RO         3103    i.NVIC_EnableIRQ    app_timer.o
    0x0002394c   0x0002394c   0x00000016   Code   RO         3104    i.NVIC_SetPendingIRQ  app_timer.o
    0x00023962   0x00023962   0x00000020   Code   RO         3105    i.NVIC_SetPriority  app_timer.o
    0x00023982   0x00023982   0x00000002   PAD
    0x00023984   0x00023984   0x00000058   Code   RO         2167    i.POWER_CLOCK_IRQHandler  nrf_drv_clock.o
    0x000239dc   0x000239dc   0x00000024   Code   RO         3106    i.RTC1_IRQHandler   app_timer.o
    0x00023a00   0x00023a00   0x00000004   Code   RO         4681    i.SEGGER_RTT_Init   segger_rtt.o
    0x00023a04   0x00023a04   0x0000005c   Code   RO         4695    i.SEGGER_RTT_WriteNoLock  segger_rtt.o
    0x00023a60   0x00023a60   0x00000004   Code   RO         3107    i.SWI0_EGU0_IRQHandler  app_timer.o
    0x00023a64   0x00023a64   0x00000004   Code   RO         4929    i.SWI2_EGU2_IRQHandler  nrf_sdh.o
    0x00023a68   0x00023a68   0x0000000c   Code   RO          473    i.Somputon_Init     protocol_analysis.o
    0x00023a74   0x00023a74   0x00000058   Code   RO         1041    i.SysRunningHandler  timer.o
    0x00023acc   0x00023acc   0x0000031c   Code   RO         5336    i.SystemInit        system_nrf52.o
    0x00023de8   0x00023de8   0x0000006c   Code   RO         1042    i.SystimerTick      timer.o
    0x00023e54   0x00023e54   0x00000024   Code   RO          865    i.UART2_Read_Queue  uart_queue.o
    0x00023e78   0x00023e78   0x0000001c   Code   RO         2620    i.UARTE0_UART0_IRQHandler  nrf_drv_uart.o
    0x00023e94   0x00023e94   0x00000020   Code   RO          868    i.USART2_Write_Queue  uart_queue.o
    0x00023eb4   0x00023eb4   0x00000038   Code   RO          941    i.Uart_App_RecvHandler  slava_device_data.o
    0x00023eec   0x00023eec   0x00000030   Code   RO          702    i.User_Get_Addr     nus_maser_datahanle.o
    0x00023f1c   0x00023f1c   0x000000f4   Code   RO          942    i.WIFI_Decode       slava_device_data.o
    0x00024010   0x00024010   0x00000068   Code   RO         4699    i._DoInit           segger_rtt.o
    0x00024078   0x00024078   0x00000016   Code   RO         4700    i._GetAvailWriteSpace  segger_rtt.o
    0x0002408e   0x0002408e   0x0000005a   Code   RO         4702    i._WriteBlocking    segger_rtt.o
    0x000240e8   0x000240e8   0x00000042   Code   RO         4703    i._WriteNoCheck     segger_rtt.o
    0x0002412a   0x0002412a   0x00000002   PAD
    0x0002412c   0x0002412c   0x00000020   Code   RO         5618    i.__0printf$8       mc_w.l(printf8.o)
    0x0002414c   0x0002414c   0x0000000e   Code   RO         5711    i.__scatterload_copy  mc_w.l(handlers.o)
    0x0002415a   0x0002415a   0x00000002   Code   RO         5712    i.__scatterload_null  mc_w.l(handlers.o)
    0x0002415c   0x0002415c   0x0000000e   Code   RO         5713    i.__scatterload_zeroinit  mc_w.l(handlers.o)
    0x0002416a   0x0002416a   0x00000002   PAD
    0x0002416c   0x0002416c   0x00000024   Code   RO         4930    i.__sd_nvic_app_accessible_irq  nrf_sdh.o
    0x00024190   0x00024190   0x00000016   Code   RO         4931    i.__sd_nvic_is_app_accessible_priority  nrf_sdh.o
    0x000241a6   0x000241a6   0x00000002   PAD
    0x000241a8   0x000241a8   0x00000410   Code   RO         5625    i._printf_core      mc_w.l(printf8.o)
    0x000245b8   0x000245b8   0x00000024   Code   RO         5626    i._printf_post_padding  mc_w.l(printf8.o)
    0x000245dc   0x000245dc   0x0000002e   Code   RO         5627    i._printf_pre_padding  mc_w.l(printf8.o)
    0x0002460a   0x0002460a   0x00000036   Code   RO         1499    i.advertising_buttons_configure  bsp_btn_ble.o
    0x00024640   0x00024640   0x00000070   Code   RO            4    i.advertising_init  main.o
    0x000246b0   0x000246b0   0x00000074   Code   RO            5    i.advertising_init_bond  main.o
    0x00024724   0x00024724   0x0000000e   Code   RO         1082    i.app_cnt_handle    app_work_handle.o
    0x00024732   0x00024732   0x00000002   PAD
    0x00024734   0x00024734   0x00000020   Code   RO         1083    i.app_connected_token_cnt  app_work_handle.o
    0x00024754   0x00024754   0x00000078   Code   RO         2947    i.app_error_fault_handler  app_error_weak.o
    0x000247cc   0x000247cc   0x00000016   Code   RO         2908    i.app_error_handler_bare  app_error.o
    0x000247e2   0x000247e2   0x00000016   Code   RO         2982    i.app_fifo_get      app_fifo.o
    0x000247f8   0x000247f8   0x00000020   Code   RO         2983    i.app_fifo_init     app_fifo.o
    0x00024818   0x00024818   0x0000001a   Code   RO         2985    i.app_fifo_put      app_fifo.o
    0x00024832   0x00024832   0x00000002   PAD
    0x00024834   0x00024834   0x00000028   Code   RO         3110    i.app_timer_create  app_timer.o
    0x0002485c   0x0002485c   0x00000054   Code   RO         3111    i.app_timer_init    app_timer.o
    0x000248b0   0x000248b0   0x00000088   Code   RO         3114    i.app_timer_start   app_timer.o
    0x00024938   0x00024938   0x00000020   Code   RO         3115    i.app_timer_stop    app_timer.o
    0x00024958   0x00024958   0x00000034   Code   RO         3273    i.app_uart_get      app_uart_fifo.o
    0x0002498c   0x0002498c   0x000000b4   Code   RO         3274    i.app_uart_init     app_uart_fifo.o
    0x00024a40   0x00024a40   0x0000003c   Code   RO         3275    i.app_uart_put      app_uart_fifo.o
    0x00024a7c   0x00024a7c   0x00000048   Code   RO         3328    i.app_util_critical_region_enter  app_util_platform.o
    0x00024ac4   0x00024ac4   0x00000034   Code   RO         3329    i.app_util_critical_region_exit  app_util_platform.o
    0x00024af8   0x00024af8   0x000000b8   Code   RO         2621    i.apply_config      nrf_drv_uart.o
    0x00024bb0   0x00024bb0   0x00000024   Code   RO         1007    i.big_data_send_proc  data_send_handle.o
    0x00024bd4   0x00024bd4   0x00000182   Code   RO         1581    i.ble_advdata_encode  ble_advdata.o
    0x00024d56   0x00024d56   0x00000068   Code   RO         1582    i.ble_advdata_set   ble_advdata.o
    0x00024dbe   0x00024dbe   0x00000006   Code   RO         1658    i.ble_advertising_conn_cfg_tag_set  ble_advertising.o
    0x00024dc4   0x00024dc4   0x00000136   Code   RO         1659    i.ble_advertising_init  ble_advertising.o
    0x00024efa   0x00024efa   0x00000068   Code   RO         1661    i.ble_advertising_on_ble_evt  ble_advertising.o
    0x00024f62   0x00024f62   0x00000032   Code   RO         1662    i.ble_advertising_on_sys_evt  ble_advertising.o
    0x00024f94   0x00024f94   0x000001ca   Code   RO         1665    i.ble_advertising_start  ble_advertising.o
    0x0002515e   0x0002515e   0x00000002   PAD
    0x00025160   0x00025160   0x00000068   Code   RO         1734    i.ble_conn_params_init  ble_conn_params.o
    0x000251c8   0x000251c8   0x00000060   Code   RO         1583    i.ble_device_addr_encode  ble_advdata.o
    0x00025228   0x00025228   0x0000002c   Code   RO         5148    i.ble_dfu_buttonless_bootloader_start_finalize  ble_dfu.o
    0x00025254   0x00025254   0x00000018   Code   RO         5240    i.ble_dfu_buttonless_bootloader_start_prepare  ble_dfu_unbonded.o
    0x0002526c   0x0002526c   0x000000b4   Code   RO         5150    i.ble_dfu_buttonless_on_ble_evt  ble_dfu.o
    0x00025320   0x00025320   0x000000a0   Code   RO         5242    i.ble_dfu_buttonless_on_ctrl_pt_write  ble_dfu_unbonded.o
    0x000253c0   0x000253c0   0x0000004c   Code   RO         5243    i.ble_dfu_buttonless_on_sys_evt  ble_dfu_unbonded.o
    0x0002540c   0x0002540c   0x00000054   Code   RO         5151    i.ble_dfu_buttonless_resp_send  ble_dfu.o
    0x00025460   0x00025460   0x00000148   Code   RO            7    i.ble_evt_handler   main.o
    0x000255a8   0x000255a8   0x00000070   Code   RO         1500    i.ble_evt_handler   bsp_btn_ble.o
    0x00025618   0x00025618   0x000000fc   Code   RO         1736    i.ble_evt_handler   ble_conn_params.o
    0x00025714   0x00025714   0x0000010c   Code   RO         1827    i.ble_evt_handler   ble_conn_state.o
    0x00025820   0x00025820   0x00000064   Code   RO         2117    i.ble_nus_init      ble_nus.o
    0x00025884   0x00025884   0x0000008c   Code   RO         2118    i.ble_nus_on_ble_evt  ble_nus.o
    0x00025910   0x00025910   0x00000048   Code   RO         2119    i.ble_nus_string_send  ble_nus.o
    0x00025958   0x00025958   0x00000008   Code   RO         1962    i.ble_srv_is_indication_enabled  ble_srv_common.o
    0x00025960   0x00025960   0x00000008   Code   RO         1963    i.ble_srv_is_notification_enabled  ble_srv_common.o
    0x00025968   0x00025968   0x00000058   Code   RO          565    i.bond_cmd          somputon_ble_datahandle.o
    0x000259c0   0x000259c0   0x00000058   Code   RO          566    i.bond_cmd_ack      somputon_ble_datahandle.o
    0x00025a18   0x00025a18   0x0000001c   Code   RO         1084    i.bond_timeout_cnt  app_work_handle.o
    0x00025a34   0x00025a34   0x0000000c   Code   RO         1273    i.bsp_board_button_idx_to_pin  boards.o
    0x00025a40   0x00025a40   0x00000024   Code   RO         1277    i.bsp_board_led_invert  boards.o
    0x00025a64   0x00025a64   0x00000010   Code   RO         1278    i.bsp_board_led_off  boards.o
    0x00025a74   0x00025a74   0x00000010   Code   RO         1279    i.bsp_board_led_on  boards.o
    0x00025a84   0x00025a84   0x00000020   Code   RO         1280    i.bsp_board_led_state_get  boards.o
    0x00025aa4   0x00025aa4   0x00000012   Code   RO         1282    i.bsp_board_leds_off  boards.o
    0x00025ab6   0x00025ab6   0x00000012   Code   RO         1283    i.bsp_board_leds_on  boards.o
    0x00025ac8   0x00025ac8   0x00000024   Code   RO         1284    i.bsp_board_pin_to_button_idx  boards.o
    0x00025aec   0x00025aec   0x0000001e   Code   RO         1502    i.bsp_btn_ble_sleep_mode_prepare  bsp_btn_ble.o
    0x00025b0a   0x00025b0a   0x00000002   PAD
    0x00025b0c   0x00025b0c   0x00000090   Code   RO         1383    i.bsp_button_event_handler  bsp.o
    0x00025b9c   0x00025b9c   0x00000044   Code   RO         1387    i.bsp_event_to_button_action_assign  bsp.o
    0x00025be0   0x00025be0   0x00000018   Code   RO         1388    i.bsp_indication_set  bsp.o
    0x00025bf8   0x00025bf8   0x000001b8   Code   RO         1390    i.bsp_led_indication  bsp.o
    0x00025db0   0x00025db0   0x00000010   Code   RO         1392    i.bsp_wakeup_button_enable  bsp.o
    0x00025dc0   0x00025dc0   0x00000064   Code   RO         4440    i.buf_prealloc      nrf_log_frontend.o
    0x00025e24   0x00025e24   0x0000001e   Code   RO         3598    i.buffer_add        nrf_fprintf_format.o
    0x00025e42   0x00025e42   0x00000002   PAD
    0x00025e44   0x00025e44   0x00000014   Code   RO         4441    i.buffer_is_empty   nrf_log_frontend.o
    0x00025e58   0x00025e58   0x00000010   Code   RO         2376    i.channel_port_get  nrf_drv_gpiote.o
    0x00025e68   0x00025e68   0x0000000c   Code   RO         1085    i.clear_app_connected_cnt  app_work_handle.o
    0x00025e74   0x00025e74   0x00000002   Code   RO          567    i.clear_history_data_cmd  somputon_ble_datahandle.o
    0x00025e76   0x00025e76   0x00000002   PAD
    0x00025e78   0x00025e78   0x00000028   Code   RO         2168    i.clock_clk_started_notify  nrf_drv_clock.o
    0x00025ea0   0x00025ea0   0x0000002c   Code   RO         1087    i.communicate_flag_set  app_work_handle.o
    0x00025ecc   0x00025ecc   0x000000ac   Code   RO         3117    i.compare_reg_update  app_timer.o
    0x00025f78   0x00025f78   0x00000088   Code   RO         1584    i.conn_int_encode   ble_advdata.o
    0x00026000   0x00026000   0x00000004   Code   RO            9    i.conn_params_error_handler  main.o
    0x00026004   0x00026004   0x00000048   Code   RO         1737    i.conn_params_negotiation  ble_conn_params.o
    0x0002604c   0x0002604c   0x0000006c   Code   RO          569    i.control_uart_to_nus  somputon_ble_datahandle.o
    0x000260b8   0x000260b8   0x00000054   Code   RO         1008    i.data_send         data_send_handle.o
    0x0002610c   0x0002610c   0x00000040   Code   RO         3118    i.elapsed_ticks_acquire  app_timer.o
    0x0002614c   0x0002614c   0x0000004e   Code   RO         3705    i.event_send        nrf_fstorage_sd.o
    0x0002619a   0x0002619a   0x00000014   Code   RO         2988    i.fifo_get          app_fifo.o
    0x000261ae   0x000261ae   0x00000012   Code   RO         2989    i.fifo_put          app_fifo.o
    0x000261c0   0x000261c0   0x0000000e   Code   RO         4048    i.fputc             retarget.o
    0x000261ce   0x000261ce   0x00000002   PAD
    0x000261d0   0x000261d0   0x00000088   Code   RO           10    i.gap_params_init   main.o
    0x00026258   0x00026258   0x00000054   Code   RO           11    i.gatt_evt_handler  main.o
    0x000262ac   0x000262ac   0x00000030   Code   RO           12    i.gatt_init         main.o
    0x000262dc   0x000262dc   0x0000002c   Code   RO         1088    i.get_communicate_flag_status  app_work_handle.o
    0x00026308   0x00026308   0x00000020   Code   RO          703    i.get_mac_addr      nus_maser_datahanle.o
    0x00026328   0x00026328   0x00000064   Code   RO          571    i.get_real_time_data_cmd  somputon_ble_datahandle.o
    0x0002638c   0x0002638c   0x00000014   Code   RO         1738    i.instance_get      ble_conn_params.o
    0x000263a0   0x000263a0   0x000000a6   Code   RO         3599    i.int_print         nrf_fprintf_format.o
    0x00026446   0x00026446   0x00000002   PAD
    0x00026448   0x00026448   0x00000078   Code   RO         2622    i.interrupts_enable  nrf_drv_uart.o
    0x000264c0   0x000264c0   0x00000044   Code   RO         1739    i.is_conn_params_ok  ble_conn_params.o
    0x00026504   0x00026504   0x00000036   Code   RO          787    i.led_init          led_control.o
    0x0002653a   0x0002653a   0x00000002   PAD
    0x0002653c   0x0002653c   0x00000030   Code   RO         1394    i.leds_off          bsp.o
    0x0002656c   0x0002656c   0x00000028   Code   RO         2171    i.lfclk_stop        nrf_drv_clock.o
    0x00026594   0x00026594   0x00000018   Code   RO         2020    i.link_init         nrf_ble_gatt.o
    0x000265ac   0x000265ac   0x000000f8   Code   RO         3119    i.list_insertions_handler  app_timer.o
    0x000266a4   0x000266a4   0x00000094   Code   RO         4443    i.log_skip          nrf_log_frontend.o
    0x00026738   0x00026738   0x00000170   Code   RO           13    i.main              main.o
    0x000268a8   0x000268a8   0x00000064   Code   RO         1585    i.manuf_specific_data_encode  ble_advdata.o
    0x0002690c   0x0002690c   0x00000076   Code   RO         3821    i.memobj_op         nrf_memobj.o
    0x00026982   0x00026982   0x00000002   PAD
    0x00026984   0x00026984   0x00000034   Code   RO         4444    i.module_idx_get    nrf_log_frontend.o
    0x000269b8   0x000269b8   0x0000009c   Code   RO         1586    i.name_encode       ble_advdata.o
    0x00026a54   0x00026a54   0x00000016   Code   RO         3447    i.nrf_atfifo_item_free  nrf_atfifo.o
    0x00026a6a   0x00026a6a   0x00000016   Code   RO         3448    i.nrf_atfifo_item_get  nrf_atfifo.o
    0x00026a80   0x00026a80   0x0000000e   Code   RO         4445    i.nrf_atomic_flag_set  nrf_log_frontend.o
    0x00026a8e   0x00026a8e   0x00000044   Code   RO         3514    i.nrf_balloc_alloc  nrf_balloc.o
    0x00026ad2   0x00026ad2   0x00000030   Code   RO         3515    i.nrf_balloc_free   nrf_balloc.o
    0x00026b02   0x00026b02   0x00000030   Code   RO         3516    i.nrf_balloc_init   nrf_balloc.o
    0x00026b32   0x00026b32   0x00000010   Code   RO         2377    i.nrf_bitmask_bit_is_set  nrf_drv_gpiote.o
    0x00026b42   0x00026b42   0x00000018   Code   RO         2022    i.nrf_ble_gatt_att_mtu_periph_set  nrf_ble_gatt.o
    0x00026b5a   0x00026b5a   0x00000022   Code   RO         2026    i.nrf_ble_gatt_init  nrf_ble_gatt.o
    0x00026b7c   0x00026b7c   0x00000148   Code   RO         2027    i.nrf_ble_gatt_on_ble_evt  nrf_ble_gatt.o
    0x00026cc4   0x00026cc4   0x0000000e   Code   RO         2172    i.nrf_clock_event_check  nrf_drv_clock.o
    0x00026cd2   0x00026cd2   0x00000010   Code   RO         2173    i.nrf_clock_event_clear  nrf_drv_clock.o
    0x00026ce2   0x00026ce2   0x00000002   PAD
    0x00026ce4   0x00026ce4   0x0000008c   Code   RO         3120    i.nrf_delay_us      app_timer.o
    0x00026d70   0x00026d70   0x00000048   Code   RO         2180    i.nrf_drv_clock_init  nrf_drv_clock.o
    0x00026db8   0x00026db8   0x0000002c   Code   RO         2184    i.nrf_drv_clock_lfclk_release  nrf_drv_clock.o
    0x00026de4   0x00026de4   0x00000038   Code   RO         2337    i.nrf_drv_common_irq_enable  nrf_drv_common.o
    0x00026e1c   0x00026e1c   0x00000006   Code   RO         2624    i.nrf_drv_get_IRQn  nrf_drv_uart.o
    0x00026e22   0x00026e22   0x00000010   Code   RO         2625    i.nrf_drv_is_in_RAM  nrf_drv_uart.o
    0x00026e32   0x00026e32   0x00000002   PAD
    0x00026e34   0x00026e34   0x00000068   Code   RO         2627    i.nrf_drv_uart_init  nrf_drv_uart.o
    0x00026e9c   0x00026e9c   0x000000b0   Code   RO         2628    i.nrf_drv_uart_rx   nrf_drv_uart.o
    0x00026f4c   0x00026f4c   0x00000030   Code   RO         2631    i.nrf_drv_uart_rx_enable  nrf_drv_uart.o
    0x00026f7c   0x00026f7c   0x000000a8   Code   RO         2632    i.nrf_drv_uart_rx_for_uart  nrf_drv_uart.o
    0x00027024   0x00027024   0x000000b0   Code   RO         2633    i.nrf_drv_uart_rx_for_uarte  nrf_drv_uart.o
    0x000270d4   0x000270d4   0x0000010c   Code   RO         2635    i.nrf_drv_uart_tx   nrf_drv_uart.o
    0x000271e0   0x000271e0   0x00000018   Code   RO         2637    i.nrf_drv_uart_tx_in_progress  nrf_drv_uart.o
    0x000271f8   0x000271f8   0x0000001a   Code   RO         3555    i.nrf_fprintf       nrf_fprintf.o
    0x00027212   0x00027212   0x00000018   Code   RO         3556    i.nrf_fprintf_buffer_flush  nrf_fprintf.o
    0x0002722a   0x0002722a   0x000001da   Code   RO         3600    i.nrf_fprintf_fmt   nrf_fprintf_format.o
    0x00027404   0x00027404   0x00000050   Code   RO         3639    i.nrf_fstorage_is_busy  nrf_fstorage.o
    0x00027454   0x00027454   0x00000018   Code   RO         3708    i.nrf_fstorage_sdh_req_handler  nrf_fstorage_sd.o
    0x0002746c   0x0002746c   0x00000020   Code   RO         3709    i.nrf_fstorage_sdh_state_handler  nrf_fstorage_sd.o
    0x0002748c   0x0002748c   0x000000a4   Code   RO         3710    i.nrf_fstorage_sys_evt_handler  nrf_fstorage_sd.o
    0x00027530   0x00027530   0x00000024   Code   RO         2639    i.nrf_gpio_cfg      nrf_drv_uart.o
    0x00027554   0x00027554   0x00000012   Code   RO         2641    i.nrf_gpio_cfg_input  nrf_drv_uart.o
    0x00027566   0x00027566   0x00000010   Code   RO          788    i.nrf_gpio_cfg_output  led_control.o
    0x00027576   0x00027576   0x00000014   Code   RO         2642    i.nrf_gpio_cfg_output  nrf_drv_uart.o
    0x0002758a   0x0002758a   0x00000022   Code   RO         1396    i.nrf_gpio_cfg_sense_set  bsp.o
    0x000275ac   0x000275ac   0x00000022   Code   RO         2403    i.nrf_gpio_cfg_sense_set  nrf_drv_gpiote.o
    0x000275ce   0x000275ce   0x00000016   Code   RO         1287    i.nrf_gpio_pin_write  boards.o
    0x000275e4   0x000275e4   0x00000028   Code   RO         2404    i.nrf_gpio_ports_read  nrf_drv_gpiote.o
    0x0002760c   0x0002760c   0x00000014   Code   RO         2405    i.nrf_gpiote_event_clear  nrf_drv_gpiote.o
    0x00027620   0x00027620   0x00000010   Code   RO         2406    i.nrf_gpiote_event_is_set  nrf_drv_gpiote.o
    0x00027630   0x00027630   0x00000050   Code   RO         4446    i.nrf_log_backend_add  nrf_log_frontend.o
    0x00027680   0x00027680   0x00000002   Code   RO         4308    i.nrf_log_backend_rtt_flush  nrf_log_backend_rtt.o
    0x00027682   0x00027682   0x00000004   Code   RO         4309    i.nrf_log_backend_rtt_init  nrf_log_backend_rtt.o
    0x00027686   0x00027686   0x00000002   Code   RO         4310    i.nrf_log_backend_rtt_panic_set  nrf_log_backend_rtt.o
    0x00027688   0x00027688   0x00000018   Code   RO         4311    i.nrf_log_backend_rtt_put  nrf_log_backend_rtt.o
    0x000276a0   0x000276a0   0x000000d2   Code   RO         4372    i.nrf_log_backend_serial_put  nrf_log_backend_serial.o
    0x00027772   0x00027772   0x00000002   PAD
    0x00027774   0x00027774   0x00000030   Code   RO         4448    i.nrf_log_color_id_get  nrf_log_frontend.o
    0x000277a4   0x000277a4   0x0000001c   Code   RO         4406    i.nrf_log_default_backends_init  nrf_log_default_backends.o
    0x000277c0   0x000277c0   0x000001f0   Code   RO         4449    i.nrf_log_frontend_dequeue  nrf_log_frontend.o
    0x000279b0   0x000279b0   0x00000008   Code   RO         4451    i.nrf_log_frontend_std_0  nrf_log_frontend.o
    0x000279b8   0x000279b8   0x0000000e   Code   RO         4452    i.nrf_log_frontend_std_1  nrf_log_frontend.o
    0x000279c6   0x000279c6   0x00000010   Code   RO         4453    i.nrf_log_frontend_std_2  nrf_log_frontend.o
    0x000279d6   0x000279d6   0x00000002   PAD
    0x000279d8   0x000279d8   0x000000ac   Code   RO         4631    i.nrf_log_hexdump_entry_process  nrf_log_str_formatter.o
    0x00027a84   0x00027a84   0x0000005c   Code   RO         4458    i.nrf_log_init      nrf_log_frontend.o
    0x00027ae0   0x00027ae0   0x00000014   Code   RO         4459    i.nrf_log_module_cnt_get  nrf_log_frontend.o
    0x00027af4   0x00027af4   0x0000001c   Code   RO         4462    i.nrf_log_module_name_get  nrf_log_frontend.o
    0x00027b10   0x00027b10   0x00000028   Code   RO         4463    i.nrf_log_panic     nrf_log_frontend.o
    0x00027b38   0x00027b38   0x000000b6   Code   RO         4632    i.nrf_log_std_entry_process  nrf_log_str_formatter.o
    0x00027bee   0x00027bee   0x00000060   Code   RO         3822    i.nrf_memobj_alloc  nrf_memobj.o
    0x00027c4e   0x00027c4e   0x00000032   Code   RO         3823    i.nrf_memobj_free   nrf_memobj.o
    0x00027c80   0x00027c80   0x0000000e   Code   RO         3824    i.nrf_memobj_get    nrf_memobj.o
    0x00027c8e   0x00027c8e   0x00000004   Code   RO         3825    i.nrf_memobj_pool_init  nrf_memobj.o
    0x00027c92   0x00027c92   0x00000022   Code   RO         3826    i.nrf_memobj_put    nrf_memobj.o
    0x00027cb4   0x00027cb4   0x0000000c   Code   RO         3827    i.nrf_memobj_read   nrf_memobj.o
    0x00027cc0   0x00027cc0   0x0000000c   Code   RO         3828    i.nrf_memobj_write  nrf_memobj.o
    0x00027ccc   0x00027ccc   0x00000040   Code   RO         3903    i.nrf_pwr_mgmt_shutdown  nrf_pwr_mgmt.o
    0x00027d0c   0x00027d0c   0x00000014   Code   RO         5060    i.nrf_sdh_ble_app_ram_start_get  nrf_sdh_ble.o
    0x00027d20   0x00027d20   0x00000158   Code   RO         5061    i.nrf_sdh_ble_default_cfg_set  nrf_sdh_ble.o
    0x00027e78   0x00027e78   0x000000e0   Code   RO         5062    i.nrf_sdh_ble_enable  nrf_sdh_ble.o
    0x00027f58   0x00027f58   0x00000050   Code   RO         5063    i.nrf_sdh_ble_evts_poll  nrf_sdh_ble.o
    0x00027fa8   0x00027fa8   0x0000003c   Code   RO         4932    i.nrf_sdh_disable_request  nrf_sdh.o
    0x00027fe4   0x00027fe4   0x0000006c   Code   RO         4933    i.nrf_sdh_enable_request  nrf_sdh.o
    0x00028050   0x00028050   0x00000024   Code   RO         4934    i.nrf_sdh_evts_poll  nrf_sdh.o
    0x00028074   0x00028074   0x0000000c   Code   RO         4935    i.nrf_sdh_is_enabled  nrf_sdh.o
    0x00028080   0x00028080   0x0000001c   Code   RO         4937    i.nrf_sdh_request_continue  nrf_sdh.o
    0x0002809c   0x0002809c   0x0000003c   Code   RO         5116    i.nrf_sdh_soc_evts_poll  nrf_sdh_soc.o
    0x000280d8   0x000280d8   0x0000000a   Code   RO         3979    i.nrf_section_iter_init  nrf_section_iter.o
    0x000280e2   0x000280e2   0x00000024   Code   RO         3980    i.nrf_section_iter_item_set  nrf_section_iter.o
    0x00028106   0x00028106   0x00000020   Code   RO         3981    i.nrf_section_iter_next  nrf_section_iter.o
    0x00028126   0x00028126   0x00000002   PAD
    0x00028128   0x00028128   0x00000038   Code   RO         4014    i.nrf_strerror_find  nrf_strerror.o
    0x00028160   0x00028160   0x00000014   Code   RO         4015    i.nrf_strerror_get  nrf_strerror.o
    0x00028174   0x00028174   0x0000000a   Code   RO         2643    i.nrf_uart_event_check  nrf_drv_uart.o
    0x0002817e   0x0002817e   0x0000000c   Code   RO         2644    i.nrf_uart_event_clear  nrf_drv_uart.o
    0x0002818a   0x0002818a   0x0000000c   Code   RO         2645    i.nrf_uart_int_enable_check  nrf_drv_uart.o
    0x00028196   0x00028196   0x0000000a   Code   RO         2646    i.nrf_uarte_event_check  nrf_drv_uart.o
    0x000281a0   0x000281a0   0x0000000c   Code   RO         2647    i.nrf_uarte_event_clear  nrf_drv_uart.o
    0x000281ac   0x000281ac   0x00000100   Code   RO          704    i.nus_data_handle   nus_maser_datahanle.o
    0x000282ac   0x000282ac   0x00000028   Code   RO           14    i.nus_data_handler  main.o
    0x000282d4   0x000282d4   0x00000024   Code   RO           15    i.on_adv_evt        main.o
    0x000282f8   0x000282f8   0x0000001c   Code   RO           16    i.on_conn_params_evt  main.o
    0x00028314   0x00028314   0x0000009c   Code   RO         2028    i.on_connected_evt  nrf_ble_gatt.o
    0x000283b0   0x000283b0   0x00000074   Code   RO         2029    i.on_exchange_mtu_request_evt  nrf_ble_gatt.o
    0x00028424   0x00028424   0x00000070   Code   RO         5152    i.on_rw_authorize_req  ble_dfu.o
    0x00028494   0x00028494   0x0000003c   Code   RO         4633    i.postfix_process   nrf_log_str_formatter.o
    0x000284d0   0x000284d0   0x0000005c   Code   RO         4634    i.prefix_process    nrf_log_str_formatter.o
    0x0002852c   0x0002852c   0x00000098   Code   RO         3711    i.queue_process     nrf_fstorage_sd.o
    0x000285c4   0x000285c4   0x00000010   Code   RO         5064    i.ram_end_address_get  nrf_sdh_ble.o
    0x000285d4   0x000285d4   0x0000003c   Code   RO         3121    i.rtc1_stop         app_timer.o
    0x00028610   0x00028610   0x00000032   Code   RO         2649    i.rx_byte           nrf_drv_uart.o
    0x00028642   0x00028642   0x000000a2   Code   RO         2120    i.rx_char_add       ble_nus.o
    0x000286e4   0x000286e4   0x00000018   Code   RO         2650    i.rx_done_event     nrf_drv_uart.o
    0x000286fc   0x000286fc   0x00000020   Code   RO         2651    i.rx_enable         nrf_drv_uart.o
    0x0002871c   0x0002871c   0x00000042   Code   RO         4940    i.sd_nvic_SetPriority  nrf_sdh.o
    0x0002875e   0x0002875e   0x00000002   PAD
    0x00028760   0x00028760   0x00000054   Code   RO         2187    i.sd_state_evt_handler  nrf_drv_clock.o
    0x000287b4   0x000287b4   0x00000030   Code   RO         4941    i.sdh_request_observer_notify  nrf_sdh.o
    0x000287e4   0x000287e4   0x0000002c   Code   RO         4942    i.sdh_state_observer_notify  nrf_sdh.o
    0x00028810   0x00028810   0x00000044   Code   RO         4085    i.sdk_mapped_flags_bulk_update_by_key  sdk_mapped_flags.o
    0x00028854   0x00028854   0x00000022   Code   RO         4086    i.sdk_mapped_flags_first_key_index_get  sdk_mapped_flags.o
    0x00028876   0x00028876   0x00000010   Code   RO         4087    i.sdk_mapped_flags_get_by_index  sdk_mapped_flags.o
    0x00028886   0x00028886   0x0000004a   Code   RO         4090    i.sdk_mapped_flags_key_list_get  sdk_mapped_flags.o
    0x000288d0   0x000288d0   0x0000000e   Code   RO         4092    i.sdk_mapped_flags_update_by_key  sdk_mapped_flags.o
    0x000288de   0x000288de   0x00000002   PAD
    0x000288e0   0x000288e0   0x00000058   Code   RO          574    i.send_control_ack_cmd  somputon_ble_datahandle.o
    0x00028938   0x00028938   0x00000020   Code   RO           17    i.send_data_proc    main.o
    0x00028958   0x00028958   0x000000b8   Code   RO         1091    i.send_data_to_app_proc  app_work_handle.o
    0x00028a10   0x00028a10   0x00000010   Code   RO         1740    i.send_error_evt    ble_conn_params.o
    0x00028a20   0x00028a20   0x00000058   Code   RO          575    i.send_sync_time_cmd  somputon_ble_datahandle.o
    0x00028a78   0x00028a78   0x00000058   Code   RO          576    i.send_token_cmd    somputon_ble_datahandle.o
    0x00028ad0   0x00028ad0   0x0000002a   Code   RO         4312    i.serial_tx         nrf_log_backend_rtt.o
    0x00028afa   0x00028afa   0x00000002   PAD
    0x00028afc   0x00028afc   0x00000088   Code   RO         1587    i.service_data_encode  ble_advdata.o
    0x00028b84   0x00028b84   0x0000001c   Code   RO           18    i.set_adv_mode      main.o
    0x00028ba0   0x00028ba0   0x0000007c   Code   RO         3904    i.shutdown_process  nrf_pwr_mgmt.o
    0x00028c1c   0x00028c1c   0x00000028   Code   RO           19    i.sleep_mode_enter  main.o
    0x00028c44   0x00028c44   0x0000000a   Code   RO         2188    i.soc_evt_handler   nrf_drv_clock.o
    0x00028c4e   0x00028c4e   0x00000002   PAD
    0x00028c50   0x00028c50   0x00000038   Code   RO         4943    i.softdevice_evt_irq_disable  nrf_sdh.o
    0x00028c88   0x00028c88   0x00000050   Code   RO         4944    i.softdevices_evt_irq_enable  nrf_sdh.o
    0x00028cd8   0x00028cd8   0x00000090   Code   RO         4465    i.std_n             nrf_log_frontend.o
    0x00028d68   0x00028d68   0x0000006c   Code   RO          578    i.sync_time_ack     somputon_ble_datahandle.o
    0x00028dd4   0x00028dd4   0x00000020   Code   RO           20    i.sys_meas_timeout  main.o
    0x00028df4   0x00028df4   0x0000000e   Code   RO         1043    i.sys_tick_handle   timer.o
    0x00028e02   0x00028e02   0x00000002   PAD
    0x00028e04   0x00028e04   0x00000024   Code   RO           21    i.timer_init        main.o
    0x00028e28   0x00028e28   0x00000080   Code   RO         3122    i.timer_list_handler  app_timer.o
    0x00028ea8   0x00028ea8   0x0000003c   Code   RO         3123    i.timer_list_insert  app_timer.o
    0x00028ee4   0x00028ee4   0x00000060   Code   RO         3124    i.timer_list_remove  app_timer.o
    0x00028f44   0x00028f44   0x00000020   Code   RO           22    i.timer_start       main.o
    0x00028f64   0x00028f64   0x00000048   Code   RO         3125    i.timer_stop_op_schedule  app_timer.o
    0x00028fac   0x00028fac   0x00000074   Code   RO         3126    i.timer_timeouts_check  app_timer.o
    0x00029020   0x00029020   0x0000000c   Code   RO          705    i.turn_to_u16       nus_maser_datahanle.o
    0x0002902c   0x0002902c   0x00000020   Code   RO         2652    i.tx_byte           nrf_drv_uart.o
    0x0002904c   0x0002904c   0x000000da   Code   RO         2121    i.tx_char_add       ble_nus.o
    0x00029126   0x00029126   0x0000001c   Code   RO         2653    i.tx_done_event     nrf_drv_uart.o
    0x00029142   0x00029142   0x0000001a   Code   RO          871    i.uart_SendString   uart_queue.o
    0x0002915c   0x0002915c   0x0000000c   Code   RO          945    i.uart_cb_init      slava_device_data.o
    0x00029168   0x00029168   0x00000020   Code   RO           23    i.uart_event_handle  main.o
    0x00029188   0x00029188   0x000000a0   Code   RO         3276    i.uart_event_handler  app_uart_fifo.o
    0x00029228   0x00029228   0x0000011e   Code   RO         2654    i.uart_irq_handler  nrf_drv_uart.o
    0x00029346   0x00029346   0x00000002   PAD
    0x00029348   0x00029348   0x00000058   Code   RO         1212    i.uart_send_proc    uart_data_send_proc.o
    0x000293a0   0x000293a0   0x000000f0   Code   RO         2655    i.uarte_irq_handler  nrf_drv_uart.o
    0x00029490   0x00029490   0x0000000a   Code   RO         1588    i.uint16_encode     ble_advdata.o
    0x0002949a   0x0002949a   0x00000002   PAD
    0x0002949c   0x0002949c   0x000000b4   Code   RO         3601    i.unsigned_print    nrf_fprintf_format.o
    0x00029550   0x00029550   0x00000068   Code   RO         1741    i.update_timeout_handler  ble_conn_params.o
    0x000295b8   0x000295b8   0x0000002c   Code   RO         1093    i.user_enter_bond_mode  app_work_handle.o
    0x000295e4   0x000295e4   0x00000012   Code   RO         1094    i.user_exit_bond_mode  app_work_handle.o
    0x000295f6   0x000295f6   0x00000002   PAD
    0x000295f8   0x000295f8   0x00000030   Code   RO         3127    i.user_op_alloc     app_timer.o
    0x00029628   0x00029628   0x0000006c   Code   RO         1246    i.user_time_run     sync_time.o
    0x00029694   0x00029694   0x0000001c   Code   RO         1213    i.user_uart_mempcy  uart_data_send_proc.o
    0x000296b0   0x000296b0   0x00000030   Code   RO         1589    i.uuid_list_encode  ble_advdata.o
    0x000296e0   0x000296e0   0x0000009e   Code   RO         1590    i.uuid_list_sized_encode  ble_advdata.o
    0x0002977e   0x0002977e   0x00000002   PAD
    0x00029780   0x00029780   0x0000002d   Data   RO           27    .constdata          main.o
    0x000297ad   0x000297ad   0x00000008   Data   RO         1288    .constdata          boards.o
    0x000297b5   0x000297b5   0x00000003   PAD
    0x000297b8   0x000297b8   0x0000002c   Data   RO         1401    .constdata          bsp.o
    0x000297e4   0x000297e4   0x00000016   Data   RO         2030    .constdata          nrf_ble_gatt.o
    0x000297fa   0x000297fa   0x00000002   PAD
    0x000297fc   0x000297fc   0x00000020   Data   RO         2122    .constdata          ble_nus.o
    0x0002981c   0x0002981c   0x00000004   Data   RO         2410    .constdata          nrf_drv_gpiote.o
    0x00029820   0x00029820   0x00000020   Data   RO         3278    .constdata          app_uart_fifo.o
    0x00029840   0x00029840   0x00000010   Data   RO         3602    .constdata          nrf_fprintf_format.o
    0x00029850   0x00029850   0x00000010   Data   RO         3720    .constdata          nrf_fstorage_sd.o
    0x00029860   0x00029860   0x00000104   Data   RO         4016    .constdata          nrf_strerror.o
    0x00029964   0x00029964   0x0000000c   Data   RO         4314    .constdata          nrf_log_backend_rtt.o
    0x00029970   0x00029970   0x00000014   Data   RO         4468    .constdata          nrf_log_frontend.o
    0x00029984   0x00029984   0x00000010   Data   RO         4945    .constdata          nrf_sdh.o
    0x00029994   0x00029994   0x00000028   Data   RO         4946    .constdata          nrf_sdh.o
    0x000299bc   0x000299bc   0x00000010   Data   RO         4947    .constdata          nrf_sdh.o
    0x000299cc   0x000299cc   0x00000010   Data   RO         4948    .constdata          nrf_sdh.o
    0x000299dc   0x000299dc   0x00000020   Data   RO         5065    .constdata          nrf_sdh_ble.o
    0x000299fc   0x000299fc   0x00000010   Data   RO         5066    .constdata          nrf_sdh_ble.o
    0x00029a0c   0x00029a0c   0x00000010   Data   RO         5117    .constdata          nrf_sdh_soc.o
    0x00029a1c   0x00029a1c   0x0000000c   Data   RO         5118    .constdata          nrf_sdh_soc.o
    0x00029a28   0x00029a28   0x00000081   Data   RO         5374    .constdata          mc_w.l(ctype_o.o)
    0x00029aa9   0x00029aa9   0x00000003   PAD
    0x00029aac   0x00029aac   0x00000004   Data   RO         5375    .constdata          mc_w.l(ctype_o.o)
    0x00029ab0   0x00029ab0   0x0000012d   Data   RO         2031    .conststring        nrf_ble_gatt.o
    0x00029bdd   0x00029bdd   0x00000003   PAD
    0x00029be0   0x00029be0   0x00000307   Data   RO         4017    .conststring        nrf_strerror.o
    0x00029ee7   0x00029ee7   0x00000001   PAD
    0x00029ee8   0x00029ee8   0x00000066   Data   RO         4635    .conststring        nrf_log_str_formatter.o
    0x00029f4e   0x00029f4e   0x00000002   PAD
    0x00029f50   0x00029f50   0x000001cf   Data   RO         5067    .conststring        nrf_sdh_ble.o
    0x0002a11f   0x0002a11f   0x00000001   PAD
    0x0002a120   0x0002a120   0x00000009   Data   RO         2032    .conststrlit        nrf_ble_gatt.o
    0x0002a129   0x0002a129   0x00000003   PAD
    0x0002a12c   0x0002a12c   0x00000006   Data   RO         2194    .conststrlit        nrf_drv_clock.o
    0x0002a132   0x0002a132   0x00000002   PAD
    0x0002a134   0x0002a134   0x00000007   Data   RO         2414    .conststrlit        nrf_drv_gpiote.o
    0x0002a13b   0x0002a13b   0x00000001   PAD
    0x0002a13c   0x0002a13c   0x00000005   Data   RO         2657    .conststrlit        nrf_drv_uart.o
    0x0002a141   0x0002a141   0x00000003   PAD
    0x0002a144   0x0002a144   0x00000007   Data   RO         3517    .conststrlit        nrf_balloc.o
    0x0002a14b   0x0002a14b   0x00000001   PAD
    0x0002a14c   0x0002a14c   0x00000009   Data   RO         3908    .conststrlit        nrf_pwr_mgmt.o
    0x0002a155   0x0002a155   0x00000003   PAD
    0x0002a158   0x0002a158   0x00000004   Data   RO         4184    .conststrlit        nrf_drv_ppi.o
    0x0002a15c   0x0002a15c   0x00000004   Data   RO         4470    .conststrlit        nrf_log_frontend.o
    0x0002a160   0x0002a160   0x00000008   Data   RO         4949    .conststrlit        nrf_sdh.o
    0x0002a168   0x0002a168   0x0000000c   Data   RO         5068    .conststrlit        nrf_sdh_ble.o
    0x0002a174   0x0002a174   0x0000000c   Data   RO         5119    .conststrlit        nrf_sdh_soc.o
    0x0002a180   0x0002a180   0x00000020   Data   RO         5709    Region$$Table       anon$$obj.o
    0x0002a1a0   0x0002a1a0   0x00000008   Data   RO         2033    log_const_data      nrf_ble_gatt.o
    0x0002a1a8   0x0002a1a8   0x00000008   Data   RO         2195    log_const_data      nrf_drv_clock.o
    0x0002a1b0   0x0002a1b0   0x00000008   Data   RO         2415    log_const_data      nrf_drv_gpiote.o
    0x0002a1b8   0x0002a1b8   0x00000008   Data   RO         2658    log_const_data      nrf_drv_uart.o
    0x0002a1c0   0x0002a1c0   0x00000008   Data   RO         3518    log_const_data      nrf_balloc.o
    0x0002a1c8   0x0002a1c8   0x00000008   Data   RO         3910    log_const_data      nrf_pwr_mgmt.o
    0x0002a1d0   0x0002a1d0   0x00000008   Data   RO         4186    log_const_data      nrf_drv_ppi.o
    0x0002a1d8   0x0002a1d8   0x00000008   Data   RO         4474    log_const_data      nrf_log_frontend.o
    0x0002a1e0   0x0002a1e0   0x00000008   Data   RO         4951    log_const_data      nrf_sdh.o
    0x0002a1e8   0x0002a1e8   0x00000008   Data   RO         5070    log_const_data      nrf_sdh_ble.o
    0x0002a1f0   0x0002a1f0   0x00000008   Data   RO         5120    log_const_data      nrf_sdh_soc.o
    0x0002a1f8   0x0002a1f8   0x00000008   Data   RO         1830    sdh_ble_observers0  ble_conn_state.o
    0x0002a200   0x0002a200   0x00000010   Data   RO           33    sdh_ble_observers1  main.o
    0x0002a210   0x0002a210   0x00000008   Data   RO         1504    sdh_ble_observers1  bsp_btn_ble.o
    0x0002a218   0x0002a218   0x00000008   Data   RO         1744    sdh_ble_observers1  ble_conn_params.o
    0x0002a220   0x0002a220   0x00000008   Data   RO           34    sdh_ble_observers2  main.o
    0x0002a228   0x0002a228   0x00000008   Data   RO         5155    sdh_ble_observers2  ble_dfu.o
    0x0002a230   0x0002a230   0x00000008   Data   RO           35    sdh_ble_observers3  main.o
    0x0002a238   0x0002a238   0x00000008   Data   RO         3723    sdh_req_observers0  nrf_fstorage_sd.o
    0x0002a240   0x0002a240   0x00000008   Data   RO         2197    sdh_soc_observers0  nrf_drv_clock.o
    0x0002a248   0x0002a248   0x00000008   Data   RO         3724    sdh_soc_observers0  nrf_fstorage_sd.o
    0x0002a250   0x0002a250   0x00000008   Data   RO           36    sdh_soc_observers1  main.o
    0x0002a258   0x0002a258   0x00000008   Data   RO         5246    sdh_soc_observers1  ble_dfu_unbonded.o
    0x0002a260   0x0002a260   0x00000008   Data   RO         5072    sdh_stack_observers0  nrf_sdh_ble.o
    0x0002a268   0x0002a268   0x00000008   Data   RO         5122    sdh_stack_observers0  nrf_sdh_soc.o
    0x0002a270   0x0002a270   0x00000008   Data   RO         2198    sdh_state_observers0  nrf_drv_clock.o
    0x0002a278   0x0002a278   0x00000008   Data   RO         3725    sdh_state_observers0  nrf_fstorage_sd.o


    Execution Region RW_IRAM1 (Exec base: 0x20002770, Load base: 0x0002a280, Size: 0x00003cb8, Max: 0x0000d890, ABSOLUTE, COMPRESSED[0x00000040])

    Exec Addr    Load Addr    Size         Type   Attr      Idx    E Section Name        Object

    0x20002770   COMPRESSED   0x00000006   Data   RW           28    .data               main.o
    0x20002776   COMPRESSED   0x00000002   PAD
    0x20002778   COMPRESSED   0x00000004   Data   RW          475    .data               protocol_analysis.o
    0x2000277c   COMPRESSED   0x00000003   Data   RW          707    .data               nus_maser_datahanle.o
    0x2000277f   COMPRESSED   0x00000007   Data   RW          763    .data               system_variable.o
    0x20002786   COMPRESSED   0x00000002   PAD
    0x20002788   COMPRESSED   0x0000000c   Data   RW          949    .data               slava_device_data.o
    0x20002794   COMPRESSED   0x00000002   Data   RW         1010    .data               data_send_handle.o
    0x20002796   COMPRESSED   0x0000000e   Data   RW         1044    .data               timer.o
    0x200027a4   COMPRESSED   0x0000000c   Data   RW         1096    .data               app_work_handle.o
    0x200027b0   COMPRESSED   0x00000004   Data   RW         1215    .data               uart_data_send_proc.o
    0x200027b4   COMPRESSED   0x00000007   Data   RW         1248    .data               sync_time.o
    0x200027bb   COMPRESSED   0x00000001   PAD
    0x200027bc   COMPRESSED   0x00000010   Data   RW         1402    .data               bsp.o
    0x200027cc   COMPRESSED   0x00000008   Data   RW         1503    .data               bsp_btn_ble.o
    0x200027d4   COMPRESSED   0x00000008   Data   RW         1743    .data               ble_conn_params.o
    0x200027dc   COMPRESSED   0x00000014   Data   RW         3129    .data               app_timer.o
    0x200027f0   COMPRESSED   0x00000010   Data   RW         3279    .data               app_uart_fifo.o
    0x20002800   COMPRESSED   0x00000008   Data   RW         3722    .data               nrf_fstorage_sd.o
    0x20002808   COMPRESSED   0x00000008   Data   RW         3909    .data               nrf_pwr_mgmt.o
    0x20002810   COMPRESSED   0x00000004   Data   RW         4049    .data               retarget.o
    0x20002814   COMPRESSED   0x0000000c   Data   RW         4407    .data               nrf_log_default_backends.o
    0x20002820   COMPRESSED   0x00000008   Data   RW         4472    .data               nrf_log_frontend.o
    0x20002828   COMPRESSED   0x00000008   Data   RW         4473    .data               nrf_log_frontend.o
    0x20002830   COMPRESSED   0x00000038   Data   RW         4636    .data               nrf_log_str_formatter.o
    0x20002868   COMPRESSED   0x00000003   Data   RW         4950    .data               nrf_sdh.o
    0x2000286b   COMPRESSED   0x00000001   PAD
    0x2000286c   COMPRESSED   0x00000004   Data   RW         5069    .data               nrf_sdh_ble.o
    0x20002870   COMPRESSED   0x00000004   Data   RW         5245    .data               ble_dfu_unbonded.o
    0x20002874   COMPRESSED   0x00000004   Data   RW         5337    .data               system_nrf52.o
    0x20002878   COMPRESSED   0x0000000c   Data   RW         2034    log_dynamic_data    nrf_ble_gatt.o
    0x20002884   COMPRESSED   0x0000000c   Data   RW         2196    log_dynamic_data    nrf_drv_clock.o
    0x20002890   COMPRESSED   0x0000000c   Data   RW         2416    log_dynamic_data    nrf_drv_gpiote.o
    0x2000289c   COMPRESSED   0x0000000c   Data   RW         2659    log_dynamic_data    nrf_drv_uart.o
    0x200028a8   COMPRESSED   0x0000000c   Data   RW         3519    log_dynamic_data    nrf_balloc.o
    0x200028b4   COMPRESSED   0x0000000c   Data   RW         3911    log_dynamic_data    nrf_pwr_mgmt.o
    0x200028c0   COMPRESSED   0x0000000c   Data   RW         4187    log_dynamic_data    nrf_drv_ppi.o
    0x200028cc   COMPRESSED   0x0000000c   Data   RW         4475    log_dynamic_data    nrf_log_frontend.o
    0x200028d8   COMPRESSED   0x0000000c   Data   RW         4952    log_dynamic_data    nrf_sdh.o
    0x200028e4   COMPRESSED   0x0000000c   Data   RW         5071    log_dynamic_data    nrf_sdh_ble.o
    0x200028f0   COMPRESSED   0x0000000c   Data   RW         5121    log_dynamic_data    nrf_sdh_soc.o
    0x200028fc        -       0x00000020   Zero   RW           24    .bss                main.o
    0x2000291c        -       0x0000063a   Zero   RW           26    .bss                main.o
    0x20002f56        -       0x000000f6   Zero   RW          706    .bss                nus_maser_datahanle.o
    0x2000304c        -       0x0000023e   Zero   RW          872    .bss                uart_queue.o
    0x2000328a        -       0x000000d4   Zero   RW          947    .bss                slava_device_data.o
    0x2000335e        -       0x000003e8   Zero   RW         1009    .bss                data_send_handle.o
    0x20003746        -       0x00000101   Zero   RW         1214    .bss                uart_data_send_proc.o
    0x20003847   COMPRESSED   0x00000001   PAD
    0x20003848        -       0x00000020   Zero   RW         1397    .bss                bsp.o
    0x20003868        -       0x00000020   Zero   RW         1398    .bss                bsp.o
