:020000040002F8
:1030000028640020B1340200B9340200BB3402004D
:10301000BD340200BF340200C134020000000000D1
:10302000000000000000000000000000C3340200A7
:10303000C534020000000000C7340200C934020099
:1030400085390200CB340200793E0200CB34020005
:10305000CB340200CB3402003D370200CB340200F7
:10306000CB340200CB340200CB340200CB3402005C
:10307000CB340200CB340200CB340200CB3402004C
:10308000CB340200DD390200CB340200CB34020025
:10309000613A0200CB340200653A0200CB340200F0
:1030A000CB340200CB340200CB340200CB3402001C
:1030B000CB340200CB34020000000000000000000E
:1030C000CB340200CB340200CB340200CB340200FC
:1030D000CB340200CB340200CB34020000000000ED
:1030E00000000000000000000000000000000000E0
:1030F00000000000000000000000000000000000D0
:1031000000000000000000000000000000000000BF
:1031100000000000000000000000000000000000AF
:10312000000000000000000000000000000000009F
:10313000000000000000000000000000000000008F
:10314000000000000000000000000000000000007F
:10315000000000000000000000000000000000006F
:10316000000000000000000000000000000000005F
:10317000000000000000000000000000000000004F
:10318000000000000000000000000000000000003F
:10319000000000000000000000000000000000002F
:1031A000000000000000000000000000000000001F
:1031B000000000000000000000000000000000000F
:1031C00000000000000000000000000000000000FF
:1031D00000000000000000000000000000000000EF
:1031E00000000000000000000000000000000000DF
:1031F00000000000000000000000000000000000CF
:10320000DFF80CD000F0F0F9004800473967020001
:103210002864002030B450E8012F93B2C4892344BD
:103220008489A34228BF1B1B0489A34202BFBFF3AA
:103230002F8F002007E0C3EA020340E80134002C8E
:10324000E9D14FF001000A6030BC704750E8012F0F
:10325000C2EA024240E801210029F7D1704730B4A8
:1032600050E8022F1FFAA2F3C488A34202BFBFF3A3
:103270002F8F00200DE0C48923448489A34228BFF6
:103280001B1BC2EA034340E80234002CE8D14FF094
:1032900001000A6030BC704750E8022FC2EA2242A7
:1032A00040E802210029F7D17047034653E8022F76
:1032B000D988B2EB324F4FF0000017BF92B241EA0B
:1032C000014142EA014104E05A68B2EB324F08BFC3
:1032D000012043E80212002AE8D1704730B40446C6
:1032E00054E8000F0D4644E80053002BF8D1156058
:1032F00030BC704730B4044654E8000F40EA010582
:1033000044E80053002BF7D1156030BC704730B44F
:10331000044654E8000F00EA010544E80053002B7E
:10332000F7D1156030BC704730B4044654E8000F44
:1033300080EA010544E80053002BF7D1156030BC4A
:10334000704730B4044654E8000F00EB010544E830
:103350000053002BF7D1156030BC704730B40446E1
:1033600054E8000FA0EB010544E80053002BF7D10F
:10337000156030BC7047000030B4044654E8000FBC
:103380000D4644E80053002BF8D1156030BC70475F
:1033900030B4044654E8000F40EA010544E8005305
:1033A000002BF7D1156030BC704730B4044654E8A8
:1033B000000F00EA010544E80053002BF7D1156027
:1033C00030BC704730B4044654E8000F80EA010571
:1033D00044E80053002BF7D1156030BC704730B47F
:1033E000044654E8000F00EB010544E80053002BAD
:1033F000F7D1156030BC704730B4044654E8000F74
:10340000A0EB010544E80053002BF7D1156030BC58
:103410007047000030B4044654E8000F0D4644E8FD
:103420000053002BF8D1156030BC704730B404460F
:1034300054E8000F40EA010544E80053002BF7D19F
:10344000156030BC704730B4044654E8000F00EA01
:10345000010544E80053002BF7D1156030BC7047DC
:1034600030B4044654E8000F80EA010544E80053F4
:10347000002BF7D1156030BC704730B4044654E8D7
:10348000000F00EB010544E80053002BF7D1156055
:1034900030BC704730B4044654E8000FA0EB01057F
:1034A00044E80053002BF7D1156030BC7047000092
:1034B0000648804706480047FEE7FEE7FEE7FEE7CE
:1034C000FEE7FEE7FEE7FEE7FEE7FEE7CD3A020095
:1034D000013202002DE9F05F0546002092469B462E
:1034E00088460646814640241BE02846414647461A
:1034F000224600F068F853465A46C01A914110D34C
:1035000011461846224600F04FF82D1A67EB0108C5
:103510004F4622460120002100F046F817EB000933
:103520004E41201EA4F10104DFDC484631462A4604
:103530004346BDE8F09F000000487047AC9A020087
:1035400040EA01039B0703D009E008C9121F08C025
:10355000042AFAD203E011F8013B00F8013B521EA5
:10356000F9D27047D2B201E000F8012B491EFBD21C
:1035700070470022F6E710B513460A46044619467E
:10358000FFF7F0FF204610BD421C10F8011B002978
:10359000FBD1801A7047034611F8012B00F8012B6C
:1035A000002AF9D118467047202A04DB203A00FA95
:1035B00002F1002070479140C2F1200320FA03F38A
:1035C000194390407047202A04DB203A21FA02F088
:1035D0000021704721FA02F3D040C2F1200291404D
:1035E0000843194670470000064C074D06E0E068A6
:1035F00040F0010394E8070098471034AC42F6D33A
:10360000FFF702FE80A10200A0A1020070B58C1895
:1036100010F8015B15F0070301D110F8013B2A11E6
:1036200006D110F8012B03E010F8016B01F8016BD3
:103630005B1EF9D12B0705D40023521E0DD401F8CF
:10364000013BFAE710F8013BCB1A921C03E013F898
:10365000015B01F8015B521EF9D5A142D8D30020CD
:1036600070BD000010B5372828D009DC31282BDDCB
:10367000322826D0352827D1BDE8104002F0FABB09
:103680004AF22002811A904213D009DC39281BD05B
:10369000402819D101210420BDE8104002F000BCEF
:1036A000022911D020290FD1BDE8104007A000F059
:1036B0003DBD02F0D9FB00210846EDE701210220C3
:1036C000EAE701210846E7E710BD00002D2D2D2D6A
:1036D0002D2D2D2D2D2D2D2D2D2D7A6D7920636FD6
:1036E0006E74726F6C2061636B00000070B5124ADB
:1036F000002414701AE000BF10F8013B537094705E
:103700001378557883EA0506F60705D083F0180389
:103710005B0843F0800300E05B0813706B08537094
:1037200093785B1CDBB29370082BE9D3491EC9B2B6
:10373000E2D2107870BD00007C2700202DE9F04710
:1037400000268CB0DFF86091B0464FF480750124FC
:1037500037460696284603F063FF38B1D9F80403CC
:10376000204203D0284603F051FF26432D1D64005C
:103770007F1CADB2082FEDD34FF4BE74204603F08A
:103780004FFF48B1204603F041FF46F0004606AA2D
:103790000121002003F026FF444D16F0FF0F15D045
:1037A0000127002437420DD009EB8401D1F8100520
:1037B000D1F81015C0F3042055F82420C1F30141BD
:1037C00002B190477F00641C082CEBD3002E67DA0F
:1037D0004FF0FF30CDE9088000263446281910F854
:1037E000507F90F9000027F0C008401C44D009A980
:1037F000404603F09EF958B34FEA9719404602F04D
:103800002BFB55F820701FB1B9F1030F03D00FE067
:10381000B9F1030F30D108A84FEAD80208F0070326
:10382000815C4FF0010C0CFA03FC41EA0C0181545D
:103830004FF0A04101EB8800D0F8000706A9C0F3C3
:10384000014A404603F075F918B1BAF1020F03D0EE
:1038500012E0BAF1030F0FD1B9F1030F08D1BAF199
:10386000020F1BD00221404603F0A0FE761CF6B2E8
:1038700017B149464046B847641C042CAED3002E0D
:103880000ED06A460121002003F0ACFE0699009894
:10389000884205D00690089809909DE70321E2E749
:1038A0000CB0BDE8F087000000600040D039002077
:1038B00030B585B00546142213A16846FFF740FED7
:1038C000164C302004F8010B782004F8010B284630
:1038D000FFF75AFEC2B2002069460EE02B78401C6A
:1038E00001EB1313C0B21B7804F8013B15F8013B40
:1038F00003F00F03CB5C04F8013B9042EED30020B1
:10390000207005B0054830BD30313233343536379C
:10391000383941424344454600000000562F0020FC
:1039200000F01F02012191404009800000F1E020D9
:10393000C0F88012704700F01F0201219140400939
:10394000800000F1E020C0F80011704700F01F0275
:10395000012191404009800000F1E020C0F80012F0
:1039600070474907090E002806DA00F00F0000F141
:10397000E02080F8141D704700F1E02080F800146A
:10398000704700002DE9F0414FF48077384603F08E
:1039900099F90124104EA50748B1384603F099F96A
:1039A0000120C5F808037470002002F065FA4FF496
:1039B0008277384603F086F900280BD0384603F0AA
:1039C00088F90220C5F80803B470BDE8F041012071
:1039D00002F052BABDE8F081BC390020074800214E
:1039E000C0F84011C0F84411C0F84811C0F84C119B
:1039F000C0F80011C0F8041105F0D8BA0010014059
:103A000000F006BB70B50E46144900EB400001EB18
:103A1000C0051446E86A183520B101280FD00228E5
:103A200005D113E0284600F027FBA04201D2002474
:103A300011E022463146284600F056FB0BE02846AE
:103A400000F01AFBA042F4D20446F2E731462846C1
:103A500000F01DFB0446204670BD00005C410020C4
:103A600005F0E2B904F0F4BA0149086070470000BB
:103A70007827002070B5144C00252078012802D149
:103A8000257005F0D1FD6078012800D16570E078DF
:103A9000012806D1E57000F045FE04F05DFF05F059
:103AA00053FC2079012800D125716079012800D1CB
:103AB0006571A079012806D1A571BDE8704001218A
:103AC000052002F0EDB970BD9D270020F0B5B54886
:103AD0000023021D0178101D01254FF08054062996
:103AE0000BD11678360708D10678C6F30316032ED5
:103AF00006D0042E04D0052E02D0062907D00EE0F1
:103B0000B4F82463A84FC6F304263E6002E016789A
:103B1000360704D10678C6F30316032E02D0062911
:103B200004D00FE0A24FA14E7E670EE01678360754
:103B300008D10678C6F30316032E06D0042E04D04F
:103B4000052E02D0062907D00EE0D4F84462994F22
:103B5000C6F342363E6002E01678360704D1067896
:103B6000C6F30316032E02D0062906D011E0924EAA
:103B7000376827F0807737600EE01678360708D16F
:103B80000678C6F30316032E06D0042E04D0052EA5
:103B900002D006290AD011E04FF08046C6F80C3159
:103BA000C6F81031834E361F336002E016783607B0
:103BB00004D10678C6F30316032E02D0062905D0D9
:103BC0000CE07C4F032664373E600AE01678360727
:103BD00004D10678C6F30316032E02D006290DD0B1
:103BE00014E0764F05263E60744E78363560734E8D
:103BF000083633603F263F1D3E6002E016783607E8
:103C000004D10678C6F30316052E02D0062957D034
:103C100062E06B4E36686B4F3E60694E361D36680B
:103C20003F1D3E60664E083636683F1D3E60644E5E
:103C30000C3636683F1D3E60614E103636683F1DBB
:103C40003E605F4E143636683F1D3E605C4E18364F
:103C500036685C4F20373E60594E1C3636683F1D33
:103C60003E60574E203636683F1D3E60544E243627
:103C700036683F1D3E60524E283636683F1D3E6016
:103C80004F4E2C3636683F1D3E604D4E30363668FE
:103C90004C4F40373E604A4E343636683F1D3E60DA
:103CA000474E383636683F1D3E60454E3C363668D6
:103CB0003F1D3E60424E403636683F1D3E6002E08A
:103CC0001678360708D10678C6F30316032E06D0F9
:103CD000042E04D0052E02D0062907D019E0D4F80E
:103CE0005812394A01F04F01116002E011780907BA
:103CF0000FD10078C0F30310032803D0042801D0AB
:103D0000052806D131480168C90702D06FF00101CA
:103D10000160D4F83001062808D1D4F8340106280F
:103D200004D12B48016841F4806101602248743855
:103D3000016841F470010160BFF34F8FBFF36F8FD3
:103D40004FF01021D1F80002002803DBD1F8040263
:103D5000002822DA1F4A15601F480468002CFCD096
:103D60001524C1F800420568002DFCD0C1F80442BA
:103D700001680029FCD0136001680029FCD0BFF362
:103D80004F8F0D48F0380168144A01F4E061114387
:103D90000160BFF34F8F00BFFDE712491048086074
:103DA000F0BD0000E00F00F0403501400DF0ADBA6D
:103DB00000C007403C050040FCED00E0105600400C
:103DC0000404001020C50040E40E00400004004040
:103DD0003C17004004E5014000E401400400FA05FE
:103DE0000090D00374280020194810B501780129EB
:103DF0002DD100210170C31D0122401C1A700478CE
:103E0000641CE4B20470012C21D901705A7044780A
:103E1000641CE4B24470042C19D94170DA708478BF
:103E2000641CE4B28470092C11D981701A71C478B1
:103E3000641CE4B2C4703B2C09D9C1705A71047976
:103E4000641CE4B204713B2C01D901719A7110BD5C
:103E500096270020074910B50346CA788C780020C1
:103E6000A24206D0481D105C1870C878401CC8706B
:103E7000012010BD523100200448017F0448002970
:103E8000024901D005F08CBA05F0CEB9283A0020DD
:103E90000020004006494A1D8B7898548878401CC1
:103EA000C0B28870CA78904201D1401E88707047B5
:103EB000523100200B460B493228888010D009DC93
:103EC000232806DA202804D0222802D1064901201E
:103ED000887070474028FCD1D1B2184602F0B6B8BD
:103EE00005F06ABB88270020B127002070B507487D
:103EF00002F00AFA054D002405A0295D00F016F92C
:103F0000641CE4B2062CF7D370BD00007F270020AC
:103F1000307825303278203A20000000F8B50026AD
:103F20008DF800606846FFF795FF002827D0364CD3
:103F3000364801226178D1B1217800F1C805491CC9
:103F4000C9B221709DF800304354A378C3B12A88C8
:103F5000931C8B4213D8521CD1B2401CFFF7C6FBF6
:103F60002988A5F1C607CA5D90423CD037E09DF88C
:103F700000103A2903D1267001706270A670F8BD56
:103F80000C29FCD1C17A4FF6FF73077B03EA0121AC
:103F90003943698010F8017F03EA072347783B43E0
:103FA0002B80C3782B71194B4568803343F84D5FE4
:103FB00005899D808078012811D1402911D041299F
:103FC0000FD042290DD032290BD0202909D0222927
:103FD00007D0232905D0302903D0372901D06670B6
:103FE000F8BDA270F8BDA3682BB10B398AB207499E
:103FF00068880D3198476E8066702888C821C6553C
:104000000248FFF7B6FAF8BD882700208A32002060
:1040100010B5124C02202061606111A0A06104F172
:104020007800E0614FF4007020620020A0626062BE
:104030000BA1A164E06204F51E71E1641021A0658A
:10404000C4E91410E06509A1E01DFFF7A4FA08A176
:104050002046FFF7A0FA2020A07110BD5C4100208F
:104060005465726D696E616C00000000525454001A
:1040700053454747455200000269C1688A4203D848
:104080008068401A104400E0501A401E70472DE925
:10409000F047C4681746894606464FF00008306965
:1040A000A04201D9051B02E0B168201A0D1AB068C0
:1040B0006D1E001BA84200D80546BD4200D33D46F8
:1040C00070682A4620444946FFF73AFAB0687F1BD9
:1040D0002C44A844A944A04200D10024F460002F3D
:1040E000DDD14046BDE8F0872DE9F0410446884621
:1040F000D4E90207C51BE168606816460844B5426A
:1041000006D94146FFF71CFAB819E060BDE8F08116
:104110002A464146FFF714FA761B08EB05013246A2
:104120006068FFF70DFAE660F0E700000FB4054B9A
:1041300010B503A9044A029800F036F810BC5DF8E7
:1041400014FB0000C16102001028002002E008C832
:10415000121F08C1002AFAD170477047002001E001
:1041600001C1121F002AFBD1704700000121202845
:1041700003DA81400548014003E0402802DA203894
:10418000814009B10120704700207047FC06FFBD47
:10419000082806D228B1012803D0042801D0012024
:1041A00070470020704700002DE9FF4F8DB00F468B
:1041B0000546002606E025280BD0DDE90F129047C2
:1041C0006D1C761C28780028F5D111B03046BDE86A
:1041D000F08F0024A246A1460122EC4900E00443EE
:1041E00015F8013F203B02FA03F00842F7D1287886
:1041F0002A2810D06FF02F022878A0F13001092969
:1042000014D80AEB8A0102EB410144F0020400EBEE
:10421000010A6D1CF0E701CF5FEA000A03D544F400
:104220000054CAF1000A44F002046D1C28782E28BC
:1042300017D115F8010F44F004042A280ED06FF0AE
:104240002F022878A0F1300109290AD809EB890149
:1042500002EB410100EB01096D1CF2E757F8049BEA
:104260006D1C28786C280FD006DC4C2817D06828E5
:104270000DD06A2814D104E0742810D07A280FD108
:104280000DE044F400140AE044F4801401E044F426
:1042900040146978814202D104F580146D1C6D1CB4
:1042A0002A786E2A1FD00CDC632A31D004DC002A65
:1042B0008BD0582A11D1A3E0642A68D0692A0CD186
:1042C00065E0732A2ED004DC6F2A73D0702A04D1E3
:1042D0009BE0752A6FD0782A6ED01046DDE90F1268
:1042E0009047761C50E1C4F30250022806D0032800
:1042F00009D0042801CF09D0066045E101CFF117AC
:10430000C0E9006140E101CF06803DE106703BE17C
:1043100017F8040B8DF8000000208DF80100EB4623
:10432000012003E057F804BB4FF0FF3061074FF066
:10433000000102D40DE008F10101884649450FDA79
:104340008045F8DB1BF808100029F4D108E008F1DB
:10435000010188468142FADB1BF808100029F6D1DA
:10436000DDE90F23AAEB08008146214600F036F96B
:10437000304400EB080604E0DDE90F121BF8010BE6
:104380009047B8F10108F7D221464846F7E00A21E4
:10439000C4F302534FF0000B0891022B04D001CF5D
:1043A000C117032B09D00AE0FF1D27F00707F7E824
:1043B000020108E032E01FE020E000B2C117042B48
:1043C00001D140B2C117031E71F1000307DA4FF0AB
:1043D000000CD0EB0C006CEB01012D2302E0230557
:1043E00004D52B238DF82430012303E0E30701D00B
:1043F0002023F7E7984658E00A2110E010210EE04C
:1044000010204FF0000B08900CE010214FF0000B33
:1044100044F004044FF00809089103E008214FF02C
:10442000000B0891C4F30253022B04D001CF0021EA
:10443000032B06D006E0FF1D27F00707F7E802016F
:1044400003E080B2042B00D1C0B24FF00008230774
:104450002BD5702A07D0DDF820C08CF0100C5CEA58
:104460000B0C05D00EE040238DF82430012308E02A
:1044700050EA010306D030238DF824308DF8252032
:1044800002239846DDF820C08CF0080C5CEA0B0C87
:104490000BD150EA010301D1630706D530238DF813
:1044A00024304FF00108A9F10109582A04D038A29C
:1044B0000B9208AA0A920BE03AA2F9E75B46089A27
:1044C000FFF708F80B9B9B5C0A9A521E0A92137026
:1044D00050EA0102F2D10A98ADEB000000F1200B86
:1044E000600702D524F4803401E04FF00109D9457A
:1044F00002DDA9EB0B0000E0002000EB0B014144C2
:104500000890AAEB010AE00306D4DDE90F23214657
:10451000504600F063F806444FF0000908E009A98E
:1045200011F80900DDE90F12904709F10109761C25
:10453000C145F4DBE0030CD5DDE90F2321465046ED
:1045400000F04CF8064404E0DDE90F1230209047FB
:10455000761C0899481E08900029F5DC08E00A98A6
:104560000A990078491C0A91DDE90F129047761CE0
:10457000BBF10001ABF1010BF1DC21465046DDE956
:104580000F2300F019F806446D1C1BE609280100F2
:1045900030313233343536373839616263646566B9
:1045A000000000003031323334353637383941427B
:1045B00043444546000000002DE9F0410446002533
:1045C0001E461746880404D405E039462020B0472B
:1045D0006D1C641EF9D52846BDE8F0812DE9F04137
:1045E000044600251E469046C80301D5302700E04A
:1045F0002027880404D505E041463846B0476D1CA5
:10460000641EF9D52846BDE8F08110B501220221CB
:10461000002001F0C3FA08B1072810D107220221B7
:10462000012001F0BBFA08B1072808D100210A22B5
:10463000084601F0B3FA08B1072800D1002010BDE8
:1046400000B5B1B0A0216846FEF793FF142128A859
:10465000FEF78FFF42F21120ADF8B4001120ADF843
:10466000B80028A82F9002208DF8000000208DF8B7
:10467000020006218DF803102DA9189101218DF853
:104680007C104021CDE92210074826906946074852
:1046900000F098FB08B100F099F80121034800F000
:1046A0008EFB31B000BD0000D58202004C2E0020F0
:1046B00000B5B1B0A0216846FEF75BFF1422164991
:1046C00028A8FEF73DFF42F21120ADF8B4001120FA
:1046D000ADF8B80028A82F9002208DF80000002027
:1046E0008DF8020006218DF803102DA918910121E3
:1046F0008DF87C104021CDE92210084826906946AB
:10470000074800F05FFB08B100F060F801210448A1
:1047100000F055FB31B000BD9C970200D58202002D
:104720004C2E002010B500F005F8BDE8104001F057
:1047300073B9000006480178002907D0491E11F01E
:10474000FF01017002D13B21002076DF704700009D
:10475000A627002003F0DCF903F032F80028FBD193
:10476000104C0121208801EB00400FA103F020F93B
:1047700010480068C00700D000BE2088022101EB6D
:1047800000400DA103F014F9BFF34F8F0948E4383E
:1047900001680D4A01F4E06111430160BFF34F8FDE
:1047A00000BFFDE7CC280020466174616C20657273
:1047B000726F7200F0ED00E053797374656D2072D2
:1047C00065736574000000000400FA050EB5002151
:1047D0000091CDE901106A4644F20100FFF7BAFFEB
:1047E0000EBD10B58268C368934203D001F0D5FCBA
:1047F000002010BD052010BD29B112B1531E134277
:1048000003D0092070470E2070470160838000218B
:104810008160C1600846704710B58268C3689A1A03
:1048200083889A4203D801F0C2FC002010BD042006
:1048300010BD0000084B9B7823B12AB120B100685D
:10484000037C1BB1082070470720704700230374C6
:104850004174426118467047483A002070B503F031
:10486000B9FE104800240B21047044700E4D817075
:1048700014206C602C706C70FFF752F80721142024
:10488000FFF76FF81420FFF756F808480460072177
:104890001120FFF766F80548001F0068A860002097
:1048A00070BD0000483A0020DC27002008150140B8
:1048B0002DE9FC47DFF8789099F8023073B368B3BC
:1048C000052902D20720BDE8FC87436933B3437C46
:1048D000012B25D0002704460025884616468DF872
:1048E0000050684600F0CAF801A804F085FEC8B17F
:1048F000012101700F4944600968C0E90218C0E94C
:1049000004769DF8040089F801009DF8000000F08D
:10491000D9F81420FFF71AF82846D4E70820D2E780
:104920000F46D8E704259DF8000000F0CBF8F3E728
:10493000483A0020041501400649897839B130B160
:10494000416921B100210174022104F00BBB082050
:1049500070470000483A002070B50A4E01460A48E8
:10496000B578FFF73EFF04464DB10020B070711CD2
:104970000122C81D02F092FA08B1FFF727FF204676
:1049800070BD0000F0270020543B0020F0B5284EF9
:1049900089B01F460D00044672603BD0A888296884
:1049A00082B22448FFF728FF002834D1A889A968DB
:1049B00082B220481030FFF71FFF00282BD12022A1
:1049C0001D496846FEF7BCFD60690690207C00B179
:1049D00001208DF814008DF81C70607C00B10E2051
:1049E0008DF81500E0680290A0680390206801909F
:1049F000606800900E48114A6946083002F01AFAC1
:104A0000002808D1B0702068401C04D09DF81D001B
:104A100018B106E0072009B0F0BD0548083002F0E3
:104A200095FA03490122491CC81D02F037FAF2E742
:104A3000F0270020543B00202098020089910200BA
:104A400010B501460B48FFF7E7FE040010D10A48F5
:104A500002F0C6FB60B9084906480839FFF7C1FEF5
:104A600030B9054901220839034802F033FB0446F6
:104A7000204610BD643B0020F827002030B5EFF33E
:104A8000108172B60D4A9468012324B10370002985
:104A900000D162B630BD93604FF0E023D3F880516F
:104AA000074C25401560C3F88041D3F88441546019
:104AB0005A17C3F8842100220270E8E7743B0020F3
:104AC000FC06FFBD0B498A68002A11D000280FD1CF
:104AD000EFF3108072B60B684FF0E022C2F800319D
:104AE0004B68C2F8043100228A60002800D162B607
:104AF00070470000743B00202DE9F041064608682D
:104B00000C46411C4FF0A0474FF0010506D005FAB6
:104B100000F1C7F80815206802F02DFD6068411CFF
:104B200002D0002102F016FD3079204901EB40103F
:104B3000A169007F00283068C0F8241525D0607D69
:104B4000227D31681043C1F86C05D4E90012306849
:104B5000C0F80C15C0F8142524E0A068411C02D050
:104B6000002102F0F7FCE068411C05D08540C7F841
:104B70000855E06802F0FFFCD4E902123068C0F882
:104B80000825C0F81015BDE8F081607D217D3268F0
:104B90000843C2F86C05D4E900123068C0F8142547
:104BA000C0F80C15207D0128D7D0ECE7283A00206A
:104BB000064A10B51170002353700A460146044896
:104BC000FEF7BEFCBDE8104001F076BA9427002045
:104BD0005E3300202DE9FC47002517880646158026
:104BE00090F82D001446894630B13A462146484691
:104BF00000F0EAFA050009D1B0784FF00C0A18B3BA
:104C00002088C846001DB84202D95046BDE8FC873E
:104C1000684679DF0028F9D12088032108F80010C0
:104C200020881921401C80B2208008F800102088BC
:104C3000401C80B2208000EB0801BDF8000004F0A9
:104C400027FC218808442080F0780222C8B12188FE
:104C500096F9033001F1030C4846BC45D5D84254BF
:104C600021884FF0010C491C89B2218000F801C055
:104C70002188491C89B2218009F801302088401C14
:104C800020807068B8B1218890F9003001F1030CE0
:104C90004846BC45B9D8425421880A22491C89B2E9
:104CA000218042542188491C89B2218009F80130B1
:104CB0002088401C2080308950B1CDE900474B4608
:104CC0000622022106F1080004F0F2FC05009DD145
:104CD000308A50B1CDE900474B460722032106F147
:104CE000100004F0E5FC050090D1308B50B1CDE907
:104CF00000474B461522142106F1180004F0D8FC99
:104D0000050083D1306A30B13B462246494601F066
:104D100033F90500DBD1706A30B13B462246494683
:104D200001F0C2FD0500D2D196F82C0038B13B4607
:104D300022464946304603F0E1FE0500C7D13078EF
:104D400038B13B4622464946304601F035FE050063
:104D5000BDD128465AE7F0B50C4693B01F2107266F
:104D6000ADF80010ADF80410002750B1C178490724
:104D70000DD56A4602A9FFF72DFF002808D102AD24
:104D800002E00025ADF800706CB1E07810B130465B
:104D900013B0F0BD01AA0AA92046FFF71BFF0028A7
:104DA000F6D10AAA02E00022ADF80470BDF80400B2
:104DB000C3B2BDF80000C1B2284672DFE8E780F850
:104DC0002410704770B50D00044653D0F4B3012091
:104DD00020700026E670202205F17801201DFEF7E4
:104DE000AFFB84F82460D5F89800C4F8CC00D5F85F
:104DF0009C00C4F8D0004FF6FF70A4F8C800C4F8B7
:104E00002560A4F8296084F82B6004F130003C216F
:104E10000646FEF7AEFB287884F83000A87884F8C0
:104E20003200E87884F83300687884F83100D5E9F6
:104E30000401C4E91001D5E90201C4E90E01D5E974
:104E40000601C4E9120195F82D0000E012E084F893
:104E50005D00686AD8B104F1780104F16C00616703
:104E60006065696A09880180686A616D80888880E8
:104E7000002008E00E2070BD696A22188968095C6C
:104E800082F87810401C616D89888142F4D8A86A44
:104E9000E8B104F1A400C4F8A0000C38A065A96A28
:104EA00089888180A86AA16D00880880002006E0BA
:104EB000A96A22188968095C82F8A410401CA16DB7
:104EC00089888142F4D895F82C0084F85C00286A1F
:104ED00048B104F1C4002065296A49884180286AE4
:104EE000216D00880880686800B1606305F13C01AD
:104EF0003046BDE87040FFF72EBF10B50288102A7B
:104F00001AD0112A1FD01B2A1CD1007A0C46002867
:104F100018D1E0780521401CB0FBF1F201FB120131
:104F2000204600F037F800280CD0D4F8D010002923
:104F300008D0BDE810400847C27B012A02D1808812
:104F4000A1F8C80010BD0C46002184F8D410808858
:104F5000B4F8C8108842F5D120790028F2D1012197
:104F6000DEE710B50C46022801D0032811D1607885
:104F700000280ED000206070E178204600F00AF88A
:104F8000002806D0D4F8D010002902D0BDE8104087
:104F9000084710BD2DE9FF47044600780F4638B199
:104FA000E770002002F02EFA012628B16670D2E0E8
:104FB000082004B0BDE8F0870025C4F82550A4F807
:104FC000295084F82B50A07910B1E078012806D040
:104FD000E07970B1E078012801D0022809D1D4F835
:104FE000CC1021B184F82C600820884701E084F8B7
:104FF0002C5004F1260100200A5C0AB1304603E07F
:10500000401C0628F8D300204FF002084FF0030A96
:105010004FF00409012F06D0022F09D0032F0CD026
:10502000042F12D10DE0A17911B108B130460DE085
:10503000E17911B108B1404608E0207A08B1504644
:1050400004E0607A08B1484600E02846E070D4F8F1
:10505000CC1041B1032801D0042804D1607910B1EB
:1050600094F8D400A8B184F8D55000950295019524
:1050700003958DF800508DF80850E17804F1250073
:1050800004F13002052958D2DFE801F0670A131F46
:105090003B0084F8D65084F8D56007208847E4E7C1
:1050A000A67001908DF80060ADF80C50ADF80A5074
:1050B00043E084F8028001908DF80060208AADF80A
:1050C0000C00A089ADF80A0037E0A08AADF80A000C
:1050D000208BADF80C00607980B194F8D40068B9E9
:1050E00094F8D60050B18DF8088084F833900021F0
:1050F0001046FFF730FE00BB05211AE084F802A03D
:105100001BE0A08BADF80A00208CADF80C00607994
:1051100088B194F8D40070B994F8D60058B18DF8DD
:10512000088084F8339000211046FFF714FE20B960
:105130000621A17001E084F80290E07830B194F883
:105140002410684673DF00287FF433AFD4F8CC1006
:1051500009B1A078884700202BE7A570F6E700008A
:1051600070B5040012D001461C221448FEF7E8F97D
:105170001248134D0560206850B17ADF002806D12F
:105180002068016829604068686005E00E2070BDF5
:105190000B487BDF0028FAD108484FF6FF7114381E
:1051A000084A20F8041B0549343901600021FFF743
:1051B00041FB0028EBD0032070BD0000E838002040
:1051C000D4270020519502007CB5054608880C467E
:1051D0000930904201D90C207CBD68466DDF002863
:1051E000FAD121880820685420881B21401C80B2F5
:1051F000208029542088401C80B220802844DDF87B
:1052000001100160BDF8051081802088801D80B2EA
:1052100020809DF80010490800D0012129542088E1
:10522000401C208000207CBD10B54FF0FF310020D5
:105230003BDF00280BD1B1213ADF002807D1044819
:10524000416901208847022002F040FD002010BD86
:10525000E4430020044810B50068416900208847F5
:10526000BDE81040FFF7E0BF7028002010B500280F
:105270000FD00188204C502926D00BDC10291DD0DE
:10528000112906D1A1888088814202D14FF6FF7092
:10529000A08010BD512913D05329FAD1C088E188CC
:1052A0008842F6D1607E0028F3D0FFF7D3FF0028B4
:1052B000EFD06169BDE81040022008478088E7E729
:1052C000BDE8104003F0AEB830F8061F6289914285
:1052D000DFD141890229DCD10C3000F03DFB0749C8
:1052E000207603220988BDE8104002EB0143024604
:1052F00003A1184602F060BBE4430020CC28002044
:10530000526563656976656420696E64696361747A
:10531000696F6E207374617465202564000000005D
:105320002DE9F0410546007B0426234C4FF001088F
:1053300001280FD002281FD00226287B4FEA060141
:1053400000F064F8002832D020684169BDE8F041DF
:105350000320084720680027817E11B10621012023
:10536000EEE780F819800121084600F04FF8002888
:105370001DD020684776E0E76A7B142A19D8C2B1AD
:105380000E4F05F10E01381DFEF7DAF8687BB861A3
:1053900021683846897E0029CFD1A0F10C010A6826
:1053A000011F90470028C8D1216881F81A80BDE804
:1053B000F0810526C1E70000702800200C44002081
:1053C00070B5104900250A68002A19D04A68002AD9
:1053D00016D008319047112812D00B4C00282068B5
:1053E00085760BD00421022000F010F8002807D0A9
:1053F00020684169BDE87040032008470121F2E7B9
:1054000070BD0000004400207028002086B00323F7
:10541000ADF8003020238DF814308DF815000022EF
:105420000E48019202928DF81610C188ADF8041052
:1054300002218DF8061005A90491ADF80820CDF8D9
:105440000CD0808801A9A6DF002804D1BDF8001087
:10545000032900D00C2006B070470000E443002070
:10546000F0B54A4D0446008800210126B5F802C077
:1054700089B0232863D025DC454F11284FD018DC94
:1054800001287AD0102812D142480321008801EB6C
:10549000004041A102F08CFA42484670BE710720DC
:1054A00000F09EFB08B1FFF791F9A088688009B071
:1054B000F0BD13283DD02128F9D10091A08869467C
:1054C0008FDF42E0522843D020DC3B284CD05128CB
:1054D000EDD11022A11D04A8FEF732F89DF810109E
:1054E0000029E4D09DF81800042803D0062801D034
:1054F0000528DCD1022944D08DF800604FF4C1703A
:10550000ADF80400A0886946A8DF1EE0562830D018
:105510005728CCD109B0BDE8F04000F0CDBDB9713D
:1055200004F060F84FF6FF70C0E700BFFFF74EF9D8
:10553000BDE700231A46852160467FDF0DE000911C
:105540000191A0880022694690DF0028EED1AEE7E5
:1055500000231A4619466046A9DF0028A7D009B0E3
:10556000BDE8F040FFF732B9A088132176DFF4E7F9
:1055700003E0A088132176DFEFE7A088002166DF33
:10558000EBE702208DF80000B8E70000702700204C
:105590007F270020CC280020436F6E6E6563746502
:1055A00064000000B127002010B51A4C0188606823
:1055B00010290ED011292BD1401E606028D1FFF791
:1055C00024F8002824D02168002921D0BDE810400B
:1055D0000847D0B900210122084600F0DFFA08B1DF
:1055E00007280FD107220221012000F0D7FA08B1C5
:1055F000072807D104220221002000F0CFFA20B1B1
:10560000072802D0216801B188476068401C6060AB
:1056100010BD0000CC2700202DE9F04701883B4E4B
:1056200040F2F3194FF6FF7510291BD011293ED017
:10563000122954D0502946D1C188F289841D914243
:1056400041D1618902293ED18688304600F09EFE14
:10565000050038D004F10C0000F082F9A8B3294607
:1056600030464EE0C17B8788044601292BD1A846ED
:10567000284600F08BFE050017D02F8000202872EE
:10568000234843464A460168C5F80A104068C5F8F1
:105690000E0004F1100105F10A0000F011FF68721C
:1056A000F08900280FD129462AE0042013E08088E1
:1056B00000F06CFE040006D06068FFF73DF908B109
:1056C00003F0A6F92580BDE8F087FFE76868FFF7DB
:1056D00033F90028F7D0BDE8F04703F099B987887F
:1056E0000646384600F052FE0400ECD02B464A46EF
:1056F00006F1080104F10A0000F0E2FE60722146A2
:105700003846BDE8F04700F07DBC0000E8380020D6
:10571000D42700202DE9F047044603883F480122A2
:10572000A4B000F1480A102B09D0112B54D01A2B29
:1057300070D1217AB2EB111F53D2012352E0D0E98C
:1057400011218A430546011D12A803F09CF844224A
:1057500012A901A8FDF7F4FEDFF8C0900026374635
:1057600009F144090DF104080AE000BF08EB460006
:105770001D2283884946281D009703F049F8761CAE
:105780000198B042F2D8686CA688C04303F062F872
:10579000A0F57F41FF3917D005EB4000012386803B
:1057A00032465146281D03F093F8012332464946FC
:1057B000281D03F08DF8E07B02280BD00023174949
:1057C000A2884C31281D20E024B00420BDE8F04719
:1057D000FEF7FCBF0123F2E70023A2885146001D1B
:1057E00013E000230D490546A2885031001D03F047
:1057F0006FF8207A0221B1EB101F01D2012300E0E3
:1058000000230649A2885431281D24B0BDE8F04782
:1058100003F05EB824B0BDE8F08700000439002032
:1058200030B5174B0D4604000FCB85B08DE80F0047
:1058300023D015B34FF6FF70A0822868A061002026
:10584000A0752146684662DF002814D120788DF8C3
:1058500012000120ADF81000A21C04A9A0DF00284E
:1058600009D12946204602F0ECFE002803D1294642
:10587000204603F0EBFB05B030BD0E20FBE7000037
:105880000C9802007FB5002917D0002815D0028897
:10589000102A0DD0112A0DD0502A0FD0572A0CD122
:1058A0001A4B1868D3E902238DE80F0089692AE0B2
:1058B000808801E04FF6FF7088827FBD01910C4621
:1058C000821DC3880989002512308B4202D151897B
:1058D00002290CD0A1898B42EFD1A1690029ECD01B
:1058E00002905089ADF80C008DF800500AE000F0ED
:1058F00037F818B10120A075022001E0A57503203A
:105900008DF80000A169684688477FBDFC970200BA
:105910001FB560B1838AA3F57F44FF3C09D0837D26
:105920003BB11388F42B06D9072004B010BD0E201C
:10593000FBE70820F9E70023009301930293039308
:105940008388CDE90221ADF8003001218DF80210E5
:10595000808A6946A6DFE8E70078C0F34000704718
:10596000007800F00100704700B58DB03A208DF846
:10597000000000208DF801000B218DF804008DF847
:1059800002100E4801218DF803100168CDF80510B2
:105990008088ADF80900A0208DF80B0032208DF82A
:1059A0000C000C210DF10100FDF7A0FE8DF80D009B
:1059B0000E216846FFF7FCF80DB000BD7F270020E0
:1059C00000B58DB03A208DF8000000208DF8010060
:1059D0000B218DF804008DF802100E4801218DF87E
:1059E00003100168CDF805108088ADF80900A020EB
:1059F0008DF80B0032208DF80C000C210DF1010008
:105A0000FDF774FE8DF80D000E21684603F099FB3A
:105A10000DB000BD7F27002005484188002906D031
:105A2000491E0904090C418001D103F0DBBD704718
:105A3000A62700200149085C70470000B1970200CA
:105A400007490B5C4FF0A041D1F804250120984094
:105A500020EA0203C1F808351040C1F80C05704770
:105A6000AD9702000249085C012101F0B0BD0000C1
:105A7000AD9702000249085C002101F0A8BD0000BA
:105A8000AD9702000649095C4FF0A040D0F804052C
:105A9000C84010F0010000D0012080F001007047E4
:105AA000AD97020010B500242046FFF7DBFF641C11
:105AB000042CF9D310BD10B500242046FFF7DAFFFF
:105AC000641C042CF9D310BD10B50246064B4FF0F0
:105AD000FF3000215C5C944201D1084610BD491C96
:105AE0000429F7D310BD0000B197020010B50020C3
:105AF00000F05EF908B1062806D1012000F058F93F
:105B000008B1062800D1002010BD00002DE9F047A3
:105B10000D468146FFF7D8FF0446042836D2DFF849
:105B200074801B481C4EA8F10C0725B3012D0ED024
:105B3000022D2BD104EB440030444578002D25D0B4
:105B4000B968002922D02846BDE8F047084704EB91
:105B50004401755C0E44717849B10E4A4FF400411E
:105B6000093A8068FEF7A4FE08B987F80390B17877
:105B700008F80410E2E78068FEF7DEFE04EB44015B
:105B8000314418F804008D78A842D7D0BDE8F087DA
:105B9000B8970200C82700208838002070B500237D
:105BA000042810D20D4D00EB4004012A02D1012936
:105BB0000CD00022094E00EB4000304461B10129B5
:105BC00006D0022906D00723184670BD0E30C2B297
:105BD0002A55F9E74270F7E78270F5E78838002028
:105BE000044A014600201279D20702D0084600F08C
:105BF00003B87047BC2700202DE9F05F6A4C0546CA
:105C000000266078B34618B184F801B000F096FC25
:105C1000664F4FF47A694FF4C87A4FF00108182D97
:105C200062D2DFE805F0AC0C0C31404D62676B745A
:105C30006B74BE7D7D7D7D7DACAFB2B5BEBE0020F8
:105C4000FFF720FF00284FF0000008D0FFF70AFF01
:105C5000022D02D14FF4E16008E0484606E0FFF76C
:105C600009FF022D01D1C82000E05046410CC003BD
:105C70004FF4FA72801841F10001257052000023A0
:105C8000FDF728FC01462AE00020FFF7FBFE002874
:105C90004FF0000004D0FFF7E5FE4FF44870E5E751
:105CA000FFF7E8FEDFE70020FFF7ECFE00284FF0EB
:105CB000000002D0FFF7D6FECFE7FFF7DBFED4E708
:105CC0000020FFF7DFFE00284FF0000002D0FFF7B2
:105CD000C9FE01E0FFF7CEFE257041F69A110022C1
:105CE0003868FEF7E5FD064646E00020FFF7A8FE0F
:105CF000257008E0002051E025703DE084F8018027
:105D00000120FFF79DFE002240F6CD41E8E784F830
:105D100001800120FFF794FE00224FF48041DFE76D
:105D20007868FEF709FE0646D5F1110000D02EB1C5
:105D30000220FFF797FE84F802B01DE0012816D973
:105D400080B2C8214843C117C90341EA5041C0038A
:105D50004FF4FA72801841F1000152000023FDF760
:105D6000B9FB014600227868FEF7A2FD0646022034
:105D7000FFF780FE84F802803046BDE8F09F00F017
:105D8000DDFBB9E700F0DAFBB4E700F0D7FB04E095
:105D900000F0D4FB0020FFF76DFE0120FFF76AFE44
:105DA000AAE7FFF788FEA7E7BC270020B897020004
:105DB00010B5FFF73FFE032101F0E7FB002010BD07
:105DC000F8B5871C00208DF800000E4601256846B6
:105DD000FEF754FE124C20683060D4E90001401AEE
:105DE000A168091ABE1C06E000F05CFCD4E90001C1
:105DF000401AA168091A491C8E42F5D8A16820688A
:105E0000084004EB8000C16841F00301C1602068D4
:105E1000384420609DF80000FEF754FE2846F8BD87
:105E20003C3D002030B482680468531C8360A15458
:105E3000D0E901128A4202D330BC01F0EAB930BC89
:105E400070470000034803C8814201D10120704718
:105E5000002070473C3D00200249084490F9300082
:105E600070470000D03900200149002008707047B9
:105E7000A62700207047000070B5084C050009D027
:105E800010342168002907D0086820604968284636
:105E90008847F6E70834F4E770BD0000BC390020FD
:105EA000094A062805D2DFE800F0030507090B0DB3
:105EB000117070475170704791707047D170704782
:105EC0001171704751717047AA2700202DE9F05FCA
:105ED00026484168F1B3DFF898B00E688146DBF8D8
:105EE000004087688078E11B21F07F45ED1CB0B948
:105EF000DFF880804FF48030C8F84403C8F804030A
:105F00001120FDF70DFD1120FDF715FD4FF0010AE1
:105F1000C8F800A02F2000F0E5FE89F802A0B542E5
:105F200000D23546124BE8193C3320F07F40186010
:105F3000DBF800105A46091B21F07F41001B20F0BE
:105F40007F40C91C81420FD9106818602F2000F0D3
:105F5000C9FE00E004E0BDE8F05F1120FDF7F6BCEB
:105F6000BDE8F05F02F036BBBDE8F09FDC27002003
:105F700004150140001001402DE9F0411788064644
:105F8000B81D14460D46984202D90C20BDE8F08198
:105F90003188072206290AD34FF4486C4FF6FF7365
:105FA000614501D9994202D17088062801D2104674
:105FB000ECE7604501D99842F9D1994203D0984263
:105FC00001D08142F3D80520E85520881221401CD9
:105FD00080B2208029542088401C80B22080411942
:105FE000308803F055FA2188084480B22080411996
:105FF000708803F04DFA2188084420800020C5E70E
:10600000FEF7E4BB38B54A7A0F4B62B100220A7240
:106010005969002906D001228DF80020ADF8020050
:106020006846884738BD0A7A62B19B684C68024668
:1060300019462046FEF73CFC0028F3D0BDE8384066
:1060400002F0E6BC5B68F1E7E838002030B50C46AA
:10605000C1B03A218DF8001000218DF8011004F133
:106060000B028DF8022001228DF80320114A8DF8D1
:1060700004101368CDF805309288ADF809208DF82A
:106080000B1040218DF80C10014622460DF10D0039
:10609000FDF756FA04F10C00C1B26D46681CFDF71D
:1060A00025FB2919487304F10E01684602F044FCEF
:1060B00041B030BD7F27002070B5124C6078217848
:1060C00088421ED2104E20786178401A142800DDD4
:1060D0001420C5B27018294602F02EFC50B10828D1
:1060E0000FD013280DD0A0F54051023909D0FEF78A
:1060F0006DFBE8E760782844C0B260702178884280
:10610000E1D370BD942700205E3300200E4910B506
:106110000A784C780023A24212D0521CD2B20A70E4
:10612000022A00D10B70084A0B780C3252F8232057
:1061300002608868104420F07F408860012010BD14
:106140000360002010BD0000DC27002030B50446AD
:10615000006885B00D46806800281CD01421684670
:10616000FDF707FA0195A0680490207910B1012885
:106170000DD104E001208DF80000206904E0022028
:106180008DF80000E06800030290606903902068C9
:1061900081686846884705B030BD826883881A40A8
:1061A00003689A5C0A708168491C81607047C26804
:1061B00083881A4003689954C168491CC1607047BC
:1061C00010B50446C0B2FEF73BFC204610BD0000EF
:1061D00000B593B09DF8080020F00F00401C20F09F
:1061E000F00010308DF8080003A800F08DF816A21A
:1061F00005AB07CA83E807005F208DF8200004A8DC
:10620000FDF756FB10B14088ADF821000C220EA11D
:1062100002A87CDF08B1FEF7D9FA002000900190B7
:106220001021ADF80400ADF800104FF4C8703C2107
:10623000ADF80600ADF8021068467ADF002801D0FC
:10624000FEF7C4FA13B000BD534F4D5055544F4E96
:106250005F303946000000000B484A8843889A4264
:1062600011D10A88A2F52063773B0CD18988C91E19
:106270008AB28280054803211346008801EB004062
:1062800003A101F0A0BB704770270020CC2800209C
:1062900044617461206C656E20697320736574209D
:1062A000746F2030782558282564290010B50949D5
:1062B000094800F052FC08B1FEF788FA4021064870
:1062C00000F03FFC002803D0BDE81040FEF77EBA86
:1062D00010BD000059620200382E0020094906282E
:1062E00005D2DFE800F0030507090B0D08787047B9
:1062F0004878704788787047C87870470879704741
:1063000048797047AA2700201CB5044668466DDF0F
:1063100006210DF10102491E11F0FF01C1F1050333
:10632000505CE054F7D11CBD00B58DB03A208DF81B
:10633000000000208DF801000D218DF804008DF87B
:106340000210114801218DF803100268CDF80520D4
:106350008088ADF80900A0208DF80B0037208DF85B
:106360000C0012208DF80D008DF80E100E210DF18D
:106370000100FDF7BBF98DF80F001021684602F00F
:10638000DBFA0DB000BD00007F2700200146034866
:1063900002888A4200D0002070470000D4380020D4
:1063A0002DE9FC5F0E008346DDE90C47C6F10000D5
:1063B00098469246814600D40846012503E000BF76
:1063C00090FBFAF06D1C5045FADAA84500D9454615
:1063D00024B1002E01DB780700D5641EB80702D572
:1063E000B8F1000F0AD0F80708D13CB1A54205D298
:1063F00020215846641EFFF715FDF6E7002E02DA4D
:106400004E462D2102E0780703D52B215846FFF791
:1064100009FD07F0030002280BD1B8F1000F08D1E5
:106420003CB1A54205D230215846641EFFF7FAFC64
:10643000F6E7CDE90047434652463146584603F059
:106440002DF8BDE8FC9F000070B50E4604460079AB
:1064500018494FF4A27501EB4010017F2068A1B1EB
:106460004FF4887101F09CFE4FF49071206801F0A8
:1064700097FE4FF49271206801F092FE2946206841
:1064800001F08EFE0C49206809E04FF48E7101F096
:1064900076FE2946206801F072FE08492068C0F89F
:1064A0000413206800F0BAFC3146BDE8704000F0EB
:1064B00099BC0000283A002010030200800002006E
:1064C000F0B58488A518944200D82246A41AC28840
:1064D000D6189A4200D81346D21A4B880788BB4276
:1064E0000CD34088834209D88888A04206D3A842AA
:1064F00004D8C888904201D3B04201D90020F0BD31
:106500000120F0BD10B5122001F02DF8162001F089
:106510002AF81A2001F027F8022001F024F81920A7
:1065200001F021F8182001F01EF8142001F01BF8EA
:10653000BDE81040132001F016B800000A4810B55D
:10654000807860B1002401E0022C06D02046FFF7DD
:1065500089FA641C042CF7D310BD0324F6E7BDE8C8
:106560001040FFF79FBA0000BC2700200649012019
:10657000086006480168C1F300410029FAD10449C6
:1065800000208870704700000C0000401804004094
:10659000BC390020F72101801721418000210171C1
:1065A0004171FB2181711B21C17170472DE9F047B9
:1065B000394E002780463D46DFF8E090D6F804A02B
:1065C00057E003D00446D0F81C8035E099F800204D
:1065D00002EB4201521CD2B289F8002009EBC10142
:1065E00099F80230091D9A4201D189F80050486893
:1065F0000A780446012A12D0022A02D0032A3BD18B
:1066000008E002F06FFC00B10127257434E0057446
:10661000C06900E070680028F9D170602CE0207C2F
:1066200050BB88686060C868A0600869E06048691D
:10663000A061F07800B165606268B168184B501ACB
:1066400020F07F40984202D2A168084406E0881AF0
:10665000A16820F07F40814202D9081A206000E042
:10666000256065600120A56020742046E56102F088
:106670001BFCB8F10000A4D199F8001099F80100B2
:106680008142A3D117B97168514502D00120BDE8FC
:10669000F0870020FBE70000DC270020483A0020BC
:1066A000FFFF7F0070B588B0214800F0E9F920486D
:1066B000001F064600F0E4F91E4DD5E9014105E052
:1066C000C0F3891202EB9050641C044404EA0100F8
:1066D00005EB8000C0688207F2D000200DF10802AF
:1066E00004EA010305EB8303641CDB6842F82030F5
:1066F000401C0228F4D3029800F00300012808D0BF
:1067000002280AD10298032101EB905004EB900477
:1067100003E00298C0F3831004443046002101AA2C
:10672000FCF791FE002800D06C6008B070BD00003E
:10673000544100203C3D00208AB0FEF78FF808B19C
:10674000FEF744F801210520FFF7AAFB02F05AFBEF
:10675000182242496846FCF7F3FE414806904FF480
:10676000806007903F4808904FF48070099007239D
:106770003D4A06A96846FEF709F908B1FEF726F872
:10678000002001F07FF908B1FEF720F801F00AF8C7
:10679000FFF7B8FE01F026FC08B1FEF717F8002459
:1067A00069460120009401F0BBFA08B1FEF70EF82B
:1067B000684601F061FB08B1FEF708F8042077DFB6
:1067C000FDF794FBFFF704FDFFF770FD27480090ED
:1067D00069462748FFF724F808B1FDF7F7FFFDF7F2
:1067E0002FFF1C216846FCF7C4FE4FF42030CDE992
:1067F00000404FF4702002901E48059003251E486B
:106800008DF80C500690ADF80E408DF8104068469B
:10681000FEF7A6FC08B1FDF7D9FF18A0FDF786FC2E
:106820001B481CA1008805EB004001F0C1F810488E
:1068300003213030FEF7AEFB08B1FDF7C7FF184863
:10684000FDF712F9174802F089FC02F07BFB00BF4C
:10685000FDF764FB02F0CEFAFAE70000849702002D
:106860001C2900201C2D002069910200AD8202002D
:106870001C2E0020F9820200016002000D0A554121
:106880005254205374617274313233210D0A000066
:10689000CC28002055415254205374617274210059
:1068A00065360200B53E020070B5144682880E4679
:1068B00005462088111D0144921C994201D8FE2AE8
:1068C00001D90C2070BD521C32542088FF21401C7D
:1068D00080B2208031542088401C80B220808119F1
:1068E000288802F0D5FD2188084480B22080AA883B
:1068F00042B1A96841B13044FCF722FE2088A98842
:1069000008442080002070BD072070BD2DE9F047AD
:10691000C7880446181D16468946B0FBF7F1B0FB40
:10692000F7F207FB12009A193A44D21CB2FBF7F2B5
:10693000DDF820A001E02468491E0029FBD13D1AA2
:106940008846B54216D818E0BAF1000F05D02118D4
:1069500009EB08002A46091D04E0204409EB080160
:106960002A46001DFCF7ECFD00202468761BA84495
:10697000B74201D9354600E03D46002EE4D1BDE8DE
:10698000F087000030B5024669B101F0A9F8002196
:10699000084C0BE001EB410304EB830315685B88B3
:1069A000AB4202D11160002030BD491C8142F1D3BD
:1069B000052030BD78280020F8B50E460178144631
:1069C0000546012901D1687830B12088821C9A429D
:1069D0002DD8012902D006E00720F8BD69780144CE
:1069E000891C994223D8181A801E87B2ADF800700E
:1069F0002188B01C084469467DDF0028EDD1287845
:106A0000022805D1BDF80010B94201D809210AE0D9
:106A10000821012805D16878B84202D8ADF80000F5
:106A200001E0ADF80070BDF80000FE2801D90C208F
:106A3000F8BD2288401CB0542088401C80B22080C1
:106A400031542088401C2080BDF80010084420806C
:106A50000020F8BD10B50A8849888A4203D1FCF7A6
:106A60001BFC012010BD002010BD70B50C46054672
:106A7000FCF7F5FB002802D061882868084470BD47
:106A800008B501216A46FCF7D1FC009808BD38B56D
:106A9000044600258DF800506846FDF7EFFF216899
:106AA0006268086890420ED9401E08600178238A07
:106AB000E26801FB0325227A2168101AC0B20A7924
:106AC000824200D208719DF80000FDF7FBFF2846C6
:106AD00038BD38B5054600208DF800000C466846E4
:106AE000FDF7CCFFE868298A201AB0FBF1F12A688B
:106AF0001068431C136001709DF80000FDF7E2FF71
:106B000038BD10B530B1017A42680368891AC9B23C
:106B10001A6006E00E2010BD03681A68541C1C6041
:106B20001170491EC9B2F7D20068002101710846F0
:106B300010BDC20800F007030120895C984008409E
:106B4000704728B1A1F11702E12A03D3072070474B
:106B50000E20704701800020704710B560B10161C0
:106B6000F72120F8021B20F8021BFB2100F8021B72
:106B7000FFF710FD002010BD0E2010BD2DE9F043E1
:106B8000858895B00C46002D3DD10188DFF8248121
:106B90000026DFF82491012724293CD006DC1029A7
:106BA00009D011290CD023296DD150E03A290BD0FE
:106BB000552968D12AE00146204601F0ABFB62E08E
:106BC000A01DFFF7E7FC5EE02246408934F8061F6F
:106BD000814200D808466080172800D217206080C4
:106BE000106970B1607960B1D8E90010CDE9031087
:106BF000ADF80E506088ADF81000136903A9104677
:106C000098476671267115B0BDE8F08301462046AD
:106C100001F0CEFB37E0011D342206A8FCF790FC02
:106C2000BDF81800BDF81C2004EBC0014A732269AE
:106C30004AB3D8E90432CDE90432ADF81200487BFA
:106C40008DF814002269204604A990471BE00496A1
:106C5000059630F8041F04EBC1020179127B8A42C9
:106C600000D21146ADF81010ADF8121000880022C5
:106C700004A990DF020006D0B9F800000F4907EB25
:106C8000004000F099FEA07A0028BCD0E188284698
:106C90009EDF02000BD0112AB5D0B9F8000015B064
:106CA00007EB0040BDE8F043054900F085BEA67241
:106CB000E772A8E7E497020078280020389B0200DA
:106CC000B09A020000F180400068002800D0012046
:106CD000704708B500F18040002101600068009015
:106CE00008BD000000283ED01F49204A096800BFA7
:106CF00000BF00BF00BF00BF00BF00BF00BF914288
:106D00002FD000BF00BF00BF00BF00BF00BF00BF4B
:106D100000BF00BF00BF00BF00BF00BF00BF00BF7B
:106D200000BF00BF00BF00BF00BF00BF00BF00BF6B
:106D300000BF00BF00BF00BF00BF00BF00BF00BF5B
:106D400000BF00BF00BF00BF00BF00BF00BF00BF4B
:106D500000BF00BF00BF00BF00BF00BF00BF00BF3B
:106D600000BF0138C3D17047742800200024F4000C
:106D700070B50F4C0025207808B1852516E000215C
:106D8000A16061602161E1604FF0E020D0F8000176
:106D9000012610F0010F03D10721002000F022F896
:106DA00001F068F908B9034806602670284670BDEE
:106DB000BC3900201805004008B500208DF80000FF
:106DC0006846FDF75BFE0648C168491EC160C068A1
:106DD00008B9FFF7CBFB9DF80000FDF773FE08BD77
:106DE000BC3900204907090E002806DA00F00F021E
:106DF00002F1E02282F8141D03E000F1E02282F8A3
:106E0000001400F01F02012191404009800000F1B0
:106E1000E020C0F88012C0F800117047000B40B2AB
:106E200070470121B1EB507F01D101207047002054
:106E3000704700002DE9F04105460079164F904655
:106E400007EB40140E46E07E10B10820BDE8F0814B
:106E5000707F20772846FDF74FFE5FEA08006060EC
:106E60003169216003D0317F2846FFF7EDFA287998
:106E700007EB4010007F0028286801D0082100E0BF
:106E80000421C0F800150020E0752076A0750121CE
:106E9000E176A076DAE70000283A00202DE9F041FB
:106EA00005460079284E904606EB40140F46207F99
:106EB00018B10846FFF7B5FF80B1626800234FF4B0
:106EC00004704FF4017172B12A7906EB4212127FFD
:106ED000002A2A6805D0C2F8080304E01020BDE8A3
:106EE000F081C2F80813E27DB2B1227E7AB1626805
:106EF0005AB12A7906EB4212127F1AB12968C1F8F9
:106F0000040302E02868C0F804131120E7E72761B2
:106F1000012384F8188005E084F817800020E760DA
:106F2000607620762879424606EB40103946007F8D
:106F30000028284603D0BDE8F04100F073B8BDE852
:106F4000F04100F01BB80000283A002070B504465C
:106F50000079094D05EB4010017F00290AD1807EA0
:106F6000002807D1204601F0C9FB2179012005EB5B
:106F70004111887670BD0000283A00202DE9F05FAD
:106F800004460079264901EB4015A87E184302D13A
:106F9000204601F0B3FB68680028206806D04FF453
:106FA0000171C0F804130020BDE8F09F4FF4A276F1
:106FB000314601F0E4F8B1464FF4927A4FF4847B05
:106FC0005146206801F0D6F806465946206801F07F
:106FD000D1F880464946206801F0CCF8074648EAD7
:106FE00007003043ECD056EA070007D12946206855
:106FF00001F00EFBE87D697E8842E1D80020E8754B
:107000000EB10320D0E70FB10F20CDE7A97E0120FC
:107010000029216801D00860C5E74860C3E7000087
:10702000283A00202DE9F05F894604464FF4887520
:107030009A46904600260068294601F0B1F84FF4C0
:10704000A2773946206801F0ABF82068C0F8349583
:10705000C0F838852068BAF1000F14D0D0F80012BB
:1070600041F02001C0F800122179DFF8648008EBBC
:107070004110406850B120684FF40471C0F8041307
:107080003046BDE8F09F01210160EDE7AA46B94610
:107090004FF4927B5146206801F07DF8074649463F
:1070A000206801F078F805465946206801F073F829
:1070B000014647EA05000843ECD02379002208EB9B
:1070C0004310C27501B10326002DD9D00F26D7E792
:1070D000283A00202DE9F047054600793F4E9046BA
:1070E00006EB40140F46207F18B10846FFF799FEC3
:1070F00030B1284600F074F820B11120BDE8F087C7
:107100001020FBE784F81680A7600027A782287963
:107110004FF0010806EB40143E46207F0028286807
:1071200025D04FF49079494601F03AF84FF4AC7A03
:107130005146286801F034F82868A17DA268C0F89B
:107140004425C0F848152868C0F808806068F0B980
:107150004946286801F01FF880465146286801F02A
:107160001AF858EA0001F3D058BBA7750FE04FF4A6
:107170008E7A514601F003F82868C0F8088021464D
:10718000286801F053FF61684FF4807089B1304680
:10719000B4E75146286800F0EDFF10B9A08A4845D1
:1071A000F7D1A08A484505D02146286801F03EFF66
:1071B00000E08146A08AA17D8842EAD3A08A4845A2
:1071C00001D10F26D1E75146286800F0D3FF0028EF
:1071D000F9D02868C0F80C80C7E70000283A0020E2
:1071E0000079044901EB4010807D002800D0012087
:1071F00070470000283A00200FB408B50399002911
:1072000004D004AA00926A4600F00FF801B05DF8BD
:1072100014FB10B582680446002A05D0D4E90403A3
:10722000216898470020A06010BD2DE9FC479146D9
:107230000C00804676D014F8011B39B125290ED0F8
:107240004046FEF7EFFD20780028F4D198F80C00B6
:10725000002867D04046BDE8FC47FFF7DABF0020B2
:10726000012221782B291BD02D2902D0302908D1C9
:1072700002E040F0010001E040F00200641C002A3E
:10728000EFD100252A290ED02178A1F130020A2A57
:1072900011D205EB850201EB4205641C303DF1E79C
:1072A00040F00400EAE7D9F800100B1DC9F80030DF
:1072B0000968641C0D44217800232E290BD114F891
:1072C000011FA1F130020A2A05D203EB830201EB70
:1072D0004203303BF3E76C290DD068290BD06929B4
:1072E00021D00BDC252918D0582931D063290ED0A4
:1072F000642915D117E014F8011FECE7702969D053
:10730000732932D075291BD0782909D120E0D9F80A
:107310000000011DC9F8001001784046FEF782FD0B
:10732000641C90E76CE0D9F800100A1DC9F8002031
:107330000968CDE900500A224046FFF731F8EFE72F
:10734000D9F800100A1DC9F8002009680A2206E0D1
:10735000D9F800100A1DC9F8002009681022CDE9EB
:107360000050404602F09AF8DAE7D9F800100027FA
:107370000A1DC9F800200E68C00705D112E040467A
:10738000761C7F1CFEF74EFD31780029F7D104E012
:10739000202140466D1EFEF745FDBD42C0D9002D9F
:1073A000F6D1BDE74EB13046FCF7EEF8074604E0F3
:1073B000202140466D1EFEF735FDBD4206D9002D49
:1073C000F6D103E04046761CFEF72CFD317800290B
:1073D000F8D1A5E7D9F80000011DC9F8001005682B
:1073E00030214046FEF71EFD78214046FEF71AFD8B
:1073F00008200021CDE90001034610222946B0E70C
:10740000BDE8FC872DE9F04128B1016819B1C969CF
:10741000BDE8F04108470D4D0D480024461B1427D8
:107420000DE000BF04EB840005EB8000016829B18A
:10743000C969884710B10120BDE8F081641CB6FB22
:10744000F7F0A042EED80020F6E7000000000000B0
:1074500000000000044801214174007A08B10020B6
:1074600070470120704700000C3C0020012801D02B
:10747000032808D10449002201284A7400D00020C2
:10748000087401F053B870470C3C002070B5254CCF
:107490000246207A012837D0022841D12248002311
:1074A000022A006802D0032A2ED11BE0E360017992
:1074B00011B1012928D10DE0D0E90565711B4FF408
:1074C0008056B14200D33146294481614569A942C1
:1074D0000ED019E00169491C01614269914213D142
:1074E000237217E0E168491CE16008290CD9E360C8
:1074F0002372022A0ED00D21FEF728FE0B480A49FE
:10750000091D0068FFF7A6FA607C28B1BDE870404D
:1075100000F0B6BD0021EFE7BDE8704001F006B80D
:1075200070BD00000C3C0020002800205098020094
:1075300070B541EA4201DDE904564FF0A04441EA4A
:10754000830141EA052104EB800041EA0641C0F8CD
:10755000001770BD1CB500220B4600921146019227
:10756000FFF7E6FF1CBD4FF0A04202EB80000321B5
:10757000C0F8001770471CB5002100910B4601228E
:1075800001911146FFF7D4FF1CBD4FF0A04202EB62
:107590008000D0F8002722F44032C0F80027D0F84D
:1075A000002742EA0141C0F8001770474FF0A0429F
:1075B00002EB8000D0F8002722F44032C0F8002708
:1075C000D0F8002742EA0141C0F8001770470122B5
:1075D0004FF0A043824011B1C3F808257047C3F8AB
:1075E0000C25704718B5084B6C4601441B68009386
:1075F00006E000BF54F82030D3F81035401C08C214
:107600008142F7D818BD00001C980200034908B554
:107610000844002101600068009008BD006000403F
:1076200002494058012800D0002070470060004007
:1076300030B5124B01460020D3F81044224609E031
:10764000157A854205D1401C0A28F7DB4FF0FF3040
:1076500030BD5268002AF3D1421CF9D00872D3F829
:1076600010242AB152684A60D3F81024516030BD0A
:107670000022C3F810144A6030BD00003C3D0020D9
:107680007047FCF7BDB9704708B5034A0092402324
:10769000024A00F005F808BDD18A02003C3C0020F7
:1076A000F0B595B01C4615460F4608461A9E00F0E8
:1076B000E7FA182109A8FBF75CFF0E96CDE90954FB
:1076C0000023082203A9384600F0F4FA0598069032
:1076D0000498ADF81C0000208DF8200003980826BF
:1076E00000F00300012802D002281DD03CE00398DE
:1076F0003346850AC0F3C2008DF81E0003980FA917
:10770000C0F380008DF81F000398C0F38314A2001B
:10771000384600F0CFFA09A8009006AB22460FA920
:10772000284600F009FA1FE00398840DC0F3C20058
:107730008DF81E000398C0F380008DF81F00082C00
:1077400001D2254600E0082533462A460FA93846CF
:1077500000F0B0FA2E44641B09AB06AA29460FA814
:1077600000F03AF9002CEAD1384600F092FA15B050
:10777000F0BD00000A4A012902EBC00007D002292F
:1077800007D0032907D0042907D000207047022022
:1077900070470420704700797047407970470000B7
:1077A000A0A1020010B5FFF76CFF04210348FFF70A
:1077B0003FFF02490120487210BD0000142800203C
:1077C0002DE9F04F8DB0FEF73DFB18B100200DB054
:1077D000BDE8F08F74480021C0F81814BFF34F8F34
:1077E000D0E9014604EA060100EB81014FF00009EF
:1077F0000AE000BFC1F3891202EB9151641C0C44F2
:1078000004EA060100EB8101C9688A07F2D0002171
:1078100003AA804604EA060008EB8000641CC068E6
:1078200042F82100491C43460229F3D3039800F093
:107830000300022806D0012803984FD0C0438007D8
:107840007ED0ACE003985022810D8A46B2EB905F67
:1078500000D850210D4665F39F50039008315348DE
:1078600000F0C5F907006CD000F00AFA4B46082278
:1078700003A9384600F024FA04EA0601701A8000D1
:10788000001D09F1080B854221D9474E0C3630B155
:10789000C2B208EB8101281A91460C3104E031464E
:1078A000EAB2002691463046C5B25B46384600F043
:1078B00007FA0BEB09032EB12A4631464FEA0700BF
:1078C00000F0FEF90AF1030004EB90043BE008EB42
:1078D00081015B462A4638460C31F1E7C0F383103C
:1078E000062800D30620039960F38911C1F38310A1
:1078F000801C039181002D4800F079F907004ED0DB
:1079000000F0BEF94B46082203A9384600F0D8F92A
:1079100009F1080900250DE004EA060008EB8001E2
:107920004B46042238460C31641C00F0C9F909F1B9
:1079300004096D1C0398C0F38310A842ECD801E041
:107940000BE02CE05FB3D8F81054D8F81804464682
:1079500090B1384600F09DF921E0D3F818040028D2
:107960003FF435AF1BE0687A012804D12968284626
:107970000A68394690476D68002DF4D1384600F00A
:1079800088F900208DF800006846FDF777F8D6F8F2
:10799000180400B974609DF80000FDF793F8FEF735
:1079A00051FA80F0010012E73C3D0020709902007E
:1079B00000231A4601F090B908B5012300926A46E7
:1079C00001F08AF908BD1CB5CDE9002302236A46FF
:1079D00001F082F91CBD00002DE9F0470E468046FB
:1079E0001C46924608293ED894F80C90002020733B
:1079F0001946104600F06CFD0025B54206D218F875
:107A000005201AA12046FFF7F7FB03E019A1204645
:107A1000FFF7F2FB6D1C082DEFD317A12046FFF7EF
:107A2000EBFB0025B54210D218F80570FBF784FD7A
:107A30000068C05D10F03E0F01D03A4600E02E22F3
:107A40000EA12046FFF7D8FB03E00DA12046FFF76B
:107A5000D3FB6D1C082DE5D301222146504600F0D2
:107A600019FD84F80C90BDE8F08700002025303225
:107A700078000000202020007C000000256300002A
:107A800020000000114810B5FF2181600021016035
:107A90004160C0F81814C0F8141480F81C140C4885
:107AA00000F0F5F800280FD10A480B490B4B401A9B
:107AB000C108002005E000BF00EB400223F82200CF
:107AC000401C8842F8D3002010BD00003C3D00203F
:107AD00070990200F8A10200A0A1020078280020FD
:107AE00002480349401AC00870470000F8A102008C
:107AF000A0A1020013B56846FEF744FF08B10020BC
:107B00001CBD0248009950F831001CBDA0A1020024
:107B100070B508480125D0F8104480F81C5405E0E1
:107B2000657221682046496888476468002CF7D14F
:107B300070BD00003C3D00202DE9FF4781460C9DB3
:107B400000200C462F7B2873984616462946184677
:107B500000F0BEFC072E42D2DFE806F004090F1643
:107B60001F2A360049462846FFF746FB37E04946BC
:107B700028462268FFF740FB31E0D4E9002349465C
:107B80002846FFF739FB2AE0A0680090D4E90023DB
:107B900049462846FFF730FB21E0D4E90201CDE950
:107BA0000001D4E9002349462846FFF725FB16E0EB
:107BB00004F1080007C88DE80700D4E9002349460E
:107BC0002846FFF719FB0AE004F108000FC88DE80A
:107BD0000F00D4E9002349462846FFF70DFB002299
:107BE0002946404600F056FC2F73BDE8FF872DE97B
:107BF000F041058A80462D1F4819C01CB0FBF5F0E6
:107C0000C6B24046FEF743FF041E19D00020207183
:107C100001206071E58000272546761EC4F80080AB
:107C20000BE04046FEF733FF60B16179491C61719A
:107C3000286005467F1CC0F80080B742F1D320467B
:107C4000BDE8F081204600F002F80020F8E72DE9B9
:107C5000F041457901466B1E002201E00968521C83
:107C60009A42FBD30F680146002605E038460C68AF
:107C7000FEF72FFF2146761CAE42F7D3BDE8F08118
:107C800008B501216A46001DFBF75BFB08BDFEF746
:107C900038BF38B50446001D01216A46FBF75EFB7C
:107CA000009810F0FF0F04D12046BDE83840FFF7E0
:107CB000CEBF38BD38B501240094FEF727FE38BD8D
:107CC00038B500240094FEF721FE38BDF8B504460F
:107CD0000D4801216A46FBF74FFBBFF35F8F00257C
:107CE00000280AD10121084E042C09D0301F427807
:107CF00022B100BFBFF35F8F3560F8BD04704170E3
:107D000000F04EFFF6E700000C28002020B10349E8
:107D100009680160002070470E207047FC9902003E
:107D20002DE9FE4306460D460846FFF7EFFF002803
:107D30007ED18046CDF80080CDF804800124032058
:107D40008DF80060ADF80400CDF808808DF8024091
:107D5000694620202A6869DF404F40B100F000FAF0
:107D6000024638883E4904EB0040FFF725FECDF877
:107D700000808DF800408DF80180CDF80480CDF8AA
:107D800008808DF80280694640202A6869DF40B18A
:107D900000F0E6F902463888324904EB0040FFF76C
:107DA0000BFECDF800808DF80060F720ADF80200E2
:107DB000CDF80480CDF80880694623202A6869DF61
:107DC00040B100F0CDF902463888274904EB004065
:107DD000FFF7F2FDCDF8008002208DF80000CDF80D
:107DE0000480CDF808804646694601202A6869DF8C
:107DF00040B100F0B5F9024638881C4904EB004058
:107E0000FFF7DAFD4FF4B0600090019602966946E4
:107E1000A1202A6869DF40B100F0A2F90246388843
:107E2000134904EB0040FFF7C7FD0096019600E000
:107E300011E002968DF800606946A0202A6869DF8B
:107E400040B100F08DF9024638880A4904EB004041
:107E5000FFF7B2FD0020BDE8FE830000E42800200B
:107E600044A002008CA00200D8A00200A49F02003F
:107E7000F09F0200509F020070B50668044631462C
:107E800012A0FCF753F9204660DF22680546B24293
:107E900012D1314612A0FCF749F91D4E206830601E
:107EA00000F090FB2168411A1AA0FCF73FF900F09E
:107EB00089FB2168401A306035B1284600F050F93E
:107EC00001461DA0FCF732F9284670BD52414D20F5
:107ED00073746172747320617420307825780000A7
:107EE00052414D2073746172747320617420307834
:107EF00025782C2063616E2062652061646A757349
:107F000074656420746F20307825782E000000009E
:107F10006C28002052414D2073697A652063616EA0
:107F20002062652061646A757374656420746F20D3
:107F3000307825782E00000073645F626C655F65A1
:107F40006E61626C6528292072657475726E656455
:107F50002025732E0000000030B5EBB04FF4CE7535
:107F6000ADF8A8516AA9684661DF30B1052816D07E
:107F70006BB0BDE83040FCF729BC6C46094967A8E6
:107F800000F0AAF807E000BFD0E9002120469047A2
:107F900067A800F0B8F869980028E1D0F4E76BB062
:107FA00030BD0000009A020010B50D4C2078A0B141
:107FB0000120A07000F0FEFB11280CD0022000F080
:107FC00011FC11DF002807D12070A07000F040FEE6
:107FD000032000F007FC002010BD082010BD0000A9
:107FE0006828002038B5174C207808B1082038BD23
:107FF0000125A570002000F0DDFB112820D0002015
:1080000000F0F0FB1048114900680090684610DF4E
:108010000028ECD12570A07060700721162000F0B8
:108020007DFB08B1FCF7D2FB0721152000F076FBA1
:1080300008B1FCF7CBFB00F027FE012000F0D2FBDB
:10804000002038BD6828002094990200554702009E
:108050000EB50749684600F03FF805E0D0E900108A
:108060008847684600F04FF802980028F6D10EBD08
:10807000B09902000148007870470000682800208D
:108080000548817819B1007818B1FFF78DBF082035
:108090007047FFF7A7BF0000682800201FB568469B
:1080A00048DF30B1052814D004B0BDE81040FCF71B
:1080B0008DBB084901A800F00FF806E0D0E90021C7
:1080C0000098904701A800F01EF803980028E6D019
:1080D000F4E71FBD1C9A0200016009684160AFF31C
:1080E000008010B5D0E900215368994201D10021E8
:1080F00004E0D1E90034A34202D01946816010BDEA
:1081000008314160F0E7816800290BD0026892686D
:108110000A44826041684B689A4203D10831416049
:10812000FFF7DFBF704700000C4A10B502F1F00303
:108130000EE0991AC91001EBD171491002EBC1018F
:108140000C68844201D90B4602E005D201F1080215
:108150009A42EED3002010BD486810BD749802000A
:1081600000B5FFF7E1FF002800D1014800BD000085
:10817000609802004058002800D00120704708B5E0
:10818000002242504058009008BDD0F80403084037
:1081900000D0012070474058002800D001207047CF
:1081A00008B5002242504058009008BDF0B50F4677
:1081B0000A4699B001466846FBF7C2F9384C9DF86B
:1081C0000010201D012600253A2901D1217819B17E
:1081D00021793A2911D013E061783A46084469467A
:1081E000FBF7AEF9607838446070A179607900F0EF
:1081F00017FFC01C6080267009E02178012932D069
:10820000657025706580B421201DFBF7B2F9607898
:108210006188884241D3801EC1B2601DFBF766FAB7
:108220001F496278C91C515C88422FD11C4F60796C
:108230000C3F010AA0794FF6FF7201433980E07BC1
:1082400002EA0020227C10437880227A3A71154A93
:108250001368DBB10B398AB207F11D0198477888A2
:1082600040280DD012E0617862889142CFD2084454
:108270003A466946FBF764F9607838446070C6E7AF
:1082800009480670A178201D01F004FAB421201DD0
:10829000FBF76FF925706580657019B0F0BD0000BF
:1082A000942F002078270020B127002010B5044625
:1082B000007800280AD1A2890548A168FBF740F997
:1082C000217BBDE810400248FFF770BF10BD0000E1
:1082D000242F002010B550B103280CD10220FDF747
:1082E0007FFC002807D0BDE81040FCF76FBABDE85E
:1082F000104000F093BC10BD0078002807D104485E
:108300003B21408876DF002801D0FCF75FBA704738
:10831000702700202DE9FC418E88027900EBC6050C
:10832000AC1D2A73C97B012902D0022904D101E0C6
:10833000008800E040882080218860880127DFF8DD
:10834000648081420CD930469EDF020025D0112A7C
:1083500025D0B8F80000144907EB0040FFF72CFBCC
:10836000A079E179884216D9002000900190287BFD
:10837000ADF80000287BADF80200002269463046C7
:1083800090DF030007D0B8F80000324607EB00404A
:108390000649FFF718FBBDE8FC816771E0E727712C
:1083A000DEE7000078280020B09A0200809B0200DF
:1083B0007CB506468D88C88806EBC504A41D172821
:1083C00000D217202188814200D808466080002012
:1083D000207121882846ADDF020007D00E48012118
:1083E000008801EB00400D49FFF7E6FA60790028AC
:1083F00010D1306900280DD00948D0E90210CDE92C
:108400000010ADF802506088ADF80400326969468A
:10841000304690477CBD000078280020F49A020086
:10842000E49702007FB51A4D8188AA8891422DD128
:1084300010F8061F022929D14188EA88914225D1E6
:10844000017A042922D0062920D005291ED0841CB7
:108450000020009002210190029003908DF80010FE
:10846000297E19B101218DF8061001E040F2FD10BE
:10847000ADF80400A8886946A8DF1128FAD0BDF835
:108480000400002802D12046FCF74AFF7FBD00000F
:10849000E443002010B50C46C17949B11AB109A1D5
:1084A0002046FEF7A9FE2046BDE81040FEF7B1BE0B
:1084B000007A0028F3D0044804A102682046FEF7A1
:1084C0009BFEECE70D0A0000442800202573000005
:1084D00070B50446C0790D4600281CD1207A50B1F1
:1084E000A179A088FFF746F90B4951F820200BA18C
:1084F0002846FEF781FEA0880021FFF7FBFA03461D
:108500000549A079143951F820202846BDE870406B
:1085100003A1FEF771BE70BD442800202573000042
:108520003C25733E2025733A200000002DE9F041E0
:10853000214C0025214E207A012730B92048311DD9
:108540000068FEF792FA306038B10220207231687C
:10855000087928B101281ED116E06560BDE8F081D8
:10856000D1E90503C01A4FF48052904200D310465F
:10857000B7EB900F01D2820800E001220869C968B8
:108580001844194429DF03E0D1E90301084428DF36
:1085900038B111280ED003213068FDF7D7FD2572C0
:1085A000DBE7207C0028D9D1BDE8F0410021022082
:1085B000FEF76CBF2772D1E70C3C0020002800209A
:1085C000509802004FF08050D0F80C01800200F16A
:1085D0000050704770B5012670044FF0E02100256F
:1085E000C1F88001084C4010C4F84803C4F80803DF
:1085F00066602F20FEF776FBA660044C2F20A56056
:10860000FEF770FBA57070BD00100140DC27002054
:1086100070B50546C87D0C4600284FF48471284685
:108620000AD0FFF7ACFDD5F81805627EE1688854E2
:10863000607E401C607670BDFFF7A1FDD5F818057F
:1086400070BD30B58FB005461C216846FAF791FF22
:1086500000249DF80000019440F00C008DF800000B
:10866000039404940594069428788DF8360002202B
:10867000ADF834000C949DF83000142120F00F0068
:10868000401C20F0F00010308DF830009DF83100D3
:1086900020F00F00401C20F0F00010308DF8310069
:1086A0009DF8320020F00600801C20F0180040F0F9
:1086B00001008DF8320007A8FAF75BFF0DA80790BC
:1086C0000CA808900120ADF82400F420ADF8264055
:1086D000ADF82800688805F10C0307AA6946A2DFF7
:1086E0000FB030BD1FB501238DF800308DF8081094
:1086F0000192D0E90012684690471FBD10B50446AC
:1087000000684FF49271FFF73AFD4FF484712068CE
:10871000FFF735FD20680121016010BD70B50D46E1
:108720000446FBF723FD70B12846FBF731FD68B125
:108730006807000E002C0CDA04F00F0101F1E021B3
:1087400081F8140D09E042F2010070BD42F202000E
:1087500070BD04F1E02484F80004002070BD000026
:1087600038B50021012558B101280ED003280BD1BE
:1087700007210020FEF736FBBDE83840FEF71CBBA2
:108780004FF0E020C0F8805138BD8DF800106846E9
:10879000FCF774F9064C207808B9FEF7E9FAE068AE
:1087A000401CE060A5709DF80000FCF78BF938BD17
:1087B000BC3900203EB5044609496846FFF78CFCE9
:1087C00008E000BFD0E900212046904730B168465C
:1087D000FFF799FC02980028F4D13EBD11203EBD60
:1087E000989902003EB5044608496846FFF774FCB4
:1087F00007E000BFD0E90021204690476846FFF718
:1088000082FC02980028F5D13EBD0000A499020028
:1088100070B50028049D18D0002916D0002A14D065
:108820005FF0000430F814609E420FD10020012355
:10883000A34008E001EB800426680DB11E4300E070
:108840009E43401C26609042F4D370BD641C202CD3
:10885000E8D370BD70B5054600242146284600F0D7
:108860000AF808B1204670BD641CA4B2202CF4D3D1
:108870004FF6FF7070BD01228A40024201D00120F4
:108880007047002070472DE9F04192B080464FF0CC
:10889000000017460D00009012D000246E46A1B2D1
:1088A0003846FFF7E8FF40B1009935F8140006EBB1
:1088B000410188800098401C0090641C202CEED35D
:1088C000442269464046FAF73BFE12B0BDE8F0810B
:1088D00008B5009313460122FFF79AFF08BD000078
:1088E00000B58DB03A208DF8000000208DF8010011
:1088F0000B218DF804008DF802100E4801218DF82F
:1089000003100168CDF805108088ADF80900A0209B
:108910008DF80B0040208DF80C000C210DF10100AA
:10892000FAF7E4FE8DF80D000E216846FCF740F9D9
:108930000DB000BD7F2700200EB500220092ADF8DB
:1089400000100192029201466A460248FCF7E0FFDD
:108950000EBD00001C2E002070B50320FDF7BEFCEC
:1089600003252A4C012800D125702078062827D21B
:10897000DFE800F0030E1B27333E0020FDF7AEFCBE
:10898000012801D0012026E0BDE8704000F074B855
:108990000120FDF7A3FC012805D1FCF7E5FF00212C
:1089A0000120FDF77DFA022015E00220FDF796FC7C
:1089B000012804D1FDF7B8FC0021022022E0257037
:1089C00070BD0320FDF78AFC012803D1002103209C
:1089D000FDF766FA0420207070BD0420FDF77EFCD0
:1089E00005250128EBD1FFF77BFF0021042009E0DA
:1089F0000520FDF773FC00250128E0D100F010F8F8
:108A000000210520FDF74CFAD9E70000A42700203B
:108A100002498969002900D008477047E8380020DA
:108A200000B58DB03A208DF8000000208DF80100CF
:108A30000B218DF8021001218DF803100D498DF8DE
:108A400004000A68CDF805208988ADF809108DF872
:108A50000B0022208DF80C000C210DF10100FAF71B
:108A600045FE8DF80D000E216846FCF7A1F80DB00B
:108A700000BD00007F27002000B58DB03A208DF8A2
:108A8000000000208DF801000B218DF8021001215B
:108A90008DF803100D498DF804000A68CDF8052003
:108AA0008988ADF809108DF80B0020208DF80C0096
:108AB0000C210DF10100FAF719FE8DF80D000E21C1
:108AC0006846FCF775F80DB000BD00007F27002058
:108AD0002DE9F04114000F460DD000250A26791922
:108AE00022460020FAF78EFF0544241A08B9761EA4
:108AF00001D0002CF3D1BDE8F08100002DE9F04158
:108B00000746806A14468846C8B3002531E000BF96
:108B1000B96A05EB450001EB8006B088801CFE2891
:108B200002D90C20BDE8F0812288401C08F8020020
:108B300020881622401C80B2208008F8002020885F
:108B4000401C80B2208000EB0801308800F0A0FCBF
:108B50002188084480B22080B28842B1B16871B1E6
:108B60004044FAF7EDFC2088B188084420806D1C51
:108B7000EDB297F82C00A842CAD80020D2E7FFE750
:108B80000720CFE710B501460448FCF703FA002898
:108B900003D0BDE81040FBF719BE10BD4C2E0020DD
:108BA00070B5194D194C07E00168207888470028F6
:108BB00029D01548FFF7A7FAA8680028F4D1FEF7D6
:108BC000A7FF00BFFEF7FCFD0028FBD1207803289B
:108BD0000CD002280AD0FFF74DFA00B132DF0C4961
:108BE00001200860BFF34F8F20BFFDE7BFF34F8F19
:108BF00008480168084A01F4E06111430160BFF3CD
:108C00004F8F00BFFDE770BD303C002008280020DA
:108C1000000500400CED00E00400FA0510B500204E
:108C2000FCF7DEFF08B1FBF7D1FDFCF75FFF08B1F1
:108C3000FBF7CCFD32DF002803D0BDE81040FBF786
:108C4000C5BD10BD002801D1FDF716B97047000061
:108C500010B51620FBF78AFA48B10A4882684FF42B
:108C6000800152B1016821F48001016010BDBDE8AE
:108C7000104042F20100FBF7A9BD4FF0E020C0F820
:108C8000801110BD743B002010B51620FBF76EFA62
:108C900080B10F4890F800044009FBF779FA60B101
:108CA0000C4882684FF480016AB1016841F4800188
:108CB000016010BD42F2010001E042F20200BDE895
:108CC0001040FBF783BD4FF0E020C0F8001110BD4D
:108CD00016E000E0743B00202DE9F843214C884663
:108CE000054691461F4669461846A668FDF768F88E
:108CF00070B30098811C00220AE000BF01EA060C54
:108D000059F8223004EB8C0C491C521CCCF80C3066
:108D1000BA42F3D30246401C304004EB80002B0CD7
:108D2000C36002EA060004EB8002E80652F80C0F6A
:108D300002D540F0040001E020F0040065F3C50016
:108D400067F3891068F39F2020F00300401C106037
:108D500094F81C0402E000BFFEF732FD0028FBD1AE
:108D6000BDE8F8833C3D002000B58DB03A208DF879
:108D7000000000208DF801000B218DF804008DF813
:108D80000210124801218DF803100168CDF805107A
:108D90008088ADF80900A0208DF80B0022208DF806
:108DA0000C000B480168CDF80D108088ADF811005B
:108DB00012210DF10100FAF799FC8DF8130014212E
:108DC000684600F0BEF90DB000BD00007F2700200E
:108DD000B5270020054841784A1C4270092904D96A
:108DE000002141700249012008707047702700205F
:108DF0009627002010B5FAF7F7FFBDE81040FAF704
:108E000039BE000010B5064A01210648FBF712FDE5
:108E1000002803D0BDE81040FBF7D8BC10BD00000F
:108E2000D58D0200809702002DE9F84F1D4C0025DA
:108E30006846D4E901A6FDF769F9002738B3002395
:108E4000009A61681CE0D1F800C00846944503D937
:108E5000ACEB02020A6015E0A2EB0C02634407606F
:108E6000D0F80CC0C1698146BCF1000F08D006EBF8
:108E7000030828F07F48C0E9018CC9F81C5005465A
:108E80000029E0D128466160FDF790FB03E0284609
:108E9000FDF78CFB10B15046FDF718F8E770BDE800
:108EA000F88F0000DC2700200D4B10B5596831B158
:108EB00002680C68A24204D8A21A0A60C161586014
:108EC00010BD0B4603E00B46C969121B21B10C68AB
:108ED0009442F8D3A41A0C600260C161D86110BD3D
:108EE000DC2700202DE9F041144E77683D462C46E2
:108EF00003E0844204D02546E469002CF9D11BE04C
:108F0000D4B1A5420BD1F869706040B90C49012079
:108F100088600021B160F0702F20FDF7E3FE21682A
:108F2000E069E86110B1026811440160706887422D
:108F300002D00120BDE8F0810020FBE7DC27002003
:108F400000100140064810B5002221210068FBF7FF
:108F5000AFFC002803D0BDE81040FBF737BC10BDC4
:108F6000809702007CB5064600240D468DF800402F
:108F70006846FBF783FD01A800F03EFB70B1057069
:108F8000094946609DF8040048709DF80000FBF711
:108F900099FD1420FAF7DAFC20467CBD04249DF8E4
:108FA0000000FBF78FFDF7E7483A00202DE9F0417C
:108FB000194D6C68002C2CD0184800270068A9684F
:108FC000B846401A20F07F462068B0420CD82146AF
:108FD000361A0744E469087C20B181F8108088695A
:108FE00049698847002CEFD129786878814206D1F9
:108FF000401CC0B26870022801D185F80180064883
:1090000069780C3040F82170BDE8F0411420FAF77F
:109010009DBCBDE8F0810000DC2700200415014064
:109020004FF6FF7202EA00200843704770B50C4605
:1090300005464FF48E71FFF7A2F8A18AA068415C43
:10904000A08A401CA082C5F81C1570BD30B58FB039
:109050000024054607949DF81C001C2120F00F00F9
:10906000401C20F0F00010308DF81C009DF81D0011
:1090700020F00F00401C20F0F00010308DF81D0093
:109080009DF81E0020F00600801C8DF81E0068462A
:10909000FAF76FFA9DF80000019440F010008DF887
:1090A000000007A8CDE904400394069428788DF8C1
:1090B0003A000320ADF838000D949DF834001421D7
:1090C00020F00F00401C20F0F00010308DF834002C
:1090D0009DF8350020F00F00401C20F0F00010300B
:1090E0008DF835009DF8360020F00600801C20F039
:1090F000180040F001008DF8360008A8FAF739FA98
:109100000EA808900DA809900120ADF82800F420C1
:10911000ADF82A40ADF82C0068882B1D08AA6946D6
:10912000A2DF0FB030BD1FB500228DF800208DF8F2
:109130000810816801918275D0E900126846904755
:109140001FBD70B50D460646002403E0305DFBF7F9
:1091500077FC641CAC42F9D3012070BD01498860E2
:10916000704700008827002010B50078002808D13B
:109170000448FBF7F1FB03480078BDE81040FAF71C
:1091800089BE10BD702700207CB50178244D81B3C5
:1091900001290BD002292BD18DF80010C068691C61
:1091A00001900122C81DFDF779FE2EE0406801788C
:1091B0001C48FBF731FB1B4C012618B18DF80060F1
:1091C000019006E0A068E168814205D000208DF89A
:1091D0000000696868468847A068E168081AA188A5
:1091E000884207D80E490122491CC81DFDF756FECA
:1091F0007CBD01E0AE70FBE70A4809491030FBF77F
:10920000F0FA30B103208DF800006968684688479D
:10921000EEE70349012201F10800FDF75BFFE7E7F4
:10922000F0270020543B00202DE9FF470C4605465F
:109230004FF40071FEF7A9FF01274FF401780026D3
:1092400018B34FF4927949462846FEF793FFE0B1F0
:1092500049462846FEF793FFC5F80883A07E00B96B
:109260006F6002208DF80000D5F88004C5F88004F6
:109270000390E07D8DF80800E0680190E6752676A1
:10928000D4E900126846904727E004212846FEF7FB
:109290007CFF10B34FF484712846FEF76BFFE0B1FA
:1092A00021462846FFF7B4F9E07D617E884214D15B
:1092B000207E38B1617EE268E0752069E060267644
:1092C000667607E0A07E00B96F60C5F80883E67592
:1092D000617EE2682046FFF705FA4FF48E7841463A
:1092E0002846FEF747FF88B1A08AA17D884204D2B4
:1092F00021462846FFF79AFE08E041462846FEF739
:109300003EFFA17D11B12046FFF70DFF4FF4A2787B
:1093100041462846FEF72EFF002812D04146284637
:10932000FEF72DFFA07E00B12F60E07D002808D061
:10933000E675617EE26804B02046BDE8F047FFF7BD
:10934000D1B9BDE8FF87000070B5134D6C1C2878BB
:10935000002638B1012810D0022816D1A0780128A3
:1093600014D016E02078012805D10C4890F800119F
:10937000FFF7E7FE2670012006E06078012802D1A1
:10938000FCF71EFB66700220287070BDFFF7ECFC36
:10939000A6702E7070BD0000B02700204637002058
:1093A0002DE9FF410C464FF4927705463946FEF70A
:1093B000F2FE0026C0B139462846FEF7F1FE022033
:1093C0008DF80000D5F88004C5F880040390D5F826
:1093D0003C058DF80800E0680190E6752676D4E932
:1093E00000126846904724E04FF4887739462846B3
:1093F000FEF7D1FEE8B139462846FEF7D1FED5F892
:109400003C05C1B2E07D884213D1207E60B1E268A4
:10941000D5F8000220F02000C5F80002207EE0759B
:109420002069E060267601E0E675E2682046FFF7F5
:1094300059F94FF4A27739462846FEF7ACFE68B1D9
:1094400039462846FEF7ACFEE07D38B1E675D5F822
:109450003C05E268C1B22046FFF744F94FF490762C
:1094600031462846FEF797FE00280FD031462846A1
:10947000FEF796FEA07D002808D0D5F84C0504B074
:10948000C1B22046BDE8F041FFF74DBEBDE8FF8107
:109490000870000A48700220704700002DE9F05F54
:1094A0008346DDE90A4A994690460D46084601275B
:1094B00003E000BFB0FBF8F07F1C4045FAD2B9458D
:1094C00000D94F465FEACA7012D18CB15FEA8A7048
:1094D00002D5B9F1000F01D0202607E0302605E0C3
:1094E00031465846641EFCF79DFC0CB1A742F7D3E9
:1094F0005FF00106B9F1010F02D9A9F1010903E0FA
:10950000B5FBF6F0404502D306FB08F6F2E7DFF8BC
:109510003C9000BFB5FBF6F000FB165519F80010A3
:109520005846FCF77FFCB6FBF8F6002EF2D15FEA56
:10953000CA7009D0002C07D0A74205D22021584676
:10954000641EFCF76FFCF5E7BDE8F09F4098020051
:10955000F8B5054680B2FCF719FF040013D0154E8C
:10956000207A0027317B88420ED2A8B204F10A018A
:1095700075DF28B1112806D0BDE8F840FFF748BADA
:10958000207A401C2072F8BD2772307C38B1A8B216
:109590003B2176DF18B1082801D0FFF739FA71694D
:1095A0000029F0D08DF80070ADF802506846884769
:1095B000F8BD0000E8380020084810B5807901287F
:1095C00007D074DFFBF774F8BDE810400320FFF705
:1095D000D9BA03490120487010BD00007F27002040
:1095E000B127002010B574DFFBF72AF8BDE8104062
:1095F0000320FFF7C7BA00000A494A788B78521C4B
:10960000D2B2934200D100220B78934201D10020C4
:1096100070470270487800EB400001EBC000001D6D
:1096200070470000483A002019480278002A2DD0DF
:10963000431E1978491CC9B21970642926D100212A
:10964000197043795B1CDBB243713B2B1ED941710E
:1096500003795B1CDBB203713B2B17D90171C37813
:109660005B1CDBB2C370172B10D9C17083785B1CF5
:10967000DBB283701E2B09D9817043785B1CDBB28F
:1096800043700B2B02D94170521C027070470000CE
:10969000B527002010B50C460A4601460348F9F7E5
:1096A0004FFF024880F8004110BD000046370020FF
:1096B0002DE9FC411646DDE90854CDE900541F466A
:1096C0008046022200F00CF8002807D1CDE90054B2
:1096D0003B4610223146404600F002F8BDE8FC81CE
:1096E0002DE9FC5F0026DDE90C4B994692468E463B
:1096F00080462788354630E0D8F80400002200EB89
:10970000850069460068019001A864DF002830D117
:109710009DF8000050451FD10EB1002100E002214C
:10972000228808441118594522D846B9521C90B2D3
:10973000208009F800E02088401C20800126218834
:1097400001A801EB0902694664DF002811D12088D5
:109750009DF80010084420806D1CB8F80000A84255
:10976000CADC56B12088C01B401E80B2FF2802D937
:109770000C20BDE8FC9F09F807000020F9E7000075
:10978000FC28002008000000060000000500000082
:1097900007000000000000000000D60101020304E1
:1097A0000506070809000000000000000011121360
:1097B000140D0E0F100000004838002068380020FB
:1097C000943800200D0003000D5B02000E00030022
:1097D0000D5B02000F0003000D5B02001000030090
:1097E0000D5B0200770A000000000000770A00000D
:1097F000000000007ADA0000000000000100000014
:109800000000000000000000000000009ECADC24F0
:109810000EE5A9E093F3A3B50000406E00000050F0
:10982000FFFFFFFFFFFFFFFFFFFFFFFFFFFFFFFF48
:1098300000000000000000000000D6010701000049
:109840003031323334353637383941424344454676
:10985000203C002000100000040000000100000077
:10986000556E6B6E6F776E206572726F7220636FCC
:109870006465000000000000B89E020001000000C6
:10988000789D020002000000F89B02000300000027
:10989000EC9D020004000000409E02000500000054
:1098A000389D020006000000D89C0200070000005E
:1098B000289E0200080000004C9D020009000000E4
:1098C000989D02000A000000A09E02000B0000000C
:1098D000E09B02000C000000649D02000D000000EF
:1098E000C49E02000E000000189E02000F0000003F
:1098F000549E020010000000889E0200110000002B
:10990000D89E020080000000189D02008100000027
:109910009C9C0200820000005C9C0200830000000E
:109920003C9C020084000000789C0200850000003E
:10993000F09C020086000000009E020090000000E3
:10994000B89C0200910000001C9C020000820000F4
:10995000689E020001820000B49D020002820000A5
:10996000D09D02008976020087760200817602008F
:109970002828002020280020282800207C3C0020C7
:109980001800000038A2020040A2020000000000FF
:109990000000000001000007849902009499020071
:1099A00008000000BC990200CC99020008000000E9
:1099B000CC990200DC9902000800000070A20200AD
:1099C00080A20200000000000000000060A202006F
:1099D00070A202000000000000000000F8A10200D8
:1099E00000A2020000A2020020A2020020A20200A7
:1099F00030A2020030A2020038A20200702700202C
:109A0000DC990200FC9902000800000040A202005C
:109A100050A2020050A2020060A202000C9A0200B2
:109A20001C9A0200080000000040404040404040B6
:109A30004040414141414140404040404040404021
:109A400040404040404040404005020202020202C5
:109A50000202020202020202022020202020202014
:109A60002020200202020202020290909090909028
:109A700010101010101010101010101010101010E6
:109A8000101010100202020202028888888888885A
:109A90000808080808080808080808080808080846
:109AA000080808080202020240000000299A020089
:109AB00073645F626C655F67617474635F6578632C
:109AC00068616E67655F6D74755F726571756573EA
:109AD0007428292072657475726E656420756E65D0
:109AE000787065637465642076616C756520307884
:109AF00025782E0073645F626C655F6761747473B0
:109B00005F65786368616E67655F6D74755F7265C8
:109B1000706C7928292072657475726E6564207581
:109B20006E65787065637465642076616C75652018
:109B3000307825782E00000073645F626C655F6783
:109B400061705F646174615F6C656E6774685F7596
:109B50007064617465282920287265706C792920E9
:109B600072657475726E656420756E657870656374
:109B70007465642076616C756520307825782E00D8
:109B800073645F626C655F6761705F646174615F7D
:109B90006C656E6774685F757064617465282920F0
:109BA000287265717565737429206F6E20636F6EFE
:109BB0006E656374696F6E203078257820726574E5
:109BC00075726E656420756E657870656374656422
:109BD0002076616C756520307825782E00000000B5
:109BE0004E52465F4552524F525F494E56414C4984
:109BF000445F4441544100004E52465F4552524F2B
:109C0000525F534F46544445564943455F4E4F5467
:109C10005F454E41424C4544000000004E52465FB5
:109C20004552524F525F464541545552455F4E4F43
:109C3000545F454E41424C45440000004E52465F41
:109C40004552524F525F4D555445585F554E4C4FFB
:109C5000434B5F4641494C45440000004E52465F2D
:109C60004552524F525F4D555445585F4C4F434BF0
:109C70005F4641494C4544004E52465F4552524F63
:109C8000525F4D555445585F434F4E445F494E49CE
:109C9000545F4641494C4544000000004E52465F27
:109CA0004552524F525F4D555445585F494E4954A5
:109CB0005F4641494C4544004E52465F4552524F23
:109CC000525F4150495F4E4F545F494D504C454D96
:109CD000454E5445440000004E52465F4552524F97
:109CE000525F4E4F545F535550504F5254454400AD
:109CF0004E52465F4552524F525F4D4F44554C4570
:109D00005F414C52454144595F494E495449414C89
:109D1000495A4544000000004E52465F4552524F9A
:109D2000525F4D4F44554C455F4E4F545F494E492D
:109D30005449414C5A4544004E52465F4552524F99
:109D4000525F4E4F545F464F554E44004E52465F51
:109D50004552524F525F494E56414C49445F53540D
:109D6000415445004E52465F4552524F525F444166
:109D700054415F53495A45004E52465F4552524F37
:109D8000525F5356435F48414E444C45525F4D49E4
:109D90005353494E470000004E52465F4552524FC2
:109DA000525F494E56414C49445F4C454E475448DA
:109DB000000000004E52465F4552524F525F4452DF
:109DC000565F5457495F4552525F414E41434B00E5
:109DD0004E52465F4552524F525F4452565F54575F
:109DE000495F4552525F444E41434B004E52465FDD
:109DF0004552524F525F494E5445524E414C00001D
:109E00004E52465F4552524F525F53544F52414754
:109E1000455F46554C4C00004E52465F4552524FEE
:109E2000525F4E554C4C00004E52465F4552524FC9
:109E3000525F494E56414C49445F504152414D009A
:109E40004E52465F4552524F525F4E4F5F4D454D09
:109E5000000000004E52465F4552524F525F464F3F
:109E60005242494444454E004E52465F4552524F7D
:109E7000525F4452565F5457495F4552525F4F56A6
:109E8000455252554E0000004E52465F4552524FC9
:109E9000525F494E56414C49445F41444452000090
:109EA0004E52465F4552524F525F494E56414C49C1
:109EB000445F464C414753004E52465F535543431F
:109EC000455353004E52465F4552524F525F5449DC
:109ED0004D454F55540000004E52465F4552524F7B
:109EE000525F4255535900007761726E696E670088
:109EF00064656275670000001B5B313B33306D00A9
:109F00001B5B306D000000001B5B313B33316D008B
:109F10001B5B313B33326D001B5B313B33336D00D8
:109F20001B5B313B33346D001B5B313B33356D00C4
:109F30001B5B313B33366D001B5B313B33376D00B0
:109F4000696E666F000000006572726F720000003B
:109F500073645F626C655F6366675F73657428290D
:109F60002072657475726E6564202573207768654C
:109F70006E20617474656D7074696E6720746F20F3
:109F800073657420424C455F47415454535F4346C8
:109F9000475F534552564943455F4348414E474505
:109FA000442E000073645F626C655F6366675F7375
:109FB000657428292072657475726E656420257336
:109FC000207768656E20617474656D7074696E6762
:109FD00020746F2073657420424C455F434F4D4D94
:109FE0004F4E5F4346475F56535F555549442E00D9
:109FF00073645F626C655F6366675F73657428296D
:10A000002072657475726E656420257320776865AB
:10A010006E20617474656D7074696E6720746F2052
:10A0200073657420424C455F47415454535F434627
:10A03000475F415454525F5441425F53495A452E41
:10A040000000000073645F626C655F6366675F7346
:10A05000657428292072657475726E656420257395
:10A06000207768656E20617474656D7074696E67C1
:10A0700020746F2073657420424C455F434F4E4EF1
:10A080005F4346475F4741502E00000073645F62A4
:10A090006C655F6366675F736574282920726574F9
:10A0A00075726E6564202573207768656E20617413
:10A0B00074656D7074696E6720746F2073657420A9
:10A0C000424C455F4741505F4346475F524F4C45C6
:10A0D0005F434F554E542E0073645F626C655F633F
:10A0E00066675F73657428292072657475726E6582
:10A0F00064202573207768656E20617474656D70C7
:10A1000074696E6720746F2073657420424C455FDC
:10A11000434F4E4E5F4346475F474154542E000025
:10A12000626C655F6761747400000000636C6F634C
:10A130006B0000006770696F746500007561727470
:10A140000000000062616C6C6F6300007077725FEA
:10A150006D676D74000000007070690061707000C0
:10A160006E72665F736468006E72665F7364685FC8
:10A17000626C65006E72665F7364685F736F630024
:10A1800080A20200702700208C0100000C36020023
:10A19000C0A20200FC2800202C3B00005C41020011
:10A1A00020A10200000003002CA10200000000001A
:10A1B00034A10200000000003CA1020000000000E9
:10A1C00044A10200000000004CA1020000000000B9
:10A1D00058A10200000000005CA102000000030082
:10A1E00060A102000000030068A10200000003005B
:10A1F00074A10200000003001557020000000000D7
:10A200007D6B0200382E0020FB4E02004C2E0020F9
:10A21000A9550200000000001956020000000000CD
:10A22000855802001C2E00206D520200E4430020DD
:10A23000615402000000000055740200000000009C
:10A24000458C0200000000008D7402000000000038
:10A25000634F02004C2E0020C1530200000000009A
:10A26000597F0200000000009D80020000000000F5
:10A2700061870200000000006D7402000000000011
:10A28000210484FFFF141220021840041D64990267
:10A2900014489F0214E89E021A40081AF008111987
:10A2A000081AF8081A08081A10041A18041A2004C0
:10A2B0001A28041A30041A3804D1048490D00300F8
:0400000500023201C2
:00000001FF
