:020000040001F9
:10800000A03800204D8501005585010057850100ED
:10801000598501005B8501005D85010000000000BD
:108020000000000000000000000000005F8501006B
:108030006185010000000000638501006585010085
:10804000E188010067850100318C0100678501002E
:1080500067850100000000000987010067850100B5
:10806000678501006785010067850100678501005C
:10807000678501006785010067850100678501004C
:108080006785010039890100678501006785010066
:108090005D89010067850100618901006785010034
:1080A00067850100678501000000000000000000F6
:1080B00067850100678501000000000000000000E6
:1080C00000000000000000000000000000000000B0
:1080D00000000000000000000000000000000000A0
:1080E0000000000000000000000000000000000090
:1080F0000000000000000000000000000000000080
:10810000000000000000000000000000000000006F
:10811000000000000000000000000000000000005F
:10812000000000000000000000000000000000004F
:10813000000000000000000000000000000000003F
:10814000000000000000000000000000000000002F
:10815000000000000000000000000000000000001F
:10816000000000000000000000000000000000000F
:1081700000000000000000000000000000000000FF
:1081800000000000000000000000000000000000EF
:1081900000000000000000000000000000000000DF
:1081A00000000000000000000000000000000000CF
:1081B00000000000000000000000000000000000BF
:1081C00000000000000000000000000000000000AF
:1081D000000000000000000000000000000000009F
:1081E000000000000000000000000000000000008F
:1081F000000000000000000000000000000000007F
:10820000DFF80CD000F042FA004800472DC2010010
:10821000A038002030B4044654E8000F0D4644E86E
:108220000053002BF8D1156030BC704730B40446C1
:1082300054E8000F40EA010544E80053002BF7D151
:10824000156030BC704730B4044654E8000F00EAB3
:10825000010544E80053002BF7D1156030BC70478E
:1082600030B4044654E8000F80EA010544E80053A6
:10827000002BF7D1156030BC704730B4044654E889
:10828000000F00EB010544E80053002BF7D1156007
:1082900030BC704730B4044654E8000FA0EB010531
:1082A00044E80053002BF7D1156030BC7047000044
:1082B00030B450E8012F93B2C48923448489A34287
:1082C00028BF1B1B0489A34202BFBFF32F8F0020CE
:1082D00007E0C3EA020340E80134002CE9D14FF083
:1082E00001000A6030BC704750E8012FC2EA024228
:1082F00040E801210029F7D1704730B450E8022F3F
:108300001FFAA2F3C488A34202BFBFF32F8F00203D
:108310000DE0C48923448489A34228BF1B1BC2EA01
:10832000034340E80234002CE8D14FF001000A601A
:1083300030BC704750E8022FC2EA224240E80221D6
:108340000029F7D17047034653E8022FD988B2EBD2
:10835000324F4FF0000017BF92B241EA014142EAAA
:10836000014104E05A68B2EB324F08BF012043E8F4
:108370000212002AE8D1704730B4044654E8000FD6
:108380000D4644E80053002BF8D1156030BC70470F
:1083900030B4044654E8000F40EA010544E80053B5
:1083A000002BF7D1156030BC704730B4044654E858
:1083B000000F00EA010544E80053002BF7D11560D7
:1083C00030BC704730B4044654E8000F80EA010521
:1083D00044E80053002BF7D1156030BC704730B42F
:1083E000044654E8000F00EB010544E80053002B5D
:1083F000F7D1156030BC704730B4044654E8000F24
:10840000A0EB010544E80053002BF7D1156030BC08
:108410007047000030B4044654E8000F0D4644E8AD
:108420000053002BF8D1156030BC704730B40446BF
:1084300054E8000F40EA010544E80053002BF7D14F
:10844000156030BC704730B4044654E8000F00EAB1
:10845000010544E80053002BF7D1156030BC70478C
:1084600030B4044654E8000F80EA010544E80053A4
:10847000002BF7D1156030BC704730B4044654E887
:10848000000F00EB010544E80053002BF7D1156005
:1084900030BC704730B4044654E8000FA0EB01052F
:1084A00044E80053002BF7D1156030BC7047000042
:1084B00030B4044654E8000F0D4644E80053002B46
:1084C000F8D1156030BC704730B4044654E8000F52
:1084D00040EA010544E80053002BF7D1156030BC99
:1084E000704730B4044654E8000F00EA010544E840
:1084F0000053002BF7D1156030BC704730B40446F0
:1085000054E8000F80EA010544E80053002BF7D13E
:10851000156030BC704730B4044654E8000F00EBDF
:10852000010544E80053002BF7D1156030BC7047BB
:1085300030B4044654E8000FA0EB010544E80053B2
:10854000002BF7D1156030BC70470000064880470B
:1085500006480047FEE7FEE7FEE7FEE7FEE7FEE728
:10856000FEE7FEE7FEE7FEE7658901000182010004
:108570002DE9F05F0546002092469B468846064658
:10858000814640241BE0284641464746224600F0EB
:108590006CF853465A46C01A914110D311461846FA
:1085A000224600F053F82D1A67EB01084F46224689
:1085B0000120002100F04AF817EB00094E41201E6F
:1085C000A4F10104DFDC484631462A464346BDE8B3
:1085D000F09F000000487047DC11020040EA0103F0
:1085E0009B0703D009E008C9121F08C0042AFAD269
:1085F00003E011F8013B00F8013B521EF9D270472D
:10860000D2B201E000F8012B491EFBD270470022D4
:10861000F6E710B513460A4604461946FFF7F0FF81
:10862000204610BD421C10F8011B0029FBD1801A06
:10863000704730B504460020034600E05B1C9342BF
:1086400003D2E05CCD5C401BF8D030BD202A04DBB7
:10865000203A00FA02F1002070479140C2F1200355
:1086600020FA03F3194390407047202A04DB203A94
:1086700021FA02F00021704721FA02F3D040C2F142
:10868000200291400843194670470000064C074DF0
:1086900006E0E06840F0010394E8070098471034D2
:1086A000AC42F6D3FFF7B0FDBC170200DC170200A6
:1086B00070B58C1810F8015B15F0070301D110F8A4
:1086C000013B2A1106D110F8012B03E010F8016BD1
:1086D00001F8016B5B1EF9D12B0705D40023521E54
:1086E0000DD401F8013BFAE710F8013BCB1A921CBC
:1086F00003E013F8015B01F8015B521EF9D5A142BA
:10870000D8D3002070BD00002DE9F04700268CB0C2
:10871000DFF86091B0464FF4807501243746069625
:10872000284604F0F1FD38B1D9F80403204203D003
:10873000284604F0DFFD26432D1D64007F1CADB2EA
:10874000082FEDD34FF4BE74204604F0DDFD48B190
:10875000204604F0CFFD46F0004606AA0121002085
:1087600004F0B4FD444D16F0FF0F15D0012700248E
:1087700037420DD009EB8401D1F81005D1F810155E
:10878000C0F3042055F82420C1F3014102B1904701
:108790007F00641C082CEBD3002E67DA4FF0FF300B
:1087A000CDE9088000263446281910F8507F90F94A
:1087B000000027F0C008401C44D009A9404603F03F
:1087C000D3FF58B34FEA9719404601F0E9FE55F838
:1087D00020701FB1B9F1030F03D00FE0B9F1030FFF
:1087E00030D108A84FEAD80208F00703815C4FF0A7
:1087F000010C0CFA03FC41EA0C0181544FF0A0413A
:1088000001EB8800D0F8000706A9C0F3014A4046F2
:1088100003F0AAFF18B1BAF1020F03D012E0BAF1C7
:10882000030F0FD1B9F1030F08D1BAF1020F1BD01A
:108830000221404604F02EFD761CF6B217B14946DF
:108840004046B847641C042CAED3002E0ED06A46B6
:108850000121002004F03AFD06990098884205D0D5
:108860000690089809909DE70321E2E70CB0BDE867
:10887000F0870000006000403028002000F01F0258
:10888000012191404009800000F1E020C0F88012F1
:10889000704700F01F02012191404009800000F163
:1088A000E020C0F80011704700F01F020121914044
:1088B0004009800000F1E020C0F80012704749072D
:1088C000090E002806DA00F00F0000F1E02080F821
:1088D000141D704700F1E02080F80014704700007C
:1088E0002DE9F0414FF48077384603F0D1FF0124A1
:1088F000104EA50748B1384603F0D1FF0120C5F856
:1089000008037470002001F091FE4FF4827738461E
:1089100003F0BEFF00280BD0384603F0C0FF022052
:10892000C5F80803B470BDE8F041012001F07EBE37
:10893000BDE8F0811C28002007480021C0F8401144
:10894000C0F84411C0F84811C0F84C11C0F800112B
:10895000C0F8041107F0E0BD0010014007F02ABD87
:1089600005F0ACB9F0B5A1480127031D01783A071D
:10897000181D06290BD11C78240708D10478C4F3EC
:108980000314032C06D0042C04D0052C02D0062995
:1089900007D011E0B2F82443954DC4F304242C60B1
:1089A00002E01C78240707D10478C4F30314032CD5
:1089B00002D1914D8F4C6C67D2F844428F4DC4F375
:1089C00042342C6006290CD11C78240709D1047884
:1089D000C4F30314032C04D1894C256825F0807559
:1089E00025604FF080440025C4F80C51C4F81051A4
:1089F000824C241F2560062907D11C78240704D146
:108A00000478C4F30314032C02D0062908D01FE015
:108A1000DFF8E8C103240CF1640CCCF8004007E057
:108A20001C78240714D10478C4F30314032C0FD149
:108A3000DFF8D0C10524CCF80040724C78342760B0
:108A4000704C083425600CF1040C3F24CCF8004035
:108A50006D4C2468DFF8B4C1CCF800406A4C241D8A
:108A600024680CF1040CCCF80040674C08342468EE
:108A70000CF1040CCCF80040634C0C3424680CF16D
:108A8000040CCCF80040604C103424680CF1040C49
:108A9000CCF800405C4C143424680CF1040CCCF885
:108AA0000040594C18342468DFF860C10CF1200CE8
:108AB000CCF80040544C1C3424680CF1040CCCF865
:108AC0000040514C203424680CF1040CCCF80040D8
:108AD0004D4C243424680CF1040CCCF800404A4C72
:108AE000283424680CF1040CCCF80040464C2C349B
:108AF00024680CF1040CCCF80040434C303424685A
:108B0000DFF808C10CF1400CCCF800403E4C343486
:108B100024680CF1040CCCF800403B4C3834246839
:108B20000CF1040CCCF80040374C3C3424680CF1B8
:108B3000040CCCF80040344C403424680CF1040C94
:108B4000CCF80040DFF8C8C0FB24CCF80040062970
:108B500013D11C78240710D10478C4F30314032C18
:108B600003D0042C01D0052C07D1D2F85842DFF8ED
:108B7000A4C004F04F04CCF8004027480168C9079E
:108B800002D06FF0010101604FF01021D1F8000216
:108B9000002803DBD1F80402002822DA1F4A1760FC
:108BA0001F480368002BFCD01523C1F8003204686D
:108BB000002CFCD0C1F8043201680029FCD01560FB
:108BC00001680029FCD0BFF34F8F0D48F0380168D1
:108BD000144A01F4E06111430160BFF34F8F00BFFD
:108BE000FDE7124910480860F0BD0000E00F00F0FA
:108BF000403501400DF0ADBA00C007403C050040D3
:108C0000FCED00E0105600400404001020C50040B8
:108C100018F50040E40E00400004004004E5014067
:108C200000E401400400FA050090D003A41F0020D6
:108C30000149024807F0D8BC8828002000200040E5
:108C400002E008C8121F08C1002AFAD17047704715
:108C5000002001E001C1121F002AFBD17047000073
:108C60000121202803DA81400548014003E0402823
:108C700002DA2038814009B1012070470020704796
:108C8000FC06FFBD082806D228B1012803D004281D
:108C900001D0012070470020704710B560B159B174
:108CA00002780B785208B2EB530F05D10622401C14
:108CB000491CFFF7BEFC08B1002010BD012010BD0B
:108CC000800701D00020704701207047C3688B42A5
:108CD00006D811440069491E814201D8012070471D
:108CE0000020704710B501220221002001F07AFA1D
:108CF00008B1072810D107220221012001F072FAE1
:108D000008B1072808D100210A22084601F06AFAB2
:108D100008B1072800D1002010BD000010B550B1E7
:108D20000A480321008801EB004009A104F0C0FCBF
:108D300006F080FA03E00321094800F037FC002820
:108D400003D0BDE8104000F0C5B810BD04200020DD
:108D5000457261736520626F6E64732100000000CC
:108D60005C20002070B58CB015460E4600236C4682
:108D7000C3F10F01415CE1545B1C102BF8D30D21B2
:108D800004F11000FFF743FC0020C0F10F02315C3A
:108D90002244401C11740328F7D3684643DF0020A7
:108DA000C0F10F01214491F820102954401C0328E0
:108DB000F6D30CB070BD022001F0B6B801490979B4
:108DC00000F056BDC01E002070B50024064D06E020
:108DD0006868012110F8340003F006FE641C28784E
:108DE0008442F5D3002070BDE01E0020F8B5154682
:108DF0000C460646052A01D20720F8BD03F0DAFE2C
:108E000018B903F0A9FE0028F7D1104900204E60E0
:108E10000C70C1E902500E4D08610DE006EBC40074
:108E20006968009181788DF801100078094A6946D7
:108E300003F02CFE0028E0D1641EE4B2EED2BDE8BF
:108E4000F840054A0021024800F050B8E01E00201A
:108E5000100F020009B6010031A9010004F0E0FC86
:108E600004F02EFB0028FBD1104C0121208801EBDF
:108E700000400FA104F01CFC10480068C00700D09F
:108E800000BE2088022101EB00400DA104F010FC7F
:108E9000BFF34F8F0948E43801680D4A01F4E061DF
:108EA00011430160BFF34F8F00BFFDE70420002096
:108EB000466174616C206572726F7200F0ED00E0C3
:108EC00053797374656D20726573657400000000DA
:108ED0000400FA050EB500210091CDE901106A46A3
:108EE00044F20100FFF7BAFF0EBD0000074B9B786C
:108EF00023B12AB120B10068037C1BB10820704760
:108F0000072070474174426100207047C428002048
:108F100070B506F077FC104800240B2104704470F3
:108F20000E4D817014206C602C706C70FFF7A6FCE5
:108F300007211420FFF7C3FC1420FFF7AAFC084800
:108F4000046007211120FFF7BAFC0548001F0068E4
:108F5000A860002070BD0000C4280020F41E00207E
:108F6000081501402DE9FC47DFF8789099F80230A8
:108F700073B368B3052902D20720BDE8FC874369B3
:108F800033B3437C012B25D00027044600258846B7
:108F900016468DF80050684600F038F801A807F032
:108FA0004FFCC8B1012101700F4944600968C0E954
:108FB0000218C0E904769DF8040089F801009DF8C4
:108FC000000000F047F81420FFF76EFC2846D4E7B5
:108FD0000820D2E70F46D8E704259DF8000000F0EE
:108FE00039F8F3E7C42800200415014006498978C0
:108FF00039B130B1416921B100210174022107F07A
:1090000067BA082070470000C428002030B5EFF38D
:10901000108172B60D4A9468012324B103700029AF
:1090200000D162B630BD93604FF0E023D3F8805199
:10903000074C25401560C3F88041D3F88441546043
:109040005A17C3F8842100220270E8E7D0290020D3
:10905000FC06FFBD0B498A68002A11D000280FD1F9
:10906000EFF3108072B60B684FF0E022C2F80031C7
:109070004B68C2F8043100228A60002800D162B631
:1090800070470000D02900202DE9F041064608680D
:109090000C46411C4FF0A0474FF0010506D005FAE1
:1090A00000F1C7F80815206804F0D9F86068411C81
:1090B00002D0002104F0CAF83168A069C1F8240583
:1090C000607D217D32680843C2F86C05D4E9001246
:1090D0003068C0F80C15C0F81425207D012815D182
:1090E000A068411C02D0002104F0B0F8E068411CE7
:1090F00005D08540C7F80855E06804F0B0F8D4E919
:1091000002123068C0F80825C0F81015BDE8F081DB
:109110002DE9F047074600888EB0804600F070FBCE
:109120000646404602F0EEFC824604462E480025E4
:109130002A460178404600F0B1FB002E50D07879E5
:10914000400734D501254FF6FF7603AB2A460721A9
:10915000504605F023FA010004D0404606F0B2FD67
:1091600000252BE0B1463146049802F01FFC06466C
:1091700048450FD004460146404602F0ADFC40464B
:10918000FFF71CFE30B9404606F06EFD4046FFF783
:1091900015FE48B122460721504605F095FA010018
:1091A00003D0404606F08EFD00254E4506D04046D1
:1091B00005F0F8FB10B1504602F090FC02208DF84B
:1091C0001800ADF81A807879400701D5012000E039
:1091D00002208DF820008DF8215006A801F088FDAE
:1091E0000EB0BDE8F0870000C01E00202DE9FC474E
:1091F000002517880646158090F82D0014468946EC
:1092000030B13A462146484600F0EAFB050009D154
:10921000B0784FF00C0A18B32088C846001DB84239
:1092200002D95046BDE8FC87684679DF0028F9D1AD
:109230002088032108F8001020881921401C80B2E2
:10924000208008F800102088401C80B2208000EBAD
:109250000801BDF8000007F043FA21880844208087
:10926000F0780222C8B1218896F9033001F1030C8D
:109270004846BC45D5D8425421884FF0010C491CC2
:1092800089B2218000F801C02188491C89B221805F
:1092900009F801302088401C20807068B8B121880E
:1092A00090F9003001F1030C4846BC45B9D842544E
:1092B00021880A22491C89B2218042542188491CF4
:1092C00089B2218009F801302088401C2080308933
:1092D00050B1CDE900474B460622022106F10800B5
:1092E00007F0C6FA05009DD1308A50B1CDE900479C
:1092F0004B460722032106F1100007F0B9FA0500DA
:1093000090D1308B50B1CDE900474B461522142146
:1093100006F1180007F0ACFA050083D1306A30B1CD
:109320003B462246494601F0EBF90500DBD1706A65
:1093300030B13B462246494603F04CF80500D2D1F5
:1093400096F82C0038B13B4622464946304606F096
:1093500049FD0500C7D1307838B13B462246494621
:10936000304603F0BFF80500BDD128465AE7F0B5F6
:109370000C4693B01F210726ADF80010ADF804107D
:10938000002750B1C17849070DD56A4602A9FFF7F9
:109390002DFF002808D102AD02E00025ADF80070D5
:1093A0006CB1E07810B1304613B0F0BD01AA0AA943
:1093B0002046FFF71BFF0028F6D10AAA02E0002290
:1093C000ADF80470BDF80400C3B2BDF80000C1B22E
:1093D000284672DFE8E780F82410704770B50D006A
:1093E000044653D0F4B3012020700026E6702022FA
:1093F00005F17801201DFFF7F1F884F82460D5F815
:109400009800C4F8CC00D5F89C00C4F8D0004FF602
:10941000FF70A4F8C800C4F82560A4F8296084F897
:109420002B6004F130003C210646FFF7F0F8287865
:1094300084F83000A87884F83200E87884F83300A3
:10944000687884F83100D5E90401C4E91001D5E950
:109450000201C4E90E01D5E90601C4E9120195F83B
:109460002D0000E012E084F85D00686AD8B104F1D4
:10947000780104F16C0061676065696A09880180A0
:10948000686A616D80888880002008E00E2070BDC9
:10949000696A22188968095C82F87810401C616D3D
:1094A00089888142F4D8A86AE8B104F1A400C4F81C
:1094B000A0000C38A065A96A89888180A86AA16D7E
:1094C00000880880002006E0A96A22188968095CE3
:1094D00082F8A410401CA16D89888142F4D895F8C7
:1094E0002C0084F85C00286A48B104F1C4002065AF
:1094F000296A49884180286A216D00880880686847
:1095000000B1606305F13C013046BDE87040FFF7F3
:109510002EBF10B50288102A1AD0112A1FD01B2A7C
:109520001CD1007A0C46002818D1E0780521401C97
:10953000B0FBF1F201FB1201204600F037F80028E1
:109540000CD0D4F8D010002908D0BDE8104008474E
:10955000C27B012A02D18088A1F8C80010BD0C4648
:10956000002184F8D4108088B4F8C8108842F5D15E
:1095700020790028F2D10121DEE710B50C4602283F
:1095800001D0032811D1607800280ED0002060702F
:10959000E178204600F00AF8002806D0D4F8D01070
:1095A000002902D0BDE81040084710BD2DE9FF4753
:1095B000044600780F4638B1E770002003F03EFD06
:1095C000012628B16670D2E0082004B0BDE8F0871B
:1095D0000025C4F82550A4F8295084F82B50A07910
:1095E00010B1E078012806D0E07970B1E078012868
:1095F00001D0022809D1D4F8CC1021B184F82C6014
:109600000820884701E084F82C5004F1260100204E
:109610000A5C0AB1304603E0401C0628F8D300205B
:109620004FF002084FF0030A4FF00409012F06D053
:10963000022F09D0032F0CD0042F12D10DE0A179F5
:1096400011B108B130460DE0E17911B108B14046E1
:1096500008E0207A08B1504604E0607A08B1484634
:1096600000E02846E070D4F8CC1041B1032801D0C6
:10967000042804D1607910B194F8D400A8B184F81A
:10968000D55000950295019503958DF800508DF801
:109690000850E17804F1250004F13002052958D280
:1096A000DFE801F0670A131F3B0084F8D65084F806
:1096B000D56007208847E4E7A67001908DF8006028
:1096C000ADF80C50ADF80A5043E084F802800190E8
:1096D0008DF80060208AADF80C00A089ADF80A0072
:1096E00037E0A08AADF80A00208BADF80C00607955
:1096F00080B194F8D40068B994F8D60050B18DF8D0
:10970000088084F8339000211046FFF730FE00BB3C
:1097100005211AE084F802A01BE0A08BADF80A0036
:10972000208CADF80C00607988B194F8D40070B941
:1097300094F8D60058B18DF8088084F83390002151
:109740001046FFF714FE20B90621A17001E084F84D
:109750000290E07830B194F82410684673DF002856
:109760007FF433AFD4F8CC1009B1A078884700203B
:109770002BE7A570F6E7000070B5040012D0014693
:109780001C221448FEF72AFF1248134D056020687A
:1097900050B17ADF002806D120680168296040684E
:1097A000686005E00E2070BD0B487BDF0028FAD111
:1097B00008484FF6FF711438084A20F8041B054981
:1097C000343901600021FFF791FB0028EBD0032022
:1097D00070BD0000D42100206C1E0020C1070200D3
:1097E00002494A6C091D06F0FFB80000F021002074
:1097F00002460248016D001D06F0E3B8F02100208A
:1098000070B5084E054600242A46301D716C06F0DE
:10981000D8F828B12A46301DF16C06F0D2F80124A0
:10982000204670BDF021002010B50024204606F02F
:10983000FBFF28B1641CE4B2182CF7D3182010BD2C
:1098400003480122A240016811430160204610BD77
:10985000F021002010B5044606F0E6FF002803D0F2
:10986000024800EB8400806D10BD0000F021002054
:1098700070B505460C46084606F0D6FF002809D00C
:1098800005482A4600EB8401001D896DBDE8704043
:1098900006F097B870BD0000F021002070B50646B4
:1098A00015460C46084606F0BFFF00280AD00648B9
:1098B0002B4600EB84013246BDE87040001D583154
:1098C00006F0B7B870BD0000F021002070B540B1BF
:1098D0000C4D297839B1044605F06EFF28B10020FF
:1098E00070BD0E2070BD082070BDE868062807D244
:1098F0000549226801EB8001401C0A60E860EEE740
:10990000042070BD741E0020A822002040B105492B
:1099100000220123CA600B70C1E9010210467047A2
:109920000E207047741E002070B504002DD0002951
:109930002BD020480078002827D020880D461128F9
:1099400015D0302804D0322807D033281ED109E0A2
:10995000211D284604F0CEFB18E0211D284604F006
:1099600071FA13E0211D284604F0F6FA0EE0A088F3
:10997000B5F8CA12884209D1002085F8C70285F8D7
:10998000C8024FF6FF70A5F8CA0270BD95F8C8026C
:109990000028FAD020883028F7D34F28F5D8A0889F
:1099A000B5F8CA128842F0D12846BDE8704001F0EF
:1099B00055B80000741E002048B1084A137843B11E
:1099C000D26832B190F8C7222AB1112070470E2018
:1099D00070470820704701F041B80000741E002055
:1099E0007CB5054608880C460930904201D90C2008
:1099F0007CBD68466DDF0028FAD1218808206854B4
:109A000020881B21401C80B2208029542088401CC3
:109A100080B220802844DDF801100160BDF80510F7
:109A200081802088801D80B220809DF80010490828
:109A300000D0012129542088401C208000207CBDBA
:109A400010B5028888B00446212A2FD010DC012AE4
:109A50003AD030480321102A008801EB004011D091
:109A6000112A2BD108B02CA1BDE8104003F020BE74
:109A70003B2A25D0512A2BD0562A1FD1808813216A
:109A800076DF0CE028A103F013FE072000F0CCFBEA
:109A900008B1FFF71FFAA1882648FFF78DFF0028BD
:109AA0000CD008B0BDE81040FFF714BA00200090B9
:109AB000A08869468FDF28E0FFF70CFA08B010BDD8
:109AC0008088132176DFEAE78088002166DFE6E7F9
:109AD0001022A11D04A8FEF781FD9DF81010002999
:109AE000ECD09DF81800042803D0062801D00528E2
:109AF000E4D102290CD001208DF800004FF4C17090
:109B0000ADF80400A0886946A8DF0028D4D1D5E7C5
:109B10000220F1E704200020446973636F6E6E65D4
:109B2000637465642E000000436F6E6E6563746538
:109B3000642E0000881B002010B51A4C0188606854
:109B400010290ED011292BD1401E606028D1FFF7BB
:109B5000C9F8002824D02168002921D0BDE8104090
:109B60000847D0B900210122084600F03BFB08B1AC
:109B700007280FD107220221012000F033FB08B192
:109B8000072807D104220221002000F02BFB20B17E
:109B9000072802D0216801B188476068401C6060D6
:109BA00010BD0000641E00202DE9F04701883B4EE7
:109BB00040F2F3194FF6FF7510291BD011293ED042
:109BC000122954D0502946D1C188F289841D91426E
:109BD00041D1618902293ED18688304602F040F8A1
:109BE000050038D004F10C0000F083F9A8B3294631
:109BF00030464EE0C17B8788044601292BD1A84618
:109C0000284602F02DF8050017D02F80002028727A
:109C1000234843464A460168C5F80A104068C5F81B
:109C20000E0004F1100105F10A0002F07FF86872DD
:109C3000F08900280FD129462AE0042013E080880B
:109C400002F00EF8040006D06068FFF7CFF908B103
:109C500006F01CF82580BDE8F087FFE76868FFF78D
:109C6000C5F90028F7D0BDE8F04706F00FB887889F
:109C70000646384601F0F4FF0400ECD02B464A4675
:109C800006F1080104F10A0002F050F86072214662
:109C90003846BDE8F04700F079BD0000D42100202F
:109CA0006C1E00202DE9F047054603883948012243
:109CB000A4B000F1480A102B09D0112B48D01A2B60
:109CC00064D1297AB2EB111F47D2012346E0D0E9D3
:109CD00011218A430446011D12A805F085FE442285
:109CE00012A901A8FEF77AFCDFF8A89000263746F3
:109CF00009F144090DF104080AE000BF08EB460031
:109D00001D2283884946201D009705F01FFE761C02
:109D10000198B042F2D8606CAD88C04305F038FEBF
:109D2000A0F57F41FF390DD004EB40000123858071
:109D30002A465146201D05F07CFE01232A4649464D
:109D4000201D1EE024B00420BDE8F047FFF7C2B894
:109D50000023AA885146001D13E000230D49044644
:109D6000AA885031001D05F064FE287A0221B1EB6B
:109D7000101F01D2012300E000230649AA885431B4
:109D8000201D24B0BDE8F04705F053BE24B0BDE867
:109D9000F0870000F021002010B504460748007845
:109DA00000280AD0204601F087FD204606F074F80E
:109DB0002046BDE8104001F001BB10BDB01E0020E0
:109DC00018B10181C282002070470E207047C8B1CF
:109DD0000A68BAB1B1B104C0496842F6062202C0AD
:109DE0004FF6FF7120F8081B0021C180012100F807
:109DF000021920F8022900F8021941F60201018037
:109E0000FFF764BD0E207047C08A002800D00120F3
:109E100070471FB50088112811D14FF6FF700881D7
:109E20000C460846FFF7F0FF002808D002208DF806
:109E3000000022686946204690470020E0821FBD4E
:109E40007FB50024009401220194029403948DF8BC
:109E500000204A88ADF802200A7801F10E0312BBF7
:109E60008A88A2F5C055023D1DD18A79012A1AD1EE
:109E7000002215E002EBC20533F81560A6F60626AF
:109E8000B6F5005F0BD103EB45052E79760706D5B5
:109E90002E6801966E6802962D89ADF80C50521C02
:109EA0000D7A9542E6D8BDF80C1009B18DF8004046
:109EB0000268694690477FBD13B584B00446FFF73A
:109EC000A3FFA0B12089E48A00230122009305A901
:109ED0000193ADF802400224ADF8043002918DF8F0
:109EE0000040ADF8062069469CDF06B010BD052095
:109EF000FBE7007800F00100704700000149085CB2
:109F000070470000500D02000649095C4FF0A04068
:109F1000D0F81005C84010F0010000D0012080F0FA
:109F200001007047500D020007490B5C4FF0A04143
:109F3000D1F804250120984020EA0203C1F8083531
:109F40001040C1F80C0570474C0D02000249085C36
:109F5000012103F0B0B900004C0D02000249085C79
:109F6000002103F0A8B900004C0D02000649095C6D
:109F70004FF0A040D0F80405C84010F0010000D018
:109F8000012080F0010070474C0D02007CB50024D8
:109F9000084E25460122305D0095002311460195AB
:109FA00003F015F9641C042CF4D3BDE87C4000F0E8
:109FB00003B800004C0D020010B500242046FFF746
:109FC000C5FF641C042CF9D310BD10B50024204635
:109FD000FFF7C4FF641C042CF9D310BD10B5024672
:109FE000064B4FF0FF3000215C5C944201D10846E3
:109FF00010BD491C0429F7D310BD0000500D02000C
:10A0000070B50C4E0C004FF0000530600BD00120F5
:10A0100000F06AF808B1022004E0002000F064F8C3
:10A0200000B10B202070706810B9FEF75BFE05468A
:10A03000284670BD641E002010B5002000F026FAEE
:10A0400008B1062806D1012000F020FA08B1062840
:10A0500000D1002010BD00002DE9F0470D468146DB
:10A06000FFF7BCFF0446042836D2DFF874801B4893
:10A070001C4EA8F10C0725B3012D0ED0022D2BD1BB
:10A0800004EB440030444578002D25D0B968002900
:10A0900022D02846BDE8F047084704EB4401755C30
:10A0A0000E44717849B10E4A4FF40041093A806874
:10A0B000FEF758FF08B987F80390B17808F8041044
:10A0C000E2E78068FEF792FF04EB4401314418F8A0
:10A0D00004008D78A842D7D0BDE8F087540D020067
:10A0E000601E002074210020FFF70EBF2DE9F0470D
:10A0F000042821D00A281BD00E2852D12A4C2078BF
:10A1000000284ED06078294E4FF000084FF001092A
:10A110000327E8B102212648FFF7CEFE054684F862
:10A12000018084F80290308822A107EB00402AE0E9
:10A13000BDE8F04705F09CBE1D481321008976DF7D
:10A1400008282ED000282CD0BDE8F047FEF7C2BE6C
:10A15000A07868B100211648FFF7AEFE054684F8E6
:10A16000018084F80280308816A107EB00400AE0E5
:10A1700001210F48FFF7A0FE054684F801903088C2
:10A1800014A107EB004003F093FA002D09D0132D22
:10A1900007D043F20140854203D0052D01D0284667
:10A1A000D2E7BDE8F0870000801B002004200020DB
:10A1B000342000204869676820416C657274207300
:10A1C00065742E004E6F20416C6572742073657447
:10A1D0002E0000004D696C6420416C657274207320
:10A1E00065742E0070B50023042810D20D4D00EBCD
:10A1F0004004012A02D101290CD00022094E00EBB3
:10A200004000304461B1012906D0022906D007235D
:10A21000184670BD0E30C2B22A55F9E74270F7E712
:10A220008270F5E774210020044A0146002012796B
:10A23000D20702D0084600F04DB87047541E0020E7
:10A2400070B506461E480024C0E90161B00720D55C
:10A250000025012211462846FFF7C4FF6D1C044665
:10A26000042D02D2002CF4D013E094B940F26662BF
:10A2700004211448FEF7BAFD04000AD1FEF7A4FD3C
:10A28000040006D10F48104A0021001FFEF72EFEE1
:10A290000446F00701D0FFF779FE74B909480B4A6C
:10A2A00000210C38FEF722FE040006D10548084ABA
:10A2B00001210838FEF71AFE0446204670BD000052
:10A2C000541E0020600D020035A501000DBE0100E6
:10A2D000B78D01002DE9F05F6A4C054600266078D5
:10A2E000B34618B184F801B001F078FD664F4FF421
:10A2F0007A694FF4C87A4FF00108182D62D2DFE86E
:10A3000005F0AC0C0C31404D62676B746B74BE7D14
:10A310007D7D7D7DACAFB2B5BEBE0020FFF726FED1
:10A3200000284FF0000008D0FFF710FE022D02D1E8
:10A330004FF4E16008E0484606E0FFF70FFE022D0B
:10A3400001D1C82000E05046410CC0034FF4FA721E
:10A35000801841F10001257052000023FEF708F932
:10A3600001462AE00020FFF701FE00284FF0000020
:10A3700004D0FFF7EBFD4FF44870E5E7FFF7EEFD83
:10A38000DFE70020FFF7F2FD00284FF0000002D0C9
:10A39000FFF7DCFDCFE7FFF7E1FDD4E70020FFF793
:10A3A000E5FD00284FF0000002D0FFF7CFFD01E0EF
:10A3B000FFF7D4FD257041F69A1100223868FEF7A8
:10A3C000D1FD064646E00020FFF7AEFD257008E00F
:10A3D000002051E025703DE084F801800120FFF766
:10A3E000A3FD002240F6CD41E8E784F8018001207A
:10A3F000FFF79AFD00224FF48041DFE77868FEF70F
:10A40000F5FD0646D5F1110000D02EB10220FFF770
:10A410009DFD84F802B01DE0012816D980B2C82144
:10A420004843C117C90341EA5041C0034FF4FA72CF
:10A43000801841F1000152000023FEF799F801460F
:10A4400000227868FEF78EFD06460220FFF786FDA3
:10A4500084F802803046BDE8F09F01F0BFFCB9E708
:10A4600001F0BCFCB4E701F0B9FC04E001F0B6FC7B
:10A470000020FFF773FD0120FFF770FDAAE7FFF74B
:10A48000A4FDA7E7541E0020540D020010B5FFF7ED
:10A4900035FD032102F0EDFE002010BDF8B5871C4C
:10A4A00000208DF800000E4601256846FEF7AEFD3F
:10A4B000124C20683060D4E90001401AA168091AE2
:10A4C000BE1C06E001F068FED4E90001401AA16854
:10A4D000091A491C8E42F5D8A1682068084004EB8F
:10A4E0008000C16841F00301C160206838442060E9
:10A4F0009DF80000FEF7AEFD2846F8BD7C2C00203C
:10A5000030B482680468531C8360A154D0E90112FE
:10A510008A4202D330BC02F068BC30BC70470000F5
:10A52000034803C8814201D10120704700207047D1
:10A530007C2C002000780221FFF78EBD05494FF0EA
:10A54000FF32082841F8202002D3084480F8482030
:10A550007047000030280020F0B54FF0FF3512B1F1
:10A560000023082601E008230C260C4C05E000BF60
:10A5700054F823707F1C04D05B1CB342F8D32846E8
:10A58000F0BD26185DB286F8305044F82310002A3A
:10A59000F5D1E11881F84800F1E7000030280020EB
:10A5A0000249084490F9300070470000302800202C
:10A5B00008B5024690F8C6020B4600EB8001C1EBDD
:10A5C000801002EB400092F8C52242B1521ED2B276
:10A5D00002EBC20100EB4102518A491C00E0C18834
:10A5E000ADF800100089ADF802006946184696DF04
:10A5F00008BD70B504464FF6FF750A462846AC42C2
:10A6000008D14FF480742146104604F0DDFCA042CE
:10A6100009D070BDFF2CFCD82146104604F0C7FCC1
:10A6200008B1204670BD284670BD000070B5084CCA
:10A63000050009D010342168002907D0086820607F
:10A64000496828468847F6E70834F4E770BD0000FB
:10A650001C2800202DE9F05F26484168F1B3DFF89F
:10A6600098B00E688146DBF8004087688078E11B6F
:10A6700021F07F45ED1CB0B9DFF880804FF48030C9
:10A68000C8F84403C8F804031120FEF7F7F81120B6
:10A69000FEF7FFF84FF0010AC8F800A02F2002F0E3
:10A6A00007F989F802A0B54200D23546124BE819E5
:10A6B0003C3320F07F401860DBF800105A46091B3D
:10A6C00021F07F41001B20F07F40C91C81420FD93F
:10A6D000106818602F2002F0EBF800E004E0BDE8FD
:10A6E000F05F1120FEF7E0B8BDE8F05F05F08AB832
:10A6F000BDE8F09FF41E0020041501400010014049
:10A700002DE9F04117880646B81D14460D469842BB
:10A7100002D90C20BDE8F0813188072206290AD32E
:10A720004FF4486C4FF6FF73614501D9994202D14D
:10A730007088062801D21046ECE7604501D998429E
:10A74000F9D1994203D0984201D08142F3D8052033
:10A75000E85520881221401C80B22080295420888E
:10A76000401C80B220804119308805F0B9FF218853
:10A77000084480B220804119708805F0B1FF21881B
:10A78000084420800020C5E7FEF7A4BB38B54A7A0C
:10A790000F4B62B100220A725969002906D00122CA
:10A7A0008DF80020ADF802006846884738BD0A7A67
:10A7B00062B19B684C68024619462046FEF7D2FB00
:10A7C0000028F3D0BDE8384005F060BA5B68F1E7D7
:10A7D000D4210020F0B585B016460F4604461D462C
:10A7E00014220B496846FDF7F9FE0A488DF80870F7
:10A7F000ADF80240ADF80A608DF80C5001780022E7
:10A800002046FFF74BF8684600F072FA05B0F0BD3D
:10A81000E00E0200C01E002001460148FFF710BBF9
:10A82000342000207FB50C4610B1012004B070BD6B
:10A830002079002638B141F61D5501281BD0022889
:10A8400026D00F20F2E70220207102960396E068DE
:10A850000190694601A804F015FF50B10298818863
:10A86000E18000882081BDF80010029804F088FF84
:10A87000DCE70A20DAE70A4B6A460021A01D04F053
:10A88000BDFE38B1064918398E61CE610A28CDD196
:10A890002846CBE702488188019804F071FFF5E76C
:10A8A000201F00202DE9F843054690F8C6020F4608
:10A8B00000EB8001C1EB801005EB400695F8C54226
:10A8C000914604EBC40006EB40013279601C0A316A
:10A8D000904226D16B460022284601F049FA18B36F
:10A8E00010E0401EA04201D1002004E004EBC400AF
:10A8F00006EB40001C30804602466B46284601F0BD
:10A9000037FA30B1002038706946484697DFBDE815
:10A91000F88395F8C5024146401C641C85F8C502C1
:10A92000E4B23079A042DCD8012038700020EEE794
:10A930002DE9F04100260125144C22E060682269CF
:10A9400000EBC607387805FA00F1114217D08A43A8
:10A95000226102F0F7F802463878E36805FA00F160
:10A96000194002FA00F3994209D17978012901D0FE
:10A97000012100E0002151407A6802B19047761C25
:10A98000F6B220788642D9D3BDE8F081E01E0020DF
:10A990002DE9F047894690F8C612904601EB8102F6
:10A9A000C2EB811100EB4107384604F005FF0600B9
:10A9B0002FD0194CA06806282BD2184D762205EB13
:10A9C000C0103946A0F80280001DFDF707FE0027E1
:10A9D000B9F1000F04D0A06805EBC010077004E0C7
:10A9E000A168022005EBC1110870A06805EBC01139
:10A9F000401CCE67A060E16888420AD1002604E0CE
:10AA000005EBC610C16F8847761CE0688642F7D315
:10AA1000A760BDE8F0870000741E0020C02200205F
:10AA200070B50E4690F8C612154601EB8102C2EBD6
:10AA30008111A0B000EB410004F0BEFE040009D07B
:10AA40007C2205496846FDF7C9FDADF8025068460D
:10AA50000196A04720B070BD800D020070B50E4673
:10AA600004464FF43371FDF7D2FD11480025A4F8D8
:10AA7000CA62856084F8C9520E4884F8C65284F8C8
:10AA8000C5520068206022460121304694DF012132
:10AA9000112806D0002809D184F8C71284F8C852BA
:10AAA00003E084F8C71284F8C812002070BD0000CB
:10AAB000741E0020A82200200E4910B50A784C7898
:10AAC0000023A24212D0521CD2B20A70022A00D134
:10AAD0000B70084A0B780C3252F823200260886809
:10AAE000104420F07F408860012010BD03600020EA
:10AAF00010BD0000F41E002013460A460021FFF797
:10AB000069BE00002DE9F843104D0F4680461E46F1
:10AB100091466946286801F09CFD040014D01C2170
:10AB2000FDF775FD01202071C4F81490380BC4F8AE
:10AB30000080C4E902606946286801F0ABFD04F0BA
:10AB4000F9FC0020BDE8F8830420FBE7400F020079
:10AB500010B503780022072B06D2DFE803F00504C6
:10AB60000610202930000A7010BD01230B700389E4
:10AB70008B818388CB81C06888600A7410BD0222F3
:10AB80000A7002898A818288CA81C2688A60807D4F
:10AB9000062802D00020087410BD0120FBE7032224
:10ABA0000A70C2888A810289CA81C068886010BD23
:10ABB00004230B70C0888881CA818A6010BD05207B
:10ABC000087010BD70B5064D0646002455F82410D7
:10ABD00009B130468847641C042CF7D370BD0000CF
:10ABE000E829002030B50446006885B00D4680682D
:10ABF00000281CD014216846FDF709FD0195A068C6
:10AC00000490207910B101280DD104E001208DF8C5
:10AC10000000206904E002208DF80000E0680003D5
:10AC2000029060690390206881686846884705B093
:10AC300030BD70B586B015460C00064619D0112CF3
:10AC400017D0082C15D014216846FDF7E0FCADF8AC
:10AC50000260304600F056FFADF804000D2C0AD01B
:10AC6000862C1CD007208DF800000294684600F066
:10AC70004DF806B070BD03208DF8000025B128788E
:10AC8000C00701D0012000E002208DF8080000205C
:10AC90008DF80C0041F20110ADF80A00E6E706203D
:10ACA0008DF80000E2E7000010B50446408800F08F
:10ACB00029FFA080024801682046BDE810400847EF
:10ACC0008C1E00202DE9F04107460024064E074D5A
:10ACD00005E000BF56F8241038468847641CE87821
:10ACE0008442F7DBBDE8F081D0270020B01E0020B1
:10ACF00010B50446408800F005FFA08002480168B6
:10AD00002046BDE810400847B40E0200014909681A
:10AD100008470000080F020070B586B004461421F1
:10AD20006846FDF774FCA0890026A0F54040ADF808
:10AD3000040020782D4D062835D2DFE800F03403DA
:10AD400003032E4EA08900F0C9F9012130B9E08932
:10AD500043F6FE72A0F54040904224D8A07B8DF8C7
:10AD600008002078032810D05FF000008DF809005B
:10AD7000A0680390606850B109208DF800006068F9
:10AD80000490684603F0E8FC0DE00120EEE708209F
:10AD90008DF800008DF81010F3E7A08900F09EF9FF
:10ADA00008B1E08938B16878002802D06E7003F0ED
:10ADB00003FE06B070BD606838B10B208DF800004E
:10ADC0006E70AE7003F0F8FDDBE70A208DF800002E
:10ADD000BDF8040003F080FEF2E713208DF80000B8
:10ADE0004FF6FF70ADF80400CBE700009C1E00207A
:10ADF00038B504460E480078A8B1A4F57F40FF3866
:10AE00000FD0684604F0D0FA78B105210170012115
:10AE10000171C480684604F0D5FA04F07BFB002081
:10AE200038BD042038BD022038BD082038BD0000E0
:10AE3000281F00200C4808B5007888B1684604F047
:10AE4000B3FA78B106210170684604F0BBFA0748EE
:10AE5000017809B10121017304F05CFB002008BDF9
:10AE6000022008BD082008BD281F0020AC2A0020B1
:10AE7000F0B589B014216846FDF7C9FB2D4C207848
:10AE800018B16846FFF79EFE52E0201D012105AA79
:10AE9000FDF7CCF9C8BB4FF0102040694FF080514E
:10AEA0000969421C02D101EB410000012249002244
:10AEB0000861A0F54050C86020491F4802F0B5F86D
:10AEC000002820D11F481C238C221D49006801F056
:10AED000ADFB03F0F5F9050014D0022D12D00027C8
:10AEE0000126062D12D006A804F05EFA88B106707D
:10AEF0000C2D18D2DFE805F0170F170F17161716CD
:10AF0000171113110B2009B0F0BD11E02670676016
:10AF1000B7E70820F7E7077105E0032100E0022109
:10AF2000017100E0067106A804F04CFA04F0F2FA90
:10AF30000020E8E7281F0020A81F0020500F020073
:10AF4000F8290020180F020038B5040014D0694613
:10AF500004F098FBA0B1BDF8000000EB80010948A7
:10AF600000EB8100C16849B1A17A39B1C168491EBD
:10AF7000C1600020A07238BD052038BD062038BD54
:10AF80000A2038BD842A00201FB501A9684604F0B4
:10AF900035FB04B010BD07B513460A4669460020CC
:10AFA00004F02CFB0EBD07B513460A460021684687
:10AFB00004F024FB0EBD20B119B100680860002028
:10AFC00070470520704700007CB50D46040019D07D
:10AFD000C5B1694604F056FBB0B1BDF800000B499D
:10AFE00000EB800001EB8000012101AA0C306668B3
:10AFF000FDF743F92E6060680C3068600120A07294
:10B0000000207CBD05207CBD0A207CBD842A002058
:10B0100018B10323002205F071BD052070470223FB
:10B02000002205F06BBD12B1022305F067BD0520BB
:10B0300070470000094908B50A69042A0BD0084A7C
:10B04000096942F821000548012110306A46FDF7E0
:10B0500014F9002008BD0C2008BD0000081F0020C6
:10B06000E829002038B5044609480D46007858B153
:10B0700064B16946284605F03BFE002803D1BDF8BF
:10B0800000102180658038BD022038BD052038BD04
:10B09000281F002010B504460E48007898B1A4B1CE
:10B0A0002188022913D80C4A01EB810002EB8002AF
:10B0B00060885289C31C934209D805F00DFE002018
:10B0C0002080608010BD022010BD052010BD04202E
:10B0D00010BD0000281F0020842A002043F6FE71C6
:10B0E000A0F54040884201D80120704700207047F9
:10B0F00010B504460078182802D1FEF795FB2070A1
:10B1000010BD10B504460078182802D1FEF78CFB5C
:10B11000207010BD70B513460022064615468629DC
:10B1200002D0112902D002E0012200E001250D4CDD
:10B1300073B1A179FEF7B2FB2A4661793046FEF77A
:10B14000ADFB0022A1783046FEF7A8FB002203E009
:10B15000A178FEF7A3FB2A4661783046BDE870402F
:10B16000FEF79CBBC81E0020406804F033B9000005
:10B170000EB516A19DF8080020F00F00401C20F02D
:10B18000F00010308DF808000C2202A87CDF08B116
:10B19000FDF7A0FE4FF4107078DF08B1FDF79AFEBE
:10B1A00000204FF4C87100900190ADF80400ADF894
:10B1B00000104A00ADF80220ADF8061068467ADFAC
:10B1C000002801D0FDF786FE0EBD00004E6F7264B0
:10B1D00069635F416C6572740000000070B508B16E
:10B1E000012070BD194C0025207B08B1257301E0BA
:10B1F00000F0A0F82078082826D2DFE800F0250427
:10B20000080C10251420BDE8704000F021B8BDE8FE
:10B21000704000F07DB8BDE8704000F05FB8BDE858
:10B22000704000F03BB86088084900EB8000283986
:10B2300001EB80004068BDE8704003F021B8656014
:10B24000BDE8704003F02AB80F2070BDAC2A002082
:10B250001149F0B48A1C00200346A1F128050C18FE
:10B26000A67A4EB1A37200EB800405EB8404E66875
:10B2700016B9247C012C0AD0401C80B20228EED3DF
:10B280000B704B804B60F0BC41F61D507047108036
:10B29000F0BC00F03DB80000AC2A00200C4841880A
:10B2A00001EB8102A0F1280101EB8201CA6852B1D1
:10B2B00005210170074802218180016800230122D5
:10B2C000054801F08BBE042202704968F6E70000D1
:10B2D000AC2A0020301F0020A81F002038B50A49E2
:10B2E000084803240B684268898803EB810153886E
:10B2F0000470DB1C00201B0400909B0B034801F032
:10B3000033FF38BDAC2A0020301F0020A81F0020CA
:10B31000074910B54888091D04F004FA18B1BDE8C2
:10B320001040FFF7DBBFBDE81040FFF7B7BF0000DC
:10B33000AC2A0020F0B51F481F49012506780224D9
:10B340008B88A0F12802082E19D2DFE806F0041835
:10B35000181B222F2F170189491C018100214180D0
:10B3600080F80C1001EB810312F8233043B1002365
:10B370004418491C89B2A3720229F3D30570F0BDA9
:10B380000123F5E742685288D21C1A448A8004706F
:10B39000F0BD46880D6806EB860602EB860256680D
:10B3A0000E60556013818C80062100E0072101703A
:10B3B000F0BD0000AC2A0020301F002030B501880D
:10B3C0008588224C85B0502924D0522902D0542996
:10B3D00032D103E0284600F089FE2DE014221C49FA
:10B3E0006846FDF7FBF8ADF80250284600F08AFBEE
:10B3F000ADF8040000F034F9002261792846FEF728
:10B400004DFA002221792846FEF748FA6846FFF7F0
:10B410004BFC11E0017B01290ED1817A01290BD16E
:10B420000089A0F52451023906D10121284600F0F7
:10B4300091FEA07803F0E8FBE07803F0E5FB2079CB
:10B4400005B0BDE8304003F0DFBB0000841E0020E3
:10B45000380E020010B50446007800280FD160882D
:10B4600000F044FE608800F0A3F9002807D00449EA
:10B47000608801220979BDE81040FEF70FBA10BDBF
:10B48000841E002010B5124C00202070FEF7CCF96D
:10B49000A070FEF7C9F9E070FEF7C6F92071FEF75B
:10B4A000C3F96071A17818290FD0E17818290CD060
:10B4B0002179182909D0182807D00121601C03F030
:10B4C0006FFD01202070002010BD032010BD000082
:10B4D000841E00202DE9F04192B000F0D9F86846B2
:10B4E000FEF77EF900246E460D4D4FF6FF780DE015
:10B4F00006EB4407B88800F005FB404504D1B88846
:10B5000001222979FEF7CAF9641CA4B20098A0426E
:10B51000EED8287903F078FB12B0BDE8F081000086
:10B52000841E00207CB5044600781C4D08282FD1CD
:10B53000607A38BB207A4FF6FF7601280DD00728B5
:10B5400002D0082824D11EE0A08800F019FAB042E9
:10B550001ED0012100F0FEFD1AE0A0886A460121FC
:10B5600002F0F2FF70B90198007858B1A08800F09D
:10B5700007FAB0420CD001222979FEF78FF9287919
:10B5800003F042FB04E005480021401C03F043FDAA
:10B59000A878BDE87C4003F037BB0000841E002083
:10B5A00010B504460A4841782046FEF761F968B1B3
:10B5B0000848002101EB410200EB82025288A242BE
:10B5C00001D1C8B210BD491C1429F3D3FF2010BD0E
:10B5D000961E0020C025002070B5094D094E00249C
:10B5E00004EB440005EB800071784088FEF740F9D9
:10B5F00020B1641C142CF3D3FF2070BDE0B270BDE9
:10B60000C0250020961E00202DE9F041124E07466D
:10B610000125BD403068FDF7E9FC00280DD10F4C35
:10B620002069284207D1384601F08CFA0028E068EA
:10B6300005D0284304E0A8432061BDE8F081A84379
:10B64000E060206928432061A1683068BDE8F041CE
:10B650000022FDF787BC0000100F0200E01E002052
:10B660001CB5054AD2E90212CDE900120022694652
:10B6700002F08FFF1CBD0000500E020003484FF681
:10B68000FF7181800121017000207047901E002011
:10B6900010B54FF6FF7002F00FFF03498880BDE838
:10B6A000104004F037BB0000901E00202DE9FC4143
:10B6B000804600F027FA002403250127A0F57F41EA
:10B6C0002646FF3908D06A46082102F03DFF18B926
:10B6D0000198841D8688056832462B4621464046DF
:10B6E000A9DF042804D0082804D00B2808D002E0E1
:10B6F000112000E00020002F00D10B20BDE8FC81CC
:10B700000027A80701D50125E6E73443F5D000243A
:10B7100026460325E0E72DE9FC41804600F0F2F9DA
:10B720000646A0F57F40FF380ED001252A466D1C45
:10B730000027ADB26B460821304602F02FFF04000F
:10B7400006D0072C25D025E043F20200BDE8FC819D
:10B75000019903230A1D0B604046891DAADF0400DE
:10B7600004D00C2C09D0052C09D009E03246082160
:10B77000104602F0A9FF04460CE0012700E0002477
:10B780000821304602F08CFF00B10324002FCDD1F8
:10B7900000E00C242046D9E704488088A0F57F41CA
:10B7A000FF3901D004F0B6BA70470000901E0020A7
:10B7B0000EB502A9019100F0A5F96A46012102F037
:10B7C000C3FE08B100200EBD019800780EBD000038
:10B7D0002DE9F04107464FF6FF760A48ABDF10B17E
:10B7E0000320BDE8F081074C43F20305A41E324656
:10B7F00061883846A7DFA842F3D16088401C60808A
:10B80000F5E70000921E0020428800EB82020C3215
:10B810008A4201D9022070478188A1F57F42FF3A10
:10B8200003D0008808B1002070470120704788428B
:10B8300004D20068401C01D00120704700207047EE
:10B840003EB5027802230C46B3EB520F17D1B0F885
:10B850000110ADF80010C1788DF802108188ADF8A4
:10B86000041080798DF8060002AA01A92046FDF790
:10B8700079FA032202A96846FCF7DBFE08B1002032
:10B880003EBD01203EBD000010B50C46FFF788FE0E
:10B89000FF280CD0074900EB400001EB8000416815
:10B8A00021600189A180807AA071002010BD05204F
:10B8B00010BD0000C025002070B501888CB0102993
:10B8C00059D1011D18226846FCF788FE9DF8040036
:10B8D0004FF6FF76032134466D46B1EB500F2AD068
:10B8E00002F0A8FF9DF8040040080ED001280CD0FB
:10B8F000022820D118E00899281D1131FDF7CDF953
:10B9000018B100BFBDF8184015E007AA06A9072026
:10B9100002F064FF0028EED10DE00899281D491CB3
:10B92000FFF78EFF0028EDD107AA06A9072002F035
:10B9300055FF0028F1D1BDF80000291D00F020FEC0
:10B94000B44218D0BDF80000214600F0C5F8BDF89B
:10B950000000ADF81A000020ADF81C40074E8DF82D
:10B96000180006AD044600BF56F824102846884744
:10B97000641C022CF8D30CB070BD0000640E0200F1
:10B98000094A002101EB410332F82330834205D1FB
:10B9900001EB410002EB800040887047491C1429EC
:10B9A000F0D34FF6FF707047C02500203EB50C461F
:10B9B000054602F03FFF0BE0BDF80000A04207D0B3
:10B9C0002846029900F02EF810B1BDF800003EBDE7
:10B9D00001AA6946072002F001FF0028ECD14FF6CA
:10B9E000FF703EBD10B50D4C18200D4A6070002050
:10B9F0004FF6FF7100EB400302EB8303401C5980BC
:10BA00001428F7D3FDF710FF6070182803D0012029
:10BA10002070002010BD032010BD0000961E0020E5
:10BA2000C02500202DE9F0410C46054600F1110724
:10BA300001F111061022491C401CFCF7FAFD48B91F
:10BA4000681C00F0BBF928B1601C00F0B7F908B120
:10BA5000012400E0002431463846FDF71EF93B780A
:10BA60000222B2EB530F0CD00321B1EB530F08D0DD
:10BA70003378B2EB530F04D0B1EB530F01D0012157
:10BA800000E00021084201D18C4302D00120BDE832
:10BA9000F0810020FBE7018811B9421892780AB1C1
:10BAA00001207047491C0829F7D30020704710B5C2
:10BAB0000C460346FFF7EFFF00280AD018882188BC
:10BAC000884205D10822A11C981CFCF7B2FD08B1E0
:10BAD000002010BD012010BD03F052B870B504461F
:10BAE000FFF74EFF0546204602F031FD4FF6FF718D
:10BAF00004468D4203D014B9284603F041F820468D
:10BB000070BD000010B5FFF74BFDFF2805D00449BC
:10BB100000EB400031F8200010BD4FF6FF7010BD63
:10BB2000C02500203EB5044602F084FE0EE00199D7
:10BB300020464631FFF7BBFF28B9019920462A313C
:10BB4000FFF7B5FF10B1BDF808003EBD6A4602A977
:10BB5000072002F043FE0028E9D14FF6FF703EBDFA
:10BB600038B504460A4801216A46FCF711FC68B959
:10BB70000848606002F0B4F805491C238C22087460
:10BB800004488C39001F006800F050FD002038BDCB
:10BB9000582B0020440F02002DE9F0412D4F0025C5
:10BBA00018B17D600120BDE8F0810879012258B10B
:10BBB000294E01280CD0274C4FF0020808340228E7
:10BBC00021D0032842D128E00A7102F067FB3BE054
:10BBD0005FF0000000EB800116F82110022908D068
:10BBE000401C80B20228F5D33A707D6041F61D50AA
:10BBF000D9E700EB800006F8205006EB8000406893
:10BC000002F03EFB20E00D71A4F804800023012225
:10BC10001248216801F0E2F916E00D71206802F087
:10BC20002FFB0D4923682831498801EB810206EB7F
:10BC30008201D1F804C0C4F800C04B60A3880B8116
:10BC4000A4F8048006F822500028ACD07D600E20B5
:10BC5000A9E70000281F0020842A0020A81F002038
:10BC60000146034802888A4200D000207047000045
:10BC7000C02100202DE9FC5F0E008346DDE90C4762
:10BC8000C6F1000098469246814600D40846012538
:10BC900003E000BF90FBFAF06D1C5045FADAA845AE
:10BCA00000D9454624B1002E01DB780700D5641E7B
:10BCB000B80702D5B8F1000F0AD0F80708D13CB197
:10BCC000A54205D220215846641EFEF719FCF6E76E
:10BCD000002E02DA4E462D2102E0780703D52B21F3
:10BCE0005846FEF70DFC07F0030002280BD1B8F10F
:10BCF000000F08D13CB1A54205D230215846641E40
:10BD0000FEF7FEFBF6E7CDE90047434652463146D3
:10BD1000584604F0FBFCBDE8FC9F00000248007A96
:10BD2000002800D001207047582B0020F0B58488EF
:10BD3000A518944200D82246A41AC288D6189A425E
:10BD400000D81346D21A4B880788BB420CD34088D0
:10BD5000834209D88888A04206D3A84204D8C8885C
:10BD6000904201D3B04201D90020F0BD0120F0BDC6
:10BD700010B509892AB1D088491C814218D1002008
:10BD800010BD90F8C62202EB8204C4EB821200EBD5
:10BD9000420212899142F2D0491C198090F8C612D1
:10BDA00001EB8102C2EB811100EB4100008902E04E
:10BDB0001980D088401E5880012010BD0021425CAF
:10BDC0000AB101207047491C1029F8D300207047A0
:10BDD000800701D000207047012070470A4810B545
:10BDE000807860B1002401E0022C06D02046FEF7E6
:10BDF000ADF8641C042CF7D310BD0324F6E7BDE8AE
:10BE00001040FEF7D9B80000541E00200348017905
:10BE1000C90702D00078FEF75DBA7047541E0020B3
:10BE200006490120086006480168C1F30041002965
:10BE3000FAD1044900208870704700000C000040CF
:10BE4000180400401C280020172101804180002197
:10BE500001714171704700002DE9FE4F2A4D98464F
:10BE600091460F00824601D000260DE0684600F0A2
:10BE7000B3FB6A460021504602F0D5FA2878009EAE
:10BE800010B99DF8090098B14A463146504604F071
:10BE90004FF90446014600225046FFF73BF9112CAA
:10BEA0001AD008DC74B3082C2CD00D2C09D129E051
:10BEB0000520BDE8FE8F862C1AD0A4F5405002382C
:10BEC00020D00325B8F1000F04D032462146504659
:10BED000FEF7AFFE2846ECE73A4629795046FDF7D3
:10BEE000DDFC4A46E9785046FDF7D8FC0025E9E735
:10BEF0003A4629795046FDF7D1FC4A46E978504642
:10BF0000FDF7CCFC2546DDE7C81E00202DE9F041F9
:10BF1000204F0E46154604463978FDF7A9FC002847
:10BF200035D0204602F05AFA50B32046FFF7EAFD1A
:10BF300080462046B978FDF79BFC08B1012700E058
:10BF40000227204602F02EFD0028404602D0FFF7CF
:10BF5000C5FD0DE0A8F57F41FF3909D0072102F0AA
:10BF60009FFB010004D0052902D0204603F0AAFE61
:10BF70002B46324639462046BDE8F041FEF72ABC42
:10BF80002A4631462046BDE8F041FEF7B5BDBDE882
:10BF9000F0810000C01E00202DE9F04391B08146E1
:10BFA000FDF758FC002820D06846FDF719FC002456
:10BFB0006E4617E006EB44054946A888FDF758FC95
:10BFC00078B10B4FA888F978FDF752FC8046A88815
:10BFD0003979FDF74DFC0146A88801234246FFF759
:10BFE0003BFF641C0098A042E4D811B0BDE8F08388
:10BFF000C81E00202DE9F047394E002780463D46F7
:10C00000DFF8E090D6F804A057E003D00446D0F85B
:10C010001C8035E099F8002002EB4201521CD2B29C
:10C0200089F8002009EBC10199F80230091D9A42F4
:10C0300001D189F8005048680A780446012A12D0D4
:10C04000022A02D0032A3BD108E004F011FA00B121
:10C050000127257434E00574C06900E07068002889
:10C06000F9D170602CE0207C50BB88686060C868A3
:10C07000A0600869E0604869A061F07800B165607F
:10C080006268B168184B501A20F07F40984202D283
:10C09000A168084406E0881AA16820F07F40814228
:10C0A00002D9081A206000E0256065600120A560C3
:10C0B00020742046E56104F0BDF9B8F10000A4D178
:10C0C00099F8001099F801008142A3D117B971685D
:10C0D000514502D00120BDE8F0870020FBE70000B9
:10C0E000F41E0020C4280020FFFF7F0030B585B07B
:10C0F0000546002414216846FCF789FAA5F57F401F
:10C10000ADF80250FF3815D02846FFF7CFFA98B1A6
:10C110000B2815D0112811D0A0F54051023903D0B9
:10C120000146284603F0BAFD09482246C178284650
:10C13000FDF7B4FB05B030BD0E2002E00124F3E7AB
:10C140000F208DF800006846FEF7AEFDECE700001A
:10C15000841E00200A4602498978FDF79FBB000033
:10C16000841E0020F8B5054600780C4600262042C3
:10C170000FD100208DF800006846FCF747FF2878B3
:10C18000204202D12043287001269DF80000FCF7D0
:10C1900061FF3046F8BD000070B588B0214800F05E
:10C1A00084FA2048001F064600F07FFA1E4DD5E9AC
:10C1B000014105E0C0F3891202EB9050641C044475
:10C1C00004EA010005EB8000C0688207F2D000207D
:10C1D0000DF1080204EA010305EB8303641CDB682C
:10C1E00042F82030401C0228F4D3029800F00300EB
:10C1F000012808D002280AD10298032101EB9050AF
:10C2000004EB900403E00298C0F38310044430462A
:10C21000002101AAFCF765F9002800D06C6008B085
:10C2200070BD0000943000207C2C0020A8B00020BD
:10C2300001F0B0FA08B1FCF74DFE01F033F9FCF75C
:10C2400067FE08B1FCF746FE50490320FDF7F8FFF2
:10C2500008B1FCF73FFE69460020FDF7D1FE08B1AA
:10C26000FCF738FE9DF8000002287CD05FF0000645
:10C2700001F0EEFC08B1FCF72DFE00246946012018
:10C28000009401F0B5FB08B1FCF724FE684601F00C
:10C290002DFC08B1FCF71EFEFEF76AFF00213C48AA
:10C2A00000F06AFA08B1FCF715FEA0216846FCF719
:10C2B000AEF902208DF8000001258DF8025005200E
:10C2C0008DF8030033480590ADF8105028202290D7
:10C2D000B4202390304826902D488DF87C50694634
:10C2E0001030FDF77BF808B1FCF7F4FD2848012178
:10C2F0001030FDF770F82948FDF708FB08B1FCF78E
:10C30000E9FD2448001F44708470254800902548AA
:10C3100001901F4869461838FDF759FD08B1FCF730
:10C32000D9FD1C216846FCF772F94FF42030CDE9A5
:10C3300000404FF47020032702908DF80C701A48CB
:10C34000ADF80E408DF81050CDE905406846FDF778
:10C3500013FA08B1FCF7BEFD02F020FC1348008878
:10C3600007EB004000E00FE011A101F0A1F9304619
:10C37000FCF7D4FC01F0A4F80028FBD13EDF002834
:10C38000F8D0FCF7A7FDF5E7012671E7EDA0010065
:10C390004C200020841B0020F9DD010019A80100B9
:10C3A000C1E001006DFE010089A70100042000200A
:10C3B000496D6D65646961746520416C65727420B6
:10C3C0006578616D706C6520737461727465642E3C
:10C3D0000000000070B5144682880E46054620888D
:10C3E000111D0144921C994201D8FE2A01D90C204A
:10C3F00070BD521C32542088FF21401C80B2208026
:10C4000031542088401C80B220808119288804F093
:10C4100067F92188084480B22080AA8842B1A968BF
:10C4200041B13044FCF7DAF82088A988084420801C
:10C43000002070BD072070BD2DE9F047C788044675
:10C44000181D16468946B0FBF7F1B0FBF7F207FB63
:10C4500012009A193A44D21CB2FBF7F2DDF820A080
:10C4600001E02468491E0029FBD13D1A8846B542E7
:10C4700016D818E0BAF1000F05D0211809EB080012
:10C480002A46091D04E0204409EB08012A46001D44
:10C49000FCF7A4F800202468761BA844B74201D911
:10C4A000354600E03D46002EE4D1BDE8F0870000AF
:10C4B00030B5024669B101F09BF90021084C0BE050
:10C4C00001EB410304EB830315685B88AB4202D1A7
:10C4D0001160002030BD491C8142F1D3052030BDE0
:10C4E000BC1F0020F8B50E46017814460546012908
:10C4F00001D1687830B12088821C9A422DD8012958
:10C5000002D006E00720F8BD69780144891C9942F1
:10C5100023D8181A801E87B2ADF800702188B01C8D
:10C52000084469467DDF0028EDD12878022805D12E
:10C53000BDF80010B94201D809210AE008210128FC
:10C5400005D16878B84202D8ADF8000001E0ADF836
:10C550000070BDF80000FE2801D90C20F8BD22882B
:10C56000401CB0542088401C80B220803154208868
:10C57000401C2080BDF80010084420800020F8BD39
:10C5800070B505460C004FF0FF0020D04FF6FF7647
:10C59000B5421CD00E48012241782846FDF77EF9AD
:10C5A0002846FEF7FDFFFF2803D1FFF715F8FF2807
:10C5B0000DD0084B00EB400203EB82014D8023F8C5
:10C5C000226022684A60A2880A81A2798A7270BDBC
:10C5D000961E0020C0250020034A00219268C0E971
:10C5E0000021816070470000C81E002070B54FF622
:10C5F000FF750E46A84201D1002000E0401C84B225
:10C6000008E02146304602F0FAFC08B1204670BD31
:10C61000641CA4B2FF2CF4D9284670BD10B5FBF7FA
:10C6200092FE08B1002010BD112010BD10B531B12F
:10C63000B2FBF3F403FB14241CB1092010BD0E203F
:10C6400010BD01600021416081608281C381084684
:10C6500010BD70B50C460546FBF72AFE002802D037
:10C6600021882868084470BD10B50A8849888A4224
:10C6700003D1FBF75FFE012010BD002010BD70B597
:10C680000C460546FBF739FE002802D06188286871
:10C69000084470BD10B50A8849888A4203D1FBF767
:10C6A00023FE012010BD002010BD08B501216A46FF
:10C6B000FBF70AFF009808BD08B56A46FBF7DDFDE9
:10C6C000009808BD38B5044600258DF8005068462E
:10C6D000FCF79CFC21686268086890420ED9401EF5
:10C6E00008600178238AE26801FB0325227A216829
:10C6F000101AC0B20A79824200D208719DF8000077
:10C70000FCF7A8FC284638BD38B5054600208DF852
:10C7100000000C466846FCF779FCE868298A201A74
:10C72000B0FBF1F12A681068431C136001709DF89A
:10C730000000FCF78FFC38BD10B530B1017A4268BB
:10C740000368891AC9B21A6006E00E2010BD03689A
:10C750001A68541C1C601170491EC9B2F7D20068D7
:10C7600000210171084610BDC20800F00703012036
:10C77000895C98400840704710B560B1C1601721CE
:10C7800020F8021B20F8021B1B2100F8021BFFF7F8
:10C790005BFB002010BD0E2010BD00002DE9FC4108
:10C7A00082880C46002A51D101880126354F002588
:10C7B000102906D0112925D03A2927D055294BD147
:10C7C00046E0C07B04F1060E012802D12088AEF8B5
:10C7D0000000BEF80010BEF8020081423CD91046AD
:10C7E0009EDF020008D0112A09D03888264906EBBE
:10C7F000004000F061FF2FE08EF805602CE08EF81D
:10C8000004602CE0A01DFFF71FFB25E023464089B4
:10C8100034F8061F814200D808466080172800D2ED
:10C8200017206080D86878B1607968B11749D1E97C
:10C830000001CDE90001ADF802206088ADF80400E8
:10C84000DA6869461846904765712571BDE8FC8134
:10C850000146204601F0F8FBA07A0028F6D02846D1
:10C86000E1889EDF02000AD0112AEFD0388802B09A
:10C8700006EB0040BDE8F041034900F01DBFA57282
:10C88000E672E3E7C81F0020E01102006C0E020010
:10C8900000F180400068002800D00120704708B5F2
:10C8A00000F18040002101600068009008BD000098
:10C8B00000283ED01F49204A096800BF00BF00BFC2
:10C8C00000BF00BF00BF00BF00BF91422FD000BF1C
:10C8D00000BF00BF00BF00BF00BF00BF00BF00BF60
:10C8E00000BF00BF00BF00BF00BF00BF00BF00BF50
:10C8F00000BF00BF00BF00BF00BF00BF00BF00BF40
:10C9000000BF00BF00BF00BF00BF00BF00BF00BF2F
:10C9100000BF00BF00BF00BF00BF00BF00BF00BF1F
:10C9200000BF00BF00BF00BF00BF00BF00BF013895
:10C93000C3D17047A41F00200024F40070B50F4C31
:10C940000025207808B1852516E00021A1606160EE
:10C950002161E1604FF0E020D0F80001012610F0E5
:10C96000010F03D10721002000F022F801F0B8F9EF
:10C9700008B9034806602670284670BD1C280020B0
:10C980001805004008B500208DF800006846FCF747
:10C990003DFB0648C168491EC160C06808B9FFF781
:10C9A0003FFA9DF80000FCF755FB08BD1C2800204D
:10C9B0004907090E002806DA00F00F0202F1E02212
:10C9C00082F8141D03E000F1E02282F8001400F068
:10C9D0001F02012191404009800000F1E020C0F8D1
:10C9E0008012C0F8001170472DE9F04188460546D5
:10C9F00002F076F9234E002828461AD0FDF7D0FD24
:10CA0000304490F848008009032802D001280ED055
:10CA100007E04FF0A040D0F81005E84010F0010FFB
:10CA200005D003212846BDE8F04100F033BC0221C7
:10CA3000F8E702F061F9002822D02846FDF7B0FDA2
:10CA400004464FF4807000EB84000F4F81B207EB77
:10CA50008400D0F8102542F00102C0F810250846E5
:10CA600000F048FCB8F1000F0AD02846FDF798FD09
:10CA700056F82000002803D00120A040C7F8040386
:10CA8000BDE8F08130280020006000402DE9FC4125
:10CA9000DFF8A480044608EB0400002790F930007A
:10CAA0001346C0170E46401C01D0082741E0F2781B
:10CAB00019462046FDF750FD0546401C38D0B07899
:10CAC00050B14FF0A04000EB8400D0F8001721F0E7
:10CAD0000201C0F8001707E000217378204600919A
:10CAE0000A46019100F085FBF078C0B11348317817
:10CAF00000EB8500D0F81025114B1A40C0F8102526
:10CB00004FF4F8524FF4403302EA042203EA0141A1
:10CB10000A43D0F810150A43C0F8102509E008EBC5
:10CB20000500327810F8481F41EA8211017000E0D8
:10CB300004273846BDE8FC81302800200060004012
:10CB4000FFE0FCFF4FF0A041D1F81015C14011F0FB
:10CB5000010000D00120704770B5144D95F85400C5
:10CB600008B1082070BD0020411E2A18401CC0B228
:10CB700082F830102028F8D300242046FDF7DEFC90
:10CB8000641CE4B20C2CF8D307210620FFF710FF39
:10CB90004FF4BE7000F0AEFB05494FF00040C1F805
:10CBA0000403012085F85400002070BD30280020C7
:10CBB00000600040034890F85400002800D0012095
:10CBC00070470000302800200121B1EB507F01D1D7
:10CBD00001207047002070472DE9F04105460F46BF
:10CBE00000791F49C0EBC00001EB80041646E07ECF
:10CBF00010B10820BDE8F08139462846FCF744FA18
:10CC0000666038692060F6B13E7F4FF4887128680D
:10CC100001F0EBF84FF49071286801F0E6F84FF45A
:10CC20009271286801F0E1F84FF4A271286801F0D0
:10CC3000DCF828680B49C0F8041328683146000B5B
:10CC400040B2FFF7B5FE28680821C0F800150020A3
:10CC5000E0752076A0750121E176A076CAE7000094
:10CC600088280020100302002DE9F04704460079CF
:10CC7000254FC0EBC00007EB800590460E460846E6
:10CC8000FFF7A2FF30B1204600F040F820B111209C
:10CC9000BDE8F0871020FBE785F816804FF000080C
:10CCA000AE60A5F8148020794FF49079C0EBC000F5
:10CCB00007EB800546464946206801F096F84FF498
:10CCC000AC773946206801F090F82068A97DAA6801
:10CCD000C0F84425C0F848152068012181606868C3
:10CCE00080B9CA46B9465146206801F079F807462E
:10CCF0004946206801F074F80743F4D000B10F26CC
:10CD000085F816803046C3E7882800200079054959
:10CD1000C0EBC00001EB8000807D002800D0012026
:10CD200070470000882800202DE9F0410246007974
:10CD30002549C0EBC00001EB800710684FF00008E8
:10CD4000C0F80085786880B110682049C0F80813E1
:10CD500010680121000B40B200F01F039940400908
:10CD6000800000F1E020C0F880111068D0F80C3588
:10CD7000D0F81465D0F80855D0F810454FF0FF31C1
:10CD8000C0F80C15C0F814151068C0F80815C0F8E4
:10CD90001015581C02D0184600F04FFA701C02D033
:10CDA000304600F04AFA601C02D0204600F045FAF6
:10CDB000681C02D0284600F040FA87F81B80C7F8AC
:10CDC0000480BDE8F08100008828002010030200E4
:10CDD0000FB408B50399002904D004AA00926A464A
:10CDE00000F00FF801B05DF814FB10B5826804463E
:10CDF000002A05D0D4E90403216898470020A060E8
:10CE000010BD2DE9FC4791460C00804676D014F801
:10CE1000011B39B125290ED04046FDF771FB207862
:10CE20000028F4D198F80C00002867D04046BDE8EF
:10CE3000FC47FFF7DABF0020012221782B291BD005
:10CE40002D2902D0302908D102E040F0010001E094
:10CE500040F00200641C002AEFD100252A290ED0E0
:10CE60002178A1F130020A2A11D205EB850201EBEB
:10CE70004205641C303DF1E740F00400EAE7D9F8D0
:10CE800000100B1DC9F800300968641C0D4421789E
:10CE900000232E290BD114F8011FA1F130020A2A18
:10CEA00005D203EB830201EB4203303BF3E76C292D
:10CEB0000DD068290BD0692921D00BDC252918D089
:10CEC000582931D063290ED0642915D117E014F800
:10CED000011FECE7702969D0732932D075291BD066
:10CEE000782909D120E0D9F80000011DC9F8001007
:10CEF00001784046FDF704FB641C90E76CE0D9F82C
:10CF000000100A1DC9F800200968CDE900500A2266
:10CF10004046FEF7AFFEEFE7D9F800100A1DC9F84A
:10CF2000002009680A2206E0D9F800100A1DC9F895
:10CF3000002009681022CDE90050404603F0E6FBCE
:10CF4000DAE7D9F8001000270A1DC9F800200E689A
:10CF5000C00705D112E04046761C7F1CFDF7D0FAD1
:10CF600031780029F7D104E0202140466D1EFDF7FD
:10CF7000C7FABD42C0D9002DF6D1BDE74EB130464B
:10CF8000FBF750FB074604E0202140466D1EFDF7ED
:10CF9000B7FABD4206D9002DF6D103E04046761C13
:10CFA000FDF7AEFA31780029F8D1A5E7D9F80000ED
:10CFB000011DC9F80010056830214046FDF7A0FAB0
:10CFC00078214046FDF79CFA08200021CDE90001B8
:10CFD000034610222946B0E7BDE8FC872DE9F04161
:10CFE0001F46154604000E4616D02068B8B1C5B1DC
:10CFF00060680268501E304215D16A432046FBF734
:10D0000065FE80B120683B462A46D0F810C0314604
:10D010002046BDE8F04160470E20BDE8F0810820C1
:10D02000FBE70920F9E71020F7E720B119B101600B
:10D030000B68114618470E20704700002DE9F0419B
:10D0400028B1016819B1C969BDE8F04108470D4D23
:10D050000D480024461B14270DE000BF04EB84009C
:10D0600005EB8000016829B1C969884710B101202A
:10D07000BDE8F081641CB6FBF7F0A042EED80020BA
:10D08000F6E70000A81F0020BC1F00200448012173
:10D090004174007A08B100207047012070470000F9
:10D0A000582B0020012801D0032808D10449002270
:10D0B00001284A7400D00020087402F0DFB97047DC
:10D0C000582B002070B5254C0246207A012837D015
:10D0D000022841D122480023022A006802D0032AF4
:10D0E0002ED11BE0E360017911B1012928D10DE0B7
:10D0F000D0E90565711B4FF48056B14200D331462B
:10D10000294481614569A9420ED019E00169491C91
:10D1100001614269914213D1237217E0E168491C11
:10D12000E16008290CD9E3602372022A0ED00D2198
:10D13000FDF758FD0B480A49091D0068FFF794FAEE
:10D14000607C28B1BDE8704000F0D0BD0021EFE761
:10D15000BDE8704002F092B970BD0000582B00206D
:10D16000381F0020400F02002DE9F8431D46089F9C
:10D170001646884604000DD066B1206860B135B10E
:10D1800060684068B5FBF0F100FB115030B1092038
:10D19000BDE8F8830E20FBE70820F9E74046FBF7DF
:10D1A0008FFD90B13046FBF78BFD70B12A464146AA
:10D1B0002046FBF78BFD40B1009720682B46324696
:10D1C000C76841462046B847E2E71020E0E770B55F
:10D1D00041EA4201DDE904564FF0A04441EA8301EF
:10D1E00041EA052104EB800041EA0641C0F800173E
:10D1F00070BD70B541EA4201DDE904564FF0A0442C
:10D2000041EA830141EA052104EB800041EA06413D
:10D21000C0F8001770BD70B541EA4201DDE904565F
:10D220004FF0A04441EA830141EA052104EB80006C
:10D2300041EA0641C0F8001770BD1CB500210091FD
:10D240000B4601220191FFF7E6FF1CBD1CB5002231
:10D250000B46009211460192FFF7DDFF1CBD1CB585
:10D26000002100910B46012201911146FFF7D3FFE7
:10D270001CBD4FF0A04202EB8000D0F8002722F442
:10D280004032C0F80027D0F8002742EA0141C0F838
:10D29000001770474FF0A04202EB8000D0F8002743
:10D2A00022F44032C0F80027D0F8002742EA0141BA
:10D2B000C0F80017704701224FF0A043824011B11F
:10D2C000C3F808257047C3F80C25704718B5084BFC
:10D2D0006C4601441B68009306E000BF54F8203000
:10D2E000D3F81035401C08C28142F7D818BD0000A1
:10D2F0000C0F0200034908B50844002101600068D2
:10D30000009008BD0060004002494058012800D04C
:10D31000002070470060004030B5124B01460020ED
:10D32000D3F81044224609E0157A854205D1401C05
:10D330000A28F7DB4FF0FF3030BD5268002AF3D1E6
:10D34000421CF9D00872D3F810242AB152684A60FE
:10D35000D3F81024516030BD0022C3F810144A6085
:10D3600030BD00007C2C0020F0B595B01C46154661
:10D370000F4608461A9E00F00BFB182109A8FBF780
:10D3800046F90E96CDE909540023082203A9384630
:10D3900000F018FB059806900498ADF81C000020DA
:10D3A0008DF820000398082600F00300012802D021
:10D3B00002281DD03CE003983346850AC0F3C20022
:10D3C0008DF81E0003980FA9C0F380008DF81F0090
:10D3D0000398C0F38314A200384600F0F3FA09A8BA
:10D3E000009006AB22460FA9284600F02DFA1FE058
:10D3F0000398840DC0F3C2008DF81E000398C0F39B
:10D4000080008DF81F00082C01D2254600E0082579
:10D4100033462A460FA9384600F0D4FA2E44641B3E
:10D4200009AB06AA29460FA800F05EF9002CEAD144
:10D43000384600F0B6FA15B0F0BD7047012003F091
:10D44000ABB8000010B50448FFF76EFCBDE8104013
:10D45000002003F0A1B80000441F002008B5034AD3
:10D4600000924023024AFFF77FFF08BDEDFC010058
:10D470007C2B00200A4A012902EBC00007D00229B8
:10D4800007D0032907D0042907D0002070470220C5
:10D49000704704207047007970474079704700005A
:10D4A000DC17020010B5FFF7C9FF04210348FFF79E
:10D4B00033FF02490120487210BD00004C1F0020BC
:10D4C0002DE9F04F8DB0FDF72BF818B100200DB00D
:10D4D000BDE8F08F74480021C0F81814BFF34F8FD7
:10D4E000D0E9014604EA060100EB81014FF0000992
:10D4F0000AE000BFC1F3891202EB9151641C0C4495
:10D5000004EA060100EB8101C9688A07F2D0002114
:10D5100003AA804604EA060008EB8000641CC06889
:10D5200042F82100491C43460229F3D3039800F036
:10D530000300022806D0012803984FD0C04380077B
:10D540007ED0ACE003985022810D8A46B2EB905F0A
:10D5500000D850210D4665F39F5003900831534881
:10D5600000F0CDF907006CD000F012FA4B4608220B
:10D5700003A9384600F02CFA04EA0601701A80006C
:10D58000001D09F1080B854221D9474E0C3630B1F8
:10D59000C2B208EB8101281A91460C3104E03146F1
:10D5A000EAB2002691463046C5B25B46384600F0E6
:10D5B0000FFA0BEB09032EB12A4631464FEA07005A
:10D5C00000F006FA0AF1030004EB90043BE008EBDC
:10D5D00081015B462A4638460C31F1E7C0F38310DF
:10D5E000062800D30620039960F38911C1F3831044
:10D5F000801C039181002D4800F081F907004ED076
:10D6000000F0C6F94B46082203A9384600F0E0F9BD
:10D6100009F1080900250DE004EA060008EB800185
:10D620004B46042238460C31641C00F0D1F909F154
:10D6300004096D1C0398C0F38310A842ECD801E0E4
:10D640000BE02CE05FB3D8F81054D8F81804464625
:10D6500090B1384600F0A5F921E0D3F8180400286D
:10D660003FF435AF1BE0687A012804D129682846C9
:10D670000A68394690476D68002DF4D1384600F0AD
:10D6800090F900208DF800006846FBF7BFFCD6F843
:10D69000180400B974609DF80000FBF7DBFCFCF790
:10D6A0003FFF80F0010012E77C2C0020A010020058
:10D6B00000231A4602F036BE08B5012300926A46DE
:10D6C00002F030FE08BD1CB5CDE9002302236A46F6
:10D6D00002F028FE1CBD3EB5069C8DE81C0003230D
:10D6E0006A4602F01FFE3EBD2DE9F0470E46804619
:10D6F0001C46924608293ED894F80C9000202073CE
:10D700001946104601F022FE0025B54206D218F84F
:10D7100005201AA12046FFF75BFB03E019A1204674
:10D72000FFF756FB6D1C082DEFD317A12046FFF71E
:10D730004FFB0025B54210D218F80570FAF74AFFE2
:10D740000068C05D10F03E0F01D03A4600E02E2286
:10D750000EA12046FFF73CFB03E00DA12046FFF79A
:10D7600037FB6D1C082DE5D301222146504601F000
:10D77000CFFD84F80C90BDE8F08700002025303202
:10D7800078000000202020007C00000025630000BD
:10D7900020000000114810B5FF21816000210160C8
:10D7A0004160C0F81814C0F8141480F81C140C4818
:10D7B00000F0F5F800280FD10A480B490B4B401A2E
:10D7C000C108002005E000BF00EB400223F8220062
:10D7D000401C8842F8D3002010BD00007C2C0020A3
:10D7E000A01002002C180200DC170200BC1F002051
:10D7F00002480349401AC008704700002C18020074
:10D80000DC17020013B56846FEF752FE08B100208F
:10D810001CBD0248009950F831001CBDDC17020005
:10D8200070B508480125D0F8104480F81C5405E074
:10D83000657221682046496888476468002CF7D1E2
:10D8400070BD00007C2C00202DE9FF4781460C9D17
:10D8500000200C462F7B287398461646294618460A
:10D8600001F074FD072E42D2DFE806F004090F161E
:10D870001F2A360049462846FFF7AAFA37E04946EC
:10D8800028462268FFF7A4FA31E0D4E9002349468C
:10D890002846FFF79DFA2AE0A0680090D4E900230B
:10D8A00049462846FFF794FA21E0D4E90201CDE980
:10D8B0000001D4E9002349462846FFF789FA16E01B
:10D8C00004F1080007C88DE80700D4E900234946A1
:10D8D0002846FFF77DFA0AE004F108000FC88DE83A
:10D8E0000F00D4E9002349462846FFF771FA0022C9
:10D8F0002946404601F00CFD2F73BDE8FF872DE956
:10D90000F041058A80462D1F4819C01CB0FBF5F078
:10D91000C6B24046FEF7D6FE041E19D00020207184
:10D9200001206071E58000272546761EC4F800803E
:10D930000BE04046FEF7C6FE60B16179491C61719B
:10D94000286005467F1CC0F80080B742F1D320460E
:10D95000BDE8F081204600F002F80020F8E72DE94C
:10D96000F041457901466B1E002201E00968521C16
:10D970009A42FBD30F680146002605E038460C6842
:10D98000FEF7C2FE2146761CAE42F7D3BDE8F08119
:10D9900008B501216A46001DFAF76FFD08BDFEF7C4
:10D9A000CBBE38B50446001D01216A46FAF772FD68
:10D9B000009810F0FF0F04D12046BDE83840FFF773
:10D9C000CEBF38BD38B501240094FEF735FD38BD13
:10D9D00038B500240094FEF72FFD38BD20B103496F
:10D9E00009680160002070470E2070472C1102006A
:10D9F000FEB502460E460846FFF7F0FF002868D144
:10DA0000002400940194012503208DF80020ADF836
:10DA1000040002948DF8025069462020326869DFC4
:10DA20002C4F48B100F0D2F93988024605EB01438A
:10DA300029491846FFF740FE0094019402948DF89E
:10DA4000005069464020326869DF40B100F0BEF9FD
:10DA500002463888214905EB0040FFF72DFE00946F
:10DA6000019402948DF8004069460120326869DF14
:10DA700040B100F0ABF902463888194905EB004087
:10DA8000FFF71AFE4FF4B0600090019402946946CB
:10DA9000A120326869DF40B100F098F90246388869
:10DAA000104905EB0040FFF707FE00940194029433
:10DAB0008DF800406946A020326869DF40B100F06F
:10DAC00085F902463888084905EB0040FFF7F4FD68
:10DAD0000020FEBD1C200020CC16020014170200FE
:10DAE0002C16020078160200D81502002DE9F0412C
:10DAF0000446D0F800E060DF2368144D0646734505
:10DB000015D02888022707EB0040724610A1FFF7C6
:10DB1000DAFDF806D0F80C012168800200F100500F
:10DB2000421A288816A107EB0040FFF7C5FD56B141
:10DB3000304600F04BF902462888012101EB0040F5
:10DB400018A1FFF7B9FD3046BDE8F0811C20002088
:10DB500052414D2073746172747320617420307867
:10DB600025782C2063616E2062652061646A75737C
:10DB700074656420746F20307825782E00000000D2
:10DB800052414D2073697A652063616E2062652081
:10DB900061646A757374656420746F2030782578C9
:10DBA0002E00000073645F626C655F656E61626C7D
:10DBB0006528292072657475726E65642025732E40
:10DBC0000000000030B58FB05FF02C05ADF8385084
:10DBD0000EA903A861DF30B1052816D00FB0BDE84B
:10DBE0003040FBF777B903AC0949684600F0AAF862
:10DBF00007E000BFD0E9002120469047684600F0CA
:10DC0000B8F802980028E1D0F4E70FB030BD00006A
:10DC10003011020010B50D4C2078A0B10120A07089
:10DC200001F066FE11280CD0022001F079FE11DF10
:10DC3000002807D12070A07002F030FB032001F013
:10DC40006FFE002010BD082010BD0000A01F0020A6
:10DC500038B5174C207808B1082038BD0125A570CB
:10DC6000002001F045FE112820D0002001F058FED0
:10DC70001048114900680090684610DF0028ECD178
:10DC80002570A07060700721162001F0E5FD08B135
:10DC9000FBF720F90721152001F0DEFD08B1FBF7A5
:10DCA00019F902F017FB012001F03AFE002038BDFF
:10DCB000A01F0020C41002005D8E01000EB50749B0
:10DCC000684600F03FF805E0D0E900108847684654
:10DCD00000F04FF802980028F6D10EBDE0100200C7
:10DCE0000148007870470000A01F00200548817897
:10DCF00019B1007818B1FFF78DBF08207047FFF702
:10DD0000A7BF0000A01F00201FB5684648DF30B144
:10DD1000052814D004B0BDE81040FBF7DBB8084973
:10DD200001A800F00FF806E0D0E900210098904724
:10DD300001A800F01EF803980028E6D0F4E71FBD04
:10DD40004C110200016009684160AFF3008010B51A
:10DD5000D0E900215368994201D1002104E0D1E9C2
:10DD60000034A34202D01946816010BD08314160E1
:10DD7000F0E7816800290BD0026892680A4482604B
:10DD800041684B689A4203D108314160FFF7DFBF19
:10DD9000704700000C4A10B502F1F0030EE0991A2A
:10DDA000C91001EBD171491002EBC1010C6884422A
:10DDB00001D90B4602E005D201F108029A42EED3E6
:10DDC000002010BD486810BD840F020000B5FFF7A9
:10DDD000E1FF002800D1014800BD0000700F0200E3
:10DDE0004058002800D00120704708B5002242505A
:10DDF0004058009008BD000010B590B1032814D120
:10DE00000A480321008801EB004009A1FFF750FCFC
:10DE10000220FCF709FA002807D0BDE81040FBF704
:10DE200059B8BDE8104002F023B810BD042000200E
:10DE300046617374206164766572746973696E6794
:10DE40002E0000002DE9F84F05460C460888B5F86D
:10DE5000CA12884259D195F8C602DFF8F8A000EB43
:10DE60008001C1EB801005EB400160884FF0030991
:10DE70004FF00008F0BBE6880879A21DF3B250FA13
:10DE800086F6062E01D8034400E006230B71002617
:10DE90001CE000BF00EBC00306EB860702EB470760
:10DEA00001EB4303D7F802C0C3F80AC0D7F806C095
:10DEB000C3F80EC07F895F82A3F81480A3F8168090
:10DEC000A3F81880401CA3F81A80761C0B798342B3
:10DED000E0D895F8C62200EBC00002EB8203C3EB4A
:10DEE000821205EB420231F81000128990420ED2E4
:10DEF000087900E00BE0062809D085F8C5022188E2
:10DF00002846FCF755FB01000AD1BDE8F88F85F8DB
:10DF1000C582228869462846FCF7C4FC01000BD064
:10DF200085F8C78222882846FCF77AFD8AF8009097
:10DF30002188AAF80210E8E79DF800000028E4D044
:10DF4000228801212846FCF723FD2188284600F07D
:10DF500007F9DAE7C0220020F8B505460C46088824
:10DF6000B5F8CA1288425DD195F8C602A61D00EB2D
:10DF70008001C1EB801005EB400395F8C502618874
:10DF800000EBC00003EB40000A3039B329E000BFCA
:10DF900001EB410206EB42029788B7F5245F0CD0F3
:10DFA0006FF4245C17EB0C070AD0012F02D0072F67
:10DFB0000BD108E05288428107E05288828104E058
:10DFC0005288C28101E05288028242892AB1828944
:10DFD0001AB1C2890AB1028A1AB9491C32888A4226
:10DFE000D6D800268DF8006095F8C5021979401C36
:10DFF000884203D101208DF8000018E085F8C502A1
:10E00000228869462846FCF74DFC01000BD085F8B4
:10E01000C76222882846FCF703FD0A4803210170E5
:10E0200021884180F8BD9DF800000028FAD02288A0
:10E0300001212846FCF7ACFC2188284600F090F826
:10E04000F8BD0000C02200207CB506468D88C88837
:10E0500005EB450106EB4104A41D172800D217204B
:10E060002188814200D808466080002020712188E4
:10E070002846ADDF020007D00E480121008801EBE1
:10E0800000400D49FFF718FB6079002810D1F068B7
:10E0900000280DD00949D1E90201CDE90001ADF810
:10E0A00002506088ADF80400F26869463046904737
:10E0B0007CBD0000C81F0020241202006C0E02006C
:10E0C00010B50878094C28B101280DD002280BD1D1
:10E0D000002008E08A8949880548FBF771FE08B1ED
:10E0E000FAF7F8FE0120207010BD0000801B002010
:10E0F0003420002070B505460C4690F8C6022288F0
:10E1000000EB8001C1EB801005EB4001B5F8CA02BD
:10E11000824222D1608848B100212846FCF738FCB1
:10E1200021882846BDE8704000F01AB8A2680A604D
:10E13000E068C1F8060021882846FCF739FA01009A
:10E140000BD0002085F8C70222882846FCF768FC1F
:10E150000248032101702188418070BDC022002047
:10E160002DE9F041044690F8C9020E46401C1949B9
:10E17000C0B284F8C902C9680327174D4FF0000EDA
:10E18000884224D284F8C5E294F8C602401CC0B28A
:10E1900000EB8001C1EB801104EB410284F8C60260
:10E1A000A5F1180101EB800001210068106082F8E0
:10E1B00004E0304694DF010007D084F8C7E232461D
:10E1C0002046FCF72DFC2F706E80BDE8F08184F8AE
:10E1D000C7E2F8E7741E0020C022002048B1064ABA
:10E1E0000168914205D140680449401802D00128D5
:10E1F00000D0032070470000DEC0ADDE02FEE10E5D
:10E200000389CA1C1A4402814289511AC91E4181DC
:10E21000704700002DE9F0410D460221904600F5BF
:10E220008056298000F10804144F1BE03146204637
:10E23000FDF7EAFA40B1B8F1000F02D0012288F8E8
:10E240000020022816D004E0A0687969884200D92D
:10E250007861288861880844C01C2880608804EBA5
:10E2600080040C3431462046FDF7E1FA0028DDD168
:10E27000BDE8F0814FF480602880F9E7081F002096
:10E2800008B50021009101460823024A0248FEF722
:10E290006BFF08BD280F0200A81F002008B5002052
:10E2A000009004480823044A01680448FEF75CFF14
:10E2B00008BD0000301F0020200F0200A81F002012
:10E2C0002DE9F05F0025DFF80891DFF808B12C4652
:10E2D0004FF00308AA462F46D9F80C0000EB07368A
:10E2E0003046FFF77BFF78B3012847D0032862D17F
:10E2F00000204FF4806200BF56F82010491C0ED059
:10E3000004EB84010BEB8102A8F1010056600322AB
:10E310001FFA80F80BF82120641CA4B24BE0401CCB
:10E320009042E9D32C48016879B104EB84010220C2
:10E330000BF821000BEB81014E6008812548283045
:10E340004480641CA4B205E007E0022106608180DD
:10E350004FF0010A45F001052DE004EB8401002295
:10E360000BF821200BEB810101F110024E603046C9
:10E370000831FFF74FFF45F00205CDE7BAF1000F76
:10E380000CD0022004EB8401134A0BF821000BEBA4
:10E39000810112684A60641C0881A4B20E48002200
:10E3A000011D06603046FFF735FF0B4880880228C4
:10E3B0000CD0082005437F1CBFB2032F8CD3B8F1CB
:10E3C000020F00D20025E8B2BDE8F09F0420F1E77B
:10E3D000A81F0020842A0020301F0020014949780E
:10E3E000FBF746BAC01E0020F0B591B00746FBF718
:10E3F00031FA002815D06846FBF7F2F900246D4683
:10E400000CE000BF05EB44063946B088FBF730FA54
:10E4100018B1B088002101F01BFF641C0098A042D5
:10E42000F0D811B0F0BD30B585B00C4605218DF89F
:10E4300000101546ADF80200FDF764FBADF80400CE
:10E440006846CDE90245FCF761FC05B030BD00002F
:10E4500070B5054D06460024304655F8241088470F
:10E46000641C042CF8D370BD940E02003EB50F4D11
:10E47000002400BF05EB041002F01AFB641C022C00
:10E48000F8D30124502002210094CDE9011007495E
:10E49000074BB039A02201F1A00000F067FC08B1E1
:10E4A00003203EBD0248447000203EBD702700207E
:10E4B000A81E002000F08EB900F08EB970B5044699
:10E4C0000025C168194A284602EB00139B688B425D
:10E4D00002D102EB001003E0401C0228F4DB002014
:10E4E0002178082904D0092908D0132915D113E06F
:10E4F000617A91B988B102F0EBFA0EE0617A61B904
:10E5000058B10B494A68521C4A6000218160817BE6
:10E5100041F00201817303E001252046FFF798FFD7
:10E520002846BDE8704001F035B800007027002093
:10E53000A81E002000F005BA08B513889B000093C0
:10E540006B4600F07FF908BD002300F07BB938B5B9
:10E5500005460024204609E08178284600F0A0F80E
:10E5600010B1052800D003240098401C0090694693
:10E57000284602F089FA0028EED134B9284600F086
:10E58000E4F910B1072802D00324204638BD07243F
:10E59000FBE71346002200F089B900002DE9F0479F
:10E5A0005FEA030815460E46824604D0072E05D0C2
:10E5B000082E17D102E00E20BDE8F08795B1022D9C
:10E5C00010D8504600F0CCF960B14FF00009314648
:10E5D000504602F03FFA041E15D0207BA8421DD2FF
:10E5E0004F460AE04FF00700E6E7607B3844C1B2CF
:10E5F0002A4800F0EFFB7F1CFFB2207BB842F4D822
:10E60000204602F055FA5746FF214FF6FF7002F000
:10E6100021FA041E14D00780A6700DE00CD9EFB2C9
:10E6200007E0607B3844C1B21C4800F0D3FB7F1C7C
:10E63000FFB2207BB842F4D8607BFF2802D00AE00A
:10E640001120B9E72946154800F062FB6073FF28E6
:10E6500013D04FF001092573617B104800F0A6FB31
:10E6600002000ED0ABB23146404600F00FFAB9F1CD
:10E67000000F11D0082E06D00EE0204602F018FA46
:10E68000DEE7032098E7B8F800006FF0050101EB22
:10E690008000D8F80410888000208DE760270020D3
:10E6A00070B5002402F0D6F905000BD0686820B1DF
:10E6B00000F06FF9040000D00324284602F008FAA5
:10E6C000204670BD052070BD70B515460C46072963
:10E6D00003D0082C01D0072070BD02F0BBF928B18F
:10E6E00005808470BDE8704002F066B9052070BDF9
:10E6F0007CB50D46072903D0082D01D007207CBD2D
:10E70000002602F0A7F9040002D0606810B11CE0F6
:10E7100005207CBD617B0F4800F048FB02004FF0F4
:10E720000000009001908DF8025010D0237B294604
:10E73000684600F03DF9684602F02CF9211D684654
:10E7400000F010F90646092801D030467CBD0320B0
:10E750007CBD0000602700204FF6FF714180014919
:10E76000096808477C0E020030B587B01748FCF7EF
:10E7700061FC10B1032007B030BDFCF779FB08B194
:10E780008620F8E700F0D4F9002002904CF207044C
:10E7900003900EE0694604A8FCF716FC00988088F8
:10E7A000A0F5404085B204A8FCF7CEFB284600F057
:10E7B0007BF902AA04A92046FCF7EDFB0028E9D06A
:10E7C0000349012008700020D5E7000019AD0100C1
:10E7D0009C1E002000F08EB900F092B970B586B092
:10E7E00014460E46054600F041F940B105F540409B
:10E7F00080B20F4A6946FCF7CEFB40B902E0012027
:10E8000006B070BD03A96846FCF7DEFB08B1002026
:10E81000F6E7A5700398408820800498606003980C
:10E820008088A0F5404030806846FCF78DFBE6E725
:10E83000A01E002002480021416081607047000056
:10E840009C1E0020F0B587B01D46144607460E46B4
:10E85000FF280AD8084600F009F930B103AA31466A
:10E86000384600F0EBF840B902E0072007B0F0BDF1
:10E8700001A903A8FCF7A8FB08B10520F6E7A670DC
:10E8800001984088208045B18200286890420BD3CF
:10E8900002996068F9F7A2FE01E00298606003A89F
:10E8A000FCF752FB0020E1E70420DFE77FB586B0EC
:10E8B0001E460D460446FF282AD8A87800F0D6F850
:10E8C00030B304F54040ADF80000A87803AA00F585
:10E8D0004040ADF802006868019028880290A9784D
:10E8E000204600F0ABF80528089813D010B108A80E
:10E8F000FCF7D0FB694603A8FCF78AFBB0B10728F8
:10E900001DD0082819D00E2817D003200AB070BDDA
:10E910000720FBE728B108AA694603A8FCF783FB98
:10E92000ECE7694603A8FCF77AFBE7E71EB131463E
:10E9300003A8FCF740FB0020E8E71120E6E786206B
:10E94000E4E74FF6FF7000F0AFB810B5FF2801D92B
:10E95000072010BD00F0AEF800F02EF8002010BD2A
:10E9600000F0FAB870B504460D46807800F07EF8E5
:10E9700058B121882846FCF775FB002804D00728E9
:10E9800005D0092800D0032070BD072070BD862067
:10E9900070BD01B56846FCF77DFB002800D0032060
:10E9A00008BD00000149C978FAF762BFC01E002007
:10E9B0009BB200F06BB80000F0B58BB000264FF6AC
:10E9C000FF7701963846029603E0204600F084F86F
:10E9D000204600F08FF80446B84208D004F54040C5
:10E9E00080B201AA03A9FCF7DEFA0A28EDD0114D86
:10E9F000A878002819D1BC4217D0012704F540405F
:10EA0000AF7080B2FCF7F4F9082810D000280CD0C1
:10EA1000AE7005461422084906A8F9F7DFFDADF8E7
:10EA20001C4006A80895FFF797FE0BB0F0BD6F706D
:10EA3000FBE700009C1E0020800E02007CB505460E
:10EA400016460C46084600F011F80020009005F527
:10EA50004045019004F54044A8B2A1B26B4632464D
:10EA6000FCF792FA002800D005207CBD07280BD0C7
:10EA7000012809D0082807D0052805D0062803D08A
:10EA8000042801D0002070470120704710B503EB27
:10EA900083034FF6FF7404EA03138170DB1C9908AB
:10EAA0004260018010BD00000149FBF7A2BD0000DB
:10EAB0009027002010B50446A0F57F40FF3807D00E
:10EAC00004492046FBF795FDA04201D1012010BD6D
:10EAD000002010BDB027002010B50446044900F006
:10EAE00087FE03492046BDE81040203100F080BE7B
:10EAF000902700200149FDF779BD0000B0270020D4
:10EB000070B50A49FDF772FD04464FF6FF7507E040
:10EB100000F02CF838B105492046FDF767FD0446A2
:10EB2000AC42F5D170BD204670BD0000902700209A
:10EB300010B508484021F9F76AFD4FF4807421466A
:10EB4000044800F02DFA21460248BDE8104020306C
:10EB500000F026BA90270020FF2803D8014602487B
:10EB600000F04DBA0020704790270020FF2803D8FE
:10EB70000146024800F043BA00207047B027002049
:10EB800010B50C46FCF70CFDFF2804D0024900EB41
:10EB9000400021F8204010BDC02500201CB500F029
:10EBA000C9F908B1FAF796F90020009001909DF894
:10EBB000000020F07E0040F00100303020F08000A6
:10EBC0008DF8000007208DF8010010208DF802005C
:10EBD0009DF8030040F003008DF803009DF8040049
:10EBE00040F003008DF80400684600F06DFB08B1AA
:10EBF000FAF770F9034800F051FB002801D0FAF74A
:10EC000069F91CBD0DEE01002DE9F04196B00746F3
:10EC1000FAF720FE002836D06846FAF7E1FD002416
:10EC20002D4D54E0684600EB440039468688304656
:10EC3000FAF71EFE98B3E878874203D13046FDF715
:10EC400055FA43E0A878874235D123480021401C7B
:10EC500000F0ADF918B34FF000083046FCF75BFD4B
:10EC600001000CD0112911D0862919D0A1F54050EE
:10EC7000023802D0304601F011F8414607E0414623
:10EC80003046FDF767FA16B0BDE8F0810121304645
:10EC9000FDF760FA10480021401C00F0BCF915E0B7
:10ECA00014220E4911A8F9F799FCADF8466011A895
:10ECB000FBF7FAFFE1E72879874207D16979304607
:10ECC000FAF7D6FD10B9304601F046F8641C0098FA
:10ECD000A042A7D8D7E70000841E0020100E020033
:10ECE0000449084490F93000082801DB01207047EE
:10ECF00000207047302800200449084490F9300073
:10ED0000082801D2012070470020704730280020D9
:10ED10002DE9F0410F46060026D0306820B3706818
:10ED200010B3FF2400251CE02946706800F03FF96D
:10ED300048B1FF2C00D12C46281B401CB8420ED1F4
:10ED40002046BDE8F081FF2C06D108E02146304680
:10ED500000F040F8641CE4B2AC42F7D3FF246D1C11
:10ED6000EDB2B068A842DFD8FF20EAE72DE9F04114
:10ED70000400DDE90705069E16D0A9B1A3B100FB8A
:10ED800005F7974210D8C21DB6EBD20F0CD358B17D
:10ED900055B1E5602160C4E9013081B2184600F048
:10EDA000FFF80020BDE8F0810720FBE770B5040004
:10EDB0000D460DD0206858B1606848B1FF2D07D0CE
:10EDC00000F01DF920B1E168206805FB010070BD6D
:10EDD000002070BD70B504000D4611D020680028D9
:10EDE0000ED0606800280BD0FF2D09D000F007F985
:10EDF000002805D029466068BDE8704000F00BB9D6
:10EE000070BD002901D001F053B87047F8B5044631
:10EE10000078224D032610281ED2DFE800F0081DDE
:10EE2000101D1E1D253C1D3A1D3C313C1D362888F9
:10EE30001BA106EB0040BDE8F840FEF739BC608836
:10EE4000FAF7DEFC0246207A00902888638806EBF9
:10EE500000401EA1FEF73FFCF8BD00200090608836
:10EE60006946FFF7CEFFF8BDFBF7E4FF0E28FAD0A6
:10EE70000828F8D00028F6D0BDE8F840FAF72AB8FC
:10EE8000BDE8F8400020F9F749BFBDE8F84000F0C0
:10EE90007DB82069EEE7A068ECE7000004200020C0
:10EEA000436F6E6E656374656420746F20612070BB
:10EEB000726576696F75736C7920626F6E646564D4
:10EEC000206465766963652E00000000436F6E6EF6
:10EED000656374696F6E20736563757265643A204B
:10EEE000726F6C653A2025642C20636F6E6E5F68CC
:10EEF000616E646C653A20307825782C2070726FD2
:10EF00006365647572653A2025642E00FBF7DABEEE
:10EF100010B50446007828B90549608801220979AE
:10EF2000FAF7BCFC2046BDE81040FBF7CBBE000062
:10EF3000B01E002070B5FFF717FC18BBFFF796FA5C
:10EF400000BB00F0B7FFE8B901F0C6F8D0B9FCF794
:10EF500099FAB8B9FCF792FBA0B9FCF743FD88B960
:10EF6000094C4FF6FF700025E0801820A560207145
:10EF7000FAF75AFC2071182804D06570012020701F
:10EF8000002070BD032070BDB01E00200348007833
:10EF9000002801D0FCF79EBA70470000B01E002088
:10EFA000002803D0C91DC908F9F731BB70470028F4
:10EFB00009D001F0070301229A40D2B200EBD10040
:10EFC0001146FDF7CFB870472DE9F0410D46060018
:10EFD00013D0002401270EE004F0070007FA00F028
:10EFE000C1B206EBD400FDF7BDF810B12046BDE874
:10EFF000F081641CA4B2AC42EED32846F7E740B1DE
:10F0000000EBD10001F00702007801219140084097
:10F0100000D001207047F8B50400C1F3C70501F026
:10F0200007014FF0010000FA01F0C6B20FD0605D99
:10F0300030420CD000208DF800006846F9F7E6FF5A
:10F04000605DB04360559DF80000FAF703F8F8BD25
:10F050002DE9F041044686B001278088FCF790FC3A
:10F060006080207800263F4D082808D0092820D04D
:10F070004FF6FF780A2829D00B2853D158E0607A40
:10F0800010B1012809D04DE0A86830B1E168814293
:10F0900003D1AE60A088E88016E06878E8B3A08865
:10F0A000E98888423ED1207A06283BD100F056FA02
:10F0B00038E0607A88BBA86878B3E168814231D1D2
:10F0C000AE60E868401EE860E6602BE0A878E8B132
:10F0D0004046FFF7F1F94146404517D10846FFF792
:10F0E000E9F9404512D1AE7014216846F9F78FFA5C
:10F0F0000C208DF80000ADF80480ADF802800027E8
:10F100002046FBF7DFFD6846FBF7DCFD687838B189
:10F11000A088E988884203D100E003E000F01EFAED
:10F12000002F1CD006B02046BDE8F041FBF7CABD59
:10F13000A8780028F6D0AE7014216846F9F767FA6F
:10F140000D208DF80000ADF80480ADF80280A068B5
:10F1500002902046FBF7B6FD6846FBF7B3FD06B00C
:10F16000BDE8F081B01E00200349097809B1FCF721
:10F17000B5BC082070470000B01E00202DE9FF4FED
:10F180002A4883B09946007892468B46B8B14FF62C
:10F19000FF763046FFF790F9804600200090244823
:10F1A00001AA062100680190CDF808D04046FFF77B
:10F1B000C3F900256C1E3746072804D017E0082045
:10F1C00007B0BDE8F08F0520FAE700200090A842C4
:10F1D00001D305464746A04201D204464646404672
:10F1E000FFF76AF9804601AA0621FFF7A5F9D8B111
:10F1F0000528EAD0A8F57F41FF3901D00320DFE7D9
:10F200000399002001B10F80BBF1000F01D0CBF8B2
:10F210000050BAF1000F01D0AAF80060B9F1000F58
:10F22000CED0C9F80040CBE70098D0E7B01E002050
:10F23000A40E020070B5184E86B03078D0B101200F
:10F24000B0704FF6FF742046FFF736F90546A0422E
:10F250001DD10020B07014216846F9F7D8F90C20B0
:10F260008DF80000ADF80440ADF802406846FBF7A9
:10F2700029FD0EE0082006B070BD00BFFFF774FF47
:10F2800008B10320F7E72846FFF716F90546A5421F
:10F29000F4D10020EFE70000B01E0020084A1178EA
:10F2A00021B1D178032903D3042070470820704787
:10F2B000044B43F82100491CD17000207047000026
:10F2C000B01E0020D02700200349097809B100F0C2
:10F2D00037BE082070470000B01E002010B50400A3
:10F2E00012D02078022808D1207A01280AD00022E2
:10F2F000064960880979FAF7D1FA2046BDE810403E
:10F30000FBF7E0BC0122F3E710BD0000B01E0020B7
:10F3100010B50C46C17949B11AB109A12046FDF7D3
:10F3200057FD2046BDE81040FDF75FBD007A00287C
:10F33000F3D0044804A102682046FDF749FDECE73C
:10F340000D0A00007C1F00202573000070B50446E4
:10F35000C0790D4600281CD1207A50B1A179A0882F
:10F36000FEF788F80B4951F820200BA12846FDF73D
:10F370002FFDA0880021FEF745FA03460549A07934
:10F38000143951F820202846BDE8704003A1FDF74C
:10F390001FBD70BD7C1F0020257300003C25733EFF
:10F3A0002025733A200000000146054810B500688A
:10F3B000FDF74FF904461C21F9F729F9204610BD45
:10F3C000180F0200014602480068FDF763B900000B
:10F3D000180F0200F0B5274D274E87B004460027CE
:10F3E000686828B9234930680831FDF748F9686032
:10F3F00001460078072817D2DFE800F01604080855
:10F400000E0E12002046FCF7C7FB02E0204601F07A
:10F41000E9FB040028D008E02046FBF703FAF8E7F0
:10F420002046FBF7DBFEF4E70F2414216846F9F7CA
:10F43000EEF8A4F5E8501D3818D0019469466868C4
:10F44000FBF786FB6846FBF7BDFB0A496F60083196
:10F450003068FDF709F9074801210C3005AAF8F7D3
:10F4600019FF05980028BBD107B0F0BD0024019713
:10F47000E4E70000081F0020180F02002DE9F0410A
:10F48000214C0025214E207A012730B92048311D1A
:10F490000068FDF7F4F8306038B10220207231685E
:10F4A000087928B101281ED116E06560BDE8F08119
:10F4B000D1E90503C01A4FF48052904200D31046A0
:10F4C000B7EB900F01D2820800E001220869C968F9
:10F4D0001844194429DF03E0D1E90301084428DF77
:10F4E00038B111280ED003213068FBF77BFB257261
:10F4F000DBE7207C0028D9D1BDE8F04100210220C3
:10F50000FDF7E0BD2772D1E7582B0020381F0020FF
:10F51000400F020008B5064801216A46F8F7ADFE23
:10F52000002803D1BDE80840FFF754BF08BD000024
:10F53000141F002038B5084C0121201D6A46F8F739
:10F540001BFF0090002806D1607C002803D1BDE895
:10F550003840FFF793BF38BD582B0020084910B53D
:10F5600000231A46881FFFF709FE30B1052804D092
:10F57000002003490C39487010BD0120F9E7000054
:10F58000BC1E002010B510461A46F9F727F80020D7
:10F5900010BD0000F0B50746164885B04068002849
:10F5A0001DD0154E002400BF06EB0415A87B810773
:10F5B00001D4384219D0284601F0FEF9A8B14FF61F
:10F5C000FF71ADF802102988ADF80410862808D024
:10F5D00007218DF8001002906846FEF739FF05B04C
:10F5E000F0BD06208DF80000F6E7641C022CDBD38A
:10F5F000F5E70000A81E0020702700202DE9F04745
:10F6000007461E481C46154600780E4670B185B167
:10F610007CB1DFF86C804FF00009A08802282BD263
:10F6200000EB800118F8210010BB19E00220BDE8B2
:10F63000F0870520FBE720681FB181883A88914256
:10F640000ED11EB101883288914209D180682860AC
:10F65000206868600A482830008928810020E6E791
:10F66000A088214600F05EF80028E4D1C4F800909C
:10F67000A088401CA080D0E70A20D8E7281F0020DF
:10F68000842A0020F8B505464068244F0C46002621
:10F6900048B32349CA68824225D80969814222D3E6
:10F6A000FCF796FBF8B12889398988421BD1D5E946
:10F6B00000018A68904216D10020A7F1280200BFFD
:10F6C00000EB800302EB83035B688B4205D203F5FA
:10F6D00080538B4201D9208011E0401C80B2022867
:10F6E000EED30020F8BD268000960AE00098296835
:10F6F0008068884205D10098686038892881012097
:10F70000F8BD2088694600F00DF80028EED1208869
:10F71000401C80B220800228E6D3E2E7AC2A002019
:10F72000A81F002070B50E4600EB8001134800EBC7
:10F7300081004468306804F5805518B1418800EBB9
:10F74000810411E0083410E029462046FCF75CF8FB
:10F7500020B1012805D0022807D10DE00120346036
:10F7600070BD608804EB80040C3429462046FCF709
:10F770005EF80028E8D170BD002070BD842A00200A
:10F7800038B50C460021009101460423074A084879
:10F79000FDF7EAFC08B10E2038BD064A04EB8401EF
:10F7A00002EB810101200874002038BD1C0F02000B
:10F7B000A81F0020842A002070B50C4B00210A4AA3
:10F7C000DC680DE002EB81058678AD78B54206D1A4
:10F7D00032F821500688B54201D1586870BD491CE5
:10F7E000A142EFD3002070BDA8220020741E00208B
:10F7F0000A46FF2803D801461046FFF70CBC7047A5
:10F800000846704770B5012670044FF0E0210025CE
:10F81000C1F88001084C4010C4F84803C4F808033C
:10F8200066602F20FDF744F8A660044C2F20A560E9
:10F83000FDF73EF8A57070BD00100140F41E0020D9
:10F840001FB501238DF800308DF808100192D0E922
:10F850000012684690471FBD70B50D460446F9F783
:10F86000FFF970B12846F9F70DFA68B16807000E84
:10F87000002C0CDA04F00F0101F1E02181F8140DE5
:10F8800009E042F2010070BD42F2020070BD04F1D5
:10F89000E02484F80004002070BD000038B5002189
:10F8A000012558B101280ED003280BD107210020D3
:10F8B000FDF77EF8BDE83840FDF764B84FF0E02072
:10F8C000C0F8805138BD8DF800106846F9F79EFBEE
:10F8D000064C207808B9FDF731F8E068401CE0607C
:10F8E000A5709DF80000F9F7B5FB38BD1C28002075
:10F8F0003EB5044609496846FEF724FA08E000BF11
:10F90000D0E900212046904730B16846FEF731FA31
:10F9100002980028F4D13EBD11203EBDC81002005F
:10F920003EB5044608496846FEF70CFA07E000BFFA
:10F93000D0E90021204690476846FEF71AFA02985F
:10F940000028F5D13EBD0000D410020070B500289B
:10F95000049D18D0002916D0002A14D05FF00004AE
:10F9600030F814609E420FD100200123A34008E02C
:10F9700001EB800426680DB11E4300E09E43401C4D
:10F9800026609042F4D370BD641C202CE8D370BD77
:10F9900070B5054600242146284600F00AF808B153
:10F9A000204670BD641CA4B2202CF4D34FF6FF7027
:10F9B00070BD01228A40024201D001207047002020
:10F9C000704730B40B4660B1002130F811409442CA
:10F9D00004D130BC89B21846FFF7EBBF491C20297F
:10F9E000F3D330BC002070472DE9F04192B080463F
:10F9F0004FF0000017460D00009012D000246E4614
:10FA0000A1B23846FFF7D5FF40B1009935F8140090
:10FA100006EB410188800098401C0090641C202C5B
:10FA2000EED3442269464046F8F7D8FD12B0BDE84F
:10FA3000F08108B5009313460122FFF787FF08BD48
:10FA40002DE9FC4104460C3000278046FCF76AF89B
:10FA50004FF6FF750646A842208803D1FCF752F8FE
:10FA6000064602E03146FCF737F8208800220121E3
:10FA700000F0C6F8AE4212D06A4607213046FEF7C3
:10FA800063FD60B9019D95F844003435C00705D188
:10FA9000414605F11200FCF70AF800B12F46002399
:10FAA00020881A46394686DF05000BD000232088BF
:10FAB0001A46314600F088F82088294600F002F9FD
:10FAC000BDE8FC81002FFBD1002320881A46314677
:10FAD00000F07AF82088002241F20601FBF70CF8CA
:10FAE000EEE700002DE9FC411D46089C16460F4636
:10FAF000804644B16B46012207213846FEF74EFD91
:10FB0000112801D010B10320BDE8FC8150210198DB
:10FB1000F8F77DFD019806700198E56034302060AB
:10FB20000198183020610198401C60610748E0612D
:10FB3000019940461131FBF7A7FE0028E3D10721C8
:10FB40003846FEF7D5FD0528DDD0DDE7DC270020AF
:10FB5000002835D00278910701D411062FD4C2F3C2
:10FB6000021104292BD8930703D5032901D11106CB
:10FB700025D5437881788B4221D8072B1FD31029B4
:10FB80001DD8C1784B071AD40079430717D40B0747
:10FB900015D4030713D4D2074FEAC17201D042B182
:10FBA0000FE062B989070AD4C10708D1800706D4DB
:10FBB00007E0890705D4C10703D1800701D40020DD
:10FBC000704701207047000070B50C4605466AB1C9
:10FBD000002B12D009480122C1782846F9F75EFEB1
:10FBE00021462846BDE87040FBF776BF002B04D0C5
:10FBF000BDE870400846FBF771BF70BDC01E002015
:10FC0000F0B5174D14460F460A4685B006462978CA
:10FC1000F9F744FE002F1FD00CB1012200E00022B2
:10FC200069783046F9F73AFE012C17D00022A978FE
:10FC30003046F9F733FE0022E9783046F9F72EFE18
:10FC4000142208496846F8F7C9FCADF802608DF83F
:10FC500008406846FBF74CF805B0F0BD0122E6E726
:10FC6000C01E0020B80E020010B586B00446142154
:10FC70006846F8F7CCFC04208DF80000ADF802408F
:10FC80006846FBF735F806B010BD000002498969E7
:10FC9000002900D008477047D421002030B585B036
:10FCA0000C460546142206496846F8F797FCADF85D
:10FCB000025068460294FAF7F7FF05B030BD000025
:10FCC000FC0D020030B585B00C46054614220649ED
:10FCD0006846F8F783FCADF8025068460294FBF7DB
:10FCE00007F805B030BD0000CC0E020010B5084C7E
:10FCF0000020D2B22070201DFCF7B6FF08B1F9F742
:10FD0000E9F86078002802D021780029FAD010BDE7
:10FD1000401F00207CB50E490E4C0022D1E90001A5
:10FD2000CDE900016946A088FEF733FC4FF6FF7568
:10FD300007E00846FEF7C0FBA08000226946FEF7F8
:10FD400028FCA188A94201D01128F2D17CBD000075
:10FD5000500E0200901E002070B586B006460125A8
:10FD60000024FBF735FD112812D005DCF0B1062880
:10FD700028D0082808D125E0A0F54051023907D045
:10FD8000A1F54071FF3924D001463046FFF786FFC8
:10FD90002A46124D30462979F9F780FD697906B077
:10FDA00022463046BDE87040F9F778BD14220C4970
:10FDB0006846F8F713FCADF8026001246846FAF7CC
:10FDC00073FFE5E700253046FBF79CFEFBF748FC98
:10FDD000DEE73046FCF78AF9DAE70000841E0020EF
:10FDE000240E02002DE9F0410746806A1446884639
:10FDF000C8B3002531E000BFB96A05EB450001EB4F
:10FE00008006B088801CFE2802D90C20BDE8F08155
:10FE10002288401C08F8020020881622401C80B26C
:10FE2000208008F800202088401C80B2208000EB51
:10FE30000801308800F054FC2188084480B22080FA
:10FE4000B28842B1B16871B14044F8F7C7FB20886D
:10FE5000B188084420806D1CEDB297F82C00A842B0
:10FE6000CAD80020D2E7FFE70720CFE7F9F732B87A
:10FE700010B50020FAF7D8F908B1F9F72BF8FAF71E
:10FE8000DBF808B1F9F726F832DF002803D0BDE827
:10FE90001040F9F71FB810BD10B500F09BF80348EB
:10FEA0004078BDE81040FCF777B80000C81E00207D
:10FEB00000F00AB910B51148FBF723F90F48401CB0
:10FEC000FBF71FF90D48801CFBF71BF90B48C01C02
:10FED000FBF717F90948001DFBF713F90748401D08
:10FEE000FBF70FF90548401E8179182903D001213D
:10FEF000C171002010BD032010BD0000C91E0020EC
:10FF000010B500780D4C0A280FD004DC08280CD05E
:10FF1000092812D109E00B2807D013280DD1A079A8
:10FF2000FEF762FAA078FCF737F86079FEF75CFA22
:10FF30006078BDE81040FCF72FB810BDC81E002047
:10FF400070B50B4C05004FF001060CD0FFF700FE1A
:10FF500058B1286820612879207504F11000A0604C
:10FF60002670002070BD0020F9E7072070BD00005A
:10FF7000C81E002010B504460078052802D01228BB
:10FF800021D105E06088A168BDE8104000F060B9AB
:10FF90000F480021806880B10D48237A1030007826
:10FFA00000F0010203B101239A4206D3627AC0F342
:10FFB000400002B10122904200D201216088012359
:10FFC0000022FBF749FF2046BDE81040FAF79EBE2D
:10FFD000C81E002030B50446008885B014284FD0D4
:10FFE0000ADC11282CD0132828D134F8040FF9F793
:10FFF00007FC01282FD038E0192847D01A281DD136
:020000040002F8
:10000000A088FEF7EBF9002818D1A088F9F7F0FBDB
:100010000028A0884BD02A4900220978F9F73EFC35
:1000200002208DF80000A088ADF8020000208DF8B5
:1000300008008DF809006846FAF75AFE05B030BD91
:10004000207A3D2804D04FF48851A088002224E073
:1000500041F23D01F9E72079C00701D0012200E01B
:10006000022220880121FFF7CBFD34F8045B142223
:1000700014496846F8F7B2FAADF802500294DAE78C
:1000800005B0201DBDE83040FFF7DABC217A201D05
:1000900041B14279008802F0030205B0BDE830406A
:1000A000FBF734BF05B0BDE83040F9F731B805B013
:1000B0000122BDE8304041F20601FAF71DBD000003
:1000C000C01E0020F40E02000A7802490979F9F7EF
:1000D000E5BB0000C01E002010B51448FBF708F86F
:1000E0001248401CFBF704F81048801CFBF700F88E
:1000F0000E48C01CFAF7FCFF0C48001DFAF7F8FF89
:100100000A48017818290FD0417818290CD0817835
:10011000182909D0C178182906D00179182903D0E7
:1001200001214171002010BD032010BDC01E002020
:1001300070B50C460546F9F763FB012802D043F27F
:10014000020070BD21004FF00000FAD028467EDF8B
:1001500070BD00002DE9F74F8AB0924688460A9894
:10016000F9F74EFB06464FF6FF7900244D46274629
:100170000A98FEF717FC8346202101A8F8F747FAF2
:10018000012E01D0DEB105E02F48002201790A9846
:10019000F9F784FBB8F1000F16D098F80000C007FB
:1001A00014D00A98FBF7AEFC0546484516D1FEF779
:1001B000C1F9054648450ED04FF0010B0CE043F263
:1001C00002000DB0BDE8F08F852721E01F48CDF873
:1001D00010A008901CE003246CB121E0012E0AD18C
:1001E0000A98F8F7EBFD30B90A98FFF73DFD0A9839
:1001F000F8F7E4FD50B101A8009053463246294675
:100200000A98FFF76FFC040002D009E0852712E08E
:10021000012E10D001AB002239460A987FDF044638
:1002200054EA07000DD000225B4629460A98FFF7E2
:10023000CBFC2046C5E701AB424639460A987FDF32
:10024000EDE70122F0E70000C01E0020DC270020BF
:100250003EB505460C466846FCF7BEF96A4621469F
:100260002846FEF7E0F809480099C2682846FFF7DB
:1002700071FF0446014601222846FAF74BFF21464A
:100280002846009AFAF7D5FC3EBD0000C81E0020A3
:10029000002801D1FAF7CAB97047000010B516203E
:1002A000F8F7DEFC48B10A4882684FF4800152B189
:1002B000016821F48001016010BDBDE8104042F2E8
:1002C0000100F8F707BE4FF0E020C0F8801110BD24
:1002D000D029002010B51620F8F7C2FC80B10F48D5
:1002E00090F800044009F8F7CDFC60B10C48826832
:1002F0004FF480016AB1016841F48001016010BDD2
:1003000042F2010001E042F20200BDE81040F8F7BD
:10031000E1BD4FF0E020C0F8001110BD16E000E094
:10032000D02900202DE9F843214C88460546914606
:100330001F4669461846A668FAF7B0F870B30098E9
:10034000811C00220AE000BF01EA060C59F82230A5
:1003500004EB8C0C491C521CCCF80C30BA42F3D381
:100360000246401C304004EB80002B0CC36002EAC4
:10037000060004EB8002E80652F80C0F02D540F0AC
:10038000040001E020F0040065F3C50067F3891064
:1003900068F39F2020F00300401C106094F81C04B8
:1003A00002E000BFFDF78CF80028FBD1BDE8F88320
:1003B0007C2C00202DE9F84F1D4C00256846D4E91F
:1003C00001A6FAF779FB002738B30023009A616889
:1003D0001CE0D1F800C00846944503D9ACEB0202FA
:1003E0000A6015E0A2EB0C0263440760D0F80CC071
:1003F000C1698146BCF1000F08D006EB030828F064
:100400007F48C0E9018CC9F81C5005460029E0D19D
:1004100028466160FBF7EEFD03E02846FBF7EAFDA6
:1004200010B15046FAF716F9E770BDE8F88F0000F2
:10043000F41E00200D4B10B5596831B102680C68EC
:10044000A24204D8A21A0A60C161586010BD0B46CE
:1004500003E00B46C969121B21B10C689442F8D322
:10046000A41A0C600260C161D86110BDF41E0020A6
:100470002DE9F041144E77683D462C4603E0844256
:1004800004D02546E469002CF9D11BE0D4B1A54283
:100490000BD1F869706040B90C49012088600021D7
:1004A000B160F0702F20FCF703FA2168E069E86181
:1004B00010B10268114401607068874202D00120C7
:1004C000BDE8F0810020FBE7F41E00200010014091
:1004D0007CB5064600240D468DF800406846F8F7C6
:1004E00095FD01A800F0ACF970B1057009494660AE
:1004F0009DF8040048709DF80000F8F7ABFD14204B
:10050000F8F7D2F920467CBD04249DF80000F8F7E6
:10051000A1FDF7E7C42800202DE9F041194D6C68D2
:10052000002C2CD0184800270068A968B846401A4B
:1005300020F07F462068B0420CD82146361A074486
:10054000E469087C20B181F810808869496988478E
:10055000002CEFD129786878814206D1401CC0B2C6
:100560006870022801D185F80180064869780C304E
:1005700040F82170BDE8F0411420F8F795B9BDE8C6
:10058000F0810000F41E0020041501400149012003
:1005900008707047401F002010B588B00446202224
:1005A0000E496846F8F71AF806200090C01F01901F
:1005B000029003904FF0EB7006900CB1084A00E0F7
:1005C000002269460748FCF707FB08B1F8F782FCF0
:1005D0000448001F447008B010BD000080100200E5
:1005E0008D050200441F00202DE9FF410C464FF409
:1005F000927706463946FDF7F3FB0025C0B1394630
:100600003046FDF7F2FB02208DF80000D6F880049A
:10061000C6F880040390D6F83C058DF80800E06821
:100620000190E5752576D4E900126846904724E0EC
:100630004FF4887739463046FDF7D2FBE8B13946AA
:100640003046FDF7D2FBD6F83C05C1B2E07D8842CA
:1006500013D1207E60B1E268D6F8000220F02000BD
:10066000C6F80002207EE0752069E060257601E092
:10067000E575E2682046FFF7E3F84FF4A2773946C4
:100680003046FDF7ADFB68B139463046FDF7ADFBAE
:10069000E07D38B1E575D6F83C05E268C1B2204688
:1006A000FFF7CEF84FF4907739463046FDF798FBC8
:1006B000002813D039463046FDF797FBA07D00286F
:1006C0000CD0D6F84C058DF800508DF80800A068C5
:1006D0000190A575D4E9001268469047BDE8FF81F6
:1006E0000870000A487002207047000010B51421FD
:1006F0000448F7F78CFF04480068FBF78FFF0020E1
:1007000010BD0000582B0020400F02002DE9F05FC3
:100710008346DDE90A4A994690460D460846012778
:1007200003E000BFB0FBF8F07F1C4045FAD2B945AA
:1007300000D94F465FEACA7012D18CB15FEA8A7065
:1007400002D5B9F1000F01D0202607E0302605E0E0
:1007500031465846641EF9F7D3FE0CB1A742F7D3D1
:100760005FF00106B9F1010F02D9A9F1010903E017
:10077000B5FBF6F0404502D306FB08F6F2E7DFF8DA
:100780003C9000BFB5FBF6F000FB165519F80010C1
:100790005846F9F7B5FEB6FBF8F6002EF2D15FEA3F
:1007A000CA7009D0002C07D0A74205D22021584694
:1007B000641EF9F7A5FEF5E7BDE8F09F300F0200D3
:1007C000F8B5054680B2FBF74BFA040013D0154E7E
:1007D000207A0027317B88420ED2A8B204F10A01A8
:1007E00075DF28B1112806D0BDE8F840FFF74EBAF2
:1007F000207A401C2072F8BD2772307C38B1A8B234
:100800003B2176DF18B1082801D0FFF73FFA716964
:100810000029F0D08DF80070ADF802506846884786
:10082000F8BD0000D421002004490122824009685B
:10083000114201D00120704700207047F0210020B4
:100840000A494A788B78521CD2B2934200D10022D6
:100850000B78934201D1002070470270487800EB7A
:10086000400001EBC000001D70470000C4280020BC
:100870002DE9FC411646DDE90854CDE900541F4638
:100880008046022200F00CF8002807D1CDE9005480
:100890003B4610223146404600F002F8BDE8FC819C
:1008A0002DE9FC5F0026DDE90C4B994692468E4609
:1008B00080462788354630E0D8F80400002200EB57
:1008C000850069460068019001A864DF002830D1E6
:1008D0009DF8000050451FD10EB1002100E002211B
:1008E000228808441118594522D846B9521C90B2A2
:1008F000208009F800E02088401C20800126218803
:1009000001A801EB0902694664DF002811D12088A3
:100910009DF80010084420806D1CB8F80000A84223
:10092000CADC56B12088C01B401E80B2FF2802D905
:100930000C20BDE8FC9F09F807000020F9E7002023
:10094000704700002DE9F84F114D884681461E463C
:1009500017466946DDF828A02868FBF77AFE0400F0
:1009600013D01C21F7F753FE00202071C4F800902B
:10097000C4E90486C4E902A769462868FBF78AFE31
:10098000FEF7D8FD0020BDE8F88F0420FBE700004B
:10099000400F020082780121012A0BD0062A09D0DB
:1009A000072A06D0082A06D14168898809318908B2
:1009B00000E01421018070471CB50446002000901F
:1009C0000190A0788DF80200617B2048FEF7EEF9D7
:1009D000020022D0237BA1786846FDF7E9FF684634
:1009E000FFF7D8FF208804F1080369466268FDF725
:1009F0005DFF0246A17B16488B0704D5CB0702D0CA
:100A000043685B1E436052B1072A04D0112A09D003
:100A1000862A11D0032210461CBD03201CBD21F0E4
:100A2000030010E04268521C426021F0010040F0D7
:100A30000200A0730022EEE743685B1C436021F0D4
:100A4000020040F00100A073E5E7000060270020ED
:100A5000A81E002038B505460C46002001E000988D
:100A6000401C00906946284600F00EF800280AD085
:100A70008178A142F3D1817B8A07F0D4C907EED1F6
:100A800081680029EBD138BD10B5084B0A6809E030
:100A900003EB02142488844203D103EB02100A60A2
:100AA00010BD521C022AF3D3002010BD7027002075
:100AB0004FF6FF710180FF2181704173817B21F02E
:100AC0000301817300210173416081607047000060
:100AD00070B50546002406E0687B2044C1B2064894
:100AE000FEF778F9641C287BA042F5D82846BDE8BB
:100AF0007040FFF7DDBF0000602700202DE9FC47B4
:100B0000064636489846144600780D464FF00009D0
:100B100078B37DB32888A0F57F41FF3931D068884C
:100B200048B36868FBF754F968B374B32088ADF82C
:100B30000000678801A8FEF737FC04002FD084F876
:100B400000804FF0000A84F816A0BDF80000A082D3
:100B500068682061214801210C38FBF7ADFDE06099
:100B6000288820816888A080E780B8F1030F1DD015
:100B700020E001E003E004E00220BDE8FC8705205E
:100B8000FBE70420F9E70320F7E7FFE72889694638
:100B900087B2384600F0ACF80028EED1CAE7BDF8BD
:100BA0000010384600F098F80820E6E70420A07509
:100BB0003068A061A4F80A9001A8FEF703FC46B1D2
:100BC000C6F804A0E1680648316086F80AA00089EA
:100BD0003081FEF79FFC0020CFE70000281F002097
:100BE000AC2A00202DE9F8430D46898A374A01EBEB
:100BF000810102EB810630B1E9883046FDF700FB48
:100C00000120BDE8F88331897068002400EB81077A
:100C10002E48A97DA8384FF00E0807294ED2DFE8EC
:100C200001F00D2D162404404A004460A9690160BA
:100C300026482749A838FEF725FD30B10220A875BF
:100C4000042339462A1D009423E00A20D9E72869A5
:100C50002A4608B1032000E001209075042305F125
:100C60000C0207F10801009413E00120A87500941C
:100C7000E88807F10C0183002A690AE028782A46EF
:100C800003280CD006209075042305F10802391DB5
:100C900000941048FCF768FAA8B144460FE005201C
:100CA000F1E70621A9750A4940680988FEF768FD41
:100CB000040004D107E041F61D5400E00F24E98848
:100CC0003046FDF79DFA20469BE70000842A00206D
:100CD000081F0020A81F002001EB8102034901EB3F
:100CE00082014A89101AC01E48817047842A002058
:100CF00070B5C01C82B240F2FE30824201D309209E
:100D000070BD114B00204FF4806500BF00EB8004E4
:100D100013F8246096B903EB840634897689144469
:100D20003444A4B2AC4209D2088000EB800003EB4B
:100D30008000418911444181002070BD401C80B277
:100D40000228E3D3072070BD842A00201112131457
:100D50000D0E0F103421002054210020802100208E
:100D60000D00030059A001000E00030059A001006E
:100D70000F00030059A001001000030059A001005A
:100D80000100000000000000000000000000000062
:100D90000000000000000000000000000000000053
:100DA0000000000000000000000000000000000043
:100DB0000000000000000000000000000000000033
:100DC0000000000000000000000000000000000023
:100DD0000000000000000000000000000000000013
:100DE0000000000000000000000000000000000003
:100DF00000000000000000000000000007000000EC
:100E000000000000000000000000000000000000E2
:100E100006000000000000000000000000000000CC
:100E200000000000100000000000000000000000B2
:100E300000000000000000001100000000000000A1
:100E400000000000000000000000000001000000A1
:100E5000010001004C0E020001000100600E0200C2
:100E60000000000011EF010055B40100770A0000F6
:100E700000000000770A000000000000BDE401004F
:100E8000070000000000000000000000000000005B
:100E90000000000051F0010001FF010099B70100BE
:100EA00025B501000100000000000000010006005F
:100EB000BC1E002075FF01000100000000000000C2
:100EC000000000000000000000000000070000001B
:100ED0000000000000000000000000000000000012
:100EE00003000000000000000000000000000000FF
:100EF00000000000050000000000000000000000ED
:100F00000000000000000000DDF2010000000050C1
:100F1000A428002003000000BC2A00200000FFFFDE
:100F2000DEC0ADDEFF011EF1DEC0ADDEFE011EF152
:100F3000303132333435363738394142434445460F
:100F40006C2B0020001000000400000001000000D5
:100F500061BB0100ED06020085F5010045090200B4
:100F600005AB010001F801003F0902001DBD0100B1
:100F7000556E6B6E6F776E206572726F7220636F45
:100F80006465000000000000401502000100000040
:100F900000140200020000008012020003000000A2
:100FA0007414020004000000C814020005000000D0
:100FB000C0130200060000006013020007000000DA
:100FC000B014020008000000D41302000900000061
:100FD000201402000A000000281502000B00000087
:100FE000681202000C000000EC1302000D0000006B
:100FF0004C1502000E000000A01402000F000000BB
:10100000DC140200100000001015020011000000A6
:101010006015020080000000A013020081000000A3
:101020002413020082000000E4120200830000008A
:10103000C4120200840000000013020085000000BA
:10104000781302008600000088140200900000005F
:101050004013020091000000A41202000082000070
:10106000F0140200018200003C1402000282000021
:10107000581402005DD4010045D401003BD40100A6
:10108000FFFFFFFFFFFFFFFFFFFFFFFFFFFFFFFF70
:1010900000000000000000000000D6010701000071
:1010A000601F0020581F0020601F0020BC2B002064
:1010B00018000000741802007C18020000000000F4
:1010C0000000000001000007B4100200C41002007C
:1010D00008000000EC100200FC10020008000000F4
:1010E000FC1002000C11020008000000A41802000D
:1010F000B418020000000000000000009418020074
:10110000A418020000000000000000002C180200DB
:101110003418020034180200641802006418020037
:101120006C1802006C18020074180200801B00206A
:101130000C1102002C110200080000007C180200B3
:101140008C1802008C180200941802003C11020056
:101150004C11020008000000004040404040404068
:10116000404041414141414040404040404040407A
:10117000404040404040404040050202020202021E
:10118000020202020202020202202020202020206D
:101190002020200202020202020290909090909081
:1011A000101010101010101010101010101010103F
:1011B00010101010020202020202888888888888B3
:1011C000080808080808080808080808080808089F
:1011D000080808080202020240000000591102003B
:1011E00073645F626C655F67617474635F65786385
:1011F00068616E67655F6D74755F72657175657343
:101200007428292072657475726E656420756E6528
:10121000787065637465642076616C7565203078DC
:1012200025782E0073645F626C655F676174747308
:101230005F65786368616E67655F6D74755F726521
:10124000706C7928292072657475726E65642075DA
:101250006E65787065637465642076616C75652071
:10126000307825782E0000004E52465F4552524F8E
:10127000525F494E56414C49445F4441544100003D
:101280004E52465F4552524F525F534F465444456B
:10129000564943455F4E4F545F454E41424C45448D
:1012A000000000004E52465F4552524F525F464585
:1012B00041545552455F4E4F545F454E41424C4557
:1012C000440000004E52465F4552524F525F4D550A
:1012D0005445585F554E4C4F434B5F4641494C4532
:1012E000440000004E52465F4552524F525F4D55EA
:1012F0005445585F4C4F434B5F4641494C45440071
:101300004E52465F4552524F525F4D555445585FBD
:10131000434F4E445F494E49545F4641494C454412
:10132000000000004E52465F4552524F525F4D55ED
:101330005445585F494E49545F4641494C45440025
:101340004E52465F4552524F525F4150495F4E4F99
:10135000545F494D504C454D454E544544000000A6
:101360004E52465F4552524F525F4E4F545F535557
:1013700050504F52544544004E52465F4552524FD2
:10138000525F4D4F44554C455F414C524541445985
:101390005F494E495449414C495A454400000000B8
:1013A0004E52465F4552524F525F4D4F44554C4549
:1013B0005F4E4F545F494E495449414C5A45440091
:1013C0004E52465F4552524F525F4E4F545F464F0A
:1013D000554E44004E52465F4552524F525F494E61
:1013E00056414C49445F5354415445004E52465F68
:1013F0004552524F525F444154415F53495A450050
:101400004E52465F4552524F525F5356435F4841DA
:101410004E444C45525F4D495353494E47000000DE
:101420004E52465F4552524F525F494E56414C49CB
:10143000445F4C454E475448000000004E52465F02
:101440004552524F525F4452565F5457495F45527E
:10145000525F414E41434B004E52465F4552524F00
:10146000525F4452565F5457495F4552525F444E53
:1014700041434B004E52465F4552524F525F494ED8
:101480005445524E414C00004E52465F4552524F19
:10149000525F53544F524147455F46554C4C0000F4
:1014A0004E52465F4552524F525F4E554C4C0000D3
:1014B0004E52465F4552524F525F494E56414C493B
:1014C000445F504152414D004E52465F4552524F8B
:1014D000525F4E4F5F4D454D000000004E52465F3B
:1014E0004552524F525F464F5242494444454E0086
:1014F0004E52465F4552524F525F4452565F5457C8
:10150000495F4552525F4F56455252554E000000BA
:101510004E52465F4552524F525F494E56414C49DA
:10152000445F4144445200004E52465F4552524F80
:10153000525F494E56414C49445F464C4147530027
:101540004E52465F53554343455353004E52465FF8
:101550004552524F525F54494D454F55540000007B
:101560004E52465F4552524F525F4255535900000A
:101570007761726E696E670064656275670000006E
:101580001B5B313B33306D001B5B306D0000000096
:101590001B5B313B33316D001B5B313B33326D00E4
:1015A0001B5B313B33336D001B5B313B33346D00D0
:1015B0001B5B313B33356D001B5B313B33366D00BC
:1015C0001B5B313B33376D00696E666F00000000B6
:1015D0006572726F7200000073645F626C655F63B6
:1015E00066675F73657428292072657475726E650D
:1015F00064202573207768656E20617474656D7052
:1016000074696E6720746F2073657420424C455F67
:1016100047415454535F4346475F534552564943ED
:10162000455F4348414E4745442E000073645F6266
:101630006C655F6366675F736574282920726574E3
:1016400075726E6564202573207768656E206174FD
:1016500074656D7074696E6720746F207365742093
:10166000424C455F434F4D4D4F4E5F4346475F569B
:10167000535F555549442E0073645F626C655F6328
:1016800066675F73657428292072657475726E656C
:1016900064202573207768656E20617474656D70B1
:1016A00074696E6720746F2073657420424C455FC7
:1016B00047415454535F4346475F415454525F542B
:1016C00041425F53495A452E0000000073645F6237
:1016D0006C655F6366675F73657428292072657443
:1016E00075726E6564202573207768656E2061745D
:1016F00074656D7074696E6720746F2073657420F3
:10170000424C455F434F4E4E5F4346475F47415013
:101710002E00000073645F626C655F6366675F73D1
:10172000657428292072657475726E65642025734E
:10173000207768656E20617474656D7074696E677A
:1017400020746F2073657420424C455F4741505FA1
:101750004346475F524F4C455F434F554E542E0012
:10176000626C655F64625F6469736300626C655F8D
:101770006761747400000000636C6F636B000000AD
:101780006770696F74650000756172740000000015
:1017900062616C6C6F630000617070006E72665FF6
:1017A000736468006E72665F7364685F626C650084
:1017B0006E72665F7364685F736F6300B4180200D3
:1017C000801B0020B4040000B08601000C19020048
:1017D000342000206C180000508C010060170200BB
:1017E000000003006C1702000000030078170200DD
:1017F00000000000801702000000000088170200AF
:10180000000000009017020000000000981702007E
:10181000000003009C17020000000300A417020050
:1018200000000300B017020000000300A59C0100A7
:10183000000000009DC701004C200020139501000E
:101840005C20002029990100881B0020399B0100A1
:1018500000000000A99B010000000000999D01000C
:1018600000000000139E010034200020419A010076
:10187000000000008DD00100000000009102020075
:1018800000000000C5D00100000000007B950100B1
:101890005C200020C5DB01000000000009DD010024
:1018A000000000009DF8010000000000A5D001002C
:1018B000000000004104FF02180101FF01CD0338C0
:1018C000FFFF04310DEF012A18017909390A01726D
:1018D00012204240041D74100214D015021A700424
:1018E0001AC8041A78041A88041A80041A90041A70
:1018F00098041AA0041AA8041AB0041AB8041AC04A
:0C19000004518490D003048169B10100FF
:040000050001820173
:00000001FF
