Component: ARM Compiler 5.06 update 6 (build 750) Tool: armlink [4d35ed]

==============================================================================

Section Cross References

    dfu-cc.pb.o(.constdata) refers to dfu-cc.pb.o(.constdata) for dfu_hash_fields
    dfu-cc.pb.o(.constdata) refers to dfu-cc.pb.o(.constdata) for dfu_init_command_is_debug_default
    dfu-cc.pb.o(.constdata) refers to dfu-cc.pb.o(.constdata) for dfu_init_command_fields
    dfu-cc.pb.o(.constdata) refers to dfu-cc.pb.o(.constdata) for dfu_reset_command_fields
    dfu-cc.pb.o(.constdata) refers to dfu-cc.pb.o(.constdata) for dfu_command_fields
    dfu-cc.pb.o(.constdata) refers to dfu-cc.pb.o(.constdata) for dfu_command_fields
    dfu-cc.pb.o(.constdata) refers to dfu-cc.pb.o(.constdata) for dfu_signed_command_fields
    dfu_req_handling.o(i.dfu_decode_commmand) refers to pb_decode.o(i.pb_istream_from_buffer) for pb_istream_from_buffer
    dfu_req_handling.o(i.dfu_decode_commmand) refers to pb_decode.o(i.pb_decode) for pb_decode
    dfu_req_handling.o(i.dfu_decode_commmand) refers to nrf_dfu_settings.o(.bss) for s_dfu_settings
    dfu_req_handling.o(i.dfu_decode_commmand) refers to dfu_req_handling.o(.bss) for .bss
    dfu_req_handling.o(i.dfu_decode_commmand) refers to dfu_req_handling.o(i.pb_decoding_callback) for pb_decoding_callback
    dfu_req_handling.o(i.dfu_decode_commmand) refers to dfu_req_handling.o(.data) for .data
    dfu_req_handling.o(i.dfu_decode_commmand) refers to dfu-cc.pb.o(.constdata) for dfu_packet_fields
    dfu_req_handling.o(i.dfu_handle_prevalidate) refers to nrf_dfu_handling_error.o(i.ext_error_set) for ext_error_set
    dfu_req_handling.o(i.dfu_handle_prevalidate) refers to nrf_crypto_sw_hash.o(i.nrf_crypto_hash_compute) for nrf_crypto_hash_compute
    dfu_req_handling.o(i.dfu_handle_prevalidate) refers to memcpya.o(.text) for __aeabi_memcpy
    dfu_req_handling.o(i.dfu_handle_prevalidate) refers to micro_ecc_lib_ecdsa.o(i.nrf_crypto_ecdsa_verify_hash) for nrf_crypto_ecdsa_verify_hash
==============================================================================

Removing Unused input sections from the image.

    Removing dfu_req_handling.o(.rev16_text), (4 bytes).
    Removing dfu_req_handling.o(.revsh_text), (4 bytes).
    Removing dfu_req_handling.o(.rrx_text), (6 bytes).
    Removing main.o(.rev16_text), (4 bytes).
    Removing main.o(.revsh_text), (4 bytes).
    Removing main.o(.rrx_text), (6 bytes).
    Removing main.o(i.nrf_dfu_button_enter_check), (24 bytes).
    Removing boards.o(.rev16_text), (4 bytes).
    Removing boards.o(.revsh_text), (4 bytes).
    Removing boards.o(.rrx_text), (6 bytes).
    Removing boards.o(i.bsp_board_button_idx_to_pin), (12 bytes).
    Removing boards.o(i.bsp_board_button_state_get), (32 bytes).
    Removing boards.o(i.bsp_board_buttons_init), (36 bytes).
    Removing boards.o(i.bsp_board_led_idx_to_pin), (12 bytes).
    Removing boards.o(i.bsp_board_led_invert), (36 bytes).
    Removing boards.o(i.bsp_board_led_off), (16 bytes).
    Removing boards.o(i.bsp_board_led_on), (16 bytes).
    Removing boards.o(i.bsp_board_led_state_get), (32 bytes).
==============================================================================

Image Symbol Table

    Local Symbols

    Symbol Name                              Value     Ov Type        Size  Object(Section)

    ../clib/microlib/init/entry.s            0x00000000   Number         0  entry2.o ABSOLUTE
    ../clib/microlib/init/entry.s            0x00000000   Number         0  entry9b.o ABSOLUTE
    ../clib/microlib/init/entry.s            0x00000000   Number         0  entry7b.o ABSOLUTE
    ../clib/microlib/init/entry.s            0x00000000   Number         0  entry9a.o ABSOLUTE
    ../clib/microlib/init/entry.s            0x00000000   Number         0  entry5.o ABSOLUTE
    ../clib/microlib/init/entry.s            0x00000000   Number         0  entry8b.o ABSOLUTE
    ../clib/microlib/init/entry.s            0x00000000   Number         0  entry.o ABSOLUTE
    ../clib/microlib/init/entry.s            0x00000000   Number         0  entry8a.o ABSOLUTE
    ../clib/microlib/init/entry.s            0x00000000   Number         0  entry11b.o ABSOLUTE
    ../clib/microlib/init/entry.s            0x00000000   Number         0  entry7a.o ABSOLUTE
    ../clib/microlib/init/entry.s            0x00000000   Number         0  entry11a.o ABSOLUTE
    ../clib/microlib/init/entry.s            0x00000000   Number         0  entry10b.o ABSOLUTE
    ../clib/microlib/init/entry.s            0x00000000   Number         0  entry10a.o ABSOLUTE
    ../clib/microlib/longlong.c              0x00000000   Number         0  llshl.o ABSOLUTE
    ../clib/microlib/string/memcmp.c         0x00000000   Number         0  memcmp.o ABSOLUTE
    ../clib/microlib/string/memcpy.c         0x00000000   Number         0  memcpyb.o ABSOLUTE
    ../clib/microlib/string/memcpy.c         0x00000000   Number         0  memcpya.o ABSOLUTE
    ../clib/microlib/string/memset.c         0x00000000   Number         0  memset.o ABSOLUTE
    ../clib/microlib/string/memset.c         0x00000000   Number         0  memseta.o ABSOLUTE
    ../clib/microlib/string/strlen.c         0x00000000   Number         0  strlen.o ABSOLUTE
    ..\..\..\..\..\components\ble\common\ble_srv_common.c 0x00000000   Number         0  ble_srv_common.o ABSOLUTE
    ..\..\..\..\..\components\boards\boards.c 0x00000000   Number         0  boards.o ABSOLUTE
    ..\..\..\..\..\components\drivers_nrf\clock\nrf_drv_clock.c 0x00000000   Number         0  nrf_drv_clock.o ABSOLUTE
    ..\..\..\..\..\components\drivers_nrf\common\nrf_drv_common.c 0x00000000   Number         0  nrf_drv_common.o ABSOLUTE
    ..\..\..\..\..\components\drivers_nrf\hal\nrf_nvmc.c 0x00000000   Number         0  nrf_nvmc.o ABSOLUTE
    ..\..\..\..\..\components\drivers_nrf\rng\nrf_drv_rng.c 0x00000000   Number         0  nrf_drv_rng.o ABSOLUTE
    ..\..\..\..\..\components\libraries\atomic_fifo\nrf_atfifo.c 0x00000000   Number         0  nrf_atfifo.o ABSOLUTE
    ..\..\..\..\..\components\libraries\bootloader\ble_dfu\nrf_ble_dfu.c 0x00000000   Number         0  nrf_ble_dfu.o ABSOLUTE
    ..\..\..\..\..\components\libraries\bootloader\dfu\nrf_dfu.c 0x00000000   Number         0  nrf_dfu.o ABSOLUTE
    ..\..\..\..\..\components\libraries\bootloader\dfu\nrf_dfu_flash.c 0x00000000   Number         0  nrf_dfu_flash.o ABSOLUTE
    ..\..\..\..\..\components\libraries\bootloader\dfu\nrf_dfu_handling_error.c 0x00000000   Number         0  nrf_dfu_handling_error.o ABSOLUTE
    ..\..\..\..\..\components\libraries\bootloader\dfu\nrf_dfu_mbr.c 0x00000000   Number         0  nrf_dfu_mbr.o ABSOLUTE
    ..\..\..\..\..\components\libraries\bootloader\dfu\nrf_dfu_settings.c 0x00000000   Number         0  nrf_dfu_settings.o ABSOLUTE
    ..\..\..\..\..\components\libraries\bootloader\dfu\nrf_dfu_settings_svci.c 0x00000000   Number         0  nrf_dfu_settings_svci.o ABSOLUTE
    ..\..\..\..\..\components\libraries\bootloader\dfu\nrf_dfu_svci.c 0x00000000   Number         0  nrf_dfu_svci.o ABSOLUTE
    ..\..\..\..\..\components\libraries\bootloader\dfu\nrf_dfu_svci_handler.c 0x00000000   Number         0  nrf_dfu_svci_handler.o ABSOLUTE
    ..\..\..\..\..\components\libraries\bootloader\dfu\nrf_dfu_transport.c 0x00000000   Number         0  nrf_dfu_transport.o ABSOLUTE
    ..\..\..\..\..\components\libraries\bootloader\dfu\nrf_dfu_utils.c 0x00000000   Number         0  nrf_dfu_utils.o ABSOLUTE
    ..\..\..\..\..\components\libraries\bootloader\nrf_bootloader.c 0x00000000   Number         0  nrf_bootloader.o ABSOLUTE
    ..\..\..\..\..\components\libraries\bootloader\nrf_bootloader_app_start.c 0x00000000   Number         0  nrf_bootloader_app_start.o ABSOLUTE
    ..\..\..\..\..\components\libraries\bootloader\nrf_bootloader_app_start_asm.c 0x00000000   Number         0  nrf_bootloader_app_start_asm.o ABSOLUTE
    ..\..\..\..\..\components\libraries\bootloader\nrf_bootloader_info.c 0x00000000   Number         0  nrf_bootloader_info.o ABSOLUTE
    ..\..\..\..\..\components\libraries\crc32\crc32.c 0x00000000   Number         0  crc32.o ABSOLUTE
    ..\..\..\..\..\components\libraries\crypto\backend\micro_ecc\micro_ecc_lib_ecdh.c 0x00000000   Number         0  micro_ecc_lib_ecdh.o ABSOLUTE
    ..\..\..\..\..\components\libraries\crypto\backend\micro_ecc\micro_ecc_lib_ecdsa.c 0x00000000   Number         0  micro_ecc_lib_ecdsa.o ABSOLUTE
    ..\..\..\..\..\components\libraries\crypto\backend\micro_ecc\micro_ecc_lib_init.c 0x00000000   Number         0  micro_ecc_lib_init.o ABSOLUTE
    ..\..\..\..\..\components\libraries\crypto\backend\micro_ecc\micro_ecc_lib_keys.c 0x00000000   Number         0  micro_ecc_lib_keys.o ABSOLUTE
    ..\..\..\..\..\components\libraries\crypto\backend\micro_ecc\micro_ecc_lib_shared.c 0x00000000   Number         0  micro_ecc_lib_shared.o ABSOLUTE
    ..\..\..\..\..\components\libraries\crypto\backend\nrf_crypto_sw\nrf_crypto_sw_hash.c 0x00000000   Number         0  nrf_crypto_sw_hash.o ABSOLUTE
    ..\..\..\..\..\components\libraries\crypto\backend\nrf_crypto_sw\nrf_crypto_sw_rng.c 0x00000000   Number         0  nrf_crypto_sw_rng.o ABSOLUTE
    ..\..\..\..\..\components\libraries\crypto\nrf_crypto_ecdh.c 0x00000000   Number         0  nrf_crypto_ecdh.o ABSOLUTE
    ..\..\..\..\..\components\libraries\crypto\nrf_crypto_ecdsa.c 0x00000000   Number         0  nrf_crypto_ecdsa.o ABSOLUTE
    ..\..\..\..\..\components\libraries\crypto\nrf_crypto_hash.c 0x00000000   Number         0  nrf_crypto_hash.o ABSOLUTE
    ..\..\..\..\..\components\libraries\crypto\nrf_crypto_init.c 0x00000000   Number         0  nrf_crypto_init.o ABSOLUTE
    ..\..\..\..\..\components\libraries\crypto\nrf_crypto_keys.c 0x00000000   Number         0  nrf_crypto_keys.o ABSOLUTE
    ..\..\..\..\..\components\libraries\crypto\nrf_crypto_mem.c 0x00000000   Number         0  nrf_crypto_mem.o ABSOLUTE
    ..\..\..\..\..\components\libraries\crypto\nrf_crypto_rng.c 0x00000000   Number         0  nrf_crypto_rng.o ABSOLUTE
    ..\..\..\..\..\components\libraries\experimental_section_vars\nrf_section_iter.c 0x00000000   Number         0  nrf_section_iter.o ABSOLUTE
    ..\..\..\..\..\components\libraries\fstorage\nrf_fstorage.c 0x00000000   Number         0  nrf_fstorage.o ABSOLUTE
    ..\..\..\..\..\components\libraries\fstorage\nrf_fstorage_nvmc.c 0x00000000   Number         0  nrf_fstorage_nvmc.o ABSOLUTE
    ..\..\..\..\..\components\libraries\fstorage\nrf_fstorage_sd.c 0x00000000   Number         0  nrf_fstorage_sd.o ABSOLUTE
    ..\..\..\..\..\components\libraries\hci\hci_mem_pool.c 0x00000000   Number         0  hci_mem_pool.o ABSOLUTE
    ..\..\..\..\..\components\libraries\mem_manager\mem_manager.c 0x00000000   Number         0  mem_manager.o ABSOLUTE
    ..\..\..\..\..\components\libraries\queue\nrf_queue.c 0x00000000   Number         0  nrf_queue.o ABSOLUTE
    ..\..\..\..\..\components\libraries\scheduler\app_scheduler.c 0x00000000   Number         0  app_scheduler.o ABSOLUTE
    ..\..\..\..\..\components\libraries\sha256\sha256.c 0x00000000   Number         0  sha256.o ABSOLUTE
    ..\..\..\..\..\components\libraries\strerror\nrf_strerror.c 0x00000000   Number         0  nrf_strerror.o ABSOLUTE
    ..\..\..\..\..\components\libraries\svc\nrf_svc_handler.c 0x00000000   Number         0  nrf_svc_handler.o ABSOLUTE
    ..\..\..\..\..\components\libraries\timer\app_timer.c 0x00000000   Number         0  app_timer.o ABSOLUTE
    ..\..\..\..\..\components\libraries\util\app_error_weak.c 0x00000000   Number         0  app_error_weak.o ABSOLUTE
    ..\..\..\..\..\components\libraries\util\app_util_platform.c 0x00000000   Number         0  app_util_platform.o ABSOLUTE
    ..\..\..\..\..\components\libraries\util\nrf_assert.c 0x00000000   Number         0  nrf_assert.o ABSOLUTE
    ..\..\..\..\..\components\softdevice\common\nrf_sdh.c 0x00000000   Number         0  nrf_sdh.o ABSOLUTE
    ..\..\..\..\..\components\softdevice\common\nrf_sdh_ble.c 0x00000000   Number         0  nrf_sdh_ble.o ABSOLUTE
    ..\..\..\..\..\components\softdevice\common\nrf_sdh_soc.c 0x00000000   Number         0  nrf_sdh_soc.o ABSOLUTE
    ..\..\..\..\..\external\nano-pb\pb_common.c 0x00000000   Number         0  pb_common.o ABSOLUTE
    ..\..\..\..\..\external\nano-pb\pb_decode.c 0x00000000   Number         0  pb_decode.o ABSOLUTE
    ..\..\..\dfu_req_handling\dfu-cc.pb.c    0x00000000   Number         0  dfu-cc.pb.o ABSOLUTE
    ..\..\..\dfu_req_handling\dfu_public_key.c 0x00000000   Number         0  dfu_public_key.o ABSOLUTE
    ..\..\..\dfu_req_handling\dfu_req_handling.c 0x00000000   Number         0  dfu_req_handling.o ABSOLUTE
    ..\..\main.c                             0x00000000   Number         0  main.o ABSOLUTE
    ..\\..\\..\\..\\..\\components\\ble\\common\\ble_srv_common.c 0x00000000   Number         0  ble_srv_common.o ABSOLUTE
    ..\\..\\..\\..\\..\\components\\boards\\boards.c 0x00000000   Number         0  boards.o ABSOLUTE
    ..\\..\\..\\..\\..\\components\\drivers_nrf\\clock\\nrf_drv_clock.c 0x00000000   Number         0  nrf_drv_clock.o ABSOLUTE
    ..\\..\\..\\..\\..\\components\\drivers_nrf\\common\\nrf_drv_common.c 0x00000000   Number         0  nrf_drv_common.o ABSOLUTE
    ..\\..\\..\\..\\..\\components\\drivers_nrf\\hal\\nrf_nvmc.c 0x00000000   Number         0  nrf_nvmc.o ABSOLUTE
    ..\\..\\..\\..\\..\\components\\drivers_nrf\\rng\\nrf_drv_rng.c 0x00000000   Number         0  nrf_drv_rng.o ABSOLUTE
    ..\\..\\..\\..\\..\\components\\libraries\\atomic_fifo\\nrf_atfifo.c 0x00000000   Number         0  nrf_atfifo.o ABSOLUTE
    ..\\..\\..\\..\\..\\components\\libraries\\bootloader\\ble_dfu\\nrf_ble_dfu.c 0x00000000   Number         0  nrf_ble_dfu.o ABSOLUTE
    ..\\..\\..\\..\\..\\components\\libraries\\bootloader\\dfu\\nrf_dfu.c 0x00000000   Number         0  nrf_dfu.o ABSOLUTE
    ..\\..\\..\\..\\..\\components\\libraries\\bootloader\\dfu\\nrf_dfu_flash.c 0x00000000   Number         0  nrf_dfu_flash.o ABSOLUTE
    ..\\..\\..\\..\\..\\components\\libraries\\bootloader\\dfu\\nrf_dfu_handling_error.c 0x00000000   Number         0  nrf_dfu_handling_error.o ABSOLUTE
    ..\\..\\..\\..\\..\\components\\libraries\\bootloader\\dfu\\nrf_dfu_mbr.c 0x00000000   Number         0  nrf_dfu_mbr.o ABSOLUTE
    ..\\..\\..\\..\\..\\components\\libraries\\bootloader\\dfu\\nrf_dfu_settings.c 0x00000000   Number         0  nrf_dfu_settings.o ABSOLUTE
    ..\\..\\..\\..\\..\\components\\libraries\\bootloader\\dfu\\nrf_dfu_settings_svci.c 0x00000000   Number         0  nrf_dfu_settings_svci.o ABSOLUTE
    ..\\..\\..\\..\\..\\components\\libraries\\bootloader\\dfu\\nrf_dfu_svci.c 0x00000000   Number         0  nrf_dfu_svci.o ABSOLUTE
    ..\\..\\..\\..\\..\\components\\libraries\\bootloader\\dfu\\nrf_dfu_svci_handler.c 0x00000000   Number         0  nrf_dfu_svci_handler.o ABSOLUTE
    ..\\..\\..\\..\\..\\components\\libraries\\bootloader\\dfu\\nrf_dfu_transport.c 0x00000000   Number         0  nrf_dfu_transport.o ABSOLUTE
    ..\\..\\..\\..\\..\\components\\libraries\\bootloader\\dfu\\nrf_dfu_utils.c 0x00000000   Number         0  nrf_dfu_utils.o ABSOLUTE
    ..\\..\\..\\..\\..\\components\\libraries\\bootloader\\nrf_bootloader.c 0x00000000   Number         0  nrf_bootloader.o ABSOLUTE
    ..\\..\\..\\..\\..\\components\\libraries\\bootloader\\nrf_bootloader_app_start.c 0x00000000   Number         0  nrf_bootloader_app_start.o ABSOLUTE
    ..\\..\\..\\..\\..\\components\\libraries\\bootloader\\nrf_bootloader_app_start_asm.c 0x00000000   Number         0  nrf_bootloader_app_start_asm.o ABSOLUTE
    ..\\..\\..\\..\\..\\components\\libraries\\bootloader\\nrf_bootloader_info.c 0x00000000   Number         0  nrf_bootloader_info.o ABSOLUTE
    ..\\..\\..\\..\\..\\components\\libraries\\crc32\\crc32.c 0x00000000   Number         0  crc32.o ABSOLUTE
    ..\\..\\..\\..\\..\\components\\libraries\\crypto\\backend\\micro_ecc\\micro_ecc_lib_ecdh.c 0x00000000   Number         0  micro_ecc_lib_ecdh.o ABSOLUTE
    ..\\..\\..\\..\\..\\components\\libraries\\crypto\\backend\\micro_ecc\\micro_ecc_lib_ecdsa.c 0x00000000   Number         0  micro_ecc_lib_ecdsa.o ABSOLUTE
    ..\\..\\..\\..\\..\\components\\libraries\\crypto\\backend\\micro_ecc\\micro_ecc_lib_init.c 0x00000000   Number         0  micro_ecc_lib_init.o ABSOLUTE
    ..\\..\\..\\..\\..\\components\\libraries\\crypto\\backend\\micro_ecc\\micro_ecc_lib_keys.c 0x00000000   Number         0  micro_ecc_lib_keys.o ABSOLUTE
    ..\\..\\..\\..\\..\\components\\libraries\\crypto\\backend\\micro_ecc\\micro_ecc_lib_shared.c 0x00000000   Number         0  micro_ecc_lib_shared.o ABSOLUTE
    ..\\..\\..\\..\\..\\components\\libraries\\crypto\\backend\\nrf_crypto_sw\\nrf_crypto_sw_hash.c 0x00000000   Number         0  nrf_crypto_sw_hash.o ABSOLUTE
    ..\\..\\..\\..\\..\\components\\libraries\\crypto\\backend\\nrf_crypto_sw\\nrf_crypto_sw_rng.c 0x00000000   Number         0  nrf_crypto_sw_rng.o ABSOLUTE
    ..\\..\\..\\..\\..\\components\\libraries\\crypto\\nrf_crypto_ecdh.c 0x00000000   Number         0  nrf_crypto_ecdh.o ABSOLUTE
    ..\\..\\..\\..\\..\\components\\libraries\\crypto\\nrf_crypto_ecdsa.c 0x00000000   Number         0  nrf_crypto_ecdsa.o ABSOLUTE
    ..\\..\\..\\..\\..\\components\\libraries\\crypto\\nrf_crypto_hash.c 0x00000000   Number         0  nrf_crypto_hash.o ABSOLUTE
    ..\\..\\..\\..\\..\\components\\libraries\\crypto\\nrf_crypto_init.c 0x00000000   Number         0  nrf_crypto_init.o ABSOLUTE
    ..\\..\\..\\..\\..\\components\\libraries\\crypto\\nrf_crypto_keys.c 0x00000000   Number         0  nrf_crypto_keys.o ABSOLUTE
    ..\\..\\..\\..\\..\\components\\libraries\\crypto\\nrf_crypto_mem.c 0x00000000   Number         0  nrf_crypto_mem.o ABSOLUTE
    ..\\..\\..\\..\\..\\components\\libraries\\crypto\\nrf_crypto_rng.c 0x00000000   Number         0  nrf_crypto_rng.o ABSOLUTE
    ..\\..\\..\\..\\..\\components\\libraries\\experimental_section_vars\\nrf_section_iter.c 0x00000000   Number         0  nrf_section_iter.o ABSOLUTE
    ..\\..\\..\\..\\..\\components\\libraries\\fstorage\\nrf_fstorage_nvmc.c 0x00000000   Number         0  nrf_fstorage_nvmc.o ABSOLUTE
    ..\\..\\..\\..\\..\\components\\libraries\\fstorage\\nrf_fstorage_sd.c 0x00000000   Number         0  nrf_fstorage_sd.o ABSOLUTE
    ..\\..\\..\\..\\..\\components\\libraries\\hci\\hci_mem_pool.c 0x00000000   Number         0  hci_mem_pool.o ABSOLUTE
    ..\\..\\..\\..\\..\\components\\libraries\\mem_manager\\mem_manager.c 0x00000000   Number         0  mem_manager.o ABSOLUTE
    ..\\..\\..\\..\\..\\components\\libraries\\queue\\nrf_queue.c 0x00000000   Number         0  nrf_queue.o ABSOLUTE
    ..\\..\\..\\..\\..\\components\\libraries\\scheduler\\app_scheduler.c 0x00000000   Number         0  app_scheduler.o ABSOLUTE
    ..\\..\\..\\..\\..\\components\\libraries\\sha256\\sha256.c 0x00000000   Number         0  sha256.o ABSOLUTE
    ..\\..\\..\\..\\..\\components\\libraries\\strerror\\nrf_strerror.c 0x00000000   Number         0  nrf_strerror.o ABSOLUTE
    ..\\..\\..\\..\\..\\components\\libraries\\svc\\nrf_svc_handler.c 0x00000000   Number         0  nrf_svc_handler.o ABSOLUTE
    ..\\..\\..\\..\\..\\components\\libraries\\timer\\app_timer.c 0x00000000   Number         0  app_timer.o ABSOLUTE
    ..\\..\\..\\..\\..\\components\\libraries\\util\\app_error_weak.c 0x00000000   Number         0  app_error_weak.o ABSOLUTE
    ..\\..\\..\\..\\..\\components\\libraries\\util\\app_util_platform.c 0x00000000   Number         0  app_util_platform.o ABSOLUTE
    ..\\..\\..\\..\\..\\components\\libraries\\util\\nrf_assert.c 0x00000000   Number         0  nrf_assert.o ABSOLUTE
    ..\\..\\..\\..\\..\\components\\softdevice\\common\\nrf_sdh.c 0x00000000   Number         0  nrf_sdh.o ABSOLUTE
    ..\\..\\..\\..\\..\\components\\softdevice\\common\\nrf_sdh_ble.c 0x00000000   Number         0  nrf_sdh_ble.o ABSOLUTE
    ..\\..\\..\\..\\..\\components\\softdevice\\common\\nrf_sdh_soc.c 0x00000000   Number         0  nrf_sdh_soc.o ABSOLUTE
    ..\\..\\..\\dfu_req_handling\\dfu_req_handling.c 0x00000000   Number         0  dfu_req_handling.o ABSOLUTE
    ..\\..\\main.c                           0x00000000   Number         0  main.o ABSOLUTE
    RTE\Device\nRF52832_xxAA\arm_startup_nrf52.s 0x00000000   Number         0  arm_startup_nrf52.o ABSOLUTE
    RTE\Device\nRF52832_xxAA\system_nrf52.c  0x00000000   Number         0  system_nrf52.o ABSOLUTE
    RTE\\Device\\nRF52832_xxAA\\system_nrf52.c 0x00000000   Number         0  system_nrf52.o ABSOLUTE
    dc.s                                     0x00000000   Number         0  dc.o ABSOLUTE
    handlers.s                               0x00000000   Number         0  handlers.o ABSOLUTE
    init.s                                   0x00000000   Number         0  init.o ABSOLUTE
    uECC.c                                   0x00000000   Number         0  micro_ecc_lib_uECC.c.o ABSOLUTE
    wm4.0.6595695d65213d8b99dcc19df5fee711   0x00000000   Number         0  micro_ecc_lib_uECC.c.o ABSOLUTE
    wm4._default_types.h.15.933e8edd27a65e0b69af4a865eb623d2 0x00000000   Number         0  micro_ecc_lib_uECC.c.o ABSOLUTE
    wm4._intsup.h.10.35a45952db64d30146faa63a55c20c1c 0x00000000   Number         0  micro_ecc_lib_uECC.c.o ABSOLUTE
    wm4._stdint.h.10.f76354baea1c7088202064e6f3d4f5e3 0x00000000   Number         0  micro_ecc_lib_uECC.c.o ABSOLUTE
    wm4.asm_arm.inc.214.f9c3f96b49f7a5d989f94cf8e1ceba89 0x00000000   Number         0  micro_ecc_lib_uECC.c.o ABSOLUTE
    wm4.asm_arm.inc.4.dfec34a05ba45d75cbee2d5e06b55b4e 0x00000000   Number         0  micro_ecc_lib_uECC.c.o ABSOLUTE
    wm4.asm_arm_mult_square_umaal.inc.4.c2e97a2f1d7d7b2ebe8d0dcdc38e8601 0x00000000   Number         0  micro_ecc_lib_uECC.c.o ABSOLUTE
    wm4.curvespecific.inc.4.2d2cb7d102145c8907bc83ada341adf1 0x00000000   Number         0  micro_ecc_lib_uECC.c.o ABSOLUTE
    wm4.features.h.22.2e382148a0560adabf236cddd4e880f4 0x00000000   Number         0  micro_ecc_lib_uECC.c.o ABSOLUTE
    wm4.stdint.h.23.373a9d32a9e4c2e88fd347156532d281 0x00000000   Number         0  micro_ecc_lib_uECC.c.o ABSOLUTE
    wm4.types.h.4.68c95426d679a2e4709b8043a29e6d1c 0x00000000   Number         0  micro_ecc_lib_uECC.c.o ABSOLUTE
    wm4.uECC.h.11.e5b19d494bbd557763bd03f2049a3668 0x00000000   Number         0  micro_ecc_lib_uECC.c.o ABSOLUTE
    RESET                                    0x00078000   Section      512  arm_startup_nrf52.o(RESET)
    .ARM.Collect$$$$00000000                 0x00078200   Section        0  entry.o(.ARM.Collect$$$$00000000)
    .ARM.Collect$$$$00000001                 0x00078200   Section        4  entry2.o(.ARM.Collect$$$$00000001)
    .ARM.Collect$$$$00000004                 0x00078204   Section        4  entry5.o(.ARM.Collect$$$$00000004)
    .ARM.Collect$$$$00000008                 0x00078208   Section        0  entry7b.o(.ARM.Collect$$$$00000008)
    .ARM.Collect$$$$0000000A                 0x00078208   Section        0  entry8b.o(.ARM.Collect$$$$0000000A)
    .ARM.Collect$$$$0000000B                 0x00078208   Section        8  entry9a.o(.ARM.Collect$$$$0000000B)
    .ARM.Collect$$$$0000000D                 0x00078210   Section        0  entry10a.o(.ARM.Collect$$$$0000000D)
    .ARM.Collect$$$$0000000F                 0x00078210   Section        0  entry11a.o(.ARM.Collect$$$$0000000F)
    .ARM.Collect$$$$00002712                 0x00078210   Section        4  entry2.o(.ARM.Collect$$$$00002712)
    __lit__00000000                          0x00078210   Data           4  entry2.o(.ARM.Collect$$$$00002712)
    .emb_text                                0x00078214   Section       64  nrf_bootloader_app_start_asm.o(.emb_text)
    $v0                                      0x00078214   Number         0  nrf_bootloader_app_start_asm.o(.emb_text)
    .emb_text                                0x00078254   Section      200  nrf_atfifo.o(.emb_text)
    $v0                                      0x00078254   Number         0  nrf_atfifo.o(.emb_text)
    .emb_text                                0x0007831c   Section      154  nrf_fstorage_nvmc.o(.emb_text)
    $v0                                      0x0007831c   Number         0  nrf_fstorage_nvmc.o(.emb_text)
    .emb_text                                0x000783b8   Section      154  nrf_fstorage_sd.o(.emb_text)
    $v0                                      0x000783b8   Number         0  nrf_fstorage_sd.o(.emb_text)
    .emb_text                                0x00078454   Section       20  nrf_svc_handler.o(.emb_text)
    $v0                                      0x00078454   Number         0  nrf_svc_handler.o(.emb_text)
    .text                                    0x00078468   Section       36  arm_startup_nrf52.o(.text)
    $v0                                      0x00078468   Number         0  arm_startup_nrf52.o(.text)
    .text                                    0x0007848c   Section        0  llshl.o(.text)
    .text                                    0x000784aa   Section        0  memcpya.o(.text)
    .text                                    0x000784ce   Section        0  memseta.o(.text)
    .text                                    0x000784f2   Section        0  memcmp.o(.text)
    .text                                    0x0007850c   Section       36  init.o(.text)
    [Anonymous Symbol]                       0x00078530   Section        0  micro_ecc_lib_uECC.c.o(.text.XYcZ_add)
    XYcZ_add                                 0x00078531   Thumb Code   202  micro_ecc_lib_uECC.c.o(.text.XYcZ_add)
    [Anonymous Symbol]                       0x000785fa   Section        0  micro_ecc_lib_uECC.c.o(.text.apply_z)
    apply_z                                  0x000785fb   Thumb Code    62  micro_ecc_lib_uECC.c.o(.text.apply_z)
    [Anonymous Symbol]                       0x00078638   Section        0  micro_ecc_lib_uECC.c.o(.text.bcopy)
    bcopy                                    0x00078639   Thumb Code    12  micro_ecc_lib_uECC.c.o(.text.bcopy)
    [Anonymous Symbol]                       0x00078644   Section        0  micro_ecc_lib_uECC.c.o(.text.bits2int)
    bits2int                                 0x00078645   Thumb Code   136  micro_ecc_lib_uECC.c.o(.text.bits2int)
    [Anonymous Symbol]                       0x000786cc   Section        0  micro_ecc_lib_uECC.c.o(.text.double_jacobian_default)
    double_jacobian_default                  0x000786cd   Thumb Code   340  micro_ecc_lib_uECC.c.o(.text.double_jacobian_default)
    [Anonymous Symbol]                       0x00078820   Section        0  micro_ecc_lib_uECC.c.o(.text.uECC_secp256r1)
    [Anonymous Symbol]                       0x00078828   Section        0  micro_ecc_lib_uECC.c.o(.text.uECC_verify)
    [Anonymous Symbol]                       0x00078b00   Section        0  micro_ecc_lib_uECC.c.o(.text.uECC_vli_add)
    [Anonymous Symbol]                       0x00078b58   Section        0  micro_ecc_lib_uECC.c.o(.text.uECC_vli_clear)
    [Anonymous Symbol]                       0x00078b70   Section        0  micro_ecc_lib_uECC.c.o(.text.uECC_vli_cmp_unsafe)
    uECC_vli_cmp_unsafe                      0x00078b71   Thumb Code    42  micro_ecc_lib_uECC.c.o(.text.uECC_vli_cmp_unsafe)
    [Anonymous Symbol]                       0x00078b9a   Section        0  micro_ecc_lib_uECC.c.o(.text.uECC_vli_equal)
    [Anonymous Symbol]                       0x00078bc4   Section        0  micro_ecc_lib_uECC.c.o(.text.uECC_vli_isZero)
    [Anonymous Symbol]                       0x00078be4   Section        0  micro_ecc_lib_uECC.c.o(.text.uECC_vli_mmod)
    [Anonymous Symbol]                       0x00078d20   Section        0  micro_ecc_lib_uECC.c.o(.text.uECC_vli_modAdd)
    [Anonymous Symbol]                       0x00078d52   Section        0  micro_ecc_lib_uECC.c.o(.text.uECC_vli_modInv)
    [Anonymous Symbol]                       0x00078e5e   Section        0  micro_ecc_lib_uECC.c.o(.text.uECC_vli_modMult)
    [Anonymous Symbol]                       0x00078e82   Section        0  micro_ecc_lib_uECC.c.o(.text.uECC_vli_modMult_fast)
    [Anonymous Symbol]                       0x00078ea2   Section        0  micro_ecc_lib_uECC.c.o(.text.uECC_vli_modSquare_fast)
    [Anonymous Symbol]                       0x00078ec2   Section        0  micro_ecc_lib_uECC.c.o(.text.uECC_vli_modSub)
    [Anonymous Symbol]                       0x00078ee6   Section        0  micro_ecc_lib_uECC.c.o(.text.uECC_vli_mult)
    [Anonymous Symbol]                       0x000791f8   Section        0  micro_ecc_lib_uECC.c.o(.text.uECC_vli_numBits)
    [Anonymous Symbol]                       0x0007923c   Section        0  micro_ecc_lib_uECC.c.o(.text.uECC_vli_rshift1)
    [Anonymous Symbol]                       0x00079256   Section        0  micro_ecc_lib_uECC.c.o(.text.uECC_vli_set)
    [Anonymous Symbol]                       0x00079270   Section        0  micro_ecc_lib_uECC.c.o(.text.uECC_vli_square)
    [Anonymous Symbol]                       0x00079500   Section        0  micro_ecc_lib_uECC.c.o(.text.uECC_vli_sub)
    [Anonymous Symbol]                       0x00079560   Section        0  micro_ecc_lib_uECC.c.o(.text.uECC_vli_testBit)
    [Anonymous Symbol]                       0x00079574   Section        0  micro_ecc_lib_uECC.c.o(.text.vli_mmod_fast_secp256r1)
    vli_mmod_fast_secp256r1                  0x00079575   Thumb Code   432  micro_ecc_lib_uECC.c.o(.text.vli_mmod_fast_secp256r1)
    [Anonymous Symbol]                       0x00079724   Section        0  micro_ecc_lib_uECC.c.o(.text.vli_modInv_update)
    vli_modInv_update                        0x00079725   Thumb Code    58  micro_ecc_lib_uECC.c.o(.text.vli_modInv_update)
    [Anonymous Symbol]                       0x0007975e   Section        0  micro_ecc_lib_uECC.c.o(.text.x_side_default)
    x_side_default                           0x0007975f   Thumb Code    90  micro_ecc_lib_uECC.c.o(.text.x_side_default)
    i.NVIC_ClearPendingIRQ                   0x000797b8   Section        0  app_timer.o(i.NVIC_ClearPendingIRQ)
    NVIC_ClearPendingIRQ                     0x000797b9   Thumb Code    22  app_timer.o(i.NVIC_ClearPendingIRQ)
    i.NVIC_EnableIRQ                         0x000797ce   Section        0  app_timer.o(i.NVIC_EnableIRQ)
    NVIC_EnableIRQ                           0x000797cf   Thumb Code    22  app_timer.o(i.NVIC_EnableIRQ)
    i.NVIC_SetPendingIRQ                     0x000797e4   Section        0  app_timer.o(i.NVIC_SetPendingIRQ)
    NVIC_SetPendingIRQ                       0x000797e5   Thumb Code    22  app_timer.o(i.NVIC_SetPendingIRQ)
    i.NVIC_SetPriority                       0x000797fa   Section        0  app_timer.o(i.NVIC_SetPriority)
    NVIC_SetPriority                         0x000797fb   Thumb Code    32  app_timer.o(i.NVIC_SetPriority)
    i.NVIC_SystemReset                       0x0007981c   Section        0  main.o(i.NVIC_SystemReset)
    NVIC_SystemReset                         0x0007981d   Thumb Code    26  main.o(i.NVIC_SystemReset)
    i.POWER_CLOCK_IRQHandler                 0x00079840   Section        0  nrf_drv_clock.o(i.POWER_CLOCK_IRQHandler)
    i.RTC1_IRQHandler                        0x00079898   Section        0  app_timer.o(i.RTC1_IRQHandler)
    i.SWI0_EGU0_IRQHandler                   0x000798bc   Section        0  app_timer.o(i.SWI0_EGU0_IRQHandler)
    i.SWI2_EGU2_IRQHandler                   0x000798c0   Section        0  nrf_sdh.o(i.SWI2_EGU2_IRQHandler)
    i.SystemInit                             0x000798e0   Section        0  system_nrf52.o(i.SystemInit)
    i.__scatterload_copy                     0x00079bdc   Section       14  handlers.o(i.__scatterload_copy)
    i.__scatterload_null                     0x00079bea   Section        2  handlers.o(i.__scatterload_null)
    i.__scatterload_zeroinit                 0x00079bec   Section       14  handlers.o(i.__scatterload_zeroinit)
    i.__sd_nvic_app_accessible_irq           0x00079bfc   Section        0  nrf_sdh.o(i.__sd_nvic_app_accessible_irq)
    __sd_nvic_app_accessible_irq             0x00079bfd   Thumb Code    32  nrf_sdh.o(i.__sd_nvic_app_accessible_irq)
    i.__sd_nvic_is_app_accessible_priority   0x00079c20   Section        0  nrf_sdh.o(i.__sd_nvic_is_app_accessible_priority)
    __sd_nvic_is_app_accessible_priority     0x00079c21   Thumb Code    22  nrf_sdh.o(i.__sd_nvic_is_app_accessible_priority)
    i.addr_is_aligned32                      0x00079c36   Section        0  nrf_fstorage.o(i.addr_is_aligned32)
    addr_is_aligned32                        0x00079c37   Thumb Code    12  nrf_fstorage.o(i.addr_is_aligned32)
    i.addr_within_bounds                     0x00079c42   Section        0  nrf_fstorage.o(i.addr_within_bounds)
    addr_within_bounds                       0x00079c43   Thumb Code    24  nrf_fstorage.o(i.addr_within_bounds)
    i.advertising_start                      0x00079c5c   Section        0  nrf_ble_dfu.o(i.advertising_start)
    advertising_start                        0x00079c5d   Thumb Code   140  nrf_ble_dfu.o(i.advertising_start)
    i.app_error_fault_handler                0x00079cec   Section        0  main.o(i.app_error_fault_handler)
    i.app_error_handler_bare                 0x00079cf0   Section        0  main.o(i.app_error_handler_bare)
    i.app_sched_event_put                    0x00079cf4   Section        0  app_scheduler.o(i.app_sched_event_put)
    i.app_sched_execute                      0x00079d94   Section        0  app_scheduler.o(i.app_sched_execute)
    i.app_sched_init                         0x00079dd4   Section        0  app_scheduler.o(i.app_sched_init)
    i.app_timer_create                       0x00079e00   Section        0  app_timer.o(i.app_timer_create)
    i.app_timer_init                         0x00079e28   Section        0  app_timer.o(i.app_timer_init)
    i.app_timer_start                        0x00079e7c   Section        0  app_timer.o(i.app_timer_start)
    i.app_timer_stop                         0x00079f04   Section        0  app_timer.o(i.app_timer_stop)
    i.app_util_critical_region_enter         0x00079f24   Section        0  app_util_platform.o(i.app_util_critical_region_enter)
    i.app_util_critical_region_exit          0x00079f6c   Section        0  app_util_platform.o(i.app_util_critical_region_exit)
    i.appsh_events_poll                      0x00079fa0   Section        0  nrf_sdh.o(i.appsh_events_poll)
    appsh_events_poll                        0x00079fa1   Thumb Code     4  nrf_sdh.o(i.appsh_events_poll)
    i.ble_dfu_init                           0x00079fa4   Section        0  nrf_ble_dfu.o(i.ble_dfu_init)
    i.ble_dfu_transport_close                0x0007a008   Section        0  nrf_ble_dfu.o(i.ble_dfu_transport_close)
    i.ble_dfu_transport_init                 0x0007a048   Section        0  nrf_ble_dfu.o(i.ble_dfu_transport_init)
    i.ble_evt_handler                        0x0007a0a8   Section        0  nrf_ble_dfu.o(i.ble_evt_handler)
    ble_evt_handler                          0x0007a0a9   Thumb Code   328  nrf_ble_dfu.o(i.ble_evt_handler)
    i.ble_srv_is_notification_enabled        0x0007a1fc   Section        0  ble_srv_common.o(i.ble_srv_is_notification_enabled)
    i.ble_stack_init                         0x0007a204   Section        0  nrf_ble_dfu.o(i.ble_stack_init)
    ble_stack_init                           0x0007a205   Thumb Code   116  nrf_ble_dfu.o(i.ble_stack_init)
    i.buf_read                               0x0007a27c   Section        0  pb_decode.o(i.buf_read)
    buf_read                                 0x0007a27d   Thumb Code    28  pb_decode.o(i.buf_read)
    i.clock_clk_started_notify               0x0007a298   Section        0  nrf_drv_clock.o(i.clock_clk_started_notify)
    clock_clk_started_notify                 0x0007a299   Thumb Code    34  nrf_drv_clock.o(i.clock_clk_started_notify)
    i.compare_reg_update                     0x0007a2c0   Section        0  app_timer.o(i.compare_reg_update)
    compare_reg_update                       0x0007a2c1   Thumb Code   160  app_timer.o(i.compare_reg_update)
    i.crc32_compute                          0x0007a36c   Section        0  crc32.o(i.crc32_compute)
    i.decode_callback_field                  0x0007a3a8   Section        0  pb_decode.o(i.decode_callback_field)
    decode_callback_field                    0x0007a3a9   Thumb Code   126  pb_decode.o(i.decode_callback_field)
    i.decode_field                           0x0007a426   Section        0  pb_decode.o(i.decode_field)
    decode_field                             0x0007a427   Thumb Code    26  pb_decode.o(i.decode_field)
    i.decode_static_field                    0x0007a440   Section        0  pb_decode.o(i.decode_static_field)
    decode_static_field                      0x0007a441   Thumb Code   220  pb_decode.o(i.decode_static_field)
    i.dfu_ctrl_pt_add                        0x0007a520   Section        0  nrf_ble_dfu.o(i.dfu_ctrl_pt_add)
    dfu_ctrl_pt_add                          0x0007a521   Thumb Code   132  nrf_ble_dfu.o(i.dfu_ctrl_pt_add)
    i.dfu_decode_commmand                    0x0007a5a4   Section        0  dfu_req_handling.o(i.dfu_decode_commmand)
    dfu_decode_commmand                      0x0007a5a5   Thumb Code    60  dfu_req_handling.o(i.dfu_decode_commmand)
    i.dfu_fstorage_evt_handler               0x0007a5f8   Section        0  nrf_dfu_flash.o(i.dfu_fstorage_evt_handler)
    i.dfu_handle_prevalidate                 0x0007a614   Section        0  dfu_req_handling.o(i.dfu_handle_prevalidate)
    dfu_handle_prevalidate                   0x0007a615   Thumb Code   398  dfu_req_handling.o(i.dfu_handle_prevalidate)
    i.dfu_pkt_char_add                       0x0007a7b4   Section        0  nrf_ble_dfu.o(i.dfu_pkt_char_add)
    dfu_pkt_char_add                         0x0007a7b5   Thumb Code   130  nrf_ble_dfu.o(i.dfu_pkt_char_add)
    i.elapsed_ticks_acquire                  0x0007a838   Section        0  app_timer.o(i.elapsed_ticks_acquire)
    elapsed_ticks_acquire                    0x0007a839   Thumb Code    58  app_timer.o(i.elapsed_ticks_acquire)
    i.erase                                  0x0007a878   Section        0  nrf_fstorage_nvmc.o(i.erase)
    erase                                    0x0007a879   Thumb Code    66  nrf_fstorage_nvmc.o(i.erase)
    i.erase                                  0x0007a8c0   Section        0  nrf_fstorage_sd.o(i.erase)
    erase                                    0x0007a8c1   Thumb Code    72  nrf_fstorage_sd.o(i.erase)
    i.event_send                             0x0007a90c   Section        0  nrf_fstorage_nvmc.o(i.event_send)
    event_send                               0x0007a90d   Thumb Code    56  nrf_fstorage_nvmc.o(i.event_send)
    i.event_send                             0x0007a944   Section        0  nrf_fstorage_sd.o(i.event_send)
    event_send                               0x0007a945   Thumb Code    78  nrf_fstorage_sd.o(i.event_send)
    i.ext_error_get                          0x0007a994   Section        0  nrf_dfu_handling_error.o(i.ext_error_get)
    i.ext_error_set                          0x0007a9a4   Section        0  nrf_dfu_handling_error.o(i.ext_error_set)
    i.gap_params_init                        0x0007a9b0   Section        0  nrf_ble_dfu.o(i.gap_params_init)
    gap_params_init                          0x0007a9b1   Thumb Code   118  nrf_ble_dfu.o(i.gap_params_init)
    i.hfclk_stop                             0x0007aa40   Section        0  nrf_drv_clock.o(i.hfclk_stop)
    hfclk_stop                               0x0007aa41   Thumb Code    34  nrf_drv_clock.o(i.hfclk_stop)
    i.inactivity_timer_restart               0x0007aa6c   Section        0  dfu_req_handling.o(i.inactivity_timer_restart)
    inactivity_timer_restart                 0x0007aa6d   Thumb Code    42  dfu_req_handling.o(i.inactivity_timer_restart)
    i.init                                   0x0007aa9c   Section        0  nrf_fstorage_nvmc.o(i.init)
    init                                     0x0007aa9d   Thumb Code     8  nrf_fstorage_nvmc.o(i.init)
    i.init                                   0x0007aaa8   Section        0  nrf_fstorage_sd.o(i.init)
    init                                     0x0007aaa9   Thumb Code    48  nrf_fstorage_sd.o(i.init)
    i.is_busy                                0x0007aae0   Section        0  nrf_fstorage_nvmc.o(i.is_busy)
    is_busy                                  0x0007aae1   Thumb Code    12  nrf_fstorage_nvmc.o(i.is_busy)
    i.is_busy                                0x0007aaf0   Section        0  nrf_fstorage_sd.o(i.is_busy)
    is_busy                                  0x0007aaf1   Thumb Code    12  nrf_fstorage_sd.o(i.is_busy)
    i.is_word_aligned                        0x0007ab00   Section        0  micro_ecc_lib_ecdsa.o(i.is_word_aligned)
    is_word_aligned                          0x0007ab01   Thumb Code    12  micro_ecc_lib_ecdsa.o(i.is_word_aligned)
    i.item_enqueue                           0x0007ab0c   Section        0  nrf_drv_clock.o(i.item_enqueue)
    item_enqueue                             0x0007ab0d   Thumb Code    22  nrf_drv_clock.o(i.item_enqueue)
    i.iter_from_extension                    0x0007ab22   Section        0  pb_decode.o(i.iter_from_extension)
    iter_from_extension                      0x0007ab23   Thumb Code    46  pb_decode.o(i.iter_from_extension)
    i.lfclk_stop                             0x0007ab50   Section        0  nrf_drv_clock.o(i.lfclk_stop)
    lfclk_stop                               0x0007ab51   Thumb Code    26  nrf_drv_clock.o(i.lfclk_stop)
    i.list_insertions_handler                0x0007ab78   Section        0  app_timer.o(i.list_insertions_handler)
    list_insertions_handler                  0x0007ab79   Thumb Code   234  app_timer.o(i.list_insertions_handler)
    i.main                                   0x0007ac70   Section        0  main.o(i.main)
    i.nrf_atfifo_clear                       0x0007ac8a   Section        0  nrf_atfifo.o(i.nrf_atfifo_clear)
    i.nrf_atfifo_init                        0x0007ac9a   Section        0  nrf_atfifo.o(i.nrf_atfifo_init)
    i.nrf_atfifo_item_alloc                  0x0007acc0   Section        0  nrf_atfifo.o(i.nrf_atfifo_item_alloc)
    i.nrf_atfifo_item_free                   0x0007acd6   Section        0  nrf_atfifo.o(i.nrf_atfifo_item_free)
    i.nrf_atfifo_item_get                    0x0007acec   Section        0  nrf_atfifo.o(i.nrf_atfifo_item_get)
    i.nrf_atfifo_item_put                    0x0007ad02   Section        0  nrf_atfifo.o(i.nrf_atfifo_item_put)
    i.nrf_atomic_flag_clear                  0x0007ad18   Section        0  nrf_fstorage_nvmc.o(i.nrf_atomic_flag_clear)
    nrf_atomic_flag_clear                    0x0007ad19   Thumb Code    14  nrf_fstorage_nvmc.o(i.nrf_atomic_flag_clear)
    i.nrf_atomic_flag_set_fetch              0x0007ad26   Section        0  nrf_fstorage_nvmc.o(i.nrf_atomic_flag_set_fetch)
    nrf_atomic_flag_set_fetch                0x0007ad27   Thumb Code    12  nrf_fstorage_nvmc.o(i.nrf_atomic_flag_set_fetch)
    i.nrf_bootloader_app_start               0x0007ad32   Section        0  nrf_bootloader_app_start.o(i.nrf_bootloader_app_start)
    i.nrf_bootloader_init                    0x0007ad60   Section        0  nrf_bootloader.o(i.nrf_bootloader_init)
    i.nrf_clock_event_check                  0x0007ad70   Section        0  nrf_drv_clock.o(i.nrf_clock_event_check)
    nrf_clock_event_check                    0x0007ad71   Thumb Code    14  nrf_drv_clock.o(i.nrf_clock_event_check)
    i.nrf_clock_event_clear                  0x0007ad7e   Section        0  nrf_drv_clock.o(i.nrf_clock_event_clear)
    nrf_clock_event_clear                    0x0007ad7f   Thumb Code    16  nrf_drv_clock.o(i.nrf_clock_event_clear)
    i.nrf_clock_hf_is_running                0x0007ad90   Section        0  nrf_drv_clock.o(i.nrf_clock_hf_is_running)
    nrf_clock_hf_is_running                  0x0007ad91   Thumb Code    24  nrf_drv_clock.o(i.nrf_clock_hf_is_running)
    i.nrf_crypto_ecdsa_sizes_get             0x0007adac   Section        0  nrf_crypto_ecdsa.o(i.nrf_crypto_ecdsa_sizes_get)
    i.nrf_crypto_ecdsa_verify_hash           0x0007ae24   Section        0  micro_ecc_lib_ecdsa.o(i.nrf_crypto_ecdsa_verify_hash)
    i.nrf_crypto_hash_compute                0x0007aeb8   Section        0  nrf_crypto_sw_hash.o(i.nrf_crypto_hash_compute)
    i.nrf_crypto_hash_finalize               0x0007af2c   Section        0  nrf_crypto_sw_hash.o(i.nrf_crypto_hash_finalize)
    i.nrf_crypto_hash_init                   0x0007af72   Section        0  nrf_crypto_sw_hash.o(i.nrf_crypto_hash_init)
    i.nrf_crypto_hash_size_get               0x0007af9a   Section        0  nrf_crypto_hash.o(i.nrf_crypto_hash_size_get)
    i.nrf_crypto_hash_update                 0x0007afc8   Section        0  nrf_crypto_sw_hash.o(i.nrf_crypto_hash_update)
    i.nrf_delay_us                           0x0007afe0   Section        0  nrf_ble_dfu.o(i.nrf_delay_us)
    nrf_delay_us                             0x0007afe1   Thumb Code   132  nrf_ble_dfu.o(i.nrf_delay_us)
    i.nrf_delay_us                           0x0007b06c   Section        0  app_timer.o(i.nrf_delay_us)
    nrf_delay_us                             0x0007b06d   Thumb Code   132  app_timer.o(i.nrf_delay_us)
    i.nrf_dfu_app_continue                   0x0007b0f8   Section        0  nrf_dfu_utils.o(i.nrf_dfu_app_continue)
    nrf_dfu_app_continue                     0x0007b0f9   Thumb Code   152  nrf_dfu_utils.o(i.nrf_dfu_app_continue)
    i.nrf_dfu_app_is_valid                   0x0007b194   Section        0  nrf_dfu_utils.o(i.nrf_dfu_app_is_valid)
    i.nrf_dfu_bl_continue                    0x0007b1c4   Section        0  nrf_dfu_utils.o(i.nrf_dfu_bl_continue)
    nrf_dfu_bl_continue                      0x0007b1c5   Thumb Code    74  nrf_dfu_utils.o(i.nrf_dfu_bl_continue)
    i.nrf_dfu_command_req                    0x0007b21c   Section        0  dfu_req_handling.o(i.nrf_dfu_command_req)
    nrf_dfu_command_req                      0x0007b21d   Thumb Code   284  dfu_req_handling.o(i.nrf_dfu_command_req)
    i.nrf_dfu_continue                       0x0007b348   Section        0  nrf_dfu_utils.o(i.nrf_dfu_continue)
    i.nrf_dfu_continue_bank                  0x0007b37c   Section        0  nrf_dfu_utils.o(i.nrf_dfu_continue_bank)
    nrf_dfu_continue_bank                    0x0007b37d   Thumb Code   138  nrf_dfu_utils.o(i.nrf_dfu_continue_bank)
    i.nrf_dfu_data_req                       0x0007b410   Section        0  dfu_req_handling.o(i.nrf_dfu_data_req)
    nrf_dfu_data_req                         0x0007b411   Thumb Code   552  dfu_req_handling.o(i.nrf_dfu_data_req)
    i.nrf_dfu_enter_check                    0x0007b644   Section        0  nrf_dfu.o(i.nrf_dfu_enter_check)
    i.nrf_dfu_find_cache                     0x0007b678   Section        0  nrf_dfu_utils.o(i.nrf_dfu_find_cache)
    i.nrf_dfu_flash_erase                    0x0007b6e8   Section        0  nrf_dfu_flash.o(i.nrf_dfu_flash_erase)
    i.nrf_dfu_flash_init                     0x0007b708   Section        0  nrf_dfu_flash.o(i.nrf_dfu_flash_init)
    i.nrf_dfu_flash_store                    0x0007b724   Section        0  nrf_dfu_flash.o(i.nrf_dfu_flash_store)
    i.nrf_dfu_init                           0x0007b748   Section        0  nrf_dfu.o(i.nrf_dfu_init)
    i.nrf_dfu_init_user                      0x0007b818   Section        0  nrf_bootloader.o(i.nrf_dfu_init_user)
    i.nrf_dfu_invalidate_bank                0x0007b81c   Section        0  nrf_dfu_utils.o(i.nrf_dfu_invalidate_bank)
    nrf_dfu_invalidate_bank                  0x0007b81d   Thumb Code    20  nrf_dfu_utils.o(i.nrf_dfu_invalidate_bank)
    i.nrf_dfu_mbr_compare                    0x0007b834   Section        0  nrf_dfu_mbr.o(i.nrf_dfu_mbr_compare)
    i.nrf_dfu_mbr_copy_bl                    0x0007b850   Section        0  nrf_dfu_mbr.o(i.nrf_dfu_mbr_copy_bl)
    i.nrf_dfu_mbr_copy_sd                    0x0007b868   Section        0  nrf_dfu_mbr.o(i.nrf_dfu_mbr_copy_sd)
    i.nrf_dfu_mbr_init_sd                    0x0007b88c   Section        0  nrf_dfu_mbr.o(i.nrf_dfu_mbr_init_sd)
    i.nrf_dfu_postvalidate                   0x0007b8a4   Section        0  dfu_req_handling.o(i.nrf_dfu_postvalidate)
    nrf_dfu_postvalidate                     0x0007b8a5   Thumb Code   396  dfu_req_handling.o(i.nrf_dfu_postvalidate)
    i.nrf_dfu_req_handler_init               0x0007ba44   Section        0  dfu_req_handling.o(i.nrf_dfu_req_handler_init)
    i.nrf_dfu_req_handler_on_req             0x0007ba98   Section        0  dfu_req_handling.o(i.nrf_dfu_req_handler_on_req)
    i.nrf_dfu_req_handler_reset_if_dfu_complete 0x0007bad8   Section        0  dfu_req_handling.o(i.nrf_dfu_req_handler_reset_if_dfu_complete)
    i.nrf_dfu_reset_timeout_handler          0x0007baec   Section        0  nrf_dfu_utils.o(i.nrf_dfu_reset_timeout_handler)
    i.nrf_dfu_sd_continue_impl               0x0007bb10   Section        0  nrf_dfu_utils.o(i.nrf_dfu_sd_continue_impl)
    nrf_dfu_sd_continue_impl                 0x0007bb11   Thumb Code   136  nrf_dfu_utils.o(i.nrf_dfu_sd_continue_impl)
    i.nrf_dfu_set_adv_name_handler           0x0007bb9c   Section        0  nrf_dfu_svci_handler.o(i.nrf_dfu_set_adv_name_handler)
    nrf_dfu_set_adv_name_handler             0x0007bb9d   Thumb Code    22  nrf_dfu_svci_handler.o(i.nrf_dfu_set_adv_name_handler)
    i.nrf_dfu_set_adv_name_on_call           0x0007bbbc   Section        0  nrf_dfu_svci_handler.o(i.nrf_dfu_set_adv_name_on_call)
    nrf_dfu_set_adv_name_on_call             0x0007bbbd   Thumb Code    50  nrf_dfu_svci_handler.o(i.nrf_dfu_set_adv_name_on_call)
    i.nrf_dfu_set_adv_name_on_sys_evt        0x0007bbee   Section        0  nrf_dfu_svci_handler.o(i.nrf_dfu_set_adv_name_on_sys_evt)
    nrf_dfu_set_adv_name_on_sys_evt          0x0007bbef   Thumb Code    36  nrf_dfu_svci_handler.o(i.nrf_dfu_set_adv_name_on_sys_evt)
    i.nrf_dfu_settings_additional_erase      0x0007bc14   Section        0  nrf_dfu_settings_svci.o(i.nrf_dfu_settings_additional_erase)
    i.nrf_dfu_settings_adv_name_copy         0x0007bc48   Section        0  nrf_dfu_settings_svci.o(i.nrf_dfu_settings_adv_name_copy)
    i.nrf_dfu_settings_adv_name_is_valid     0x0007bc60   Section        0  nrf_dfu_settings_svci.o(i.nrf_dfu_settings_adv_name_is_valid)
    i.nrf_dfu_settings_adv_name_write        0x0007bc80   Section        0  nrf_dfu_settings_svci.o(i.nrf_dfu_settings_adv_name_write)
    i.nrf_dfu_settings_crc_get               0x0007bcb8   Section        0  nrf_dfu_settings.o(i.nrf_dfu_settings_crc_get)
    nrf_dfu_settings_crc_get                 0x0007bcb9   Thumb Code    10  nrf_dfu_settings.o(i.nrf_dfu_settings_crc_get)
    i.nrf_dfu_settings_init                  0x0007bcc8   Section        0  nrf_dfu_settings.o(i.nrf_dfu_settings_init)
    i.nrf_dfu_settings_write                 0x0007bd1c   Section        0  nrf_dfu_settings.o(i.nrf_dfu_settings_write)
    i.nrf_dfu_transports_close               0x0007bd64   Section        0  nrf_dfu_transport.o(i.nrf_dfu_transports_close)
    i.nrf_dfu_transports_init                0x0007bd90   Section        0  nrf_dfu_transport.o(i.nrf_dfu_transports_init)
    i.nrf_drv_clock_init                     0x0007bdbc   Section        0  nrf_drv_clock.o(i.nrf_drv_clock_init)
    i.nrf_drv_clock_lfclk_release            0x0007be04   Section        0  nrf_drv_clock.o(i.nrf_drv_clock_lfclk_release)
    i.nrf_drv_clock_lfclk_request            0x0007be30   Section        0  nrf_drv_clock.o(i.nrf_drv_clock_lfclk_request)
    i.nrf_drv_clock_uninit                   0x0007be98   Section        0  nrf_drv_clock.o(i.nrf_drv_clock_uninit)
    i.nrf_drv_common_clock_irq_disable       0x0007bec0   Section        0  nrf_drv_common.o(i.nrf_drv_common_clock_irq_disable)
    i.nrf_drv_common_irq_enable              0x0007becc   Section        0  nrf_drv_common.o(i.nrf_drv_common_irq_enable)
    i.nrf_fstorage_erase                     0x0007bf04   Section        0  nrf_fstorage.o(i.nrf_fstorage_erase)
    i.nrf_fstorage_init                      0x0007bf52   Section        0  nrf_fstorage.o(i.nrf_fstorage_init)
    i.nrf_fstorage_sdh_req_handler           0x0007bf64   Section        0  nrf_fstorage_sd.o(i.nrf_fstorage_sdh_req_handler)
    i.nrf_fstorage_sdh_state_handler         0x0007bf7c   Section        0  nrf_fstorage_sd.o(i.nrf_fstorage_sdh_state_handler)
    i.nrf_fstorage_sys_evt_handler           0x0007bf9c   Section        0  nrf_fstorage_sd.o(i.nrf_fstorage_sys_evt_handler)
    i.nrf_fstorage_write                     0x0007c03c   Section        0  nrf_fstorage.o(i.nrf_fstorage_write)
    i.nrf_gpio_cfg_output                    0x0007c0a2   Section        0  nrf_ble_dfu.o(i.nrf_gpio_cfg_output)
    nrf_gpio_cfg_output                      0x0007c0a3   Thumb Code    16  nrf_ble_dfu.o(i.nrf_gpio_cfg_output)
    i.nrf_gpio_pin_set                       0x0007c0b2   Section        0  nrf_ble_dfu.o(i.nrf_gpio_pin_set)
    nrf_gpio_pin_set                         0x0007c0b3   Thumb Code    14  nrf_ble_dfu.o(i.nrf_gpio_pin_set)
    i.nrf_nvmc_page_erase                    0x0007c0c0   Section        0  nrf_nvmc.o(i.nrf_nvmc_page_erase)
    i.nrf_nvmc_write_words                   0x0007c0f0   Section        0  nrf_nvmc.o(i.nrf_nvmc_write_words)
    i.nrf_sdh_ble_app_ram_start_get          0x0007c134   Section        0  nrf_sdh_ble.o(i.nrf_sdh_ble_app_ram_start_get)
    i.nrf_sdh_ble_enable                     0x0007c148   Section        0  nrf_sdh_ble.o(i.nrf_sdh_ble_enable)
    i.nrf_sdh_ble_evts_poll                  0x0007c14c   Section        0  nrf_sdh_ble.o(i.nrf_sdh_ble_evts_poll)
    nrf_sdh_ble_evts_poll                    0x0007c14d   Thumb Code    74  nrf_sdh_ble.o(i.nrf_sdh_ble_evts_poll)
    i.nrf_sdh_disable_request                0x0007c19c   Section        0  nrf_sdh.o(i.nrf_sdh_disable_request)
    i.nrf_sdh_enable_request                 0x0007c1d8   Section        0  nrf_sdh.o(i.nrf_sdh_enable_request)
    i.nrf_sdh_evts_poll                      0x0007c244   Section        0  nrf_sdh.o(i.nrf_sdh_evts_poll)
    i.nrf_sdh_is_enabled                     0x0007c268   Section        0  nrf_sdh.o(i.nrf_sdh_is_enabled)
    i.nrf_sdh_request_continue               0x0007c274   Section        0  nrf_sdh.o(i.nrf_sdh_request_continue)
    i.nrf_sdh_soc_evts_poll                  0x0007c290   Section        0  nrf_sdh_soc.o(i.nrf_sdh_soc_evts_poll)
    nrf_sdh_soc_evts_poll                    0x0007c291   Thumb Code    56  nrf_sdh_soc.o(i.nrf_sdh_soc_evts_poll)
    i.nrf_section_iter_init                  0x0007c2cc   Section        0  nrf_section_iter.o(i.nrf_section_iter_init)
    i.nrf_section_iter_item_set              0x0007c2d6   Section        0  nrf_section_iter.o(i.nrf_section_iter_item_set)
    nrf_section_iter_item_set                0x0007c2d7   Thumb Code    36  nrf_section_iter.o(i.nrf_section_iter_item_set)
    i.nrf_section_iter_next                  0x0007c2fa   Section        0  nrf_section_iter.o(i.nrf_section_iter_next)
    i.nrf_svc_handler_c                      0x0007c31c   Section        0  nrf_svc_handler.o(i.nrf_svc_handler_c)
    __tagsym$$used                           0x0007c31d   Number         0  nrf_svc_handler.o(i.nrf_svc_handler_c)
    i.on_ctrl_pt_write                       0x0007c378   Section        0  nrf_ble_dfu.o(i.on_ctrl_pt_write)
    on_ctrl_pt_write                         0x0007c379   Thumb Code   242  nrf_ble_dfu.o(i.on_ctrl_pt_write)
    i.on_dfu_complete                        0x0007c470   Section        0  dfu_req_handling.o(i.on_dfu_complete)
    on_dfu_complete                          0x0007c471   Thumb Code    54  dfu_req_handling.o(i.on_dfu_complete)
    i.on_rw_authorize_req                    0x0007c4b4   Section        0  nrf_ble_dfu.o(i.on_rw_authorize_req)
    on_rw_authorize_req                      0x0007c4b5   Thumb Code   142  nrf_ble_dfu.o(i.on_rw_authorize_req)
    i.on_write                               0x0007c548   Section        0  nrf_ble_dfu.o(i.on_write)
    on_write                                 0x0007c549   Thumb Code    90  nrf_ble_dfu.o(i.on_write)
    i.pb_dec_bytes                           0x0007c5a8   Section        0  pb_decode.o(i.pb_dec_bytes)
    pb_dec_bytes                             0x0007c5a9   Thumb Code    64  pb_decode.o(i.pb_dec_bytes)
    i.pb_dec_fixed32                         0x0007c5e8   Section        0  pb_decode.o(i.pb_dec_fixed32)
    pb_dec_fixed32                           0x0007c5e9   Thumb Code     6  pb_decode.o(i.pb_dec_fixed32)
    i.pb_dec_fixed64                         0x0007c5ee   Section        0  pb_decode.o(i.pb_dec_fixed64)
    pb_dec_fixed64                           0x0007c5ef   Thumb Code     6  pb_decode.o(i.pb_dec_fixed64)
    i.pb_dec_string                          0x0007c5f4   Section        0  pb_decode.o(i.pb_dec_string)
    pb_dec_string                            0x0007c5f5   Thumb Code    62  pb_decode.o(i.pb_dec_string)
    i.pb_dec_submessage                      0x0007c632   Section        0  pb_decode.o(i.pb_dec_submessage)
    pb_dec_submessage                        0x0007c633   Thumb Code    64  pb_decode.o(i.pb_dec_submessage)
    i.pb_dec_svarint                         0x0007c672   Section        0  pb_decode.o(i.pb_dec_svarint)
    pb_dec_svarint                           0x0007c673   Thumb Code    88  pb_decode.o(i.pb_dec_svarint)
    i.pb_dec_uvarint                         0x0007c6ca   Section        0  pb_decode.o(i.pb_dec_uvarint)
    pb_dec_uvarint                           0x0007c6cb   Thumb Code    88  pb_decode.o(i.pb_dec_uvarint)
    i.pb_dec_varint                          0x0007c722   Section        0  pb_decode.o(i.pb_dec_varint)
    pb_dec_varint                            0x0007c723   Thumb Code    90  pb_decode.o(i.pb_dec_varint)
    i.pb_decode                              0x0007c77c   Section        0  pb_decode.o(i.pb_decode)
    i.pb_decode_fixed32                      0x0007c79a   Section        0  pb_decode.o(i.pb_decode_fixed32)
    i.pb_decode_fixed64                      0x0007c7ba   Section        0  pb_decode.o(i.pb_decode_fixed64)
    i.pb_decode_noinit                       0x0007c818   Section        0  pb_decode.o(i.pb_decode_noinit)
    i.pb_decode_svarint                      0x0007c99e   Section        0  pb_decode.o(i.pb_decode_svarint)
    i.pb_decode_tag                          0x0007c9d8   Section        0  pb_decode.o(i.pb_decode_tag)
    i.pb_decode_varint                       0x0007ca1a   Section        0  pb_decode.o(i.pb_decode_varint)
    i.pb_decode_varint32                     0x0007ca64   Section        0  pb_decode.o(i.pb_decode_varint32)
    pb_decode_varint32                       0x0007ca65   Thumb Code    76  pb_decode.o(i.pb_decode_varint32)
    i.pb_decoding_callback                   0x0007cab0   Section        0  dfu_req_handling.o(i.pb_decoding_callback)
    pb_decoding_callback                     0x0007cab1   Thumb Code    26  dfu_req_handling.o(i.pb_decoding_callback)
    i.pb_field_iter_begin                    0x0007cad4   Section        0  pb_common.o(i.pb_field_iter_begin)
    i.pb_field_iter_find                     0x0007caf6   Section        0  pb_common.o(i.pb_field_iter_find)
    i.pb_field_iter_next                     0x0007cb24   Section        0  pb_common.o(i.pb_field_iter_next)
    i.pb_field_set_to_default                0x0007cba4   Section        0  pb_decode.o(i.pb_field_set_to_default)
    pb_field_set_to_default                  0x0007cba5   Thumb Code   164  pb_decode.o(i.pb_field_set_to_default)
    i.pb_istream_from_buffer                 0x0007cc48   Section        0  pb_decode.o(i.pb_istream_from_buffer)
    i.pb_make_string_substream               0x0007cc5c   Section        0  pb_decode.o(i.pb_make_string_substream)
    i.pb_message_set_to_defaults             0x0007cc92   Section        0  pb_decode.o(i.pb_message_set_to_defaults)
    pb_message_set_to_defaults               0x0007cc93   Thumb Code    38  pb_decode.o(i.pb_message_set_to_defaults)
    i.pb_read                                0x0007ccb8   Section        0  pb_decode.o(i.pb_read)
    i.pb_readbyte                            0x0007cd10   Section        0  pb_decode.o(i.pb_readbyte)
    pb_readbyte                              0x0007cd11   Thumb Code    32  pb_decode.o(i.pb_readbyte)
    i.pb_skip_field                          0x0007cd30   Section        0  pb_decode.o(i.pb_skip_field)
    i.queue_process                          0x0007cd8c   Section        0  nrf_fstorage_sd.o(i.queue_process)
    queue_process                            0x0007cd8d   Thumb Code   136  nrf_fstorage_sd.o(i.queue_process)
    i.queue_start                            0x0007ce20   Section        0  nrf_fstorage_sd.o(i.queue_start)
    queue_start                              0x0007ce21   Thumb Code    36  nrf_fstorage_sd.o(i.queue_start)
    i.read                                   0x0007ce48   Section        0  nrf_fstorage_nvmc.o(i.read)
    read                                     0x0007ce49   Thumb Code    14  nrf_fstorage_nvmc.o(i.read)
    i.read                                   0x0007ce56   Section        0  nrf_fstorage_sd.o(i.read)
    read                                     0x0007ce57   Thumb Code    14  nrf_fstorage_sd.o(i.read)
    i.read_raw_value                         0x0007ce64   Section        0  pb_decode.o(i.read_raw_value)
    read_raw_value                           0x0007ce65   Thumb Code    98  pb_decode.o(i.read_raw_value)
    i.reset_device                           0x0007cec8   Section        0  dfu_req_handling.o(i.reset_device)
    reset_device                             0x0007cec9   Thumb Code    42  dfu_req_handling.o(i.reset_device)
    i.reset_device_callback                  0x0007cf00   Section        0  nrf_dfu_utils.o(i.reset_device_callback)
    reset_device_callback                    0x0007cf01   Thumb Code    54  nrf_dfu_utils.o(i.reset_device_callback)
    i.response_crc_cmd_send                  0x0007cf40   Section        0  nrf_ble_dfu.o(i.response_crc_cmd_send)
    response_crc_cmd_send                    0x0007cf41   Thumb Code    80  nrf_ble_dfu.o(i.response_crc_cmd_send)
    i.response_select_object_cmd_send        0x0007cf98   Section        0  nrf_ble_dfu.o(i.response_select_object_cmd_send)
    response_select_object_cmd_send          0x0007cf99   Thumb Code    92  nrf_ble_dfu.o(i.response_select_object_cmd_send)
    i.response_send                          0x0007cffc   Section        0  nrf_ble_dfu.o(i.response_send)
    response_send                            0x0007cffd   Thumb Code    76  nrf_ble_dfu.o(i.response_send)
    i.rmap                                   0x0007d050   Section        0  nrf_fstorage_nvmc.o(i.rmap)
    rmap                                     0x0007d051   Thumb Code     4  nrf_fstorage_nvmc.o(i.rmap)
    i.rmap                                   0x0007d054   Section        0  nrf_fstorage_sd.o(i.rmap)
    rmap                                     0x0007d055   Thumb Code     4  nrf_fstorage_sd.o(i.rmap)
    i.rtc1_stop                              0x0007d058   Section        0  app_timer.o(i.rtc1_stop)
    rtc1_stop                                0x0007d059   Thumb Code    52  app_timer.o(i.rtc1_stop)
    i.sd_nvic_SetPriority                    0x0007d094   Section        0  nrf_sdh.o(i.sd_nvic_SetPriority)
    sd_nvic_SetPriority                      0x0007d095   Thumb Code    66  nrf_sdh.o(i.sd_nvic_SetPriority)
    i.sd_state_evt_handler                   0x0007d0d8   Section        0  nrf_drv_clock.o(i.sd_state_evt_handler)
    sd_state_evt_handler                     0x0007d0d9   Thumb Code    80  nrf_drv_clock.o(i.sd_state_evt_handler)
    i.sdh_request_observer_notify            0x0007d12c   Section        0  nrf_sdh.o(i.sdh_request_observer_notify)
    sdh_request_observer_notify              0x0007d12d   Thumb Code    44  nrf_sdh.o(i.sdh_request_observer_notify)
    i.sdh_state_observer_notify              0x0007d15c   Section        0  nrf_sdh.o(i.sdh_state_observer_notify)
    sdh_state_observer_notify                0x0007d15d   Thumb Code    38  nrf_sdh.o(i.sdh_state_observer_notify)
    i.send_hvx                               0x0007d188   Section        0  nrf_ble_dfu.o(i.send_hvx)
    send_hvx                                 0x0007d189   Thumb Code    36  nrf_ble_dfu.o(i.send_hvx)
    i.sha256_final                           0x0007d1b0   Section        0  sha256.o(i.sha256_final)
    i.sha256_init                            0x0007d2c0   Section        0  sha256.o(i.sha256_init)
    i.sha256_transform                       0x0007d314   Section        0  sha256.o(i.sha256_transform)
    i.sha256_update                          0x0007d440   Section        0  sha256.o(i.sha256_update)
    i.soc_evt_handler                        0x0007d494   Section        0  nrf_drv_clock.o(i.soc_evt_handler)
    soc_evt_handler                          0x0007d495   Thumb Code    10  nrf_drv_clock.o(i.soc_evt_handler)
    i.softdevice_evt_irq_disable             0x0007d4a0   Section        0  nrf_sdh.o(i.softdevice_evt_irq_disable)
    softdevice_evt_irq_disable               0x0007d4a1   Thumb Code    52  nrf_sdh.o(i.softdevice_evt_irq_disable)
    i.softdevices_evt_irq_enable             0x0007d4d8   Section        0  nrf_sdh.o(i.softdevices_evt_irq_enable)
    softdevices_evt_irq_enable               0x0007d4d9   Thumb Code    72  nrf_sdh.o(i.softdevices_evt_irq_enable)
    i.timer_list_handler                     0x0007d528   Section        0  app_timer.o(i.timer_list_handler)
    timer_list_handler                       0x0007d529   Thumb Code   122  app_timer.o(i.timer_list_handler)
    i.timer_list_insert                      0x0007d5a8   Section        0  app_timer.o(i.timer_list_insert)
    timer_list_insert                        0x0007d5a9   Thumb Code    56  app_timer.o(i.timer_list_insert)
    i.timer_list_remove                      0x0007d5e4   Section        0  app_timer.o(i.timer_list_remove)
    timer_list_remove                        0x0007d5e5   Thumb Code    88  app_timer.o(i.timer_list_remove)
    i.timer_stop_op_schedule                 0x0007d644   Section        0  app_timer.o(i.timer_stop_op_schedule)
    timer_stop_op_schedule                   0x0007d645   Thumb Code    68  app_timer.o(i.timer_stop_op_schedule)
    i.timer_timeouts_check                   0x0007d68c   Section        0  app_timer.o(i.timer_timeouts_check)
    timer_timeouts_check                     0x0007d68d   Thumb Code   106  app_timer.o(i.timer_timeouts_check)
    i.uint32_encode                          0x0007d700   Section        0  nrf_ble_dfu.o(i.uint32_encode)
    uint32_encode                            0x0007d701   Thumb Code    18  nrf_ble_dfu.o(i.uint32_encode)
    i.uninit                                 0x0007d714   Section        0  nrf_fstorage_nvmc.o(i.uninit)
    uninit                                   0x0007d715   Thumb Code    12  nrf_fstorage_nvmc.o(i.uninit)
    i.uninit                                 0x0007d724   Section        0  nrf_fstorage_sd.o(i.uninit)
    uninit                                   0x0007d725   Thumb Code    22  nrf_fstorage_sd.o(i.uninit)
    i.user_op_alloc                          0x0007d744   Section        0  app_timer.o(i.user_op_alloc)
    user_op_alloc                            0x0007d745   Thumb Code    42  app_timer.o(i.user_op_alloc)
    i.wmap                                   0x0007d774   Section        0  nrf_fstorage_nvmc.o(i.wmap)
    wmap                                     0x0007d775   Thumb Code     4  nrf_fstorage_nvmc.o(i.wmap)
    i.wmap                                   0x0007d778   Section        0  nrf_fstorage_sd.o(i.wmap)
    wmap                                     0x0007d779   Thumb Code     4  nrf_fstorage_sd.o(i.wmap)
    i.write                                  0x0007d77c   Section        0  nrf_fstorage_nvmc.o(i.write)
    write                                    0x0007d77d   Thumb Code    62  nrf_fstorage_nvmc.o(i.write)
    i.write                                  0x0007d7c0   Section        0  nrf_fstorage_sd.o(i.write)
    write                                    0x0007d7c1   Thumb Code    74  nrf_fstorage_sd.o(i.write)
    .constdata                               0x0007d810   Section        1  dfu-cc.pb.o(.constdata)
    .constdata                               0x0007d814   Section       36  dfu-cc.pb.o(.constdata)
    .constdata                               0x0007d838   Section      120  dfu-cc.pb.o(.constdata)
    .constdata                               0x0007d8b0   Section       24  dfu-cc.pb.o(.constdata)
    .constdata                               0x0007d8c8   Section       48  dfu-cc.pb.o(.constdata)
    .constdata                               0x0007d8f8   Section       48  dfu-cc.pb.o(.constdata)
    .constdata                               0x0007d928   Section       36  dfu-cc.pb.o(.constdata)
    .constdata                               0x0007d94c   Section       64  dfu_public_key.o(.constdata)
    .constdata                               0x0007d98c   Section       12  dfu_req_handling.o(.constdata)
    m_reset_timer                            0x0007d994   Data           4  dfu_req_handling.o(.constdata)
    .constdata                               0x0007d998   Section       40  nrf_ble_dfu.o(.constdata)
    .constdata                               0x0007d9c0   Section        4  nrf_dfu.o(.constdata)
    .constdata                               0x0007d9c4   Section       64  nrf_dfu_mbr.o(.constdata)
    .constdata                               0x0007da04   Section        4  nrf_dfu_utils.o(.constdata)
    .constdata                               0x0007da08   Section        8  nrf_crypto_sw_hash.o(.constdata)
    .constdata                               0x0007da10   Section       12  nrf_fstorage_nvmc.o(.constdata)
    m_flash_info                             0x0007da10   Data          12  nrf_fstorage_nvmc.o(.constdata)
    .constdata                               0x0007da1c   Section       32  nrf_fstorage_nvmc.o(.constdata)
    .constdata                               0x0007da3c   Section       16  nrf_fstorage_sd.o(.constdata)
    m_fifo                                   0x0007da3c   Data           4  nrf_fstorage_sd.o(.constdata)
    m_flash_info                             0x0007da40   Data          12  nrf_fstorage_sd.o(.constdata)
    .constdata                               0x0007da4c   Section       32  nrf_fstorage_sd.o(.constdata)
    .constdata                               0x0007da6c   Section      256  sha256.o(.constdata)
    k                                        0x0007da6c   Data         256  sha256.o(.constdata)
    .constdata                               0x0007db6c   Section       16  nrf_sdh.o(.constdata)
    sdh_req_observers_array                  0x0007db6c   Data          16  nrf_sdh.o(.constdata)
    .constdata                               0x0007db7c   Section       40  nrf_sdh.o(.constdata)
    sdh_req_observers                        0x0007db80   Data          12  nrf_sdh.o(.constdata)
    sdh_state_observers                      0x0007db8c   Data          12  nrf_sdh.o(.constdata)
    sdh_stack_observers                      0x0007db98   Data          12  nrf_sdh.o(.constdata)
    .constdata                               0x0007dba4   Section       16  nrf_sdh.o(.constdata)
    sdh_state_observers_array                0x0007dba4   Data          16  nrf_sdh.o(.constdata)
    .constdata                               0x0007dbb4   Section       16  nrf_sdh.o(.constdata)
    sdh_stack_observers_array                0x0007dbb4   Data          16  nrf_sdh.o(.constdata)
    .constdata                               0x0007dbc4   Section       32  nrf_sdh_ble.o(.constdata)
    sdh_ble_observers_array                  0x0007dbc4   Data          32  nrf_sdh_ble.o(.constdata)
    .constdata                               0x0007dbe4   Section       16  nrf_sdh_ble.o(.constdata)
    sdh_ble_observers                        0x0007dbe8   Data          12  nrf_sdh_ble.o(.constdata)
    .constdata                               0x0007dbf4   Section       16  nrf_sdh_soc.o(.constdata)
    sdh_soc_observers_array                  0x0007dbf4   Data          16  nrf_sdh_soc.o(.constdata)
    .constdata                               0x0007dc04   Section       12  nrf_sdh_soc.o(.constdata)
    sdh_soc_observers                        0x0007dc04   Data          12  nrf_sdh_soc.o(.constdata)
    .constdata                               0x0007dc10   Section       36  pb_decode.o(.constdata)
    PB_DECODERS                              0x0007dc10   Data          36  pb_decode.o(.constdata)
    [Anonymous Symbol]                       0x0007dc34   Section        0  micro_ecc_lib_uECC.c.o(.rodata.curve_secp256r1)
    curve_secp256r1                          0x0007dc34   Data         176  micro_ecc_lib_uECC.c.o(.rodata.curve_secp256r1)
    dfu_trans                                0x0007dd04   Section        8  nrf_ble_dfu.o(dfu_trans)
    __tagsym$$used                           0x0007dd04   Number         0  nrf_ble_dfu.o(dfu_trans)
    sdh_ble_observers2                       0x0007dd0c   Section        8  nrf_ble_dfu.o(sdh_ble_observers2)
    __tagsym$$used                           0x0007dd0c   Number         0  nrf_ble_dfu.o(sdh_ble_observers2)
    m_ble_evt_observer                       0x0007dd0c   Data           8  nrf_ble_dfu.o(sdh_ble_observers2)
    sdh_req_observers0                       0x0007dd14   Section        8  nrf_fstorage_sd.o(sdh_req_observers0)
    __tagsym$$used                           0x0007dd14   Number         0  nrf_fstorage_sd.o(sdh_req_observers0)
    sdh_soc_observers0                       0x0007dd1c   Section        8  nrf_drv_clock.o(sdh_soc_observers0)
    __tagsym$$used                           0x0007dd1c   Number         0  nrf_drv_clock.o(sdh_soc_observers0)
    m_soc_evt_observer                       0x0007dd1c   Data           8  nrf_drv_clock.o(sdh_soc_observers0)
    sdh_soc_observers0                       0x0007dd24   Section        8  nrf_fstorage_sd.o(sdh_soc_observers0)
    __tagsym$$used                           0x0007dd24   Number         0  nrf_fstorage_sd.o(sdh_soc_observers0)
    m_sys_obs                                0x0007dd24   Data           8  nrf_fstorage_sd.o(sdh_soc_observers0)
    sdh_stack_observers0                     0x0007dd2c   Section        8  nrf_sdh_ble.o(sdh_stack_observers0)
    __tagsym$$used                           0x0007dd2c   Number         0  nrf_sdh_ble.o(sdh_stack_observers0)
    m_nrf_sdh_ble_evts_poll                  0x0007dd2c   Data           8  nrf_sdh_ble.o(sdh_stack_observers0)
    sdh_stack_observers0                     0x0007dd34   Section        8  nrf_sdh_soc.o(sdh_stack_observers0)
    __tagsym$$used                           0x0007dd34   Number         0  nrf_sdh_soc.o(sdh_stack_observers0)
    m_nrf_sdh_soc_evts_poll                  0x0007dd34   Data           8  nrf_sdh_soc.o(sdh_stack_observers0)
    sdh_state_observers0                     0x0007dd3c   Section        8  nrf_drv_clock.o(sdh_state_observers0)
    __tagsym$$used                           0x0007dd3c   Number         0  nrf_drv_clock.o(sdh_state_observers0)
    m_sd_state_observer                      0x0007dd3c   Data           8  nrf_drv_clock.o(sdh_state_observers0)
    sdh_state_observers0                     0x0007dd44   Section        8  nrf_fstorage_sd.o(sdh_state_observers0)
    __tagsym$$used                           0x0007dd44   Number         0  nrf_fstorage_sd.o(sdh_state_observers0)
    m_state_obs                              0x0007dd44   Data           8  nrf_fstorage_sd.o(sdh_state_observers0)
    svc_data                                 0x0007dd4c   Section       12  nrf_dfu_svci_handler.o(svc_data)
    __tagsym$$used                           0x0007dd4c   Number         0  nrf_dfu_svci_handler.o(svc_data)
    .ARM.__AT_0x0007E000                     0x0007e000   Section     4096  nrf_dfu_settings.o(.ARM.__AT_0x0007E000)
    __tagsym$$used                           0x0007e000   Number         0  nrf_dfu_settings.o(.ARM.__AT_0x0007E000)
    .ARM.__AT_0x0007F000                     0x0007f000   Section     4096  nrf_dfu_settings.o(.ARM.__AT_0x0007F000)
    __tagsym$$used                           0x0007f000   Number         0  nrf_dfu_settings.o(.ARM.__AT_0x0007F000)
    .ARM.__AT_0x10001014                     0x10001014   Section        4  nrf_bootloader_info.o(.ARM.__AT_0x10001014)
    .ARM.__AT_0x10001018                     0x10001018   Section        4  nrf_dfu_settings.o(.ARM.__AT_0x10001018)
    .data                                    0x20002830   Section       56  dfu_req_handling.o(.data)
    timer_started                            0x20002830   Data           1  dfu_req_handling.o(.data)
    cur_obj_type                             0x20002831   Data           1  dfu_req_handling.o(.data)
    m_current_data_buffer                    0x20002832   Data           1  dfu_req_handling.o(.data)
    m_valid_init_packet_present              0x20002833   Data           1  dfu_req_handling.o(.data)
    m_is_dfu_complete_response_sent          0x20002834   Data           1  dfu_req_handling.o(.data)
    m_dfu_last_settings_write_started        0x20002835   Data           1  dfu_req_handling.o(.data)
    m_data_buf_pos                           0x20002836   Data           2  dfu_req_handling.o(.data)
    m_firmware_start_addr                    0x20002838   Data           4  dfu_req_handling.o(.data)
    m_firmware_size_req                      0x2000283c   Data           4  dfu_req_handling.o(.data)
    init_packet_data                         0x20002840   Data           8  dfu_req_handling.o(.data)
    crypto_key_pk                            0x20002848   Data           8  dfu_req_handling.o(.data)
    crypto_sig                               0x20002850   Data           8  dfu_req_handling.o(.data)
    init_packet_hash                         0x20002858   Data           8  dfu_req_handling.o(.data)
    fw_hash                                  0x20002860   Data           8  dfu_req_handling.o(.data)
    .data                                    0x20002868   Section       12  nrf_ble_dfu.o(.data)
    m_conn_handle                            0x20002868   Data           2  nrf_ble_dfu.o(.data)
    m_pkt_notif_target                       0x2000286a   Data           2  nrf_ble_dfu.o(.data)
    m_pkt_notif_target_cnt                   0x2000286c   Data           2  nrf_ble_dfu.o(.data)
    m_flags                                  0x20002870   Data           4  nrf_ble_dfu.o(.data)
    .data                                    0x20002874   Section        4  nrf_dfu_flash.o(.data)
    m_flash_operations_pending               0x20002874   Data           4  nrf_dfu_flash.o(.data)
    .data                                    0x20002878   Section        1  nrf_dfu_handling_error.o(.data)
    m_last_error                             0x20002878   Data           1  nrf_dfu_handling_error.o(.data)
    .data                                    0x2000287c   Section       16  app_scheduler.o(.data)
    m_queue_start_index                      0x2000287c   Data           1  app_scheduler.o(.data)
    m_queue_end_index                        0x2000287d   Data           1  app_scheduler.o(.data)
    m_queue_event_size                       0x2000287e   Data           2  app_scheduler.o(.data)
    m_queue_size                             0x20002880   Data           2  app_scheduler.o(.data)
    m_queue_event_headers                    0x20002884   Data           4  app_scheduler.o(.data)
    m_queue_event_data                       0x20002888   Data           4  app_scheduler.o(.data)
    .data                                    0x2000288c   Section       20  app_timer.o(.data)
    m_ticks_elapsed_q_read_ind               0x2000288c   Data           1  app_timer.o(.data)
    m_ticks_elapsed_q_write_ind              0x2000288d   Data           1  app_timer.o(.data)
    m_rtc1_running                           0x2000288e   Data           1  app_timer.o(.data)
    m_rtc1_reset                             0x2000288f   Data           1  app_timer.o(.data)
    mp_timer_id_head                         0x20002890   Data           4  app_timer.o(.data)
    m_ticks_latest                           0x20002894   Data           4  app_timer.o(.data)
    m_ticks_elapsed                          0x20002898   Data           8  app_timer.o(.data)
    .data                                    0x200028a0   Section        4  nrf_fstorage_nvmc.o(.data)
    m_flash_operation_ongoing                0x200028a0   Data           4  nrf_fstorage_nvmc.o(.data)
    .data                                    0x200028a4   Section        8  nrf_fstorage_sd.o(.data)
    m_p_cur_op                               0x200028a4   Data           4  nrf_fstorage_sd.o(.data)
    m_iget_ctx                               0x200028a8   Data           4  nrf_fstorage_sd.o(.data)
    .data                                    0x200028ac   Section        3  nrf_sdh.o(.data)
    m_nrf_sdh_enabled                        0x200028ac   Data           1  nrf_sdh.o(.data)
    m_nrf_sdh_suspended                      0x200028ad   Data           1  nrf_sdh.o(.data)
    m_nrf_sdh_continue                       0x200028ae   Data           1  nrf_sdh.o(.data)
    .data                                    0x200028b0   Section        4  system_nrf52.o(.data)
    __tagsym$$used                           0x200028b0   Number         0  system_nrf52.o(.data)
    fs_data                                  0x200028b4   Section       20  nrf_dfu_flash.o(fs_data)
    __tagsym$$used                           0x200028b4   Number         0  nrf_dfu_flash.o(fs_data)
    .bss                                     0x200028c8   Section      924  dfu_req_handling.o(.bss)
    packet                                   0x200028c8   Data         396  dfu_req_handling.o(.bss)
    m_data_buf                               0x20002a54   Data         512  dfu_req_handling.o(.bss)
    stream                                   0x20002c54   Data          16  dfu_req_handling.o(.bss)
    .bss                                     0x20002c64   Section       32  dfu_req_handling.o(.bss)
    m_reset_timer_data                       0x20002c64   Data          32  dfu_req_handling.o(.bss)
    .bss                                     0x20002c84   Section       64  dfu_req_handling.o(.bss)
    crypto_sig_buffer                        0x20002c84   Data          64  dfu_req_handling.o(.bss)
    .bss                                     0x20002cc4   Section       32  dfu_req_handling.o(.bss)
    init_packet_hash_buffer                  0x20002cc4   Data          32  dfu_req_handling.o(.bss)
    .bss                                     0x20002ce4   Section       32  dfu_req_handling.o(.bss)
    fw_hash_buffer                           0x20002ce4   Data          32  dfu_req_handling.o(.bss)
    .bss                                     0x20002d04   Section       68  nrf_ble_dfu.o(.bss)
    m_dfu                                    0x20002d04   Data          20  nrf_ble_dfu.o(.bss)
    m_notif_buffer                           0x20002d18   Data          17  nrf_ble_dfu.o(.bss)
    m_adv_name                               0x20002d2c   Data          28  nrf_ble_dfu.o(.bss)
    .bss                                     0x20002d48   Section       32  nrf_dfu.o(.bss)
    nrf_dfu_inactivity_timeout_timer         0x20002d48   Data          32  nrf_dfu.o(.bss)
    .bss                                     0x20002d68   Section      272  nrf_dfu.o(.bss)
    APP_SCHED_BUF                            0x20002d68   Data         272  nrf_dfu.o(.bss)
    .bss                                     0x20002e78   Section      880  nrf_dfu_settings.o(.bss)
    temp_dfu_settings                        0x20002e78   Data         440  nrf_dfu_settings.o(.bss)
    .bss                                     0x200031e8   Section       32  nrf_dfu_utils.o(.bss)
    nrf_dfu_post_sd_bl_timeout_timer         0x200031e8   Data          32  nrf_dfu_utils.o(.bss)
    .bss                                     0x20003208   Section       20  nrf_drv_clock.o(.bss)
    m_clock_cb                               0x20003208   Data          20  nrf_drv_clock.o(.bss)
    .bss                                     0x2000321c   Section      268  app_timer.o(.bss)
    m_op_queue                               0x2000321c   Data         268  app_timer.o(.bss)
    .bss                                     0x20003328   Section       12  app_util_platform.o(.bss)
    .bss                                     0x20003334   Section      272  nrf_fstorage_sd.o(.bss)
    m_fifo_data                              0x20003334   Data         252  nrf_fstorage_sd.o(.bss)
    m_flags                                  0x20003430   Data          20  nrf_fstorage_sd.o(.bss)
    .bss                                     0x20003444   Section       16  nrf_fstorage_sd.o(.bss)
    m_fifo_inst                              0x20003444   Data          16  nrf_fstorage_sd.o(.bss)
    STACK                                    0x20003458   Section     8192  arm_startup_nrf52.o(STACK)

    Global Symbols

    Symbol Name                              Value     Ov Type        Size  Object(Section)

    BuildAttributes$$THM_ISAv4$E$P$D$K$B$S$7EM$VFPi3$EXTD16$VFPS$VFMA$PE$A:L22UL41UL21$X:L11$S22US41US21$IEEE1$IW$USESV6$~STKCKD$USESV7$~SHL$OSPACE$IEEEX$EBA8$MICROLIB$REQ8$PRES8$EABIv2 0x00000000   Number         0  anon$$obj.o ABSOLUTE
    __ARM_use_no_argv                        0x00000000   Number         0  main.o ABSOLUTE
    __cpp_initialize__aeabi_                  - Undefined Weak Reference
    __cxa_finalize                            - Undefined Weak Reference
    __decompress                              - Undefined Weak Reference
    _clock_init                               - Undefined Weak Reference
    _microlib_exit                            - Undefined Weak Reference
    sdh_ble_observers0$$Base                  - Undefined Reference
    sdh_ble_observers0$$Limit                 - Undefined Reference
    sdh_ble_observers1$$Base                  - Undefined Reference
    sdh_ble_observers1$$Limit                 - Undefined Reference
    sdh_ble_observers3$$Base                  - Undefined Reference
    sdh_ble_observers3$$Limit                 - Undefined Reference
    sdh_req_observers1$$Base                  - Undefined Reference
    sdh_req_observers1$$Limit                 - Undefined Reference
    sdh_soc_observers1$$Base                  - Undefined Reference
    sdh_soc_observers1$$Limit                 - Undefined Reference
    sdh_stack_observers1$$Base                - Undefined Reference
    sdh_stack_observers1$$Limit               - Undefined Reference
    sdh_state_observers1$$Base                - Undefined Reference
    sdh_state_observers1$$Limit               - Undefined Reference
    __Vectors_Size                           0x00000200   Number         0  arm_startup_nrf52.o ABSOLUTE
    Image$$ER_IROM1$$Base                    0x00078000   Number         0  anon$$obj.o ABSOLUTE
    __Vectors                                0x00078000   Data           4  arm_startup_nrf52.o(RESET)
    __Vectors_End                            0x00078200   Data           0  arm_startup_nrf52.o(RESET)
    __main                                   0x00078201   Thumb Code     0  entry.o(.ARM.Collect$$$$00000000)
    _main_stk                                0x00078201   Thumb Code     0  entry2.o(.ARM.Collect$$$$00000001)
    _main_scatterload                        0x00078205   Thumb Code     0  entry5.o(.ARM.Collect$$$$00000004)
    __main_after_scatterload                 0x00078209   Thumb Code     0  entry5.o(.ARM.Collect$$$$00000004)
    _main_clock                              0x00078209   Thumb Code     0  entry7b.o(.ARM.Collect$$$$00000008)
    _main_cpp_init                           0x00078209   Thumb Code     0  entry8b.o(.ARM.Collect$$$$0000000A)
    _main_init                               0x00078209   Thumb Code     0  entry9a.o(.ARM.Collect$$$$0000000B)
    __rt_final_cpp                           0x00078211   Thumb Code     0  entry10a.o(.ARM.Collect$$$$0000000D)
    __rt_final_exit                          0x00078211   Thumb Code     0  entry11a.o(.ARM.Collect$$$$0000000F)
    nrf_bootloader_app_start_impl            0x00078215   Thumb Code    64  nrf_bootloader_app_start_asm.o(.emb_text)
    __asm___12_nrf_atfifo_c_51f461e1__nrf_atfifo_wspace_req 0x00078255   Thumb Code    56  nrf_atfifo.o(.emb_text)
    __asm___12_nrf_atfifo_c_51f461e1__nrf_atfifo_wspace_close 0x0007828d   Thumb Code    18  nrf_atfifo.o(.emb_text)
    __asm___12_nrf_atfifo_c_51f461e1__nrf_atfifo_rspace_req 0x0007829f   Thumb Code    58  nrf_atfifo.o(.emb_text)
    __asm___12_nrf_atfifo_c_51f461e1__nrf_atfifo_rspace_close 0x000782d9   Thumb Code    18  nrf_atfifo.o(.emb_text)
    __asm___12_nrf_atfifo_c_51f461e1__nrf_atfifo_space_clear 0x000782eb   Thumb Code    50  nrf_atfifo.o(.emb_text)
    __asm___19_nrf_fstorage_nvmc_c_c074401a__nrf_atomic_internal_mov 0x0007831d   Thumb Code    24  nrf_fstorage_nvmc.o(.emb_text)
    __asm___19_nrf_fstorage_nvmc_c_c074401a__nrf_atomic_internal_orr 0x00078335   Thumb Code    26  nrf_fstorage_nvmc.o(.emb_text)
    __asm___19_nrf_fstorage_nvmc_c_c074401a__nrf_atomic_internal_and 0x0007834f   Thumb Code    26  nrf_fstorage_nvmc.o(.emb_text)
    __asm___19_nrf_fstorage_nvmc_c_c074401a__nrf_atomic_internal_eor 0x00078369   Thumb Code    26  nrf_fstorage_nvmc.o(.emb_text)
    __asm___19_nrf_fstorage_nvmc_c_c074401a__nrf_atomic_internal_add 0x00078383   Thumb Code    26  nrf_fstorage_nvmc.o(.emb_text)
    __asm___19_nrf_fstorage_nvmc_c_c074401a__nrf_atomic_internal_sub 0x0007839d   Thumb Code    26  nrf_fstorage_nvmc.o(.emb_text)
    __asm___17_nrf_fstorage_sd_c_6e7dbfe9__nrf_atomic_internal_mov 0x000783b9   Thumb Code    24  nrf_fstorage_sd.o(.emb_text)
    __asm___17_nrf_fstorage_sd_c_6e7dbfe9__nrf_atomic_internal_orr 0x000783d1   Thumb Code    26  nrf_fstorage_sd.o(.emb_text)
    __asm___17_nrf_fstorage_sd_c_6e7dbfe9__nrf_atomic_internal_and 0x000783eb   Thumb Code    26  nrf_fstorage_sd.o(.emb_text)
    __asm___17_nrf_fstorage_sd_c_6e7dbfe9__nrf_atomic_internal_eor 0x00078405   Thumb Code    26  nrf_fstorage_sd.o(.emb_text)
    __asm___17_nrf_fstorage_sd_c_6e7dbfe9__nrf_atomic_internal_add 0x0007841f   Thumb Code    26  nrf_fstorage_sd.o(.emb_text)
    __asm___17_nrf_fstorage_sd_c_6e7dbfe9__nrf_atomic_internal_sub 0x00078439   Thumb Code    26  nrf_fstorage_sd.o(.emb_text)
    SVC_Handler                              0x00078455   Thumb Code    20  nrf_svc_handler.o(.emb_text)
    Reset_Handler                            0x00078469   Thumb Code     8  arm_startup_nrf52.o(.text)
    NMI_Handler                              0x00078471   Thumb Code     2  arm_startup_nrf52.o(.text)
    HardFault_Handler                        0x00078473   Thumb Code     2  arm_startup_nrf52.o(.text)
    MemoryManagement_Handler                 0x00078475   Thumb Code     2  arm_startup_nrf52.o(.text)
    BusFault_Handler                         0x00078477   Thumb Code     2  arm_startup_nrf52.o(.text)
    UsageFault_Handler                       0x00078479   Thumb Code     2  arm_startup_nrf52.o(.text)
    DebugMon_Handler                         0x0007847d   Thumb Code     2  arm_startup_nrf52.o(.text)
    PendSV_Handler                           0x0007847f   Thumb Code     2  arm_startup_nrf52.o(.text)
    SysTick_Handler                          0x00078481   Thumb Code     2  arm_startup_nrf52.o(.text)
    CCM_AAR_IRQHandler                       0x00078483   Thumb Code     0  arm_startup_nrf52.o(.text)
    COMP_LPCOMP_IRQHandler                   0x00078483   Thumb Code     0  arm_startup_nrf52.o(.text)
    ECB_IRQHandler                           0x00078483   Thumb Code     0  arm_startup_nrf52.o(.text)
    FPU_IRQHandler                           0x00078483   Thumb Code     0  arm_startup_nrf52.o(.text)
    GPIOTE_IRQHandler                        0x00078483   Thumb Code     0  arm_startup_nrf52.o(.text)
    I2S_IRQHandler                           0x00078483   Thumb Code     0  arm_startup_nrf52.o(.text)
    MWU_IRQHandler                           0x00078483   Thumb Code     0  arm_startup_nrf52.o(.text)
    NFCT_IRQHandler                          0x00078483   Thumb Code     0  arm_startup_nrf52.o(.text)
    PDM_IRQHandler                           0x00078483   Thumb Code     0  arm_startup_nrf52.o(.text)
    PWM0_IRQHandler                          0x00078483   Thumb Code     0  arm_startup_nrf52.o(.text)
    PWM1_IRQHandler                          0x00078483   Thumb Code     0  arm_startup_nrf52.o(.text)
    PWM2_IRQHandler                          0x00078483   Thumb Code     0  arm_startup_nrf52.o(.text)
    QDEC_IRQHandler                          0x00078483   Thumb Code     0  arm_startup_nrf52.o(.text)
    RADIO_IRQHandler                         0x00078483   Thumb Code     0  arm_startup_nrf52.o(.text)
    RNG_IRQHandler                           0x00078483   Thumb Code     0  arm_startup_nrf52.o(.text)
    RTC0_IRQHandler                          0x00078483   Thumb Code     0  arm_startup_nrf52.o(.text)
    RTC2_IRQHandler                          0x00078483   Thumb Code     0  arm_startup_nrf52.o(.text)
    SAADC_IRQHandler                         0x00078483   Thumb Code     0  arm_startup_nrf52.o(.text)
    SPIM0_SPIS0_TWIM0_TWIS0_SPI0_TWI0_IRQHandler 0x00078483   Thumb Code     0  arm_startup_nrf52.o(.text)
    SPIM1_SPIS1_TWIM1_TWIS1_SPI1_TWI1_IRQHandler 0x00078483   Thumb Code     0  arm_startup_nrf52.o(.text)
    SPIM2_SPIS2_SPI2_IRQHandler              0x00078483   Thumb Code     0  arm_startup_nrf52.o(.text)
    SWI1_EGU1_IRQHandler                     0x00078483   Thumb Code     0  arm_startup_nrf52.o(.text)
    SWI3_EGU3_IRQHandler                     0x00078483   Thumb Code     0  arm_startup_nrf52.o(.text)
    SWI4_EGU4_IRQHandler                     0x00078483   Thumb Code     0  arm_startup_nrf52.o(.text)
    SWI5_EGU5_IRQHandler                     0x00078483   Thumb Code     0  arm_startup_nrf52.o(.text)
    TEMP_IRQHandler                          0x00078483   Thumb Code     0  arm_startup_nrf52.o(.text)
    TIMER0_IRQHandler                        0x00078483   Thumb Code     0  arm_startup_nrf52.o(.text)
    TIMER1_IRQHandler                        0x00078483   Thumb Code     0  arm_startup_nrf52.o(.text)
    TIMER2_IRQHandler                        0x00078483   Thumb Code     0  arm_startup_nrf52.o(.text)
    TIMER3_IRQHandler                        0x00078483   Thumb Code     0  arm_startup_nrf52.o(.text)
    TIMER4_IRQHandler                        0x00078483   Thumb Code     0  arm_startup_nrf52.o(.text)
    UARTE0_UART0_IRQHandler                  0x00078483   Thumb Code     0  arm_startup_nrf52.o(.text)
    WDT_IRQHandler                           0x00078483   Thumb Code     0  arm_startup_nrf52.o(.text)
    __aeabi_llsl                             0x0007848d   Thumb Code    30  llshl.o(.text)
    _ll_shift_l                              0x0007848d   Thumb Code     0  llshl.o(.text)
    __aeabi_memcpy                           0x000784ab   Thumb Code    36  memcpya.o(.text)
    __aeabi_memcpy4                          0x000784ab   Thumb Code     0  memcpya.o(.text)
    __aeabi_memcpy8                          0x000784ab   Thumb Code     0  memcpya.o(.text)
    __aeabi_memset                           0x000784cf   Thumb Code    14  memseta.o(.text)
    __aeabi_memset4                          0x000784cf   Thumb Code     0  memseta.o(.text)
    __aeabi_memset8                          0x000784cf   Thumb Code     0  memseta.o(.text)
    __aeabi_memclr                           0x000784dd   Thumb Code     4  memseta.o(.text)
    __aeabi_memclr4                          0x000784dd   Thumb Code     0  memseta.o(.text)
    __aeabi_memclr8                          0x000784dd   Thumb Code     0  memseta.o(.text)
    memset                                   0x000784e1   Thumb Code    18  memseta.o(.text)
    memcmp                                   0x000784f3   Thumb Code    26  memcmp.o(.text)
    __scatterload                            0x0007850d   Thumb Code    28  init.o(.text)
    __scatterload_rt2                        0x0007850d   Thumb Code     0  init.o(.text)
    uECC_secp256r1                           0x00078821   Thumb Code     8  micro_ecc_lib_uECC.c.o(.text.uECC_secp256r1)
    uECC_verify                              0x00078829   Thumb Code   724  micro_ecc_lib_uECC.c.o(.text.uECC_verify)
    uECC_vli_add                             0x00078b01   Thumb Code    88  micro_ecc_lib_uECC.c.o(.text.uECC_vli_add)
    uECC_vli_clear                           0x00078b59   Thumb Code    24  micro_ecc_lib_uECC.c.o(.text.uECC_vli_clear)
    uECC_vli_equal                           0x00078b9b   Thumb Code    42  micro_ecc_lib_uECC.c.o(.text.uECC_vli_equal)
    uECC_vli_isZero                          0x00078bc5   Thumb Code    30  micro_ecc_lib_uECC.c.o(.text.uECC_vli_isZero)
    uECC_vli_mmod                            0x00078be5   Thumb Code   316  micro_ecc_lib_uECC.c.o(.text.uECC_vli_mmod)
    uECC_vli_modAdd                          0x00078d21   Thumb Code    50  micro_ecc_lib_uECC.c.o(.text.uECC_vli_modAdd)
    uECC_vli_modInv                          0x00078d53   Thumb Code   268  micro_ecc_lib_uECC.c.o(.text.uECC_vli_modInv)
    uECC_vli_modMult                         0x00078e5f   Thumb Code    36  micro_ecc_lib_uECC.c.o(.text.uECC_vli_modMult)
    uECC_vli_modMult_fast                    0x00078e83   Thumb Code    32  micro_ecc_lib_uECC.c.o(.text.uECC_vli_modMult_fast)
    uECC_vli_modSquare_fast                  0x00078ea3   Thumb Code    32  micro_ecc_lib_uECC.c.o(.text.uECC_vli_modSquare_fast)
    uECC_vli_modSub                          0x00078ec3   Thumb Code    36  micro_ecc_lib_uECC.c.o(.text.uECC_vli_modSub)
    uECC_vli_mult                            0x00078ee7   Thumb Code   786  micro_ecc_lib_uECC.c.o(.text.uECC_vli_mult)
    uECC_vli_numBits                         0x000791f9   Thumb Code    68  micro_ecc_lib_uECC.c.o(.text.uECC_vli_numBits)
    uECC_vli_rshift1                         0x0007923d   Thumb Code    26  micro_ecc_lib_uECC.c.o(.text.uECC_vli_rshift1)
    uECC_vli_set                             0x00079257   Thumb Code    26  micro_ecc_lib_uECC.c.o(.text.uECC_vli_set)
    uECC_vli_square                          0x00079271   Thumb Code   652  micro_ecc_lib_uECC.c.o(.text.uECC_vli_square)
    uECC_vli_sub                             0x00079501   Thumb Code    94  micro_ecc_lib_uECC.c.o(.text.uECC_vli_sub)
    uECC_vli_testBit                         0x00079561   Thumb Code    18  micro_ecc_lib_uECC.c.o(.text.uECC_vli_testBit)
    POWER_CLOCK_IRQHandler                   0x00079841   Thumb Code    84  nrf_drv_clock.o(i.POWER_CLOCK_IRQHandler)
    RTC1_IRQHandler                          0x00079899   Thumb Code    32  app_timer.o(i.RTC1_IRQHandler)
    SWI0_EGU0_IRQHandler                     0x000798bd   Thumb Code     4  app_timer.o(i.SWI0_EGU0_IRQHandler)
    SWI2_EGU2_IRQHandler                     0x000798c1   Thumb Code    26  nrf_sdh.o(i.SWI2_EGU2_IRQHandler)
    SystemInit                               0x000798e1   Thumb Code   700  system_nrf52.o(i.SystemInit)
    __scatterload_copy                       0x00079bdd   Thumb Code    14  handlers.o(i.__scatterload_copy)
    __scatterload_null                       0x00079beb   Thumb Code     2  handlers.o(i.__scatterload_null)
    __scatterload_zeroinit                   0x00079bed   Thumb Code    14  handlers.o(i.__scatterload_zeroinit)
    app_error_fault_handler                  0x00079ced   Thumb Code     4  main.o(i.app_error_fault_handler)
    app_error_handler_bare                   0x00079cf1   Thumb Code     4  main.o(i.app_error_handler_bare)
    app_sched_event_put                      0x00079cf5   Thumb Code   154  app_scheduler.o(i.app_sched_event_put)
    app_sched_execute                        0x00079d95   Thumb Code    58  app_scheduler.o(i.app_sched_execute)
    app_sched_init                           0x00079dd5   Thumb Code    40  app_scheduler.o(i.app_sched_init)
    app_timer_create                         0x00079e01   Thumb Code    36  app_timer.o(i.app_timer_create)
    app_timer_init                           0x00079e29   Thumb Code    70  app_timer.o(i.app_timer_init)
    app_timer_start                          0x00079e7d   Thumb Code   128  app_timer.o(i.app_timer_start)
    app_timer_stop                           0x00079f05   Thumb Code    26  app_timer.o(i.app_timer_stop)
    app_util_critical_region_enter           0x00079f25   Thumb Code    64  app_util_platform.o(i.app_util_critical_region_enter)
    app_util_critical_region_exit            0x00079f6d   Thumb Code    46  app_util_platform.o(i.app_util_critical_region_exit)
    ble_dfu_init                             0x00079fa5   Thumb Code    92  nrf_ble_dfu.o(i.ble_dfu_init)
    ble_dfu_transport_close                  0x0007a009   Thumb Code    54  nrf_ble_dfu.o(i.ble_dfu_transport_close)
    ble_dfu_transport_init                   0x0007a049   Thumb Code    88  nrf_ble_dfu.o(i.ble_dfu_transport_init)
    ble_srv_is_notification_enabled          0x0007a1fd   Thumb Code     8  ble_srv_common.o(i.ble_srv_is_notification_enabled)
    crc32_compute                            0x0007a36d   Thumb Code    54  crc32.o(i.crc32_compute)
    dfu_fstorage_evt_handler                 0x0007a5f9   Thumb Code    22  nrf_dfu_flash.o(i.dfu_fstorage_evt_handler)
    ext_error_get                            0x0007a995   Thumb Code    10  nrf_dfu_handling_error.o(i.ext_error_get)
    ext_error_set                            0x0007a9a5   Thumb Code     8  nrf_dfu_handling_error.o(i.ext_error_set)
    main                                     0x0007ac71   Thumb Code    26  main.o(i.main)
    nrf_atfifo_clear                         0x0007ac8b   Thumb Code    16  nrf_atfifo.o(i.nrf_atfifo_clear)
    nrf_atfifo_init                          0x0007ac9b   Thumb Code    38  nrf_atfifo.o(i.nrf_atfifo_init)
    nrf_atfifo_item_alloc                    0x0007acc1   Thumb Code    22  nrf_atfifo.o(i.nrf_atfifo_item_alloc)
    nrf_atfifo_item_free                     0x0007acd7   Thumb Code    22  nrf_atfifo.o(i.nrf_atfifo_item_free)
    nrf_atfifo_item_get                      0x0007aced   Thumb Code    22  nrf_atfifo.o(i.nrf_atfifo_item_get)
    nrf_atfifo_item_put                      0x0007ad03   Thumb Code    22  nrf_atfifo.o(i.nrf_atfifo_item_put)
    nrf_bootloader_app_start                 0x0007ad33   Thumb Code    46  nrf_bootloader_app_start.o(i.nrf_bootloader_app_start)
    nrf_bootloader_init                      0x0007ad61   Thumb Code    16  nrf_bootloader.o(i.nrf_bootloader_init)
    nrf_crypto_ecdsa_sizes_get               0x0007adad   Thumb Code   120  nrf_crypto_ecdsa.o(i.nrf_crypto_ecdsa_sizes_get)
    nrf_crypto_ecdsa_verify_hash             0x0007ae25   Thumb Code   146  micro_ecc_lib_ecdsa.o(i.nrf_crypto_ecdsa_verify_hash)
    nrf_crypto_hash_compute                  0x0007aeb9   Thumb Code   110  nrf_crypto_sw_hash.o(i.nrf_crypto_hash_compute)
    nrf_crypto_hash_finalize                 0x0007af2d   Thumb Code    70  nrf_crypto_sw_hash.o(i.nrf_crypto_hash_finalize)
    nrf_crypto_hash_init                     0x0007af73   Thumb Code    40  nrf_crypto_sw_hash.o(i.nrf_crypto_hash_init)
    nrf_crypto_hash_size_get                 0x0007af9b   Thumb Code    46  nrf_crypto_hash.o(i.nrf_crypto_hash_size_get)
    nrf_crypto_hash_update                   0x0007afc9   Thumb Code    24  nrf_crypto_sw_hash.o(i.nrf_crypto_hash_update)
    nrf_dfu_app_is_valid                     0x0007b195   Thumb Code    42  nrf_dfu_utils.o(i.nrf_dfu_app_is_valid)
    nrf_dfu_continue                         0x0007b349   Thumb Code    46  nrf_dfu_utils.o(i.nrf_dfu_continue)
    nrf_dfu_enter_check                      0x0007b645   Thumb Code    44  nrf_dfu.o(i.nrf_dfu_enter_check)
    nrf_dfu_find_cache                       0x0007b679   Thumb Code   108  nrf_dfu_utils.o(i.nrf_dfu_find_cache)
    nrf_dfu_flash_erase                      0x0007b6e9   Thumb Code    24  nrf_dfu_flash.o(i.nrf_dfu_flash_erase)
    nrf_dfu_flash_init                       0x0007b709   Thumb Code    16  nrf_dfu_flash.o(i.nrf_dfu_flash_init)
    nrf_dfu_flash_store                      0x0007b725   Thumb Code    26  nrf_dfu_flash.o(i.nrf_dfu_flash_store)
    nrf_dfu_init                             0x0007b749   Thumb Code   188  nrf_dfu.o(i.nrf_dfu_init)
    nrf_dfu_init_user                        0x0007b819   Thumb Code     4  nrf_bootloader.o(i.nrf_dfu_init_user)
    nrf_dfu_mbr_compare                      0x0007b835   Thumb Code    24  nrf_dfu_mbr.o(i.nrf_dfu_mbr_compare)
    nrf_dfu_mbr_copy_bl                      0x0007b851   Thumb Code    22  nrf_dfu_mbr.o(i.nrf_dfu_mbr_copy_bl)
    nrf_dfu_mbr_copy_sd                      0x0007b869   Thumb Code    32  nrf_dfu_mbr.o(i.nrf_dfu_mbr_copy_sd)
    nrf_dfu_mbr_init_sd                      0x0007b88d   Thumb Code    18  nrf_dfu_mbr.o(i.nrf_dfu_mbr_init_sd)
    nrf_dfu_req_handler_init                 0x0007ba45   Thumb Code    74  dfu_req_handling.o(i.nrf_dfu_req_handler_init)
    nrf_dfu_req_handler_on_req               0x0007ba99   Thumb Code    58  dfu_req_handling.o(i.nrf_dfu_req_handler_on_req)
    nrf_dfu_req_handler_reset_if_dfu_complete 0x0007bad9   Thumb Code    14  dfu_req_handling.o(i.nrf_dfu_req_handler_reset_if_dfu_complete)
    nrf_dfu_reset_timeout_handler            0x0007baed   Thumb Code    26  nrf_dfu_utils.o(i.nrf_dfu_reset_timeout_handler)
    nrf_dfu_settings_additional_erase        0x0007bc15   Thumb Code    46  nrf_dfu_settings_svci.o(i.nrf_dfu_settings_additional_erase)
    nrf_dfu_settings_adv_name_copy           0x0007bc49   Thumb Code    20  nrf_dfu_settings_svci.o(i.nrf_dfu_settings_adv_name_copy)
    nrf_dfu_settings_adv_name_is_valid       0x0007bc61   Thumb Code    28  nrf_dfu_settings_svci.o(i.nrf_dfu_settings_adv_name_is_valid)
    nrf_dfu_settings_adv_name_write          0x0007bc81   Thumb Code    50  nrf_dfu_settings_svci.o(i.nrf_dfu_settings_adv_name_write)
    nrf_dfu_settings_init                    0x0007bcc9   Thumb Code    76  nrf_dfu_settings.o(i.nrf_dfu_settings_init)
    nrf_dfu_settings_write                   0x0007bd1d   Thumb Code    58  nrf_dfu_settings.o(i.nrf_dfu_settings_write)
    nrf_dfu_transports_close                 0x0007bd65   Thumb Code    36  nrf_dfu_transport.o(i.nrf_dfu_transports_close)
    nrf_dfu_transports_init                  0x0007bd91   Thumb Code    34  nrf_dfu_transport.o(i.nrf_dfu_transports_init)
    nrf_drv_clock_init                       0x0007bdbd   Thumb Code    64  nrf_drv_clock.o(i.nrf_drv_clock_init)
    nrf_drv_clock_lfclk_release              0x0007be05   Thumb Code    40  nrf_drv_clock.o(i.nrf_drv_clock_lfclk_release)
    nrf_drv_clock_lfclk_request              0x0007be31   Thumb Code    96  nrf_drv_clock.o(i.nrf_drv_clock_lfclk_request)
    nrf_drv_clock_uninit                     0x0007be99   Thumb Code    34  nrf_drv_clock.o(i.nrf_drv_clock_uninit)
    nrf_drv_common_clock_irq_disable         0x0007bec1   Thumb Code    12  nrf_drv_common.o(i.nrf_drv_common_clock_irq_disable)
    nrf_drv_common_irq_enable                0x0007becd   Thumb Code    56  nrf_drv_common.o(i.nrf_drv_common_irq_enable)
    nrf_fstorage_erase                       0x0007bf05   Thumb Code    78  nrf_fstorage.o(i.nrf_fstorage_erase)
    nrf_fstorage_init                        0x0007bf53   Thumb Code    16  nrf_fstorage.o(i.nrf_fstorage_init)
    nrf_fstorage_sdh_req_handler             0x0007bf65   Thumb Code    18  nrf_fstorage_sd.o(i.nrf_fstorage_sdh_req_handler)
    nrf_fstorage_sdh_state_handler           0x0007bf7d   Thumb Code    28  nrf_fstorage_sd.o(i.nrf_fstorage_sdh_state_handler)
    nrf_fstorage_sys_evt_handler             0x0007bf9d   Thumb Code   146  nrf_fstorage_sd.o(i.nrf_fstorage_sys_evt_handler)
    nrf_fstorage_write                       0x0007c03d   Thumb Code   102  nrf_fstorage.o(i.nrf_fstorage_write)
    nrf_nvmc_page_erase                      0x0007c0c1   Thumb Code    40  nrf_nvmc.o(i.nrf_nvmc_page_erase)
    nrf_nvmc_write_words                     0x0007c0f1   Thumb Code    58  nrf_nvmc.o(i.nrf_nvmc_write_words)
    nrf_sdh_ble_app_ram_start_get            0x0007c135   Thumb Code    16  nrf_sdh_ble.o(i.nrf_sdh_ble_app_ram_start_get)
    nrf_sdh_ble_enable                       0x0007c149   Thumb Code     4  nrf_sdh_ble.o(i.nrf_sdh_ble_enable)
    nrf_sdh_disable_request                  0x0007c19d   Thumb Code    54  nrf_sdh.o(i.nrf_sdh_disable_request)
    nrf_sdh_enable_request                   0x0007c1d9   Thumb Code    96  nrf_sdh.o(i.nrf_sdh_enable_request)
    nrf_sdh_evts_poll                        0x0007c245   Thumb Code    32  nrf_sdh.o(i.nrf_sdh_evts_poll)
    nrf_sdh_is_enabled                       0x0007c269   Thumb Code     6  nrf_sdh.o(i.nrf_sdh_is_enabled)
    nrf_sdh_request_continue                 0x0007c275   Thumb Code    22  nrf_sdh.o(i.nrf_sdh_request_continue)
    nrf_section_iter_init                    0x0007c2cd   Thumb Code    10  nrf_section_iter.o(i.nrf_section_iter_init)
    nrf_section_iter_next                    0x0007c2fb   Thumb Code    32  nrf_section_iter.o(i.nrf_section_iter_next)
    nrf_svc_handler_c                        0x0007c31d   Thumb Code    84  nrf_svc_handler.o(i.nrf_svc_handler_c)
    pb_decode                                0x0007c77d   Thumb Code    30  pb_decode.o(i.pb_decode)
    pb_decode_fixed32                        0x0007c79b   Thumb Code    32  pb_decode.o(i.pb_decode_fixed32)
    pb_decode_fixed64                        0x0007c7bb   Thumb Code    92  pb_decode.o(i.pb_decode_fixed64)
    pb_decode_noinit                         0x0007c819   Thumb Code   390  pb_decode.o(i.pb_decode_noinit)
    pb_decode_svarint                        0x0007c99f   Thumb Code    58  pb_decode.o(i.pb_decode_svarint)
    pb_decode_tag                            0x0007c9d9   Thumb Code    66  pb_decode.o(i.pb_decode_tag)
    pb_decode_varint                         0x0007ca1b   Thumb Code    74  pb_decode.o(i.pb_decode_varint)
    pb_field_iter_begin                      0x0007cad5   Thumb Code    34  pb_common.o(i.pb_field_iter_begin)
    pb_field_iter_find                       0x0007caf7   Thumb Code    46  pb_common.o(i.pb_field_iter_find)
    pb_field_iter_next                       0x0007cb25   Thumb Code   128  pb_common.o(i.pb_field_iter_next)
    pb_istream_from_buffer                   0x0007cc49   Thumb Code    14  pb_decode.o(i.pb_istream_from_buffer)
    pb_make_string_substream                 0x0007cc5d   Thumb Code    54  pb_decode.o(i.pb_make_string_substream)
    pb_read                                  0x0007ccb9   Thumb Code    84  pb_decode.o(i.pb_read)
    pb_skip_field                            0x0007cd31   Thumb Code    90  pb_decode.o(i.pb_skip_field)
    sha256_final                             0x0007d1b1   Thumb Code   272  sha256.o(i.sha256_final)
    sha256_init                              0x0007d2c1   Thumb Code    50  sha256.o(i.sha256_init)
    sha256_transform                         0x0007d315   Thumb Code   294  sha256.o(i.sha256_transform)
    sha256_update                            0x0007d441   Thumb Code    84  sha256.o(i.sha256_update)
    dfu_init_command_is_debug_default        0x0007d810   Data           1  dfu-cc.pb.o(.constdata)
    dfu_hash_fields                          0x0007d814   Data          36  dfu-cc.pb.o(.constdata)
    dfu_init_command_fields                  0x0007d838   Data         120  dfu-cc.pb.o(.constdata)
    dfu_reset_command_fields                 0x0007d8b0   Data          24  dfu-cc.pb.o(.constdata)
    dfu_command_fields                       0x0007d8c8   Data          48  dfu-cc.pb.o(.constdata)
    dfu_signed_command_fields                0x0007d8f8   Data          48  dfu-cc.pb.o(.constdata)
    dfu_packet_fields                        0x0007d928   Data          36  dfu-cc.pb.o(.constdata)
    pk                                       0x0007d94c   Data          64  dfu_public_key.o(.constdata)
    hash_info_sha256                         0x0007d98c   Data           2  dfu_req_handling.o(.constdata)
    sig_info_p256                            0x0007d98e   Data           3  dfu_req_handling.o(.constdata)
    nrf_dfu_inactivity_timeout_timer_id      0x0007d9c0   Data           4  nrf_dfu.o(.constdata)
    nrf_dfu_post_sd_bl_timeout_timer_id      0x0007da04   Data           4  nrf_dfu_utils.o(.constdata)
    nrf_fstorage_nvmc                        0x0007da1c   Data          32  nrf_fstorage_nvmc.o(.constdata)
    nrf_fstorage_sd                          0x0007da4c   Data          32  nrf_fstorage_sd.o(.constdata)
    m_ram_start                              0x0007dbe4   Data           4  nrf_sdh_ble.o(.constdata)
    Region$$Table$$Base                      0x0007dce4   Number         0  anon$$obj.o(Region$$Table)
    Region$$Table$$Limit                     0x0007dd04   Number         0  anon$$obj.o(Region$$Table)
    dfu_trans                                0x0007dd04   Data           8  nrf_ble_dfu.o(dfu_trans)
    dfu_trans$$Base                          0x0007dd04   Number         0  nrf_ble_dfu.o(dfu_trans)
    dfu_trans$$Limit                         0x0007dd0c   Number         0  nrf_ble_dfu.o(dfu_trans)
    sdh_ble_observers2$$Base                 0x0007dd0c   Number         0  nrf_ble_dfu.o(sdh_ble_observers2)
    m_req_obs                                0x0007dd14   Data           8  nrf_fstorage_sd.o(sdh_req_observers0)
    sdh_ble_observers2$$Limit                0x0007dd14   Number         0  nrf_ble_dfu.o(sdh_ble_observers2)
    sdh_req_observers0$$Base                 0x0007dd14   Number         0  nrf_fstorage_sd.o(sdh_req_observers0)
    sdh_req_observers0$$Limit                0x0007dd1c   Number         0  nrf_fstorage_sd.o(sdh_req_observers0)
    sdh_soc_observers0$$Base                 0x0007dd1c   Number         0  nrf_drv_clock.o(sdh_soc_observers0)
    sdh_soc_observers0$$Limit                0x0007dd2c   Number         0  nrf_fstorage_sd.o(sdh_soc_observers0)
    sdh_stack_observers0$$Base               0x0007dd2c   Number         0  nrf_sdh_ble.o(sdh_stack_observers0)
    sdh_stack_observers0$$Limit              0x0007dd3c   Number         0  nrf_sdh_soc.o(sdh_stack_observers0)
    sdh_state_observers0$$Base               0x0007dd3c   Number         0  nrf_drv_clock.o(sdh_state_observers0)
    nrf_dfu_set_adv_name_var                 0x0007dd4c   Data          12  nrf_dfu_svci_handler.o(svc_data)
    sdh_state_observers0$$Limit              0x0007dd4c   Number         0  nrf_fstorage_sd.o(sdh_state_observers0)
    svc_data$$Base                           0x0007dd4c   Number         0  nrf_dfu_svci_handler.o(svc_data)
    svc_data$$Limit                          0x0007dd58   Number         0  nrf_dfu_svci_handler.o(svc_data)
    m_mbr_params_page                        0x0007e000   Data        4096  nrf_dfu_settings.o(.ARM.__AT_0x0007E000)
    m_dfu_settings_buffer                    0x0007f000   Data        4096  nrf_dfu_settings.o(.ARM.__AT_0x0007F000)
    m_uicr_bootloader_start_address          0x10001014   Data           4  nrf_bootloader_info.o(.ARM.__AT_0x10001014)
    m_uicr_mbr_params_page_address           0x10001018   Data           4  nrf_dfu_settings.o(.ARM.__AT_0x10001018)
    Image$$RW_IRAM1$$Base                    0x20002830   Number         0  anon$$obj.o ABSOLUTE
    SystemCoreClock                          0x200028b0   Data           4  system_nrf52.o(.data)
    fs_data$$Base                            0x200028b4   Number         0  nrf_dfu_flash.o(fs_data)
    m_fs                                     0x200028b4   Data          20  nrf_dfu_flash.o(fs_data)
    fs_data$$Limit                           0x200028c8   Number         0  nrf_dfu_flash.o(fs_data)
    s_dfu_settings                           0x20003030   Data         440  nrf_dfu_settings.o(.bss)
    nrf_nvic_state                           0x20003328   Data          12  app_util_platform.o(.bss)
    __initial_sp                             0x20005458   Data           0  arm_startup_nrf52.o(STACK)



==============================================================================

Memory Map of the image

  Image Entry point : 0x00078201

  Load Region LR_IROM1 (Base: 0x00078000, Size: 0x00005df0, Max: 0x00006000, ABSOLUTE)

    Execution Region ER_IROM1 (Exec base: 0x00078000, Load base: 0x00078000, Size: 0x00005d58, Max: 0x00006000, ABSOLUTE)

    Exec Addr    Load Addr    Size         Type   Attr      Idx    E Section Name        Object

    0x00078000   0x00078000   0x00000200   Data   RO         3692    RESET               arm_startup_nrf52.o
    0x00078200   0x00078200   0x00000000   Code   RO         3841  * .ARM.Collect$$$$00000000  mc_w.l(entry.o)
    0x00078200   0x00078200   0x00000004   Code   RO         3858    .ARM.Collect$$$$00000001  mc_w.l(entry2.o)
    0x00078204   0x00078204   0x00000004   Code   RO         3861    .ARM.Collect$$$$00000004  mc_w.l(entry5.o)
    0x00078208   0x00078208   0x00000000   Code   RO         3863    .ARM.Collect$$$$00000008  mc_w.l(entry7b.o)
    0x00078208   0x00078208   0x00000000   Code   RO         3865    .ARM.Collect$$$$0000000A  mc_w.l(entry8b.o)
    0x00078208   0x00078208   0x00000008   Code   RO         3866    .ARM.Collect$$$$0000000B  mc_w.l(entry9a.o)
    0x00078210   0x00078210   0x00000000   Code   RO         3868    .ARM.Collect$$$$0000000D  mc_w.l(entry10a.o)
    0x00078210   0x00078210   0x00000000   Code   RO         3870    .ARM.Collect$$$$0000000F  mc_w.l(entry11a.o)
    0x00078210   0x00078210   0x00000004   Code   RO         3859    .ARM.Collect$$$$00002712  mc_w.l(entry2.o)
    0x00078214   0x00078214   0x00000040   Code   RO          906    .emb_text           nrf_bootloader_app_start_asm.o
    0x00078254   0x00078254   0x000000c8   Code   RO         2697    .emb_text           nrf_atfifo.o
    0x0007831c   0x0007831c   0x0000009a   Code   RO         2835    .emb_text           nrf_fstorage_nvmc.o
    0x000783b6   0x000783b6   0x00000002   PAD
    0x000783b8   0x000783b8   0x0000009a   Code   RO         2929    .emb_text           nrf_fstorage_sd.o
    0x00078452   0x00078452   0x00000002   PAD
    0x00078454   0x00078454   0x00000014   Code   RO         3246    .emb_text           nrf_svc_handler.o
    0x00078468   0x00078468   0x00000024   Code   RO         3693    .text               arm_startup_nrf52.o
    0x0007848c   0x0007848c   0x0000001e   Code   RO         3844    .text               mc_w.l(llshl.o)
    0x000784aa   0x000784aa   0x00000024   Code   RO         3846    .text               mc_w.l(memcpya.o)
    0x000784ce   0x000784ce   0x00000024   Code   RO         3850    .text               mc_w.l(memseta.o)
    0x000784f2   0x000784f2   0x0000001a   Code   RO         3854    .text               mc_w.l(memcmp.o)
    0x0007850c   0x0007850c   0x00000024   Code   RO         3872    .text               mc_w.l(init.o)
    0x00078530   0x00078530   0x000000ca   Code   RO         3780    .text.XYcZ_add      micro_ecc_lib_nrf52.lib(micro_ecc_lib_uECC.c.o)
    0x000785fa   0x000785fa   0x0000003e   Code   RO         3781    .text.apply_z       micro_ecc_lib_nrf52.lib(micro_ecc_lib_uECC.c.o)
    0x00078638   0x00078638   0x0000000c   Code   RO         3736    .text.bcopy         micro_ecc_lib_nrf52.lib(micro_ecc_lib_uECC.c.o)
    0x00078644   0x00078644   0x00000088   Code   RO         3753    .text.bits2int      micro_ecc_lib_nrf52.lib(micro_ecc_lib_uECC.c.o)
    0x000786cc   0x000786cc   0x00000154   Code   RO         3776    .text.double_jacobian_default  micro_ecc_lib_nrf52.lib(micro_ecc_lib_uECC.c.o)
    0x00078820   0x00078820   0x00000008   Code   RO         3788    .text.uECC_secp256r1  micro_ecc_lib_nrf52.lib(micro_ecc_lib_uECC.c.o)
    0x00078828   0x00078828   0x000002d4   Code   RO         3801    .text.uECC_verify   micro_ecc_lib_nrf52.lib(micro_ecc_lib_uECC.c.o)
    0x00078afc   0x00078afc   0x00000004   PAD
    0x00078b00   0x00078b00   0x00000058   Code   RO         3742    .text.uECC_vli_add  micro_ecc_lib_nrf52.lib(micro_ecc_lib_uECC.c.o)
    0x00078b58   0x00078b58   0x00000018   Code   RO         3751    .text.uECC_vli_clear  micro_ecc_lib_nrf52.lib(micro_ecc_lib_uECC.c.o)
    0x00078b70   0x00078b70   0x0000002a   Code   RO         3737    .text.uECC_vli_cmp_unsafe  micro_ecc_lib_nrf52.lib(micro_ecc_lib_uECC.c.o)
    0x00078b9a   0x00078b9a   0x0000002a   Code   RO         3762    .text.uECC_vli_equal  micro_ecc_lib_nrf52.lib(micro_ecc_lib_uECC.c.o)
    0x00078bc4   0x00078bc4   0x0000001e   Code   RO         3754    .text.uECC_vli_isZero  micro_ecc_lib_nrf52.lib(micro_ecc_lib_uECC.c.o)
    0x00078be2   0x00078be2   0x00000002   PAD
    0x00078be4   0x00078be4   0x0000013c   Code   RO         3770    .text.uECC_vli_mmod  micro_ecc_lib_nrf52.lib(micro_ecc_lib_uECC.c.o)
    0x00078d20   0x00078d20   0x00000032   Code   RO         3768    .text.uECC_vli_modAdd  micro_ecc_lib_nrf52.lib(micro_ecc_lib_uECC.c.o)
    0x00078d52   0x00078d52   0x0000010c   Code   RO         3782    .text.uECC_vli_modInv  micro_ecc_lib_nrf52.lib(micro_ecc_lib_uECC.c.o)
    0x00078e5e   0x00078e5e   0x00000024   Code   RO         3771    .text.uECC_vli_modMult  micro_ecc_lib_nrf52.lib(micro_ecc_lib_uECC.c.o)
    0x00078e82   0x00078e82   0x00000020   Code   RO         3772    .text.uECC_vli_modMult_fast  micro_ecc_lib_nrf52.lib(micro_ecc_lib_uECC.c.o)
    0x00078ea2   0x00078ea2   0x00000020   Code   RO         3774    .text.uECC_vli_modSquare_fast  micro_ecc_lib_nrf52.lib(micro_ecc_lib_uECC.c.o)
    0x00078ec2   0x00078ec2   0x00000024   Code   RO         3769    .text.uECC_vli_modSub  micro_ecc_lib_nrf52.lib(micro_ecc_lib_uECC.c.o)
    0x00078ee6   0x00078ee6   0x00000312   Code   RO         3745    .text.uECC_vli_mult  micro_ecc_lib_nrf52.lib(micro_ecc_lib_uECC.c.o)
    0x000791f8   0x000791f8   0x00000044   Code   RO         3757    .text.uECC_vli_numBits  micro_ecc_lib_nrf52.lib(micro_ecc_lib_uECC.c.o)
    0x0007923c   0x0007923c   0x0000001a   Code   RO         3764    .text.uECC_vli_rshift1  micro_ecc_lib_nrf52.lib(micro_ecc_lib_uECC.c.o)
    0x00079256   0x00079256   0x0000001a   Code   RO         3758    .text.uECC_vli_set  micro_ecc_lib_nrf52.lib(micro_ecc_lib_uECC.c.o)
    0x00079270   0x00079270   0x0000028c   Code   RO         3746    .text.uECC_vli_square  micro_ecc_lib_nrf52.lib(micro_ecc_lib_uECC.c.o)
    0x000794fc   0x000794fc   0x00000004   PAD
    0x00079500   0x00079500   0x00000060   Code   RO         3744    .text.uECC_vli_sub  micro_ecc_lib_nrf52.lib(micro_ecc_lib_uECC.c.o)
    0x00079560   0x00079560   0x00000012   Code   RO         3755    .text.uECC_vli_testBit  micro_ecc_lib_nrf52.lib(micro_ecc_lib_uECC.c.o)
    0x00079572   0x00079572   0x00000002   PAD
    0x00079574   0x00079574   0x000001b0   Code   RO         3761    .text.vli_mmod_fast_secp256r1  micro_ecc_lib_nrf52.lib(micro_ecc_lib_uECC.c.o)
    0x00079724   0x00079724   0x0000003a   Code   RO         3765    .text.vli_modInv_update  micro_ecc_lib_nrf52.lib(micro_ecc_lib_uECC.c.o)
    0x0007975e   0x0007975e   0x0000005a   Code   RO         3775    .text.x_side_default  micro_ecc_lib_nrf52.lib(micro_ecc_lib_uECC.c.o)
    0x000797b8   0x000797b8   0x00000016   Code   RO         2256    i.NVIC_ClearPendingIRQ  app_timer.o
    0x000797ce   0x000797ce   0x00000016   Code   RO         2257    i.NVIC_EnableIRQ    app_timer.o
    0x000797e4   0x000797e4   0x00000016   Code   RO         2258    i.NVIC_SetPendingIRQ  app_timer.o
    0x000797fa   0x000797fa   0x00000020   Code   RO         2259    i.NVIC_SetPriority  app_timer.o
    0x0007981a   0x0007981a   0x00000002   PAD
    0x0007981c   0x0007981c   0x00000024   Code   RO          381    i.NVIC_SystemReset  main.o
    0x00079840   0x00079840   0x00000058   Code   RO         1898    i.POWER_CLOCK_IRQHandler  nrf_drv_clock.o
    0x00079898   0x00079898   0x00000024   Code   RO         2260    i.RTC1_IRQHandler   app_timer.o
    0x000798bc   0x000798bc   0x00000004   Code   RO         2261    i.SWI0_EGU0_IRQHandler  app_timer.o
    0x000798c0   0x000798c0   0x00000020   Code   RO         3275    i.SWI2_EGU2_IRQHandler  nrf_sdh.o
    0x000798e0   0x000798e0   0x000002fc   Code   RO         3701    i.SystemInit        system_nrf52.o
    0x00079bdc   0x00079bdc   0x0000000e   Code   RO         3876    i.__scatterload_copy  mc_w.l(handlers.o)
    0x00079bea   0x00079bea   0x00000002   Code   RO         3877    i.__scatterload_null  mc_w.l(handlers.o)
    0x00079bec   0x00079bec   0x0000000e   Code   RO         3878    i.__scatterload_zeroinit  mc_w.l(handlers.o)
    0x00079bfa   0x00079bfa   0x00000002   PAD
    0x00079bfc   0x00079bfc   0x00000024   Code   RO         3276    i.__sd_nvic_app_accessible_irq  nrf_sdh.o
    0x00079c20   0x00079c20   0x00000016   Code   RO         3277    i.__sd_nvic_is_app_accessible_priority  nrf_sdh.o
    0x00079c36   0x00079c36   0x0000000c   Code   RO         2767    i.addr_is_aligned32  nrf_fstorage.o
    0x00079c42   0x00079c42   0x00000018   Code   RO         2768    i.addr_within_bounds  nrf_fstorage.o
    0x00079c5a   0x00079c5a   0x00000002   PAD
    0x00079c5c   0x00079c5c   0x00000090   Code   RO          668    i.advertising_start  nrf_ble_dfu.o
    0x00079cec   0x00079cec   0x00000004   Code   RO          382    i.app_error_fault_handler  main.o
    0x00079cf0   0x00079cf0   0x00000004   Code   RO          383    i.app_error_handler_bare  main.o
    0x00079cf4   0x00079cf4   0x000000a0   Code   RO         2209    i.app_sched_event_put  app_scheduler.o
    0x00079d94   0x00079d94   0x00000040   Code   RO         2210    i.app_sched_execute  app_scheduler.o
    0x00079dd4   0x00079dd4   0x0000002c   Code   RO         2211    i.app_sched_init    app_scheduler.o
    0x00079e00   0x00079e00   0x00000028   Code   RO         2264    i.app_timer_create  app_timer.o
    0x00079e28   0x00079e28   0x00000054   Code   RO         2265    i.app_timer_init    app_timer.o
    0x00079e7c   0x00079e7c   0x00000088   Code   RO         2268    i.app_timer_start   app_timer.o
    0x00079f04   0x00079f04   0x00000020   Code   RO         2269    i.app_timer_stop    app_timer.o
    0x00079f24   0x00079f24   0x00000048   Code   RO         2425    i.app_util_critical_region_enter  app_util_platform.o
    0x00079f6c   0x00079f6c   0x00000034   Code   RO         2426    i.app_util_critical_region_exit  app_util_platform.o
    0x00079fa0   0x00079fa0   0x00000004   Code   RO         3278    i.appsh_events_poll  nrf_sdh.o
    0x00079fa4   0x00079fa4   0x00000064   Code   RO          669    i.ble_dfu_init      nrf_ble_dfu.o
    0x0007a008   0x0007a008   0x00000040   Code   RO          670    i.ble_dfu_transport_close  nrf_ble_dfu.o
    0x0007a048   0x0007a048   0x00000060   Code   RO          671    i.ble_dfu_transport_init  nrf_ble_dfu.o
    0x0007a0a8   0x0007a0a8   0x00000154   Code   RO          672    i.ble_evt_handler   nrf_ble_dfu.o
    0x0007a1fc   0x0007a1fc   0x00000008   Code   RO          590    i.ble_srv_is_notification_enabled  ble_srv_common.o
    0x0007a204   0x0007a204   0x00000078   Code   RO          673    i.ble_stack_init    nrf_ble_dfu.o
    0x0007a27c   0x0007a27c   0x0000001c   Code   RO         3517    i.buf_read          pb_decode.o
    0x0007a298   0x0007a298   0x00000028   Code   RO         1899    i.clock_clk_started_notify  nrf_drv_clock.o
    0x0007a2c0   0x0007a2c0   0x000000ac   Code   RO         2271    i.compare_reg_update  app_timer.o
    0x0007a36c   0x0007a36c   0x0000003c   Code   RO         2493    i.crc32_compute     crc32.o
    0x0007a3a8   0x0007a3a8   0x0000007e   Code   RO         3518    i.decode_callback_field  pb_decode.o
    0x0007a426   0x0007a426   0x0000001a   Code   RO         3519    i.decode_field      pb_decode.o
    0x0007a440   0x0007a440   0x000000e0   Code   RO         3520    i.decode_static_field  pb_decode.o
    0x0007a520   0x0007a520   0x00000084   Code   RO          674    i.dfu_ctrl_pt_add   nrf_ble_dfu.o
    0x0007a5a4   0x0007a5a4   0x00000054   Code   RO           51    i.dfu_decode_commmand  dfu_req_handling.o
    0x0007a5f8   0x0007a5f8   0x0000001c   Code   RO         1015    i.dfu_fstorage_evt_handler  nrf_dfu_flash.o
    0x0007a614   0x0007a614   0x000001a0   Code   RO           52    i.dfu_handle_prevalidate  dfu_req_handling.o
    0x0007a7b4   0x0007a7b4   0x00000082   Code   RO          675    i.dfu_pkt_char_add  nrf_ble_dfu.o
    0x0007a836   0x0007a836   0x00000002   PAD
    0x0007a838   0x0007a838   0x00000040   Code   RO         2272    i.elapsed_ticks_acquire  app_timer.o
    0x0007a878   0x0007a878   0x00000048   Code   RO         2836    i.erase             nrf_fstorage_nvmc.o
    0x0007a8c0   0x0007a8c0   0x0000004c   Code   RO         2930    i.erase             nrf_fstorage_sd.o
    0x0007a90c   0x0007a90c   0x00000038   Code   RO         2837    i.event_send        nrf_fstorage_nvmc.o
    0x0007a944   0x0007a944   0x0000004e   Code   RO         2931    i.event_send        nrf_fstorage_sd.o
    0x0007a992   0x0007a992   0x00000002   PAD
    0x0007a994   0x0007a994   0x00000010   Code   RO         1082    i.ext_error_get     nrf_dfu_handling_error.o
    0x0007a9a4   0x0007a9a4   0x0000000c   Code   RO         1083    i.ext_error_set     nrf_dfu_handling_error.o
    0x0007a9b0   0x0007a9b0   0x00000090   Code   RO          676    i.gap_params_init   nrf_ble_dfu.o
    0x0007aa40   0x0007aa40   0x0000002c   Code   RO         1900    i.hfclk_stop        nrf_drv_clock.o
    0x0007aa6c   0x0007aa6c   0x00000030   Code   RO           53    i.inactivity_timer_restart  dfu_req_handling.o
    0x0007aa9c   0x0007aa9c   0x0000000c   Code   RO         2838    i.init              nrf_fstorage_nvmc.o
    0x0007aaa8   0x0007aaa8   0x00000038   Code   RO         2932    i.init              nrf_fstorage_sd.o
    0x0007aae0   0x0007aae0   0x00000010   Code   RO         2839    i.is_busy           nrf_fstorage_nvmc.o
    0x0007aaf0   0x0007aaf0   0x00000010   Code   RO         2933    i.is_busy           nrf_fstorage_sd.o
    0x0007ab00   0x0007ab00   0x0000000c   Code   RO         1691    i.is_word_aligned   micro_ecc_lib_ecdsa.o
    0x0007ab0c   0x0007ab0c   0x00000016   Code   RO         1901    i.item_enqueue      nrf_drv_clock.o
    0x0007ab22   0x0007ab22   0x0000002e   Code   RO         3521    i.iter_from_extension  pb_decode.o
    0x0007ab50   0x0007ab50   0x00000028   Code   RO         1902    i.lfclk_stop        nrf_drv_clock.o
    0x0007ab78   0x0007ab78   0x000000f8   Code   RO         2273    i.list_insertions_handler  app_timer.o
    0x0007ac70   0x0007ac70   0x0000001a   Code   RO          384    i.main              main.o
    0x0007ac8a   0x0007ac8a   0x00000010   Code   RO         2699    i.nrf_atfifo_clear  nrf_atfifo.o
    0x0007ac9a   0x0007ac9a   0x00000026   Code   RO         2701    i.nrf_atfifo_init   nrf_atfifo.o
    0x0007acc0   0x0007acc0   0x00000016   Code   RO         2702    i.nrf_atfifo_item_alloc  nrf_atfifo.o
    0x0007acd6   0x0007acd6   0x00000016   Code   RO         2703    i.nrf_atfifo_item_free  nrf_atfifo.o
    0x0007acec   0x0007acec   0x00000016   Code   RO         2704    i.nrf_atfifo_item_get  nrf_atfifo.o
    0x0007ad02   0x0007ad02   0x00000016   Code   RO         2705    i.nrf_atfifo_item_put  nrf_atfifo.o
    0x0007ad18   0x0007ad18   0x0000000e   Code   RO         2840    i.nrf_atomic_flag_clear  nrf_fstorage_nvmc.o
    0x0007ad26   0x0007ad26   0x0000000c   Code   RO         2841    i.nrf_atomic_flag_set_fetch  nrf_fstorage_nvmc.o
    0x0007ad32   0x0007ad32   0x0000002e   Code   RO          885    i.nrf_bootloader_app_start  nrf_bootloader_app_start.o
    0x0007ad60   0x0007ad60   0x00000010   Code   RO          843    i.nrf_bootloader_init  nrf_bootloader.o
    0x0007ad70   0x0007ad70   0x0000000e   Code   RO         1903    i.nrf_clock_event_check  nrf_drv_clock.o
    0x0007ad7e   0x0007ad7e   0x00000010   Code   RO         1904    i.nrf_clock_event_clear  nrf_drv_clock.o
    0x0007ad8e   0x0007ad8e   0x00000002   PAD
    0x0007ad90   0x0007ad90   0x0000001c   Code   RO         1905    i.nrf_clock_hf_is_running  nrf_drv_clock.o
    0x0007adac   0x0007adac   0x00000078   Code   RO         1432    i.nrf_crypto_ecdsa_sizes_get  nrf_crypto_ecdsa.o
    0x0007ae24   0x0007ae24   0x00000092   Code   RO         1692    i.nrf_crypto_ecdsa_verify_hash  micro_ecc_lib_ecdsa.o
    0x0007aeb6   0x0007aeb6   0x00000002   PAD
    0x0007aeb8   0x0007aeb8   0x00000074   Code   RO         1834    i.nrf_crypto_hash_compute  nrf_crypto_sw_hash.o
    0x0007af2c   0x0007af2c   0x00000046   Code   RO         1835    i.nrf_crypto_hash_finalize  nrf_crypto_sw_hash.o
    0x0007af72   0x0007af72   0x00000028   Code   RO         1836    i.nrf_crypto_hash_init  nrf_crypto_sw_hash.o
    0x0007af9a   0x0007af9a   0x0000002e   Code   RO         1478    i.nrf_crypto_hash_size_get  nrf_crypto_hash.o
    0x0007afc8   0x0007afc8   0x00000018   Code   RO         1837    i.nrf_crypto_hash_update  nrf_crypto_sw_hash.o
    0x0007afe0   0x0007afe0   0x0000008c   Code   RO          677    i.nrf_delay_us      nrf_ble_dfu.o
    0x0007b06c   0x0007b06c   0x0000008c   Code   RO         2274    i.nrf_delay_us      app_timer.o
    0x0007b0f8   0x0007b0f8   0x0000009c   Code   RO         1314    i.nrf_dfu_app_continue  nrf_dfu_utils.o
    0x0007b194   0x0007b194   0x00000030   Code   RO         1315    i.nrf_dfu_app_is_valid  nrf_dfu_utils.o
    0x0007b1c4   0x0007b1c4   0x00000058   Code   RO         1316    i.nrf_dfu_bl_continue  nrf_dfu_utils.o
    0x0007b21c   0x0007b21c   0x0000012c   Code   RO           54    i.nrf_dfu_command_req  dfu_req_handling.o
    0x0007b348   0x0007b348   0x00000034   Code   RO         1317    i.nrf_dfu_continue  nrf_dfu_utils.o
    0x0007b37c   0x0007b37c   0x00000094   Code   RO         1318    i.nrf_dfu_continue_bank  nrf_dfu_utils.o
    0x0007b410   0x0007b410   0x00000234   Code   RO           55    i.nrf_dfu_data_req  dfu_req_handling.o
    0x0007b644   0x0007b644   0x00000034   Code   RO          940    i.nrf_dfu_enter_check  nrf_dfu.o
    0x0007b678   0x0007b678   0x00000070   Code   RO         1319    i.nrf_dfu_find_cache  nrf_dfu_utils.o
    0x0007b6e8   0x0007b6e8   0x00000020   Code   RO         1016    i.nrf_dfu_flash_erase  nrf_dfu_flash.o
    0x0007b708   0x0007b708   0x0000001c   Code   RO         1017    i.nrf_dfu_flash_init  nrf_dfu_flash.o
    0x0007b724   0x0007b724   0x00000024   Code   RO         1018    i.nrf_dfu_flash_store  nrf_dfu_flash.o
    0x0007b748   0x0007b748   0x000000d0   Code   RO          941    i.nrf_dfu_init      nrf_dfu.o
    0x0007b818   0x0007b818   0x00000004   Code   RO          845    i.nrf_dfu_init_user  nrf_bootloader.o
    0x0007b81c   0x0007b81c   0x00000018   Code   RO         1320    i.nrf_dfu_invalidate_bank  nrf_dfu_utils.o
    0x0007b834   0x0007b834   0x0000001c   Code   RO         1120    i.nrf_dfu_mbr_compare  nrf_dfu_mbr.o
    0x0007b850   0x0007b850   0x00000016   Code   RO         1121    i.nrf_dfu_mbr_copy_bl  nrf_dfu_mbr.o
    0x0007b866   0x0007b866   0x00000002   PAD
    0x0007b868   0x0007b868   0x00000024   Code   RO         1122    i.nrf_dfu_mbr_copy_sd  nrf_dfu_mbr.o
    0x0007b88c   0x0007b88c   0x00000018   Code   RO         1123    i.nrf_dfu_mbr_init_sd  nrf_dfu_mbr.o
    0x0007b8a4   0x0007b8a4   0x000001a0   Code   RO           56    i.nrf_dfu_postvalidate  dfu_req_handling.o
    0x0007ba44   0x0007ba44   0x00000054   Code   RO           57    i.nrf_dfu_req_handler_init  dfu_req_handling.o
    0x0007ba98   0x0007ba98   0x00000040   Code   RO           58    i.nrf_dfu_req_handler_on_req  dfu_req_handling.o
    0x0007bad8   0x0007bad8   0x00000014   Code   RO           59    i.nrf_dfu_req_handler_reset_if_dfu_complete  dfu_req_handling.o
    0x0007baec   0x0007baec   0x00000024   Code   RO         1321    i.nrf_dfu_reset_timeout_handler  nrf_dfu_utils.o
    0x0007bb10   0x0007bb10   0x0000008c   Code   RO         1322    i.nrf_dfu_sd_continue_impl  nrf_dfu_utils.o
    0x0007bb9c   0x0007bb9c   0x00000020   Code   RO         3210    i.nrf_dfu_set_adv_name_handler  nrf_dfu_svci_handler.o
    0x0007bbbc   0x0007bbbc   0x00000032   Code   RO         3211    i.nrf_dfu_set_adv_name_on_call  nrf_dfu_svci_handler.o
    0x0007bbee   0x0007bbee   0x00000024   Code   RO         3212    i.nrf_dfu_set_adv_name_on_sys_evt  nrf_dfu_svci_handler.o
    0x0007bc12   0x0007bc12   0x00000002   PAD
    0x0007bc14   0x0007bc14   0x00000034   Code   RO         1229    i.nrf_dfu_settings_additional_erase  nrf_dfu_settings_svci.o
    0x0007bc48   0x0007bc48   0x00000018   Code   RO         1230    i.nrf_dfu_settings_adv_name_copy  nrf_dfu_settings_svci.o
    0x0007bc60   0x0007bc60   0x00000020   Code   RO         1231    i.nrf_dfu_settings_adv_name_is_valid  nrf_dfu_settings_svci.o
    0x0007bc80   0x0007bc80   0x00000038   Code   RO         1232    i.nrf_dfu_settings_adv_name_write  nrf_dfu_settings_svci.o
    0x0007bcb8   0x0007bcb8   0x00000010   Code   RO         1173    i.nrf_dfu_settings_crc_get  nrf_dfu_settings.o
    0x0007bcc8   0x0007bcc8   0x00000054   Code   RO         1174    i.nrf_dfu_settings_init  nrf_dfu_settings.o
    0x0007bd1c   0x0007bd1c   0x00000048   Code   RO         1175    i.nrf_dfu_settings_write  nrf_dfu_settings.o
    0x0007bd64   0x0007bd64   0x0000002c   Code   RO         1280    i.nrf_dfu_transports_close  nrf_dfu_transport.o
    0x0007bd90   0x0007bd90   0x0000002c   Code   RO         1281    i.nrf_dfu_transports_init  nrf_dfu_transport.o
    0x0007bdbc   0x0007bdbc   0x00000048   Code   RO         1911    i.nrf_drv_clock_init  nrf_drv_clock.o
    0x0007be04   0x0007be04   0x0000002c   Code   RO         1915    i.nrf_drv_clock_lfclk_release  nrf_drv_clock.o
    0x0007be30   0x0007be30   0x00000068   Code   RO         1916    i.nrf_drv_clock_lfclk_request  nrf_drv_clock.o
    0x0007be98   0x0007be98   0x00000028   Code   RO         1917    i.nrf_drv_clock_uninit  nrf_drv_clock.o
    0x0007bec0   0x0007bec0   0x0000000c   Code   RO         2073    i.nrf_drv_common_clock_irq_disable  nrf_drv_common.o
    0x0007becc   0x0007becc   0x00000038   Code   RO         2074    i.nrf_drv_common_irq_enable  nrf_drv_common.o
    0x0007bf04   0x0007bf04   0x0000004e   Code   RO         2769    i.nrf_fstorage_erase  nrf_fstorage.o
    0x0007bf52   0x0007bf52   0x00000010   Code   RO         2770    i.nrf_fstorage_init  nrf_fstorage.o
    0x0007bf62   0x0007bf62   0x00000002   PAD
    0x0007bf64   0x0007bf64   0x00000018   Code   RO         2934    i.nrf_fstorage_sdh_req_handler  nrf_fstorage_sd.o
    0x0007bf7c   0x0007bf7c   0x00000020   Code   RO         2935    i.nrf_fstorage_sdh_state_handler  nrf_fstorage_sd.o
    0x0007bf9c   0x0007bf9c   0x000000a0   Code   RO         2936    i.nrf_fstorage_sys_evt_handler  nrf_fstorage_sd.o
    0x0007c03c   0x0007c03c   0x00000066   Code   RO         2776    i.nrf_fstorage_write  nrf_fstorage.o
    0x0007c0a2   0x0007c0a2   0x00000010   Code   RO          678    i.nrf_gpio_cfg_output  nrf_ble_dfu.o
    0x0007c0b2   0x0007c0b2   0x0000000e   Code   RO          679    i.nrf_gpio_pin_set  nrf_ble_dfu.o
    0x0007c0c0   0x0007c0c0   0x00000030   Code   RO         2128    i.nrf_nvmc_page_erase  nrf_nvmc.o
    0x0007c0f0   0x0007c0f0   0x00000044   Code   RO         2132    i.nrf_nvmc_write_words  nrf_nvmc.o
    0x0007c134   0x0007c134   0x00000014   Code   RO         3408    i.nrf_sdh_ble_app_ram_start_get  nrf_sdh_ble.o
    0x0007c148   0x0007c148   0x00000004   Code   RO         3410    i.nrf_sdh_ble_enable  nrf_sdh_ble.o
    0x0007c14c   0x0007c14c   0x00000050   Code   RO         3411    i.nrf_sdh_ble_evts_poll  nrf_sdh_ble.o
    0x0007c19c   0x0007c19c   0x0000003c   Code   RO         3279    i.nrf_sdh_disable_request  nrf_sdh.o
    0x0007c1d8   0x0007c1d8   0x0000006c   Code   RO         3280    i.nrf_sdh_enable_request  nrf_sdh.o
    0x0007c244   0x0007c244   0x00000024   Code   RO         3281    i.nrf_sdh_evts_poll  nrf_sdh.o
    0x0007c268   0x0007c268   0x0000000c   Code   RO         3282    i.nrf_sdh_is_enabled  nrf_sdh.o
    0x0007c274   0x0007c274   0x0000001c   Code   RO         3284    i.nrf_sdh_request_continue  nrf_sdh.o
    0x0007c290   0x0007c290   0x0000003c   Code   RO         3461    i.nrf_sdh_soc_evts_poll  nrf_sdh_soc.o
    0x0007c2cc   0x0007c2cc   0x0000000a   Code   RO         3058    i.nrf_section_iter_init  nrf_section_iter.o
    0x0007c2d6   0x0007c2d6   0x00000024   Code   RO         3059    i.nrf_section_iter_item_set  nrf_section_iter.o
    0x0007c2fa   0x0007c2fa   0x00000020   Code   RO         3060    i.nrf_section_iter_next  nrf_section_iter.o
    0x0007c31a   0x0007c31a   0x00000002   PAD
    0x0007c31c   0x0007c31c   0x0000005c   Code   RO         3247    i.nrf_svc_handler_c  nrf_svc_handler.o
    0x0007c378   0x0007c378   0x000000f8   Code   RO          680    i.on_ctrl_pt_write  nrf_ble_dfu.o
    0x0007c470   0x0007c470   0x00000044   Code   RO           60    i.on_dfu_complete   dfu_req_handling.o
    0x0007c4b4   0x0007c4b4   0x00000094   Code   RO          681    i.on_rw_authorize_req  nrf_ble_dfu.o
    0x0007c548   0x0007c548   0x00000060   Code   RO          682    i.on_write          nrf_ble_dfu.o
    0x0007c5a8   0x0007c5a8   0x00000040   Code   RO         3523    i.pb_dec_bytes      pb_decode.o
    0x0007c5e8   0x0007c5e8   0x00000006   Code   RO         3524    i.pb_dec_fixed32    pb_decode.o
    0x0007c5ee   0x0007c5ee   0x00000006   Code   RO         3525    i.pb_dec_fixed64    pb_decode.o
    0x0007c5f4   0x0007c5f4   0x0000003e   Code   RO         3526    i.pb_dec_string     pb_decode.o
    0x0007c632   0x0007c632   0x00000040   Code   RO         3527    i.pb_dec_submessage  pb_decode.o
    0x0007c672   0x0007c672   0x00000058   Code   RO         3528    i.pb_dec_svarint    pb_decode.o
    0x0007c6ca   0x0007c6ca   0x00000058   Code   RO         3529    i.pb_dec_uvarint    pb_decode.o
    0x0007c722   0x0007c722   0x0000005a   Code   RO         3530    i.pb_dec_varint     pb_decode.o
    0x0007c77c   0x0007c77c   0x0000001e   Code   RO         3531    i.pb_decode         pb_decode.o
    0x0007c79a   0x0007c79a   0x00000020   Code   RO         3533    i.pb_decode_fixed32  pb_decode.o
    0x0007c7ba   0x0007c7ba   0x0000005c   Code   RO         3534    i.pb_decode_fixed64  pb_decode.o
    0x0007c816   0x0007c816   0x00000002   PAD
    0x0007c818   0x0007c818   0x00000186   Code   RO         3535    i.pb_decode_noinit  pb_decode.o
    0x0007c99e   0x0007c99e   0x0000003a   Code   RO         3536    i.pb_decode_svarint  pb_decode.o
    0x0007c9d8   0x0007c9d8   0x00000042   Code   RO         3537    i.pb_decode_tag     pb_decode.o
    0x0007ca1a   0x0007ca1a   0x0000004a   Code   RO         3538    i.pb_decode_varint  pb_decode.o
    0x0007ca64   0x0007ca64   0x0000004c   Code   RO         3539    i.pb_decode_varint32  pb_decode.o
    0x0007cab0   0x0007cab0   0x00000024   Code   RO           61    i.pb_decoding_callback  dfu_req_handling.o
    0x0007cad4   0x0007cad4   0x00000022   Code   RO         3490    i.pb_field_iter_begin  pb_common.o
    0x0007caf6   0x0007caf6   0x0000002e   Code   RO         3491    i.pb_field_iter_find  pb_common.o
    0x0007cb24   0x0007cb24   0x00000080   Code   RO         3492    i.pb_field_iter_next  pb_common.o
    0x0007cba4   0x0007cba4   0x000000a4   Code   RO         3540    i.pb_field_set_to_default  pb_decode.o
    0x0007cc48   0x0007cc48   0x00000014   Code   RO         3541    i.pb_istream_from_buffer  pb_decode.o
    0x0007cc5c   0x0007cc5c   0x00000036   Code   RO         3542    i.pb_make_string_substream  pb_decode.o
    0x0007cc92   0x0007cc92   0x00000026   Code   RO         3543    i.pb_message_set_to_defaults  pb_decode.o
    0x0007ccb8   0x0007ccb8   0x00000058   Code   RO         3544    i.pb_read           pb_decode.o
    0x0007cd10   0x0007cd10   0x00000020   Code   RO         3545    i.pb_readbyte       pb_decode.o
    0x0007cd30   0x0007cd30   0x0000005a   Code   RO         3546    i.pb_skip_field     pb_decode.o
    0x0007cd8a   0x0007cd8a   0x00000002   PAD
    0x0007cd8c   0x0007cd8c   0x00000094   Code   RO         2937    i.queue_process     nrf_fstorage_sd.o
    0x0007ce20   0x0007ce20   0x00000028   Code   RO         2938    i.queue_start       nrf_fstorage_sd.o
    0x0007ce48   0x0007ce48   0x0000000e   Code   RO         2842    i.read              nrf_fstorage_nvmc.o
    0x0007ce56   0x0007ce56   0x0000000e   Code   RO         2939    i.read              nrf_fstorage_sd.o
    0x0007ce64   0x0007ce64   0x00000062   Code   RO         3547    i.read_raw_value    pb_decode.o
    0x0007cec6   0x0007cec6   0x00000002   PAD
    0x0007cec8   0x0007cec8   0x00000038   Code   RO           62    i.reset_device      dfu_req_handling.o
    0x0007cf00   0x0007cf00   0x00000040   Code   RO         1323    i.reset_device_callback  nrf_dfu_utils.o
    0x0007cf40   0x0007cf40   0x00000058   Code   RO          683    i.response_crc_cmd_send  nrf_ble_dfu.o
    0x0007cf98   0x0007cf98   0x00000064   Code   RO          684    i.response_select_object_cmd_send  nrf_ble_dfu.o
    0x0007cffc   0x0007cffc   0x00000054   Code   RO          685    i.response_send     nrf_ble_dfu.o
    0x0007d050   0x0007d050   0x00000004   Code   RO         2843    i.rmap              nrf_fstorage_nvmc.o
    0x0007d054   0x0007d054   0x00000004   Code   RO         2940    i.rmap              nrf_fstorage_sd.o
    0x0007d058   0x0007d058   0x0000003c   Code   RO         2275    i.rtc1_stop         app_timer.o
    0x0007d094   0x0007d094   0x00000042   Code   RO         3287    i.sd_nvic_SetPriority  nrf_sdh.o
    0x0007d0d6   0x0007d0d6   0x00000002   PAD
    0x0007d0d8   0x0007d0d8   0x00000054   Code   RO         1918    i.sd_state_evt_handler  nrf_drv_clock.o
    0x0007d12c   0x0007d12c   0x00000030   Code   RO         3288    i.sdh_request_observer_notify  nrf_sdh.o
    0x0007d15c   0x0007d15c   0x0000002c   Code   RO         3289    i.sdh_state_observer_notify  nrf_sdh.o
    0x0007d188   0x0007d188   0x00000028   Code   RO          686    i.send_hvx          nrf_ble_dfu.o
    0x0007d1b0   0x0007d1b0   0x00000110   Code   RO         3126    i.sha256_final      sha256.o
    0x0007d2c0   0x0007d2c0   0x00000054   Code   RO         3127    i.sha256_init       sha256.o
    0x0007d314   0x0007d314   0x0000012c   Code   RO         3128    i.sha256_transform  sha256.o
    0x0007d440   0x0007d440   0x00000054   Code   RO         3129    i.sha256_update     sha256.o
    0x0007d494   0x0007d494   0x0000000a   Code   RO         1919    i.soc_evt_handler   nrf_drv_clock.o
    0x0007d49e   0x0007d49e   0x00000002   PAD
    0x0007d4a0   0x0007d4a0   0x00000038   Code   RO         3290    i.softdevice_evt_irq_disable  nrf_sdh.o
    0x0007d4d8   0x0007d4d8   0x00000050   Code   RO         3291    i.softdevices_evt_irq_enable  nrf_sdh.o
    0x0007d528   0x0007d528   0x00000080   Code   RO         2276    i.timer_list_handler  app_timer.o
    0x0007d5a8   0x0007d5a8   0x0000003c   Code   RO         2277    i.timer_list_insert  app_timer.o
    0x0007d5e4   0x0007d5e4   0x00000060   Code   RO         2278    i.timer_list_remove  app_timer.o
    0x0007d644   0x0007d644   0x00000048   Code   RO         2279    i.timer_stop_op_schedule  app_timer.o
    0x0007d68c   0x0007d68c   0x00000074   Code   RO         2280    i.timer_timeouts_check  app_timer.o
    0x0007d700   0x0007d700   0x00000012   Code   RO          687    i.uint32_encode     nrf_ble_dfu.o
    0x0007d712   0x0007d712   0x00000002   PAD
    0x0007d714   0x0007d714   0x00000010   Code   RO         2844    i.uninit            nrf_fstorage_nvmc.o
    0x0007d724   0x0007d724   0x00000020   Code   RO         2941    i.uninit            nrf_fstorage_sd.o
    0x0007d744   0x0007d744   0x00000030   Code   RO         2281    i.user_op_alloc     app_timer.o
    0x0007d774   0x0007d774   0x00000004   Code   RO         2845    i.wmap              nrf_fstorage_nvmc.o
    0x0007d778   0x0007d778   0x00000004   Code   RO         2942    i.wmap              nrf_fstorage_sd.o
    0x0007d77c   0x0007d77c   0x00000044   Code   RO         2846    i.write             nrf_fstorage_nvmc.o
    0x0007d7c0   0x0007d7c0   0x00000050   Code   RO         2943    i.write             nrf_fstorage_sd.o
    0x0007d810   0x0007d810   0x00000001   Data   RO            1    .constdata          dfu-cc.pb.o
    0x0007d811   0x0007d811   0x00000003   PAD
    0x0007d814   0x0007d814   0x00000024   Data   RO            2    .constdata          dfu-cc.pb.o
    0x0007d838   0x0007d838   0x00000078   Data   RO            3    .constdata          dfu-cc.pb.o
    0x0007d8b0   0x0007d8b0   0x00000018   Data   RO            4    .constdata          dfu-cc.pb.o
    0x0007d8c8   0x0007d8c8   0x00000030   Data   RO            5    .constdata          dfu-cc.pb.o
    0x0007d8f8   0x0007d8f8   0x00000030   Data   RO            6    .constdata          dfu-cc.pb.o
    0x0007d928   0x0007d928   0x00000024   Data   RO            7    .constdata          dfu-cc.pb.o
    0x0007d94c   0x0007d94c   0x00000040   Data   RO           36    .constdata          dfu_public_key.o
    0x0007d98c   0x0007d98c   0x0000000c   Data   RO           68    .constdata          dfu_req_handling.o
    0x0007d998   0x0007d998   0x00000028   Data   RO          689    .constdata          nrf_ble_dfu.o
    0x0007d9c0   0x0007d9c0   0x00000004   Data   RO          944    .constdata          nrf_dfu.o
    0x0007d9c4   0x0007d9c4   0x00000040   Data   RO         1125    .constdata          nrf_dfu_mbr.o
    0x0007da04   0x0007da04   0x00000004   Data   RO         1325    .constdata          nrf_dfu_utils.o
    0x0007da08   0x0007da08   0x00000008   Data   RO         1838    .constdata          nrf_crypto_sw_hash.o
    0x0007da10   0x0007da10   0x0000000c   Data   RO         2847    .constdata          nrf_fstorage_nvmc.o
    0x0007da1c   0x0007da1c   0x00000020   Data   RO         2848    .constdata          nrf_fstorage_nvmc.o
    0x0007da3c   0x0007da3c   0x00000010   Data   RO         2946    .constdata          nrf_fstorage_sd.o
    0x0007da4c   0x0007da4c   0x00000020   Data   RO         2947    .constdata          nrf_fstorage_sd.o
    0x0007da6c   0x0007da6c   0x00000100   Data   RO         3130    .constdata          sha256.o
    0x0007db6c   0x0007db6c   0x00000010   Data   RO         3292    .constdata          nrf_sdh.o
    0x0007db7c   0x0007db7c   0x00000028   Data   RO         3293    .constdata          nrf_sdh.o
    0x0007dba4   0x0007dba4   0x00000010   Data   RO         3294    .constdata          nrf_sdh.o
    0x0007dbb4   0x0007dbb4   0x00000010   Data   RO         3295    .constdata          nrf_sdh.o
    0x0007dbc4   0x0007dbc4   0x00000020   Data   RO         3412    .constdata          nrf_sdh_ble.o
    0x0007dbe4   0x0007dbe4   0x00000010   Data   RO         3413    .constdata          nrf_sdh_ble.o
    0x0007dbf4   0x0007dbf4   0x00000010   Data   RO         3462    .constdata          nrf_sdh_soc.o
    0x0007dc04   0x0007dc04   0x0000000c   Data   RO         3463    .constdata          nrf_sdh_soc.o
    0x0007dc10   0x0007dc10   0x00000024   Data   RO         3548    .constdata          pb_decode.o
    0x0007dc34   0x0007dc34   0x000000b0   Data   RO         3816    .rodata.curve_secp256r1  micro_ecc_lib_nrf52.lib(micro_ecc_lib_uECC.c.o)
    0x0007dce4   0x0007dce4   0x00000020   Data   RO         3874    Region$$Table       anon$$obj.o
    0x0007dd04   0x0007dd04   0x00000008   Data   RO          691    dfu_trans           nrf_ble_dfu.o
    0x0007dd0c   0x0007dd0c   0x00000008   Data   RO          692    sdh_ble_observers2  nrf_ble_dfu.o
    0x0007dd14   0x0007dd14   0x00000008   Data   RO         2949    sdh_req_observers0  nrf_fstorage_sd.o
    0x0007dd1c   0x0007dd1c   0x00000008   Data   RO         1925    sdh_soc_observers0  nrf_drv_clock.o
    0x0007dd24   0x0007dd24   0x00000008   Data   RO         2950    sdh_soc_observers0  nrf_fstorage_sd.o
    0x0007dd2c   0x0007dd2c   0x00000008   Data   RO         3414    sdh_stack_observers0  nrf_sdh_ble.o
    0x0007dd34   0x0007dd34   0x00000008   Data   RO         3464    sdh_stack_observers0  nrf_sdh_soc.o
    0x0007dd3c   0x0007dd3c   0x00000008   Data   RO         1926    sdh_state_observers0  nrf_drv_clock.o
    0x0007dd44   0x0007dd44   0x00000008   Data   RO         2951    sdh_state_observers0  nrf_fstorage_sd.o
    0x0007dd4c   0x0007dd4c   0x0000000c   Data   RO         3213    svc_data            nrf_dfu_svci_handler.o


    Execution Region RW_IRAM1 (Exec base: 0x20002830, Load base: 0x0007dd58, Size: 0x00002c28, Max: 0x0000d7d0, ABSOLUTE)

    Exec Addr    Load Addr    Size         Type   Attr      Idx    E Section Name        Object

    0x20002830   0x0007dd58   0x00000038   Data   RW           69    .data               dfu_req_handling.o
    0x20002868   0x0007dd90   0x0000000c   Data   RW          690    .data               nrf_ble_dfu.o
    0x20002874   0x0007dd9c   0x00000004   Data   RW         1019    .data               nrf_dfu_flash.o
    0x20002878   0x0007dda0   0x00000001   Data   RW         1084    .data               nrf_dfu_handling_error.o
    0x20002879   0x0007dda1   0x00000003   PAD
    0x2000287c   0x0007dda4   0x00000010   Data   RW         2213    .data               app_scheduler.o
    0x2000288c   0x0007ddb4   0x00000014   Data   RW         2283    .data               app_timer.o
    0x200028a0   0x0007ddc8   0x00000004   Data   RW         2849    .data               nrf_fstorage_nvmc.o
    0x200028a4   0x0007ddcc   0x00000008   Data   RW         2948    .data               nrf_fstorage_sd.o
    0x200028ac   0x0007ddd4   0x00000003   Data   RW         3296    .data               nrf_sdh.o
    0x200028af   0x0007ddd7   0x00000001   PAD
    0x200028b0   0x0007ddd8   0x00000004   Data   RW         3702    .data               system_nrf52.o
    0x200028b4   0x0007dddc   0x00000014   Data   RW         1020    fs_data             nrf_dfu_flash.o
    0x200028c8        -       0x0000039c   Zero   RW           63    .bss                dfu_req_handling.o
    0x20002c64        -       0x00000020   Zero   RW           64    .bss                dfu_req_handling.o
    0x20002c84        -       0x00000040   Zero   RW           65    .bss                dfu_req_handling.o
    0x20002cc4        -       0x00000020   Zero   RW           66    .bss                dfu_req_handling.o
    0x20002ce4        -       0x00000020   Zero   RW           67    .bss                dfu_req_handling.o
    0x20002d04        -       0x00000044   Zero   RW          688    .bss                nrf_ble_dfu.o
    0x20002d48        -       0x00000020   Zero   RW          942    .bss                nrf_dfu.o
    0x20002d68        -       0x00000110   Zero   RW          943    .bss                nrf_dfu.o
    0x20002e78        -       0x00000370   Zero   RW         1179    .bss                nrf_dfu_settings.o
    0x200031e8        -       0x00000020   Zero   RW         1324    .bss                nrf_dfu_utils.o
    0x20003208        -       0x00000014   Zero   RW         1920    .bss                nrf_drv_clock.o
    0x2000321c        -       0x0000010c   Zero   RW         2282    .bss                app_timer.o
    0x20003328        -       0x0000000c   Zero   RW         2431    .bss                app_util_platform.o
    0x20003334        -       0x00000110   Zero   RW         2944    .bss                nrf_fstorage_sd.o
    0x20003444        -       0x00000010   Zero   RW         2945    .bss                nrf_fstorage_sd.o
    0x20003454   0x0007ddf0   0x00000004   PAD
    0x20003458        -       0x00002000   Zero   RW         3690    STACK               arm_startup_nrf52.o



  Load Region LR$$.ARM.__AT_0x0007E000 (Base: 0x0007e000, Size: 0x00000000, Max: 0x00001000, ABSOLUTE)

    Execution Region ER$$.ARM.__AT_0x0007E000 (Exec base: 0x0007e000, Load base: 0x0007e000, Size: 0x00001000, Max: 0x00001000, ABSOLUTE, UNINIT)

    Exec Addr    Load Addr    Size         Type   Attr      Idx    E Section Name        Object

    0x0007e000        -       0x00001000   Zero   RW         1176    .ARM.__AT_0x0007E000  nrf_dfu_settings.o



  Load Region LR$$.ARM.__AT_0x0007F000 (Base: 0x0007f000, Size: 0x00000000, Max: 0x00001000, ABSOLUTE)

    Execution Region ER$$.ARM.__AT_0x0007F000 (Exec base: 0x0007f000, Load base: 0x0007f000, Size: 0x00001000, Max: 0x00001000, ABSOLUTE, UNINIT)

    Exec Addr    Load Addr    Size         Type   Attr      Idx    E Section Name        Object

    0x0007f000        -       0x00001000   Zero   RW         1177    .ARM.__AT_0x0007F000  nrf_dfu_settings.o



  Load Region LR$$.ARM.__AT_0x10001014 (Base: 0x10001014, Size: 0x00000004, Max: 0x00000004, ABSOLUTE)

    Execution Region ER$$.ARM.__AT_0x10001014 (Exec base: 0x10001014, Load base: 0x10001014, Size: 0x00000004, Max: 0x00000004, ABSOLUTE, UNINIT)

    Exec Addr    Load Addr    Size         Type   Attr      Idx    E Section Name        Object

    0x10001014   0x10001014   0x00000004   Data   RW          919    .ARM.__AT_0x10001014  nrf_bootloader_info.o



  Load Region LR$$.ARM.__AT_0x10001018 (Base: 0x10001018, Size: 0x00000004, Max: 0x00000004, ABSOLUTE)

    Execution Region ER$$.ARM.__AT_0x10001018 (Exec base: 0x10001018, Load base: 0x10001018, Size: 0x00000004, Max: 0x00000004, ABSOLUTE, UNINIT)

    Exec Addr    Load Addr    Size         Type   Attr      Idx    E Section Name        Object

    0x10001018   0x10001018   0x00000004   Data   RO         1178    .ARM.__AT_0x10001018  nrf_dfu_settings.o


==============================================================================

Image component sizes


      Code (inc. data)   RO Data    RW Data    ZI Data      Debug   Object Name

       268         16          0         16          0       4783   app_scheduler.o
      1634        122          0         20        268      47943   app_timer.o
       124         14          0          0         12       9570   app_util_platform.o
        36          8        512          0       8192        936   arm_startup_nrf52.o
         8          0          0          0          0      27318   ble_srv_common.o
        60          6          0          0          0       1528   crc32.o
         0          0        313          0          0      13960   dfu-cc.pb.o
         0          0         64          0          0        861   dfu_public_key.o
      2156        172         12         56       1084     126054   dfu_req_handling.o
        70         10          0          0          0       3298   main.o
       158          0          0          0          0      25107   micro_ecc_lib_ecdsa.o
       342          0          0          0          0       8050   nrf_atfifo.o
      2262        142         56         12         68      61298   nrf_ble_dfu.o
        20          0          0          0          0       1770   nrf_bootloader.o
        46          0          0          0          0        819   nrf_bootloader_app_start.o
        64          2          0          0          0        624   nrf_bootloader_app_start_asm.o
         0          0          0          4          0        382   nrf_bootloader_info.o
       120         10          0          0          0       1665   nrf_crypto_ecdsa.o
        46          8          0          0          0       2119   nrf_crypto_hash.o
       250          6          8          0          0       9141   nrf_crypto_sw_hash.o
       260         28          4          0        304      11547   nrf_dfu.o
       124         36          0         24          0       9223   nrf_dfu_flash.o
        28         10          0          1          0       3160   nrf_dfu_handling_error.o
       110         14         64          0          0       5612   nrf_dfu_mbr.o
       172         28          4          0       9072       3977   nrf_dfu_settings.o
       164         20          0          0          0       4548   nrf_dfu_settings_svci.o
       118         16         12          0          0       3819   nrf_dfu_svci_handler.o
        88         18          0          0          0       3460   nrf_dfu_transport.o
       868         72          4          0         32      10841   nrf_dfu_utils.o
       646         68         16          0         20      48196   nrf_drv_clock.o
        68          0          0          0          0      30194   nrf_drv_common.o
       232          0          0          0          0       5233   nrf_fstorage.o
       442         24         44          4          0      14580   nrf_fstorage_nvmc.o
       918         72         72          8        288      17239   nrf_fstorage_sd.o
       116         18          0          0          0       2257   nrf_nvmc.o
       632         66         88          3          0      44048   nrf_sdh.o
       104         10         56          0          0       6297   nrf_sdh_ble.o
        60          4         36          0          0       2364   nrf_sdh_soc.o
        78          0          0          0          0       2788   nrf_section_iter.o
       112         10          0          0          0       2617   nrf_svc_handler.o
       208          0          0          0          0       3548   pb_common.o
      2320         14         36          0          0      28546   pb_decode.o
       740         40        256          0          0       6792   sha256.o
       764         64          0          4          0       3027   system_nrf52.o

    ----------------------------------------------------------------------
     17072       1148       1692        156      19344     621139   Object Totals
         0          0         32          0          0          0   (incl. Generated)
        36          0          3          4          4          0   (incl. Padding)

    ----------------------------------------------------------------------

      Code (inc. data)   RO Data    RW Data    ZI Data      Debug   Library Member Name

         0          0          0          0          0          0   entry.o
         0          0          0          0          0          0   entry10a.o
         0          0          0          0          0          0   entry11a.o
         8          4          0          0          0          0   entry2.o
         4          0          0          0          0          0   entry5.o
         0          0          0          0          0          0   entry7b.o
         0          0          0          0          0          0   entry8b.o
         8          4          0          0          0          0   entry9a.o
        30          0          0          0          0          0   handlers.o
        36          8          0          0          0         68   init.o
        30          0          0          0          0         68   llshl.o
        26          0          0          0          0         80   memcmp.o
        36          0          0          0          0         68   memcpya.o
        36          0          0          0          0        108   memseta.o
      4732         12        176          0          0      88600   micro_ecc_lib_uECC.c.o

    ----------------------------------------------------------------------
      4960         28        176          0          0      88992   Library Totals
        14          0          0          0          0          0   (incl. Padding)

    ----------------------------------------------------------------------

      Code (inc. data)   RO Data    RW Data    ZI Data      Debug   Library Name

       214         16          0          0          0        392   mc_w.l
      4732         12        176          0          0      88600   micro_ecc_lib_nrf52.lib

    ----------------------------------------------------------------------
      4960         28        176          0          0      88992   Library Totals

    ----------------------------------------------------------------------

==============================================================================


      Code (inc. data)   RO Data    RW Data    ZI Data      Debug   

     22032       1176       1868        156      19344     688079   Grand Totals
     22032       1176       1868        156      19344     688079   ELF Image Totals
     22032       1176       1868        156          0          0   ROM Totals

==============================================================================

    Total RO  Size (Code + RO Data)                23900 (  23.34kB)
    Total RW  Size (RW Data + ZI Data)             19500 (  19.04kB)
    Total ROM Size (Code + RO Data + RW Data)      24056 (  23.49kB)

==============================================================================

