:020000040001F9
:10800000B83300204D8501005585010057850100DA
:10801000598501005B8501005D85010000000000BD
:108020000000000000000000000000005F8501006B
:108030006185010000000000638501006585010085
:10804000E188010067850100318C0100678501002E
:1080500067850100000000000987010067850100B5
:10806000678501006785010067850100678501005C
:10807000678501006785010067850100678501004C
:108080006785010039890100678501006785010066
:108090005D89010067850100618901006785010034
:1080A00067850100678501000000000000000000F6
:1080B00067850100678501000000000000000000E6
:1080C00000000000000000000000000000000000B0
:1080D00000000000000000000000000000000000A0
:1080E0000000000000000000000000000000000090
:1080F0000000000000000000000000000000000080
:10810000000000000000000000000000000000006F
:10811000000000000000000000000000000000005F
:10812000000000000000000000000000000000004F
:10813000000000000000000000000000000000003F
:10814000000000000000000000000000000000002F
:10815000000000000000000000000000000000001F
:10816000000000000000000000000000000000000F
:1081700000000000000000000000000000000000FF
:1081800000000000000000000000000000000000EF
:1081900000000000000000000000000000000000DF
:1081A00000000000000000000000000000000000CF
:1081B00000000000000000000000000000000000BF
:1081C00000000000000000000000000000000000AF
:1081D000000000000000000000000000000000009F
:1081E000000000000000000000000000000000008F
:1081F000000000000000000000000000000000007F
:10820000DFF80CD000F042FA00480047B9C2010084
:10821000B833002030B4044654E8000F0D4644E85B
:108220000053002BF8D1156030BC704730B40446C1
:1082300054E8000F40EA010544E80053002BF7D151
:10824000156030BC704730B4044654E8000F00EAB3
:10825000010544E80053002BF7D1156030BC70478E
:1082600030B4044654E8000F80EA010544E80053A6
:10827000002BF7D1156030BC704730B4044654E889
:10828000000F00EB010544E80053002BF7D1156007
:1082900030BC704730B4044654E8000FA0EB010531
:1082A00044E80053002BF7D1156030BC7047000044
:1082B00030B450E8012F93B2C48923448489A34287
:1082C00028BF1B1B0489A34202BFBFF32F8F0020CE
:1082D00007E0C3EA020340E80134002CE9D14FF083
:1082E00001000A6030BC704750E8012FC2EA024228
:1082F00040E801210029F7D1704730B450E8022F3F
:108300001FFAA2F3C488A34202BFBFF32F8F00203D
:108310000DE0C48923448489A34228BF1B1BC2EA01
:10832000034340E80234002CE8D14FF001000A601A
:1083300030BC704750E8022FC2EA224240E80221D6
:108340000029F7D17047034653E8022FD988B2EBD2
:10835000324F4FF0000017BF92B241EA014142EAAA
:10836000014104E05A68B2EB324F08BF012043E8F4
:108370000212002AE8D1704730B4044654E8000FD6
:108380000D4644E80053002BF8D1156030BC70470F
:1083900030B4044654E8000F40EA010544E80053B5
:1083A000002BF7D1156030BC704730B4044654E858
:1083B000000F00EA010544E80053002BF7D11560D7
:1083C00030BC704730B4044654E8000F80EA010521
:1083D00044E80053002BF7D1156030BC704730B42F
:1083E000044654E8000F00EB010544E80053002B5D
:1083F000F7D1156030BC704730B4044654E8000F24
:10840000A0EB010544E80053002BF7D1156030BC08
:108410007047000030B4044654E8000F0D4644E8AD
:108420000053002BF8D1156030BC704730B40446BF
:1084300054E8000F40EA010544E80053002BF7D14F
:10844000156030BC704730B4044654E8000F00EAB1
:10845000010544E80053002BF7D1156030BC70478C
:1084600030B4044654E8000F80EA010544E80053A4
:10847000002BF7D1156030BC704730B4044654E887
:10848000000F00EB010544E80053002BF7D1156005
:1084900030BC704730B4044654E8000FA0EB01052F
:1084A00044E80053002BF7D1156030BC7047000042
:1084B00030B4044654E8000F0D4644E80053002B46
:1084C000F8D1156030BC704730B4044654E8000F52
:1084D00040EA010544E80053002BF7D1156030BC99
:1084E000704730B4044654E8000F00EA010544E840
:1084F0000053002BF7D1156030BC704730B40446F0
:1085000054E8000F80EA010544E80053002BF7D13E
:10851000156030BC704730B4044654E8000F00EBDF
:10852000010544E80053002BF7D1156030BC7047BB
:1085300030B4044654E8000FA0EB010544E80053B2
:10854000002BF7D1156030BC70470000064880470B
:1085500006480047FEE7FEE7FEE7FEE7FEE7FEE728
:10856000FEE7FEE7FEE7FEE7658901000182010004
:108570002DE9F05F0546002092469B468846064658
:10858000814640241BE0284641464746224600F0EB
:108590006CF853465A46C01A914110D311461846FA
:1085A000224600F053F82D1A67EB01084F46224689
:1085B0000120002100F04AF817EB00094E41201E6F
:1085C000A4F10104DFDC484631462A464346BDE8B3
:1085D000F09F000000487047C013020040EA01030A
:1085E0009B0703D009E008C9121F08C0042AFAD269
:1085F00003E011F8013B00F8013B521EF9D270472D
:10860000D2B201E000F8012B491EFBD270470022D4
:10861000F6E710B513460A4604461946FFF7F0FF81
:10862000204610BD421C10F8011B0029FBD1801A06
:10863000704730B504460020034600E05B1C9342BF
:1086400003D2E05CCD5C401BF8D030BD202A04DBB7
:10865000203A00FA02F1002070479140C2F1200355
:1086600020FA03F3194390407047202A04DB203A94
:1086700021FA02F00021704721FA02F3D040C2F142
:10868000200291400843194670470000064C074DF0
:1086900006E0E06840F0010394E8070098471034D2
:1086A000AC42F6D3FFF7B0FDA0190200C0190200DA
:1086B00070B58C1810F8015B15F0070301D110F8A4
:1086C000013B2A1106D110F8012B03E010F8016BD1
:1086D00001F8016B5B1EF9D12B0705D40023521E54
:1086E0000DD401F8013BFAE710F8013BCB1A921CBC
:1086F00003E013F8015B01F8015B521EF9D5A142BA
:10870000D8D3002070BD00002DE9F04700268CB0C2
:10871000DFF86091B0464FF4807501243746069625
:10872000284604F05DFE38B1D9F80403204203D096
:10873000284604F04BFE26432D1D64007F1CADB27D
:10874000082FEDD34FF4BE74204604F049FE48B123
:10875000204604F03BFE46F0004606AA0121002018
:1087600004F020FE444D16F0FF0F15D00127002421
:1087700037420DD009EB8401D1F81005D1F810155E
:10878000C0F3042055F82420C1F3014102B1904701
:108790007F00641C082CEBD3002E67DA4FF0FF300B
:1087A000CDE9088000263446281910F8507F90F94A
:1087B000000027F0C008401C44D009A9404604F03E
:1087C0003FF858B34FEA9719404602F009F855F8B8
:1087D00020701FB1B9F1030F03D00FE0B9F1030FFF
:1087E00030D108A84FEAD80208F00703815C4FF0A7
:1087F000010C0CFA03FC41EA0C0181544FF0A0413A
:1088000001EB8800D0F8000706A9C0F3014A4046F2
:1088100004F016F818B1BAF1020F03D012E0BAF161
:10882000030F0FD1B9F1030F08D1BAF1020F1BD01A
:108830000221404604F09AFD761CF6B217B1494673
:108840004046B847641C042CAED3002E0ED06A46B6
:108850000121002004F0A6FD06990098884205D069
:108860000690089809909DE70321E2E70CB0BDE867
:10887000F0870000006000404823002000F01F0245
:10888000012191404009800000F1E020C0F88012F1
:10889000704700F01F02012191404009800000F163
:1088A000E020C0F80011704700F01F020121914044
:1088B0004009800000F1E020C0F80012704749072D
:1088C000090E002806DA00F00F0000F1E02080F821
:1088D000141D704700F1E02080F80014704700007C
:1088E0002DE9F0414FF48077384604F03DF801243B
:1088F000104EA50748B1384604F03DF80120C5F8F0
:1089000008037470002001F0DFFF4FF482773846CF
:1089100004F02AF800280BD0384604F02CF8022086
:10892000C5F80803B470BDE8F041012001F0CCBFE8
:10893000BDE8F0813423002007480021C0F8401131
:10894000C0F84411C0F84811C0F84C11C0F800112B
:10895000C0F8041107F00CBF0010014007F056BE2C
:1089600005F018BAF0B5A1480127031D01783A07B0
:10897000181D06290BD11C78240708D10478C4F3EC
:108980000314032C06D0042C04D0052C02D0062995
:1089900007D011E0B2F82443954DC4F304242C60B1
:1089A00002E01C78240707D10478C4F30314032CD5
:1089B00002D1914D8F4C6C67D2F844428F4DC4F375
:1089C00042342C6006290CD11C78240709D1047884
:1089D000C4F30314032C04D1894C256825F0807559
:1089E00025604FF080440025C4F80C51C4F81051A4
:1089F000824C241F2560062907D11C78240704D146
:108A00000478C4F30314032C02D0062908D01FE015
:108A1000DFF8E8C103240CF1640CCCF8004007E057
:108A20001C78240714D10478C4F30314032C0FD149
:108A3000DFF8D0C10524CCF80040724C78342760B0
:108A4000704C083425600CF1040C3F24CCF8004035
:108A50006D4C2468DFF8B4C1CCF800406A4C241D8A
:108A600024680CF1040CCCF80040674C08342468EE
:108A70000CF1040CCCF80040634C0C3424680CF16D
:108A8000040CCCF80040604C103424680CF1040C49
:108A9000CCF800405C4C143424680CF1040CCCF885
:108AA0000040594C18342468DFF860C10CF1200CE8
:108AB000CCF80040544C1C3424680CF1040CCCF865
:108AC0000040514C203424680CF1040CCCF80040D8
:108AD0004D4C243424680CF1040CCCF800404A4C72
:108AE000283424680CF1040CCCF80040464C2C349B
:108AF00024680CF1040CCCF80040434C303424685A
:108B0000DFF808C10CF1400CCCF800403E4C343486
:108B100024680CF1040CCCF800403B4C3834246839
:108B20000CF1040CCCF80040374C3C3424680CF1B8
:108B3000040CCCF80040344C403424680CF1040C94
:108B4000CCF80040DFF8C8C0FB24CCF80040062970
:108B500013D11C78240710D10478C4F30314032C18
:108B600003D0042C01D0052C07D1D2F85842DFF8ED
:108B7000A4C004F04F04CCF8004027480168C9079E
:108B800002D06FF0010101604FF01021D1F8000216
:108B9000002803DBD1F80402002822DA1F4A1760FC
:108BA0001F480368002BFCD01523C1F8003204686D
:108BB000002CFCD0C1F8043201680029FCD01560FB
:108BC00001680029FCD0BFF34F8F0D48F0380168D1
:108BD000144A01F4E06111430160BFF34F8F00BFFD
:108BE000FDE7124910480860F0BD0000E00F00F0FA
:108BF000403501400DF0ADBA00C007403C050040D3
:108C0000FCED00E0105600400404001020C50040B8
:108C100018F50040E40E00400004004004E5014067
:108C200000E401400400FA050090D003381D002044
:108C30000149024807F004BEA023002000200040A4
:108C400002E008C8121F08C1002AFAD17047704715
:108C5000002001E001C1121F002AFBD17047000073
:108C60000121202803DA81400548014003E0402823
:108C700002DA2038814009B1012070470020704796
:108C8000FC06FFBD082806D228B1012803D004281D
:108C900001D0012070470020704710B560B159B174
:108CA00002780B785208B2EB530F05D10622401C14
:108CB000491CFFF7BEFC08B1002010BD012010BD0B
:108CC000800701D00020704701207047C3688B42A5
:108CD00006D811440069491E814201D8012070471D
:108CE0000020704710B501220221002001F09AFBFC
:108CF00008B1072810D107220221012001F092FBC0
:108D000008B1072808D100210A22084601F08AFB91
:108D100008B1072800D1002010BD000010B550B1E7
:108D20000A480321008801EB004009A104F02CFD52
:108D300006F066F903E00321084800F019FD002859
:108D400003D0BDE8104000F0C3B810BD981D00204E
:108D5000457261736520626F6E6473004C1E002063
:108D600070B58CB015460E4600236C46C3F10F015A
:108D7000415CE1545B1C102BF8D30D2104F1100071
:108D8000FFF745FC0020C0F10F02315C2244401C7B
:108D900011740328F7D3684643DF0020C0F10F01A8
:108DA000214491F820102954401C0328F6D30CB01C
:108DB00070BD022001F02EBA0149097900F0C8BE49
:108DC0000C1C002070B50024064D06E068680121E7
:108DD00010F8340003F074FE641C28788442F5D344
:108DE000002070BD741C0020F8B515460C460646E0
:108DF000052A01D20720F8BD03F048FF18B903F097
:108E000017FF0028F7D1104900204E600C70C1E90F
:108E100002500E4D08610DE006EBC4006968009138
:108E200081788DF801100078094A694603F09AFEAE
:108E30000028E0D1641EE4B2EED2BDE8F840054A55
:108E40000021024800F050B8741C0020F410020009
:108E5000E1B6010035AB010004F04EFD04F09CFBCF
:108E60000028FBD1104C0121208801EB00400FA10C
:108E700004F08AFC10480068C00700D000BE2088BB
:108E8000022101EB00400DA104F07EFCBFF34F8FE7
:108E90000948E43801680D4A01F4E06111430160BA
:108EA000BFF34F8F00BFFDE7981D0020466174613E
:108EB0006C206572726F7200F0ED00E0537973748C
:108EC000656D207265736574000000000400FA058A
:108ED0000EB500210091CDE901106A4644F201006F
:108EE000FFF7BAFF0EBD0000074B9B7823B12AB1F4
:108EF00020B10068037C1BB1082070470720704731
:108F00004174426100207047DC23002070B506F0F8
:108F10006BFC104800240B21047044700E4D8170CE
:108F200014206C602C706C70FFF7A8FC07211420D3
:108F3000FFF7C5FC1420FFF7ACFC084804600721CC
:108F40001120FFF7BCFC0548001F0068A860002046
:108F500070BD0000DC230020881C002008150140A3
:108F60002DE9FC47DFF8789099F8023073B368B3C5
:108F7000052902D20720BDE8FC87436933B3437C4F
:108F8000012B25D0002704460025884616468DF87B
:108F90000050684600F038F801A807F07DFDC8B120
:108FA000012101700F4944600968C0E90218C0E955
:108FB00004769DF8040089F801009DF8000000F097
:108FC00047F81420FFF770FC2846D4E70820D2E7C2
:108FD0000F46D8E704259DF8000000F039F8F3E7C4
:108FE000DC230020041501400649897839B130B1ED
:108FF000416921B100210174022107F095BB0820CD
:1090000070470000DC23002030B5EFF3108172B60A
:109010000D4A9468012324B10370002900D162B67F
:1090200030BD93604FF0E023D3F88051074C2540CA
:109030001560C3F88041D3F8844154605A17C3F8CF
:10904000842100220270E8E7E8240020FC06FFBD2E
:109050000B498A68002A11D000280FD1EFF3108045
:1090600072B60B684FF0E022C2F800314B68C2F8CC
:10907000043100228A60002800D162B670470000E7
:10908000E82400202DE9F041064608680C46411C02
:109090004FF0A0474FF0010506D005FA00F1C7F8E0
:1090A0000815206804F047F96068411C02D00021CF
:1090B00004F038F93168A069C1F82405607D217D8C
:1090C00032680843C2F86C05D4E900123068C0F871
:1090D0000C15C0F81425207D012815D1A068411C6D
:1090E00002D0002104F01EF9E068411C05D0854043
:1090F000C7F80855E06804F01EF9D4E90212306898
:10910000C0F80825C0F81015BDE8F0812DE9F0473A
:10911000074600888EB0804600F0E2FC06464046D6
:1091200002F05CFD824604462E4800252A4601785E
:10913000404600F023FD002E50D07879400734D50A
:1091400001254FF6FF7603AB2A460721504605F06E
:109150000FF9010004D0404606F0A6FD00252BE0E3
:10916000B1463146049802F08DFC064648450FD0C2
:1091700004460146404602F01BFD4046FFF71CFE38
:1091800030B9404606F062FD4046FFF715FE48B193
:1091900022460721504605F081F9010003D04046E0
:1091A00006F082FD00254E4506D0404605F0E4FA63
:1091B00010B1504602F0FEFC02208DF81800ADF808
:1091C0001A807879400701D5012000E002208DF84F
:1091D00020008DF8215006A801F0F8FD0EB0BDE882
:1091E000F08700000C1C00202DE9F0430546007DAF
:1091F00093B00E460024A0B107949DF81C0020F007
:109200000F00401C20F0F00010308DF81C00707B27
:109210008DF81D009DF81E0020F00600801C8DF8C2
:109220001E001C216846FFF7F2F99DF8000040F08F
:1092300002008DF80000297D11B140F0100001E01E
:1092400020F010008DF80000019403940494287D10
:1092500000B107A8CDE9050401278DF8427042F658
:109260001920ADF840000D94B07B8DF83400F07BF0
:109270008DF835009DF83600142120F00600801C82
:1092800020F019008DF83600307B8DF8440008A8D6
:10929000FFF7BDF90DF140080DF13409ADF8287064
:1092A00011A8CDE90889ADF82A40ADF82C700C90D2
:1092B000A888AB1D08AA6946A2DF002838D1B0688B
:1092C00098B38DF8427042F60810ADF840000D9446
:1092D000307C8DF834009DF8350020F0FF008DF8CB
:1092E00035009DF8360020F00600801C20F01900A3
:1092F0008DF836000EA8B16800F06FFF0646142105
:1093000008A8FFF784F9ADF828600EA8CDE9088910
:10931000ADF82A40ADF82C600C90E88805F10E02FB
:1093200008A9A3DF002803D101E0FFE7EC810020BA
:1093300013B0BDE8F083000010B50B490B4806F0F0
:109340002EFDC1B20A4800F0F8FA00280BD0082818
:1093500009D0132807D043F20141884203D0BDE869
:109360001040FFF7B5BD10BD241F0020841B002056
:10937000081E00202DE9FC470025178806461580A9
:1093800090F82D001446894630B13A4621464846A9
:1093900000F00CFC050009D1B0784FF00C0A18B3AE
:1093A0002088C846001DB84202D95046BDE8FC8757
:1093B000684679DF0028F9D12088032108F80010D9
:1093C00020881921401C80B2208008F800102088D5
:1093D000401C80B2208000EB0801BDF8000007F0BF
:1093E000ABFA218808442080F0780222C8B1218895
:1093F00096F9033001F1030C4846BC45D5D84254D8
:1094000021884FF0010C491C89B2218000F801C06D
:109410002188491C89B2218009F801302088401C2C
:1094200020807068B8B1218890F9003001F1030CF8
:109430004846BC45B9D8425421880A22491C89B201
:10944000218042542188491C89B2218009F80130C9
:109450002088401C2080308950B1CDE900474B4620
:109460000622022106F1080007F02EFB05009DD11F
:10947000308A50B1CDE900474B460722032106F15F
:10948000100007F021FB050090D1308B50B1CDE9E1
:1094900000474B461522142106F1180007F014FB73
:1094A000050083D1306A30B13B462246494601F07F
:1094B00075FA0500DBD1706A30B13B462246494659
:1094C00002F0F4FF0500D2D196F82C0038B13B46EB
:1094D00022464946304606F0EBFC0500C7D13078FD
:1094E00038B13B4622464946304603F067F805004E
:1094F000BDD128465AE7F0B50C4693B01F21072688
:10950000ADF80010ADF80410002750B1C17849073C
:109510000DD56A4602A9FFF72DFF002808D102AD3C
:1095200002E00025ADF800706CB1E07810B1304673
:1095300013B0F0BD01AA0AA92046FFF71BFF0028BF
:10954000F6D10AAA02E00022ADF80470BDF80400CA
:10955000C3B2BDF80000C1B2284672DFE8E780F868
:109560002410704770B50D00044653D0F4B30120A9
:1095700020700026E670202205F17801201DFFF7FB
:109580002DF884F82460D5F89800C4F8CC00D5F8FC
:109590009C00C4F8D0004FF6FF70A4F8C800C4F8CF
:1095A0002560A4F8296084F82B6004F130003C2188
:1095B0000646FFF72CF8287884F83000A87884F85D
:1095C0003200E87884F83300687884F83100D5E90F
:1095D0000401C4E91001D5E90201C4E90E01D5E98D
:1095E0000601C4E9120195F82D0000E012E084F8AC
:1095F0005D00686AD8B104F1780104F16C0061671C
:109600006065696A09880180686A616D8088888000
:10961000002008E00E2070BD696A22188968095C84
:1096200082F87810401C616D89888142F4D8A86A5C
:10963000E8B104F1A400C4F8A0000C38A065A96A40
:1096400089888180A86AA16D00880880002006E0D2
:10965000A96A22188968095C82F8A410401CA16DCF
:1096600089888142F4D895F82C0084F85C00286A37
:1096700048B104F1C4002065296A49884180286AFC
:10968000216D00880880686800B1606305F13C01C5
:109690003046BDE87040FFF72EBF10B50288102A93
:1096A0001AD0112A1FD01B2A1CD1007A0C46002880
:1096B00018D1E0780521401CB0FBF1F201FB12014A
:1096C000204600F055F800280CD0D4F8D01000291E
:1096D00008D0BDE810400847C27B012A02D180882B
:1096E000A1F8C80010BD0C46002184F8D410808871
:1096F000B4F8C8108842F5D120790028F2D10121B0
:10970000DEE710B50C46022801D0032811D160789D
:1097100000280ED000206070E178204600F028F884
:10972000002806D0D4F8D010002902D0BDE810409F
:10973000084710BD10B5044674DF012084F8D4003A
:10974000002084F8D600062084F83300002104F1BC
:109750003000FFF7D0FE002809D1E178204600F064
:1097600007F818B1D4F8D01001B18847002010BD17
:109770002DE9FF47044600780F4638B1E770002016
:1097800003F0C8FC012628B16670D2E0082004B0BE
:10979000BDE8F0870025C4F82550A4F8295084F8C6
:1097A0002B50A07910B1E078012806D0E07970B193
:1097B000E078012801D0022809D1D4F8CC1021B1D9
:1097C00084F82C600820884701E084F82C5004F1CC
:1097D000260100200A5C0AB1304603E0401C06283E
:1097E000F8D300204FF002084FF0030A4FF00409AD
:1097F000012F06D0022F09D0032F0CD0042F12D135
:109800000DE0A17911B108B130460DE0E17911B157
:1098100008B1404608E0207A08B1504604E0607A7A
:1098200008B1484600E02846E070D4F8CC1041B1B9
:10983000032801D0042804D1607910B194F8D40031
:10984000A8B184F8D55000950295019503958DF83F
:1098500000508DF80850E17804F1250004F1300241
:10986000052958D2DFE801F0670A131F3B0084F88E
:10987000D65084F8D56007208847E4E7A6700190A9
:109880008DF80060ADF80C50ADF80A5043E084F854
:10989000028001908DF80060208AADF80C00A0894C
:1098A000ADF80A0037E0A08AADF80A00208BADF8C9
:1098B0000C00607980B194F8D40068B994F8D600AF
:1098C00050B18DF8088084F8339000211046FFF7DE
:1098D00012FE00BB05211AE084F802A01BE0A08B59
:1098E000ADF80A00208CADF80C00607988B194F8CE
:1098F000D40070B994F8D60058B18DF8088084F877
:10990000339000211046FFF7F6FD20B90621A17023
:1099100001E084F80290E07830B194F824106846B1
:1099200073DF00287FF433AFD4F8CC1009B1A078EE
:10993000884700202BE7A570F6E773B586B00400D2
:1099400034D0217C9DF81C20002091422CD0002591
:1099500001260095ADF8006007A8ADF8025001900F
:10996000E188608A6A46A4DF00281DD19DF81C00AA
:109970002074608AA0F57F41FF3919D0207DB8B1ED
:109980000295039504950595E088ADF80800BDF8AB
:109990000200ADF80C0001988DF80A60CDF810D0E7
:1099A0000590608A02A9A6DF08B070BD0E20FBE713
:1099B0000820F9E738B50D4604001BD0D5B128685A
:1099C00020604FF6FF70608228792075FF20207498
:1099D00001208DF8020041F60F00ADF80000221DB5
:1099E00069460120A0DF002803D129462046FFF761
:1099F000FBFB38BD0E2038BD38B5002922D0002829
:109A000020D00288102A18D0112A18D0502A19D133
:109A10000C46097D002915D030F8061F6289914255
:109A200010D1418902290DD1216800290AD00C30BA
:109A300000F0CFFB38B1002006E0808801E04FF64F
:109A4000FF70488238BD01208DF800002268694609
:109A50002046904738BD000070B5040012D0014682
:109A60001C221448FEF7BAFD1248134D0560206809
:109A700050B17ADF002806D120680168296040686B
:109A8000686005E00E2070BD0B487BDF0028FAD12E
:109A900008484FF6FF711438084A20F8041B05499E
:109AA000343901600021FFF71FFA0028EBD00320B2
:109AB00070BD000004200020C81B0020190A02000D
:109AC00002494A6C091D05F081BF000020200020DA
:109AD00002460248016D001D05F065BF20200020F0
:109AE00070B5084E054600242A46301D716C05F0FD
:109AF0005AFF28B12A46301DF16C05F054FF0124AD
:109B0000204670BD2020002010B50024204606F01D
:109B1000B7FF28B1641CE4B2182CF7D3182010BD8D
:109B200003480122A240016811430160204610BD94
:109B30002020002010B5044606F0A2FF002803D024
:109B4000024800EB8400806D10BD00002020002042
:109B500070B505460C46084606F092FF002809D06D
:109B600005482A4600EB8401001D896DBDE8704060
:109B700005F019BF70BD00002020002070B506461A
:109B800015460C46084606F07BFF00280AD006481A
:109B90002B4600EB84013246BDE87040001D583171
:109BA00005F039BF70BD0000202000207CB50546BF
:109BB00008880C460930904201D90C207CBD6846CB
:109BC0006DDF0028FAD121880820685420881B21E5
:109BD000401C80B2208029542088401C80B2208004
:109BE0002844DDF801100160BDF80510818020884F
:109BF000801D80B220809DF80010490800D001210E
:109C000029542088401C208000207CBD7FB504465C
:109C100001208DF8060041F60A00ADF80400454A1F
:109C200001A90120A0DF00287ED1228804F13C0593
:109C300052B140482B46801C009042F629206168B2
:109C400000F0D6FD002873D1228952B139482B4645
:109C50000A30009042F62420E16800F0C9FD002897
:109C600066D1228A52B133482B461230009042F618
:109C70002520616900F0BCFD002859D1228B52B12A
:109C80002C482B461A30009042F62720E16900F05C
:109C9000AFFD00284CD1228C52B126482B462230F1
:109CA000009042F62620616A00F0A2FD00283FD114
:109CB000228D52B11F482B462A30009042F62820B0
:109CC000E16A00F095FD002832D1216B71B102A844
:109CD00006F07AFC17482B4632300090082202A981
:109CE00042F6232000F084FD002821D1606B58B19A
:109CF00010492B463A3100910279016842F62A2038
:109D000000F076FD002813D1A16B81B102A805F007
:109D1000DBF908482B4642300090072202A942F6A0
:109D2000502000F065FD00E002E0002800D1002096
:109D300004B070BD2A1C002030B5028889B00446EA
:109D4000212A2FD011DC314D012A38D0304803218F
:109D5000102A008801EB004017D0112A20D12DA134
:109D600003F012FD4FF6FF7019E03B2A23D0512A71
:109D700029D0562A14D18088132176DF00280FD0ED
:109D800009B0BDE83040FFF7A3B826A103F0FCFC02
:109D9000072000F069FB08B1FFF79AF8A088288037
:109DA00009B030BD00200090A08869468FDF28E010
:109DB000FFF78EF8F4E78088132176DFDEE70021D5
:109DC000288866DFDAE71022A11D04A8FEF706FC4A
:109DD0009DF810100029E3D09DF81800042803D046
:109DE000062801D00528DBD102290DD05FF0010043
:109DF0008DF800004FF4C170ADF80400A0886946EA
:109E0000A8DF0028D4D1CBE70220F1E7801B002097
:109E1000981D0020446973636F6E6E65637465649A
:109E20002E000000436F6E6E65637465642E000043
:109E300010B51A4C0188606810290ED011292BD159
:109E4000401E606028D1FEF74DFF002824D0216815
:109E5000002921D0BDE810400847D0B900210122D7
:109E6000084600F0DFFA08B107280FD107220221C7
:109E7000012000F0D7FA08B1072807D104220221F7
:109E8000002000F0CFFA20B1072802D0216801B1EC
:109E900088476068401C606010BD0000C01B002047
:109EA0002DE9F04701883B4E40F2F3194FF6FF755C
:109EB00010291BD011293ED0122954D0502946D147
:109EC000C188F289841D914241D1618902293ED124
:109ED0008688304601F030FF050038D004F10C00D0
:109EE00000F077F9A8B3294630464EE0C17B878859
:109EF000044601292BD1A846284601F01DFF050084
:109F000017D02F8000202872234843464A46016814
:109F1000C5F80A104068C5F80E0004F1100105F1FB
:109F20000A0001F06FFF6872F08900280FD12946FE
:109F30002AE0042013E0808801F0FEFE040006D031
:109F40006068FFF751F808B105F092FE2580BDE882
:109F5000F087FFE76868FFF747F80028F7D0BDE80B
:109F6000F04705F085BE87880646384601F0E4FED6
:109F70000400ECD02B464A4606F1080104F10A0021
:109F800001F040FF607221463846BDE8F04700F01E
:109F90004BBD000004200020C81B00202DE9F04725
:109FA0000546038839480122A4B000F1480A102B65
:109FB00009D0112B48D01A2B64D1297AB2EB111F8A
:109FC00047D2012346E0D0E911218A430446011D0E
:109FD00012A805F0FBFC442212A901A8FEF7FEFA24
:109FE000DFF8A8900026374609F144090DF104086E
:109FF0000AE000BF08EB46001D2283884946201D69
:10A00000009705F095FC761C0198B042F2D8606C80
:10A01000AD88C04305F0AEFCA0F57F41FF390DD0FF
:10A0200004EB4000012385802A465146201D05F09F
:10A03000F2FC01232A464946201D1EE024B00420DC
:10A04000BDE8F047FEF744BF0023AA885146001D33
:10A0500013E000230D490446AA885031001D05F085
:10A06000DAFC287A0221B1EB101F01D2012300E0B3
:10A0700000230649AA885431201D24B0BDE8F047CA
:10A0800005F0C9BC24B0BDE8F08700002020002006
:10A0900010B504460748007800280AD0204601F091
:10A0A00077FC204606F002F82046BDE8104001F09B
:10A0B000F1B910BDFC1B002038B50D4604001FD0BF
:10A0C000F5B1286820604FF6FF70E0826889208330
:10A0D00001208DF8020041F61400ADF80000221DA9
:10A0E00069460120A0DF002809D12946204605F055
:10A0F000EBFA002803D12946204605F05DFA38BD69
:10A100000E2038BD30B58BB0040029D041B3E08AB1
:10A11000A0F57F42FF3A25D005AA204605F035FB81
:10A120000546ADF8000000200190029003900490D5
:10A13000E188ADF804100121ADF808008DF8061093
:10A1400005A8CDF80CD00490E08A01A9A6DF00286C
:10A1500004D1BDF80010A94200D00C200BB030BDD6
:10A160000E20FBE70820F9E738B500291FD00028AA
:10A170001DD00288102A15D0112A15D0502A16D1C8
:10A1800030F8062F4B899A4211D10C464189022999
:10A190000DD1216800290AD00C3000F01AF838B12E
:10A1A000002006E0808801E04FF6FF70C88238BDCD
:10A1B00001208DF80000226869462046904738BD8E
:10A1C00070B504460D460846FEF72CFA20806560FF
:10A1D00070BD007800F0010070470A78027049787D
:10A1E00041700220704700000149085C7047000080
:10A1F000B00F02000649095C4FF0A040D0F81005EE
:10A20000C84010F0010000D0012080F0010070472C
:10A21000B00F020007490B5C4FF0A041D1F80425B4
:10A220000120984020EA0203C1F808351040C1F827
:10A230000C057047AC0F02000249085C012103F0D5
:10A24000A6B80000AC0F02000249085C002103F030
:10A250009EB80000AC0F02000649095C4FF0A04018
:10A26000D0F80405C84010F0010000D0012080F0B3
:10A2700001007047AC0F02007CB50024084E254653
:10A280000122305D009500231146019503F00BF883
:10A29000641C042CF4D3BDE87C4000F003B800003B
:10A2A000AC0F020010B500242046FFF7C5FF641C68
:10A2B000042CF9D310BD10B500242046FFF7C4FFCD
:10A2C000641C042CF9D310BD10B50246064B4FF0A8
:10A2D000FF3000215C5C944201D1084610BD491C4E
:10A2E0000429F7D310BD0000B00F020070B50C4E6A
:10A2F0000C004FF0000530600BD0012000F06AF830
:10A3000008B1022004E0002000F064F800B10B2046
:10A310002070706810B9FEF7E5FC0546284670BD50
:10A32000C01B002010B5002000F0D0F908B10628AD
:10A3300006D1012000F0CAF908B1062800D100209A
:10A3400010BD00002DE9F0470D468146FFF7BCFF28
:10A350000446042836D2DFF874801B481C4EA8F14E
:10A360000C0725B3012D0ED0022D2BD104EB440098
:10A3700030444578002D25D0B968002922D02846E0
:10A38000BDE8F047084704EB4401755C0E44717862
:10A3900049B10E4A4FF40041093A8068FEF7E0FDEA
:10A3A00008B987F80390B17808F80410E2E78068EC
:10A3B000FEF71AFE04EB4401314418F804008D78CE
:10A3C000A842D7D0BDE8F087B40F0200BC1B002024
:10A3D000A41F0020FFF70EBF0146104810B50088EB
:10A3E000042907D007290ED00A2915D1BDE810404D
:10A3F00005F048BE132176DF0CE000280CD0BDE844
:10A400001040FEF765BDA0F57F41FF3904D1044837
:10A41000FFF790F90828F0D110BD0000801B002044
:10A420004C1E002070B50023042810D20D4D00EB07
:10A430004004012A02D101290CD00022094E00EB70
:10A440004000304461B1012906D0022906D007231B
:10A45000184670BD0E30C2B22A55F9E74270F7E7D0
:10A460008270F5E7A41F0020044A014600201279FB
:10A47000D20702D0084600F04DB87047B01B00204C
:10A4800070B506461E480024C0E90161B00720D51A
:10A490000025012211462846FFF7C4FF6D1C044623
:10A4A000042D02D2002CF4D013E094B940F266627D
:10A4B00004211448FEF798FC04000AD1FEF782FC40
:10A4C000040006D10F48104A0021001FFEF70CFDC2
:10A4D0000446F00701D0FFF7CFFE74B909480B4AD4
:10A4E00000210C38FEF700FD040006D10548084A9B
:10A4F00001210838FEF7F8FC0446204670BD000034
:10A50000B01B0020C00F020075A7010099BE01001A
:10A51000B38D01002DE9F05F6A4C05460026607896
:10A52000B34618B184F801B001F09EFC664F4FF4B9
:10A530007A694FF4C87A4FF00108182D62D2DFE82B
:10A5400005F0AC0C0C31404D62676B746B74BE7DD2
:10A550007D7D7D7DACAFB2B5BEBE0020FFF77CFE39
:10A5600000284FF0000008D0FFF766FE022D02D150
:10A570004FF4E16008E0484606E0FFF765FE022D73
:10A5800001D1C82000E05046410CC0034FF4FA72DC
:10A59000801841F10001257052000023FDF7E8FF0B
:10A5A00001462AE00020FFF757FE00284FF0000088
:10A5B00004D0FFF741FE4FF44870E5E7FFF744FE93
:10A5C000DFE70020FFF748FE00284FF0000002D030
:10A5D000FFF732FECFE7FFF737FED4E70020FFF7A3
:10A5E0003BFE00284FF0000002D0FFF725FE01E0FF
:10A5F000FFF72AFE257041F69A1100223868FEF70F
:10A60000AFFC064646E00020FFF704FE257008E098
:10A61000002051E025703DE084F801800120FFF723
:10A62000F9FD002240F6CD41E8E784F801800120E1
:10A63000FFF7F0FD00224FF48041DFE77868FEF776
:10A64000D3FC0646D5F1110000D02EB10220FFF751
:10A65000F3FD84F802B01DE0012816D980B2C821AC
:10A660004843C117C90341EA5041C0034FF4FA728D
:10A67000801841F1000152000023FDF779FF0146E7
:10A6800000227868FEF76CFC06460220FFF7DCFD2E
:10A6900084F802803046BDE8F09F01F0E5FBB9E7A1
:10A6A00001F0E2FBB4E701F0DFFB04E001F0DCFBCA
:10A6B0000020FFF7C9FD0120FFF7C6FDAAE7FFF75D
:10A6C000FAFDA7E7B01B0020B40F020010B5FFF79A
:10A6D0008BFD032102F039FE002010BDF8B5871C68
:10A6E00000208DF800000E4601256846FEF78CFC20
:10A6F000124C20683060D4E90001401AA168091AA0
:10A70000BE1C06E001F08EFDD4E90001401AA168EC
:10A71000091A491C8E42F5D8A1682068084004EB4C
:10A720008000C16841F00301C160206838442060A6
:10A730009DF80000FEF78CFC2846F8BD9427002009
:10A7400030B482680468531C8360A154D0E90112BC
:10A750008A4202D330BC02F0B4BB30BC7047000068
:10A76000034803C8814201D101207047002070478F
:10A770009427002000780221FFF7E4BD05494FF03F
:10A78000FF32082841F8202002D3084480F84820EE
:10A790007047000048230020F0B54FF0FF3512B19C
:10A7A0000023082601E008230C260C4C05E000BF1E
:10A7B00054F823707F1C04D05B1CB342F8D32846A6
:10A7C000F0BD26185DB286F8305044F82310002AF8
:10A7D000F5D1E11881F84800F1E700004823002096
:10A7E0000249084490F930007047000048230020D7
:10A7F0002DE9F0438FB01E46DDF8589015460F0046
:10A80000804602D10020FEF763FB15B90020FEF759
:10A810005FFB1C216846FDF7FAFE00249DF800004E
:10A82000039440F002008DF80000012001948DF89F
:10A830003600049405940694ADF834800C94307876
:10A840008DF8300070788DF831009DF832001421B9
:10A8500020F00600801C20F019008DF8320007A8B7
:10A86000FDF7D5FE0DA807900CA808900748ADF895
:10A870002450ADF82640ADF828500B974B4607AA58
:10A8800069460088A2DF0FB0BDE8F0832A1C0020D3
:10A8900070B504464FF6FF750A462846AC4208D10B
:10A8A0004FF480742146104604F074FAA04209D097
:10A8B00070BDFF2CFCD82146104604F05EFA08B1AA
:10A8C000204670BD284670BD70B5084C050009D003
:10A8D00010342168002907D008682060496828469C
:10A8E0008847F6E70834F4E770BD00003423002001
:10A8F0002DE9F05F26484168F1B3DFF898B00E68A3
:10A900008146DBF8004087688078E11B21F07F45B5
:10A91000ED1CB0B9DFF880804FF48030C8F84403F4
:10A92000C8F804031120FDF7A9FF1120FDF7B1FFBE
:10A930004FF0010AC8F800A02F2002F025F889F88E
:10A9400002A0B54200D23546124BE8193C3320F044
:10A950007F401860DBF800105A46091B21F07F4148
:10A96000001B20F07F40C91C81420FD9106818607D
:10A970002F2002F009F800E004E0BDE8F05F1120AC
:10A98000FDF792BFBDE8F05F04F02EBFBDE8F09F79
:10A99000881C002004150140001001402DE9F04101
:10A9A00017880646B81D14460D46984202D90C2059
:10A9B000BDE8F0813188072206290AD34FF4486C9C
:10A9C0004FF6FF73614501D9994202D1708806287C
:10A9D00001D21046ECE7604501D99842F9D199427D
:10A9E00003D0984201D08142F3D80520E855208851
:10A9F0001221401C80B2208029542088401C80B243
:10AA000020804119308805F097FF2188084480B2E2
:10AA100020804119708805F08FFF2188084420802C
:10AA20000020C5E7FEF754BA38B54A7A0F4B62B139
:10AA300000220A725969002906D001228DF80020EF
:10AA4000ADF802006846884738BD0A7A62B19B6853
:10AA50004C68024619462046FEF782FA0028F3D0D9
:10AA6000BDE8384005F004B95B68F1E70420002038
:10AA7000F0B585B016460F4604461D4614220B4914
:10AA80006846FDF7ABFD0A488DF80870ADF8024046
:10AA9000ADF80A608DF80C50017800222046FFF7CF
:10AAA0006DF8684600F092F905B0F0BDC4100200E0
:10AAB0000C1C00207FB50C4610B1012004B070BD05
:10AAC0002079002638B141F61D5501281BD00228F7
:10AAD00026D00F20F2E70220207102960396E0684C
:10AAE0000190694601A804F0C3FC50B10298818826
:10AAF000E18000882081BDF80010029804F036FD46
:10AB0000DCE70A20DAE70A4B6A460021A01D04F0C0
:10AB10006BFC38B1064918398E61CE610A28CDD157
:10AB20002846CBE702488188019804F01FFDF5E72D
:10AB3000B41C00202DE9F04100260125144C22E030
:10AB40006068226900EBC607387805FA00F1114207
:10AB500017D08A43226102F061F802463878E36830
:10AB600005FA00F1194002FA00F3994209D1797807
:10AB7000012901D0012100E0002151407A6802B191
:10AB80009047761CF6B220788642D9D3BDE8F08192
:10AB9000741C00200E4910B50A784C780023A2429C
:10ABA00012D0521CD2B20A70022A00D10B70084A8D
:10ABB0000B780C3252F8232002608868104420F091
:10ABC0007F408860012010BD0360002010BD0000A0
:10ABD000881C002013460A460021FFF749BF0000E9
:10ABE0002DE9F843104D0F4680461E4691466946B2
:10ABF000286801F09AFD040014D01C21FDF707FD20
:10AC000001202071C4F81490380BC4F80080C4E906
:10AC100002606946286801F0A9FD04F081FB00206C
:10AC2000BDE8F8830420FBE72411020010B5037887
:10AC30000022072B06D2DFE803F0050406102029C6
:10AC400030000A7010BD01230B7003898B8183884B
:10AC5000CB81C06888600A7410BD02220A70028924
:10AC60008A818288CA81C2688A60807D062802D073
:10AC70000020087410BD0120FBE703220A70C2887F
:10AC80008A810289CA81C068886010BD04230B7064
:10AC9000C0888881CA818A6010BD0520087010BDF7
:10ACA00070B5064D0646002455F8241009B130460B
:10ACB0008847641C042CF7D370BD000000250020D9
:10ACC00030B50446006885B00D46806800281CD069
:10ACD00014216846FDF79BFC0195A068049020793B
:10ACE00010B101280DD104E001208DF80000206989
:10ACF00004E002208DF80000E06800030290606923
:10AD00000390206881686846884705B030BD70B5FB
:10AD100086B015460C00064619D0112C17D0082C09
:10AD200015D014216846FDF772FCADF8026030467C
:10AD300000F054FFADF804000D2C0AD0862C1CD076
:10AD400007208DF800000294684600F04DF806B028
:10AD500070BD03208DF8000025B12878C00701D010
:10AD6000012000E002208DF8080000208DF80C0082
:10AD700041F20110ADF80A00E6E706208DF8000068
:10AD8000E2E7000010B50446408800F027FFA080ED
:10AD9000024801682046BDE810400847D81B002043
:10ADA0002DE9F04107460024064E074D05E000BF9F
:10ADB00056F8241038468847641CE8788442F7DB4C
:10ADC000BDE8F081E8220020FC1B002010B50446FD
:10ADD000408800F003FFA080024801682046BDE8DB
:10ADE0001040084798100200014909680847000010
:10ADF000EC10020070B586B0044614216846FDF7D9
:10AE000006FCA0890026A0F54040ADF8040020789B
:10AE10002D4D062835D2DFE800F0340303032E4E13
:10AE2000A08900F0C9F9012130B9E08943F6FE722A
:10AE3000A0F54040904224D8A07B8DF808002078EF
:10AE4000032810D05FF000008DF80900A06803907F
:10AE5000606850B109208DF8000060680490684671
:10AE600003F064FB0DE00120EEE708208DF8000000
:10AE70008DF81010F3E7A08900F09EF908B1E08981
:10AE800038B16878002802D06E7003F07FFC06B0FD
:10AE900070BD606838B10B208DF800006E70AE7028
:10AEA00003F074FCDBE70A208DF80000BDF8040015
:10AEB00003F0FCFCF2E713208DF800004FF6FF7062
:10AEC000ADF80400CBE70000E81B002038B50446CD
:10AED0000E480078A8B1A4F57F40FF380FD068462F
:10AEE00004F058F978B10521017001210171C48085
:10AEF000684604F05DF904F003FA002038BD042030
:10AF000038BD022038BD082038BD0000BC1C002020
:10AF10000C4808B5007888B1684604F03BF978B170
:10AF200006210170684604F043F90748017809B129
:10AF30000121017304F0E4F9002008BD022008BDDE
:10AF4000082008BDBC1C0020C4250020F0B589B035
:10AF500014216846FDF75BFB2D4C207818B168463C
:10AF6000FFF79EFE52E0201D012105AAFDF75EF9C4
:10AF7000C8BB4FF0102040694FF080510969421C56
:10AF800002D101EB41000001224900220861A0F535
:10AF90004050C86020491F4802F0B3F8002820D173
:10AFA0001F481C238C221D49006801F0ABFB03F0F5
:10AFB00071F8050014D0022D12D000270126062DAD
:10AFC00012D006A804F0E6F888B106700C2D18D24D
:10AFD000DFE805F0170F170F1716171617111311C3
:10AFE0000B2009B0F0BD11E026706760B7E70820BC
:10AFF000F7E7077105E0032100E00221017100E09D
:10B00000067106A804F0D4F804F07AF90020E8E705
:10B01000BC1C00203C1D0020341102001025002023
:10B02000FC10020038B5040014D0694604F020FA80
:10B03000A0B1BDF8000000EB8001094800EB8100E1
:10B04000C16849B1A17A39B1C168491EC160002007
:10B05000A07238BD052038BD062038BD0A2038BD95
:10B060009C2500201FB501A9684604F0BDF904B075
:10B0700010BD07B513460A466946002004F0B4F92E
:10B080000EBD07B513460A460021684604F0ACF928
:10B090000EBD20B119B1006808600020704705207E
:10B0A000704700007CB50D46040019D0C5B1694653
:10B0B00004F0DEF9B0B1BDF800000B4900EB8000F0
:10B0C00001EB8000012101AA0C306668FDF7D5F87C
:10B0D0002E6060680C3068600120A07200207CBD8A
:10B0E00005207CBD0A207CBD9C25002018B10323CF
:10B0F000002205F02FBE052070470223002205F034
:10B1000029BE12B1022305F025BE052070470000BC
:10B11000094908B50A69042A0BD0084A096942F8A6
:10B1200021000548012110306A46FDF7A6F80020ED
:10B1300008BD0C2008BD00009C1C0020002500203C
:10B1400038B5044609480D46007858B164B16946DF
:10B15000284605F0F9FE002803D1BDF80010218033
:10B16000658038BD022038BD052038BDBC1C0020DC
:10B1700010B504460E48007898B1A4B12188022980
:10B1800013D80C4A01EB810002EB800260885289DF
:10B19000C31C934209D805F0CBFE002020806080BC
:10B1A00010BD022010BD052010BD042010BD000000
:10B1B000BC1C00209C25002043F6FE71A0F54040F9
:10B1C000884201D8012070470020704710B504461E
:10B1D0000078182802D1FEF797FC207010BD10B53A
:10B1E00004460078182802D1FEF78EFC207010BDAE
:10B1F00070B51346002206461546862902D011294D
:10B2000002D002E0012200E001250D4C73B1A179CA
:10B21000FEF7B4FC2A4661793046FEF7AFFC002207
:10B22000A1783046FEF7AAFC002203E0A178FEF7E1
:10B23000A5FC2A4661783046BDE87040FEF79EBC0A
:10B24000141C0020406803F0BBBF00000EB516A11F
:10B250009DF8080020F00F00401C20F0F000103096
:10B260008DF808000A2202A87CDF08B1FDF730FE45
:10B270004FF4886078DF08B1FDF72AFE00204FF414
:10B28000C87100900190ADF80400ADF800104A00BC
:10B29000ADF80220ADF8061068467ADF002801D02C
:10B2A000FDF716FE0EBD00004E6F726469635F52BB
:10B2B0005343000070B508B1012070BD194C002542
:10B2C000207B08B1257301E000F0A0F82078082861
:10B2D00026D2DFE800F02504080C10251420BDE874
:10B2E000704000F021B8BDE8704000F07DB8BDE8C6
:10B2F000704000F05FB8BDE8704000F03BB8608877
:10B30000084900EB8000283901EB80004068BDE867
:10B31000704002F09FBE6560BDE8704002F0A8BEBC
:10B320000F2070BDC42500201149F0B48A1C0020F4
:10B330000346A1F128050C18A67A4EB1A37200EBC2
:10B34000800405EB8404E66816B9247C012C0AD03D
:10B35000401C80B20228EED30B704B804B60F0BCD7
:10B3600041F61D5070471080F0BC00F03DB8000061
:10B37000C42500200C48418801EB8102A0F128017E
:10B3800001EB8201CA6852B1052101700748022110
:10B390008180016800230122054801F08BBE042250
:10B3A00002704968F6E70000C4250020C41C002094
:10B3B0003C1D002038B50A49084803240B68426840
:10B3C000898803EB810153880470DB1C00201B0477
:10B3D00000909B0B034801F033FF38BDC4250020CB
:10B3E000C41C00203C1D0020074910B54888091DD9
:10B3F00004F08EF818B1BDE81040FFF7DBBFBDE8E0
:10B400001040FFF7B7BF0000C4250020F0B51F486B
:10B410001F490125067802248B88A0F12802082EF6
:10B4200019D2DFE806F00418181B222F2F17018904
:10B43000491C01810021418080F80C1001EB81033F
:10B4400012F8233043B100234418491C89B2A37277
:10B450000229F3D30570F0BD0123F5E74268528855
:10B46000D21C1A448A800470F0BD46880D6806EB31
:10B47000860602EB860256680E60556013818C804A
:10B48000062100E007210170F0BD0000C425002066
:10B49000C41C002030B501888588224C85B0502915
:10B4A00024D0522902D0542932D103E0284600F09A
:10B4B00063FE2DE014221C496846FDF78FF8ADF8B5
:10B4C0000250284600F08AFBADF8040000F034F981
:10B4D000002261792846FEF751FB00222179284697
:10B4E000FEF74CFB6846FFF74DFC11E0017B01299C
:10B4F0000ED1817A01290BD10089A0F5245102399E
:10B5000006D10121284600F06BFEA07803F030FA46
:10B51000E07803F02DFA207905B0BDE8304003F063
:10B5200027BA0000D01B00201C10020010B50446F2
:10B53000007800280FD1608800F01EFE608800F0BF
:10B54000A3F9002807D00449608801220979BDE8E1
:10B550001040FEF713BB10BDD01B002010B5124CDD
:10B5600000202070FEF7D0FAA070FEF7CDFAE07050
:10B57000FEF7CAFA2071FEF7C7FA6071A1781829A0
:10B580000FD0E17818290CD02179182909D0182872
:10B5900007D00121601C03F0E9FB0120207000208E
:10B5A00010BD032010BD0000D01B00202DE9F0418C
:10B5B00092B000F0D9F86846FEF782FA00246E4691
:10B5C0000D4D4FF6FF780DE006EB4407B88800F00C
:10B5D00005FB404504D1B88801222979FEF7CEFA4F
:10B5E000641CA4B20098A042EED8287903F0C0F9F8
:10B5F00012B0BDE8F0810000D01B00207CB50446ED
:10B6000000781C4D08282FD1607A38BB207A4FF67D
:10B61000FF7601280DD0072802D0082824D11EE08B
:10B62000A08800F019FAB0421ED0012100F0D8FD28
:10B630001AE0A0886A46012102F070FE70B90198F4
:10B64000007858B1A08800F007FAB0420CD001226F
:10B650002979FEF793FA287903F08AF904E005487E
:10B660000021401C03F0BDFBA878BDE87C4003F03E
:10B670007FB90000D01B002010B504460A4841786D
:10B680002046FEF765FA68B10848002101EB410247
:10B6900000EB82025288A24201D1C8B210BD491CFF
:10B6A0001429F3D3FF2010BDE21B0020D820002076
:10B6B00070B5094D094E002404EB440005EB8000F1
:10B6C00071784088FEF744FA20B1641C142CF3D33F
:10B6D000FF2070BDE0B270BDD8200020E21B00202A
:10B6E0002DE9F041124E07460125BD403068FDF7B7
:10B6F0007BFC00280DD10F4C2069284207D1384629
:10B7000001F08CFA0028E06805D0284304E0A84343
:10B710002061BDE8F081A843E060206928432061F2
:10B72000A1683068BDE8F0410022FDF719BC0000B7
:10B73000F4100200741C00201CB5054AD2E9021264
:10B74000CDE900120022694602F00DFE1CBD00008A
:10B750003410020003484FF6FF718180012101700F
:10B7600000207047DC1B002010B54FF6FF7002F080
:10B770008DFD03498880BDE8104004F031BB000016
:10B78000DC1B00202DE9FC41804600F027FA002454
:10B7900003250127A0F57F412646FF3908D06A46D8
:10B7A000082102F0BBFD18B90198841D8688056840
:10B7B00032462B4621464046A9DF042804D00828FB
:10B7C00004D00B2808D002E0112000E00020002F58
:10B7D00000D10B20BDE8FC810027A80701D5012579
:10B7E000E6E73443F5D0002426460325E0E72DE9BB
:10B7F000FC41804600F0F2F90646A0F57F40FF3894
:10B800000ED001252A466D1C0027ADB26B460821DB
:10B81000304602F0ADFD040006D0072C25D025E00F
:10B8200043F20200BDE8FC81019903230A1D0B606D
:10B830004046891DAADF040004D00C2C09D0052C39
:10B8400009D009E032460821104602F027FE0446DE
:10B850000CE0012700E000240821304602F00AFE37
:10B8600000B10324002FCDD100E00C242046D9E7FD
:10B8700004488088A0F57F41FF3901D004F0B0BAB8
:10B8800070470000DC1B00200EB502A9019100F0FA
:10B89000A5F96A46012102F041FD08B100200EBD64
:10B8A000019800780EBD00002DE9F04107464FF6E3
:10B8B000FF760A48ABDF10B10320BDE8F081074CEA
:10B8C00043F20305A41E324661883846A7DFA8422A
:10B8D000F3D16088401C6080F5E70000DE1B00208B
:10B8E000428800EB82020C328A4201D90220704762
:10B8F0008188A1F57F42FF3A03D0008808B100207B
:10B90000704701207047884204D20068401C01D073
:10B9100001207047002070473EB5027802230C4694
:10B92000B3EB520F17D1B0F80110ADF80010C17889
:10B930008DF802108188ADF8041080798DF806002A
:10B9400002AA01A92046FDF70BFA032202A96846C4
:10B95000FCF76FFE08B100203EBD01203EBD000097
:10B9600010B50C46FFF788FEFF280CD0074900EB06
:10B97000400001EB8000416821600189A180807A4C
:10B98000A071002010BD052010BD0000D8200020AF
:10B9900070B501888CB0102959D1011D1822684654
:10B9A000FCF71CFE9DF804004FF6FF760321344699
:10B9B0006D46B1EB500F2AD002F026FE9DF8040030
:10B9C00040080ED001280CD0022820D118E0089998
:10B9D000281D1131FDF761F918B100BFBDF81840FD
:10B9E00015E007AA06A9072002F0E2FD0028EED123
:10B9F0000DE00899281D491CFFF78EFF0028EDD1A6
:10BA000007AA06A9072002F0D3FD0028F1D1BDF84E
:10BA10000000291D00F020FEB44218D0BDF800003F
:10BA2000214600F0C5F8BDF80000ADF81A0000206E
:10BA3000ADF81C40074E8DF8180006AD044600BF57
:10BA400056F8241028468847641C022CF8D30CB002
:10BA500070BD000048100200094A002101EB4103BB
:10BA600032F82330834205D101EB410002EB800024
:10BA700040887047491C1429F0D34FF6FF70704777
:10BA8000D82000203EB50C46054602F0BDFD0BE077
:10BA9000BDF80000A04207D02846029900F02EF819
:10BAA00010B1BDF800003EBD01AA6946072002F0B2
:10BAB0007FFD0028ECD14FF6FF703EBD10B50D4C58
:10BAC00018200D4A607000204FF6FF7100EB400314
:10BAD00002EB8303401C59801428F7D3FEF714F8B7
:10BAE0006070182803D001202070002010BD0320B2
:10BAF00010BD0000E21B0020D82000202DE9F041FD
:10BB00000C46054600F1110701F111061022491CEF
:10BB1000401CFCF78EFD48B9681C00F095F928B16F
:10BB2000601C00F091F908B1012400E000243146C6
:10BB30003846FDF7B2F83B780222B2EB530F0CD037
:10BB40000321B1EB530F08D03378B2EB530F04D07D
:10BB5000B1EB530F01D0012100E00021084201D1D7
:10BB60008C4302D00120BDE8F0810020FBE7018872
:10BB700011B9421892780AB101207047491C08296E
:10BB8000F7D30020704710B50C460346FFF7EFFFD0
:10BB900000280AD018882188884205D10822A11CD3
:10BBA000981CFCF746FD08B1002010BD012010BD17
:10BBB00002F0D0BE70B50446FFF74EFF05462046A2
:10BBC00002F0AFFB4FF6FF7104468D4203D014B96B
:10BBD000284602F0BFFE204670BD000010B5FFF7FA
:10BBE0004BFDFF2805D0044900EB400031F8200050
:10BBF00010BD4FF6FF7010BDD82000203EB50446A2
:10BC000002F002FD0EE0019920464631FFF7BBFF2E
:10BC100028B9019920462A31FFF7B5FF10B1BDF8C8
:10BC200008003EBD6A4602A9072002F0C1FC0028B8
:10BC3000E9D14FF6FF703EBD38B504460A480121F0
:10BC40006A46FCF7A5FB68B90848606002F0B4F8E2
:10BC500005491C238C22087404488C39001F006895
:10BC600000F050FD002038BD702600202811020091
:10BC70002DE9F0412D4F002518B17D600120BDE870
:10BC8000F0810879012258B1294E01280CD0274CA7
:10BC90004FF002080834022821D0032842D128E0BE
:10BCA0000A7102F0E5F93BE05FF0000000EB800173
:10BCB00016F82110022908D0401C80B20228F5D3C2
:10BCC0003A707D6041F61D50D9E700EB800006F820
:10BCD000205006EB8000406802F0BCF920E00D71B6
:10BCE000A4F80480002301221248216801F0E2F93F
:10BCF00016E00D71206802F0ADF90D492368283176
:10BD0000498801EB810206EB8201D1F804C0C4F836
:10BD100000C04B60A3880B81A4F8048006F8225071
:10BD20000028ACD07D600E20A9E70000BC1C0020DC
:10BD30009C2500203C1D00200146034802888A42C1
:10BD400000D0002070470000F01F00202DE9FC5FAC
:10BD50000E008346DDE90C47C6F100009846924686
:10BD6000814600D40846012503E000BF90FBFAF0AD
:10BD70006D1C5045FADAA84500D9454624B1002E7D
:10BD800001DB780700D5641EB80702D5B8F1000FB3
:10BD90000AD0F80708D13CB1A54205D22021584667
:10BDA000641EFEF7CDFCF6E7002E02DA4E462D218A
:10BDB00002E0780703D52B215846FEF7C1FC07F0B7
:10BDC000030002280BD1B8F1000F08D13CB1A54205
:10BDD00005D230215846641EFEF7B2FCF6E7CDE9E5
:10BDE0000047434652463146584604F0BBFDBDE885
:10BDF000FC9F00000248007A002800D00120704714
:10BE000070260020F0B58488A518944200D82246F8
:10BE1000A41AC288D6189A4200D81346D21A4B8860
:10BE20000788BB420CD34088834209D88888A04247
:10BE300006D3A84204D8C888904201D3B04201D9A1
:10BE40000020F0BD0120F0BD0021425C0AB10120BC
:10BE50007047491C1029F8D300207047800701D093
:10BE600000207047012070470A4810B5807860B103
:10BE7000002401E0022C06D02046FEF7DDF9641C08
:10BE8000042CF7D310BD0324F6E7BDE81040FEF7FD
:10BE900009BA0000B01B002003480179C90702D08D
:10BEA0000078FEF737BB7047B01B00200649012021
:10BEB000086006480168C1F300410029FAD104492D
:10BEC00000208870704700000C00004018040040FB
:10BED000342300201721018041800021017141712C
:10BEE000704700002DE9FE4F2A4D984691460F00FD
:10BEF000824601D000260DE0684600F0D9FB6A4674
:10BF00000021504602F079F92878009E10B99DF87A
:10BF1000090098B14A463146504604F013FA0446E7
:10BF2000014600225046FFF763F9112C1AD008DCB5
:10BF300074B3082C2CD00D2C09D129E00520BDE8C4
:10BF4000FE8F862C1AD0A4F54050023820D003254D
:10BF5000B8F1000F04D0324621465046FEF7D7FE16
:10BF60002846ECE73A4629795046FDF707FE4A464F
:10BF7000E9785046FDF702FE0025E9E73A462979BF
:10BF80005046FDF7FBFD4A46E9785046FDF7F6FDC1
:10BF90002546DDE7141C00202DE9F041204F0E4618
:10BFA000154604463978FDF7D3FD002835D02046E4
:10BFB00002F0FEF850B32046FFF710FE8046204600
:10BFC000B978FDF7C5FD08B1012700E0022720463A
:10BFD00002F0D2FB0028404602D0FFF7EBFD0DE057
:10BFE000A8F57F41FF3909D0072102F043FA01008B
:10BFF00004D0052902D0204603F056FE2B463246D7
:10C0000039462046BDE8F041FEF732BD2A463146AA
:10C010002046BDE8F041FEF7DDBDBDE8F08100003F
:10C020000C1C00202DE9F04391B08146FDF782FD04
:10C03000002820D06846FDF743FD00246E4617E037
:10C0400006EB44054946A888FDF782FD78B10B4F01
:10C05000A888F978FDF77CFD8046A8883979FDF736
:10C0600077FD0146A88801234246FFF73BFF641C89
:10C070000098A042E4D811B0BDE8F083141C002061
:10C080002DE9F047394E002780463D46DFF8E09025
:10C09000D6F804A057E003D00446D0F81C8035E061
:10C0A00099F8002002EB4201521CD2B289F800201C
:10C0B00009EBC10199F80230091D9A4201D189F8B2
:10C0C000005048680A780446012A12D0022A02D099
:10C0D000032A3BD108E004F0F7FA00B101272574E8
:10C0E00034E00574C06900E070680028F9D1706020
:10C0F0002CE0207C50BB88686060C868A06008693C
:10C10000E0604869A061F07800B165606268B1687C
:10C11000184B501A20F07F40984202D2A168084480
:10C1200006E0881AA16820F07F40814202D9081AEF
:10C13000206000E0256065600120A5602074204635
:10C14000E56104F0A3FAB8F10000A4D199F8001059
:10C1500099F801008142A3D117B97168514502D005
:10C160000120BDE8F0870020FBE70000881C0020CC
:10C17000DC230020FFFF7F0030B585B0054600249A
:10C1800014216846FCF743FAA5F57F40ADF802504C
:10C19000FF3815D02846FFF7F5FA98B10B2815D0CF
:10C1A000112811D0A0F54051023903D0014628468C
:10C1B00003F066FD09482246C1782846FDF7DEFCFB
:10C1C00005B030BD0E2002E00124F3E70F208DF80A
:10C1D00000006846FEF7D6FDECE70000D01B00200B
:10C1E0000A4602498978FDF7C9BC0000D01B00202F
:10C1F000F8B5054600780C46002620420FD10020F5
:10C200008DF800006846FCF7FFFE2878204202D136
:10C210002043287001269DF80000FCF719FF3046E6
:10C22000F8BD000070B588B0214800F0AAFA204897
:10C23000001F064600F0A5FA1E4DD5E9014105E0B4
:10C24000C0F3891202EB9050641C044404EA01001C
:10C2500005EB8000C0688207F2D000200DF10802D3
:10C2600004EA010305EB8303641CDB6842F8203019
:10C27000401C0228F4D3029800F00300012808D0E3
:10C2800002280AD10298032101EB905004EB90049C
:10C2900003E00298C0F3831004443046002101AA51
:10C2A000FCF71FF9002800D06C6008B070BD0000DA
:10C2B000AC2B002094270020A8B0002001F0D6FA73
:10C2C00008B1FCF705FE01F059F9FCF71FFE08B1B3
:10C2D000FCF7FEFD5F4A01215F48FCF705FE08B14F
:10C2E000FCF7F6FD5C485D4A0121001DFCF7FCFDF2
:10C2F00008B1FCF7EDFD5A490320FEF7C1F808B17B
:10C30000FCF7E6FD69460020FDF7F0FF08B1FCF7F9
:10C31000DFFD9DF8000002287ED0002601F004FD1C
:10C3200008B1FCF7D5FD002469460120009401F016
:10C33000CBFB08B1FCF7CCFD684601F043FC08B12B
:10C34000FCF7C6FDFEF782FF0021464800F080FAA8
:10C3500008B1FCF7BDFDA0216846FCF758F90220A2
:10C360008DF8000001208DF80200062103258DF8CC
:10C370007C008DF80310ADF8105028203A49229027
:10C380000591B420239039482690364869461030EC
:10C39000FDF7E8F808B1FCF79BFD324801211030A9
:10C3A000FDF7DDF803F0C8FD03F092FC1C216846A0
:10C3B000FCF72DF94FF42030CDE900404FF4702008
:10C3C000029028488DF80C501C384089ADF80E00BA
:10C3D00027480590274806908DF810406846FDF7DD
:10C3E0003BFB08B1FCF774FD02F08AFC08B1FCF7D6
:10C3F0006FFD214802F038FE08B1FCF769FD1F48C7
:10C400001FA1008805EB004001F0BEF9124C00228C
:10C410004FF48031206800E01AE0FCF7A1FD08B17C
:10C42000FCF756FD4FF4004100226068FCF798FDD0
:10C4300008B1FCF74DFD3046FCF770FC01F0ACF89C
:10C440000028FBD13EDF0028F8D0FCF741FDF5E7DE
:10C45000012663E739930100A40F02004DF60100A5
:10C46000D9A301003C1E0020A41B0020D1DE010046
:10C470001DDF010025AA010089EB0100981D0020A5
:10C4800052756E6E696E6720537065656420616ECB
:10C490006420436164656E6365206578616D706CCE
:10C4A0006520737461727465642E000070B5144663
:10C4B00082880E4605462088111D0144921C99422F
:10C4C00001D8FE2A01D90C2070BD521C325420889C
:10C4D000FF21401C80B2208031542088401C80B253
:10C4E00020808119288804F027FA2188084480B226
:10C4F0002080AA8842B1A96841B13044FCF76EF8A7
:10C500002088A98808442080002070BD072070BDC5
:10C510002DE9F047C7880446181D16468946B0FB2A
:10C52000F7F1B0FBF7F207FB12009A193A44D21C5C
:10C53000B2FBF7F2DDF820A001E02468491E0029D3
:10C54000FBD13D1A8846B54216D818E0BAF1000F63
:10C5500005D0211809EB08002A46091D04E02044F3
:10C5600009EB08012A46001DFCF738F80020246872
:10C57000761BA844B74201D9354600E03D46002E5F
:10C58000E4D1BDE8F087000030B5024669B101F0A2
:10C590009BF90021084C0BE001EB410304EB830302
:10C5A00015685B88AB4202D11160002030BD491C88
:10C5B0008142F1D3052030BD501D0020F8B50E4654
:10C5C000017814460546012901D1687830B12088E8
:10C5D000821C9A422DD8012902D006E00720F8BD1E
:10C5E00069780144891C994223D8181A801E87B2A1
:10C5F000ADF800702188B01C084469467DDF002832
:10C60000EDD12878022805D1BDF80010B94201D833
:10C6100009210AE00821012805D16878B84202D82A
:10C62000ADF8000001E0ADF80070BDF80000FE2894
:10C6300001D90C20F8BD2288401CB0542088401C31
:10C6400080B2208031542088401C2080BDF800102A
:10C65000084420800020F8BD70B505460C004FF05E
:10C66000FF0020D04FF6FF76B5421CD00E480122C5
:10C6700041782846FDF782FA2846FEF7FDFFFF289D
:10C6800003D1FFF715F8FF280DD0084B00EB40024F
:10C6900003EB82014D8023F8226022684A60A28861
:10C6A0000A81A2798A7270BDE21B0020D820002086
:10C6B000034A00219268C0E90021816070470000B0
:10C6C000141C002070B54FF6FF750E46A84201D12C
:10C6D000002000E0401C84B208E02146304602F011
:10C6E00074FB08B1204670BD641CA4B2FF2CF4D9C1
:10C6F000284670BD10B5FBF726FE08B1002010BD1E
:10C70000112010BD10B531B1B2FBF3F403FB1424BA
:10C710001CB1092010BD0E2010BD01600021416038
:10C7200081608281C381084610BD70B50C46054604
:10C73000FBF7BEFD002802D021882868084470BDA0
:10C7400010B50A8849888A4203D1FBF7F3FD01201E
:10C7500010BD002010BD70B50C460546FBF7CDFDA1
:10C76000002802D061882868084470BD10B50A8886
:10C7700049888A4203D1FBF7B7FD012010BD002094
:10C7800010BD08B501216A46FBF79EFE009808BD62
:10C7900008B56A46FBF771FD009808BD38B5044638
:10C7A00000258DF800506846FCF72EFC2168626871
:10C7B000086890420ED9401E08600178238AE2681A
:10C7C00001FB0325227A2168101AC0B20A7982423D
:10C7D00000D208719DF80000FCF73AFC284638BDED
:10C7E00038B5054600208DF800000C466846FCF779
:10C7F0000BFCE868298A201AB0FBF1F12A6810685E
:10C80000431C136001709DF80000FCF721FC38BD4B
:10C8100010B530B1017A42680368891AC9B21A604A
:10C8200006E00E2010BD03681A68541C1C601170CD
:10C83000491EC9B2F7D2006800210171084610BD37
:10C84000C20800F007030120895C98400840704747
:10C8500010B560B1C160172120F8021B20F8021B3F
:10C860001B2100F8021BFFF735FB002010BD0E2036
:10C8700010BD00002DE9FC4182880C46002A51D1F0
:10C8800001880126354F0025102906D0112925D011
:10C890003A2927D055294BD146E0C07B04F1060E3A
:10C8A000012802D12088AEF80000BEF80010BEF8C2
:10C8B000020081423CD910469EDF020008D0112AB6
:10C8C00009D03888264906EB004000F061FF2FE0D0
:10C8D0008EF805602CE08EF804602CE0A01DFFF7B8
:10C8E000F9FA25E02346408934F8061F814200D832
:10C8F00008466080172800D217206080D86878B179
:10C90000607968B11749D1E90001CDE90001ADF8BE
:10C9100002206088ADF80400DA686946184690473E
:10C9200065712571BDE8FC810146204601F004FBDC
:10C93000A07A0028F6D02846E1889EDF02000AD0BF
:10C94000112AEFD0388802B006EB0040BDE8F04174
:10C95000034900F01DBFA572E672E3E7501D0020F9
:10C96000C41302005010020000F18040006800284B
:10C9700000D00120704708B500F18040002101601F
:10C980000068009008BD000000283ED01F49204AE2
:10C99000096800BF00BF00BF00BF00BF00BF00BFED
:10C9A00000BF91422FD000BF00BF00BF00BF00BF3B
:10C9B00000BF00BF00BF00BF00BF00BF00BF00BF7F
:10C9C00000BF00BF00BF00BF00BF00BF00BF00BF6F
:10C9D00000BF00BF00BF00BF00BF00BF00BF00BF5F
:10C9E00000BF00BF00BF00BF00BF00BF00BF00BF4F
:10C9F00000BF00BF00BF00BF00BF00BF00BF00BF3F
:10CA000000BF00BF00BF0138C3D17047381D0020F0
:10CA10000024F40070B50F4C0025207808B185255E
:10CA200016E00021A16061602161E1604FF0E0202B
:10CA3000D0F80001012610F0010F03D107210020DA
:10CA400000F022F801F0B8F908B903480660267032
:10CA5000284670BD342300201805004008B500208A
:10CA60008DF800006846FCF7CFFA0648C168491EF9
:10CA7000C160C06808B9FFF719FA9DF80000FCF71B
:10CA8000E7FA08BD342300204907090E002806DA1A
:10CA900000F00F0202F1E02282F8141D03E000F121
:10CAA000E02282F8001400F01F02012191404009A9
:10CAB000800000F1E020C0F88012C0F8001170473B
:10CAC0002DE9F0418846054601F0BEFF234E0028BF
:10CAD00028461AD0FDF784FE304490F848008009BB
:10CAE000032802D001280ED007E04FF0A040D0F874
:10CAF0001005E84010F0010F05D003212846BDE8DD
:10CB0000F04100F033BC0221F8E701F0A9FF002852
:10CB100022D02846FDF764FE04464FF4807000EBF7
:10CB200084000F4F81B207EB8400D0F8102542F04B
:10CB30000102C0F81025084600F048FCB8F1000FCB
:10CB40000AD02846FDF74CFE56F82000002803D0F6
:10CB50000120A040C7F80403BDE8F081482300206D
:10CB6000006000402DE9FC41DFF8A480044608EB9A
:10CB70000400002790F930001346C0170E46401CF1
:10CB800001D0082741E0F27819462046FDF704FE5F
:10CB90000546401C38D0B07850B14FF0A04000EBB3
:10CBA0008400D0F8001721F00201C0F8001707E058
:10CBB00000217378204600910A46019100F085FB20
:10CBC000F078C0B11348317800EB8500D0F810251B
:10CBD000114B1A40C0F810254FF4F8524FF440336F
:10CBE00002EA042203EA01410A43D0F810150A437D
:10CBF000C0F8102509E008EB0500327810F8481F4E
:10CC000041EA8211017000E004273846BDE8FC814A
:10CC10004823002000600040FFE0FCFF4FF0A041EF
:10CC2000D1F81015C14011F0010000D0012070476B
:10CC300070B5144D95F8540008B1082070BD00205F
:10CC4000411E2A18401CC0B282F830102028F8D3A8
:10CC500000242046FDF792FD641CE4B20C2CF8D3AE
:10CC600007210620FFF710FF4FF4BE7000F0AEFB67
:10CC700005494FF00040C1F80403012085F8540035
:10CC8000002070BD4823002000600040034890F859
:10CC90005400002800D001207047000048230020E5
:10CCA0000121B1EB507F01D1012070470020704776
:10CCB0002DE9F04105460F4600791F49C0EBC00041
:10CCC00001EB80041646E07E10B10820BDE8F0813B
:10CCD00039462846FCF7D6F9666038692060F6B117
:10CCE0003E7F4FF48871286801F0EBF84FF49071A3
:10CCF000286801F0E6F84FF49271286801F0E1F835
:10CD00004FF4A271286801F0DCF828680B49C0F8DC
:10CD1000041328683146000B40B2FFF7B5FE2868BF
:10CD20000821C0F800150020E0752076A0750121CB
:10CD3000E176A076CAE70000A023002010030200DD
:10CD40002DE9F04704460079254FC0EBC00007EB02
:10CD5000800590460E460846FFF7A2FF30B12046F8
:10CD600000F040F820B11120BDE8F0871020FBE76B
:10CD700085F816804FF00008AE60A5F81480207981
:10CD80004FF49079C0EBC00007EB8005464649465A
:10CD9000206801F096F84FF4AC773946206801F02E
:10CDA00090F82068A97DAA68C0F84425C0F8481505
:10CDB000206801218160686880B9CA46B946514639
:10CDC000206801F079F807464946206801F074F8B8
:10CDD0000743F4D000B10F2685F816803046C3E72C
:10CDE000A023002000790549C0EBC00001EB8000C2
:10CDF000807D002800D0012070470000A023002083
:10CE00002DE9F041024600792549C0EBC00001EB55
:10CE1000800710684FF00008C0F80085786880B17E
:10CE200010682049C0F8081310680121000B40B2B7
:10CE300000F01F0399404009800000F1E020C0F895
:10CE400080111068D0F80C35D0F81465D0F808556A
:10CE5000D0F810454FF0FF31C0F80C15C0F814158C
:10CE60001068C0F80815C0F81015581C02D01846F4
:10CE700000F04FFA701C02D0304600F04AFA601CF5
:10CE800002D0204600F045FA681C02D0284600F087
:10CE900040FA87F81B80C7F80480BDE8F0810000E5
:10CEA000A0230020100302000FB408B50399002945
:10CEB00004D004AA00926A4600F00FF801B05DF8B1
:10CEC00014FB10B582680446002A05D0D4E9040397
:10CED000216898470020A06010BD2DE9FC479146CD
:10CEE0000C00804676D014F8011B39B125290ED0EC
:10CEF0004046FDF725FC20780028F4D198F80C0076
:10CF0000002867D04046BDE8FC47FFF7DABF0020A5
:10CF1000012221782B291BD02D2902D0302908D1BC
:10CF200002E040F0010001E040F00200641C002A31
:10CF3000EFD100252A290ED02178A1F130020A2A4A
:10CF400011D205EB850201EB4205641C303DF1E78F
:10CF500040F00400EAE7D9F800100B1DC9F80030D2
:10CF60000968641C0D44217800232E290BD114F884
:10CF7000011FA1F130020A2A05D203EB830201EB63
:10CF80004203303BF3E76C290DD068290BD06929A7
:10CF900021D00BDC252918D0582931D063290ED097
:10CFA000642915D117E014F8011FECE7702969D046
:10CFB000732932D075291BD0782909D120E0D9F8FE
:10CFC0000000011DC9F8001001784046FDF7B8FBCC
:10CFD000641C90E76CE0D9F800100A1DC9F8002025
:10CFE0000968CDE900500A224046FEF7AFFEEFE7A0
:10CFF000D9F800100A1DC9F8002009680A2206E0C5
:10D00000D9F800100A1DC9F8002009681022CDE9DE
:10D010000050404603F0A6FCDAE7D9F800100027DC
:10D020000A1DC9F800200E68C00705D112E040466D
:10D03000761C7F1CFDF784FB31780029F7D104E0D2
:10D04000202140466D1EFDF77BFBBD42C0D9002D5F
:10D05000F6D1BDE74EB13046FBF7E4FA074604E0EF
:10D06000202140466D1EFDF76BFBBD4206D9002D09
:10D07000F6D103E04046761CFDF762FB31780029CB
:10D08000F8D1A5E7D9F80000011DC9F8001005681E
:10D0900030214046FDF754FB78214046FDF750FB18
:10D0A00008200021CDE90001034610222946B0E7FF
:10D0B000BDE8FC872DE9F0411F46154604000E46E9
:10D0C00016D02068B8B1C5B160680268501E304201
:10D0D00015D16A432046FBF7F9FD80B120683B4635
:10D0E0002A46D0F810C031462046BDE8F0416047DE
:10D0F0000E20BDE8F0810820FBE70920F9E71020A9
:10D10000F7E720B119B101600B68114618470E20EE
:10D11000704700002DE9F04128B1016819B1C969D3
:10D12000BDE8F04108470D4D0D480024461B14276B
:10D130000DE000BF04EB840005EB8000016829B11D
:10D14000C969884710B10120BDE8F081641CB6FBB5
:10D15000F7F0A042EED80020F6E700003C1D0020CA
:10D16000501D0020044801214174007A08B10020BC
:10D17000704701207047000070260020012801D070
:10D18000032808D10449002201284A7400D0002055
:10D19000087402F069B870477026002070B5254CFD
:10D1A0000246207A012837D0022841D122480023A4
:10D1B000022A006802D0032A2ED11BE0E360017925
:10D1C00011B1012928D10DE0D0E90565711B4FF49B
:10D1D0008056B14200D33146294481614569A94254
:10D1E0000ED019E00169491C01614269914213D1D5
:10D1F000237217E0E168491CE16008290CD9E3605B
:10D200002372022A0ED00D21FDF75AFD0B480A4960
:10D21000091D0068FFF794FA607C28B1BDE87040F2
:10D2200000F0D0BD0021EFE7BDE8704002F01CB86F
:10D2300070BD000070260020CC1C002024110200CC
:10D240002DE9F8431D46089F1646884604000DD078
:10D2500066B1206860B135B160684068B5FBF0F137
:10D2600000FB115030B10920BDE8F8830E20FBE728
:10D270000820F9E74046FBF723FD90B13046FBF765
:10D280001FFD70B12A4641462046FBF71FFD40B105
:10D29000009720682B463246C76841462046B8476B
:10D2A000E2E71020E0E770B541EA4201DDE904560B
:10D2B0004FF0A04441EA830141EA052104EB8000DC
:10D2C00041EA0641C0F8001770BD70B541EA42015D
:10D2D000DDE904564FF0A04441EA830141EA05210B
:10D2E00004EB800041EA0641C0F8001770BD70B53C
:10D2F00041EA4201DDE904564FF0A04441EA8301CE
:10D3000041EA052104EB800041EA0641C0F800171C
:10D3100070BD1CB5002100910B4601220191FFF761
:10D32000E6FF1CBD1CB500220B460092114601927F
:10D33000FFF7DDFF1CBD1CB5002100910B4601224B
:10D3400001911146FFF7D3FF1CBD4FF0A04202EB45
:10D350008000D0F8002722F44032C0F80027D0F82F
:10D36000002742EA0141C0F8001770474FF0A04281
:10D3700002EB8000D0F8002722F44032C0F80027EA
:10D38000D0F8002742EA0141C0F800177047012297
:10D390004FF0A043824011B1C3F808257047C3F88D
:10D3A0000C25704718B5084B6C4601441B68009368
:10D3B00006E000BF54F82030D3F81035401C08C2F6
:10D3C0008142F7D818BD0000F0100200034908B5EB
:10D3D0000844002101600068009008BD0060004022
:10D3E00002494058012800D00020704700600040EA
:10D3F00030B5124B01460020D3F81044224609E014
:10D40000157A854205D1401C0A28F7DB4FF0FF3022
:10D4100030BD5268002AF3D1421CF9D00872D3F80B
:10D4200010242AB152684A60D3F81024516030BDEC
:10D430000022C3F810144A6030BD00009427002079
:10D44000F0B595B01C4615460F4608461A9E00F0EA
:10D450000BFB182109A8FBF7DAF80E96CDE9095461
:10D460000023082203A9384600F018FB059806900F
:10D470000498ADF81C0000208DF8200003980826C1
:10D4800000F00300012802D002281DD03CE00398E0
:10D490003346850AC0F3C2008DF81E0003980FA919
:10D4A000C0F380008DF81F000398C0F38314A2001E
:10D4B000384600F0F3FA09A8009006AB22460FA9FF
:10D4C000284600F02DFA1FE00398840DC0F3C20037
:10D4D0008DF81E000398C0F380008DF81F00082C03
:10D4E00001D2254600E0082533462A460FA93846D2
:10D4F00000F0D4FA2E44641B09AB06AA29460FA8F3
:10D5000000F05EF9002CEAD1384600F0B6FA15B00A
:10D51000F0BD7047012003F06BB9000010B504485E
:10D52000FFF76EFCBDE81040002003F061B9000079
:10D53000D81C002008B5034A00924023024AFFF796
:10D540007FFF08BDB9FD0100942600200A4A012989
:10D5500002EBC00007D0022907D0032907D0042915
:10D5600007D00020704702207047042070470079E0
:10D570007047407970470000C019020010B5FFF7EE
:10D58000C9FF04210348FFF733FF02490120487215
:10D5900010BD0000E01C00202DE9F04F8DB0FDF71C
:10D5A000DFF818B100200DB0BDE8F08F74480021FD
:10D5B000C0F81814BFF34F8FD0E9014604EA060102
:10D5C00000EB81014FF000090AE000BFC1F38912AE
:10D5D00002EB9151641C0C4404EA060100EB81014A
:10D5E000C9688A07F2D0002103AA804604EA06002F
:10D5F00008EB8000641CC06842F82100491C4346C7
:10D600000229F3D3039800F00300022806D0012872
:10D6100003984FD0C04380077ED0ACE003985022DF
:10D62000810D8A46B2EB905F00D850210D4665F31C
:10D630009F5003900831534800F0CDF907006CD09B
:10D6400000F012FA4B46082203A9384600F02CFAE3
:10D6500004EA0601701A8000001D09F1080B8542DA
:10D6600021D9474E0C3630B1C2B208EB8101281ADD
:10D6700091460C3104E03146EAB20026914630462C
:10D68000C5B25B46384600F00FFA0BEB09032EB12A
:10D690002A4631464FEA070000F006FA0AF1030075
:10D6A00004EB90043BE008EB81015B462A463846D8
:10D6B0000C31F1E7C0F38310062800D3062003994C
:10D6C00060F38911C1F38310801C039181002D4800
:10D6D00000F081F907004ED000F0C6F94B46082251
:10D6E00003A9384600F0E0F909F1080900250DE02A
:10D6F00004EA060008EB80014B46042238460C3150
:10D70000641C00F0D1F909F104096D1C0398C0F301
:10D710008310A842ECD801E00BE02CE05FB3D8F80E
:10D720001054D8F81804464690B1384600F0A5F9D0
:10D7300021E0D3F8180400283FF435AF1BE0687AE5
:10D74000012804D1296828460A68394690476D683F
:10D75000002DF4D1384600F090F900208DF800003B
:10D760006846FBF751FCD6F8180400B974609DF8C0
:10D770000000FBF76DFCFCF7F3FF80F0010012E7FF
:10D78000942700208412020000231A4602F0D4BE1F
:10D7900008B5012300926A4602F0CEFE08BD1CB512
:10D7A000CDE9002302236A4602F0C6FE1CBD3EB549
:10D7B000069C8DE81C0003236A4602F0BDFE3EBDB8
:10D7C0002DE9F0470E4680461C46924608293ED871
:10D7D00094F80C90002020731946104601F0ACFC20
:10D7E0000025B54206D218F805201AA12046FFF7F9
:10D7F0005BFB03E019A12046FFF756FB6D1C082DCB
:10D80000EFD317A12046FFF74FFB0025B54210D2FA
:10D8100018F80570FAF7DEFE0068C05D10F03E0FE4
:10D8200001D03A4600E02E220EA12046FFF73CFB35
:10D8300003E00DA12046FFF737FB6D1C082DE5D353
:10D8400001222146504601F059FC84F80C90BDE8B5
:10D85000F0870000202530327800000020202000D2
:10D860007C0000002563000020000000114810B576
:10D87000FF218160002101604160C0F81814C0F8E8
:10D88000141480F81C140C4800F0F5F800280FD18F
:10D890000A480B490B4B401AC108002005E000BFA5
:10D8A00000EB400223F82200401C8842F8D30020FD
:10D8B00010BD00009427002084120200101A0200FC
:10D8C000C0190200501D002002480349401AC00838
:10D8D00070470000101A0200C019020013B5684614
:10D8E000FEF752FE08B100201CBD0248009950F816
:10D8F00031001CBDC019020070B508480125D0F8E0
:10D90000104480F81C5405E065722168204649687F
:10D9100088476468002CF7D170BD00009427002070
:10D920002DE9FF4781460C9D00200C462F7B287374
:10D93000984616462946184601F0FEFB072E42D2AD
:10D94000DFE806F004090F161F2A3600494628466C
:10D95000FFF7AAFA37E0494628462268FFF7A4FAFB
:10D9600031E0D4E9002349462846FFF79DFA2AE032
:10D97000A0680090D4E9002349462846FFF794FAAE
:10D9800021E0D4E90201CDE90001D4E900234946B0
:10D990002846FFF789FA16E004F1080007C88DE869
:10D9A0000700D4E9002349462846FFF77DFA0AE03C
:10D9B00004F108000FC88DE80F00D4E900234946A0
:10D9C0002846FFF771FA00222946404601F096FBEF
:10D9D0002F73BDE8FF872DE9F041058A80462D1F92
:10D9E0004819C01CB0FBF5F0C6B24046FEF7D6FEA3
:10D9F000041E19D00020207101206071E5800027ED
:10DA00002546761EC4F800800BE04046FEF7C6FEB1
:10DA100060B16179491C6171286005467F1CC0F8BE
:10DA20000080B742F1D32046BDE8F081204600F0E7
:10DA300002F80020F8E72DE9F041457901466B1E18
:10DA4000002201E00968521C9A42FBD30F6801468C
:10DA5000002605E038460C68FEF7C2FE2146761C1B
:10DA6000AE42F7D3BDE8F08108B501216A46001D3A
:10DA7000FAF703FD08BDFEF7CBBE38B50446001D1E
:10DA800001216A46FAF706FD009810F0FF0F04D155
:10DA90002046BDE83840FFF7CEBF38BD38B5012479
:10DAA0000094FEF735FD38BD38B500240094FEF72C
:10DAB0002FFD38BD20B1034909680160002070477F
:10DAC0000E20704710130200FEB502460E460846AF
:10DAD000FFF7F0FF002868D100240094019401258D
:10DAE00003208DF80020ADF8040002948DF8025058
:10DAF00069462020326869DF2C4F48B100F0D2F926
:10DB00003988024605EB014329491846FFF740FED4
:10DB10000094019402948DF80050694640203268C8
:10DB200069DF40B100F0BEF902463888214905EBB3
:10DB30000040FFF72DFE0094019402948DF8004000
:10DB400069460120326869DF40B100F0ABF9024656
:10DB50003888194905EB0040FFF71AFE4FF4B06012
:10DB60000090019402946946A120326869DF40B1B7
:10DB700000F098F902463888104905EB0040FFF79D
:10DB800007FE0094019402948DF800406946A0209D
:10DB9000326869DF40B100F085F9024638880849EB
:10DBA00005EB0040FFF7F4FD0020FEBDB01D002096
:10DBB000B0180200F8180200101802005C180200E9
:10DBC000BC1702002DE9F0410446D0F800E060DF08
:10DBD0002368144D0646734515D02888022707EBA5
:10DBE0000040724610A1FFF7DAFDF806D0F80C01EC
:10DBF0002168800200F10050421A288816A107EB24
:10DC00000040FFF7C5FD56B1304600F04BF9024623
:10DC10002888012101EB004018A1FFF7B9FD30462B
:10DC2000BDE8F081B01D002052414D207374617237
:10DC3000747320617420307825782C2063616E2005
:10DC400062652061646A757374656420746F203046
:10DC50007825782E0000000052414D2073697A65C6
:10DC60002063616E2062652061646A757374656407
:10DC700020746F20307825782E00000073645F6276
:10DC80006C655F656E61626C6528292072657475CC
:10DC9000726E65642025732E0000000030B58FB0D1
:10DCA0005FF02C05ADF838500EA903A861DF30B144
:10DCB000052816D00FB0BDE83040FBF709B903AC1A
:10DCC0000949684600F0AAF807E000BFD0E9002142
:10DCD00020469047684600F0B8F802980028E1D046
:10DCE000F4E70FB030BD00001413020010B50D4C66
:10DCF0002078A0B10120A07001F0ECFD11280CD01B
:10DD0000022001F0FFFD11DF002807D12070A07074
:10DD100002F0CEFB032001F0F5FD002010BD08202D
:10DD200010BD0000341D002038B5174C207808B114
:10DD3000082038BD0125A570002001F0CBFD112879
:10DD400020D0002001F0DEFD10481149006800904D
:10DD5000684610DF0028ECD12570A07060700721A4
:10DD6000162001F06BFD08B1FBF7B2F80721152072
:10DD700001F064FD08B1FBF7ABF802F0B5FB012040
:10DD800001F0C0FD002038BD341D0020A8120200A3
:10DD9000598E01000EB50749684600F03FF805E0CE
:10DDA000D0E900108847684600F04FF80298002834
:10DDB000F6D10EBDC4120200014800787047000081
:10DDC000341D00200548817819B1007818B1FFF79B
:10DDD0008DBF08207047FFF7A7BF0000341D00204B
:10DDE0001FB5684648DF30B1052814D004B0BDE83F
:10DDF0001040FBF76DB8084901A800F00FF806E0E5
:10DE0000D0E900210098904701A800F01EF803987F
:10DE10000028E6D0F4E71FBD301302000160096856
:10DE20004160AFF3008010B5D0E9002153689942FA
:10DE300001D1002104E0D1E90034A34202D0194607
:10DE4000816010BD08314160F0E7816800290BD086
:10DE5000026892680A44826041684B689A4203D122
:10DE600008314160FFF7DFBF704700000C4A10B572
:10DE700002F1F0030EE0991AC91001EBD1714910BB
:10DE800002EBC1010C68844201D90B4602E005D2C5
:10DE900001F108029A42EED3002010BD486810BD7F
:10DEA0006811020000B5FFF7E1FF002800D101482A
:10DEB00000BD0000541102004058002800D001208D
:10DEC000704708B5002242504058009008BD00003D
:10DED00010B590B1032814D10A480321008801EB42
:10DEE000004009A1FFF750FC0220FCF7BDFA002812
:10DEF00007D0BDE81040FAF7EBBFBDE8104002F0D4
:10DF0000C1B810BD981D002046617374206164760D
:10DF10006572746973696E672E00000000780028CE
:10DF200007D104483B21008876DF002801D0FAF7AA
:10DF3000CFBF7047801B00207CB506468D88C888FF
:10DF400005EB450106EB4104A41D172800D217205C
:10DF50002188814200D808466080002020712188F5
:10DF60002846ADDF020007D00E480121008801EBF2
:10DF700000400D49FFF70CFC6079002810D1F068D3
:10DF800000280DD00949D1E90201CDE90001ADF821
:10DF900002506088ADF80400F26869463046904748
:10DFA0007CBD0000501D002008140200501002002B
:10DFB00048B1064A0168914205D1406804494018B9
:10DFC00002D0012800D0032070470000DEC0ADDE83
:10DFD00002FEE10E0389CA1C1A4402814289511AC9
:10DFE000C91E4181704700002DE9F0410D46022114
:10DFF000904600F58056298000F10804144F1BE07C
:10E0000031462046FDF76CFC40B1B8F1000F02D05C
:10E01000012288F80020022816D004E0A06879695F
:10E02000884200D97861288861880844C01C28800B
:10E03000608804EB80040C3431462046FDF763FC15
:10E040000028DDD1BDE8F0814FF480602880F9E739
:10E050009C1C002008B50021009101460823024ABB
:10E060000248FFF7EDF808BD0C1102003C1D00202E
:10E0700008B50020009004480823044A01680448B9
:10E08000FFF7DEF808BD0000C41C002004110200E8
:10E090003C1D00202DE9F05F0025DFF80891DFF836
:10E0A00008B12C464FF00308AA462F46D9F80C00B9
:10E0B00000EB07363046FFF77BFF78B3012847D0E7
:10E0C000032862D100204FF4806200BF56F8201070
:10E0D000491C0ED004EB84010BEB8102A8F1010076
:10E0E000566003221FFA80F80BF82120641CA4B2AA
:10E0F0004BE0401C9042E9D32C48016879B104EB15
:10E10000840102200BF821000BEB81014E60088195
:10E11000254828304480641CA4B205E007E00221B1
:10E12000066081804FF0010A45F001052DE004EB07
:10E13000840100220BF821200BEB810101F1100278
:10E140004E6030460831FFF74FFF45F00205CDE73E
:10E15000BAF1000F0CD0022004EB8401134A0BF833
:10E1600021000BEB810112684A60641C0881A4B293
:10E170000E480022011D06603046FFF735FF0B48B0
:10E18000808802280CD0082005437F1CBFB2032FD3
:10E190008CD3B8F1020F00D20025E8B2BDE8F09FA1
:10E1A0000420F1E73C1D00209C250020C41C002019
:10E1B00001494978FBF7CCBC0C1C0020F0B591B0AC
:10E1C0000746FBF7B7FC002815D06846FBF778FC3C
:10E1D00000246D460CE000BF05EB44063946B088CC
:10E1E000FBF7B6FC18B1B088002102F03BF9641CC3
:10E1F0000098A042F0D811B0F0BD30B585B00C4603
:10E2000005218DF800101546ADF80200FDF7E6FC7B
:10E21000ADF804006846CDE90245FCF7E5FD05B020
:10E2200030BD000070B5054D06460024304655F857
:10E2300024108847641C042CF8D370BD78100200A9
:10E240003EB50F4D002400BF05EB041002F05CFD4D
:10E25000641C022CF8D30124502002210094CDE943
:10E2600001100749074BB039A02201F1A00000F0CE
:10E2700031FC08B103203EBD0248447000203EBD81
:10E2800088220020F41B002000F08EB900F08EB927
:10E2900070B504460025C168194A284602EB0013F0
:10E2A0009B688B4202D102EB001003E0401C022865
:10E2B000F4DB00202178082904D0092908D013298B
:10E2C00015D113E0617A91B988B102F02DFD0EE00D
:10E2D000617A61B958B10B494A68521C4A60002101
:10E2E0008160817B41F00201817303E001252046BA
:10E2F000FFF798FF2846BDE8704001F041B80000E4
:10E3000088220020F41B002000F005BA08B513880D
:10E310009B0000936B4600F07FF908BD002300F0DE
:10E320007BB938B505460024204609E081782846A7
:10E3300000F0A0F810B1052800D003240098401C7C
:10E3400000906946284602F0CBFC0028EED134B993
:10E35000284600F0E4F910B1072802D00324204633
:10E3600038BD0724FBE71346002200F089B90000FE
:10E370002DE9F0475FEA030815460E46824604D0B1
:10E38000072E05D0082E17D102E00E20BDE8F08739
:10E3900095B1022D10D8504600F0CCF960B14FF085
:10E3A00000093146504602F081FC041E15D0207B46
:10E3B000A8421DD24F460AE04FF00700E6E7607B17
:10E3C0003844C1B22A4800F0B9FB7F1CFFB2207B61
:10E3D000B842F4D8204602F097FC5746FF214FF68A
:10E3E000FF7002F063FC041E14D00780A6700DE0DD
:10E3F0000CD9EFB207E0607B3844C1B21C4800F092
:10E400009DFB7F1CFFB2207BB842F4D8607BFF28C5
:10E4100002D00AE01120B9E72946154800F02CFB8C
:10E420006073FF2813D04FF001092573617B1048FA
:10E4300000F070FB02000ED0ABB23146404600F057
:10E440000FFAB9F1000F11D0082E06D00EE02046C9
:10E4500002F05AFCDEE7032098E7B8F800006FF0FE
:10E46000050101EB8000D8F80410888000208DE7BA
:10E470007822002070B5002402F018FC05000BD0B3
:10E48000686820B100F06FF9040000D0032428462A
:10E4900002F04AFC204670BD052070BD70B51546DF
:10E4A0000C46072903D0082C01D0072070BD02F0CC
:10E4B000FDFB28B105808470BDE8704002F0A8BB68
:10E4C000052070BD7CB50D46072903D0082D01D06D
:10E4D00007207CBD002602F0E9FB040002D0606842
:10E4E00010B11CE005207CBD617B0F4800F012FBE1
:10E4F00002004FF00000009001908DF8025010D003
:10E50000237B2946684600F03DF9684602F06EFB21
:10E51000211D684600F010F90646092801D0304652
:10E520007CBD03207CBD0000782200204FF6FF71E7
:10E5300041800149096808476010020030B587B082
:10E540001748FCF7E5FD10B1032007B030BDFCF71C
:10E55000FDFC08B18620F8E700F0D4F90020029015
:10E560004CF2070403900EE0694604A8FCF79AFDFC
:10E5700000988088A0F5404085B204A8FCF752FDC1
:10E58000284600F07BF902AA04A92046FCF771FD99
:10E590000028E9D00349012008700020D5E70000D9
:10E5A000F5AD0100E81B002000F08EB900F092B933
:10E5B00070B586B014460E46054600F041F940B1EC
:10E5C00005F5404080B20F4A6946FCF752FD40B95C
:10E5D00002E0012006B070BD03A96846FCF762FDA9
:10E5E00008B10020F6E7A5700398408820800498C1
:10E5F000606003988088A0F5404030806846FCF752
:10E6000011FDE6E7EC1B002002480021416081601B
:10E6100070470000E81B0020F0B587B01D46144687
:10E6200007460E46FF280AD8084600F009F930B11F
:10E6300003AA3146384600F0EBF840B902E0072063
:10E6400007B0F0BD01A903A8FCF72CFD08B1052017
:10E65000F6E7A67001984088208045B182002868BE
:10E6600090420BD302996068F9F7B8FF01E0029875
:10E67000606003A8FCF7D6FC0020E1E70420DFE798
:10E680007FB586B01E460D460446FF282AD8A878D6
:10E6900000F0D6F830B304F54040ADF80000A8789B
:10E6A00003AA00F54040ADF8020068680190288890
:10E6B0000290A978204600F0ABF80528089813D0FE
:10E6C00010B108A8FCF754FD694603A8FCF70EFD3D
:10E6D000B0B107281DD0082819D00E2817D0032064
:10E6E0000AB070BD0720FBE728B108AA694603A855
:10E6F000FCF707FDECE7694603A8FCF7FEFCE7E73B
:10E700001EB1314603A8FCF7C4FC0020E8E7112045
:10E71000E6E78620E4E74FF6FF7000F0AFB810B5EB
:10E72000FF2801D9072010BD00F0AEF800F02EF848
:10E73000002010BD00F0FAB870B504460D46807890
:10E7400000F07EF858B121882846FCF7F9FC002833
:10E7500004D0072805D0092800D0032070BD072069
:10E7600070BD862070BD01B56846FCF701FD00282C
:10E7700000D0032008BD00000149C978FBF7E8B9C3
:10E780000C1C00209BB200F06BB80000F0B58BB001
:10E7900000264FF6FF7701963846029603E02046A2
:10E7A00000F084F8204600F08FF80446B84208D004
:10E7B00004F5404080B201AA03A9FCF762FC0A28D4
:10E7C000EDD0114DA878002819D1BC4217D00127EF
:10E7D00004F54040AF7080B2FCF778FB082810D0F9
:10E7E00000280CD0AE7005461422084906A8F9F797
:10E7F000F5FEADF81C4006A80895FFF797FE0BB094
:10E80000F0BD6F70FBE70000E81B00206410020001
:10E810007CB5054616460C46084600F011F8002067
:10E82000009005F54045019004F54044A8B2A1B21E
:10E830006B463246FCF716FC002800D005207CBD54
:10E8400007280BD0012809D0082807D0052805D0B3
:10E85000062803D0042801D000207047012070470B
:10E8600010B503EB83034FF6FF7404EA03138170C2
:10E87000DB1C99084260018010BD00000149FCF7D3
:10E8800007B80000A822002010B50446A0F57F407C
:10E89000FF3807D004492046FBF7FAFFA04201D118
:10E8A000012010BD002010BDC822002010B5044674
:10E8B000044900F077FE03492046BDE810402031AE
:10E8C00000F070BEA82200200149FDF7FBBE000049
:10E8D000C822002070B50A49FDF7F4FE04464FF641
:10E8E000FF7507E000F02CF838B105492046FDF728
:10E8F000E9FE0446AC42F5D170BD204670BD000073
:10E90000A822002010B508484021F9F780FE4FF4F6
:10E9100080742146044800F029FA21460248BDE8E7
:10E920001040203000F022BAA8220020FF2803D88F
:10E930000146024800F049BA00207047A822002092
:10E94000FF2803D80146024800F03FBA0020704774
:10E95000C822002010B50C46FCF78EFEFF2804D01C
:10E96000024900EB400021F8204010BDD8200020D3
:10E970002DE9F04196B00746FBF7DCF8002836D0C9
:10E980006846FBF79DF800242D4D54E0684600EBE7
:10E990004400394686883046FBF7DAF898B3E878C1
:10E9A000874203D13046FDF7E7FB43E0A878874272
:10E9B00035D123480021401C00F0DFF918B34FF097
:10E9C00000083046FCF713FF01000CD0112911D0CC
:10E9D000862919D0A1F54050023802D0304601F006
:10E9E0004FF9414607E041463046FDF7F9FB16B0C6
:10E9F000BDE8F08101213046FDF7F2FB104800210F
:10EA0000401C00F0EEF915E014220E4911A8F9F7A8
:10EA1000E5FDADF8466011A8FCF7B4F9E1E7287907
:10EA2000874207D169793046FBF792F810B9304632
:10EA300001F0F8F9641C0098A042A7D8D7E70000BD
:10EA4000D01B0020F40F02000449084490F9300064
:10EA5000082801DB01207047002070474823002070
:10EA60000449084490F93000082801D20120704779
:10EA700000207047482300202DE9F0410F46060092
:10EA800026D0306820B3706810B3FF2400251CE046
:10EA90002946706800F071F948B1FF2C00D12C466E
:10EAA000281B401CB8420ED12046BDE8F081FF2C47
:10EAB00006D108E02146304600F040F8641CE4B27C
:10EAC000AC42F7D3FF246D1CEDB2B068A842DFD88A
:10EAD000FF20EAE72DE9F0410400DDE90705069E85
:10EAE00016D0A9B1A3B100FB05F7974210D8C21DFB
:10EAF000B6EBD20F0CD358B155B1E5602160C4E933
:10EB0000013081B2184600F031F90020BDE8F081F3
:10EB10000720FBE770B504000D460DD0206858B102
:10EB2000606848B1FF2D07D000F04FF920B1E168CF
:10EB3000206805FB010070BD002070BD70B50400A9
:10EB40000D4611D0206800280ED0606800280BD038
:10EB5000FF2D09D000F039F9002805D0294660685A
:10EB6000BDE8704000F03DB970BD002901D001F052
:10EB7000A9BA7047034B1B780BB101F0EBBA082020
:10EB800070470000FC1B00207CB504460178002083
:10EB9000354D032610291ED2DFE801F0081D101D97
:10EBA0001E244D641D621D6459641D5E28882FA1BA
:10EBB00006EB0040BDE87C40FEF7E6BD6088FAF752
:10EBC0008FFF0246207A00902888638806EB004079
:10EBD00031A1FEF7ECFD7CBD009060886946FFF72F
:10EBE000C4FF7CBD009001909DF80000694620F0B4
:10EBF0007E0040F00100303020F080008DF80000F1
:10EC000007208DF8010010208DF802009DF8030008
:10EC100040F003008DF803009DF8040040F003006D
:10EC20008DF804006088E268FFF7A4FF0028D8D0C0
:10EC3000FAF74EF97CBDFCF76BF90E28FAD00828DC
:10EC4000F8D00028F6D0BDE87C40FAF741B9BDE81D
:10EC50007C400020FAF762B8BDE87C4000F07CB848
:10EC60002069EEE7A068ECE7981D0020436F6E6E08
:10EC7000656374656420746F2061207072657669C5
:10EC80006F75736C7920626F6E646564206465765D
:10EC90006963652E00000000436F6E6E65637469E2
:10ECA0006F6E20736563757265643A20726F6C6570
:10ECB0003A2025642C20636F6E6E5F68616E646C11
:10ECC000653A20307825782C2070726F6365647502
:10ECD00072653A2025642E00FCF762B810B5044630
:10ECE000007828B90549608801220979FAF746FFBA
:10ECF0002046BDE81040FCF753B80000FC1B002084
:10ED000070B5FFF71BFC18BBFFF79AFA00BB01F0C8
:10ED1000DBF9E8B901F0EAFAD0B9FCF71FFCB8B9A1
:10ED2000FCF718FDA0B9FCF7C9FE88B9094C4FF6ED
:10ED3000FF700025E0801820A5602071FAF7E4FE3E
:10ED40002071182804D0657001202070002070BD4B
:10ED5000032070BDFC1B002003480078002801D070
:10ED6000FCF724BC70470000FC1B0020002803D0E7
:10ED7000C91DC908F9F74BBC7047002809D001F03C
:10ED8000070301229A40D2B200EBD1001146FDF7F1
:10ED90002FBA70472DE9F0410D46060013D000242C
:10EDA00001270EE004F0070007FA00F0C1B206EBFD
:10EDB000D400FDF71DFA10B12046BDE8F081641CB7
:10EDC000A4B2AC42EED32846F7E740B100EBD10045
:10EDD00001F00702007801219140084000D0012095
:10EDE0007047F8B50400C1F3C70501F007014FF003
:10EDF000010000FA01F0C6B20FD0605D30420CD0C5
:10EE000000208DF800006846FAF7FEF8605DB04318
:10EE100060559DF80000FAF71BF9F8BD2DE9F041A7
:10EE2000044686B001278088FCF716FE60802078B3
:10EE300000263F4D082808D0092820D04FF6FF783B
:10EE40000A2829D00B2853D158E0607A10B1012844
:10EE500009D04DE0A86830B1E168814203D1AE60CD
:10EE6000A088E88016E06878E8B3A088E98888423E
:10EE70003ED1207A06283BD100F066FA38E0607A6D
:10EE800088BBA86878B3E168814231D1AE60E86898
:10EE9000401EE860E6602BE0A878E8B14046FFF746
:10EEA000F5F94146404517D10846FFF7EDF94045D1
:10EEB00012D1AE7014216846F9F7A9FB0C208DF829
:10EEC0000000ADF80480ADF8028000272046FBF773
:10EED00067FF6846FBF764FF687838B1A088E98867
:10EEE000884203D100E003E000F02EFA002F1CD08E
:10EEF00006B02046BDE8F041FBF752BFA8780028D5
:10EF0000F6D0AE7014216846F9F781FB0D208DF81C
:10EF10000000ADF80480ADF80280A06802902046A1
:10EF2000FBF73EFF6846FBF73BFF06B0BDE8F0810C
:10EF3000FC1B00200349097809B1FCF73BBE0820FF
:10EF400070470000FC1B00202DE9FF4F2A4883B0CA
:10EF50009946007892468B46B8B14FF6FF76304618
:10EF6000FFF794F9804600200090244801AA06216A
:10EF700000680190CDF808D04046FFF7C7F900259A
:10EF80006C1E3746072804D017E0082007B0BDE8FC
:10EF9000F08F0520FAE700200090A84201D3054633
:10EFA0004746A04201D2044646464046FFF76EF966
:10EFB000804601AA0621FFF7A9F9D8B10528EAD0B1
:10EFC000A8F57F41FF3901D00320DFE70399002036
:10EFD00001B10F80BBF1000F01D0CBF80050BAF1A6
:10EFE000000F01D0AAF80060B9F1000FCED0C9F827
:10EFF0000040CBE70098D0E7FC1B002088100200FF
:10F0000070B5184E86B03078D0B10120B0704FF690
:10F01000FF742046FFF73AF90546A0421DD10020B3
:10F02000B07014216846F9F7F2FA0C208DF8000050
:10F03000ADF80440ADF802406846FBF7B1FE0EE0C3
:10F04000082006B070BD00BFFFF774FF08B10320B1
:10F05000F7E72846FFF71AF90546A542F4D1002044
:10F06000EFE70000FC1B0020084A117821B1D1789D
:10F07000032903D30420704708207047044B43F84A
:10F080002100491CD170002070470000FC1B0020AB
:10F09000E822002010B5040012D02078022808D100
:10F0A000207A01280AD00022064960880979FAF7F7
:10F0B00065FD2046BDE81040FBF772BE0122F3E774
:10F0C00010BD0000FC1B002070B50D00044602D1ED
:10F0D0000020F9F7FDFE14B90020F9F7F9FE2878B1
:10F0E000207069886170090AA170A988E170090A15
:10F0F0002171E8886071000AA07170BD10B50C46DE
:10F10000C17949B11AB109A12046FDF7CDFE2046CB
:10F11000BDE81040FDF7D5BE007A0028F3D00448C2
:10F1200004A102682046FDF7BFFEECE70D0A0000CF
:10F13000101D00202573000070B50446C0790D46EF
:10F1400000281CD1207A50B1A179A088FEF7FEF9E1
:10F150000B4951F820200BA12846FDF7A5FEA088F9
:10F160000021FEF7BBFB03460549A079143951F88D
:10F1700020202846BDE8704003A1FDF795BE70BD74
:10F18000101D0020257300003C25733E2025733A96
:10F19000200000000146054810B50068FDF7C5FADB
:10F1A00004461C21F9F733FA204610BDFC1002007A
:10F1B000014602480068FDF7D9BA0000FC100200C1
:10F1C000F0B5274D274E87B004460027686828B958
:10F1D000234930680831FDF7BEFA686001460078BF
:10F1E000072817D2DFE800F0160408080E0E1200F8
:10F1F0002046FCF73DFD02E0204601F01FFE040022
:10F2000028D008E02046FBF755FCF8E72046FCF73D
:10F2100051F8F4E70F2414216846F9F7F8F9A4F53A
:10F22000E8501D3818D0019469466868FBF7FEFC69
:10F230006846FBF735FD0A496F6008313068FDF715
:10F240007FFA074801210C3005AAF9F723F8059841
:10F250000028BBD107B0F0BD00240197E4E700000F
:10F260009C1C0020FC1002002DE9F041214C0025DF
:10F27000214E207A012730B92048311D0068FDF762
:10F280006AFA306038B1022020723168087928B1FA
:10F2900001281ED116E06560BDE8F081D1E90503C3
:10F2A000C01A4FF48052904200D31046B7EB900F33
:10F2B00001D2820800E001220869C9681844194493
:10F2C00029DF03E0D1E90301084428DF38B1112820
:10F2D0000ED003213068FBF7F3FC2572DBE7207CBE
:10F2E0000028D9D1BDE8F04100210220FDF756BF2A
:10F2F0002772D1E770260020CC1C002024110200C8
:10F3000008B5064801216A46F8F7B7FF002803D17F
:10F31000BDE80840FFF754BF08BD0000A81C00204E
:10F3200038B5084C0121201D6A46F9F725F80090F0
:10F33000002806D1607C002803D1BDE83840FFF7E3
:10F3400093BF38BD70260020084910B500231A4627
:10F35000881FFFF7F9FD30B1052804D000200349CC
:10F360000C39487010BD0120F9E70000081C00208E
:10F3700010B510461A46F9F731F9002010BD00000B
:10F38000F0B50746164885B0406800281DD0154ED8
:10F39000002400BF06EB0415A87B810701D4384286
:10F3A00019D0284601F034FCA8B14FF6FF71ADF832
:10F3B00002102988ADF80410862808D007218DF89E
:10F3C000001002906846FEF72DFF05B0F0BD062044
:10F3D0008DF80000F6E7641C022CDBD3F5E7000093
:10F3E000F41B0020882200202DE9F04707461E4824
:10F3F0001C46154600780E4670B185B17CB1DFF829
:10F400006C804FF00009A08802282BD200EB80010D
:10F4100018F8210010BB19E00220BDE8F087052094
:10F42000FBE720681FB181883A8891420ED11EB156
:10F4300001883288914209D180682860206868601C
:10F440000A482830008928810020E6E7A088214664
:10F4500000F05EF80028E4D1C4F80090A088401CB9
:10F46000A080D0E70A20D8E7BC1C00209C25002003
:10F47000F8B505464068244F0C46002648B323499A
:10F48000CA68824225D80969814222D3FCF7E6FC8A
:10F49000F8B12889398988421BD1D5E900018A68E9
:10F4A000904216D10020A7F1280200BF00EB800394
:10F4B00002EB83035B688B4205D203F580538B42DA
:10F4C00001D9208011E0401C80B20228EED3002038
:10F4D000F8BD268000960AE0009829688068884276
:10F4E00005D100986860388928810120F8BD2088FE
:10F4F000694600F00DF80028EED12088401C80B24B
:10F5000020800228E6D3E2E7C42500203C1D00202D
:10F5100070B50E4600EB8001134800EB8100446893
:10F52000306804F5805518B1418800EB810411E082
:10F53000083410E029462046FCF7D2F920B1012812
:10F5400005D0022807D10DE00120346070BD60882D
:10F5500004EB80040C3429462046FCF7D4F900283B
:10F56000E8D170BD002070BD9C25002038B50C4648
:10F570000021009101460423074A0848FDF760FE78
:10F5800008B10E2038BD064A04EB840102EB81016C
:10F5900001200874002038BD001102003C1D00202D
:10F5A0009C2500200A46FF2803D801461046FFF795
:10F5B00018BC70470846704770B590B00E460546B7
:10F5C0001C216846F9F723F800249DF800000394F5
:10F5D00040F002008DF8000001208DF83600019403
:10F5E00042F65420049405940694ADF834000C942B
:10F5F000F0798DF83000307A8DF831009DF83200C6
:10F60000142120F00600801C20F019008DF8320033
:10F6100007A8F8F7FCFF70898DF83800000A8DF80C
:10F6200039000DA807900CA808900220ADF824001E
:10F63000ADF828000EA8ADF826400B90A88805F17B
:10F640000E0307AA6946A2DF10B070BD1FB50124E2
:10F650008DF8004000208DF801008DF80200174958
:10F66000174800F09CFBADF8040014491448103111
:10F67000083000F094FB8DF8060010491048203146
:10F68000103000F08CFBADF80800BDF80400B0F5B8
:10F69000407F01D98DF8024069460A48FAF732FDE9
:10F6A000002809D0082807D0132805D043F20141CB
:10F6B000884201D0F9F70CFC1FBD0000341F002068
:10F6C0008C1B0020201E002070B594B0002406463C
:10F6D00007949DF81C000D4620F00F00401C20F000
:10F6E000F00010308DF81C0008798DF81D009DF891
:10F6F0001E001C2120F00600801C8DF81E006846AC
:10F70000F8F785FF9DF80000019440F010008DF897
:10F71000000007A8CDE9044001208DF84E000394B5
:10F7200042F653200694ADF84C000D9468798DF89C
:10F730003400A8798DF835009DF83600142120F0AA
:10F740000600801C20F0180040F001008DF8360003
:10F7500008A8F8F75CFF13A808900DA809900EAA56
:10F7600005F10C01304600F010F8ADF82800142027
:10F77000ADF82C000EA8ADF82A400C90B088B31D4F
:10F7800008AA6946A2DF14B070BDF0B58C88547029
:10F79000240A064694708879D070347E00230420B1
:10F7A000E40707D00C782CB10C891471240A0123CA
:10F7B00054710620347EA4070DD54C785CB1151821
:10F7C000CC682C70270A6F70270C240EAF7043F0A2
:10F7D0000203EC70001D347E640703D5897809B1FB
:10F7E00043F004031370F0BD70B5012670044FF0B0
:10F7F000E0210025C1F88001084C4010C4F84803FE
:10F80000C4F8080366602F20FDF7BEF8A660044C1C
:10F810002F20A560FDF7B8F8A57070BD001001405D
:10F82000881C00201FB501238DF800308DF80810CA
:10F830000192D0E90012684690471FBD70B50D4691
:10F840000446F9F70DFA70B12846F9F71BFA68B1CA
:10F850006807000E002C0CDA04F00F0101F1E02122
:10F8600081F8140D09E042F2010070BD42F202007D
:10F8700070BD04F1E02484F80004002070BD000095
:10F8800038B50021012558B101280ED003280BD12D
:10F8900007210020FDF7F8F8BDE83840FDF7DEB895
:10F8A0004FF0E020C0F8805138BD8DF80010684658
:10F8B000F9F7AAFB064C207808B9FDF7ABF8E06829
:10F8C000401CE060A5709DF80000F9F7C1FB38BD51
:10F8D000342300203EB5044609496846FEF79EFAE7
:10F8E00008E000BFD0E900212046904730B16846CB
:10F8F000FEF7ABFA02980028F4D13EBD11203EBDC0
:10F90000AC1202003EB5044608496846FEF786FA86
:10F9100007E000BFD0E90021204690476846FEF787
:10F9200094FA02980028F5D13EBD0000B8120200FA
:10F9300070B50028049D18D0002916D0002A14D0D4
:10F940005FF0000430F814609E420FD100200123C4
:10F95000A34008E001EB800426680DB11E4300E0DF
:10F960009E43401C26609042F4D370BD641C202C42
:10F97000E8D370BD70B5054600242146284600F046
:10F980000AF808B1204670BD641CA4B2202CF4D340
:10F990004FF6FF7070BD01228A40024201D0012063
:10F9A00070470020704730B40B4660B1002130F83A
:10F9B0001140944204D130BC89B21846FFF7EBBF26
:10F9C000491C2029F3D330BC002070472DE9F041B9
:10F9D00092B080464FF0000017460D00009012D004
:10F9E00000246E46A1B23846FFF7D5FF40B100991A
:10F9F00035F8140006EB410188800098401C009007
:10FA0000641C202CEED3442269464046F8F7E6FDFC
:10FA100012B0BDE8F08108B5009313460122FFF74C
:10FA200087FF08BD2DE9FC4104460C3000278046C5
:10FA3000FCF7E4F84FF6FF750646A842208803D18C
:10FA4000FCF7CCF8064602E03146FCF7B1F8208816
:10FA50000022012100F0C6F8AE4212D06A4607210A
:10FA60003046FEF75BFC60B9019D95F844003435E3
:10FA7000C00705D1414605F11200FCF784F800B13A
:10FA80002F46002320881A46394686DF05000BD012
:10FA9000002320881A46314600F088F8208829463D
:10FAA00000F002F9BDE8FC81002FFBD10023208883
:10FAB0001A46314600F07AF82088002241F2060109
:10FAC000FBF788F8EEE700002DE9FC411D46089C95
:10FAD00016460F46804644B16B4601220721384640
:10FAE000FEF746FC112801D010B10320BDE8FC81CF
:10FAF00050210198F8F78BFD019806700198E56098
:10FB0000343020600198183020610198401C6061F9
:10FB10000748E061019940461131FBF721FF0028B9
:10FB2000E3D107213846FEF7CDFC0528DDD0DDE71F
:10FB3000F4220020002835D00278910701D4110664
:10FB40002FD4C2F3021104292BD8930703D503291C
:10FB500001D1110625D5437881788B4221D8072B16
:10FB60001FD310291DD8C1784B071AD40079430739
:10FB700017D40B0715D4030713D4D2074FEAC17269
:10FB800001D042B10FE062B989070AD4C10708D198
:10FB9000800706D407E0890705D4C10703D1800791
:10FBA00001D40020704701207047000070B50C465A
:10FBB00005466AB1002B12D009480122C1782846B7
:10FBC000F9F7DCFF21462846BDE87040FBF7F0BF9F
:10FBD000002B04D0BDE870400846FBF7EBBF70BDBA
:10FBE0000C1C0020F0B5174D14460F460A4685B090
:10FBF00006462978F9F7C2FF002F1FD00CB1012269
:10FC000000E0002269783046F9F7B8FF012C17D0E0
:10FC10000022A9783046F9F7B1FF0022E978304692
:10FC2000F9F7ACFF142208496846F8F7D7FCADF89D
:10FC300002608DF808406846FBF7C8F805B0F0BDD3
:10FC40000122E6E70C1C00209C10020010B586B0D3
:10FC5000044614216846F8F7DAFC04208DF8000009
:10FC6000ADF802406846FBF7B1F806B010BD0000E1
:10FC700002498969002900D0084770470420002004
:10FC800030B585B00C460546142206496846F8F79B
:10FC9000A5FCADF8025068460294FBF773F805B076
:10FCA00030BD0000E00F020030B585B00C460546BF
:10FCB000142206496846F8F791FCADF802506846F0
:10FCC0000294FBF783F805B030BD0000B0100200CD
:10FCD00070B51D485121016064214160012181609E
:10FCE00001730146194800F04FF817488021103081
:10FCF000002401604FF4D06141604FF4C071816015
:10FD0000047301461148083000F03EF80E482821DF
:10FD1000203014250160A021C0E9011504730146BB
:10FD20000A48103000F030F807487D213030C0E933
:10FD300000510521816004730146BDE8704003480D
:10FD4000183000F021B80000241F0020841B002080
:10FD500010B503680A6889689C1A8C4202D9591A3E
:10FD6000016010BD01210260017110BD10B54B682A
:10FD7000026889689C1A8C4202D91144016010BD46
:10FD800000210360017110BD0A7B1AB1496801604E
:10FD9000002102E00968016001210171704710B57E
:10FDA000044600790028204602D0FFF7DFFF01E07B
:10FDB000FFF7CEFF206810BD10B5084C0020D2B26E
:10FDC0002070201DFCF7BCFF08B1F9F781F86078BE
:10FDD000002802D021780029FAD010BDD41C0020C0
:10FDE0007CB50E490E4C0022D1E90001CDE900019D
:10FDF0006946A088FEF7B7FA4FF6FF7507E0084698
:10FE0000FEF744FAA08000226946FEF7ACFAA1880A
:10FE1000A94201D01128F2D17CBD000034100200AB
:10FE2000DC1B002070B586B0064601250024FBF7D8
:10FE30003BFD112812D005DCF0B1062828D0082897
:10FE400008D125E0A0F54051023907D0A1F5407155
:10FE5000FF3924D001463046FFF712FF2A46124DE3
:10FE600030462979F9F78AFE697906B0224630468C
:10FE7000BDE87040F9F782BE14220C496846F8F7D5
:10FE8000ADFBADF8026001246846FAF77BFFE5E7B9
:10FE900000253046FBF7A2FEFBF74EFCDEE73046BE
:10FEA000FCF76AF9DAE70000D01B00200810020016
:10FEB0002DE9F0410746806A14468846C8B30025FC
:10FEC00031E000BFB96A05EB450001EB8006B08860
:10FED000801CFE2802D90C20BDE8F0812288401C3D
:10FEE00008F8020020881622401C80B2208008F802
:10FEF00000202088401C80B2208000EB0801308860
:10FF000000F01AFD2188084480B22080B28842B1F6
:10FF1000B16871B14044F8F761FB2088B1880844AA
:10FF200020806D1CEDB297F82C00A842CAD80020A2
:10FF3000D2E7FFE70720CFE730B59DB01C21684628
:10FF4000F8F765FB0520ADF80A009DF804000024D1
:10FF500020F00F00401C20F0F00010308DF804005D
:10FF60009DF80500012520F0FF008DF805009DF8A3
:10FF700006008DF80C5020F0FF008DF806009DF86B
:10FF80000700009420F00F00401C20F0F00010301B
:10FF90008DF807009DF808008DF80D4020F0FF0057
:10FFA0008DF808008DF80E40ADF8144069462F48D2
:10FFB000FAF782F808B1F8F78BFF142107A8F8F7D1
:10FFC00026FB9DF82900079420F00F00401C20F02C
:10FFD000F00010308DF829009DF82A008DF820508F
:10FFE00020F00F00401C20F0F00010308DF82A00A7
:10FFF0009DF82B00099420F0FF008DF82B009DF850
:020000040002F8
:100000002C0007A920F00F00401C20F0F000103059
:100010008DF82C0064208DF8280014481838F9F762
:10002000C9FC08B1F8F754FF40210CA8F8F7EFFA23
:100030000FA10CA8FAF7C4F89DF86C0020F00F008F
:10004000401C20F0F00010308DF86C009DF86D0021
:1000500020F0FF008DF86D000CA8F9F7D7FD0028FF
:1000600001D0F8F735FF1DB030BD0000201E002084
:100070004E6F7264696353656D69636F6E64756317
:10008000746F720010B50020FAF7EEF908B1F8F7B6
:100090001FFFFAF747F908B1F8F71AFF32DF002817
:1000A00003D0BDE81040F8F713BF10BD10B500F045
:1000B0009BF803484078BDE81040FBF7B3BF000051
:1000C000141C002000F00AB910B51148FBF787F89E
:1000D0000F48401CFBF783F80D48801CFBF77FF8A6
:1000E0000B48C01CFBF77BF80948001DFBF777F8AD
:1000F0000748401DFBF773F80548401E8179182911
:1001000003D00121C171002010BD032010BD0000EB
:10011000151C002010B500780D4C0A280FD004DC07
:1001200008280CD0092812D109E00B2807D0132881
:100130000DD1A079FEF742F8A078FBF773FF607944
:10014000FEF73CF86078BDE81040FBF76BBF10BDD0
:10015000141C002070B50D467AB114467DB10846D6
:10016000FFF7E8FC68B12868606028792072201DDC
:10017000206001206072002070BD0E2070BD002044
:10018000F6E7072070BD000010B50446007805288A
:1001900002D0122821D105E06088A168BDE8104096
:1001A00000F060B90F480021806880B10D48237AC3
:1001B0001030007800F0010203B101239A4206D307
:1001C000627AC0F3400002B10122904200D20121C4
:1001D000608801230022FBF785FE2046BDE8104021
:1001E000FAF702BE141C002030B50446008885B022
:1001F00014284FD00ADC11282CD0132828D134F829
:10020000040FF9F76DFC01282FD038E0192847D0EA
:100210001A281DD1A088FDF7CBFF002818D1A0888F
:10022000F9F756FC0028A0884BD02A49002209780B
:10023000F9F7A4FC02208DF80000A088ADF80200B8
:1002400000208DF808008DF809006846FAF7BEFD19
:1002500005B030BD207A3D2804D04FF48851A088E5
:10026000002224E041F23D01F9E72079C00701D0E6
:10027000012200E0022220880121FFF7B3FC34F8BC
:10028000045B142214496846F8F7A8F9ADF8025047
:100290000294DAE705B0201DBDE83040FFF7C2BB8D
:1002A000217A201D41B14279008802F0030205B095
:1002B000BDE83040FBF770BE05B0BDE83040F8F750
:1002C00025BF05B00122BDE8304041F20601FAF732
:1002D00081BC00000C1C0020D81002000A780249E2
:1002E0000979F9F74BBC00000C1C002010B514482C
:1002F000FAF76CFF1248401CFAF768FF1048801CA0
:10030000FAF764FF0E48C01CFAF760FF0C48001DA6
:10031000FAF75CFF0A48017818290FD041781829AC
:100320000CD08178182909D0C178182906D0017914
:10033000182903D001214171002010BD032010BDF8
:100340000C1C002070B50C460546F9F7C9FB0128C6
:1003500002D043F2020070BD21004FF00000FAD03D
:1003600028467EDF70BD00002DE9F74F8AB0924627
:1003700088460A98F9F7B4FB06464FF6FF79002441
:100380004D4627460A98FEF7F7F98346202101A833
:10039000F8F73DF9012E01D0DEB105E02F4800222B
:1003A00001790A98F9F7EAFBB8F1000F16D098F82E
:1003B0000000C00714D00A98FBF710FC054648451A
:1003C00016D1FDF7A1FF054648450ED04FF0010BB1
:1003D0000CE043F202000DB0BDE8F08F852721E06C
:1003E0001F48CDF810A008901CE003246CB121E058
:1003F000012E0AD10A98F8F7DFFC30B90A98FFF706
:1004000025FC0A98F8F7D8FC50B101A80090534693
:10041000324629460A98FFF757FB040002D009E04C
:10042000852712E0012E10D001AB002239460A9830
:100430007FDF044654EA07000DD000225B462946C0
:100440000A98FFF7B3FB2046C5E701AB42463946A1
:100450000A987FDFEDE70122F0E700000C1C002086
:10046000F42200203EB505460C466846FCF720F90C
:100470006A4621462846FDF7C0FE09480099C26831
:100480002846FFF771FF0446014601222846FAF785
:10049000AFFE21462846009AFAF739FC3EBD00001F
:1004A000141C0020002801D1FAF70EBA7047000092
:1004B00010B51620F8F7D4FB48B10A4882684FF40B
:1004C000800152B1016821F48001016010BDBDE8D6
:1004D000104042F20100F8F7FBBC4FF0E020C0F8FA
:1004E000801110BDE824002010B51620F8F7B8FBE5
:1004F00080B10F4890F800044009F8F7C3FB60B1E1
:100500000C4882684FF480016AB1016841F48001AF
:10051000016010BD42F2010001E042F20200BDE8BC
:100520001040F8F7D5BC4FF0E020C0F8001110BD26
:1005300016E000E0E82400202DE9F843214C88462D
:10054000054691461F4669461846A668FAF7C6F85A
:1005500070B30098811C00220AE000BF01EA060C7B
:1005600059F8223004EB8C0C491C521CCCF80C308E
:10057000BA42F3D30246401C304004EB80002B0CFF
:10058000C36002EA060004EB8002E80652F80C0F92
:1005900002D540F0040001E020F0040065F3C5003E
:1005A00067F3891068F39F2020F00300401C10605F
:1005B00094F81C0402E000BFFCF7EEFF0028FBD11A
:1005C000BDE8F8839427002070B50C00054602D1E1
:1005D0000020F8F77DFC15B90020F8F779FC2078A9
:1005E00028702088000A68702068000CA8702068B5
:1005F000000EE87020792871207A68712089000A3D
:10060000A871A068000CE87170BD00002DE9F84FDA
:100610001D4C00256846D4E901A6FAF7BBFA00276D
:1006200038B30023009A61681CE0D1F800C0084686
:10063000944503D9ACEB02020A6015E0A2EB0C0270
:1006400063440760D0F80CC0C1698146BCF1000F5B
:1006500008D006EB030828F07F48C0E9018CC9F8F0
:100660001C5005460029E0D128466160FBF708FDD3
:1006700003E02846FBF704FD10B15046FAF738F9BD
:10068000E770BDE8F88F0000881C00200D4B10B506
:10069000596831B102680C68A24204D8A21A0A60F3
:1006A000C161586010BD0B4603E00B46C969121BBF
:1006B00021B10C689442F8D3A41A0C600260C161A5
:1006C000D86110BD881C00202DE9F041144E7768D8
:1006D0003D462C4603E0844204D02546E469002CC4
:1006E000F9D11BE0D4B1A5420BD1F869706040B9D3
:1006F0000C49012088600021B160F0702F20FCF7C8
:1007000043F92168E069E86110B1026811440160B1
:100710007068874202D00120BDE8F0810020FBE72D
:10072000881C0020001001407CB5064600240D46C0
:100730008DF800406846F8F767FC01A800F0ACF9B6
:1007400070B10570094946609DF8040048709DF835
:100750000000F8F77DFC1420F8F7A6F820467CBDD1
:1007600004249DF80000F8F773FCF7E7DC23002071
:100770002DE9F041194D6C68002C2CD01848002749
:100780000068A968B846401A20F07F462068B04249
:100790000CD82146361A0744E469087C20B181F858
:1007A0001080886949698847002CEFD129786878DA
:1007B000814206D1401CC0B26870022801D185F880
:1007C0000180064869780C3040F82170BDE8F0419E
:1007D0001420F8F769B8BDE8F0810000881C0020FB
:1007E000041501400149012008707047D41C002005
:1007F00010B588B0044620220E496846F7F7EEFE91
:1008000006200090C01F0190029003904FF0EB7003
:1008100006900CB1084A00E0002269460748FCF740
:1008200047FA08B1F8F754FB0448001F447008B0B9
:1008300010BD000064120200E5070200D81C002071
:100840002DE9FF410C464FF4927706463946FDF7F5
:1008500033FB0025C0B139463046FDF732FB02209C
:100860008DF80000D6F88004C6F880040390D6F80E
:100870003C058DF80800E0680190E5752576D4E91F
:1008800000126846904724E04FF488773946304696
:10089000FDF712FBE8B139463046FDF712FBD6F8FA
:1008A0003C05C1B2E07D884213D1207E60B1E26890
:1008B000D6F8000220F02000C6F80002207EE07585
:1008C0002069E060257601E0E575E2682046FEF7E4
:1008D000A9FF4FF4A27739463046FDF7EDFA68B12B
:1008E00039463046FDF7EDFAE07D38B1E575D6F8CA
:1008F0003C05E268C1B22046FEF794FF4FF49077C2
:1009000039463046FDF7D8FA002813D0394630462C
:10091000FDF7D7FAA07D00280CD0D6F84C058DF84D
:1009200000508DF80800A0680190A575D4E9001268
:1009300068469047BDE8FF810870000A48700220B1
:100940007047000010B514210448F7F760FE044812
:100950000068FBF7CFFE002010BD000070260020CD
:10096000241102002DE9F05F8346DDE90A4A994629
:1009700090460D460846012703E000BFB0FBF8F0A3
:100980007F1C4045FAD2B94500D94F465FEACA708C
:1009900012D18CB15FEA8A7002D5B9F1000F01D093
:1009A000202607E0302605E031465846641EF9F758
:1009B000C7FE0CB1A742F7D35FF00106B9F1010FF2
:1009C00002D9A9F1010903E0B5FBF6F0404502D3D5
:1009D00006FB08F6F2E7DFF83C9000BFB5FBF6F047
:1009E00000FB165519F800105846F9F7A9FEB6FB9A
:1009F000F8F6002EF2D15FEACA7009D0002C07D0B9
:100A0000A74205D220215846641EF9F799FEF5E762
:100A1000BDE8F09F14110200F8B5054680B2FBF75F
:100A20008BF9040013D0154E207A0027317B8842C1
:100A30000ED2A8B204F10A0175DF28B1112806D040
:100A4000BDE8F840FFF714B9207A401C2072F8BDC9
:100A50002772307C38B1A8B23B2176DF18B1082864
:100A600001D0FFF705F971690029F0D08DF8007009
:100A7000ADF8025068468847F8BD00000420002009
:100A80000449012282400968114201D001207047C7
:100A900000207047202000200A494A788B78521C99
:100AA000D2B2934200D100220B78934201D10020B0
:100AB00070470270487800EB400001EBC000001D59
:100AC00070470000DC2300202DE9FC411646DDE9DB
:100AD0000854CDE900541F468046022200F00CF86D
:100AE000002807D1CDE900543B461022314640464C
:100AF00000F002F8BDE8FC812DE9FC5F0026DDE98D
:100B00000C4B994692468E4680462788354630E003
:100B1000D8F80400002200EB8500694600680190C7
:100B200001A864DF002830D19DF8000050451FD196
:100B30000EB1002100E00221228808441118594515
:100B400022D846B9521C90B2208009F800E02088D3
:100B5000401C20800126218801A801EB090269467A
:100B600064DF002811D120889DF8001008442080FF
:100B70006D1CB8F80000A842CADC56B12088C01B22
:100B8000401E80B2FF2802D90C20BDE8FC9F09F866
:100B900007000020F9E70020704700002DE9F84F1A
:100BA000114D884681461E4617466946DDF828A045
:100BB0002868FBF7BAFD040013D01C21F7F727FDC6
:100BC00000202071C4F80090C4E90486C4E902A79B
:100BD00069462868FBF7CAFDFEF7A2FB0020BDE8C6
:100BE000F88F0420FBE70000241102008278012125
:100BF000012A0BD0062A09D0072A06D0082A06D1D6
:100C0000416889880931890800E014210180704712
:100C10001CB50446002000900190A0788DF80200D9
:100C2000617B2048FDF776FF020022D0237BA1786C
:100C30006846FDF7A7FD6846FFF7D8FF208804F156
:100C4000080369466268FDF71BFD0246A17B164852
:100C50008B0704D5CB0702D043685B1E436052B1BB
:100C6000072A04D0112A09D0862A11D0032210465F
:100C70001CBD03201CBD21F0030010E04268521C83
:100C8000426021F0010040F00200A0730022EEE774
:100C900043685B1C436021F0020040F00100A07338
:100CA000E5E7000078220020F41B002038B5054657
:100CB0000C46002001E00098401C00906946284640
:100CC00000F00EF800280AD08178A142F3D1817B90
:100CD0008A07F0D4C907EED181680029EBD138BD6D
:100CE00010B5084B0A6809E003EB0214248884421B
:100CF00003D103EB02100A6010BD521C022AF3D389
:100D0000002010BD882200204FF6FF710180FF21D6
:100D100081704173817B21F0030181730021017394
:100D2000416081607047000070B50546002406E010
:100D3000687B2044C1B20648FDF700FF641C287B95
:100D4000A042F5D82846BDE87040FFF7DDBF00009F
:100D5000782200202DE9FC4706463648984614467E
:100D600000780D464FF0000978B37DB32888A0F5D0
:100D70007F41FF3931D0688848B36868FBF76EF867
:100D800068B374B32088ADF80000678801A8FEF747
:100D900001FA04002FD084F800804FF0000A84F894
:100DA00016A0BDF80000A0826868206121480121DA
:100DB0000C38FBF7EDFCE060288820816888A08073
:100DC000E780B8F1030F1DD020E001E003E004E06C
:100DD0000220BDE8FC870520FBE70420F9E703209B
:100DE000F7E7FFE72889694687B2384600F0ACF894
:100DF0000028EED1CAE7BDF80010384600F098F898
:100E00000820E6E70420A0753068A061A4F80A90E5
:100E100001A8FEF7CDF946B1C6F804A0E16806487E
:100E2000316086F80AA000893081FEF769FA002057
:100E3000CFE70000BC1C0020C42500202DE9F843AA
:100E40000D46898A374A01EB810102EB810630B1F8
:100E5000E9883046FDF7BEF80120BDE8F883318906
:100E60007068002400EB81072E48A97DA8384FF058
:100E70000E0807294ED2DFE801F00D2D162404409C
:100E80004A004460A969016026482749A838FEF74E
:100E9000EFFA30B10220A875042339462A1D0094C8
:100EA00023E00A20D9E728692A4608B1032000E098
:100EB00001209075042305F10C0207F1080100944C
:100EC00013E00120A8750094E88807F10C01830065
:100ED0002A690AE028782A4603280CD00620907553
:100EE000042305F10802391D00941048FCF7A8F905
:100EF000A8B144460FE00520F1E70621A9750A498B
:100F000040680988FEF732FB040004D107E041F68F
:100F10001D5400E00F24E9883046FDF75BF82046B9
:100F20009BE700009C2500209C1C00203C1D00200D
:100F300001EB8102034901EB82014A89101AC01EAC
:100F4000488170479C25002070B5C01C82B240F2D9
:100F5000FE30824201D3092070BD114B00204FF4B6
:100F6000806500BF00EB800413F8246096B903EBA2
:100F700084063489768914443444A4B2AC4209D23C
:100F8000088000EB800003EB80004189114441811F
:100F9000002070BD401C80B20228E3D3072070BD42
:100FA0009C250020C81D0020E81D002011121314EC
:100FB0000D0E0F10641F0020841F0020B01F0020A2
:100FC0000D00030045A301000E00030045A301002E
:100FD0000F00030045A301001000030045A301001A
:100FE00007000000000000000000000000000000FA
:100FF00000000000060000000000000000000000EB
:1010000000000000000000001000000000000000D0
:1010100000000000000000000000000011000000BF
:1010200000000000000000000000000000000000C0
:101030000100000001000100301002000100010069
:101040004410020000000000DDEC01002DB501009D
:10105000770A000000000000770A0000000000008E
:1010600091E2010007000000000000000000000005
:1010700000000000000000001DEE0100150102004C
:1010800071B80100FDB50100010000000000000082
:1010900001000600081C0020890102000100000078
:1010A0000000000000000000000000000000000040
:1010B0000700000000000000000000000000000029
:1010C000000000000300000000000000000000001D
:1010D000000000000000000005000000000000000B
:1010E00000000000000000000000000095F001007A
:1010F00000000050BC23002003000000D425002085
:101100000000FFFFDEC0ADDEFF011EF1DEC0ADDE80
:10111000FE011EF130313233343536373839414231
:1011200043444546842600200010000004000000CF
:101130000100000039BC01004509020071F3010003
:101140009D0B0200E1AB0100B5F50100970B020019
:10115000F5BD0100556E6B6E6F776E206572726F14
:101160007220636F64650000000000002417020015
:1011700001000000E41502000200000064140200F7
:10118000030000005816020004000000AC16020024
:1011900005000000A415020006000000441502002E
:1011A000070000009416020008000000B8150200B5
:1011B00009000000041602000A0000000C170200DB
:1011C0000B0000004C1402000C000000D0150200BF
:1011D0000D000000301702000E000000841602000F
:1011E0000F000000C016020010000000F4160200FC
:1011F0001100000044170200800000008415020066
:10120000810000000815020082000000C8140200DE
:1012100083000000A814020084000000E41402000F
:10122000850000005C150200860000006C160200BC
:1012300090000000241502009100000088140200B4
:1012400000820000D4160200018200002016020075
:10125000028200003C16020035D501001DD50100B8
:1012600013D50100FFFFFFFFFFFFFFFFFFFFFFFFA1
:10127000FFFFFFFF00000000000000000000D6019B
:1012800007010000F41C0020EC1C0020F41C0020CE
:10129000D426002018000000581A0200601A02002C
:1012A000000000000000000001000007981202008A
:1012B000A812020008000000D0120200E012020092
:1012C00008000000E0120200F01202000800000016
:1012D000881A0200981A02000000000000000000B6
:1012E000781A0200881A02000000000000000000C6
:1012F000101A0200181A0200181A0200401A0200FE
:10130000401A0200501A0200501A0200581A020035
:10131000801B0020F01202001013020008000000E1
:10132000601A0200701A0200701A0200781A020095
:10133000201302003013020008000000004040406B
:101340004040404040404141414141404040404098
:101350004040404040404040404040404005020244
:101360000202020202020202020202020220202003
:10137000202020202020200202020202020290905F
:10138000909090901010101010101010101010105D
:1013900010101010101010100202020202028888B1
:1013A00088888888080808080808080808080808BD
:1013B00008080808080808080202020240000000A5
:1013C0003D13020073645F626C655F6761747463F0
:1013D0005F65786368616E67655F6D74755F726580
:1013E000717565737428292072657475726E6564F1
:1013F00020756E65787065637465642076616C75C0
:101400006520307825782E0073645F626C655F67B5
:10141000617474735F65786368616E67655F6D742E
:10142000755F7265706C7928292072657475726EAB
:10143000656420756E657870656374656420766197
:101440006C756520307825782E0000004E52465F7E
:101450004552524F525F494E56414C49445F4441B8
:10146000544100004E52465F4552524F525F534F17
:1014700046544445564943455F4E4F545F454E419F
:10148000424C4544000000004E52465F4552524FC8
:10149000525F464541545552455F4E4F545F454E4D
:1014A00041424C45440000004E52465F4552524F67
:1014B000525F4D555445585F554E4C4F434B5F4618
:1014C00041494C45440000004E52465F4552524F40
:1014D000525F4D555445585F4C4F434B5F46414911
:1014E0004C4544004E52465F4552524F525F4D5557
:1014F0005445585F434F4E445F494E49545F4641FF
:10150000494C4544000000004E52465F4552524F40
:10151000525F4D555445585F494E49545F464149C5
:101520004C4544004E52465F4552524F525F415027
:10153000495F4E4F545F494D504C454D454E5445C3
:10154000440000004E52465F4552524F525F4E4F8C
:10155000545F535550504F52544544004E52465FCD
:101560004552524F525F4D4F44554C455F414C528E
:10157000454144595F494E495449414C495A4544B3
:10158000000000004E52465F4552524F525F4D4F91
:1015900044554C455F4E4F545F494E495449414C68
:1015A0005A4544004E52465F4552524F525F4E4F8D
:1015B000545F464F554E44004E52465F4552524F7F
:1015C000525F494E56414C49445F53544154450083
:1015D0004E52465F4552524F525F444154415F5311
:1015E000495A45004E52465F4552524F525F53563C
:1015F000435F48414E444C45525F4D495353494E19
:10160000470000004E52465F4552524F525F494ECE
:1016100056414C49445F4C454E4754480000000039
:101620004E52465F4552524F525F4452565F545796
:10163000495F4552525F414E41434B004E52465F17
:101640004552524F525F4452565F5457495F45527C
:10165000525F444E41434B004E52465F4552524FFB
:10166000525F494E5445524E414C00004E52465F27
:101670004552524F525F53544F524147455F465572
:101680004C4C00004E52465F4552524F525F4E55F1
:101690004C4C00004E52465F4552524F525F494EED
:1016A00056414C49445F504152414D004E52465FB5
:1016B0004552524F525F4E4F5F4D454D0000000066
:1016C0004E52465F4552524F525F464F5242494436
:1016D00044454E004E52465F4552524F525F44526F
:1016E000565F5457495F4552525F4F5645525255C7
:1016F0004E0000004E52465F4552524F525F494ED7
:1017000056414C49445F4144445200004E52465FAA
:101710004552524F525F494E56414C49445F464CE8
:10172000414753004E52465F535543434553530080
:101730004E52465F4552524F525F54494D454F55A8
:10174000540000004E52465F4552524F525F425580
:10175000535900007761726E696E67006465627547
:10176000670000001B5B313B33306D001B5B306D4D
:10177000000000001B5B313B33316D001B5B313BD4
:1017800033326D001B5B313B33336D001B5B313BF0
:1017900033346D001B5B313B33356D001B5B313BDC
:1017A00033366D001B5B313B33376D00696E666FFE
:1017B000000000006572726F7200000073645F6267
:1017C0006C655F6366675F73657428292072657452
:1017D00075726E6564202573207768656E2061746C
:1017E00074656D7074696E6720746F207365742002
:1017F000424C455F47415454535F4346475F53450E
:1018000052564943455F4348414E4745442E0000E8
:1018100073645F626C655F6366675F7365742829D4
:101820002072657475726E65642025732077686513
:101830006E20617474656D7074696E6720746F20BA
:1018400073657420424C455F434F4D4D4F4E5F438F
:1018500046475F56535F555549442E0073645F6297
:101860006C655F6366675F736574282920726574B1
:1018700075726E6564202573207768656E206174CB
:1018800074656D7074696E6720746F207365742061
:10189000424C455F47415454535F4346475F415470
:1018A00054525F5441425F53495A452E0000000094
:1018B00073645F626C655F6366675F736574282934
:1018C0002072657475726E65642025732077686573
:1018D0006E20617474656D7074696E6720746F201A
:1018E00073657420424C455F434F4E4E5F434647FD
:1018F0005F4741502E00000073645F626C655F6358
:1019000066675F73657428292072657475726E65E9
:1019100064202573207768656E20617474656D702E
:1019200074696E6720746F2073657420424C455F44
:101930004741505F4346475F524F4C455F434F55C9
:101940004E542E00626C655F676174740000000085
:10195000636C6F636B0000006770696F74650000F3
:10196000756172740000000062616C6C6F6300004E
:101970007077725F6D676D740000000061707000B9
:101980006E72665F736468006E72665F7364685F30
:10199000626C65006E72665F7364685F736F63008C
:1019A000981A0200801B002048020000B086010047
:1019B000F41A0200C81D0020F0150000508C010030
:1019C000441902000000030050190200000000004A
:1019D0005819020000000000601902000000000019
:1019E00068190200000000007019020000000000E9
:1019F0007C190200000003008019020000000300AF
:101A0000881902000000030094190200000003007E
:101A10009D9F01000000000075C801003C1E0020D1
:101A20009B9601004C1E0020319E0100000000002A
:101A3000A19E01000000000091A001000000000034
:101A4000F9990100081E002069A10100201E002054
:101A5000399D01000000000065D101000000000078
:101A6000A5040200000000009DD10100000000005C
:101A7000039701004C1E00209DDC010000000000C7
:101A8000E1DD01000000000081F80100000000001D
:101A90007DD10100000000000322FFFF1414180193
:101AA0001A0F041A0A0401280B28D9EC2C812A18D1
:101AB000017909390A01BA12204240041D58120264
:101AC00014B417021A54041AAC041A5C041A6C04F5
:101AD0001A64041A74041A7C041A84041A8C041AF2
:101AE00094041A9C041AA404518490D003048145E0
:041AF000B20100003F
:040000050001820173
:00000001FF
