:020000040000FA
:1000000028200020150200001D0200001F02000031
:100010002102000023020000250200000000000071
:1000200000000000000000000000000027020000A7
:1000300029020000000000002B0200002D02000039
:100040005D0200002F0200002F0200002F020000BE
:100050002F0200002F0200002F0200002F020000DC
:100060002F0200002F0200002F020000B502000046
:100070002F0200002F0200002F0200002F020000BC
:100080002F0200002F0200002F0200002F020000AC
:100090002F0200002F0200002F0200002F0200009C
:1000A0002F0200002F0200002F0200002F0200008C
:1000B0002F0200002F0200000000000000000000DE
:1000C0002F0200002F0200002F0200002F0200006C
:1000D0002F0200002F0200002F020000000000008D
:1000E0000000000000000000000000000000000010
:1000F0000000000000000000000000000000000000
:1001000000000000000000000000000000000000EF
:1001100000000000000000000000000000000000DF
:1001200000000000000000000000000000000000CF
:1001300000000000000000000000000000000000BF
:1001400000000000000000000000000000000000AF
:10015000000000000000000000000000000000009F
:10016000000000000000000000000000000000008F
:10017000000000000000000000000000000000007F
:10018000000000000000000000000000000000006F
:10019000000000000000000000000000000000005F
:1001A000000000000000000000000000000000004F
:1001B000000000000000000000000000000000003F
:1001C000000000000000000000000000000000002F
:1001D000000000000000000000000000000000001F
:1001E000000000000000000000000000000000000F
:1001F00000000000000000000000000000000000FF
:10020000DFF80CD000F018F800480047E5060000C1
:10021000282000200648804706480047FEE7FEE702
:10022000FEE7FEE7FEE7FEE7FEE7FEE7FEE7FEE7A6
:10023000C502000001020000064C074D06E0E06820
:1002400040F0010394E8070098471034AC42F6D31D
:10025000FFF7DAFF9C0A0000BC0A00002DE9F0411C
:100260004FF48077384600F075FA0124104EA50748
:1002700048B1384600F075FA0120C5F808037470DB
:10028000002000F00FFA4FF48277384600F062FA4F
:1002900000280BD0384600F064FA0220C5F80803A5
:1002A000B470BDE8F041012000F0FCB9BDE8F08178
:1002B0001000002003220021014800F047BB00008D
:1002C00000B00040F0B5AE480023021D01780125C2
:1002D000101D4FF0805406290BD11678360708D12F
:1002E0000678C6F30316032E06D0042E04D0052E7E
:1002F00002D0062907D00EE0B4F82463A14FC6F35C
:1003000004263E6002E01678360704D10678C6F36C
:100310000316032E02D0062904D00FE09B4F9A4EFD
:100320007E670EE01678360708D10678C6F3031606
:10033000032E06D0042E04D0052E02D0062907D0A5
:100340000EE0D4F84462924FC6F342363E6002E0BB
:100350001678360704D10678C6F30316032E02D0AA
:10036000062906D011E08B4E376827F0807737607A
:100370000EE01678360708D10678C6F30316032E6A
:1003800006D0042E04D0052E02D006290AD011E092
:100390004FF08046C6F80C31C6F810317C4E361F3F
:1003A000336002E01678360704D10678C6F30316E8
:1003B000032E02D0062905D00CE0754F03266437C2
:1003C0003E600AE01678360704D10678C6F30316B5
:1003D000032E02D006290DD014E06F4F05263E6093
:1003E0006D4E783635606C4E083633603F263F1DC3
:1003F0003E6002E01678360704D10678C6F303168D
:10040000052E02D0062957D062E0644E3668644F4C
:100410003E60624E361D36683F1D3E605F4E0836B8
:1004200036683F1D3E605D4E0C3636683F1D3E60AF
:100430005A4E103636683F1D3E60584E14363668A8
:100440003F1D3E60554E18363668554F20373E608A
:10045000524E1C3636683F1D3E60504E2036366880
:100460003F1D3E604D4E243636683F1D3E604B4E6C
:10047000283636683F1D3E60484E2C3636683F1D94
:100480003E60464E30363668454F40373E60434EFC
:10049000343636683F1D3E60404E383636683F1D64
:1004A0003E603E4E3C3636683F1D3E603B4E403619
:1004B00036683F1D3E6002E01678360708D10678A0
:1004C000C6F30316032E06D0042E04D0052E02D048
:1004D000062907D019E0D4F85812324A01F04F012A
:1004E000116002E0117809070FD10078C0F3031002
:1004F000032803D0042801D0052806D12A48016822
:10050000C90702D06FF00101016022487438016808
:1005100041F470010160BFF34F8FBFF36F8F4FF055
:100520001021D1F80002002803DBD1F804020028D2
:1005300022DA1E4A15601E480468002CFCD01524DF
:10054000C1F800420568002DFCD0C1F804420168E2
:100550000029FCD0136001680029FCD0BFF34F8F45
:100560000C48F0380168134A01F4E061114301605E
:10057000BFF34F8F00BFFDE710490F480860F0BD83
:10058000E00F00F0403501400DF0ADBA00C007406B
:100590003C050040FCED00E0105600400404001053
:1005A00020C50040E40E00400004004004E5014086
:1005B00000E401400400FA050090D0030C00002084
:1005C00002E008C8121F08C1002AFAD1704770471C
:1005D000002001E001C1121F002AFBD1704700007A
:1005E00009480068C00700D000BEBFF34F8F06481F
:1005F000E4380168054A01F4E06111430160BFF38A
:100600004F8F00BFFDE70000F0ED00E00400FA05A9
:100610000EB500210091CDE901106A4644F20100B7
:10062000FFF7DEFF0EBD00F003B800F009B80000D0
:1006300072B602480168491C01607047080000203A
:1006400003490868401E086000D162B67047000088
:10065000080000200249085C012100F0F9B90000FF
:10066000940A00007CB50024084E25460122305D26
:10067000009500231146019500F0CAF9641C042C72
:10068000F4D3BDE87C4000F003B80000940A0000F9
:1006900010B500242046FFF7DDFF641C042CF9D3BD
:1006A00010BD000070B5084C050009D01034216859
:1006B000002907D008682060496828468847F6E77F
:1006C0000834F4E770BD00001000002002681346F3
:1006D00002E08A4204D01268002AFAD10B6001605D
:1006E000704700001CB5FFF7BDFF00F043F808B1EC
:1006F000FFF78EFF002000F05FF81449144AD1E99B
:100700000001CDE9000140F6FF70ADF800000F4890
:100710006946083000F0EAF808B1FFF779FF0B48A6
:100720000121083000F062F9084801231822002155
:10073000083000F08DF808B1FFF76AFF0348083071
:1007400000F0C8F840BF20BF20BFFBE7840A0000CC
:10075000730A000000F180400068002800D00120EA
:10076000704708B500F180400021016000680090EA
:1007700008BD000070B50E4C0025207808B1852515
:1007800013E00021A16061602161E1604FF0E02091
:10079000D0F80001012610F0010F03D1072100203D
:1007A00000F03AF8034806602670284670BD000045
:1007B000100000201805004070B5154D0446A878BB
:1007C00038B114B16168012088470020FFF72BFF82
:1007D00015E00020FFF727FF24B10D482146103017
:1007E000FFF774FFE86850B94FF48270FFF7B9FF64
:1007F00002204107C1F80403064901200860E868A7
:10080000401CE860BDE870400020FFF70EBF00000C
:1008100010000020080000404907090E002806DAF1
:1008200000F00F0202F1E02282F8141D03E000F153
:10083000E02282F8001400F01F02012191404009DB
:10084000800000F1E020C0F88012C0F8001170476D
:100850002DE9F04105464FF4A07000EB810086B20F
:1008600028684FF480348C40C0F848432868C0F8AA
:10087000084322F07F406A79154F02EB42023A4466
:100880005278002A2A6802EB8101C1F8400512D093
:100890002968D1F80425111A824202D26FF07F40F4
:1008A0000144687900EB400038448078884202DDDA
:1008B0000D20BDE8F08133B13146286800F0D3F84F
:1008C0002868C0F804432868C0F844430020F0E7D3
:1008D00000000020016801220A604079024A00EB12
:1008E00040000221115470470000002070B50D46F1
:1008F00004465AB1607914490E1F41F820206079EE
:1009000000EB4000305C18B1082070BD072070BDBE
:10091000A97894F90400FFF77FFF20682988C0F8C0
:1009200008156179287901EB4101314448706179FA
:10093000E87801EB4101314488706179012001EBD5
:1009400041017054002070BD040000202DE9F047E3
:100950009146884604464FF480354FF4A076002730
:10096000DFF884A016E000BFD4F8040328420DD0BD
:10097000A05958B1C4F84853C4F80853314620462A
:1009800000F071F85AF82810F8B28847361D6D004B
:10099000B6B27F1C4F45E7D3D4F804034FF48071FF
:1009A00010F0010F09D0D4F8000130B1204600F05A
:1009B0005AF85AF8281004208847D4F804034FF452
:1009C000827110F0020F0CD0D4F80401002808D076
:1009D000204600F048F85AF82810BDE8F0470520F6
:1009E0000847BDE8F08700000400002070B50E46FF
:1009F00005464FF480710124006800F034F828683F
:100A0000C0F84443002E02D02868C0F8044370BDEB
:100A100070B541EA4201DDE904564FF0A04441EAD5
:100A2000830141EA052104EB800041EA0641C0F858
:100A3000001770BD4FF0A042D2F80435012181406B
:100A400021EA0300C2F808051940C2F80C157047E6
:100A500001224FF0A043824011B1C3F8082570472E
:100A6000C3F80C25704708B500224250405800904A
:100A700008BD20B1042804D11120FFF7DBBF1220EC
:100A8000FBE77047000007410000000000B0004095
:100A90000B000300111213140D0E0F10BC0A0000FE
:100AA0000000002010000000C0050000CC0A00007B
:100AB0001000002018200000D005000000000000F9
:0C0AC00000000000000000000090D003C7
:0400000500000201F4
:00000001FF
