:020000040000FA
:1000000018200020150200001D0200001F02000041
:100010002102000023020000250200000000000071
:1000200000000000000000000000000027020000A7
:1000300029020000000000002B0200002D02000039
:100040002F0200002F0200002F0200002F020000EC
:100050002F0200002F0200002F0200002F020000DC
:10006000590500002F0200002F0200002F0200009F
:100070002F0200002F0200002F0200002F020000BC
:100080002F0200002F0200002F0200002F020000AC
:100090002F0200002F0200002F0200002F0200009C
:1000A0002F0200002F0200002F0200002F0200008C
:1000B0002F0200002F0200000000000000000000DE
:1000C0002F0200002F0200002F0200002F0200006C
:1000D0002F0200002F0200002F020000000000008D
:1000E0000000000000000000000000000000000010
:1000F0000000000000000000000000000000000000
:1001000000000000000000000000000000000000EF
:1001100000000000000000000000000000000000DF
:1001200000000000000000000000000000000000CF
:1001300000000000000000000000000000000000BF
:1001400000000000000000000000000000000000AF
:10015000000000000000000000000000000000009F
:10016000000000000000000000000000000000008F
:10017000000000000000000000000000000000007F
:10018000000000000000000000000000000000006F
:10019000000000000000000000000000000000005F
:1001A000000000000000000000000000000000004F
:1001B000000000000000000000000000000000003F
:1001C000000000000000000000000000000000002F
:1001D000000000000000000000000000000000001F
:1001E000000000000000000000000000000000000F
:1001F00000000000000000000000000000000000FF
:10020000DFF80CD000F018F8004800478106000025
:10021000182000200648804706480047FEE7FEE712
:10022000FEE7FEE7FEE7FEE7FEE7FEE7FEE7FEE7A6
:100230005D02000001020000064C074D06E0E06888
:1002400040F0010394E8070098471034AC42F6D31D
:10025000FFF7DAFF7808000098080000F0B5AE4814
:100260000023021D01780125101D4FF0805406293E
:100270000BD11678360708D10678C6F30316032E7D
:1002800006D0042E04D0052E02D0062907D00EE099
:10029000B4F82463A14FC6F304263E6002E016784A
:1002A000360704D10678C6F30316032E02D00629BA
:1002B00004D00FE09B4F9A4E7E670EE0167836070B
:1002C00008D10678C6F30316032E06D0042E04D0F8
:1002D000052E02D0062907D00EE0D4F84462924FD2
:1002E000C6F342363E6002E01678360704D106783F
:1002F000C6F30316032E02D0062906D011E08B4E5A
:10030000376827F0807737600EE01678360708D117
:100310000678C6F30316032E06D0042E04D0052E4D
:1003200002D006290AD011E04FF08046C6F80C3101
:10033000C6F810317C4E361F336002E0167836075F
:1003400004D10678C6F30316032E02D0062905D081
:100350000CE0754F032664373E600AE016783607D6
:1003600004D10678C6F30316032E02D006290DD059
:1003700014E06F4F05263E606D4E783635606C4E4A
:10038000083633603F263F1D3E6002E01678360790
:1003900004D10678C6F30316052E02D0062957D0DD
:1003A00062E0644E3668644F3E60624E361D3668C9
:1003B0003F1D3E605F4E083636683F1D3E605D4E15
:1003C0000C3636683F1D3E605A4E103636683F1D6B
:1003D0003E60584E143636683F1D3E60554E183606
:1003E0003668554F20373E60524E1C3636683F1DEA
:1003F0003E60504E203636683F1D3E604D4E2436DE
:1004000036683F1D3E604B4E283636683F1D3E60C5
:10041000484E2C3636683F1D3E60464E30363668B4
:10042000454F40373E60434E343636683F1D3E6090
:10043000404E383636683F1D3E603E4E3C3636688C
:100440003F1D3E603B4E403636683F1D3E6002E039
:100450001678360708D10678C6F30316032E06D0A1
:10046000042E04D0052E02D0062907D019E0D4F8B6
:100470005812324A01F04F01116002E01178090769
:100480000FD10078C0F30310032803D0042801D053
:10049000052806D12A480168C90702D06FF001017A
:1004A000016022487438016841F470010160BFF3B3
:1004B0004F8FBFF36F8F4FF01021D1F8000200284B
:1004C00003DBD1F80402002822DA1E4A15601E4818
:1004D0000468002CFCD01524C1F800420568002DEA
:1004E000FCD0C1F8044201680029FCD01360016807
:1004F0000029FCD0BFF34F8F0C48F0380168134A35
:1005000001F4E06111430160BFF34F8F00BFFDE7CD
:1005100010490F480860F0BDE00F00F04035014081
:100520000DF0ADBA00C007403C050040FCED00E016
:10053000105600400404001020C50040E40E0040A6
:100540000004004004E5014000E401400400FA0515
:100550000090D003040000202DE9F84300250F4C43
:1005600004274FF4A078BE034FEA050908EB850085
:1005700006FA05F122585AB1D4F804230A4207D0EA
:1005800044F800902158064A00915168126890473B
:100590006D1CEDB2BD42E9D3BDE8F8830080004098
:1005A0000800002002E008C8121F08C1002AFAD182
:1005B00070477047002001E001C1121F002AFBD1E3
:1005C0007047000009480068C00700D000BEBFF3B4
:1005D0004F8F0648E4380168054A01F4E061114391
:1005E0000160BFF34F8F00BFFDE70000F0ED00E0BA
:1005F0000400FA050EB500210091CDE901106A460C
:1006000044F20100FFF7DEFF0EBD000007490B5C5E
:100610004FF0A041D1F804250120984020EA0203C0
:10062000C1F808351040C1F80C057047700800008B
:100630000249085C012100F0F7B8000070080000D2
:100640007CB50024084E25460122305D009500232C
:100650001146019500F0D6F8641C042CF4D3BDE8D3
:100660007C4000F003B800007008000010B50024C2
:100670002046FFF7DDFF641C042CF9D310BD0000F9
:100680000EB5FFF7DDFF0F490F4AD1E90201CDE9B1
:10069000010101A90B4800F06DF808B1FFF7AAFFAE
:1006A00008480068D0F81005084A0021C24001201F
:1006B00003460090034800F047F8024800F036F87F
:1006C00030BFFDE7600800004108000000127A001A
:1006D0004907090E002806DA00F00F0202F1E022B5
:1006E00082F8141D03E000F1E02282F8001400F00B
:1006F0001F02012191404009800000F1E020C0F874
:100700008012C0F80011704730B54FF4803405688E
:100710008C4013B1C5F8044301E0C5F808430068F4
:1007200000EB8100C0F8402530BD000001680122C7
:100730000A600079034A00EB400002EB80000221CE
:100740000172704708000020F0B40468049E40F273
:100750000115D4F800728D40AF43C4F800720468EC
:10076000D4F800521D43C4F800523346F0BCFFF7E2
:10077000CBBF0000F8B504460D460079204900EBD8
:10078000400001EB8006307A08B10820F8BD3AB18C
:10079000326068687060002003464FF4A07709E07B
:1007A0000720F8BD226807EB800153505158401CC8
:1007B000C0B2009161798142F4D82068E978000BD9
:1007C00040B2FFF785FF20686978D0F8042561F30F
:1007D0000102C0F804252068A978D0F8082561F343
:1007E0000102C0F8082520682978D0F8102561F3A7
:1007F0000302C0F81025012030720020F8BD00006F
:100800000800002070B541EA4201DDE904564FF0CE
:10081000A04441EA830141EA052104EB800041EA5A
:100820000641C0F8001770BD01224FF0A04382407E
:1008300011B1C3F808257047C3F80C2570470000B4
:10084000064A0346116801F00300491C1160B3F524
:10085000A07F01D1FFF7DABE704700000000002042
:1008600000800040000400000000030700000000BA
:10087000111213140D0E0F10980800000000002034
:1008800008000000A4050000A008000008000020E7
:1008900010200000B4050000000000000090D0030C
:0400000500000201F4
:00000001FF
