:020000040000FA
:1000000008200020150200001D0200001F02000051
:100010002102000023020000250200000000000071
:1000200000000000000000000000000027020000A7
:1000300029020000000000002B0200002D02000039
:100040002F0200002F0200002F0200002F020000EC
:100050002F0200002F0200002F0200002F020000DC
:100060002F0200002F0200002F0200002F020000CC
:100070002F0200002F0200002F0200002F020000BC
:100080002F0200002F0200002F0200002F020000AC
:100090002F0200002F0200002F0200002F0200009C
:1000A0002F0200002F0200002F0200002F0200008C
:1000B0002F0200002F0200000000000000000000DE
:1000C0002F0200002F0200002F0200002F0200006C
:1000D0002F0200002F0200002F0200002F0200005C
:1000E0002F0200002F0200002F020000000000007D
:1000F000000000002F020000000000002F0200009E
:1001000000000000000000000000000000000000EF
:1001100000000000000000000000000000000000DF
:1001200000000000000000000000000000000000CF
:1001300000000000000000000000000000000000BF
:1001400000000000000000000000000000000000AF
:10015000000000000000000000000000000000009F
:10016000000000000000000000000000000000008F
:10017000000000000000000000000000000000007F
:10018000000000000000000000000000000000006F
:10019000000000000000000000000000000000005F
:1001A000000000000000000000000000000000004F
:1001B000000000000000000000000000000000003F
:1001C000000000000000000000000000000000002F
:1001D000000000000000000000000000000000001F
:1001E000000000000000000000000000000000000F
:1001F00000000000000000000000000000000000FF
:10020000DFF80CD000F018F8004800478304000025
:10021000082000200648804706480047FEE7FEE722
:10022000FEE7FEE7FEE7FEE7FEE7FEE7FEE7FEE7A6
:100230005D02000001020000064C074D06E0E06888
:1002400040F0010394E8070098471034AC42F6D31D
:10025000FFF7DAFF84040000A404000030B54FF07B
:1002600080500022D0F830110123082902D1D0F8A3
:10027000344114B1082909D00BE04FF08041C1F896
:100280000C21C1F8102168490A6005E0D0F834411A
:1002900014B1082957D059E064490968644C2160B9
:1002A0006249091D0968241D2160604908310968F7
:1002B000241D21605D490C310968241D21605B49C2
:1002C00010310968241D2160584914310968241D22
:1002D0002160564918310968554C20342160534932
:1002E0001C310968241D2160504920310968241DF2
:1002F00021604E4924310968241D21604B49283171
:100300000968241D216049492C310968241D216098
:10031000464930310968464C403421604349343104
:100320000968241D2160414938310968241D216074
:100330003E493C310968241D21603C49403109682F
:10034000241D216005E0D0F8344114B1082904D0FF
:1003500006E0394C3749216005E0D0F8344114B14A
:10036000082904D006E0354CFB21216005E0D0F8D7
:10037000344114B1082908D00AE090F858423048B6
:10038000016864F30301016005E0D0F8344114B161
:10039000082905D00EE02B494FF40070086002E0F8
:1003A000D0F8340130B928480168C90702D06FF08D
:1003B000010101602548016841F470010160BFF34B
:1003C0004F8FBFF36F8F4FF01021D1F8000200283C
:1003D00003DBD1F80402002822DA1D4C23601D48FB
:1003E0000368002BFCD01223C1F800320568002DF1
:1003F000FCD0C1F8043201680029FCD022600168F9
:100400000029FCD0BFF34F8F10487C380168124A96
:1004100001F4E06111430160BFF34F8F00BFFDE7BE
:100420000F490E48086030BD380500400404001034
:1004300020C50040488103008C56004018F500405C
:10044000E40E0040409602400004004088ED00E0C9
:1004500004E5014000E401400400FA050090D003E7
:100460000000002002E008C8121F08C1002AFAD1CB
:1004700070477047002001E001C1121F002AFBD124
:100480007047FEE7A4040000000000200400000004
:1004900064040000A8040000040000200420000000
:0804A000740400000090D00379
:020000041000EA
:041080007856341258
:0400000500000201F4
:00000001FF
