:020000040001F9
:10800000C0270020158201001D8201001F8201008F
:10801000218201002382010025820100000000006E
:1080200000000000000000000000000027820100A6
:1080300029820100000000002B8201002D82010036
:108040001D8501002F8201002F8201002F82010077
:108050002F82010000000000458301002F820100F3
:108060002F8201002F8201002F8201002F82010048
:108070002F8201002F8201002F8201002F82010038
:108080002F820100758501002F8201002F820100DF
:10809000998501002F8201009D8501002F8201003A
:1080A0002F8201002F82010000000000000000006C
:1080B0002F8201002F82010000000000000000005C
:1080C00000000000000000000000000000000000B0
:1080D00000000000000000000000000000000000A0
:1080E0000000000000000000000000000000000090
:1080F0000000000000000000000000000000000080
:10810000000000000000000000000000000000006F
:10811000000000000000000000000000000000005F
:10812000000000000000000000000000000000004F
:10813000000000000000000000000000000000003F
:10814000000000000000000000000000000000002F
:10815000000000000000000000000000000000001F
:10816000000000000000000000000000000000000F
:1081700000000000000000000000000000000000FF
:1081800000000000000000000000000000000000EF
:1081900000000000000000000000000000000000DF
:1081A00000000000000000000000000000000000CF
:1081B00000000000000000000000000000000000BF
:1081C00000000000000000000000000000000000AF
:1081D000000000000000000000000000000000009F
:1081E000000000000000000000000000000000008F
:1081F000000000000000000000000000000000007F
:10820000DFF80CD000F08CF8004800475D980100C2
:10821000C02700200648804706480047FEE7FEE7E3
:10822000FEE7FEE7FEE7FEE7FEE7FEE7FEE7FEE726
:10823000A1850100018201002DE9F05F05460020C3
:1082400092469B4688460646814640241BE02846C7
:1082500041464746224600F053F853465A46C01A54
:10826000914110D311461846224600F03AF82D1AD3
:1082700067EB01084F4622460120002100F031F84B
:1082800017EB00094E41201EA4F10104DFDC484633
:1082900031462A464346BDE8F09F40EA01039B076A
:1082A00003D009E008C9121F08C0042AFAD203E06B
:1082B00011F8013B00F8013B521EF9D27047D2B2CF
:1082C00001E000F8012B491EFBD270470022F6E7BF
:1082D00010B513460A4604461946FFF7F0FF20463C
:1082E00010BD202A04DB203A00FA02F1002070477A
:1082F0009140C2F1200320FA03F3194390407047E4
:10830000202A04DB203A21FA02F00021704721FAEA
:1083100002F3D040C2F12002914008431946704751
:10832000064C074D06E0E06840F0010394E80700C2
:1083300098471034AC42F6D3FFF766FF18A9010046
:1083400038A901002DE9F04700268CB0DFF86091D4
:10835000B0464FF48075012437460696284601F052
:1083600081FE38B1D9F80403204203D0284601F039
:108370006FFE26432D1D64007F1CADB2082FEDD388
:108380004FF4BE74204601F06DFE48B1204601F066
:108390005FFE46F0004606AA0121002001F044FEDF
:1083A000444D16F0FF0F15D00127002437420DD0A1
:1083B00009EB8401D1F81005D1F81015C0F30420A1
:1083C00055F82420C1F3014102B190477F00641C9D
:1083D000082CEBD3002E67DA4FF0FF30CDE9088090
:1083E00000263446281910F8507F90F9000027F035
:1083F000C008401C44D009A9404601F099FB58B37D
:108400004FEA9719404600F093FF55F820701FB1CE
:10841000B9F1030F03D00FE0B9F1030F30D108A871
:108420004FEAD80208F00703815C4FF0010C0CFA08
:1084300003FC41EA0C0181544FF0A04101EB88009C
:10844000D0F8000706A9C0F3014A404601F070FBCE
:1084500018B1BAF1020F03D012E0BAF1030F0FD135
:10846000B9F1030F08D1BAF1020F1BD00221404627
:1084700001F0BEFD761CF6B217B149464046B8473A
:10848000641C042CAED3002E0ED06A4601210020BD
:1084900001F0CAFD06990098884205D00690089818
:1084A00009909DE70321E2E70CB0BDE8F0870000EA
:1084B000006000402C1E002000F01F0201219140AE
:1084C0004009800000F1E020C0F88012704700F001
:1084D0001F02012191404009800000F1E020C0F816
:1084E0000011704700F01F020121914040098000F7
:1084F00000F1E020C0F8001270474907090E00287B
:1085000006DA00F00F0000F1E02080F8141D70473B
:1085100000F1E02080F80014704700002DE9F041E0
:108520004FF48077384601F0A3FB0124104EA507D5
:1085300048B1384601F0A3FB0120C5F80803747068
:10854000002000F0A5FF4FF48277384601F090FB41
:1085500000280BD0384601F092FB0220C5F8080332
:10856000B470BDE8F041012000F092BFBDE8F08199
:10857000181E002007480021C0F84011C0F844111F
:10858000C0F84811C0F84C11C0F80011C0F804112F
:1085900002F07CB80010014001F0C6BF01F012BE2D
:1085A000F0B5A1480127031D01783A07181D0629D7
:1085B0000BD11C78240708D10478C4F30314032CCE
:1085C00006D0042C04D0052C02D0062907D011E0D7
:1085D000B2F82443954DC4F304242C6002E01C78C7
:1085E000240707D10478C4F30314032C02D1914D5E
:1085F0008F4C6C67D2F844428F4DC4F342342C60E8
:1086000006290CD11C78240709D10478C4F303147B
:10861000032C04D1894C256825F0807525604FF026
:1086200080440025C4F80C51C4F81051824C241F1A
:108630002560062907D11C78240704D10478C4F3E7
:108640000314032C02D0062908D01FE0DFF8E8C18C
:1086500003240CF1640CCCF8004007E01C782407DC
:1086600014D10478C4F30314032C0FD1DFF8D0C164
:108670000524CCF80040724C78342760704C0834E4
:1086800025600CF1040C3F24CCF800406D4C2468AC
:10869000DFF8B4C1CCF800406A4C241D24680CF10A
:1086A000040CCCF80040674C083424680CF1040C2E
:1086B000CCF80040634C0C3424680CF1040CCCF86A
:1086C0000040604C103424680CF1040CCCF80040DD
:1086D0005C4C143424680CF1040CCCF80040594C68
:1086E00018342468DFF860C10CF1200CCCF800408D
:1086F000544C1C3424680CF1040CCCF80040514C50
:10870000203424680CF1040CCCF800404D4C243487
:1087100024680CF1040CCCF800404A4C283424683E
:108720000CF1040CCCF80040464C2C3424680CF1BD
:10873000040CCCF80040434C30342468DFF808C106
:108740000CF1400CCCF800403E4C343424680CF161
:10875000040CCCF800403B4C383424680CF1040C79
:10876000CCF80040374C3C3424680CF1040CCCF8B5
:108770000040344C403424680CF1040CCCF8004028
:10878000DFF8C8C0FB24CCF80040062913D11C78C0
:10879000240710D10478C4F30314032C03D0042C51
:1087A00001D0052C07D1D2F85842DFF8A4C004F05C
:1087B0004F04CCF8004027480168C90702D06FF089
:1087C000010101604FF01021D1F80002002803DB05
:1087D000D1F80402002822DA1F4A17601F480368F4
:1087E000002BFCD01523C1F800320468002CFCD00B
:1087F000C1F8043201680029FCD015600168002925
:10880000FCD0BFF34F8F0D48F0380168144A01F4D3
:10881000E06111430160BFF34F8F00BFFDE71249D4
:1088200010480860F0BD0000E00F00F04035014046
:108830000DF0ADBA00C007403C050040FCED00E083
:10884000105600400404001020C5004018F50040F8
:10885000E40E00400004004004E5014000E4014053
:108860000400FA050090D0031C1D002002E008C897
:10887000121F08C1002AFAD170477047002001E09A
:1088800001C1121F002AFBD17047000001212028DE
:1088900003DA81400548014003E0402802DA20382D
:1088A000814009B10120704700207047FC06FFBDE0
:1088B000082806D228B1012803D0042801D00120BD
:1088C000704700207047022000F000BB70B5002404
:1088D000064D06E06868012110F8340001F074FAD2
:1088E000641C28788442F5D3002070BDF01C002061
:1088F000F8B515460C460646052A01D20720F8BDF4
:1089000001F048FB18B901F017FB0028F7D1104916
:1089100000204E600C70C1E902500E4D08610DE060
:1089200006EBC4006968009181788DF80110007829
:10893000094A694601F09AFA0028E0D1641EE4B2BF
:10894000EED2BDE8F840054A0021024800F02CB8FC
:10895000F01C00206CA8010091960100F195010027
:1089600009480068C00700D000BEBFF34F8F06481B
:10897000E4380168054A01F4E06111430160BFF386
:108980004F8F00BFFDE70000F0ED00E00400FA05A6
:108990000EB500210091CDE901106A4644F20100B4
:1089A000FFF7DEFF0EBD0000074B9B7823B12AB115
:1089B00020B10068037C1BB1082070470720704776
:1089C0004174426100207047A41E002070B501F080
:1089D000A1FC104800240B21047044700E4D8170DE
:1089E00014206C602C706C70FFF766FD072114205A
:1089F000FFF783FD1420FFF76AFD08480460072194
:108A00001120FFF77AFD0548001F0068A8600020CC
:108A100070BD0000A41E0020041D002008150140A8
:108A20002DE9FC47DFF8789099F8023073B368B30A
:108A3000052902D20720BDE8FC87436933B3437C94
:108A4000012B25D0002704460025884616468DF8C0
:108A50000050684600F038F801A801F057FEC8B190
:108A6000012101700F4944600968C0E90218C0E99A
:108A700004769DF8040089F801009DF8000000F0DC
:108A800047F81420FFF72EFD2846D4E70820D2E748
:108A90000F46D8E704259DF8000000F039F8F3E709
:108AA000A41E0020041501400649897839B130B16F
:108AB000416921B100210174022101F0C3BD0820E8
:108AC00070470000A41E002030B5EFF3108172B68D
:108AD0000D4A9468012324B10370002900D162B6C5
:108AE00030BD93604FF0E023D3F88051074C254010
:108AF0001560C3F88041D3F8844154605A17C3F815
:108B0000842100220270E8E7B01F0020FC06FFBDB0
:108B10000B498A68002A11D000280FD1EFF310808A
:108B200072B60B684FF0E022C2F800314B68C2F811
:108B3000043100228A60002800D162B6704700002C
:108B4000B01F002010B5084C6068FFF7ADFF08B1FA
:108B5000FFF71EFF2068FFF7A7FF002803D0BDE83E
:108B60001040FFF715BF10BD0CA801002DE9FC4710
:108B7000002517880646158090F82D001446894672
:108B800030B13A462146484600F0E5F8050009D1E3
:108B9000B0784FF00C0A18B32088C846001DB842C0
:108BA00002D95046BDE8FC87684679DF0028F9D134
:108BB0002088032108F8001020881921401C80B269
:108BC000208008F800102088401C80B2208000EB34
:108BD0000801BDF8000001F093FD218808442080C1
:108BE000F0780222C8B1218896F9033001F1030C14
:108BF0004846BC45D5D8425421884FF0010C491C49
:108C000089B2218000F801C02188491C89B22180E5
:108C100009F801302088401C20807068B8B1218894
:108C200090F9003001F1030C4846BC45B9D84254D4
:108C300021880A22491C89B2218042542188491C7A
:108C400089B2218009F801302088401C20803089B9
:108C500050B1CDE900474B460622022106F108003B
:108C600001F06CFD05009DD1308A50B1CDE900477F
:108C70004B460722032106F1100001F05FFD0500BD
:108C800090D1308B50B1CDE900474B4615221421CD
:108C900006F1180001F052FD050083D1306A30B1B1
:108CA0003B462246494600F05DFC0500DBD1706A78
:108CB00030B13B462246494600F0A2FE0500D2D123
:108CC00096F82C0038B13B4622464946304601F022
:108CD000B9FB0500C7D1307838B13B46224649463A
:108CE000304600F0BFFE0500BDD128465AE7F0B57A
:108CF0000C4693B01F210726ADF80010ADF8041004
:108D0000002750B1C17849070DD56A4602A9FFF77F
:108D10002DFF002808D102AD02E00025ADF800705B
:108D20006CB1E07810B1304613B0F0BD01AA0AA9C9
:108D30002046FFF71BFF0028F6D10AAA02E0002216
:108D4000ADF80470BDF80400C3B2BDF80000C1B2B4
:108D5000284672DFE8E77CB5054608880C460930EE
:108D6000904201D90C207CBD68466DDF0028FAD105
:108D700021880820685420881B21401C80B2208054
:108D800029542088401C80B220802844DDF801103E
:108D90000160BDF8051081802088801D80B2208090
:108DA0009DF80010490800D0012129542088401C5A
:108DB000208000207CBD000030B504460088384D7E
:108DC00089B03B283CD014DC11281ED007DC0128D8
:108DD00040D0102801D1A088688009B030BD1B2880
:108DE00029D02128F9D100200090A08869468FDF82
:108DF00051E0502828D0512830D052280FD0562882
:108E0000EBD1A088132176DF0EE04FF6FF7068806B
:108E1000FFF798FE32DF07E0FFF7BAFDDDE7032337
:108E2000002211466888A9DF0028D6D009B0BDE825
:108E30003040FFF7ADBD207A0028CED132DFF3E716
:108E4000A088132176DFEFE709B02046BDE8304067
:108E500001F016BAA088002166DFE5E71022A11D07
:108E600004A8FFF71AFA9DF810100029B5D09DF854
:108E70001800042803D0062801D00528ADD1022906
:108E80000CD001208DF800004FF4C170ADF8040043
:108E9000A0886946A8DF0028BED19EE70220F1E73E
:108EA000D01C0020007800F0010070470649095CE2
:108EB0004FF0A040D0F81005C84010F0010000D0DD
:108EC000012080F00100704728A8010007490B5CD1
:108ED0004FF0A041D1F804250120984020EA020378
:108EE000C1F808351040C1F80C05704724A80100EE
:108EF0000249085C012101F08CB8000024A801009F
:108F00000249085C002101F084B8000024A8010097
:108F10000649095C4FF0A040D0F80405C84010F0A5
:108F2000010000D0012080F00100704724A801005A
:108F30007CB50024084E25460122305D00950023B3
:108F40001146019501F030F8641C042CF4D3BDE8FF
:108F50007C4000F003B8000024A8010010B50024F4
:108F60002046FFF7C5FF641C042CF9D310BD10B5D3
:108F700000242046FFF7C4FF641C042CF9D310BD65
:108F800010B50246064B4FF0FF3000215C5C944266
:108F900001D1084610BD491C0429F7D310BD0000BB
:108FA00028A801002DE9F0470D468146FFF7E8FFAC
:108FB0000446042836D2DFF874801B481C4EA8F102
:108FC0000C0725B3012D0ED0022D2BD104EB44004C
:108FD00030444578002D25D0B968002922D0284694
:108FE000BDE8F047084704EB4401755C0E44717816
:108FF00049B10E4A4FF40041093A8068FFF710FD6D
:1090000008B987F80390B17808F80410E2E780689F
:10901000FFF74AFD04EB4401314418F804008D7851
:10902000A842D7D0BDE8F0872CA80100EC1C002096
:10903000EC1D002070B50023042810D20D4D00EB6C
:109040004004012A02D101290CD00022094E00EB74
:109050004000304461B1012906D0022906D007231F
:10906000184670BD0E30C2B22A55F9E74270F7E7D4
:109070008270F5E7EC1D002070B506461E480024FE
:10908000C0E90161B00720D500250122114628461C
:10909000FFF7D0FF6D1C0446042D02D2002CF4D043
:1090A00013E094B940F2666204211448FFF720FCF3
:1090B00004000AD1FFF70AFC040006D10F48104A49
:1090C0000021001FFFF770FC0446F00701D0FFF7F6
:1090D0002FFF74B909480B4A00210C38FFF764FCD4
:1090E000040006D10548084A01210838FFF75CFC56
:1090F0000446204670BD0000E01C002038A8010096
:10910000C592010019970100C78801002DE9F05FA1
:109110006A4C054600266078B34618B184F801B061
:1091200000F0E2FA664F4FF47A694FF4C87A4FF0D4
:109130000108182D62D2DFE805F0AC0C0C31404D6F
:1091400062676B746B74BE7D7D7D7D7DACAFB2B5A7
:10915000BEBE0020FFF7DCFE00284FF0000008D064
:10916000FFF7C6FE022D02D14FF4E16008E0484649
:1091700006E0FFF7C5FE022D01D1C82000E05046F1
:10918000410CC0034FF4FA72801841F100012570C0
:1091900052000023FFF750F801462AE00020FFF7B5
:1091A000B7FE00284FF0000004D0FFF7A1FE4FF4F7
:1091B0004870E5E7FFF7A4FEDFE70020FFF7A8FE11
:1091C00000284FF0000002D0FFF792FECFE7FFF734
:1091D00097FED4E70020FFF79BFE00284FF0000029
:1091E00002D0FFF785FE01E0FFF78AFE257041F609
:1091F0009A1100223868FFF713FC064646E000206B
:10920000FFF764FE257008E0002051E025703DE086
:1092100084F801800120FFF759FE002240F6CD417D
:10922000E8E784F801800120FFF750FE00224FF4A8
:109230008041DFE77868FFF737FC0646D5F111007B
:1092400000D02EB10220FFF753FE84F802B01DE0DB
:10925000012816D980B2C8214843C117C90341EA81
:109260005041C0034FF4FA72801841F100015200DE
:109270000023FEF7E1FF014600227868FFF7D0FBEC
:1092800006460220FFF73CFE84F802803046BDE827
:10929000F09F00F029FAB9E700F026FAB4E700F0F1
:1092A00023FA04E000F020FA0020FFF729FE012055
:1092B000FFF726FEAAE7FFF75AFEA7E7E01C00200B
:1092C0002CA8010000780221FFF76CBE05494FF081
:1092D000FF32082841F8202002D3084480F84820B3
:1092E000704700002C1E0020F0B54FF0FF3512B182
:1092F0000023082601E008230C260C4C05E000BFE3
:1093000054F823707F1C04D05B1CB342F8D328466A
:10931000F0BD26185DB286F8305044F82310002ABC
:10932000F5D1E11881F84800F1E700002C1E00207B
:109330000249084490F93000704700002C1E0020BC
:1093400030B58FB00024054607949DF81E001C21FF
:1093500020F00600801C8DF81E009DF81C0020F0F7
:109360000F00401C20F0F00010308DF81C009DF81C
:109370001D0020F00F00401C20F0F00010308DF890
:109380001D006846FEF7A2FF9DF80000039440F020
:1093900012008DF8000007A8CDE904408DF83A507E
:1093A00041F22450ADF838000D949DF8340001943A
:1093B00020F00F00401C20F0F00010308DF8340039
:1093C0009DF83500069420F0FF008DF835009DF8DB
:1093D0003600142120F00600801C20F019008DF8C2
:1093E000360008A8FEF772FF0EA808900DA8099095
:1093F0001420ADF82800ADF82C000848084B0C905C
:10940000981FADF82A4008AA69468088A2DF002884
:1094100001D0FFF7BDFA0FB030BD0000801D002065
:10942000D61C002000B585B017491420ADF81000F7
:109430004888A0F57F42FF3A23D00978002920D040
:109440000021114B01229B1D00910191ADF81020CC
:109450001B88ADF8041004A902910C49ADF8003046
:1094600003918DF802206946A6DF002809D008285C
:1094700007D0132805D043F20141884201D0FFF7FD
:1094800087FA05B000BD0000D01C0020801D002020
:1094900070B5084C050009D010342168002907D0A8
:1094A00008682060496828468847F6E70834F4E7EA
:1094B00070BD0000181E00202DE9F05F26484168AD
:1094C000F1B3DFF898B00E688146DBF8004087689A
:1094D0008078E11B21F07F45ED1CB0B9DFF880807A
:1094E0004FF48030C8F84403C8F804031120FEF795
:1094F000E3FF1120FEF7EBFF4FF0010AC8F800A0D0
:109500002F2000F0C5FB89F802A0B54200D23546F5
:10951000124BE8193C3320F07F401860DBF8001054
:109520005A46091B21F07F41001B20F07F40C91CD7
:1095300081420FD9106818602F2000F0A9FB00E0CD
:1095400004E0BDE8F05F1120FEF7CCBFBDE8F05F9E
:1095500000F0E0BEBDE8F09F041D002004150140AE
:10956000001001402DE9F04117880646B81D144649
:109570000D46984202D90C20BDE8F08131880722BF
:1095800006290AD34FF4486C4FF6FF73614501D9A1
:10959000994202D17088062801D21046ECE7604556
:1095A00001D99842F9D1994203D0984201D0814221
:1095B000F3D80520E85520881221401C80B2208075
:1095C00029542088401C80B220804119308801F045
:1095D00097F82188084480B220804119708801F0F2
:1095E0008FF82188084420800020C5E7FFF71ABFC4
:1095F0002DE9F04100260125144C22E06068226923
:1096000000EBC607387805FA00F1114217D08A43FB
:10961000226100F087FC02463878E36805FA00F121
:10962000194002FA00F3994209D17978012901D051
:10963000012100E0002151407A6802B19047761C78
:10964000F6B220788642D9D3BDE8F081F01C002024
:109650000E4910B50A784C780023A24212D0521C51
:10966000D2B20A70022A00D10B70084A0B780C3271
:1096700052F8232002608868104420F07F40886000
:10968000012010BD0360002010BD0000041D00205B
:109690002DE9F041124E07460125BD403068FFF725
:1096A00003FA00280DD10F4C2069284207D1384613
:1096B00000F038FC0028E06805D0284304E0A84307
:1096C0002061BDE8F081A843E06020692843206163
:1096D000A1683068BDE8F0410022FFF7A1B90000A1
:1096E0006CA80100F01C00200A4810B5807860B119
:1096F000002401E0022C06D02046FFF7F9FB641C91
:10970000042CF7D310BD0324F6E7BDE81040FFF7A3
:1097100025BC0000E01C002003480179C90702D0E5
:109720000078FFF7F3BC7047E01C002006490120D9
:10973000086006480168C1F300410029FAD10449D4
:1097400000208870704700000C00004018040040A2
:10975000181E0020172101804180002101714171F4
:10976000704700002DE9F047394E002780463D46FE
:10977000DFF8E090D6F804A057E003D00446D0F814
:109780001C8035E099F8002002EB4201521CD2B255
:1097900089F8002009EBC10199F80230091D9A42AD
:1097A00001D189F8005048680A780446012A12D08D
:1097B000022A02D0032A3BD108E000F013FF00B1D7
:1097C0000127257434E00574C06900E07068002842
:1097D000F9D170602CE0207C50BB88686060C8685C
:1097E000A0600869E0604869A061F07800B1656038
:1097F0006268B168184B501A20F07F40984202D23C
:10980000A168084406E0881AA16820F07F408142E0
:1098100002D9081A206000E0256065600120A5607B
:1098200020742046E56100F0BFFEB8F10000A4D12D
:1098300099F8001099F801008142A3D117B9716815
:10984000514502D00120BDE8F0870020FBE7000071
:10985000041D0020A41E0020FFFF7F0092B0002600
:10986000FFF7B4F808B1FFF793F85B4A01215B48B2
:10987000FFF79AF808B1FFF78BF85848584A0021CB
:10988000001DFFF791F808B1FFF782F800210320CF
:10989000FFF7F2FB08B1FFF77BF80020FFF706FBAC
:1098A000050003D10120FFF701FB064600F054FC40
:1098B00008B1FFF76DF8002403A90120039400F01C
:1098C000E3FB08B1FFF764F803A800F01BFC08B144
:1098D000FFF75EF855EA060003D132DF08B1FFF763
:1098E00057F89DF810003FA120F00F00401C20F019
:1098F000F00010308DF81000112204A87CDF08B1B0
:10990000FFF746F801941020ADF804000294ADF87A
:109910000600ADF808404FF4C870ADF80A0001A881
:109920007ADF08B1FFF734F80021334800F008F976
:1099300008B1FFF72DF8304A1E2102F11000146122
:1099400054619461D461E5B10470047220224281B3
:10995000818141F22350ADF8000020480DF1020151
:10996000083062DF08B1FFF713F8244A6946012086
:10997000A0DF08B1FFF70CF89DF80200FFF7E0FC4C
:1099800005E0032202700472A02242818181052435
:109990003C216846FEF79AFC5920ADF83C0018209F
:1099A000ADF8400014488DF80340343011900FA8F2
:1099B000099000216846FFF79AF908B1FEF7E8FF21
:1099C0000D480121103073DF00E03EDF0028FCD09D
:1099D000FEF7DEFFF9E70000ED9501000CA801009D
:1099E000019B01004E6F726469635F506F7765720F
:1099F0005F4D676D74000000601D0020D41C0020C6
:109A000070B5144682880E4605462088111D014413
:109A1000921C994201D8FE2A01D90C2070BD521C1B
:109A200032542088FF21401C80B22080315420888D
:109A3000401C80B220808119288800F061FE2188B6
:109A4000084480B22080AA8842B1A96841B130445C
:109A5000FEF723FC2088A98808442080002070BDE0
:109A6000072070BDF8B50E46017814460546012959
:109A700001D1687830B12088821C9A422DD8012902
:109A800002D006E00720F8BD69780144891C99429C
:109A900023D8181A801E87B2ADF800702188B01C38
:109AA000084469467DDF0028EDD12878022805D1D9
:109AB000BDF80010B94201D809210AE008210128A7
:109AC00005D16878B84202D8ADF8000001E0ADF8E1
:109AD0000070BDF80000FE2801D90C20F8BD2288D6
:109AE000401CB0542088401C80B220803154208813
:109AF000401C2080BDF80010084420800020F8BDE4
:109B0000094810B50068FEF7CFFF08B1FEF740FF27
:109B100006481321408876DF002803D0BDE81040B6
:109B2000FEF736BF10BD00000CA80100D01C0020BD
:109B3000C20800F007030120895C98400840704784
:109B400010B560B1C160172120F8021B20F8021B7C
:109B50001B2100F8021BFFF7FDFD002010BD0E20A9
:109B600010BD00002DE9FC4786880C46002E4AD126
:109B7000018801270025102908D0112920D0DFF8FD
:109B8000EC903A2920D0552965D13EE0C07B04F104
:109B90000608012802D12088A8F80000B8F80010B3
:109BA000B8F80200814256D930469EDF10B1112824
:109BB00003D050E088F805704DE088F804704DE05F
:109BC000A01DFFF7C7FD46E02246408934F8061F76
:109BD000814200D808466080172800D21720608094
:109BE000D06870B1607960B1D9E90010CDE900109A
:109BF000ADF802606088ADF80400D368694610468D
:109C0000984765712571BDE8FC87C08804F1060896
:109C1000172800D21720B8F80010814200D8084653
:109C2000A8F8020088F804502846B8F80010ADDF04
:109C300098F8050078B9E06868B1D9E90210CDE973
:109C40000010ADF80260B8F80200ADF80400E26858
:109C5000204669469047A07A0028D4D02846E1885B
:109C60009EDF0028CFD1A572E772CCE758A801008B
:109C700000F180400068002800D00120704708B53E
:109C800000F18040002101600068009008BD0000E4
:109C900000283ED01F49204A096800BF00BF00BF0E
:109CA00000BF00BF00BF00BF00BF91422FD000BF68
:109CB00000BF00BF00BF00BF00BF00BF00BF00BFAC
:109CC00000BF00BF00BF00BF00BF00BF00BF00BF9C
:109CD00000BF00BF00BF00BF00BF00BF00BF00BF8C
:109CE00000BF00BF00BF00BF00BF00BF00BF00BF7C
:109CF00000BF00BF00BF00BF00BF00BF00BF00BF6C
:109D000000BF00BF00BF00BF00BF00BF00BF0138E1
:109D1000C3D170471C1D00200024F40070B50F4C07
:109D20000025207808B1852516E00021A16061603A
:109D30002161E1604FF0E020D0F80001012610F031
:109D4000010F03D10721002000F022F800F04CFAA7
:109D500008B9034806602670284670BD181E00200A
:109D60001805004008B500208DF800006846FEF791
:109D7000ABFE0648C168491EC160C06808B9FFF75C
:109D8000D5FC9DF80000FEF7C3FE08BD181E00209C
:109D90004907090E002806DA00F00F0202F1E0225E
:109DA00082F8141D03E000F1E02282F8001400F0B4
:109DB0001F02012191404009800000F1E020C0F81D
:109DC0008012C0F8001170472DE9F0418846054621
:109DD00000F088FA234E002828461AD0FFF7A8FA88
:109DE000304490F848008009032802D001280ED0A2
:109DF00007E04FF0A040D0F81005E84010F0010F48
:109E000005D003212846BDE8F04100F0F1B8022159
:109E1000F8E700F073FA002822D02846FFF788FA06
:109E200004464FF4807000EB84000F4F81B207EBC3
:109E30008400D0F8102542F00102C0F81025084631
:109E400000F006F9B8F1000F0AD02846FFF770FAC3
:109E500056F82000002803D00120A040C7F80403D2
:109E6000BDE8F0812C1E0020006000402DE9FC417F
:109E7000DFF8A480044608EB0400002790F93000C6
:109E80001346C0170E46401C01D0082741E0F27867
:109E900019462046FFF728FA0546401C38D0B0780E
:109EA00050B14FF0A04000EB8400D0F8001721F033
:109EB0000201C0F8001707E00021737820460091E6
:109EC0000A46019100F082F8F078C0B11348317869
:109ED00000EB8500D0F81025114B1A40C0F8102572
:109EE0004FF4F8524FF4403302EA042203EA0141EE
:109EF0000A43D0F810150A43C0F8102509E008EB12
:109F00000500327810F8481F41EA8211017000E024
:109F100004273846BDE8FC812C1E0020006000406C
:109F2000FFE0FCFF4FF0A041D1F81015C14011F047
:109F3000010000D00120704770B5144D95F8540011
:109F400008B1082070BD0020411E2A18401CC0B274
:109F500082F830102028F8D300242046FFF7B6F905
:109F6000641CE4B20C2CF8D307210620FFF710FF85
:109F70004FF4BE7000F06CF805494FF00040C1F896
:109F80000403012085F85400002070BD2C1E002021
:109F900000600040034890F85400002800D00120E1
:109FA000704700002C1E002070B541EA4201DDE937
:109FB00004564FF0A04441EA830141EA052104EB35
:109FC000800041EA0641C0F8001770BD70B541EA53
:109FD0004201DDE904564FF0A04441EA830141EA21
:109FE000052104EB800041EA0641C0F8001770BD6E
:109FF0004FF0A04202EB8000D0F8002722F440325C
:10A00000C0F80027D0F8002742EA0141C0F8001745
:10A01000704701224FF0A043824011B1C3F80825D8
:10A020007047C3F80C25704718B5084B6C460144BF
:10A030001B68009306E000BF54F82030D3F81035B9
:10A04000401C08C28142F7D818BD000068A8010072
:10A05000034908B50844002101600068009008BD6C
:10A060000060004002494058012800D0002070479D
:10A070000060004020B1034909680160002070477A
:10A080000E207047ECA80100FEB502460C460846BB
:10A09000FFF7F0FF002834D1002500950195012637
:10A0A00003208DF80020ADF8040002958DF80260C1
:10A0B00069462020226869DF0095019502958DF898
:10A0C000006069464020226869DF0095019502958D
:10A0D0008DF8006069460120226869DF4FF4B060A6
:10A0E0000090019502956946A120226869DF0095DC
:10A0F000019502958DF800506946A020226869DF1D
:10A100000020FEBD60DF704730B58FB05FF02C05DA
:10A11000ADF838500EA903A861DF30B1052816D07C
:10A120000FB0BDE83040FEF733BC03AC09496846C8
:10A1300000F07EF807E000BFD0E9002120469047FC
:10A14000684600F08CF802980028E1D0F4E70FB0E0
:10A1500030BD0000F0A8010038B5174C207808B1D8
:10A16000082038BD0125A570002000F03DF9112818
:10A1700020D0002000F050F91048114900680090EC
:10A18000684610DF0028ECD12570A07060700721B0
:10A19000162000F0DDF808B1FEF7FAFB07211520C4
:10A1A00000F0D6F808B1FEF7F3FB00F095F90120B6
:10A1B00000F032F9002038BD181D002084A80100ED
:10A1C000618901000EB50749684600F031F805E0E5
:10A1D000D0E900108847684600F041F8029800284E
:10A1E000F6D10EBDA0A8010001480078704700001C
:10A1F000181D00201FB5684648DF30B1052814D06F
:10A2000004B0BDE81040FEF7C3BB084901A800F048
:10A210000FF806E0D0E900210098904701A800F06F
:10A220001EF803980028E6D0F4E71FBD0CA9010032
:10A23000016009684160AFF3008010B5D0E90021EA
:10A240005368994201D1002104E0D1E90034A342CE
:10A2500002D01946816010BD08314160F0E7816885
:10A2600000290BD0026892680A44826041684B68FA
:10A270009A4203D108314160FFF7DFBF7047000009
:10A2800010B5164A30F8061F9288914224D14189B0
:10A29000022921D10C30FEF705FE1049891F0870F4
:10A2A000B0B10F4C002240F28F212068FEF7B8FBBE
:10A2B00008B1FEF76DFB00224FF420316068FEF715
:10A2C000AFFB08B1FEF764FBBDE81040FFF7AAB88A
:10A2D000BDE81040FEF736BC10BD0000D61C0020C3
:10A2E0000CA801000449084490F93000082801DB5B
:10A2F00001207047002070472C1E002004490844AC
:10A3000090F93000082801D20120704700207047E2
:10A310002C1E002070B5012670044FF0E0210025AE
:10A32000C1F88001084C4010C4F84803C4F8080381
:10A3300066602F20FFF7ACFCA660044C2F20A560C0
:10A34000FFF7A6FCA57070BD00100140041D0020A1
:10A3500070B50D460446FEF799FA70B12846FEF72F
:10A36000A7FA68B16807000E002C0CDA04F00F01A0
:10A3700001F1E02181F8140D09E042F2010070BD05
:10A3800042F2020070BD04F1E02484F800040020D1
:10A3900070BD000038B50021012558B101280ED04C
:10A3A00003280BD107210020FFF7F2FCBDE838405D
:10A3B000FFF7D8BC4FF0E020C0F8805138BD8DF8D1
:10A3C00000106846FEF780FB064C207808B9FFF7BE
:10A3D000A5FCE068401CE060A5709DF80000FEF759
:10A3E00097FB38BD181E00203EB504460949684653
:10A3F000FFF71EFF08E000BFD0E90021204690478C
:10A4000030B16846FFF72BFF02980028F4D13EBD1B
:10A4100011203EBD88A801003EB5044608496846A3
:10A42000FFF706FF07E000BFD0E900212046904774
:10A430006846FFF714FF02980028F5D13EBD0000E2
:10A4400094A801002DE9F0410746806A1446884629
:10A45000C8B3002531E000BFB96A05EB450001EB48
:10A460008006B088801CFE2802D90C20BDE8F0814F
:10A470002288401C08F8020020881622401C80B266
:10A48000208008F800202088401C80B2208000EB4B
:10A490000801308800F034F92188084480B2208017
:10A4A000B28842B1B16871B14044FDF7F6FE208830
:10A4B000B188084420806D1CEDB297F82C00A842AA
:10A4C000CAD80020D2E7FFE70720CFE7002801D154
:10A4D000FEF7DEBF7047000010B51620FEF7D6F974
:10A4E00080B10F4890F800044009FEF7E1F960B12F
:10A4F0000C4882684FF480016AB1016841F4800120
:10A50000016010BD42F2010001E042F20200BDE82C
:10A510001040FEF73DBA4FF0E020C0F8001110BD2A
:10A5200016E000E0B01F00202DE9F84F1D4C00257B
:10A530006846D4E901A6FFF78BF8002738B300235B
:10A54000009A61681CE0D1F800C00846944503D920
:10A55000ACEB02020A6015E0A2EB0C026344076058
:10A56000D0F80CC0C1698146BCF1000F08D006EBE1
:10A57000030828F07F48C0E9018CC9F81C50054643
:10A580000029E0D128466160FFF7ECF803E0284697
:10A59000FFF7E8F810B15046FEF78EFFE770BDE810
:10A5A000F88F0000041D00200D4B10B5596831B123
:10A5B00002680C68A24204D8A21A0A60C1615860FD
:10A5C00010BD0B4603E00B46C969121B21B10C6894
:10A5D0009442F8D3A41A0C600260C161D86110BD26
:10A5E000041D00202DE9F041144E77683D462C46AD
:10A5F00003E0844204D02546E469002CF9D11BE035
:10A60000D4B1A5420BD1F869706040B90C49012062
:10A6100088600021B160F0702F20FFF739FB2168BE
:10A62000E069E86110B10268114401607068874216
:10A6300002D00120BDE8F0810020FBE7041D0020CE
:10A64000001001407CB5064600240D468DF8004000
:10A650006846FEF739FA01A800F058F870B10570A5
:10A66000094946609DF8040048709DF80000FEF717
:10A670004FFA1420FDF736FF20467CBD04249DF8D8
:10A680000000FEF745FAF7E7A41E00202DE9F0418F
:10A69000194D6C68002C2CD0184800270068A96858
:10A6A000B846401A20F07F462068B0420CD82146B8
:10A6B000361A0744E469087C20B181F81080886963
:10A6C00049698847002CEFD129786878814206D102
:10A6D000401CC0B26870022801D185F8018006488C
:10A6E00069780C3040F82170BDE8F0411420FDF786
:10A6F000F9BEBDE8F0810000041D002004150140F2
:10A700000870000A48700220704700000A494A7821
:10A710008B78521CD2B2934200D100220B78934224
:10A7200001D1002070470270487800EB400001EB37
:10A73000C000001D70470000A41E00202DE9FC4150
:10A740001646DDE90854CDE900541F468046022232
:10A7500000F00CF8002807D1CDE900543B46102248
:10A760003146404600F002F8BDE8FC812DE9FC5F6F
:10A770000026DDE90C4B994692468E468046278896
:10A78000354630E0D8F80400002200EB8500694629
:10A790000068019001A864DF002830D19DF8000016
:10A7A00050451FD10EB1002100E00221228808444B
:10A7B0001118594522D846B9521C90B2208009F888
:10A7C00000E02088401C20800126218801A801EBA0
:10A7D0000902694664DF002811D120889DF8001025
:10A7E000084420806D1CB8F80000A842CADC56B1AD
:10A7F0002088C01B401E80B2FF2802D90C20BDE873
:10A80000FC9F09F807000020F9E70000201D002048
:10A81000401D002023D1BCEA5F782315DEEF121221
:10A8200000000000111213140D0E0F10AC1D0020BB
:10A83000CC1D0020F81D00200D000300A58F010095
:10A840000E000300A58F01000F000300A58F01007B
:10A8500010000300A58F0100770A0000000000002F
:10A86000770A00000000000000000050841E002055
:10A8700003000000000000000000000000000000D5
:10A88000000000000100000774A8010084A8010076
:10A8900008000000ACA80100BCA8010008000000EE
:10A8A000BCA80100CCA801000800000060A90100BC
:10A8B00068A90100000000000000000050A901008C
:10A8C00060A901000000000000000000000000007E
:10A8D0000000000038A9010040A9010000000000AC
:10A8E0000000000040A9010048A90100D01C002080
:10A8F000CCA80100ECA801000800000048A9010054
:10A9000050A901000000000000000000FCA80100A8
:10A910000CA901000800000068A90100D01C00205B
:10A92000500000006C880100B8A90100201D002023
:10A93000A00A00007C880100659B0100601D0020CA
:10A94000B98D010000000000CDA40100000000004E
:10A9500009A1010000000000F5A1010000000000B5
:10A9600095A30100000000000000FFFF00000000B0
:10A9700000000000000000000000000000000000D7
:10A9800000000000000000000000000000000000C7
:10A9900000000000000000000000000000000000B7
:10A9A00000000000000000000000000000000000A7
:08A9B000000000000090D0033C
:040000050001820173
:00000001FF
