:020000040000FA
:1000000080280020E9030000F1030000F303000052
:10001000F5030000F7030000F903000000000000F2
:10002000000000000000000000000000FB030000D2
:10003000FD03000000000000FF03000001040000B9
:100040005907000003040000E10900000304000058
:100050000304000003040000310500000304000055
:100060000304000003040000030400000304000074
:100070000304000003040000030400000304000064
:1000800003040000B10700000304000003040000A3
:10009000D50700000304000003040000030400006F
:1000A0000304000003040000030400000304000034
:1000B0000304000003040000000000000000000032
:1000C0000304000003040000030400000304000014
:1000D0000304000003040000030400000304000004
:1000E00003040000030400000304000000000000FB
:1000F00000000000030400000000000003040000F2
:1001000000000000000000000000000000000000EF
:1001100000000000000000000000000000000000DF
:1001200000000000000000000000000000000000CF
:1001300000000000000000000000000000000000BF
:1001400000000000000000000000000000000000AF
:10015000000000000000000000000000000000009F
:10016000000000000000000000000000000000008F
:10017000000000000000000000000000000000007F
:10018000000000000000000000000000000000006F
:10019000000000000000000000000000000000005F
:1001A000000000000000000000000000000000004F
:1001B000000000000000000000000000000000003F
:1001C000000000000000000000000000000000002F
:1001D000000000000000000000000000000000001F
:1001E000000000000000000000000000000000000F
:1001F00000000000000000000000000000000000FF
:10020000DFF80CD000F082F900480047091900001F
:100210008028002030B4044654E8000F0D4644E81E
:100220000053002BF8D1156030BC704730B4044641
:1002300054E8000F40EA010544E80053002BF7D1D1
:10024000156030BC704730B4044654E8000F00EA33
:10025000010544E80053002BF7D1156030BC70470E
:1002600030B4044654E8000F80EA010544E8005326
:10027000002BF7D1156030BC704730B4044654E809
:10028000000F00EB010544E80053002BF7D1156087
:1002900030BC704730B4044654E8000FA0EB0105B1
:1002A00044E80053002BF7D1156030BC70470000C4
:1002B00030B4044654E8000F0D4644E80053002BC8
:1002C000F8D1156030BC704730B4044654E8000FD4
:1002D00040EA010544E80053002BF7D1156030BC1B
:1002E000704730B4044654E8000F00EA010544E8C2
:1002F0000053002BF7D1156030BC704730B4044672
:1003000054E8000F80EA010544E80053002BF7D1C0
:10031000156030BC704730B4044654E8000F00EB61
:10032000010544E80053002BF7D1156030BC70473D
:1003300030B4044654E8000FA0EB010544E8005334
:10034000002BF7D1156030BC7047000030B4044674
:1003500054E8000F0D4644E80053002BF8D1156017
:1003600030BC704730B4044654E8000F40EA010541
:1003700044E80053002BF7D1156030BC704730B40F
:10038000044654E8000F00EA010544E80053002B3E
:10039000F7D1156030BC704730B4044654E8000F04
:1003A00080EA010544E80053002BF7D1156030BC0A
:1003B000704730B4044654E8000F00EB010544E8F0
:1003C0000053002BF7D1156030BC704730B40446A1
:1003D00054E8000FA0EB010544E80053002BF7D1CF
:1003E000156030BC7047000006488047064800474B
:1003F000FEE7FEE7FEE7FEE7FEE7FEE7FEE7FEE7D5
:10040000FEE7FEE7D9070000010200002DE9F05FDA
:100410000546002092469B46884606468146402473
:100420001BE0284641464746224600F05FF8534607
:100430005A46C01A914110D311461846224600F080
:1004400046F82D1A67EB01084F462246012000218D
:1004500000F03DF817EB00094E41201EA4F1010405
:10046000DFDC484631462A464346BDE8F09F00009F
:10047000004870474C39000040EA01039B0703D055
:1004800009E008C9121F08C0042AFAD203E011F8D3
:10049000013B00F8013B521EF9D27047D2B201E095
:1004A00000F8012B491EFBD270470022F6E710B579
:1004B00013460A4604461946FFF7F0FF204610BDD2
:1004C000421C10F8011B0029FBD1801A7047202A1A
:1004D00004DB203A00FA02F1002070479140C2F19B
:1004E000200320FA03F3194390407047202A04DBCD
:1004F000203A21FA02F00021704721FA02F3D0409D
:10050000C2F120029140084319467047064C074D3E
:1005100006E0E06840F0010394E8070098471034D3
:10052000AC42F6D3FFF770FEE8390000083A00004D
:100530002DE9F04F00268FB0DFF8B081B14602966A
:100540004FF48075012437460396284601F0B4FF26
:1005500038B1D8F80403204203D0284601F0A2FFA6
:1005600026432D1D64007F1CADB2082FEDD34FF440
:10057000BE74204601F0A0FF48B1204601F092FF72
:1005800046F0004602AA0221002001F075FF584CF7
:1005900016F0FF0F15D00127002537420DD008EBCC
:1005A0008501D1F81005D1F81015C0F3052054F8D5
:1005B0002520C1F3014102B190477F006D1C082D39
:1005C000EBD3002E7DDA0020CDF82890411E0DF1EE
:1005D000080B08AACDF82C9042F82010401C914638
:1005E0000228F9D300252E46A01910F8607F90F953
:1005F000000027F0C008401C49D008A9404601F07F
:1006000068FA88B34FEA971A404600F00BFF54F897
:1006100020701FB1BAF1030F03D00FE0BAF1030F3E
:1006200035D10AA84FEAD80208F00703815C4FF0E1
:10063000010C0CFA03FC41EA0C01815406A8CDF828
:10064000188001F0D5FE069900EB8100D0F8000774
:1006500002A9C0F301400690404601F03AFA002892
:10066000069802D0022802D011E003280FD1BAF177
:10067000030F08D10698022832D00221404601F02B
:1006800091FE6D1CEDB217B151464046B847761C3D
:10069000042EA9D3002D20D004AA0221002001F0AD
:1006A000EBFE00205A4604A952F8206051F8203091
:1006B000B34217D000200AAE4FEA090351F8207068
:1006C00000E00AE042F8207056F8207043F82070ED
:1006D000401C0228F2D3002D84D10FB0BDE8F08F6A
:1006E0000321CBE7401C0228DED3F6E70060004080
:1006F0008001002000F01F0201219140400980008C
:1007000000F1E020C0F88012704700F01F020121C4
:1007100091404009800000F1E020C0F800117047CE
:1007200000F01F02012191404009800000F1E0200B
:10073000C0F8001270474907090E002806DA00F0D9
:100740000F0000F1E02080F8141D704700F1E02058
:1007500080F80014704700002DE9F0414FF48077D5
:10076000384601F0BEF90124104EA50748B13846BD
:1007700001F0BEF90120C5F808037470002000F0F4
:1007800059FE4FF48277384601F0ABF900280BD0C0
:10079000384601F0ADF90220C5F80803B470BDE891
:1007A000F041012000F046BEBDE8F0816C01002060
:1007B00007480021C0F84011C0F84411C0F84811A2
:1007C000C0F84C11C0F80011C0F8041102F01EBEB0
:1007D0000010014002F06CBD30B54FF08050002297
:1007E000D0F830110123082902D1D0F8344114B1D6
:1007F000082909D00BE04FF08041C1F80C21C1F865
:10080000102168490A6005E0D0F8344114B1082984
:1008100057D059E064490968644C21606249091D58
:100820000968241D2160604908310968241D216080
:100830005D490C310968241D21605B49103109684C
:10084000241D2160584914310968241D216056492E
:1008500018310968554C2034216053491C3109680E
:10086000241D2160504920310968241D21604E4912
:1008700024310968241D21604B4928310968241D51
:10088000216049492C310968241D216046493031D5
:100890000968464C40342160434934310968241DBD
:1008A0002160414938310968241D21603E493C31AD
:1008B0000968241D21603C4940310968241D2160DC
:1008C00005E0D0F8344114B1082904D006E0394CD1
:1008D0003749216005E0D0F8344114B1082904D02B
:1008E00006E0354CFB21216005E0D0F8344114B11D
:1008F000082908D00AE090F858423048016864F3AB
:100900000301016005E0D0F8344114B1082905D095
:100910000EE02B494FF40070086002E0D0F834017B
:1009200030B928480168C90702D06FF001010160A1
:100930002548016841F470010160BFF34F8FBFF398
:100940006F8F4FF01021D1F80002002803DBD1F89F
:100950000402002822DA1D4C23601D480368002B86
:10096000FCD01223C1F800320568002DFCD0C1F87C
:10097000043201680029FCD0226001680029FCD003
:10098000BFF34F8F10487C380168124A01F4E061D0
:1009900011430160BFF34F8F00BFFDE70F490E48C1
:1009A000086030BD380500400404001020C5004038
:1009B000488103008C56004018F50040E40E0040CA
:1009C000409602400004004088ED00E004E501404C
:1009D00000E401400400FA050090D003B4000020B8
:1009E0000448017F04480029024901D002F023BED7
:1009F00002F092BDE80100200020004002E008C89B
:100A0000121F08C1002AFAD170477047002001E088
:100A100001C1121F002AFBD17047022000F0BCB9AF
:100A200070B50024084D05E0686810F8340001F046
:100A300029F9641C28788442F6D304480068BDE88C
:100A4000704000F01DB9000014000020483800007C
:100A500070B50024064D06E06868012110F83400E6
:100A600001F034F9641C28788442F5D3002070BD6D
:100A700014000020F8B515460C460646052A01D29A
:100A80000720F8BD01F004FA18B901F0D3F90028E5
:100A9000F7D1104900204E600C70C1E902500E4D94
:100AA00008610DE006EBC4006968009181788DF85B
:100AB00001100078094A694601F054F90028E0D194
:100AC000641EE4B2EED2BDE8F840054A00210248B7
:100AD00000F05AB81400002048380000A9150000A2
:100AE0000915000001F05EFF01F0C2FD0028FBD1F6
:100AF000104C0121208801EB00400FA101F0AAFE5B
:100B000010480068C00700D000BE2088022101EB19
:100B100000400DA101F09EFEBFF34F8F0948E4385D
:100B200001680D4A01F4E06111430160BFF34F8F8A
:100B300000BFFDE7F4000020466174616C2065721F
:100B4000726F7200F0ED00E053797374656D20727E
:100B500065736574000000000400FA050EB50021FD
:100B60000091CDE901106A4644F20100FFF7BAFF97
:100B70000EBD401A20F07F40704700000148006819
:100B80007047000004150140074B9B7823B12AB140
:100B900020B10068037C1BB1082070470720704714
:100BA00041744261002070472802002070B502F0B5
:100BB000ADF9104800240B21047044700E4D817073
:100BC00014206C602C706C70FFF794FD07211420CA
:100BD000FFF7B1FD1420FFF798FD084804600721D6
:100BE0001120FFF7A8FD0548001F0068A86000203D
:100BF00070BD0000280200202800002008150140D8
:100C00002DE9F843DFF8709099F802305BB350B3E8
:100C1000052902D20720BDE8F88343691BB3437C52
:100C2000012B22D000270446002588461646284678
:100C300000F042F8684602F0D1FDC0B10121017018
:100C40000E4944600968C0E90218C0E904769DF8BD
:100C5000000089F80100002000F030F81420FFF7B0
:100C60005FFD2846D7E70820D5E70F46DBE70425D8
:100C7000002000F023F8F4E72802002004150140CA
:100C80000649897839B130B1416921B10021017437
:100C9000022102F09BBB08207047000028020020C0
:100CA0000448807818B10321002002F08FBB08208F
:100CB000704700002802002000F002B800F008B8D9
:100CC00072B602480168491C016070473C00002070
:100CD00003490868401E086000D162B670470000F2
:100CE0003C00002070B5054608680C46411C04D045
:100CF00001F0A5FB206801F030FB6068411C02D0C8
:100D0000002101F021FB28791F4901EB40102968DF
:100D1000007F0028A069C1F8240523D0607D227DD2
:100D200029681043C1F86C05D4E900122868C0F89E
:100D30000C15C0F8142522E0A068411C02D0002147
:100D400001F002FBE068411C04D001F078FBE06890
:100D500001F003FBD4E902122868C0F80825C0F8A6
:100D6000101570BD607D217D2A680843C2F86C05AE
:100D7000D4E900122868C0F81425C0F80C15207DAD
:100D80000128D9D070BD0000E80100200149085CAD
:100D90007047000010380000094908B5085C009051
:100DA000684601F017FBD0F80425009B012199400B
:100DB00021EA0203C0F808351140C0F80C1508BD3F
:100DC0000C3800000249085C012101F042BB000020
:100DD0000C3800000249085C002101F03ABB000019
:100DE0000C380000084908B5085C0090684601F01E
:100DF000F1FAD0F804050099C84010F0010000D0C5
:100E0000012080F0010008BD0C3800007CB50024F2
:100E1000084E25460122305D0095002311460195BC
:100E200001F03EFA641C042CF4D3BDE87C4000F0D1
:100E300003B800000C38000010B500242046FFF76E
:100E4000C1FF641C042CF9D310BD10B5002420464A
:100E5000FFF7C0FF641C042CF9D310BD10B5024687
:100E6000064B4FF0FF3000215C5C944201D10846F4
:100E700010BD491C0429F7D310BD00001038000034
:100E80002DE9F0470D468146FFF7E8FF04460428A8
:100E900036D2DFF874801B481C4EA8F10C0725B32E
:100EA000012D0ED0022D2BD104EB440030444578A7
:100EB000002D25D0B968002922D02846BDE8F0478A
:100EC000084704EB4401755C0E44717849B10E4A41
:100ED0004FF40041093A8068FFF792FE08B987F89D
:100EE0000390B17808F80410E2E78068FFF7C8FEC5
:100EF00004EB4401314418F804008D78A842D7D09F
:100F0000BDE8F087143800001000002040010020E8
:100F1000FFF786BD10B51949022000F0C1F808B1ED
:100F2000FFF71CFE0C220221012000F029F808B175
:100F3000FFF714FE0A220021012000F021F808B179
:100F4000FFF70CFE00220121104600F019F808B14D
:100F5000FFF704FE00210E22084600F011F808B148
:100F6000FFF7FCFD09220021022000F009F800280B
:100F700003D0BDE81040FFF7F1BD10BDC50F000064
:100F800070B50023042810D20D4D00EB4004012A57
:100F900002D101290CD00022094E00EB4000304460
:100FA00061B1012906D0022906D00723184670BD79
:100FB0000E30C2B22A55F9E74270F7E78270F5E7C2
:100FC000400100202DE9F041074601F0C9FD1B4D0D
:100FD00003261BA1288806EB004001F03BFC092FEB
:100FE00029D01D4C0A2F1FD001200C2F19D00E2FF5
:100FF00018D1617831B100206070288817A106EB04
:10100000004004E0607028881DA106EB004001F05C
:1010100021FCA078002805D06078002802D00420A8
:1010200005E02070BDE8F081207800B10120BDE826
:10103000F04101F01BBE0320F9E70000F40000209E
:10104000506F776572206D616E6167656D656E7456
:10105000206665640000000000000020537973746E
:10106000656D206973206E6F7420726561647920EC
:10107000666F722073687574646F776E000000008D
:1010800053797374656D206973207265616479208A
:10109000666F722073687574646F776E000000006D
:1010A00070B506461E480024C0E90161B00720D58E
:1010B0000025012211462846FFF762FF6D1C0446F9
:1010C000042D02D2002CF4D013E094B940F26662F1
:1010D00004211448FFF7CEFC04000AD1FFF7B8FC46
:1010E000040006D10F48104A0021001FFFF74CFDF5
:1010F0000446F00701D0FFF789FE74B909480B4A8E
:1011000000210C38FFF740FD040006D10548084ACD
:1011100001210838FFF738FD0446204670BD000065
:101120000400002020380000B913000069170000F7
:101130001B0A00002DE9F05F6A4C05460026607826
:10114000B34618B184F801B000F0F6FA664F4FF4D8
:101150007A694FF4C87A4FF00108182D62D2DFE89F
:1011600005F0AC0C0C31404D62676B746B74BE7D46
:101170007D7D7D7DACAFB2B5BEBE0020FFF732FEF7
:1011800000284FF0000008D0FFF71CFE022D02D10E
:101190004FF4E16008E0484606E0FFF71BFE022D31
:1011A00001D1C82000E05046410CC0034FF4FA7250
:1011B000801841F10001257052000023FFF726F945
:1011C00001462AE00020FFF70DFE00284FF0000046
:1011D00004D0FFF7F7FD4FF44870E5E7FFF7FAFD9D
:1011E000DFE70020FFF7FEFD00284FF0000002D0EF
:1011F000FFF7E8FDCFE7FFF7EDFDD4E70020FFF7AD
:10120000F1FD00284FF0000002D0FFF7DBFD01E008
:10121000FFF7E0FD257041F69A1100223868FFF7CC
:10122000EFFC064646E00020FFF7B6FD257008E01B
:10123000002051E025703DE084F801800120FFF797
:10124000ABFD002240F6CD41E8E784F801800120A3
:10125000FFF7A2FD00224FF48041DFE77868FFF737
:101260000FFD0646D5F1110000D02EB10220FFF788
:10127000A9FD84F802B01DE0012816D980B2C8216A
:101280004843C117C90341EA5041C0034FF4FA7201
:10129000801841F1000152000023FFF7B7F8014622
:1012A00000227868FFF7ACFC06460220FFF792FDAB
:1012B00084F802803046BDE8F09F00F03DFAB9E7BF
:1012C00000F03AFAB4E700F037FA04E000F034FA3C
:1012D0000020FFF77FFD0120FFF77CFDAAE7FFF765
:1012E000B4FDA7E7040000201438000010B500206A
:1012F000FFF7E2FC05480068400702D104490120DD
:1013000088600020FFF7DAFC002010BD1054004078
:101310000050004010B5FFF739FD032101F028F817
:10132000002010BD2DE9F041871C0E46012500204C
:10133000FFF7C2FC124C20683060D4E90001401A6B
:10134000A168091ABE1C06E000F094FAD4E9000175
:10135000401AA168091A491C8E42F5D8A168206874
:10136000084004EB8000C16841F00301C1602068BF
:10137000384420600020FFF7A1FC2846BDE8F0813A
:101380006004002030B482680468531C8360A15458
:10139000D0E901128A4202D330BC00F088BE30BCD2
:1013A00070470000034803C8814201D10120704703
:1013B000002070476004002000780221FFF760BD24
:1013C00005494FF0FF32082841F8202002D3084495
:1013D00080F858207047000080010020F0B54FF0E1
:1013E000FF3512B10023082601E008230C260C4C1F
:1013F00005E000BF54F823707F1C04D05B1CB3428F
:10140000F8D32846F0BD26185DB286F8305044F86F
:101410002310002AF5D1E11881F85800F1E7000007
:10142000800100200249084490F930007047000014
:101430008001002070B5084C050009D010342168E7
:10144000002907D008682060496828468847F6E7E1
:101450000834F4E770BD00006C0100202DE9F05F56
:1014600026484168F1B3DFF898B00E688146DBF892
:10147000004087688078E11B21F07F45ED1CB0B902
:10148000DFF880804FF48030C8F84403C8F80403C4
:101490001120FFF72FF91120FFF737F94FF0010A5C
:1014A000C8F800A02F2000F02BFB89F802A0B5425D
:1014B00000D23546124BE8193C3320F07F401860CB
:1014C000DBF800105A46091B21F07F41001B20F079
:1014D0007F40C91C81420FD9106818602F2000F08E
:1014E0000FFB00E004E0BDE8F05F1120FFF718B942
:1014F000BDE8F05F01F00ABDBDE8F09F28000020C4
:1015000004150140001001402DE9F041002601259D
:10151000144C22E06068226900EBC607387805FAAF
:1015200000F1114217D08A43226100F07BFC024691
:101530003878E36805FA00F1194002FA00F399429D
:1015400009D17978012901D0012100E00021514021
:101550007A6802B19047761CF6B220788642D9D3D9
:10156000BDE8F081140000200E4910B50A784C78CF
:101570000023A24212D0521CD2B20A70022A00D119
:101580000B70084A0B780C3252F8232002608868EE
:10159000104420F07F408860012010BD03600020CF
:1015A00010BD0000280000202DE9F041124E074632
:1015B0000125BD403068FFF763FB00280DD10F4CBB
:1015C0002069284207D1384600F02CFC0028E0684A
:1015D00005D0284304E0A8432061BDE8F081A8437A
:1015E000E060206928432061A1683068BDE8F041CF
:1015F0000022FFF705BB000048380000140000205F
:101600002DE9FC5F0E008346DDE90C47C6F10000C2
:1016100098469246814600D40846012503E000BF63
:1016200090FBFAF06D1C5045FADAA84500D9454602
:1016300024B1002E01DB780700D5641EB80702D55F
:10164000B8F1000F0AD0F80708D13CB1A54205D285
:1016500020215846641EFFF795FEF6E7002E02DAB9
:101660004E462D2102E0780703D52B215846FFF77F
:1016700089FE07F0030002280BD1B8F1000F08D152
:101680003CB1A54205D230215846641EFFF77AFED0
:10169000F6E7CDE90047434652463146584602F048
:1016A00043F8BDE8FC9F000070B50E460446007983
:1016B00018494FF4A27501EB4010017F2068A1B1D9
:1016C0004FF4887101F07BFB4FF49071206801F0BA
:1016D00076FB4FF49271206801F071FB2946206877
:1016E00001F06DFB0C49206809E04FF48E7101F0A8
:1016F00055FB2946206801F051FB08492068C0F8D5
:101700000413206800F0BBFA3146BDE8704000F0D9
:101710009ABA0000E80100201003020080000200D5
:101720000268134602E08A4204D01268002AFAD105
:101730000B600160704700000A4810B5807860B106
:10174000002401E0022C06D02046FFF73BFB641C7E
:10175000042CF7D310BD0324F6E7BDE81040FFF7D3
:101760006BBB00000400002003480179C90702D0C8
:101770000078FFF7DFBC7047040000202DE9F04738
:10178000394E002780463D46DFF8E090D6F804A0A9
:1017900057E003D00446D0F81C8035E099F80020CB
:1017A00002EB4201521CD2B289F8002009EBC101C0
:1017B00099F80230091D9A4201D189F80050486811
:1017C0000A780446012A12D0022A02D0032A3BD109
:1017D00008E001F0CBFD00B10127257434E0057469
:1017E000C06900E070680028F9D170602CE0207CAE
:1017F00050BB88686060C868A0600869E06048699C
:10180000A061F07800B165606268B168184B501A49
:1018100020F07F40984202D2A168084406E0881A6E
:10182000A16820F07F40814202D9081A206000E0C0
:10183000256065600120A56020742046E56101F007
:1018400077FDB8F10000A4D199F8001099F80100D3
:101850008142A3D117B97168514502D00120BDE87A
:10186000F0870020FBE7000028000020280200206D
:10187000FFFF7F0070B588B0214800F0D7F82048FE
:10188000001F064600F0D2F81E4DD5E9014105E0E3
:10189000C0F3891202EB9050641C044404EA010076
:1018A00005EB8000C0688207F2D000200DF108022D
:1018B00004EA010305EB8303641CDB6842F8203073
:1018C000401C0228F4D3029800F00300012808D03D
:1018D00002280AD10298032101EB905004EB9004F6
:1018E00003E00298C0F3831004443046002101AAAB
:1018F000FEF745FD002800D06C6008B070BD000008
:101900007808002060040020002001F005F808B1EC
:10191000FFF724F900F09EFE11480321008801EB37
:10192000004010A100F096FF00F030F908B1FFF779
:1019300015F9002000F04CF9FFF738F908B1FFF76E
:101940000DF9FFF7E7FA01F021F908B1FFF706F901
:1019500000F08EFE0028FBD101F05AF9F8E70000F4
:10196000F4000020506F776572204D616E616765ED
:101970006D656E74206578616D706C6500000000A7
:101980002DE9F047C7880446181D16468946B0FB66
:10199000F7F1B0FBF7F207FB12009A193A44D21C98
:1019A000B2FBF7F2DDF820A001E02468491E00290F
:1019B000FBD13D1A8846B54216D818E0BAF1000F9F
:1019C00005D0211809EB08002A46091D04E020442F
:1019D00009EB08012A46001DFEF74EFD0020246891
:1019E000761BA844B74201D9354600E03D46002E9B
:1019F000E4D1BDE8F087000030B5024669B100F0DF
:101A0000B9FF0021084C0BE001EB410304EB830319
:101A100015685B88AB4202D11160002030BD491CC3
:101A20008142F1D3052030BDB800002008B5012166
:101A30006A46FEF797FC009808BD70B5044600257D
:101A40002846FFF739F921686268086890420ED984
:101A5000401E08600178238AE26801FB0325227A90
:101A60002168101AC0B20A79824200D2087100209F
:101A7000FFF724F9284670BD70B505460C460020D6
:101A8000FFF71AF9E868298A201AB0FBF1F12A68F1
:101A90001068431C13600170BDE870400020FFF720
:101AA0000DB910B530B1017A42680368891AC9B21C
:101AB0001A6006E00E2010BD03681A68541C1C60F2
:101AC0001170491EC9B2F7D20068002101710846A1
:101AD00010BDC20800F007030120895C984008404F
:101AE000704700F180400068002800D00120704756
:101AF00008B500F18040002101600068009008BD39
:101B000000283ED01F49204A096800BF00BF00BF1F
:101B100000BF00BF00BF00BF00BF91422FD000BF79
:101B200000BF00BF00BF00BF00BF00BF00BF00BFBD
:101B300000BF00BF00BF00BF00BF00BF00BF00BFAD
:101B400000BF00BF00BF00BF00BF00BF00BF00BF9D
:101B500000BF00BF00BF00BF00BF00BF00BF00BF8D
:101B600000BF00BF00BF00BF00BF00BF00BF00BF7D
:101B700000BF00BF00BF00BF00BF00BF00BF0138F3
:101B8000C3D17047B40000200024F40070B50E4C9F
:101B90000025207808B1852513E00021A16061604F
:101BA0002161E1604FF0E020D0F80001012610F043
:101BB000010F03D10721002000F045F8034806601B
:101BC0002670284670BD00006C01002018050040FA
:101BD00070B5154D0446A87838B114B1616801207C
:101BE00088470020FFF768F815E00020FFF764F849
:101BF00024B10D4821461030FFF792FDE86850B936
:101C00004FF48270FFF774FF02204107C1F804030C
:101C1000064901200860E868401CE860BDE87040A3
:101C20000020FFF74BB800006C01002008000040C6
:101C300000F01F02012191404009800000F1E020E6
:101C4000C0F8801170474907090E002806DA00F035
:101C50000F0202F1E02282F8141D03E000F1E022FD
:101C600082F8001400F01F02012191404009800019
:101C700000F1E020C0F88012C0F800117047000B9E
:101C800040B2704710B5044601F0A0F828B12046D4
:101C9000BDE81040002100F085BB204601F0A2F80D
:101CA00000280FD02046FFF7BDFB074A02EB80015A
:101CB000D1F8103523F00103C1F81035012181401E
:101CC000C2F8081310BD0000006000402DE9F0418B
:101CD0000E46804601F07AF8204D0028404616D086
:101CE000FFF7A0FB284490F858008009032802D091
:101CF00001280AD003E0404600F096FB28B10321FA
:101D00004046BDE8F04100F04DBB0221F8E701F08C
:101D100069F8002820D04046FFF784FB0446104FA6
:101D20004FF4807007EB840100EB8400D1F810259C
:101D300080B242F00102C1F8102500F0B3FB002E82
:101D40000AD04046FFF76EFB55F82000002803D06C
:101D50000120A040C7F80403BDE8F0818001002005
:101D6000006000402DE9FC41DFF8AC80044608EB40
:101D70000400002790F930001346C0170E46401C9F
:101D800001D0082744E0F27819462046FFF726FBE9
:101D90000546401C3BD0B07868B16846009400F01E
:101DA00027FB009900EB8100D0F8001721F0020119
:101DB000C0F8001707E000217378204600910A461A
:101DC000019100F086FAF078C0B11448317800EB48
:101DD0008500D0F81025124B1A40C0F810254FF49A
:101DE0007C524FF4403302EA042203EA01410A43E1
:101DF000D0F810150A43C0F8102509E008EB0500DB
:101E0000327810F8581F41EA8211017000E004276F
:101E10003846BDE8FC8100008001002000600040E1
:101E2000FFC0FCFF10B500F0FFFA002800D0012031
:101E300010BD000070B5144D95F8640008B108207D
:101E400070BD0020411E2A18401CC0B282F830101C
:101E50003028F8D300242046FFF7B2FA641CE4B21D
:101E60000C2CF8D307210620FFF7EDFE4FF4BE70CF
:101E700000F018FB05494FF00040C1F804030120B1
:101E800085F86400002070BD8001002000600040E3
:101E9000034890F86400002800D00120704700003B
:101EA000800100200121B1EB507F01D1012070475A
:101EB000002070472DE9F04105460079164F904605
:101EC00007EB40140E46E07E10B10820BDE8F0811B
:101ED000707F20772846FEF705FF5FEA0800606004
:101EE0003169216003D0317F2846FFF7DDFB287977
:101EF00007EB4010007F0028286801D0082100E08F
:101F00000421C0F800150020E0752076A07501219D
:101F1000E176A076DAE70000E80100202DE9F0473D
:101F2000054600793F4E904606EB40140F46207F51
:101F300018B10846FFF7B6FF30B1284600F074F834
:101F400020B11120BDE8F0871020FBE784F816804F
:101F5000A7600027A78228794FF0010806EB4014FC
:101F60003E46207F0028286825D04FF490794946C6
:101F700000F025FF4FF4AC7A5146286800F01FFFAF
:101F80002868A17DA268C0F84425C0F848152868D3
:101F9000C0F808806068F0B94946286800F00AFF78
:101FA00080465146286800F005FF58EA0001F3D04A
:101FB00058BBA7750FE04FF48E7A514600F0EEFE45
:101FC0002868C0F808802146286801F059FA61683D
:101FD0004FF4807089B13046B4E75146286800F06C
:101FE000D8FE10B9A08A4845F7D1A08A484505D047
:101FF0002146286801F044FA00E08146A08AA17DCC
:102000008842EAD3A08A484501D10F26D1E751463C
:10201000286800F0BEFE0028F9D02868C0F80C80BF
:10202000C7E70000E80100200079044901EB4010F7
:10203000807D002800D0012070470000E8010020CA
:1020400070B5044600791149002601EB401520685F
:102050002A7FC0F80065686888B1207901EB4010DC
:10206000007F0028206801D0094901E008498C3927
:10207000C0F808132068FFF702FEFFF7D9FD2046DD
:1020800000F0BCFEEE766E6070BD0000E80100203E
:10209000100302000FB408B50399002904D004AA64
:1020A00000926A4600F00FF801B05DF814FB10B51D
:1020B00082680446002A05D0D4E9040321689847C1
:1020C0000020A06010BD2DE9FC4791460C00804621
:1020D00076D014F8011B39B125290ED04046FFF700
:1020E00051F920780028F4D198F80C00002867D026
:1020F0004046BDE8FC47FFF7DABF00200122217807
:102100002B291BD02D2902D0302908D102E040F024
:10211000010001E040F00200641C002AEFD100251C
:102120002A290ED02178A1F130020A2A11D205EB1A
:10213000850201EB4205641C303DF1E740F00400EC
:10214000EAE7D9F800100B1DC9F800300968641CD3
:102150000D44217800232E290BD114F8011FA1F181
:1021600030020A2A05D203EB830201EB4203303B23
:10217000F3E76C290DD068290BD0692921D00BDC3D
:10218000252918D0582931D063290ED0642915D1BA
:1021900017E014F8011FECE7702969D0732932D0D9
:1021A00075291BD0782909D120E0D9F80000011D3C
:1021B000C9F8001001784046FFF7E4F8641C90E786
:1021C0006CE0D9F800100A1DC9F800200968CDE9B3
:1021D00000500A224046FFF713FAEFE7D9F8001043
:1021E0000A1DC9F8002009680A2206E0D9F8001083
:1021F0000A1DC9F8002009681022CDE900504046A8
:1022000001F092FADAE7D9F8001000270A1DC9F8A0
:1022100000200E68C00705D112E04046761C7F1CE6
:10222000FFF7B0F831780029F7D104E020214046CB
:102230006D1EFFF7A7F8BD42C0D9002DF6D1BDE74E
:102240004EB13046FEF73CF9074604E020214046F7
:102250006D1EFFF797F8BD4206D9002DF6D103E0B9
:102260004046761CFFF78EF831780029F8D1A5E7B3
:10227000D9F80000011DC9F800100568302140465A
:10228000FFF780F878214046FFF77CF8082000210E
:10229000CDE90001034610222946B0E7BDE8FC87DE
:1022A0002DE9FF411C46DDE90A7815460E466846D1
:1022B00000F090F846EA450141EA840141EA07222C
:1022C00042EA0841009A00EB8200C0F80017BDE81E
:1022D000FF812DE9FF411C46DDE90A7815460E46CF
:1022E000684600F085F846EA450141EA840141EA82
:1022F000072242EA0841009A00EB8200C0F800176A
:10230000BDE8FF812DE9FF411C46DDE90A7815464D
:102310000E46684600F07AF846EA450141EA840133
:1023200041EA072242EA0841009A00EB8200C0F825
:102330000017BDE8FF811CB5002100910B4601226A
:102340000191FFF7DFFF1CBD1CB500220B46009278
:1023500011460192FFF7D6FF1CBD1CB5002100916C
:102360000B46012201911146FFF7CCFF1CBD000076
:10237000202802D24FF0A04202E0094A00F01F00DC
:1023800002EB8000D0F8002722F44032C0F800278A
:10239000D0F8002742EA0141C0F80017704700005A
:1023A0000003005013B50C46684600F021F8009970
:1023B00000EB8101D1F8002722F44032C1F8002758
:1023C000009900EB8100D0F8001741EA0441C0F801
:1023D00000171CBD0168202902D24FF0A0407047B1
:1023E00001F01F0101600148704700000003005028
:1023F0000168202902D24FF0A040704701F01F0170
:102400000160014870470000000300500168202966
:1024100002D24FF0A040704701F01F010160014857
:10242000704700000003005001B56846FFF7E0FF69
:10243000D0F810050099C84000F0010008BD01B5B2
:102440006846FFF7E3FF009A01219140C0F80815A4
:1024500008BD38B501240090684631B1FFF7BAFFD6
:1024600000998C40C0F8084538BDFFF7B3FF0099CC
:102470008C40C0F80C4538BD1CB5094C0144D4E96A
:102480000034CDE900346C4606E000BF54F820303B
:10249000D3F81035401C08C28142F7D81CBD00009B
:1024A00040380000034908B5084400210160006875
:1024B000009008BD0060004002494058012800D04B
:1024C000002070470060004030B5124B01460020EC
:1024D000D3F81044224609E0157A854205D1401C04
:1024E0000A28F7DB4FF0FF3030BD5268002AF3D1E5
:1024F000421CF9D00872D3F810242AB152684A60FD
:10250000D3F81024516030BD0022C3F810144A6083
:1025100030BD000060040020F0B595B01C461546A3
:102520000F4608461A9E00F0F5FA182109A8FDF793
:10253000BCFF0E96CDE909540023082203A93846B2
:1025400000F002FB059806900498ADF81C000020EE
:102550008DF820000398082600F00300012802D01F
:1025600002281DD03CE003983346850AC0F3C20020
:102570008DF81E0003980FA9C0F380008DF81F008E
:102580000398C0F38314A200384600F0DDFA09A8CE
:10259000009006AB22460FA9284600F017FA1FE06C
:1025A0000398840DC0F3C2008DF81E000398C0F399
:1025B00080008DF81F00082C01D2254600E0082578
:1025C00033462A460FA9384600F0BEFA2E44641B53
:1025D00009AB06AA29460FA800F048F9002CEAD159
:1025E000384600F0A0FA15B0F0BD7047012000F0A9
:1025F0006BBF000010B50448FFF722FDBDE8104096
:10260000002000F061BF00005800002008B5034A18
:1026100000924023024AFFF77FFF08BD952F00007C
:10262000600300200A4A012902EBC00007D00229FA
:1026300007D0032907D0042907D0002070470220C3
:102640007047042070470079704740797047000058
:10265000083A000010B5FFF7C9FF04210348FFF74F
:1026600033FF02490120487210BD000060000020C5
:102670002DE9FE4FFEF796FE10B10020BDE8FE8F5B
:1026800072480021C0F81814BFF34F8FD0E90146FB
:1026900004EA060100EB81014FF000090AE000BFE7
:1026A000C1F3891202EB9151641C0C4404EA060147
:1026B00000EB8101C9688A07F2D000216A46804692
:1026C00004EA060008EB8000641CC06842F82100A0
:1026D000491C43460229F3D3009800F00300022866
:1026E00006D0012800984FD0C04380077ED0A8E0D4
:1026F00000985022810D8A46B2EB905F00D850219D
:102700000D4665F39F5000900831514800F0B9F92B
:1027100007006CD000F0FEF94B46082269463846A7
:1027200000F018FA04EA0600311A8900091D09F1BF
:10273000080B8D4221D9454E0C3631B1CAB208EB97
:102740008000691A91460C3004E03046EAB2002657
:1027500091463146CDB201465B46384600F0FAF963
:102760000BEB090326B12A463146384600F0F2F950
:102770000AF1030004EB90043BE008EB80015B46A8
:102780002A4638460C31F1E7C0F38310062800D3FF
:102790000620009960F38911C1F38310801C009119
:1027A00081002B4800F06DF907004AD000F0B2F923
:1027B0004B4608226946384600F0CCF909F1080971
:1027C00000250DE004EA060008EB80014B460422D8
:1027D00038460C31641C00F0BDF909F104096D1C88
:1027E0000098C0F38310A842ECD801E00BE028E089
:1027F0003FB3D8F81054D8F81804464690B138467C
:1028000000F091F91DE0D3F8180400283FF436AF2A
:1028100017E0687A012804D12A68284639461268E8
:1028200090476D68002DF4D1384600F07CF9002007
:10283000FEF742FAD6F8180400B974600020FEF7DB
:102840003DFAFEF7AFFD80F0010017E760040020BD
:10285000B438000000231A4600F0E2BC08B501239A
:1028600000926A4600F0DCFC08BD00002DE9F0474C
:102870000E4680461C46924608293ED894F80C9095
:10288000002020731946104600F012FB0025B542C7
:1028900006D218F805201AA12046FFF7FBFB03E03B
:1028A00019A12046FFF7F6FB6D1C082DEFD317A1E9
:1028B0002046FFF7EFFB0025B54210D218F805704F
:1028C000FDF7D6FD0068C05D10F03E0F01D03A461E
:1028D00000E02E220EA12046FFF7DCFB03E00DA155
:1028E0002046FFF7D7FB6D1C082DE5D301222146BA
:1028F000504600F0BFFA84F80C90BDE8F087000065
:102900002025303278000000202020007C000000CC
:102910002563000020000000114810B5FF218160F0
:10292000002101604160C0F81814C0F8141480F848
:102930001C140C4800F0F5F800280FD10A480B4988
:102940000B4B401AC108002005E000BF00EB40021D
:1029500023F82200401C8842F8D3002010BD00005C
:1029600060040020B4380000383A0000083A000043
:10297000B800002002480349401AC0087047000010
:10298000383A0000083A000013B56846FFF734F8FB
:1029900008B100201CBD0248009950F831001CBD50
:1029A000083A000070B508480125D0F8104480F8B6
:1029B0001C5405E0657221682046496888476468B0
:1029C000002CF7D170BD0000600400202DE9FF4706
:1029D00081460C9D00200C462F7B28739846164696
:1029E0002946184600F064FA072E42D2DFE806F0C6
:1029F00004090F161F2A360049462846FFF74AFBEE
:102A000037E0494628462268FFF744FB31E0D4E925
:102A1000002349462846FFF73DFB2AE0A0680090C6
:102A2000D4E9002349462846FFF734FB21E0D4E9E6
:102A30000201CDE90001D4E9002349462846FFF709
:102A400029FB16E004F1080007C88DE80700D4E967
:102A5000002349462846FFF71DFB0AE004F1080061
:102A60000FC88DE80F00D4E9002349462846FFF738
:102A700011FB00222946404600F0FCF92F73BDE807
:102A8000FF872DE9F041058A80462D1F4819C01C9B
:102A9000B0FBF5F0C6B24046FEF7CFFF041E19D0DA
:102AA0000020207101206071E58000272546761EF8
:102AB000C4F800800BE04046FEF7BFFF60B16179CB
:102AC000491C6171286005467F1CC0F80080B74230
:102AD000F1D32046BDE8F081204600F002F8002046
:102AE000F8E72DE9F041457901466B1E002201E02F
:102AF0000968521C9A42FBD30F680146002605E084
:102B000038460C68FEF7B8FF2146761CAE42F7D374
:102B1000BDE8F08108B501216A46001DFDF7ADFB57
:102B200008BDFEF7BEBF38B50446001D01216A4648
:102B3000FDF7B0FB009810F0FF0F04D12046BDE870
:102B40003840FFF7CEBF38BD38B501240094FEF7FA
:102B500017FF38BD38B500240094FEF711FF38BDCB
:102B6000064810B50088042101EB004004A1FFF7DE
:102B700071FE05490020888010BD0000E80000209B
:102B800046656564000000004000002070B51848EC
:102B90000321008801EB004016A1FFF75BFE174DF3
:102BA000002405F108006C700460BFF35F8F1449C6
:102BB000144800F0C7F81448016841F010010160A2
:102BC000AC80EC600E482C61AC70104A0121001FF3
:102BD000FDF7DAFF002809D109480022001F4FF451
:102BE00000410068BDE87040FEF70AB870BD000003
:102BF000E8000020496E69740000000040000020D9
:102C00007C3800005403002010ED00E0D52C0000BB
:102C100010B50020FEF750F8F1EE100A20F09F00EA
:102C2000E1EE100ABFF35F8F0E494020C1F8800229
:102C30000020FEF743F80020FEF73EF8FDF79EFF68
:102C4000044620BF40BF20BFFDF798FF2146FDF797
:102C500090FF0549CA681044C860BDE810400020D4
:102C6000FEF72CB804E000E040000020F8B5044670
:102C7000114801216A46FDF71BFBBFF35F8F00255A
:102C800000280AD101210C4E042C09D0A6F108001D
:102C900042781AB1BFF35F8F3560F8BD04704170A0
:102CA000064803212246008801EB004004A1FFF7FB
:102CB000D5FD00F00FFAEDE748000020E800002005
:102CC00053687574646F776E20726571756573747F
:102CD0002025640070B5FDF751FF144C06462169AC
:102CE000FDF747FFE1686422411A5143B1FBF0F060
:102CF000C5B20F4803212A46008801EB00400DA110
:102D0000FFF7ACFDA078A84200D2A5700020C4E96E
:102D10000306A088032802D2401CA08070BD607802
:102D20000028FBD1BDE87040FFF7A0BF40000020A5
:102D3000E80000204350552055736167653A20250F
:102D400075252500016009684160AFF3008010B56A
:102D5000D0E900215368994201D1002104E0D1E972
:102D60000034A34202D01946816010BD0831416091
:102D7000F0E7816800290BD0026892680A448260FB
:102D800041684B689A4203D108314160FFF7DFBFC9
:102D900070474058002800D00120704708B5002235
:102DA00042504058009008BDD0F80403084000D0BD
:102DB000012070474058002800D00120704708B516
:102DC000002242504058009008BD000004490844C9
:102DD00090F93000082801DB01207047002070477F
:102DE000800100200449084490F93000082801D2ED
:102DF00001207047002070478001002070B5034615
:102E000000791B4901EB40101968027F4FF0FF3039
:102E1000002AD1F80C25D1F81465D1F80855D1F85D
:102E2000104504D0C1F80C05C1F8140503E0C1F841
:102E30001405C1F80C051968C1F80805C1F810059A
:102E4000501C02D01046FFF776FA701C02D03046B4
:102E5000FFF771FA601C02D02046FFF76CFA681C7D
:102E600004D02846BDE87040FFF765BA70BD000089
:102E7000E801002010B50C46C17949B11AB109A189
:102E80002046FFF707F92046BDE81040FFF70FB9CD
:102E9000007A0028F3D0044804A102682046FFF716
:102EA000F9F8ECE70D0A00009000002025730000FF
:102EB00070B50446C0790D4600281CD1207A50B167
:102EC000A179A088FFF7AEFB0B4951F820200BA198
:102ED0002846FFF7DFF8A0880021FFF755FD0346DD
:102EE0000549A079143951F820202846BDE87040E2
:102EF00003A1FFF7CFB870BD90000020257300003C
:102F00003C25733E2025733A2000000070B5012651
:102F100070044FF0E0210025C1F88001084C4010FA
:102F2000C4F84803C4F8080366602F20FEF7E8FDE4
:102F3000A660044C2F20A560FEF7E2FDA57070BDD1
:102F4000001001402800002070B50546C87D0C46E1
:102F500000284FF4847128460AD0FFF71FFFD5F8E8
:102F60001805627EE1688854607E401C607670BD02
:102F7000FFF714FFD5F8180570BD1FB501238DF8B4
:102F800000308DF808100192D0E900126846904791
:102F90001FBD000010B5084C0020D2B22070201DCB
:102FA000FEF7BCFF08B1FDF7D9FD6078002802D01C
:102FB00021780029FAD010BD540000201F4910B517
:102FC0004A78012362B11E490322098802EB0142BB
:102FD000A8B1012807D002281DD0032826D121E05E
:102FE0008B70002010BD104616A1FFF733FCFDF7D3
:102FF0008FFF00281AD000BFFDF7B0FD16E0104685
:1030000018A1FFF727FCFDF783FF0120FEF782F9E7
:10301000FEF76CF90AE003EB01401AA1FFF71AFC76
:103020009020E9E7104623A1FFF714FCFDF738FED6
:1030300008B1FDF793FD012010BD00000000002045
:10304000F40000204E52465F5057525F4D474D549A
:103050005F4556545F505245504152455F53595356
:103060004F4646004E52465F5057525F4D474D54B3
:103070005F4556545F505245504152455F57414B52
:1030800045555000456E746572696E67204446551B
:10309000206973206E6F7420737570706F72746521
:1030A000642062792074686973206578616D706C42
:1030B000652E00004E52465F5057525F4D474D54AB
:1030C0005F4556545F505245504152455F524553FB
:1030D000455400002DE9F041284C294F0325208854
:1030E0003A7805EB004027A1FFF7B8FBDFF8B08086
:1030F0000EE031683878884700282088326805EB70
:10310000004029D027A1FFF7A9FB2548FFF731FE92
:10311000D8F80860002EECD12088BA7805EB004082
:1031200028A1FFF79BFB20882CA105EB0040FFF7AF
:1031300091FBFFF737FC00BFFFF79AFA0028FBD19D
:10314000387803280DD002280BD0294901200860C7
:10315000BFF34F8F20BFFDE7BDE8F04125A1FFF78A
:103160007DBBBFF34F8F2C4801682C4A01F4E0610E
:1031700011430160BFF34F8F00BFFDE7E80000205F
:103180004000002053687574646F776E207374611B
:10319000727465642E2054797065202564000000E7
:1031A000540300205379734F66662068616E646C27
:1031B000657220307825303858203D3E2072656198
:1031C000647900004D6178696D756D20435055201C
:1031D00075736167653A20257525250053687574F8
:1031E000646F776E20636F6D706C6574652E000080
:1031F000000500405379734F66662068616E646C09
:10320000657220307825303858203D3E20626C6F42
:10321000636B696E670000000CED00E00400FA05C6
:103220002DE9F843214C8846054691461F466946DC
:103230001846A668FEF776F870B30098811C002245
:103240000AE000BF01EA060C59F8223004EB8C0CAE
:10325000491C521CCCF80C30BA42F3D30246401C35
:10326000304004EB80002B0CC36002EA060004EB44
:103270008002E80652F80C0F02D540F0040001E08D
:1032800020F0040065F3C50067F3891068F39F2000
:1032900020F00300401C106094F81C0402E000BF02
:1032A000FFF7E6F90028FBD1BDE8F88360040020B1
:1032B0002DE9F84F1D4C00256846D4E901A6FEF71C
:1032C00053F9002738B30023009A61681CE0D1F855
:1032D00000C00846944503D9ACEB02020A6015E031
:1032E000A2EB0C0263440760D0F80CC0C1698146B0
:1032F000BCF1000F08D006EB030828F07F48C0E9B6
:10330000018CC9F81C5005460029E0D128466160AF
:10331000FEF734FA03E02846FEF730FA10B15046C3
:10332000FEF79CF8E770BDE8F88F00002800002049
:103330000D4B10B5596831B102680C68A24204D82F
:10334000A21A0A60C161586010BD0B4603E00B462B
:10335000C969121B21B10C689442F8D3A41A0C60FD
:103360000260C161D86110BD280000202DE9F04144
:10337000144E77683D462C4603E0844204D025462F
:10338000E469002CF9D11BE0D4B1A5420BD1F86956
:10339000706040B90C49012088600021B160F07074
:1033A0002F20FEF7ADFB2168E069E86110B10268EB
:1033B000114401607068874202D00120BDE8F081AD
:1033C0000020FBE72800002000100140F8B5064669
:1033D00000240D462046FDF76FFC684600F0FEF91C
:1033E00068B10570084946609DF8000048700020EB
:1033F000FDF764FC1420FDF793F92046F8BD042482
:103400000020FDF75BFCF8E7280200202DE9F041E1
:10341000194D6C68002C2CD0184800270068A9684A
:10342000B846401A20F07F462068B0420CD82146AA
:10343000361A0744E469087C20B181F81080886955
:1034400049698847002CEFD129786878814206D1F4
:10345000401CC0B26870022801D185F8018006487E
:1034600069780C3040F82170BDE8F0411420FDF778
:1034700057B9BDE8F0810000280000200415014084
:1034800070B50C4605464FF48E71FFF787FCA18A94
:10349000A068415CA08A401CA082C5F81C1570BDC4
:1034A0001FB500228DF800208DF808108168019169
:1034B0008275D0E90012684690471FBD014901207E
:1034C000087070475400002010B588B004462022D0
:1034D0000E496846FCF7D0FF06200090C01F0190FF
:1034E000029003904FF0EB7006900CB1084A00E098
:1034F000002269460748FEF7DDFC08B1FDF72EFB08
:103500000448001F447008B010BD0000943800004B
:10351000BD340000580000202DE9FF470C46054649
:103520004FF40071FFF740FC01274FF401780026AB
:1035300018B34FF4927949462846FFF72AFCE0B1C8
:1035400049462846FFF72AFCC5F80883A07E00B943
:103550006F6002208DF80000D5F88004C5F8800463
:103560000390E07D8DF80800E0680190E67526760E
:10357000D4E900126846904727E004212846FFF767
:1035800013FC10B34FF484712846FFF702FCE0B13E
:1035900021462846FFF7D8FCE07D617E884214D1A1
:1035A000207E38B1617EE268E0752069E0602676B1
:1035B000667607E0A07E00B96F60C5F80883E675FF
:1035C000617EE2682046FFF7D8FC4FF48E784146D2
:1035D0002846FFF7DEFB88B1A08AA17D884204D28D
:1035E00021462846FFF74CFF08E041462846FFF7F2
:1035F000D5FBA17D11B12046FFF752FF4FF4A27811
:1036000041462846FFF7C5FB002812D04146284610
:10361000FFF7C4FBA07E00B12F60E07D002808D03A
:10362000E675617EE26804B02046BDE8F047FFF72A
:10363000A4BCBDE8FF872DE9FF410C464FF492770B
:1036400005463946FFF7B6FB0026C0B13946284685
:10365000FFF7B5FB02208DF80000D5F88004C5F80F
:1036600080040390D5F83C058DF80800E0680190CF
:10367000E6752676D4E900126846904724E04FF4B8
:10368000887739462846FFF795FBE8B13946284642
:10369000FFF795FBD5F83C05C1B2E07D884213D118
:1036A000207E60B1E268D5F8000220F02000C5F865
:1036B0000002207EE0752069E060267601E0E67574
:1036C000E2682046FFF759FC4FF4A27739462846B6
:1036D000FFF770FB68B139462846FFF770FBE07DC5
:1036E00038B1E675D5F83C05E268C1B22046FFF76F
:1036F00044FC4FF4907631462846FFF75BFB0028E8
:103700000FD031462846FFF75AFBA07D002808D08D
:10371000D5F84C0504B0C1B22046BDE8F041FFF732
:10372000BFBEBDE8FF8100002DE9F05F8346DDE903
:103730000A4A994690460D460846012703E000BF15
:10374000B0FBF8F07F1C4045FAD2B94500D94F468E
:103750005FEACA7012D18CB15FEA8A7002D5B9F102
:10376000000F01D0202607E0302605E031465846FC
:10377000641EFDF707FE0CB1A742F7D35FF0010608
:10378000B9F1010F02D9A9F1010903E0B5FBF6F087
:10379000404502D306FB08F6F2E7DFF83C9000BF95
:1037A000B5FBF6F000FB165519F800105846FDF76A
:1037B000E9FDB6FBF8F6002EF2D15FEACA7009D037
:1037C000002C07D0A74205D220215846641EFDF7E1
:1037D000D9FDF5E7BDE8F09F503800000A494A7866
:1037E0008B78521CD2B2934200D100220B789342C4
:1037F00001D1002070470270487800EB400001EBD7
:10380000C000001D70470000280200200D0E0F10A0
:103810000B0C181900010020200100204C01002091
:103820000B000300810E00000C000300810E00005D
:1038300018000300810E000019000300810E000033
:1038400000000050000300500802002003000000A8
:1038500030313233343536373839414243444546C6
:10386000383A00003C3A0000000000000000000070
:103870000000000000000000340300206038000059
:1038800078380000040000000D260000F525000037
:10389000EB250000FFFFFFFFFFFFFFFFFFFFFFFF24
:1038A000FFFFFFFF00000000000000000000D60145
:1038B00007010000740000206C000020740000204C
:1038C000A00300201800000000404040404040405D
:1038D00040404141414141404040404040404040E3
:1038E0004040404040404040400502020202020287
:1038F00002020202020202020220202020202020D6
:1039000020202002020202020202909090909090E9
:1039100010101010101010101010101010101010A7
:10392000101010100202020202028888888888881B
:103930000808080808080808080808080808080807
:10394000080808080202020240000000C93800000E
:103950007761726E696E670064656275670000006A
:103960001B5B313B33306D001B5B306D0000000092
:103970001B5B313B33316D001B5B313B33326D00E0
:103980001B5B313B33336D001B5B313B33346D00CC
:103990001B5B313B33356D001B5B313B33366D00B8
:1039A0001B5B313B33376D00696E666F00000000B2
:1039B0006572726F72000000636C6F636B000000D1
:1039C0006770696F746500007561727400000000B3
:1039D00062616C6C6F6300007077725F6D676D740D
:1039E00000000000617070003C3A00000000002000
:1039F00000010000FC0900003C3B00000001002029
:103A0000802700000C0A0000B83900000000000008
:103A1000C039000000000000C839000000000000AC
:103A2000D039000000000000D83900000000040078
:103A3000E439000000000400BD2F00000000000079
:103A40000000000000000000000000000000000076
:103A50000000000000000000000000000000000066
:103A60000000000000000000000000000000000056
:103A70000000000000000000000000000000000046
:103A80000000000000000000000000000000000036
:103A90000000000000200040000000008838000006
:103AA0000000000000000000000000000000000016
:103AB000000000000000000000000000B03900001D
:103AC00050390000A839000058390000683900005A
:103AD000603900007039000078390000803900003A
:103AE000883900009039000098390000A0390000A2
:103AF0000090D00300000000000000000000000063
:103B000000000000000000000000000000000000B5
:103B100000000000000000000000000000000000A5
:103B20000000000000000000000000000000000095
:0C3B300000000000000000000000000089
:0400000500000201F4
:00000001FF
