Component: ARM Compiler 5.05 update 2 (build 169) Tool: armlink [4d0f33]

==============================================================================

Section Cross References

    main.o(i.advertising_start) refers to nrf_log_frontend.o(i.nrf_log_frontend_std_0) for nrf_log_frontend_std_0
    main.o(i.advertising_start) refers to peer_manager.o(i.pm_peers_delete) for pm_peers_delete
    main.o(i.advertising_start) refers to ble_advertising.o(i.ble_advertising_start) for ble_advertising_start
    main.o(i.advertising_start) refers to app_error.o(i.app_error_handler_bare) for app_error_handler_bare
    main.o(i.advertising_start) refers to nrf_log_frontend.o(log_dynamic_data) for m_nrf_log_app_logs_data_dynamic
    main.o(i.advertising_start) refers to main.o(.bss) for .bss
    main.o(i.app_shutdown_handler) refers to nrf_log_frontend.o(i.nrf_log_frontend_std_0) for nrf_log_frontend_std_0
    main.o(i.app_shutdown_handler) refers to nrf_log_frontend.o(log_dynamic_data) for m_nrf_log_app_logs_data_dynamic
    main.o(i.assert_nrf_callback) refers to app_error.o(i.app_error_handler) for app_error_handler
    main.o(i.ble_dfu_evt_handler) refers to nrf_log_frontend.o(i.nrf_log_frontend_std_0) for nrf_log_frontend_std_0
    main.o(i.ble_dfu_evt_handler) refers to nrf_log_frontend.o(log_dynamic_data) for m_nrf_log_app_logs_data_dynamic
    main.o(i.ble_evt_handler) refers to bsp.o(i.bsp_indication_set) for bsp_indication_set
    main.o(i.ble_evt_handler) refers to app_error.o(i.app_error_handler_bare) for app_error_handler_bare
    main.o(i.ble_evt_handler) refers to memcpya.o(.text) for __aeabi_memcpy
    main.o(i.ble_evt_handler) refers to main.o(.data) for .data
    main.o(i.bsp_event_handler) refers to main.o(i.sleep_mode_enter) for sleep_mode_enter
    main.o(i.bsp_event_handler) refers to app_error.o(i.app_error_handler_bare) for app_error_handler_bare
    main.o(i.bsp_event_handler) refers to ble_advertising.o(i.ble_advertising_restart_without_whitelist) for ble_advertising_restart_without_whitelist
==============================================================================

Removing Unused input sections from the image.

    Removing main.o(.rev16_text), (4 bytes).
    Removing main.o(.revsh_text), (4 bytes).
    Removing main.o(.rrx_text), (6 bytes).
    Removing main.o(i.assert_nrf_callback), (16 bytes).
    Removing boards.o(.rev16_text), (4 bytes).
    Removing boards.o(.revsh_text), (4 bytes).
    Removing boards.o(.rrx_text), (6 bytes).
    Removing boards.o(i.bsp_board_buttons_init), (36 bytes).
    Removing boards.o(i.bsp_board_led_idx_to_pin), (12 bytes).
    Removing boards.o(i.bsp_board_pin_to_led_idx), (36 bytes).
    Removing bsp.o(.rev16_text), (4 bytes).
    Removing bsp.o(.revsh_text), (4 bytes).
    Removing bsp.o(.rrx_text), (6 bytes).
    Removing bsp.o(i.bsp_buttons_disable), (4 bytes).
    Removing bsp.o(i.bsp_buttons_enable), (4 bytes).
    Removing bsp.o(i.bsp_wakeup_button_disable), (16 bytes).
    Removing bsp_btn_ble.o(.rev16_text), (4 bytes).
    Removing bsp_btn_ble.o(.revsh_text), (4 bytes).
==============================================================================

Image Symbol Table

    Local Symbols

    Symbol Name                              Value     Ov Type        Size  Object(Section)

    ../clib/../cmprslib/zerorunl2.c          0x00000000   Number         0  __dczerorl2.o ABSOLUTE
    ../clib/microlib/ctype/ctype.c           0x00000000   Number         0  isprint_o.o ABSOLUTE
    ../clib/microlib/ctype/ctype.c           0x00000000   Number         0  isupper_o.o ABSOLUTE
    ../clib/microlib/ctype/ctype.c           0x00000000   Number         0  islower_o.o ABSOLUTE
    ../clib/microlib/ctype/ctype.c           0x00000000   Number         0  isgraph_o.o ABSOLUTE
    ../clib/microlib/ctype/ctype.c           0x00000000   Number         0  isdigit_o.o ABSOLUTE
    ../clib/microlib/ctype/ctype.c           0x00000000   Number         0  iscntrl_o.o ABSOLUTE
    ../clib/microlib/ctype/ctype.c           0x00000000   Number         0  ispunct_o.o ABSOLUTE
    ../clib/microlib/ctype/ctype.c           0x00000000   Number         0  isblank_o.o ABSOLUTE
    ../clib/microlib/ctype/ctype.c           0x00000000   Number         0  isxdigit_o.o ABSOLUTE
    ../clib/microlib/ctype/ctype.c           0x00000000   Number         0  isspace_o.o ABSOLUTE
    ../clib/microlib/ctype/ctype.c           0x00000000   Number         0  isalpha_o.o ABSOLUTE
    ../clib/microlib/ctype/ctype.c           0x00000000   Number         0  isalnum_o.o ABSOLUTE
    ../clib/microlib/ctype/ctype.c           0x00000000   Number         0  ctype_o.o ABSOLUTE
    ../clib/microlib/division.c              0x00000000   Number         0  uldiv.o ABSOLUTE
    ../clib/microlib/init/entry.s            0x00000000   Number         0  entry7b.o ABSOLUTE
    ../clib/microlib/init/entry.s            0x00000000   Number         0  entry2.o ABSOLUTE
    ../clib/microlib/init/entry.s            0x00000000   Number         0  entry.o ABSOLUTE
    ../clib/microlib/init/entry.s            0x00000000   Number         0  entry8a.o ABSOLUTE
    ../clib/microlib/init/entry.s            0x00000000   Number         0  entry5.o ABSOLUTE
    ../clib/microlib/init/entry.s            0x00000000   Number         0  entry11a.o ABSOLUTE
    ../clib/microlib/init/entry.s            0x00000000   Number         0  entry7a.o ABSOLUTE
    ../clib/microlib/init/entry.s            0x00000000   Number         0  entry11b.o ABSOLUTE
    ../clib/microlib/init/entry.s            0x00000000   Number         0  entry10b.o ABSOLUTE
    ../clib/microlib/init/entry.s            0x00000000   Number         0  entry9b.o ABSOLUTE
    ../clib/microlib/init/entry.s            0x00000000   Number         0  entry10a.o ABSOLUTE
    ../clib/microlib/init/entry.s            0x00000000   Number         0  entry8b.o ABSOLUTE
    ../clib/microlib/init/entry.s            0x00000000   Number         0  entry9a.o ABSOLUTE
    ../clib/microlib/longlong.c              0x00000000   Number         0  llushr.o ABSOLUTE
    ../clib/microlib/longlong.c              0x00000000   Number         0  llshl.o ABSOLUTE
    ../clib/microlib/stdio/fflush.c          0x00000000   Number         0  fflush.o ABSOLUTE
    ../clib/microlib/stdio/fputc.c           0x00000000   Number         0  fputc.o ABSOLUTE
    ../clib/microlib/stdio/semi.s            0x00000000   Number         0  semi.o ABSOLUTE
    ../clib/microlib/stdio/streams.c         0x00000000   Number         0  stdout.o ABSOLUTE
    ../clib/microlib/string/memcmp.c         0x00000000   Number         0  memcmp.o ABSOLUTE
    ../clib/microlib/string/memcpy.c         0x00000000   Number         0  memcpya.o ABSOLUTE
    ../clib/microlib/string/memcpy.c         0x00000000   Number         0  memcpyb.o ABSOLUTE
    ../clib/microlib/string/memset.c         0x00000000   Number         0  memseta.o ABSOLUTE
    ../clib/microlib/string/strcmp.c         0x00000000   Number         0  strcmp.o ABSOLUTE
    ../clib/microlib/string/strcpy.c         0x00000000   Number         0  strcpy.o ABSOLUTE
    ../clib/microlib/string/strlen.c         0x00000000   Number         0  strlen.o ABSOLUTE
    ../clib/microlib/stubs.s                 0x00000000   Number         0  iusesemip.o ABSOLUTE
    ../clib/microlib/stubs.s                 0x00000000   Number         0  useno.o ABSOLUTE
    ..\..\..\..\..\..\components\ble\ble_advertising\ble_advertising.c 0x00000000   Number         0  ble_advertising.o ABSOLUTE
    ..\..\..\..\..\..\components\ble\ble_services\ble_dfu\ble_dfu.c 0x00000000   Number         0  ble_dfu.o ABSOLUTE
    ..\..\..\..\..\..\components\ble\ble_services\ble_dfu\ble_dfu_bonded.c 0x00000000   Number         0  ble_dfu_bonded.o ABSOLUTE
    ..\..\..\..\..\..\components\ble\ble_services\ble_dfu\ble_dfu_unbonded.c 0x00000000   Number         0  ble_dfu_unbonded.o ABSOLUTE
    ..\..\..\..\..\..\components\ble\common\ble_advdata.c 0x00000000   Number         0  ble_advdata.o ABSOLUTE
    ..\..\..\..\..\..\components\ble\common\ble_conn_params.c 0x00000000   Number         0  ble_conn_params.o ABSOLUTE
    ..\..\..\..\..\..\components\ble\common\ble_conn_state.c 0x00000000   Number         0  ble_conn_state.o ABSOLUTE
    ..\..\..\..\..\..\components\ble\common\ble_srv_common.c 0x00000000   Number         0  ble_srv_common.o ABSOLUTE
    ..\..\..\..\..\..\components\ble\nrf_ble_gatt\nrf_ble_gatt.c 0x00000000   Number         0  nrf_ble_gatt.o ABSOLUTE
    ..\..\..\..\..\..\components\ble\peer_manager\gatt_cache_manager.c 0x00000000   Number         0  gatt_cache_manager.o ABSOLUTE
    ..\..\..\..\..\..\components\ble\peer_manager\gatts_cache_manager.c 0x00000000   Number         0  gatts_cache_manager.o ABSOLUTE
    ..\..\..\..\..\..\components\ble\peer_manager\id_manager.c 0x00000000   Number         0  id_manager.o ABSOLUTE
    ..\..\..\..\..\..\components\ble\peer_manager\peer_data_storage.c 0x00000000   Number         0  peer_data_storage.o ABSOLUTE
    ..\..\..\..\..\..\components\ble\peer_manager\peer_database.c 0x00000000   Number         0  peer_database.o ABSOLUTE
    ..\..\..\..\..\..\components\ble\peer_manager\peer_id.c 0x00000000   Number         0  peer_id.o ABSOLUTE
    ..\..\..\..\..\..\components\ble\peer_manager\peer_manager.c 0x00000000   Number         0  peer_manager.o ABSOLUTE
    ..\..\..\..\..\..\components\ble\peer_manager\pm_buffer.c 0x00000000   Number         0  pm_buffer.o ABSOLUTE
    ..\..\..\..\..\..\components\ble\peer_manager\pm_mutex.c 0x00000000   Number         0  pm_mutex.o ABSOLUTE
    ..\..\..\..\..\..\components\ble\peer_manager\security_dispatcher.c 0x00000000   Number         0  security_dispatcher.o ABSOLUTE
    ..\..\..\..\..\..\components\ble\peer_manager\security_manager.c 0x00000000   Number         0  security_manager.o ABSOLUTE
    ..\..\..\..\..\..\components\boards\boards.c 0x00000000   Number         0  boards.o ABSOLUTE
    ..\..\..\..\..\..\components\drivers_nrf\clock\nrf_drv_clock.c 0x00000000   Number         0  nrf_drv_clock.o ABSOLUTE
    ..\..\..\..\..\..\components\drivers_nrf\common\nrf_drv_common.c 0x00000000   Number         0  nrf_drv_common.o ABSOLUTE
    ..\..\..\..\..\..\components\drivers_nrf\gpiote\nrf_drv_gpiote.c 0x00000000   Number         0  nrf_drv_gpiote.o ABSOLUTE
    ..\..\..\..\..\..\components\drivers_nrf\uart\nrf_drv_uart.c 0x00000000   Number         0  nrf_drv_uart.o ABSOLUTE
    ..\..\..\..\..\..\components\libraries\atomic_fifo\nrf_atfifo.c 0x00000000   Number         0  nrf_atfifo.o ABSOLUTE
    ..\..\..\..\..\..\components\libraries\balloc\nrf_balloc.c 0x00000000   Number         0  nrf_balloc.o ABSOLUTE
    ..\..\..\..\..\..\components\libraries\bootloader\dfu\nrf_dfu_svci.c 0x00000000   Number         0  nrf_dfu_svci.o ABSOLUTE
    ..\..\..\..\..\..\components\libraries\bsp\bsp.c 0x00000000   Number         0  bsp.o ABSOLUTE
    ..\..\..\..\..\..\components\libraries\bsp\bsp_btn_ble.c 0x00000000   Number         0  bsp_btn_ble.o ABSOLUTE
    ..\..\..\..\..\..\components\libraries\bsp\bsp_nfc.c 0x00000000   Number         0  bsp_nfc.o ABSOLUTE
    ..\..\..\..\..\..\components\libraries\button\app_button.c 0x00000000   Number         0  app_button.o ABSOLUTE
    ..\..\..\..\..\..\components\libraries\crc16\crc16.c 0x00000000   Number         0  crc16.o ABSOLUTE
    ..\..\..\..\..\..\components\libraries\experimental_log\src\nrf_log_backend_rtt.c 0x00000000   Number         0  nrf_log_backend_rtt.o ABSOLUTE
    ..\..\..\..\..\..\components\libraries\experimental_log\src\nrf_log_backend_serial.c 0x00000000   Number         0  nrf_log_backend_serial.o ABSOLUTE
    ..\..\..\..\..\..\components\libraries\experimental_log\src\nrf_log_backend_uart.c 0x00000000   Number         0  nrf_log_backend_uart.o ABSOLUTE
    ..\..\..\..\..\..\components\libraries\experimental_log\src\nrf_log_default_backends.c 0x00000000   Number         0  nrf_log_default_backends.o ABSOLUTE
    ..\..\..\..\..\..\components\libraries\experimental_log\src\nrf_log_frontend.c 0x00000000   Number         0  nrf_log_frontend.o ABSOLUTE
    ..\..\..\..\..\..\components\libraries\experimental_log\src\nrf_log_str_formatter.c 0x00000000   Number         0  nrf_log_str_formatter.o ABSOLUTE
    ..\..\..\..\..\..\components\libraries\experimental_memobj\nrf_memobj.c 0x00000000   Number         0  nrf_memobj.o ABSOLUTE
    ..\..\..\..\..\..\components\libraries\experimental_section_vars\nrf_section_iter.c 0x00000000   Number         0  nrf_section_iter.o ABSOLUTE
    ..\..\..\..\..\..\components\libraries\fds\fds.c 0x00000000   Number         0  fds.o ABSOLUTE
    ..\..\..\..\..\..\components\libraries\fstorage\nrf_fstorage.c 0x00000000   Number         0  nrf_fstorage.o ABSOLUTE
    ..\..\..\..\..\..\components\libraries\fstorage\nrf_fstorage_sd.c 0x00000000   Number         0  nrf_fstorage_sd.o ABSOLUTE
    ..\..\..\..\..\..\components\libraries\pwr_mgmt\nrf_pwr_mgmt.c 0x00000000   Number         0  nrf_pwr_mgmt.o ABSOLUTE
    ..\..\..\..\..\..\components\libraries\scheduler\app_scheduler.c 0x00000000   Number         0  app_scheduler.o ABSOLUTE
    ..\..\..\..\..\..\components\libraries\strerror\nrf_strerror.c 0x00000000   Number         0  nrf_strerror.o ABSOLUTE
    ..\..\..\..\..\..\components\libraries\timer\app_timer.c 0x00000000   Number         0  app_timer.o ABSOLUTE
    ..\..\..\..\..\..\components\libraries\util\app_error.c 0x00000000   Number         0  app_error.o ABSOLUTE
    ..\..\..\..\..\..\components\libraries\util\app_error_weak.c 0x00000000   Number         0  app_error_weak.o ABSOLUTE
    ..\..\..\..\..\..\components\libraries\util\app_util_platform.c 0x00000000   Number         0  app_util_platform.o ABSOLUTE
    ..\..\..\..\..\..\components\libraries\util\nrf_assert.c 0x00000000   Number         0  nrf_assert.o ABSOLUTE
    ..\..\..\..\..\..\components\libraries\util\sdk_mapped_flags.c 0x00000000   Number         0  sdk_mapped_flags.o ABSOLUTE
    ..\..\..\..\..\..\components\softdevice\common\nrf_sdh.c 0x00000000   Number         0  nrf_sdh.o ABSOLUTE
    ..\..\..\..\..\..\components\softdevice\common\nrf_sdh_ble.c 0x00000000   Number         0  nrf_sdh_ble.o ABSOLUTE
    ..\..\..\..\..\..\components\softdevice\common\nrf_sdh_soc.c 0x00000000   Number         0  nrf_sdh_soc.o ABSOLUTE
    ..\..\..\..\..\..\external\fprintf\nrf_fprintf.c 0x00000000   Number         0  nrf_fprintf.o ABSOLUTE
    ..\..\..\..\..\..\external\fprintf\nrf_fprintf_format.c 0x00000000   Number         0  nrf_fprintf_format.o ABSOLUTE
    ..\..\..\..\..\..\external\segger_rtt\SEGGER_RTT.c 0x00000000   Number         0  segger_rtt.o ABSOLUTE
    ..\..\..\..\..\..\external\segger_rtt\SEGGER_RTT_Syscalls_KEIL.c 0x00000000   Number         0  segger_rtt_syscalls_keil.o ABSOLUTE
    ..\..\..\..\..\..\external\segger_rtt\SEGGER_RTT_printf.c 0x00000000   Number         0  segger_rtt_printf.o ABSOLUTE
    ..\..\..\main.c                          0x00000000   Number         0  main.o ABSOLUTE
    ..\\..\\..\\..\\..\\..\\components\\ble\\ble_advertising\\ble_advertising.c 0x00000000   Number         0  ble_advertising.o ABSOLUTE
    ..\\..\\..\\..\\..\\..\\components\\ble\\ble_services\\ble_dfu\\ble_dfu.c 0x00000000   Number         0  ble_dfu.o ABSOLUTE
    ..\\..\\..\\..\\..\\..\\components\\ble\\ble_services\\ble_dfu\\ble_dfu_bonded.c 0x00000000   Number         0  ble_dfu_bonded.o ABSOLUTE
    ..\\..\\..\\..\\..\\..\\components\\ble\\ble_services\\ble_dfu\\ble_dfu_unbonded.c 0x00000000   Number         0  ble_dfu_unbonded.o ABSOLUTE
    ..\\..\\..\\..\\..\\..\\components\\ble\\common\\ble_advdata.c 0x00000000   Number         0  ble_advdata.o ABSOLUTE
    ..\\..\\..\\..\\..\\..\\components\\ble\\common\\ble_conn_params.c 0x00000000   Number         0  ble_conn_params.o ABSOLUTE
    ..\\..\\..\\..\\..\\..\\components\\ble\\common\\ble_conn_state.c 0x00000000   Number         0  ble_conn_state.o ABSOLUTE
    ..\\..\\..\\..\\..\\..\\components\\ble\\common\\ble_srv_common.c 0x00000000   Number         0  ble_srv_common.o ABSOLUTE
    ..\\..\\..\\..\\..\\..\\components\\ble\\nrf_ble_gatt\\nrf_ble_gatt.c 0x00000000   Number         0  nrf_ble_gatt.o ABSOLUTE
    ..\\..\\..\\..\\..\\..\\components\\ble\\peer_manager\\gatt_cache_manager.c 0x00000000   Number         0  gatt_cache_manager.o ABSOLUTE
    ..\\..\\..\\..\\..\\..\\components\\ble\\peer_manager\\gatts_cache_manager.c 0x00000000   Number         0  gatts_cache_manager.o ABSOLUTE
    ..\\..\\..\\..\\..\\..\\components\\ble\\peer_manager\\id_manager.c 0x00000000   Number         0  id_manager.o ABSOLUTE
    ..\\..\\..\\..\\..\\..\\components\\ble\\peer_manager\\peer_data_storage.c 0x00000000   Number         0  peer_data_storage.o ABSOLUTE
    ..\\..\\..\\..\\..\\..\\components\\ble\\peer_manager\\peer_database.c 0x00000000   Number         0  peer_database.o ABSOLUTE
    ..\\..\\..\\..\\..\\..\\components\\ble\\peer_manager\\peer_id.c 0x00000000   Number         0  peer_id.o ABSOLUTE
    ..\\..\\..\\..\\..\\..\\components\\ble\\peer_manager\\peer_manager.c 0x00000000   Number         0  peer_manager.o ABSOLUTE
    ..\\..\\..\\..\\..\\..\\components\\ble\\peer_manager\\pm_buffer.c 0x00000000   Number         0  pm_buffer.o ABSOLUTE
    ..\\..\\..\\..\\..\\..\\components\\ble\\peer_manager\\pm_mutex.c 0x00000000   Number         0  pm_mutex.o ABSOLUTE
    ..\\..\\..\\..\\..\\..\\components\\ble\\peer_manager\\security_dispatcher.c 0x00000000   Number         0  security_dispatcher.o ABSOLUTE
    ..\\..\\..\\..\\..\\..\\components\\ble\\peer_manager\\security_manager.c 0x00000000   Number         0  security_manager.o ABSOLUTE
    ..\\..\\..\\..\\..\\..\\components\\boards\\boards.c 0x00000000   Number         0  boards.o ABSOLUTE
    ..\\..\\..\\..\\..\\..\\components\\drivers_nrf\\clock\\nrf_drv_clock.c 0x00000000   Number         0  nrf_drv_clock.o ABSOLUTE
    ..\\..\\..\\..\\..\\..\\components\\drivers_nrf\\common\\nrf_drv_common.c 0x00000000   Number         0  nrf_drv_common.o ABSOLUTE
    ..\\..\\..\\..\\..\\..\\components\\drivers_nrf\\gpiote\\nrf_drv_gpiote.c 0x00000000   Number         0  nrf_drv_gpiote.o ABSOLUTE
    ..\\..\\..\\..\\..\\..\\components\\drivers_nrf\\uart\\nrf_drv_uart.c 0x00000000   Number         0  nrf_drv_uart.o ABSOLUTE
    ..\\..\\..\\..\\..\\..\\components\\libraries\\atomic_fifo\\nrf_atfifo.c 0x00000000   Number         0  nrf_atfifo.o ABSOLUTE
    ..\\..\\..\\..\\..\\..\\components\\libraries\\balloc\\nrf_balloc.c 0x00000000   Number         0  nrf_balloc.o ABSOLUTE
    ..\\..\\..\\..\\..\\..\\components\\libraries\\bootloader\\dfu\\nrf_dfu_svci.c 0x00000000   Number         0  nrf_dfu_svci.o ABSOLUTE
    ..\\..\\..\\..\\..\\..\\components\\libraries\\bsp\\bsp.c 0x00000000   Number         0  bsp.o ABSOLUTE
    ..\\..\\..\\..\\..\\..\\components\\libraries\\bsp\\bsp_btn_ble.c 0x00000000   Number         0  bsp_btn_ble.o ABSOLUTE
    ..\\..\\..\\..\\..\\..\\components\\libraries\\bsp\\bsp_nfc.c 0x00000000   Number         0  bsp_nfc.o ABSOLUTE
    ..\\..\\..\\..\\..\\..\\components\\libraries\\button\\app_button.c 0x00000000   Number         0  app_button.o ABSOLUTE
    ..\\..\\..\\..\\..\\..\\components\\libraries\\crc16\\crc16.c 0x00000000   Number         0  crc16.o ABSOLUTE
    ..\\..\\..\\..\\..\\..\\components\\libraries\\experimental_log\\src\\nrf_log_backend_rtt.c 0x00000000   Number         0  nrf_log_backend_rtt.o ABSOLUTE
    ..\\..\\..\\..\\..\\..\\components\\libraries\\experimental_log\\src\\nrf_log_backend_serial.c 0x00000000   Number         0  nrf_log_backend_serial.o ABSOLUTE
    ..\\..\\..\\..\\..\\..\\components\\libraries\\experimental_log\\src\\nrf_log_backend_uart.c 0x00000000   Number         0  nrf_log_backend_uart.o ABSOLUTE
    ..\\..\\..\\..\\..\\..\\components\\libraries\\experimental_log\\src\\nrf_log_default_backends.c 0x00000000   Number         0  nrf_log_default_backends.o ABSOLUTE
    ..\\..\\..\\..\\..\\..\\components\\libraries\\experimental_log\\src\\nrf_log_frontend.c 0x00000000   Number         0  nrf_log_frontend.o ABSOLUTE
    ..\\..\\..\\..\\..\\..\\components\\libraries\\experimental_log\\src\\nrf_log_str_formatter.c 0x00000000   Number         0  nrf_log_str_formatter.o ABSOLUTE
    ..\\..\\..\\..\\..\\..\\components\\libraries\\experimental_memobj\\nrf_memobj.c 0x00000000   Number         0  nrf_memobj.o ABSOLUTE
    ..\\..\\..\\..\\..\\..\\components\\libraries\\experimental_section_vars\\nrf_section_iter.c 0x00000000   Number         0  nrf_section_iter.o ABSOLUTE
    ..\\..\\..\\..\\..\\..\\components\\libraries\\fds\\fds.c 0x00000000   Number         0  fds.o ABSOLUTE
    ..\\..\\..\\..\\..\\..\\components\\libraries\\fstorage\\nrf_fstorage_sd.c 0x00000000   Number         0  nrf_fstorage_sd.o ABSOLUTE
    ..\\..\\..\\..\\..\\..\\components\\libraries\\pwr_mgmt\\nrf_pwr_mgmt.c 0x00000000   Number         0  nrf_pwr_mgmt.o ABSOLUTE
    ..\\..\\..\\..\\..\\..\\components\\libraries\\scheduler\\app_scheduler.c 0x00000000   Number         0  app_scheduler.o ABSOLUTE
    ..\\..\\..\\..\\..\\..\\components\\libraries\\strerror\\nrf_strerror.c 0x00000000   Number         0  nrf_strerror.o ABSOLUTE
    ..\\..\\..\\..\\..\\..\\components\\libraries\\timer\\app_timer.c 0x00000000   Number         0  app_timer.o ABSOLUTE
    ..\\..\\..\\..\\..\\..\\components\\libraries\\util\\app_error.c 0x00000000   Number         0  app_error.o ABSOLUTE
    ..\\..\\..\\..\\..\\..\\components\\libraries\\util\\app_error_weak.c 0x00000000   Number         0  app_error_weak.o ABSOLUTE
    ..\\..\\..\\..\\..\\..\\components\\libraries\\util\\app_util_platform.c 0x00000000   Number         0  app_util_platform.o ABSOLUTE
    ..\\..\\..\\..\\..\\..\\components\\libraries\\util\\nrf_assert.c 0x00000000   Number         0  nrf_assert.o ABSOLUTE
    ..\\..\\..\\..\\..\\..\\components\\libraries\\util\\sdk_mapped_flags.c 0x00000000   Number         0  sdk_mapped_flags.o ABSOLUTE
    ..\\..\\..\\..\\..\\..\\components\\softdevice\\common\\nrf_sdh.c 0x00000000   Number         0  nrf_sdh.o ABSOLUTE
    ..\\..\\..\\..\\..\\..\\components\\softdevice\\common\\nrf_sdh_ble.c 0x00000000   Number         0  nrf_sdh_ble.o ABSOLUTE
    ..\\..\\..\\..\\..\\..\\components\\softdevice\\common\\nrf_sdh_soc.c 0x00000000   Number         0  nrf_sdh_soc.o ABSOLUTE
    ..\\..\\..\\..\\..\\..\\external\\fprintf\\nrf_fprintf.c 0x00000000   Number         0  nrf_fprintf.o ABSOLUTE
    ..\\..\\..\\..\\..\\..\\external\\fprintf\\nrf_fprintf_format.c 0x00000000   Number         0  nrf_fprintf_format.o ABSOLUTE
    ..\\..\\..\\..\\..\\..\\external\\segger_rtt\\SEGGER_RTT.c 0x00000000   Number         0  segger_rtt.o ABSOLUTE
    ..\\..\\..\\..\\..\\..\\external\\segger_rtt\\SEGGER_RTT_Syscalls_KEIL.c 0x00000000   Number         0  segger_rtt_syscalls_keil.o ABSOLUTE
    ..\\..\\..\\..\\..\\..\\external\\segger_rtt\\SEGGER_RTT_printf.c 0x00000000   Number         0  segger_rtt_printf.o ABSOLUTE
    ..\\..\\..\\main.c                       0x00000000   Number         0  main.o ABSOLUTE
    RTE\Device\nRF52832_xxAA\arm_startup_nrf52.s 0x00000000   Number         0  arm_startup_nrf52.o ABSOLUTE
    RTE\Device\nRF52832_xxAA\system_nrf52.c  0x00000000   Number         0  system_nrf52.o ABSOLUTE
    RTE\\Device\\nRF52832_xxAA\\system_nrf52.c 0x00000000   Number         0  system_nrf52.o ABSOLUTE
    dc.s                                     0x00000000   Number         0  dc.o ABSOLUTE
    handlers.s                               0x00000000   Number         0  handlers.o ABSOLUTE
    init.s                                   0x00000000   Number         0  init.o ABSOLUTE
    RESET                                    0x00023000   Section      512  arm_startup_nrf52.o(RESET)
    .ARM.Collect$$$$00000000                 0x00023200   Section        0  entry.o(.ARM.Collect$$$$00000000)
    .ARM.Collect$$$$00000001                 0x00023200   Section        4  entry2.o(.ARM.Collect$$$$00000001)
    .ARM.Collect$$$$00000004                 0x00023204   Section        4  entry5.o(.ARM.Collect$$$$00000004)
    .ARM.Collect$$$$00000008                 0x00023208   Section        0  entry7b.o(.ARM.Collect$$$$00000008)
    .ARM.Collect$$$$0000000A                 0x00023208   Section        0  entry8b.o(.ARM.Collect$$$$0000000A)
    .ARM.Collect$$$$0000000B                 0x00023208   Section        8  entry9a.o(.ARM.Collect$$$$0000000B)
    .ARM.Collect$$$$0000000D                 0x00023210   Section        0  entry10a.o(.ARM.Collect$$$$0000000D)
    .ARM.Collect$$$$0000000F                 0x00023210   Section        0  entry11a.o(.ARM.Collect$$$$0000000F)
    .ARM.Collect$$$$00002712                 0x00023210   Section        4  entry2.o(.ARM.Collect$$$$00002712)
    __lit__00000000                          0x00023210   Data           4  entry2.o(.ARM.Collect$$$$00002712)
    .emb_text                                0x00023214   Section      154  fds.o(.emb_text)
    $v0                                      0x00023214   Number         0  fds.o(.emb_text)
    .emb_text                                0x000232b0   Section      200  nrf_atfifo.o(.emb_text)
    $v0                                      0x000232b0   Number         0  nrf_atfifo.o(.emb_text)
    .emb_text                                0x00023378   Section      154  nrf_fstorage_sd.o(.emb_text)
    $v0                                      0x00023378   Number         0  nrf_fstorage_sd.o(.emb_text)
    .emb_text                                0x00023414   Section      154  nrf_memobj.o(.emb_text)
    $v0                                      0x00023414   Number         0  nrf_memobj.o(.emb_text)
    .emb_text                                0x000234b0   Section      154  nrf_pwr_mgmt.o(.emb_text)
    $v0                                      0x000234b0   Number         0  nrf_pwr_mgmt.o(.emb_text)
    .emb_text                                0x0002354c   Section      154  nrf_log_frontend.o(.emb_text)
    $v0                                      0x0002354c   Number         0  nrf_log_frontend.o(.emb_text)
    .text                                    0x000235e8   Section       36  arm_startup_nrf52.o(.text)
    $v0                                      0x000235e8   Number         0  arm_startup_nrf52.o(.text)
    .text                                    0x0002360c   Section        0  uldiv.o(.text)
    .text                                    0x00023670   Section        0  ctype_o.o(.text)
    .text                                    0x00023678   Section        0  memcpya.o(.text)
    .text                                    0x0002369c   Section        0  memseta.o(.text)
    .text                                    0x000236c0   Section        0  strlen.o(.text)
    .text                                    0x000236ce   Section        0  memcmp.o(.text)
    .text                                    0x000236e8   Section        0  llshl.o(.text)
    .text                                    0x00023706   Section        0  llushr.o(.text)
    .text                                    0x00023728   Section       36  init.o(.text)
    .text                                    0x0002374c   Section        0  __dczerorl2.o(.text)
    i.GPIOTE_IRQHandler                      0x000237a4   Section        0  nrf_drv_gpiote.o(i.GPIOTE_IRQHandler)
    i.NVIC_ClearPendingIRQ                   0x00023918   Section        0  app_timer.o(i.NVIC_ClearPendingIRQ)
    NVIC_ClearPendingIRQ                     0x00023919   Thumb Code    22  app_timer.o(i.NVIC_ClearPendingIRQ)
    i.NVIC_EnableIRQ                         0x0002392e   Section        0  app_timer.o(i.NVIC_EnableIRQ)
    NVIC_EnableIRQ                           0x0002392f   Thumb Code    22  app_timer.o(i.NVIC_EnableIRQ)
    i.NVIC_SetPendingIRQ                     0x00023944   Section        0  app_timer.o(i.NVIC_SetPendingIRQ)
    NVIC_SetPendingIRQ                       0x00023945   Thumb Code    22  app_timer.o(i.NVIC_SetPendingIRQ)
    i.NVIC_SetPriority                       0x0002395a   Section        0  app_timer.o(i.NVIC_SetPriority)
    NVIC_SetPriority                         0x0002395b   Thumb Code    32  app_timer.o(i.NVIC_SetPriority)
    i.POWER_CLOCK_IRQHandler                 0x0002397c   Section        0  nrf_drv_clock.o(i.POWER_CLOCK_IRQHandler)
    i.RTC1_IRQHandler                        0x000239d4   Section        0  app_timer.o(i.RTC1_IRQHandler)
    i.SWI0_EGU0_IRQHandler                   0x000239f8   Section        0  app_timer.o(i.SWI0_EGU0_IRQHandler)
    i.SWI2_EGU2_IRQHandler                   0x000239fc   Section        0  nrf_sdh.o(i.SWI2_EGU2_IRQHandler)
    i.SystemInit                             0x00023a00   Section        0  system_nrf52.o(i.SystemInit)
    i.UARTE0_UART0_IRQHandler                0x00023d1c   Section        0  nrf_drv_uart.o(i.UARTE0_UART0_IRQHandler)
    i.__scatterload_copy                     0x00023d38   Section       14  handlers.o(i.__scatterload_copy)
    i.__scatterload_null                     0x00023d46   Section        2  handlers.o(i.__scatterload_null)
    i.__scatterload_zeroinit                 0x00023d48   Section       14  handlers.o(i.__scatterload_zeroinit)
    i.__sd_nvic_app_accessible_irq           0x00023d58   Section        0  nrf_sdh.o(i.__sd_nvic_app_accessible_irq)
    __sd_nvic_app_accessible_irq             0x00023d59   Thumb Code    32  nrf_sdh.o(i.__sd_nvic_app_accessible_irq)
    i.__sd_nvic_is_app_accessible_priority   0x00023d7c   Section        0  nrf_sdh.o(i.__sd_nvic_is_app_accessible_priority)
    __sd_nvic_is_app_accessible_priority     0x00023d7d   Thumb Code    22  nrf_sdh.o(i.__sd_nvic_is_app_accessible_priority)
    i.addr_compare                           0x00023d92   Section        0  id_manager.o(i.addr_compare)
    i.addr_is_aligned32                      0x00023db8   Section        0  nrf_fstorage.o(i.addr_is_aligned32)
    addr_is_aligned32                        0x00023db9   Thumb Code    12  nrf_fstorage.o(i.addr_is_aligned32)
    i.addr_within_bounds                     0x00023dc4   Section        0  nrf_fstorage.o(i.addr_within_bounds)
    addr_within_bounds                       0x00023dc5   Thumb Code    24  nrf_fstorage.o(i.addr_within_bounds)
    i.advertising_buttons_configure          0x00023ddc   Section        0  bsp_btn_ble.o(i.advertising_buttons_configure)
    advertising_buttons_configure            0x00023ddd   Thumb Code    54  bsp_btn_ble.o(i.advertising_buttons_configure)
    i.advertising_start                      0x00023e14   Section        0  main.o(i.advertising_start)
    advertising_start                        0x00023e15   Thumb Code    48  main.o(i.advertising_start)
    i.ah                                     0x00023e5c   Section        0  id_manager.o(i.ah)
    i.alert_timer_handler                    0x00023eae   Section        0  bsp.o(i.alert_timer_handler)
    alert_timer_handler                      0x00023eaf   Thumb Code     6  bsp.o(i.alert_timer_handler)
    i.allow_repairing                        0x00023eb4   Section        0  security_dispatcher.o(i.allow_repairing)
    allow_repairing                          0x00023eb5   Thumb Code     8  security_dispatcher.o(i.allow_repairing)
    i.app_button_enable                      0x00023ec0   Section        0  app_button.o(i.app_button_enable)
    i.app_button_init                        0x00023ee4   Section        0  app_button.o(i.app_button_init)
    i.app_error_fault_handler                0x00023f54   Section        0  app_error_weak.o(i.app_error_fault_handler)
    i.app_error_handler_bare                 0x00023fcc   Section        0  app_error.o(i.app_error_handler_bare)
    i.app_shutdown_handler                   0x00023fe4   Section        0  main.o(i.app_shutdown_handler)
    app_shutdown_handler                     0x00023fe5   Thumb Code    38  main.o(i.app_shutdown_handler)
    i.app_timer_create                       0x00024070   Section        0  app_timer.o(i.app_timer_create)
    i.app_timer_init                         0x00024094   Section        0  app_timer.o(i.app_timer_init)
    i.app_timer_start                        0x000240e8   Section        0  app_timer.o(i.app_timer_start)
    i.app_timer_stop                         0x00024170   Section        0  app_timer.o(i.app_timer_stop)
    i.app_util_critical_region_enter         0x00024190   Section        0  app_util_platform.o(i.app_util_critical_region_enter)
    i.app_util_critical_region_exit          0x000241d8   Section        0  app_util_platform.o(i.app_util_critical_region_exit)
    i.apply_config                           0x0002420c   Section        0  nrf_drv_uart.o(i.apply_config)
    apply_config                             0x0002420d   Thumb Code   180  nrf_drv_uart.o(i.apply_config)
    i.auth_status_success_process            0x000242c4   Section        0  security_dispatcher.o(i.auth_status_success_process)
    auth_status_success_process              0x000242c5   Thumb Code   214  security_dispatcher.o(i.auth_status_success_process)
    i.ble_advdata_encode                     0x000243a0   Section        0  ble_advdata.o(i.ble_advdata_encode)
    i.ble_advdata_set                        0x00024522   Section        0  ble_advdata.o(i.ble_advdata_set)
    i.ble_advertising_conn_cfg_tag_set       0x0002458a   Section        0  ble_advertising.o(i.ble_advertising_conn_cfg_tag_set)
    i.ble_advertising_init                   0x00024590   Section        0  ble_advertising.o(i.ble_advertising_init)
    i.ble_advertising_on_ble_evt             0x000246c6   Section        0  ble_advertising.o(i.ble_advertising_on_ble_evt)
    i.ble_advertising_on_sys_evt             0x0002472e   Section        0  ble_advertising.o(i.ble_advertising_on_sys_evt)
    i.ble_advertising_restart_without_whitelist 0x00024760   Section        0  ble_advertising.o(i.ble_advertising_restart_without_whitelist)
    i.ble_advertising_start                  0x0002479c   Section        0  ble_advertising.o(i.ble_advertising_start)
    i.ble_conn_params_init                   0x00024968   Section        0  ble_conn_params.o(i.ble_conn_params_init)
    i.ble_conn_state_conn_handles            0x000249d0   Section        0  ble_conn_state.o(i.ble_conn_state_conn_handles)
    i.ble_conn_state_encrypted               0x000249e0   Section        0  ble_conn_state.o(i.ble_conn_state_encrypted)
    i.ble_conn_state_role                    0x000249f0   Section        0  ble_conn_state.o(i.ble_conn_state_role)
    i.ble_conn_state_user_flag_acquire       0x00024a20   Section        0  ble_conn_state.o(i.ble_conn_state_user_flag_acquire)
    i.ble_conn_state_user_flag_collection    0x00024a4c   Section        0  ble_conn_state.o(i.ble_conn_state_user_flag_collection)
    i.ble_conn_state_user_flag_get           0x00024a68   Section        0  ble_conn_state.o(i.ble_conn_state_user_flag_get)
    i.ble_conn_state_user_flag_set           0x00024a94   Section        0  ble_conn_state.o(i.ble_conn_state_user_flag_set)
    i.ble_device_addr_encode                 0x00024ac4   Section        0  ble_advdata.o(i.ble_device_addr_encode)
    ble_device_addr_encode                   0x00024ac5   Thumb Code    96  ble_advdata.o(i.ble_device_addr_encode)
    i.ble_dfu_buttonless_async_svci_init     0x00024b24   Section        0  ble_dfu_unbonded.o(i.ble_dfu_buttonless_async_svci_init)
    i.ble_dfu_buttonless_backend_init        0x00024b48   Section        0  ble_dfu_unbonded.o(i.ble_dfu_buttonless_backend_init)
    i.ble_dfu_buttonless_bootloader_start_finalize 0x00024b5c   Section        0  ble_dfu.o(i.ble_dfu_buttonless_bootloader_start_finalize)
    i.ble_dfu_buttonless_bootloader_start_prepare 0x00024b88   Section        0  ble_dfu_unbonded.o(i.ble_dfu_buttonless_bootloader_start_prepare)
    i.ble_dfu_buttonless_char_add            0x00024ba0   Section        0  ble_dfu_unbonded.o(i.ble_dfu_buttonless_char_add)
    i.ble_dfu_buttonless_init                0x00024c7c   Section        0  ble_dfu.o(i.ble_dfu_buttonless_init)
    i.ble_dfu_buttonless_on_ble_evt          0x00024ce0   Section        0  ble_dfu.o(i.ble_dfu_buttonless_on_ble_evt)
    i.ble_dfu_buttonless_on_ctrl_pt_write    0x00024d94   Section        0  ble_dfu_unbonded.o(i.ble_dfu_buttonless_on_ctrl_pt_write)
    i.ble_dfu_buttonless_on_sys_evt          0x00024e34   Section        0  ble_dfu_unbonded.o(i.ble_dfu_buttonless_on_sys_evt)
    i.ble_dfu_buttonless_resp_send           0x00024e80   Section        0  ble_dfu.o(i.ble_dfu_buttonless_resp_send)
    i.ble_dfu_evt_handler                    0x00024ed4   Section        0  main.o(i.ble_dfu_evt_handler)
    ble_dfu_evt_handler                      0x00024ed5   Thumb Code    64  main.o(i.ble_dfu_evt_handler)
    i.ble_evt_handler                        0x00025000   Section        0  main.o(i.ble_evt_handler)
    ble_evt_handler                          0x00025001   Thumb Code   180  main.o(i.ble_evt_handler)
    i.ble_evt_handler                        0x000250b8   Section        0  bsp_btn_ble.o(i.ble_evt_handler)
    ble_evt_handler                          0x000250b9   Thumb Code   106  bsp_btn_ble.o(i.ble_evt_handler)
    i.ble_evt_handler                        0x00025128   Section        0  ble_conn_params.o(i.ble_evt_handler)
    ble_evt_handler                          0x00025129   Thumb Code   242  ble_conn_params.o(i.ble_evt_handler)
    i.ble_evt_handler                        0x00025224   Section        0  ble_conn_state.o(i.ble_evt_handler)
    ble_evt_handler                          0x00025225   Thumb Code   262  ble_conn_state.o(i.ble_evt_handler)
    i.ble_evt_handler                        0x00025330   Section        0  peer_manager.o(i.ble_evt_handler)
    ble_evt_handler                          0x00025331   Thumb Code    36  peer_manager.o(i.ble_evt_handler)
    i.ble_srv_is_indication_enabled          0x00025358   Section        0  ble_srv_common.o(i.ble_srv_is_indication_enabled)
    i.ble_srv_is_notification_enabled        0x00025360   Section        0  ble_srv_common.o(i.ble_srv_is_notification_enabled)
    i.bsp_board_button_idx_to_pin            0x00025368   Section        0  boards.o(i.bsp_board_button_idx_to_pin)
    i.bsp_board_button_state_get             0x00025374   Section        0  boards.o(i.bsp_board_button_state_get)
    i.bsp_board_led_invert                   0x00025394   Section        0  boards.o(i.bsp_board_led_invert)
    i.bsp_board_led_off                      0x000253b8   Section        0  boards.o(i.bsp_board_led_off)
    i.bsp_board_led_on                       0x000253c8   Section        0  boards.o(i.bsp_board_led_on)
    i.bsp_board_led_state_get                0x000253d8   Section        0  boards.o(i.bsp_board_led_state_get)
    i.bsp_board_leds_init                    0x000253f8   Section        0  boards.o(i.bsp_board_leds_init)
    i.bsp_board_leds_off                     0x00025424   Section        0  boards.o(i.bsp_board_leds_off)
    i.bsp_board_leds_on                      0x00025436   Section        0  boards.o(i.bsp_board_leds_on)
    i.bsp_board_pin_to_button_idx            0x00025448   Section        0  boards.o(i.bsp_board_pin_to_button_idx)
    i.bsp_btn_ble_init                       0x0002546c   Section        0  bsp_btn_ble.o(i.bsp_btn_ble_init)
    i.bsp_btn_ble_sleep_mode_prepare         0x000254a4   Section        0  bsp_btn_ble.o(i.bsp_btn_ble_sleep_mode_prepare)
    i.bsp_button_event_handler               0x000254c4   Section        0  bsp.o(i.bsp_button_event_handler)
    bsp_button_event_handler                 0x000254c5   Thumb Code   132  bsp.o(i.bsp_button_event_handler)
    i.bsp_button_is_pressed                  0x00025554   Section        0  bsp.o(i.bsp_button_is_pressed)
    i.bsp_event_handler                      0x00025558   Section        0  main.o(i.bsp_event_handler)
    bsp_event_handler                        0x00025559   Thumb Code    66  main.o(i.bsp_event_handler)
    i.bsp_event_to_button_action_assign      0x000255a4   Section        0  bsp.o(i.bsp_event_to_button_action_assign)
    i.bsp_indication_set                     0x000255e8   Section        0  bsp.o(i.bsp_indication_set)
    i.bsp_init                               0x00025600   Section        0  bsp.o(i.bsp_init)
    i.bsp_led_indication                     0x00025694   Section        0  bsp.o(i.bsp_led_indication)
    bsp_led_indication                       0x00025695   Thumb Code   432  bsp.o(i.bsp_led_indication)
    i.bsp_wakeup_button_enable               0x0002584c   Section        0  bsp.o(i.bsp_wakeup_button_enable)
    i.buf_prealloc                           0x0002585c   Section        0  nrf_log_frontend.o(i.buf_prealloc)
    buf_prealloc                             0x0002585d   Thumb Code    96  nrf_log_frontend.o(i.buf_prealloc)
    i.buffer_add                             0x000258c0   Section        0  nrf_fprintf_format.o(i.buffer_add)
    buffer_add                               0x000258c1   Thumb Code    30  nrf_fprintf_format.o(i.buffer_add)
    i.buffer_is_empty                        0x000258e0   Section        0  nrf_log_frontend.o(i.buffer_is_empty)
    i.button_timer_handler                   0x000258f4   Section        0  bsp.o(i.button_timer_handler)
    button_timer_handler                     0x000258f5   Thumb Code     8  bsp.o(i.button_timer_handler)
    i.channel_free                           0x000258fc   Section        0  nrf_drv_gpiote.o(i.channel_free)
    channel_free                             0x000258fd   Thumb Code    22  nrf_drv_gpiote.o(i.channel_free)
    i.channel_port_alloc                     0x00025918   Section        0  nrf_drv_gpiote.o(i.channel_port_alloc)
    channel_port_alloc                       0x00025919   Thumb Code    66  nrf_drv_gpiote.o(i.channel_port_alloc)
    i.channel_port_get                       0x00025960   Section        0  nrf_drv_gpiote.o(i.channel_port_get)
    channel_port_get                         0x00025961   Thumb Code    10  nrf_drv_gpiote.o(i.channel_port_get)
    i.claim                                  0x00025970   Section        0  peer_id.o(i.claim)
    claim                                    0x00025971   Thumb Code    56  peer_id.o(i.claim)
    i.clock_clk_started_notify               0x000259a8   Section        0  nrf_drv_clock.o(i.clock_clk_started_notify)
    clock_clk_started_notify                 0x000259a9   Thumb Code    34  nrf_drv_clock.o(i.clock_clk_started_notify)
    i.compare_reg_update                     0x000259d0   Section        0  app_timer.o(i.compare_reg_update)
    compare_reg_update                       0x000259d1   Thumb Code   160  app_timer.o(i.compare_reg_update)
    i.conn_int_encode                        0x00025a7c   Section        0  ble_advdata.o(i.conn_int_encode)
    conn_int_encode                          0x00025a7d   Thumb Code   136  ble_advdata.o(i.conn_int_encode)
    i.conn_params_error_handler              0x00025b04   Section        0  main.o(i.conn_params_error_handler)
    conn_params_error_handler                0x00025b05   Thumb Code     4  main.o(i.conn_params_error_handler)
    i.conn_params_negotiation                0x00025b08   Section        0  ble_conn_params.o(i.conn_params_negotiation)
    conn_params_negotiation                  0x00025b09   Thumb Code    68  ble_conn_params.o(i.conn_params_negotiation)
    i.conn_sec_failure                       0x00025b50   Section        0  security_dispatcher.o(i.conn_sec_failure)
    conn_sec_failure                         0x00025b51   Thumb Code    60  security_dispatcher.o(i.conn_sec_failure)
    i.delete_execute                         0x00025b94   Section        0  fds.o(i.delete_execute)
    delete_execute                           0x00025b95   Thumb Code   124  fds.o(i.delete_execute)
    i.detection_delay_timeout_handler        0x00025c14   Section        0  app_button.o(i.detection_delay_timeout_handler)
    detection_delay_timeout_handler          0x00025c15   Thumb Code    92  app_button.o(i.detection_delay_timeout_handler)
    i.elapsed_ticks_acquire                  0x00025c74   Section        0  app_timer.o(i.elapsed_ticks_acquire)
    elapsed_ticks_acquire                    0x00025c75   Thumb Code    58  app_timer.o(i.elapsed_ticks_acquire)
    i.encryption_failure                     0x00025cb4   Section        0  security_dispatcher.o(i.encryption_failure)
    encryption_failure                       0x00025cb5   Thumb Code    10  security_dispatcher.o(i.encryption_failure)
    i.erase                                  0x00025cc0   Section        0  nrf_fstorage_sd.o(i.erase)
    erase                                    0x00025cc1   Thumb Code    72  nrf_fstorage_sd.o(i.erase)
    i.event_prepare                          0x00025d0c   Section        0  fds.o(i.event_prepare)
    event_prepare                            0x00025d0d   Thumb Code   116  fds.o(i.event_prepare)
    i.event_send                             0x00025d80   Section        0  fds.o(i.event_send)
    event_send                               0x00025d81   Thumb Code    26  fds.o(i.event_send)
    i.event_send                             0x00025da0   Section        0  nrf_fstorage_sd.o(i.event_send)
    event_send                               0x00025da1   Thumb Code    78  nrf_fstorage_sd.o(i.event_send)
    i.events_send_from_err_code              0x00025dee   Section        0  security_manager.o(i.events_send_from_err_code)
    events_send_from_err_code                0x00025def   Thumb Code   116  security_manager.o(i.events_send_from_err_code)
    i.evt_send                               0x00025e64   Section        0  gatt_cache_manager.o(i.evt_send)
    evt_send                                 0x00025e65   Thumb Code    24  gatt_cache_manager.o(i.evt_send)
    i.evt_send                               0x00025e80   Section        0  peer_manager.o(i.evt_send)
    evt_send                                 0x00025e81   Thumb Code    36  peer_manager.o(i.evt_send)
    i.evt_send                               0x00025eac   Section        0  security_dispatcher.o(i.evt_send)
    evt_send                                 0x00025ead   Thumb Code    24  security_dispatcher.o(i.evt_send)
    i.evt_send                               0x00025ec8   Section        0  security_manager.o(i.evt_send)
    evt_send                                 0x00025ec9   Thumb Code     6  security_manager.o(i.evt_send)
    i.fds_evt_handler                        0x00025ed4   Section        0  peer_data_storage.o(i.fds_evt_handler)
    fds_evt_handler                          0x00025ed5   Thumb Code   210  peer_data_storage.o(i.fds_evt_handler)
    i.fds_file_delete                        0x00025fac   Section        0  fds.o(i.fds_file_delete)
    i.fds_gc                                 0x00025ff0   Section        0  fds.o(i.fds_gc)
    i.fds_init                               0x0002602c   Section        0  fds.o(i.fds_init)
    i.fds_record_close                       0x00026100   Section        0  fds.o(i.fds_record_close)
    i.fds_record_find                        0x00026140   Section        0  fds.o(i.fds_record_find)
    i.fds_record_find_by_key                 0x0002614e   Section        0  fds.o(i.fds_record_find_by_key)
    i.fds_record_find_in_file                0x0002615e   Section        0  fds.o(i.fds_record_find_in_file)
    i.fds_record_id_from_desc                0x0002616e   Section        0  fds.o(i.fds_record_id_from_desc)
    i.fds_record_open                        0x00026180   Section        0  fds.o(i.fds_record_open)
    i.fds_record_update                      0x000261c8   Section        0  fds.o(i.fds_record_update)
    i.fds_record_write                       0x000261d6   Section        0  fds.o(i.fds_record_write)
    i.fds_record_write_reserved              0x000261de   Section        0  fds.o(i.fds_record_write_reserved)
    i.fds_register                           0x000261ec   Section        0  fds.o(i.fds_register)
    i.fds_reserve                            0x0002621c   Section        0  fds.o(i.fds_reserve)
    i.fds_reserve_cancel                     0x0002624c   Section        0  fds.o(i.fds_reserve_cancel)
    i.file_id_within_pm_range                0x00026294   Section        0  peer_data_storage.o(i.file_id_within_pm_range)
    file_id_within_pm_range                  0x00026295   Thumb Code    20  peer_data_storage.o(i.file_id_within_pm_range)
    i.flag_id_init                           0x000262a8   Section        0  security_dispatcher.o(i.flag_id_init)
    flag_id_init                             0x000262a9   Thumb Code    18  security_dispatcher.o(i.flag_id_init)
    i.flag_id_init                           0x000262ba   Section        0  security_manager.o(i.flag_id_init)
    flag_id_init                             0x000262bb   Thumb Code    18  security_manager.o(i.flag_id_init)
    i.flags_set_from_err_code                0x000262cc   Section        0  security_manager.o(i.flags_set_from_err_code)
    flags_set_from_err_code                  0x000262cd   Thumb Code    80  security_manager.o(i.flags_set_from_err_code)
    i.fs_event_handler                       0x00026320   Section        0  fds.o(i.fs_event_handler)
    fs_event_handler                         0x00026321   Thumb Code     6  fds.o(i.fs_event_handler)
    i.gc_execute                             0x00026328   Section        0  fds.o(i.gc_execute)
    gc_execute                               0x00026329   Thumb Code   112  fds.o(i.gc_execute)
    i.gc_next_page                           0x0002639c   Section        0  fds.o(i.gc_next_page)
    gc_next_page                             0x0002639d   Thumb Code    70  fds.o(i.gc_next_page)
    i.gc_page_erase                          0x000263e8   Section        0  fds.o(i.gc_page_erase)
    gc_page_erase                            0x000263e9   Thumb Code    50  fds.o(i.gc_page_erase)
    i.gc_record_copy                         0x00026428   Section        0  fds.o(i.gc_record_copy)
    gc_record_copy                           0x00026429   Thumb Code    40  fds.o(i.gc_record_copy)
    i.gc_record_find_next                    0x0002645c   Section        0  fds.o(i.gc_record_find_next)
    gc_record_find_next                      0x0002645d   Thumb Code    30  fds.o(i.gc_record_find_next)
    i.gc_state_advance                       0x00026480   Section        0  fds.o(i.gc_state_advance)
    gc_state_advance                         0x00026481   Thumb Code   126  fds.o(i.gc_state_advance)
    i.gcm_ble_evt_handler                    0x00026508   Section        0  gatt_cache_manager.o(i.gcm_ble_evt_handler)
    i.gcm_im_evt_handler                     0x000265a0   Section        0  gatt_cache_manager.o(i.gcm_im_evt_handler)
    i.gcm_init                               0x000265d0   Section        0  gatt_cache_manager.o(i.gcm_init)
    i.gcm_local_database_has_changed         0x00026620   Section        0  gatt_cache_manager.o(i.gcm_local_database_has_changed)
    i.gcm_pdb_evt_handler                    0x00026670   Section        0  gatt_cache_manager.o(i.gcm_pdb_evt_handler)
    i.get_connection_by_conn_handle          0x000266ec   Section        0  id_manager.o(i.get_connection_by_conn_handle)
    i.get_free_connection                    0x00026724   Section        0  id_manager.o(i.get_free_connection)
    i.gpiote_event_handler                   0x00026754   Section        0  app_button.o(i.gpiote_event_handler)
    gpiote_event_handler                     0x00026755   Thumb Code    78  app_button.o(i.gpiote_event_handler)
    i.gscm_db_change_notification_done       0x000267ac   Section        0  gatts_cache_manager.o(i.gscm_db_change_notification_done)
    i.gscm_init                              0x000267c8   Section        0  gatts_cache_manager.o(i.gscm_init)
    i.gscm_local_database_has_changed        0x000267dc   Section        0  gatts_cache_manager.o(i.gscm_local_database_has_changed)
    i.gscm_local_db_cache_apply              0x000267f8   Section        0  gatts_cache_manager.o(i.gscm_local_db_cache_apply)
    i.gscm_local_db_cache_update             0x00026862   Section        0  gatts_cache_manager.o(i.gscm_local_db_cache_update)
    i.gscm_pdb_evt_handler                   0x000268e4   Section        0  gatts_cache_manager.o(i.gscm_pdb_evt_handler)
    i.gscm_service_changed_ind_needed        0x000268fc   Section        0  gatts_cache_manager.o(i.gscm_service_changed_ind_needed)
    i.gscm_service_changed_ind_send          0x0002691c   Section        0  gatts_cache_manager.o(i.gscm_service_changed_ind_send)
    i.header_check                           0x00026954   Section        0  fds.o(i.header_check)
    header_check                             0x00026955   Thumb Code    38  fds.o(i.header_check)
    i.header_has_next                        0x0002697a   Section        0  fds.o(i.header_has_next)
    header_has_next                          0x0002697b   Thumb Code    18  fds.o(i.header_has_next)
    i.im_address_resolve                     0x0002698c   Section        0  id_manager.o(i.im_address_resolve)
    i.im_ble_addr_get                        0x000269d4   Section        0  id_manager.o(i.im_ble_addr_get)
    i.im_ble_evt_handler                     0x00026a04   Section        0  id_manager.o(i.im_ble_evt_handler)
    i.im_conn_handle_get                     0x00026acc   Section        0  id_manager.o(i.im_conn_handle_get)
    i.im_find_duplicate_bonding_data         0x00026af8   Section        0  id_manager.o(i.im_find_duplicate_bonding_data)
    i.im_init                                0x00026b30   Section        0  id_manager.o(i.im_init)
    i.im_is_duplicate_bonding_data           0x00026b70   Section        0  id_manager.o(i.im_is_duplicate_bonding_data)
    i.im_master_id_is_valid                  0x00026be2   Section        0  id_manager.o(i.im_master_id_is_valid)
    i.im_master_ids_compare                  0x00026bfa   Section        0  id_manager.o(i.im_master_ids_compare)
    i.im_new_peer_id                         0x00026c24   Section        0  id_manager.o(i.im_new_peer_id)
    i.im_peer_free                           0x00026c28   Section        0  id_manager.o(i.im_peer_free)
    i.im_peer_id_get_by_conn_handle          0x00026c50   Section        0  id_manager.o(i.im_peer_id_get_by_conn_handle)
    i.im_peer_id_get_by_master_id            0x00026c70   Section        0  id_manager.o(i.im_peer_id_get_by_master_id)
    i.init                                   0x00026cac   Section        0  nrf_fstorage_sd.o(i.init)
    init                                     0x00026cad   Thumb Code    48  nrf_fstorage_sd.o(i.init)
    i.init_execute                           0x00026ce4   Section        0  fds.o(i.init_execute)
    init_execute                             0x00026ce5   Thumb Code   186  fds.o(i.init_execute)
    i.instance_get                           0x00026dac   Section        0  ble_conn_params.o(i.instance_get)
    instance_get                             0x00026dad   Thumb Code    14  ble_conn_params.o(i.instance_get)
    i.int_print                              0x00026dc0   Section        0  nrf_fprintf_format.o(i.int_print)
    int_print                                0x00026dc1   Thumb Code   166  nrf_fprintf_format.o(i.int_print)
    i.interrupts_enable                      0x00026e68   Section        0  nrf_drv_uart.o(i.interrupts_enable)
    interrupts_enable                        0x00026e69   Thumb Code   106  nrf_drv_uart.o(i.interrupts_enable)
    i.is_busy                                0x00026ee0   Section        0  nrf_fstorage_sd.o(i.is_busy)
    is_busy                                  0x00026ee1   Thumb Code    12  nrf_fstorage_sd.o(i.is_busy)
    i.is_conn_params_ok                      0x00026ef0   Section        0  ble_conn_params.o(i.is_conn_params_ok)
    is_conn_params_ok                        0x00026ef1   Thumb Code    68  ble_conn_params.o(i.is_conn_params_ok)
    i.is_valid_irk                           0x00026f34   Section        0  id_manager.o(i.is_valid_irk)
    i.is_word_aligned                        0x00026f48   Section        0  fds.o(i.is_word_aligned)
    is_word_aligned                          0x00026f49   Thumb Code    12  fds.o(i.is_word_aligned)
    i.leds_off                               0x00026f54   Section        0  bsp.o(i.leds_off)
    leds_off                                 0x00026f55   Thumb Code    42  bsp.o(i.leds_off)
    i.leds_timer_handler                     0x00026f84   Section        0  bsp.o(i.leds_timer_handler)
    leds_timer_handler                       0x00026f85   Thumb Code    16  bsp.o(i.leds_timer_handler)
    i.lfclk_stop                             0x00026f98   Section        0  nrf_drv_clock.o(i.lfclk_stop)
    lfclk_stop                               0x00026f99   Thumb Code    26  nrf_drv_clock.o(i.lfclk_stop)
    i.link_init                              0x00026fc0   Section        0  nrf_ble_gatt.o(i.link_init)
    link_init                                0x00026fc1   Thumb Code    20  nrf_ble_gatt.o(i.link_init)
    i.link_secure                            0x00026fd4   Section        0  security_manager.o(i.link_secure)
    link_secure                              0x00026fd5   Thumb Code   176  security_manager.o(i.link_secure)
    i.link_secure_failure                    0x00027088   Section        0  security_dispatcher.o(i.link_secure_failure)
    link_secure_failure                      0x00027089   Thumb Code   134  security_dispatcher.o(i.link_secure_failure)
    i.link_secure_pending_process            0x00027114   Section        0  security_manager.o(i.link_secure_pending_process)
    link_secure_pending_process              0x00027115   Thumb Code    88  security_manager.o(i.link_secure_pending_process)
    i.list_insertions_handler                0x00027170   Section        0  app_timer.o(i.list_insertions_handler)
    list_insertions_handler                  0x00027171   Thumb Code   234  app_timer.o(i.list_insertions_handler)
    i.local_db_apply_in_evt                  0x00027268   Section        0  gatt_cache_manager.o(i.local_db_apply_in_evt)
    local_db_apply_in_evt                    0x00027269   Thumb Code    98  gatt_cache_manager.o(i.local_db_apply_in_evt)
    i.local_db_update                        0x000272d0   Section        0  gatt_cache_manager.o(i.local_db_update)
    local_db_update                          0x000272d1   Thumb Code    10  gatt_cache_manager.o(i.local_db_update)
    i.lock_by_mask                           0x000272e0   Section        0  pm_mutex.o(i.lock_by_mask)
    lock_by_mask                             0x000272e1   Thumb Code    50  pm_mutex.o(i.lock_by_mask)
    i.log_skip                               0x00027314   Section        0  nrf_log_frontend.o(i.log_skip)
    log_skip                                 0x00027315   Thumb Code   138  nrf_log_frontend.o(i.log_skip)
    i.main                                   0x000273a8   Section        0  main.o(i.main)
    i.manuf_specific_data_encode             0x00027590   Section        0  ble_advdata.o(i.manuf_specific_data_encode)
    manuf_specific_data_encode               0x00027591   Thumb Code   100  ble_advdata.o(i.manuf_specific_data_encode)
    i.memobj_op                              0x000275f4   Section        0  nrf_memobj.o(i.memobj_op)
    memobj_op                                0x000275f5   Thumb Code   118  nrf_memobj.o(i.memobj_op)
    i.module_idx_get                         0x0002766c   Section        0  nrf_log_frontend.o(i.module_idx_get)
    module_idx_get                           0x0002766d   Thumb Code    48  nrf_log_frontend.o(i.module_idx_get)
    i.name_encode                            0x000276a0   Section        0  ble_advdata.o(i.name_encode)
    name_encode                              0x000276a1   Thumb Code   156  ble_advdata.o(i.name_encode)
    i.new_connection                         0x0002773c   Section        0  id_manager.o(i.new_connection)
    i.new_context_get                        0x00027794   Section        0  security_manager.o(i.new_context_get)
    new_context_get                          0x00027795   Thumb Code    14  security_manager.o(i.new_context_get)
    i.next_id_get                            0x000277a8   Section        0  peer_id.o(i.next_id_get)
    i.nrf_atfifo_clear                       0x000277d8   Section        0  nrf_atfifo.o(i.nrf_atfifo_clear)
    i.nrf_atfifo_init                        0x000277e8   Section        0  nrf_atfifo.o(i.nrf_atfifo_init)
    i.nrf_atfifo_item_alloc                  0x0002780e   Section        0  nrf_atfifo.o(i.nrf_atfifo_item_alloc)
    i.nrf_atfifo_item_free                   0x00027824   Section        0  nrf_atfifo.o(i.nrf_atfifo_item_free)
    i.nrf_atfifo_item_get                    0x0002783a   Section        0  nrf_atfifo.o(i.nrf_atfifo_item_get)
    i.nrf_atfifo_item_put                    0x00027850   Section        0  nrf_atfifo.o(i.nrf_atfifo_item_put)
    i.nrf_atomic_flag_set                    0x00027866   Section        0  nrf_log_frontend.o(i.nrf_atomic_flag_set)
    nrf_atomic_flag_set                      0x00027867   Thumb Code    14  nrf_log_frontend.o(i.nrf_atomic_flag_set)
    i.nrf_atomic_u32_add                     0x00027874   Section        0  fds.o(i.nrf_atomic_u32_add)
    nrf_atomic_u32_add                       0x00027875   Thumb Code    12  fds.o(i.nrf_atomic_u32_add)
    i.nrf_balloc_alloc                       0x00027880   Section        0  nrf_balloc.o(i.nrf_balloc_alloc)
    i.nrf_balloc_free                        0x000278c4   Section        0  nrf_balloc.o(i.nrf_balloc_free)
    i.nrf_balloc_init                        0x000278f4   Section        0  nrf_balloc.o(i.nrf_balloc_init)
    i.nrf_bitmask_bit_is_set                 0x00027924   Section        0  nrf_drv_gpiote.o(i.nrf_bitmask_bit_is_set)
    nrf_bitmask_bit_is_set                   0x00027925   Thumb Code    16  nrf_drv_gpiote.o(i.nrf_bitmask_bit_is_set)
    i.nrf_ble_gatt_init                      0x00027934   Section        0  nrf_ble_gatt.o(i.nrf_ble_gatt_init)
    i.nrf_ble_gatt_on_ble_evt                0x00027958   Section        0  nrf_ble_gatt.o(i.nrf_ble_gatt_on_ble_evt)
    i.nrf_clock_event_check                  0x00027aa0   Section        0  nrf_drv_clock.o(i.nrf_clock_event_check)
    nrf_clock_event_check                    0x00027aa1   Thumb Code    14  nrf_drv_clock.o(i.nrf_clock_event_check)
    i.nrf_clock_event_clear                  0x00027aae   Section        0  nrf_drv_clock.o(i.nrf_clock_event_clear)
    nrf_clock_event_clear                    0x00027aaf   Thumb Code    16  nrf_drv_clock.o(i.nrf_clock_event_clear)
    i.nrf_delay_us                           0x00027ac0   Section        0  app_timer.o(i.nrf_delay_us)
    nrf_delay_us                             0x00027ac1   Thumb Code   132  app_timer.o(i.nrf_delay_us)
    i.nrf_dfu_svci_vector_table_set          0x00027b4c   Section        0  nrf_dfu_svci.o(i.nrf_dfu_svci_vector_table_set)
    i.nrf_dfu_svci_vector_table_unset        0x00027c14   Section        0  nrf_dfu_svci.o(i.nrf_dfu_svci_vector_table_unset)
    i.nrf_drv_clock_init                     0x00027cb0   Section        0  nrf_drv_clock.o(i.nrf_drv_clock_init)
    i.nrf_drv_clock_lfclk_release            0x00027cf8   Section        0  nrf_drv_clock.o(i.nrf_drv_clock_lfclk_release)
    i.nrf_drv_common_irq_disable             0x00027d24   Section        0  nrf_drv_uart.o(i.nrf_drv_common_irq_disable)
    nrf_drv_common_irq_disable               0x00027d25   Thumb Code    22  nrf_drv_uart.o(i.nrf_drv_common_irq_disable)
    i.nrf_drv_common_irq_enable              0x00027d3a   Section        0  nrf_drv_common.o(i.nrf_drv_common_irq_enable)
    i.nrf_drv_get_IRQn                       0x00027d72   Section        0  nrf_drv_uart.o(i.nrf_drv_get_IRQn)
    nrf_drv_get_IRQn                         0x00027d73   Thumb Code     6  nrf_drv_uart.o(i.nrf_drv_get_IRQn)
    i.nrf_drv_gpiote_in_event_enable         0x00027d78   Section        0  nrf_drv_gpiote.o(i.nrf_drv_gpiote_in_event_enable)
    i.nrf_drv_gpiote_in_init                 0x00027e1c   Section        0  nrf_drv_gpiote.o(i.nrf_drv_gpiote_in_init)
    i.nrf_drv_gpiote_in_is_set               0x00027ed4   Section        0  nrf_drv_gpiote.o(i.nrf_drv_gpiote_in_is_set)
    i.nrf_drv_gpiote_init                    0x00027ee8   Section        0  nrf_drv_gpiote.o(i.nrf_drv_gpiote_init)
    i.nrf_drv_gpiote_is_init                 0x00027f44   Section        0  nrf_drv_gpiote.o(i.nrf_drv_gpiote_is_init)
    i.nrf_drv_is_in_RAM                      0x00027f58   Section        0  nrf_drv_uart.o(i.nrf_drv_is_in_RAM)
    nrf_drv_is_in_RAM                        0x00027f59   Thumb Code    16  nrf_drv_uart.o(i.nrf_drv_is_in_RAM)
    i.nrf_drv_uart_init                      0x00027f68   Section        0  nrf_drv_uart.o(i.nrf_drv_uart_init)
    i.nrf_drv_uart_tx                        0x00027fd0   Section        0  nrf_drv_uart.o(i.nrf_drv_uart_tx)
    i.nrf_drv_uart_tx_in_progress            0x000280dc   Section        0  nrf_drv_uart.o(i.nrf_drv_uart_tx_in_progress)
    i.nrf_drv_uart_uninit                    0x000280f4   Section        0  nrf_drv_uart.o(i.nrf_drv_uart_uninit)
    i.nrf_fprintf                            0x00028148   Section        0  nrf_fprintf.o(i.nrf_fprintf)
    i.nrf_fprintf_buffer_flush               0x00028162   Section        0  nrf_fprintf.o(i.nrf_fprintf_buffer_flush)
    i.nrf_fprintf_fmt                        0x0002817a   Section        0  nrf_fprintf_format.o(i.nrf_fprintf_fmt)
    i.nrf_fstorage_erase                     0x00028354   Section        0  nrf_fstorage.o(i.nrf_fstorage_erase)
    i.nrf_fstorage_init                      0x000283a2   Section        0  nrf_fstorage.o(i.nrf_fstorage_init)
    i.nrf_fstorage_is_busy                   0x000283b4   Section        0  nrf_fstorage.o(i.nrf_fstorage_is_busy)
    i.nrf_fstorage_sdh_req_handler           0x00028404   Section        0  nrf_fstorage_sd.o(i.nrf_fstorage_sdh_req_handler)
    i.nrf_fstorage_sdh_state_handler         0x0002841c   Section        0  nrf_fstorage_sd.o(i.nrf_fstorage_sdh_state_handler)
    i.nrf_fstorage_sys_evt_handler           0x0002843c   Section        0  nrf_fstorage_sd.o(i.nrf_fstorage_sys_evt_handler)
    i.nrf_fstorage_write                     0x000284e0   Section        0  nrf_fstorage.o(i.nrf_fstorage_write)
    i.nrf_gpio_cfg                           0x00028546   Section        0  boards.o(i.nrf_gpio_cfg)
    nrf_gpio_cfg                             0x00028547   Thumb Code    36  boards.o(i.nrf_gpio_cfg)
    i.nrf_gpio_cfg                           0x0002856a   Section        0  nrf_drv_gpiote.o(i.nrf_gpio_cfg)
    nrf_gpio_cfg                             0x0002856b   Thumb Code    36  nrf_drv_gpiote.o(i.nrf_gpio_cfg)
    i.nrf_gpio_cfg                           0x0002858e   Section        0  nrf_drv_uart.o(i.nrf_gpio_cfg)
    nrf_gpio_cfg                             0x0002858f   Thumb Code    36  nrf_drv_uart.o(i.nrf_gpio_cfg)
    i.nrf_gpio_cfg_default                   0x000285b2   Section        0  nrf_drv_uart.o(i.nrf_gpio_cfg_default)
    nrf_gpio_cfg_default                     0x000285b3   Thumb Code    18  nrf_drv_uart.o(i.nrf_gpio_cfg_default)
    i.nrf_gpio_cfg_input                     0x000285c4   Section        0  nrf_drv_uart.o(i.nrf_gpio_cfg_input)
    nrf_gpio_cfg_input                       0x000285c5   Thumb Code    18  nrf_drv_uart.o(i.nrf_gpio_cfg_input)
    i.nrf_gpio_cfg_output                    0x000285d6   Section        0  nrf_drv_uart.o(i.nrf_gpio_cfg_output)
    nrf_gpio_cfg_output                      0x000285d7   Thumb Code    20  nrf_drv_uart.o(i.nrf_gpio_cfg_output)
    i.nrf_gpio_cfg_sense_set                 0x000285ea   Section        0  bsp.o(i.nrf_gpio_cfg_sense_set)
    nrf_gpio_cfg_sense_set                   0x000285eb   Thumb Code    34  bsp.o(i.nrf_gpio_cfg_sense_set)
    i.nrf_gpio_cfg_sense_set                 0x0002860c   Section        0  nrf_drv_gpiote.o(i.nrf_gpio_cfg_sense_set)
    nrf_gpio_cfg_sense_set                   0x0002860d   Thumb Code    34  nrf_drv_gpiote.o(i.nrf_gpio_cfg_sense_set)
    i.nrf_gpio_pin_write                     0x0002862e   Section        0  boards.o(i.nrf_gpio_pin_write)
    nrf_gpio_pin_write                       0x0002862f   Thumb Code    22  boards.o(i.nrf_gpio_pin_write)
    i.nrf_gpio_ports_read                    0x00028644   Section        0  nrf_drv_gpiote.o(i.nrf_gpio_ports_read)
    nrf_gpio_ports_read                      0x00028645   Thumb Code    34  nrf_drv_gpiote.o(i.nrf_gpio_ports_read)
    i.nrf_gpiote_event_clear                 0x0002866c   Section        0  nrf_drv_gpiote.o(i.nrf_gpiote_event_clear)
    nrf_gpiote_event_clear                   0x0002866d   Thumb Code    16  nrf_drv_gpiote.o(i.nrf_gpiote_event_clear)
    i.nrf_gpiote_event_is_set                0x00028680   Section        0  nrf_drv_gpiote.o(i.nrf_gpiote_event_is_set)
    nrf_gpiote_event_is_set                  0x00028681   Thumb Code    12  nrf_drv_gpiote.o(i.nrf_gpiote_event_is_set)
    i.nrf_log_backend_add                    0x00028690   Section        0  nrf_log_frontend.o(i.nrf_log_backend_add)
    i.nrf_log_backend_serial_put             0x000286e0   Section        0  nrf_log_backend_serial.o(i.nrf_log_backend_serial_put)
    i.nrf_log_backend_uart_flush             0x000287b2   Section        0  nrf_log_backend_uart.o(i.nrf_log_backend_uart_flush)
    nrf_log_backend_uart_flush               0x000287b3   Thumb Code     2  nrf_log_backend_uart.o(i.nrf_log_backend_uart_flush)
    i.nrf_log_backend_uart_init              0x000287b4   Section        0  nrf_log_backend_uart.o(i.nrf_log_backend_uart_init)
    i.nrf_log_backend_uart_panic_set         0x000287bc   Section        0  nrf_log_backend_uart.o(i.nrf_log_backend_uart_panic_set)
    nrf_log_backend_uart_panic_set           0x000287bd   Thumb Code    18  nrf_log_backend_uart.o(i.nrf_log_backend_uart_panic_set)
    i.nrf_log_backend_uart_put               0x000287d4   Section        0  nrf_log_backend_uart.o(i.nrf_log_backend_uart_put)
    nrf_log_backend_uart_put                 0x000287d5   Thumb Code    16  nrf_log_backend_uart.o(i.nrf_log_backend_uart_put)
    i.nrf_log_color_id_get                   0x000287ec   Section        0  nrf_log_frontend.o(i.nrf_log_color_id_get)
    i.nrf_log_default_backends_init          0x0002881c   Section        0  nrf_log_default_backends.o(i.nrf_log_default_backends_init)
    i.nrf_log_frontend_dequeue               0x00028838   Section        0  nrf_log_frontend.o(i.nrf_log_frontend_dequeue)
    i.nrf_log_frontend_std_0                 0x00028a28   Section        0  nrf_log_frontend.o(i.nrf_log_frontend_std_0)
    i.nrf_log_frontend_std_1                 0x00028a30   Section        0  nrf_log_frontend.o(i.nrf_log_frontend_std_1)
    i.nrf_log_frontend_std_2                 0x00028a3e   Section        0  nrf_log_frontend.o(i.nrf_log_frontend_std_2)
    i.nrf_log_frontend_std_3                 0x00028a4e   Section        0  nrf_log_frontend.o(i.nrf_log_frontend_std_3)
    i.nrf_log_hexdump_entry_process          0x00028a60   Section        0  nrf_log_str_formatter.o(i.nrf_log_hexdump_entry_process)
    i.nrf_log_init                           0x00028b0c   Section        0  nrf_log_frontend.o(i.nrf_log_init)
    i.nrf_log_module_cnt_get                 0x00028b68   Section        0  nrf_log_frontend.o(i.nrf_log_module_cnt_get)
    i.nrf_log_module_name_get                0x00028b7c   Section        0  nrf_log_frontend.o(i.nrf_log_module_name_get)
    i.nrf_log_panic                          0x00028b98   Section        0  nrf_log_frontend.o(i.nrf_log_panic)
    i.nrf_log_std_entry_process              0x00028bc0   Section        0  nrf_log_str_formatter.o(i.nrf_log_std_entry_process)
    i.nrf_memobj_alloc                       0x00028c76   Section        0  nrf_memobj.o(i.nrf_memobj_alloc)
    i.nrf_memobj_free                        0x00028cd6   Section        0  nrf_memobj.o(i.nrf_memobj_free)
    i.nrf_memobj_get                         0x00028d08   Section        0  nrf_memobj.o(i.nrf_memobj_get)
    i.nrf_memobj_pool_init                   0x00028d16   Section        0  nrf_memobj.o(i.nrf_memobj_pool_init)
    i.nrf_memobj_put                         0x00028d1a   Section        0  nrf_memobj.o(i.nrf_memobj_put)
    i.nrf_memobj_read                        0x00028d3c   Section        0  nrf_memobj.o(i.nrf_memobj_read)
    i.nrf_memobj_write                       0x00028d48   Section        0  nrf_memobj.o(i.nrf_memobj_write)
    i.nrf_pwr_mgmt_init                      0x00028d54   Section        0  nrf_pwr_mgmt.o(i.nrf_pwr_mgmt_init)
    i.nrf_pwr_mgmt_run                       0x00028da4   Section        0  nrf_pwr_mgmt.o(i.nrf_pwr_mgmt_run)
    i.nrf_pwr_mgmt_shutdown                  0x00028de8   Section        0  nrf_pwr_mgmt.o(i.nrf_pwr_mgmt_shutdown)
    i.nrf_pwr_mgmt_timeout_handler           0x00028e28   Section        0  nrf_pwr_mgmt.o(i.nrf_pwr_mgmt_timeout_handler)
    nrf_pwr_mgmt_timeout_handler             0x00028e29   Thumb Code    16  nrf_pwr_mgmt.o(i.nrf_pwr_mgmt_timeout_handler)
    i.nrf_sdh_ble_app_ram_start_get          0x00028e3c   Section        0  nrf_sdh_ble.o(i.nrf_sdh_ble_app_ram_start_get)
    i.nrf_sdh_ble_default_cfg_set            0x00028e50   Section        0  nrf_sdh_ble.o(i.nrf_sdh_ble_default_cfg_set)
    i.nrf_sdh_ble_enable                     0x00028f58   Section        0  nrf_sdh_ble.o(i.nrf_sdh_ble_enable)
    i.nrf_sdh_ble_evts_poll                  0x00029030   Section        0  nrf_sdh_ble.o(i.nrf_sdh_ble_evts_poll)
    nrf_sdh_ble_evts_poll                    0x00029031   Thumb Code    74  nrf_sdh_ble.o(i.nrf_sdh_ble_evts_poll)
    i.nrf_sdh_disable_request                0x00029080   Section        0  nrf_sdh.o(i.nrf_sdh_disable_request)
    i.nrf_sdh_enable_request                 0x000290bc   Section        0  nrf_sdh.o(i.nrf_sdh_enable_request)
    i.nrf_sdh_evts_poll                      0x00029128   Section        0  nrf_sdh.o(i.nrf_sdh_evts_poll)
    i.nrf_sdh_is_enabled                     0x0002914c   Section        0  nrf_sdh.o(i.nrf_sdh_is_enabled)
    i.nrf_sdh_request_continue               0x00029158   Section        0  nrf_sdh.o(i.nrf_sdh_request_continue)
    i.nrf_sdh_soc_evts_poll                  0x00029174   Section        0  nrf_sdh_soc.o(i.nrf_sdh_soc_evts_poll)
    nrf_sdh_soc_evts_poll                    0x00029175   Thumb Code    56  nrf_sdh_soc.o(i.nrf_sdh_soc_evts_poll)
    i.nrf_section_iter_init                  0x000291b0   Section        0  nrf_section_iter.o(i.nrf_section_iter_init)
    i.nrf_section_iter_item_set              0x000291ba   Section        0  nrf_section_iter.o(i.nrf_section_iter_item_set)
    nrf_section_iter_item_set                0x000291bb   Thumb Code    36  nrf_section_iter.o(i.nrf_section_iter_item_set)
    i.nrf_section_iter_next                  0x000291de   Section        0  nrf_section_iter.o(i.nrf_section_iter_next)
    i.nrf_strerror_find                      0x00029200   Section        0  nrf_strerror.o(i.nrf_strerror_find)
    i.nrf_strerror_get                       0x00029238   Section        0  nrf_strerror.o(i.nrf_strerror_get)
    i.nrf_uart_event_check                   0x0002924c   Section        0  nrf_drv_uart.o(i.nrf_uart_event_check)
    nrf_uart_event_check                     0x0002924d   Thumb Code    10  nrf_drv_uart.o(i.nrf_uart_event_check)
    i.nrf_uart_event_clear                   0x00029256   Section        0  nrf_drv_uart.o(i.nrf_uart_event_clear)
    nrf_uart_event_clear                     0x00029257   Thumb Code    12  nrf_drv_uart.o(i.nrf_uart_event_clear)
    i.nrf_uart_int_enable_check              0x00029262   Section        0  nrf_drv_uart.o(i.nrf_uart_int_enable_check)
    nrf_uart_int_enable_check                0x00029263   Thumb Code    12  nrf_drv_uart.o(i.nrf_uart_int_enable_check)
    i.nrf_uarte_event_check                  0x0002926e   Section        0  nrf_drv_uart.o(i.nrf_uarte_event_check)
    nrf_uarte_event_check                    0x0002926f   Thumb Code    10  nrf_drv_uart.o(i.nrf_uarte_event_check)
    i.nrf_uarte_event_clear                  0x00029278   Section        0  nrf_drv_uart.o(i.nrf_uarte_event_clear)
    nrf_uarte_event_clear                    0x00029279   Thumb Code    12  nrf_drv_uart.o(i.nrf_uarte_event_clear)
    i.on_adv_evt                             0x00029284   Section        0  main.o(i.on_adv_evt)
    on_adv_evt                               0x00029285   Thumb Code    36  main.o(i.on_adv_evt)
    i.on_conn_params_evt                     0x000292a8   Section        0  main.o(i.on_conn_params_evt)
    on_conn_params_evt                       0x000292a9   Thumb Code    24  main.o(i.on_conn_params_evt)
    i.on_connected_evt                       0x000292c4   Section        0  nrf_ble_gatt.o(i.on_connected_evt)
    on_connected_evt                         0x000292c5   Thumb Code   142  nrf_ble_gatt.o(i.on_connected_evt)
    i.on_exchange_mtu_request_evt            0x00029360   Section        0  nrf_ble_gatt.o(i.on_exchange_mtu_request_evt)
    on_exchange_mtu_request_evt              0x00029361   Thumb Code   102  nrf_ble_gatt.o(i.on_exchange_mtu_request_evt)
    i.on_rw_authorize_req                    0x000293d4   Section        0  ble_dfu.o(i.on_rw_authorize_req)
    on_rw_authorize_req                      0x000293d5   Thumb Code   106  ble_dfu.o(i.on_rw_authorize_req)
    i.page_identify                          0x00029444   Section        0  fds.o(i.page_identify)
    page_identify                            0x00029445   Thumb Code    26  fds.o(i.page_identify)
    i.page_offsets_update                    0x00029468   Section        0  fds.o(i.page_offsets_update)
    page_offsets_update                      0x00029469   Thumb Code    18  fds.o(i.page_offsets_update)
    i.page_scan                              0x0002947c   Section        0  fds.o(i.page_scan)
    page_scan                                0x0002947d   Thumb Code   104  fds.o(i.page_scan)
    i.page_tag_write_data                    0x000294e8   Section        0  fds.o(i.page_tag_write_data)
    page_tag_write_data                      0x000294e9   Thumb Code    20  fds.o(i.page_tag_write_data)
    i.page_tag_write_swap                    0x00029504   Section        0  fds.o(i.page_tag_write_swap)
    page_tag_write_swap                      0x00029505   Thumb Code    22  fds.o(i.page_tag_write_swap)
    i.pages_init                             0x00029528   Section        0  fds.o(i.pages_init)
    pages_init                               0x00029529   Thumb Code   272  fds.o(i.pages_init)
    i.pairing                                0x00029644   Section        0  security_dispatcher.o(i.pairing)
    pairing                                  0x00029645   Thumb Code     8  security_dispatcher.o(i.pairing)
    i.params_reply_pending_process           0x00029650   Section        0  security_manager.o(i.params_reply_pending_process)
    params_reply_pending_process             0x00029651   Thumb Code    62  security_manager.o(i.params_reply_pending_process)
    i.params_req_send                        0x0002968e   Section        0  security_manager.o(i.params_req_send)
    params_req_send                          0x0002968f   Thumb Code    40  security_manager.o(i.params_req_send)
    i.pdb_evt_send                           0x000296b8   Section        0  peer_database.o(i.pdb_evt_send)
    pdb_evt_send                             0x000296b9   Thumb Code    24  peer_database.o(i.pdb_evt_send)
    i.pdb_init                               0x000296d4   Section        0  peer_database.o(i.pdb_init)
    i.pdb_next_deleted_peer_id_get           0x0002971c   Section        0  peer_database.o(i.pdb_next_deleted_peer_id_get)
    i.pdb_next_peer_id_get                   0x00029720   Section        0  peer_database.o(i.pdb_next_peer_id_get)
    i.pdb_pds_evt_handler                    0x00029724   Section        0  peer_database.o(i.pdb_pds_evt_handler)
    i.pdb_peer_allocate                      0x0002979c   Section        0  peer_database.o(i.pdb_peer_allocate)
    i.pdb_peer_data_load                     0x000297a0   Section        0  peer_database.o(i.pdb_peer_data_load)
    i.pdb_peer_data_ptr_get                  0x000297b0   Section        0  peer_database.o(i.pdb_peer_data_ptr_get)
    i.pdb_peer_free                          0x000297b6   Section        0  peer_database.o(i.pdb_peer_free)
    i.pdb_raw_store                          0x000297fa   Section        0  peer_database.o(i.pdb_raw_store)
    i.pdb_write_buf_get                      0x00029804   Section        0  peer_database.o(i.pdb_write_buf_get)
    i.pdb_write_buf_release                  0x00029908   Section        0  peer_database.o(i.pdb_write_buf_release)
    i.pdb_write_buf_store                    0x00029930   Section        0  peer_database.o(i.pdb_write_buf_store)
    i.pdb_write_buf_store_prepare            0x00029958   Section        0  peer_database.o(i.pdb_write_buf_store_prepare)
    i.pds_evt_send                           0x000299c0   Section        0  peer_data_storage.o(i.pds_evt_send)
    pds_evt_send                             0x000299c1   Thumb Code    12  peer_data_storage.o(i.pds_evt_send)
    i.pds_init                               0x000299d0   Section        0  peer_data_storage.o(i.pds_init)
    i.pds_next_deleted_peer_id_get           0x00029a3c   Section        0  peer_data_storage.o(i.pds_next_deleted_peer_id_get)
    i.pds_next_peer_id_get                   0x00029a40   Section        0  peer_data_storage.o(i.pds_next_peer_id_get)
    i.pds_peer_data_iterate                  0x00029a44   Section        0  peer_data_storage.o(i.pds_peer_data_iterate)
    i.pds_peer_data_iterate_prepare          0x00029a9c   Section        0  peer_data_storage.o(i.pds_peer_data_iterate_prepare)
    i.pds_peer_data_read                     0x00029aac   Section        0  peer_data_storage.o(i.pds_peer_data_read)
    i.pds_peer_data_store                    0x00029b14   Section        0  peer_data_storage.o(i.pds_peer_data_store)
    i.pds_peer_id_allocate                   0x00029baa   Section        0  peer_data_storage.o(i.pds_peer_id_allocate)
    i.pds_peer_id_free                       0x00029bb2   Section        0  peer_data_storage.o(i.pds_peer_id_free)
    i.pds_peer_id_is_allocated               0x00029bc8   Section        0  peer_data_storage.o(i.pds_peer_id_is_allocated)
    i.pds_space_reserve                      0x00029bcc   Section        0  peer_data_storage.o(i.pds_space_reserve)
    i.pds_space_reserve_cancel               0x00029bfa   Section        0  peer_data_storage.o(i.pds_space_reserve_cancel)
    i.peer_created                           0x00029c0c   Section        0  security_dispatcher.o(i.peer_created)
    peer_created                             0x00029c0d   Thumb Code     8  security_dispatcher.o(i.peer_created)
    i.peer_data_const_point_to_buffer        0x00029c18   Section        0  peer_database.o(i.peer_data_const_point_to_buffer)
    peer_data_const_point_to_buffer          0x00029c19   Thumb Code     6  peer_database.o(i.peer_data_const_point_to_buffer)
    i.peer_data_delete                       0x00029c20   Section        0  peer_data_storage.o(i.peer_data_delete)
    peer_data_delete                         0x00029c21   Thumb Code   122  peer_data_storage.o(i.peer_data_delete)
    i.peer_data_find                         0x00029ca4   Section        0  peer_data_storage.o(i.peer_data_find)
    peer_data_find                           0x00029ca5   Thumb Code    48  peer_data_storage.o(i.peer_data_find)
    i.peer_data_id_is_valid                  0x00029cd4   Section        0  peer_data_storage.o(i.peer_data_id_is_valid)
    peer_data_id_is_valid                    0x00029cd5   Thumb Code    32  peer_data_storage.o(i.peer_data_id_is_valid)
    i.peer_data_point_to_buffer              0x00029cf4   Section        0  peer_database.o(i.peer_data_point_to_buffer)
    peer_data_point_to_buffer                0x00029cf5   Thumb Code    26  peer_database.o(i.peer_data_point_to_buffer)
    i.peer_id_allocate                       0x00029d10   Section        0  peer_id.o(i.peer_id_allocate)
    i.peer_id_delete                         0x00029d1c   Section        0  peer_id.o(i.peer_id_delete)
    i.peer_id_free                           0x00029d40   Section        0  peer_id.o(i.peer_id_free)
    i.peer_id_get_next_deleted               0x00029d5c   Section        0  peer_id.o(i.peer_id_get_next_deleted)
    i.peer_id_get_next_used                  0x00029d68   Section        0  peer_id.o(i.peer_id_get_next_used)
    i.peer_id_init                           0x00029d98   Section        0  peer_id.o(i.peer_id_init)
    i.peer_id_is_allocated                   0x00029dc0   Section        0  peer_id.o(i.peer_id_is_allocated)
    i.peer_id_is_deleted                     0x00029dd4   Section        0  peer_id.o(i.peer_id_is_deleted)
    i.peer_id_set                            0x00029de8   Section        0  id_manager.o(i.peer_id_set)
    peer_id_set                              0x00029de9   Thumb Code    24  id_manager.o(i.peer_id_set)
    i.peer_manager_init                      0x00029e04   Section        0  main.o(i.peer_manager_init)
    peer_manager_init                        0x00029e05   Thumb Code   104  main.o(i.peer_manager_init)
    i.pending_flags_check                    0x00029e70   Section        0  gatt_cache_manager.o(i.pending_flags_check)
    pending_flags_check                      0x00029e71   Thumb Code   206  gatt_cache_manager.o(i.pending_flags_check)
    i.pin_in_use_by_port                     0x00029f48   Section        0  nrf_drv_gpiote.o(i.pin_in_use_by_port)
    pin_in_use_by_port                       0x00029f49   Thumb Code    20  nrf_drv_gpiote.o(i.pin_in_use_by_port)
    i.pin_in_use_by_te                       0x00029f60   Section        0  nrf_drv_gpiote.o(i.pin_in_use_by_te)
    pin_in_use_by_te                         0x00029f61   Thumb Code    20  nrf_drv_gpiote.o(i.pin_in_use_by_te)
    i.pins_to_default                        0x00029f78   Section        0  nrf_drv_uart.o(i.pins_to_default)
    pins_to_default                          0x00029f79   Thumb Code   114  nrf_drv_uart.o(i.pins_to_default)
    i.pm_buffer_block_acquire                0x00029ff0   Section        0  pm_buffer.o(i.pm_buffer_block_acquire)
    i.pm_buffer_init                         0x0002a04c   Section        0  pm_buffer.o(i.pm_buffer_init)
    i.pm_buffer_ptr_get                      0x0002a08c   Section        0  pm_buffer.o(i.pm_buffer_ptr_get)
    i.pm_buffer_release                      0x0002a0b4   Section        0  pm_buffer.o(i.pm_buffer_release)
    i.pm_conn_sec_config_reply               0x0002a0e2   Section        0  peer_manager.o(i.pm_conn_sec_config_reply)
    i.pm_evt_handler                         0x0002a0ec   Section        0  main.o(i.pm_evt_handler)
    pm_evt_handler                           0x0002a0ed   Thumb Code   142  main.o(i.pm_evt_handler)
    i.pm_gcm_evt_handler                     0x0002a1ec   Section        0  peer_manager.o(i.pm_gcm_evt_handler)
    i.pm_im_evt_handler                      0x0002a1f0   Section        0  peer_manager.o(i.pm_im_evt_handler)
    i.pm_init                                0x0002a214   Section        0  peer_manager.o(i.pm_init)
    i.pm_local_database_has_changed          0x0002a26c   Section        0  peer_manager.o(i.pm_local_database_has_changed)
    i.pm_mutex_init                          0x0002a280   Section        0  pm_mutex.o(i.pm_mutex_init)
    i.pm_mutex_lock                          0x0002a28e   Section        0  pm_mutex.o(i.pm_mutex_lock)
    i.pm_mutex_lock_first_available          0x0002a2a8   Section        0  pm_mutex.o(i.pm_mutex_lock_first_available)
    i.pm_mutex_lock_status_get               0x0002a2de   Section        0  pm_mutex.o(i.pm_mutex_lock_status_get)
    i.pm_mutex_unlock                        0x0002a2f6   Section        0  pm_mutex.o(i.pm_mutex_unlock)
    i.pm_pdb_evt_handler                     0x0002a330   Section        0  peer_manager.o(i.pm_pdb_evt_handler)
    i.pm_peer_delete                         0x0002a448   Section        0  peer_manager.o(i.pm_peer_delete)
    i.pm_peer_ranks_get                      0x0002a45c   Section        0  peer_manager.o(i.pm_peer_ranks_get)
    i.pm_peers_delete                        0x0002a514   Section        0  peer_manager.o(i.pm_peers_delete)
    i.pm_register                            0x0002a57c   Section        0  peer_manager.o(i.pm_register)
    i.pm_sec_params_set                      0x0002a5a8   Section        0  peer_manager.o(i.pm_sec_params_set)
    i.pm_sm_evt_handler                      0x0002a5bc   Section        0  peer_manager.o(i.pm_sm_evt_handler)
    i.postfix_process                        0x0002a5f0   Section        0  nrf_log_str_formatter.o(i.postfix_process)
    postfix_process                          0x0002a5f1   Thumb Code    48  nrf_log_str_formatter.o(i.postfix_process)
    i.prefix_process                         0x0002a62c   Section        0  nrf_log_str_formatter.o(i.prefix_process)
    prefix_process                           0x0002a62d   Thumb Code    72  nrf_log_str_formatter.o(i.prefix_process)
    i.queue_buf_get                          0x0002a688   Section        0  fds.o(i.queue_buf_get)
    queue_buf_get                            0x0002a689   Thumb Code    24  fds.o(i.queue_buf_get)
    i.queue_buf_store                        0x0002a6a4   Section        0  fds.o(i.queue_buf_store)
    queue_buf_store                          0x0002a6a5   Thumb Code    10  fds.o(i.queue_buf_store)
    i.queue_process                          0x0002a6b4   Section        0  fds.o(i.queue_process)
    queue_process                            0x0002a6b5   Thumb Code   158  fds.o(i.queue_process)
    i.queue_process                          0x0002a75c   Section        0  nrf_fstorage_sd.o(i.queue_process)
    queue_process                            0x0002a75d   Thumb Code   140  nrf_fstorage_sd.o(i.queue_process)
    i.queue_start                            0x0002a7f4   Section        0  fds.o(i.queue_start)
    queue_start                              0x0002a7f5   Thumb Code    26  fds.o(i.queue_start)
    i.queue_start                            0x0002a814   Section        0  nrf_fstorage_sd.o(i.queue_start)
    queue_start                              0x0002a815   Thumb Code    36  nrf_fstorage_sd.o(i.queue_start)
    i.rank_vars_update                       0x0002a83c   Section        0  peer_manager.o(i.rank_vars_update)
    rank_vars_update                         0x0002a83d   Thumb Code    34  peer_manager.o(i.rank_vars_update)
    i.read                                   0x0002a864   Section        0  nrf_fstorage_sd.o(i.read)
    read                                     0x0002a865   Thumb Code    14  nrf_fstorage_sd.o(i.read)
    i.reattempt_previous_operations          0x0002a874   Section        0  peer_database.o(i.reattempt_previous_operations)
    reattempt_previous_operations            0x0002a875   Thumb Code    94  peer_database.o(i.reattempt_previous_operations)
    i.record_find                            0x0002a8dc   Section        0  fds.o(i.record_find)
    record_find                              0x0002a8dd   Thumb Code   128  fds.o(i.record_find)
    i.record_find_by_desc                    0x0002a964   Section        0  fds.o(i.record_find_by_desc)
    record_find_by_desc                      0x0002a965   Thumb Code   152  fds.o(i.record_find_by_desc)
    i.record_find_next                       0x0002aa04   Section        0  fds.o(i.record_find_next)
    record_find_next                         0x0002aa05   Thumb Code    88  fds.o(i.record_find_next)
    i.record_header_flag_dirty               0x0002aa60   Section        0  fds.o(i.record_header_flag_dirty)
    record_header_flag_dirty                 0x0002aa61   Thumb Code    44  fds.o(i.record_header_flag_dirty)
    i.release                                0x0002aa98   Section        0  peer_id.o(i.release)
    release                                  0x0002aa99   Thumb Code    16  peer_id.o(i.release)
    i.rmap                                   0x0002aaa8   Section        0  nrf_fstorage_sd.o(i.rmap)
    rmap                                     0x0002aaa9   Thumb Code     4  nrf_fstorage_sd.o(i.rmap)
    i.rtc1_stop                              0x0002aaac   Section        0  app_timer.o(i.rtc1_stop)
    rtc1_stop                                0x0002aaad   Thumb Code    52  app_timer.o(i.rtc1_stop)
    i.rx_byte                                0x0002aae8   Section        0  nrf_drv_uart.o(i.rx_byte)
    rx_byte                                  0x0002aae9   Thumb Code    50  nrf_drv_uart.o(i.rx_byte)
    i.rx_done_event                          0x0002ab1a   Section        0  nrf_drv_uart.o(i.rx_done_event)
    rx_done_event                            0x0002ab1b   Thumb Code    24  nrf_drv_uart.o(i.rx_done_event)
    i.sd_nvic_SetPriority                    0x0002ab32   Section        0  nrf_sdh.o(i.sd_nvic_SetPriority)
    sd_nvic_SetPriority                      0x0002ab33   Thumb Code    66  nrf_sdh.o(i.sd_nvic_SetPriority)
    i.sd_state_evt_handler                   0x0002ab74   Section        0  nrf_drv_clock.o(i.sd_state_evt_handler)
    sd_state_evt_handler                     0x0002ab75   Thumb Code    80  nrf_drv_clock.o(i.sd_state_evt_handler)
    i.sdh_request_observer_notify            0x0002abc8   Section        0  nrf_sdh.o(i.sdh_request_observer_notify)
    sdh_request_observer_notify              0x0002abc9   Thumb Code    44  nrf_sdh.o(i.sdh_request_observer_notify)
    i.sdh_state_observer_notify              0x0002abf8   Section        0  nrf_sdh.o(i.sdh_state_observer_notify)
    sdh_state_observer_notify                0x0002abf9   Thumb Code    38  nrf_sdh.o(i.sdh_state_observer_notify)
    i.sdk_mapped_flags_bulk_update_by_key    0x0002ac24   Section        0  sdk_mapped_flags.o(i.sdk_mapped_flags_bulk_update_by_key)
    i.sdk_mapped_flags_first_key_index_get   0x0002ac68   Section        0  sdk_mapped_flags.o(i.sdk_mapped_flags_first_key_index_get)
    i.sdk_mapped_flags_get_by_index          0x0002ac8a   Section        0  sdk_mapped_flags.o(i.sdk_mapped_flags_get_by_index)
    sdk_mapped_flags_get_by_index            0x0002ac8b   Thumb Code    16  sdk_mapped_flags.o(i.sdk_mapped_flags_get_by_index)
    i.sdk_mapped_flags_get_by_key            0x0002ac9a   Section        0  sdk_mapped_flags.o(i.sdk_mapped_flags_get_by_key)
    i.sdk_mapped_flags_key_list_get          0x0002acc0   Section        0  sdk_mapped_flags.o(i.sdk_mapped_flags_key_list_get)
    i.sdk_mapped_flags_update_by_key         0x0002ad0a   Section        0  sdk_mapped_flags.o(i.sdk_mapped_flags_update_by_key)
    i.sec_info_request_process               0x0002ad18   Section        0  security_dispatcher.o(i.sec_info_request_process)
    sec_info_request_process                 0x0002ad19   Thumb Code   162  security_dispatcher.o(i.sec_info_request_process)
    i.sec_keyset_fill                        0x0002adbc   Section        0  security_dispatcher.o(i.sec_keyset_fill)
    sec_keyset_fill                          0x0002adbd   Thumb Code   104  security_dispatcher.o(i.sec_keyset_fill)
    i.sec_params_verify                      0x0002ae28   Section        0  security_manager.o(i.sec_params_verify)
    sec_params_verify                        0x0002ae29   Thumb Code   118  security_manager.o(i.sec_params_verify)
    i.sec_proc_housekeeping                  0x0002aea0   Section        0  security_dispatcher.o(i.sec_proc_housekeeping)
    sec_proc_housekeeping                    0x0002aea1   Thumb Code    52  security_dispatcher.o(i.sec_proc_housekeeping)
    i.sec_proc_start                         0x0002aed8   Section        0  security_dispatcher.o(i.sec_proc_start)
    sec_proc_start                           0x0002aed9   Thumb Code    96  security_dispatcher.o(i.sec_proc_start)
    i.send_config_req                        0x0002af40   Section        0  security_dispatcher.o(i.send_config_req)
    send_config_req                          0x0002af41   Thumb Code    34  security_dispatcher.o(i.send_config_req)
    i.send_error_evt                         0x0002af64   Section        0  ble_conn_params.o(i.send_error_evt)
    send_error_evt                           0x0002af65   Thumb Code    12  ble_conn_params.o(i.send_error_evt)
    i.send_unexpected_error                  0x0002af74   Section        0  gatt_cache_manager.o(i.send_unexpected_error)
    send_unexpected_error                    0x0002af75   Thumb Code    34  gatt_cache_manager.o(i.send_unexpected_error)
    i.send_unexpected_error                  0x0002af9c   Section        0  security_dispatcher.o(i.send_unexpected_error)
    send_unexpected_error                    0x0002af9d   Thumb Code    34  security_dispatcher.o(i.send_unexpected_error)
    i.serial_tx                              0x0002afc4   Section        0  nrf_log_backend_uart.o(i.serial_tx)
    serial_tx                                0x0002afc5   Thumb Code    36  nrf_log_backend_uart.o(i.serial_tx)
    i.service_changed_pending_set            0x0002afec   Section        0  gatts_cache_manager.o(i.service_changed_pending_set)
    service_changed_pending_set              0x0002afed   Thumb Code    58  gatts_cache_manager.o(i.service_changed_pending_set)
    i.service_changed_send_in_evt            0x0002b030   Section        0  gatt_cache_manager.o(i.service_changed_send_in_evt)
    service_changed_send_in_evt              0x0002b031   Thumb Code   130  gatt_cache_manager.o(i.service_changed_send_in_evt)
    i.service_data_encode                    0x0002b0bc   Section        0  ble_advdata.o(i.service_data_encode)
    service_data_encode                      0x0002b0bd   Thumb Code   136  ble_advdata.o(i.service_data_encode)
    i.shutdown_process                       0x0002b144   Section        0  nrf_pwr_mgmt.o(i.shutdown_process)
    shutdown_process                         0x0002b145   Thumb Code   104  nrf_pwr_mgmt.o(i.shutdown_process)
    i.sleep_mode_enter                       0x0002b1c0   Section        0  main.o(i.sleep_mode_enter)
    sleep_mode_enter                         0x0002b1c1   Thumb Code    40  main.o(i.sleep_mode_enter)
    i.sm_ble_evt_handler                     0x0002b1e8   Section        0  security_manager.o(i.sm_ble_evt_handler)
    i.sm_conn_sec_config_reply               0x0002b200   Section        0  security_manager.o(i.sm_conn_sec_config_reply)
    i.sm_init                                0x0002b204   Section        0  security_manager.o(i.sm_init)
    i.sm_pdb_evt_handler                     0x0002b250   Section        0  security_manager.o(i.sm_pdb_evt_handler)
    i.sm_sec_params_set                      0x0002b290   Section        0  security_manager.o(i.sm_sec_params_set)
    i.sm_smd_evt_handler                     0x0002b2c4   Section        0  security_manager.o(i.sm_smd_evt_handler)
    i.smd_ble_evt_handler                    0x0002b324   Section        0  security_dispatcher.o(i.smd_ble_evt_handler)
    i.smd_conn_sec_config_reply              0x0002b418   Section        0  security_dispatcher.o(i.smd_conn_sec_config_reply)
    i.smd_init                               0x0002b428   Section        0  security_dispatcher.o(i.smd_init)
    i.smd_link_secure                        0x0002b480   Section        0  security_dispatcher.o(i.smd_link_secure)
    i.smd_params_reply                       0x0002b4a4   Section        0  security_dispatcher.o(i.smd_params_reply)
    i.smd_params_reply_perform               0x0002b5a0   Section        0  security_manager.o(i.smd_params_reply_perform)
    smd_params_reply_perform                 0x0002b5a1   Thumb Code    58  security_manager.o(i.smd_params_reply_perform)
    i.soc_evt_handler                        0x0002b5e0   Section        0  nrf_drv_clock.o(i.soc_evt_handler)
    soc_evt_handler                          0x0002b5e1   Thumb Code    10  nrf_drv_clock.o(i.soc_evt_handler)
    i.softdevice_evt_irq_disable             0x0002b5ec   Section        0  nrf_sdh.o(i.softdevice_evt_irq_disable)
    softdevice_evt_irq_disable               0x0002b5ed   Thumb Code    52  nrf_sdh.o(i.softdevice_evt_irq_disable)
    i.softdevices_evt_irq_enable             0x0002b624   Section        0  nrf_sdh.o(i.softdevices_evt_irq_enable)
    softdevices_evt_irq_enable               0x0002b625   Thumb Code    72  nrf_sdh.o(i.softdevices_evt_irq_enable)
    i.std_n                                  0x0002b674   Section        0  nrf_log_frontend.o(i.std_n)
    std_n                                    0x0002b675   Thumb Code   140  nrf_log_frontend.o(i.std_n)
    i.timer_list_handler                     0x0002b704   Section        0  app_timer.o(i.timer_list_handler)
    timer_list_handler                       0x0002b705   Thumb Code   122  app_timer.o(i.timer_list_handler)
    i.timer_list_insert                      0x0002b784   Section        0  app_timer.o(i.timer_list_insert)
    timer_list_insert                        0x0002b785   Thumb Code    56  app_timer.o(i.timer_list_insert)
    i.timer_list_remove                      0x0002b7c0   Section        0  app_timer.o(i.timer_list_remove)
    timer_list_remove                        0x0002b7c1   Thumb Code    88  app_timer.o(i.timer_list_remove)
    i.timer_stop_op_schedule                 0x0002b820   Section        0  app_timer.o(i.timer_stop_op_schedule)
    timer_stop_op_schedule                   0x0002b821   Thumb Code    68  app_timer.o(i.timer_stop_op_schedule)
    i.timer_timeouts_check                   0x0002b868   Section        0  app_timer.o(i.timer_timeouts_check)
    timer_timeouts_check                     0x0002b869   Thumb Code   106  app_timer.o(i.timer_timeouts_check)
    i.tx_byte                                0x0002b8dc   Section        0  nrf_drv_uart.o(i.tx_byte)
    tx_byte                                  0x0002b8dd   Thumb Code    32  nrf_drv_uart.o(i.tx_byte)
    i.tx_done_event                          0x0002b8fc   Section        0  nrf_drv_uart.o(i.tx_done_event)
    tx_done_event                            0x0002b8fd   Thumb Code    28  nrf_drv_uart.o(i.tx_done_event)
    i.uart_evt_handler                       0x0002b918   Section        0  nrf_log_backend_uart.o(i.uart_evt_handler)
    uart_evt_handler                         0x0002b919   Thumb Code     8  nrf_log_backend_uart.o(i.uart_evt_handler)
    i.uart_init                              0x0002b924   Section        0  nrf_log_backend_uart.o(i.uart_init)
    uart_init                                0x0002b925   Thumb Code    66  nrf_log_backend_uart.o(i.uart_init)
    i.uart_irq_handler                       0x0002b974   Section        0  nrf_drv_uart.o(i.uart_irq_handler)
    uart_irq_handler                         0x0002b975   Thumb Code   286  nrf_drv_uart.o(i.uart_irq_handler)
    i.uarte_irq_handler                      0x0002ba92   Section        0  nrf_drv_uart.o(i.uarte_irq_handler)
    uarte_irq_handler                        0x0002ba93   Thumb Code   240  nrf_drv_uart.o(i.uarte_irq_handler)
    i.uint16_encode                          0x0002bb82   Section        0  ble_advdata.o(i.uint16_encode)
    uint16_encode                            0x0002bb83   Thumb Code    10  ble_advdata.o(i.uint16_encode)
    i.uninit                                 0x0002bb8c   Section        0  nrf_fstorage_sd.o(i.uninit)
    uninit                                   0x0002bb8d   Thumb Code    22  nrf_fstorage_sd.o(i.uninit)
    i.unsigned_print                         0x0002bbac   Section        0  nrf_fprintf_format.o(i.unsigned_print)
    unsigned_print                           0x0002bbad   Thumb Code   176  nrf_fprintf_format.o(i.unsigned_print)
    i.update_timeout_handler                 0x0002bc60   Section        0  ble_conn_params.o(i.update_timeout_handler)
    update_timeout_handler                   0x0002bc61   Thumb Code    98  ble_conn_params.o(i.update_timeout_handler)
    i.user_flag_is_acquired                  0x0002bcc8   Section        0  ble_conn_state.o(i.user_flag_is_acquired)
    user_flag_is_acquired                    0x0002bcc9   Thumb Code    20  ble_conn_state.o(i.user_flag_is_acquired)
    i.user_op_alloc                          0x0002bce0   Section        0  app_timer.o(i.user_op_alloc)
    user_op_alloc                            0x0002bce1   Thumb Code    42  app_timer.o(i.user_op_alloc)
    i.uuid_list_encode                       0x0002bd10   Section        0  ble_advdata.o(i.uuid_list_encode)
    uuid_list_encode                         0x0002bd11   Thumb Code    48  ble_advdata.o(i.uuid_list_encode)
    i.uuid_list_sized_encode                 0x0002bd40   Section        0  ble_advdata.o(i.uuid_list_sized_encode)
    uuid_list_sized_encode                   0x0002bd41   Thumb Code   158  ble_advdata.o(i.uuid_list_sized_encode)
    i.wmap                                   0x0002bdde   Section        0  nrf_fstorage_sd.o(i.wmap)
    wmap                                     0x0002bddf   Thumb Code     4  nrf_fstorage_sd.o(i.wmap)
    i.write                                  0x0002bde4   Section        0  nrf_fstorage_sd.o(i.write)
    write                                    0x0002bde5   Thumb Code    74  nrf_fstorage_sd.o(i.write)
    i.write_buf_length_words_set             0x0002be34   Section        0  peer_database.o(i.write_buf_length_words_set)
    write_buf_length_words_set               0x0002be35   Thumb Code    36  peer_database.o(i.write_buf_length_words_set)
    i.write_buf_store                        0x0002be58   Section        0  peer_database.o(i.write_buf_store)
    i.write_buffer_record_find               0x0002bef4   Section        0  peer_database.o(i.write_buffer_record_find)
    write_buffer_record_find                 0x0002bef5   Thumb Code    52  peer_database.o(i.write_buffer_record_find)
    i.write_buffer_record_find_next          0x0002bf28   Section        0  peer_database.o(i.write_buffer_record_find_next)
    write_buffer_record_find_next            0x0002bf29   Thumb Code    36  peer_database.o(i.write_buffer_record_find_next)
    i.write_buffer_record_invalidate         0x0002bf50   Section        0  peer_database.o(i.write_buffer_record_invalidate)
    write_buffer_record_invalidate           0x0002bf51   Thumb Code    30  peer_database.o(i.write_buffer_record_invalidate)
    i.write_buffer_record_release            0x0002bf70   Section        0  peer_database.o(i.write_buffer_record_release)
    write_buffer_record_release              0x0002bf71   Thumb Code    38  peer_database.o(i.write_buffer_record_release)
    i.write_enqueue                          0x0002bf9c   Section        0  fds.o(i.write_enqueue)
    write_enqueue                            0x0002bf9d   Thumb Code   222  fds.o(i.write_enqueue)
    i.write_execute                          0x0002c084   Section        0  fds.o(i.write_execute)
    write_execute                            0x0002c085   Thumb Code   230  fds.o(i.write_execute)
    i.write_space_free                       0x0002c178   Section        0  fds.o(i.write_space_free)
    write_space_free                         0x0002c179   Thumb Code    20  fds.o(i.write_space_free)
    i.write_space_reserve                    0x0002c190   Section        0  fds.o(i.write_space_reserve)
    write_space_reserve                      0x0002c191   Thumb Code    88  fds.o(i.write_space_reserve)
    .constdata                               0x0002c1ec   Section        4  main.o(.constdata)
    .constdata                               0x0002c1f0   Section        8  boards.o(.constdata)
    m_board_led_list                         0x0002c1f0   Data           4  boards.o(.constdata)
    m_board_btn_list                         0x0002c1f4   Data           4  boards.o(.constdata)
    .constdata                               0x0002c1f8   Section       44  bsp.o(.constdata)
    m_leds_timer_id                          0x0002c1f8   Data           4  bsp.o(.constdata)
    m_alert_timer_id                         0x0002c1fc   Data           4  bsp.o(.constdata)
    m_button_timer_id                        0x0002c200   Data           4  bsp.o(.constdata)
    app_buttons                              0x0002c204   Data          32  bsp.o(.constdata)
    .constdata                               0x0002c224   Section       80  gatt_cache_manager.o(.constdata)
    .constdata                               0x0002c274   Section        4  gatts_cache_manager.o(.constdata)
    service_changed_pending                  0x0002c274   Data           4  gatts_cache_manager.o(.constdata)
    .constdata                               0x0002c278   Section       16  gatts_cache_manager.o(.constdata)
    .constdata                               0x0002c288   Section        4  gatts_cache_manager.o(.constdata)
    service_changed_pending                  0x0002c288   Data           4  gatts_cache_manager.o(.constdata)
    .constdata                               0x0002c28c   Section        8  id_manager.o(.constdata)
    m_evt_handlers                           0x0002c28c   Data           8  id_manager.o(.constdata)
    .constdata                               0x0002c294   Section       22  nrf_ble_gatt.o(.constdata)
    .constdata                               0x0002c2ac   Section       24  peer_data_storage.o(.constdata)
    m_evt_handlers                           0x0002c2ac   Data           4  peer_data_storage.o(.constdata)
    .constdata                               0x0002c2c4   Section       16  peer_database.o(.constdata)
    m_evt_handlers                           0x0002c2c4   Data          16  peer_database.o(.constdata)
    .constdata                               0x0002c2d4   Section       16  peer_manager.o(.constdata)
    .constdata                               0x0002c2e4   Section       84  security_dispatcher.o(.constdata)
    m_evt_handlers                           0x0002c2e4   Data           4  security_dispatcher.o(.constdata)
    .constdata                               0x0002c338   Section        4  security_manager.o(.constdata)
    m_evt_handlers                           0x0002c338   Data           4  security_manager.o(.constdata)
    .constdata                               0x0002c33c   Section       16  ble_dfu.o(.constdata)
    .constdata                               0x0002c34c   Section        4  nrf_drv_gpiote.o(.constdata)
    .constdata                               0x0002c350   Section        8  app_button.o(.constdata)
    m_detection_delay_timer_id               0x0002c350   Data           4  app_button.o(.constdata)
    .constdata                               0x0002c358   Section       24  fds.o(.constdata)
    m_queue                                  0x0002c358   Data           4  fds.o(.constdata)
    dirty_header                             0x0002c35c   Data           4  fds.o(.constdata)
    page_tag_swap                            0x0002c360   Data           8  fds.o(.constdata)
    page_tag_data                            0x0002c368   Data           8  fds.o(.constdata)
    .constdata                               0x0002c370   Section       16  nrf_fprintf_format.o(.constdata)
    _aV2C                                    0x0002c370   Data          16  nrf_fprintf_format.o(.constdata)
    .constdata                               0x0002c380   Section       16  nrf_fstorage_sd.o(.constdata)
    m_fifo                                   0x0002c380   Data           4  nrf_fstorage_sd.o(.constdata)
    m_flash_info                             0x0002c384   Data          12  nrf_fstorage_sd.o(.constdata)
    .constdata                               0x0002c390   Section       32  nrf_fstorage_sd.o(.constdata)
    .constdata                               0x0002c3b0   Section       24  nrf_pwr_mgmt.o(.constdata)
    pwr_mgmt_data_array                      0x0002c3b0   Data          24  nrf_pwr_mgmt.o(.constdata)
    .constdata                               0x0002c3c8   Section       16  nrf_pwr_mgmt.o(.constdata)
    m_pwr_mgmt_timer                         0x0002c3c8   Data           4  nrf_pwr_mgmt.o(.constdata)
    pwr_mgmt_data                            0x0002c3cc   Data          12  nrf_pwr_mgmt.o(.constdata)
    .constdata                               0x0002c3d8   Section      260  nrf_strerror.o(.constdata)
    m_unknown_str                            0x0002c3d8   Data          19  nrf_strerror.o(.constdata)
    nrf_strerror_array                       0x0002c3ec   Data         240  nrf_strerror.o(.constdata)
    .constdata                               0x0002c4dc   Section       12  nrf_log_backend_uart.o(.constdata)
    .constdata                               0x0002c4e8   Section       32  nrf_log_backend_uart.o(.constdata)
    .constdata                               0x0002c508   Section       20  nrf_log_frontend.o(.constdata)
    mempool                                  0x0002c508   Data          20  nrf_log_frontend.o(.constdata)
    .constdata                               0x0002c51c   Section       16  nrf_sdh.o(.constdata)
    sdh_req_observers_array                  0x0002c51c   Data          16  nrf_sdh.o(.constdata)
    .constdata                               0x0002c52c   Section       40  nrf_sdh.o(.constdata)
    sdh_req_observers                        0x0002c530   Data          12  nrf_sdh.o(.constdata)
    sdh_state_observers                      0x0002c53c   Data          12  nrf_sdh.o(.constdata)
    sdh_stack_observers                      0x0002c548   Data          12  nrf_sdh.o(.constdata)
    .constdata                               0x0002c554   Section       16  nrf_sdh.o(.constdata)
    sdh_state_observers_array                0x0002c554   Data          16  nrf_sdh.o(.constdata)
    .constdata                               0x0002c564   Section       16  nrf_sdh.o(.constdata)
    sdh_stack_observers_array                0x0002c564   Data          16  nrf_sdh.o(.constdata)
    .constdata                               0x0002c574   Section       32  nrf_sdh_ble.o(.constdata)
    sdh_ble_observers_array                  0x0002c574   Data          32  nrf_sdh_ble.o(.constdata)
    .constdata                               0x0002c594   Section       16  nrf_sdh_ble.o(.constdata)
    sdh_ble_observers                        0x0002c598   Data          12  nrf_sdh_ble.o(.constdata)
    .constdata                               0x0002c5a4   Section       16  nrf_sdh_soc.o(.constdata)
    sdh_soc_observers_array                  0x0002c5a4   Data          16  nrf_sdh_soc.o(.constdata)
    .constdata                               0x0002c5b4   Section       12  nrf_sdh_soc.o(.constdata)
    sdh_soc_observers                        0x0002c5b4   Data          12  nrf_sdh_soc.o(.constdata)
    .constdata                               0x0002c5c0   Section      129  ctype_o.o(.constdata)
    .constdata                               0x0002c644   Section        4  ctype_o.o(.constdata)
    table                                    0x0002c644   Data           4  ctype_o.o(.constdata)
    .conststring                             0x0002c648   Section      301  nrf_ble_gatt.o(.conststring)
    .conststring                             0x0002c778   Section      775  nrf_strerror.o(.conststring)
    .conststring                             0x0002ca80   Section      102  nrf_log_str_formatter.o(.conststring)
    .conststring                             0x0002cae8   Section      392  nrf_sdh_ble.o(.conststring)
    .conststrlit                             0x0002cc70   Section        9  nrf_ble_gatt.o(.conststrlit)
    .conststrlit                             0x0002cc7c   Section        6  nrf_drv_clock.o(.conststrlit)
    .conststrlit                             0x0002cc84   Section        7  nrf_drv_gpiote.o(.conststrlit)
    .conststrlit                             0x0002cc8c   Section        5  nrf_drv_uart.o(.conststrlit)
    .conststrlit                             0x0002cc94   Section        7  nrf_balloc.o(.conststrlit)
    .conststrlit                             0x0002cc9c   Section        9  nrf_pwr_mgmt.o(.conststrlit)
    .conststrlit                             0x0002cca8   Section        4  nrf_log_frontend.o(.conststrlit)
    .conststrlit                             0x0002ccac   Section        8  nrf_sdh.o(.conststrlit)
    .conststrlit                             0x0002ccb4   Section       12  nrf_sdh_ble.o(.conststrlit)
    .conststrlit                             0x0002ccc0   Section       12  nrf_sdh_soc.o(.conststrlit)
    log_const_data                           0x0002ccec   Section        8  nrf_ble_gatt.o(log_const_data)
    __tagsym$$used                           0x0002ccec   Number         0  nrf_ble_gatt.o(log_const_data)
    log_const_data                           0x0002ccf4   Section        8  nrf_drv_clock.o(log_const_data)
    __tagsym$$used                           0x0002ccf4   Number         0  nrf_drv_clock.o(log_const_data)
    log_const_data                           0x0002ccfc   Section        8  nrf_drv_gpiote.o(log_const_data)
    __tagsym$$used                           0x0002ccfc   Number         0  nrf_drv_gpiote.o(log_const_data)
    log_const_data                           0x0002cd04   Section        8  nrf_drv_uart.o(log_const_data)
    __tagsym$$used                           0x0002cd04   Number         0  nrf_drv_uart.o(log_const_data)
    log_const_data                           0x0002cd0c   Section        8  nrf_balloc.o(log_const_data)
    __tagsym$$used                           0x0002cd0c   Number         0  nrf_balloc.o(log_const_data)
    log_const_data                           0x0002cd14   Section        8  nrf_pwr_mgmt.o(log_const_data)
    __tagsym$$used                           0x0002cd14   Number         0  nrf_pwr_mgmt.o(log_const_data)
    log_const_data                           0x0002cd1c   Section        8  nrf_log_frontend.o(log_const_data)
    __tagsym$$used                           0x0002cd1c   Number         0  nrf_log_frontend.o(log_const_data)
    log_const_data                           0x0002cd24   Section        8  nrf_sdh.o(log_const_data)
    __tagsym$$used                           0x0002cd24   Number         0  nrf_sdh.o(log_const_data)
    log_const_data                           0x0002cd2c   Section        8  nrf_sdh_ble.o(log_const_data)
    __tagsym$$used                           0x0002cd2c   Number         0  nrf_sdh_ble.o(log_const_data)
    log_const_data                           0x0002cd34   Section        8  nrf_sdh_soc.o(log_const_data)
    __tagsym$$used                           0x0002cd34   Number         0  nrf_sdh_soc.o(log_const_data)
    pwr_mgmt_data0                           0x0002cd3c   Section        4  main.o(pwr_mgmt_data0)
    __tagsym$$used                           0x0002cd3c   Number         0  main.o(pwr_mgmt_data0)
    app_shutdown_handler_handler_function    0x0002cd3c   Data           4  main.o(pwr_mgmt_data0)
    sdh_ble_observers0                       0x0002cd40   Section        8  ble_conn_state.o(sdh_ble_observers0)
    __tagsym$$used                           0x0002cd40   Number         0  ble_conn_state.o(sdh_ble_observers0)
    m_ble_evt_observer                       0x0002cd40   Data           8  ble_conn_state.o(sdh_ble_observers0)
    sdh_ble_observers1                       0x0002cd48   Section       16  main.o(sdh_ble_observers1)
    __tagsym$$used                           0x0002cd48   Number         0  main.o(sdh_ble_observers1)
    m_gatt_obs                               0x0002cd48   Data           8  main.o(sdh_ble_observers1)
    __tagsym$$used                           0x0002cd50   Number         0  main.o(sdh_ble_observers1)
    m_advertising_ble_obs                    0x0002cd50   Data           8  main.o(sdh_ble_observers1)
    sdh_ble_observers1                       0x0002cd58   Section        8  bsp_btn_ble.o(sdh_ble_observers1)
    __tagsym$$used                           0x0002cd58   Number         0  bsp_btn_ble.o(sdh_ble_observers1)
    m_ble_observer                           0x0002cd58   Data           8  bsp_btn_ble.o(sdh_ble_observers1)
    sdh_ble_observers1                       0x0002cd60   Section        8  ble_conn_params.o(sdh_ble_observers1)
    __tagsym$$used                           0x0002cd60   Number         0  ble_conn_params.o(sdh_ble_observers1)
    m_ble_observer                           0x0002cd60   Data           8  ble_conn_params.o(sdh_ble_observers1)
    sdh_ble_observers1                       0x0002cd68   Section        8  peer_manager.o(sdh_ble_observers1)
    __tagsym$$used                           0x0002cd68   Number         0  peer_manager.o(sdh_ble_observers1)
    m_ble_evt_observer                       0x0002cd68   Data           8  peer_manager.o(sdh_ble_observers1)
    sdh_ble_observers2                       0x0002cd70   Section        8  ble_dfu.o(sdh_ble_observers2)
    __tagsym$$used                           0x0002cd70   Number         0  ble_dfu.o(sdh_ble_observers2)
    m_dfus_obs                               0x0002cd70   Data           8  ble_dfu.o(sdh_ble_observers2)
    sdh_ble_observers3                       0x0002cd78   Section        8  main.o(sdh_ble_observers3)
    __tagsym$$used                           0x0002cd78   Number         0  main.o(sdh_ble_observers3)
    m_ble_observer                           0x0002cd78   Data           8  main.o(sdh_ble_observers3)
    sdh_req_observers0                       0x0002cd80   Section        8  nrf_fstorage_sd.o(sdh_req_observers0)
    __tagsym$$used                           0x0002cd80   Number         0  nrf_fstorage_sd.o(sdh_req_observers0)
    sdh_soc_observers0                       0x0002cd88   Section        8  nrf_drv_clock.o(sdh_soc_observers0)
    __tagsym$$used                           0x0002cd88   Number         0  nrf_drv_clock.o(sdh_soc_observers0)
    m_soc_evt_observer                       0x0002cd88   Data           8  nrf_drv_clock.o(sdh_soc_observers0)
    sdh_soc_observers0                       0x0002cd90   Section        8  nrf_fstorage_sd.o(sdh_soc_observers0)
    __tagsym$$used                           0x0002cd90   Number         0  nrf_fstorage_sd.o(sdh_soc_observers0)
    m_sys_obs                                0x0002cd90   Data           8  nrf_fstorage_sd.o(sdh_soc_observers0)
    sdh_soc_observers1                       0x0002cd98   Section        8  main.o(sdh_soc_observers1)
    __tagsym$$used                           0x0002cd98   Number         0  main.o(sdh_soc_observers1)
    m_advertising_soc_obs                    0x0002cd98   Data           8  main.o(sdh_soc_observers1)
    sdh_soc_observers1                       0x0002cda0   Section        8  ble_dfu_unbonded.o(sdh_soc_observers1)
    __tagsym$$used                           0x0002cda0   Number         0  ble_dfu_unbonded.o(sdh_soc_observers1)
    m_dfu_buttonless_soc_obs                 0x0002cda0   Data           8  ble_dfu_unbonded.o(sdh_soc_observers1)
    sdh_stack_observers0                     0x0002cda8   Section        8  nrf_sdh_ble.o(sdh_stack_observers0)
    __tagsym$$used                           0x0002cda8   Number         0  nrf_sdh_ble.o(sdh_stack_observers0)
    m_nrf_sdh_ble_evts_poll                  0x0002cda8   Data           8  nrf_sdh_ble.o(sdh_stack_observers0)
    sdh_stack_observers0                     0x0002cdb0   Section        8  nrf_sdh_soc.o(sdh_stack_observers0)
    __tagsym$$used                           0x0002cdb0   Number         0  nrf_sdh_soc.o(sdh_stack_observers0)
    m_nrf_sdh_soc_evts_poll                  0x0002cdb0   Data           8  nrf_sdh_soc.o(sdh_stack_observers0)
    sdh_state_observers0                     0x0002cdb8   Section        8  nrf_drv_clock.o(sdh_state_observers0)
    __tagsym$$used                           0x0002cdb8   Number         0  nrf_drv_clock.o(sdh_state_observers0)
    m_sd_state_observer                      0x0002cdb8   Data           8  nrf_drv_clock.o(sdh_state_observers0)
    sdh_state_observers0                     0x0002cdc0   Section        8  nrf_fstorage_sd.o(sdh_state_observers0)
    __tagsym$$used                           0x0002cdc0   Number         0  nrf_fstorage_sd.o(sdh_state_observers0)
    m_state_obs                              0x0002cdc0   Data           8  nrf_fstorage_sd.o(sdh_state_observers0)
    .data                                    0x20002180   Section        6  main.o(.data)
    m_conn_handle                            0x20002180   Data           2  main.o(.data)
    m_adv_uuids                              0x20002182   Data           4  main.o(.data)
    .data                                    0x20002188   Section       16  bsp.o(.data)
    m_stable_state                           0x20002188   Data           1  bsp.o(.data)
    m_leds_clear                             0x20002189   Data           1  bsp.o(.data)
    m_alert_on                               0x2000218a   Data           1  bsp.o(.data)
    current_long_push_pin_no                 0x2000218b   Data           1  bsp.o(.data)
    m_indication_type                        0x2000218c   Data           4  bsp.o(.data)
    m_registered_callback                    0x20002190   Data           4  bsp.o(.data)
    release_event_at_push                    0x20002194   Data           4  bsp.o(.data)
    .data                                    0x20002198   Section        8  bsp_btn_ble.o(.data)
    m_error_handler                          0x20002198   Data           4  bsp_btn_ble.o(.data)
    m_num_connections                        0x2000219c   Data           4  bsp_btn_ble.o(.data)
    .data                                    0x200021a0   Section        8  ble_conn_params.o(.data)
    m_preferred_conn_params                  0x200021a0   Data           8  ble_conn_params.o(.data)
    .data                                    0x200021a8   Section       12  gatt_cache_manager.o(.data)
    m_module_initialized                     0x200021a8   Data           1  gatt_cache_manager.o(.data)
    m_db_update_in_progress_mutex            0x200021a9   Data           1  gatt_cache_manager.o(.data)
    m_flag_local_db_update_pending           0x200021aa   Data           1  gatt_cache_manager.o(.data)
    m_flag_local_db_apply_pending            0x200021ab   Data           1  gatt_cache_manager.o(.data)
    m_flag_service_changed_pending           0x200021ac   Data           1  gatt_cache_manager.o(.data)
    m_flag_service_changed_sent              0x200021ad   Data           1  gatt_cache_manager.o(.data)
    m_evt_handlers                           0x200021b0   Data           4  gatt_cache_manager.o(.data)
    .data                                    0x200021b4   Section        6  gatts_cache_manager.o(.data)
    m_module_initialized                     0x200021b4   Data           1  gatts_cache_manager.o(.data)
    start_handle                             0x200021b6   Data           2  gatts_cache_manager.o(.data)
    m_current_sc_store_peer_id               0x200021b8   Data           2  gatts_cache_manager.o(.data)
    .data                                    0x200021ba   Section        3  id_manager.o(.data)
    m_module_initialized                     0x200021ba   Data           1  id_manager.o(.data)
    m_conn_state_user_flag_id                0x200021bb   Data           1  id_manager.o(.data)
    m_wlisted_peer_cnt                       0x200021bc   Data           1  id_manager.o(.data)
    .data                                    0x200021c0   Section       12  peer_data_storage.o(.data)
    m_module_initialized                     0x200021c0   Data           1  peer_data_storage.o(.data)
    m_peer_delete_queued                     0x200021c1   Data           1  peer_data_storage.o(.data)
    m_peer_delete_ongoing                    0x200021c2   Data           1  peer_data_storage.o(.data)
    m_fds_ftok                               0x200021c4   Data           8  peer_data_storage.o(.data)
    .data                                    0x200021cc   Section        8  peer_database.o(.data)
    mutex_memory                             0x200021cc   Data           1  peer_database.o(.data)
    m_module_initialized                     0x200021cd   Data           1  peer_database.o(.data)
    m_n_pending_writes                       0x200021d0   Data           4  peer_database.o(.data)
    .data                                    0x200021d4   Section       16  peer_manager.o(.data)
    m_module_initialized                     0x200021d4   Data           1  peer_manager.o(.data)
    m_peer_rank_initialized                  0x200021d5   Data           1  peer_manager.o(.data)
    m_deleting_all                           0x200021d6   Data           1  peer_manager.o(.data)
    m_n_registrants                          0x200021d7   Data           1  peer_manager.o(.data)
    m_bonded_flag_id                         0x200021d8   Data           1  peer_manager.o(.data)
    m_highest_ranked_peer                    0x200021da   Data           2  peer_manager.o(.data)
    m_peer_rank_token                        0x200021dc   Data           4  peer_manager.o(.data)
    m_current_highest_peer_rank              0x200021e0   Data           4  peer_manager.o(.data)
    .data                                    0x200021e4   Section        6  security_dispatcher.o(.data)
    m_flag_sec_proc                          0x200021e4   Data           1  security_dispatcher.o(.data)
    m_flag_sec_proc_pairing                  0x200021e5   Data           1  security_dispatcher.o(.data)
    m_flag_sec_proc_bonding                  0x200021e6   Data           1  security_dispatcher.o(.data)
    m_flag_sec_proc_new_peer                 0x200021e7   Data           1  security_dispatcher.o(.data)
    m_flag_allow_repairing                   0x200021e8   Data           1  security_dispatcher.o(.data)
    m_module_initialized                     0x200021e9   Data           1  security_dispatcher.o(.data)
    .data                                    0x200021ec   Section       21  security_manager.o(.data)
    m_sec_params_set                         0x200021ec   Data           1  security_manager.o(.data)
    m_flag_link_secure_pending_busy          0x200021ed   Data           1  security_manager.o(.data)
    m_flag_link_secure_pending_flash_full    0x200021ee   Data           1  security_manager.o(.data)
    m_flag_link_secure_force_repairing       0x200021ef   Data           1  security_manager.o(.data)
    m_flag_link_secure_null_params           0x200021f0   Data           1  security_manager.o(.data)
    m_flag_params_reply_pending_busy         0x200021f1   Data           1  security_manager.o(.data)
    m_flag_params_reply_pending_flash_full   0x200021f2   Data           1  security_manager.o(.data)
    m_module_initialized                     0x200021f3   Data           1  security_manager.o(.data)
    mp_sec_params                            0x200021f4   Data           4  security_manager.o(.data)
    m_p_public_key                           0x200021f8   Data           4  security_manager.o(.data)
    m_sec_params                             0x200021fc   Data           5  security_manager.o(.data)
    .data                                    0x20002204   Section        4  ble_dfu_unbonded.o(.data)
    .data                                    0x20002208   Section       20  app_button.o(.data)
    m_button_count                           0x20002208   Data           1  app_button.o(.data)
    mp_buttons                               0x2000220c   Data           4  app_button.o(.data)
    m_detection_delay                        0x20002210   Data           4  app_button.o(.data)
    m_pin_state                              0x20002214   Data           4  app_button.o(.data)
    m_pin_transition                         0x20002218   Data           4  app_button.o(.data)
    .data                                    0x2000221c   Section       20  app_timer.o(.data)
    m_ticks_elapsed_q_read_ind               0x2000221c   Data           1  app_timer.o(.data)
    m_ticks_elapsed_q_write_ind              0x2000221d   Data           1  app_timer.o(.data)
    m_rtc1_running                           0x2000221e   Data           1  app_timer.o(.data)
    m_rtc1_reset                             0x2000221f   Data           1  app_timer.o(.data)
    mp_timer_id_head                         0x20002220   Data           4  app_timer.o(.data)
    m_ticks_latest                           0x20002224   Data           4  app_timer.o(.data)
    m_ticks_elapsed                          0x20002228   Data           8  app_timer.o(.data)
    .data                                    0x20002230   Section       48  fds.o(.data)
    page                                     0x20002230   Data           2  fds.o(.data)
    m_p_cur_op                               0x20002234   Data           4  fds.o(.data)
    m_iget_ctx                               0x20002238   Data           4  fds.o(.data)
    m_queued_op_cnt                          0x2000223c   Data           4  fds.o(.data)
    m_users                                  0x20002240   Data           4  fds.o(.data)
    m_latest_rec_id                          0x20002244   Data           4  fds.o(.data)
    tok                                      0x20002248   Data           8  fds.o(.data)
    m_flags                                  0x20002250   Data           8  fds.o(.data)
    m_swap_page                              0x20002258   Data           8  fds.o(.data)
    .data                                    0x20002260   Section        8  nrf_fstorage_sd.o(.data)
    m_p_cur_op                               0x20002260   Data           4  nrf_fstorage_sd.o(.data)
    m_iget_ctx                               0x20002264   Data           4  nrf_fstorage_sd.o(.data)
    .data                                    0x20002268   Section        8  nrf_pwr_mgmt.o(.data)
    m_pwr_mgmt_evt                           0x20002268   Data           1  nrf_pwr_mgmt.o(.data)
    m_shutdown_started                       0x20002269   Data           1  nrf_pwr_mgmt.o(.data)
    m_sysoff_mtx                             0x2000226c   Data           4  nrf_pwr_mgmt.o(.data)
    .data                                    0x20002270   Section       12  nrf_log_backend_uart.o(.data)
    m_xfer_done                              0x20002270   Data           1  nrf_log_backend_uart.o(.data)
    m_async_mode                             0x20002271   Data           1  nrf_log_backend_uart.o(.data)
    .data                                    0x2000227c   Section       12  nrf_log_default_backends.o(.data)
    uart_log_backend                         0x2000227c   Data          12  nrf_log_default_backends.o(.data)
    .data                                    0x20002288   Section        8  nrf_log_frontend.o(.data)
    mempool_nrf_balloc_pool_stack            0x20002288   Data           8  nrf_log_frontend.o(.data)
    .data                                    0x20002290   Section        8  nrf_log_frontend.o(.data)
    mempool_nrf_balloc_cb                    0x20002290   Data           8  nrf_log_frontend.o(.data)
    .data                                    0x20002298   Section       56  nrf_log_str_formatter.o(.data)
    severity_names                           0x20002298   Data          20  nrf_log_str_formatter.o(.data)
    m_colors                                 0x200022ac   Data          36  nrf_log_str_formatter.o(.data)
    .data                                    0x200022d0   Section        3  nrf_sdh.o(.data)
    m_nrf_sdh_enabled                        0x200022d0   Data           1  nrf_sdh.o(.data)
    m_nrf_sdh_suspended                      0x200022d1   Data           1  nrf_sdh.o(.data)
    m_nrf_sdh_continue                       0x200022d2   Data           1  nrf_sdh.o(.data)
    .data                                    0x200022d4   Section        4  system_nrf52.o(.data)
    __tagsym$$used                           0x200022d4   Number         0  system_nrf52.o(.data)
    fs_data                                  0x200022d8   Section       20  fds.o(fs_data)
    __tagsym$$used                           0x200022d8   Number         0  fds.o(fs_data)
    log_dynamic_data                         0x200022ec   Section       12  nrf_ble_gatt.o(log_dynamic_data)
    __tagsym$$used                           0x200022ec   Number         0  nrf_ble_gatt.o(log_dynamic_data)
    log_dynamic_data                         0x200022f8   Section       12  nrf_drv_clock.o(log_dynamic_data)
    __tagsym$$used                           0x200022f8   Number         0  nrf_drv_clock.o(log_dynamic_data)
    log_dynamic_data                         0x20002304   Section       12  nrf_drv_gpiote.o(log_dynamic_data)
    __tagsym$$used                           0x20002304   Number         0  nrf_drv_gpiote.o(log_dynamic_data)
    log_dynamic_data                         0x20002310   Section       12  nrf_drv_uart.o(log_dynamic_data)
    __tagsym$$used                           0x20002310   Number         0  nrf_drv_uart.o(log_dynamic_data)
    log_dynamic_data                         0x2000231c   Section       12  nrf_balloc.o(log_dynamic_data)
    __tagsym$$used                           0x2000231c   Number         0  nrf_balloc.o(log_dynamic_data)
    log_dynamic_data                         0x20002328   Section       12  nrf_pwr_mgmt.o(log_dynamic_data)
    __tagsym$$used                           0x20002328   Number         0  nrf_pwr_mgmt.o(log_dynamic_data)
    log_dynamic_data                         0x20002334   Section       12  nrf_log_frontend.o(log_dynamic_data)
    __tagsym$$used                           0x20002334   Number         0  nrf_log_frontend.o(log_dynamic_data)
    log_dynamic_data                         0x20002340   Section       12  nrf_sdh.o(log_dynamic_data)
    __tagsym$$used                           0x20002340   Number         0  nrf_sdh.o(log_dynamic_data)
    log_dynamic_data                         0x2000234c   Section       12  nrf_sdh_ble.o(log_dynamic_data)
    __tagsym$$used                           0x2000234c   Number         0  nrf_sdh_ble.o(log_dynamic_data)
    log_dynamic_data                         0x20002358   Section       12  nrf_sdh_soc.o(log_dynamic_data)
    __tagsym$$used                           0x20002358   Number         0  nrf_sdh_soc.o(log_dynamic_data)
    .bss                                     0x20002364   Section      236  main.o(.bss)
    m_gatt                                   0x20002364   Data          20  main.o(.bss)
    m_advertising                            0x20002378   Data         216  main.o(.bss)
    .bss                                     0x20002450   Section       32  bsp.o(.bss)
    m_leds_timer_id_data                     0x20002450   Data          32  bsp.o(.bss)
    .bss                                     0x20002470   Section       32  bsp.o(.bss)
    m_alert_timer_id_data                    0x20002470   Data          32  bsp.o(.bss)
    .bss                                     0x20002490   Section       12  bsp.o(.bss)
    m_events_list                            0x20002490   Data          12  bsp.o(.bss)
    .bss                                     0x2000249c   Section       32  bsp.o(.bss)
    m_button_timer_id_data                   0x2000249c   Data          32  bsp.o(.bss)
    .bss                                     0x200024bc   Section       80  ble_conn_params.o(.bss)
    m_timer_data                             0x200024bc   Data          32  ble_conn_params.o(.bss)
    m_conn_params_instances                  0x200024dc   Data          20  ble_conn_params.o(.bss)
    m_conn_params_config                     0x200024f0   Data          28  ble_conn_params.o(.bss)
    .bss                                     0x2000250c   Section      184  ble_conn_state.o(.bss)
    m_bcs                                    0x2000250c   Data         184  ble_conn_state.o(.bss)
    .bss                                     0x200025c4   Section      256  id_manager.o(.bss)
    m_connections                            0x200025c4   Data         240  id_manager.o(.bss)
    m_wlisted_peers                          0x200026b4   Data          16  id_manager.o(.bss)
    .bss                                     0x200026c4   Section      208  peer_database.o(.bss)
    buffer_memory                            0x200026c4   Data         160  peer_database.o(.bss)
    m_write_buffer                           0x20002764   Data          16  peer_database.o(.bss)
    m_write_buffer_records                   0x20002774   Data          32  peer_database.o(.bss)
    .bss                                     0x20002794   Section       64  peer_id.o(.bss)
    m_pi                                     0x20002794   Data          64  peer_id.o(.bss)
    .bss                                     0x200027d4   Section       12  peer_manager.o(.bss)
    m_evt_handlers                           0x200027d4   Data          12  peer_manager.o(.bss)
    .bss                                     0x200027e0   Section       64  security_dispatcher.o(.bss)
    m_peer_pk                                0x200027e0   Data          64  security_dispatcher.o(.bss)
    .bss                                     0x20002820   Section       28  ble_dfu.o(.bss)
    m_dfu                                    0x20002820   Data          28  ble_dfu.o(.bss)
    .bss                                     0x2000283c   Section       40  ble_dfu_unbonded.o(.bss)
    nrf_dfu_set_adv_name_svci_async_def      0x2000283c   Data          12  ble_dfu_unbonded.o(.bss)
    m_adv_name                               0x20002848   Data          28  ble_dfu_unbonded.o(.bss)
    .bss                                     0x20002864   Section       20  nrf_drv_clock.o(.bss)
    m_clock_cb                               0x20002864   Data          20  nrf_drv_clock.o(.bss)
    .bss                                     0x20002878   Section       88  nrf_drv_gpiote.o(.bss)
    m_cb                                     0x20002878   Data          88  nrf_drv_gpiote.o(.bss)
    .bss                                     0x200028d0   Section       32  nrf_drv_uart.o(.bss)
    m_cb                                     0x200028d0   Data          32  nrf_drv_uart.o(.bss)
    .bss                                     0x200028f0   Section       32  app_button.o(.bss)
    m_detection_delay_timer_id_data          0x200028f0   Data          32  app_button.o(.bss)
    .bss                                     0x20002910   Section      268  app_timer.o(.bss)
    m_op_queue                               0x20002910   Data         268  app_timer.o(.bss)
    .bss                                     0x20002a1c   Section       12  app_util_platform.o(.bss)
    .bss                                     0x20002a28   Section      224  fds.o(.bss)
    desc                                     0x20002a28   Data          12  fds.o(.bss)
    m_cb_table                               0x20002a34   Data          16  fds.o(.bss)
    m_queue_data                             0x20002a44   Data         140  fds.o(.bss)
    m_pages                                  0x20002ad0   Data          40  fds.o(.bss)
    m_gc                                     0x20002af8   Data          16  fds.o(.bss)
    .bss                                     0x20002b08   Section       16  fds.o(.bss)
    m_queue_inst                             0x20002b08   Data          16  fds.o(.bss)
    .bss                                     0x20002b18   Section      160  nrf_fstorage_sd.o(.bss)
    m_fifo_data                              0x20002b18   Data         140  nrf_fstorage_sd.o(.bss)
    m_flags                                  0x20002ba4   Data          20  nrf_fstorage_sd.o(.bss)
    .bss                                     0x20002bb8   Section       16  nrf_fstorage_sd.o(.bss)
    m_fifo_inst                              0x20002bb8   Data          16  nrf_fstorage_sd.o(.bss)
    .bss                                     0x20002bc8   Section       32  nrf_pwr_mgmt.o(.bss)
    m_pwr_mgmt_timer_data                    0x20002bc8   Data          32  nrf_pwr_mgmt.o(.bss)
    .bss                                     0x20002be8   Section       12  nrf_pwr_mgmt.o(.bss)
    m_handlers_iter                          0x20002be8   Data          12  nrf_pwr_mgmt.o(.bss)
    .bss                                     0x20002bf4   Section       64  nrf_log_backend_uart.o(.bss)
    m_string_buff                            0x20002bf4   Data          64  nrf_log_backend_uart.o(.bss)
    .bss                                     0x20002c34   Section      192  nrf_log_frontend.o(.bss)
    mempool_nrf_balloc_pool_mem              0x20002c34   Data         192  nrf_log_frontend.o(.bss)
    .bss                                     0x20002cf4   Section     1056  nrf_log_frontend.o(.bss)
    m_log_data                               0x20002cf4   Data        1056  nrf_log_frontend.o(.bss)
    STACK                                    0x20003118   Section     8192  arm_startup_nrf52.o(STACK)

    Global Symbols

    Symbol Name                              Value     Ov Type        Size  Object(Section)

    BuildAttributes$$THM_ISAv4$E$P$D$K$B$S$7EM$VFPi3$EXTD16$VFPS$VFMA$PE$A:L22UL41UL21$X:L11$S22US41US21$IEEE1$IW$USESV6$~STKCKD$USESV7$~SHL$OSPACE$EBA8$MICROLIB$REQ8$PRES8$EABIv2 0x00000000   Number         0  anon$$obj.o ABSOLUTE
    __ARM_use_no_argv                        0x00000000   Number         0  main.o ABSOLUTE
    __use_no_errno                           0x00000000   Number         0  useno.o ABSOLUTE
    __use_no_exception_handling              0x00000000   Number         0  useno.o ABSOLUTE
    __use_no_fp                              0x00000000   Number         0  useno.o ABSOLUTE
    __use_no_heap                            0x00000000   Number         0  useno.o ABSOLUTE
    __use_no_heap_region                     0x00000000   Number         0  useno.o ABSOLUTE
    __use_no_semihosting                     0x00000000   Number         0  useno.o ABSOLUTE
    __use_no_semihosting_swi                 0x00000000   Number         0  useno.o ABSOLUTE
    __use_no_signal_handling                 0x00000000   Number         0  useno.o ABSOLUTE
    __cpp_initialize__aeabi_                  - Undefined Weak Reference
    __cxa_finalize                            - Undefined Weak Reference
    _clock_init                               - Undefined Weak Reference
    _microlib_exit                            - Undefined Weak Reference
    pwr_mgmt_data1$$Base                      - Undefined Reference
    pwr_mgmt_data1$$Limit                     - Undefined Reference
    pwr_mgmt_data2$$Base                      - Undefined Reference
    pwr_mgmt_data2$$Limit                     - Undefined Reference
    sdh_req_observers1$$Base                  - Undefined Reference
    sdh_req_observers1$$Limit                 - Undefined Reference
    sdh_stack_observers1$$Base                - Undefined Reference
    sdh_stack_observers1$$Limit               - Undefined Reference
    sdh_state_observers1$$Base                - Undefined Reference
    sdh_state_observers1$$Limit               - Undefined Reference
    __Vectors_Size                           0x00000200   Number         0  arm_startup_nrf52.o ABSOLUTE
    Image$$ER_IROM1$$Base                    0x00023000   Number         0  anon$$obj.o ABSOLUTE
    __Vectors                                0x00023000   Data           4  arm_startup_nrf52.o(RESET)
    __Vectors_End                            0x00023200   Data           0  arm_startup_nrf52.o(RESET)
    __main                                   0x00023201   Thumb Code     0  entry.o(.ARM.Collect$$$$00000000)
    _main_stk                                0x00023201   Thumb Code     0  entry2.o(.ARM.Collect$$$$00000001)
    _main_scatterload                        0x00023205   Thumb Code     0  entry5.o(.ARM.Collect$$$$00000004)
    __main_after_scatterload                 0x00023209   Thumb Code     0  entry5.o(.ARM.Collect$$$$00000004)
    _main_clock                              0x00023209   Thumb Code     0  entry7b.o(.ARM.Collect$$$$00000008)
    _main_cpp_init                           0x00023209   Thumb Code     0  entry8b.o(.ARM.Collect$$$$0000000A)
    _main_init                               0x00023209   Thumb Code     0  entry9a.o(.ARM.Collect$$$$0000000B)
    __rt_final_cpp                           0x00023211   Thumb Code     0  entry10a.o(.ARM.Collect$$$$0000000D)
    __rt_final_exit                          0x00023211   Thumb Code     0  entry11a.o(.ARM.Collect$$$$0000000F)
    __asm___5_fds_c_m_fs__nrf_atomic_internal_mov 0x00023215   Thumb Code    24  fds.o(.emb_text)
    __asm___5_fds_c_m_fs__nrf_atomic_internal_orr 0x0002322d   Thumb Code    26  fds.o(.emb_text)
    __asm___5_fds_c_m_fs__nrf_atomic_internal_and 0x00023247   Thumb Code    26  fds.o(.emb_text)
    __asm___5_fds_c_m_fs__nrf_atomic_internal_eor 0x00023261   Thumb Code    26  fds.o(.emb_text)
    __asm___5_fds_c_m_fs__nrf_atomic_internal_add 0x0002327b   Thumb Code    26  fds.o(.emb_text)
    __asm___5_fds_c_m_fs__nrf_atomic_internal_sub 0x00023295   Thumb Code    26  fds.o(.emb_text)
    __asm___12_nrf_atfifo_c_51f461e1__nrf_atfifo_wspace_req 0x000232b1   Thumb Code    56  nrf_atfifo.o(.emb_text)
    __asm___12_nrf_atfifo_c_51f461e1__nrf_atfifo_wspace_close 0x000232e9   Thumb Code    18  nrf_atfifo.o(.emb_text)
    __asm___12_nrf_atfifo_c_51f461e1__nrf_atfifo_rspace_req 0x000232fb   Thumb Code    58  nrf_atfifo.o(.emb_text)
    __asm___12_nrf_atfifo_c_51f461e1__nrf_atfifo_rspace_close 0x00023335   Thumb Code    18  nrf_atfifo.o(.emb_text)
    __asm___12_nrf_atfifo_c_51f461e1__nrf_atfifo_space_clear 0x00023347   Thumb Code    50  nrf_atfifo.o(.emb_text)
    __asm___17_nrf_fstorage_sd_c_6e7dbfe9__nrf_atomic_internal_mov 0x00023379   Thumb Code    24  nrf_fstorage_sd.o(.emb_text)
    __asm___17_nrf_fstorage_sd_c_6e7dbfe9__nrf_atomic_internal_orr 0x00023391   Thumb Code    26  nrf_fstorage_sd.o(.emb_text)
    __asm___17_nrf_fstorage_sd_c_6e7dbfe9__nrf_atomic_internal_and 0x000233ab   Thumb Code    26  nrf_fstorage_sd.o(.emb_text)
    __asm___17_nrf_fstorage_sd_c_6e7dbfe9__nrf_atomic_internal_eor 0x000233c5   Thumb Code    26  nrf_fstorage_sd.o(.emb_text)
    __asm___17_nrf_fstorage_sd_c_6e7dbfe9__nrf_atomic_internal_add 0x000233df   Thumb Code    26  nrf_fstorage_sd.o(.emb_text)
    __asm___17_nrf_fstorage_sd_c_6e7dbfe9__nrf_atomic_internal_sub 0x000233f9   Thumb Code    26  nrf_fstorage_sd.o(.emb_text)
    __asm___12_nrf_memobj_c_9bb9f865__nrf_atomic_internal_mov 0x00023415   Thumb Code    24  nrf_memobj.o(.emb_text)
    __asm___12_nrf_memobj_c_9bb9f865__nrf_atomic_internal_orr 0x0002342d   Thumb Code    26  nrf_memobj.o(.emb_text)
    __asm___12_nrf_memobj_c_9bb9f865__nrf_atomic_internal_and 0x00023447   Thumb Code    26  nrf_memobj.o(.emb_text)
    __asm___12_nrf_memobj_c_9bb9f865__nrf_atomic_internal_eor 0x00023461   Thumb Code    26  nrf_memobj.o(.emb_text)
    __asm___12_nrf_memobj_c_9bb9f865__nrf_atomic_internal_add 0x0002347b   Thumb Code    26  nrf_memobj.o(.emb_text)
    __asm___12_nrf_memobj_c_9bb9f865__nrf_atomic_internal_sub 0x00023495   Thumb Code    26  nrf_memobj.o(.emb_text)
    __asm___14_nrf_pwr_mgmt_c_f22138a6__nrf_atomic_internal_mov 0x000234b1   Thumb Code    24  nrf_pwr_mgmt.o(.emb_text)
    __asm___14_nrf_pwr_mgmt_c_f22138a6__nrf_atomic_internal_orr 0x000234c9   Thumb Code    26  nrf_pwr_mgmt.o(.emb_text)
    __asm___14_nrf_pwr_mgmt_c_f22138a6__nrf_atomic_internal_and 0x000234e3   Thumb Code    26  nrf_pwr_mgmt.o(.emb_text)
    __asm___14_nrf_pwr_mgmt_c_f22138a6__nrf_atomic_internal_eor 0x000234fd   Thumb Code    26  nrf_pwr_mgmt.o(.emb_text)
    __asm___14_nrf_pwr_mgmt_c_f22138a6__nrf_atomic_internal_add 0x00023517   Thumb Code    26  nrf_pwr_mgmt.o(.emb_text)
    __asm___14_nrf_pwr_mgmt_c_f22138a6__nrf_atomic_internal_sub 0x00023531   Thumb Code    26  nrf_pwr_mgmt.o(.emb_text)
    __asm___18_nrf_log_frontend_c_bc460776__nrf_atomic_internal_mov 0x0002354d   Thumb Code    24  nrf_log_frontend.o(.emb_text)
    __asm___18_nrf_log_frontend_c_bc460776__nrf_atomic_internal_orr 0x00023565   Thumb Code    26  nrf_log_frontend.o(.emb_text)
    __asm___18_nrf_log_frontend_c_bc460776__nrf_atomic_internal_and 0x0002357f   Thumb Code    26  nrf_log_frontend.o(.emb_text)
    __asm___18_nrf_log_frontend_c_bc460776__nrf_atomic_internal_eor 0x00023599   Thumb Code    26  nrf_log_frontend.o(.emb_text)
    __asm___18_nrf_log_frontend_c_bc460776__nrf_atomic_internal_add 0x000235b3   Thumb Code    26  nrf_log_frontend.o(.emb_text)
    __asm___18_nrf_log_frontend_c_bc460776__nrf_atomic_internal_sub 0x000235cd   Thumb Code    26  nrf_log_frontend.o(.emb_text)
    Reset_Handler                            0x000235e9   Thumb Code     8  arm_startup_nrf52.o(.text)
    NMI_Handler                              0x000235f1   Thumb Code     2  arm_startup_nrf52.o(.text)
    HardFault_Handler                        0x000235f3   Thumb Code     2  arm_startup_nrf52.o(.text)
    MemoryManagement_Handler                 0x000235f5   Thumb Code     2  arm_startup_nrf52.o(.text)
    BusFault_Handler                         0x000235f7   Thumb Code     2  arm_startup_nrf52.o(.text)
    UsageFault_Handler                       0x000235f9   Thumb Code     2  arm_startup_nrf52.o(.text)
    SVC_Handler                              0x000235fb   Thumb Code     2  arm_startup_nrf52.o(.text)
    DebugMon_Handler                         0x000235fd   Thumb Code     2  arm_startup_nrf52.o(.text)
    PendSV_Handler                           0x000235ff   Thumb Code     2  arm_startup_nrf52.o(.text)
    SysTick_Handler                          0x00023601   Thumb Code     2  arm_startup_nrf52.o(.text)
    CCM_AAR_IRQHandler                       0x00023603   Thumb Code     0  arm_startup_nrf52.o(.text)
    COMP_LPCOMP_IRQHandler                   0x00023603   Thumb Code     0  arm_startup_nrf52.o(.text)
    ECB_IRQHandler                           0x00023603   Thumb Code     0  arm_startup_nrf52.o(.text)
    FPU_IRQHandler                           0x00023603   Thumb Code     0  arm_startup_nrf52.o(.text)
    I2S_IRQHandler                           0x00023603   Thumb Code     0  arm_startup_nrf52.o(.text)
    MWU_IRQHandler                           0x00023603   Thumb Code     0  arm_startup_nrf52.o(.text)
    NFCT_IRQHandler                          0x00023603   Thumb Code     0  arm_startup_nrf52.o(.text)
    PDM_IRQHandler                           0x00023603   Thumb Code     0  arm_startup_nrf52.o(.text)
    PWM0_IRQHandler                          0x00023603   Thumb Code     0  arm_startup_nrf52.o(.text)
    PWM1_IRQHandler                          0x00023603   Thumb Code     0  arm_startup_nrf52.o(.text)
    PWM2_IRQHandler                          0x00023603   Thumb Code     0  arm_startup_nrf52.o(.text)
    QDEC_IRQHandler                          0x00023603   Thumb Code     0  arm_startup_nrf52.o(.text)
    RADIO_IRQHandler                         0x00023603   Thumb Code     0  arm_startup_nrf52.o(.text)
    RNG_IRQHandler                           0x00023603   Thumb Code     0  arm_startup_nrf52.o(.text)
    RTC0_IRQHandler                          0x00023603   Thumb Code     0  arm_startup_nrf52.o(.text)
    RTC2_IRQHandler                          0x00023603   Thumb Code     0  arm_startup_nrf52.o(.text)
    SAADC_IRQHandler                         0x00023603   Thumb Code     0  arm_startup_nrf52.o(.text)
    SPIM0_SPIS0_TWIM0_TWIS0_SPI0_TWI0_IRQHandler 0x00023603   Thumb Code     0  arm_startup_nrf52.o(.text)
    SPIM1_SPIS1_TWIM1_TWIS1_SPI1_TWI1_IRQHandler 0x00023603   Thumb Code     0  arm_startup_nrf52.o(.text)
    SPIM2_SPIS2_SPI2_IRQHandler              0x00023603   Thumb Code     0  arm_startup_nrf52.o(.text)
    SWI1_EGU1_IRQHandler                     0x00023603   Thumb Code     0  arm_startup_nrf52.o(.text)
    SWI3_EGU3_IRQHandler                     0x00023603   Thumb Code     0  arm_startup_nrf52.o(.text)
    SWI4_EGU4_IRQHandler                     0x00023603   Thumb Code     0  arm_startup_nrf52.o(.text)
    SWI5_EGU5_IRQHandler                     0x00023603   Thumb Code     0  arm_startup_nrf52.o(.text)
    TEMP_IRQHandler                          0x00023603   Thumb Code     0  arm_startup_nrf52.o(.text)
    TIMER0_IRQHandler                        0x00023603   Thumb Code     0  arm_startup_nrf52.o(.text)
    TIMER1_IRQHandler                        0x00023603   Thumb Code     0  arm_startup_nrf52.o(.text)
    TIMER2_IRQHandler                        0x00023603   Thumb Code     0  arm_startup_nrf52.o(.text)
    TIMER3_IRQHandler                        0x00023603   Thumb Code     0  arm_startup_nrf52.o(.text)
    TIMER4_IRQHandler                        0x00023603   Thumb Code     0  arm_startup_nrf52.o(.text)
    WDT_IRQHandler                           0x00023603   Thumb Code     0  arm_startup_nrf52.o(.text)
    __aeabi_uldivmod                         0x0002360d   Thumb Code    98  uldiv.o(.text)
    __rt_ctype_table                         0x00023671   Thumb Code     4  ctype_o.o(.text)
    __aeabi_memcpy                           0x00023679   Thumb Code    36  memcpya.o(.text)
    __aeabi_memcpy4                          0x00023679   Thumb Code     0  memcpya.o(.text)
    __aeabi_memcpy8                          0x00023679   Thumb Code     0  memcpya.o(.text)
    __aeabi_memset                           0x0002369d   Thumb Code    14  memseta.o(.text)
    __aeabi_memset4                          0x0002369d   Thumb Code     0  memseta.o(.text)
    __aeabi_memset8                          0x0002369d   Thumb Code     0  memseta.o(.text)
    __aeabi_memclr                           0x000236ab   Thumb Code     4  memseta.o(.text)
    __aeabi_memclr4                          0x000236ab   Thumb Code     0  memseta.o(.text)
    __aeabi_memclr8                          0x000236ab   Thumb Code     0  memseta.o(.text)
    _memset$wrapper                          0x000236af   Thumb Code    18  memseta.o(.text)
    strlen                                   0x000236c1   Thumb Code    14  strlen.o(.text)
    memcmp                                   0x000236cf   Thumb Code    26  memcmp.o(.text)
    __aeabi_llsl                             0x000236e9   Thumb Code    30  llshl.o(.text)
    _ll_shift_l                              0x000236e9   Thumb Code     0  llshl.o(.text)
    __aeabi_llsr                             0x00023707   Thumb Code    32  llushr.o(.text)
    _ll_ushift_r                             0x00023707   Thumb Code     0  llushr.o(.text)
    __scatterload                            0x00023729   Thumb Code    28  init.o(.text)
    __scatterload_rt2                        0x00023729   Thumb Code     0  init.o(.text)
    __decompress                             0x0002374d   Thumb Code     0  __dczerorl2.o(.text)
    __decompress1                            0x0002374d   Thumb Code    86  __dczerorl2.o(.text)
    GPIOTE_IRQHandler                        0x000237a5   Thumb Code   362  nrf_drv_gpiote.o(i.GPIOTE_IRQHandler)
    POWER_CLOCK_IRQHandler                   0x0002397d   Thumb Code    84  nrf_drv_clock.o(i.POWER_CLOCK_IRQHandler)
    RTC1_IRQHandler                          0x000239d5   Thumb Code    32  app_timer.o(i.RTC1_IRQHandler)
    SWI0_EGU0_IRQHandler                     0x000239f9   Thumb Code     4  app_timer.o(i.SWI0_EGU0_IRQHandler)
    SWI2_EGU2_IRQHandler                     0x000239fd   Thumb Code     4  nrf_sdh.o(i.SWI2_EGU2_IRQHandler)
    SystemInit                               0x00023a01   Thumb Code   726  system_nrf52.o(i.SystemInit)
    UARTE0_UART0_IRQHandler                  0x00023d1d   Thumb Code    20  nrf_drv_uart.o(i.UARTE0_UART0_IRQHandler)
    __scatterload_copy                       0x00023d39   Thumb Code    14  handlers.o(i.__scatterload_copy)
    __scatterload_null                       0x00023d47   Thumb Code     2  handlers.o(i.__scatterload_null)
    __scatterload_zeroinit                   0x00023d49   Thumb Code    14  handlers.o(i.__scatterload_zeroinit)
    addr_compare                             0x00023d93   Thumb Code    38  id_manager.o(i.addr_compare)
    ah                                       0x00023e5d   Thumb Code    82  id_manager.o(i.ah)
    app_button_enable                        0x00023ec1   Thumb Code    32  app_button.o(i.app_button_enable)
    app_button_init                          0x00023ee5   Thumb Code    96  app_button.o(i.app_button_init)
    app_error_fault_handler                  0x00023f55   Thumb Code    80  app_error_weak.o(i.app_error_fault_handler)
    app_error_handler_bare                   0x00023fcd   Thumb Code    22  app_error.o(i.app_error_handler_bare)
    app_timer_create                         0x00024071   Thumb Code    32  app_timer.o(i.app_timer_create)
    app_timer_init                           0x00024095   Thumb Code    70  app_timer.o(i.app_timer_init)
    app_timer_start                          0x000240e9   Thumb Code   128  app_timer.o(i.app_timer_start)
    app_timer_stop                           0x00024171   Thumb Code    26  app_timer.o(i.app_timer_stop)
    app_util_critical_region_enter           0x00024191   Thumb Code    64  app_util_platform.o(i.app_util_critical_region_enter)
    app_util_critical_region_exit            0x000241d9   Thumb Code    46  app_util_platform.o(i.app_util_critical_region_exit)
    ble_advdata_encode                       0x000243a1   Thumb Code   386  ble_advdata.o(i.ble_advdata_encode)
    ble_advdata_set                          0x00024523   Thumb Code   104  ble_advdata.o(i.ble_advdata_set)
    ble_advertising_conn_cfg_tag_set         0x0002458b   Thumb Code     6  ble_advertising.o(i.ble_advertising_conn_cfg_tag_set)
    ble_advertising_init                     0x00024591   Thumb Code   310  ble_advertising.o(i.ble_advertising_init)
    ble_advertising_on_ble_evt               0x000246c7   Thumb Code   104  ble_advertising.o(i.ble_advertising_on_ble_evt)
    ble_advertising_on_sys_evt               0x0002472f   Thumb Code    50  ble_advertising.o(i.ble_advertising_on_sys_evt)
    ble_advertising_restart_without_whitelist 0x00024761   Thumb Code    60  ble_advertising.o(i.ble_advertising_restart_without_whitelist)
    ble_advertising_start                    0x0002479d   Thumb Code   458  ble_advertising.o(i.ble_advertising_start)
    ble_conn_params_init                     0x00024969   Thumb Code    90  ble_conn_params.o(i.ble_conn_params_init)
    ble_conn_state_conn_handles              0x000249d1   Thumb Code    10  ble_conn_state.o(i.ble_conn_state_conn_handles)
    ble_conn_state_encrypted                 0x000249e1   Thumb Code    12  ble_conn_state.o(i.ble_conn_state_encrypted)
    ble_conn_state_role                      0x000249f1   Thumb Code    42  ble_conn_state.o(i.ble_conn_state_role)
    ble_conn_state_user_flag_acquire         0x00024a21   Thumb Code    40  ble_conn_state.o(i.ble_conn_state_user_flag_acquire)
    ble_conn_state_user_flag_collection      0x00024a4d   Thumb Code    22  ble_conn_state.o(i.ble_conn_state_user_flag_collection)
    ble_conn_state_user_flag_get             0x00024a69   Thumb Code    38  ble_conn_state.o(i.ble_conn_state_user_flag_get)
    ble_conn_state_user_flag_set             0x00024a95   Thumb Code    42  ble_conn_state.o(i.ble_conn_state_user_flag_set)
    ble_dfu_buttonless_async_svci_init       0x00024b25   Thumb Code    32  ble_dfu_unbonded.o(i.ble_dfu_buttonless_async_svci_init)
    ble_dfu_buttonless_backend_init          0x00024b49   Thumb Code    14  ble_dfu_unbonded.o(i.ble_dfu_buttonless_backend_init)
    ble_dfu_buttonless_bootloader_start_finalize 0x00024b5d   Thumb Code    40  ble_dfu.o(i.ble_dfu_buttonless_bootloader_start_finalize)
    ble_dfu_buttonless_bootloader_start_prepare 0x00024b89   Thumb Code    20  ble_dfu_unbonded.o(i.ble_dfu_buttonless_bootloader_start_prepare)
    ble_dfu_buttonless_char_add              0x00024ba1   Thumb Code   218  ble_dfu_unbonded.o(i.ble_dfu_buttonless_char_add)
    ble_dfu_buttonless_init                  0x00024c7d   Thumb Code    92  ble_dfu.o(i.ble_dfu_buttonless_init)
    ble_dfu_buttonless_on_ble_evt            0x00024ce1   Thumb Code   140  ble_dfu.o(i.ble_dfu_buttonless_on_ble_evt)
    ble_dfu_buttonless_on_ctrl_pt_write      0x00024d95   Thumb Code   150  ble_dfu_unbonded.o(i.ble_dfu_buttonless_on_ctrl_pt_write)
    ble_dfu_buttonless_on_sys_evt            0x00024e35   Thumb Code    66  ble_dfu_unbonded.o(i.ble_dfu_buttonless_on_sys_evt)
    ble_dfu_buttonless_resp_send             0x00024e81   Thumb Code    78  ble_dfu.o(i.ble_dfu_buttonless_resp_send)
    ble_srv_is_indication_enabled            0x00025359   Thumb Code     8  ble_srv_common.o(i.ble_srv_is_indication_enabled)
    ble_srv_is_notification_enabled          0x00025361   Thumb Code     8  ble_srv_common.o(i.ble_srv_is_notification_enabled)
    bsp_board_button_idx_to_pin              0x00025369   Thumb Code     6  boards.o(i.bsp_board_button_idx_to_pin)
    bsp_board_button_state_get               0x00025375   Thumb Code    28  boards.o(i.bsp_board_button_state_get)
    bsp_board_led_invert                     0x00025395   Thumb Code    32  boards.o(i.bsp_board_led_invert)
    bsp_board_led_off                        0x000253b9   Thumb Code    10  boards.o(i.bsp_board_led_off)
    bsp_board_led_on                         0x000253c9   Thumb Code    10  boards.o(i.bsp_board_led_on)
    bsp_board_led_state_get                  0x000253d9   Thumb Code    28  boards.o(i.bsp_board_led_state_get)
    bsp_board_leds_init                      0x000253f9   Thumb Code    38  boards.o(i.bsp_board_leds_init)
    bsp_board_leds_off                       0x00025425   Thumb Code    18  boards.o(i.bsp_board_leds_off)
    bsp_board_leds_on                        0x00025437   Thumb Code    18  boards.o(i.bsp_board_leds_on)
    bsp_board_pin_to_button_idx              0x00025449   Thumb Code    30  boards.o(i.bsp_board_pin_to_button_idx)
    bsp_btn_ble_init                         0x0002546d   Thumb Code    52  bsp_btn_ble.o(i.bsp_btn_ble_init)
    bsp_btn_ble_sleep_mode_prepare           0x000254a5   Thumb Code    30  bsp_btn_ble.o(i.bsp_btn_ble_sleep_mode_prepare)
    bsp_button_is_pressed                    0x00025555   Thumb Code     4  bsp.o(i.bsp_button_is_pressed)
    bsp_event_to_button_action_assign        0x000255a5   Thumb Code    64  bsp.o(i.bsp_event_to_button_action_assign)
    bsp_indication_set                       0x000255e9   Thumb Code    20  bsp.o(i.bsp_indication_set)
    bsp_init                                 0x00025601   Thumb Code   126  bsp.o(i.bsp_init)
    bsp_wakeup_button_enable                 0x0002584d   Thumb Code    16  bsp.o(i.bsp_wakeup_button_enable)
    buffer_is_empty                          0x000258e1   Thumb Code    16  nrf_log_frontend.o(i.buffer_is_empty)
    fds_file_delete                          0x00025fad   Thumb Code    62  fds.o(i.fds_file_delete)
    fds_gc                                   0x00025ff1   Thumb Code    52  fds.o(i.fds_gc)
    fds_init                                 0x0002602d   Thumb Code   192  fds.o(i.fds_init)
    fds_record_close                         0x00026101   Thumb Code    60  fds.o(i.fds_record_close)
    fds_record_find                          0x00026141   Thumb Code    14  fds.o(i.fds_record_find)
    fds_record_find_by_key                   0x0002614f   Thumb Code    16  fds.o(i.fds_record_find_by_key)
    fds_record_find_in_file                  0x0002615f   Thumb Code    16  fds.o(i.fds_record_find_in_file)
    fds_record_id_from_desc                  0x0002616f   Thumb Code    16  fds.o(i.fds_record_id_from_desc)
    fds_record_open                          0x00026181   Thumb Code    68  fds.o(i.fds_record_open)
    fds_record_update                        0x000261c9   Thumb Code    14  fds.o(i.fds_record_update)
    fds_record_write                         0x000261d7   Thumb Code     8  fds.o(i.fds_record_write)
    fds_record_write_reserved                0x000261df   Thumb Code    12  fds.o(i.fds_record_write_reserved)
    fds_register                             0x000261ed   Thumb Code    38  fds.o(i.fds_register)
    fds_reserve                              0x0002621d   Thumb Code    44  fds.o(i.fds_reserve)
    fds_reserve_cancel                       0x0002624d   Thumb Code    62  fds.o(i.fds_reserve_cancel)
    gcm_ble_evt_handler                      0x00026509   Thumb Code   142  gatt_cache_manager.o(i.gcm_ble_evt_handler)
    gcm_im_evt_handler                       0x000265a1   Thumb Code    44  gatt_cache_manager.o(i.gcm_im_evt_handler)
    gcm_init                                 0x000265d1   Thumb Code    74  gatt_cache_manager.o(i.gcm_init)
    gcm_local_database_has_changed           0x00026621   Thumb Code    74  gatt_cache_manager.o(i.gcm_local_database_has_changed)
    gcm_pdb_evt_handler                      0x00026671   Thumb Code   118  gatt_cache_manager.o(i.gcm_pdb_evt_handler)
    get_connection_by_conn_handle            0x000266ed   Thumb Code    48  id_manager.o(i.get_connection_by_conn_handle)
    get_free_connection                      0x00026725   Thumb Code    40  id_manager.o(i.get_free_connection)
    gscm_db_change_notification_done         0x000267ad   Thumb Code    22  gatts_cache_manager.o(i.gscm_db_change_notification_done)
    gscm_init                                0x000267c9   Thumb Code    16  gatts_cache_manager.o(i.gscm_init)
    gscm_local_database_has_changed          0x000267dd   Thumb Code    22  gatts_cache_manager.o(i.gscm_local_database_has_changed)
    gscm_local_db_cache_apply                0x000267f9   Thumb Code   106  gatts_cache_manager.o(i.gscm_local_db_cache_apply)
    gscm_local_db_cache_update               0x00026863   Thumb Code   130  gatts_cache_manager.o(i.gscm_local_db_cache_update)
    gscm_pdb_evt_handler                     0x000268e5   Thumb Code    18  gatts_cache_manager.o(i.gscm_pdb_evt_handler)
    gscm_service_changed_ind_needed          0x000268fd   Thumb Code    30  gatts_cache_manager.o(i.gscm_service_changed_ind_needed)
    gscm_service_changed_ind_send            0x0002691d   Thumb Code    50  gatts_cache_manager.o(i.gscm_service_changed_ind_send)
    im_address_resolve                       0x0002698d   Thumb Code    70  id_manager.o(i.im_address_resolve)
    im_ble_addr_get                          0x000269d5   Thumb Code    42  id_manager.o(i.im_ble_addr_get)
    im_ble_evt_handler                       0x00026a05   Thumb Code   194  id_manager.o(i.im_ble_evt_handler)
    im_conn_handle_get                       0x00026acd   Thumb Code    40  id_manager.o(i.im_conn_handle_get)
    im_find_duplicate_bonding_data           0x00026af9   Thumb Code    56  id_manager.o(i.im_find_duplicate_bonding_data)
    im_init                                  0x00026b31   Thumb Code    54  id_manager.o(i.im_init)
    im_is_duplicate_bonding_data             0x00026b71   Thumb Code   114  id_manager.o(i.im_is_duplicate_bonding_data)
    im_master_id_is_valid                    0x00026be3   Thumb Code    24  id_manager.o(i.im_master_id_is_valid)
    im_master_ids_compare                    0x00026bfb   Thumb Code    42  id_manager.o(i.im_master_ids_compare)
    im_new_peer_id                           0x00026c25   Thumb Code     4  id_manager.o(i.im_new_peer_id)
    im_peer_free                             0x00026c29   Thumb Code    38  id_manager.o(i.im_peer_free)
    im_peer_id_get_by_conn_handle            0x00026c51   Thumb Code    28  id_manager.o(i.im_peer_id_get_by_conn_handle)
    im_peer_id_get_by_master_id              0x00026c71   Thumb Code    60  id_manager.o(i.im_peer_id_get_by_master_id)
    is_valid_irk                             0x00026f35   Thumb Code    20  id_manager.o(i.is_valid_irk)
    main                                     0x000273a9   Thumb Code   410  main.o(i.main)
    new_connection                           0x0002773d   Thumb Code    80  id_manager.o(i.new_connection)
    next_id_get                              0x000277a9   Thumb Code    48  peer_id.o(i.next_id_get)
    nrf_atfifo_clear                         0x000277d9   Thumb Code    16  nrf_atfifo.o(i.nrf_atfifo_clear)
    nrf_atfifo_init                          0x000277e9   Thumb Code    38  nrf_atfifo.o(i.nrf_atfifo_init)
    nrf_atfifo_item_alloc                    0x0002780f   Thumb Code    22  nrf_atfifo.o(i.nrf_atfifo_item_alloc)
    nrf_atfifo_item_free                     0x00027825   Thumb Code    22  nrf_atfifo.o(i.nrf_atfifo_item_free)
    nrf_atfifo_item_get                      0x0002783b   Thumb Code    22  nrf_atfifo.o(i.nrf_atfifo_item_get)
    nrf_atfifo_item_put                      0x00027851   Thumb Code    22  nrf_atfifo.o(i.nrf_atfifo_item_put)
    nrf_balloc_alloc                         0x00027881   Thumb Code    68  nrf_balloc.o(i.nrf_balloc_alloc)
    nrf_balloc_free                          0x000278c5   Thumb Code    48  nrf_balloc.o(i.nrf_balloc_free)
    nrf_balloc_init                          0x000278f5   Thumb Code    48  nrf_balloc.o(i.nrf_balloc_init)
    nrf_ble_gatt_init                        0x00027935   Thumb Code    34  nrf_ble_gatt.o(i.nrf_ble_gatt_init)
    nrf_ble_gatt_on_ble_evt                  0x00027959   Thumb Code   312  nrf_ble_gatt.o(i.nrf_ble_gatt_on_ble_evt)
    nrf_dfu_svci_vector_table_set            0x00027b4d   Thumb Code    74  nrf_dfu_svci.o(i.nrf_dfu_svci_vector_table_set)
    nrf_dfu_svci_vector_table_unset          0x00027c15   Thumb Code    50  nrf_dfu_svci.o(i.nrf_dfu_svci_vector_table_unset)
    nrf_drv_clock_init                       0x00027cb1   Thumb Code    64  nrf_drv_clock.o(i.nrf_drv_clock_init)
    nrf_drv_clock_lfclk_release              0x00027cf9   Thumb Code    40  nrf_drv_clock.o(i.nrf_drv_clock_lfclk_release)
    nrf_drv_common_irq_enable                0x00027d3b   Thumb Code    56  nrf_drv_common.o(i.nrf_drv_common_irq_enable)
    nrf_drv_gpiote_in_event_enable           0x00027d79   Thumb Code   156  nrf_drv_gpiote.o(i.nrf_drv_gpiote_in_event_enable)
    nrf_drv_gpiote_in_init                   0x00027e1d   Thumb Code   172  nrf_drv_gpiote.o(i.nrf_drv_gpiote_in_init)
    nrf_drv_gpiote_in_is_set                 0x00027ed5   Thumb Code    20  nrf_drv_gpiote.o(i.nrf_drv_gpiote_in_is_set)
    nrf_drv_gpiote_init                      0x00027ee9   Thumb Code    84  nrf_drv_gpiote.o(i.nrf_drv_gpiote_init)
    nrf_drv_gpiote_is_init                   0x00027f45   Thumb Code    14  nrf_drv_gpiote.o(i.nrf_drv_gpiote_is_init)
    nrf_drv_uart_init                        0x00027f69   Thumb Code    98  nrf_drv_uart.o(i.nrf_drv_uart_init)
    nrf_drv_uart_tx                          0x00027fd1   Thumb Code   262  nrf_drv_uart.o(i.nrf_drv_uart_tx)
    nrf_drv_uart_tx_in_progress              0x000280dd   Thumb Code    18  nrf_drv_uart.o(i.nrf_drv_uart_tx_in_progress)
    nrf_drv_uart_uninit                      0x000280f5   Thumb Code    74  nrf_drv_uart.o(i.nrf_drv_uart_uninit)
    nrf_fprintf                              0x00028149   Thumb Code    26  nrf_fprintf.o(i.nrf_fprintf)
    nrf_fprintf_buffer_flush                 0x00028163   Thumb Code    24  nrf_fprintf.o(i.nrf_fprintf_buffer_flush)
    nrf_fprintf_fmt                          0x0002817b   Thumb Code   474  nrf_fprintf_format.o(i.nrf_fprintf_fmt)
    nrf_fstorage_erase                       0x00028355   Thumb Code    78  nrf_fstorage.o(i.nrf_fstorage_erase)
    nrf_fstorage_init                        0x000283a3   Thumb Code    16  nrf_fstorage.o(i.nrf_fstorage_init)
    nrf_fstorage_is_busy                     0x000283b5   Thumb Code    70  nrf_fstorage.o(i.nrf_fstorage_is_busy)
    nrf_fstorage_sdh_req_handler             0x00028405   Thumb Code    18  nrf_fstorage_sd.o(i.nrf_fstorage_sdh_req_handler)
    nrf_fstorage_sdh_state_handler           0x0002841d   Thumb Code    28  nrf_fstorage_sd.o(i.nrf_fstorage_sdh_state_handler)
    nrf_fstorage_sys_evt_handler             0x0002843d   Thumb Code   150  nrf_fstorage_sd.o(i.nrf_fstorage_sys_evt_handler)
    nrf_fstorage_write                       0x000284e1   Thumb Code   102  nrf_fstorage.o(i.nrf_fstorage_write)
    nrf_log_backend_add                      0x00028691   Thumb Code    74  nrf_log_frontend.o(i.nrf_log_backend_add)
    nrf_log_backend_serial_put               0x000286e1   Thumb Code   210  nrf_log_backend_serial.o(i.nrf_log_backend_serial_put)
    nrf_log_backend_uart_init                0x000287b5   Thumb Code     6  nrf_log_backend_uart.o(i.nrf_log_backend_uart_init)
    nrf_log_color_id_get                     0x000287ed   Thumb Code    42  nrf_log_frontend.o(i.nrf_log_color_id_get)
    nrf_log_default_backends_init            0x0002881d   Thumb Code    22  nrf_log_default_backends.o(i.nrf_log_default_backends_init)
    nrf_log_frontend_dequeue                 0x00028839   Thumb Code   488  nrf_log_frontend.o(i.nrf_log_frontend_dequeue)
    nrf_log_frontend_std_0                   0x00028a29   Thumb Code     8  nrf_log_frontend.o(i.nrf_log_frontend_std_0)
    nrf_log_frontend_std_1                   0x00028a31   Thumb Code    14  nrf_log_frontend.o(i.nrf_log_frontend_std_1)
    nrf_log_frontend_std_2                   0x00028a3f   Thumb Code    16  nrf_log_frontend.o(i.nrf_log_frontend_std_2)
    nrf_log_frontend_std_3                   0x00028a4f   Thumb Code    18  nrf_log_frontend.o(i.nrf_log_frontend_std_3)
    nrf_log_hexdump_entry_process            0x00028a61   Thumb Code   146  nrf_log_str_formatter.o(i.nrf_log_hexdump_entry_process)
    nrf_log_init                             0x00028b0d   Thumb Code    70  nrf_log_frontend.o(i.nrf_log_init)
    nrf_log_module_cnt_get                   0x00028b69   Thumb Code    10  nrf_log_frontend.o(i.nrf_log_module_cnt_get)
    nrf_log_module_name_get                  0x00028b7d   Thumb Code    24  nrf_log_frontend.o(i.nrf_log_module_name_get)
    nrf_log_panic                            0x00028b99   Thumb Code    34  nrf_log_frontend.o(i.nrf_log_panic)
    nrf_log_std_entry_process                0x00028bc1   Thumb Code   182  nrf_log_str_formatter.o(i.nrf_log_std_entry_process)
    nrf_memobj_alloc                         0x00028c77   Thumb Code    96  nrf_memobj.o(i.nrf_memobj_alloc)
    nrf_memobj_free                          0x00028cd7   Thumb Code    50  nrf_memobj.o(i.nrf_memobj_free)
    nrf_memobj_get                           0x00028d09   Thumb Code    14  nrf_memobj.o(i.nrf_memobj_get)
    nrf_memobj_pool_init                     0x00028d17   Thumb Code     4  nrf_memobj.o(i.nrf_memobj_pool_init)
    nrf_memobj_put                           0x00028d1b   Thumb Code    34  nrf_memobj.o(i.nrf_memobj_put)
    nrf_memobj_read                          0x00028d3d   Thumb Code    12  nrf_memobj.o(i.nrf_memobj_read)
    nrf_memobj_write                         0x00028d49   Thumb Code    12  nrf_memobj.o(i.nrf_memobj_write)
    nrf_pwr_mgmt_init                        0x00028d55   Thumb Code    62  nrf_pwr_mgmt.o(i.nrf_pwr_mgmt_init)
    nrf_pwr_mgmt_run                         0x00028da5   Thumb Code    64  nrf_pwr_mgmt.o(i.nrf_pwr_mgmt_run)
    nrf_pwr_mgmt_shutdown                    0x00028de9   Thumb Code    58  nrf_pwr_mgmt.o(i.nrf_pwr_mgmt_shutdown)
    nrf_sdh_ble_app_ram_start_get            0x00028e3d   Thumb Code    16  nrf_sdh_ble.o(i.nrf_sdh_ble_app_ram_start_get)
    nrf_sdh_ble_default_cfg_set              0x00028e51   Thumb Code   240  nrf_sdh_ble.o(i.nrf_sdh_ble_default_cfg_set)
    nrf_sdh_ble_enable                       0x00028f59   Thumb Code    96  nrf_sdh_ble.o(i.nrf_sdh_ble_enable)
    nrf_sdh_disable_request                  0x00029081   Thumb Code    54  nrf_sdh.o(i.nrf_sdh_disable_request)
    nrf_sdh_enable_request                   0x000290bd   Thumb Code    96  nrf_sdh.o(i.nrf_sdh_enable_request)
    nrf_sdh_evts_poll                        0x00029129   Thumb Code    32  nrf_sdh.o(i.nrf_sdh_evts_poll)
    nrf_sdh_is_enabled                       0x0002914d   Thumb Code     6  nrf_sdh.o(i.nrf_sdh_is_enabled)
    nrf_sdh_request_continue                 0x00029159   Thumb Code    22  nrf_sdh.o(i.nrf_sdh_request_continue)
    nrf_section_iter_init                    0x000291b1   Thumb Code    10  nrf_section_iter.o(i.nrf_section_iter_init)
    nrf_section_iter_next                    0x000291df   Thumb Code    32  nrf_section_iter.o(i.nrf_section_iter_next)
    nrf_strerror_find                        0x00029201   Thumb Code    52  nrf_strerror.o(i.nrf_strerror_find)
    nrf_strerror_get                         0x00029239   Thumb Code    14  nrf_strerror.o(i.nrf_strerror_get)
    pdb_init                                 0x000296d5   Thumb Code    64  peer_database.o(i.pdb_init)
    pdb_next_deleted_peer_id_get             0x0002971d   Thumb Code     4  peer_database.o(i.pdb_next_deleted_peer_id_get)
    pdb_next_peer_id_get                     0x00029721   Thumb Code     4  peer_database.o(i.pdb_next_peer_id_get)
    pdb_pds_evt_handler                      0x00029725   Thumb Code   110  peer_database.o(i.pdb_pds_evt_handler)
    pdb_peer_allocate                        0x0002979d   Thumb Code     4  peer_database.o(i.pdb_peer_allocate)
    pdb_peer_data_load                       0x000297a1   Thumb Code    16  peer_database.o(i.pdb_peer_data_load)
    pdb_peer_data_ptr_get                    0x000297b1   Thumb Code     6  peer_database.o(i.pdb_peer_data_ptr_get)
    pdb_peer_free                            0x000297b7   Thumb Code    68  peer_database.o(i.pdb_peer_free)
    pdb_raw_store                            0x000297fb   Thumb Code     8  peer_database.o(i.pdb_raw_store)
    pdb_write_buf_get                        0x00029805   Thumb Code   256  peer_database.o(i.pdb_write_buf_get)
    pdb_write_buf_release                    0x00029909   Thumb Code    40  peer_database.o(i.pdb_write_buf_release)
    pdb_write_buf_store                      0x00029931   Thumb Code    40  peer_database.o(i.pdb_write_buf_store)
    pdb_write_buf_store_prepare              0x00029959   Thumb Code    98  peer_database.o(i.pdb_write_buf_store_prepare)
    pds_init                                 0x000299d1   Thumb Code    98  peer_data_storage.o(i.pds_init)
    pds_next_deleted_peer_id_get             0x00029a3d   Thumb Code     4  peer_data_storage.o(i.pds_next_deleted_peer_id_get)
    pds_next_peer_id_get                     0x00029a41   Thumb Code     4  peer_data_storage.o(i.pds_next_peer_id_get)
    pds_peer_data_iterate                    0x00029a45   Thumb Code    84  peer_data_storage.o(i.pds_peer_data_iterate)
    pds_peer_data_iterate_prepare            0x00029a9d   Thumb Code    10  peer_data_storage.o(i.pds_peer_data_iterate_prepare)
    pds_peer_data_read                       0x00029aad   Thumb Code   104  peer_data_storage.o(i.pds_peer_data_read)
    pds_peer_data_store                      0x00029b15   Thumb Code   150  peer_data_storage.o(i.pds_peer_data_store)
    pds_peer_id_allocate                     0x00029bab   Thumb Code     8  peer_data_storage.o(i.pds_peer_id_allocate)
    pds_peer_id_free                         0x00029bb3   Thumb Code    22  peer_data_storage.o(i.pds_peer_id_free)
    pds_peer_id_is_allocated                 0x00029bc9   Thumb Code     4  peer_data_storage.o(i.pds_peer_id_is_allocated)
    pds_space_reserve                        0x00029bcd   Thumb Code    46  peer_data_storage.o(i.pds_space_reserve)
    pds_space_reserve_cancel                 0x00029bfb   Thumb Code    16  peer_data_storage.o(i.pds_space_reserve_cancel)
    peer_id_allocate                         0x00029d11   Thumb Code     6  peer_id.o(i.peer_id_allocate)
    peer_id_delete                           0x00029d1d   Thumb Code    32  peer_id.o(i.peer_id_delete)
    peer_id_free                             0x00029d41   Thumb Code    24  peer_id.o(i.peer_id_free)
    peer_id_get_next_deleted                 0x00029d5d   Thumb Code     6  peer_id.o(i.peer_id_get_next_deleted)
    peer_id_get_next_used                    0x00029d69   Thumb Code    42  peer_id.o(i.peer_id_get_next_used)
    peer_id_init                             0x00029d99   Thumb Code    36  peer_id.o(i.peer_id_init)
    peer_id_is_allocated                     0x00029dc1   Thumb Code    16  peer_id.o(i.peer_id_is_allocated)
    peer_id_is_deleted                       0x00029dd5   Thumb Code    16  peer_id.o(i.peer_id_is_deleted)
    pm_buffer_block_acquire                  0x00029ff1   Thumb Code    92  pm_buffer.o(i.pm_buffer_block_acquire)
    pm_buffer_init                           0x0002a04d   Thumb Code    64  pm_buffer.o(i.pm_buffer_init)
    pm_buffer_ptr_get                        0x0002a08d   Thumb Code    40  pm_buffer.o(i.pm_buffer_ptr_get)
    pm_buffer_release                        0x0002a0b5   Thumb Code    46  pm_buffer.o(i.pm_buffer_release)
    pm_conn_sec_config_reply                 0x0002a0e3   Thumb Code    10  peer_manager.o(i.pm_conn_sec_config_reply)
    pm_gcm_evt_handler                       0x0002a1ed   Thumb Code     4  peer_manager.o(i.pm_gcm_evt_handler)
    pm_im_evt_handler                        0x0002a1f1   Thumb Code    30  peer_manager.o(i.pm_im_evt_handler)
    pm_init                                  0x0002a215   Thumb Code    84  peer_manager.o(i.pm_init)
    pm_local_database_has_changed            0x0002a26d   Thumb Code    14  peer_manager.o(i.pm_local_database_has_changed)
    pm_mutex_init                            0x0002a281   Thumb Code    14  pm_mutex.o(i.pm_mutex_init)
    pm_mutex_lock                            0x0002a28f   Thumb Code    26  pm_mutex.o(i.pm_mutex_lock)
    pm_mutex_lock_first_available            0x0002a2a9   Thumb Code    54  pm_mutex.o(i.pm_mutex_lock_first_available)
    pm_mutex_lock_status_get                 0x0002a2df   Thumb Code    24  pm_mutex.o(i.pm_mutex_lock_status_get)
    pm_mutex_unlock                          0x0002a2f7   Thumb Code    58  pm_mutex.o(i.pm_mutex_unlock)
    pm_pdb_evt_handler                       0x0002a331   Thumb Code   276  peer_manager.o(i.pm_pdb_evt_handler)
    pm_peer_delete                           0x0002a449   Thumb Code    14  peer_manager.o(i.pm_peer_delete)
    pm_peer_ranks_get                        0x0002a45d   Thumb Code   176  peer_manager.o(i.pm_peer_ranks_get)
    pm_peers_delete                          0x0002a515   Thumb Code    98  peer_manager.o(i.pm_peers_delete)
    pm_register                              0x0002a57d   Thumb Code    34  peer_manager.o(i.pm_register)
    pm_sec_params_set                        0x0002a5a9   Thumb Code    14  peer_manager.o(i.pm_sec_params_set)
    pm_sm_evt_handler                        0x0002a5bd   Thumb Code    46  peer_manager.o(i.pm_sm_evt_handler)
    sdk_mapped_flags_bulk_update_by_key      0x0002ac25   Thumb Code    68  sdk_mapped_flags.o(i.sdk_mapped_flags_bulk_update_by_key)
    sdk_mapped_flags_first_key_index_get     0x0002ac69   Thumb Code    34  sdk_mapped_flags.o(i.sdk_mapped_flags_first_key_index_get)
    sdk_mapped_flags_get_by_key              0x0002ac9b   Thumb Code    38  sdk_mapped_flags.o(i.sdk_mapped_flags_get_by_key)
    sdk_mapped_flags_key_list_get            0x0002acc1   Thumb Code    74  sdk_mapped_flags.o(i.sdk_mapped_flags_key_list_get)
    sdk_mapped_flags_update_by_key           0x0002ad0b   Thumb Code    14  sdk_mapped_flags.o(i.sdk_mapped_flags_update_by_key)
    sm_ble_evt_handler                       0x0002b1e9   Thumb Code    18  security_manager.o(i.sm_ble_evt_handler)
    sm_conn_sec_config_reply                 0x0002b201   Thumb Code     4  security_manager.o(i.sm_conn_sec_config_reply)
    sm_init                                  0x0002b205   Thumb Code    70  security_manager.o(i.sm_init)
    sm_pdb_evt_handler                       0x0002b251   Thumb Code    60  security_manager.o(i.sm_pdb_evt_handler)
    sm_sec_params_set                        0x0002b291   Thumb Code    46  security_manager.o(i.sm_sec_params_set)
    sm_smd_evt_handler                       0x0002b2c5   Thumb Code    92  security_manager.o(i.sm_smd_evt_handler)
    smd_ble_evt_handler                      0x0002b325   Thumb Code   234  security_dispatcher.o(i.smd_ble_evt_handler)
    smd_conn_sec_config_reply                0x0002b419   Thumb Code    10  security_dispatcher.o(i.smd_conn_sec_config_reply)
    smd_init                                 0x0002b429   Thumb Code    84  security_dispatcher.o(i.smd_init)
    smd_link_secure                          0x0002b481   Thumb Code    34  security_dispatcher.o(i.smd_link_secure)
    smd_params_reply                         0x0002b4a5   Thumb Code   242  security_dispatcher.o(i.smd_params_reply)
    write_buf_store                          0x0002be59   Thumb Code   146  peer_database.o(i.write_buf_store)
    nrf_fstorage_sd                          0x0002c390   Data          32  nrf_fstorage_sd.o(.constdata)
    nrf_log_backend_uart_api                 0x0002c4dc   Data          12  nrf_log_backend_uart.o(.constdata)
    m_ram_start                              0x0002c594   Data           4  nrf_sdh_ble.o(.constdata)
    __ctype_table                            0x0002c5c0   Data         129  ctype_o.o(.constdata)
    Region$$Table$$Base                      0x0002cccc   Number         0  anon$$obj.o(Region$$Table)
    Region$$Table$$Limit                     0x0002ccec   Number         0  anon$$obj.o(Region$$Table)
    log_const_data$$Base                     0x0002ccec   Number         0  nrf_ble_gatt.o(log_const_data)
    m_nrf_log_ble_gatt_logs_data_const       0x0002ccec   Data           8  nrf_ble_gatt.o(log_const_data)
    m_nrf_log_clock_logs_data_const          0x0002ccf4   Data           8  nrf_drv_clock.o(log_const_data)
    m_nrf_log_gpiote_logs_data_const         0x0002ccfc   Data           8  nrf_drv_gpiote.o(log_const_data)
    m_nrf_log_uart_logs_data_const           0x0002cd04   Data           8  nrf_drv_uart.o(log_const_data)
    m_nrf_log_balloc_logs_data_const         0x0002cd0c   Data           8  nrf_balloc.o(log_const_data)
    m_nrf_log_pwr_mgmt_logs_data_const       0x0002cd14   Data           8  nrf_pwr_mgmt.o(log_const_data)
    m_nrf_log_app_logs_data_const            0x0002cd1c   Data           8  nrf_log_frontend.o(log_const_data)
    m_nrf_log_nrf_sdh_logs_data_const        0x0002cd24   Data           8  nrf_sdh.o(log_const_data)
    m_nrf_log_nrf_sdh_ble_logs_data_const    0x0002cd2c   Data           8  nrf_sdh_ble.o(log_const_data)
    m_nrf_log_nrf_sdh_soc_logs_data_const    0x0002cd34   Data           8  nrf_sdh_soc.o(log_const_data)
    log_const_data$$Limit                    0x0002cd3c   Number         0  nrf_sdh_soc.o(log_const_data)
    pwr_mgmt_data0$$Base                     0x0002cd3c   Number         0  main.o(pwr_mgmt_data0)
    pwr_mgmt_data0$$Limit                    0x0002cd40   Number         0  main.o(pwr_mgmt_data0)
    sdh_ble_observers0$$Base                 0x0002cd40   Number         0  ble_conn_state.o(sdh_ble_observers0)
    sdh_ble_observers0$$Limit                0x0002cd48   Number         0  ble_conn_state.o(sdh_ble_observers0)
    sdh_ble_observers1$$Base                 0x0002cd48   Number         0  main.o(sdh_ble_observers1)
    sdh_ble_observers1$$Limit                0x0002cd70   Number         0  peer_manager.o(sdh_ble_observers1)
    sdh_ble_observers2$$Base                 0x0002cd70   Number         0  ble_dfu.o(sdh_ble_observers2)
    sdh_ble_observers2$$Limit                0x0002cd78   Number         0  ble_dfu.o(sdh_ble_observers2)
    sdh_ble_observers3$$Base                 0x0002cd78   Number         0  main.o(sdh_ble_observers3)
    m_req_obs                                0x0002cd80   Data           8  nrf_fstorage_sd.o(sdh_req_observers0)
    sdh_ble_observers3$$Limit                0x0002cd80   Number         0  main.o(sdh_ble_observers3)
    sdh_req_observers0$$Base                 0x0002cd80   Number         0  nrf_fstorage_sd.o(sdh_req_observers0)
    sdh_req_observers0$$Limit                0x0002cd88   Number         0  nrf_fstorage_sd.o(sdh_req_observers0)
    sdh_soc_observers0$$Base                 0x0002cd88   Number         0  nrf_drv_clock.o(sdh_soc_observers0)
    sdh_soc_observers0$$Limit                0x0002cd98   Number         0  nrf_fstorage_sd.o(sdh_soc_observers0)
    sdh_soc_observers1$$Base                 0x0002cd98   Number         0  main.o(sdh_soc_observers1)
    sdh_soc_observers1$$Limit                0x0002cda8   Number         0  ble_dfu_unbonded.o(sdh_soc_observers1)
    sdh_stack_observers0$$Base               0x0002cda8   Number         0  nrf_sdh_ble.o(sdh_stack_observers0)
    sdh_stack_observers0$$Limit              0x0002cdb8   Number         0  nrf_sdh_soc.o(sdh_stack_observers0)
    sdh_state_observers0$$Base               0x0002cdb8   Number         0  nrf_drv_clock.o(sdh_state_observers0)
    sdh_state_observers0$$Limit              0x0002cdc8   Number         0  nrf_fstorage_sd.o(sdh_state_observers0)
    Image$$RW_IRAM1$$Base                    0x20002180   Number         0  anon$$obj.o ABSOLUTE
    mp_dfu                                   0x20002204   Data           4  ble_dfu_unbonded.o(.data)
    m_uart                                   0x20002274   Data           8  nrf_log_backend_uart.o(.data)
    SystemCoreClock                          0x200022d4   Data           4  system_nrf52.o(.data)
    fs_data$$Base                            0x200022d8   Number         0  fds.o(fs_data)
    m_fs                                     0x200022d8   Data          20  fds.o(fs_data)
    fs_data$$Limit                           0x200022ec   Number         0  fds.o(fs_data)
    log_dynamic_data$$Base                   0x200022ec   Number         0  nrf_ble_gatt.o(log_dynamic_data)
    m_nrf_log_ble_gatt_logs_data_dynamic     0x200022ec   Data          12  nrf_ble_gatt.o(log_dynamic_data)
    m_nrf_log_clock_logs_data_dynamic        0x200022f8   Data          12  nrf_drv_clock.o(log_dynamic_data)
    m_nrf_log_gpiote_logs_data_dynamic       0x20002304   Data          12  nrf_drv_gpiote.o(log_dynamic_data)
    m_nrf_log_uart_logs_data_dynamic         0x20002310   Data          12  nrf_drv_uart.o(log_dynamic_data)
    m_nrf_log_balloc_logs_data_dynamic       0x2000231c   Data          12  nrf_balloc.o(log_dynamic_data)
    m_nrf_log_pwr_mgmt_logs_data_dynamic     0x20002328   Data          12  nrf_pwr_mgmt.o(log_dynamic_data)
    m_nrf_log_app_logs_data_dynamic          0x20002334   Data          12  nrf_log_frontend.o(log_dynamic_data)
    m_nrf_log_nrf_sdh_logs_data_dynamic      0x20002340   Data          12  nrf_sdh.o(log_dynamic_data)
    m_nrf_log_nrf_sdh_ble_logs_data_dynamic  0x2000234c   Data          12  nrf_sdh_ble.o(log_dynamic_data)
    m_nrf_log_nrf_sdh_soc_logs_data_dynamic  0x20002358   Data          12  nrf_sdh_soc.o(log_dynamic_data)
    nrf_nvic_state                           0x20002a1c   Data          12  app_util_platform.o(.bss)
    __initial_sp                             0x20005118   Data           0  arm_startup_nrf52.o(STACK)



==============================================================================

Memory Map of the image

  Image Entry point : 0x00023201

  Load Region LR_IROM1 (Base: 0x00023000, Size: 0x00009fac, Max: 0x00055000, ABSOLUTE, COMPRESSED[0x00009e1c])

    Execution Region ER_IROM1 (Base: 0x00023000, Size: 0x00009dc8, Max: 0x00055000, ABSOLUTE)

    Base Addr    Size         Type   Attr      Idx    E Section Name        Object

    0x00023000   0x00000200   Data   RO         5952    RESET               arm_startup_nrf52.o
    0x00023200   0x00000000   Code   RO         5993  * .ARM.Collect$$$$00000000  mc_w.l(entry.o)
    0x00023200   0x00000004   Code   RO         6045    .ARM.Collect$$$$00000001  mc_w.l(entry2.o)
    0x00023204   0x00000004   Code   RO         6048    .ARM.Collect$$$$00000004  mc_w.l(entry5.o)
    0x00023208   0x00000000   Code   RO         6050    .ARM.Collect$$$$00000008  mc_w.l(entry7b.o)
    0x00023208   0x00000000   Code   RO         6052    .ARM.Collect$$$$0000000A  mc_w.l(entry8b.o)
    0x00023208   0x00000008   Code   RO         6053    .ARM.Collect$$$$0000000B  mc_w.l(entry9a.o)
    0x00023210   0x00000000   Code   RO         6055    .ARM.Collect$$$$0000000D  mc_w.l(entry10a.o)
    0x00023210   0x00000000   Code   RO         6057    .ARM.Collect$$$$0000000F  mc_w.l(entry11a.o)
    0x00023210   0x00000004   Code   RO         6046    .ARM.Collect$$$$00002712  mc_w.l(entry2.o)
    0x00023214   0x0000009a   Code   RO         3922    .emb_text           fds.o
    0x000232ae   0x00000002   PAD
    0x000232b0   0x000000c8   Code   RO         4278    .emb_text           nrf_atfifo.o
    0x00023378   0x0000009a   Code   RO         4537    .emb_text           nrf_fstorage_sd.o
    0x00023412   0x00000002   PAD
    0x00023414   0x0000009a   Code   RO         4651    .emb_text           nrf_memobj.o
    0x000234ae   0x00000002   PAD
    0x000234b0   0x0000009a   Code   RO         4736    .emb_text           nrf_pwr_mgmt.o
    0x0002354a   0x00000002   PAD
    0x0002354c   0x0000009a   Code   RO         5115    .emb_text           nrf_log_frontend.o
    0x000235e6   0x00000002   PAD
    0x000235e8   0x00000024   Code   RO         5953    .text               arm_startup_nrf52.o
    0x0002360c   0x00000062   Code   RO         6001    .text               mc_w.l(uldiv.o)
    0x0002366e   0x00000002   PAD
    0x00023670   0x00000008   Code   RO         6003    .text               mc_w.l(ctype_o.o)
    0x00023678   0x00000024   Code   RO         6031    .text               mc_w.l(memcpya.o)
    0x0002369c   0x00000024   Code   RO         6033    .text               mc_w.l(memseta.o)
    0x000236c0   0x0000000e   Code   RO         6035    .text               mc_w.l(strlen.o)
    0x000236ce   0x0000001a   Code   RO         6039    .text               mc_w.l(memcmp.o)
    0x000236e8   0x0000001e   Code   RO         6060    .text               mc_w.l(llshl.o)
    0x00023706   0x00000020   Code   RO         6062    .text               mc_w.l(llushr.o)
    0x00023726   0x00000002   PAD
    0x00023728   0x00000024   Code   RO         6065    .text               mc_w.l(init.o)
    0x0002374c   0x00000056   Code   RO         6075    .text               mc_w.l(__dczerorl2.o)
    0x000237a2   0x00000002   PAD
    0x000237a4   0x00000174   Code   RO         2993    i.GPIOTE_IRQHandler  nrf_drv_gpiote.o
    0x00023918   0x00000016   Code   RO         3658    i.NVIC_ClearPendingIRQ  app_timer.o
    0x0002392e   0x00000016   Code   RO         3659    i.NVIC_EnableIRQ    app_timer.o
    0x00023944   0x00000016   Code   RO         3660    i.NVIC_SetPendingIRQ  app_timer.o
    0x0002395a   0x00000020   Code   RO         3661    i.NVIC_SetPriority  app_timer.o
    0x0002397a   0x00000002   PAD
    0x0002397c   0x00000058   Code   RO         2787    i.POWER_CLOCK_IRQHandler  nrf_drv_clock.o
    0x000239d4   0x00000024   Code   RO         3662    i.RTC1_IRQHandler   app_timer.o
    0x000239f8   0x00000004   Code   RO         3663    i.SWI0_EGU0_IRQHandler  app_timer.o
    0x000239fc   0x00000004   Code   RO         5740    i.SWI2_EGU2_IRQHandler  nrf_sdh.o
    0x00023a00   0x0000031c   Code   RO         5961    i.SystemInit        system_nrf52.o
    0x00023d1c   0x0000001c   Code   RO         3237    i.UARTE0_UART0_IRQHandler  nrf_drv_uart.o
