:020000040000FA
:1000000090240020150200001D0200001F020000C5
:100010002102000023020000250200000000000071
:1000200000000000000000000000000027020000A7
:1000300029020000000000002B0200002D02000039
:10004000010700002F0200002F0200002F02000015
:100050002F020000B9040000450300002F02000039
:100060002F0200002F0200002F0200002F020000CC
:100070002F0200002F0200002F0200002F020000BC
:100080002F020000590700002F0200002F0200007D
:100090007D0700002F0200002F0200002F02000049
:1000A0002F0200002F0200002F0200007D0A000036
:1000B0002F0200002F0200000000000000000000DE
:1000C0002F0200002F0200002F0200002F0200006C
:1000D0002F0200002F0200002F020000000000008D
:1000E0000000000000000000000000000000000010
:1000F0000000000000000000000000000000000000
:1001000000000000000000000000000000000000EF
:1001100000000000000000000000000000000000DF
:1001200000000000000000000000000000000000CF
:1001300000000000000000000000000000000000BF
:1001400000000000000000000000000000000000AF
:10015000000000000000000000000000000000009F
:10016000000000000000000000000000000000008F
:10017000000000000000000000000000000000007F
:10018000000000000000000000000000000000006F
:10019000000000000000000000000000000000005F
:1001A000000000000000000000000000000000004F
:1001B000000000000000000000000000000000003F
:1001C000000000000000000000000000000000002F
:1001D000000000000000000000000000000000001F
:1001E000000000000000000000000000000000000F
:1001F00000000000000000000000000000000000FF
:10020000DFF80CD000F08CF800480047ED19000032
:10021000902400200648804706480047FEE7FEE796
:10022000FEE7FEE7FEE7FEE7FEE7FEE7FEE7FEE7A6
:1002300081070000010200002DE9F05F0546002063
:1002400092469B4688460646814640241BE0284647
:1002500041464746224600F053F853465A46C01AD4
:10026000914110D311461846224600F03AF82D1A53
:1002700067EB01084F4622460120002100F031F8CB
:1002800017EB00094E41201EA4F10104DFDC4846B3
:1002900031462A464346BDE8F09F40EA01039B07EA
:1002A00003D009E008C9121F08C0042AFAD203E0EB
:1002B00011F8013B00F8013B521EF9D27047D2B24F
:1002C00001E000F8012B491EFBD270470022F6E73F
:1002D00010B513460A4604461946FFF7F0FF2046BC
:1002E00010BD202A04DB203A00FA02F100207047FA
:1002F0009140C2F1200320FA03F319439040704764
:10030000202A04DB203A21FA02F00021704721FA6A
:1003100002F3D040C2F120029140084319467047D1
:10032000064C074D06E0E06840F0010394E8070042
:1003300098471034AC42F6D3FFF766FFD028000090
:10034000F02800002DE9F04700268CB0DFF860911E
:10035000B0464FF48075012437460696284602F0D1
:10036000BFF838B1D9F80403204203D0284602F080
:10037000ADF826432D1D64007F1CADB2082FEDD3D0
:100380004FF4BE74204602F0ABF848B1204602F0AC
:100390009DF846F0004606AA0121002002F082F8EE
:1003A000444D16F0FF0F15D00127002437420DD021
:1003B00009EB8401D1F81005D1F81015C0F3042021
:1003C00055F82420C1F3014102B190477F00641C1D
:1003D000082CEBD3002E67DA4FF0FF30CDE9088010
:1003E00000263446281910F8507F90F9000027F0B5
:1003F000C008401C44D009A9404601F009FE58B38A
:100400004FEA9719404600F0B1FE55F820701FB131
:10041000B9F1030F03D00FE0B9F1030F30D108A8F1
:100420004FEAD80208F00703815C4FF0010C0CFA88
:1004300003FC41EA0C0181544FF0A04101EB88001C
:10044000D0F8000706A9C0F3014A404601F0E0FDDC
:1004500018B1BAF1020F03D012E0BAF1030F0FD1B5
:10046000B9F1030F08D1BAF1020F1BD002214046A7
:1004700001F0FCFF761CF6B217B149464046B8477A
:10048000641C042CAED3002E0ED06A46012100203D
:1004900002F008F806990098884205D0069008985E
:1004A00009909DE70321E2E70CB0BDE8F08700006A
:1004B00000600040100200202DE9F05F5D4CD4F890
:1004C00004015D4D012690B1D4F8000380070ED5DC
:1004D0005A4802F015F8687840B905F1100001F0AB
:1004E00017FE5748C66006600020A8606E70D4F8FA
:1004F0001801544F08B3D4F8000340061DD55248E4
:100500000068C0F3C800A0F102084C48143001F0A4
:10051000F7FF3878302803D0387850280BD00BE01C
:10052000D5F804C0BCF1000F07D04346454A02216C
:10053000E868E04701E02E70E661D4F81001DFF8CA
:1005400008A14FF0100BAAF1140AD0B1D4F800039F
:10055000C00616D539480C3001F0D2FFC4F808B3F4
:10056000CAF800700AF10401C1F800B0E661D5F8DC
:1005700004C0BCF1000F04D000231A460321E86830
:10058000E047D4F84C01DFF8C4904FF00D0838B3C1
:10059000D4F80003000323D52848483001F0B0FF09
:1005A0002648143001F0ACFF2448243001F0A8FFA5
:1005B000CAF8007024491039C1F800B0E6614FF460
:1005C0008860C4F8040321490831C1F80080C9F8E3
:1005D00000806F6827B100231A461946E868B847BB
:1005E000D4F8280160B1D4F80003400508D5174FAE
:1005F000083738681148243001F082FFC7F80080BE
:10060000D4F81C01002813D0D4F8000300060FD53D
:10061000D9F800704C460948183001F071FFF8070E
:1006200004D0287810B1266000202870C4F800801B
:10063000BDE8F09F005000404800002004510040F9
:1006400000B001400804002024550040045400403C
:1006500000F01F02012191404009800000F1E020DC
:10066000C0F88012704700F01F020121914040093C
:10067000800000F1E020C0F88012704700F01F02F7
:10068000012191404009800000F1E020C0F80011F4
:10069000704700F01F02012191404009800000F1E5
:1006A000E020C0F80011704700F01F0201219140C6
:1006B0004009800000F1E020C0F8001270474907AF
:1006C000090E002806DA00F00F0000F1E02080F8A3
:1006D000141D704700F1E02080F8001470474907AE
:1006E000090E002806DA00F00F0000F1E02080F883
:1006F000141D704700F1E02080F8001470470000DE
:100700002DE9F0414FF48077384601F089FC01244F
:10071000104EA50748B1384601F089FC0120C5F804
:1007200008037470002000F029FD4FF482773846EA
:1007300001F076FC00280BD0384601F078FC02204E
:10074000C5F80803B470BDE8F041012000F016BD03
:10075000BDE8F081FC01002007480021C0F84011ED
:10076000C0F84411C0F84811C0F84C11C0F800118D
:10077000C0F8041102F00AB80010014001F058BF9F
:10078000F0B5AE480023021D01780125101D4FF081
:10079000805406290BD11678360708D10678C6F39F
:1007A0000316032E06D0042E04D0052E02D00629EF
:1007B00007D00EE0B4F82463A14FC6F304263E60D0
:1007C00002E01678360704D10678C6F30316032E26
:1007D00002D0062904D00FE09B4F9A4E7E670EE0B0
:1007E0001678360708D10678C6F30316032E06D00E
:1007F000042E04D0052E02D0062907D00EE0D4F82E
:100800004462924FC6F342363E6002E016783607E5
:1008100004D10678C6F30316032E02D0062906D0AB
:1008200011E08B4E376827F0807737600EE016783E
:10083000360708D10678C6F30316032E06D0042E19
:1008400004D0052E02D006290AD011E04FF08046D0
:10085000C6F80C31C6F810317C4E361F336002E00A
:100860001678360704D10678C6F30316032E02D095
:10087000062905D00CE0754F032664373E600AE078
:100880001678360704D10678C6F30316032E02D075
:1008900006290DD014E06F4F05263E606D4E783668
:1008A00035606C4E083633603F263F1D3E6002E0E7
:1008B0001678360704D10678C6F30316052E02D043
:1008C000062957D062E0644E3668644F3E60624E3F
:1008D000361D36683F1D3E605F4E083636683F1D48
:1008E0003E605D4E0C3636683F1D3E605A4E1036F7
:1008F00036683F1D3E60584E143636683F1D3E60D8
:10090000554E18363668554F20373E60524E1C36CD
:1009100036683F1D3E60504E203636683F1D3E60B3
:100920004D4E243636683F1D3E604B4E28363668A5
:100930003F1D3E60484E2C3636683F1D3E60464E99
:1009400030363668454F40373E60434E3436366861
:100950003F1D3E60404E383636683F1D3E603E4E7D
:100960003C3636683F1D3E603B4E403636683F1D84
:100970003E6002E01678360708D10678C6F3031603
:10098000032E06D0042E04D0052E02D0062907D04F
:1009900019E0D4F85812324A01F04F01116002E018
:1009A000117809070FD10078C0F30310032803D092
:1009B000042801D0052806D12A480168C90702D0B9
:1009C0006FF00101016022487438016841F4700140
:1009D0000160BFF34F8FBFF36F8F4FF01021D1F83D
:1009E0000002002803DBD1F80402002822DA1E4AA4
:1009F00015601E480468002CFCD01524C1F8004284
:100A00000568002DFCD0C1F8044201680029FCD023
:100A1000136001680029FCD0BFF34F8F0C48F038F9
:100A20000168134A01F4E06111430160BFF34F8F85
:100A300000BFFDE710490F480860F0BDE00F00F06F
:100A4000403501400DF0ADBA00C007403C05004004
:100A5000FCED00E0105600400404001020C50040EA
:100A6000E40E00400004004004E5014000E40140C1
:100A70000400FA050090D0036000002010B500F0DB
:100A8000BFFC02490020C1F8400110BD00B0014088
:100A900002E008C8121F08C1002AFAD17047704747
:100AA000002001E001C1121F002AFBD17047022083
:100AB00000F010B970B50024064D06E06868012109
:100AC00010F8340001F0BEFB641C28788442F5D392
:100AD000002070BD18000020F8B515460C460646EB
:100AE000052A01D20720F8BD01F092FC18B901F0E7
:100AF00061FC0028F7D1104900204E600C70C1E95C
:100B000002500E4D08610DE006EBC40069680091CB
:100B100081788DF801100078094A694601F0E4FBFC
:100B20000028E0D1641EE4B2EED2BDE8F840054AE8
:100B30000021024800F02CB8180000209428000082
:100B4000F11200005112000009480068C00700D0EF
:100B500000BEBFF34F8F0648E4380168054A01F430
:100B6000E06111430160BFF34F8F00BFFDE700005C
:100B7000F0ED00E00400FA050EB500210091CDE98A
:100B800001106A4644F20100FFF7DEFF0EBD0000CF
:100B9000074B9B7823B12AB120B10068037C1BB1BD
:100BA0000820704707207047417442610020704759
:100BB0008802002070B501F01DFD104800240B21B3
:100BC000047044700E4D817014206C602C706C7039
:100BD000FFF73EFD07211420FFF771FD1420FFF7FA
:100BE0004DFD0848046007211120FFF768FD054806
:100BF000001F0068A860002070BD0000880200206F
:100C00002C000020081501402DE9F843DFF8709012
:100C100099F802305BB350B3052902D20720BDE832
:100C2000F88343691BB3437C012B22D00027044681
:100C3000002588461646284600F036F8684601F03A
:100C4000DFFDC0B1012101700E4944600968C0E9AF
:100C50000218C0E904769DF8000089F80100002020
:100C600000F024F81420FFF71FFD2846D7E70820DE
:100C7000D5E70F46DBE70425002000F017F8F4E77E
:100C800088020020041501400649897839B130B145
:100C9000416921B100210174022101F057BD0820F2
:100CA000704700008802002000F002B800F008B889
:100CB00072B602480168491C01607047400000207C
:100CC00003490868401E086000D162B67047000002
:100CD0004000002007490B5C4FF0A041D1F80425EB
:100CE0000120984020EA0203C1F808351040C1F8FD
:100CF0000C0570475C2800000249085C012101F0E6
:100D0000C6BB00005C2800000249085C002101F01D
:100D1000BEBB00005C2800000649095C4FF0A04003
:100D2000D0F80405C84010F0010000D0012080F088
:100D3000010070475C2800007CB50024084E254661
:100D40000122305D009500231146019501F06AFBF8
:100D5000641C042CF4D3BDE87C4000F003B8000010
:100D60005C28000010B500242046FFF7C5FF641C76
:100D7000042CF9D310BD10B500242046FFF7C4FFA2
:100D8000641C042CF9D310BD10B50246064B4FF07D
:100D9000FF3000215C5C944201D1084610BD491C23
:100DA0000429F7D310BD0000602800002DE9F047AA
:100DB0000D468146FFF7E8FF0446042836D2DFF8E7
:100DC00074801B481C4EA8F10C0725B3012D0ED0D2
:100DD000022D2BD104EB440030444578002D25D062
:100DE000B968002922D02846BDE8F047084704EB3F
:100DF0004401755C0E44717849B10E4A4FF40041CC
:100E0000093A8068FFF700FF08B987F80390B178C6
:100E100008F80410E2E78068FFF736FF04EB4401AE
:100E2000314418F804008D78A842D7D0BDE8F08787
:100E30006428000014000020D001002070B50023B9
:100E4000042810D20D4D00EB4004012A02D10129E3
:100E50000CD00022094E00EB4000304461B1012962
:100E600006D0022906D00723184670BD0E30C2B244
:100E70002A55F9E74270F7E78270F5E7D0010020C4
:100E80000B490E2808D00F2809D010280DD01128A2
:100E90000AD14FF4801004E04FF4003001E04FF429
:100EA000802048600120087070474FF40020F8E768
:100EB0000000002070B506461E480024C0E901610C
:100EC000B00720D50025012211462846FFF7B6FFBE
:100ED0006D1C0446042D02D2002CF4D013E094B90A
:100EE00040F2666204211448FFF7F6FD04000AD1BF
:100EF000FFF7E0FD040006D10F48104A0021001F53
:100F0000FFF746FE0446F00701D0FFF715FF74B95E
:100F100009480B4A00210C38FFF73AFE040006D1BD
:100F20000548084A01210838FFF732FE04462046EA
:100F300070BD0000080000207028000001110000B2
:100F400025180000AF0A00002DE9F05F6A4C054645
:100F500000266078B34618B184F801B000F04AFC6E
:100F6000664F4FF47A694FF4C87A4FF00108182D94
:100F700062D2DFE805F0AC0C0C31404D62676B7457
:100F80006B74BE7D7D7D7D7DACAFB2B5BEBE0020F5
:100F9000FFF7C2FE00284FF0000008D0FFF7ACFEBC
:100FA000022D02D14FF4E16008E0484606E0FFF769
:100FB000ABFE022D01D1C82000E05046410CC00319
:100FC0004FF4FA72801841F100012570520000239D
:100FD000FFF732F901462AE00020FFF79DFE0028C6
:100FE0004FF0000004D0FFF787FE4FF44870E5E7AC
:100FF000FFF78AFEDFE70020FFF78EFE00284FF0A4
:10100000000002D0FFF778FECFE7FFF77DFED4E7C0
:101010000020FFF781FE00284FF0000002D0FFF70C
:101020006BFE01E0FFF770FE257041F69A11002279
:101030003868FFF7E9FD064646E00020FFF74AFE64
:10104000257008E0002051E025703DE084F8018023
:101050000120FFF73FFE002240F6CD41E8E784F88B
:1010600001800120FFF736FE00224FF48041DFE7C8
:101070007868FFF709FE0646D5F1110000D02EB1C1
:101080000220FFF739FE84F802B01DE0012816D9CE
:1010900080B2C8214843C117C90341EA5041C00387
:1010A0004FF4FA72801841F1000152000023FFF75B
:1010B000C3F8014600227868FFF7A6FD0646022025
:1010C000FFF722FE84F802803046BDE8F09F00F072
:1010D00091FBB9E700F08EFBB4E700F08BFB04E076
:1010E00000F088FB0020FFF70FFE0120FFF70CFE49
:1010F000AAE7FFF740FEA7E70800002064280000E9
:1011000000780221FFF752BE05494FF0FF32082850
:1011100041F8202002D3084480F84820704700009E
:1011200010020020F0B54FF0FF3512B10023082661
:1011300001E008230C260C4C05E000BF54F8237096
:101140007F1C04D05B1CB342F8D32846F0BD2618A0
:101150005DB286F8305044F82310002AF5D1E1182A
:1011600081F84800F1E7000010020020024908441D
:1011700090F93000704700001002002070B5084C54
:10118000050009D010342168002907D008682060C4
:10119000496828468847F6E70834F4E770BD000040
:1011A000FC0100202DE9F05F26484168F1B3DFF82B
:1011B00098B00E688146DBF8004087688078E11BB4
:1011C00021F07F45ED1CB0B9DFF880804FF480300E
:1011D000C8F84403C8F804031120FFF739FA1120B6
:1011E000FFF74CFA4FF0010AC8F800A02F2000F0DA
:1011F00035FF89F802A0B54200D23546124BE819F6
:101200003C3320F07F401860DBF800105A46091B81
:1012100021F07F41001B20F07F40C91C81420FD983
:10122000106818602F2000F019FF00E004E0BDE80E
:10123000F05F1120FFF738BABDE8F05F01F0DAB9CE
:10124000BDE8F09F2C000020041501400010014073
:101250002DE9F04100260125144C22E06068226946
:1012600000EBC607387805FA00F1114217D08A431F
:10127000226101F095F802463878E36805FA00F13A
:10128000194002FA00F3994209D17978012901D075
:10129000012100E0002151407A6802B19047761C9C
:1012A000F6B220788642D9D3BDE8F081180000203C
:1012B0000E4910B50A784C780023A24212D0521C75
:1012C000D2B20A70022A00D10B70084A0B780C3295
:1012D00052F8232002608868104420F07F40886024
:1012E000012010BD0360002010BD00002C00002074
:1012F0002DE9F041124E07460125BD403068FFF749
:10130000C3FC00280DD10F4C2069284207D1384674
:1013100001F046F80028E06805D0284304E0A8431F
:101320002061BDE8F081A843E06020692843206186
:10133000A1683068BDE8F0410022FFF765BC0000FD
:10134000942800001800002070B5254CA0421ED142
:10135000F1B1012936D0022928D0032917D107205D
:1013600000F0C8FB002812D194F8680094F86910C6
:1013700088420CD194F86A00002808D10023D4E9EF
:1013800001501A460321A847012084F86A0070BD65
:10139000052000F0AFFB0028F9D1A06864680023A5
:1013A000A446BDE870401A46012160471046190066
:1013B000EDD00028EBD00278302AE8D1BDE87040AB
:1013C00000F0B8BB082000F095FB28B9A068002306
:1013D00064681A460221A047BDE8704000F044BC92
:1013E0002404002004480221C0F804130349C0F873
:1013F000041300F09DB80000005000408000080079
:1014000070B513480068134C10F0030F4FF000053F
:1014100001D0A56070BDA068401CA0600728F9D964
:101420000D480126066100F05FFEBFF35F8F0B4899
:101430000560BFF35F8F0660666826B100231A4619
:101440000121E068B0476570BDE87040FFF7CABF92
:101450003C5400404800002000B00140FC5F0040C8
:10146000FEB5224887780A2F23D0214A0324072F6C
:10147000167855789378D1788DF800608DF8015002
:1014800086EA05008DF802301AD04B4058408DF89E
:1014900003108DF80400FF2204210DF10500FEF772
:1014A0000EFF00BF8DF809400A21684600F016FDC6
:1014B000FEBD03B00A21BDE8F0400D4800F00EBDAE
:1014C00083F0880358408DF803008DF804101379D9
:1014D0008DF8053050798DF80600927959405040CA
:1014E00041408DF807208DF80810DBE74800002008
:1014F000180400200C4810B50268001D0168001D8A
:1015000003680A48140A02704470120C8270C17099
:101510000A0A02710A0C4271090E8171C371190A1B
:101520000172190C417210BD500400101804002003
:101530001B491A48897804292BD007292BD010F889
:10154000011B10F8012B090441EA022110F8012BBC
:101550001143144A1160022110F8012B10F8013BCD
:10156000120442EA032210F8013B1A430D4B1B1FE1
:101570001A600268C07812BA22F0FF0202430948DA
:1015800008380260042000EB811006490831086029
:1015900070470021EDE70121DEE70000180400207C
:1015A000480000209855004070B50C00054613D047
:1015B0000A4800F0A5FF0A480560094940F6FF7097
:1015C0000C3100EAC400086006481021C0F804137A
:1015D0000121C160002070BD0C2070BD1051004081
:1015E000105500400050004070B51D4AD160506059
:1015F000907818B907209070FFF77CFFFFF7F2FE94
:10160000FFF72EFF1648174910300024C0E90041AB
:1016100000F0AAFD054614480460001D046012494C
:1016200004200C310860104964203C3108600F48E8
:101630000121C0F800120904C0F804131B20FFF7B1
:1016400012F807211B20FFF74AF81B20FFF721F8AB
:101650001DB1852D01D0032070BD002070BD00009C
:1016600048000020F124000004B5014000B0014012
:10167000094910B50D20086008490120886005203F
:10168000FEF7F1FF07210520FFF729F80520FFF7F6
:1016900000F8002010BD000004540040005000403D
:1016A000054910B501200860012000F0C9FC0028A0
:1016B000FAD10249487010BD04000040FC0100202E
:1016C0000268134602E08A4204D01268002AFAD166
:1016D0000B600160704700002DE9F041044640783E
:1016E000D8B3A178884238D9E078B0B3E068A0B325
:1016F00054211B48FEF7EAFD1948142221460C30FC
:10170000FEF7CBFD164D0126174A6E70A078E178E2
:101710000844A88000202870E068A860287B85F82D
:101720002000E068A86220696862FF2085F8210037
:101730000C4805F12001E86201F11000074600F0B5
:10174000FFF800280AD1AE70A078E1780844C1B251
:101750003846BDE8F04100F0EBB80720BDE8F08165
:10176000940300209C2800006D17000070B51949F3
:1017700019480A68002A2ADC02464478D37B9288FA
:1017800064B1447BE51A954206DC002242708480F5
:1017900042690BE0521D0BE0D1180CE0847BE51888
:1017A000954207D30122427084800269002AF1D158
:1017B0000A6001E0D11A818001790748303000F0D9
:1017C000B7F8002805D0BDE87040FFF7D5B9FF3A5B
:1017D000EEE770BD4400002094030020014601485C
:1017E00000F0DCB8C4030020014800F0EDB80000B0
:1017F000C40300200A4810B5807860B1002401E0DD
:10180000022C06D02046FFF777FA641C042CF7D38D
:1018100010BD0324F6E7BDE81040FFF7A3BA0000AF
:101820000800002003480179C90702D00078FFF7BB
:101830008BBB7047080000202DE9F047394E002788
:1018400080463D46DFF8E090D6F804A057E003D08C
:101850000446D0F81C8035E099F8002002EB4201E4
:10186000521CD2B289F8002009EBC10199F802306C
:10187000091D9A4201D189F8005048680A78044647
:10188000012A12D0022A02D0032A3BD108E000F03C
:101890002DFF00B10127257434E00574C06900E014
:1018A00070680028F9D170602CE0207C50BB8868FB
:1018B0006060C868A0600869E0604869A061F0786D
:1018C00000B165606268B168184B501A20F07F4023
:1018D000984202D2A168084406E0881AA16820F064
:1018E0007F40814202D9081A206000E025606560CF
:1018F0000120A56020742046E56100F0D9FEB8F112
:101900000000A4D199F8001099F801008142A3D1F8
:1019100017B97168514502D00120BDE8F087002059
:10192000FBE700002C00002088020020FFFF7F0062
:1019300082788A4201D207207047C1700020704728
:1019400070B58261044608788E6820708868A0604F
:101950008868E060486820624878A070C868002500
:101960000D4A2946E061FFF713F9002812D14FF024
:10197000A041032046B1F20703D001EB8502C2F873
:10198000000776086D1CF5E7204600F0D7FD012022
:101990002071002070BD00006D25000070B5044668
:1019A000022020710D462046E16000F0C7FDA068CE
:1019B0002843A06000202075A569A061204600F0A2
:1019C000D5FD0020A56170BD70B50446C0690068F2
:1019D000FFF75AF90546204600F0B0FD0DB1284644
:1019E00070BD01202071002070BD000086B000F0A5
:1019F000BBFB08B1FFF7C0F8002000F0D7FBFFF7F2
:101A0000D9F808B1FFF7B8F814221F496846FEF765
:101A100044FC4FF40040019040100290C8208DF823
:101A2000010004208DF8020001208DF803006846B3
:101A3000FFF752FE08B1FFF79FF814490220FFF7A5
:101A400039FA08B1FFF798F800F076F9104C4FF426
:101A5000003060606068FFF7C1FE08B1FFF78CF8E6
:101A6000002520BF20780028FBD02570FFF7BCFEA2
:101A700008B1FFF781F86068FFF7B0FE0028F0D0EA
:101A8000FFF77AF8EDE7000048280000810E00001B
:101A90000000002010B51C46934200D9144622468F
:101AA000FEF7FBFB204610BD10B51C46934200D943
:101AB00014460A462146FEF702FC204610BD0000EF
:101AC0000B4900F1100213464A610A6913448B6105
:101AD00028B14FF47C73CB614FF4806301E00023A5
:101AE000CB61C01C104480080B6281F8690070470C
:101AF0002404002070B50D4D0D4A00212C7800BF44
:101B000001EB4103D65CA6420AD113445B788342C1
:101B100006D101EB4100104480782870002070BD90
:101B2000491C0E29ECD3082070BD000024040020BD
:101B30006400002070B50446022920D10620FFF77A
:101B4000D9FF00281BD10E4964784B69A2002046BA
:101B5000934208D88D69103D954204D3C968C3EB00
:101B60008400084403E000F017F8054838301021DD
:101B7000FFF71AFD2046BDE8704000F099B870BD2F
:101B800024040020034902684A6242688A6200898C
:101B900088857047240400202DE9F041264F8400F9
:101BA000102529463846FEF791FBA7F138067069E3
:101BB000A0420BD9021B31192B4638462431FFF7BE
:101BC00069FFD0F110050444074432D0B069A04247
:101BD0000CD970693169201A0A1AF1682B46014440
:101BE0003846FFF757FF2D1A04440744002D20D034
:101BF000F069A04209D9021B2B4600213846FFF7A5
:101C000053FF2D1A0444074413D0306AA04208D968
:101C1000021B2B46FF213846FFF746FF2D1A0744CB
:101C200007D02B463846BDE8F0411A460021FFF7A1
:101C30003BBFBDE8F08100005C04002070B50C469D
:101C40000546914201D90C2070BD0120FFF752FFDB
:101C500008B1082070BD05B900240248C0E903544A
:101C6000002070BD2404002070B5002103230A4623
:101C70000C460E4801260CE006FA03F50D43E9B2C6
:101C80005B1E05D5831883F8481007230021521CDA
:101C9000641C90F86950A542EEDC024482F84810BA
:101CA000002100F8681F817070BD0000240400202E
:101CB000F0B5C208514200EBC1010024124BC1F142
:101CC00007010125042813D305FA01F603EB020CE2
:101CD000F7B29CF848603E4204D0BE438CF848609E
:101CE0002E4600E0002693F868703E4483F8686052
:101CF000491E01D50721521C401C10F0FF0002D0E4
:101D0000641C042CDEDBF0BD2404002010B5012986
:101D100009D002290DD1FFF725F806484068BDE833
:101D20001040FFF75BBDFFF75FFDBDE81040FFF718
:101D300022B810BD000000201CB54FF48070019047
:101D400000210F4800F0F8F808B1FEF715FF01A8D0
:101D500000900C4B18220C49012000F017F908B133
:101D6000FEF70AFF0748019900F0C6F808B1FEF730
:101D700003FF00F0A8F8002801D0FEF7FDFE1CBD0F
:101D80000D1D000090000020302800002DE9F843D0
:101D90009046894607004FF0000606D0B8F1000FC4
:101DA00003D03D680DB1002422E00E20BDE8F88389
:101DB00024B1611C884207D1402106E0012801D0EE
:101DC000802102E0C02100E00021D8F800006B462D
:101DD000801B00904A46286800F01FF80028E5D1D3
:101DE0000098B9F1000F064400D08144641C2D1DF9
:101DF000B868A042DCD80020C8F80060D6E7D0E977
:101E000001329A4201D304207047036843F822103C
:101E10008168491C8160002070472DE9F843144611
:101E200098460A4605004FF000074AD06878297A9C
:101E30004618B61D00B1761C8CB332F0C00002D03B
:101E40000720BDE8F883D8F80000B04201D2042092
:101E5000F7E722702B78601C1A4322702A7A00F868
:101E6000012B21460746041D687828B104F8010BB0
:101E7000087840F0080008702A7A2046E968FEF7E2
:101E80000CFA287A6A7804442AB120466968FEF779
:101E900004FA68780444D8F80000801B00902B698D
:101EA0007BB16A462146686998470028C9D114B1B8
:101EB000009800BA3860009831180020C8F8001067
:101EC000BFE70E20BDE710B50420FFF713FE08B1F1
:101ED000082010BDBDE81040FFF7CABB10B518B10F
:101EE0000A2902D00C2010BD0248FFF74BFE00204B
:101EF00010BD0000C528000010B54FF47772FFF741
:101F00009DFE040013D10B480322016900F8342F11
:101F1000FE2902D84170022005E0FF2242700A0A21
:101F20008270C1700420FFF7CBFDFFF79DFE2046B5
:101F300010BD00002404002070B50E46050005D039
:101F40000020FFF7D7FD18B1082070BD072070BD35
:101F50000B4C0C48C4E901561434FFF713FEFF2064
:101F6000A076E076E1202077112060777C20A077B2
:101F70000F20E077BDE8704001490348FFF734BB0C
:101F800024040020C52800004913000070B51D4638
:101F9000134B0C468EB0D3E90113129ECDE9071303
:101FA0000DA906910E498DF824008DF82C200A9475
:101FB00018220C316846FEF770F909A805906946A9
:101FC00006A8FFF71CFF002805D134B13246294688
:101FD00006A8FFF7DBFE0EB070BD0E20FBE7000089
:101FE000A028000070B51546044661B1207A2A6821
:101FF000904201D3042070BD20780870481C227ADA
:102000006168FEF74AF9207A401C2860002070BD04
:10201000C20800F007030120895C9840084070471F
:1020200000F180400068002800D00120704708B50A
:1020300000F18040002101600068009008BD0000B0
:102040000549096840F4803001F00111814201D155
:1020500001207047002070470C04004000283ED04B
:102060001F49204A096800BF00BF00BF00BF00BF72
:1020700000BF00BF00BF91422FD000BF00BF00BF14
:1020800000BF00BF00BF00BF00BF00BF00BF00BF58
:1020900000BF00BF00BF00BF00BF00BF00BF00BF48
:1020A00000BF00BF00BF00BF00BF00BF00BF00BF38
:1020B00000BF00BF00BF00BF00BF00BF00BF00BF28
:1020C00000BF00BF00BF00BF00BF00BF00BF00BF18
:1020D00000BF00BF00BF00BF00BF0138C3D17047C1
:1020E000600000200024F40010B50020FEF7DCFDA5
:1020F00006484168491E4160406808B9FFF7D0FAB8
:10210000BDE810400020FEF7D1BD0000FC0100201A
:1021100070B5144D0446687838B114B16168002078
:1021200088470020FEF7C0FD13E00020FEF7BCFD4D
:1021300024B10C4821460830FFF7C2FA686840B95C
:102140004FF48070FFF773FF01208107C1F804038B
:1021500008606868401C6860BDE870400020FEF7B9
:10216000A5BD0000FC01002070B50E4C00252078B4
:1021700008B1852513E00021A16061602161E16063
:102180004FF0E020D0F80001012610F0010F03D13C
:102190000721002000F03AF8034806602670284620
:1021A00070BD0000FC0100201805004070B5154D01
:1021B0000446A87838B114B161680120884700202E
:1021C000FEF772FD15E00020FEF76EFD24B10D480C
:1021D00021461030FFF774FAE86850B94FF4827066
:1021E000FFF725FF02204107C1F80403064901203B
:1021F0000860E868401CE860BDE870400020FEF719
:1022000055BD0000FC010020080000404907090EF0
:10221000002806DA00F00F0202F1E02282F8141D15
:1022200003E000F1E02282F8001400F01F02012117
:1022300091404009800000F1E020C0F88012C0F811
:10224000001170472DE9F0418846054600F05EF91F
:10225000234E002828461AD0FEF788FF304490F815
:1022600048008009032802D001280ED007E04FF073
:10227000A040D0F81005E84010F0010F05D0032170
:102280002846BDE8F04100F0F1B80221F8E700F07F
:1022900049F9002822D02846FEF768FF04464FF48B
:1022A000807000EB84000F4F81B207EB8400D0F800
:1022B000102542F00102C0F81025084600F006F98A
:1022C000B8F1000F0AD02846FEF750FF56F820005C
:1022D000002803D00120A040C7F80403BDE8F08126
:1022E00010020020006000402DE9FC41DFF8A480CE
:1022F000044608EB0400002790F930001346C0178D
:102300000E46401C01D0082741E0F27819462046CD
:10231000FEF708FF0546401C38D0B07850B14FF0AA
:10232000A04000EB8400D0F8001721F00201C0F8B3
:10233000001707E000217378204600910A460191BA
:1023400000F082F8F078C0B11348317800EB8500D6
:10235000D0F81025114B1A40C0F810254FF4F85250
:102360004FF4403302EA042203EA01410A43D0F861
:1023700010150A43C0F8102509E008EB0500327873
:1023800010F8481F41EA8211017000E00427384626
:10239000BDE8FC811002002000600040FFE0FCFF6F
:1023A0004FF0A041D1F81015C14011F0010000D04C
:1023B0000120704770B5144D95F8540008B10820FD
:1023C00070BD0020411E2A18401CC0B282F8301097
:1023D0002028F8D300242046FEF796FE641CE4B2C1
:1023E0000C2CF8D307210620FFF710FF4FF4BE7026
:1023F00000F06CF805494FF00040C1F804030120DB
:1024000085F85400002070BD1002002000600040DC
:10241000034890F85400002800D0012070470000C5
:102420001002002070B541EA4201DDE904564FF088
:10243000A04441EA830141EA052104EB800041EA1E
:102440000641C0F8001770BD70B541EA4201DDE9F0
:1024500004564FF0A04441EA830141EA052104EB10
:10246000800041EA0641C0F8001770BD4FF0A0425D
:1024700002EB8000D0F8002722F44032C0F8002799
:10248000D0F8002742EA0141C0F800177047012246
:102490004FF0A043824011B1C3F808257047C3F83C
:1024A0000C25704718B5084B6C4601441B68009317
:1024B00006E000BF54F82030D3F81035401C08C2A5
:1024C0008142F7D818BD000090280000034908B5E4
:1024D0000844002101600068009008BD00600040D1
:1024E00002494058012800D0002070470060004099
:1024F000002802D1014901200860704700500040C7
:1025000008B5002101600068009008BD0449084436
:1025100090F93000082801DB012070470020704747
:10252000100200200449084490F93000082801D224
:102530000120704700207047100200200378026AD3
:10254000C16813B1C2F80C1501E0C2F808150021EA
:10255000417070470378026AC16813B1C2F8081568
:1025600001E0C2F80C1501214170704770B50446B6
:10257000007D052660B12046FFF7E0FF00202075B2
:10258000A078E178411A11FB00F006EB20201FE053
:10259000A16921B1204688472079022828D1E57811
:1025A000A078A84203D12046FFF7D4FF0EE02046D2
:1025B00055B1FFF7CFFFA07810FB05F006EB102018
:1025C00020610120207504E0FFF7B8FFA078401DCE
:1025D0002061207902280BD1E06921692246006838
:1025E000FEF712FB002803D0BDE87040FEF7C4BA26
:1025F00070BD000070B5012670044FF0E021002589
:10260000C1F88001084C4010C4F84803C4F808031E
:1026100066602F20FFF722FDA660044C2F20A560E6
:10262000FFF71CFDA57070BD001001402C000020BC
:102630002DE9F84F1D4C00256846D4E901A6FEF7A8
:1026400037FE002738B30023009A61681CE0D1F8F8
:1026500000C00846944503D9ACEB02020A6015E0BD
:10266000A2EB0C0263440760D0F80CC0C16981463C
:10267000BCF1000F08D006EB030828F07F48C0E942
:10268000018CC9F81C5005460029E0D1284661603C
:10269000FFF7D2F803E02846FFF7CEF810B1504616
:1026A000FEF780FDE770BDE8F88F00002C000020E9
:1026B0000D4B10B5596831B102680C68A24204D8BC
:1026C000A21A0A60C161586010BD0B4603E00B46B8
:1026D000C969121B21B10C689442F8D3A41A0C608A
:1026E0000260C161D86110BD2C0000202DE9F041CD
:1026F000144E77683D462C4603E0844204D02546BC
:10270000E469002CF9D11BE0D4B1A5420BD1F869E2
:10271000706040B90C49012088600021B160F07000
:102720002F20FFF79BFC2168E069E86110B1026887
:10273000114401607068874202D00120BDE8F08139
:102740000020FBE72C00002000100140F8B50646F1
:1027500000240D462046FEF7A7FA684600F050F820
:1027600068B10570084946609DF800004870002077
:10277000FEF79CFA1420FDF797FF2046F8BD0424CD
:102780000020FEF793FAF8E7880200202DE9F041D7
:10279000194D6C68002C2CD0184800270068A968D7
:1027A000B846401A20F07F462068B0420CD8214637
:1027B000361A0744E469087C20B181F810808869E2
:1027C00049698847002CEFD129786878814206D181
:1027D000401CC0B26870022801D185F8018006480B
:1027E00069780C3040F82170BDE8F0411420FDF705
:1027F0005BBFBDE8F08100002C0000200415014003
:102800000A494A788B78521CD2B2934200D10022F6
:102810000B78934201D1002070470270487800EB9A
:10282000400001EBC000001D70470000880200203E
:102830006E6F7264696373656D692E636F6D2F735C
:10284000746172743532646B00DC000500000100B5
:102850000000000000001E000000005011121314C0
:102860000D0E0F1090010020B0010020DC010020AF
:102870000D000300AD0D00000E000300AD0D0000C3
:102880000F000300AD0D000010000300AD0D0000AF
:10289000000000506802002003000000E803002050
:1028A0000000000001000000000000000100000026
:1028B0000000000001000000C4280000E51F000027
:1028C0000000000055000102030405060708090086
:1028D000F02800000000002090000000900A000096
:1028E000802900009000002000240000A00A0000C1
:1028F00000000000000000000000000000000000D8
:1029000000000000000000000000000000000000C7
:1029100000000000000000000000000000000000B7
:1029200000000000000000000000000000000000A7
:102930000000000000000000000000000000000097
:102940000000000000000000000000000000000087
:102950000090D003040605040803040902050704D7
:10296000050803050902030504030902000001012B
:102970000102020403020A0002010202090200002D
:0400000500000201F4
:00000001FF
